{
	"solidity基础/待办列表todoList.sol": {
		"ToDoList": {
			"abi": [
				{
					"inputs": [
						{
							"internalType": "string",
							"name": "_text",
							"type": "string"
						}
					],
					"name": "create",
					"outputs": [],
					"stateMutability": "nonpayable",
					"type": "function"
				},
				{
					"inputs": [
						{
							"internalType": "uint256",
							"name": "index",
							"type": "uint256"
						}
					],
					"name": "get",
					"outputs": [
						{
							"components": [
								{
									"internalType": "string",
									"name": "text",
									"type": "string"
								},
								{
									"internalType": "bool",
									"name": "completed",
									"type": "bool"
								}
							],
							"internalType": "struct ToDoList.ToDo",
							"name": "",
							"type": "tuple"
						}
					],
					"stateMutability": "view",
					"type": "function"
				},
				{
					"inputs": [
						{
							"internalType": "uint256",
							"name": "index",
							"type": "uint256"
						}
					],
					"name": "toggleCompleted",
					"outputs": [],
					"stateMutability": "nonpayable",
					"type": "function"
				},
				{
					"inputs": [
						{
							"internalType": "uint256",
							"name": "index",
							"type": "uint256"
						},
						{
							"internalType": "string",
							"name": "newText",
							"type": "string"
						}
					],
					"name": "updateText",
					"outputs": [],
					"stateMutability": "nonpayable",
					"type": "function"
				}
			],
			"devdoc": {
				"kind": "dev",
				"methods": {},
				"version": 1
			},
			"evm": {
				"assembly": "    /* \"solidity\\xe5\\x9f\\xba\\xe7\\xa1\\x80/\\xe5\\xbe\\x85\\xe5\\x8a\\x9e\\xe5\\x88\\x97\\xe8\\xa1\\xa8todoList.sol\":60:1313  contract ToDoList {... */\n  mstore(0x40, 0x80)\n  callvalue\n  dup1\n  iszero\n  tag_1\n  jumpi\n  revert(0x00, 0x00)\ntag_1:\n  pop\n  dataSize(sub_0)\n  dup1\n  dataOffset(sub_0)\n  0x00\n  codecopy\n  0x00\n  return\nstop\n\nsub_0: assembly {\n        /* \"solidity\\xe5\\x9f\\xba\\xe7\\xa1\\x80/\\xe5\\xbe\\x85\\xe5\\x8a\\x9e\\xe5\\x88\\x97\\xe8\\xa1\\xa8todoList.sol\":60:1313  contract ToDoList {... */\n      mstore(0x40, 0x80)\n      callvalue\n      dup1\n      iszero\n      tag_1\n      jumpi\n      revert(0x00, 0x00)\n    tag_1:\n      pop\n      jumpi(tag_2, lt(calldatasize, 0x04))\n      shr(0xe0, calldataload(0x00))\n      dup1\n      0x455f5024\n      eq\n      tag_3\n      jumpi\n      dup1\n      0x9507d39a\n      eq\n      tag_4\n      jumpi\n      dup1\n      0xb6a46b3b\n      eq\n      tag_5\n      jumpi\n      dup1\n      0xcd111614\n      eq\n      tag_6\n      jumpi\n    tag_2:\n      revert(0x00, 0x00)\n        /* \"solidity\\xe5\\x9f\\xba\\xe7\\xa1\\x80/\\xe5\\xbe\\x85\\xe5\\x8a\\x9e\\xe5\\x88\\x97\\xe8\\xa1\\xa8todoList.sol\":1082:1201  function toggleCompleted(uint index) external {... */\n    tag_3:\n      tag_7\n      0x04\n      dup1\n      calldatasize\n      sub\n      dup2\n      add\n      swap1\n      tag_8\n      swap2\n      swap1\n      tag_9\n      jump\t// in\n    tag_8:\n      tag_10\n      jump\t// in\n    tag_7:\n      stop\n        /* \"solidity\\xe5\\x9f\\xba\\xe7\\xa1\\x80/\\xe5\\xbe\\x85\\xe5\\x8a\\x9e\\xe5\\x88\\x97\\xe8\\xa1\\xa8todoList.sol\":1209:1310  function get(uint index) external view returns (ToDo memory){... */\n    tag_4:\n      tag_11\n      0x04\n      dup1\n      calldatasize\n      sub\n      dup2\n      add\n      swap1\n      tag_12\n      swap2\n      swap1\n      tag_9\n      jump\t// in\n    tag_12:\n      tag_13\n      jump\t// in\n    tag_11:\n      mload(0x40)\n      tag_14\n      swap2\n      swap1\n      tag_15\n      jump\t// in\n    tag_14:\n      mload(0x40)\n      dup1\n      swap2\n      sub\n      swap1\n      return\n        /* \"solidity\\xe5\\x9f\\xba\\xe7\\xa1\\x80/\\xe5\\xbe\\x85\\xe5\\x8a\\x9e\\xe5\\x88\\x97\\xe8\\xa1\\xa8todoList.sol\":660:817  function create(string calldata _text) external  {... */\n    tag_5:\n      tag_16\n      0x04\n      dup1\n      calldatasize\n      sub\n      dup2\n      add\n      swap1\n      tag_17\n      swap2\n      swap1\n      tag_18\n      jump\t// in\n    tag_17:\n      tag_19\n      jump\t// in\n    tag_16:\n      stop\n        /* \"solidity\\xe5\\x9f\\xba\\xe7\\xa1\\x80/\\xe5\\xbe\\x85\\xe5\\x8a\\x9e\\xe5\\x88\\x97\\xe8\\xa1\\xa8todoList.sol\":825:1074  function updateText(uint index, string calldata newText) external {... */\n    tag_6:\n      tag_20\n      0x04\n      dup1\n      calldatasize\n      sub\n      dup2\n      add\n      swap1\n      tag_21\n      swap2\n      swap1\n      tag_22\n      jump\t// in\n    tag_21:\n      tag_23\n      jump\t// in\n    tag_20:\n      stop\n        /* \"solidity\\xe5\\x9f\\xba\\xe7\\xa1\\x80/\\xe5\\xbe\\x85\\xe5\\x8a\\x9e\\xe5\\x88\\x97\\xe8\\xa1\\xa8todoList.sol\":1082:1201  function toggleCompleted(uint index) external {... */\n    tag_10:\n        /* \"solidity\\xe5\\x9f\\xba\\xe7\\xa1\\x80/\\xe5\\xbe\\x85\\xe5\\x8a\\x9e\\xe5\\x88\\x97\\xe8\\xa1\\xa8todoList.sol\":1168:1176  toDoList */\n      0x00\n        /* \"solidity\\xe5\\x9f\\xba\\xe7\\xa1\\x80/\\xe5\\xbe\\x85\\xe5\\x8a\\x9e\\xe5\\x88\\x97\\xe8\\xa1\\xa8todoList.sol\":1177:1182  index */\n      dup2\n        /* \"solidity\\xe5\\x9f\\xba\\xe7\\xa1\\x80/\\xe5\\xbe\\x85\\xe5\\x8a\\x9e\\xe5\\x88\\x97\\xe8\\xa1\\xa8todoList.sol\":1168:1183  toDoList[index] */\n      dup2\n      sload\n      dup2\n      lt\n      tag_25\n      jumpi\n      tag_26\n      tag_27\n      jump\t// in\n    tag_26:\n    tag_25:\n      swap1\n      0x00\n      mstore\n      keccak256(0x00, 0x20)\n      swap1\n      0x02\n      mul\n      add\n        /* \"solidity\\xe5\\x9f\\xba\\xe7\\xa1\\x80/\\xe5\\xbe\\x85\\xe5\\x8a\\x9e\\xe5\\x88\\x97\\xe8\\xa1\\xa8todoList.sol\":1168:1193  toDoList[index].completed */\n      0x01\n      add\n      0x00\n      swap1\n      sload\n      swap1\n      0x0100\n      exp\n      swap1\n      div\n      0xff\n      and\n        /* \"solidity\\xe5\\x9f\\xba\\xe7\\xa1\\x80/\\xe5\\xbe\\x85\\xe5\\x8a\\x9e\\xe5\\x88\\x97\\xe8\\xa1\\xa8todoList.sol\":1167:1193  !toDoList[index].completed */\n      iszero\n        /* \"solidity\\xe5\\x9f\\xba\\xe7\\xa1\\x80/\\xe5\\xbe\\x85\\xe5\\x8a\\x9e\\xe5\\x88\\x97\\xe8\\xa1\\xa8todoList.sol\":1139:1147  toDoList */\n      0x00\n        /* \"solidity\\xe5\\x9f\\xba\\xe7\\xa1\\x80/\\xe5\\xbe\\x85\\xe5\\x8a\\x9e\\xe5\\x88\\x97\\xe8\\xa1\\xa8todoList.sol\":1148:1153  index */\n      dup3\n        /* \"solidity\\xe5\\x9f\\xba\\xe7\\xa1\\x80/\\xe5\\xbe\\x85\\xe5\\x8a\\x9e\\xe5\\x88\\x97\\xe8\\xa1\\xa8todoList.sol\":1139:1154  toDoList[index] */\n      dup2\n      sload\n      dup2\n      lt\n      tag_29\n      jumpi\n      tag_30\n      tag_27\n      jump\t// in\n    tag_30:\n    tag_29:\n      swap1\n      0x00\n      mstore\n      keccak256(0x00, 0x20)\n      swap1\n      0x02\n      mul\n      add\n        /* \"solidity\\xe5\\x9f\\xba\\xe7\\xa1\\x80/\\xe5\\xbe\\x85\\xe5\\x8a\\x9e\\xe5\\x88\\x97\\xe8\\xa1\\xa8todoList.sol\":1139:1164  toDoList[index].completed */\n      0x01\n      add\n      0x00\n        /* \"solidity\\xe5\\x9f\\xba\\xe7\\xa1\\x80/\\xe5\\xbe\\x85\\xe5\\x8a\\x9e\\xe5\\x88\\x97\\xe8\\xa1\\xa8todoList.sol\":1139:1193  toDoList[index].completed = !toDoList[index].completed */\n      0x0100\n      exp\n      dup2\n      sload\n      dup2\n      0xff\n      mul\n      not\n      and\n      swap1\n      dup4\n      iszero\n      iszero\n      mul\n      or\n      swap1\n      sstore\n      pop\n        /* \"solidity\\xe5\\x9f\\xba\\xe7\\xa1\\x80/\\xe5\\xbe\\x85\\xe5\\x8a\\x9e\\xe5\\x88\\x97\\xe8\\xa1\\xa8todoList.sol\":1082:1201  function toggleCompleted(uint index) external {... */\n      pop\n      jump\t// out\n        /* \"solidity\\xe5\\x9f\\xba\\xe7\\xa1\\x80/\\xe5\\xbe\\x85\\xe5\\x8a\\x9e\\xe5\\x88\\x97\\xe8\\xa1\\xa8todoList.sol\":1209:1310  function get(uint index) external view returns (ToDo memory){... */\n    tag_13:\n        /* \"solidity\\xe5\\x9f\\xba\\xe7\\xa1\\x80/\\xe5\\xbe\\x85\\xe5\\x8a\\x9e\\xe5\\x88\\x97\\xe8\\xa1\\xa8todoList.sol\":1257:1268  ToDo memory */\n      tag_32\n      tag_33\n      jump\t// in\n    tag_32:\n        /* \"solidity\\xe5\\x9f\\xba\\xe7\\xa1\\x80/\\xe5\\xbe\\x85\\xe5\\x8a\\x9e\\xe5\\x88\\x97\\xe8\\xa1\\xa8todoList.sol\":1287:1295  toDoList */\n      0x00\n        /* \"solidity\\xe5\\x9f\\xba\\xe7\\xa1\\x80/\\xe5\\xbe\\x85\\xe5\\x8a\\x9e\\xe5\\x88\\x97\\xe8\\xa1\\xa8todoList.sol\":1296:1301  index */\n      dup3\n        /* \"solidity\\xe5\\x9f\\xba\\xe7\\xa1\\x80/\\xe5\\xbe\\x85\\xe5\\x8a\\x9e\\xe5\\x88\\x97\\xe8\\xa1\\xa8todoList.sol\":1287:1302  toDoList[index] */\n      dup2\n      sload\n      dup2\n      lt\n      tag_35\n      jumpi\n      tag_36\n      tag_27\n      jump\t// in\n    tag_36:\n    tag_35:\n      swap1\n      0x00\n      mstore\n      keccak256(0x00, 0x20)\n      swap1\n      0x02\n      mul\n      add\n        /* \"solidity\\xe5\\x9f\\xba\\xe7\\xa1\\x80/\\xe5\\xbe\\x85\\xe5\\x8a\\x9e\\xe5\\x88\\x97\\xe8\\xa1\\xa8todoList.sol\":1280:1302  return toDoList[index] */\n      mload(0x40)\n      dup1\n      0x40\n      add\n      0x40\n      mstore\n      swap1\n      dup2\n      0x00\n      dup3\n      add\n      dup1\n      sload\n      tag_38\n      swap1\n      tag_39\n      jump\t// in\n    tag_38:\n      dup1\n      0x1f\n      add\n      0x20\n      dup1\n      swap2\n      div\n      mul\n      0x20\n      add\n      mload(0x40)\n      swap1\n      dup2\n      add\n      0x40\n      mstore\n      dup1\n      swap3\n      swap2\n      swap1\n      dup2\n      dup2\n      mstore\n      0x20\n      add\n      dup3\n      dup1\n      sload\n      tag_40\n      swap1\n      tag_39\n      jump\t// in\n    tag_40:\n      dup1\n      iszero\n      tag_41\n      jumpi\n      dup1\n      0x1f\n      lt\n      tag_42\n      jumpi\n      0x0100\n      dup1\n      dup4\n      sload\n      div\n      mul\n      dup4\n      mstore\n      swap2\n      0x20\n      add\n      swap2\n      jump(tag_41)\n    tag_42:\n      dup3\n      add\n      swap2\n      swap1\n      0x00\n      mstore\n      keccak256(0x00, 0x20)\n      swap1\n    tag_43:\n      dup2\n      sload\n      dup2\n      mstore\n      swap1\n      0x01\n      add\n      swap1\n      0x20\n      add\n      dup1\n      dup4\n      gt\n      tag_43\n      jumpi\n      dup3\n      swap1\n      sub\n      0x1f\n      and\n      dup3\n      add\n      swap2\n    tag_41:\n      pop\n      pop\n      pop\n      pop\n      pop\n      dup2\n      mstore\n      0x20\n      add\n      0x01\n      dup3\n      add\n      0x00\n      swap1\n      sload\n      swap1\n      0x0100\n      exp\n      swap1\n      div\n      0xff\n      and\n      iszero\n      iszero\n      iszero\n      iszero\n      dup2\n      mstore\n      pop\n      pop\n      swap1\n      pop\n        /* \"solidity\\xe5\\x9f\\xba\\xe7\\xa1\\x80/\\xe5\\xbe\\x85\\xe5\\x8a\\x9e\\xe5\\x88\\x97\\xe8\\xa1\\xa8todoList.sol\":1209:1310  function get(uint index) external view returns (ToDo memory){... */\n      swap2\n      swap1\n      pop\n      jump\t// out\n        /* \"solidity\\xe5\\x9f\\xba\\xe7\\xa1\\x80/\\xe5\\xbe\\x85\\xe5\\x8a\\x9e\\xe5\\x88\\x97\\xe8\\xa1\\xa8todoList.sol\":660:817  function create(string calldata _text) external  {... */\n    tag_19:\n        /* \"solidity\\xe5\\x9f\\xba\\xe7\\xa1\\x80/\\xe5\\xbe\\x85\\xe5\\x8a\\x9e\\xe5\\x88\\x97\\xe8\\xa1\\xa8todoList.sol\":720:728  toDoList */\n      0x00\n        /* \"solidity\\xe5\\x9f\\xba\\xe7\\xa1\\x80/\\xe5\\xbe\\x85\\xe5\\x8a\\x9e\\xe5\\x88\\x97\\xe8\\xa1\\xa8todoList.sol\":734:808  ToDo({... */\n      mload(0x40)\n      dup1\n      0x40\n      add\n      0x40\n      mstore\n      dup1\n        /* \"solidity\\xe5\\x9f\\xba\\xe7\\xa1\\x80/\\xe5\\xbe\\x85\\xe5\\x8a\\x9e\\xe5\\x88\\x97\\xe8\\xa1\\xa8todoList.sol\":760:765  _text */\n      dup5\n      dup5\n        /* \"solidity\\xe5\\x9f\\xba\\xe7\\xa1\\x80/\\xe5\\xbe\\x85\\xe5\\x8a\\x9e\\xe5\\x88\\x97\\xe8\\xa1\\xa8todoList.sol\":734:808  ToDo({... */\n      dup1\n      dup1\n      0x1f\n      add\n      0x20\n      dup1\n      swap2\n      div\n      mul\n      0x20\n      add\n      mload(0x40)\n      swap1\n      dup2\n      add\n      0x40\n      mstore\n      dup1\n      swap4\n      swap3\n      swap2\n      swap1\n      dup2\n      dup2\n      mstore\n      0x20\n      add\n      dup4\n      dup4\n      dup1\n      dup3\n      dup5\n      calldatacopy\n      0x00\n      dup2\n      dup5\n      add\n      mstore\n      not(0x1f)\n      0x1f\n      dup3\n      add\n      and\n      swap1\n      pop\n      dup1\n      dup4\n      add\n      swap3\n      pop\n      pop\n      pop\n      pop\n      pop\n      pop\n      pop\n      dup2\n      mstore\n      0x20\n      add\n        /* \"solidity\\xe5\\x9f\\xba\\xe7\\xa1\\x80/\\xe5\\xbe\\x85\\xe5\\x8a\\x9e\\xe5\\x88\\x97\\xe8\\xa1\\xa8todoList.sol\":791:796  false */\n      0x00\n        /* \"solidity\\xe5\\x9f\\xba\\xe7\\xa1\\x80/\\xe5\\xbe\\x85\\xe5\\x8a\\x9e\\xe5\\x88\\x97\\xe8\\xa1\\xa8todoList.sol\":734:808  ToDo({... */\n      iszero\n      iszero\n      dup2\n      mstore\n      pop\n        /* \"solidity\\xe5\\x9f\\xba\\xe7\\xa1\\x80/\\xe5\\xbe\\x85\\xe5\\x8a\\x9e\\xe5\\x88\\x97\\xe8\\xa1\\xa8todoList.sol\":720:809  toDoList.push(ToDo({... */\n      swap1\n      dup1\n      0x01\n      dup2\n      sload\n      add\n      dup1\n      dup3\n      sstore\n      dup1\n      swap2\n      pop\n      pop\n      0x01\n      swap1\n      sub\n      swap1\n      0x00\n      mstore\n      keccak256(0x00, 0x20)\n      swap1\n      0x02\n      mul\n      add\n      0x00\n      swap1\n      swap2\n      swap1\n      swap2\n      swap1\n      swap2\n      pop\n      0x00\n      dup3\n      add\n      mload\n      dup2\n      0x00\n      add\n      swap1\n      dup2\n      tag_46\n      swap2\n      swap1\n      tag_47\n      jump\t// in\n    tag_46:\n      pop\n      0x20\n      dup3\n      add\n      mload\n      dup2\n      0x01\n      add\n      exp(0x0100, 0x00)\n      dup2\n      sload\n      dup2\n      0xff\n      mul\n      not\n      and\n      swap1\n      dup4\n      iszero\n      iszero\n      mul\n      or\n      swap1\n      sstore\n      pop\n      pop\n      pop\n        /* \"solidity\\xe5\\x9f\\xba\\xe7\\xa1\\x80/\\xe5\\xbe\\x85\\xe5\\x8a\\x9e\\xe5\\x88\\x97\\xe8\\xa1\\xa8todoList.sol\":660:817  function create(string calldata _text) external  {... */\n      pop\n      pop\n      jump\t// out\n        /* \"solidity\\xe5\\x9f\\xba\\xe7\\xa1\\x80/\\xe5\\xbe\\x85\\xe5\\x8a\\x9e\\xe5\\x88\\x97\\xe8\\xa1\\xa8todoList.sol\":825:1074  function updateText(uint index, string calldata newText) external {... */\n    tag_23:\n        /* \"solidity\\xe5\\x9f\\xba\\xe7\\xa1\\x80/\\xe5\\xbe\\x85\\xe5\\x8a\\x9e\\xe5\\x88\\x97\\xe8\\xa1\\xa8todoList.sol\":925:932  newText */\n      dup2\n      dup2\n        /* \"solidity\\xe5\\x9f\\xba\\xe7\\xa1\\x80/\\xe5\\xbe\\x85\\xe5\\x8a\\x9e\\xe5\\x88\\x97\\xe8\\xa1\\xa8todoList.sol\":902:910  toDoList */\n      0x00\n        /* \"solidity\\xe5\\x9f\\xba\\xe7\\xa1\\x80/\\xe5\\xbe\\x85\\xe5\\x8a\\x9e\\xe5\\x88\\x97\\xe8\\xa1\\xa8todoList.sol\":911:916  index */\n      dup6\n        /* \"solidity\\xe5\\x9f\\xba\\xe7\\xa1\\x80/\\xe5\\xbe\\x85\\xe5\\x8a\\x9e\\xe5\\x88\\x97\\xe8\\xa1\\xa8todoList.sol\":902:917  toDoList[index] */\n      dup2\n      sload\n      dup2\n      lt\n      tag_49\n      jumpi\n      tag_50\n      tag_27\n      jump\t// in\n    tag_50:\n    tag_49:\n      swap1\n      0x00\n      mstore\n      keccak256(0x00, 0x20)\n      swap1\n      0x02\n      mul\n      add\n        /* \"solidity\\xe5\\x9f\\xba\\xe7\\xa1\\x80/\\xe5\\xbe\\x85\\xe5\\x8a\\x9e\\xe5\\x88\\x97\\xe8\\xa1\\xa8todoList.sol\":902:922  toDoList[index].text */\n      0x00\n      add\n        /* \"solidity\\xe5\\x9f\\xba\\xe7\\xa1\\x80/\\xe5\\xbe\\x85\\xe5\\x8a\\x9e\\xe5\\x88\\x97\\xe8\\xa1\\xa8todoList.sol\":902:932  toDoList[index].text = newText */\n      swap2\n      dup3\n      tag_52\n      swap3\n      swap2\n      swap1\n      tag_53\n      jump\t// in\n    tag_52:\n      pop\n        /* \"solidity\\xe5\\x9f\\xba\\xe7\\xa1\\x80/\\xe5\\xbe\\x85\\xe5\\x8a\\x9e\\xe5\\x88\\x97\\xe8\\xa1\\xa8todoList.sol\":825:1074  function updateText(uint index, string calldata newText) external {... */\n      pop\n      pop\n      pop\n      jump\t// out\n    tag_33:\n      mload(0x40)\n      dup1\n      0x40\n      add\n      0x40\n      mstore\n      dup1\n      0x60\n      dup2\n      mstore\n      0x20\n      add\n      iszero(iszero(0x00))\n      dup2\n      mstore\n      pop\n      swap1\n      jump\t// out\n        /* \"#utility.yul\":88:205   */\n    tag_55:\n        /* \"#utility.yul\":197:198   */\n      0x00\n        /* \"#utility.yul\":194:195   */\n      0x00\n        /* \"#utility.yul\":187:199   */\n      revert\n        /* \"#utility.yul\":211:328   */\n    tag_56:\n        /* \"#utility.yul\":320:321   */\n      0x00\n        /* \"#utility.yul\":317:318   */\n      0x00\n        /* \"#utility.yul\":310:322   */\n      revert\n        /* \"#utility.yul\":334:411   */\n    tag_57:\n        /* \"#utility.yul\":371:378   */\n      0x00\n        /* \"#utility.yul\":400:405   */\n      dup2\n        /* \"#utility.yul\":389:405   */\n      swap1\n      pop\n        /* \"#utility.yul\":334:411   */\n      swap2\n      swap1\n      pop\n      jump\t// out\n        /* \"#utility.yul\":417:539   */\n    tag_58:\n        /* \"#utility.yul\":490:514   */\n      tag_96\n        /* \"#utility.yul\":508:513   */\n      dup2\n        /* \"#utility.yul\":490:514   */\n      tag_57\n      jump\t// in\n    tag_96:\n        /* \"#utility.yul\":483:488   */\n      dup2\n        /* \"#utility.yul\":480:515   */\n      eq\n        /* \"#utility.yul\":470:533   */\n      tag_97\n      jumpi\n        /* \"#utility.yul\":529:530   */\n      0x00\n        /* \"#utility.yul\":526:527   */\n      0x00\n        /* \"#utility.yul\":519:531   */\n      revert\n        /* \"#utility.yul\":470:533   */\n    tag_97:\n        /* \"#utility.yul\":417:539   */\n      pop\n      jump\t// out\n        /* \"#utility.yul\":545:684   */\n    tag_59:\n        /* \"#utility.yul\":591:596   */\n      0x00\n        /* \"#utility.yul\":629:635   */\n      dup2\n        /* \"#utility.yul\":616:636   */\n      calldataload\n        /* \"#utility.yul\":607:636   */\n      swap1\n      pop\n        /* \"#utility.yul\":645:678   */\n      tag_99\n        /* \"#utility.yul\":672:677   */\n      dup2\n        /* \"#utility.yul\":645:678   */\n      tag_58\n      jump\t// in\n    tag_99:\n        /* \"#utility.yul\":545:684   */\n      swap3\n      swap2\n      pop\n      pop\n      jump\t// out\n        /* \"#utility.yul\":690:1019   */\n    tag_9:\n        /* \"#utility.yul\":749:755   */\n      0x00\n        /* \"#utility.yul\":798:800   */\n      0x20\n        /* \"#utility.yul\":786:795   */\n      dup3\n        /* \"#utility.yul\":777:784   */\n      dup5\n        /* \"#utility.yul\":773:796   */\n      sub\n        /* \"#utility.yul\":769:801   */\n      slt\n        /* \"#utility.yul\":766:885   */\n      iszero\n      tag_101\n      jumpi\n        /* \"#utility.yul\":804:883   */\n      tag_102\n      tag_55\n      jump\t// in\n    tag_102:\n        /* \"#utility.yul\":766:885   */\n    tag_101:\n        /* \"#utility.yul\":924:925   */\n      0x00\n        /* \"#utility.yul\":949:1002   */\n      tag_103\n        /* \"#utility.yul\":994:1001   */\n      dup5\n        /* \"#utility.yul\":985:991   */\n      dup3\n        /* \"#utility.yul\":974:983   */\n      dup6\n        /* \"#utility.yul\":970:992   */\n      add\n        /* \"#utility.yul\":949:1002   */\n      tag_59\n      jump\t// in\n    tag_103:\n        /* \"#utility.yul\":939:1002   */\n      swap2\n      pop\n        /* \"#utility.yul\":895:1012   */\n      pop\n        /* \"#utility.yul\":690:1019   */\n      swap3\n      swap2\n      pop\n      pop\n      jump\t// out\n        /* \"#utility.yul\":1025:1124   */\n    tag_60:\n        /* \"#utility.yul\":1077:1083   */\n      0x00\n        /* \"#utility.yul\":1111:1116   */\n      dup2\n        /* \"#utility.yul\":1105:1117   */\n      mload\n        /* \"#utility.yul\":1095:1117   */\n      swap1\n      pop\n        /* \"#utility.yul\":1025:1124   */\n      swap2\n      swap1\n      pop\n      jump\t// out\n        /* \"#utility.yul\":1130:1289   */\n    tag_61:\n        /* \"#utility.yul\":1204:1215   */\n      0x00\n        /* \"#utility.yul\":1238:1244   */\n      dup3\n        /* \"#utility.yul\":1233:1236   */\n      dup3\n        /* \"#utility.yul\":1226:1245   */\n      mstore\n        /* \"#utility.yul\":1278:1282   */\n      0x20\n        /* \"#utility.yul\":1273:1276   */\n      dup3\n        /* \"#utility.yul\":1269:1283   */\n      add\n        /* \"#utility.yul\":1254:1283   */\n      swap1\n      pop\n        /* \"#utility.yul\":1130:1289   */\n      swap3\n      swap2\n      pop\n      pop\n      jump\t// out\n        /* \"#utility.yul\":1295:1434   */\n    tag_62:\n        /* \"#utility.yul\":1384:1390   */\n      dup3\n        /* \"#utility.yul\":1379:1382   */\n      dup2\n        /* \"#utility.yul\":1374:1377   */\n      dup4\n        /* \"#utility.yul\":1368:1391   */\n      mcopy\n        /* \"#utility.yul\":1425:1426   */\n      0x00\n        /* \"#utility.yul\":1416:1422   */\n      dup4\n        /* \"#utility.yul\":1411:1414   */\n      dup4\n        /* \"#utility.yul\":1407:1423   */\n      add\n        /* \"#utility.yul\":1400:1427   */\n      mstore\n        /* \"#utility.yul\":1295:1434   */\n      pop\n      pop\n      pop\n      jump\t// out\n        /* \"#utility.yul\":1440:1542   */\n    tag_63:\n        /* \"#utility.yul\":1481:1487   */\n      0x00\n        /* \"#utility.yul\":1532:1534   */\n      0x1f\n        /* \"#utility.yul\":1528:1535   */\n      not\n        /* \"#utility.yul\":1523:1525   */\n      0x1f\n        /* \"#utility.yul\":1516:1521   */\n      dup4\n        /* \"#utility.yul\":1512:1526   */\n      add\n        /* \"#utility.yul\":1508:1536   */\n      and\n        /* \"#utility.yul\":1498:1536   */\n      swap1\n      pop\n        /* \"#utility.yul\":1440:1542   */\n      swap2\n      swap1\n      pop\n      jump\t// out\n        /* \"#utility.yul\":1548:1905   */\n    tag_64:\n        /* \"#utility.yul\":1626:1629   */\n      0x00\n        /* \"#utility.yul\":1654:1693   */\n      tag_109\n        /* \"#utility.yul\":1687:1692   */\n      dup3\n        /* \"#utility.yul\":1654:1693   */\n      tag_60\n      jump\t// in\n    tag_109:\n        /* \"#utility.yul\":1709:1770   */\n      tag_110\n        /* \"#utility.yul\":1763:1769   */\n      dup2\n        /* \"#utility.yul\":1758:1761   */\n      dup6\n        /* \"#utility.yul\":1709:1770   */\n      tag_61\n      jump\t// in\n    tag_110:\n        /* \"#utility.yul\":1702:1770   */\n      swap4\n      pop\n        /* \"#utility.yul\":1779:1844   */\n      tag_111\n        /* \"#utility.yul\":1837:1843   */\n      dup2\n        /* \"#utility.yul\":1832:1835   */\n      dup6\n        /* \"#utility.yul\":1825:1829   */\n      0x20\n        /* \"#utility.yul\":1818:1823   */\n      dup7\n        /* \"#utility.yul\":1814:1830   */\n      add\n        /* \"#utility.yul\":1779:1844   */\n      tag_62\n      jump\t// in\n    tag_111:\n        /* \"#utility.yul\":1869:1898   */\n      tag_112\n        /* \"#utility.yul\":1891:1897   */\n      dup2\n        /* \"#utility.yul\":1869:1898   */\n      tag_63\n      jump\t// in\n    tag_112:\n        /* \"#utility.yul\":1864:1867   */\n      dup5\n        /* \"#utility.yul\":1860:1899   */\n      add\n        /* \"#utility.yul\":1853:1899   */\n      swap2\n      pop\n        /* \"#utility.yul\":1630:1905   */\n      pop\n        /* \"#utility.yul\":1548:1905   */\n      swap3\n      swap2\n      pop\n      pop\n      jump\t// out\n        /* \"#utility.yul\":1911:2001   */\n    tag_65:\n        /* \"#utility.yul\":1945:1952   */\n      0x00\n        /* \"#utility.yul\":1988:1993   */\n      dup2\n        /* \"#utility.yul\":1981:1994   */\n      iszero\n        /* \"#utility.yul\":1974:1995   */\n      iszero\n        /* \"#utility.yul\":1963:1995   */\n      swap1\n      pop\n        /* \"#utility.yul\":1911:2001   */\n      swap2\n      swap1\n      pop\n      jump\t// out\n        /* \"#utility.yul\":2007:2106   */\n    tag_66:\n        /* \"#utility.yul\":2078:2099   */\n      tag_115\n        /* \"#utility.yul\":2093:2098   */\n      dup2\n        /* \"#utility.yul\":2078:2099   */\n      tag_65\n      jump\t// in\n    tag_115:\n        /* \"#utility.yul\":2073:2076   */\n      dup3\n        /* \"#utility.yul\":2066:2100   */\n      mstore\n        /* \"#utility.yul\":2007:2106   */\n      pop\n      pop\n      jump\t// out\n        /* \"#utility.yul\":2164:2757   */\n    tag_67:\n        /* \"#utility.yul\":2271:2274   */\n      0x00\n        /* \"#utility.yul\":2307:2311   */\n      0x40\n        /* \"#utility.yul\":2302:2305   */\n      dup4\n        /* \"#utility.yul\":2298:2312   */\n      add\n        /* \"#utility.yul\":2394:2398   */\n      0x00\n        /* \"#utility.yul\":2387:2392   */\n      dup4\n        /* \"#utility.yul\":2383:2399   */\n      add\n        /* \"#utility.yul\":2377:2400   */\n      mload\n        /* \"#utility.yul\":2447:2450   */\n      dup5\n        /* \"#utility.yul\":2441:2445   */\n      dup3\n        /* \"#utility.yul\":2437:2451   */\n      sub\n        /* \"#utility.yul\":2430:2434   */\n      0x00\n        /* \"#utility.yul\":2425:2428   */\n      dup7\n        /* \"#utility.yul\":2421:2435   */\n      add\n        /* \"#utility.yul\":2414:2452   */\n      mstore\n        /* \"#utility.yul\":2473:2546   */\n      tag_117\n        /* \"#utility.yul\":2541:2545   */\n      dup3\n        /* \"#utility.yul\":2527:2539   */\n      dup3\n        /* \"#utility.yul\":2473:2546   */\n      tag_64\n      jump\t// in\n    tag_117:\n        /* \"#utility.yul\":2465:2546   */\n      swap2\n      pop\n        /* \"#utility.yul\":2322:2557   */\n      pop\n        /* \"#utility.yul\":2644:2648   */\n      0x20\n        /* \"#utility.yul\":2637:2642   */\n      dup4\n        /* \"#utility.yul\":2633:2649   */\n      add\n        /* \"#utility.yul\":2627:2650   */\n      mload\n        /* \"#utility.yul\":2663:2720   */\n      tag_118\n        /* \"#utility.yul\":2714:2718   */\n      0x20\n        /* \"#utility.yul\":2709:2712   */\n      dup7\n        /* \"#utility.yul\":2705:2719   */\n      add\n        /* \"#utility.yul\":2691:2703   */\n      dup3\n        /* \"#utility.yul\":2663:2720   */\n      tag_66\n      jump\t// in\n    tag_118:\n        /* \"#utility.yul\":2567:2730   */\n      pop\n        /* \"#utility.yul\":2747:2751   */\n      dup1\n        /* \"#utility.yul\":2740:2751   */\n      swap2\n      pop\n        /* \"#utility.yul\":2276:2757   */\n      pop\n        /* \"#utility.yul\":2164:2757   */\n      swap3\n      swap2\n      pop\n      pop\n      jump\t// out\n        /* \"#utility.yul\":2763:3112   */\n    tag_15:\n        /* \"#utility.yul\":2894:2898   */\n      0x00\n        /* \"#utility.yul\":2932:2934   */\n      0x20\n        /* \"#utility.yul\":2921:2930   */\n      dup3\n        /* \"#utility.yul\":2917:2935   */\n      add\n        /* \"#utility.yul\":2909:2935   */\n      swap1\n      pop\n        /* \"#utility.yul\":2981:2990   */\n      dup2\n        /* \"#utility.yul\":2975:2979   */\n      dup2\n        /* \"#utility.yul\":2971:2991   */\n      sub\n        /* \"#utility.yul\":2967:2968   */\n      0x00\n        /* \"#utility.yul\":2956:2965   */\n      dup4\n        /* \"#utility.yul\":2952:2969   */\n      add\n        /* \"#utility.yul\":2945:2992   */\n      mstore\n        /* \"#utility.yul\":3009:3105   */\n      tag_120\n        /* \"#utility.yul\":3100:3104   */\n      dup2\n        /* \"#utility.yul\":3091:3097   */\n      dup5\n        /* \"#utility.yul\":3009:3105   */\n      tag_67\n      jump\t// in\n    tag_120:\n        /* \"#utility.yul\":3001:3105   */\n      swap1\n      pop\n        /* \"#utility.yul\":2763:3112   */\n      swap3\n      swap2\n      pop\n      pop\n      jump\t// out\n        /* \"#utility.yul\":3118:3235   */\n    tag_68:\n        /* \"#utility.yul\":3227:3228   */\n      0x00\n        /* \"#utility.yul\":3224:3225   */\n      0x00\n        /* \"#utility.yul\":3217:3229   */\n      revert\n        /* \"#utility.yul\":3241:3358   */\n    tag_69:\n        /* \"#utility.yul\":3350:3351   */\n      0x00\n        /* \"#utility.yul\":3347:3348   */\n      0x00\n        /* \"#utility.yul\":3340:3352   */\n      revert\n        /* \"#utility.yul\":3364:3481   */\n    tag_70:\n        /* \"#utility.yul\":3473:3474   */\n      0x00\n        /* \"#utility.yul\":3470:3471   */\n      0x00\n        /* \"#utility.yul\":3463:3475   */\n      revert\n        /* \"#utility.yul\":3501:4054   */\n    tag_71:\n        /* \"#utility.yul\":3559:3567   */\n      0x00\n        /* \"#utility.yul\":3569:3575   */\n      0x00\n        /* \"#utility.yul\":3619:3622   */\n      dup4\n        /* \"#utility.yul\":3612:3616   */\n      0x1f\n        /* \"#utility.yul\":3604:3610   */\n      dup5\n        /* \"#utility.yul\":3600:3617   */\n      add\n        /* \"#utility.yul\":3596:3623   */\n      slt\n        /* \"#utility.yul\":3586:3708   */\n      tag_125\n      jumpi\n        /* \"#utility.yul\":3627:3706   */\n      tag_126\n      tag_68\n      jump\t// in\n    tag_126:\n        /* \"#utility.yul\":3586:3708   */\n    tag_125:\n        /* \"#utility.yul\":3740:3746   */\n      dup3\n        /* \"#utility.yul\":3727:3747   */\n      calldataload\n        /* \"#utility.yul\":3717:3747   */\n      swap1\n      pop\n        /* \"#utility.yul\":3770:3788   */\n      0xffffffffffffffff\n        /* \"#utility.yul\":3762:3768   */\n      dup2\n        /* \"#utility.yul\":3759:3789   */\n      gt\n        /* \"#utility.yul\":3756:3873   */\n      iszero\n      tag_127\n      jumpi\n        /* \"#utility.yul\":3792:3871   */\n      tag_128\n      tag_69\n      jump\t// in\n    tag_128:\n        /* \"#utility.yul\":3756:3873   */\n    tag_127:\n        /* \"#utility.yul\":3906:3910   */\n      0x20\n        /* \"#utility.yul\":3898:3904   */\n      dup4\n        /* \"#utility.yul\":3894:3911   */\n      add\n        /* \"#utility.yul\":3882:3911   */\n      swap2\n      pop\n        /* \"#utility.yul\":3960:3963   */\n      dup4\n        /* \"#utility.yul\":3952:3956   */\n      0x01\n        /* \"#utility.yul\":3944:3950   */\n      dup3\n        /* \"#utility.yul\":3940:3957   */\n      mul\n        /* \"#utility.yul\":3930:3938   */\n      dup4\n        /* \"#utility.yul\":3926:3958   */\n      add\n        /* \"#utility.yul\":3923:3964   */\n      gt\n        /* \"#utility.yul\":3920:4048   */\n      iszero\n      tag_129\n      jumpi\n        /* \"#utility.yul\":3967:4046   */\n      tag_130\n      tag_70\n      jump\t// in\n    tag_130:\n        /* \"#utility.yul\":3920:4048   */\n    tag_129:\n        /* \"#utility.yul\":3501:4054   */\n      swap3\n      pop\n      swap3\n      swap1\n      pop\n      jump\t// out\n        /* \"#utility.yul\":4060:4589   */\n    tag_18:\n        /* \"#utility.yul\":4131:4137   */\n      0x00\n        /* \"#utility.yul\":4139:4145   */\n      0x00\n        /* \"#utility.yul\":4188:4190   */\n      0x20\n        /* \"#utility.yul\":4176:4185   */\n      dup4\n        /* \"#utility.yul\":4167:4174   */\n      dup6\n        /* \"#utility.yul\":4163:4186   */\n      sub\n        /* \"#utility.yul\":4159:4191   */\n      slt\n        /* \"#utility.yul\":4156:4275   */\n      iszero\n      tag_132\n      jumpi\n        /* \"#utility.yul\":4194:4273   */\n      tag_133\n      tag_55\n      jump\t// in\n    tag_133:\n        /* \"#utility.yul\":4156:4275   */\n    tag_132:\n        /* \"#utility.yul\":4342:4343   */\n      0x00\n        /* \"#utility.yul\":4331:4340   */\n      dup4\n        /* \"#utility.yul\":4327:4344   */\n      add\n        /* \"#utility.yul\":4314:4345   */\n      calldataload\n        /* \"#utility.yul\":4372:4390   */\n      0xffffffffffffffff\n        /* \"#utility.yul\":4364:4370   */\n      dup2\n        /* \"#utility.yul\":4361:4391   */\n      gt\n        /* \"#utility.yul\":4358:4475   */\n      iszero\n      tag_134\n      jumpi\n        /* \"#utility.yul\":4394:4473   */\n      tag_135\n      tag_56\n      jump\t// in\n    tag_135:\n        /* \"#utility.yul\":4358:4475   */\n    tag_134:\n        /* \"#utility.yul\":4507:4572   */\n      tag_136\n        /* \"#utility.yul\":4564:4571   */\n      dup6\n        /* \"#utility.yul\":4555:4561   */\n      dup3\n        /* \"#utility.yul\":4544:4553   */\n      dup7\n        /* \"#utility.yul\":4540:4562   */\n      add\n        /* \"#utility.yul\":4507:4572   */\n      tag_71\n      jump\t// in\n    tag_136:\n        /* \"#utility.yul\":4489:4572   */\n      swap3\n      pop\n      swap3\n      pop\n        /* \"#utility.yul\":4285:4582   */\n      pop\n        /* \"#utility.yul\":4060:4589   */\n      swap3\n      pop\n      swap3\n      swap1\n      pop\n      jump\t// out\n        /* \"#utility.yul\":4595:5269   */\n    tag_22:\n        /* \"#utility.yul\":4675:4681   */\n      0x00\n        /* \"#utility.yul\":4683:4689   */\n      0x00\n        /* \"#utility.yul\":4691:4697   */\n      0x00\n        /* \"#utility.yul\":4740:4742   */\n      0x40\n        /* \"#utility.yul\":4728:4737   */\n      dup5\n        /* \"#utility.yul\":4719:4726   */\n      dup7\n        /* \"#utility.yul\":4715:4738   */\n      sub\n        /* \"#utility.yul\":4711:4743   */\n      slt\n        /* \"#utility.yul\":4708:4827   */\n      iszero\n      tag_138\n      jumpi\n        /* \"#utility.yul\":4746:4825   */\n      tag_139\n      tag_55\n      jump\t// in\n    tag_139:\n        /* \"#utility.yul\":4708:4827   */\n    tag_138:\n        /* \"#utility.yul\":4866:4867   */\n      0x00\n        /* \"#utility.yul\":4891:4944   */\n      tag_140\n        /* \"#utility.yul\":4936:4943   */\n      dup7\n        /* \"#utility.yul\":4927:4933   */\n      dup3\n        /* \"#utility.yul\":4916:4925   */\n      dup8\n        /* \"#utility.yul\":4912:4934   */\n      add\n        /* \"#utility.yul\":4891:4944   */\n      tag_59\n      jump\t// in\n    tag_140:\n        /* \"#utility.yul\":4881:4944   */\n      swap4\n      pop\n        /* \"#utility.yul\":4837:4954   */\n      pop\n        /* \"#utility.yul\":5021:5023   */\n      0x20\n        /* \"#utility.yul\":5010:5019   */\n      dup5\n        /* \"#utility.yul\":5006:5024   */\n      add\n        /* \"#utility.yul\":4993:5025   */\n      calldataload\n        /* \"#utility.yul\":5052:5070   */\n      0xffffffffffffffff\n        /* \"#utility.yul\":5044:5050   */\n      dup2\n        /* \"#utility.yul\":5041:5071   */\n      gt\n        /* \"#utility.yul\":5038:5155   */\n      iszero\n      tag_141\n      jumpi\n        /* \"#utility.yul\":5074:5153   */\n      tag_142\n      tag_56\n      jump\t// in\n    tag_142:\n        /* \"#utility.yul\":5038:5155   */\n    tag_141:\n        /* \"#utility.yul\":5187:5252   */\n      tag_143\n        /* \"#utility.yul\":5244:5251   */\n      dup7\n        /* \"#utility.yul\":5235:5241   */\n      dup3\n        /* \"#utility.yul\":5224:5233   */\n      dup8\n        /* \"#utility.yul\":5220:5242   */\n      add\n        /* \"#utility.yul\":5187:5252   */\n      tag_71\n      jump\t// in\n    tag_143:\n        /* \"#utility.yul\":5169:5252   */\n      swap3\n      pop\n      swap3\n      pop\n        /* \"#utility.yul\":4964:5262   */\n      pop\n        /* \"#utility.yul\":4595:5269   */\n      swap3\n      pop\n      swap3\n      pop\n      swap3\n      jump\t// out\n        /* \"#utility.yul\":5275:5455   */\n    tag_27:\n        /* \"#utility.yul\":5323:5400   */\n      0x4e487b7100000000000000000000000000000000000000000000000000000000\n        /* \"#utility.yul\":5320:5321   */\n      0x00\n        /* \"#utility.yul\":5313:5401   */\n      mstore\n        /* \"#utility.yul\":5420:5424   */\n      0x32\n        /* \"#utility.yul\":5417:5418   */\n      0x04\n        /* \"#utility.yul\":5410:5425   */\n      mstore\n        /* \"#utility.yul\":5444:5448   */\n      0x24\n        /* \"#utility.yul\":5441:5442   */\n      0x00\n        /* \"#utility.yul\":5434:5449   */\n      revert\n        /* \"#utility.yul\":5461:5641   */\n    tag_72:\n        /* \"#utility.yul\":5509:5586   */\n      0x4e487b7100000000000000000000000000000000000000000000000000000000\n        /* \"#utility.yul\":5506:5507   */\n      0x00\n        /* \"#utility.yul\":5499:5587   */\n      mstore\n        /* \"#utility.yul\":5606:5610   */\n      0x22\n        /* \"#utility.yul\":5603:5604   */\n      0x04\n        /* \"#utility.yul\":5596:5611   */\n      mstore\n        /* \"#utility.yul\":5630:5634   */\n      0x24\n        /* \"#utility.yul\":5627:5628   */\n      0x00\n        /* \"#utility.yul\":5620:5635   */\n      revert\n        /* \"#utility.yul\":5647:5967   */\n    tag_39:\n        /* \"#utility.yul\":5691:5697   */\n      0x00\n        /* \"#utility.yul\":5728:5729   */\n      0x02\n        /* \"#utility.yul\":5722:5726   */\n      dup3\n        /* \"#utility.yul\":5718:5730   */\n      div\n        /* \"#utility.yul\":5708:5730   */\n      swap1\n      pop\n        /* \"#utility.yul\":5775:5776   */\n      0x01\n        /* \"#utility.yul\":5769:5773   */\n      dup3\n        /* \"#utility.yul\":5765:5777   */\n      and\n        /* \"#utility.yul\":5796:5814   */\n      dup1\n        /* \"#utility.yul\":5786:5867   */\n      tag_147\n      jumpi\n        /* \"#utility.yul\":5852:5856   */\n      0x7f\n        /* \"#utility.yul\":5844:5850   */\n      dup3\n        /* \"#utility.yul\":5840:5857   */\n      and\n        /* \"#utility.yul\":5830:5857   */\n      swap2\n      pop\n        /* \"#utility.yul\":5786:5867   */\n    tag_147:\n        /* \"#utility.yul\":5914:5916   */\n      0x20\n        /* \"#utility.yul\":5906:5912   */\n      dup3\n        /* \"#utility.yul\":5903:5917   */\n      lt\n        /* \"#utility.yul\":5883:5901   */\n      dup2\n        /* \"#utility.yul\":5880:5918   */\n      sub\n        /* \"#utility.yul\":5877:5961   */\n      tag_148\n      jumpi\n        /* \"#utility.yul\":5933:5951   */\n      tag_149\n      tag_72\n      jump\t// in\n    tag_149:\n        /* \"#utility.yul\":5877:5961   */\n    tag_148:\n        /* \"#utility.yul\":5698:5967   */\n      pop\n        /* \"#utility.yul\":5647:5967   */\n      swap2\n      swap1\n      pop\n      jump\t// out\n        /* \"#utility.yul\":5973:6153   */\n    tag_73:\n        /* \"#utility.yul\":6021:6098   */\n      0x4e487b7100000000000000000000000000000000000000000000000000000000\n        /* \"#utility.yul\":6018:6019   */\n      0x00\n        /* \"#utility.yul\":6011:6099   */\n      mstore\n        /* \"#utility.yul\":6118:6122   */\n      0x41\n        /* \"#utility.yul\":6115:6116   */\n      0x04\n        /* \"#utility.yul\":6108:6123   */\n      mstore\n        /* \"#utility.yul\":6142:6146   */\n      0x24\n        /* \"#utility.yul\":6139:6140   */\n      0x00\n        /* \"#utility.yul\":6132:6147   */\n      revert\n        /* \"#utility.yul\":6159:6300   */\n    tag_74:\n        /* \"#utility.yul\":6208:6212   */\n      0x00\n        /* \"#utility.yul\":6231:6234   */\n      dup2\n        /* \"#utility.yul\":6223:6234   */\n      swap1\n      pop\n        /* \"#utility.yul\":6254:6257   */\n      dup2\n        /* \"#utility.yul\":6251:6252   */\n      0x00\n        /* \"#utility.yul\":6244:6258   */\n      mstore\n        /* \"#utility.yul\":6288:6292   */\n      0x20\n        /* \"#utility.yul\":6285:6286   */\n      0x00\n        /* \"#utility.yul\":6275:6293   */\n      keccak256\n        /* \"#utility.yul\":6267:6293   */\n      swap1\n      pop\n        /* \"#utility.yul\":6159:6300   */\n      swap2\n      swap1\n      pop\n      jump\t// out\n        /* \"#utility.yul\":6306:6399   */\n    tag_75:\n        /* \"#utility.yul\":6343:6349   */\n      0x00\n        /* \"#utility.yul\":6390:6392   */\n      0x20\n        /* \"#utility.yul\":6385:6387   */\n      0x1f\n        /* \"#utility.yul\":6378:6383   */\n      dup4\n        /* \"#utility.yul\":6374:6388   */\n      add\n        /* \"#utility.yul\":6370:6393   */\n      div\n        /* \"#utility.yul\":6360:6393   */\n      swap1\n      pop\n        /* \"#utility.yul\":6306:6399   */\n      swap2\n      swap1\n      pop\n      jump\t// out\n        /* \"#utility.yul\":6405:6512   */\n    tag_76:\n        /* \"#utility.yul\":6449:6457   */\n      0x00\n        /* \"#utility.yul\":6499:6504   */\n      dup3\n        /* \"#utility.yul\":6493:6497   */\n      dup3\n        /* \"#utility.yul\":6489:6505   */\n      shl\n        /* \"#utility.yul\":6468:6505   */\n      swap1\n      pop\n        /* \"#utility.yul\":6405:6512   */\n      swap3\n      swap2\n      pop\n      pop\n      jump\t// out\n        /* \"#utility.yul\":6518:6911   */\n    tag_77:\n        /* \"#utility.yul\":6587:6593   */\n      0x00\n        /* \"#utility.yul\":6637:6638   */\n      0x08\n        /* \"#utility.yul\":6625:6635   */\n      dup4\n        /* \"#utility.yul\":6621:6639   */\n      mul\n        /* \"#utility.yul\":6660:6757   */\n      tag_155\n        /* \"#utility.yul\":6690:6756   */\n      0xffffffffffffffffffffffffffffffffffffffffffffffffffffffffffffffff\n        /* \"#utility.yul\":6679:6688   */\n      dup3\n        /* \"#utility.yul\":6660:6757   */\n      tag_76\n      jump\t// in\n    tag_155:\n        /* \"#utility.yul\":6778:6817   */\n      tag_156\n        /* \"#utility.yul\":6808:6816   */\n      dup7\n        /* \"#utility.yul\":6797:6806   */\n      dup4\n        /* \"#utility.yul\":6778:6817   */\n      tag_76\n      jump\t// in\n    tag_156:\n        /* \"#utility.yul\":6766:6817   */\n      swap6\n      pop\n        /* \"#utility.yul\":6850:6854   */\n      dup1\n        /* \"#utility.yul\":6846:6855   */\n      not\n        /* \"#utility.yul\":6839:6844   */\n      dup5\n        /* \"#utility.yul\":6835:6856   */\n      and\n        /* \"#utility.yul\":6826:6856   */\n      swap4\n      pop\n        /* \"#utility.yul\":6899:6903   */\n      dup1\n        /* \"#utility.yul\":6889:6897   */\n      dup7\n        /* \"#utility.yul\":6885:6904   */\n      and\n        /* \"#utility.yul\":6878:6883   */\n      dup5\n        /* \"#utility.yul\":6875:6905   */\n      or\n        /* \"#utility.yul\":6865:6905   */\n      swap3\n      pop\n        /* \"#utility.yul\":6594:6911   */\n      pop\n      pop\n        /* \"#utility.yul\":6518:6911   */\n      swap4\n      swap3\n      pop\n      pop\n      pop\n      jump\t// out\n        /* \"#utility.yul\":6917:6977   */\n    tag_78:\n        /* \"#utility.yul\":6945:6948   */\n      0x00\n        /* \"#utility.yul\":6966:6971   */\n      dup2\n        /* \"#utility.yul\":6959:6971   */\n      swap1\n      pop\n        /* \"#utility.yul\":6917:6977   */\n      swap2\n      swap1\n      pop\n      jump\t// out\n        /* \"#utility.yul\":6983:7125   */\n    tag_79:\n        /* \"#utility.yul\":7033:7042   */\n      0x00\n        /* \"#utility.yul\":7066:7119   */\n      tag_159\n        /* \"#utility.yul\":7084:7118   */\n      tag_160\n        /* \"#utility.yul\":7093:7117   */\n      tag_161\n        /* \"#utility.yul\":7111:7116   */\n      dup5\n        /* \"#utility.yul\":7093:7117   */\n      tag_57\n      jump\t// in\n    tag_161:\n        /* \"#utility.yul\":7084:7118   */\n      tag_78\n      jump\t// in\n    tag_160:\n        /* \"#utility.yul\":7066:7119   */\n      tag_57\n      jump\t// in\n    tag_159:\n        /* \"#utility.yul\":7053:7119   */\n      swap1\n      pop\n        /* \"#utility.yul\":6983:7125   */\n      swap2\n      swap1\n      pop\n      jump\t// out\n        /* \"#utility.yul\":7131:7206   */\n    tag_80:\n        /* \"#utility.yul\":7174:7177   */\n      0x00\n        /* \"#utility.yul\":7195:7200   */\n      dup2\n        /* \"#utility.yul\":7188:7200   */\n      swap1\n      pop\n        /* \"#utility.yul\":7131:7206   */\n      swap2\n      swap1\n      pop\n      jump\t// out\n        /* \"#utility.yul\":7212:7481   */\n    tag_81:\n        /* \"#utility.yul\":7322:7361   */\n      tag_164\n        /* \"#utility.yul\":7353:7360   */\n      dup4\n        /* \"#utility.yul\":7322:7361   */\n      tag_79\n      jump\t// in\n    tag_164:\n        /* \"#utility.yul\":7383:7474   */\n      tag_165\n        /* \"#utility.yul\":7432:7473   */\n      tag_166\n        /* \"#utility.yul\":7456:7472   */\n      dup3\n        /* \"#utility.yul\":7432:7473   */\n      tag_80\n      jump\t// in\n    tag_166:\n        /* \"#utility.yul\":7424:7430   */\n      dup5\n        /* \"#utility.yul\":7417:7421   */\n      dup5\n        /* \"#utility.yul\":7411:7422   */\n      sload\n        /* \"#utility.yul\":7383:7474   */\n      tag_77\n      jump\t// in\n    tag_165:\n        /* \"#utility.yul\":7377:7381   */\n      dup3\n        /* \"#utility.yul\":7370:7475   */\n      sstore\n        /* \"#utility.yul\":7288:7481   */\n      pop\n        /* \"#utility.yul\":7212:7481   */\n      pop\n      pop\n      pop\n      jump\t// out\n        /* \"#utility.yul\":7487:7560   */\n    tag_82:\n        /* \"#utility.yul\":7532:7535   */\n      0x00\n        /* \"#utility.yul\":7553:7554   */\n      0x00\n        /* \"#utility.yul\":7546:7554   */\n      swap1\n      pop\n        /* \"#utility.yul\":7487:7560   */\n      swap1\n      jump\t// out\n        /* \"#utility.yul\":7566:7755   */\n    tag_83:\n        /* \"#utility.yul\":7643:7675   */\n      tag_169\n      tag_82\n      jump\t// in\n    tag_169:\n        /* \"#utility.yul\":7684:7749   */\n      tag_170\n        /* \"#utility.yul\":7742:7748   */\n      dup2\n        /* \"#utility.yul\":7734:7740   */\n      dup5\n        /* \"#utility.yul\":7728:7732   */\n      dup5\n        /* \"#utility.yul\":7684:7749   */\n      tag_81\n      jump\t// in\n    tag_170:\n        /* \"#utility.yul\":7619:7755   */\n      pop\n        /* \"#utility.yul\":7566:7755   */\n      pop\n      pop\n      jump\t// out\n        /* \"#utility.yul\":7761:7975   */\n    tag_84:\n        /* \"#utility.yul\":7846:7847   */\n      0x00\n        /* \"#utility.yul\":7831:7969   */\n    tag_172:\n        /* \"#utility.yul\":7856:7865   */\n      dup3\n        /* \"#utility.yul\":7853:7854   */\n      dup2\n        /* \"#utility.yul\":7850:7866   */\n      lt\n        /* \"#utility.yul\":7831:7969   */\n      iszero\n      tag_174\n      jumpi\n        /* \"#utility.yul\":7908:7959   */\n      tag_175\n        /* \"#utility.yul\":7957:7958   */\n      0x00\n        /* \"#utility.yul\":7953:7954   */\n      dup3\n        /* \"#utility.yul\":7942:7951   */\n      dup5\n        /* \"#utility.yul\":7938:7955   */\n      add\n        /* \"#utility.yul\":7908:7959   */\n      tag_83\n      jump\t// in\n    tag_175:\n        /* \"#utility.yul\":7881:7882   */\n      0x01\n        /* \"#utility.yul\":7878:7879   */\n      dup2\n        /* \"#utility.yul\":7874:7883   */\n      add\n        /* \"#utility.yul\":7869:7883   */\n      swap1\n      pop\n        /* \"#utility.yul\":7831:7969   */\n      jump(tag_172)\n    tag_174:\n        /* \"#utility.yul\":7835:7849   */\n      pop\n        /* \"#utility.yul\":7761:7975   */\n      pop\n      pop\n      jump\t// out\n        /* \"#utility.yul\":7981:8727   */\n    tag_85:\n        /* \"#utility.yul\":8082:8084   */\n      0x1f\n        /* \"#utility.yul\":8077:8080   */\n      dup3\n        /* \"#utility.yul\":8074:8085   */\n      gt\n        /* \"#utility.yul\":8071:8720   */\n      iszero\n      tag_177\n      jumpi\n        /* \"#utility.yul\":8111:8121   */\n      dup3\n        /* \"#utility.yul\":8106:8109   */\n      dup3\n        /* \"#utility.yul\":8103:8122   */\n      gt\n        /* \"#utility.yul\":8100:8710   */\n      iszero\n      tag_178\n      jumpi\n        /* \"#utility.yul\":8157:8195   */\n      tag_179\n        /* \"#utility.yul\":8189:8194   */\n      dup2\n        /* \"#utility.yul\":8157:8195   */\n      tag_74\n      jump\t// in\n    tag_179:\n        /* \"#utility.yul\":8232:8254   */\n      tag_180\n        /* \"#utility.yul\":8250:8253   */\n      dup4\n        /* \"#utility.yul\":8232:8254   */\n      tag_75\n      jump\t// in\n    tag_180:\n        /* \"#utility.yul\":8291:8320   */\n      tag_181\n        /* \"#utility.yul\":8309:8319   */\n      dup6\n        /* \"#utility.yul\":8291:8320   */\n      tag_75\n      jump\t// in\n    tag_181:\n        /* \"#utility.yul\":8481:8483   */\n      0x20\n        /* \"#utility.yul\":8469:8479   */\n      dup7\n        /* \"#utility.yul\":8466:8484   */\n      lt\n        /* \"#utility.yul\":8463:8542   */\n      iszero\n      tag_182\n      jumpi\n        /* \"#utility.yul\":8523:8524   */\n      0x00\n        /* \"#utility.yul\":8507:8524   */\n      swap1\n      pop\n        /* \"#utility.yul\":8463:8542   */\n    tag_182:\n        /* \"#utility.yul\":8592:8604   */\n      dup1\n        /* \"#utility.yul\":8582:8590   */\n      dup4\n        /* \"#utility.yul\":8578:8605   */\n      add\n        /* \"#utility.yul\":8622:8696   */\n      tag_183\n        /* \"#utility.yul\":8682:8694   */\n      dup3\n        /* \"#utility.yul\":8668:8680   */\n      dup5\n        /* \"#utility.yul\":8664:8695   */\n      sub\n        /* \"#utility.yul\":8651:8662   */\n      dup3\n        /* \"#utility.yul\":8622:8696   */\n      tag_84\n      jump\t// in\n    tag_183:\n        /* \"#utility.yul\":8123:8710   */\n      pop\n      pop\n      pop\n      pop\n        /* \"#utility.yul\":8100:8710   */\n    tag_178:\n        /* \"#utility.yul\":8071:8720   */\n    tag_177:\n        /* \"#utility.yul\":7981:8727   */\n      pop\n      pop\n      pop\n      jump\t// out\n        /* \"#utility.yul\":8733:8850   */\n    tag_86:\n        /* \"#utility.yul\":8787:8795   */\n      0x00\n        /* \"#utility.yul\":8837:8842   */\n      dup3\n        /* \"#utility.yul\":8831:8835   */\n      dup3\n        /* \"#utility.yul\":8827:8843   */\n      shr\n        /* \"#utility.yul\":8806:8843   */\n      swap1\n      pop\n        /* \"#utility.yul\":8733:8850   */\n      swap3\n      swap2\n      pop\n      pop\n      jump\t// out\n        /* \"#utility.yul\":8856:9025   */\n    tag_87:\n        /* \"#utility.yul\":8900:8906   */\n      0x00\n        /* \"#utility.yul\":8933:8984   */\n      tag_186\n        /* \"#utility.yul\":8981:8982   */\n      0x00\n        /* \"#utility.yul\":8977:8983   */\n      not\n        /* \"#utility.yul\":8969:8974   */\n      dup5\n        /* \"#utility.yul\":8966:8967   */\n      0x08\n        /* \"#utility.yul\":8962:8975   */\n      mul\n        /* \"#utility.yul\":8933:8984   */\n      tag_86\n      jump\t// in\n    tag_186:\n        /* \"#utility.yul\":8929:8985   */\n      not\n        /* \"#utility.yul\":9014:9018   */\n      dup1\n        /* \"#utility.yul\":9008:9012   */\n      dup4\n        /* \"#utility.yul\":9004:9019   */\n      and\n        /* \"#utility.yul\":8994:9019   */\n      swap2\n      pop\n        /* \"#utility.yul\":8907:9025   */\n      pop\n        /* \"#utility.yul\":8856:9025   */\n      swap3\n      swap2\n      pop\n      pop\n      jump\t// out\n        /* \"#utility.yul\":9030:9325   */\n    tag_88:\n        /* \"#utility.yul\":9106:9110   */\n      0x00\n        /* \"#utility.yul\":9252:9281   */\n      tag_188\n        /* \"#utility.yul\":9277:9280   */\n      dup4\n        /* \"#utility.yul\":9271:9275   */\n      dup4\n        /* \"#utility.yul\":9252:9281   */\n      tag_87\n      jump\t// in\n    tag_188:\n        /* \"#utility.yul\":9244:9281   */\n      swap2\n      pop\n        /* \"#utility.yul\":9314:9317   */\n      dup3\n        /* \"#utility.yul\":9311:9312   */\n      0x02\n        /* \"#utility.yul\":9307:9318   */\n      mul\n        /* \"#utility.yul\":9301:9305   */\n      dup3\n        /* \"#utility.yul\":9298:9319   */\n      or\n        /* \"#utility.yul\":9290:9319   */\n      swap1\n      pop\n        /* \"#utility.yul\":9030:9325   */\n      swap3\n      swap2\n      pop\n      pop\n      jump\t// out\n        /* \"#utility.yul\":9330:10725   */\n    tag_47:\n        /* \"#utility.yul\":9447:9484   */\n      tag_190\n        /* \"#utility.yul\":9480:9483   */\n      dup3\n        /* \"#utility.yul\":9447:9484   */\n      tag_60\n      jump\t// in\n    tag_190:\n        /* \"#utility.yul\":9549:9567   */\n      0xffffffffffffffff\n        /* \"#utility.yul\":9541:9547   */\n      dup2\n        /* \"#utility.yul\":9538:9568   */\n      gt\n        /* \"#utility.yul\":9535:9591   */\n      iszero\n      tag_191\n      jumpi\n        /* \"#utility.yul\":9571:9589   */\n      tag_192\n      tag_73\n      jump\t// in\n    tag_192:\n        /* \"#utility.yul\":9535:9591   */\n    tag_191:\n        /* \"#utility.yul\":9615:9653   */\n      tag_193\n        /* \"#utility.yul\":9647:9651   */\n      dup3\n        /* \"#utility.yul\":9641:9652   */\n      sload\n        /* \"#utility.yul\":9615:9653   */\n      tag_39\n      jump\t// in\n    tag_193:\n        /* \"#utility.yul\":9700:9767   */\n      tag_194\n        /* \"#utility.yul\":9760:9766   */\n      dup3\n        /* \"#utility.yul\":9752:9758   */\n      dup3\n        /* \"#utility.yul\":9746:9750   */\n      dup6\n        /* \"#utility.yul\":9700:9767   */\n      tag_85\n      jump\t// in\n    tag_194:\n        /* \"#utility.yul\":9794:9795   */\n      0x00\n        /* \"#utility.yul\":9818:9822   */\n      0x20\n        /* \"#utility.yul\":9805:9822   */\n      swap1\n      pop\n        /* \"#utility.yul\":9850:9852   */\n      0x1f\n        /* \"#utility.yul\":9842:9848   */\n      dup4\n        /* \"#utility.yul\":9839:9853   */\n      gt\n        /* \"#utility.yul\":9867:9868   */\n      0x01\n        /* \"#utility.yul\":9862:10480   */\n      dup2\n      eq\n      tag_196\n      jumpi\n        /* \"#utility.yul\":10524:10525   */\n      0x00\n        /* \"#utility.yul\":10541:10547   */\n      dup5\n        /* \"#utility.yul\":10538:10615   */\n      iszero\n      tag_197\n      jumpi\n        /* \"#utility.yul\":10590:10599   */\n      dup3\n        /* \"#utility.yul\":10585:10588   */\n      dup8\n        /* \"#utility.yul\":10581:10600   */\n      add\n        /* \"#utility.yul\":10575:10601   */\n      mload\n        /* \"#utility.yul\":10566:10601   */\n      swap1\n      pop\n        /* \"#utility.yul\":10538:10615   */\n    tag_197:\n        /* \"#utility.yul\":10641:10708   */\n      tag_198\n        /* \"#utility.yul\":10701:10707   */\n      dup6\n        /* \"#utility.yul\":10694:10699   */\n      dup3\n        /* \"#utility.yul\":10641:10708   */\n      tag_88\n      jump\t// in\n    tag_198:\n        /* \"#utility.yul\":10635:10639   */\n      dup7\n        /* \"#utility.yul\":10628:10709   */\n      sstore\n        /* \"#utility.yul\":10497:10719   */\n      pop\n        /* \"#utility.yul\":9832:10719   */\n      jump(tag_195)\n        /* \"#utility.yul\":9862:10480   */\n    tag_196:\n        /* \"#utility.yul\":9914:9918   */\n      0x1f\n        /* \"#utility.yul\":9910:9919   */\n      not\n        /* \"#utility.yul\":9902:9908   */\n      dup5\n        /* \"#utility.yul\":9898:9920   */\n      and\n        /* \"#utility.yul\":9948:9985   */\n      tag_199\n        /* \"#utility.yul\":9980:9984   */\n      dup7\n        /* \"#utility.yul\":9948:9985   */\n      tag_74\n      jump\t// in\n    tag_199:\n        /* \"#utility.yul\":10007:10008   */\n      0x00\n        /* \"#utility.yul\":10021:10229   */\n    tag_200:\n        /* \"#utility.yul\":10035:10042   */\n      dup3\n        /* \"#utility.yul\":10032:10033   */\n      dup2\n        /* \"#utility.yul\":10029:10043   */\n      lt\n        /* \"#utility.yul\":10021:10229   */\n      iszero\n      tag_202\n      jumpi\n        /* \"#utility.yul\":10114:10123   */\n      dup5\n        /* \"#utility.yul\":10109:10112   */\n      dup10\n        /* \"#utility.yul\":10105:10124   */\n      add\n        /* \"#utility.yul\":10099:10125   */\n      mload\n        /* \"#utility.yul\":10091:10097   */\n      dup3\n        /* \"#utility.yul\":10084:10126   */\n      sstore\n        /* \"#utility.yul\":10165:10166   */\n      0x01\n        /* \"#utility.yul\":10157:10163   */\n      dup3\n        /* \"#utility.yul\":10153:10167   */\n      add\n        /* \"#utility.yul\":10143:10167   */\n      swap2\n      pop\n        /* \"#utility.yul\":10212:10214   */\n      0x20\n        /* \"#utility.yul\":10201:10210   */\n      dup6\n        /* \"#utility.yul\":10197:10215   */\n      add\n        /* \"#utility.yul\":10184:10215   */\n      swap5\n      pop\n        /* \"#utility.yul\":10058:10062   */\n      0x20\n        /* \"#utility.yul\":10055:10056   */\n      dup2\n        /* \"#utility.yul\":10051:10063   */\n      add\n        /* \"#utility.yul\":10046:10063   */\n      swap1\n      pop\n        /* \"#utility.yul\":10021:10229   */\n      jump(tag_200)\n    tag_202:\n        /* \"#utility.yul\":10257:10263   */\n      dup7\n        /* \"#utility.yul\":10248:10255   */\n      dup4\n        /* \"#utility.yul\":10245:10264   */\n      lt\n        /* \"#utility.yul\":10242:10421   */\n      iszero\n      tag_203\n      jumpi\n        /* \"#utility.yul\":10315:10324   */\n      dup5\n        /* \"#utility.yul\":10310:10313   */\n      dup10\n        /* \"#utility.yul\":10306:10325   */\n      add\n        /* \"#utility.yul\":10300:10326   */\n      mload\n        /* \"#utility.yul\":10358:10406   */\n      tag_204\n        /* \"#utility.yul\":10400:10404   */\n      0x1f\n        /* \"#utility.yul\":10392:10398   */\n      dup10\n        /* \"#utility.yul\":10388:10405   */\n      and\n        /* \"#utility.yul\":10377:10386   */\n      dup3\n        /* \"#utility.yul\":10358:10406   */\n      tag_87\n      jump\t// in\n    tag_204:\n        /* \"#utility.yul\":10350:10356   */\n      dup4\n        /* \"#utility.yul\":10343:10407   */\n      sstore\n        /* \"#utility.yul\":10265:10421   */\n      pop\n        /* \"#utility.yul\":10242:10421   */\n    tag_203:\n        /* \"#utility.yul\":10467:10468   */\n      0x01\n        /* \"#utility.yul\":10463:10464   */\n      0x02\n        /* \"#utility.yul\":10455:10461   */\n      dup9\n        /* \"#utility.yul\":10451:10465   */\n      mul\n        /* \"#utility.yul\":10447:10469   */\n      add\n        /* \"#utility.yul\":10441:10445   */\n      dup9\n        /* \"#utility.yul\":10434:10470   */\n      sstore\n        /* \"#utility.yul\":9869:10480   */\n      pop\n      pop\n      pop\n        /* \"#utility.yul\":9832:10719   */\n    tag_195:\n      pop\n        /* \"#utility.yul\":9422:10725   */\n      pop\n      pop\n      pop\n        /* \"#utility.yul\":9330:10725   */\n      pop\n      pop\n      jump\t// out\n        /* \"#utility.yul\":10731:10828   */\n    tag_89:\n        /* \"#utility.yul\":10790:10796   */\n      0x00\n        /* \"#utility.yul\":10818:10821   */\n      dup3\n        /* \"#utility.yul\":10808:10821   */\n      swap1\n      pop\n        /* \"#utility.yul\":10731:10828   */\n      swap3\n      swap2\n      pop\n      pop\n      jump\t// out\n        /* \"#utility.yul\":10834:12237   */\n    tag_53:\n        /* \"#utility.yul\":10958:11002   */\n      tag_207\n        /* \"#utility.yul\":10998:11001   */\n      dup4\n        /* \"#utility.yul\":10993:10996   */\n      dup4\n        /* \"#utility.yul\":10958:11002   */\n      tag_89\n      jump\t// in\n    tag_207:\n        /* \"#utility.yul\":11067:11085   */\n      0xffffffffffffffff\n        /* \"#utility.yul\":11059:11065   */\n      dup2\n        /* \"#utility.yul\":11056:11086   */\n      gt\n        /* \"#utility.yul\":11053:11109   */\n      iszero\n      tag_208\n      jumpi\n        /* \"#utility.yul\":11089:11107   */\n      tag_209\n      tag_73\n      jump\t// in\n    tag_209:\n        /* \"#utility.yul\":11053:11109   */\n    tag_208:\n        /* \"#utility.yul\":11133:11171   */\n      tag_210\n        /* \"#utility.yul\":11165:11169   */\n      dup3\n        /* \"#utility.yul\":11159:11170   */\n      sload\n        /* \"#utility.yul\":11133:11171   */\n      tag_39\n      jump\t// in\n    tag_210:\n        /* \"#utility.yul\":11218:11285   */\n      tag_211\n        /* \"#utility.yul\":11278:11284   */\n      dup3\n        /* \"#utility.yul\":11270:11276   */\n      dup3\n        /* \"#utility.yul\":11264:11268   */\n      dup6\n        /* \"#utility.yul\":11218:11285   */\n      tag_85\n      jump\t// in\n    tag_211:\n        /* \"#utility.yul\":11312:11313   */\n      0x00\n        /* \"#utility.yul\":11341:11343   */\n      0x1f\n        /* \"#utility.yul\":11333:11339   */\n      dup4\n        /* \"#utility.yul\":11330:11344   */\n      gt\n        /* \"#utility.yul\":11358:11359   */\n      0x01\n        /* \"#utility.yul\":11353:11985   */\n      dup2\n      eq\n      tag_213\n      jumpi\n        /* \"#utility.yul\":12029:12030   */\n      0x00\n        /* \"#utility.yul\":12046:12052   */\n      dup5\n        /* \"#utility.yul\":12043:12127   */\n      iszero\n      tag_214\n      jumpi\n        /* \"#utility.yul\":12102:12111   */\n      dup3\n        /* \"#utility.yul\":12097:12100   */\n      dup8\n        /* \"#utility.yul\":12093:12112   */\n      add\n        /* \"#utility.yul\":12080:12113   */\n      calldataload\n        /* \"#utility.yul\":12071:12113   */\n      swap1\n      pop\n        /* \"#utility.yul\":12043:12127   */\n    tag_214:\n        /* \"#utility.yul\":12153:12220   */\n      tag_215\n        /* \"#utility.yul\":12213:12219   */\n      dup6\n        /* \"#utility.yul\":12206:12211   */\n      dup3\n        /* \"#utility.yul\":12153:12220   */\n      tag_88\n      jump\t// in\n    tag_215:\n        /* \"#utility.yul\":12147:12151   */\n      dup7\n        /* \"#utility.yul\":12140:12221   */\n      sstore\n        /* \"#utility.yul\":12002:12231   */\n      pop\n        /* \"#utility.yul\":11323:12231   */\n      jump(tag_212)\n        /* \"#utility.yul\":11353:11985   */\n    tag_213:\n        /* \"#utility.yul\":11405:11409   */\n      0x1f\n        /* \"#utility.yul\":11401:11410   */\n      not\n        /* \"#utility.yul\":11393:11399   */\n      dup5\n        /* \"#utility.yul\":11389:11411   */\n      and\n        /* \"#utility.yul\":11439:11476   */\n      tag_216\n        /* \"#utility.yul\":11471:11475   */\n      dup7\n        /* \"#utility.yul\":11439:11476   */\n      tag_74\n      jump\t// in\n    tag_216:\n        /* \"#utility.yul\":11498:11499   */\n      0x00\n        /* \"#utility.yul\":11512:11727   */\n    tag_217:\n        /* \"#utility.yul\":11526:11533   */\n      dup3\n        /* \"#utility.yul\":11523:11524   */\n      dup2\n        /* \"#utility.yul\":11520:11534   */\n      lt\n        /* \"#utility.yul\":11512:11727   */\n      iszero\n      tag_219\n      jumpi\n        /* \"#utility.yul\":11612:11621   */\n      dup5\n        /* \"#utility.yul\":11607:11610   */\n      dup10\n        /* \"#utility.yul\":11603:11622   */\n      add\n        /* \"#utility.yul\":11590:11623   */\n      calldataload\n        /* \"#utility.yul\":11582:11588   */\n      dup3\n        /* \"#utility.yul\":11575:11624   */\n      sstore\n        /* \"#utility.yul\":11663:11664   */\n      0x01\n        /* \"#utility.yul\":11655:11661   */\n      dup3\n        /* \"#utility.yul\":11651:11665   */\n      add\n        /* \"#utility.yul\":11641:11665   */\n      swap2\n      pop\n        /* \"#utility.yul\":11710:11712   */\n      0x20\n        /* \"#utility.yul\":11699:11708   */\n      dup6\n        /* \"#utility.yul\":11695:11713   */\n      add\n        /* \"#utility.yul\":11682:11713   */\n      swap5\n      pop\n        /* \"#utility.yul\":11549:11553   */\n      0x20\n        /* \"#utility.yul\":11546:11547   */\n      dup2\n        /* \"#utility.yul\":11542:11554   */\n      add\n        /* \"#utility.yul\":11537:11554   */\n      swap1\n      pop\n        /* \"#utility.yul\":11512:11727   */\n      jump(tag_217)\n    tag_219:\n        /* \"#utility.yul\":11755:11761   */\n      dup7\n        /* \"#utility.yul\":11746:11753   */\n      dup4\n        /* \"#utility.yul\":11743:11762   */\n      lt\n        /* \"#utility.yul\":11740:11926   */\n      iszero\n      tag_220\n      jumpi\n        /* \"#utility.yul\":11820:11829   */\n      dup5\n        /* \"#utility.yul\":11815:11818   */\n      dup10\n        /* \"#utility.yul\":11811:11830   */\n      add\n        /* \"#utility.yul\":11798:11831   */\n      calldataload\n        /* \"#utility.yul\":11863:11911   */\n      tag_221\n        /* \"#utility.yul\":11905:11909   */\n      0x1f\n        /* \"#utility.yul\":11897:11903   */\n      dup10\n        /* \"#utility.yul\":11893:11910   */\n      and\n        /* \"#utility.yul\":11882:11891   */\n      dup3\n        /* \"#utility.yul\":11863:11911   */\n      tag_87\n      jump\t// in\n    tag_221:\n        /* \"#utility.yul\":11855:11861   */\n      dup4\n        /* \"#utility.yul\":11848:11912   */\n      sstore\n        /* \"#utility.yul\":11763:11926   */\n      pop\n        /* \"#utility.yul\":11740:11926   */\n    tag_220:\n        /* \"#utility.yul\":11972:11973   */\n      0x01\n        /* \"#utility.yul\":11968:11969   */\n      0x02\n        /* \"#utility.yul\":11960:11966   */\n      dup9\n        /* \"#utility.yul\":11956:11970   */\n      mul\n        /* \"#utility.yul\":11952:11974   */\n      add\n        /* \"#utility.yul\":11946:11950   */\n      dup9\n        /* \"#utility.yul\":11939:11975   */\n      sstore\n        /* \"#utility.yul\":11360:11985   */\n      pop\n      pop\n      pop\n        /* \"#utility.yul\":11323:12231   */\n    tag_212:\n      pop\n        /* \"#utility.yul\":10933:12237   */\n      pop\n      pop\n      pop\n        /* \"#utility.yul\":10834:12237   */\n      pop\n      pop\n      pop\n      jump\t// out\n\n    auxdata: 0xa2646970667358221220f98a1e799b785f41f20191f91ad29febc80226ad8b7ad5748f156db203e1a73164736f6c63430008220033\n}\n",
				"bytecode": {
					"linkReferences": {},
					"object": "6080604052348015600e575f5ffd5b506109c18061001c5f395ff3fe608060405234801561000f575f5ffd5b506004361061004a575f3560e01c8063455f50241461004e5780639507d39a1461006a578063b6a46b3b1461009a578063cd111614146100b6575b5f5ffd5b61006860048036038101906100639190610365565b6100d2565b005b610084600480360381019061007f9190610365565b61013d565b6040516100919190610454565b60405180910390f35b6100b460048036038101906100af91906104d5565b61021f565b005b6100d060048036038101906100cb9190610520565b6102d9565b005b5f81815481106100e5576100e461057d565b5b905f5260205f2090600202016001015f9054906101000a900460ff16155f82815481106101155761011461057d565b5b905f5260205f2090600202016001015f6101000a81548160ff02191690831515021790555050565b61014561030f565b5f82815481106101585761015761057d565b5b905f5260205f2090600202016040518060400160405290815f8201805461017e906105d7565b80601f01602080910402602001604051908101604052809291908181526020018280546101aa906105d7565b80156101f55780601f106101cc576101008083540402835291602001916101f5565b820191905f5260205f20905b8154815290600101906020018083116101d857829003601f168201915b50505050508152602001600182015f9054906101000a900460ff1615151515815250509050919050565b5f604051806040016040528084848080601f0160208091040260200160405190810160405280939291908181526020018383808284375f81840152601f19601f8201169050808301925050505050505081526020015f1515815250908060018154018082558091505060019003905f5260205f2090600202015f909190919091505f820151815f0190816102b391906107e5565b506020820151816001015f6101000a81548160ff02191690831515021790555050505050565b81815f85815481106102ee576102ed61057d565b5b905f5260205f2090600202015f0191826103099291906108be565b50505050565b6040518060400160405280606081526020015f151581525090565b5f5ffd5b5f5ffd5b5f819050919050565b61034481610332565b811461034e575f5ffd5b50565b5f8135905061035f8161033b565b92915050565b5f6020828403121561037a5761037961032a565b5b5f61038784828501610351565b91505092915050565b5f81519050919050565b5f82825260208201905092915050565b8281835e5f83830152505050565b5f601f19601f8301169050919050565b5f6103d282610390565b6103dc818561039a565b93506103ec8185602086016103aa565b6103f5816103b8565b840191505092915050565b5f8115159050919050565b61041481610400565b82525050565b5f604083015f8301518482035f86015261043482826103c8565b9150506020830151610449602086018261040b565b508091505092915050565b5f6020820190508181035f83015261046c818461041a565b905092915050565b5f5ffd5b5f5ffd5b5f5ffd5b5f5f83601f84011261049557610494610474565b5b8235905067ffffffffffffffff8111156104b2576104b1610478565b5b6020830191508360018202830111156104ce576104cd61047c565b5b9250929050565b5f5f602083850312156104eb576104ea61032a565b5b5f83013567ffffffffffffffff8111156105085761050761032e565b5b61051485828601610480565b92509250509250929050565b5f5f5f604084860312156105375761053661032a565b5b5f61054486828701610351565b935050602084013567ffffffffffffffff8111156105655761056461032e565b5b61057186828701610480565b92509250509250925092565b7f4e487b71000000000000000000000000000000000000000000000000000000005f52603260045260245ffd5b7f4e487b71000000000000000000000000000000000000000000000000000000005f52602260045260245ffd5b5f60028204905060018216806105ee57607f821691505b602082108103610601576106006105aa565b5b50919050565b7f4e487b71000000000000000000000000000000000000000000000000000000005f52604160045260245ffd5b5f819050815f5260205f209050919050565b5f6020601f8301049050919050565b5f82821b905092915050565b5f600883026106907fffffffffffffffffffffffffffffffffffffffffffffffffffffffffffffffff82610655565b61069a8683610655565b95508019841693508086168417925050509392505050565b5f819050919050565b5f6106d56106d06106cb84610332565b6106b2565b610332565b9050919050565b5f819050919050565b6106ee836106bb565b6107026106fa826106dc565b848454610661565b825550505050565b5f5f905090565b61071961070a565b6107248184846106e5565b505050565b5f5b8281101561074a5761073f5f828401610711565b60018101905061072b565b505050565b601f82111561079d578282111561079c5761076981610634565b61077283610646565b61077b85610646565b6020861015610788575f90505b80830161079782840382610729565b505050505b5b505050565b5f82821c905092915050565b5f6107bd5f19846008026107a2565b1980831691505092915050565b5f6107d583836107ae565b9150826002028217905092915050565b6107ee82610390565b67ffffffffffffffff81111561080757610806610607565b5b61081182546105d7565b61081c82828561074f565b5f60209050601f83116001811461084d575f841561083b578287015190505b61084585826107ca565b8655506108ac565b601f19841661085b86610634565b5f5b828110156108825784890151825560018201915060208501945060208101905061085d565b8683101561089f578489015161089b601f8916826107ae565b8355505b6001600288020188555050505b505050505050565b5f82905092915050565b6108c883836108b4565b67ffffffffffffffff8111156108e1576108e0610607565b5b6108eb82546105d7565b6108f682828561074f565b5f601f831160018114610923575f8415610911578287013590505b61091b85826107ca565b865550610982565b601f19841661093186610634565b5f5b8281101561095857848901358255600182019150602085019450602081019050610933565b868310156109755784890135610971601f8916826107ae565b8355505b6001600288020188555050505b5050505050505056fea2646970667358221220f98a1e799b785f41f20191f91ad29febc80226ad8b7ad5748f156db203e1a73164736f6c63430008220033",
					"opcodes": "PUSH1 0x80 PUSH1 0x40 MSTORE CALLVALUE DUP1 ISZERO PUSH1 0xE JUMPI PUSH0 PUSH0 REVERT JUMPDEST POP PUSH2 0x9C1 DUP1 PUSH2 0x1C PUSH0 CODECOPY PUSH0 RETURN INVALID PUSH1 0x80 PUSH1 0x40 MSTORE CALLVALUE DUP1 ISZERO PUSH2 0xF JUMPI PUSH0 PUSH0 REVERT JUMPDEST POP PUSH1 0x4 CALLDATASIZE LT PUSH2 0x4A JUMPI PUSH0 CALLDATALOAD PUSH1 0xE0 SHR DUP1 PUSH4 0x455F5024 EQ PUSH2 0x4E JUMPI DUP1 PUSH4 0x9507D39A EQ PUSH2 0x6A JUMPI DUP1 PUSH4 0xB6A46B3B EQ PUSH2 0x9A JUMPI DUP1 PUSH4 0xCD111614 EQ PUSH2 0xB6 JUMPI JUMPDEST PUSH0 PUSH0 REVERT JUMPDEST PUSH2 0x68 PUSH1 0x4 DUP1 CALLDATASIZE SUB DUP2 ADD SWAP1 PUSH2 0x63 SWAP2 SWAP1 PUSH2 0x365 JUMP JUMPDEST PUSH2 0xD2 JUMP JUMPDEST STOP JUMPDEST PUSH2 0x84 PUSH1 0x4 DUP1 CALLDATASIZE SUB DUP2 ADD SWAP1 PUSH2 0x7F SWAP2 SWAP1 PUSH2 0x365 JUMP JUMPDEST PUSH2 0x13D JUMP JUMPDEST PUSH1 0x40 MLOAD PUSH2 0x91 SWAP2 SWAP1 PUSH2 0x454 JUMP JUMPDEST PUSH1 0x40 MLOAD DUP1 SWAP2 SUB SWAP1 RETURN JUMPDEST PUSH2 0xB4 PUSH1 0x4 DUP1 CALLDATASIZE SUB DUP2 ADD SWAP1 PUSH2 0xAF SWAP2 SWAP1 PUSH2 0x4D5 JUMP JUMPDEST PUSH2 0x21F JUMP JUMPDEST STOP JUMPDEST PUSH2 0xD0 PUSH1 0x4 DUP1 CALLDATASIZE SUB DUP2 ADD SWAP1 PUSH2 0xCB SWAP2 SWAP1 PUSH2 0x520 JUMP JUMPDEST PUSH2 0x2D9 JUMP JUMPDEST STOP JUMPDEST PUSH0 DUP2 DUP2 SLOAD DUP2 LT PUSH2 0xE5 JUMPI PUSH2 0xE4 PUSH2 0x57D JUMP JUMPDEST JUMPDEST SWAP1 PUSH0 MSTORE PUSH1 0x20 PUSH0 KECCAK256 SWAP1 PUSH1 0x2 MUL ADD PUSH1 0x1 ADD PUSH0 SWAP1 SLOAD SWAP1 PUSH2 0x100 EXP SWAP1 DIV PUSH1 0xFF AND ISZERO PUSH0 DUP3 DUP2 SLOAD DUP2 LT PUSH2 0x115 JUMPI PUSH2 0x114 PUSH2 0x57D JUMP JUMPDEST JUMPDEST SWAP1 PUSH0 MSTORE PUSH1 0x20 PUSH0 KECCAK256 SWAP1 PUSH1 0x2 MUL ADD PUSH1 0x1 ADD PUSH0 PUSH2 0x100 EXP DUP2 SLOAD DUP2 PUSH1 0xFF MUL NOT AND SWAP1 DUP4 ISZERO ISZERO MUL OR SWAP1 SSTORE POP POP JUMP JUMPDEST PUSH2 0x145 PUSH2 0x30F JUMP JUMPDEST PUSH0 DUP3 DUP2 SLOAD DUP2 LT PUSH2 0x158 JUMPI PUSH2 0x157 PUSH2 0x57D JUMP JUMPDEST JUMPDEST SWAP1 PUSH0 MSTORE PUSH1 0x20 PUSH0 KECCAK256 SWAP1 PUSH1 0x2 MUL ADD PUSH1 0x40 MLOAD DUP1 PUSH1 0x40 ADD PUSH1 0x40 MSTORE SWAP1 DUP2 PUSH0 DUP3 ADD DUP1 SLOAD PUSH2 0x17E SWAP1 PUSH2 0x5D7 JUMP JUMPDEST DUP1 PUSH1 0x1F ADD PUSH1 0x20 DUP1 SWAP2 DIV MUL PUSH1 0x20 ADD PUSH1 0x40 MLOAD SWAP1 DUP2 ADD PUSH1 0x40 MSTORE DUP1 SWAP3 SWAP2 SWAP1 DUP2 DUP2 MSTORE PUSH1 0x20 ADD DUP3 DUP1 SLOAD PUSH2 0x1AA SWAP1 PUSH2 0x5D7 JUMP JUMPDEST DUP1 ISZERO PUSH2 0x1F5 JUMPI DUP1 PUSH1 0x1F LT PUSH2 0x1CC JUMPI PUSH2 0x100 DUP1 DUP4 SLOAD DIV MUL DUP4 MSTORE SWAP2 PUSH1 0x20 ADD SWAP2 PUSH2 0x1F5 JUMP JUMPDEST DUP3 ADD SWAP2 SWAP1 PUSH0 MSTORE PUSH1 0x20 PUSH0 KECCAK256 SWAP1 JUMPDEST DUP2 SLOAD DUP2 MSTORE SWAP1 PUSH1 0x1 ADD SWAP1 PUSH1 0x20 ADD DUP1 DUP4 GT PUSH2 0x1D8 JUMPI DUP3 SWAP1 SUB PUSH1 0x1F AND DUP3 ADD SWAP2 JUMPDEST POP POP POP POP POP DUP2 MSTORE PUSH1 0x20 ADD PUSH1 0x1 DUP3 ADD PUSH0 SWAP1 SLOAD SWAP1 PUSH2 0x100 EXP SWAP1 DIV PUSH1 0xFF AND ISZERO ISZERO ISZERO ISZERO DUP2 MSTORE POP POP SWAP1 POP SWAP2 SWAP1 POP JUMP JUMPDEST PUSH0 PUSH1 0x40 MLOAD DUP1 PUSH1 0x40 ADD PUSH1 0x40 MSTORE DUP1 DUP5 DUP5 DUP1 DUP1 PUSH1 0x1F ADD PUSH1 0x20 DUP1 SWAP2 DIV MUL PUSH1 0x20 ADD PUSH1 0x40 MLOAD SWAP1 DUP2 ADD PUSH1 0x40 MSTORE DUP1 SWAP4 SWAP3 SWAP2 SWAP1 DUP2 DUP2 MSTORE PUSH1 0x20 ADD DUP4 DUP4 DUP1 DUP3 DUP5 CALLDATACOPY PUSH0 DUP2 DUP5 ADD MSTORE PUSH1 0x1F NOT PUSH1 0x1F DUP3 ADD AND SWAP1 POP DUP1 DUP4 ADD SWAP3 POP POP POP POP POP POP POP DUP2 MSTORE PUSH1 0x20 ADD PUSH0 ISZERO ISZERO DUP2 MSTORE POP SWAP1 DUP1 PUSH1 0x1 DUP2 SLOAD ADD DUP1 DUP3 SSTORE DUP1 SWAP2 POP POP PUSH1 0x1 SWAP1 SUB SWAP1 PUSH0 MSTORE PUSH1 0x20 PUSH0 KECCAK256 SWAP1 PUSH1 0x2 MUL ADD PUSH0 SWAP1 SWAP2 SWAP1 SWAP2 SWAP1 SWAP2 POP PUSH0 DUP3 ADD MLOAD DUP2 PUSH0 ADD SWAP1 DUP2 PUSH2 0x2B3 SWAP2 SWAP1 PUSH2 0x7E5 JUMP JUMPDEST POP PUSH1 0x20 DUP3 ADD MLOAD DUP2 PUSH1 0x1 ADD PUSH0 PUSH2 0x100 EXP DUP2 SLOAD DUP2 PUSH1 0xFF MUL NOT AND SWAP1 DUP4 ISZERO ISZERO MUL OR SWAP1 SSTORE POP POP POP POP POP JUMP JUMPDEST DUP2 DUP2 PUSH0 DUP6 DUP2 SLOAD DUP2 LT PUSH2 0x2EE JUMPI PUSH2 0x2ED PUSH2 0x57D JUMP JUMPDEST JUMPDEST SWAP1 PUSH0 MSTORE PUSH1 0x20 PUSH0 KECCAK256 SWAP1 PUSH1 0x2 MUL ADD PUSH0 ADD SWAP2 DUP3 PUSH2 0x309 SWAP3 SWAP2 SWAP1 PUSH2 0x8BE JUMP JUMPDEST POP POP POP POP JUMP JUMPDEST PUSH1 0x40 MLOAD DUP1 PUSH1 0x40 ADD PUSH1 0x40 MSTORE DUP1 PUSH1 0x60 DUP2 MSTORE PUSH1 0x20 ADD PUSH0 ISZERO ISZERO DUP2 MSTORE POP SWAP1 JUMP JUMPDEST PUSH0 PUSH0 REVERT JUMPDEST PUSH0 PUSH0 REVERT JUMPDEST PUSH0 DUP2 SWAP1 POP SWAP2 SWAP1 POP JUMP JUMPDEST PUSH2 0x344 DUP2 PUSH2 0x332 JUMP JUMPDEST DUP2 EQ PUSH2 0x34E JUMPI PUSH0 PUSH0 REVERT JUMPDEST POP JUMP JUMPDEST PUSH0 DUP2 CALLDATALOAD SWAP1 POP PUSH2 0x35F DUP2 PUSH2 0x33B JUMP JUMPDEST SWAP3 SWAP2 POP POP JUMP JUMPDEST PUSH0 PUSH1 0x20 DUP3 DUP5 SUB SLT ISZERO PUSH2 0x37A JUMPI PUSH2 0x379 PUSH2 0x32A JUMP JUMPDEST JUMPDEST PUSH0 PUSH2 0x387 DUP5 DUP3 DUP6 ADD PUSH2 0x351 JUMP JUMPDEST SWAP2 POP POP SWAP3 SWAP2 POP POP JUMP JUMPDEST PUSH0 DUP2 MLOAD SWAP1 POP SWAP2 SWAP1 POP JUMP JUMPDEST PUSH0 DUP3 DUP3 MSTORE PUSH1 0x20 DUP3 ADD SWAP1 POP SWAP3 SWAP2 POP POP JUMP JUMPDEST DUP3 DUP2 DUP4 MCOPY PUSH0 DUP4 DUP4 ADD MSTORE POP POP POP JUMP JUMPDEST PUSH0 PUSH1 0x1F NOT PUSH1 0x1F DUP4 ADD AND SWAP1 POP SWAP2 SWAP1 POP JUMP JUMPDEST PUSH0 PUSH2 0x3D2 DUP3 PUSH2 0x390 JUMP JUMPDEST PUSH2 0x3DC DUP2 DUP6 PUSH2 0x39A JUMP JUMPDEST SWAP4 POP PUSH2 0x3EC DUP2 DUP6 PUSH1 0x20 DUP7 ADD PUSH2 0x3AA JUMP JUMPDEST PUSH2 0x3F5 DUP2 PUSH2 0x3B8 JUMP JUMPDEST DUP5 ADD SWAP2 POP POP SWAP3 SWAP2 POP POP JUMP JUMPDEST PUSH0 DUP2 ISZERO ISZERO SWAP1 POP SWAP2 SWAP1 POP JUMP JUMPDEST PUSH2 0x414 DUP2 PUSH2 0x400 JUMP JUMPDEST DUP3 MSTORE POP POP JUMP JUMPDEST PUSH0 PUSH1 0x40 DUP4 ADD PUSH0 DUP4 ADD MLOAD DUP5 DUP3 SUB PUSH0 DUP7 ADD MSTORE PUSH2 0x434 DUP3 DUP3 PUSH2 0x3C8 JUMP JUMPDEST SWAP2 POP POP PUSH1 0x20 DUP4 ADD MLOAD PUSH2 0x449 PUSH1 0x20 DUP7 ADD DUP3 PUSH2 0x40B JUMP JUMPDEST POP DUP1 SWAP2 POP POP SWAP3 SWAP2 POP POP JUMP JUMPDEST PUSH0 PUSH1 0x20 DUP3 ADD SWAP1 POP DUP2 DUP2 SUB PUSH0 DUP4 ADD MSTORE PUSH2 0x46C DUP2 DUP5 PUSH2 0x41A JUMP JUMPDEST SWAP1 POP SWAP3 SWAP2 POP POP JUMP JUMPDEST PUSH0 PUSH0 REVERT JUMPDEST PUSH0 PUSH0 REVERT JUMPDEST PUSH0 PUSH0 REVERT JUMPDEST PUSH0 PUSH0 DUP4 PUSH1 0x1F DUP5 ADD SLT PUSH2 0x495 JUMPI PUSH2 0x494 PUSH2 0x474 JUMP JUMPDEST JUMPDEST DUP3 CALLDATALOAD SWAP1 POP PUSH8 0xFFFFFFFFFFFFFFFF DUP2 GT ISZERO PUSH2 0x4B2 JUMPI PUSH2 0x4B1 PUSH2 0x478 JUMP JUMPDEST JUMPDEST PUSH1 0x20 DUP4 ADD SWAP2 POP DUP4 PUSH1 0x1 DUP3 MUL DUP4 ADD GT ISZERO PUSH2 0x4CE JUMPI PUSH2 0x4CD PUSH2 0x47C JUMP JUMPDEST JUMPDEST SWAP3 POP SWAP3 SWAP1 POP JUMP JUMPDEST PUSH0 PUSH0 PUSH1 0x20 DUP4 DUP6 SUB SLT ISZERO PUSH2 0x4EB JUMPI PUSH2 0x4EA PUSH2 0x32A JUMP JUMPDEST JUMPDEST PUSH0 DUP4 ADD CALLDATALOAD PUSH8 0xFFFFFFFFFFFFFFFF DUP2 GT ISZERO PUSH2 0x508 JUMPI PUSH2 0x507 PUSH2 0x32E JUMP JUMPDEST JUMPDEST PUSH2 0x514 DUP6 DUP3 DUP7 ADD PUSH2 0x480 JUMP JUMPDEST SWAP3 POP SWAP3 POP POP SWAP3 POP SWAP3 SWAP1 POP JUMP JUMPDEST PUSH0 PUSH0 PUSH0 PUSH1 0x40 DUP5 DUP7 SUB SLT ISZERO PUSH2 0x537 JUMPI PUSH2 0x536 PUSH2 0x32A JUMP JUMPDEST JUMPDEST PUSH0 PUSH2 0x544 DUP7 DUP3 DUP8 ADD PUSH2 0x351 JUMP JUMPDEST SWAP4 POP POP PUSH1 0x20 DUP5 ADD CALLDATALOAD PUSH8 0xFFFFFFFFFFFFFFFF DUP2 GT ISZERO PUSH2 0x565 JUMPI PUSH2 0x564 PUSH2 0x32E JUMP JUMPDEST JUMPDEST PUSH2 0x571 DUP7 DUP3 DUP8 ADD PUSH2 0x480 JUMP JUMPDEST SWAP3 POP SWAP3 POP POP SWAP3 POP SWAP3 POP SWAP3 JUMP JUMPDEST PUSH32 0x4E487B7100000000000000000000000000000000000000000000000000000000 PUSH0 MSTORE PUSH1 0x32 PUSH1 0x4 MSTORE PUSH1 0x24 PUSH0 REVERT JUMPDEST PUSH32 0x4E487B7100000000000000000000000000000000000000000000000000000000 PUSH0 MSTORE PUSH1 0x22 PUSH1 0x4 MSTORE PUSH1 0x24 PUSH0 REVERT JUMPDEST PUSH0 PUSH1 0x2 DUP3 DIV SWAP1 POP PUSH1 0x1 DUP3 AND DUP1 PUSH2 0x5EE JUMPI PUSH1 0x7F DUP3 AND SWAP2 POP JUMPDEST PUSH1 0x20 DUP3 LT DUP2 SUB PUSH2 0x601 JUMPI PUSH2 0x600 PUSH2 0x5AA JUMP JUMPDEST JUMPDEST POP SWAP2 SWAP1 POP JUMP JUMPDEST PUSH32 0x4E487B7100000000000000000000000000000000000000000000000000000000 PUSH0 MSTORE PUSH1 0x41 PUSH1 0x4 MSTORE PUSH1 0x24 PUSH0 REVERT JUMPDEST PUSH0 DUP2 SWAP1 POP DUP2 PUSH0 MSTORE PUSH1 0x20 PUSH0 KECCAK256 SWAP1 POP SWAP2 SWAP1 POP JUMP JUMPDEST PUSH0 PUSH1 0x20 PUSH1 0x1F DUP4 ADD DIV SWAP1 POP SWAP2 SWAP1 POP JUMP JUMPDEST PUSH0 DUP3 DUP3 SHL SWAP1 POP SWAP3 SWAP2 POP POP JUMP JUMPDEST PUSH0 PUSH1 0x8 DUP4 MUL PUSH2 0x690 PUSH32 0xFFFFFFFFFFFFFFFFFFFFFFFFFFFFFFFFFFFFFFFFFFFFFFFFFFFFFFFFFFFFFFFF DUP3 PUSH2 0x655 JUMP JUMPDEST PUSH2 0x69A DUP7 DUP4 PUSH2 0x655 JUMP JUMPDEST SWAP6 POP DUP1 NOT DUP5 AND SWAP4 POP DUP1 DUP7 AND DUP5 OR SWAP3 POP POP POP SWAP4 SWAP3 POP POP POP JUMP JUMPDEST PUSH0 DUP2 SWAP1 POP SWAP2 SWAP1 POP JUMP JUMPDEST PUSH0 PUSH2 0x6D5 PUSH2 0x6D0 PUSH2 0x6CB DUP5 PUSH2 0x332 JUMP JUMPDEST PUSH2 0x6B2 JUMP JUMPDEST PUSH2 0x332 JUMP JUMPDEST SWAP1 POP SWAP2 SWAP1 POP JUMP JUMPDEST PUSH0 DUP2 SWAP1 POP SWAP2 SWAP1 POP JUMP JUMPDEST PUSH2 0x6EE DUP4 PUSH2 0x6BB JUMP JUMPDEST PUSH2 0x702 PUSH2 0x6FA DUP3 PUSH2 0x6DC JUMP JUMPDEST DUP5 DUP5 SLOAD PUSH2 0x661 JUMP JUMPDEST DUP3 SSTORE POP POP POP POP JUMP JUMPDEST PUSH0 PUSH0 SWAP1 POP SWAP1 JUMP JUMPDEST PUSH2 0x719 PUSH2 0x70A JUMP JUMPDEST PUSH2 0x724 DUP2 DUP5 DUP5 PUSH2 0x6E5 JUMP JUMPDEST POP POP POP JUMP JUMPDEST PUSH0 JUMPDEST DUP3 DUP2 LT ISZERO PUSH2 0x74A JUMPI PUSH2 0x73F PUSH0 DUP3 DUP5 ADD PUSH2 0x711 JUMP JUMPDEST PUSH1 0x1 DUP2 ADD SWAP1 POP PUSH2 0x72B JUMP JUMPDEST POP POP POP JUMP JUMPDEST PUSH1 0x1F DUP3 GT ISZERO PUSH2 0x79D JUMPI DUP3 DUP3 GT ISZERO PUSH2 0x79C JUMPI PUSH2 0x769 DUP2 PUSH2 0x634 JUMP JUMPDEST PUSH2 0x772 DUP4 PUSH2 0x646 JUMP JUMPDEST PUSH2 0x77B DUP6 PUSH2 0x646 JUMP JUMPDEST PUSH1 0x20 DUP7 LT ISZERO PUSH2 0x788 JUMPI PUSH0 SWAP1 POP JUMPDEST DUP1 DUP4 ADD PUSH2 0x797 DUP3 DUP5 SUB DUP3 PUSH2 0x729 JUMP JUMPDEST POP POP POP POP JUMPDEST JUMPDEST POP POP POP JUMP JUMPDEST PUSH0 DUP3 DUP3 SHR SWAP1 POP SWAP3 SWAP2 POP POP JUMP JUMPDEST PUSH0 PUSH2 0x7BD PUSH0 NOT DUP5 PUSH1 0x8 MUL PUSH2 0x7A2 JUMP JUMPDEST NOT DUP1 DUP4 AND SWAP2 POP POP SWAP3 SWAP2 POP POP JUMP JUMPDEST PUSH0 PUSH2 0x7D5 DUP4 DUP4 PUSH2 0x7AE JUMP JUMPDEST SWAP2 POP DUP3 PUSH1 0x2 MUL DUP3 OR SWAP1 POP SWAP3 SWAP2 POP POP JUMP JUMPDEST PUSH2 0x7EE DUP3 PUSH2 0x390 JUMP JUMPDEST PUSH8 0xFFFFFFFFFFFFFFFF DUP2 GT ISZERO PUSH2 0x807 JUMPI PUSH2 0x806 PUSH2 0x607 JUMP JUMPDEST JUMPDEST PUSH2 0x811 DUP3 SLOAD PUSH2 0x5D7 JUMP JUMPDEST PUSH2 0x81C DUP3 DUP3 DUP6 PUSH2 0x74F JUMP JUMPDEST PUSH0 PUSH1 0x20 SWAP1 POP PUSH1 0x1F DUP4 GT PUSH1 0x1 DUP2 EQ PUSH2 0x84D JUMPI PUSH0 DUP5 ISZERO PUSH2 0x83B JUMPI DUP3 DUP8 ADD MLOAD SWAP1 POP JUMPDEST PUSH2 0x845 DUP6 DUP3 PUSH2 0x7CA JUMP JUMPDEST DUP7 SSTORE POP PUSH2 0x8AC JUMP JUMPDEST PUSH1 0x1F NOT DUP5 AND PUSH2 0x85B DUP7 PUSH2 0x634 JUMP JUMPDEST PUSH0 JUMPDEST DUP3 DUP2 LT ISZERO PUSH2 0x882 JUMPI DUP5 DUP10 ADD MLOAD DUP3 SSTORE PUSH1 0x1 DUP3 ADD SWAP2 POP PUSH1 0x20 DUP6 ADD SWAP5 POP PUSH1 0x20 DUP2 ADD SWAP1 POP PUSH2 0x85D JUMP JUMPDEST DUP7 DUP4 LT ISZERO PUSH2 0x89F JUMPI DUP5 DUP10 ADD MLOAD PUSH2 0x89B PUSH1 0x1F DUP10 AND DUP3 PUSH2 0x7AE JUMP JUMPDEST DUP4 SSTORE POP JUMPDEST PUSH1 0x1 PUSH1 0x2 DUP9 MUL ADD DUP9 SSTORE POP POP POP JUMPDEST POP POP POP POP POP POP JUMP JUMPDEST PUSH0 DUP3 SWAP1 POP SWAP3 SWAP2 POP POP JUMP JUMPDEST PUSH2 0x8C8 DUP4 DUP4 PUSH2 0x8B4 JUMP JUMPDEST PUSH8 0xFFFFFFFFFFFFFFFF DUP2 GT ISZERO PUSH2 0x8E1 JUMPI PUSH2 0x8E0 PUSH2 0x607 JUMP JUMPDEST JUMPDEST PUSH2 0x8EB DUP3 SLOAD PUSH2 0x5D7 JUMP JUMPDEST PUSH2 0x8F6 DUP3 DUP3 DUP6 PUSH2 0x74F JUMP JUMPDEST PUSH0 PUSH1 0x1F DUP4 GT PUSH1 0x1 DUP2 EQ PUSH2 0x923 JUMPI PUSH0 DUP5 ISZERO PUSH2 0x911 JUMPI DUP3 DUP8 ADD CALLDATALOAD SWAP1 POP JUMPDEST PUSH2 0x91B DUP6 DUP3 PUSH2 0x7CA JUMP JUMPDEST DUP7 SSTORE POP PUSH2 0x982 JUMP JUMPDEST PUSH1 0x1F NOT DUP5 AND PUSH2 0x931 DUP7 PUSH2 0x634 JUMP JUMPDEST PUSH0 JUMPDEST DUP3 DUP2 LT ISZERO PUSH2 0x958 JUMPI DUP5 DUP10 ADD CALLDATALOAD DUP3 SSTORE PUSH1 0x1 DUP3 ADD SWAP2 POP PUSH1 0x20 DUP6 ADD SWAP5 POP PUSH1 0x20 DUP2 ADD SWAP1 POP PUSH2 0x933 JUMP JUMPDEST DUP7 DUP4 LT ISZERO PUSH2 0x975 JUMPI DUP5 DUP10 ADD CALLDATALOAD PUSH2 0x971 PUSH1 0x1F DUP10 AND DUP3 PUSH2 0x7AE JUMP JUMPDEST DUP4 SSTORE POP JUMPDEST PUSH1 0x1 PUSH1 0x2 DUP9 MUL ADD DUP9 SSTORE POP POP POP JUMPDEST POP POP POP POP POP POP POP JUMP INVALID LOG2 PUSH5 0x6970667358 0x22 SLT KECCAK256 EXTDELEGATECALL DUP11 CLZ PUSH26 0x9B785F41F20191F91AD29FEBC80226AD8B7AD5748F156DB203E1 0xA7 BALANCE PUSH5 0x736F6C6343 STOP ADDMOD 0x22 STOP CALLER "
				},
				"gasEstimates": {
					"creation": {
						"codeDepositCost": "499400",
						"executionCost": "535",
						"totalCost": "499935"
					},
					"external": {
						"create(string)": "infinite",
						"get(uint256)": "infinite",
						"toggleCompleted(uint256)": "31171",
						"updateText(uint256,string)": "infinite"
					}
				},
				"methodIdentifiers": {
					"create(string)": "b6a46b3b",
					"get(uint256)": "9507d39a",
					"toggleCompleted(uint256)": "455f5024",
					"updateText(uint256,string)": "cd111614"
				}
			},
			"storageLayout": {
				"storage": [
					{
						"astId": 10,
						"contract": "solidity基础/待办列表todoList.sol:ToDoList",
						"label": "toDoList",
						"offset": 0,
						"slot": "0",
						"type": "t_array(t_struct(ToDo)6_storage)dyn_storage"
					}
				],
				"types": {
					"t_array(t_struct(ToDo)6_storage)dyn_storage": {
						"base": "t_struct(ToDo)6_storage",
						"encoding": "dynamic_array",
						"label": "struct ToDoList.ToDo[]",
						"numberOfBytes": "32"
					},
					"t_bool": {
						"encoding": "inplace",
						"label": "bool",
						"numberOfBytes": "1"
					},
					"t_string_storage": {
						"encoding": "bytes",
						"label": "string",
						"numberOfBytes": "32"
					},
					"t_struct(ToDo)6_storage": {
						"encoding": "inplace",
						"label": "struct ToDoList.ToDo",
						"members": [
							{
								"astId": 3,
								"contract": "solidity基础/待办列表todoList.sol:ToDoList",
								"label": "text",
								"offset": 0,
								"slot": "0",
								"type": "t_string_storage"
							},
							{
								"astId": 5,
								"contract": "solidity基础/待办列表todoList.sol:ToDoList",
								"label": "completed",
								"offset": 0,
								"slot": "1",
								"type": "t_bool"
							}
						],
						"numberOfBytes": "64"
					}
				}
			},
			"userdoc": {
				"kind": "user",
				"methods": {},
				"version": 1
			}
		}
	}
}