{
	"solidity金融和支付/合约调用.sol": {
		"TargetContract": {
			"abi": [
				{
					"inputs": [],
					"name": "amount",
					"outputs": [
						{
							"internalType": "uint256",
							"name": "",
							"type": "uint256"
						}
					],
					"stateMutability": "view",
					"type": "function"
				},
				{
					"inputs": [],
					"name": "getX",
					"outputs": [
						{
							"internalType": "uint256",
							"name": "x",
							"type": "uint256"
						}
					],
					"stateMutability": "view",
					"type": "function"
				},
				{
					"inputs": [],
					"name": "getXAndValue",
					"outputs": [
						{
							"internalType": "uint256",
							"name": "",
							"type": "uint256"
						},
						{
							"internalType": "uint256",
							"name": "",
							"type": "uint256"
						}
					],
					"stateMutability": "view",
					"type": "function"
				},
				{
					"inputs": [
						{
							"internalType": "uint256",
							"name": "newValue",
							"type": "uint256"
						}
					],
					"name": "setX",
					"outputs": [],
					"stateMutability": "nonpayable",
					"type": "function"
				},
				{
					"inputs": [
						{
							"internalType": "uint256",
							"name": "newValue",
							"type": "uint256"
						},
						{
							"internalType": "uint256",
							"name": "newAmount",
							"type": "uint256"
						}
					],
					"name": "setXAndReceiveEther",
					"outputs": [],
					"stateMutability": "payable",
					"type": "function"
				},
				{
					"inputs": [],
					"name": "value",
					"outputs": [
						{
							"internalType": "uint256",
							"name": "",
							"type": "uint256"
						}
					],
					"stateMutability": "view",
					"type": "function"
				}
			],
			"devdoc": {
				"kind": "dev",
				"methods": {},
				"version": 1
			},
			"evm": {
				"assembly": "    /* \"solidity\\xe9\\x87\\x91\\xe8\\x9e\\x8d\\xe5\\x92\\x8c\\xe6\\x94\\xaf\\xe4\\xbb\\x98/\\xe5\\x90\\x88\\xe7\\xba\\xa6\\xe8\\xb0\\x83\\xe7\\x94\\xa8.sol\":1457:1951  contract TargetContract {... */\n  mstore(0x40, 0x80)\n  callvalue\n  dup1\n  iszero\n  tag_1\n  jumpi\n  revert(0x00, 0x00)\ntag_1:\n  pop\n  dataSize(sub_0)\n  dup1\n  dataOffset(sub_0)\n  0x00\n  codecopy\n  0x00\n  return\nstop\n\nsub_0: assembly {\n        /* \"solidity\\xe9\\x87\\x91\\xe8\\x9e\\x8d\\xe5\\x92\\x8c\\xe6\\x94\\xaf\\xe4\\xbb\\x98/\\xe5\\x90\\x88\\xe7\\xba\\xa6\\xe8\\xb0\\x83\\xe7\\x94\\xa8.sol\":1457:1951  contract TargetContract {... */\n      mstore(0x40, 0x80)\n      jumpi(tag_1, lt(calldatasize, 0x04))\n      shr(0xe0, calldataload(0x00))\n      dup1\n      0x2b5d6086\n      eq\n      tag_2\n      jumpi\n      dup1\n      0x3fa4f245\n      eq\n      tag_3\n      jumpi\n      dup1\n      0x4018d9aa\n      eq\n      tag_4\n      jumpi\n      dup1\n      0x5197c7aa\n      eq\n      tag_5\n      jumpi\n      dup1\n      0xaa8c217c\n      eq\n      tag_6\n      jumpi\n      dup1\n      0xeec2b352\n      eq\n      tag_7\n      jumpi\n    tag_1:\n      revert(0x00, 0x00)\n        /* \"solidity\\xe9\\x87\\x91\\xe8\\x9e\\x8d\\xe5\\x92\\x8c\\xe6\\x94\\xaf\\xe4\\xbb\\x98/\\xe5\\x90\\x88\\xe7\\xba\\xa6\\xe8\\xb0\\x83\\xe7\\x94\\xa8.sol\":1852:1948  function getXAndValue() external view returns(uint,uint){... */\n    tag_2:\n      callvalue\n      dup1\n      iszero\n      tag_8\n      jumpi\n      revert(0x00, 0x00)\n    tag_8:\n      pop\n      tag_9\n      tag_10\n      jump\t// in\n    tag_9:\n      mload(0x40)\n      tag_11\n      swap3\n      swap2\n      swap1\n      tag_12\n      jump\t// in\n    tag_11:\n      mload(0x40)\n      dup1\n      swap2\n      sub\n      swap1\n      return\n        /* \"solidity\\xe9\\x87\\x91\\xe8\\x9e\\x8d\\xe5\\x92\\x8c\\xe6\\x94\\xaf\\xe4\\xbb\\x98/\\xe5\\x90\\x88\\xe7\\xba\\xa6\\xe8\\xb0\\x83\\xe7\\x94\\xa8.sol\":1488:1505  uint public value */\n    tag_3:\n      callvalue\n      dup1\n      iszero\n      tag_13\n      jumpi\n      revert(0x00, 0x00)\n    tag_13:\n      pop\n      tag_14\n      tag_15\n      jump\t// in\n    tag_14:\n      mload(0x40)\n      tag_16\n      swap2\n      swap1\n      tag_17\n      jump\t// in\n    tag_16:\n      mload(0x40)\n      dup1\n      swap2\n      sub\n      swap1\n      return\n        /* \"solidity\\xe9\\x87\\x91\\xe8\\x9e\\x8d\\xe5\\x92\\x8c\\xe6\\x94\\xaf\\xe4\\xbb\\x98/\\xe5\\x90\\x88\\xe7\\xba\\xa6\\xe8\\xb0\\x83\\xe7\\x94\\xa8.sol\":1537:1610  function setX(uint newValue) external {... */\n    tag_4:\n      callvalue\n      dup1\n      iszero\n      tag_18\n      jumpi\n      revert(0x00, 0x00)\n    tag_18:\n      pop\n      tag_19\n      0x04\n      dup1\n      calldatasize\n      sub\n      dup2\n      add\n      swap1\n      tag_20\n      swap2\n      swap1\n      tag_21\n      jump\t// in\n    tag_20:\n      tag_22\n      jump\t// in\n    tag_19:\n      stop\n        /* \"solidity\\xe9\\x87\\x91\\xe8\\x9e\\x8d\\xe5\\x92\\x8c\\xe6\\x94\\xaf\\xe4\\xbb\\x98/\\xe5\\x90\\x88\\xe7\\xba\\xa6\\xe8\\xb0\\x83\\xe7\\x94\\xa8.sol\":1619:1696  function getX() external view returns(uint x) {... */\n    tag_5:\n      callvalue\n      dup1\n      iszero\n      tag_23\n      jumpi\n      revert(0x00, 0x00)\n    tag_23:\n      pop\n      tag_24\n      tag_25\n      jump\t// in\n    tag_24:\n      mload(0x40)\n      tag_26\n      swap2\n      swap1\n      tag_17\n      jump\t// in\n    tag_26:\n      mload(0x40)\n      dup1\n      swap2\n      sub\n      swap1\n      return\n        /* \"solidity\\xe9\\x87\\x91\\xe8\\x9e\\x8d\\xe5\\x92\\x8c\\xe6\\x94\\xaf\\xe4\\xbb\\x98/\\xe5\\x90\\x88\\xe7\\xba\\xa6\\xe8\\xb0\\x83\\xe7\\x94\\xa8.sol\":1512:1530  uint public amount */\n    tag_6:\n      callvalue\n      dup1\n      iszero\n      tag_27\n      jumpi\n      revert(0x00, 0x00)\n    tag_27:\n      pop\n      tag_28\n      tag_29\n      jump\t// in\n    tag_28:\n      mload(0x40)\n      tag_30\n      swap2\n      swap1\n      tag_17\n      jump\t// in\n    tag_30:\n      mload(0x40)\n      dup1\n      swap2\n      sub\n      swap1\n      return\n        /* \"solidity\\xe9\\x87\\x91\\xe8\\x9e\\x8d\\xe5\\x92\\x8c\\xe6\\x94\\xaf\\xe4\\xbb\\x98/\\xe5\\x90\\x88\\xe7\\xba\\xa6\\xe8\\xb0\\x83\\xe7\\x94\\xa8.sol\":1704:1844  function setXAndReceiveEther(uint newValue,uint newAmount) external payable {... */\n    tag_7:\n      tag_31\n      0x04\n      dup1\n      calldatasize\n      sub\n      dup2\n      add\n      swap1\n      tag_32\n      swap2\n      swap1\n      tag_33\n      jump\t// in\n    tag_32:\n      tag_34\n      jump\t// in\n    tag_31:\n      stop\n        /* \"solidity\\xe9\\x87\\x91\\xe8\\x9e\\x8d\\xe5\\x92\\x8c\\xe6\\x94\\xaf\\xe4\\xbb\\x98/\\xe5\\x90\\x88\\xe7\\xba\\xa6\\xe8\\xb0\\x83\\xe7\\x94\\xa8.sol\":1852:1948  function getXAndValue() external view returns(uint,uint){... */\n    tag_10:\n        /* \"solidity\\xe9\\x87\\x91\\xe8\\x9e\\x8d\\xe5\\x92\\x8c\\xe6\\x94\\xaf\\xe4\\xbb\\x98/\\xe5\\x90\\x88\\xe7\\xba\\xa6\\xe8\\xb0\\x83\\xe7\\x94\\xa8.sol\":1898:1902  uint */\n      0x00\n        /* \"solidity\\xe9\\x87\\x91\\xe8\\x9e\\x8d\\xe5\\x92\\x8c\\xe6\\x94\\xaf\\xe4\\xbb\\x98/\\xe5\\x90\\x88\\xe7\\xba\\xa6\\xe8\\xb0\\x83\\xe7\\x94\\xa8.sol\":1903:1907  uint */\n      0x00\n        /* \"solidity\\xe9\\x87\\x91\\xe8\\x9e\\x8d\\xe5\\x92\\x8c\\xe6\\x94\\xaf\\xe4\\xbb\\x98/\\xe5\\x90\\x88\\xe7\\xba\\xa6\\xe8\\xb0\\x83\\xe7\\x94\\xa8.sol\":1927:1932  value */\n      sload(0x00)\n        /* \"solidity\\xe9\\x87\\x91\\xe8\\x9e\\x8d\\xe5\\x92\\x8c\\xe6\\x94\\xaf\\xe4\\xbb\\x98/\\xe5\\x90\\x88\\xe7\\xba\\xa6\\xe8\\xb0\\x83\\xe7\\x94\\xa8.sol\":1933:1939  amount */\n      sload(0x01)\n        /* \"solidity\\xe9\\x87\\x91\\xe8\\x9e\\x8d\\xe5\\x92\\x8c\\xe6\\x94\\xaf\\xe4\\xbb\\x98/\\xe5\\x90\\x88\\xe7\\xba\\xa6\\xe8\\xb0\\x83\\xe7\\x94\\xa8.sol\":1919:1940  return (value,amount) */\n      swap2\n      pop\n      swap2\n      pop\n        /* \"solidity\\xe9\\x87\\x91\\xe8\\x9e\\x8d\\xe5\\x92\\x8c\\xe6\\x94\\xaf\\xe4\\xbb\\x98/\\xe5\\x90\\x88\\xe7\\xba\\xa6\\xe8\\xb0\\x83\\xe7\\x94\\xa8.sol\":1852:1948  function getXAndValue() external view returns(uint,uint){... */\n      swap1\n      swap2\n      jump\t// out\n        /* \"solidity\\xe9\\x87\\x91\\xe8\\x9e\\x8d\\xe5\\x92\\x8c\\xe6\\x94\\xaf\\xe4\\xbb\\x98/\\xe5\\x90\\x88\\xe7\\xba\\xa6\\xe8\\xb0\\x83\\xe7\\x94\\xa8.sol\":1488:1505  uint public value */\n    tag_15:\n      sload(0x00)\n      dup2\n      jump\t// out\n        /* \"solidity\\xe9\\x87\\x91\\xe8\\x9e\\x8d\\xe5\\x92\\x8c\\xe6\\x94\\xaf\\xe4\\xbb\\x98/\\xe5\\x90\\x88\\xe7\\xba\\xa6\\xe8\\xb0\\x83\\xe7\\x94\\xa8.sol\":1537:1610  function setX(uint newValue) external {... */\n    tag_22:\n        /* \"solidity\\xe9\\x87\\x91\\xe8\\x9e\\x8d\\xe5\\x92\\x8c\\xe6\\x94\\xaf\\xe4\\xbb\\x98/\\xe5\\x90\\x88\\xe7\\xba\\xa6\\xe8\\xb0\\x83\\xe7\\x94\\xa8.sol\":1594:1602  newValue */\n      dup1\n        /* \"solidity\\xe9\\x87\\x91\\xe8\\x9e\\x8d\\xe5\\x92\\x8c\\xe6\\x94\\xaf\\xe4\\xbb\\x98/\\xe5\\x90\\x88\\xe7\\xba\\xa6\\xe8\\xb0\\x83\\xe7\\x94\\xa8.sol\":1586:1591  value */\n      0x00\n        /* \"solidity\\xe9\\x87\\x91\\xe8\\x9e\\x8d\\xe5\\x92\\x8c\\xe6\\x94\\xaf\\xe4\\xbb\\x98/\\xe5\\x90\\x88\\xe7\\xba\\xa6\\xe8\\xb0\\x83\\xe7\\x94\\xa8.sol\":1586:1602  value = newValue */\n      dup2\n      swap1\n      sstore\n      pop\n        /* \"solidity\\xe9\\x87\\x91\\xe8\\x9e\\x8d\\xe5\\x92\\x8c\\xe6\\x94\\xaf\\xe4\\xbb\\x98/\\xe5\\x90\\x88\\xe7\\xba\\xa6\\xe8\\xb0\\x83\\xe7\\x94\\xa8.sol\":1537:1610  function setX(uint newValue) external {... */\n      pop\n      jump\t// out\n        /* \"solidity\\xe9\\x87\\x91\\xe8\\x9e\\x8d\\xe5\\x92\\x8c\\xe6\\x94\\xaf\\xe4\\xbb\\x98/\\xe5\\x90\\x88\\xe7\\xba\\xa6\\xe8\\xb0\\x83\\xe7\\x94\\xa8.sol\":1619:1696  function getX() external view returns(uint x) {... */\n    tag_25:\n        /* \"solidity\\xe9\\x87\\x91\\xe8\\x9e\\x8d\\xe5\\x92\\x8c\\xe6\\x94\\xaf\\xe4\\xbb\\x98/\\xe5\\x90\\x88\\xe7\\xba\\xa6\\xe8\\xb0\\x83\\xe7\\x94\\xa8.sol\":1657:1663  uint x */\n      0x00\n        /* \"solidity\\xe9\\x87\\x91\\xe8\\x9e\\x8d\\xe5\\x92\\x8c\\xe6\\x94\\xaf\\xe4\\xbb\\x98/\\xe5\\x90\\x88\\xe7\\xba\\xa6\\xe8\\xb0\\x83\\xe7\\x94\\xa8.sol\":1683:1688  value */\n      sload(0x00)\n        /* \"solidity\\xe9\\x87\\x91\\xe8\\x9e\\x8d\\xe5\\x92\\x8c\\xe6\\x94\\xaf\\xe4\\xbb\\x98/\\xe5\\x90\\x88\\xe7\\xba\\xa6\\xe8\\xb0\\x83\\xe7\\x94\\xa8.sol\":1676:1688  return value */\n      swap1\n      pop\n        /* \"solidity\\xe9\\x87\\x91\\xe8\\x9e\\x8d\\xe5\\x92\\x8c\\xe6\\x94\\xaf\\xe4\\xbb\\x98/\\xe5\\x90\\x88\\xe7\\xba\\xa6\\xe8\\xb0\\x83\\xe7\\x94\\xa8.sol\":1619:1696  function getX() external view returns(uint x) {... */\n      swap1\n      jump\t// out\n        /* \"solidity\\xe9\\x87\\x91\\xe8\\x9e\\x8d\\xe5\\x92\\x8c\\xe6\\x94\\xaf\\xe4\\xbb\\x98/\\xe5\\x90\\x88\\xe7\\xba\\xa6\\xe8\\xb0\\x83\\xe7\\x94\\xa8.sol\":1512:1530  uint public amount */\n    tag_29:\n      sload(0x01)\n      dup2\n      jump\t// out\n        /* \"solidity\\xe9\\x87\\x91\\xe8\\x9e\\x8d\\xe5\\x92\\x8c\\xe6\\x94\\xaf\\xe4\\xbb\\x98/\\xe5\\x90\\x88\\xe7\\xba\\xa6\\xe8\\xb0\\x83\\xe7\\x94\\xa8.sol\":1704:1844  function setXAndReceiveEther(uint newValue,uint newAmount) external payable {... */\n    tag_34:\n        /* \"solidity\\xe9\\x87\\x91\\xe8\\x9e\\x8d\\xe5\\x92\\x8c\\xe6\\x94\\xaf\\xe4\\xbb\\x98/\\xe5\\x90\\x88\\xe7\\xba\\xa6\\xe8\\xb0\\x83\\xe7\\x94\\xa8.sol\":1799:1807  newValue */\n      dup2\n        /* \"solidity\\xe9\\x87\\x91\\xe8\\x9e\\x8d\\xe5\\x92\\x8c\\xe6\\x94\\xaf\\xe4\\xbb\\x98/\\xe5\\x90\\x88\\xe7\\xba\\xa6\\xe8\\xb0\\x83\\xe7\\x94\\xa8.sol\":1791:1796  value */\n      0x00\n        /* \"solidity\\xe9\\x87\\x91\\xe8\\x9e\\x8d\\xe5\\x92\\x8c\\xe6\\x94\\xaf\\xe4\\xbb\\x98/\\xe5\\x90\\x88\\xe7\\xba\\xa6\\xe8\\xb0\\x83\\xe7\\x94\\xa8.sol\":1791:1807  value = newValue */\n      dup2\n      swap1\n      sstore\n      pop\n        /* \"solidity\\xe9\\x87\\x91\\xe8\\x9e\\x8d\\xe5\\x92\\x8c\\xe6\\x94\\xaf\\xe4\\xbb\\x98/\\xe5\\x90\\x88\\xe7\\xba\\xa6\\xe8\\xb0\\x83\\xe7\\x94\\xa8.sol\":1827:1836  newAmount */\n      dup1\n        /* \"solidity\\xe9\\x87\\x91\\xe8\\x9e\\x8d\\xe5\\x92\\x8c\\xe6\\x94\\xaf\\xe4\\xbb\\x98/\\xe5\\x90\\x88\\xe7\\xba\\xa6\\xe8\\xb0\\x83\\xe7\\x94\\xa8.sol\":1818:1824  amount */\n      0x01\n        /* \"solidity\\xe9\\x87\\x91\\xe8\\x9e\\x8d\\xe5\\x92\\x8c\\xe6\\x94\\xaf\\xe4\\xbb\\x98/\\xe5\\x90\\x88\\xe7\\xba\\xa6\\xe8\\xb0\\x83\\xe7\\x94\\xa8.sol\":1818:1836  amount = newAmount */\n      dup2\n      swap1\n      sstore\n      pop\n        /* \"solidity\\xe9\\x87\\x91\\xe8\\x9e\\x8d\\xe5\\x92\\x8c\\xe6\\x94\\xaf\\xe4\\xbb\\x98/\\xe5\\x90\\x88\\xe7\\xba\\xa6\\xe8\\xb0\\x83\\xe7\\x94\\xa8.sol\":1704:1844  function setXAndReceiveEther(uint newValue,uint newAmount) external payable {... */\n      pop\n      pop\n      jump\t// out\n        /* \"#utility.yul\":7:84   */\n    tag_39:\n        /* \"#utility.yul\":44:51   */\n      0x00\n        /* \"#utility.yul\":73:78   */\n      dup2\n        /* \"#utility.yul\":62:78   */\n      swap1\n      pop\n        /* \"#utility.yul\":7:84   */\n      swap2\n      swap1\n      pop\n      jump\t// out\n        /* \"#utility.yul\":90:208   */\n    tag_40:\n        /* \"#utility.yul\":177:201   */\n      tag_49\n        /* \"#utility.yul\":195:200   */\n      dup2\n        /* \"#utility.yul\":177:201   */\n      tag_39\n      jump\t// in\n    tag_49:\n        /* \"#utility.yul\":172:175   */\n      dup3\n        /* \"#utility.yul\":165:202   */\n      mstore\n        /* \"#utility.yul\":90:208   */\n      pop\n      pop\n      jump\t// out\n        /* \"#utility.yul\":214:546   */\n    tag_12:\n        /* \"#utility.yul\":335:339   */\n      0x00\n        /* \"#utility.yul\":373:375   */\n      0x40\n        /* \"#utility.yul\":362:371   */\n      dup3\n        /* \"#utility.yul\":358:376   */\n      add\n        /* \"#utility.yul\":350:376   */\n      swap1\n      pop\n        /* \"#utility.yul\":386:457   */\n      tag_51\n        /* \"#utility.yul\":454:455   */\n      0x00\n        /* \"#utility.yul\":443:452   */\n      dup4\n        /* \"#utility.yul\":439:456   */\n      add\n        /* \"#utility.yul\":430:436   */\n      dup6\n        /* \"#utility.yul\":386:457   */\n      tag_40\n      jump\t// in\n    tag_51:\n        /* \"#utility.yul\":467:539   */\n      tag_52\n        /* \"#utility.yul\":535:537   */\n      0x20\n        /* \"#utility.yul\":524:533   */\n      dup4\n        /* \"#utility.yul\":520:538   */\n      add\n        /* \"#utility.yul\":511:517   */\n      dup5\n        /* \"#utility.yul\":467:539   */\n      tag_40\n      jump\t// in\n    tag_52:\n        /* \"#utility.yul\":214:546   */\n      swap4\n      swap3\n      pop\n      pop\n      pop\n      jump\t// out\n        /* \"#utility.yul\":552:774   */\n    tag_17:\n        /* \"#utility.yul\":645:649   */\n      0x00\n        /* \"#utility.yul\":683:685   */\n      0x20\n        /* \"#utility.yul\":672:681   */\n      dup3\n        /* \"#utility.yul\":668:686   */\n      add\n        /* \"#utility.yul\":660:686   */\n      swap1\n      pop\n        /* \"#utility.yul\":696:767   */\n      tag_54\n        /* \"#utility.yul\":764:765   */\n      0x00\n        /* \"#utility.yul\":753:762   */\n      dup4\n        /* \"#utility.yul\":749:766   */\n      add\n        /* \"#utility.yul\":740:746   */\n      dup5\n        /* \"#utility.yul\":696:767   */\n      tag_40\n      jump\t// in\n    tag_54:\n        /* \"#utility.yul\":552:774   */\n      swap3\n      swap2\n      pop\n      pop\n      jump\t// out\n        /* \"#utility.yul\":861:978   */\n    tag_42:\n        /* \"#utility.yul\":970:971   */\n      0x00\n        /* \"#utility.yul\":967:968   */\n      0x00\n        /* \"#utility.yul\":960:972   */\n      revert\n        /* \"#utility.yul\":1107:1229   */\n    tag_44:\n        /* \"#utility.yul\":1180:1204   */\n      tag_59\n        /* \"#utility.yul\":1198:1203   */\n      dup2\n        /* \"#utility.yul\":1180:1204   */\n      tag_39\n      jump\t// in\n    tag_59:\n        /* \"#utility.yul\":1173:1178   */\n      dup2\n        /* \"#utility.yul\":1170:1205   */\n      eq\n        /* \"#utility.yul\":1160:1223   */\n      tag_60\n      jumpi\n        /* \"#utility.yul\":1219:1220   */\n      0x00\n        /* \"#utility.yul\":1216:1217   */\n      0x00\n        /* \"#utility.yul\":1209:1221   */\n      revert\n        /* \"#utility.yul\":1160:1223   */\n    tag_60:\n        /* \"#utility.yul\":1107:1229   */\n      pop\n      jump\t// out\n        /* \"#utility.yul\":1235:1374   */\n    tag_45:\n        /* \"#utility.yul\":1281:1286   */\n      0x00\n        /* \"#utility.yul\":1319:1325   */\n      dup2\n        /* \"#utility.yul\":1306:1326   */\n      calldataload\n        /* \"#utility.yul\":1297:1326   */\n      swap1\n      pop\n        /* \"#utility.yul\":1335:1368   */\n      tag_62\n        /* \"#utility.yul\":1362:1367   */\n      dup2\n        /* \"#utility.yul\":1335:1368   */\n      tag_44\n      jump\t// in\n    tag_62:\n        /* \"#utility.yul\":1235:1374   */\n      swap3\n      swap2\n      pop\n      pop\n      jump\t// out\n        /* \"#utility.yul\":1380:1709   */\n    tag_21:\n        /* \"#utility.yul\":1439:1445   */\n      0x00\n        /* \"#utility.yul\":1488:1490   */\n      0x20\n        /* \"#utility.yul\":1476:1485   */\n      dup3\n        /* \"#utility.yul\":1467:1474   */\n      dup5\n        /* \"#utility.yul\":1463:1486   */\n      sub\n        /* \"#utility.yul\":1459:1491   */\n      slt\n        /* \"#utility.yul\":1456:1575   */\n      iszero\n      tag_64\n      jumpi\n        /* \"#utility.yul\":1494:1573   */\n      tag_65\n      tag_42\n      jump\t// in\n    tag_65:\n        /* \"#utility.yul\":1456:1575   */\n    tag_64:\n        /* \"#utility.yul\":1614:1615   */\n      0x00\n        /* \"#utility.yul\":1639:1692   */\n      tag_66\n        /* \"#utility.yul\":1684:1691   */\n      dup5\n        /* \"#utility.yul\":1675:1681   */\n      dup3\n        /* \"#utility.yul\":1664:1673   */\n      dup6\n        /* \"#utility.yul\":1660:1682   */\n      add\n        /* \"#utility.yul\":1639:1692   */\n      tag_45\n      jump\t// in\n    tag_66:\n        /* \"#utility.yul\":1629:1692   */\n      swap2\n      pop\n        /* \"#utility.yul\":1585:1702   */\n      pop\n        /* \"#utility.yul\":1380:1709   */\n      swap3\n      swap2\n      pop\n      pop\n      jump\t// out\n        /* \"#utility.yul\":1715:2189   */\n    tag_33:\n        /* \"#utility.yul\":1783:1789   */\n      0x00\n        /* \"#utility.yul\":1791:1797   */\n      0x00\n        /* \"#utility.yul\":1840:1842   */\n      0x40\n        /* \"#utility.yul\":1828:1837   */\n      dup4\n        /* \"#utility.yul\":1819:1826   */\n      dup6\n        /* \"#utility.yul\":1815:1838   */\n      sub\n        /* \"#utility.yul\":1811:1843   */\n      slt\n        /* \"#utility.yul\":1808:1927   */\n      iszero\n      tag_68\n      jumpi\n        /* \"#utility.yul\":1846:1925   */\n      tag_69\n      tag_42\n      jump\t// in\n    tag_69:\n        /* \"#utility.yul\":1808:1927   */\n    tag_68:\n        /* \"#utility.yul\":1966:1967   */\n      0x00\n        /* \"#utility.yul\":1991:2044   */\n      tag_70\n        /* \"#utility.yul\":2036:2043   */\n      dup6\n        /* \"#utility.yul\":2027:2033   */\n      dup3\n        /* \"#utility.yul\":2016:2025   */\n      dup7\n        /* \"#utility.yul\":2012:2034   */\n      add\n        /* \"#utility.yul\":1991:2044   */\n      tag_45\n      jump\t// in\n    tag_70:\n        /* \"#utility.yul\":1981:2044   */\n      swap3\n      pop\n        /* \"#utility.yul\":1937:2054   */\n      pop\n        /* \"#utility.yul\":2093:2095   */\n      0x20\n        /* \"#utility.yul\":2119:2172   */\n      tag_71\n        /* \"#utility.yul\":2164:2171   */\n      dup6\n        /* \"#utility.yul\":2155:2161   */\n      dup3\n        /* \"#utility.yul\":2144:2153   */\n      dup7\n        /* \"#utility.yul\":2140:2162   */\n      add\n        /* \"#utility.yul\":2119:2172   */\n      tag_45\n      jump\t// in\n    tag_71:\n        /* \"#utility.yul\":2109:2172   */\n      swap2\n      pop\n        /* \"#utility.yul\":2064:2182   */\n      pop\n        /* \"#utility.yul\":1715:2189   */\n      swap3\n      pop\n      swap3\n      swap1\n      pop\n      jump\t// out\n\n    auxdata: 0xa2646970667358221220c4b799c9a5857579dad1dd7240f700804a79a49d8b7974dfb74284ab4989084564736f6c63430008220033\n}\n",
				"bytecode": {
					"linkReferences": {},
					"object": "6080604052348015600e575f5ffd5b506102a68061001c5f395ff3fe608060405260043610610054575f3560e01c80632b5d6086146100585780633fa4f245146100835780634018d9aa146100ad5780635197c7aa146100d5578063aa8c217c146100ff578063eec2b35214610129575b5f5ffd5b348015610063575f5ffd5b5061006c610145565b60405161007a929190610199565b60405180910390f35b34801561008e575f5ffd5b50610097610154565b6040516100a491906101c0565b60405180910390f35b3480156100b8575f5ffd5b506100d360048036038101906100ce9190610207565b610159565b005b3480156100e0575f5ffd5b506100e9610162565b6040516100f691906101c0565b60405180910390f35b34801561010a575f5ffd5b5061011361016a565b60405161012091906101c0565b60405180910390f35b610143600480360381019061013e9190610232565b610170565b005b5f5f5f54600154915091509091565b5f5481565b805f8190555050565b5f5f54905090565b60015481565b815f81905550806001819055505050565b5f819050919050565b61019381610181565b82525050565b5f6040820190506101ac5f83018561018a565b6101b9602083018461018a565b9392505050565b5f6020820190506101d35f83018461018a565b92915050565b5f5ffd5b6101e681610181565b81146101f0575f5ffd5b50565b5f81359050610201816101dd565b92915050565b5f6020828403121561021c5761021b6101d9565b5b5f610229848285016101f3565b91505092915050565b5f5f60408385031215610248576102476101d9565b5b5f610255858286016101f3565b9250506020610266858286016101f3565b915050925092905056fea2646970667358221220c4b799c9a5857579dad1dd7240f700804a79a49d8b7974dfb74284ab4989084564736f6c63430008220033",
					"opcodes": "PUSH1 0x80 PUSH1 0x40 MSTORE CALLVALUE DUP1 ISZERO PUSH1 0xE JUMPI PUSH0 PUSH0 REVERT JUMPDEST POP PUSH2 0x2A6 DUP1 PUSH2 0x1C PUSH0 CODECOPY PUSH0 RETURN INVALID PUSH1 0x80 PUSH1 0x40 MSTORE PUSH1 0x4 CALLDATASIZE LT PUSH2 0x54 JUMPI PUSH0 CALLDATALOAD PUSH1 0xE0 SHR DUP1 PUSH4 0x2B5D6086 EQ PUSH2 0x58 JUMPI DUP1 PUSH4 0x3FA4F245 EQ PUSH2 0x83 JUMPI DUP1 PUSH4 0x4018D9AA EQ PUSH2 0xAD JUMPI DUP1 PUSH4 0x5197C7AA EQ PUSH2 0xD5 JUMPI DUP1 PUSH4 0xAA8C217C EQ PUSH2 0xFF JUMPI DUP1 PUSH4 0xEEC2B352 EQ PUSH2 0x129 JUMPI JUMPDEST PUSH0 PUSH0 REVERT JUMPDEST CALLVALUE DUP1 ISZERO PUSH2 0x63 JUMPI PUSH0 PUSH0 REVERT JUMPDEST POP PUSH2 0x6C PUSH2 0x145 JUMP JUMPDEST PUSH1 0x40 MLOAD PUSH2 0x7A SWAP3 SWAP2 SWAP1 PUSH2 0x199 JUMP JUMPDEST PUSH1 0x40 MLOAD DUP1 SWAP2 SUB SWAP1 RETURN JUMPDEST CALLVALUE DUP1 ISZERO PUSH2 0x8E JUMPI PUSH0 PUSH0 REVERT JUMPDEST POP PUSH2 0x97 PUSH2 0x154 JUMP JUMPDEST PUSH1 0x40 MLOAD PUSH2 0xA4 SWAP2 SWAP1 PUSH2 0x1C0 JUMP JUMPDEST PUSH1 0x40 MLOAD DUP1 SWAP2 SUB SWAP1 RETURN JUMPDEST CALLVALUE DUP1 ISZERO PUSH2 0xB8 JUMPI PUSH0 PUSH0 REVERT JUMPDEST POP PUSH2 0xD3 PUSH1 0x4 DUP1 CALLDATASIZE SUB DUP2 ADD SWAP1 PUSH2 0xCE SWAP2 SWAP1 PUSH2 0x207 JUMP JUMPDEST PUSH2 0x159 JUMP JUMPDEST STOP JUMPDEST CALLVALUE DUP1 ISZERO PUSH2 0xE0 JUMPI PUSH0 PUSH0 REVERT JUMPDEST POP PUSH2 0xE9 PUSH2 0x162 JUMP JUMPDEST PUSH1 0x40 MLOAD PUSH2 0xF6 SWAP2 SWAP1 PUSH2 0x1C0 JUMP JUMPDEST PUSH1 0x40 MLOAD DUP1 SWAP2 SUB SWAP1 RETURN JUMPDEST CALLVALUE DUP1 ISZERO PUSH2 0x10A JUMPI PUSH0 PUSH0 REVERT JUMPDEST POP PUSH2 0x113 PUSH2 0x16A JUMP JUMPDEST PUSH1 0x40 MLOAD PUSH2 0x120 SWAP2 SWAP1 PUSH2 0x1C0 JUMP JUMPDEST PUSH1 0x40 MLOAD DUP1 SWAP2 SUB SWAP1 RETURN JUMPDEST PUSH2 0x143 PUSH1 0x4 DUP1 CALLDATASIZE SUB DUP2 ADD SWAP1 PUSH2 0x13E SWAP2 SWAP1 PUSH2 0x232 JUMP JUMPDEST PUSH2 0x170 JUMP JUMPDEST STOP JUMPDEST PUSH0 PUSH0 PUSH0 SLOAD PUSH1 0x1 SLOAD SWAP2 POP SWAP2 POP SWAP1 SWAP2 JUMP JUMPDEST PUSH0 SLOAD DUP2 JUMP JUMPDEST DUP1 PUSH0 DUP2 SWAP1 SSTORE POP POP JUMP JUMPDEST PUSH0 PUSH0 SLOAD SWAP1 POP SWAP1 JUMP JUMPDEST PUSH1 0x1 SLOAD DUP2 JUMP JUMPDEST DUP2 PUSH0 DUP2 SWAP1 SSTORE POP DUP1 PUSH1 0x1 DUP2 SWAP1 SSTORE POP POP POP JUMP JUMPDEST PUSH0 DUP2 SWAP1 POP SWAP2 SWAP1 POP JUMP JUMPDEST PUSH2 0x193 DUP2 PUSH2 0x181 JUMP JUMPDEST DUP3 MSTORE POP POP JUMP JUMPDEST PUSH0 PUSH1 0x40 DUP3 ADD SWAP1 POP PUSH2 0x1AC PUSH0 DUP4 ADD DUP6 PUSH2 0x18A JUMP JUMPDEST PUSH2 0x1B9 PUSH1 0x20 DUP4 ADD DUP5 PUSH2 0x18A JUMP JUMPDEST SWAP4 SWAP3 POP POP POP JUMP JUMPDEST PUSH0 PUSH1 0x20 DUP3 ADD SWAP1 POP PUSH2 0x1D3 PUSH0 DUP4 ADD DUP5 PUSH2 0x18A JUMP JUMPDEST SWAP3 SWAP2 POP POP JUMP JUMPDEST PUSH0 PUSH0 REVERT JUMPDEST PUSH2 0x1E6 DUP2 PUSH2 0x181 JUMP JUMPDEST DUP2 EQ PUSH2 0x1F0 JUMPI PUSH0 PUSH0 REVERT JUMPDEST POP JUMP JUMPDEST PUSH0 DUP2 CALLDATALOAD SWAP1 POP PUSH2 0x201 DUP2 PUSH2 0x1DD JUMP JUMPDEST SWAP3 SWAP2 POP POP JUMP JUMPDEST PUSH0 PUSH1 0x20 DUP3 DUP5 SUB SLT ISZERO PUSH2 0x21C JUMPI PUSH2 0x21B PUSH2 0x1D9 JUMP JUMPDEST JUMPDEST PUSH0 PUSH2 0x229 DUP5 DUP3 DUP6 ADD PUSH2 0x1F3 JUMP JUMPDEST SWAP2 POP POP SWAP3 SWAP2 POP POP JUMP JUMPDEST PUSH0 PUSH0 PUSH1 0x40 DUP4 DUP6 SUB SLT ISZERO PUSH2 0x248 JUMPI PUSH2 0x247 PUSH2 0x1D9 JUMP JUMPDEST JUMPDEST PUSH0 PUSH2 0x255 DUP6 DUP3 DUP7 ADD PUSH2 0x1F3 JUMP JUMPDEST SWAP3 POP POP PUSH1 0x20 PUSH2 0x266 DUP6 DUP3 DUP7 ADD PUSH2 0x1F3 JUMP JUMPDEST SWAP2 POP POP SWAP3 POP SWAP3 SWAP1 POP JUMP INVALID LOG2 PUSH5 0x6970667358 0x22 SLT KECCAK256 0xC4 0xB7 SWAP10 0xC9 0xA5 DUP6 PUSH22 0x79DAD1DD7240F700804A79A49D8B7974DFB74284AB49 DUP10 ADDMOD GASLIMIT PUSH5 0x736F6C6343 STOP ADDMOD 0x22 STOP CALLER "
				},
				"gasEstimates": {
					"creation": {
						"codeDepositCost": "135600",
						"executionCost": "181",
						"totalCost": "135781"
					},
					"external": {
						"amount()": "2491",
						"getX()": "2475",
						"getXAndValue()": "infinite",
						"setX(uint256)": "22536",
						"setXAndReceiveEther(uint256,uint256)": "infinite",
						"value()": "2424"
					}
				},
				"methodIdentifiers": {
					"amount()": "aa8c217c",
					"getX()": "5197c7aa",
					"getXAndValue()": "2b5d6086",
					"setX(uint256)": "4018d9aa",
					"setXAndReceiveEther(uint256,uint256)": "eec2b352",
					"value()": "3fa4f245"
				}
			},
			"storageLayout": {
				"storage": [
					{
						"astId": 69,
						"contract": "solidity金融和支付/合约调用.sol:TargetContract",
						"label": "value",
						"offset": 0,
						"slot": "0",
						"type": "t_uint256"
					},
					{
						"astId": 71,
						"contract": "solidity金融和支付/合约调用.sol:TargetContract",
						"label": "amount",
						"offset": 0,
						"slot": "1",
						"type": "t_uint256"
					}
				],
				"types": {
					"t_uint256": {
						"encoding": "inplace",
						"label": "uint256",
						"numberOfBytes": "32"
					}
				}
			},
			"userdoc": {
				"kind": "user",
				"methods": {},
				"version": 1
			}
		}
	}
}