{
	"solidity合约交互/合约调用-单次call.sol": {
		"TestContract": {
			"abi": [
				{
					"anonymous": false,
					"inputs": [
						{
							"indexed": false,
							"internalType": "address",
							"name": "sender",
							"type": "address"
						},
						{
							"indexed": false,
							"internalType": "string",
							"name": "message",
							"type": "string"
						}
					],
					"name": "Log",
					"type": "event"
				},
				{
					"inputs": [
						{
							"internalType": "string",
							"name": "_msg",
							"type": "string"
						},
						{
							"internalType": "uint256",
							"name": "num",
							"type": "uint256"
						}
					],
					"name": "foo",
					"outputs": [
						{
							"internalType": "bool",
							"name": "",
							"type": "bool"
						},
						{
							"internalType": "uint256",
							"name": "",
							"type": "uint256"
						}
					],
					"stateMutability": "payable",
					"type": "function"
				},
				{
					"inputs": [],
					"name": "message",
					"outputs": [
						{
							"internalType": "string",
							"name": "",
							"type": "string"
						}
					],
					"stateMutability": "view",
					"type": "function"
				},
				{
					"inputs": [],
					"name": "number",
					"outputs": [
						{
							"internalType": "uint256",
							"name": "",
							"type": "uint256"
						}
					],
					"stateMutability": "view",
					"type": "function"
				},
				{
					"stateMutability": "payable",
					"type": "receive"
				}
			],
			"devdoc": {
				"kind": "dev",
				"methods": {},
				"version": 1
			},
			"evm": {
				"assembly": "    /* \"solidity\\xe5\\x90\\x88\\xe7\\xba\\xa6\\xe4\\xba\\xa4\\xe4\\xba\\x92/\\xe5\\x90\\x88\\xe7\\xba\\xa6\\xe8\\xb0\\x83\\xe7\\x94\\xa8-\\xe5\\x8d\\x95\\xe6\\xac\\xa1call.sol\":726:1176  contract TestContract {... */\n  mstore(0x40, 0x80)\n  callvalue\n  dup1\n  iszero\n  tag_1\n  jumpi\n  revert(0x00, 0x00)\ntag_1:\n  pop\n  dataSize(sub_0)\n  dup1\n  dataOffset(sub_0)\n  0x00\n  codecopy\n  0x00\n  return\nstop\n\nsub_0: assembly {\n        /* \"solidity\\xe5\\x90\\x88\\xe7\\xba\\xa6\\xe4\\xba\\xa4\\xe4\\xba\\x92/\\xe5\\x90\\x88\\xe7\\xba\\xa6\\xe8\\xb0\\x83\\xe7\\x94\\xa8-\\xe5\\x8d\\x95\\xe6\\xac\\xa1call.sol\":726:1176  contract TestContract {... */\n      mstore(0x40, 0x80)\n      jumpi(tag_1, lt(calldatasize, 0x04))\n      shr(0xe0, calldataload(0x00))\n      dup1\n      0x24ccab8f\n      eq\n      tag_3\n      jumpi\n      dup1\n      0x8381f58a\n      eq\n      tag_4\n      jumpi\n      dup1\n      0xe21f37ce\n      eq\n      tag_5\n      jumpi\n      jump(tag_2)\n    tag_1:\n      jumpi(tag_2, calldatasize)\n      stop\n    tag_2:\n      revert(0x00, 0x00)\n        /* \"solidity\\xe5\\x90\\x88\\xe7\\xba\\xa6\\xe4\\xba\\xa4\\xe4\\xba\\x92/\\xe5\\x90\\x88\\xe7\\xba\\xa6\\xe8\\xb0\\x83\\xe7\\x94\\xa8-\\xe5\\x8d\\x95\\xe6\\xac\\xa1call.sol\":862:1029  function foo(string memory _msg,uint256 num) external payable returns(bool, uint) {... */\n    tag_3:\n      tag_8\n      0x04\n      dup1\n      calldatasize\n      sub\n      dup2\n      add\n      swap1\n      tag_9\n      swap2\n      swap1\n      tag_10\n      jump\t// in\n    tag_9:\n      tag_11\n      jump\t// in\n    tag_8:\n      mload(0x40)\n      tag_12\n      swap3\n      swap2\n      swap1\n      tag_13\n      jump\t// in\n    tag_12:\n      mload(0x40)\n      dup1\n      swap2\n      sub\n      swap1\n      return\n        /* \"solidity\\xe5\\x90\\x88\\xe7\\xba\\xa6\\xe4\\xba\\xa4\\xe4\\xba\\x92/\\xe5\\x90\\x88\\xe7\\xba\\xa6\\xe8\\xb0\\x83\\xe7\\x94\\xa8-\\xe5\\x8d\\x95\\xe6\\xac\\xa1call.sol\":785:806  uint256 public number */\n    tag_4:\n      callvalue\n      dup1\n      iszero\n      tag_14\n      jumpi\n      revert(0x00, 0x00)\n    tag_14:\n      pop\n      tag_15\n      tag_16\n      jump\t// in\n    tag_15:\n      mload(0x40)\n      tag_17\n      swap2\n      swap1\n      tag_18\n      jump\t// in\n    tag_17:\n      mload(0x40)\n      dup1\n      swap2\n      sub\n      swap1\n      return\n        /* \"solidity\\xe5\\x90\\x88\\xe7\\xba\\xa6\\xe4\\xba\\xa4\\xe4\\xba\\x92/\\xe5\\x90\\x88\\xe7\\xba\\xa6\\xe8\\xb0\\x83\\xe7\\x94\\xa8-\\xe5\\x8d\\x95\\xe6\\xac\\xa1call.sol\":755:778  string  public  message */\n    tag_5:\n      callvalue\n      dup1\n      iszero\n      tag_19\n      jumpi\n      revert(0x00, 0x00)\n    tag_19:\n      pop\n      tag_20\n      tag_21\n      jump\t// in\n    tag_20:\n      mload(0x40)\n      tag_22\n      swap2\n      swap1\n      tag_23\n      jump\t// in\n    tag_22:\n      mload(0x40)\n      dup1\n      swap2\n      sub\n      swap1\n      return\n        /* \"solidity\\xe5\\x90\\x88\\xe7\\xba\\xa6\\xe4\\xba\\xa4\\xe4\\xba\\x92/\\xe5\\x90\\x88\\xe7\\xba\\xa6\\xe8\\xb0\\x83\\xe7\\x94\\xa8-\\xe5\\x8d\\x95\\xe6\\xac\\xa1call.sol\":862:1029  function foo(string memory _msg,uint256 num) external payable returns(bool, uint) {... */\n    tag_11:\n        /* \"solidity\\xe5\\x90\\x88\\xe7\\xba\\xa6\\xe4\\xba\\xa4\\xe4\\xba\\x92/\\xe5\\x90\\x88\\xe7\\xba\\xa6\\xe8\\xb0\\x83\\xe7\\x94\\xa8-\\xe5\\x8d\\x95\\xe6\\xac\\xa1call.sol\":932:936  bool */\n      0x00\n        /* \"solidity\\xe5\\x90\\x88\\xe7\\xba\\xa6\\xe4\\xba\\xa4\\xe4\\xba\\x92/\\xe5\\x90\\x88\\xe7\\xba\\xa6\\xe8\\xb0\\x83\\xe7\\x94\\xa8-\\xe5\\x8d\\x95\\xe6\\xac\\xa1call.sol\":938:942  uint */\n      0x00\n        /* \"solidity\\xe5\\x90\\x88\\xe7\\xba\\xa6\\xe4\\xba\\xa4\\xe4\\xba\\x92/\\xe5\\x90\\x88\\xe7\\xba\\xa6\\xe8\\xb0\\x83\\xe7\\x94\\xa8-\\xe5\\x8d\\x95\\xe6\\xac\\xa1call.sol\":965:969  _msg */\n      dup4\n        /* \"solidity\\xe5\\x90\\x88\\xe7\\xba\\xa6\\xe4\\xba\\xa4\\xe4\\xba\\x92/\\xe5\\x90\\x88\\xe7\\xba\\xa6\\xe8\\xb0\\x83\\xe7\\x94\\xa8-\\xe5\\x8d\\x95\\xe6\\xac\\xa1call.sol\":955:962  message */\n      0x00\n        /* \"solidity\\xe5\\x90\\x88\\xe7\\xba\\xa6\\xe4\\xba\\xa4\\xe4\\xba\\x92/\\xe5\\x90\\x88\\xe7\\xba\\xa6\\xe8\\xb0\\x83\\xe7\\x94\\xa8-\\xe5\\x8d\\x95\\xe6\\xac\\xa1call.sol\":955:969  message = _msg */\n      swap1\n      dup2\n      tag_25\n      swap2\n      swap1\n      tag_26\n      jump\t// in\n    tag_25:\n      pop\n        /* \"solidity\\xe5\\x90\\x88\\xe7\\xba\\xa6\\xe4\\xba\\xa4\\xe4\\xba\\x92/\\xe5\\x90\\x88\\xe7\\xba\\xa6\\xe8\\xb0\\x83\\xe7\\x94\\xa8-\\xe5\\x8d\\x95\\xe6\\xac\\xa1call.sol\":989:992  num */\n      dup3\n        /* \"solidity\\xe5\\x90\\x88\\xe7\\xba\\xa6\\xe4\\xba\\xa4\\xe4\\xba\\x92/\\xe5\\x90\\x88\\xe7\\xba\\xa6\\xe8\\xb0\\x83\\xe7\\x94\\xa8-\\xe5\\x8d\\x95\\xe6\\xac\\xa1call.sol\":980:986  number */\n      0x01\n        /* \"solidity\\xe5\\x90\\x88\\xe7\\xba\\xa6\\xe4\\xba\\xa4\\xe4\\xba\\x92/\\xe5\\x90\\x88\\xe7\\xba\\xa6\\xe8\\xb0\\x83\\xe7\\x94\\xa8-\\xe5\\x8d\\x95\\xe6\\xac\\xa1call.sol\":980:992  number = num */\n      dup2\n      swap1\n      sstore\n      pop\n        /* \"solidity\\xe5\\x90\\x88\\xe7\\xba\\xa6\\xe4\\xba\\xa4\\xe4\\xba\\x92/\\xe5\\x90\\x88\\xe7\\xba\\xa6\\xe8\\xb0\\x83\\xe7\\x94\\xa8-\\xe5\\x8d\\x95\\xe6\\xac\\xa1call.sol\":1011:1015  true */\n      0x01\n        /* \"solidity\\xe5\\x90\\x88\\xe7\\xba\\xa6\\xe4\\xba\\xa4\\xe4\\xba\\x92/\\xe5\\x90\\x88\\xe7\\xba\\xa6\\xe8\\xb0\\x83\\xe7\\x94\\xa8-\\xe5\\x8d\\x95\\xe6\\xac\\xa1call.sol\":1017:1020  888 */\n      0x0378\n        /* \"solidity\\xe5\\x90\\x88\\xe7\\xba\\xa6\\xe4\\xba\\xa4\\xe4\\xba\\x92/\\xe5\\x90\\x88\\xe7\\xba\\xa6\\xe8\\xb0\\x83\\xe7\\x94\\xa8-\\xe5\\x8d\\x95\\xe6\\xac\\xa1call.sol\":1003:1021  return (true, 888) */\n      swap2\n      pop\n      swap2\n      pop\n        /* \"solidity\\xe5\\x90\\x88\\xe7\\xba\\xa6\\xe4\\xba\\xa4\\xe4\\xba\\x92/\\xe5\\x90\\x88\\xe7\\xba\\xa6\\xe8\\xb0\\x83\\xe7\\x94\\xa8-\\xe5\\x8d\\x95\\xe6\\xac\\xa1call.sol\":862:1029  function foo(string memory _msg,uint256 num) external payable returns(bool, uint) {... */\n      swap3\n      pop\n      swap3\n      swap1\n      pop\n      jump\t// out\n        /* \"solidity\\xe5\\x90\\x88\\xe7\\xba\\xa6\\xe4\\xba\\xa4\\xe4\\xba\\x92/\\xe5\\x90\\x88\\xe7\\xba\\xa6\\xe8\\xb0\\x83\\xe7\\x94\\xa8-\\xe5\\x8d\\x95\\xe6\\xac\\xa1call.sol\":785:806  uint256 public number */\n    tag_16:\n      sload(0x01)\n      dup2\n      jump\t// out\n        /* \"solidity\\xe5\\x90\\x88\\xe7\\xba\\xa6\\xe4\\xba\\xa4\\xe4\\xba\\x92/\\xe5\\x90\\x88\\xe7\\xba\\xa6\\xe8\\xb0\\x83\\xe7\\x94\\xa8-\\xe5\\x8d\\x95\\xe6\\xac\\xa1call.sol\":755:778  string  public  message */\n    tag_21:\n      0x00\n      dup1\n      sload\n      tag_27\n      swap1\n      tag_28\n      jump\t// in\n    tag_27:\n      dup1\n      0x1f\n      add\n      0x20\n      dup1\n      swap2\n      div\n      mul\n      0x20\n      add\n      mload(0x40)\n      swap1\n      dup2\n      add\n      0x40\n      mstore\n      dup1\n      swap3\n      swap2\n      swap1\n      dup2\n      dup2\n      mstore\n      0x20\n      add\n      dup3\n      dup1\n      sload\n      tag_29\n      swap1\n      tag_28\n      jump\t// in\n    tag_29:\n      dup1\n      iszero\n      tag_30\n      jumpi\n      dup1\n      0x1f\n      lt\n      tag_31\n      jumpi\n      0x0100\n      dup1\n      dup4\n      sload\n      div\n      mul\n      dup4\n      mstore\n      swap2\n      0x20\n      add\n      swap2\n      jump(tag_30)\n    tag_31:\n      dup3\n      add\n      swap2\n      swap1\n      0x00\n      mstore\n      keccak256(0x00, 0x20)\n      swap1\n    tag_32:\n      dup2\n      sload\n      dup2\n      mstore\n      swap1\n      0x01\n      add\n      swap1\n      0x20\n      add\n      dup1\n      dup4\n      gt\n      tag_32\n      jumpi\n      dup3\n      swap1\n      sub\n      0x1f\n      and\n      dup3\n      add\n      swap2\n    tag_30:\n      pop\n      pop\n      pop\n      pop\n      pop\n      dup2\n      jump\t// out\n        /* \"#utility.yul\":7:82   */\n    tag_33:\n        /* \"#utility.yul\":40:46   */\n      0x00\n        /* \"#utility.yul\":73:75   */\n      0x40\n        /* \"#utility.yul\":67:76   */\n      mload\n        /* \"#utility.yul\":57:76   */\n      swap1\n      pop\n        /* \"#utility.yul\":7:82   */\n      swap1\n      jump\t// out\n        /* \"#utility.yul\":88:205   */\n    tag_34:\n        /* \"#utility.yul\":197:198   */\n      0x00\n        /* \"#utility.yul\":194:195   */\n      0x00\n        /* \"#utility.yul\":187:199   */\n      revert\n        /* \"#utility.yul\":211:328   */\n    tag_35:\n        /* \"#utility.yul\":320:321   */\n      0x00\n        /* \"#utility.yul\":317:318   */\n      0x00\n        /* \"#utility.yul\":310:322   */\n      revert\n        /* \"#utility.yul\":334:451   */\n    tag_36:\n        /* \"#utility.yul\":443:444   */\n      0x00\n        /* \"#utility.yul\":440:441   */\n      0x00\n        /* \"#utility.yul\":433:445   */\n      revert\n        /* \"#utility.yul\":457:574   */\n    tag_37:\n        /* \"#utility.yul\":566:567   */\n      0x00\n        /* \"#utility.yul\":563:564   */\n      0x00\n        /* \"#utility.yul\":556:568   */\n      revert\n        /* \"#utility.yul\":580:682   */\n    tag_38:\n        /* \"#utility.yul\":621:627   */\n      0x00\n        /* \"#utility.yul\":672:674   */\n      0x1f\n        /* \"#utility.yul\":668:675   */\n      not\n        /* \"#utility.yul\":663:665   */\n      0x1f\n        /* \"#utility.yul\":656:661   */\n      dup4\n        /* \"#utility.yul\":652:666   */\n      add\n        /* \"#utility.yul\":648:676   */\n      and\n        /* \"#utility.yul\":638:676   */\n      swap1\n      pop\n        /* \"#utility.yul\":580:682   */\n      swap2\n      swap1\n      pop\n      jump\t// out\n        /* \"#utility.yul\":688:868   */\n    tag_39:\n        /* \"#utility.yul\":736:813   */\n      0x4e487b7100000000000000000000000000000000000000000000000000000000\n        /* \"#utility.yul\":733:734   */\n      0x00\n        /* \"#utility.yul\":726:814   */\n      mstore\n        /* \"#utility.yul\":833:837   */\n      0x41\n        /* \"#utility.yul\":830:831   */\n      0x04\n        /* \"#utility.yul\":823:838   */\n      mstore\n        /* \"#utility.yul\":857:861   */\n      0x24\n        /* \"#utility.yul\":854:855   */\n      0x00\n        /* \"#utility.yul\":847:862   */\n      revert\n        /* \"#utility.yul\":874:1155   */\n    tag_40:\n        /* \"#utility.yul\":957:984   */\n      tag_81\n        /* \"#utility.yul\":979:983   */\n      dup3\n        /* \"#utility.yul\":957:984   */\n      tag_38\n      jump\t// in\n    tag_81:\n        /* \"#utility.yul\":949:955   */\n      dup2\n        /* \"#utility.yul\":945:985   */\n      add\n        /* \"#utility.yul\":1087:1093   */\n      dup2\n        /* \"#utility.yul\":1075:1085   */\n      dup2\n        /* \"#utility.yul\":1072:1094   */\n      lt\n        /* \"#utility.yul\":1051:1069   */\n      0xffffffffffffffff\n        /* \"#utility.yul\":1039:1049   */\n      dup3\n        /* \"#utility.yul\":1036:1070   */\n      gt\n        /* \"#utility.yul\":1033:1095   */\n      or\n        /* \"#utility.yul\":1030:1118   */\n      iszero\n      tag_82\n      jumpi\n        /* \"#utility.yul\":1098:1116   */\n      tag_83\n      tag_39\n      jump\t// in\n    tag_83:\n        /* \"#utility.yul\":1030:1118   */\n    tag_82:\n        /* \"#utility.yul\":1138:1148   */\n      dup1\n        /* \"#utility.yul\":1134:1136   */\n      0x40\n        /* \"#utility.yul\":1127:1149   */\n      mstore\n        /* \"#utility.yul\":917:1155   */\n      pop\n        /* \"#utility.yul\":874:1155   */\n      pop\n      pop\n      jump\t// out\n        /* \"#utility.yul\":1161:1290   */\n    tag_41:\n        /* \"#utility.yul\":1195:1201   */\n      0x00\n        /* \"#utility.yul\":1222:1242   */\n      tag_85\n      tag_33\n      jump\t// in\n    tag_85:\n        /* \"#utility.yul\":1212:1242   */\n      swap1\n      pop\n        /* \"#utility.yul\":1251:1284   */\n      tag_86\n        /* \"#utility.yul\":1279:1283   */\n      dup3\n        /* \"#utility.yul\":1271:1277   */\n      dup3\n        /* \"#utility.yul\":1251:1284   */\n      tag_40\n      jump\t// in\n    tag_86:\n        /* \"#utility.yul\":1161:1290   */\n      swap2\n      swap1\n      pop\n      jump\t// out\n        /* \"#utility.yul\":1296:1604   */\n    tag_42:\n        /* \"#utility.yul\":1358:1362   */\n      0x00\n        /* \"#utility.yul\":1448:1466   */\n      0xffffffffffffffff\n        /* \"#utility.yul\":1440:1446   */\n      dup3\n        /* \"#utility.yul\":1437:1467   */\n      gt\n        /* \"#utility.yul\":1434:1490   */\n      iszero\n      tag_88\n      jumpi\n        /* \"#utility.yul\":1470:1488   */\n      tag_89\n      tag_39\n      jump\t// in\n    tag_89:\n        /* \"#utility.yul\":1434:1490   */\n    tag_88:\n        /* \"#utility.yul\":1508:1537   */\n      tag_90\n        /* \"#utility.yul\":1530:1536   */\n      dup3\n        /* \"#utility.yul\":1508:1537   */\n      tag_38\n      jump\t// in\n    tag_90:\n        /* \"#utility.yul\":1500:1537   */\n      swap1\n      pop\n        /* \"#utility.yul\":1592:1596   */\n      0x20\n        /* \"#utility.yul\":1586:1590   */\n      dup2\n        /* \"#utility.yul\":1582:1597   */\n      add\n        /* \"#utility.yul\":1574:1597   */\n      swap1\n      pop\n        /* \"#utility.yul\":1296:1604   */\n      swap2\n      swap1\n      pop\n      jump\t// out\n        /* \"#utility.yul\":1610:1758   */\n    tag_43:\n        /* \"#utility.yul\":1708:1714   */\n      dup3\n        /* \"#utility.yul\":1703:1706   */\n      dup2\n        /* \"#utility.yul\":1698:1701   */\n      dup4\n        /* \"#utility.yul\":1685:1715   */\n      calldatacopy\n        /* \"#utility.yul\":1749:1750   */\n      0x00\n        /* \"#utility.yul\":1740:1746   */\n      dup4\n        /* \"#utility.yul\":1735:1738   */\n      dup4\n        /* \"#utility.yul\":1731:1747   */\n      add\n        /* \"#utility.yul\":1724:1751   */\n      mstore\n        /* \"#utility.yul\":1610:1758   */\n      pop\n      pop\n      pop\n      jump\t// out\n        /* \"#utility.yul\":1764:2189   */\n    tag_44:\n        /* \"#utility.yul\":1842:1847   */\n      0x00\n        /* \"#utility.yul\":1867:1933   */\n      tag_93\n        /* \"#utility.yul\":1883:1932   */\n      tag_94\n        /* \"#utility.yul\":1925:1931   */\n      dup5\n        /* \"#utility.yul\":1883:1932   */\n      tag_42\n      jump\t// in\n    tag_94:\n        /* \"#utility.yul\":1867:1933   */\n      tag_41\n      jump\t// in\n    tag_93:\n        /* \"#utility.yul\":1858:1933   */\n      swap1\n      pop\n        /* \"#utility.yul\":1956:1962   */\n      dup3\n        /* \"#utility.yul\":1949:1954   */\n      dup2\n        /* \"#utility.yul\":1942:1963   */\n      mstore\n        /* \"#utility.yul\":1994:1998   */\n      0x20\n        /* \"#utility.yul\":1987:1992   */\n      dup2\n        /* \"#utility.yul\":1983:1999   */\n      add\n        /* \"#utility.yul\":2032:2035   */\n      dup5\n        /* \"#utility.yul\":2023:2029   */\n      dup5\n        /* \"#utility.yul\":2018:2021   */\n      dup5\n        /* \"#utility.yul\":2014:2030   */\n      add\n        /* \"#utility.yul\":2011:2036   */\n      gt\n        /* \"#utility.yul\":2008:2120   */\n      iszero\n      tag_95\n      jumpi\n        /* \"#utility.yul\":2039:2118   */\n      tag_96\n      tag_37\n      jump\t// in\n    tag_96:\n        /* \"#utility.yul\":2008:2120   */\n    tag_95:\n        /* \"#utility.yul\":2129:2183   */\n      tag_97\n        /* \"#utility.yul\":2176:2182   */\n      dup5\n        /* \"#utility.yul\":2171:2174   */\n      dup3\n        /* \"#utility.yul\":2166:2169   */\n      dup6\n        /* \"#utility.yul\":2129:2183   */\n      tag_43\n      jump\t// in\n    tag_97:\n        /* \"#utility.yul\":1848:2189   */\n      pop\n        /* \"#utility.yul\":1764:2189   */\n      swap4\n      swap3\n      pop\n      pop\n      pop\n      jump\t// out\n        /* \"#utility.yul\":2209:2549   */\n    tag_45:\n        /* \"#utility.yul\":2265:2270   */\n      0x00\n        /* \"#utility.yul\":2314:2317   */\n      dup3\n        /* \"#utility.yul\":2307:2311   */\n      0x1f\n        /* \"#utility.yul\":2299:2305   */\n      dup4\n        /* \"#utility.yul\":2295:2312   */\n      add\n        /* \"#utility.yul\":2291:2318   */\n      slt\n        /* \"#utility.yul\":2281:2403   */\n      tag_99\n      jumpi\n        /* \"#utility.yul\":2322:2401   */\n      tag_100\n      tag_36\n      jump\t// in\n    tag_100:\n        /* \"#utility.yul\":2281:2403   */\n    tag_99:\n        /* \"#utility.yul\":2439:2445   */\n      dup2\n        /* \"#utility.yul\":2426:2446   */\n      calldataload\n        /* \"#utility.yul\":2464:2543   */\n      tag_101\n        /* \"#utility.yul\":2539:2542   */\n      dup5\n        /* \"#utility.yul\":2531:2537   */\n      dup3\n        /* \"#utility.yul\":2524:2528   */\n      0x20\n        /* \"#utility.yul\":2516:2522   */\n      dup7\n        /* \"#utility.yul\":2512:2529   */\n      add\n        /* \"#utility.yul\":2464:2543   */\n      tag_44\n      jump\t// in\n    tag_101:\n        /* \"#utility.yul\":2455:2543   */\n      swap2\n      pop\n        /* \"#utility.yul\":2271:2549   */\n      pop\n        /* \"#utility.yul\":2209:2549   */\n      swap3\n      swap2\n      pop\n      pop\n      jump\t// out\n        /* \"#utility.yul\":2555:2632   */\n    tag_46:\n        /* \"#utility.yul\":2592:2599   */\n      0x00\n        /* \"#utility.yul\":2621:2626   */\n      dup2\n        /* \"#utility.yul\":2610:2626   */\n      swap1\n      pop\n        /* \"#utility.yul\":2555:2632   */\n      swap2\n      swap1\n      pop\n      jump\t// out\n        /* \"#utility.yul\":2638:2760   */\n    tag_47:\n        /* \"#utility.yul\":2711:2735   */\n      tag_104\n        /* \"#utility.yul\":2729:2734   */\n      dup2\n        /* \"#utility.yul\":2711:2735   */\n      tag_46\n      jump\t// in\n    tag_104:\n        /* \"#utility.yul\":2704:2709   */\n      dup2\n        /* \"#utility.yul\":2701:2736   */\n      eq\n        /* \"#utility.yul\":2691:2754   */\n      tag_105\n      jumpi\n        /* \"#utility.yul\":2750:2751   */\n      0x00\n        /* \"#utility.yul\":2747:2748   */\n      0x00\n        /* \"#utility.yul\":2740:2752   */\n      revert\n        /* \"#utility.yul\":2691:2754   */\n    tag_105:\n        /* \"#utility.yul\":2638:2760   */\n      pop\n      jump\t// out\n        /* \"#utility.yul\":2766:2905   */\n    tag_48:\n        /* \"#utility.yul\":2812:2817   */\n      0x00\n        /* \"#utility.yul\":2850:2856   */\n      dup2\n        /* \"#utility.yul\":2837:2857   */\n      calldataload\n        /* \"#utility.yul\":2828:2857   */\n      swap1\n      pop\n        /* \"#utility.yul\":2866:2899   */\n      tag_107\n        /* \"#utility.yul\":2893:2898   */\n      dup2\n        /* \"#utility.yul\":2866:2899   */\n      tag_47\n      jump\t// in\n    tag_107:\n        /* \"#utility.yul\":2766:2905   */\n      swap3\n      swap2\n      pop\n      pop\n      jump\t// out\n        /* \"#utility.yul\":2911:3565   */\n    tag_10:\n        /* \"#utility.yul\":2989:2995   */\n      0x00\n        /* \"#utility.yul\":2997:3003   */\n      0x00\n        /* \"#utility.yul\":3046:3048   */\n      0x40\n        /* \"#utility.yul\":3034:3043   */\n      dup4\n        /* \"#utility.yul\":3025:3032   */\n      dup6\n        /* \"#utility.yul\":3021:3044   */\n      sub\n        /* \"#utility.yul\":3017:3049   */\n      slt\n        /* \"#utility.yul\":3014:3133   */\n      iszero\n      tag_109\n      jumpi\n        /* \"#utility.yul\":3052:3131   */\n      tag_110\n      tag_34\n      jump\t// in\n    tag_110:\n        /* \"#utility.yul\":3014:3133   */\n    tag_109:\n        /* \"#utility.yul\":3200:3201   */\n      0x00\n        /* \"#utility.yul\":3189:3198   */\n      dup4\n        /* \"#utility.yul\":3185:3202   */\n      add\n        /* \"#utility.yul\":3172:3203   */\n      calldataload\n        /* \"#utility.yul\":3230:3248   */\n      0xffffffffffffffff\n        /* \"#utility.yul\":3222:3228   */\n      dup2\n        /* \"#utility.yul\":3219:3249   */\n      gt\n        /* \"#utility.yul\":3216:3333   */\n      iszero\n      tag_111\n      jumpi\n        /* \"#utility.yul\":3252:3331   */\n      tag_112\n      tag_35\n      jump\t// in\n    tag_112:\n        /* \"#utility.yul\":3216:3333   */\n    tag_111:\n        /* \"#utility.yul\":3357:3420   */\n      tag_113\n        /* \"#utility.yul\":3412:3419   */\n      dup6\n        /* \"#utility.yul\":3403:3409   */\n      dup3\n        /* \"#utility.yul\":3392:3401   */\n      dup7\n        /* \"#utility.yul\":3388:3410   */\n      add\n        /* \"#utility.yul\":3357:3420   */\n      tag_45\n      jump\t// in\n    tag_113:\n        /* \"#utility.yul\":3347:3420   */\n      swap3\n      pop\n        /* \"#utility.yul\":3143:3430   */\n      pop\n        /* \"#utility.yul\":3469:3471   */\n      0x20\n        /* \"#utility.yul\":3495:3548   */\n      tag_114\n        /* \"#utility.yul\":3540:3547   */\n      dup6\n        /* \"#utility.yul\":3531:3537   */\n      dup3\n        /* \"#utility.yul\":3520:3529   */\n      dup7\n        /* \"#utility.yul\":3516:3538   */\n      add\n        /* \"#utility.yul\":3495:3548   */\n      tag_48\n      jump\t// in\n    tag_114:\n        /* \"#utility.yul\":3485:3548   */\n      swap2\n      pop\n        /* \"#utility.yul\":3440:3558   */\n      pop\n        /* \"#utility.yul\":2911:3565   */\n      swap3\n      pop\n      swap3\n      swap1\n      pop\n      jump\t// out\n        /* \"#utility.yul\":3571:3661   */\n    tag_49:\n        /* \"#utility.yul\":3605:3612   */\n      0x00\n        /* \"#utility.yul\":3648:3653   */\n      dup2\n        /* \"#utility.yul\":3641:3654   */\n      iszero\n        /* \"#utility.yul\":3634:3655   */\n      iszero\n        /* \"#utility.yul\":3623:3655   */\n      swap1\n      pop\n        /* \"#utility.yul\":3571:3661   */\n      swap2\n      swap1\n      pop\n      jump\t// out\n        /* \"#utility.yul\":3667:3776   */\n    tag_50:\n        /* \"#utility.yul\":3748:3769   */\n      tag_117\n        /* \"#utility.yul\":3763:3768   */\n      dup2\n        /* \"#utility.yul\":3748:3769   */\n      tag_49\n      jump\t// in\n    tag_117:\n        /* \"#utility.yul\":3743:3746   */\n      dup3\n        /* \"#utility.yul\":3736:3770   */\n      mstore\n        /* \"#utility.yul\":3667:3776   */\n      pop\n      pop\n      jump\t// out\n        /* \"#utility.yul\":3782:3900   */\n    tag_51:\n        /* \"#utility.yul\":3869:3893   */\n      tag_119\n        /* \"#utility.yul\":3887:3892   */\n      dup2\n        /* \"#utility.yul\":3869:3893   */\n      tag_46\n      jump\t// in\n    tag_119:\n        /* \"#utility.yul\":3864:3867   */\n      dup3\n        /* \"#utility.yul\":3857:3894   */\n      mstore\n        /* \"#utility.yul\":3782:3900   */\n      pop\n      pop\n      jump\t// out\n        /* \"#utility.yul\":3906:4226   */\n    tag_13:\n        /* \"#utility.yul\":4021:4025   */\n      0x00\n        /* \"#utility.yul\":4059:4061   */\n      0x40\n        /* \"#utility.yul\":4048:4057   */\n      dup3\n        /* \"#utility.yul\":4044:4062   */\n      add\n        /* \"#utility.yul\":4036:4062   */\n      swap1\n      pop\n        /* \"#utility.yul\":4072:4137   */\n      tag_121\n        /* \"#utility.yul\":4134:4135   */\n      0x00\n        /* \"#utility.yul\":4123:4132   */\n      dup4\n        /* \"#utility.yul\":4119:4136   */\n      add\n        /* \"#utility.yul\":4110:4116   */\n      dup6\n        /* \"#utility.yul\":4072:4137   */\n      tag_50\n      jump\t// in\n    tag_121:\n        /* \"#utility.yul\":4147:4219   */\n      tag_122\n        /* \"#utility.yul\":4215:4217   */\n      0x20\n        /* \"#utility.yul\":4204:4213   */\n      dup4\n        /* \"#utility.yul\":4200:4218   */\n      add\n        /* \"#utility.yul\":4191:4197   */\n      dup5\n        /* \"#utility.yul\":4147:4219   */\n      tag_51\n      jump\t// in\n    tag_122:\n        /* \"#utility.yul\":3906:4226   */\n      swap4\n      swap3\n      pop\n      pop\n      pop\n      jump\t// out\n        /* \"#utility.yul\":4232:4454   */\n    tag_18:\n        /* \"#utility.yul\":4325:4329   */\n      0x00\n        /* \"#utility.yul\":4363:4365   */\n      0x20\n        /* \"#utility.yul\":4352:4361   */\n      dup3\n        /* \"#utility.yul\":4348:4366   */\n      add\n        /* \"#utility.yul\":4340:4366   */\n      swap1\n      pop\n        /* \"#utility.yul\":4376:4447   */\n      tag_124\n        /* \"#utility.yul\":4444:4445   */\n      0x00\n        /* \"#utility.yul\":4433:4442   */\n      dup4\n        /* \"#utility.yul\":4429:4446   */\n      add\n        /* \"#utility.yul\":4420:4426   */\n      dup5\n        /* \"#utility.yul\":4376:4447   */\n      tag_51\n      jump\t// in\n    tag_124:\n        /* \"#utility.yul\":4232:4454   */\n      swap3\n      swap2\n      pop\n      pop\n      jump\t// out\n        /* \"#utility.yul\":4460:4559   */\n    tag_52:\n        /* \"#utility.yul\":4512:4518   */\n      0x00\n        /* \"#utility.yul\":4546:4551   */\n      dup2\n        /* \"#utility.yul\":4540:4552   */\n      mload\n        /* \"#utility.yul\":4530:4552   */\n      swap1\n      pop\n        /* \"#utility.yul\":4460:4559   */\n      swap2\n      swap1\n      pop\n      jump\t// out\n        /* \"#utility.yul\":4565:4734   */\n    tag_53:\n        /* \"#utility.yul\":4649:4660   */\n      0x00\n        /* \"#utility.yul\":4683:4689   */\n      dup3\n        /* \"#utility.yul\":4678:4681   */\n      dup3\n        /* \"#utility.yul\":4671:4690   */\n      mstore\n        /* \"#utility.yul\":4723:4727   */\n      0x20\n        /* \"#utility.yul\":4718:4721   */\n      dup3\n        /* \"#utility.yul\":4714:4728   */\n      add\n        /* \"#utility.yul\":4699:4728   */\n      swap1\n      pop\n        /* \"#utility.yul\":4565:4734   */\n      swap3\n      swap2\n      pop\n      pop\n      jump\t// out\n        /* \"#utility.yul\":4740:4879   */\n    tag_54:\n        /* \"#utility.yul\":4829:4835   */\n      dup3\n        /* \"#utility.yul\":4824:4827   */\n      dup2\n        /* \"#utility.yul\":4819:4822   */\n      dup4\n        /* \"#utility.yul\":4813:4836   */\n      mcopy\n        /* \"#utility.yul\":4870:4871   */\n      0x00\n        /* \"#utility.yul\":4861:4867   */\n      dup4\n        /* \"#utility.yul\":4856:4859   */\n      dup4\n        /* \"#utility.yul\":4852:4868   */\n      add\n        /* \"#utility.yul\":4845:4872   */\n      mstore\n        /* \"#utility.yul\":4740:4879   */\n      pop\n      pop\n      pop\n      jump\t// out\n        /* \"#utility.yul\":4885:5262   */\n    tag_55:\n        /* \"#utility.yul\":4973:4976   */\n      0x00\n        /* \"#utility.yul\":5001:5040   */\n      tag_129\n        /* \"#utility.yul\":5034:5039   */\n      dup3\n        /* \"#utility.yul\":5001:5040   */\n      tag_52\n      jump\t// in\n    tag_129:\n        /* \"#utility.yul\":5056:5127   */\n      tag_130\n        /* \"#utility.yul\":5120:5126   */\n      dup2\n        /* \"#utility.yul\":5115:5118   */\n      dup6\n        /* \"#utility.yul\":5056:5127   */\n      tag_53\n      jump\t// in\n    tag_130:\n        /* \"#utility.yul\":5049:5127   */\n      swap4\n      pop\n        /* \"#utility.yul\":5136:5201   */\n      tag_131\n        /* \"#utility.yul\":5194:5200   */\n      dup2\n        /* \"#utility.yul\":5189:5192   */\n      dup6\n        /* \"#utility.yul\":5182:5186   */\n      0x20\n        /* \"#utility.yul\":5175:5180   */\n      dup7\n        /* \"#utility.yul\":5171:5187   */\n      add\n        /* \"#utility.yul\":5136:5201   */\n      tag_54\n      jump\t// in\n    tag_131:\n        /* \"#utility.yul\":5226:5255   */\n      tag_132\n        /* \"#utility.yul\":5248:5254   */\n      dup2\n        /* \"#utility.yul\":5226:5255   */\n      tag_38\n      jump\t// in\n    tag_132:\n        /* \"#utility.yul\":5221:5224   */\n      dup5\n        /* \"#utility.yul\":5217:5256   */\n      add\n        /* \"#utility.yul\":5210:5256   */\n      swap2\n      pop\n        /* \"#utility.yul\":4977:5262   */\n      pop\n        /* \"#utility.yul\":4885:5262   */\n      swap3\n      swap2\n      pop\n      pop\n      jump\t// out\n        /* \"#utility.yul\":5268:5581   */\n    tag_23:\n        /* \"#utility.yul\":5381:5385   */\n      0x00\n        /* \"#utility.yul\":5419:5421   */\n      0x20\n        /* \"#utility.yul\":5408:5417   */\n      dup3\n        /* \"#utility.yul\":5404:5422   */\n      add\n        /* \"#utility.yul\":5396:5422   */\n      swap1\n      pop\n        /* \"#utility.yul\":5468:5477   */\n      dup2\n        /* \"#utility.yul\":5462:5466   */\n      dup2\n        /* \"#utility.yul\":5458:5478   */\n      sub\n        /* \"#utility.yul\":5454:5455   */\n      0x00\n        /* \"#utility.yul\":5443:5452   */\n      dup4\n        /* \"#utility.yul\":5439:5456   */\n      add\n        /* \"#utility.yul\":5432:5479   */\n      mstore\n        /* \"#utility.yul\":5496:5574   */\n      tag_134\n        /* \"#utility.yul\":5569:5573   */\n      dup2\n        /* \"#utility.yul\":5560:5566   */\n      dup5\n        /* \"#utility.yul\":5496:5574   */\n      tag_55\n      jump\t// in\n    tag_134:\n        /* \"#utility.yul\":5488:5574   */\n      swap1\n      pop\n        /* \"#utility.yul\":5268:5581   */\n      swap3\n      swap2\n      pop\n      pop\n      jump\t// out\n        /* \"#utility.yul\":5587:5767   */\n    tag_56:\n        /* \"#utility.yul\":5635:5712   */\n      0x4e487b7100000000000000000000000000000000000000000000000000000000\n        /* \"#utility.yul\":5632:5633   */\n      0x00\n        /* \"#utility.yul\":5625:5713   */\n      mstore\n        /* \"#utility.yul\":5732:5736   */\n      0x22\n        /* \"#utility.yul\":5729:5730   */\n      0x04\n        /* \"#utility.yul\":5722:5737   */\n      mstore\n        /* \"#utility.yul\":5756:5760   */\n      0x24\n        /* \"#utility.yul\":5753:5754   */\n      0x00\n        /* \"#utility.yul\":5746:5761   */\n      revert\n        /* \"#utility.yul\":5773:6093   */\n    tag_28:\n        /* \"#utility.yul\":5817:5823   */\n      0x00\n        /* \"#utility.yul\":5854:5855   */\n      0x02\n        /* \"#utility.yul\":5848:5852   */\n      dup3\n        /* \"#utility.yul\":5844:5856   */\n      div\n        /* \"#utility.yul\":5834:5856   */\n      swap1\n      pop\n        /* \"#utility.yul\":5901:5902   */\n      0x01\n        /* \"#utility.yul\":5895:5899   */\n      dup3\n        /* \"#utility.yul\":5891:5903   */\n      and\n        /* \"#utility.yul\":5922:5940   */\n      dup1\n        /* \"#utility.yul\":5912:5993   */\n      tag_137\n      jumpi\n        /* \"#utility.yul\":5978:5982   */\n      0x7f\n        /* \"#utility.yul\":5970:5976   */\n      dup3\n        /* \"#utility.yul\":5966:5983   */\n      and\n        /* \"#utility.yul\":5956:5983   */\n      swap2\n      pop\n        /* \"#utility.yul\":5912:5993   */\n    tag_137:\n        /* \"#utility.yul\":6040:6042   */\n      0x20\n        /* \"#utility.yul\":6032:6038   */\n      dup3\n        /* \"#utility.yul\":6029:6043   */\n      lt\n        /* \"#utility.yul\":6009:6027   */\n      dup2\n        /* \"#utility.yul\":6006:6044   */\n      sub\n        /* \"#utility.yul\":6003:6087   */\n      tag_138\n      jumpi\n        /* \"#utility.yul\":6059:6077   */\n      tag_139\n      tag_56\n      jump\t// in\n    tag_139:\n        /* \"#utility.yul\":6003:6087   */\n    tag_138:\n        /* \"#utility.yul\":5824:6093   */\n      pop\n        /* \"#utility.yul\":5773:6093   */\n      swap2\n      swap1\n      pop\n      jump\t// out\n        /* \"#utility.yul\":6099:6240   */\n    tag_57:\n        /* \"#utility.yul\":6148:6152   */\n      0x00\n        /* \"#utility.yul\":6171:6174   */\n      dup2\n        /* \"#utility.yul\":6163:6174   */\n      swap1\n      pop\n        /* \"#utility.yul\":6194:6197   */\n      dup2\n        /* \"#utility.yul\":6191:6192   */\n      0x00\n        /* \"#utility.yul\":6184:6198   */\n      mstore\n        /* \"#utility.yul\":6228:6232   */\n      0x20\n        /* \"#utility.yul\":6225:6226   */\n      0x00\n        /* \"#utility.yul\":6215:6233   */\n      keccak256\n        /* \"#utility.yul\":6207:6233   */\n      swap1\n      pop\n        /* \"#utility.yul\":6099:6240   */\n      swap2\n      swap1\n      pop\n      jump\t// out\n        /* \"#utility.yul\":6246:6339   */\n    tag_58:\n        /* \"#utility.yul\":6283:6289   */\n      0x00\n        /* \"#utility.yul\":6330:6332   */\n      0x20\n        /* \"#utility.yul\":6325:6327   */\n      0x1f\n        /* \"#utility.yul\":6318:6323   */\n      dup4\n        /* \"#utility.yul\":6314:6328   */\n      add\n        /* \"#utility.yul\":6310:6333   */\n      div\n        /* \"#utility.yul\":6300:6333   */\n      swap1\n      pop\n        /* \"#utility.yul\":6246:6339   */\n      swap2\n      swap1\n      pop\n      jump\t// out\n        /* \"#utility.yul\":6345:6452   */\n    tag_59:\n        /* \"#utility.yul\":6389:6397   */\n      0x00\n        /* \"#utility.yul\":6439:6444   */\n      dup3\n        /* \"#utility.yul\":6433:6437   */\n      dup3\n        /* \"#utility.yul\":6429:6445   */\n      shl\n        /* \"#utility.yul\":6408:6445   */\n      swap1\n      pop\n        /* \"#utility.yul\":6345:6452   */\n      swap3\n      swap2\n      pop\n      pop\n      jump\t// out\n        /* \"#utility.yul\":6458:6851   */\n    tag_60:\n        /* \"#utility.yul\":6527:6533   */\n      0x00\n        /* \"#utility.yul\":6577:6578   */\n      0x08\n        /* \"#utility.yul\":6565:6575   */\n      dup4\n        /* \"#utility.yul\":6561:6579   */\n      mul\n        /* \"#utility.yul\":6600:6697   */\n      tag_144\n        /* \"#utility.yul\":6630:6696   */\n      0xffffffffffffffffffffffffffffffffffffffffffffffffffffffffffffffff\n        /* \"#utility.yul\":6619:6628   */\n      dup3\n        /* \"#utility.yul\":6600:6697   */\n      tag_59\n      jump\t// in\n    tag_144:\n        /* \"#utility.yul\":6718:6757   */\n      tag_145\n        /* \"#utility.yul\":6748:6756   */\n      dup7\n        /* \"#utility.yul\":6737:6746   */\n      dup4\n        /* \"#utility.yul\":6718:6757   */\n      tag_59\n      jump\t// in\n    tag_145:\n        /* \"#utility.yul\":6706:6757   */\n      swap6\n      pop\n        /* \"#utility.yul\":6790:6794   */\n      dup1\n        /* \"#utility.yul\":6786:6795   */\n      not\n        /* \"#utility.yul\":6779:6784   */\n      dup5\n        /* \"#utility.yul\":6775:6796   */\n      and\n        /* \"#utility.yul\":6766:6796   */\n      swap4\n      pop\n        /* \"#utility.yul\":6839:6843   */\n      dup1\n        /* \"#utility.yul\":6829:6837   */\n      dup7\n        /* \"#utility.yul\":6825:6844   */\n      and\n        /* \"#utility.yul\":6818:6823   */\n      dup5\n        /* \"#utility.yul\":6815:6845   */\n      or\n        /* \"#utility.yul\":6805:6845   */\n      swap3\n      pop\n        /* \"#utility.yul\":6534:6851   */\n      pop\n      pop\n        /* \"#utility.yul\":6458:6851   */\n      swap4\n      swap3\n      pop\n      pop\n      pop\n      jump\t// out\n        /* \"#utility.yul\":6857:6917   */\n    tag_61:\n        /* \"#utility.yul\":6885:6888   */\n      0x00\n        /* \"#utility.yul\":6906:6911   */\n      dup2\n        /* \"#utility.yul\":6899:6911   */\n      swap1\n      pop\n        /* \"#utility.yul\":6857:6917   */\n      swap2\n      swap1\n      pop\n      jump\t// out\n        /* \"#utility.yul\":6923:7065   */\n    tag_62:\n        /* \"#utility.yul\":6973:6982   */\n      0x00\n        /* \"#utility.yul\":7006:7059   */\n      tag_148\n        /* \"#utility.yul\":7024:7058   */\n      tag_149\n        /* \"#utility.yul\":7033:7057   */\n      tag_150\n        /* \"#utility.yul\":7051:7056   */\n      dup5\n        /* \"#utility.yul\":7033:7057   */\n      tag_46\n      jump\t// in\n    tag_150:\n        /* \"#utility.yul\":7024:7058   */\n      tag_61\n      jump\t// in\n    tag_149:\n        /* \"#utility.yul\":7006:7059   */\n      tag_46\n      jump\t// in\n    tag_148:\n        /* \"#utility.yul\":6993:7059   */\n      swap1\n      pop\n        /* \"#utility.yul\":6923:7065   */\n      swap2\n      swap1\n      pop\n      jump\t// out\n        /* \"#utility.yul\":7071:7146   */\n    tag_63:\n        /* \"#utility.yul\":7114:7117   */\n      0x00\n        /* \"#utility.yul\":7135:7140   */\n      dup2\n        /* \"#utility.yul\":7128:7140   */\n      swap1\n      pop\n        /* \"#utility.yul\":7071:7146   */\n      swap2\n      swap1\n      pop\n      jump\t// out\n        /* \"#utility.yul\":7152:7421   */\n    tag_64:\n        /* \"#utility.yul\":7262:7301   */\n      tag_153\n        /* \"#utility.yul\":7293:7300   */\n      dup4\n        /* \"#utility.yul\":7262:7301   */\n      tag_62\n      jump\t// in\n    tag_153:\n        /* \"#utility.yul\":7323:7414   */\n      tag_154\n        /* \"#utility.yul\":7372:7413   */\n      tag_155\n        /* \"#utility.yul\":7396:7412   */\n      dup3\n        /* \"#utility.yul\":7372:7413   */\n      tag_63\n      jump\t// in\n    tag_155:\n        /* \"#utility.yul\":7364:7370   */\n      dup5\n        /* \"#utility.yul\":7357:7361   */\n      dup5\n        /* \"#utility.yul\":7351:7362   */\n      sload\n        /* \"#utility.yul\":7323:7414   */\n      tag_60\n      jump\t// in\n    tag_154:\n        /* \"#utility.yul\":7317:7321   */\n      dup3\n        /* \"#utility.yul\":7310:7415   */\n      sstore\n        /* \"#utility.yul\":7228:7421   */\n      pop\n        /* \"#utility.yul\":7152:7421   */\n      pop\n      pop\n      pop\n      jump\t// out\n        /* \"#utility.yul\":7427:7500   */\n    tag_65:\n        /* \"#utility.yul\":7472:7475   */\n      0x00\n        /* \"#utility.yul\":7493:7494   */\n      0x00\n        /* \"#utility.yul\":7486:7494   */\n      swap1\n      pop\n        /* \"#utility.yul\":7427:7500   */\n      swap1\n      jump\t// out\n        /* \"#utility.yul\":7506:7695   */\n    tag_66:\n        /* \"#utility.yul\":7583:7615   */\n      tag_158\n      tag_65\n      jump\t// in\n    tag_158:\n        /* \"#utility.yul\":7624:7689   */\n      tag_159\n        /* \"#utility.yul\":7682:7688   */\n      dup2\n        /* \"#utility.yul\":7674:7680   */\n      dup5\n        /* \"#utility.yul\":7668:7672   */\n      dup5\n        /* \"#utility.yul\":7624:7689   */\n      tag_64\n      jump\t// in\n    tag_159:\n        /* \"#utility.yul\":7559:7695   */\n      pop\n        /* \"#utility.yul\":7506:7695   */\n      pop\n      pop\n      jump\t// out\n        /* \"#utility.yul\":7701:7915   */\n    tag_67:\n        /* \"#utility.yul\":7786:7787   */\n      0x00\n        /* \"#utility.yul\":7771:7909   */\n    tag_161:\n        /* \"#utility.yul\":7796:7805   */\n      dup3\n        /* \"#utility.yul\":7793:7794   */\n      dup2\n        /* \"#utility.yul\":7790:7806   */\n      lt\n        /* \"#utility.yul\":7771:7909   */\n      iszero\n      tag_163\n      jumpi\n        /* \"#utility.yul\":7848:7899   */\n      tag_164\n        /* \"#utility.yul\":7897:7898   */\n      0x00\n        /* \"#utility.yul\":7893:7894   */\n      dup3\n        /* \"#utility.yul\":7882:7891   */\n      dup5\n        /* \"#utility.yul\":7878:7895   */\n      add\n        /* \"#utility.yul\":7848:7899   */\n      tag_66\n      jump\t// in\n    tag_164:\n        /* \"#utility.yul\":7821:7822   */\n      0x01\n        /* \"#utility.yul\":7818:7819   */\n      dup2\n        /* \"#utility.yul\":7814:7823   */\n      add\n        /* \"#utility.yul\":7809:7823   */\n      swap1\n      pop\n        /* \"#utility.yul\":7771:7909   */\n      jump(tag_161)\n    tag_163:\n        /* \"#utility.yul\":7775:7789   */\n      pop\n        /* \"#utility.yul\":7701:7915   */\n      pop\n      pop\n      jump\t// out\n        /* \"#utility.yul\":7921:8667   */\n    tag_68:\n        /* \"#utility.yul\":8022:8024   */\n      0x1f\n        /* \"#utility.yul\":8017:8020   */\n      dup3\n        /* \"#utility.yul\":8014:8025   */\n      gt\n        /* \"#utility.yul\":8011:8660   */\n      iszero\n      tag_166\n      jumpi\n        /* \"#utility.yul\":8051:8061   */\n      dup3\n        /* \"#utility.yul\":8046:8049   */\n      dup3\n        /* \"#utility.yul\":8043:8062   */\n      gt\n        /* \"#utility.yul\":8040:8650   */\n      iszero\n      tag_167\n      jumpi\n        /* \"#utility.yul\":8097:8135   */\n      tag_168\n        /* \"#utility.yul\":8129:8134   */\n      dup2\n        /* \"#utility.yul\":8097:8135   */\n      tag_57\n      jump\t// in\n    tag_168:\n        /* \"#utility.yul\":8172:8194   */\n      tag_169\n        /* \"#utility.yul\":8190:8193   */\n      dup4\n        /* \"#utility.yul\":8172:8194   */\n      tag_58\n      jump\t// in\n    tag_169:\n        /* \"#utility.yul\":8231:8260   */\n      tag_170\n        /* \"#utility.yul\":8249:8259   */\n      dup6\n        /* \"#utility.yul\":8231:8260   */\n      tag_58\n      jump\t// in\n    tag_170:\n        /* \"#utility.yul\":8421:8423   */\n      0x20\n        /* \"#utility.yul\":8409:8419   */\n      dup7\n        /* \"#utility.yul\":8406:8424   */\n      lt\n        /* \"#utility.yul\":8403:8482   */\n      iszero\n      tag_171\n      jumpi\n        /* \"#utility.yul\":8463:8464   */\n      0x00\n        /* \"#utility.yul\":8447:8464   */\n      swap1\n      pop\n        /* \"#utility.yul\":8403:8482   */\n    tag_171:\n        /* \"#utility.yul\":8532:8544   */\n      dup1\n        /* \"#utility.yul\":8522:8530   */\n      dup4\n        /* \"#utility.yul\":8518:8545   */\n      add\n        /* \"#utility.yul\":8562:8636   */\n      tag_172\n        /* \"#utility.yul\":8622:8634   */\n      dup3\n        /* \"#utility.yul\":8608:8620   */\n      dup5\n        /* \"#utility.yul\":8604:8635   */\n      sub\n        /* \"#utility.yul\":8591:8602   */\n      dup3\n        /* \"#utility.yul\":8562:8636   */\n      tag_67\n      jump\t// in\n    tag_172:\n        /* \"#utility.yul\":8063:8650   */\n      pop\n      pop\n      pop\n      pop\n        /* \"#utility.yul\":8040:8650   */\n    tag_167:\n        /* \"#utility.yul\":8011:8660   */\n    tag_166:\n        /* \"#utility.yul\":7921:8667   */\n      pop\n      pop\n      pop\n      jump\t// out\n        /* \"#utility.yul\":8673:8790   */\n    tag_69:\n        /* \"#utility.yul\":8727:8735   */\n      0x00\n        /* \"#utility.yul\":8777:8782   */\n      dup3\n        /* \"#utility.yul\":8771:8775   */\n      dup3\n        /* \"#utility.yul\":8767:8783   */\n      shr\n        /* \"#utility.yul\":8746:8783   */\n      swap1\n      pop\n        /* \"#utility.yul\":8673:8790   */\n      swap3\n      swap2\n      pop\n      pop\n      jump\t// out\n        /* \"#utility.yul\":8796:8965   */\n    tag_70:\n        /* \"#utility.yul\":8840:8846   */\n      0x00\n        /* \"#utility.yul\":8873:8924   */\n      tag_175\n        /* \"#utility.yul\":8921:8922   */\n      0x00\n        /* \"#utility.yul\":8917:8923   */\n      not\n        /* \"#utility.yul\":8909:8914   */\n      dup5\n        /* \"#utility.yul\":8906:8907   */\n      0x08\n        /* \"#utility.yul\":8902:8915   */\n      mul\n        /* \"#utility.yul\":8873:8924   */\n      tag_69\n      jump\t// in\n    tag_175:\n        /* \"#utility.yul\":8869:8925   */\n      not\n        /* \"#utility.yul\":8954:8958   */\n      dup1\n        /* \"#utility.yul\":8948:8952   */\n      dup4\n        /* \"#utility.yul\":8944:8959   */\n      and\n        /* \"#utility.yul\":8934:8959   */\n      swap2\n      pop\n        /* \"#utility.yul\":8847:8965   */\n      pop\n        /* \"#utility.yul\":8796:8965   */\n      swap3\n      swap2\n      pop\n      pop\n      jump\t// out\n        /* \"#utility.yul\":8970:9265   */\n    tag_71:\n        /* \"#utility.yul\":9046:9050   */\n      0x00\n        /* \"#utility.yul\":9192:9221   */\n      tag_177\n        /* \"#utility.yul\":9217:9220   */\n      dup4\n        /* \"#utility.yul\":9211:9215   */\n      dup4\n        /* \"#utility.yul\":9192:9221   */\n      tag_70\n      jump\t// in\n    tag_177:\n        /* \"#utility.yul\":9184:9221   */\n      swap2\n      pop\n        /* \"#utility.yul\":9254:9257   */\n      dup3\n        /* \"#utility.yul\":9251:9252   */\n      0x02\n        /* \"#utility.yul\":9247:9258   */\n      mul\n        /* \"#utility.yul\":9241:9245   */\n      dup3\n        /* \"#utility.yul\":9238:9259   */\n      or\n        /* \"#utility.yul\":9230:9259   */\n      swap1\n      pop\n        /* \"#utility.yul\":8970:9265   */\n      swap3\n      swap2\n      pop\n      pop\n      jump\t// out\n        /* \"#utility.yul\":9270:10665   */\n    tag_26:\n        /* \"#utility.yul\":9387:9424   */\n      tag_179\n        /* \"#utility.yul\":9420:9423   */\n      dup3\n        /* \"#utility.yul\":9387:9424   */\n      tag_52\n      jump\t// in\n    tag_179:\n        /* \"#utility.yul\":9489:9507   */\n      0xffffffffffffffff\n        /* \"#utility.yul\":9481:9487   */\n      dup2\n        /* \"#utility.yul\":9478:9508   */\n      gt\n        /* \"#utility.yul\":9475:9531   */\n      iszero\n      tag_180\n      jumpi\n        /* \"#utility.yul\":9511:9529   */\n      tag_181\n      tag_39\n      jump\t// in\n    tag_181:\n        /* \"#utility.yul\":9475:9531   */\n    tag_180:\n        /* \"#utility.yul\":9555:9593   */\n      tag_182\n        /* \"#utility.yul\":9587:9591   */\n      dup3\n        /* \"#utility.yul\":9581:9592   */\n      sload\n        /* \"#utility.yul\":9555:9593   */\n      tag_28\n      jump\t// in\n    tag_182:\n        /* \"#utility.yul\":9640:9707   */\n      tag_183\n        /* \"#utility.yul\":9700:9706   */\n      dup3\n        /* \"#utility.yul\":9692:9698   */\n      dup3\n        /* \"#utility.yul\":9686:9690   */\n      dup6\n        /* \"#utility.yul\":9640:9707   */\n      tag_68\n      jump\t// in\n    tag_183:\n        /* \"#utility.yul\":9734:9735   */\n      0x00\n        /* \"#utility.yul\":9758:9762   */\n      0x20\n        /* \"#utility.yul\":9745:9762   */\n      swap1\n      pop\n        /* \"#utility.yul\":9790:9792   */\n      0x1f\n        /* \"#utility.yul\":9782:9788   */\n      dup4\n        /* \"#utility.yul\":9779:9793   */\n      gt\n        /* \"#utility.yul\":9807:9808   */\n      0x01\n        /* \"#utility.yul\":9802:10420   */\n      dup2\n      eq\n      tag_185\n      jumpi\n        /* \"#utility.yul\":10464:10465   */\n      0x00\n        /* \"#utility.yul\":10481:10487   */\n      dup5\n        /* \"#utility.yul\":10478:10555   */\n      iszero\n      tag_186\n      jumpi\n        /* \"#utility.yul\":10530:10539   */\n      dup3\n        /* \"#utility.yul\":10525:10528   */\n      dup8\n        /* \"#utility.yul\":10521:10540   */\n      add\n        /* \"#utility.yul\":10515:10541   */\n      mload\n        /* \"#utility.yul\":10506:10541   */\n      swap1\n      pop\n        /* \"#utility.yul\":10478:10555   */\n    tag_186:\n        /* \"#utility.yul\":10581:10648   */\n      tag_187\n        /* \"#utility.yul\":10641:10647   */\n      dup6\n        /* \"#utility.yul\":10634:10639   */\n      dup3\n        /* \"#utility.yul\":10581:10648   */\n      tag_71\n      jump\t// in\n    tag_187:\n        /* \"#utility.yul\":10575:10579   */\n      dup7\n        /* \"#utility.yul\":10568:10649   */\n      sstore\n        /* \"#utility.yul\":10437:10659   */\n      pop\n        /* \"#utility.yul\":9772:10659   */\n      jump(tag_184)\n        /* \"#utility.yul\":9802:10420   */\n    tag_185:\n        /* \"#utility.yul\":9854:9858   */\n      0x1f\n        /* \"#utility.yul\":9850:9859   */\n      not\n        /* \"#utility.yul\":9842:9848   */\n      dup5\n        /* \"#utility.yul\":9838:9860   */\n      and\n        /* \"#utility.yul\":9888:9925   */\n      tag_188\n        /* \"#utility.yul\":9920:9924   */\n      dup7\n        /* \"#utility.yul\":9888:9925   */\n      tag_57\n      jump\t// in\n    tag_188:\n        /* \"#utility.yul\":9947:9948   */\n      0x00\n        /* \"#utility.yul\":9961:10169   */\n    tag_189:\n        /* \"#utility.yul\":9975:9982   */\n      dup3\n        /* \"#utility.yul\":9972:9973   */\n      dup2\n        /* \"#utility.yul\":9969:9983   */\n      lt\n        /* \"#utility.yul\":9961:10169   */\n      iszero\n      tag_191\n      jumpi\n        /* \"#utility.yul\":10054:10063   */\n      dup5\n        /* \"#utility.yul\":10049:10052   */\n      dup10\n        /* \"#utility.yul\":10045:10064   */\n      add\n        /* \"#utility.yul\":10039:10065   */\n      mload\n        /* \"#utility.yul\":10031:10037   */\n      dup3\n        /* \"#utility.yul\":10024:10066   */\n      sstore\n        /* \"#utility.yul\":10105:10106   */\n      0x01\n        /* \"#utility.yul\":10097:10103   */\n      dup3\n        /* \"#utility.yul\":10093:10107   */\n      add\n        /* \"#utility.yul\":10083:10107   */\n      swap2\n      pop\n        /* \"#utility.yul\":10152:10154   */\n      0x20\n        /* \"#utility.yul\":10141:10150   */\n      dup6\n        /* \"#utility.yul\":10137:10155   */\n      add\n        /* \"#utility.yul\":10124:10155   */\n      swap5\n      pop\n        /* \"#utility.yul\":9998:10002   */\n      0x20\n        /* \"#utility.yul\":9995:9996   */\n      dup2\n        /* \"#utility.yul\":9991:10003   */\n      add\n        /* \"#utility.yul\":9986:10003   */\n      swap1\n      pop\n        /* \"#utility.yul\":9961:10169   */\n      jump(tag_189)\n    tag_191:\n        /* \"#utility.yul\":10197:10203   */\n      dup7\n        /* \"#utility.yul\":10188:10195   */\n      dup4\n        /* \"#utility.yul\":10185:10204   */\n      lt\n        /* \"#utility.yul\":10182:10361   */\n      iszero\n      tag_192\n      jumpi\n        /* \"#utility.yul\":10255:10264   */\n      dup5\n        /* \"#utility.yul\":10250:10253   */\n      dup10\n        /* \"#utility.yul\":10246:10265   */\n      add\n        /* \"#utility.yul\":10240:10266   */\n      mload\n        /* \"#utility.yul\":10298:10346   */\n      tag_193\n        /* \"#utility.yul\":10340:10344   */\n      0x1f\n        /* \"#utility.yul\":10332:10338   */\n      dup10\n        /* \"#utility.yul\":10328:10345   */\n      and\n        /* \"#utility.yul\":10317:10326   */\n      dup3\n        /* \"#utility.yul\":10298:10346   */\n      tag_70\n      jump\t// in\n    tag_193:\n        /* \"#utility.yul\":10290:10296   */\n      dup4\n        /* \"#utility.yul\":10283:10347   */\n      sstore\n        /* \"#utility.yul\":10205:10361   */\n      pop\n        /* \"#utility.yul\":10182:10361   */\n    tag_192:\n        /* \"#utility.yul\":10407:10408   */\n      0x01\n        /* \"#utility.yul\":10403:10404   */\n      0x02\n        /* \"#utility.yul\":10395:10401   */\n      dup9\n        /* \"#utility.yul\":10391:10405   */\n      mul\n        /* \"#utility.yul\":10387:10409   */\n      add\n        /* \"#utility.yul\":10381:10385   */\n      dup9\n        /* \"#utility.yul\":10374:10410   */\n      sstore\n        /* \"#utility.yul\":9809:10420   */\n      pop\n      pop\n      pop\n        /* \"#utility.yul\":9772:10659   */\n    tag_184:\n      pop\n        /* \"#utility.yul\":9362:10665   */\n      pop\n      pop\n      pop\n        /* \"#utility.yul\":9270:10665   */\n      pop\n      pop\n      jump\t// out\n\n    auxdata: 0xa26469706673582212200bd97554a648702d73fe72d43cd5bad03aee31c2201ba4e31f521642789267e564736f6c63430008220033\n}\n",
				"bytecode": {
					"linkReferences": {},
					"object": "6080604052348015600e575f5ffd5b506107568061001c5f395ff3fe608060405260043610610037575f3560e01c806324ccab8f146100425780638381f58a14610073578063e21f37ce1461009d5761003e565b3661003e57005b5f5ffd5b61005c60048036038101906100579190610300565b6100c7565b60405161006a929190610383565b60405180910390f35b34801561007e575f5ffd5b506100876100ef565b60405161009491906103aa565b60405180910390f35b3480156100a8575f5ffd5b506100b16100f5565b6040516100be9190610423565b60405180910390f35b5f5f835f90816100d79190610651565b50826001819055506001610378915091509250929050565b60015481565b5f805461010190610470565b80601f016020809104026020016040519081016040528092919081815260200182805461012d90610470565b80156101785780601f1061014f57610100808354040283529160200191610178565b820191905f5260205f20905b81548152906001019060200180831161015b57829003601f168201915b505050505081565b5f604051905090565b5f5ffd5b5f5ffd5b5f5ffd5b5f5ffd5b5f601f19601f8301169050919050565b7f4e487b71000000000000000000000000000000000000000000000000000000005f52604160045260245ffd5b6101df82610199565b810181811067ffffffffffffffff821117156101fe576101fd6101a9565b5b80604052505050565b5f610210610180565b905061021c82826101d6565b919050565b5f67ffffffffffffffff82111561023b5761023a6101a9565b5b61024482610199565b9050602081019050919050565b828183375f83830152505050565b5f61027161026c84610221565b610207565b90508281526020810184848401111561028d5761028c610195565b5b610298848285610251565b509392505050565b5f82601f8301126102b4576102b3610191565b5b81356102c484826020860161025f565b91505092915050565b5f819050919050565b6102df816102cd565b81146102e9575f5ffd5b50565b5f813590506102fa816102d6565b92915050565b5f5f6040838503121561031657610315610189565b5b5f83013567ffffffffffffffff8111156103335761033261018d565b5b61033f858286016102a0565b9250506020610350858286016102ec565b9150509250929050565b5f8115159050919050565b61036e8161035a565b82525050565b61037d816102cd565b82525050565b5f6040820190506103965f830185610365565b6103a36020830184610374565b9392505050565b5f6020820190506103bd5f830184610374565b92915050565b5f81519050919050565b5f82825260208201905092915050565b8281835e5f83830152505050565b5f6103f5826103c3565b6103ff81856103cd565b935061040f8185602086016103dd565b61041881610199565b840191505092915050565b5f6020820190508181035f83015261043b81846103eb565b905092915050565b7f4e487b71000000000000000000000000000000000000000000000000000000005f52602260045260245ffd5b5f600282049050600182168061048757607f821691505b60208210810361049a57610499610443565b5b50919050565b5f819050815f5260205f209050919050565b5f6020601f8301049050919050565b5f82821b905092915050565b5f600883026104fc7fffffffffffffffffffffffffffffffffffffffffffffffffffffffffffffffff826104c1565b61050686836104c1565b95508019841693508086168417925050509392505050565b5f819050919050565b5f61054161053c610537846102cd565b61051e565b6102cd565b9050919050565b5f819050919050565b61055a83610527565b61056e61056682610548565b8484546104cd565b825550505050565b5f5f905090565b610585610576565b610590818484610551565b505050565b5f5b828110156105b6576105ab5f82840161057d565b600181019050610597565b505050565b601f8211156106095782821115610608576105d5816104a0565b6105de836104b2565b6105e7856104b2565b60208610156105f4575f90505b80830161060382840382610595565b505050505b5b505050565b5f82821c905092915050565b5f6106295f198460080261060e565b1980831691505092915050565b5f610641838361061a565b9150826002028217905092915050565b61065a826103c3565b67ffffffffffffffff811115610673576106726101a9565b5b61067d8254610470565b6106888282856105bb565b5f60209050601f8311600181146106b9575f84156106a7578287015190505b6106b18582610636565b865550610718565b601f1984166106c7866104a0565b5f5b828110156106ee578489015182556001820191506020850194506020810190506106c9565b8683101561070b5784890151610707601f89168261061a565b8355505b6001600288020188555050505b50505050505056fea26469706673582212200bd97554a648702d73fe72d43cd5bad03aee31c2201ba4e31f521642789267e564736f6c63430008220033",
					"opcodes": "PUSH1 0x80 PUSH1 0x40 MSTORE CALLVALUE DUP1 ISZERO PUSH1 0xE JUMPI PUSH0 PUSH0 REVERT JUMPDEST POP PUSH2 0x756 DUP1 PUSH2 0x1C PUSH0 CODECOPY PUSH0 RETURN INVALID PUSH1 0x80 PUSH1 0x40 MSTORE PUSH1 0x4 CALLDATASIZE LT PUSH2 0x37 JUMPI PUSH0 CALLDATALOAD PUSH1 0xE0 SHR DUP1 PUSH4 0x24CCAB8F EQ PUSH2 0x42 JUMPI DUP1 PUSH4 0x8381F58A EQ PUSH2 0x73 JUMPI DUP1 PUSH4 0xE21F37CE EQ PUSH2 0x9D JUMPI PUSH2 0x3E JUMP JUMPDEST CALLDATASIZE PUSH2 0x3E JUMPI STOP JUMPDEST PUSH0 PUSH0 REVERT JUMPDEST PUSH2 0x5C PUSH1 0x4 DUP1 CALLDATASIZE SUB DUP2 ADD SWAP1 PUSH2 0x57 SWAP2 SWAP1 PUSH2 0x300 JUMP JUMPDEST PUSH2 0xC7 JUMP JUMPDEST PUSH1 0x40 MLOAD PUSH2 0x6A SWAP3 SWAP2 SWAP1 PUSH2 0x383 JUMP JUMPDEST PUSH1 0x40 MLOAD DUP1 SWAP2 SUB SWAP1 RETURN JUMPDEST CALLVALUE DUP1 ISZERO PUSH2 0x7E JUMPI PUSH0 PUSH0 REVERT JUMPDEST POP PUSH2 0x87 PUSH2 0xEF JUMP JUMPDEST PUSH1 0x40 MLOAD PUSH2 0x94 SWAP2 SWAP1 PUSH2 0x3AA JUMP JUMPDEST PUSH1 0x40 MLOAD DUP1 SWAP2 SUB SWAP1 RETURN JUMPDEST CALLVALUE DUP1 ISZERO PUSH2 0xA8 JUMPI PUSH0 PUSH0 REVERT JUMPDEST POP PUSH2 0xB1 PUSH2 0xF5 JUMP JUMPDEST PUSH1 0x40 MLOAD PUSH2 0xBE SWAP2 SWAP1 PUSH2 0x423 JUMP JUMPDEST PUSH1 0x40 MLOAD DUP1 SWAP2 SUB SWAP1 RETURN JUMPDEST PUSH0 PUSH0 DUP4 PUSH0 SWAP1 DUP2 PUSH2 0xD7 SWAP2 SWAP1 PUSH2 0x651 JUMP JUMPDEST POP DUP3 PUSH1 0x1 DUP2 SWAP1 SSTORE POP PUSH1 0x1 PUSH2 0x378 SWAP2 POP SWAP2 POP SWAP3 POP SWAP3 SWAP1 POP JUMP JUMPDEST PUSH1 0x1 SLOAD DUP2 JUMP JUMPDEST PUSH0 DUP1 SLOAD PUSH2 0x101 SWAP1 PUSH2 0x470 JUMP JUMPDEST DUP1 PUSH1 0x1F ADD PUSH1 0x20 DUP1 SWAP2 DIV MUL PUSH1 0x20 ADD PUSH1 0x40 MLOAD SWAP1 DUP2 ADD PUSH1 0x40 MSTORE DUP1 SWAP3 SWAP2 SWAP1 DUP2 DUP2 MSTORE PUSH1 0x20 ADD DUP3 DUP1 SLOAD PUSH2 0x12D SWAP1 PUSH2 0x470 JUMP JUMPDEST DUP1 ISZERO PUSH2 0x178 JUMPI DUP1 PUSH1 0x1F LT PUSH2 0x14F JUMPI PUSH2 0x100 DUP1 DUP4 SLOAD DIV MUL DUP4 MSTORE SWAP2 PUSH1 0x20 ADD SWAP2 PUSH2 0x178 JUMP JUMPDEST DUP3 ADD SWAP2 SWAP1 PUSH0 MSTORE PUSH1 0x20 PUSH0 KECCAK256 SWAP1 JUMPDEST DUP2 SLOAD DUP2 MSTORE SWAP1 PUSH1 0x1 ADD SWAP1 PUSH1 0x20 ADD DUP1 DUP4 GT PUSH2 0x15B JUMPI DUP3 SWAP1 SUB PUSH1 0x1F AND DUP3 ADD SWAP2 JUMPDEST POP POP POP POP POP DUP2 JUMP JUMPDEST PUSH0 PUSH1 0x40 MLOAD SWAP1 POP SWAP1 JUMP JUMPDEST PUSH0 PUSH0 REVERT JUMPDEST PUSH0 PUSH0 REVERT JUMPDEST PUSH0 PUSH0 REVERT JUMPDEST PUSH0 PUSH0 REVERT JUMPDEST PUSH0 PUSH1 0x1F NOT PUSH1 0x1F DUP4 ADD AND SWAP1 POP SWAP2 SWAP1 POP JUMP JUMPDEST PUSH32 0x4E487B7100000000000000000000000000000000000000000000000000000000 PUSH0 MSTORE PUSH1 0x41 PUSH1 0x4 MSTORE PUSH1 0x24 PUSH0 REVERT JUMPDEST PUSH2 0x1DF DUP3 PUSH2 0x199 JUMP JUMPDEST DUP2 ADD DUP2 DUP2 LT PUSH8 0xFFFFFFFFFFFFFFFF DUP3 GT OR ISZERO PUSH2 0x1FE JUMPI PUSH2 0x1FD PUSH2 0x1A9 JUMP JUMPDEST JUMPDEST DUP1 PUSH1 0x40 MSTORE POP POP POP JUMP JUMPDEST PUSH0 PUSH2 0x210 PUSH2 0x180 JUMP JUMPDEST SWAP1 POP PUSH2 0x21C DUP3 DUP3 PUSH2 0x1D6 JUMP JUMPDEST SWAP2 SWAP1 POP JUMP JUMPDEST PUSH0 PUSH8 0xFFFFFFFFFFFFFFFF DUP3 GT ISZERO PUSH2 0x23B JUMPI PUSH2 0x23A PUSH2 0x1A9 JUMP JUMPDEST JUMPDEST PUSH2 0x244 DUP3 PUSH2 0x199 JUMP JUMPDEST SWAP1 POP PUSH1 0x20 DUP2 ADD SWAP1 POP SWAP2 SWAP1 POP JUMP JUMPDEST DUP3 DUP2 DUP4 CALLDATACOPY PUSH0 DUP4 DUP4 ADD MSTORE POP POP POP JUMP JUMPDEST PUSH0 PUSH2 0x271 PUSH2 0x26C DUP5 PUSH2 0x221 JUMP JUMPDEST PUSH2 0x207 JUMP JUMPDEST SWAP1 POP DUP3 DUP2 MSTORE PUSH1 0x20 DUP2 ADD DUP5 DUP5 DUP5 ADD GT ISZERO PUSH2 0x28D JUMPI PUSH2 0x28C PUSH2 0x195 JUMP JUMPDEST JUMPDEST PUSH2 0x298 DUP5 DUP3 DUP6 PUSH2 0x251 JUMP JUMPDEST POP SWAP4 SWAP3 POP POP POP JUMP JUMPDEST PUSH0 DUP3 PUSH1 0x1F DUP4 ADD SLT PUSH2 0x2B4 JUMPI PUSH2 0x2B3 PUSH2 0x191 JUMP JUMPDEST JUMPDEST DUP2 CALLDATALOAD PUSH2 0x2C4 DUP5 DUP3 PUSH1 0x20 DUP7 ADD PUSH2 0x25F JUMP JUMPDEST SWAP2 POP POP SWAP3 SWAP2 POP POP JUMP JUMPDEST PUSH0 DUP2 SWAP1 POP SWAP2 SWAP1 POP JUMP JUMPDEST PUSH2 0x2DF DUP2 PUSH2 0x2CD JUMP JUMPDEST DUP2 EQ PUSH2 0x2E9 JUMPI PUSH0 PUSH0 REVERT JUMPDEST POP JUMP JUMPDEST PUSH0 DUP2 CALLDATALOAD SWAP1 POP PUSH2 0x2FA DUP2 PUSH2 0x2D6 JUMP JUMPDEST SWAP3 SWAP2 POP POP JUMP JUMPDEST PUSH0 PUSH0 PUSH1 0x40 DUP4 DUP6 SUB SLT ISZERO PUSH2 0x316 JUMPI PUSH2 0x315 PUSH2 0x189 JUMP JUMPDEST JUMPDEST PUSH0 DUP4 ADD CALLDATALOAD PUSH8 0xFFFFFFFFFFFFFFFF DUP2 GT ISZERO PUSH2 0x333 JUMPI PUSH2 0x332 PUSH2 0x18D JUMP JUMPDEST JUMPDEST PUSH2 0x33F DUP6 DUP3 DUP7 ADD PUSH2 0x2A0 JUMP JUMPDEST SWAP3 POP POP PUSH1 0x20 PUSH2 0x350 DUP6 DUP3 DUP7 ADD PUSH2 0x2EC JUMP JUMPDEST SWAP2 POP POP SWAP3 POP SWAP3 SWAP1 POP JUMP JUMPDEST PUSH0 DUP2 ISZERO ISZERO SWAP1 POP SWAP2 SWAP1 POP JUMP JUMPDEST PUSH2 0x36E DUP2 PUSH2 0x35A JUMP JUMPDEST DUP3 MSTORE POP POP JUMP JUMPDEST PUSH2 0x37D DUP2 PUSH2 0x2CD JUMP JUMPDEST DUP3 MSTORE POP POP JUMP JUMPDEST PUSH0 PUSH1 0x40 DUP3 ADD SWAP1 POP PUSH2 0x396 PUSH0 DUP4 ADD DUP6 PUSH2 0x365 JUMP JUMPDEST PUSH2 0x3A3 PUSH1 0x20 DUP4 ADD DUP5 PUSH2 0x374 JUMP JUMPDEST SWAP4 SWAP3 POP POP POP JUMP JUMPDEST PUSH0 PUSH1 0x20 DUP3 ADD SWAP1 POP PUSH2 0x3BD PUSH0 DUP4 ADD DUP5 PUSH2 0x374 JUMP JUMPDEST SWAP3 SWAP2 POP POP JUMP JUMPDEST PUSH0 DUP2 MLOAD SWAP1 POP SWAP2 SWAP1 POP JUMP JUMPDEST PUSH0 DUP3 DUP3 MSTORE PUSH1 0x20 DUP3 ADD SWAP1 POP SWAP3 SWAP2 POP POP JUMP JUMPDEST DUP3 DUP2 DUP4 MCOPY PUSH0 DUP4 DUP4 ADD MSTORE POP POP POP JUMP JUMPDEST PUSH0 PUSH2 0x3F5 DUP3 PUSH2 0x3C3 JUMP JUMPDEST PUSH2 0x3FF DUP2 DUP6 PUSH2 0x3CD JUMP JUMPDEST SWAP4 POP PUSH2 0x40F DUP2 DUP6 PUSH1 0x20 DUP7 ADD PUSH2 0x3DD JUMP JUMPDEST PUSH2 0x418 DUP2 PUSH2 0x199 JUMP JUMPDEST DUP5 ADD SWAP2 POP POP SWAP3 SWAP2 POP POP JUMP JUMPDEST PUSH0 PUSH1 0x20 DUP3 ADD SWAP1 POP DUP2 DUP2 SUB PUSH0 DUP4 ADD MSTORE PUSH2 0x43B DUP2 DUP5 PUSH2 0x3EB JUMP JUMPDEST SWAP1 POP SWAP3 SWAP2 POP POP JUMP JUMPDEST PUSH32 0x4E487B7100000000000000000000000000000000000000000000000000000000 PUSH0 MSTORE PUSH1 0x22 PUSH1 0x4 MSTORE PUSH1 0x24 PUSH0 REVERT JUMPDEST PUSH0 PUSH1 0x2 DUP3 DIV SWAP1 POP PUSH1 0x1 DUP3 AND DUP1 PUSH2 0x487 JUMPI PUSH1 0x7F DUP3 AND SWAP2 POP JUMPDEST PUSH1 0x20 DUP3 LT DUP2 SUB PUSH2 0x49A JUMPI PUSH2 0x499 PUSH2 0x443 JUMP JUMPDEST JUMPDEST POP SWAP2 SWAP1 POP JUMP JUMPDEST PUSH0 DUP2 SWAP1 POP DUP2 PUSH0 MSTORE PUSH1 0x20 PUSH0 KECCAK256 SWAP1 POP SWAP2 SWAP1 POP JUMP JUMPDEST PUSH0 PUSH1 0x20 PUSH1 0x1F DUP4 ADD DIV SWAP1 POP SWAP2 SWAP1 POP JUMP JUMPDEST PUSH0 DUP3 DUP3 SHL SWAP1 POP SWAP3 SWAP2 POP POP JUMP JUMPDEST PUSH0 PUSH1 0x8 DUP4 MUL PUSH2 0x4FC PUSH32 0xFFFFFFFFFFFFFFFFFFFFFFFFFFFFFFFFFFFFFFFFFFFFFFFFFFFFFFFFFFFFFFFF DUP3 PUSH2 0x4C1 JUMP JUMPDEST PUSH2 0x506 DUP7 DUP4 PUSH2 0x4C1 JUMP JUMPDEST SWAP6 POP DUP1 NOT DUP5 AND SWAP4 POP DUP1 DUP7 AND DUP5 OR SWAP3 POP POP POP SWAP4 SWAP3 POP POP POP JUMP JUMPDEST PUSH0 DUP2 SWAP1 POP SWAP2 SWAP1 POP JUMP JUMPDEST PUSH0 PUSH2 0x541 PUSH2 0x53C PUSH2 0x537 DUP5 PUSH2 0x2CD JUMP JUMPDEST PUSH2 0x51E JUMP JUMPDEST PUSH2 0x2CD JUMP JUMPDEST SWAP1 POP SWAP2 SWAP1 POP JUMP JUMPDEST PUSH0 DUP2 SWAP1 POP SWAP2 SWAP1 POP JUMP JUMPDEST PUSH2 0x55A DUP4 PUSH2 0x527 JUMP JUMPDEST PUSH2 0x56E PUSH2 0x566 DUP3 PUSH2 0x548 JUMP JUMPDEST DUP5 DUP5 SLOAD PUSH2 0x4CD JUMP JUMPDEST DUP3 SSTORE POP POP POP POP JUMP JUMPDEST PUSH0 PUSH0 SWAP1 POP SWAP1 JUMP JUMPDEST PUSH2 0x585 PUSH2 0x576 JUMP JUMPDEST PUSH2 0x590 DUP2 DUP5 DUP5 PUSH2 0x551 JUMP JUMPDEST POP POP POP JUMP JUMPDEST PUSH0 JUMPDEST DUP3 DUP2 LT ISZERO PUSH2 0x5B6 JUMPI PUSH2 0x5AB PUSH0 DUP3 DUP5 ADD PUSH2 0x57D JUMP JUMPDEST PUSH1 0x1 DUP2 ADD SWAP1 POP PUSH2 0x597 JUMP JUMPDEST POP POP POP JUMP JUMPDEST PUSH1 0x1F DUP3 GT ISZERO PUSH2 0x609 JUMPI DUP3 DUP3 GT ISZERO PUSH2 0x608 JUMPI PUSH2 0x5D5 DUP2 PUSH2 0x4A0 JUMP JUMPDEST PUSH2 0x5DE DUP4 PUSH2 0x4B2 JUMP JUMPDEST PUSH2 0x5E7 DUP6 PUSH2 0x4B2 JUMP JUMPDEST PUSH1 0x20 DUP7 LT ISZERO PUSH2 0x5F4 JUMPI PUSH0 SWAP1 POP JUMPDEST DUP1 DUP4 ADD PUSH2 0x603 DUP3 DUP5 SUB DUP3 PUSH2 0x595 JUMP JUMPDEST POP POP POP POP JUMPDEST JUMPDEST POP POP POP JUMP JUMPDEST PUSH0 DUP3 DUP3 SHR SWAP1 POP SWAP3 SWAP2 POP POP JUMP JUMPDEST PUSH0 PUSH2 0x629 PUSH0 NOT DUP5 PUSH1 0x8 MUL PUSH2 0x60E JUMP JUMPDEST NOT DUP1 DUP4 AND SWAP2 POP POP SWAP3 SWAP2 POP POP JUMP JUMPDEST PUSH0 PUSH2 0x641 DUP4 DUP4 PUSH2 0x61A JUMP JUMPDEST SWAP2 POP DUP3 PUSH1 0x2 MUL DUP3 OR SWAP1 POP SWAP3 SWAP2 POP POP JUMP JUMPDEST PUSH2 0x65A DUP3 PUSH2 0x3C3 JUMP JUMPDEST PUSH8 0xFFFFFFFFFFFFFFFF DUP2 GT ISZERO PUSH2 0x673 JUMPI PUSH2 0x672 PUSH2 0x1A9 JUMP JUMPDEST JUMPDEST PUSH2 0x67D DUP3 SLOAD PUSH2 0x470 JUMP JUMPDEST PUSH2 0x688 DUP3 DUP3 DUP6 PUSH2 0x5BB JUMP JUMPDEST PUSH0 PUSH1 0x20 SWAP1 POP PUSH1 0x1F DUP4 GT PUSH1 0x1 DUP2 EQ PUSH2 0x6B9 JUMPI PUSH0 DUP5 ISZERO PUSH2 0x6A7 JUMPI DUP3 DUP8 ADD MLOAD SWAP1 POP JUMPDEST PUSH2 0x6B1 DUP6 DUP3 PUSH2 0x636 JUMP JUMPDEST DUP7 SSTORE POP PUSH2 0x718 JUMP JUMPDEST PUSH1 0x1F NOT DUP5 AND PUSH2 0x6C7 DUP7 PUSH2 0x4A0 JUMP JUMPDEST PUSH0 JUMPDEST DUP3 DUP2 LT ISZERO PUSH2 0x6EE JUMPI DUP5 DUP10 ADD MLOAD DUP3 SSTORE PUSH1 0x1 DUP3 ADD SWAP2 POP PUSH1 0x20 DUP6 ADD SWAP5 POP PUSH1 0x20 DUP2 ADD SWAP1 POP PUSH2 0x6C9 JUMP JUMPDEST DUP7 DUP4 LT ISZERO PUSH2 0x70B JUMPI DUP5 DUP10 ADD MLOAD PUSH2 0x707 PUSH1 0x1F DUP10 AND DUP3 PUSH2 0x61A JUMP JUMPDEST DUP4 SSTORE POP JUMPDEST PUSH1 0x1 PUSH1 0x2 DUP9 MUL ADD DUP9 SSTORE POP POP POP JUMPDEST POP POP POP POP POP POP JUMP INVALID LOG2 PUSH5 0x6970667358 0x22 SLT KECCAK256 SIGNEXTEND 0xD9 PUSH22 0x54A648702D73FE72D43CD5BAD03AEE31C2201BA4E31F MSTORE AND TIMESTAMP PUSH25 0x9267E564736F6C634300082200330000000000000000000000 "
				},
				"gasEstimates": {
					"creation": {
						"codeDepositCost": "375600",
						"executionCost": "409",
						"totalCost": "376009"
					},
					"external": {
						"foo(string,uint256)": "infinite",
						"message()": "infinite",
						"number()": "2425"
					}
				},
				"methodIdentifiers": {
					"foo(string,uint256)": "24ccab8f",
					"message()": "e21f37ce",
					"number()": "8381f58a"
				}
			},
			"storageLayout": {
				"storage": [
					{
						"astId": 3,
						"contract": "solidity合约交互/合约调用-单次call.sol:TestContract",
						"label": "message",
						"offset": 0,
						"slot": "0",
						"type": "t_string_storage"
					},
					{
						"astId": 5,
						"contract": "solidity合约交互/合约调用-单次call.sol:TestContract",
						"label": "number",
						"offset": 0,
						"slot": "1",
						"type": "t_uint256"
					}
				],
				"types": {
					"t_string_storage": {
						"encoding": "bytes",
						"label": "string",
						"numberOfBytes": "32"
					},
					"t_uint256": {
						"encoding": "inplace",
						"label": "uint256",
						"numberOfBytes": "32"
					}
				}
			},
			"userdoc": {
				"kind": "user",
				"methods": {},
				"version": 1
			}
		}
	}
}