{
	"solidity高级应用/二分查找最高有效位.sol": {
		"MostSignificantBit": {
			"abi": [
				{
					"inputs": [
						{
							"internalType": "uint256",
							"name": "x",
							"type": "uint256"
						}
					],
					"name": "findMostSignificantBit",
					"outputs": [
						{
							"internalType": "uint8",
							"name": "r",
							"type": "uint8"
						}
					],
					"stateMutability": "pure",
					"type": "function"
				},
				{
					"inputs": [
						{
							"internalType": "uint256",
							"name": "x",
							"type": "uint256"
						}
					],
					"name": "findMostSignificantBitAssembly",
					"outputs": [
						{
							"internalType": "uint8",
							"name": "r",
							"type": "uint8"
						}
					],
					"stateMutability": "pure",
					"type": "function"
				}
			],
			"devdoc": {
				"kind": "dev",
				"methods": {},
				"version": 1
			},
			"evm": {
				"assembly": "    /* \"solidity\\xe9\\xab\\x98\\xe7\\xba\\xa7\\xe5\\xba\\x94\\xe7\\x94\\xa8/\\xe4\\xba\\x8c\\xe5\\x88\\x86\\xe6\\x9f\\xa5\\xe6\\x89\\xbe\\xe6\\x9c\\x80\\xe9\\xab\\x98\\xe6\\x9c\\x89\\xe6\\x95\\x88\\xe4\\xbd\\x8d.sol\":614:3176  contract MostSignificantBit {... */\n  mstore(0x40, 0x80)\n  callvalue\n  dup1\n  iszero\n  tag_1\n  jumpi\n  revert(0x00, 0x00)\ntag_1:\n  pop\n  dataSize(sub_0)\n  dup1\n  dataOffset(sub_0)\n  0x00\n  codecopy\n  0x00\n  return\nstop\n\nsub_0: assembly {\n        /* \"solidity\\xe9\\xab\\x98\\xe7\\xba\\xa7\\xe5\\xba\\x94\\xe7\\x94\\xa8/\\xe4\\xba\\x8c\\xe5\\x88\\x86\\xe6\\x9f\\xa5\\xe6\\x89\\xbe\\xe6\\x9c\\x80\\xe9\\xab\\x98\\xe6\\x9c\\x89\\xe6\\x95\\x88\\xe4\\xbd\\x8d.sol\":614:3176  contract MostSignificantBit {... */\n      mstore(0x40, 0x80)\n      callvalue\n      dup1\n      iszero\n      tag_1\n      jumpi\n      revert(0x00, 0x00)\n    tag_1:\n      pop\n      jumpi(tag_2, lt(calldatasize, 0x04))\n      shr(0xe0, calldataload(0x00))\n      dup1\n      0x483d868d\n      eq\n      tag_3\n      jumpi\n      dup1\n      0xebce4cc9\n      eq\n      tag_4\n      jumpi\n    tag_2:\n      revert(0x00, 0x00)\n        /* \"solidity\\xe9\\xab\\x98\\xe7\\xba\\xa7\\xe5\\xba\\x94\\xe7\\x94\\xa8/\\xe4\\xba\\x8c\\xe5\\x88\\x86\\xe6\\x9f\\xa5\\xe6\\x89\\xbe\\xe6\\x9c\\x80\\xe9\\xab\\x98\\xe6\\x9c\\x89\\xe6\\x95\\x88\\xe4\\xbd\\x8d.sol\":649:1411  function findMostSignificantBit(uint256 x) public pure returns (uint8 r) {... */\n    tag_3:\n      tag_5\n      0x04\n      dup1\n      calldatasize\n      sub\n      dup2\n      add\n      swap1\n      tag_6\n      swap2\n      swap1\n      tag_7\n      jump\t// in\n    tag_6:\n      tag_8\n      jump\t// in\n    tag_5:\n      mload(0x40)\n      tag_9\n      swap2\n      swap1\n      tag_10\n      jump\t// in\n    tag_9:\n      mload(0x40)\n      dup1\n      swap2\n      sub\n      swap1\n      return\n        /* \"solidity\\xe9\\xab\\x98\\xe7\\xba\\xa7\\xe5\\xba\\x94\\xe7\\x94\\xa8/\\xe4\\xba\\x8c\\xe5\\x88\\x86\\xe6\\x9f\\xa5\\xe6\\x89\\xbe\\xe6\\x9c\\x80\\xe9\\xab\\x98\\xe6\\x9c\\x89\\xe6\\x95\\x88\\xe4\\xbd\\x8d.sol\":1457:3173  function findMostSignificantBitAssembly(uint256 x) public pure returns (uint8 r) {... */\n    tag_4:\n      tag_11\n      0x04\n      dup1\n      calldatasize\n      sub\n      dup2\n      add\n      swap1\n      tag_12\n      swap2\n      swap1\n      tag_7\n      jump\t// in\n    tag_12:\n      tag_13\n      jump\t// in\n    tag_11:\n      mload(0x40)\n      tag_14\n      swap2\n      swap1\n      tag_10\n      jump\t// in\n    tag_14:\n      mload(0x40)\n      dup1\n      swap2\n      sub\n      swap1\n      return\n        /* \"solidity\\xe9\\xab\\x98\\xe7\\xba\\xa7\\xe5\\xba\\x94\\xe7\\x94\\xa8/\\xe4\\xba\\x8c\\xe5\\x88\\x86\\xe6\\x9f\\xa5\\xe6\\x89\\xbe\\xe6\\x9c\\x80\\xe9\\xab\\x98\\xe6\\x9c\\x89\\xe6\\x95\\x88\\xe4\\xbd\\x8d.sol\":649:1411  function findMostSignificantBit(uint256 x) public pure returns (uint8 r) {... */\n    tag_8:\n        /* \"solidity\\xe9\\xab\\x98\\xe7\\xba\\xa7\\xe5\\xba\\x94\\xe7\\x94\\xa8/\\xe4\\xba\\x8c\\xe5\\x88\\x86\\xe6\\x9f\\xa5\\xe6\\x89\\xbe\\xe6\\x9c\\x80\\xe9\\xab\\x98\\xe6\\x9c\\x89\\xe6\\x95\\x88\\xe4\\xbd\\x8d.sol\":713:720  uint8 r */\n      0x00\n        /* \"solidity\\xe9\\xab\\x98\\xe7\\xba\\xa7\\xe5\\xba\\x94\\xe7\\x94\\xa8/\\xe4\\xba\\x8c\\xe5\\x88\\x86\\xe6\\x9f\\xa5\\xe6\\x89\\xbe\\xe6\\x9c\\x80\\xe9\\xab\\x98\\xe6\\x9c\\x89\\xe6\\x95\\x88\\xe4\\xbd\\x8d.sol\":741:749  2 ** 128 */\n      0x0100000000000000000000000000000000\n        /* \"solidity\\xe9\\xab\\x98\\xe7\\xba\\xa7\\xe5\\xba\\x94\\xe7\\x94\\xa8/\\xe4\\xba\\x8c\\xe5\\x88\\x86\\xe6\\x9f\\xa5\\xe6\\x89\\xbe\\xe6\\x9c\\x80\\xe9\\xab\\x98\\xe6\\x9c\\x89\\xe6\\x95\\x88\\xe4\\xbd\\x8d.sol\":736:737  x */\n      dup3\n        /* \"solidity\\xe9\\xab\\x98\\xe7\\xba\\xa7\\xe5\\xba\\x94\\xe7\\x94\\xa8/\\xe4\\xba\\x8c\\xe5\\x88\\x86\\xe6\\x9f\\xa5\\xe6\\x89\\xbe\\xe6\\x9c\\x80\\xe9\\xab\\x98\\xe6\\x9c\\x89\\xe6\\x95\\x88\\xe4\\xbd\\x8d.sol\":736:749  x >= 2 ** 128 */\n      lt\n        /* \"solidity\\xe9\\xab\\x98\\xe7\\xba\\xa7\\xe5\\xba\\x94\\xe7\\x94\\xa8/\\xe4\\xba\\x8c\\xe5\\x88\\x86\\xe6\\x9f\\xa5\\xe6\\x89\\xbe\\xe6\\x9c\\x80\\xe9\\xab\\x98\\xe6\\x9c\\x89\\xe6\\x95\\x88\\xe4\\xbd\\x8d.sol\":733:809  if(x >= 2 ** 128) {... */\n      tag_16\n      jumpi\n        /* \"solidity\\xe9\\xab\\x98\\xe7\\xba\\xa7\\xe5\\xba\\x94\\xe7\\x94\\xa8/\\xe4\\xba\\x8c\\xe5\\x88\\x86\\xe6\\x9f\\xa5\\xe6\\x89\\xbe\\xe6\\x9c\\x80\\xe9\\xab\\x98\\xe6\\x9c\\x89\\xe6\\x95\\x88\\xe4\\xbd\\x8d.sol\":771:774  128 */\n      0x80\n        /* \"solidity\\xe9\\xab\\x98\\xe7\\xba\\xa7\\xe5\\xba\\x94\\xe7\\x94\\xa8/\\xe4\\xba\\x8c\\xe5\\x88\\x86\\xe6\\x9f\\xa5\\xe6\\x89\\xbe\\xe6\\x9c\\x80\\xe9\\xab\\x98\\xe6\\x9c\\x89\\xe6\\x95\\x88\\xe4\\xbd\\x8d.sol\":766:774  x >>=128 */\n      dup3\n      swap1\n      shr\n      swap2\n      pop\n        /* \"solidity\\xe9\\xab\\x98\\xe7\\xba\\xa7\\xe5\\xba\\x94\\xe7\\x94\\xa8/\\xe4\\xba\\x8c\\xe5\\x88\\x86\\xe6\\x9f\\xa5\\xe6\\x89\\xbe\\xe6\\x9c\\x80\\xe9\\xab\\x98\\xe6\\x9c\\x89\\xe6\\x95\\x88\\xe4\\xbd\\x8d.sol\":794:797  128 */\n      0x80\n        /* \"solidity\\xe9\\xab\\x98\\xe7\\xba\\xa7\\xe5\\xba\\x94\\xe7\\x94\\xa8/\\xe4\\xba\\x8c\\xe5\\x88\\x86\\xe6\\x9f\\xa5\\xe6\\x89\\xbe\\xe6\\x9c\\x80\\xe9\\xab\\x98\\xe6\\x9c\\x89\\xe6\\x95\\x88\\xe4\\xbd\\x8d.sol\":789:797  r += 128 */\n      dup2\n      tag_17\n      swap2\n      swap1\n      tag_18\n      jump\t// in\n    tag_17:\n      swap1\n      pop\n        /* \"solidity\\xe9\\xab\\x98\\xe7\\xba\\xa7\\xe5\\xba\\x94\\xe7\\x94\\xa8/\\xe4\\xba\\x8c\\xe5\\x88\\x86\\xe6\\x9f\\xa5\\xe6\\x89\\xbe\\xe6\\x9c\\x80\\xe9\\xab\\x98\\xe6\\x9c\\x89\\xe6\\x95\\x88\\xe4\\xbd\\x8d.sol\":733:809  if(x >= 2 ** 128) {... */\n    tag_16:\n        /* \"solidity\\xe9\\xab\\x98\\xe7\\xba\\xa7\\xe5\\xba\\x94\\xe7\\x94\\xa8/\\xe4\\xba\\x8c\\xe5\\x88\\x86\\xe6\\x9f\\xa5\\xe6\\x89\\xbe\\xe6\\x9c\\x80\\xe9\\xab\\x98\\xe6\\x9c\\x89\\xe6\\x95\\x88\\xe4\\xbd\\x8d.sol\":827:834  2 ** 64 */\n      0x010000000000000000\n        /* \"solidity\\xe9\\xab\\x98\\xe7\\xba\\xa7\\xe5\\xba\\x94\\xe7\\x94\\xa8/\\xe4\\xba\\x8c\\xe5\\x88\\x86\\xe6\\x9f\\xa5\\xe6\\x89\\xbe\\xe6\\x9c\\x80\\xe9\\xab\\x98\\xe6\\x9c\\x89\\xe6\\x95\\x88\\xe4\\xbd\\x8d.sol\":822:823  x */\n      dup3\n        /* \"solidity\\xe9\\xab\\x98\\xe7\\xba\\xa7\\xe5\\xba\\x94\\xe7\\x94\\xa8/\\xe4\\xba\\x8c\\xe5\\x88\\x86\\xe6\\x9f\\xa5\\xe6\\x89\\xbe\\xe6\\x9c\\x80\\xe9\\xab\\x98\\xe6\\x9c\\x89\\xe6\\x95\\x88\\xe4\\xbd\\x8d.sol\":822:834  x >= 2 ** 64 */\n      lt\n        /* \"solidity\\xe9\\xab\\x98\\xe7\\xba\\xa7\\xe5\\xba\\x94\\xe7\\x94\\xa8/\\xe4\\xba\\x8c\\xe5\\x88\\x86\\xe6\\x9f\\xa5\\xe6\\x89\\xbe\\xe6\\x9c\\x80\\xe9\\xab\\x98\\xe6\\x9c\\x89\\xe6\\x95\\x88\\xe4\\xbd\\x8d.sol\":819:893  if(x >= 2 ** 64) {... */\n      tag_19\n      jumpi\n        /* \"solidity\\xe9\\xab\\x98\\xe7\\xba\\xa7\\xe5\\xba\\x94\\xe7\\x94\\xa8/\\xe4\\xba\\x8c\\xe5\\x88\\x86\\xe6\\x9f\\xa5\\xe6\\x89\\xbe\\xe6\\x9c\\x80\\xe9\\xab\\x98\\xe6\\x9c\\x89\\xe6\\x95\\x88\\xe4\\xbd\\x8d.sol\":857:859  64 */\n      0x40\n        /* \"solidity\\xe9\\xab\\x98\\xe7\\xba\\xa7\\xe5\\xba\\x94\\xe7\\x94\\xa8/\\xe4\\xba\\x8c\\xe5\\x88\\x86\\xe6\\x9f\\xa5\\xe6\\x89\\xbe\\xe6\\x9c\\x80\\xe9\\xab\\x98\\xe6\\x9c\\x89\\xe6\\x95\\x88\\xe4\\xbd\\x8d.sol\":852:859  x >>=64 */\n      dup3\n      swap1\n      shr\n      swap2\n      pop\n        /* \"solidity\\xe9\\xab\\x98\\xe7\\xba\\xa7\\xe5\\xba\\x94\\xe7\\x94\\xa8/\\xe4\\xba\\x8c\\xe5\\x88\\x86\\xe6\\x9f\\xa5\\xe6\\x89\\xbe\\xe6\\x9c\\x80\\xe9\\xab\\x98\\xe6\\x9c\\x89\\xe6\\x95\\x88\\xe4\\xbd\\x8d.sol\":879:881  64 */\n      0x40\n        /* \"solidity\\xe9\\xab\\x98\\xe7\\xba\\xa7\\xe5\\xba\\x94\\xe7\\x94\\xa8/\\xe4\\xba\\x8c\\xe5\\x88\\x86\\xe6\\x9f\\xa5\\xe6\\x89\\xbe\\xe6\\x9c\\x80\\xe9\\xab\\x98\\xe6\\x9c\\x89\\xe6\\x95\\x88\\xe4\\xbd\\x8d.sol\":874:881  r += 64 */\n      dup2\n      tag_20\n      swap2\n      swap1\n      tag_18\n      jump\t// in\n    tag_20:\n      swap1\n      pop\n        /* \"solidity\\xe9\\xab\\x98\\xe7\\xba\\xa7\\xe5\\xba\\x94\\xe7\\x94\\xa8/\\xe4\\xba\\x8c\\xe5\\x88\\x86\\xe6\\x9f\\xa5\\xe6\\x89\\xbe\\xe6\\x9c\\x80\\xe9\\xab\\x98\\xe6\\x9c\\x89\\xe6\\x95\\x88\\xe4\\xbd\\x8d.sol\":819:893  if(x >= 2 ** 64) {... */\n    tag_19:\n        /* \"solidity\\xe9\\xab\\x98\\xe7\\xba\\xa7\\xe5\\xba\\x94\\xe7\\x94\\xa8/\\xe4\\xba\\x8c\\xe5\\x88\\x86\\xe6\\x9f\\xa5\\xe6\\x89\\xbe\\xe6\\x9c\\x80\\xe9\\xab\\x98\\xe6\\x9c\\x89\\xe6\\x95\\x88\\xe4\\xbd\\x8d.sol\":911:918  2 ** 32 */\n      0x0100000000\n        /* \"solidity\\xe9\\xab\\x98\\xe7\\xba\\xa7\\xe5\\xba\\x94\\xe7\\x94\\xa8/\\xe4\\xba\\x8c\\xe5\\x88\\x86\\xe6\\x9f\\xa5\\xe6\\x89\\xbe\\xe6\\x9c\\x80\\xe9\\xab\\x98\\xe6\\x9c\\x89\\xe6\\x95\\x88\\xe4\\xbd\\x8d.sol\":906:907  x */\n      dup3\n        /* \"solidity\\xe9\\xab\\x98\\xe7\\xba\\xa7\\xe5\\xba\\x94\\xe7\\x94\\xa8/\\xe4\\xba\\x8c\\xe5\\x88\\x86\\xe6\\x9f\\xa5\\xe6\\x89\\xbe\\xe6\\x9c\\x80\\xe9\\xab\\x98\\xe6\\x9c\\x89\\xe6\\x95\\x88\\xe4\\xbd\\x8d.sol\":906:918  x >= 2 ** 32 */\n      lt\n        /* \"solidity\\xe9\\xab\\x98\\xe7\\xba\\xa7\\xe5\\xba\\x94\\xe7\\x94\\xa8/\\xe4\\xba\\x8c\\xe5\\x88\\x86\\xe6\\x9f\\xa5\\xe6\\x89\\xbe\\xe6\\x9c\\x80\\xe9\\xab\\x98\\xe6\\x9c\\x89\\xe6\\x95\\x88\\xe4\\xbd\\x8d.sol\":903:977  if(x >= 2 ** 32) {... */\n      tag_21\n      jumpi\n        /* \"solidity\\xe9\\xab\\x98\\xe7\\xba\\xa7\\xe5\\xba\\x94\\xe7\\x94\\xa8/\\xe4\\xba\\x8c\\xe5\\x88\\x86\\xe6\\x9f\\xa5\\xe6\\x89\\xbe\\xe6\\x9c\\x80\\xe9\\xab\\x98\\xe6\\x9c\\x89\\xe6\\x95\\x88\\xe4\\xbd\\x8d.sol\":941:943  32 */\n      0x20\n        /* \"solidity\\xe9\\xab\\x98\\xe7\\xba\\xa7\\xe5\\xba\\x94\\xe7\\x94\\xa8/\\xe4\\xba\\x8c\\xe5\\x88\\x86\\xe6\\x9f\\xa5\\xe6\\x89\\xbe\\xe6\\x9c\\x80\\xe9\\xab\\x98\\xe6\\x9c\\x89\\xe6\\x95\\x88\\xe4\\xbd\\x8d.sol\":936:943  x >>=32 */\n      dup3\n      swap1\n      shr\n      swap2\n      pop\n        /* \"solidity\\xe9\\xab\\x98\\xe7\\xba\\xa7\\xe5\\xba\\x94\\xe7\\x94\\xa8/\\xe4\\xba\\x8c\\xe5\\x88\\x86\\xe6\\x9f\\xa5\\xe6\\x89\\xbe\\xe6\\x9c\\x80\\xe9\\xab\\x98\\xe6\\x9c\\x89\\xe6\\x95\\x88\\xe4\\xbd\\x8d.sol\":963:965  32 */\n      0x20\n        /* \"solidity\\xe9\\xab\\x98\\xe7\\xba\\xa7\\xe5\\xba\\x94\\xe7\\x94\\xa8/\\xe4\\xba\\x8c\\xe5\\x88\\x86\\xe6\\x9f\\xa5\\xe6\\x89\\xbe\\xe6\\x9c\\x80\\xe9\\xab\\x98\\xe6\\x9c\\x89\\xe6\\x95\\x88\\xe4\\xbd\\x8d.sol\":958:965  r += 32 */\n      dup2\n      tag_22\n      swap2\n      swap1\n      tag_18\n      jump\t// in\n    tag_22:\n      swap1\n      pop\n        /* \"solidity\\xe9\\xab\\x98\\xe7\\xba\\xa7\\xe5\\xba\\x94\\xe7\\x94\\xa8/\\xe4\\xba\\x8c\\xe5\\x88\\x86\\xe6\\x9f\\xa5\\xe6\\x89\\xbe\\xe6\\x9c\\x80\\xe9\\xab\\x98\\xe6\\x9c\\x89\\xe6\\x95\\x88\\xe4\\xbd\\x8d.sol\":903:977  if(x >= 2 ** 32) {... */\n    tag_21:\n        /* \"solidity\\xe9\\xab\\x98\\xe7\\xba\\xa7\\xe5\\xba\\x94\\xe7\\x94\\xa8/\\xe4\\xba\\x8c\\xe5\\x88\\x86\\xe6\\x9f\\xa5\\xe6\\x89\\xbe\\xe6\\x9c\\x80\\xe9\\xab\\x98\\xe6\\x9c\\x89\\xe6\\x95\\x88\\xe4\\xbd\\x8d.sol\":995:1002  2 ** 16 */\n      0x010000\n        /* \"solidity\\xe9\\xab\\x98\\xe7\\xba\\xa7\\xe5\\xba\\x94\\xe7\\x94\\xa8/\\xe4\\xba\\x8c\\xe5\\x88\\x86\\xe6\\x9f\\xa5\\xe6\\x89\\xbe\\xe6\\x9c\\x80\\xe9\\xab\\x98\\xe6\\x9c\\x89\\xe6\\x95\\x88\\xe4\\xbd\\x8d.sol\":990:991  x */\n      dup3\n        /* \"solidity\\xe9\\xab\\x98\\xe7\\xba\\xa7\\xe5\\xba\\x94\\xe7\\x94\\xa8/\\xe4\\xba\\x8c\\xe5\\x88\\x86\\xe6\\x9f\\xa5\\xe6\\x89\\xbe\\xe6\\x9c\\x80\\xe9\\xab\\x98\\xe6\\x9c\\x89\\xe6\\x95\\x88\\xe4\\xbd\\x8d.sol\":990:1002  x >= 2 ** 16 */\n      lt\n        /* \"solidity\\xe9\\xab\\x98\\xe7\\xba\\xa7\\xe5\\xba\\x94\\xe7\\x94\\xa8/\\xe4\\xba\\x8c\\xe5\\x88\\x86\\xe6\\x9f\\xa5\\xe6\\x89\\xbe\\xe6\\x9c\\x80\\xe9\\xab\\x98\\xe6\\x9c\\x89\\xe6\\x95\\x88\\xe4\\xbd\\x8d.sol\":987:1061  if(x >= 2 ** 16) {... */\n      tag_23\n      jumpi\n        /* \"solidity\\xe9\\xab\\x98\\xe7\\xba\\xa7\\xe5\\xba\\x94\\xe7\\x94\\xa8/\\xe4\\xba\\x8c\\xe5\\x88\\x86\\xe6\\x9f\\xa5\\xe6\\x89\\xbe\\xe6\\x9c\\x80\\xe9\\xab\\x98\\xe6\\x9c\\x89\\xe6\\x95\\x88\\xe4\\xbd\\x8d.sol\":1025:1027  16 */\n      0x10\n        /* \"solidity\\xe9\\xab\\x98\\xe7\\xba\\xa7\\xe5\\xba\\x94\\xe7\\x94\\xa8/\\xe4\\xba\\x8c\\xe5\\x88\\x86\\xe6\\x9f\\xa5\\xe6\\x89\\xbe\\xe6\\x9c\\x80\\xe9\\xab\\x98\\xe6\\x9c\\x89\\xe6\\x95\\x88\\xe4\\xbd\\x8d.sol\":1020:1027  x >>=16 */\n      dup3\n      swap1\n      shr\n      swap2\n      pop\n        /* \"solidity\\xe9\\xab\\x98\\xe7\\xba\\xa7\\xe5\\xba\\x94\\xe7\\x94\\xa8/\\xe4\\xba\\x8c\\xe5\\x88\\x86\\xe6\\x9f\\xa5\\xe6\\x89\\xbe\\xe6\\x9c\\x80\\xe9\\xab\\x98\\xe6\\x9c\\x89\\xe6\\x95\\x88\\xe4\\xbd\\x8d.sol\":1047:1049  16 */\n      0x10\n        /* \"solidity\\xe9\\xab\\x98\\xe7\\xba\\xa7\\xe5\\xba\\x94\\xe7\\x94\\xa8/\\xe4\\xba\\x8c\\xe5\\x88\\x86\\xe6\\x9f\\xa5\\xe6\\x89\\xbe\\xe6\\x9c\\x80\\xe9\\xab\\x98\\xe6\\x9c\\x89\\xe6\\x95\\x88\\xe4\\xbd\\x8d.sol\":1042:1049  r += 16 */\n      dup2\n      tag_24\n      swap2\n      swap1\n      tag_18\n      jump\t// in\n    tag_24:\n      swap1\n      pop\n        /* \"solidity\\xe9\\xab\\x98\\xe7\\xba\\xa7\\xe5\\xba\\x94\\xe7\\x94\\xa8/\\xe4\\xba\\x8c\\xe5\\x88\\x86\\xe6\\x9f\\xa5\\xe6\\x89\\xbe\\xe6\\x9c\\x80\\xe9\\xab\\x98\\xe6\\x9c\\x89\\xe6\\x95\\x88\\xe4\\xbd\\x8d.sol\":987:1061  if(x >= 2 ** 16) {... */\n    tag_23:\n        /* \"solidity\\xe9\\xab\\x98\\xe7\\xba\\xa7\\xe5\\xba\\x94\\xe7\\x94\\xa8/\\xe4\\xba\\x8c\\xe5\\x88\\x86\\xe6\\x9f\\xa5\\xe6\\x89\\xbe\\xe6\\x9c\\x80\\xe9\\xab\\x98\\xe6\\x9c\\x89\\xe6\\x95\\x88\\xe4\\xbd\\x8d.sol\":1089:1095  2 ** 8 */\n      0x0100\n        /* \"solidity\\xe9\\xab\\x98\\xe7\\xba\\xa7\\xe5\\xba\\x94\\xe7\\x94\\xa8/\\xe4\\xba\\x8c\\xe5\\x88\\x86\\xe6\\x9f\\xa5\\xe6\\x89\\xbe\\xe6\\x9c\\x80\\xe9\\xab\\x98\\xe6\\x9c\\x89\\xe6\\x95\\x88\\xe4\\xbd\\x8d.sol\":1084:1085  x */\n      dup3\n        /* \"solidity\\xe9\\xab\\x98\\xe7\\xba\\xa7\\xe5\\xba\\x94\\xe7\\x94\\xa8/\\xe4\\xba\\x8c\\xe5\\x88\\x86\\xe6\\x9f\\xa5\\xe6\\x89\\xbe\\xe6\\x9c\\x80\\xe9\\xab\\x98\\xe6\\x9c\\x89\\xe6\\x95\\x88\\xe4\\xbd\\x8d.sol\":1084:1095  x >= 2 ** 8 */\n      lt\n        /* \"solidity\\xe9\\xab\\x98\\xe7\\xba\\xa7\\xe5\\xba\\x94\\xe7\\x94\\xa8/\\xe4\\xba\\x8c\\xe5\\x88\\x86\\xe6\\x9f\\xa5\\xe6\\x89\\xbe\\xe6\\x9c\\x80\\xe9\\xab\\x98\\xe6\\x9c\\x89\\xe6\\x95\\x88\\xe4\\xbd\\x8d.sol\":1081:1152  if(x >= 2 ** 8) {... */\n      tag_25\n      jumpi\n        /* \"solidity\\xe9\\xab\\x98\\xe7\\xba\\xa7\\xe5\\xba\\x94\\xe7\\x94\\xa8/\\xe4\\xba\\x8c\\xe5\\x88\\x86\\xe6\\x9f\\xa5\\xe6\\x89\\xbe\\xe6\\x9c\\x80\\xe9\\xab\\x98\\xe6\\x9c\\x89\\xe6\\x95\\x88\\xe4\\xbd\\x8d.sol\":1118:1119  8 */\n      0x08\n        /* \"solidity\\xe9\\xab\\x98\\xe7\\xba\\xa7\\xe5\\xba\\x94\\xe7\\x94\\xa8/\\xe4\\xba\\x8c\\xe5\\x88\\x86\\xe6\\x9f\\xa5\\xe6\\x89\\xbe\\xe6\\x9c\\x80\\xe9\\xab\\x98\\xe6\\x9c\\x89\\xe6\\x95\\x88\\xe4\\xbd\\x8d.sol\":1113:1119  x >>=8 */\n      dup3\n      swap1\n      shr\n      swap2\n      pop\n        /* \"solidity\\xe9\\xab\\x98\\xe7\\xba\\xa7\\xe5\\xba\\x94\\xe7\\x94\\xa8/\\xe4\\xba\\x8c\\xe5\\x88\\x86\\xe6\\x9f\\xa5\\xe6\\x89\\xbe\\xe6\\x9c\\x80\\xe9\\xab\\x98\\xe6\\x9c\\x89\\xe6\\x95\\x88\\xe4\\xbd\\x8d.sol\":1139:1140  8 */\n      0x08\n        /* \"solidity\\xe9\\xab\\x98\\xe7\\xba\\xa7\\xe5\\xba\\x94\\xe7\\x94\\xa8/\\xe4\\xba\\x8c\\xe5\\x88\\x86\\xe6\\x9f\\xa5\\xe6\\x89\\xbe\\xe6\\x9c\\x80\\xe9\\xab\\x98\\xe6\\x9c\\x89\\xe6\\x95\\x88\\xe4\\xbd\\x8d.sol\":1134:1140  r += 8 */\n      dup2\n      tag_26\n      swap2\n      swap1\n      tag_18\n      jump\t// in\n    tag_26:\n      swap1\n      pop\n        /* \"solidity\\xe9\\xab\\x98\\xe7\\xba\\xa7\\xe5\\xba\\x94\\xe7\\x94\\xa8/\\xe4\\xba\\x8c\\xe5\\x88\\x86\\xe6\\x9f\\xa5\\xe6\\x89\\xbe\\xe6\\x9c\\x80\\xe9\\xab\\x98\\xe6\\x9c\\x89\\xe6\\x95\\x88\\xe4\\xbd\\x8d.sol\":1081:1152  if(x >= 2 ** 8) {... */\n    tag_25:\n        /* \"solidity\\xe9\\xab\\x98\\xe7\\xba\\xa7\\xe5\\xba\\x94\\xe7\\x94\\xa8/\\xe4\\xba\\x8c\\xe5\\x88\\x86\\xe6\\x9f\\xa5\\xe6\\x89\\xbe\\xe6\\x9c\\x80\\xe9\\xab\\x98\\xe6\\x9c\\x89\\xe6\\x95\\x88\\xe4\\xbd\\x8d.sol\":1188:1194  2 ** 4 */\n      0x10\n        /* \"solidity\\xe9\\xab\\x98\\xe7\\xba\\xa7\\xe5\\xba\\x94\\xe7\\x94\\xa8/\\xe4\\xba\\x8c\\xe5\\x88\\x86\\xe6\\x9f\\xa5\\xe6\\x89\\xbe\\xe6\\x9c\\x80\\xe9\\xab\\x98\\xe6\\x9c\\x89\\xe6\\x95\\x88\\xe4\\xbd\\x8d.sol\":1183:1184  x */\n      dup3\n        /* \"solidity\\xe9\\xab\\x98\\xe7\\xba\\xa7\\xe5\\xba\\x94\\xe7\\x94\\xa8/\\xe4\\xba\\x8c\\xe5\\x88\\x86\\xe6\\x9f\\xa5\\xe6\\x89\\xbe\\xe6\\x9c\\x80\\xe9\\xab\\x98\\xe6\\x9c\\x89\\xe6\\x95\\x88\\xe4\\xbd\\x8d.sol\":1183:1194  x >= 2 ** 4 */\n      lt\n        /* \"solidity\\xe9\\xab\\x98\\xe7\\xba\\xa7\\xe5\\xba\\x94\\xe7\\x94\\xa8/\\xe4\\xba\\x8c\\xe5\\x88\\x86\\xe6\\x9f\\xa5\\xe6\\x89\\xbe\\xe6\\x9c\\x80\\xe9\\xab\\x98\\xe6\\x9c\\x89\\xe6\\x95\\x88\\xe4\\xbd\\x8d.sol\":1180:1251  if(x >= 2 ** 4) {... */\n      tag_27\n      jumpi\n        /* \"solidity\\xe9\\xab\\x98\\xe7\\xba\\xa7\\xe5\\xba\\x94\\xe7\\x94\\xa8/\\xe4\\xba\\x8c\\xe5\\x88\\x86\\xe6\\x9f\\xa5\\xe6\\x89\\xbe\\xe6\\x9c\\x80\\xe9\\xab\\x98\\xe6\\x9c\\x89\\xe6\\x95\\x88\\xe4\\xbd\\x8d.sol\":1217:1218  4 */\n      0x04\n        /* \"solidity\\xe9\\xab\\x98\\xe7\\xba\\xa7\\xe5\\xba\\x94\\xe7\\x94\\xa8/\\xe4\\xba\\x8c\\xe5\\x88\\x86\\xe6\\x9f\\xa5\\xe6\\x89\\xbe\\xe6\\x9c\\x80\\xe9\\xab\\x98\\xe6\\x9c\\x89\\xe6\\x95\\x88\\xe4\\xbd\\x8d.sol\":1212:1218  x >>=4 */\n      dup3\n      swap1\n      shr\n      swap2\n      pop\n        /* \"solidity\\xe9\\xab\\x98\\xe7\\xba\\xa7\\xe5\\xba\\x94\\xe7\\x94\\xa8/\\xe4\\xba\\x8c\\xe5\\x88\\x86\\xe6\\x9f\\xa5\\xe6\\x89\\xbe\\xe6\\x9c\\x80\\xe9\\xab\\x98\\xe6\\x9c\\x89\\xe6\\x95\\x88\\xe4\\xbd\\x8d.sol\":1238:1239  4 */\n      0x04\n        /* \"solidity\\xe9\\xab\\x98\\xe7\\xba\\xa7\\xe5\\xba\\x94\\xe7\\x94\\xa8/\\xe4\\xba\\x8c\\xe5\\x88\\x86\\xe6\\x9f\\xa5\\xe6\\x89\\xbe\\xe6\\x9c\\x80\\xe9\\xab\\x98\\xe6\\x9c\\x89\\xe6\\x95\\x88\\xe4\\xbd\\x8d.sol\":1233:1239  r += 4 */\n      dup2\n      tag_28\n      swap2\n      swap1\n      tag_18\n      jump\t// in\n    tag_28:\n      swap1\n      pop\n        /* \"solidity\\xe9\\xab\\x98\\xe7\\xba\\xa7\\xe5\\xba\\x94\\xe7\\x94\\xa8/\\xe4\\xba\\x8c\\xe5\\x88\\x86\\xe6\\x9f\\xa5\\xe6\\x89\\xbe\\xe6\\x9c\\x80\\xe9\\xab\\x98\\xe6\\x9c\\x89\\xe6\\x95\\x88\\xe4\\xbd\\x8d.sol\":1180:1251  if(x >= 2 ** 4) {... */\n    tag_27:\n        /* \"solidity\\xe9\\xab\\x98\\xe7\\xba\\xa7\\xe5\\xba\\x94\\xe7\\x94\\xa8/\\xe4\\xba\\x8c\\xe5\\x88\\x86\\xe6\\x9f\\xa5\\xe6\\x89\\xbe\\xe6\\x9c\\x80\\xe9\\xab\\x98\\xe6\\x9c\\x89\\xe6\\x95\\x88\\xe4\\xbd\\x8d.sol\":1286:1292  2 ** 2 */\n      0x04\n        /* \"solidity\\xe9\\xab\\x98\\xe7\\xba\\xa7\\xe5\\xba\\x94\\xe7\\x94\\xa8/\\xe4\\xba\\x8c\\xe5\\x88\\x86\\xe6\\x9f\\xa5\\xe6\\x89\\xbe\\xe6\\x9c\\x80\\xe9\\xab\\x98\\xe6\\x9c\\x89\\xe6\\x95\\x88\\xe4\\xbd\\x8d.sol\":1281:1282  x */\n      dup3\n        /* \"solidity\\xe9\\xab\\x98\\xe7\\xba\\xa7\\xe5\\xba\\x94\\xe7\\x94\\xa8/\\xe4\\xba\\x8c\\xe5\\x88\\x86\\xe6\\x9f\\xa5\\xe6\\x89\\xbe\\xe6\\x9c\\x80\\xe9\\xab\\x98\\xe6\\x9c\\x89\\xe6\\x95\\x88\\xe4\\xbd\\x8d.sol\":1281:1292  x >= 2 ** 2 */\n      lt\n        /* \"solidity\\xe9\\xab\\x98\\xe7\\xba\\xa7\\xe5\\xba\\x94\\xe7\\x94\\xa8/\\xe4\\xba\\x8c\\xe5\\x88\\x86\\xe6\\x9f\\xa5\\xe6\\x89\\xbe\\xe6\\x9c\\x80\\xe9\\xab\\x98\\xe6\\x9c\\x89\\xe6\\x95\\x88\\xe4\\xbd\\x8d.sol\":1278:1349  if(x >= 2 ** 2) {... */\n      tag_29\n      jumpi\n        /* \"solidity\\xe9\\xab\\x98\\xe7\\xba\\xa7\\xe5\\xba\\x94\\xe7\\x94\\xa8/\\xe4\\xba\\x8c\\xe5\\x88\\x86\\xe6\\x9f\\xa5\\xe6\\x89\\xbe\\xe6\\x9c\\x80\\xe9\\xab\\x98\\xe6\\x9c\\x89\\xe6\\x95\\x88\\xe4\\xbd\\x8d.sol\":1315:1316  2 */\n      0x02\n        /* \"solidity\\xe9\\xab\\x98\\xe7\\xba\\xa7\\xe5\\xba\\x94\\xe7\\x94\\xa8/\\xe4\\xba\\x8c\\xe5\\x88\\x86\\xe6\\x9f\\xa5\\xe6\\x89\\xbe\\xe6\\x9c\\x80\\xe9\\xab\\x98\\xe6\\x9c\\x89\\xe6\\x95\\x88\\xe4\\xbd\\x8d.sol\":1310:1316  x >>=2 */\n      dup3\n      swap1\n      shr\n      swap2\n      pop\n        /* \"solidity\\xe9\\xab\\x98\\xe7\\xba\\xa7\\xe5\\xba\\x94\\xe7\\x94\\xa8/\\xe4\\xba\\x8c\\xe5\\x88\\x86\\xe6\\x9f\\xa5\\xe6\\x89\\xbe\\xe6\\x9c\\x80\\xe9\\xab\\x98\\xe6\\x9c\\x89\\xe6\\x95\\x88\\xe4\\xbd\\x8d.sol\":1336:1337  2 */\n      0x02\n        /* \"solidity\\xe9\\xab\\x98\\xe7\\xba\\xa7\\xe5\\xba\\x94\\xe7\\x94\\xa8/\\xe4\\xba\\x8c\\xe5\\x88\\x86\\xe6\\x9f\\xa5\\xe6\\x89\\xbe\\xe6\\x9c\\x80\\xe9\\xab\\x98\\xe6\\x9c\\x89\\xe6\\x95\\x88\\xe4\\xbd\\x8d.sol\":1331:1337  r += 2 */\n      dup2\n      tag_30\n      swap2\n      swap1\n      tag_18\n      jump\t// in\n    tag_30:\n      swap1\n      pop\n        /* \"solidity\\xe9\\xab\\x98\\xe7\\xba\\xa7\\xe5\\xba\\x94\\xe7\\x94\\xa8/\\xe4\\xba\\x8c\\xe5\\x88\\x86\\xe6\\x9f\\xa5\\xe6\\x89\\xbe\\xe6\\x9c\\x80\\xe9\\xab\\x98\\xe6\\x9c\\x89\\xe6\\x95\\x88\\xe4\\xbd\\x8d.sol\":1278:1349  if(x >= 2 ** 2) {... */\n    tag_29:\n        /* \"solidity\\xe9\\xab\\x98\\xe7\\xba\\xa7\\xe5\\xba\\x94\\xe7\\x94\\xa8/\\xe4\\xba\\x8c\\xe5\\x88\\x86\\xe6\\x9f\\xa5\\xe6\\x89\\xbe\\xe6\\x9c\\x80\\xe9\\xab\\x98\\xe6\\x9c\\x89\\xe6\\x95\\x88\\xe4\\xbd\\x8d.sol\":1368:1369  2 */\n      0x02\n        /* \"solidity\\xe9\\xab\\x98\\xe7\\xba\\xa7\\xe5\\xba\\x94\\xe7\\x94\\xa8/\\xe4\\xba\\x8c\\xe5\\x88\\x86\\xe6\\x9f\\xa5\\xe6\\x89\\xbe\\xe6\\x9c\\x80\\xe9\\xab\\x98\\xe6\\x9c\\x89\\xe6\\x95\\x88\\xe4\\xbd\\x8d.sol\":1363:1364  x */\n      dup3\n        /* \"solidity\\xe9\\xab\\x98\\xe7\\xba\\xa7\\xe5\\xba\\x94\\xe7\\x94\\xa8/\\xe4\\xba\\x8c\\xe5\\x88\\x86\\xe6\\x9f\\xa5\\xe6\\x89\\xbe\\xe6\\x9c\\x80\\xe9\\xab\\x98\\xe6\\x9c\\x89\\xe6\\x95\\x88\\xe4\\xbd\\x8d.sol\":1363:1369  x >= 2 */\n      lt\n        /* \"solidity\\xe9\\xab\\x98\\xe7\\xba\\xa7\\xe5\\xba\\x94\\xe7\\x94\\xa8/\\xe4\\xba\\x8c\\xe5\\x88\\x86\\xe6\\x9f\\xa5\\xe6\\x89\\xbe\\xe6\\x9c\\x80\\xe9\\xab\\x98\\xe6\\x9c\\x89\\xe6\\x95\\x88\\xe4\\xbd\\x8d.sol\":1360:1404  if(x >= 2) {... */\n      tag_31\n      jumpi\n        /* \"solidity\\xe9\\xab\\x98\\xe7\\xba\\xa7\\xe5\\xba\\x94\\xe7\\x94\\xa8/\\xe4\\xba\\x8c\\xe5\\x88\\x86\\xe6\\x9f\\xa5\\xe6\\x89\\xbe\\xe6\\x9c\\x80\\xe9\\xab\\x98\\xe6\\x9c\\x89\\xe6\\x95\\x88\\xe4\\xbd\\x8d.sol\":1391:1392  1 */\n      0x01\n        /* \"solidity\\xe9\\xab\\x98\\xe7\\xba\\xa7\\xe5\\xba\\x94\\xe7\\x94\\xa8/\\xe4\\xba\\x8c\\xe5\\x88\\x86\\xe6\\x9f\\xa5\\xe6\\x89\\xbe\\xe6\\x9c\\x80\\xe9\\xab\\x98\\xe6\\x9c\\x89\\xe6\\x95\\x88\\xe4\\xbd\\x8d.sol\":1386:1392  r += 1 */\n      dup2\n      tag_32\n      swap2\n      swap1\n      tag_18\n      jump\t// in\n    tag_32:\n      swap1\n      pop\n        /* \"solidity\\xe9\\xab\\x98\\xe7\\xba\\xa7\\xe5\\xba\\x94\\xe7\\x94\\xa8/\\xe4\\xba\\x8c\\xe5\\x88\\x86\\xe6\\x9f\\xa5\\xe6\\x89\\xbe\\xe6\\x9c\\x80\\xe9\\xab\\x98\\xe6\\x9c\\x89\\xe6\\x95\\x88\\xe4\\xbd\\x8d.sol\":1360:1404  if(x >= 2) {... */\n    tag_31:\n        /* \"solidity\\xe9\\xab\\x98\\xe7\\xba\\xa7\\xe5\\xba\\x94\\xe7\\x94\\xa8/\\xe4\\xba\\x8c\\xe5\\x88\\x86\\xe6\\x9f\\xa5\\xe6\\x89\\xbe\\xe6\\x9c\\x80\\xe9\\xab\\x98\\xe6\\x9c\\x89\\xe6\\x95\\x88\\xe4\\xbd\\x8d.sol\":649:1411  function findMostSignificantBit(uint256 x) public pure returns (uint8 r) {... */\n      swap2\n      swap1\n      pop\n      jump\t// out\n        /* \"solidity\\xe9\\xab\\x98\\xe7\\xba\\xa7\\xe5\\xba\\x94\\xe7\\x94\\xa8/\\xe4\\xba\\x8c\\xe5\\x88\\x86\\xe6\\x9f\\xa5\\xe6\\x89\\xbe\\xe6\\x9c\\x80\\xe9\\xab\\x98\\xe6\\x9c\\x89\\xe6\\x95\\x88\\xe4\\xbd\\x8d.sol\":1457:3173  function findMostSignificantBitAssembly(uint256 x) public pure returns (uint8 r) {... */\n    tag_13:\n        /* \"solidity\\xe9\\xab\\x98\\xe7\\xba\\xa7\\xe5\\xba\\x94\\xe7\\x94\\xa8/\\xe4\\xba\\x8c\\xe5\\x88\\x86\\xe6\\x9f\\xa5\\xe6\\x89\\xbe\\xe6\\x9c\\x80\\xe9\\xab\\x98\\xe6\\x9c\\x89\\xe6\\x95\\x88\\xe4\\xbd\\x8d.sol\":1529:1536  uint8 r */\n      0x00\n        /* \"solidity\\xe9\\xab\\x98\\xe7\\xba\\xa7\\xe5\\xba\\x94\\xe7\\x94\\xa8/\\xe4\\xba\\x8c\\xe5\\x88\\x86\\xe6\\x9f\\xa5\\xe6\\x89\\xbe\\xe6\\x9c\\x80\\xe9\\xab\\x98\\xe6\\x9c\\x89\\xe6\\x95\\x88\\xe4\\xbd\\x8d.sol\":1594:1628  0xFFFFFFFFFFFFFFFFFFFFFFFFFFFFFFFF */\n      0xffffffffffffffffffffffffffffffff\n        /* \"solidity\\xe9\\xab\\x98\\xe7\\xba\\xa7\\xe5\\xba\\x94\\xe7\\x94\\xa8/\\xe4\\xba\\x8c\\xe5\\x88\\x86\\xe6\\x9f\\xa5\\xe6\\x89\\xbe\\xe6\\x9c\\x80\\xe9\\xab\\x98\\xe6\\x9c\\x89\\xe6\\x95\\x88\\xe4\\xbd\\x8d.sol\":1592:1593  x */\n      dup3\n        /* \"solidity\\xe9\\xab\\x98\\xe7\\xba\\xa7\\xe5\\xba\\x94\\xe7\\x94\\xa8/\\xe4\\xba\\x8c\\xe5\\x88\\x86\\xe6\\x9f\\xa5\\xe6\\x89\\xbe\\xe6\\x9c\\x80\\xe9\\xab\\x98\\xe6\\x9c\\x89\\xe6\\x95\\x88\\xe4\\xbd\\x8d.sol\":1589:1629  gt(x,0xFFFFFFFFFFFFFFFFFFFFFFFFFFFFFFFF) */\n      gt\n        /* \"solidity\\xe9\\xab\\x98\\xe7\\xba\\xa7\\xe5\\xba\\x94\\xe7\\x94\\xa8/\\xe4\\xba\\x8c\\xe5\\x88\\x86\\xe6\\x9f\\xa5\\xe6\\x89\\xbe\\xe6\\x9c\\x80\\xe9\\xab\\x98\\xe6\\x9c\\x89\\xe6\\x95\\x88\\xe4\\xbd\\x8d.sol\":1586:1587  7 */\n      0x07\n        /* \"solidity\\xe9\\xab\\x98\\xe7\\xba\\xa7\\xe5\\xba\\x94\\xe7\\x94\\xa8/\\xe4\\xba\\x8c\\xe5\\x88\\x86\\xe6\\x9f\\xa5\\xe6\\x89\\xbe\\xe6\\x9c\\x80\\xe9\\xab\\x98\\xe6\\x9c\\x89\\xe6\\x95\\x88\\xe4\\xbd\\x8d.sol\":1582:1630  shl(7, gt(x,0xFFFFFFFFFFFFFFFFFFFFFFFFFFFFFFFF)) */\n      shl\n        /* \"solidity\\xe9\\xab\\x98\\xe7\\xba\\xa7\\xe5\\xba\\x94\\xe7\\x94\\xa8/\\xe4\\xba\\x8c\\xe5\\x88\\x86\\xe6\\x9f\\xa5\\xe6\\x89\\xbe\\xe6\\x9c\\x80\\xe9\\xab\\x98\\xe6\\x9c\\x89\\xe6\\x95\\x88\\xe4\\xbd\\x8d.sol\":1657:1658  x */\n      dup3\n        /* \"solidity\\xe9\\xab\\x98\\xe7\\xba\\xa7\\xe5\\xba\\x94\\xe7\\x94\\xa8/\\xe4\\xba\\x8c\\xe5\\x88\\x86\\xe6\\x9f\\xa5\\xe6\\x89\\xbe\\xe6\\x9c\\x80\\xe9\\xab\\x98\\xe6\\x9c\\x89\\xe6\\x95\\x88\\xe4\\xbd\\x8d.sol\":1654:1655  f */\n      dup2\n        /* \"solidity\\xe9\\xab\\x98\\xe7\\xba\\xa7\\xe5\\xba\\x94\\xe7\\x94\\xa8/\\xe4\\xba\\x8c\\xe5\\x88\\x86\\xe6\\x9f\\xa5\\xe6\\x89\\xbe\\xe6\\x9c\\x80\\xe9\\xab\\x98\\xe6\\x9c\\x89\\xe6\\x95\\x88\\xe4\\xbd\\x8d.sol\":1650:1659  shr(f, x) */\n      shr\n        /* \"solidity\\xe9\\xab\\x98\\xe7\\xba\\xa7\\xe5\\xba\\x94\\xe7\\x94\\xa8/\\xe4\\xba\\x8c\\xe5\\x88\\x86\\xe6\\x9f\\xa5\\xe6\\x89\\xbe\\xe6\\x9c\\x80\\xe9\\xab\\x98\\xe6\\x9c\\x89\\xe6\\x95\\x88\\xe4\\xbd\\x8d.sol\":1645:1659  x := shr(f, x) */\n      swap3\n      pop\n        /* \"solidity\\xe9\\xab\\x98\\xe7\\xba\\xa7\\xe5\\xba\\x94\\xe7\\x94\\xa8/\\xe4\\xba\\x8c\\xe5\\x88\\x86\\xe6\\x9f\\xa5\\xe6\\x89\\xbe\\xe6\\x9c\\x80\\xe9\\xab\\x98\\xe6\\x9c\\x89\\xe6\\x95\\x88\\xe4\\xbd\\x8d.sol\":1684:1685  f */\n      dup1\n        /* \"solidity\\xe9\\xab\\x98\\xe7\\xba\\xa7\\xe5\\xba\\x94\\xe7\\x94\\xa8/\\xe4\\xba\\x8c\\xe5\\x88\\x86\\xe6\\x9f\\xa5\\xe6\\x89\\xbe\\xe6\\x9c\\x80\\xe9\\xab\\x98\\xe6\\x9c\\x89\\xe6\\x95\\x88\\xe4\\xbd\\x8d.sol\":1681:1682  r */\n      dup3\n        /* \"solidity\\xe9\\xab\\x98\\xe7\\xba\\xa7\\xe5\\xba\\x94\\xe7\\x94\\xa8/\\xe4\\xba\\x8c\\xe5\\x88\\x86\\xe6\\x9f\\xa5\\xe6\\x89\\xbe\\xe6\\x9c\\x80\\xe9\\xab\\x98\\xe6\\x9c\\x89\\xe6\\x95\\x88\\xe4\\xbd\\x8d.sol\":1678:1686  or(r, f) */\n      or\n        /* \"solidity\\xe9\\xab\\x98\\xe7\\xba\\xa7\\xe5\\xba\\x94\\xe7\\x94\\xa8/\\xe4\\xba\\x8c\\xe5\\x88\\x86\\xe6\\x9f\\xa5\\xe6\\x89\\xbe\\xe6\\x9c\\x80\\xe9\\xab\\x98\\xe6\\x9c\\x89\\xe6\\x95\\x88\\xe4\\xbd\\x8d.sol\":1673:1686  r := or(r, f) */\n      swap2\n      pop\n        /* \"solidity\\xe9\\xab\\x98\\xe7\\xba\\xa7\\xe5\\xba\\x94\\xe7\\x94\\xa8/\\xe4\\xba\\x8c\\xe5\\x88\\x86\\xe6\\x9f\\xa5\\xe6\\x89\\xbe\\xe6\\x9c\\x80\\xe9\\xab\\x98\\xe6\\x9c\\x89\\xe6\\x95\\x88\\xe4\\xbd\\x8d.sol\":1558:1697  {... */\n      pop\n        /* \"solidity\\xe9\\xab\\x98\\xe7\\xba\\xa7\\xe5\\xba\\x94\\xe7\\x94\\xa8/\\xe4\\xba\\x8c\\xe5\\x88\\x86\\xe6\\x9f\\xa5\\xe6\\x89\\xbe\\xe6\\x9c\\x80\\xe9\\xab\\x98\\xe6\\x9c\\x89\\xe6\\x95\\x88\\xe4\\xbd\\x8d.sol\":1754:1772  0xFFFFFFFFFFFFFFFF */\n      0xffffffffffffffff\n        /* \"solidity\\xe9\\xab\\x98\\xe7\\xba\\xa7\\xe5\\xba\\x94\\xe7\\x94\\xa8/\\xe4\\xba\\x8c\\xe5\\x88\\x86\\xe6\\x9f\\xa5\\xe6\\x89\\xbe\\xe6\\x9c\\x80\\xe9\\xab\\x98\\xe6\\x9c\\x89\\xe6\\x95\\x88\\xe4\\xbd\\x8d.sol\":1752:1753  x */\n      dup3\n        /* \"solidity\\xe9\\xab\\x98\\xe7\\xba\\xa7\\xe5\\xba\\x94\\xe7\\x94\\xa8/\\xe4\\xba\\x8c\\xe5\\x88\\x86\\xe6\\x9f\\xa5\\xe6\\x89\\xbe\\xe6\\x9c\\x80\\xe9\\xab\\x98\\xe6\\x9c\\x89\\xe6\\x95\\x88\\xe4\\xbd\\x8d.sol\":1749:1773  gt(x,0xFFFFFFFFFFFFFFFF) */\n      gt\n        /* \"solidity\\xe9\\xab\\x98\\xe7\\xba\\xa7\\xe5\\xba\\x94\\xe7\\x94\\xa8/\\xe4\\xba\\x8c\\xe5\\x88\\x86\\xe6\\x9f\\xa5\\xe6\\x89\\xbe\\xe6\\x9c\\x80\\xe9\\xab\\x98\\xe6\\x9c\\x89\\xe6\\x95\\x88\\xe4\\xbd\\x8d.sol\":1746:1747  6 */\n      0x06\n        /* \"solidity\\xe9\\xab\\x98\\xe7\\xba\\xa7\\xe5\\xba\\x94\\xe7\\x94\\xa8/\\xe4\\xba\\x8c\\xe5\\x88\\x86\\xe6\\x9f\\xa5\\xe6\\x89\\xbe\\xe6\\x9c\\x80\\xe9\\xab\\x98\\xe6\\x9c\\x89\\xe6\\x95\\x88\\xe4\\xbd\\x8d.sol\":1742:1774  shl(6, gt(x,0xFFFFFFFFFFFFFFFF)) */\n      shl\n        /* \"solidity\\xe9\\xab\\x98\\xe7\\xba\\xa7\\xe5\\xba\\x94\\xe7\\x94\\xa8/\\xe4\\xba\\x8c\\xe5\\x88\\x86\\xe6\\x9f\\xa5\\xe6\\x89\\xbe\\xe6\\x9c\\x80\\xe9\\xab\\x98\\xe6\\x9c\\x89\\xe6\\x95\\x88\\xe4\\xbd\\x8d.sol\":1802:1803  x */\n      dup3\n        /* \"solidity\\xe9\\xab\\x98\\xe7\\xba\\xa7\\xe5\\xba\\x94\\xe7\\x94\\xa8/\\xe4\\xba\\x8c\\xe5\\x88\\x86\\xe6\\x9f\\xa5\\xe6\\x89\\xbe\\xe6\\x9c\\x80\\xe9\\xab\\x98\\xe6\\x9c\\x89\\xe6\\x95\\x88\\xe4\\xbd\\x8d.sol\":1799:1800  f */\n      dup2\n        /* \"solidity\\xe9\\xab\\x98\\xe7\\xba\\xa7\\xe5\\xba\\x94\\xe7\\x94\\xa8/\\xe4\\xba\\x8c\\xe5\\x88\\x86\\xe6\\x9f\\xa5\\xe6\\x89\\xbe\\xe6\\x9c\\x80\\xe9\\xab\\x98\\xe6\\x9c\\x89\\xe6\\x95\\x88\\xe4\\xbd\\x8d.sol\":1795:1804  shr(f, x) */\n      shr\n        /* \"solidity\\xe9\\xab\\x98\\xe7\\xba\\xa7\\xe5\\xba\\x94\\xe7\\x94\\xa8/\\xe4\\xba\\x8c\\xe5\\x88\\x86\\xe6\\x9f\\xa5\\xe6\\x89\\xbe\\xe6\\x9c\\x80\\xe9\\xab\\x98\\xe6\\x9c\\x89\\xe6\\x95\\x88\\xe4\\xbd\\x8d.sol\":1790:1804  x := shr(f, x) */\n      swap3\n      pop\n        /* \"solidity\\xe9\\xab\\x98\\xe7\\xba\\xa7\\xe5\\xba\\x94\\xe7\\x94\\xa8/\\xe4\\xba\\x8c\\xe5\\x88\\x86\\xe6\\x9f\\xa5\\xe6\\x89\\xbe\\xe6\\x9c\\x80\\xe9\\xab\\x98\\xe6\\x9c\\x89\\xe6\\x95\\x88\\xe4\\xbd\\x8d.sol\":1829:1830  f */\n      dup1\n        /* \"solidity\\xe9\\xab\\x98\\xe7\\xba\\xa7\\xe5\\xba\\x94\\xe7\\x94\\xa8/\\xe4\\xba\\x8c\\xe5\\x88\\x86\\xe6\\x9f\\xa5\\xe6\\x89\\xbe\\xe6\\x9c\\x80\\xe9\\xab\\x98\\xe6\\x9c\\x89\\xe6\\x95\\x88\\xe4\\xbd\\x8d.sol\":1826:1827  r */\n      dup3\n        /* \"solidity\\xe9\\xab\\x98\\xe7\\xba\\xa7\\xe5\\xba\\x94\\xe7\\x94\\xa8/\\xe4\\xba\\x8c\\xe5\\x88\\x86\\xe6\\x9f\\xa5\\xe6\\x89\\xbe\\xe6\\x9c\\x80\\xe9\\xab\\x98\\xe6\\x9c\\x89\\xe6\\x95\\x88\\xe4\\xbd\\x8d.sol\":1823:1831  or(r, f) */\n      or\n        /* \"solidity\\xe9\\xab\\x98\\xe7\\xba\\xa7\\xe5\\xba\\x94\\xe7\\x94\\xa8/\\xe4\\xba\\x8c\\xe5\\x88\\x86\\xe6\\x9f\\xa5\\xe6\\x89\\xbe\\xe6\\x9c\\x80\\xe9\\xab\\x98\\xe6\\x9c\\x89\\xe6\\x95\\x88\\xe4\\xbd\\x8d.sol\":1818:1831  r := or(r, f) */\n      swap2\n      pop\n        /* \"solidity\\xe9\\xab\\x98\\xe7\\xba\\xa7\\xe5\\xba\\x94\\xe7\\x94\\xa8/\\xe4\\xba\\x8c\\xe5\\x88\\x86\\xe6\\x9f\\xa5\\xe6\\x89\\xbe\\xe6\\x9c\\x80\\xe9\\xab\\x98\\xe6\\x9c\\x89\\xe6\\x95\\x88\\xe4\\xbd\\x8d.sol\":1718:1842  {... */\n      pop\n        /* \"solidity\\xe9\\xab\\x98\\xe7\\xba\\xa7\\xe5\\xba\\x94\\xe7\\x94\\xa8/\\xe4\\xba\\x8c\\xe5\\x88\\x86\\xe6\\x9f\\xa5\\xe6\\x89\\xbe\\xe6\\x9c\\x80\\xe9\\xab\\x98\\xe6\\x9c\\x89\\xe6\\x95\\x88\\xe4\\xbd\\x8d.sol\":1899:1909  0xFFFFFFFF */\n      0xffffffff\n        /* \"solidity\\xe9\\xab\\x98\\xe7\\xba\\xa7\\xe5\\xba\\x94\\xe7\\x94\\xa8/\\xe4\\xba\\x8c\\xe5\\x88\\x86\\xe6\\x9f\\xa5\\xe6\\x89\\xbe\\xe6\\x9c\\x80\\xe9\\xab\\x98\\xe6\\x9c\\x89\\xe6\\x95\\x88\\xe4\\xbd\\x8d.sol\":1897:1898  x */\n      dup3\n        /* \"solidity\\xe9\\xab\\x98\\xe7\\xba\\xa7\\xe5\\xba\\x94\\xe7\\x94\\xa8/\\xe4\\xba\\x8c\\xe5\\x88\\x86\\xe6\\x9f\\xa5\\xe6\\x89\\xbe\\xe6\\x9c\\x80\\xe9\\xab\\x98\\xe6\\x9c\\x89\\xe6\\x95\\x88\\xe4\\xbd\\x8d.sol\":1894:1910  gt(x,0xFFFFFFFF) */\n      gt\n        /* \"solidity\\xe9\\xab\\x98\\xe7\\xba\\xa7\\xe5\\xba\\x94\\xe7\\x94\\xa8/\\xe4\\xba\\x8c\\xe5\\x88\\x86\\xe6\\x9f\\xa5\\xe6\\x89\\xbe\\xe6\\x9c\\x80\\xe9\\xab\\x98\\xe6\\x9c\\x89\\xe6\\x95\\x88\\xe4\\xbd\\x8d.sol\":1891:1892  5 */\n      0x05\n        /* \"solidity\\xe9\\xab\\x98\\xe7\\xba\\xa7\\xe5\\xba\\x94\\xe7\\x94\\xa8/\\xe4\\xba\\x8c\\xe5\\x88\\x86\\xe6\\x9f\\xa5\\xe6\\x89\\xbe\\xe6\\x9c\\x80\\xe9\\xab\\x98\\xe6\\x9c\\x89\\xe6\\x95\\x88\\xe4\\xbd\\x8d.sol\":1887:1911  shl(5, gt(x,0xFFFFFFFF)) */\n      shl\n        /* \"solidity\\xe9\\xab\\x98\\xe7\\xba\\xa7\\xe5\\xba\\x94\\xe7\\x94\\xa8/\\xe4\\xba\\x8c\\xe5\\x88\\x86\\xe6\\x9f\\xa5\\xe6\\x89\\xbe\\xe6\\x9c\\x80\\xe9\\xab\\x98\\xe6\\x9c\\x89\\xe6\\x95\\x88\\xe4\\xbd\\x8d.sol\":1939:1940  x */\n      dup3\n        /* \"solidity\\xe9\\xab\\x98\\xe7\\xba\\xa7\\xe5\\xba\\x94\\xe7\\x94\\xa8/\\xe4\\xba\\x8c\\xe5\\x88\\x86\\xe6\\x9f\\xa5\\xe6\\x89\\xbe\\xe6\\x9c\\x80\\xe9\\xab\\x98\\xe6\\x9c\\x89\\xe6\\x95\\x88\\xe4\\xbd\\x8d.sol\":1936:1937  f */\n      dup2\n        /* \"solidity\\xe9\\xab\\x98\\xe7\\xba\\xa7\\xe5\\xba\\x94\\xe7\\x94\\xa8/\\xe4\\xba\\x8c\\xe5\\x88\\x86\\xe6\\x9f\\xa5\\xe6\\x89\\xbe\\xe6\\x9c\\x80\\xe9\\xab\\x98\\xe6\\x9c\\x89\\xe6\\x95\\x88\\xe4\\xbd\\x8d.sol\":1932:1941  shr(f, x) */\n      shr\n        /* \"solidity\\xe9\\xab\\x98\\xe7\\xba\\xa7\\xe5\\xba\\x94\\xe7\\x94\\xa8/\\xe4\\xba\\x8c\\xe5\\x88\\x86\\xe6\\x9f\\xa5\\xe6\\x89\\xbe\\xe6\\x9c\\x80\\xe9\\xab\\x98\\xe6\\x9c\\x89\\xe6\\x95\\x88\\xe4\\xbd\\x8d.sol\":1927:1941  x := shr(f, x) */\n      swap3\n      pop\n        /* \"solidity\\xe9\\xab\\x98\\xe7\\xba\\xa7\\xe5\\xba\\x94\\xe7\\x94\\xa8/\\xe4\\xba\\x8c\\xe5\\x88\\x86\\xe6\\x9f\\xa5\\xe6\\x89\\xbe\\xe6\\x9c\\x80\\xe9\\xab\\x98\\xe6\\x9c\\x89\\xe6\\x95\\x88\\xe4\\xbd\\x8d.sol\":1966:1967  f */\n      dup1\n        /* \"solidity\\xe9\\xab\\x98\\xe7\\xba\\xa7\\xe5\\xba\\x94\\xe7\\x94\\xa8/\\xe4\\xba\\x8c\\xe5\\x88\\x86\\xe6\\x9f\\xa5\\xe6\\x89\\xbe\\xe6\\x9c\\x80\\xe9\\xab\\x98\\xe6\\x9c\\x89\\xe6\\x95\\x88\\xe4\\xbd\\x8d.sol\":1963:1964  r */\n      dup3\n        /* \"solidity\\xe9\\xab\\x98\\xe7\\xba\\xa7\\xe5\\xba\\x94\\xe7\\x94\\xa8/\\xe4\\xba\\x8c\\xe5\\x88\\x86\\xe6\\x9f\\xa5\\xe6\\x89\\xbe\\xe6\\x9c\\x80\\xe9\\xab\\x98\\xe6\\x9c\\x89\\xe6\\x95\\x88\\xe4\\xbd\\x8d.sol\":1960:1968  or(r, f) */\n      or\n        /* \"solidity\\xe9\\xab\\x98\\xe7\\xba\\xa7\\xe5\\xba\\x94\\xe7\\x94\\xa8/\\xe4\\xba\\x8c\\xe5\\x88\\x86\\xe6\\x9f\\xa5\\xe6\\x89\\xbe\\xe6\\x9c\\x80\\xe9\\xab\\x98\\xe6\\x9c\\x89\\xe6\\x95\\x88\\xe4\\xbd\\x8d.sol\":1955:1968  r := or(r, f) */\n      swap2\n      pop\n        /* \"solidity\\xe9\\xab\\x98\\xe7\\xba\\xa7\\xe5\\xba\\x94\\xe7\\x94\\xa8/\\xe4\\xba\\x8c\\xe5\\x88\\x86\\xe6\\x9f\\xa5\\xe6\\x89\\xbe\\xe6\\x9c\\x80\\xe9\\xab\\x98\\xe6\\x9c\\x89\\xe6\\x95\\x88\\xe4\\xbd\\x8d.sol\":1863:1979  {... */\n      pop\n        /* \"solidity\\xe9\\xab\\x98\\xe7\\xba\\xa7\\xe5\\xba\\x94\\xe7\\x94\\xa8/\\xe4\\xba\\x8c\\xe5\\x88\\x86\\xe6\\x9f\\xa5\\xe6\\x89\\xbe\\xe6\\x9c\\x80\\xe9\\xab\\x98\\xe6\\x9c\\x89\\xe6\\x95\\x88\\xe4\\xbd\\x8d.sol\":2036:2042  0xFFFF */\n      0xffff\n        /* \"solidity\\xe9\\xab\\x98\\xe7\\xba\\xa7\\xe5\\xba\\x94\\xe7\\x94\\xa8/\\xe4\\xba\\x8c\\xe5\\x88\\x86\\xe6\\x9f\\xa5\\xe6\\x89\\xbe\\xe6\\x9c\\x80\\xe9\\xab\\x98\\xe6\\x9c\\x89\\xe6\\x95\\x88\\xe4\\xbd\\x8d.sol\":2034:2035  x */\n      dup3\n        /* \"solidity\\xe9\\xab\\x98\\xe7\\xba\\xa7\\xe5\\xba\\x94\\xe7\\x94\\xa8/\\xe4\\xba\\x8c\\xe5\\x88\\x86\\xe6\\x9f\\xa5\\xe6\\x89\\xbe\\xe6\\x9c\\x80\\xe9\\xab\\x98\\xe6\\x9c\\x89\\xe6\\x95\\x88\\xe4\\xbd\\x8d.sol\":2031:2043  gt(x,0xFFFF) */\n      gt\n        /* \"solidity\\xe9\\xab\\x98\\xe7\\xba\\xa7\\xe5\\xba\\x94\\xe7\\x94\\xa8/\\xe4\\xba\\x8c\\xe5\\x88\\x86\\xe6\\x9f\\xa5\\xe6\\x89\\xbe\\xe6\\x9c\\x80\\xe9\\xab\\x98\\xe6\\x9c\\x89\\xe6\\x95\\x88\\xe4\\xbd\\x8d.sol\":2028:2029  4 */\n      0x04\n        /* \"solidity\\xe9\\xab\\x98\\xe7\\xba\\xa7\\xe5\\xba\\x94\\xe7\\x94\\xa8/\\xe4\\xba\\x8c\\xe5\\x88\\x86\\xe6\\x9f\\xa5\\xe6\\x89\\xbe\\xe6\\x9c\\x80\\xe9\\xab\\x98\\xe6\\x9c\\x89\\xe6\\x95\\x88\\xe4\\xbd\\x8d.sol\":2024:2044  shl(4, gt(x,0xFFFF)) */\n      shl\n        /* \"solidity\\xe9\\xab\\x98\\xe7\\xba\\xa7\\xe5\\xba\\x94\\xe7\\x94\\xa8/\\xe4\\xba\\x8c\\xe5\\x88\\x86\\xe6\\x9f\\xa5\\xe6\\x89\\xbe\\xe6\\x9c\\x80\\xe9\\xab\\x98\\xe6\\x9c\\x89\\xe6\\x95\\x88\\xe4\\xbd\\x8d.sol\":2072:2073  x */\n      dup3\n        /* \"solidity\\xe9\\xab\\x98\\xe7\\xba\\xa7\\xe5\\xba\\x94\\xe7\\x94\\xa8/\\xe4\\xba\\x8c\\xe5\\x88\\x86\\xe6\\x9f\\xa5\\xe6\\x89\\xbe\\xe6\\x9c\\x80\\xe9\\xab\\x98\\xe6\\x9c\\x89\\xe6\\x95\\x88\\xe4\\xbd\\x8d.sol\":2069:2070  f */\n      dup2\n        /* \"solidity\\xe9\\xab\\x98\\xe7\\xba\\xa7\\xe5\\xba\\x94\\xe7\\x94\\xa8/\\xe4\\xba\\x8c\\xe5\\x88\\x86\\xe6\\x9f\\xa5\\xe6\\x89\\xbe\\xe6\\x9c\\x80\\xe9\\xab\\x98\\xe6\\x9c\\x89\\xe6\\x95\\x88\\xe4\\xbd\\x8d.sol\":2065:2074  shr(f, x) */\n      shr\n        /* \"solidity\\xe9\\xab\\x98\\xe7\\xba\\xa7\\xe5\\xba\\x94\\xe7\\x94\\xa8/\\xe4\\xba\\x8c\\xe5\\x88\\x86\\xe6\\x9f\\xa5\\xe6\\x89\\xbe\\xe6\\x9c\\x80\\xe9\\xab\\x98\\xe6\\x9c\\x89\\xe6\\x95\\x88\\xe4\\xbd\\x8d.sol\":2060:2074  x := shr(f, x) */\n      swap3\n      pop\n        /* \"solidity\\xe9\\xab\\x98\\xe7\\xba\\xa7\\xe5\\xba\\x94\\xe7\\x94\\xa8/\\xe4\\xba\\x8c\\xe5\\x88\\x86\\xe6\\x9f\\xa5\\xe6\\x89\\xbe\\xe6\\x9c\\x80\\xe9\\xab\\x98\\xe6\\x9c\\x89\\xe6\\x95\\x88\\xe4\\xbd\\x8d.sol\":2099:2100  f */\n      dup1\n        /* \"solidity\\xe9\\xab\\x98\\xe7\\xba\\xa7\\xe5\\xba\\x94\\xe7\\x94\\xa8/\\xe4\\xba\\x8c\\xe5\\x88\\x86\\xe6\\x9f\\xa5\\xe6\\x89\\xbe\\xe6\\x9c\\x80\\xe9\\xab\\x98\\xe6\\x9c\\x89\\xe6\\x95\\x88\\xe4\\xbd\\x8d.sol\":2096:2097  r */\n      dup3\n        /* \"solidity\\xe9\\xab\\x98\\xe7\\xba\\xa7\\xe5\\xba\\x94\\xe7\\x94\\xa8/\\xe4\\xba\\x8c\\xe5\\x88\\x86\\xe6\\x9f\\xa5\\xe6\\x89\\xbe\\xe6\\x9c\\x80\\xe9\\xab\\x98\\xe6\\x9c\\x89\\xe6\\x95\\x88\\xe4\\xbd\\x8d.sol\":2093:2101  or(r, f) */\n      or\n        /* \"solidity\\xe9\\xab\\x98\\xe7\\xba\\xa7\\xe5\\xba\\x94\\xe7\\x94\\xa8/\\xe4\\xba\\x8c\\xe5\\x88\\x86\\xe6\\x9f\\xa5\\xe6\\x89\\xbe\\xe6\\x9c\\x80\\xe9\\xab\\x98\\xe6\\x9c\\x89\\xe6\\x95\\x88\\xe4\\xbd\\x8d.sol\":2088:2101  r := or(r, f) */\n      swap2\n      pop\n        /* \"solidity\\xe9\\xab\\x98\\xe7\\xba\\xa7\\xe5\\xba\\x94\\xe7\\x94\\xa8/\\xe4\\xba\\x8c\\xe5\\x88\\x86\\xe6\\x9f\\xa5\\xe6\\x89\\xbe\\xe6\\x9c\\x80\\xe9\\xab\\x98\\xe6\\x9c\\x89\\xe6\\x95\\x88\\xe4\\xbd\\x8d.sol\":2000:2112  {... */\n      pop\n        /* \"solidity\\xe9\\xab\\x98\\xe7\\xba\\xa7\\xe5\\xba\\x94\\xe7\\x94\\xa8/\\xe4\\xba\\x8c\\xe5\\x88\\x86\\xe6\\x9f\\xa5\\xe6\\x89\\xbe\\xe6\\x9c\\x80\\xe9\\xab\\x98\\xe6\\x9c\\x89\\xe6\\x95\\x88\\xe4\\xbd\\x8d.sol\":2177:2181  0xFF */\n      0xff\n        /* \"solidity\\xe9\\xab\\x98\\xe7\\xba\\xa7\\xe5\\xba\\x94\\xe7\\x94\\xa8/\\xe4\\xba\\x8c\\xe5\\x88\\x86\\xe6\\x9f\\xa5\\xe6\\x89\\xbe\\xe6\\x9c\\x80\\xe9\\xab\\x98\\xe6\\x9c\\x89\\xe6\\x95\\x88\\xe4\\xbd\\x8d.sol\":2175:2176  x */\n      dup3\n        /* \"solidity\\xe9\\xab\\x98\\xe7\\xba\\xa7\\xe5\\xba\\x94\\xe7\\x94\\xa8/\\xe4\\xba\\x8c\\xe5\\x88\\x86\\xe6\\x9f\\xa5\\xe6\\x89\\xbe\\xe6\\x9c\\x80\\xe9\\xab\\x98\\xe6\\x9c\\x89\\xe6\\x95\\x88\\xe4\\xbd\\x8d.sol\":2172:2182  gt(x,0xFF) */\n      gt\n        /* \"solidity\\xe9\\xab\\x98\\xe7\\xba\\xa7\\xe5\\xba\\x94\\xe7\\x94\\xa8/\\xe4\\xba\\x8c\\xe5\\x88\\x86\\xe6\\x9f\\xa5\\xe6\\x89\\xbe\\xe6\\x9c\\x80\\xe9\\xab\\x98\\xe6\\x9c\\x89\\xe6\\x95\\x88\\xe4\\xbd\\x8d.sol\":2169:2170  3 */\n      0x03\n        /* \"solidity\\xe9\\xab\\x98\\xe7\\xba\\xa7\\xe5\\xba\\x94\\xe7\\x94\\xa8/\\xe4\\xba\\x8c\\xe5\\x88\\x86\\xe6\\x9f\\xa5\\xe6\\x89\\xbe\\xe6\\x9c\\x80\\xe9\\xab\\x98\\xe6\\x9c\\x89\\xe6\\x95\\x88\\xe4\\xbd\\x8d.sol\":2165:2183  shl(3, gt(x,0xFF)) */\n      shl\n        /* \"solidity\\xe9\\xab\\x98\\xe7\\xba\\xa7\\xe5\\xba\\x94\\xe7\\x94\\xa8/\\xe4\\xba\\x8c\\xe5\\x88\\x86\\xe6\\x9f\\xa5\\xe6\\x89\\xbe\\xe6\\x9c\\x80\\xe9\\xab\\x98\\xe6\\x9c\\x89\\xe6\\x95\\x88\\xe4\\xbd\\x8d.sol\":2289:2290  x */\n      dup3\n        /* \"solidity\\xe9\\xab\\x98\\xe7\\xba\\xa7\\xe5\\xba\\x94\\xe7\\x94\\xa8/\\xe4\\xba\\x8c\\xe5\\x88\\x86\\xe6\\x9f\\xa5\\xe6\\x89\\xbe\\xe6\\x9c\\x80\\xe9\\xab\\x98\\xe6\\x9c\\x89\\xe6\\x95\\x88\\xe4\\xbd\\x8d.sol\":2286:2287  f */\n      dup2\n        /* \"solidity\\xe9\\xab\\x98\\xe7\\xba\\xa7\\xe5\\xba\\x94\\xe7\\x94\\xa8/\\xe4\\xba\\x8c\\xe5\\x88\\x86\\xe6\\x9f\\xa5\\xe6\\x89\\xbe\\xe6\\x9c\\x80\\xe9\\xab\\x98\\xe6\\x9c\\x89\\xe6\\x95\\x88\\xe4\\xbd\\x8d.sol\":2282:2291  shr(f, x) */\n      shr\n        /* \"solidity\\xe9\\xab\\x98\\xe7\\xba\\xa7\\xe5\\xba\\x94\\xe7\\x94\\xa8/\\xe4\\xba\\x8c\\xe5\\x88\\x86\\xe6\\x9f\\xa5\\xe6\\x89\\xbe\\xe6\\x9c\\x80\\xe9\\xab\\x98\\xe6\\x9c\\x89\\xe6\\x95\\x88\\xe4\\xbd\\x8d.sol\":2277:2291  x := shr(f, x) */\n      swap3\n      pop\n        /* \"solidity\\xe9\\xab\\x98\\xe7\\xba\\xa7\\xe5\\xba\\x94\\xe7\\x94\\xa8/\\xe4\\xba\\x8c\\xe5\\x88\\x86\\xe6\\x9f\\xa5\\xe6\\x89\\xbe\\xe6\\x9c\\x80\\xe9\\xab\\x98\\xe6\\x9c\\x89\\xe6\\x95\\x88\\xe4\\xbd\\x8d.sol\":2316:2317  f */\n      dup1\n        /* \"solidity\\xe9\\xab\\x98\\xe7\\xba\\xa7\\xe5\\xba\\x94\\xe7\\x94\\xa8/\\xe4\\xba\\x8c\\xe5\\x88\\x86\\xe6\\x9f\\xa5\\xe6\\x89\\xbe\\xe6\\x9c\\x80\\xe9\\xab\\x98\\xe6\\x9c\\x89\\xe6\\x95\\x88\\xe4\\xbd\\x8d.sol\":2313:2314  r */\n      dup3\n        /* \"solidity\\xe9\\xab\\x98\\xe7\\xba\\xa7\\xe5\\xba\\x94\\xe7\\x94\\xa8/\\xe4\\xba\\x8c\\xe5\\x88\\x86\\xe6\\x9f\\xa5\\xe6\\x89\\xbe\\xe6\\x9c\\x80\\xe9\\xab\\x98\\xe6\\x9c\\x89\\xe6\\x95\\x88\\xe4\\xbd\\x8d.sol\":2310:2318  or(r, f) */\n      or\n        /* \"solidity\\xe9\\xab\\x98\\xe7\\xba\\xa7\\xe5\\xba\\x94\\xe7\\x94\\xa8/\\xe4\\xba\\x8c\\xe5\\x88\\x86\\xe6\\x9f\\xa5\\xe6\\x89\\xbe\\xe6\\x9c\\x80\\xe9\\xab\\x98\\xe6\\x9c\\x89\\xe6\\x95\\x88\\xe4\\xbd\\x8d.sol\":2305:2318  r := or(r, f) */\n      swap2\n      pop\n        /* \"solidity\\xe9\\xab\\x98\\xe7\\xba\\xa7\\xe5\\xba\\x94\\xe7\\x94\\xa8/\\xe4\\xba\\x8c\\xe5\\x88\\x86\\xe6\\x9f\\xa5\\xe6\\x89\\xbe\\xe6\\x9c\\x80\\xe9\\xab\\x98\\xe6\\x9c\\x89\\xe6\\x95\\x88\\xe4\\xbd\\x8d.sol\":2141:2329  {... */\n      pop\n        /* \"solidity\\xe9\\xab\\x98\\xe7\\xba\\xa7\\xe5\\xba\\x94\\xe7\\x94\\xa8/\\xe4\\xba\\x8c\\xe5\\x88\\x86\\xe6\\x9f\\xa5\\xe6\\x89\\xbe\\xe6\\x9c\\x80\\xe9\\xab\\x98\\xe6\\x9c\\x89\\xe6\\x95\\x88\\xe4\\xbd\\x8d.sol\":2386:2389  0xF */\n      0x0f\n        /* \"solidity\\xe9\\xab\\x98\\xe7\\xba\\xa7\\xe5\\xba\\x94\\xe7\\x94\\xa8/\\xe4\\xba\\x8c\\xe5\\x88\\x86\\xe6\\x9f\\xa5\\xe6\\x89\\xbe\\xe6\\x9c\\x80\\xe9\\xab\\x98\\xe6\\x9c\\x89\\xe6\\x95\\x88\\xe4\\xbd\\x8d.sol\":2384:2385  x */\n      dup3\n        /* \"solidity\\xe9\\xab\\x98\\xe7\\xba\\xa7\\xe5\\xba\\x94\\xe7\\x94\\xa8/\\xe4\\xba\\x8c\\xe5\\x88\\x86\\xe6\\x9f\\xa5\\xe6\\x89\\xbe\\xe6\\x9c\\x80\\xe9\\xab\\x98\\xe6\\x9c\\x89\\xe6\\x95\\x88\\xe4\\xbd\\x8d.sol\":2381:2390  gt(x,0xF) */\n      gt\n        /* \"solidity\\xe9\\xab\\x98\\xe7\\xba\\xa7\\xe5\\xba\\x94\\xe7\\x94\\xa8/\\xe4\\xba\\x8c\\xe5\\x88\\x86\\xe6\\x9f\\xa5\\xe6\\x89\\xbe\\xe6\\x9c\\x80\\xe9\\xab\\x98\\xe6\\x9c\\x89\\xe6\\x95\\x88\\xe4\\xbd\\x8d.sol\":2378:2379  2 */\n      0x02\n        /* \"solidity\\xe9\\xab\\x98\\xe7\\xba\\xa7\\xe5\\xba\\x94\\xe7\\x94\\xa8/\\xe4\\xba\\x8c\\xe5\\x88\\x86\\xe6\\x9f\\xa5\\xe6\\x89\\xbe\\xe6\\x9c\\x80\\xe9\\xab\\x98\\xe6\\x9c\\x89\\xe6\\x95\\x88\\xe4\\xbd\\x8d.sol\":2374:2391  shl(2, gt(x,0xF)) */\n      shl\n        /* \"solidity\\xe9\\xab\\x98\\xe7\\xba\\xa7\\xe5\\xba\\x94\\xe7\\x94\\xa8/\\xe4\\xba\\x8c\\xe5\\x88\\x86\\xe6\\x9f\\xa5\\xe6\\x89\\xbe\\xe6\\x9c\\x80\\xe9\\xab\\x98\\xe6\\x9c\\x89\\xe6\\x95\\x88\\xe4\\xbd\\x8d.sol\":2495:2496  x */\n      dup3\n        /* \"solidity\\xe9\\xab\\x98\\xe7\\xba\\xa7\\xe5\\xba\\x94\\xe7\\x94\\xa8/\\xe4\\xba\\x8c\\xe5\\x88\\x86\\xe6\\x9f\\xa5\\xe6\\x89\\xbe\\xe6\\x9c\\x80\\xe9\\xab\\x98\\xe6\\x9c\\x89\\xe6\\x95\\x88\\xe4\\xbd\\x8d.sol\":2492:2493  f */\n      dup2\n        /* \"solidity\\xe9\\xab\\x98\\xe7\\xba\\xa7\\xe5\\xba\\x94\\xe7\\x94\\xa8/\\xe4\\xba\\x8c\\xe5\\x88\\x86\\xe6\\x9f\\xa5\\xe6\\x89\\xbe\\xe6\\x9c\\x80\\xe9\\xab\\x98\\xe6\\x9c\\x89\\xe6\\x95\\x88\\xe4\\xbd\\x8d.sol\":2488:2497  shr(f, x) */\n      shr\n        /* \"solidity\\xe9\\xab\\x98\\xe7\\xba\\xa7\\xe5\\xba\\x94\\xe7\\x94\\xa8/\\xe4\\xba\\x8c\\xe5\\x88\\x86\\xe6\\x9f\\xa5\\xe6\\x89\\xbe\\xe6\\x9c\\x80\\xe9\\xab\\x98\\xe6\\x9c\\x89\\xe6\\x95\\x88\\xe4\\xbd\\x8d.sol\":2483:2497  x := shr(f, x) */\n      swap3\n      pop\n        /* \"solidity\\xe9\\xab\\x98\\xe7\\xba\\xa7\\xe5\\xba\\x94\\xe7\\x94\\xa8/\\xe4\\xba\\x8c\\xe5\\x88\\x86\\xe6\\x9f\\xa5\\xe6\\x89\\xbe\\xe6\\x9c\\x80\\xe9\\xab\\x98\\xe6\\x9c\\x89\\xe6\\x95\\x88\\xe4\\xbd\\x8d.sol\":2522:2523  f */\n      dup1\n        /* \"solidity\\xe9\\xab\\x98\\xe7\\xba\\xa7\\xe5\\xba\\x94\\xe7\\x94\\xa8/\\xe4\\xba\\x8c\\xe5\\x88\\x86\\xe6\\x9f\\xa5\\xe6\\x89\\xbe\\xe6\\x9c\\x80\\xe9\\xab\\x98\\xe6\\x9c\\x89\\xe6\\x95\\x88\\xe4\\xbd\\x8d.sol\":2519:2520  r */\n      dup3\n        /* \"solidity\\xe9\\xab\\x98\\xe7\\xba\\xa7\\xe5\\xba\\x94\\xe7\\x94\\xa8/\\xe4\\xba\\x8c\\xe5\\x88\\x86\\xe6\\x9f\\xa5\\xe6\\x89\\xbe\\xe6\\x9c\\x80\\xe9\\xab\\x98\\xe6\\x9c\\x89\\xe6\\x95\\x88\\xe4\\xbd\\x8d.sol\":2516:2524  or(r, f) */\n      or\n        /* \"solidity\\xe9\\xab\\x98\\xe7\\xba\\xa7\\xe5\\xba\\x94\\xe7\\x94\\xa8/\\xe4\\xba\\x8c\\xe5\\x88\\x86\\xe6\\x9f\\xa5\\xe6\\x89\\xbe\\xe6\\x9c\\x80\\xe9\\xab\\x98\\xe6\\x9c\\x89\\xe6\\x95\\x88\\xe4\\xbd\\x8d.sol\":2511:2524  r := or(r, f) */\n      swap2\n      pop\n        /* \"solidity\\xe9\\xab\\x98\\xe7\\xba\\xa7\\xe5\\xba\\x94\\xe7\\x94\\xa8/\\xe4\\xba\\x8c\\xe5\\x88\\x86\\xe6\\x9f\\xa5\\xe6\\x89\\xbe\\xe6\\x9c\\x80\\xe9\\xab\\x98\\xe6\\x9c\\x89\\xe6\\x95\\x88\\xe4\\xbd\\x8d.sol\":2350:2535  {... */\n      pop\n        /* \"solidity\\xe9\\xab\\x98\\xe7\\xba\\xa7\\xe5\\xba\\x94\\xe7\\x94\\xa8/\\xe4\\xba\\x8c\\xe5\\x88\\x86\\xe6\\x9f\\xa5\\xe6\\x89\\xbe\\xe6\\x9c\\x80\\xe9\\xab\\x98\\xe6\\x9c\\x89\\xe6\\x95\\x88\\xe4\\xbd\\x8d.sol\":2600:2603  0x3 */\n      0x03\n        /* \"solidity\\xe9\\xab\\x98\\xe7\\xba\\xa7\\xe5\\xba\\x94\\xe7\\x94\\xa8/\\xe4\\xba\\x8c\\xe5\\x88\\x86\\xe6\\x9f\\xa5\\xe6\\x89\\xbe\\xe6\\x9c\\x80\\xe9\\xab\\x98\\xe6\\x9c\\x89\\xe6\\x95\\x88\\xe4\\xbd\\x8d.sol\":2598:2599  x */\n      dup3\n        /* \"solidity\\xe9\\xab\\x98\\xe7\\xba\\xa7\\xe5\\xba\\x94\\xe7\\x94\\xa8/\\xe4\\xba\\x8c\\xe5\\x88\\x86\\xe6\\x9f\\xa5\\xe6\\x89\\xbe\\xe6\\x9c\\x80\\xe9\\xab\\x98\\xe6\\x9c\\x89\\xe6\\x95\\x88\\xe4\\xbd\\x8d.sol\":2595:2604  gt(x,0x3) */\n      gt\n        /* \"solidity\\xe9\\xab\\x98\\xe7\\xba\\xa7\\xe5\\xba\\x94\\xe7\\x94\\xa8/\\xe4\\xba\\x8c\\xe5\\x88\\x86\\xe6\\x9f\\xa5\\xe6\\x89\\xbe\\xe6\\x9c\\x80\\xe9\\xab\\x98\\xe6\\x9c\\x89\\xe6\\x95\\x88\\xe4\\xbd\\x8d.sol\":2592:2593  1 */\n      0x01\n        /* \"solidity\\xe9\\xab\\x98\\xe7\\xba\\xa7\\xe5\\xba\\x94\\xe7\\x94\\xa8/\\xe4\\xba\\x8c\\xe5\\x88\\x86\\xe6\\x9f\\xa5\\xe6\\x89\\xbe\\xe6\\x9c\\x80\\xe9\\xab\\x98\\xe6\\x9c\\x89\\xe6\\x95\\x88\\xe4\\xbd\\x8d.sol\":2588:2605  shl(1, gt(x,0x3)) */\n      shl\n        /* \"solidity\\xe9\\xab\\x98\\xe7\\xba\\xa7\\xe5\\xba\\x94\\xe7\\x94\\xa8/\\xe4\\xba\\x8c\\xe5\\x88\\x86\\xe6\\x9f\\xa5\\xe6\\x89\\xbe\\xe6\\x9c\\x80\\xe9\\xab\\x98\\xe6\\x9c\\x89\\xe6\\x95\\x88\\xe4\\xbd\\x8d.sol\":2706:2707  x */\n      dup3\n        /* \"solidity\\xe9\\xab\\x98\\xe7\\xba\\xa7\\xe5\\xba\\x94\\xe7\\x94\\xa8/\\xe4\\xba\\x8c\\xe5\\x88\\x86\\xe6\\x9f\\xa5\\xe6\\x89\\xbe\\xe6\\x9c\\x80\\xe9\\xab\\x98\\xe6\\x9c\\x89\\xe6\\x95\\x88\\xe4\\xbd\\x8d.sol\":2703:2704  f */\n      dup2\n        /* \"solidity\\xe9\\xab\\x98\\xe7\\xba\\xa7\\xe5\\xba\\x94\\xe7\\x94\\xa8/\\xe4\\xba\\x8c\\xe5\\x88\\x86\\xe6\\x9f\\xa5\\xe6\\x89\\xbe\\xe6\\x9c\\x80\\xe9\\xab\\x98\\xe6\\x9c\\x89\\xe6\\x95\\x88\\xe4\\xbd\\x8d.sol\":2699:2708  shr(f, x) */\n      shr\n        /* \"solidity\\xe9\\xab\\x98\\xe7\\xba\\xa7\\xe5\\xba\\x94\\xe7\\x94\\xa8/\\xe4\\xba\\x8c\\xe5\\x88\\x86\\xe6\\x9f\\xa5\\xe6\\x89\\xbe\\xe6\\x9c\\x80\\xe9\\xab\\x98\\xe6\\x9c\\x89\\xe6\\x95\\x88\\xe4\\xbd\\x8d.sol\":2694:2708  x := shr(f, x) */\n      swap3\n      pop\n        /* \"solidity\\xe9\\xab\\x98\\xe7\\xba\\xa7\\xe5\\xba\\x94\\xe7\\x94\\xa8/\\xe4\\xba\\x8c\\xe5\\x88\\x86\\xe6\\x9f\\xa5\\xe6\\x89\\xbe\\xe6\\x9c\\x80\\xe9\\xab\\x98\\xe6\\x9c\\x89\\xe6\\x95\\x88\\xe4\\xbd\\x8d.sol\":2733:2734  f */\n      dup1\n        /* \"solidity\\xe9\\xab\\x98\\xe7\\xba\\xa7\\xe5\\xba\\x94\\xe7\\x94\\xa8/\\xe4\\xba\\x8c\\xe5\\x88\\x86\\xe6\\x9f\\xa5\\xe6\\x89\\xbe\\xe6\\x9c\\x80\\xe9\\xab\\x98\\xe6\\x9c\\x89\\xe6\\x95\\x88\\xe4\\xbd\\x8d.sol\":2730:2731  r */\n      dup3\n        /* \"solidity\\xe9\\xab\\x98\\xe7\\xba\\xa7\\xe5\\xba\\x94\\xe7\\x94\\xa8/\\xe4\\xba\\x8c\\xe5\\x88\\x86\\xe6\\x9f\\xa5\\xe6\\x89\\xbe\\xe6\\x9c\\x80\\xe9\\xab\\x98\\xe6\\x9c\\x89\\xe6\\x95\\x88\\xe4\\xbd\\x8d.sol\":2727:2735  or(r, f) */\n      or\n        /* \"solidity\\xe9\\xab\\x98\\xe7\\xba\\xa7\\xe5\\xba\\x94\\xe7\\x94\\xa8/\\xe4\\xba\\x8c\\xe5\\x88\\x86\\xe6\\x9f\\xa5\\xe6\\x89\\xbe\\xe6\\x9c\\x80\\xe9\\xab\\x98\\xe6\\x9c\\x89\\xe6\\x95\\x88\\xe4\\xbd\\x8d.sol\":2722:2735  r := or(r, f) */\n      swap2\n      pop\n        /* \"solidity\\xe9\\xab\\x98\\xe7\\xba\\xa7\\xe5\\xba\\x94\\xe7\\x94\\xa8/\\xe4\\xba\\x8c\\xe5\\x88\\x86\\xe6\\x9f\\xa5\\xe6\\x89\\xbe\\xe6\\x9c\\x80\\xe9\\xab\\x98\\xe6\\x9c\\x89\\xe6\\x95\\x88\\xe4\\xbd\\x8d.sol\":2564:2746  {... */\n      pop\n        /* \"solidity\\xe9\\xab\\x98\\xe7\\xba\\xa7\\xe5\\xba\\x94\\xe7\\x94\\xa8/\\xe4\\xba\\x8c\\xe5\\x88\\x86\\xe6\\x9f\\xa5\\xe6\\x89\\xbe\\xe6\\x9c\\x80\\xe9\\xab\\x98\\xe6\\x9c\\x89\\xe6\\x95\\x88\\xe4\\xbd\\x8d.sol\":3124:3127  0x1 */\n      0x01\n        /* \"solidity\\xe9\\xab\\x98\\xe7\\xba\\xa7\\xe5\\xba\\x94\\xe7\\x94\\xa8/\\xe4\\xba\\x8c\\xe5\\x88\\x86\\xe6\\x9f\\xa5\\xe6\\x89\\xbe\\xe6\\x9c\\x80\\xe9\\xab\\x98\\xe6\\x9c\\x89\\xe6\\x95\\x88\\xe4\\xbd\\x8d.sol\":3121:3122  x */\n      dup3\n        /* \"solidity\\xe9\\xab\\x98\\xe7\\xba\\xa7\\xe5\\xba\\x94\\xe7\\x94\\xa8/\\xe4\\xba\\x8c\\xe5\\x88\\x86\\xe6\\x9f\\xa5\\xe6\\x89\\xbe\\xe6\\x9c\\x80\\xe9\\xab\\x98\\xe6\\x9c\\x89\\xe6\\x95\\x88\\xe4\\xbd\\x8d.sol\":3118:3128  gt(x, 0x1) */\n      gt\n        /* \"solidity\\xe9\\xab\\x98\\xe7\\xba\\xa7\\xe5\\xba\\x94\\xe7\\x94\\xa8/\\xe4\\xba\\x8c\\xe5\\x88\\x86\\xe6\\x9f\\xa5\\xe6\\x89\\xbe\\xe6\\x9c\\x80\\xe9\\xab\\x98\\xe6\\x9c\\x89\\xe6\\x95\\x88\\xe4\\xbd\\x8d.sol\":3153:3154  f */\n      dup1\n        /* \"solidity\\xe9\\xab\\x98\\xe7\\xba\\xa7\\xe5\\xba\\x94\\xe7\\x94\\xa8/\\xe4\\xba\\x8c\\xe5\\x88\\x86\\xe6\\x9f\\xa5\\xe6\\x89\\xbe\\xe6\\x9c\\x80\\xe9\\xab\\x98\\xe6\\x9c\\x89\\xe6\\x95\\x88\\xe4\\xbd\\x8d.sol\":3150:3151  r */\n      dup3\n        /* \"solidity\\xe9\\xab\\x98\\xe7\\xba\\xa7\\xe5\\xba\\x94\\xe7\\x94\\xa8/\\xe4\\xba\\x8c\\xe5\\x88\\x86\\xe6\\x9f\\xa5\\xe6\\x89\\xbe\\xe6\\x9c\\x80\\xe9\\xab\\x98\\xe6\\x9c\\x89\\xe6\\x95\\x88\\xe4\\xbd\\x8d.sol\":3147:3155  or(r, f) */\n      or\n        /* \"solidity\\xe9\\xab\\x98\\xe7\\xba\\xa7\\xe5\\xba\\x94\\xe7\\x94\\xa8/\\xe4\\xba\\x8c\\xe5\\x88\\x86\\xe6\\x9f\\xa5\\xe6\\x89\\xbe\\xe6\\x9c\\x80\\xe9\\xab\\x98\\xe6\\x9c\\x89\\xe6\\x95\\x88\\xe4\\xbd\\x8d.sol\":3142:3155  r := or(r, f) */\n      swap2\n      pop\n        /* \"solidity\\xe9\\xab\\x98\\xe7\\xba\\xa7\\xe5\\xba\\x94\\xe7\\x94\\xa8/\\xe4\\xba\\x8c\\xe5\\x88\\x86\\xe6\\x9f\\xa5\\xe6\\x89\\xbe\\xe6\\x9c\\x80\\xe9\\xab\\x98\\xe6\\x9c\\x89\\xe6\\x95\\x88\\xe4\\xbd\\x8d.sol\":3094:3166  {... */\n      pop\n        /* \"solidity\\xe9\\xab\\x98\\xe7\\xba\\xa7\\xe5\\xba\\x94\\xe7\\x94\\xa8/\\xe4\\xba\\x8c\\xe5\\x88\\x86\\xe6\\x9f\\xa5\\xe6\\x89\\xbe\\xe6\\x9c\\x80\\xe9\\xab\\x98\\xe6\\x9c\\x89\\xe6\\x95\\x88\\xe4\\xbd\\x8d.sol\":1457:3173  function findMostSignificantBitAssembly(uint256 x) public pure returns (uint8 r) {... */\n      swap2\n      swap1\n      pop\n      jump\t// out\n        /* \"#utility.yul\":88:205   */\n    tag_35:\n        /* \"#utility.yul\":197:198   */\n      0x00\n        /* \"#utility.yul\":194:195   */\n      0x00\n        /* \"#utility.yul\":187:199   */\n      revert\n        /* \"#utility.yul\":334:411   */\n    tag_37:\n        /* \"#utility.yul\":371:378   */\n      0x00\n        /* \"#utility.yul\":400:405   */\n      dup2\n        /* \"#utility.yul\":389:405   */\n      swap1\n      pop\n        /* \"#utility.yul\":334:411   */\n      swap2\n      swap1\n      pop\n      jump\t// out\n        /* \"#utility.yul\":417:539   */\n    tag_38:\n        /* \"#utility.yul\":490:514   */\n      tag_49\n        /* \"#utility.yul\":508:513   */\n      dup2\n        /* \"#utility.yul\":490:514   */\n      tag_37\n      jump\t// in\n    tag_49:\n        /* \"#utility.yul\":483:488   */\n      dup2\n        /* \"#utility.yul\":480:515   */\n      eq\n        /* \"#utility.yul\":470:533   */\n      tag_50\n      jumpi\n        /* \"#utility.yul\":529:530   */\n      0x00\n        /* \"#utility.yul\":526:527   */\n      0x00\n        /* \"#utility.yul\":519:531   */\n      revert\n        /* \"#utility.yul\":470:533   */\n    tag_50:\n        /* \"#utility.yul\":417:539   */\n      pop\n      jump\t// out\n        /* \"#utility.yul\":545:684   */\n    tag_39:\n        /* \"#utility.yul\":591:596   */\n      0x00\n        /* \"#utility.yul\":629:635   */\n      dup2\n        /* \"#utility.yul\":616:636   */\n      calldataload\n        /* \"#utility.yul\":607:636   */\n      swap1\n      pop\n        /* \"#utility.yul\":645:678   */\n      tag_52\n        /* \"#utility.yul\":672:677   */\n      dup2\n        /* \"#utility.yul\":645:678   */\n      tag_38\n      jump\t// in\n    tag_52:\n        /* \"#utility.yul\":545:684   */\n      swap3\n      swap2\n      pop\n      pop\n      jump\t// out\n        /* \"#utility.yul\":690:1019   */\n    tag_7:\n        /* \"#utility.yul\":749:755   */\n      0x00\n        /* \"#utility.yul\":798:800   */\n      0x20\n        /* \"#utility.yul\":786:795   */\n      dup3\n        /* \"#utility.yul\":777:784   */\n      dup5\n        /* \"#utility.yul\":773:796   */\n      sub\n        /* \"#utility.yul\":769:801   */\n      slt\n        /* \"#utility.yul\":766:885   */\n      iszero\n      tag_54\n      jumpi\n        /* \"#utility.yul\":804:883   */\n      tag_55\n      tag_35\n      jump\t// in\n    tag_55:\n        /* \"#utility.yul\":766:885   */\n    tag_54:\n        /* \"#utility.yul\":924:925   */\n      0x00\n        /* \"#utility.yul\":949:1002   */\n      tag_56\n        /* \"#utility.yul\":994:1001   */\n      dup5\n        /* \"#utility.yul\":985:991   */\n      dup3\n        /* \"#utility.yul\":974:983   */\n      dup6\n        /* \"#utility.yul\":970:992   */\n      add\n        /* \"#utility.yul\":949:1002   */\n      tag_39\n      jump\t// in\n    tag_56:\n        /* \"#utility.yul\":939:1002   */\n      swap2\n      pop\n        /* \"#utility.yul\":895:1012   */\n      pop\n        /* \"#utility.yul\":690:1019   */\n      swap3\n      swap2\n      pop\n      pop\n      jump\t// out\n        /* \"#utility.yul\":1025:1111   */\n    tag_40:\n        /* \"#utility.yul\":1060:1067   */\n      0x00\n        /* \"#utility.yul\":1100:1104   */\n      0xff\n        /* \"#utility.yul\":1093:1098   */\n      dup3\n        /* \"#utility.yul\":1089:1105   */\n      and\n        /* \"#utility.yul\":1078:1105   */\n      swap1\n      pop\n        /* \"#utility.yul\":1025:1111   */\n      swap2\n      swap1\n      pop\n      jump\t// out\n        /* \"#utility.yul\":1117:1229   */\n    tag_41:\n        /* \"#utility.yul\":1200:1222   */\n      tag_59\n        /* \"#utility.yul\":1216:1221   */\n      dup2\n        /* \"#utility.yul\":1200:1222   */\n      tag_40\n      jump\t// in\n    tag_59:\n        /* \"#utility.yul\":1195:1198   */\n      dup3\n        /* \"#utility.yul\":1188:1223   */\n      mstore\n        /* \"#utility.yul\":1117:1229   */\n      pop\n      pop\n      jump\t// out\n        /* \"#utility.yul\":1235:1449   */\n    tag_10:\n        /* \"#utility.yul\":1324:1328   */\n      0x00\n        /* \"#utility.yul\":1362:1364   */\n      0x20\n        /* \"#utility.yul\":1351:1360   */\n      dup3\n        /* \"#utility.yul\":1347:1365   */\n      add\n        /* \"#utility.yul\":1339:1365   */\n      swap1\n      pop\n        /* \"#utility.yul\":1375:1442   */\n      tag_61\n        /* \"#utility.yul\":1439:1440   */\n      0x00\n        /* \"#utility.yul\":1428:1437   */\n      dup4\n        /* \"#utility.yul\":1424:1441   */\n      add\n        /* \"#utility.yul\":1415:1421   */\n      dup5\n        /* \"#utility.yul\":1375:1442   */\n      tag_41\n      jump\t// in\n    tag_61:\n        /* \"#utility.yul\":1235:1449   */\n      swap3\n      swap2\n      pop\n      pop\n      jump\t// out\n        /* \"#utility.yul\":1455:1635   */\n    tag_42:\n        /* \"#utility.yul\":1503:1580   */\n      0x4e487b7100000000000000000000000000000000000000000000000000000000\n        /* \"#utility.yul\":1500:1501   */\n      0x00\n        /* \"#utility.yul\":1493:1581   */\n      mstore\n        /* \"#utility.yul\":1600:1604   */\n      0x11\n        /* \"#utility.yul\":1597:1598   */\n      0x04\n        /* \"#utility.yul\":1590:1605   */\n      mstore\n        /* \"#utility.yul\":1624:1628   */\n      0x24\n        /* \"#utility.yul\":1621:1622   */\n      0x00\n        /* \"#utility.yul\":1614:1629   */\n      revert\n        /* \"#utility.yul\":1641:1829   */\n    tag_18:\n        /* \"#utility.yul\":1679:1682   */\n      0x00\n        /* \"#utility.yul\":1698:1716   */\n      tag_64\n        /* \"#utility.yul\":1714:1715   */\n      dup3\n        /* \"#utility.yul\":1698:1716   */\n      tag_40\n      jump\t// in\n    tag_64:\n        /* \"#utility.yul\":1693:1716   */\n      swap2\n      pop\n        /* \"#utility.yul\":1730:1748   */\n      tag_65\n        /* \"#utility.yul\":1746:1747   */\n      dup4\n        /* \"#utility.yul\":1730:1748   */\n      tag_40\n      jump\t// in\n    tag_65:\n        /* \"#utility.yul\":1725:1748   */\n      swap3\n      pop\n        /* \"#utility.yul\":1771:1772   */\n      dup3\n        /* \"#utility.yul\":1768:1769   */\n      dup3\n        /* \"#utility.yul\":1764:1773   */\n      add\n        /* \"#utility.yul\":1757:1773   */\n      swap1\n      pop\n        /* \"#utility.yul\":1794:1798   */\n      0xff\n        /* \"#utility.yul\":1789:1792   */\n      dup2\n        /* \"#utility.yul\":1786:1799   */\n      gt\n        /* \"#utility.yul\":1783:1822   */\n      iszero\n      tag_66\n      jumpi\n        /* \"#utility.yul\":1802:1820   */\n      tag_67\n      tag_42\n      jump\t// in\n    tag_67:\n        /* \"#utility.yul\":1783:1822   */\n    tag_66:\n        /* \"#utility.yul\":1641:1829   */\n      swap3\n      swap2\n      pop\n      pop\n      jump\t// out\n\n    auxdata: 0xa2646970667358221220c0913827c8e23ee8b9f04329d76022750b874bb11543f718830070745394a12664736f6c63430008220033\n}\n",
				"bytecode": {
					"linkReferences": {},
					"object": "6080604052348015600e575f5ffd5b506103838061001c5f395ff3fe608060405234801561000f575f5ffd5b5060043610610034575f3560e01c8063483d868d14610038578063ebce4cc914610068575b5f5ffd5b610052600480360381019061004d919061028d565b610098565b60405161005f91906102d3565b60405180910390f35b610082600480360381019061007d919061028d565b6101ae565b60405161008f91906102d3565b60405180910390f35b5f70010000000000000000000000000000000082106100c857608082901c91506080816100c59190610319565b90505b6801000000000000000082106100ef57604082901c91506040816100ec9190610319565b90505b640100000000821061011257602082901c915060208161010f9190610319565b90505b62010000821061013357601082901c91506010816101309190610319565b90505b610100821061015357600882901c91506008816101509190610319565b90505b6010821061017257600482901c915060048161016f9190610319565b90505b6004821061019157600282901c915060028161018e9190610319565b90505b600282106101a9576001816101a69190610319565b90505b919050565b5f6fffffffffffffffffffffffffffffffff821160071b82811c925080821791505067ffffffffffffffff821160061b82811c925080821791505063ffffffff821160051b82811c925080821791505061ffff821160041b82811c925080821791505060ff821160031b82811c9250808217915050600f821160021b82811c92508082179150506003821160011b82811c925080821791505060018211808217915050919050565b5f5ffd5b5f819050919050565b61026c8161025a565b8114610276575f5ffd5b50565b5f8135905061028781610263565b92915050565b5f602082840312156102a2576102a1610256565b5b5f6102af84828501610279565b91505092915050565b5f60ff82169050919050565b6102cd816102b8565b82525050565b5f6020820190506102e65f8301846102c4565b92915050565b7f4e487b71000000000000000000000000000000000000000000000000000000005f52601160045260245ffd5b5f610323826102b8565b915061032e836102b8565b9250828201905060ff811115610347576103466102ec565b5b9291505056fea2646970667358221220c0913827c8e23ee8b9f04329d76022750b874bb11543f718830070745394a12664736f6c63430008220033",
					"opcodes": "PUSH1 0x80 PUSH1 0x40 MSTORE CALLVALUE DUP1 ISZERO PUSH1 0xE JUMPI PUSH0 PUSH0 REVERT JUMPDEST POP PUSH2 0x383 DUP1 PUSH2 0x1C PUSH0 CODECOPY PUSH0 RETURN INVALID PUSH1 0x80 PUSH1 0x40 MSTORE CALLVALUE DUP1 ISZERO PUSH2 0xF JUMPI PUSH0 PUSH0 REVERT JUMPDEST POP PUSH1 0x4 CALLDATASIZE LT PUSH2 0x34 JUMPI PUSH0 CALLDATALOAD PUSH1 0xE0 SHR DUP1 PUSH4 0x483D868D EQ PUSH2 0x38 JUMPI DUP1 PUSH4 0xEBCE4CC9 EQ PUSH2 0x68 JUMPI JUMPDEST PUSH0 PUSH0 REVERT JUMPDEST PUSH2 0x52 PUSH1 0x4 DUP1 CALLDATASIZE SUB DUP2 ADD SWAP1 PUSH2 0x4D SWAP2 SWAP1 PUSH2 0x28D JUMP JUMPDEST PUSH2 0x98 JUMP JUMPDEST PUSH1 0x40 MLOAD PUSH2 0x5F SWAP2 SWAP1 PUSH2 0x2D3 JUMP JUMPDEST PUSH1 0x40 MLOAD DUP1 SWAP2 SUB SWAP1 RETURN JUMPDEST PUSH2 0x82 PUSH1 0x4 DUP1 CALLDATASIZE SUB DUP2 ADD SWAP1 PUSH2 0x7D SWAP2 SWAP1 PUSH2 0x28D JUMP JUMPDEST PUSH2 0x1AE JUMP JUMPDEST PUSH1 0x40 MLOAD PUSH2 0x8F SWAP2 SWAP1 PUSH2 0x2D3 JUMP JUMPDEST PUSH1 0x40 MLOAD DUP1 SWAP2 SUB SWAP1 RETURN JUMPDEST PUSH0 PUSH17 0x100000000000000000000000000000000 DUP3 LT PUSH2 0xC8 JUMPI PUSH1 0x80 DUP3 SWAP1 SHR SWAP2 POP PUSH1 0x80 DUP2 PUSH2 0xC5 SWAP2 SWAP1 PUSH2 0x319 JUMP JUMPDEST SWAP1 POP JUMPDEST PUSH9 0x10000000000000000 DUP3 LT PUSH2 0xEF JUMPI PUSH1 0x40 DUP3 SWAP1 SHR SWAP2 POP PUSH1 0x40 DUP2 PUSH2 0xEC SWAP2 SWAP1 PUSH2 0x319 JUMP JUMPDEST SWAP1 POP JUMPDEST PUSH5 0x100000000 DUP3 LT PUSH2 0x112 JUMPI PUSH1 0x20 DUP3 SWAP1 SHR SWAP2 POP PUSH1 0x20 DUP2 PUSH2 0x10F SWAP2 SWAP1 PUSH2 0x319 JUMP JUMPDEST SWAP1 POP JUMPDEST PUSH3 0x10000 DUP3 LT PUSH2 0x133 JUMPI PUSH1 0x10 DUP3 SWAP1 SHR SWAP2 POP PUSH1 0x10 DUP2 PUSH2 0x130 SWAP2 SWAP1 PUSH2 0x319 JUMP JUMPDEST SWAP1 POP JUMPDEST PUSH2 0x100 DUP3 LT PUSH2 0x153 JUMPI PUSH1 0x8 DUP3 SWAP1 SHR SWAP2 POP PUSH1 0x8 DUP2 PUSH2 0x150 SWAP2 SWAP1 PUSH2 0x319 JUMP JUMPDEST SWAP1 POP JUMPDEST PUSH1 0x10 DUP3 LT PUSH2 0x172 JUMPI PUSH1 0x4 DUP3 SWAP1 SHR SWAP2 POP PUSH1 0x4 DUP2 PUSH2 0x16F SWAP2 SWAP1 PUSH2 0x319 JUMP JUMPDEST SWAP1 POP JUMPDEST PUSH1 0x4 DUP3 LT PUSH2 0x191 JUMPI PUSH1 0x2 DUP3 SWAP1 SHR SWAP2 POP PUSH1 0x2 DUP2 PUSH2 0x18E SWAP2 SWAP1 PUSH2 0x319 JUMP JUMPDEST SWAP1 POP JUMPDEST PUSH1 0x2 DUP3 LT PUSH2 0x1A9 JUMPI PUSH1 0x1 DUP2 PUSH2 0x1A6 SWAP2 SWAP1 PUSH2 0x319 JUMP JUMPDEST SWAP1 POP JUMPDEST SWAP2 SWAP1 POP JUMP JUMPDEST PUSH0 PUSH16 0xFFFFFFFFFFFFFFFFFFFFFFFFFFFFFFFF DUP3 GT PUSH1 0x7 SHL DUP3 DUP2 SHR SWAP3 POP DUP1 DUP3 OR SWAP2 POP POP PUSH8 0xFFFFFFFFFFFFFFFF DUP3 GT PUSH1 0x6 SHL DUP3 DUP2 SHR SWAP3 POP DUP1 DUP3 OR SWAP2 POP POP PUSH4 0xFFFFFFFF DUP3 GT PUSH1 0x5 SHL DUP3 DUP2 SHR SWAP3 POP DUP1 DUP3 OR SWAP2 POP POP PUSH2 0xFFFF DUP3 GT PUSH1 0x4 SHL DUP3 DUP2 SHR SWAP3 POP DUP1 DUP3 OR SWAP2 POP POP PUSH1 0xFF DUP3 GT PUSH1 0x3 SHL DUP3 DUP2 SHR SWAP3 POP DUP1 DUP3 OR SWAP2 POP POP PUSH1 0xF DUP3 GT PUSH1 0x2 SHL DUP3 DUP2 SHR SWAP3 POP DUP1 DUP3 OR SWAP2 POP POP PUSH1 0x3 DUP3 GT PUSH1 0x1 SHL DUP3 DUP2 SHR SWAP3 POP DUP1 DUP3 OR SWAP2 POP POP PUSH1 0x1 DUP3 GT DUP1 DUP3 OR SWAP2 POP POP SWAP2 SWAP1 POP JUMP JUMPDEST PUSH0 PUSH0 REVERT JUMPDEST PUSH0 DUP2 SWAP1 POP SWAP2 SWAP1 POP JUMP JUMPDEST PUSH2 0x26C DUP2 PUSH2 0x25A JUMP JUMPDEST DUP2 EQ PUSH2 0x276 JUMPI PUSH0 PUSH0 REVERT JUMPDEST POP JUMP JUMPDEST PUSH0 DUP2 CALLDATALOAD SWAP1 POP PUSH2 0x287 DUP2 PUSH2 0x263 JUMP JUMPDEST SWAP3 SWAP2 POP POP JUMP JUMPDEST PUSH0 PUSH1 0x20 DUP3 DUP5 SUB SLT ISZERO PUSH2 0x2A2 JUMPI PUSH2 0x2A1 PUSH2 0x256 JUMP JUMPDEST JUMPDEST PUSH0 PUSH2 0x2AF DUP5 DUP3 DUP6 ADD PUSH2 0x279 JUMP JUMPDEST SWAP2 POP POP SWAP3 SWAP2 POP POP JUMP JUMPDEST PUSH0 PUSH1 0xFF DUP3 AND SWAP1 POP SWAP2 SWAP1 POP JUMP JUMPDEST PUSH2 0x2CD DUP2 PUSH2 0x2B8 JUMP JUMPDEST DUP3 MSTORE POP POP JUMP JUMPDEST PUSH0 PUSH1 0x20 DUP3 ADD SWAP1 POP PUSH2 0x2E6 PUSH0 DUP4 ADD DUP5 PUSH2 0x2C4 JUMP JUMPDEST SWAP3 SWAP2 POP POP JUMP JUMPDEST PUSH32 0x4E487B7100000000000000000000000000000000000000000000000000000000 PUSH0 MSTORE PUSH1 0x11 PUSH1 0x4 MSTORE PUSH1 0x24 PUSH0 REVERT JUMPDEST PUSH0 PUSH2 0x323 DUP3 PUSH2 0x2B8 JUMP JUMPDEST SWAP2 POP PUSH2 0x32E DUP4 PUSH2 0x2B8 JUMP JUMPDEST SWAP3 POP DUP3 DUP3 ADD SWAP1 POP PUSH1 0xFF DUP2 GT ISZERO PUSH2 0x347 JUMPI PUSH2 0x346 PUSH2 0x2EC JUMP JUMPDEST JUMPDEST SWAP3 SWAP2 POP POP JUMP INVALID LOG2 PUSH5 0x6970667358 0x22 SLT KECCAK256 0xC0 SWAP2 CODESIZE 0x27 0xC8 0xE2 RETURNDATACOPY 0xE8 0xB9 CREATE NUMBER 0x29 0xD7 PUSH1 0x22 PUSH22 0xB874BB11543F718830070745394A12664736F6C6343 STOP ADDMOD 0x22 STOP CALLER "
				},
				"gasEstimates": {
					"creation": {
						"codeDepositCost": "179800",
						"executionCost": "224",
						"totalCost": "180024"
					},
					"external": {
						"findMostSignificantBit(uint256)": "infinite",
						"findMostSignificantBitAssembly(uint256)": "931"
					}
				},
				"methodIdentifiers": {
					"findMostSignificantBit(uint256)": "483d868d",
					"findMostSignificantBitAssembly(uint256)": "ebce4cc9"
				}
			},
			"storageLayout": {
				"storage": [],
				"types": null
			},
			"userdoc": {
				"kind": "user",
				"methods": {},
				"version": 1
			}
		}
	}
}