{
	"solidity基础/基础.sol": {
		"HelloWrold": {
			"abi": [
				{
					"inputs": [
						{
							"internalType": "uint256",
							"name": "x",
							"type": "uint256"
						},
						{
							"internalType": "uint256",
							"name": "y",
							"type": "uint256"
						}
					],
					"name": "add",
					"outputs": [
						{
							"internalType": "uint256",
							"name": "",
							"type": "uint256"
						}
					],
					"stateMutability": "pure",
					"type": "function"
				},
				{
					"inputs": [],
					"name": "addr",
					"outputs": [
						{
							"internalType": "address",
							"name": "",
							"type": "address"
						}
					],
					"stateMutability": "view",
					"type": "function"
				},
				{
					"inputs": [],
					"name": "i",
					"outputs": [
						{
							"internalType": "int256",
							"name": "",
							"type": "int256"
						}
					],
					"stateMutability": "view",
					"type": "function"
				},
				{
					"inputs": [],
					"name": "maxInt",
					"outputs": [
						{
							"internalType": "int256",
							"name": "",
							"type": "int256"
						}
					],
					"stateMutability": "view",
					"type": "function"
				},
				{
					"inputs": [],
					"name": "minInt",
					"outputs": [
						{
							"internalType": "int256",
							"name": "",
							"type": "int256"
						}
					],
					"stateMutability": "view",
					"type": "function"
				},
				{
					"inputs": [],
					"name": "myStr",
					"outputs": [
						{
							"internalType": "string",
							"name": "",
							"type": "string"
						}
					],
					"stateMutability": "view",
					"type": "function"
				},
				{
					"inputs": [
						{
							"internalType": "uint256",
							"name": "x",
							"type": "uint256"
						},
						{
							"internalType": "uint256",
							"name": "y",
							"type": "uint256"
						}
					],
					"name": "sub",
					"outputs": [
						{
							"internalType": "uint256",
							"name": "",
							"type": "uint256"
						}
					],
					"stateMutability": "pure",
					"type": "function"
				},
				{
					"inputs": [],
					"name": "u",
					"outputs": [
						{
							"internalType": "uint256",
							"name": "",
							"type": "uint256"
						}
					],
					"stateMutability": "view",
					"type": "function"
				},
				{
					"inputs": [],
					"name": "viewGlobalInfo",
					"outputs": [
						{
							"internalType": "address",
							"name": "",
							"type": "address"
						},
						{
							"internalType": "uint256",
							"name": "",
							"type": "uint256"
						},
						{
							"internalType": "uint256",
							"name": "",
							"type": "uint256"
						}
					],
					"stateMutability": "view",
					"type": "function"
				}
			],
			"devdoc": {
				"kind": "dev",
				"methods": {},
				"version": 1
			},
			"evm": {
				"assembly": "    /* \"solidity\\xe5\\x9f\\xba\\xe7\\xa1\\x80/\\xe5\\x9f\\xba\\xe7\\xa1\\x80.sol\":60:1053  contract HelloWrold {... */\n  mstore(0x40, 0x80)\n    /* \"solidity\\xe5\\x9f\\xba\\xe7\\xa1\\x80/\\xe5\\x9f\\xba\\xe7\\xa1\\x80.sol\":87:123  string public myStr = \"Hello World!\" */\n  mload(0x40)\n  dup1\n  0x40\n  add\n  0x40\n  mstore\n  dup1\n  0x0c\n  dup2\n  mstore\n  0x20\n  add\n  0x48656c6c6f20576f726c64210000000000000000000000000000000000000000\n  dup2\n  mstore\n  pop\n  0x00\n  swap1\n  dup2\n  tag_1\n  swap2\n  swap1\n  tag_2\n  jump\t// in\ntag_1:\n  pop\n    /* \"solidity\\xe5\\x9f\\xba\\xe7\\xa1\\x80/\\xe5\\x9f\\xba\\xe7\\xa1\\x80.sol\":139:143  true */\n  0x01\n    /* \"solidity\\xe5\\x9f\\xba\\xe7\\xa1\\x80/\\xe5\\x9f\\xba\\xe7\\xa1\\x80.sol\":130:143  bool b = true */\n  dup1\n  exp(0x0100, 0x00)\n  dup2\n  sload\n  dup2\n  0xff\n  mul\n  not\n  and\n  swap1\n  dup4\n  iszero\n  iszero\n  mul\n  or\n  swap1\n  sstore\n  pop\n    /* \"solidity\\xe5\\x9f\\xba\\xe7\\xa1\\x80/\\xe5\\x9f\\xba\\xe7\\xa1\\x80.sol\":166:169  123 */\n  0x7b\n    /* \"solidity\\xe5\\x9f\\xba\\xe7\\xa1\\x80/\\xe5\\x9f\\xba\\xe7\\xa1\\x80.sol\":150:169  uint public u = 123 */\n  0x02\n  sstore\n    /* \"solidity\\xe5\\x9f\\xba\\xe7\\xa1\\x80/\\xe5\\x9f\\xba\\xe7\\xa1\\x80.sol\":236:240  -123 */\n  0xffffffffffffffffffffffffffffffffffffffffffffffffffffffffffffff85\n    /* \"solidity\\xe5\\x9f\\xba\\xe7\\xa1\\x80/\\xe5\\x9f\\xba\\xe7\\xa1\\x80.sol\":221:240  int public i = -123 */\n  0x03\n  sstore\n    /* \"solidity\\xe5\\x9f\\xba\\xe7\\xa1\\x80/\\xe5\\x9f\\xba\\xe7\\xa1\\x80.sol\":304:317  type(int).max */\n  0x7fffffffffffffffffffffffffffffffffffffffffffffffffffffffffffffff\n    /* \"solidity\\xe5\\x9f\\xba\\xe7\\xa1\\x80/\\xe5\\x9f\\xba\\xe7\\xa1\\x80.sol\":284:317  int public maxInt = type(int).max */\n  0x04\n  sstore\n    /* \"solidity\\xe5\\x9f\\xba\\xe7\\xa1\\x80/\\xe5\\x9f\\xba\\xe7\\xa1\\x80.sol\":344:357  type(int).min */\n  0x8000000000000000000000000000000000000000000000000000000000000000\n    /* \"solidity\\xe5\\x9f\\xba\\xe7\\xa1\\x80/\\xe5\\x9f\\xba\\xe7\\xa1\\x80.sol\":324:357  int public minInt = type(int).min */\n  0x05\n  sstore\n    /* \"solidity\\xe5\\x9f\\xba\\xe7\\xa1\\x80/\\xe5\\x9f\\xba\\xe7\\xa1\\x80.sol\":388:430  0x5B38Da6a701c568545dCfcB03FcB875f56beddC4 */\n  0x5b38da6a701c568545dcfcb03fcb875f56beddc4\n    /* \"solidity\\xe5\\x9f\\xba\\xe7\\xa1\\x80/\\xe5\\x9f\\xba\\xe7\\xa1\\x80.sol\":366:430  address public addr = 0x5B38Da6a701c568545dCfcB03FcB875f56beddC4 */\n  0x06\n  exp(0x0100, 0x00)\n  dup2\n  sload\n  dup2\n  0xffffffffffffffffffffffffffffffffffffffff\n  mul\n  not\n  and\n  swap1\n  dup4\n  0xffffffffffffffffffffffffffffffffffffffff\n  and\n  mul\n  or\n  swap1\n  sstore\n  pop\n    /* \"solidity\\xe5\\x9f\\xba\\xe7\\xa1\\x80/\\xe5\\x9f\\xba\\xe7\\xa1\\x80.sol\":60:1053  contract HelloWrold {... */\n  callvalue\n  dup1\n  iszero\n  tag_3\n  jumpi\n  revert(0x00, 0x00)\ntag_3:\n  pop\n  jump(tag_4)\n    /* \"#utility.yul\":7:106   */\ntag_5:\n    /* \"#utility.yul\":59:65   */\n  0x00\n    /* \"#utility.yul\":93:98   */\n  dup2\n    /* \"#utility.yul\":87:99   */\n  mload\n    /* \"#utility.yul\":77:99   */\n  swap1\n  pop\n    /* \"#utility.yul\":7:106   */\n  swap2\n  swap1\n  pop\n  jump\t// out\n    /* \"#utility.yul\":112:292   */\ntag_6:\n    /* \"#utility.yul\":160:237   */\n  0x4e487b7100000000000000000000000000000000000000000000000000000000\n    /* \"#utility.yul\":157:158   */\n  0x00\n    /* \"#utility.yul\":150:238   */\n  mstore\n    /* \"#utility.yul\":257:261   */\n  0x41\n    /* \"#utility.yul\":254:255   */\n  0x04\n    /* \"#utility.yul\":247:262   */\n  mstore\n    /* \"#utility.yul\":281:285   */\n  0x24\n    /* \"#utility.yul\":278:279   */\n  0x00\n    /* \"#utility.yul\":271:286   */\n  revert\n    /* \"#utility.yul\":298:478   */\ntag_7:\n    /* \"#utility.yul\":346:423   */\n  0x4e487b7100000000000000000000000000000000000000000000000000000000\n    /* \"#utility.yul\":343:344   */\n  0x00\n    /* \"#utility.yul\":336:424   */\n  mstore\n    /* \"#utility.yul\":443:447   */\n  0x22\n    /* \"#utility.yul\":440:441   */\n  0x04\n    /* \"#utility.yul\":433:448   */\n  mstore\n    /* \"#utility.yul\":467:471   */\n  0x24\n    /* \"#utility.yul\":464:465   */\n  0x00\n    /* \"#utility.yul\":457:472   */\n  revert\n    /* \"#utility.yul\":484:804   */\ntag_8:\n    /* \"#utility.yul\":528:534   */\n  0x00\n    /* \"#utility.yul\":565:566   */\n  0x02\n    /* \"#utility.yul\":559:563   */\n  dup3\n    /* \"#utility.yul\":555:567   */\n  div\n    /* \"#utility.yul\":545:567   */\n  swap1\n  pop\n    /* \"#utility.yul\":612:613   */\n  0x01\n    /* \"#utility.yul\":606:610   */\n  dup3\n    /* \"#utility.yul\":602:614   */\n  and\n    /* \"#utility.yul\":633:651   */\n  dup1\n    /* \"#utility.yul\":623:704   */\n  tag_30\n  jumpi\n    /* \"#utility.yul\":689:693   */\n  0x7f\n    /* \"#utility.yul\":681:687   */\n  dup3\n    /* \"#utility.yul\":677:694   */\n  and\n    /* \"#utility.yul\":667:694   */\n  swap2\n  pop\n    /* \"#utility.yul\":623:704   */\ntag_30:\n    /* \"#utility.yul\":751:753   */\n  0x20\n    /* \"#utility.yul\":743:749   */\n  dup3\n    /* \"#utility.yul\":740:754   */\n  lt\n    /* \"#utility.yul\":720:738   */\n  dup2\n    /* \"#utility.yul\":717:755   */\n  sub\n    /* \"#utility.yul\":714:798   */\n  tag_31\n  jumpi\n    /* \"#utility.yul\":770:788   */\n  tag_32\n  tag_7\n  jump\t// in\ntag_32:\n    /* \"#utility.yul\":714:798   */\ntag_31:\n    /* \"#utility.yul\":535:804   */\n  pop\n    /* \"#utility.yul\":484:804   */\n  swap2\n  swap1\n  pop\n  jump\t// out\n    /* \"#utility.yul\":810:951   */\ntag_9:\n    /* \"#utility.yul\":859:863   */\n  0x00\n    /* \"#utility.yul\":882:885   */\n  dup2\n    /* \"#utility.yul\":874:885   */\n  swap1\n  pop\n    /* \"#utility.yul\":905:908   */\n  dup2\n    /* \"#utility.yul\":902:903   */\n  0x00\n    /* \"#utility.yul\":895:909   */\n  mstore\n    /* \"#utility.yul\":939:943   */\n  0x20\n    /* \"#utility.yul\":936:937   */\n  0x00\n    /* \"#utility.yul\":926:944   */\n  keccak256\n    /* \"#utility.yul\":918:944   */\n  swap1\n  pop\n    /* \"#utility.yul\":810:951   */\n  swap2\n  swap1\n  pop\n  jump\t// out\n    /* \"#utility.yul\":957:1050   */\ntag_10:\n    /* \"#utility.yul\":994:1000   */\n  0x00\n    /* \"#utility.yul\":1041:1043   */\n  0x20\n    /* \"#utility.yul\":1036:1038   */\n  0x1f\n    /* \"#utility.yul\":1029:1034   */\n  dup4\n    /* \"#utility.yul\":1025:1039   */\n  add\n    /* \"#utility.yul\":1021:1044   */\n  div\n    /* \"#utility.yul\":1011:1044   */\n  swap1\n  pop\n    /* \"#utility.yul\":957:1050   */\n  swap2\n  swap1\n  pop\n  jump\t// out\n    /* \"#utility.yul\":1056:1163   */\ntag_11:\n    /* \"#utility.yul\":1100:1108   */\n  0x00\n    /* \"#utility.yul\":1150:1155   */\n  dup3\n    /* \"#utility.yul\":1144:1148   */\n  dup3\n    /* \"#utility.yul\":1140:1156   */\n  shl\n    /* \"#utility.yul\":1119:1156   */\n  swap1\n  pop\n    /* \"#utility.yul\":1056:1163   */\n  swap3\n  swap2\n  pop\n  pop\n  jump\t// out\n    /* \"#utility.yul\":1169:1562   */\ntag_12:\n    /* \"#utility.yul\":1238:1244   */\n  0x00\n    /* \"#utility.yul\":1288:1289   */\n  0x08\n    /* \"#utility.yul\":1276:1286   */\n  dup4\n    /* \"#utility.yul\":1272:1290   */\n  mul\n    /* \"#utility.yul\":1311:1408   */\n  tag_37\n    /* \"#utility.yul\":1341:1407   */\n  0xffffffffffffffffffffffffffffffffffffffffffffffffffffffffffffffff\n    /* \"#utility.yul\":1330:1339   */\n  dup3\n    /* \"#utility.yul\":1311:1408   */\n  tag_11\n  jump\t// in\ntag_37:\n    /* \"#utility.yul\":1429:1468   */\n  tag_38\n    /* \"#utility.yul\":1459:1467   */\n  dup7\n    /* \"#utility.yul\":1448:1457   */\n  dup4\n    /* \"#utility.yul\":1429:1468   */\n  tag_11\n  jump\t// in\ntag_38:\n    /* \"#utility.yul\":1417:1468   */\n  swap6\n  pop\n    /* \"#utility.yul\":1501:1505   */\n  dup1\n    /* \"#utility.yul\":1497:1506   */\n  not\n    /* \"#utility.yul\":1490:1495   */\n  dup5\n    /* \"#utility.yul\":1486:1507   */\n  and\n    /* \"#utility.yul\":1477:1507   */\n  swap4\n  pop\n    /* \"#utility.yul\":1550:1554   */\n  dup1\n    /* \"#utility.yul\":1540:1548   */\n  dup7\n    /* \"#utility.yul\":1536:1555   */\n  and\n    /* \"#utility.yul\":1529:1534   */\n  dup5\n    /* \"#utility.yul\":1526:1556   */\n  or\n    /* \"#utility.yul\":1516:1556   */\n  swap3\n  pop\n    /* \"#utility.yul\":1245:1562   */\n  pop\n  pop\n    /* \"#utility.yul\":1169:1562   */\n  swap4\n  swap3\n  pop\n  pop\n  pop\n  jump\t// out\n    /* \"#utility.yul\":1568:1645   */\ntag_13:\n    /* \"#utility.yul\":1605:1612   */\n  0x00\n    /* \"#utility.yul\":1634:1639   */\n  dup2\n    /* \"#utility.yul\":1623:1639   */\n  swap1\n  pop\n    /* \"#utility.yul\":1568:1645   */\n  swap2\n  swap1\n  pop\n  jump\t// out\n    /* \"#utility.yul\":1651:1711   */\ntag_14:\n    /* \"#utility.yul\":1679:1682   */\n  0x00\n    /* \"#utility.yul\":1700:1705   */\n  dup2\n    /* \"#utility.yul\":1693:1705   */\n  swap1\n  pop\n    /* \"#utility.yul\":1651:1711   */\n  swap2\n  swap1\n  pop\n  jump\t// out\n    /* \"#utility.yul\":1717:1859   */\ntag_15:\n    /* \"#utility.yul\":1767:1776   */\n  0x00\n    /* \"#utility.yul\":1800:1853   */\n  tag_42\n    /* \"#utility.yul\":1818:1852   */\n  tag_43\n    /* \"#utility.yul\":1827:1851   */\n  tag_44\n    /* \"#utility.yul\":1845:1850   */\n  dup5\n    /* \"#utility.yul\":1827:1851   */\n  tag_13\n  jump\t// in\ntag_44:\n    /* \"#utility.yul\":1818:1852   */\n  tag_14\n  jump\t// in\ntag_43:\n    /* \"#utility.yul\":1800:1853   */\n  tag_13\n  jump\t// in\ntag_42:\n    /* \"#utility.yul\":1787:1853   */\n  swap1\n  pop\n    /* \"#utility.yul\":1717:1859   */\n  swap2\n  swap1\n  pop\n  jump\t// out\n    /* \"#utility.yul\":1865:1940   */\ntag_16:\n    /* \"#utility.yul\":1908:1911   */\n  0x00\n    /* \"#utility.yul\":1929:1934   */\n  dup2\n    /* \"#utility.yul\":1922:1934   */\n  swap1\n  pop\n    /* \"#utility.yul\":1865:1940   */\n  swap2\n  swap1\n  pop\n  jump\t// out\n    /* \"#utility.yul\":1946:2215   */\ntag_17:\n    /* \"#utility.yul\":2056:2095   */\n  tag_47\n    /* \"#utility.yul\":2087:2094   */\n  dup4\n    /* \"#utility.yul\":2056:2095   */\n  tag_15\n  jump\t// in\ntag_47:\n    /* \"#utility.yul\":2117:2208   */\n  tag_48\n    /* \"#utility.yul\":2166:2207   */\n  tag_49\n    /* \"#utility.yul\":2190:2206   */\n  dup3\n    /* \"#utility.yul\":2166:2207   */\n  tag_16\n  jump\t// in\ntag_49:\n    /* \"#utility.yul\":2158:2164   */\n  dup5\n    /* \"#utility.yul\":2151:2155   */\n  dup5\n    /* \"#utility.yul\":2145:2156   */\n  sload\n    /* \"#utility.yul\":2117:2208   */\n  tag_12\n  jump\t// in\ntag_48:\n    /* \"#utility.yul\":2111:2115   */\n  dup3\n    /* \"#utility.yul\":2104:2209   */\n  sstore\n    /* \"#utility.yul\":2022:2215   */\n  pop\n    /* \"#utility.yul\":1946:2215   */\n  pop\n  pop\n  pop\n  jump\t// out\n    /* \"#utility.yul\":2221:2294   */\ntag_18:\n    /* \"#utility.yul\":2266:2269   */\n  0x00\n    /* \"#utility.yul\":2287:2288   */\n  0x00\n    /* \"#utility.yul\":2280:2288   */\n  swap1\n  pop\n    /* \"#utility.yul\":2221:2294   */\n  swap1\n  jump\t// out\n    /* \"#utility.yul\":2300:2489   */\ntag_19:\n    /* \"#utility.yul\":2377:2409   */\n  tag_52\n  tag_18\n  jump\t// in\ntag_52:\n    /* \"#utility.yul\":2418:2483   */\n  tag_53\n    /* \"#utility.yul\":2476:2482   */\n  dup2\n    /* \"#utility.yul\":2468:2474   */\n  dup5\n    /* \"#utility.yul\":2462:2466   */\n  dup5\n    /* \"#utility.yul\":2418:2483   */\n  tag_17\n  jump\t// in\ntag_53:\n    /* \"#utility.yul\":2353:2489   */\n  pop\n    /* \"#utility.yul\":2300:2489   */\n  pop\n  pop\n  jump\t// out\n    /* \"#utility.yul\":2495:2709   */\ntag_20:\n    /* \"#utility.yul\":2580:2581   */\n  0x00\n    /* \"#utility.yul\":2565:2703   */\ntag_55:\n    /* \"#utility.yul\":2590:2599   */\n  dup3\n    /* \"#utility.yul\":2587:2588   */\n  dup2\n    /* \"#utility.yul\":2584:2600   */\n  lt\n    /* \"#utility.yul\":2565:2703   */\n  iszero\n  tag_57\n  jumpi\n    /* \"#utility.yul\":2642:2693   */\n  tag_58\n    /* \"#utility.yul\":2691:2692   */\n  0x00\n    /* \"#utility.yul\":2687:2688   */\n  dup3\n    /* \"#utility.yul\":2676:2685   */\n  dup5\n    /* \"#utility.yul\":2672:2689   */\n  add\n    /* \"#utility.yul\":2642:2693   */\n  tag_19\n  jump\t// in\ntag_58:\n    /* \"#utility.yul\":2615:2616   */\n  0x01\n    /* \"#utility.yul\":2612:2613   */\n  dup2\n    /* \"#utility.yul\":2608:2617   */\n  add\n    /* \"#utility.yul\":2603:2617   */\n  swap1\n  pop\n    /* \"#utility.yul\":2565:2703   */\n  jump(tag_55)\ntag_57:\n    /* \"#utility.yul\":2569:2583   */\n  pop\n    /* \"#utility.yul\":2495:2709   */\n  pop\n  pop\n  jump\t// out\n    /* \"#utility.yul\":2715:3461   */\ntag_21:\n    /* \"#utility.yul\":2816:2818   */\n  0x1f\n    /* \"#utility.yul\":2811:2814   */\n  dup3\n    /* \"#utility.yul\":2808:2819   */\n  gt\n    /* \"#utility.yul\":2805:3454   */\n  iszero\n  tag_60\n  jumpi\n    /* \"#utility.yul\":2845:2855   */\n  dup3\n    /* \"#utility.yul\":2840:2843   */\n  dup3\n    /* \"#utility.yul\":2837:2856   */\n  gt\n    /* \"#utility.yul\":2834:3444   */\n  iszero\n  tag_61\n  jumpi\n    /* \"#utility.yul\":2891:2929   */\n  tag_62\n    /* \"#utility.yul\":2923:2928   */\n  dup2\n    /* \"#utility.yul\":2891:2929   */\n  tag_9\n  jump\t// in\ntag_62:\n    /* \"#utility.yul\":2966:2988   */\n  tag_63\n    /* \"#utility.yul\":2984:2987   */\n  dup4\n    /* \"#utility.yul\":2966:2988   */\n  tag_10\n  jump\t// in\ntag_63:\n    /* \"#utility.yul\":3025:3054   */\n  tag_64\n    /* \"#utility.yul\":3043:3053   */\n  dup6\n    /* \"#utility.yul\":3025:3054   */\n  tag_10\n  jump\t// in\ntag_64:\n    /* \"#utility.yul\":3215:3217   */\n  0x20\n    /* \"#utility.yul\":3203:3213   */\n  dup7\n    /* \"#utility.yul\":3200:3218   */\n  lt\n    /* \"#utility.yul\":3197:3276   */\n  iszero\n  tag_65\n  jumpi\n    /* \"#utility.yul\":3257:3258   */\n  0x00\n    /* \"#utility.yul\":3241:3258   */\n  swap1\n  pop\n    /* \"#utility.yul\":3197:3276   */\ntag_65:\n    /* \"#utility.yul\":3326:3338   */\n  dup1\n    /* \"#utility.yul\":3316:3324   */\n  dup4\n    /* \"#utility.yul\":3312:3339   */\n  add\n    /* \"#utility.yul\":3356:3430   */\n  tag_66\n    /* \"#utility.yul\":3416:3428   */\n  dup3\n    /* \"#utility.yul\":3402:3414   */\n  dup5\n    /* \"#utility.yul\":3398:3429   */\n  sub\n    /* \"#utility.yul\":3385:3396   */\n  dup3\n    /* \"#utility.yul\":3356:3430   */\n  tag_20\n  jump\t// in\ntag_66:\n    /* \"#utility.yul\":2857:3444   */\n  pop\n  pop\n  pop\n  pop\n    /* \"#utility.yul\":2834:3444   */\ntag_61:\n    /* \"#utility.yul\":2805:3454   */\ntag_60:\n    /* \"#utility.yul\":2715:3461   */\n  pop\n  pop\n  pop\n  jump\t// out\n    /* \"#utility.yul\":3467:3584   */\ntag_22:\n    /* \"#utility.yul\":3521:3529   */\n  0x00\n    /* \"#utility.yul\":3571:3576   */\n  dup3\n    /* \"#utility.yul\":3565:3569   */\n  dup3\n    /* \"#utility.yul\":3561:3577   */\n  shr\n    /* \"#utility.yul\":3540:3577   */\n  swap1\n  pop\n    /* \"#utility.yul\":3467:3584   */\n  swap3\n  swap2\n  pop\n  pop\n  jump\t// out\n    /* \"#utility.yul\":3590:3759   */\ntag_23:\n    /* \"#utility.yul\":3634:3640   */\n  0x00\n    /* \"#utility.yul\":3667:3718   */\n  tag_69\n    /* \"#utility.yul\":3715:3716   */\n  0x00\n    /* \"#utility.yul\":3711:3717   */\n  not\n    /* \"#utility.yul\":3703:3708   */\n  dup5\n    /* \"#utility.yul\":3700:3701   */\n  0x08\n    /* \"#utility.yul\":3696:3709   */\n  mul\n    /* \"#utility.yul\":3667:3718   */\n  tag_22\n  jump\t// in\ntag_69:\n    /* \"#utility.yul\":3663:3719   */\n  not\n    /* \"#utility.yul\":3748:3752   */\n  dup1\n    /* \"#utility.yul\":3742:3746   */\n  dup4\n    /* \"#utility.yul\":3738:3753   */\n  and\n    /* \"#utility.yul\":3728:3753   */\n  swap2\n  pop\n    /* \"#utility.yul\":3641:3759   */\n  pop\n    /* \"#utility.yul\":3590:3759   */\n  swap3\n  swap2\n  pop\n  pop\n  jump\t// out\n    /* \"#utility.yul\":3764:4059   */\ntag_24:\n    /* \"#utility.yul\":3840:3844   */\n  0x00\n    /* \"#utility.yul\":3986:4015   */\n  tag_71\n    /* \"#utility.yul\":4011:4014   */\n  dup4\n    /* \"#utility.yul\":4005:4009   */\n  dup4\n    /* \"#utility.yul\":3986:4015   */\n  tag_23\n  jump\t// in\ntag_71:\n    /* \"#utility.yul\":3978:4015   */\n  swap2\n  pop\n    /* \"#utility.yul\":4048:4051   */\n  dup3\n    /* \"#utility.yul\":4045:4046   */\n  0x02\n    /* \"#utility.yul\":4041:4052   */\n  mul\n    /* \"#utility.yul\":4035:4039   */\n  dup3\n    /* \"#utility.yul\":4032:4053   */\n  or\n    /* \"#utility.yul\":4024:4053   */\n  swap1\n  pop\n    /* \"#utility.yul\":3764:4059   */\n  swap3\n  swap2\n  pop\n  pop\n  jump\t// out\n    /* \"#utility.yul\":4064:5459   */\ntag_2:\n    /* \"#utility.yul\":4181:4218   */\n  tag_73\n    /* \"#utility.yul\":4214:4217   */\n  dup3\n    /* \"#utility.yul\":4181:4218   */\n  tag_5\n  jump\t// in\ntag_73:\n    /* \"#utility.yul\":4283:4301   */\n  0xffffffffffffffff\n    /* \"#utility.yul\":4275:4281   */\n  dup2\n    /* \"#utility.yul\":4272:4302   */\n  gt\n    /* \"#utility.yul\":4269:4325   */\n  iszero\n  tag_74\n  jumpi\n    /* \"#utility.yul\":4305:4323   */\n  tag_75\n  tag_6\n  jump\t// in\ntag_75:\n    /* \"#utility.yul\":4269:4325   */\ntag_74:\n    /* \"#utility.yul\":4349:4387   */\n  tag_76\n    /* \"#utility.yul\":4381:4385   */\n  dup3\n    /* \"#utility.yul\":4375:4386   */\n  sload\n    /* \"#utility.yul\":4349:4387   */\n  tag_8\n  jump\t// in\ntag_76:\n    /* \"#utility.yul\":4434:4501   */\n  tag_77\n    /* \"#utility.yul\":4494:4500   */\n  dup3\n    /* \"#utility.yul\":4486:4492   */\n  dup3\n    /* \"#utility.yul\":4480:4484   */\n  dup6\n    /* \"#utility.yul\":4434:4501   */\n  tag_21\n  jump\t// in\ntag_77:\n    /* \"#utility.yul\":4528:4529   */\n  0x00\n    /* \"#utility.yul\":4552:4556   */\n  0x20\n    /* \"#utility.yul\":4539:4556   */\n  swap1\n  pop\n    /* \"#utility.yul\":4584:4586   */\n  0x1f\n    /* \"#utility.yul\":4576:4582   */\n  dup4\n    /* \"#utility.yul\":4573:4587   */\n  gt\n    /* \"#utility.yul\":4601:4602   */\n  0x01\n    /* \"#utility.yul\":4596:5214   */\n  dup2\n  eq\n  tag_79\n  jumpi\n    /* \"#utility.yul\":5258:5259   */\n  0x00\n    /* \"#utility.yul\":5275:5281   */\n  dup5\n    /* \"#utility.yul\":5272:5349   */\n  iszero\n  tag_80\n  jumpi\n    /* \"#utility.yul\":5324:5333   */\n  dup3\n    /* \"#utility.yul\":5319:5322   */\n  dup8\n    /* \"#utility.yul\":5315:5334   */\n  add\n    /* \"#utility.yul\":5309:5335   */\n  mload\n    /* \"#utility.yul\":5300:5335   */\n  swap1\n  pop\n    /* \"#utility.yul\":5272:5349   */\ntag_80:\n    /* \"#utility.yul\":5375:5442   */\n  tag_81\n    /* \"#utility.yul\":5435:5441   */\n  dup6\n    /* \"#utility.yul\":5428:5433   */\n  dup3\n    /* \"#utility.yul\":5375:5442   */\n  tag_24\n  jump\t// in\ntag_81:\n    /* \"#utility.yul\":5369:5373   */\n  dup7\n    /* \"#utility.yul\":5362:5443   */\n  sstore\n    /* \"#utility.yul\":5231:5453   */\n  pop\n    /* \"#utility.yul\":4566:5453   */\n  jump(tag_78)\n    /* \"#utility.yul\":4596:5214   */\ntag_79:\n    /* \"#utility.yul\":4648:4652   */\n  0x1f\n    /* \"#utility.yul\":4644:4653   */\n  not\n    /* \"#utility.yul\":4636:4642   */\n  dup5\n    /* \"#utility.yul\":4632:4654   */\n  and\n    /* \"#utility.yul\":4682:4719   */\n  tag_82\n    /* \"#utility.yul\":4714:4718   */\n  dup7\n    /* \"#utility.yul\":4682:4719   */\n  tag_9\n  jump\t// in\ntag_82:\n    /* \"#utility.yul\":4741:4742   */\n  0x00\n    /* \"#utility.yul\":4755:4963   */\ntag_83:\n    /* \"#utility.yul\":4769:4776   */\n  dup3\n    /* \"#utility.yul\":4766:4767   */\n  dup2\n    /* \"#utility.yul\":4763:4777   */\n  lt\n    /* \"#utility.yul\":4755:4963   */\n  iszero\n  tag_85\n  jumpi\n    /* \"#utility.yul\":4848:4857   */\n  dup5\n    /* \"#utility.yul\":4843:4846   */\n  dup10\n    /* \"#utility.yul\":4839:4858   */\n  add\n    /* \"#utility.yul\":4833:4859   */\n  mload\n    /* \"#utility.yul\":4825:4831   */\n  dup3\n    /* \"#utility.yul\":4818:4860   */\n  sstore\n    /* \"#utility.yul\":4899:4900   */\n  0x01\n    /* \"#utility.yul\":4891:4897   */\n  dup3\n    /* \"#utility.yul\":4887:4901   */\n  add\n    /* \"#utility.yul\":4877:4901   */\n  swap2\n  pop\n    /* \"#utility.yul\":4946:4948   */\n  0x20\n    /* \"#utility.yul\":4935:4944   */\n  dup6\n    /* \"#utility.yul\":4931:4949   */\n  add\n    /* \"#utility.yul\":4918:4949   */\n  swap5\n  pop\n    /* \"#utility.yul\":4792:4796   */\n  0x20\n    /* \"#utility.yul\":4789:4790   */\n  dup2\n    /* \"#utility.yul\":4785:4797   */\n  add\n    /* \"#utility.yul\":4780:4797   */\n  swap1\n  pop\n    /* \"#utility.yul\":4755:4963   */\n  jump(tag_83)\ntag_85:\n    /* \"#utility.yul\":4991:4997   */\n  dup7\n    /* \"#utility.yul\":4982:4989   */\n  dup4\n    /* \"#utility.yul\":4979:4998   */\n  lt\n    /* \"#utility.yul\":4976:5155   */\n  iszero\n  tag_86\n  jumpi\n    /* \"#utility.yul\":5049:5058   */\n  dup5\n    /* \"#utility.yul\":5044:5047   */\n  dup10\n    /* \"#utility.yul\":5040:5059   */\n  add\n    /* \"#utility.yul\":5034:5060   */\n  mload\n    /* \"#utility.yul\":5092:5140   */\n  tag_87\n    /* \"#utility.yul\":5134:5138   */\n  0x1f\n    /* \"#utility.yul\":5126:5132   */\n  dup10\n    /* \"#utility.yul\":5122:5139   */\n  and\n    /* \"#utility.yul\":5111:5120   */\n  dup3\n    /* \"#utility.yul\":5092:5140   */\n  tag_23\n  jump\t// in\ntag_87:\n    /* \"#utility.yul\":5084:5090   */\n  dup4\n    /* \"#utility.yul\":5077:5141   */\n  sstore\n    /* \"#utility.yul\":4999:5155   */\n  pop\n    /* \"#utility.yul\":4976:5155   */\ntag_86:\n    /* \"#utility.yul\":5201:5202   */\n  0x01\n    /* \"#utility.yul\":5197:5198   */\n  0x02\n    /* \"#utility.yul\":5189:5195   */\n  dup9\n    /* \"#utility.yul\":5185:5199   */\n  mul\n    /* \"#utility.yul\":5181:5203   */\n  add\n    /* \"#utility.yul\":5175:5179   */\n  dup9\n    /* \"#utility.yul\":5168:5204   */\n  sstore\n    /* \"#utility.yul\":4603:5214   */\n  pop\n  pop\n  pop\n    /* \"#utility.yul\":4566:5453   */\ntag_78:\n  pop\n    /* \"#utility.yul\":4156:5459   */\n  pop\n  pop\n  pop\n    /* \"#utility.yul\":4064:5459   */\n  pop\n  pop\n  jump\t// out\n    /* \"solidity\\xe5\\x9f\\xba\\xe7\\xa1\\x80/\\xe5\\x9f\\xba\\xe7\\xa1\\x80.sol\":60:1053  contract HelloWrold {... */\ntag_4:\n  dataSize(sub_0)\n  dup1\n  dataOffset(sub_0)\n  0x00\n  codecopy\n  0x00\n  return\nstop\n\nsub_0: assembly {\n        /* \"solidity\\xe5\\x9f\\xba\\xe7\\xa1\\x80/\\xe5\\x9f\\xba\\xe7\\xa1\\x80.sol\":60:1053  contract HelloWrold {... */\n      mstore(0x40, 0x80)\n      callvalue\n      dup1\n      iszero\n      tag_1\n      jumpi\n      revert(0x00, 0x00)\n    tag_1:\n      pop\n      jumpi(tag_2, lt(calldatasize, 0x04))\n      shr(0xe0, calldataload(0x00))\n      dup1\n      0x7a4c2571\n      gt\n      tag_12\n      jumpi\n      dup1\n      0x7a4c2571\n      eq\n      tag_7\n      jumpi\n      dup1\n      0x7e4e14cc\n      eq\n      tag_8\n      jumpi\n      dup1\n      0xb67d77c5\n      eq\n      tag_9\n      jumpi\n      dup1\n      0xc6a898c5\n      eq\n      tag_10\n      jumpi\n      dup1\n      0xe5aa3d58\n      eq\n      tag_11\n      jumpi\n      jump(tag_2)\n    tag_12:\n      dup1\n      0x2952d065\n      eq\n      tag_3\n      jumpi\n      dup1\n      0x5a455c1c\n      eq\n      tag_4\n      jumpi\n      dup1\n      0x767800de\n      eq\n      tag_5\n      jumpi\n      dup1\n      0x771602f7\n      eq\n      tag_6\n      jumpi\n    tag_2:\n      revert(0x00, 0x00)\n        /* \"solidity\\xe5\\x9f\\xba\\xe7\\xa1\\x80/\\xe5\\x9f\\xba\\xe7\\xa1\\x80.sol\":724:1050  function viewGlobalInfo() external view returns (address, uint,  uint){... */\n    tag_3:\n      tag_13\n      tag_14\n      jump\t// in\n    tag_13:\n      mload(0x40)\n      tag_15\n      swap4\n      swap3\n      swap2\n      swap1\n      tag_16\n      jump\t// in\n    tag_15:\n      mload(0x40)\n      dup1\n      swap2\n      sub\n      swap1\n      return\n        /* \"solidity\\xe5\\x9f\\xba\\xe7\\xa1\\x80/\\xe5\\x9f\\xba\\xe7\\xa1\\x80.sol\":87:123  string public myStr = \"Hello World!\" */\n    tag_4:\n      tag_17\n      tag_18\n      jump\t// in\n    tag_17:\n      mload(0x40)\n      tag_19\n      swap2\n      swap1\n      tag_20\n      jump\t// in\n    tag_19:\n      mload(0x40)\n      dup1\n      swap2\n      sub\n      swap1\n      return\n        /* \"solidity\\xe5\\x9f\\xba\\xe7\\xa1\\x80/\\xe5\\x9f\\xba\\xe7\\xa1\\x80.sol\":366:430  address public addr = 0x5B38Da6a701c568545dCfcB03FcB875f56beddC4 */\n    tag_5:\n      tag_21\n      tag_22\n      jump\t// in\n    tag_21:\n      mload(0x40)\n      tag_23\n      swap2\n      swap1\n      tag_24\n      jump\t// in\n    tag_23:\n      mload(0x40)\n      dup1\n      swap2\n      sub\n      swap1\n      return\n        /* \"solidity\\xe5\\x9f\\xba\\xe7\\xa1\\x80/\\xe5\\x9f\\xba\\xe7\\xa1\\x80.sol\":466:552  function add(uint x,uint y) external pure returns(uint){... */\n    tag_6:\n      tag_25\n      0x04\n      dup1\n      calldatasize\n      sub\n      dup2\n      add\n      swap1\n      tag_26\n      swap2\n      swap1\n      tag_27\n      jump\t// in\n    tag_26:\n      tag_28\n      jump\t// in\n    tag_25:\n      mload(0x40)\n      tag_29\n      swap2\n      swap1\n      tag_30\n      jump\t// in\n    tag_29:\n      mload(0x40)\n      dup1\n      swap2\n      sub\n      swap1\n      return\n        /* \"solidity\\xe5\\x9f\\xba\\xe7\\xa1\\x80/\\xe5\\x9f\\xba\\xe7\\xa1\\x80.sol\":284:317  int public maxInt = type(int).max */\n    tag_7:\n      tag_31\n      tag_32\n      jump\t// in\n    tag_31:\n      mload(0x40)\n      tag_33\n      swap2\n      swap1\n      tag_34\n      jump\t// in\n    tag_33:\n      mload(0x40)\n      dup1\n      swap2\n      sub\n      swap1\n      return\n        /* \"solidity\\xe5\\x9f\\xba\\xe7\\xa1\\x80/\\xe5\\x9f\\xba\\xe7\\xa1\\x80.sol\":324:357  int public minInt = type(int).min */\n    tag_8:\n      tag_35\n      tag_36\n      jump\t// in\n    tag_35:\n      mload(0x40)\n      tag_37\n      swap2\n      swap1\n      tag_34\n      jump\t// in\n    tag_37:\n      mload(0x40)\n      dup1\n      swap2\n      sub\n      swap1\n      return\n        /* \"solidity\\xe5\\x9f\\xba\\xe7\\xa1\\x80/\\xe5\\x9f\\xba\\xe7\\xa1\\x80.sol\":558:644  function sub(uint x,uint y) external pure returns(uint){... */\n    tag_9:\n      tag_38\n      0x04\n      dup1\n      calldatasize\n      sub\n      dup2\n      add\n      swap1\n      tag_39\n      swap2\n      swap1\n      tag_27\n      jump\t// in\n    tag_39:\n      tag_40\n      jump\t// in\n    tag_38:\n      mload(0x40)\n      tag_41\n      swap2\n      swap1\n      tag_30\n      jump\t// in\n    tag_41:\n      mload(0x40)\n      dup1\n      swap2\n      sub\n      swap1\n      return\n        /* \"solidity\\xe5\\x9f\\xba\\xe7\\xa1\\x80/\\xe5\\x9f\\xba\\xe7\\xa1\\x80.sol\":150:169  uint public u = 123 */\n    tag_10:\n      tag_42\n      tag_43\n      jump\t// in\n    tag_42:\n      mload(0x40)\n      tag_44\n      swap2\n      swap1\n      tag_30\n      jump\t// in\n    tag_44:\n      mload(0x40)\n      dup1\n      swap2\n      sub\n      swap1\n      return\n        /* \"solidity\\xe5\\x9f\\xba\\xe7\\xa1\\x80/\\xe5\\x9f\\xba\\xe7\\xa1\\x80.sol\":221:240  int public i = -123 */\n    tag_11:\n      tag_45\n      tag_46\n      jump\t// in\n    tag_45:\n      mload(0x40)\n      tag_47\n      swap2\n      swap1\n      tag_34\n      jump\t// in\n    tag_47:\n      mload(0x40)\n      dup1\n      swap2\n      sub\n      swap1\n      return\n        /* \"solidity\\xe5\\x9f\\xba\\xe7\\xa1\\x80/\\xe5\\x9f\\xba\\xe7\\xa1\\x80.sol\":724:1050  function viewGlobalInfo() external view returns (address, uint,  uint){... */\n    tag_14:\n        /* \"solidity\\xe5\\x9f\\xba\\xe7\\xa1\\x80/\\xe5\\x9f\\xba\\xe7\\xa1\\x80.sol\":773:780  address */\n      0x00\n        /* \"solidity\\xe5\\x9f\\xba\\xe7\\xa1\\x80/\\xe5\\x9f\\xba\\xe7\\xa1\\x80.sol\":782:786  uint */\n      0x00\n        /* \"solidity\\xe5\\x9f\\xba\\xe7\\xa1\\x80/\\xe5\\x9f\\xba\\xe7\\xa1\\x80.sol\":789:793  uint */\n      0x00\n        /* \"solidity\\xe5\\x9f\\xba\\xe7\\xa1\\x80/\\xe5\\x9f\\xba\\xe7\\xa1\\x80.sol\":805:819  address sender */\n      0x00\n        /* \"solidity\\xe5\\x9f\\xba\\xe7\\xa1\\x80/\\xe5\\x9f\\xba\\xe7\\xa1\\x80.sol\":822:832  msg.sender */\n      caller\n        /* \"solidity\\xe5\\x9f\\xba\\xe7\\xa1\\x80/\\xe5\\x9f\\xba\\xe7\\xa1\\x80.sol\":805:832  address sender = msg.sender */\n      swap1\n      pop\n        /* \"solidity\\xe5\\x9f\\xba\\xe7\\xa1\\x80/\\xe5\\x9f\\xba\\xe7\\xa1\\x80.sol\":875:889  uint timestamp */\n      0x00\n        /* \"solidity\\xe5\\x9f\\xba\\xe7\\xa1\\x80/\\xe5\\x9f\\xba\\xe7\\xa1\\x80.sol\":892:907  block.timestamp */\n      timestamp\n        /* \"solidity\\xe5\\x9f\\xba\\xe7\\xa1\\x80/\\xe5\\x9f\\xba\\xe7\\xa1\\x80.sol\":875:907  uint timestamp = block.timestamp */\n      swap1\n      pop\n        /* \"solidity\\xe5\\x9f\\xba\\xe7\\xa1\\x80/\\xe5\\x9f\\xba\\xe7\\xa1\\x80.sol\":944:957  uint blockNum */\n      0x00\n        /* \"solidity\\xe5\\x9f\\xba\\xe7\\xa1\\x80/\\xe5\\x9f\\xba\\xe7\\xa1\\x80.sol\":960:972  block.number */\n      number\n        /* \"solidity\\xe5\\x9f\\xba\\xe7\\xa1\\x80/\\xe5\\x9f\\xba\\xe7\\xa1\\x80.sol\":944:972  uint blockNum = block.number */\n      swap1\n      pop\n        /* \"solidity\\xe5\\x9f\\xba\\xe7\\xa1\\x80/\\xe5\\x9f\\xba\\xe7\\xa1\\x80.sol\":1014:1020  sender */\n      dup3\n        /* \"solidity\\xe5\\x9f\\xba\\xe7\\xa1\\x80/\\xe5\\x9f\\xba\\xe7\\xa1\\x80.sol\":1022:1031  timestamp */\n      dup3\n        /* \"solidity\\xe5\\x9f\\xba\\xe7\\xa1\\x80/\\xe5\\x9f\\xba\\xe7\\xa1\\x80.sol\":1033:1041  blockNum */\n      dup3\n        /* \"solidity\\xe5\\x9f\\xba\\xe7\\xa1\\x80/\\xe5\\x9f\\xba\\xe7\\xa1\\x80.sol\":1006:1042  return (sender, timestamp, blockNum) */\n      swap6\n      pop\n      swap6\n      pop\n      swap6\n      pop\n      pop\n      pop\n      pop\n        /* \"solidity\\xe5\\x9f\\xba\\xe7\\xa1\\x80/\\xe5\\x9f\\xba\\xe7\\xa1\\x80.sol\":724:1050  function viewGlobalInfo() external view returns (address, uint,  uint){... */\n      swap1\n      swap2\n      swap3\n      jump\t// out\n        /* \"solidity\\xe5\\x9f\\xba\\xe7\\xa1\\x80/\\xe5\\x9f\\xba\\xe7\\xa1\\x80.sol\":87:123  string public myStr = \"Hello World!\" */\n    tag_18:\n      0x00\n      dup1\n      sload\n      tag_49\n      swap1\n      tag_50\n      jump\t// in\n    tag_49:\n      dup1\n      0x1f\n      add\n      0x20\n      dup1\n      swap2\n      div\n      mul\n      0x20\n      add\n      mload(0x40)\n      swap1\n      dup2\n      add\n      0x40\n      mstore\n      dup1\n      swap3\n      swap2\n      swap1\n      dup2\n      dup2\n      mstore\n      0x20\n      add\n      dup3\n      dup1\n      sload\n      tag_51\n      swap1\n      tag_50\n      jump\t// in\n    tag_51:\n      dup1\n      iszero\n      tag_52\n      jumpi\n      dup1\n      0x1f\n      lt\n      tag_53\n      jumpi\n      0x0100\n      dup1\n      dup4\n      sload\n      div\n      mul\n      dup4\n      mstore\n      swap2\n      0x20\n      add\n      swap2\n      jump(tag_52)\n    tag_53:\n      dup3\n      add\n      swap2\n      swap1\n      0x00\n      mstore\n      keccak256(0x00, 0x20)\n      swap1\n    tag_54:\n      dup2\n      sload\n      dup2\n      mstore\n      swap1\n      0x01\n      add\n      swap1\n      0x20\n      add\n      dup1\n      dup4\n      gt\n      tag_54\n      jumpi\n      dup3\n      swap1\n      sub\n      0x1f\n      and\n      dup3\n      add\n      swap2\n    tag_52:\n      pop\n      pop\n      pop\n      pop\n      pop\n      dup2\n      jump\t// out\n        /* \"solidity\\xe5\\x9f\\xba\\xe7\\xa1\\x80/\\xe5\\x9f\\xba\\xe7\\xa1\\x80.sol\":366:430  address public addr = 0x5B38Da6a701c568545dCfcB03FcB875f56beddC4 */\n    tag_22:\n      0x06\n      0x00\n      swap1\n      sload\n      swap1\n      0x0100\n      exp\n      swap1\n      div\n      0xffffffffffffffffffffffffffffffffffffffff\n      and\n      dup2\n      jump\t// out\n        /* \"solidity\\xe5\\x9f\\xba\\xe7\\xa1\\x80/\\xe5\\x9f\\xba\\xe7\\xa1\\x80.sol\":466:552  function add(uint x,uint y) external pure returns(uint){... */\n    tag_28:\n        /* \"solidity\\xe5\\x9f\\xba\\xe7\\xa1\\x80/\\xe5\\x9f\\xba\\xe7\\xa1\\x80.sol\":516:520  uint */\n      0x00\n        /* \"solidity\\xe5\\x9f\\xba\\xe7\\xa1\\x80/\\xe5\\x9f\\xba\\xe7\\xa1\\x80.sol\":543:544  y */\n      dup2\n        /* \"solidity\\xe5\\x9f\\xba\\xe7\\xa1\\x80/\\xe5\\x9f\\xba\\xe7\\xa1\\x80.sol\":539:540  x */\n      dup4\n        /* \"solidity\\xe5\\x9f\\xba\\xe7\\xa1\\x80/\\xe5\\x9f\\xba\\xe7\\xa1\\x80.sol\":539:544  x + y */\n      tag_56\n      swap2\n      swap1\n      tag_57\n      jump\t// in\n    tag_56:\n        /* \"solidity\\xe5\\x9f\\xba\\xe7\\xa1\\x80/\\xe5\\x9f\\xba\\xe7\\xa1\\x80.sol\":532:544  return x + y */\n      swap1\n      pop\n        /* \"solidity\\xe5\\x9f\\xba\\xe7\\xa1\\x80/\\xe5\\x9f\\xba\\xe7\\xa1\\x80.sol\":466:552  function add(uint x,uint y) external pure returns(uint){... */\n      swap3\n      swap2\n      pop\n      pop\n      jump\t// out\n        /* \"solidity\\xe5\\x9f\\xba\\xe7\\xa1\\x80/\\xe5\\x9f\\xba\\xe7\\xa1\\x80.sol\":284:317  int public maxInt = type(int).max */\n    tag_32:\n      sload(0x04)\n      dup2\n      jump\t// out\n        /* \"solidity\\xe5\\x9f\\xba\\xe7\\xa1\\x80/\\xe5\\x9f\\xba\\xe7\\xa1\\x80.sol\":324:357  int public minInt = type(int).min */\n    tag_36:\n      sload(0x05)\n      dup2\n      jump\t// out\n        /* \"solidity\\xe5\\x9f\\xba\\xe7\\xa1\\x80/\\xe5\\x9f\\xba\\xe7\\xa1\\x80.sol\":558:644  function sub(uint x,uint y) external pure returns(uint){... */\n    tag_40:\n        /* \"solidity\\xe5\\x9f\\xba\\xe7\\xa1\\x80/\\xe5\\x9f\\xba\\xe7\\xa1\\x80.sol\":608:612  uint */\n      0x00\n        /* \"solidity\\xe5\\x9f\\xba\\xe7\\xa1\\x80/\\xe5\\x9f\\xba\\xe7\\xa1\\x80.sol\":635:636  y */\n      dup2\n        /* \"solidity\\xe5\\x9f\\xba\\xe7\\xa1\\x80/\\xe5\\x9f\\xba\\xe7\\xa1\\x80.sol\":631:632  x */\n      dup4\n        /* \"solidity\\xe5\\x9f\\xba\\xe7\\xa1\\x80/\\xe5\\x9f\\xba\\xe7\\xa1\\x80.sol\":631:636  x - y */\n      tag_59\n      swap2\n      swap1\n      tag_60\n      jump\t// in\n    tag_59:\n        /* \"solidity\\xe5\\x9f\\xba\\xe7\\xa1\\x80/\\xe5\\x9f\\xba\\xe7\\xa1\\x80.sol\":624:636  return x - y */\n      swap1\n      pop\n        /* \"solidity\\xe5\\x9f\\xba\\xe7\\xa1\\x80/\\xe5\\x9f\\xba\\xe7\\xa1\\x80.sol\":558:644  function sub(uint x,uint y) external pure returns(uint){... */\n      swap3\n      swap2\n      pop\n      pop\n      jump\t// out\n        /* \"solidity\\xe5\\x9f\\xba\\xe7\\xa1\\x80/\\xe5\\x9f\\xba\\xe7\\xa1\\x80.sol\":150:169  uint public u = 123 */\n    tag_43:\n      sload(0x02)\n      dup2\n      jump\t// out\n        /* \"solidity\\xe5\\x9f\\xba\\xe7\\xa1\\x80/\\xe5\\x9f\\xba\\xe7\\xa1\\x80.sol\":221:240  int public i = -123 */\n    tag_46:\n      sload(0x03)\n      dup2\n      jump\t// out\n        /* \"#utility.yul\":7:133   */\n    tag_61:\n        /* \"#utility.yul\":44:51   */\n      0x00\n        /* \"#utility.yul\":84:126   */\n      0xffffffffffffffffffffffffffffffffffffffff\n        /* \"#utility.yul\":77:82   */\n      dup3\n        /* \"#utility.yul\":73:127   */\n      and\n        /* \"#utility.yul\":62:127   */\n      swap1\n      pop\n        /* \"#utility.yul\":7:133   */\n      swap2\n      swap1\n      pop\n      jump\t// out\n        /* \"#utility.yul\":139:235   */\n    tag_62:\n        /* \"#utility.yul\":176:183   */\n      0x00\n        /* \"#utility.yul\":205:229   */\n      tag_83\n        /* \"#utility.yul\":223:228   */\n      dup3\n        /* \"#utility.yul\":205:229   */\n      tag_61\n      jump\t// in\n    tag_83:\n        /* \"#utility.yul\":194:229   */\n      swap1\n      pop\n        /* \"#utility.yul\":139:235   */\n      swap2\n      swap1\n      pop\n      jump\t// out\n        /* \"#utility.yul\":241:359   */\n    tag_63:\n        /* \"#utility.yul\":328:352   */\n      tag_85\n        /* \"#utility.yul\":346:351   */\n      dup2\n        /* \"#utility.yul\":328:352   */\n      tag_62\n      jump\t// in\n    tag_85:\n        /* \"#utility.yul\":323:326   */\n      dup3\n        /* \"#utility.yul\":316:353   */\n      mstore\n        /* \"#utility.yul\":241:359   */\n      pop\n      pop\n      jump\t// out\n        /* \"#utility.yul\":365:442   */\n    tag_64:\n        /* \"#utility.yul\":402:409   */\n      0x00\n        /* \"#utility.yul\":431:436   */\n      dup2\n        /* \"#utility.yul\":420:436   */\n      swap1\n      pop\n        /* \"#utility.yul\":365:442   */\n      swap2\n      swap1\n      pop\n      jump\t// out\n        /* \"#utility.yul\":448:566   */\n    tag_65:\n        /* \"#utility.yul\":535:559   */\n      tag_88\n        /* \"#utility.yul\":553:558   */\n      dup2\n        /* \"#utility.yul\":535:559   */\n      tag_64\n      jump\t// in\n    tag_88:\n        /* \"#utility.yul\":530:533   */\n      dup3\n        /* \"#utility.yul\":523:560   */\n      mstore\n        /* \"#utility.yul\":448:566   */\n      pop\n      pop\n      jump\t// out\n        /* \"#utility.yul\":572:1014   */\n    tag_16:\n        /* \"#utility.yul\":721:725   */\n      0x00\n        /* \"#utility.yul\":759:761   */\n      0x60\n        /* \"#utility.yul\":748:757   */\n      dup3\n        /* \"#utility.yul\":744:762   */\n      add\n        /* \"#utility.yul\":736:762   */\n      swap1\n      pop\n        /* \"#utility.yul\":772:843   */\n      tag_90\n        /* \"#utility.yul\":840:841   */\n      0x00\n        /* \"#utility.yul\":829:838   */\n      dup4\n        /* \"#utility.yul\":825:842   */\n      add\n        /* \"#utility.yul\":816:822   */\n      dup7\n        /* \"#utility.yul\":772:843   */\n      tag_63\n      jump\t// in\n    tag_90:\n        /* \"#utility.yul\":853:925   */\n      tag_91\n        /* \"#utility.yul\":921:923   */\n      0x20\n        /* \"#utility.yul\":910:919   */\n      dup4\n        /* \"#utility.yul\":906:924   */\n      add\n        /* \"#utility.yul\":897:903   */\n      dup6\n        /* \"#utility.yul\":853:925   */\n      tag_65\n      jump\t// in\n    tag_91:\n        /* \"#utility.yul\":935:1007   */\n      tag_92\n        /* \"#utility.yul\":1003:1005   */\n      0x40\n        /* \"#utility.yul\":992:1001   */\n      dup4\n        /* \"#utility.yul\":988:1006   */\n      add\n        /* \"#utility.yul\":979:985   */\n      dup5\n        /* \"#utility.yul\":935:1007   */\n      tag_65\n      jump\t// in\n    tag_92:\n        /* \"#utility.yul\":572:1014   */\n      swap5\n      swap4\n      pop\n      pop\n      pop\n      pop\n      jump\t// out\n        /* \"#utility.yul\":1020:1119   */\n    tag_66:\n        /* \"#utility.yul\":1072:1078   */\n      0x00\n        /* \"#utility.yul\":1106:1111   */\n      dup2\n        /* \"#utility.yul\":1100:1112   */\n      mload\n        /* \"#utility.yul\":1090:1112   */\n      swap1\n      pop\n        /* \"#utility.yul\":1020:1119   */\n      swap2\n      swap1\n      pop\n      jump\t// out\n        /* \"#utility.yul\":1125:1294   */\n    tag_67:\n        /* \"#utility.yul\":1209:1220   */\n      0x00\n        /* \"#utility.yul\":1243:1249   */\n      dup3\n        /* \"#utility.yul\":1238:1241   */\n      dup3\n        /* \"#utility.yul\":1231:1250   */\n      mstore\n        /* \"#utility.yul\":1283:1287   */\n      0x20\n        /* \"#utility.yul\":1278:1281   */\n      dup3\n        /* \"#utility.yul\":1274:1288   */\n      add\n        /* \"#utility.yul\":1259:1288   */\n      swap1\n      pop\n        /* \"#utility.yul\":1125:1294   */\n      swap3\n      swap2\n      pop\n      pop\n      jump\t// out\n        /* \"#utility.yul\":1300:1439   */\n    tag_68:\n        /* \"#utility.yul\":1389:1395   */\n      dup3\n        /* \"#utility.yul\":1384:1387   */\n      dup2\n        /* \"#utility.yul\":1379:1382   */\n      dup4\n        /* \"#utility.yul\":1373:1396   */\n      mcopy\n        /* \"#utility.yul\":1430:1431   */\n      0x00\n        /* \"#utility.yul\":1421:1427   */\n      dup4\n        /* \"#utility.yul\":1416:1419   */\n      dup4\n        /* \"#utility.yul\":1412:1428   */\n      add\n        /* \"#utility.yul\":1405:1432   */\n      mstore\n        /* \"#utility.yul\":1300:1439   */\n      pop\n      pop\n      pop\n      jump\t// out\n        /* \"#utility.yul\":1445:1547   */\n    tag_69:\n        /* \"#utility.yul\":1486:1492   */\n      0x00\n        /* \"#utility.yul\":1537:1539   */\n      0x1f\n        /* \"#utility.yul\":1533:1540   */\n      not\n        /* \"#utility.yul\":1528:1530   */\n      0x1f\n        /* \"#utility.yul\":1521:1526   */\n      dup4\n        /* \"#utility.yul\":1517:1531   */\n      add\n        /* \"#utility.yul\":1513:1541   */\n      and\n        /* \"#utility.yul\":1503:1541   */\n      swap1\n      pop\n        /* \"#utility.yul\":1445:1547   */\n      swap2\n      swap1\n      pop\n      jump\t// out\n        /* \"#utility.yul\":1553:1930   */\n    tag_70:\n        /* \"#utility.yul\":1641:1644   */\n      0x00\n        /* \"#utility.yul\":1669:1708   */\n      tag_98\n        /* \"#utility.yul\":1702:1707   */\n      dup3\n        /* \"#utility.yul\":1669:1708   */\n      tag_66\n      jump\t// in\n    tag_98:\n        /* \"#utility.yul\":1724:1795   */\n      tag_99\n        /* \"#utility.yul\":1788:1794   */\n      dup2\n        /* \"#utility.yul\":1783:1786   */\n      dup6\n        /* \"#utility.yul\":1724:1795   */\n      tag_67\n      jump\t// in\n    tag_99:\n        /* \"#utility.yul\":1717:1795   */\n      swap4\n      pop\n        /* \"#utility.yul\":1804:1869   */\n      tag_100\n        /* \"#utility.yul\":1862:1868   */\n      dup2\n        /* \"#utility.yul\":1857:1860   */\n      dup6\n        /* \"#utility.yul\":1850:1854   */\n      0x20\n        /* \"#utility.yul\":1843:1848   */\n      dup7\n        /* \"#utility.yul\":1839:1855   */\n      add\n        /* \"#utility.yul\":1804:1869   */\n      tag_68\n      jump\t// in\n    tag_100:\n        /* \"#utility.yul\":1894:1923   */\n      tag_101\n        /* \"#utility.yul\":1916:1922   */\n      dup2\n        /* \"#utility.yul\":1894:1923   */\n      tag_69\n      jump\t// in\n    tag_101:\n        /* \"#utility.yul\":1889:1892   */\n      dup5\n        /* \"#utility.yul\":1885:1924   */\n      add\n        /* \"#utility.yul\":1878:1924   */\n      swap2\n      pop\n        /* \"#utility.yul\":1645:1930   */\n      pop\n        /* \"#utility.yul\":1553:1930   */\n      swap3\n      swap2\n      pop\n      pop\n      jump\t// out\n        /* \"#utility.yul\":1936:2249   */\n    tag_20:\n        /* \"#utility.yul\":2049:2053   */\n      0x00\n        /* \"#utility.yul\":2087:2089   */\n      0x20\n        /* \"#utility.yul\":2076:2085   */\n      dup3\n        /* \"#utility.yul\":2072:2090   */\n      add\n        /* \"#utility.yul\":2064:2090   */\n      swap1\n      pop\n        /* \"#utility.yul\":2136:2145   */\n      dup2\n        /* \"#utility.yul\":2130:2134   */\n      dup2\n        /* \"#utility.yul\":2126:2146   */\n      sub\n        /* \"#utility.yul\":2122:2123   */\n      0x00\n        /* \"#utility.yul\":2111:2120   */\n      dup4\n        /* \"#utility.yul\":2107:2124   */\n      add\n        /* \"#utility.yul\":2100:2147   */\n      mstore\n        /* \"#utility.yul\":2164:2242   */\n      tag_103\n        /* \"#utility.yul\":2237:2241   */\n      dup2\n        /* \"#utility.yul\":2228:2234   */\n      dup5\n        /* \"#utility.yul\":2164:2242   */\n      tag_70\n      jump\t// in\n    tag_103:\n        /* \"#utility.yul\":2156:2242   */\n      swap1\n      pop\n        /* \"#utility.yul\":1936:2249   */\n      swap3\n      swap2\n      pop\n      pop\n      jump\t// out\n        /* \"#utility.yul\":2255:2477   */\n    tag_24:\n        /* \"#utility.yul\":2348:2352   */\n      0x00\n        /* \"#utility.yul\":2386:2388   */\n      0x20\n        /* \"#utility.yul\":2375:2384   */\n      dup3\n        /* \"#utility.yul\":2371:2389   */\n      add\n        /* \"#utility.yul\":2363:2389   */\n      swap1\n      pop\n        /* \"#utility.yul\":2399:2470   */\n      tag_105\n        /* \"#utility.yul\":2467:2468   */\n      0x00\n        /* \"#utility.yul\":2456:2465   */\n      dup4\n        /* \"#utility.yul\":2452:2469   */\n      add\n        /* \"#utility.yul\":2443:2449   */\n      dup5\n        /* \"#utility.yul\":2399:2470   */\n      tag_63\n      jump\t// in\n    tag_105:\n        /* \"#utility.yul\":2255:2477   */\n      swap3\n      swap2\n      pop\n      pop\n      jump\t// out\n        /* \"#utility.yul\":2564:2681   */\n    tag_72:\n        /* \"#utility.yul\":2673:2674   */\n      0x00\n        /* \"#utility.yul\":2670:2671   */\n      0x00\n        /* \"#utility.yul\":2663:2675   */\n      revert\n        /* \"#utility.yul\":2810:2932   */\n    tag_74:\n        /* \"#utility.yul\":2883:2907   */\n      tag_110\n        /* \"#utility.yul\":2901:2906   */\n      dup2\n        /* \"#utility.yul\":2883:2907   */\n      tag_64\n      jump\t// in\n    tag_110:\n        /* \"#utility.yul\":2876:2881   */\n      dup2\n        /* \"#utility.yul\":2873:2908   */\n      eq\n        /* \"#utility.yul\":2863:2926   */\n      tag_111\n      jumpi\n        /* \"#utility.yul\":2922:2923   */\n      0x00\n        /* \"#utility.yul\":2919:2920   */\n      0x00\n        /* \"#utility.yul\":2912:2924   */\n      revert\n        /* \"#utility.yul\":2863:2926   */\n    tag_111:\n        /* \"#utility.yul\":2810:2932   */\n      pop\n      jump\t// out\n        /* \"#utility.yul\":2938:3077   */\n    tag_75:\n        /* \"#utility.yul\":2984:2989   */\n      0x00\n        /* \"#utility.yul\":3022:3028   */\n      dup2\n        /* \"#utility.yul\":3009:3029   */\n      calldataload\n        /* \"#utility.yul\":3000:3029   */\n      swap1\n      pop\n        /* \"#utility.yul\":3038:3071   */\n      tag_113\n        /* \"#utility.yul\":3065:3070   */\n      dup2\n        /* \"#utility.yul\":3038:3071   */\n      tag_74\n      jump\t// in\n    tag_113:\n        /* \"#utility.yul\":2938:3077   */\n      swap3\n      swap2\n      pop\n      pop\n      jump\t// out\n        /* \"#utility.yul\":3083:3557   */\n    tag_27:\n        /* \"#utility.yul\":3151:3157   */\n      0x00\n        /* \"#utility.yul\":3159:3165   */\n      0x00\n        /* \"#utility.yul\":3208:3210   */\n      0x40\n        /* \"#utility.yul\":3196:3205   */\n      dup4\n        /* \"#utility.yul\":3187:3194   */\n      dup6\n        /* \"#utility.yul\":3183:3206   */\n      sub\n        /* \"#utility.yul\":3179:3211   */\n      slt\n        /* \"#utility.yul\":3176:3295   */\n      iszero\n      tag_115\n      jumpi\n        /* \"#utility.yul\":3214:3293   */\n      tag_116\n      tag_72\n      jump\t// in\n    tag_116:\n        /* \"#utility.yul\":3176:3295   */\n    tag_115:\n        /* \"#utility.yul\":3334:3335   */\n      0x00\n        /* \"#utility.yul\":3359:3412   */\n      tag_117\n        /* \"#utility.yul\":3404:3411   */\n      dup6\n        /* \"#utility.yul\":3395:3401   */\n      dup3\n        /* \"#utility.yul\":3384:3393   */\n      dup7\n        /* \"#utility.yul\":3380:3402   */\n      add\n        /* \"#utility.yul\":3359:3412   */\n      tag_75\n      jump\t// in\n    tag_117:\n        /* \"#utility.yul\":3349:3412   */\n      swap3\n      pop\n        /* \"#utility.yul\":3305:3422   */\n      pop\n        /* \"#utility.yul\":3461:3463   */\n      0x20\n        /* \"#utility.yul\":3487:3540   */\n      tag_118\n        /* \"#utility.yul\":3532:3539   */\n      dup6\n        /* \"#utility.yul\":3523:3529   */\n      dup3\n        /* \"#utility.yul\":3512:3521   */\n      dup7\n        /* \"#utility.yul\":3508:3530   */\n      add\n        /* \"#utility.yul\":3487:3540   */\n      tag_75\n      jump\t// in\n    tag_118:\n        /* \"#utility.yul\":3477:3540   */\n      swap2\n      pop\n        /* \"#utility.yul\":3432:3550   */\n      pop\n        /* \"#utility.yul\":3083:3557   */\n      swap3\n      pop\n      swap3\n      swap1\n      pop\n      jump\t// out\n        /* \"#utility.yul\":3563:3785   */\n    tag_30:\n        /* \"#utility.yul\":3656:3660   */\n      0x00\n        /* \"#utility.yul\":3694:3696   */\n      0x20\n        /* \"#utility.yul\":3683:3692   */\n      dup3\n        /* \"#utility.yul\":3679:3697   */\n      add\n        /* \"#utility.yul\":3671:3697   */\n      swap1\n      pop\n        /* \"#utility.yul\":3707:3778   */\n      tag_120\n        /* \"#utility.yul\":3775:3776   */\n      0x00\n        /* \"#utility.yul\":3764:3773   */\n      dup4\n        /* \"#utility.yul\":3760:3777   */\n      add\n        /* \"#utility.yul\":3751:3757   */\n      dup5\n        /* \"#utility.yul\":3707:3778   */\n      tag_65\n      jump\t// in\n    tag_120:\n        /* \"#utility.yul\":3563:3785   */\n      swap3\n      swap2\n      pop\n      pop\n      jump\t// out\n        /* \"#utility.yul\":3791:3867   */\n    tag_76:\n        /* \"#utility.yul\":3827:3834   */\n      0x00\n        /* \"#utility.yul\":3856:3861   */\n      dup2\n        /* \"#utility.yul\":3845:3861   */\n      swap1\n      pop\n        /* \"#utility.yul\":3791:3867   */\n      swap2\n      swap1\n      pop\n      jump\t// out\n        /* \"#utility.yul\":3873:3988   */\n    tag_77:\n        /* \"#utility.yul\":3958:3981   */\n      tag_123\n        /* \"#utility.yul\":3975:3980   */\n      dup2\n        /* \"#utility.yul\":3958:3981   */\n      tag_76\n      jump\t// in\n    tag_123:\n        /* \"#utility.yul\":3953:3956   */\n      dup3\n        /* \"#utility.yul\":3946:3982   */\n      mstore\n        /* \"#utility.yul\":3873:3988   */\n      pop\n      pop\n      jump\t// out\n        /* \"#utility.yul\":3994:4212   */\n    tag_34:\n        /* \"#utility.yul\":4085:4089   */\n      0x00\n        /* \"#utility.yul\":4123:4125   */\n      0x20\n        /* \"#utility.yul\":4112:4121   */\n      dup3\n        /* \"#utility.yul\":4108:4126   */\n      add\n        /* \"#utility.yul\":4100:4126   */\n      swap1\n      pop\n        /* \"#utility.yul\":4136:4205   */\n      tag_125\n        /* \"#utility.yul\":4202:4203   */\n      0x00\n        /* \"#utility.yul\":4191:4200   */\n      dup4\n        /* \"#utility.yul\":4187:4204   */\n      add\n        /* \"#utility.yul\":4178:4184   */\n      dup5\n        /* \"#utility.yul\":4136:4205   */\n      tag_77\n      jump\t// in\n    tag_125:\n        /* \"#utility.yul\":3994:4212   */\n      swap3\n      swap2\n      pop\n      pop\n      jump\t// out\n        /* \"#utility.yul\":4218:4398   */\n    tag_78:\n        /* \"#utility.yul\":4266:4343   */\n      0x4e487b7100000000000000000000000000000000000000000000000000000000\n        /* \"#utility.yul\":4263:4264   */\n      0x00\n        /* \"#utility.yul\":4256:4344   */\n      mstore\n        /* \"#utility.yul\":4363:4367   */\n      0x22\n        /* \"#utility.yul\":4360:4361   */\n      0x04\n        /* \"#utility.yul\":4353:4368   */\n      mstore\n        /* \"#utility.yul\":4387:4391   */\n      0x24\n        /* \"#utility.yul\":4384:4385   */\n      0x00\n        /* \"#utility.yul\":4377:4392   */\n      revert\n        /* \"#utility.yul\":4404:4724   */\n    tag_50:\n        /* \"#utility.yul\":4448:4454   */\n      0x00\n        /* \"#utility.yul\":4485:4486   */\n      0x02\n        /* \"#utility.yul\":4479:4483   */\n      dup3\n        /* \"#utility.yul\":4475:4487   */\n      div\n        /* \"#utility.yul\":4465:4487   */\n      swap1\n      pop\n        /* \"#utility.yul\":4532:4533   */\n      0x01\n        /* \"#utility.yul\":4526:4530   */\n      dup3\n        /* \"#utility.yul\":4522:4534   */\n      and\n        /* \"#utility.yul\":4553:4571   */\n      dup1\n        /* \"#utility.yul\":4543:4624   */\n      tag_128\n      jumpi\n        /* \"#utility.yul\":4609:4613   */\n      0x7f\n        /* \"#utility.yul\":4601:4607   */\n      dup3\n        /* \"#utility.yul\":4597:4614   */\n      and\n        /* \"#utility.yul\":4587:4614   */\n      swap2\n      pop\n        /* \"#utility.yul\":4543:4624   */\n    tag_128:\n        /* \"#utility.yul\":4671:4673   */\n      0x20\n        /* \"#utility.yul\":4663:4669   */\n      dup3\n        /* \"#utility.yul\":4660:4674   */\n      lt\n        /* \"#utility.yul\":4640:4658   */\n      dup2\n        /* \"#utility.yul\":4637:4675   */\n      sub\n        /* \"#utility.yul\":4634:4718   */\n      tag_129\n      jumpi\n        /* \"#utility.yul\":4690:4708   */\n      tag_130\n      tag_78\n      jump\t// in\n    tag_130:\n        /* \"#utility.yul\":4634:4718   */\n    tag_129:\n        /* \"#utility.yul\":4455:4724   */\n      pop\n        /* \"#utility.yul\":4404:4724   */\n      swap2\n      swap1\n      pop\n      jump\t// out\n        /* \"#utility.yul\":4730:4910   */\n    tag_79:\n        /* \"#utility.yul\":4778:4855   */\n      0x4e487b7100000000000000000000000000000000000000000000000000000000\n        /* \"#utility.yul\":4775:4776   */\n      0x00\n        /* \"#utility.yul\":4768:4856   */\n      mstore\n        /* \"#utility.yul\":4875:4879   */\n      0x11\n        /* \"#utility.yul\":4872:4873   */\n      0x04\n        /* \"#utility.yul\":4865:4880   */\n      mstore\n        /* \"#utility.yul\":4899:4903   */\n      0x24\n        /* \"#utility.yul\":4896:4897   */\n      0x00\n        /* \"#utility.yul\":4889:4904   */\n      revert\n        /* \"#utility.yul\":4916:5107   */\n    tag_57:\n        /* \"#utility.yul\":4956:4959   */\n      0x00\n        /* \"#utility.yul\":4975:4995   */\n      tag_133\n        /* \"#utility.yul\":4993:4994   */\n      dup3\n        /* \"#utility.yul\":4975:4995   */\n      tag_64\n      jump\t// in\n    tag_133:\n        /* \"#utility.yul\":4970:4995   */\n      swap2\n      pop\n        /* \"#utility.yul\":5009:5029   */\n      tag_134\n        /* \"#utility.yul\":5027:5028   */\n      dup4\n        /* \"#utility.yul\":5009:5029   */\n      tag_64\n      jump\t// in\n    tag_134:\n        /* \"#utility.yul\":5004:5029   */\n      swap3\n      pop\n        /* \"#utility.yul\":5052:5053   */\n      dup3\n        /* \"#utility.yul\":5049:5050   */\n      dup3\n        /* \"#utility.yul\":5045:5054   */\n      add\n        /* \"#utility.yul\":5038:5054   */\n      swap1\n      pop\n        /* \"#utility.yul\":5073:5076   */\n      dup1\n        /* \"#utility.yul\":5070:5071   */\n      dup3\n        /* \"#utility.yul\":5067:5077   */\n      gt\n        /* \"#utility.yul\":5064:5100   */\n      iszero\n      tag_135\n      jumpi\n        /* \"#utility.yul\":5080:5098   */\n      tag_136\n      tag_79\n      jump\t// in\n    tag_136:\n        /* \"#utility.yul\":5064:5100   */\n    tag_135:\n        /* \"#utility.yul\":4916:5107   */\n      swap3\n      swap2\n      pop\n      pop\n      jump\t// out\n        /* \"#utility.yul\":5113:5307   */\n    tag_60:\n        /* \"#utility.yul\":5153:5157   */\n      0x00\n        /* \"#utility.yul\":5173:5193   */\n      tag_138\n        /* \"#utility.yul\":5191:5192   */\n      dup3\n        /* \"#utility.yul\":5173:5193   */\n      tag_64\n      jump\t// in\n    tag_138:\n        /* \"#utility.yul\":5168:5193   */\n      swap2\n      pop\n        /* \"#utility.yul\":5207:5227   */\n      tag_139\n        /* \"#utility.yul\":5225:5226   */\n      dup4\n        /* \"#utility.yul\":5207:5227   */\n      tag_64\n      jump\t// in\n    tag_139:\n        /* \"#utility.yul\":5202:5227   */\n      swap3\n      pop\n        /* \"#utility.yul\":5251:5252   */\n      dup3\n        /* \"#utility.yul\":5248:5249   */\n      dup3\n        /* \"#utility.yul\":5244:5253   */\n      sub\n        /* \"#utility.yul\":5236:5253   */\n      swap1\n      pop\n        /* \"#utility.yul\":5275:5276   */\n      dup2\n        /* \"#utility.yul\":5269:5273   */\n      dup2\n        /* \"#utility.yul\":5266:5277   */\n      gt\n        /* \"#utility.yul\":5263:5300   */\n      iszero\n      tag_140\n      jumpi\n        /* \"#utility.yul\":5280:5298   */\n      tag_141\n      tag_79\n      jump\t// in\n    tag_141:\n        /* \"#utility.yul\":5263:5300   */\n    tag_140:\n        /* \"#utility.yul\":5113:5307   */\n      swap3\n      swap2\n      pop\n      pop\n      jump\t// out\n\n    auxdata: 0xa264697066735822122015ed494ecdd3211d8683e28de21eed737fa3ec18315a81f41ae2823802bdf52b64736f6c63430008220033\n}\n",
				"bytecode": {
					"linkReferences": {},
					"object": "60806040526040518060400160405280600c81526020017f48656c6c6f20576f726c642100000000000000000000000000000000000000008152505f90816100479190610385565b506001805f6101000a81548160ff021916908315150217905550607b6002557fffffffffffffffffffffffffffffffffffffffffffffffffffffffffffffff856003557f7fffffffffffffffffffffffffffffffffffffffffffffffffffffffffffffff6004557f8000000000000000000000000000000000000000000000000000000000000000600555735b38da6a701c568545dcfcb03fcb875f56beddc460065f6101000a81548173ffffffffffffffffffffffffffffffffffffffff021916908373ffffffffffffffffffffffffffffffffffffffff160217905550348015610131575f5ffd5b50610454565b5f81519050919050565b7f4e487b71000000000000000000000000000000000000000000000000000000005f52604160045260245ffd5b7f4e487b71000000000000000000000000000000000000000000000000000000005f52602260045260245ffd5b5f60028204905060018216806101b257607f821691505b6020821081036101c5576101c461016e565b5b50919050565b5f819050815f5260205f209050919050565b5f6020601f8301049050919050565b5f82821b905092915050565b5f600883026102277fffffffffffffffffffffffffffffffffffffffffffffffffffffffffffffffff826101ec565b61023186836101ec565b95508019841693508086168417925050509392505050565b5f819050919050565b5f819050919050565b5f61027561027061026b84610249565b610252565b610249565b9050919050565b5f819050919050565b61028e8361025b565b6102a261029a8261027c565b8484546101f8565b825550505050565b5f5f905090565b6102b96102aa565b6102c4818484610285565b505050565b5f5b828110156102ea576102df5f8284016102b1565b6001810190506102cb565b505050565b601f82111561033d578282111561033c57610309816101cb565b610312836101dd565b61031b856101dd565b6020861015610328575f90505b808301610337828403826102c9565b505050505b5b505050565b5f82821c905092915050565b5f61035d5f1984600802610342565b1980831691505092915050565b5f610375838361034e565b9150826002028217905092915050565b61038e82610137565b67ffffffffffffffff8111156103a7576103a6610141565b5b6103b1825461019b565b6103bc8282856102ef565b5f60209050601f8311600181146103ed575f84156103db578287015190505b6103e5858261036a565b86555061044c565b601f1984166103fb866101cb565b5f5b82811015610422578489015182556001820191506020850194506020810190506103fd565b8683101561043f578489015161043b601f89168261034e565b8355505b6001600288020188555050505b505050505050565b6105ec806104615f395ff3fe608060405234801561000f575f5ffd5b5060043610610091575f3560e01c80637a4c2571116100645780637a4c2571146101215780637e4e14cc1461013f578063b67d77c51461015d578063c6a898c51461018d578063e5aa3d58146101ab57610091565b80632952d065146100955780635a455c1c146100b5578063767800de146100d3578063771602f7146100f1575b5f5ffd5b61009d6101c9565b6040516100ac93929190610332565b60405180910390f35b6100bd6101e9565b6040516100ca91906103d7565b60405180910390f35b6100db610274565b6040516100e891906103f7565b60405180910390f35b61010b6004803603810190610106919061043e565b610299565b604051610118919061047c565b60405180910390f35b6101296102ae565b60405161013691906104ad565b60405180910390f35b6101476102b4565b60405161015491906104ad565b60405180910390f35b6101776004803603810190610172919061043e565b6102ba565b604051610184919061047c565b60405180910390f35b6101956102cf565b6040516101a2919061047c565b60405180910390f35b6101b36102d5565b6040516101c091906104ad565b60405180910390f35b5f5f5f5f3390505f4290505f439050828282955095509550505050909192565b5f80546101f5906104f3565b80601f0160208091040260200160405190810160405280929190818152602001828054610221906104f3565b801561026c5780601f106102435761010080835404028352916020019161026c565b820191905f5260205f20905b81548152906001019060200180831161024f57829003601f168201915b505050505081565b60065f9054906101000a900473ffffffffffffffffffffffffffffffffffffffff1681565b5f81836102a69190610550565b905092915050565b60045481565b60055481565b5f81836102c79190610583565b905092915050565b60025481565b60035481565b5f73ffffffffffffffffffffffffffffffffffffffff82169050919050565b5f610304826102db565b9050919050565b610314816102fa565b82525050565b5f819050919050565b61032c8161031a565b82525050565b5f6060820190506103455f83018661030b565b6103526020830185610323565b61035f6040830184610323565b949350505050565b5f81519050919050565b5f82825260208201905092915050565b8281835e5f83830152505050565b5f601f19601f8301169050919050565b5f6103a982610367565b6103b38185610371565b93506103c3818560208601610381565b6103cc8161038f565b840191505092915050565b5f6020820190508181035f8301526103ef818461039f565b905092915050565b5f60208201905061040a5f83018461030b565b92915050565b5f5ffd5b61041d8161031a565b8114610427575f5ffd5b50565b5f8135905061043881610414565b92915050565b5f5f6040838503121561045457610453610410565b5b5f6104618582860161042a565b92505060206104728582860161042a565b9150509250929050565b5f60208201905061048f5f830184610323565b92915050565b5f819050919050565b6104a781610495565b82525050565b5f6020820190506104c05f83018461049e565b92915050565b7f4e487b71000000000000000000000000000000000000000000000000000000005f52602260045260245ffd5b5f600282049050600182168061050a57607f821691505b60208210810361051d5761051c6104c6565b5b50919050565b7f4e487b71000000000000000000000000000000000000000000000000000000005f52601160045260245ffd5b5f61055a8261031a565b91506105658361031a565b925082820190508082111561057d5761057c610523565b5b92915050565b5f61058d8261031a565b91506105988361031a565b92508282039050818111156105b0576105af610523565b5b9291505056fea264697066735822122015ed494ecdd3211d8683e28de21eed737fa3ec18315a81f41ae2823802bdf52b64736f6c63430008220033",
					"opcodes": "PUSH1 0x80 PUSH1 0x40 MSTORE PUSH1 0x40 MLOAD DUP1 PUSH1 0x40 ADD PUSH1 0x40 MSTORE DUP1 PUSH1 0xC DUP2 MSTORE PUSH1 0x20 ADD PUSH32 0x48656C6C6F20576F726C64210000000000000000000000000000000000000000 DUP2 MSTORE POP PUSH0 SWAP1 DUP2 PUSH2 0x47 SWAP2 SWAP1 PUSH2 0x385 JUMP JUMPDEST POP PUSH1 0x1 DUP1 PUSH0 PUSH2 0x100 EXP DUP2 SLOAD DUP2 PUSH1 0xFF MUL NOT AND SWAP1 DUP4 ISZERO ISZERO MUL OR SWAP1 SSTORE POP PUSH1 0x7B PUSH1 0x2 SSTORE PUSH32 0xFFFFFFFFFFFFFFFFFFFFFFFFFFFFFFFFFFFFFFFFFFFFFFFFFFFFFFFFFFFFFF85 PUSH1 0x3 SSTORE PUSH32 0x7FFFFFFFFFFFFFFFFFFFFFFFFFFFFFFFFFFFFFFFFFFFFFFFFFFFFFFFFFFFFFFF PUSH1 0x4 SSTORE PUSH32 0x8000000000000000000000000000000000000000000000000000000000000000 PUSH1 0x5 SSTORE PUSH20 0x5B38DA6A701C568545DCFCB03FCB875F56BEDDC4 PUSH1 0x6 PUSH0 PUSH2 0x100 EXP DUP2 SLOAD DUP2 PUSH20 0xFFFFFFFFFFFFFFFFFFFFFFFFFFFFFFFFFFFFFFFF MUL NOT AND SWAP1 DUP4 PUSH20 0xFFFFFFFFFFFFFFFFFFFFFFFFFFFFFFFFFFFFFFFF AND MUL OR SWAP1 SSTORE POP CALLVALUE DUP1 ISZERO PUSH2 0x131 JUMPI PUSH0 PUSH0 REVERT JUMPDEST POP PUSH2 0x454 JUMP JUMPDEST PUSH0 DUP2 MLOAD SWAP1 POP SWAP2 SWAP1 POP JUMP JUMPDEST PUSH32 0x4E487B7100000000000000000000000000000000000000000000000000000000 PUSH0 MSTORE PUSH1 0x41 PUSH1 0x4 MSTORE PUSH1 0x24 PUSH0 REVERT JUMPDEST PUSH32 0x4E487B7100000000000000000000000000000000000000000000000000000000 PUSH0 MSTORE PUSH1 0x22 PUSH1 0x4 MSTORE PUSH1 0x24 PUSH0 REVERT JUMPDEST PUSH0 PUSH1 0x2 DUP3 DIV SWAP1 POP PUSH1 0x1 DUP3 AND DUP1 PUSH2 0x1B2 JUMPI PUSH1 0x7F DUP3 AND SWAP2 POP JUMPDEST PUSH1 0x20 DUP3 LT DUP2 SUB PUSH2 0x1C5 JUMPI PUSH2 0x1C4 PUSH2 0x16E JUMP JUMPDEST JUMPDEST POP SWAP2 SWAP1 POP JUMP JUMPDEST PUSH0 DUP2 SWAP1 POP DUP2 PUSH0 MSTORE PUSH1 0x20 PUSH0 KECCAK256 SWAP1 POP SWAP2 SWAP1 POP JUMP JUMPDEST PUSH0 PUSH1 0x20 PUSH1 0x1F DUP4 ADD DIV SWAP1 POP SWAP2 SWAP1 POP JUMP JUMPDEST PUSH0 DUP3 DUP3 SHL SWAP1 POP SWAP3 SWAP2 POP POP JUMP JUMPDEST PUSH0 PUSH1 0x8 DUP4 MUL PUSH2 0x227 PUSH32 0xFFFFFFFFFFFFFFFFFFFFFFFFFFFFFFFFFFFFFFFFFFFFFFFFFFFFFFFFFFFFFFFF DUP3 PUSH2 0x1EC JUMP JUMPDEST PUSH2 0x231 DUP7 DUP4 PUSH2 0x1EC JUMP JUMPDEST SWAP6 POP DUP1 NOT DUP5 AND SWAP4 POP DUP1 DUP7 AND DUP5 OR SWAP3 POP POP POP SWAP4 SWAP3 POP POP POP JUMP JUMPDEST PUSH0 DUP2 SWAP1 POP SWAP2 SWAP1 POP JUMP JUMPDEST PUSH0 DUP2 SWAP1 POP SWAP2 SWAP1 POP JUMP JUMPDEST PUSH0 PUSH2 0x275 PUSH2 0x270 PUSH2 0x26B DUP5 PUSH2 0x249 JUMP JUMPDEST PUSH2 0x252 JUMP JUMPDEST PUSH2 0x249 JUMP JUMPDEST SWAP1 POP SWAP2 SWAP1 POP JUMP JUMPDEST PUSH0 DUP2 SWAP1 POP SWAP2 SWAP1 POP JUMP JUMPDEST PUSH2 0x28E DUP4 PUSH2 0x25B JUMP JUMPDEST PUSH2 0x2A2 PUSH2 0x29A DUP3 PUSH2 0x27C JUMP JUMPDEST DUP5 DUP5 SLOAD PUSH2 0x1F8 JUMP JUMPDEST DUP3 SSTORE POP POP POP POP JUMP JUMPDEST PUSH0 PUSH0 SWAP1 POP SWAP1 JUMP JUMPDEST PUSH2 0x2B9 PUSH2 0x2AA JUMP JUMPDEST PUSH2 0x2C4 DUP2 DUP5 DUP5 PUSH2 0x285 JUMP JUMPDEST POP POP POP JUMP JUMPDEST PUSH0 JUMPDEST DUP3 DUP2 LT ISZERO PUSH2 0x2EA JUMPI PUSH2 0x2DF PUSH0 DUP3 DUP5 ADD PUSH2 0x2B1 JUMP JUMPDEST PUSH1 0x1 DUP2 ADD SWAP1 POP PUSH2 0x2CB JUMP JUMPDEST POP POP POP JUMP JUMPDEST PUSH1 0x1F DUP3 GT ISZERO PUSH2 0x33D JUMPI DUP3 DUP3 GT ISZERO PUSH2 0x33C JUMPI PUSH2 0x309 DUP2 PUSH2 0x1CB JUMP JUMPDEST PUSH2 0x312 DUP4 PUSH2 0x1DD JUMP JUMPDEST PUSH2 0x31B DUP6 PUSH2 0x1DD JUMP JUMPDEST PUSH1 0x20 DUP7 LT ISZERO PUSH2 0x328 JUMPI PUSH0 SWAP1 POP JUMPDEST DUP1 DUP4 ADD PUSH2 0x337 DUP3 DUP5 SUB DUP3 PUSH2 0x2C9 JUMP JUMPDEST POP POP POP POP JUMPDEST JUMPDEST POP POP POP JUMP JUMPDEST PUSH0 DUP3 DUP3 SHR SWAP1 POP SWAP3 SWAP2 POP POP JUMP JUMPDEST PUSH0 PUSH2 0x35D PUSH0 NOT DUP5 PUSH1 0x8 MUL PUSH2 0x342 JUMP JUMPDEST NOT DUP1 DUP4 AND SWAP2 POP POP SWAP3 SWAP2 POP POP JUMP JUMPDEST PUSH0 PUSH2 0x375 DUP4 DUP4 PUSH2 0x34E JUMP JUMPDEST SWAP2 POP DUP3 PUSH1 0x2 MUL DUP3 OR SWAP1 POP SWAP3 SWAP2 POP POP JUMP JUMPDEST PUSH2 0x38E DUP3 PUSH2 0x137 JUMP JUMPDEST PUSH8 0xFFFFFFFFFFFFFFFF DUP2 GT ISZERO PUSH2 0x3A7 JUMPI PUSH2 0x3A6 PUSH2 0x141 JUMP JUMPDEST JUMPDEST PUSH2 0x3B1 DUP3 SLOAD PUSH2 0x19B JUMP JUMPDEST PUSH2 0x3BC DUP3 DUP3 DUP6 PUSH2 0x2EF JUMP JUMPDEST PUSH0 PUSH1 0x20 SWAP1 POP PUSH1 0x1F DUP4 GT PUSH1 0x1 DUP2 EQ PUSH2 0x3ED JUMPI PUSH0 DUP5 ISZERO PUSH2 0x3DB JUMPI DUP3 DUP8 ADD MLOAD SWAP1 POP JUMPDEST PUSH2 0x3E5 DUP6 DUP3 PUSH2 0x36A JUMP JUMPDEST DUP7 SSTORE POP PUSH2 0x44C JUMP JUMPDEST PUSH1 0x1F NOT DUP5 AND PUSH2 0x3FB DUP7 PUSH2 0x1CB JUMP JUMPDEST PUSH0 JUMPDEST DUP3 DUP2 LT ISZERO PUSH2 0x422 JUMPI DUP5 DUP10 ADD MLOAD DUP3 SSTORE PUSH1 0x1 DUP3 ADD SWAP2 POP PUSH1 0x20 DUP6 ADD SWAP5 POP PUSH1 0x20 DUP2 ADD SWAP1 POP PUSH2 0x3FD JUMP JUMPDEST DUP7 DUP4 LT ISZERO PUSH2 0x43F JUMPI DUP5 DUP10 ADD MLOAD PUSH2 0x43B PUSH1 0x1F DUP10 AND DUP3 PUSH2 0x34E JUMP JUMPDEST DUP4 SSTORE POP JUMPDEST PUSH1 0x1 PUSH1 0x2 DUP9 MUL ADD DUP9 SSTORE POP POP POP JUMPDEST POP POP POP POP POP POP JUMP JUMPDEST PUSH2 0x5EC DUP1 PUSH2 0x461 PUSH0 CODECOPY PUSH0 RETURN INVALID PUSH1 0x80 PUSH1 0x40 MSTORE CALLVALUE DUP1 ISZERO PUSH2 0xF JUMPI PUSH0 PUSH0 REVERT JUMPDEST POP PUSH1 0x4 CALLDATASIZE LT PUSH2 0x91 JUMPI PUSH0 CALLDATALOAD PUSH1 0xE0 SHR DUP1 PUSH4 0x7A4C2571 GT PUSH2 0x64 JUMPI DUP1 PUSH4 0x7A4C2571 EQ PUSH2 0x121 JUMPI DUP1 PUSH4 0x7E4E14CC EQ PUSH2 0x13F JUMPI DUP1 PUSH4 0xB67D77C5 EQ PUSH2 0x15D JUMPI DUP1 PUSH4 0xC6A898C5 EQ PUSH2 0x18D JUMPI DUP1 PUSH4 0xE5AA3D58 EQ PUSH2 0x1AB JUMPI PUSH2 0x91 JUMP JUMPDEST DUP1 PUSH4 0x2952D065 EQ PUSH2 0x95 JUMPI DUP1 PUSH4 0x5A455C1C EQ PUSH2 0xB5 JUMPI DUP1 PUSH4 0x767800DE EQ PUSH2 0xD3 JUMPI DUP1 PUSH4 0x771602F7 EQ PUSH2 0xF1 JUMPI JUMPDEST PUSH0 PUSH0 REVERT JUMPDEST PUSH2 0x9D PUSH2 0x1C9 JUMP JUMPDEST PUSH1 0x40 MLOAD PUSH2 0xAC SWAP4 SWAP3 SWAP2 SWAP1 PUSH2 0x332 JUMP JUMPDEST PUSH1 0x40 MLOAD DUP1 SWAP2 SUB SWAP1 RETURN JUMPDEST PUSH2 0xBD PUSH2 0x1E9 JUMP JUMPDEST PUSH1 0x40 MLOAD PUSH2 0xCA SWAP2 SWAP1 PUSH2 0x3D7 JUMP JUMPDEST PUSH1 0x40 MLOAD DUP1 SWAP2 SUB SWAP1 RETURN JUMPDEST PUSH2 0xDB PUSH2 0x274 JUMP JUMPDEST PUSH1 0x40 MLOAD PUSH2 0xE8 SWAP2 SWAP1 PUSH2 0x3F7 JUMP JUMPDEST PUSH1 0x40 MLOAD DUP1 SWAP2 SUB SWAP1 RETURN JUMPDEST PUSH2 0x10B PUSH1 0x4 DUP1 CALLDATASIZE SUB DUP2 ADD SWAP1 PUSH2 0x106 SWAP2 SWAP1 PUSH2 0x43E JUMP JUMPDEST PUSH2 0x299 JUMP JUMPDEST PUSH1 0x40 MLOAD PUSH2 0x118 SWAP2 SWAP1 PUSH2 0x47C JUMP JUMPDEST PUSH1 0x40 MLOAD DUP1 SWAP2 SUB SWAP1 RETURN JUMPDEST PUSH2 0x129 PUSH2 0x2AE JUMP JUMPDEST PUSH1 0x40 MLOAD PUSH2 0x136 SWAP2 SWAP1 PUSH2 0x4AD JUMP JUMPDEST PUSH1 0x40 MLOAD DUP1 SWAP2 SUB SWAP1 RETURN JUMPDEST PUSH2 0x147 PUSH2 0x2B4 JUMP JUMPDEST PUSH1 0x40 MLOAD PUSH2 0x154 SWAP2 SWAP1 PUSH2 0x4AD JUMP JUMPDEST PUSH1 0x40 MLOAD DUP1 SWAP2 SUB SWAP1 RETURN JUMPDEST PUSH2 0x177 PUSH1 0x4 DUP1 CALLDATASIZE SUB DUP2 ADD SWAP1 PUSH2 0x172 SWAP2 SWAP1 PUSH2 0x43E JUMP JUMPDEST PUSH2 0x2BA JUMP JUMPDEST PUSH1 0x40 MLOAD PUSH2 0x184 SWAP2 SWAP1 PUSH2 0x47C JUMP JUMPDEST PUSH1 0x40 MLOAD DUP1 SWAP2 SUB SWAP1 RETURN JUMPDEST PUSH2 0x195 PUSH2 0x2CF JUMP JUMPDEST PUSH1 0x40 MLOAD PUSH2 0x1A2 SWAP2 SWAP1 PUSH2 0x47C JUMP JUMPDEST PUSH1 0x40 MLOAD DUP1 SWAP2 SUB SWAP1 RETURN JUMPDEST PUSH2 0x1B3 PUSH2 0x2D5 JUMP JUMPDEST PUSH1 0x40 MLOAD PUSH2 0x1C0 SWAP2 SWAP1 PUSH2 0x4AD JUMP JUMPDEST PUSH1 0x40 MLOAD DUP1 SWAP2 SUB SWAP1 RETURN JUMPDEST PUSH0 PUSH0 PUSH0 PUSH0 CALLER SWAP1 POP PUSH0 TIMESTAMP SWAP1 POP PUSH0 NUMBER SWAP1 POP DUP3 DUP3 DUP3 SWAP6 POP SWAP6 POP SWAP6 POP POP POP POP SWAP1 SWAP2 SWAP3 JUMP JUMPDEST PUSH0 DUP1 SLOAD PUSH2 0x1F5 SWAP1 PUSH2 0x4F3 JUMP JUMPDEST DUP1 PUSH1 0x1F ADD PUSH1 0x20 DUP1 SWAP2 DIV MUL PUSH1 0x20 ADD PUSH1 0x40 MLOAD SWAP1 DUP2 ADD PUSH1 0x40 MSTORE DUP1 SWAP3 SWAP2 SWAP1 DUP2 DUP2 MSTORE PUSH1 0x20 ADD DUP3 DUP1 SLOAD PUSH2 0x221 SWAP1 PUSH2 0x4F3 JUMP JUMPDEST DUP1 ISZERO PUSH2 0x26C JUMPI DUP1 PUSH1 0x1F LT PUSH2 0x243 JUMPI PUSH2 0x100 DUP1 DUP4 SLOAD DIV MUL DUP4 MSTORE SWAP2 PUSH1 0x20 ADD SWAP2 PUSH2 0x26C JUMP JUMPDEST DUP3 ADD SWAP2 SWAP1 PUSH0 MSTORE PUSH1 0x20 PUSH0 KECCAK256 SWAP1 JUMPDEST DUP2 SLOAD DUP2 MSTORE SWAP1 PUSH1 0x1 ADD SWAP1 PUSH1 0x20 ADD DUP1 DUP4 GT PUSH2 0x24F JUMPI DUP3 SWAP1 SUB PUSH1 0x1F AND DUP3 ADD SWAP2 JUMPDEST POP POP POP POP POP DUP2 JUMP JUMPDEST PUSH1 0x6 PUSH0 SWAP1 SLOAD SWAP1 PUSH2 0x100 EXP SWAP1 DIV PUSH20 0xFFFFFFFFFFFFFFFFFFFFFFFFFFFFFFFFFFFFFFFF AND DUP2 JUMP JUMPDEST PUSH0 DUP2 DUP4 PUSH2 0x2A6 SWAP2 SWAP1 PUSH2 0x550 JUMP JUMPDEST SWAP1 POP SWAP3 SWAP2 POP POP JUMP JUMPDEST PUSH1 0x4 SLOAD DUP2 JUMP JUMPDEST PUSH1 0x5 SLOAD DUP2 JUMP JUMPDEST PUSH0 DUP2 DUP4 PUSH2 0x2C7 SWAP2 SWAP1 PUSH2 0x583 JUMP JUMPDEST SWAP1 POP SWAP3 SWAP2 POP POP JUMP JUMPDEST PUSH1 0x2 SLOAD DUP2 JUMP JUMPDEST PUSH1 0x3 SLOAD DUP2 JUMP JUMPDEST PUSH0 PUSH20 0xFFFFFFFFFFFFFFFFFFFFFFFFFFFFFFFFFFFFFFFF DUP3 AND SWAP1 POP SWAP2 SWAP1 POP JUMP JUMPDEST PUSH0 PUSH2 0x304 DUP3 PUSH2 0x2DB JUMP JUMPDEST SWAP1 POP SWAP2 SWAP1 POP JUMP JUMPDEST PUSH2 0x314 DUP2 PUSH2 0x2FA JUMP JUMPDEST DUP3 MSTORE POP POP JUMP JUMPDEST PUSH0 DUP2 SWAP1 POP SWAP2 SWAP1 POP JUMP JUMPDEST PUSH2 0x32C DUP2 PUSH2 0x31A JUMP JUMPDEST DUP3 MSTORE POP POP JUMP JUMPDEST PUSH0 PUSH1 0x60 DUP3 ADD SWAP1 POP PUSH2 0x345 PUSH0 DUP4 ADD DUP7 PUSH2 0x30B JUMP JUMPDEST PUSH2 0x352 PUSH1 0x20 DUP4 ADD DUP6 PUSH2 0x323 JUMP JUMPDEST PUSH2 0x35F PUSH1 0x40 DUP4 ADD DUP5 PUSH2 0x323 JUMP JUMPDEST SWAP5 SWAP4 POP POP POP POP JUMP JUMPDEST PUSH0 DUP2 MLOAD SWAP1 POP SWAP2 SWAP1 POP JUMP JUMPDEST PUSH0 DUP3 DUP3 MSTORE PUSH1 0x20 DUP3 ADD SWAP1 POP SWAP3 SWAP2 POP POP JUMP JUMPDEST DUP3 DUP2 DUP4 MCOPY PUSH0 DUP4 DUP4 ADD MSTORE POP POP POP JUMP JUMPDEST PUSH0 PUSH1 0x1F NOT PUSH1 0x1F DUP4 ADD AND SWAP1 POP SWAP2 SWAP1 POP JUMP JUMPDEST PUSH0 PUSH2 0x3A9 DUP3 PUSH2 0x367 JUMP JUMPDEST PUSH2 0x3B3 DUP2 DUP6 PUSH2 0x371 JUMP JUMPDEST SWAP4 POP PUSH2 0x3C3 DUP2 DUP6 PUSH1 0x20 DUP7 ADD PUSH2 0x381 JUMP JUMPDEST PUSH2 0x3CC DUP2 PUSH2 0x38F JUMP JUMPDEST DUP5 ADD SWAP2 POP POP SWAP3 SWAP2 POP POP JUMP JUMPDEST PUSH0 PUSH1 0x20 DUP3 ADD SWAP1 POP DUP2 DUP2 SUB PUSH0 DUP4 ADD MSTORE PUSH2 0x3EF DUP2 DUP5 PUSH2 0x39F JUMP JUMPDEST SWAP1 POP SWAP3 SWAP2 POP POP JUMP JUMPDEST PUSH0 PUSH1 0x20 DUP3 ADD SWAP1 POP PUSH2 0x40A PUSH0 DUP4 ADD DUP5 PUSH2 0x30B JUMP JUMPDEST SWAP3 SWAP2 POP POP JUMP JUMPDEST PUSH0 PUSH0 REVERT JUMPDEST PUSH2 0x41D DUP2 PUSH2 0x31A JUMP JUMPDEST DUP2 EQ PUSH2 0x427 JUMPI PUSH0 PUSH0 REVERT JUMPDEST POP JUMP JUMPDEST PUSH0 DUP2 CALLDATALOAD SWAP1 POP PUSH2 0x438 DUP2 PUSH2 0x414 JUMP JUMPDEST SWAP3 SWAP2 POP POP JUMP JUMPDEST PUSH0 PUSH0 PUSH1 0x40 DUP4 DUP6 SUB SLT ISZERO PUSH2 0x454 JUMPI PUSH2 0x453 PUSH2 0x410 JUMP JUMPDEST JUMPDEST PUSH0 PUSH2 0x461 DUP6 DUP3 DUP7 ADD PUSH2 0x42A JUMP JUMPDEST SWAP3 POP POP PUSH1 0x20 PUSH2 0x472 DUP6 DUP3 DUP7 ADD PUSH2 0x42A JUMP JUMPDEST SWAP2 POP POP SWAP3 POP SWAP3 SWAP1 POP JUMP JUMPDEST PUSH0 PUSH1 0x20 DUP3 ADD SWAP1 POP PUSH2 0x48F PUSH0 DUP4 ADD DUP5 PUSH2 0x323 JUMP JUMPDEST SWAP3 SWAP2 POP POP JUMP JUMPDEST PUSH0 DUP2 SWAP1 POP SWAP2 SWAP1 POP JUMP JUMPDEST PUSH2 0x4A7 DUP2 PUSH2 0x495 JUMP JUMPDEST DUP3 MSTORE POP POP JUMP JUMPDEST PUSH0 PUSH1 0x20 DUP3 ADD SWAP1 POP PUSH2 0x4C0 PUSH0 DUP4 ADD DUP5 PUSH2 0x49E JUMP JUMPDEST SWAP3 SWAP2 POP POP JUMP JUMPDEST PUSH32 0x4E487B7100000000000000000000000000000000000000000000000000000000 PUSH0 MSTORE PUSH1 0x22 PUSH1 0x4 MSTORE PUSH1 0x24 PUSH0 REVERT JUMPDEST PUSH0 PUSH1 0x2 DUP3 DIV SWAP1 POP PUSH1 0x1 DUP3 AND DUP1 PUSH2 0x50A JUMPI PUSH1 0x7F DUP3 AND SWAP2 POP JUMPDEST PUSH1 0x20 DUP3 LT DUP2 SUB PUSH2 0x51D JUMPI PUSH2 0x51C PUSH2 0x4C6 JUMP JUMPDEST JUMPDEST POP SWAP2 SWAP1 POP JUMP JUMPDEST PUSH32 0x4E487B7100000000000000000000000000000000000000000000000000000000 PUSH0 MSTORE PUSH1 0x11 PUSH1 0x4 MSTORE PUSH1 0x24 PUSH0 REVERT JUMPDEST PUSH0 PUSH2 0x55A DUP3 PUSH2 0x31A JUMP JUMPDEST SWAP2 POP PUSH2 0x565 DUP4 PUSH2 0x31A JUMP JUMPDEST SWAP3 POP DUP3 DUP3 ADD SWAP1 POP DUP1 DUP3 GT ISZERO PUSH2 0x57D JUMPI PUSH2 0x57C PUSH2 0x523 JUMP JUMPDEST JUMPDEST SWAP3 SWAP2 POP POP JUMP JUMPDEST PUSH0 PUSH2 0x58D DUP3 PUSH2 0x31A JUMP JUMPDEST SWAP2 POP PUSH2 0x598 DUP4 PUSH2 0x31A JUMP JUMPDEST SWAP3 POP DUP3 DUP3 SUB SWAP1 POP DUP2 DUP2 GT ISZERO PUSH2 0x5B0 JUMPI PUSH2 0x5AF PUSH2 0x523 JUMP JUMPDEST JUMPDEST SWAP3 SWAP2 POP POP JUMP INVALID LOG2 PUSH5 0x6970667358 0x22 SLT KECCAK256 ISZERO 0xED BLOBHASH 0x4E 0xCD 0xD3 0x21 SAR DUP7 DUP4 0xE2 DUP14 0xE2 CLZ 0xED PUSH20 0x7FA3EC18315A81F41AE2823802BDF52B64736F6C PUSH4 0x43000822 STOP CALLER "
				},
				"gasEstimates": {
					"creation": {
						"codeDepositCost": "303200",
						"executionCost": "infinite",
						"totalCost": "infinite"
					},
					"external": {
						"add(uint256,uint256)": "infinite",
						"addr()": "2553",
						"i()": "2513",
						"maxInt()": "2425",
						"minInt()": "2447",
						"myStr()": "infinite",
						"sub(uint256,uint256)": "infinite",
						"u()": "2491",
						"viewGlobalInfo()": "infinite"
					}
				},
				"methodIdentifiers": {
					"add(uint256,uint256)": "771602f7",
					"addr()": "767800de",
					"i()": "e5aa3d58",
					"maxInt()": "7a4c2571",
					"minInt()": "7e4e14cc",
					"myStr()": "5a455c1c",
					"sub(uint256,uint256)": "b67d77c5",
					"u()": "c6a898c5",
					"viewGlobalInfo()": "2952d065"
				}
			},
			"storageLayout": {
				"storage": [
					{
						"astId": 4,
						"contract": "solidity基础/基础.sol:HelloWrold",
						"label": "myStr",
						"offset": 0,
						"slot": "0",
						"type": "t_string_storage"
					},
					{
						"astId": 7,
						"contract": "solidity基础/基础.sol:HelloWrold",
						"label": "b",
						"offset": 0,
						"slot": "1",
						"type": "t_bool"
					},
					{
						"astId": 10,
						"contract": "solidity基础/基础.sol:HelloWrold",
						"label": "u",
						"offset": 0,
						"slot": "2",
						"type": "t_uint256"
					},
					{
						"astId": 14,
						"contract": "solidity基础/基础.sol:HelloWrold",
						"label": "i",
						"offset": 0,
						"slot": "3",
						"type": "t_int256"
					},
					{
						"astId": 21,
						"contract": "solidity基础/基础.sol:HelloWrold",
						"label": "maxInt",
						"offset": 0,
						"slot": "4",
						"type": "t_int256"
					},
					{
						"astId": 28,
						"contract": "solidity基础/基础.sol:HelloWrold",
						"label": "minInt",
						"offset": 0,
						"slot": "5",
						"type": "t_int256"
					},
					{
						"astId": 31,
						"contract": "solidity基础/基础.sol:HelloWrold",
						"label": "addr",
						"offset": 0,
						"slot": "6",
						"type": "t_address"
					}
				],
				"types": {
					"t_address": {
						"encoding": "inplace",
						"label": "address",
						"numberOfBytes": "20"
					},
					"t_bool": {
						"encoding": "inplace",
						"label": "bool",
						"numberOfBytes": "1"
					},
					"t_int256": {
						"encoding": "inplace",
						"label": "int256",
						"numberOfBytes": "32"
					},
					"t_string_storage": {
						"encoding": "bytes",
						"label": "string",
						"numberOfBytes": "32"
					},
					"t_uint256": {
						"encoding": "inplace",
						"label": "uint256",
						"numberOfBytes": "32"
					}
				}
			},
			"userdoc": {
				"kind": "user",
				"methods": {},
				"version": 1
			}
		}
	}
}