{
	"solidity高级应用/奖励计算StakingReward.sol": {
		"StakingRewards": {
			"abi": [
				{
					"inputs": [
						{
							"internalType": "address",
							"name": "stakeAddr",
							"type": "address"
						},
						{
							"internalType": "address",
							"name": "rewardAddr",
							"type": "address"
						},
						{
							"internalType": "uint256",
							"name": "_duration",
							"type": "uint256"
						}
					],
					"stateMutability": "nonpayable",
					"type": "constructor"
				},
				{
					"inputs": [
						{
							"internalType": "address",
							"name": "",
							"type": "address"
						}
					],
					"name": "balanceOf",
					"outputs": [
						{
							"internalType": "uint256",
							"name": "",
							"type": "uint256"
						}
					],
					"stateMutability": "view",
					"type": "function"
				},
				{
					"inputs": [],
					"name": "calCurrentGlobalStakeToReward",
					"outputs": [
						{
							"internalType": "uint256",
							"name": "",
							"type": "uint256"
						}
					],
					"stateMutability": "view",
					"type": "function"
				},
				{
					"inputs": [],
					"name": "claim",
					"outputs": [],
					"stateMutability": "nonpayable",
					"type": "function"
				},
				{
					"inputs": [],
					"name": "duration",
					"outputs": [
						{
							"internalType": "uint256",
							"name": "",
							"type": "uint256"
						}
					],
					"stateMutability": "view",
					"type": "function"
				},
				{
					"inputs": [
						{
							"internalType": "address",
							"name": "account",
							"type": "address"
						}
					],
					"name": "earn",
					"outputs": [
						{
							"internalType": "uint256",
							"name": "",
							"type": "uint256"
						}
					],
					"stateMutability": "view",
					"type": "function"
				},
				{
					"inputs": [],
					"name": "finshTime",
					"outputs": [
						{
							"internalType": "uint256",
							"name": "",
							"type": "uint256"
						}
					],
					"stateMutability": "view",
					"type": "function"
				},
				{
					"inputs": [],
					"name": "globalStakeToRewar",
					"outputs": [
						{
							"internalType": "uint256",
							"name": "",
							"type": "uint256"
						}
					],
					"stateMutability": "view",
					"type": "function"
				},
				{
					"inputs": [],
					"name": "owner",
					"outputs": [
						{
							"internalType": "address",
							"name": "",
							"type": "address"
						}
					],
					"stateMutability": "view",
					"type": "function"
				},
				{
					"inputs": [],
					"name": "rewardRate",
					"outputs": [
						{
							"internalType": "uint256",
							"name": "",
							"type": "uint256"
						}
					],
					"stateMutability": "view",
					"type": "function"
				},
				{
					"inputs": [
						{
							"internalType": "address",
							"name": "",
							"type": "address"
						}
					],
					"name": "rewardsOf",
					"outputs": [
						{
							"internalType": "uint256",
							"name": "",
							"type": "uint256"
						}
					],
					"stateMutability": "view",
					"type": "function"
				},
				{
					"inputs": [
						{
							"internalType": "uint256",
							"name": "amount",
							"type": "uint256"
						}
					],
					"name": "setNewRewardAmount",
					"outputs": [],
					"stateMutability": "nonpayable",
					"type": "function"
				},
				{
					"inputs": [
						{
							"internalType": "uint256",
							"name": "amount",
							"type": "uint256"
						}
					],
					"name": "stake",
					"outputs": [],
					"stateMutability": "nonpayable",
					"type": "function"
				},
				{
					"inputs": [],
					"name": "totalSupply",
					"outputs": [
						{
							"internalType": "uint256",
							"name": "",
							"type": "uint256"
						}
					],
					"stateMutability": "view",
					"type": "function"
				},
				{
					"inputs": [
						{
							"internalType": "uint256",
							"name": "amount",
							"type": "uint256"
						}
					],
					"name": "unstake",
					"outputs": [],
					"stateMutability": "nonpayable",
					"type": "function"
				},
				{
					"inputs": [],
					"name": "updateTime",
					"outputs": [
						{
							"internalType": "uint256",
							"name": "",
							"type": "uint256"
						}
					],
					"stateMutability": "view",
					"type": "function"
				},
				{
					"inputs": [
						{
							"internalType": "address",
							"name": "",
							"type": "address"
						}
					],
					"name": "userStakeToRewarOf",
					"outputs": [
						{
							"internalType": "uint256",
							"name": "",
							"type": "uint256"
						}
					],
					"stateMutability": "view",
					"type": "function"
				}
			],
			"devdoc": {
				"kind": "dev",
				"methods": {},
				"version": 1
			},
			"evm": {
				"assembly": "    /* \"solidity\\xe9\\xab\\x98\\xe7\\xba\\xa7\\xe5\\xba\\x94\\xe7\\x94\\xa8/\\xe5\\xa5\\x96\\xe5\\x8a\\xb1\\xe8\\xae\\xa1\\xe7\\xae\\x97StakingReward.sol\":120:4260  contract StakingRewards {... */\n  mstore(0x40, 0xc0)\n    /* \"solidity\\xe9\\xab\\x98\\xe7\\xba\\xa7\\xe5\\xba\\x94\\xe7\\x94\\xa8/\\xe5\\xa5\\x96\\xe5\\x8a\\xb1\\xe8\\xae\\xa1\\xe7\\xae\\x97StakingReward.sol\":789:1005  constructor(address stakeAddr,address rewardAddr,uint _duration) {... */\n  callvalue\n  dup1\n  iszero\n  tag_1\n  jumpi\n  revert(0x00, 0x00)\ntag_1:\n  pop\n  mload(0x40)\n  sub(codesize, bytecodeSize)\n  dup1\n  bytecodeSize\n  dup4\n  codecopy\n  dup2\n  dup2\n  add\n  0x40\n  mstore\n  dup2\n  add\n  swap1\n  tag_2\n  swap2\n  swap1\n  tag_3\n  jump\t// in\ntag_2:\n    /* \"solidity\\xe9\\xab\\x98\\xe7\\xba\\xa7\\xe5\\xba\\x94\\xe7\\x94\\xa8/\\xe5\\xa5\\x96\\xe5\\x8a\\xb1\\xe8\\xae\\xa1\\xe7\\xae\\x97StakingReward.sol\":885:894  stakeAddr */\n  dup3\n    /* \"solidity\\xe9\\xab\\x98\\xe7\\xba\\xa7\\xe5\\xba\\x94\\xe7\\x94\\xa8/\\xe5\\xa5\\x96\\xe5\\x8a\\xb1\\xe8\\xae\\xa1\\xe7\\xae\\x97StakingReward.sol\":865:895  stakeToken = IERC20(stakeAddr) */\n  0xffffffffffffffffffffffffffffffffffffffff\n  and\n  0x80\n  dup2\n  0xffffffffffffffffffffffffffffffffffffffff\n  and\n  dup2\n  mstore\n  pop\n  pop\n    /* \"solidity\\xe9\\xab\\x98\\xe7\\xba\\xa7\\xe5\\xba\\x94\\xe7\\x94\\xa8/\\xe5\\xa5\\x96\\xe5\\x8a\\xb1\\xe8\\xae\\xa1\\xe7\\xae\\x97StakingReward.sol\":927:937  rewardAddr */\n  dup2\n    /* \"solidity\\xe9\\xab\\x98\\xe7\\xba\\xa7\\xe5\\xba\\x94\\xe7\\x94\\xa8/\\xe5\\xa5\\x96\\xe5\\x8a\\xb1\\xe8\\xae\\xa1\\xe7\\xae\\x97StakingReward.sol\":906:938  rewardToken = IERC20(rewardAddr) */\n  0xffffffffffffffffffffffffffffffffffffffff\n  and\n  0xa0\n  dup2\n  0xffffffffffffffffffffffffffffffffffffffff\n  and\n  dup2\n  mstore\n  pop\n  pop\n    /* \"solidity\\xe9\\xab\\x98\\xe7\\xba\\xa7\\xe5\\xba\\x94\\xe7\\x94\\xa8/\\xe5\\xa5\\x96\\xe5\\x8a\\xb1\\xe8\\xae\\xa1\\xe7\\xae\\x97StakingReward.sol\":960:969  _duration */\n  dup1\n    /* \"solidity\\xe9\\xab\\x98\\xe7\\xba\\xa7\\xe5\\xba\\x94\\xe7\\x94\\xa8/\\xe5\\xa5\\x96\\xe5\\x8a\\xb1\\xe8\\xae\\xa1\\xe7\\xae\\x97StakingReward.sol\":949:957  duration */\n  0x01\n    /* \"solidity\\xe9\\xab\\x98\\xe7\\xba\\xa7\\xe5\\xba\\x94\\xe7\\x94\\xa8/\\xe5\\xa5\\x96\\xe5\\x8a\\xb1\\xe8\\xae\\xa1\\xe7\\xae\\x97StakingReward.sol\":949:969  duration = _duration */\n  dup2\n  swap1\n  sstore\n  pop\n    /* \"solidity\\xe9\\xab\\x98\\xe7\\xba\\xa7\\xe5\\xba\\x94\\xe7\\x94\\xa8/\\xe5\\xa5\\x96\\xe5\\x8a\\xb1\\xe8\\xae\\xa1\\xe7\\xae\\x97StakingReward.sol\":988:998  msg.sender */\n  caller\n    /* \"solidity\\xe9\\xab\\x98\\xe7\\xba\\xa7\\xe5\\xba\\x94\\xe7\\x94\\xa8/\\xe5\\xa5\\x96\\xe5\\x8a\\xb1\\xe8\\xae\\xa1\\xe7\\xae\\x97StakingReward.sol\":980:985  owner */\n  0x00\n  0x00\n    /* \"solidity\\xe9\\xab\\x98\\xe7\\xba\\xa7\\xe5\\xba\\x94\\xe7\\x94\\xa8/\\xe5\\xa5\\x96\\xe5\\x8a\\xb1\\xe8\\xae\\xa1\\xe7\\xae\\x97StakingReward.sol\":980:998  owner = msg.sender */\n  0x0100\n  exp\n  dup2\n  sload\n  dup2\n  0xffffffffffffffffffffffffffffffffffffffff\n  mul\n  not\n  and\n  swap1\n  dup4\n  0xffffffffffffffffffffffffffffffffffffffff\n  and\n  mul\n  or\n  swap1\n  sstore\n  pop\n    /* \"solidity\\xe9\\xab\\x98\\xe7\\xba\\xa7\\xe5\\xba\\x94\\xe7\\x94\\xa8/\\xe5\\xa5\\x96\\xe5\\x8a\\xb1\\xe8\\xae\\xa1\\xe7\\xae\\x97StakingReward.sol\":789:1005  constructor(address stakeAddr,address rewardAddr,uint _duration) {... */\n  pop\n  pop\n  pop\n    /* \"solidity\\xe9\\xab\\x98\\xe7\\xba\\xa7\\xe5\\xba\\x94\\xe7\\x94\\xa8/\\xe5\\xa5\\x96\\xe5\\x8a\\xb1\\xe8\\xae\\xa1\\xe7\\xae\\x97StakingReward.sol\":120:4260  contract StakingRewards {... */\n  jump(tag_6)\n    /* \"#utility.yul\":88:205   */\ntag_8:\n    /* \"#utility.yul\":197:198   */\n  0x00\n    /* \"#utility.yul\":194:195   */\n  0x00\n    /* \"#utility.yul\":187:199   */\n  revert\n    /* \"#utility.yul\":334:460   */\ntag_10:\n    /* \"#utility.yul\":371:378   */\n  0x00\n    /* \"#utility.yul\":411:453   */\n  0xffffffffffffffffffffffffffffffffffffffff\n    /* \"#utility.yul\":404:409   */\n  dup3\n    /* \"#utility.yul\":400:454   */\n  and\n    /* \"#utility.yul\":389:454   */\n  swap1\n  pop\n    /* \"#utility.yul\":334:460   */\n  swap2\n  swap1\n  pop\n  jump\t// out\n    /* \"#utility.yul\":466:562   */\ntag_11:\n    /* \"#utility.yul\":503:510   */\n  0x00\n    /* \"#utility.yul\":532:556   */\n  tag_23\n    /* \"#utility.yul\":550:555   */\n  dup3\n    /* \"#utility.yul\":532:556   */\n  tag_10\n  jump\t// in\ntag_23:\n    /* \"#utility.yul\":521:556   */\n  swap1\n  pop\n    /* \"#utility.yul\":466:562   */\n  swap2\n  swap1\n  pop\n  jump\t// out\n    /* \"#utility.yul\":568:690   */\ntag_12:\n    /* \"#utility.yul\":641:665   */\n  tag_25\n    /* \"#utility.yul\":659:664   */\n  dup2\n    /* \"#utility.yul\":641:665   */\n  tag_11\n  jump\t// in\ntag_25:\n    /* \"#utility.yul\":634:639   */\n  dup2\n    /* \"#utility.yul\":631:666   */\n  eq\n    /* \"#utility.yul\":621:684   */\n  tag_26\n  jumpi\n    /* \"#utility.yul\":680:681   */\n  0x00\n    /* \"#utility.yul\":677:678   */\n  0x00\n    /* \"#utility.yul\":670:682   */\n  revert\n    /* \"#utility.yul\":621:684   */\ntag_26:\n    /* \"#utility.yul\":568:690   */\n  pop\n  jump\t// out\n    /* \"#utility.yul\":696:839   */\ntag_13:\n    /* \"#utility.yul\":753:758   */\n  0x00\n    /* \"#utility.yul\":784:790   */\n  dup2\n    /* \"#utility.yul\":778:791   */\n  mload\n    /* \"#utility.yul\":769:791   */\n  swap1\n  pop\n    /* \"#utility.yul\":800:833   */\n  tag_28\n    /* \"#utility.yul\":827:832   */\n  dup2\n    /* \"#utility.yul\":800:833   */\n  tag_12\n  jump\t// in\ntag_28:\n    /* \"#utility.yul\":696:839   */\n  swap3\n  swap2\n  pop\n  pop\n  jump\t// out\n    /* \"#utility.yul\":845:922   */\ntag_14:\n    /* \"#utility.yul\":882:889   */\n  0x00\n    /* \"#utility.yul\":911:916   */\n  dup2\n    /* \"#utility.yul\":900:916   */\n  swap1\n  pop\n    /* \"#utility.yul\":845:922   */\n  swap2\n  swap1\n  pop\n  jump\t// out\n    /* \"#utility.yul\":928:1050   */\ntag_15:\n    /* \"#utility.yul\":1001:1025   */\n  tag_31\n    /* \"#utility.yul\":1019:1024   */\n  dup2\n    /* \"#utility.yul\":1001:1025   */\n  tag_14\n  jump\t// in\ntag_31:\n    /* \"#utility.yul\":994:999   */\n  dup2\n    /* \"#utility.yul\":991:1026   */\n  eq\n    /* \"#utility.yul\":981:1044   */\n  tag_32\n  jumpi\n    /* \"#utility.yul\":1040:1041   */\n  0x00\n    /* \"#utility.yul\":1037:1038   */\n  0x00\n    /* \"#utility.yul\":1030:1042   */\n  revert\n    /* \"#utility.yul\":981:1044   */\ntag_32:\n    /* \"#utility.yul\":928:1050   */\n  pop\n  jump\t// out\n    /* \"#utility.yul\":1056:1199   */\ntag_16:\n    /* \"#utility.yul\":1113:1118   */\n  0x00\n    /* \"#utility.yul\":1144:1150   */\n  dup2\n    /* \"#utility.yul\":1138:1151   */\n  mload\n    /* \"#utility.yul\":1129:1151   */\n  swap1\n  pop\n    /* \"#utility.yul\":1160:1193   */\n  tag_34\n    /* \"#utility.yul\":1187:1192   */\n  dup2\n    /* \"#utility.yul\":1160:1193   */\n  tag_15\n  jump\t// in\ntag_34:\n    /* \"#utility.yul\":1056:1199   */\n  swap3\n  swap2\n  pop\n  pop\n  jump\t// out\n    /* \"#utility.yul\":1205:1868   */\ntag_3:\n    /* \"#utility.yul\":1293:1299   */\n  0x00\n    /* \"#utility.yul\":1301:1307   */\n  0x00\n    /* \"#utility.yul\":1309:1315   */\n  0x00\n    /* \"#utility.yul\":1358:1360   */\n  0x60\n    /* \"#utility.yul\":1346:1355   */\n  dup5\n    /* \"#utility.yul\":1337:1344   */\n  dup7\n    /* \"#utility.yul\":1333:1356   */\n  sub\n    /* \"#utility.yul\":1329:1361   */\n  slt\n    /* \"#utility.yul\":1326:1445   */\n  iszero\n  tag_36\n  jumpi\n    /* \"#utility.yul\":1364:1443   */\n  tag_37\n  tag_8\n  jump\t// in\ntag_37:\n    /* \"#utility.yul\":1326:1445   */\ntag_36:\n    /* \"#utility.yul\":1484:1485   */\n  0x00\n    /* \"#utility.yul\":1509:1573   */\n  tag_38\n    /* \"#utility.yul\":1565:1572   */\n  dup7\n    /* \"#utility.yul\":1556:1562   */\n  dup3\n    /* \"#utility.yul\":1545:1554   */\n  dup8\n    /* \"#utility.yul\":1541:1563   */\n  add\n    /* \"#utility.yul\":1509:1573   */\n  tag_13\n  jump\t// in\ntag_38:\n    /* \"#utility.yul\":1499:1573   */\n  swap4\n  pop\n    /* \"#utility.yul\":1455:1583   */\n  pop\n    /* \"#utility.yul\":1622:1624   */\n  0x20\n    /* \"#utility.yul\":1648:1712   */\n  tag_39\n    /* \"#utility.yul\":1704:1711   */\n  dup7\n    /* \"#utility.yul\":1695:1701   */\n  dup3\n    /* \"#utility.yul\":1684:1693   */\n  dup8\n    /* \"#utility.yul\":1680:1702   */\n  add\n    /* \"#utility.yul\":1648:1712   */\n  tag_13\n  jump\t// in\ntag_39:\n    /* \"#utility.yul\":1638:1712   */\n  swap3\n  pop\n    /* \"#utility.yul\":1593:1722   */\n  pop\n    /* \"#utility.yul\":1761:1763   */\n  0x40\n    /* \"#utility.yul\":1787:1851   */\n  tag_40\n    /* \"#utility.yul\":1843:1850   */\n  dup7\n    /* \"#utility.yul\":1834:1840   */\n  dup3\n    /* \"#utility.yul\":1823:1832   */\n  dup8\n    /* \"#utility.yul\":1819:1841   */\n  add\n    /* \"#utility.yul\":1787:1851   */\n  tag_16\n  jump\t// in\ntag_40:\n    /* \"#utility.yul\":1777:1851   */\n  swap2\n  pop\n    /* \"#utility.yul\":1732:1861   */\n  pop\n    /* \"#utility.yul\":1205:1868   */\n  swap3\n  pop\n  swap3\n  pop\n  swap3\n  jump\t// out\n    /* \"solidity\\xe9\\xab\\x98\\xe7\\xba\\xa7\\xe5\\xba\\x94\\xe7\\x94\\xa8/\\xe5\\xa5\\x96\\xe5\\x8a\\xb1\\xe8\\xae\\xa1\\xe7\\xae\\x97StakingReward.sol\":120:4260  contract StakingRewards {... */\ntag_6:\n  mload(0x80)\n  mload(0xa0)\n  codecopy(0x00, dataOffset(sub_0), dataSize(sub_0))\n  0x00\n  assignImmutable(\"0x04e57633024368235fc5219bfb9802814291d3a7b9a68d0aeb7bd3d297ac474e\")\n  0x00\n  assignImmutable(\"0x845e9c18ca148a712f01bf14c91c3e2fe352eabe86c44817e3f33b63f585a343\")\n  return(0x00, dataSize(sub_0))\nstop\n\nsub_0: assembly {\n        /* \"solidity\\xe9\\xab\\x98\\xe7\\xba\\xa7\\xe5\\xba\\x94\\xe7\\x94\\xa8/\\xe5\\xa5\\x96\\xe5\\x8a\\xb1\\xe8\\xae\\xa1\\xe7\\xae\\x97StakingReward.sol\":120:4260  contract StakingRewards {... */\n      mstore(0x40, 0x80)\n      callvalue\n      dup1\n      iszero\n      tag_1\n      jumpi\n      revert(0x00, 0x00)\n    tag_1:\n      pop\n      jumpi(tag_2, lt(calldatasize, 0x04))\n      shr(0xe0, calldataload(0x00))\n      dup1\n      0x70a08231\n      gt\n      tag_19\n      jumpi\n      dup1\n      0xa694fc3a\n      gt\n      tag_20\n      jumpi\n      dup1\n      0xa694fc3a\n      eq\n      tag_15\n      jumpi\n      dup1\n      0xa8e6b81a\n      eq\n      tag_16\n      jumpi\n      dup1\n      0xdc555090\n      eq\n      tag_17\n      jumpi\n      dup1\n      0xfdb5fefc\n      eq\n      tag_18\n      jumpi\n      jump(tag_2)\n    tag_20:\n      dup1\n      0x70a08231\n      eq\n      tag_11\n      jumpi\n      dup1\n      0x7b0a47ee\n      eq\n      tag_12\n      jumpi\n      dup1\n      0x7ff737b4\n      eq\n      tag_13\n      jumpi\n      dup1\n      0x8da5cb5b\n      eq\n      tag_14\n      jumpi\n      jump(tag_2)\n    tag_19:\n      dup1\n      0x4e71d92d\n      gt\n      tag_21\n      jumpi\n      dup1\n      0x4e71d92d\n      eq\n      tag_7\n      jumpi\n      dup1\n      0x5484a2ad\n      eq\n      tag_8\n      jumpi\n      dup1\n      0x6718c952\n      eq\n      tag_9\n      jumpi\n      dup1\n      0x6747f288\n      eq\n      tag_10\n      jumpi\n      jump(tag_2)\n    tag_21:\n      dup1\n      0x0fb5a6b4\n      eq\n      tag_3\n      jumpi\n      dup1\n      0x18160ddd\n      eq\n      tag_4\n      jumpi\n      dup1\n      0x2e17de78\n      eq\n      tag_5\n      jumpi\n      dup1\n      0x479ba7ae\n      eq\n      tag_6\n      jumpi\n    tag_2:\n      revert(0x00, 0x00)\n        /* \"solidity\\xe9\\xab\\x98\\xe7\\xba\\xa7\\xe5\\xba\\x94\\xe7\\x94\\xa8/\\xe5\\xa5\\x96\\xe5\\x8a\\xb1\\xe8\\xae\\xa1\\xe7\\xae\\x97StakingReward.sol\":243:263  uint public duration */\n    tag_3:\n      tag_22\n      tag_23\n      jump\t// in\n    tag_22:\n      mload(0x40)\n      tag_24\n      swap2\n      swap1\n      tag_25\n      jump\t// in\n    tag_24:\n      mload(0x40)\n      dup1\n      swap2\n      sub\n      swap1\n      return\n        /* \"solidity\\xe9\\xab\\x98\\xe7\\xba\\xa7\\xe5\\xba\\x94\\xe7\\x94\\xa8/\\xe5\\xa5\\x96\\xe5\\x8a\\xb1\\xe8\\xae\\xa1\\xe7\\xae\\x97StakingReward.sol\":493:516  uint public totalSupply */\n    tag_4:\n      tag_26\n      tag_27\n      jump\t// in\n    tag_26:\n      mload(0x40)\n      tag_28\n      swap2\n      swap1\n      tag_25\n      jump\t// in\n    tag_28:\n      mload(0x40)\n      dup1\n      swap2\n      sub\n      swap1\n      return\n        /* \"solidity\\xe9\\xab\\x98\\xe7\\xba\\xa7\\xe5\\xba\\x94\\xe7\\x94\\xa8/\\xe5\\xa5\\x96\\xe5\\x8a\\xb1\\xe8\\xae\\xa1\\xe7\\xae\\x97StakingReward.sol\":3749:3994  function unstake(uint amount) external updateStakeToReward(msg.sender){... */\n    tag_5:\n      tag_29\n      0x04\n      dup1\n      calldatasize\n      sub\n      dup2\n      add\n      swap1\n      tag_30\n      swap2\n      swap1\n      tag_31\n      jump\t// in\n    tag_30:\n      tag_32\n      jump\t// in\n    tag_29:\n      stop\n        /* \"solidity\\xe9\\xab\\x98\\xe7\\xba\\xa7\\xe5\\xba\\x94\\xe7\\x94\\xa8/\\xe5\\xa5\\x96\\xe5\\x8a\\xb1\\xe8\\xae\\xa1\\xe7\\xae\\x97StakingReward.sol\":716:757  mapping(address => uint) public rewardsOf */\n    tag_6:\n      tag_33\n      0x04\n      dup1\n      calldatasize\n      sub\n      dup2\n      add\n      swap1\n      tag_34\n      swap2\n      swap1\n      tag_35\n      jump\t// in\n    tag_34:\n      tag_36\n      jump\t// in\n    tag_33:\n      mload(0x40)\n      tag_37\n      swap2\n      swap1\n      tag_25\n      jump\t// in\n    tag_37:\n      mload(0x40)\n      dup1\n      swap2\n      sub\n      swap1\n      return\n        /* \"solidity\\xe9\\xab\\x98\\xe7\\xba\\xa7\\xe5\\xba\\x94\\xe7\\x94\\xa8/\\xe5\\xa5\\x96\\xe5\\x8a\\xb1\\xe8\\xae\\xa1\\xe7\\xae\\x97StakingReward.sol\":4020:4257  function claim() external updateStakeToReward(msg.sender) {... */\n    tag_7:\n      tag_38\n      tag_39\n      jump\t// in\n    tag_38:\n      stop\n        /* \"solidity\\xe9\\xab\\x98\\xe7\\xba\\xa7\\xe5\\xba\\x94\\xe7\\x94\\xa8/\\xe5\\xa5\\x96\\xe5\\x8a\\xb1\\xe8\\xae\\xa1\\xe7\\xae\\x97StakingReward.sol\":3007:3440  function setNewRewardAmount( uint amount) external onlyOwner(msg.sender){... */\n    tag_8:\n      tag_40\n      0x04\n      dup1\n      calldatasize\n      sub\n      dup2\n      add\n      swap1\n      tag_41\n      swap2\n      swap1\n      tag_31\n      jump\t// in\n    tag_41:\n      tag_42\n      jump\t// in\n    tag_40:\n      stop\n        /* \"solidity\\xe9\\xab\\x98\\xe7\\xba\\xa7\\xe5\\xba\\x94\\xe7\\x94\\xa8/\\xe5\\xa5\\x96\\xe5\\x8a\\xb1\\xe8\\xae\\xa1\\xe7\\xae\\x97StakingReward.sol\":541:571  uint public globalStakeToRewar */\n    tag_9:\n      tag_43\n      tag_44\n      jump\t// in\n    tag_43:\n      mload(0x40)\n      tag_45\n      swap2\n      swap1\n      tag_25\n      jump\t// in\n    tag_45:\n      mload(0x40)\n      dup1\n      swap2\n      sub\n      swap1\n      return\n        /* \"solidity\\xe9\\xab\\x98\\xe7\\xba\\xa7\\xe5\\xba\\x94\\xe7\\x94\\xa8/\\xe5\\xa5\\x96\\xe5\\x8a\\xb1\\xe8\\xae\\xa1\\xe7\\xae\\x97StakingReward.sol\":283:304  uint public finshTime */\n    tag_10:\n      tag_46\n      tag_47\n      jump\t// in\n    tag_46:\n      mload(0x40)\n      tag_48\n      swap2\n      swap1\n      tag_25\n      jump\t// in\n    tag_48:\n      mload(0x40)\n      dup1\n      swap2\n      sub\n      swap1\n      return\n        /* \"solidity\\xe9\\xab\\x98\\xe7\\xba\\xa7\\xe5\\xba\\x94\\xe7\\x94\\xa8/\\xe5\\xa5\\x96\\xe5\\x8a\\xb1\\xe8\\xae\\xa1\\xe7\\xae\\x97StakingReward.sol\":422:464  mapping(address => uint)  public balanceOf */\n    tag_11:\n      tag_49\n      0x04\n      dup1\n      calldatasize\n      sub\n      dup2\n      add\n      swap1\n      tag_50\n      swap2\n      swap1\n      tag_35\n      jump\t// in\n    tag_50:\n      tag_51\n      jump\t// in\n    tag_49:\n      mload(0x40)\n      tag_52\n      swap2\n      swap1\n      tag_25\n      jump\t// in\n    tag_52:\n      mload(0x40)\n      dup1\n      swap2\n      sub\n      swap1\n      return\n        /* \"solidity\\xe9\\xab\\x98\\xe7\\xba\\xa7\\xe5\\xba\\x94\\xe7\\x94\\xa8/\\xe5\\xa5\\x96\\xe5\\x8a\\xb1\\xe8\\xae\\xa1\\xe7\\xae\\x97StakingReward.sol\":368:390  uint public rewardRate */\n    tag_12:\n      tag_53\n      tag_54\n      jump\t// in\n    tag_53:\n      mload(0x40)\n      tag_55\n      swap2\n      swap1\n      tag_25\n      jump\t// in\n    tag_55:\n      mload(0x40)\n      dup1\n      swap2\n      sub\n      swap1\n      return\n        /* \"solidity\\xe9\\xab\\x98\\xe7\\xba\\xa7\\xe5\\xba\\x94\\xe7\\x94\\xa8/\\xe5\\xa5\\x96\\xe5\\x8a\\xb1\\xe8\\xae\\xa1\\xe7\\xae\\x97StakingReward.sol\":616:666  mapping(address => uint) public userStakeToRewarOf */\n    tag_13:\n      tag_56\n      0x04\n      dup1\n      calldatasize\n      sub\n      dup2\n      add\n      swap1\n      tag_57\n      swap2\n      swap1\n      tag_35\n      jump\t// in\n    tag_57:\n      tag_58\n      jump\t// in\n    tag_56:\n      mload(0x40)\n      tag_59\n      swap2\n      swap1\n      tag_25\n      jump\t// in\n    tag_59:\n      mload(0x40)\n      dup1\n      swap2\n      sub\n      swap1\n      return\n        /* \"solidity\\xe9\\xab\\x98\\xe7\\xba\\xa7\\xe5\\xba\\x94\\xe7\\x94\\xa8/\\xe5\\xa5\\x96\\xe5\\x8a\\xb1\\xe8\\xae\\xa1\\xe7\\xae\\x97StakingReward.sol\":217:237  address public owner */\n    tag_14:\n      tag_60\n      tag_61\n      jump\t// in\n    tag_60:\n      mload(0x40)\n      tag_62\n      swap2\n      swap1\n      tag_63\n      jump\t// in\n    tag_62:\n      mload(0x40)\n      dup1\n      swap2\n      sub\n      swap1\n      return\n        /* \"solidity\\xe9\\xab\\x98\\xe7\\xba\\xa7\\xe5\\xba\\x94\\xe7\\x94\\xa8/\\xe5\\xa5\\x96\\xe5\\x8a\\xb1\\xe8\\xae\\xa1\\xe7\\xae\\x97StakingReward.sol\":3460:3723  function stake(uint amount) external updateStakeToReward(msg.sender){... */\n    tag_15:\n      tag_64\n      0x04\n      dup1\n      calldatasize\n      sub\n      dup2\n      add\n      swap1\n      tag_65\n      swap2\n      swap1\n      tag_31\n      jump\t// in\n    tag_65:\n      tag_66\n      jump\t// in\n    tag_64:\n      stop\n        /* \"solidity\\xe9\\xab\\x98\\xe7\\xba\\xa7\\xe5\\xba\\x94\\xe7\\x94\\xa8/\\xe5\\xa5\\x96\\xe5\\x8a\\xb1\\xe8\\xae\\xa1\\xe7\\xae\\x97StakingReward.sol\":2164:2405  function calCurrentGlobalStakeToReward() public view returns(uint) {... */\n    tag_16:\n      tag_67\n      tag_68\n      jump\t// in\n    tag_67:\n      mload(0x40)\n      tag_69\n      swap2\n      swap1\n      tag_25\n      jump\t// in\n    tag_69:\n      mload(0x40)\n      dup1\n      swap2\n      sub\n      swap1\n      return\n        /* \"solidity\\xe9\\xab\\x98\\xe7\\xba\\xa7\\xe5\\xba\\x94\\xe7\\x94\\xa8/\\xe5\\xa5\\x96\\xe5\\x8a\\xb1\\xe8\\xae\\xa1\\xe7\\xae\\x97StakingReward.sol\":324:346  uint public updateTime */\n    tag_17:\n      tag_70\n      tag_71\n      jump\t// in\n    tag_70:\n      mload(0x40)\n      tag_72\n      swap2\n      swap1\n      tag_25\n      jump\t// in\n    tag_72:\n      mload(0x40)\n      dup1\n      swap2\n      sub\n      swap1\n      return\n        /* \"solidity\\xe9\\xab\\x98\\xe7\\xba\\xa7\\xe5\\xba\\x94\\xe7\\x94\\xa8/\\xe5\\xa5\\x96\\xe5\\x8a\\xb1\\xe8\\xae\\xa1\\xe7\\xae\\x97StakingReward.sol\":1791:1988  function earn(address account) public view returns(uint) {... */\n    tag_18:\n      tag_73\n      0x04\n      dup1\n      calldatasize\n      sub\n      dup2\n      add\n      swap1\n      tag_74\n      swap2\n      swap1\n      tag_35\n      jump\t// in\n    tag_74:\n      tag_75\n      jump\t// in\n    tag_73:\n      mload(0x40)\n      tag_76\n      swap2\n      swap1\n      tag_25\n      jump\t// in\n    tag_76:\n      mload(0x40)\n      dup1\n      swap2\n      sub\n      swap1\n      return\n        /* \"solidity\\xe9\\xab\\x98\\xe7\\xba\\xa7\\xe5\\xba\\x94\\xe7\\x94\\xa8/\\xe5\\xa5\\x96\\xe5\\x8a\\xb1\\xe8\\xae\\xa1\\xe7\\xae\\x97StakingReward.sol\":243:263  uint public duration */\n    tag_23:\n      sload(0x01)\n      dup2\n      jump\t// out\n        /* \"solidity\\xe9\\xab\\x98\\xe7\\xba\\xa7\\xe5\\xba\\x94\\xe7\\x94\\xa8/\\xe5\\xa5\\x96\\xe5\\x8a\\xb1\\xe8\\xae\\xa1\\xe7\\xae\\x97StakingReward.sol\":493:516  uint public totalSupply */\n    tag_27:\n      sload(0x06)\n      dup2\n      jump\t// out\n        /* \"solidity\\xe9\\xab\\x98\\xe7\\xba\\xa7\\xe5\\xba\\x94\\xe7\\x94\\xa8/\\xe5\\xa5\\x96\\xe5\\x8a\\xb1\\xe8\\xae\\xa1\\xe7\\xae\\x97StakingReward.sol\":3749:3994  function unstake(uint amount) external updateStakeToReward(msg.sender){... */\n    tag_32:\n        /* \"solidity\\xe9\\xab\\x98\\xe7\\xba\\xa7\\xe5\\xba\\x94\\xe7\\x94\\xa8/\\xe5\\xa5\\x96\\xe5\\x8a\\xb1\\xe8\\xae\\xa1\\xe7\\xae\\x97StakingReward.sol\":3808:3818  msg.sender */\n      caller\n        /* \"solidity\\xe9\\xab\\x98\\xe7\\xba\\xa7\\xe5\\xba\\x94\\xe7\\x94\\xa8/\\xe5\\xa5\\x96\\xe5\\x8a\\xb1\\xe8\\xae\\xa1\\xe7\\xae\\x97StakingReward.sol\":1419:1450  calCurrentGlobalStakeToReward() */\n      tag_78\n        /* \"solidity\\xe9\\xab\\x98\\xe7\\xba\\xa7\\xe5\\xba\\x94\\xe7\\x94\\xa8/\\xe5\\xa5\\x96\\xe5\\x8a\\xb1\\xe8\\xae\\xa1\\xe7\\xae\\x97StakingReward.sol\":1419:1448  calCurrentGlobalStakeToReward */\n      tag_68\n        /* \"solidity\\xe9\\xab\\x98\\xe7\\xba\\xa7\\xe5\\xba\\x94\\xe7\\x94\\xa8/\\xe5\\xa5\\x96\\xe5\\x8a\\xb1\\xe8\\xae\\xa1\\xe7\\xae\\x97StakingReward.sol\":1419:1450  calCurrentGlobalStakeToReward() */\n      jump\t// in\n    tag_78:\n        /* \"solidity\\xe9\\xab\\x98\\xe7\\xba\\xa7\\xe5\\xba\\x94\\xe7\\x94\\xa8/\\xe5\\xa5\\x96\\xe5\\x8a\\xb1\\xe8\\xae\\xa1\\xe7\\xae\\x97StakingReward.sol\":1397:1415  globalStakeToRewar */\n      0x07\n        /* \"solidity\\xe9\\xab\\x98\\xe7\\xba\\xa7\\xe5\\xba\\x94\\xe7\\x94\\xa8/\\xe5\\xa5\\x96\\xe5\\x8a\\xb1\\xe8\\xae\\xa1\\xe7\\xae\\x97StakingReward.sol\":1397:1450  globalStakeToRewar  = calCurrentGlobalStakeToReward() */\n      dup2\n      swap1\n      sstore\n      pop\n        /* \"solidity\\xe9\\xab\\x98\\xe7\\xba\\xa7\\xe5\\xba\\x94\\xe7\\x94\\xa8/\\xe5\\xa5\\x96\\xe5\\x8a\\xb1\\xe8\\xae\\xa1\\xe7\\xae\\x97StakingReward.sol\":1474:1493  getLastEffectTime() */\n      tag_79\n        /* \"solidity\\xe9\\xab\\x98\\xe7\\xba\\xa7\\xe5\\xba\\x94\\xe7\\x94\\xa8/\\xe5\\xa5\\x96\\xe5\\x8a\\xb1\\xe8\\xae\\xa1\\xe7\\xae\\x97StakingReward.sol\":1474:1491  getLastEffectTime */\n      tag_80\n        /* \"solidity\\xe9\\xab\\x98\\xe7\\xba\\xa7\\xe5\\xba\\x94\\xe7\\x94\\xa8/\\xe5\\xa5\\x96\\xe5\\x8a\\xb1\\xe8\\xae\\xa1\\xe7\\xae\\x97StakingReward.sol\":1474:1493  getLastEffectTime() */\n      jump\t// in\n    tag_79:\n        /* \"solidity\\xe9\\xab\\x98\\xe7\\xba\\xa7\\xe5\\xba\\x94\\xe7\\x94\\xa8/\\xe5\\xa5\\x96\\xe5\\x8a\\xb1\\xe8\\xae\\xa1\\xe7\\xae\\x97StakingReward.sol\":1461:1471  updateTime */\n      0x03\n        /* \"solidity\\xe9\\xab\\x98\\xe7\\xba\\xa7\\xe5\\xba\\x94\\xe7\\x94\\xa8/\\xe5\\xa5\\x96\\xe5\\x8a\\xb1\\xe8\\xae\\xa1\\xe7\\xae\\x97StakingReward.sol\":1461:1493  updateTime = getLastEffectTime() */\n      dup2\n      swap1\n      sstore\n      pop\n        /* \"solidity\\xe9\\xab\\x98\\xe7\\xba\\xa7\\xe5\\xba\\x94\\xe7\\x94\\xa8/\\xe5\\xa5\\x96\\xe5\\x8a\\xb1\\xe8\\xae\\xa1\\xe7\\xae\\x97StakingReward.sol\":1526:1527  0 */\n      0x00\n        /* \"solidity\\xe9\\xab\\x98\\xe7\\xba\\xa7\\xe5\\xba\\x94\\xe7\\x94\\xa8/\\xe5\\xa5\\x96\\xe5\\x8a\\xb1\\xe8\\xae\\xa1\\xe7\\xae\\x97StakingReward.sol\":1507:1528  account != address(0) */\n      0xffffffffffffffffffffffffffffffffffffffff\n      and\n        /* \"solidity\\xe9\\xab\\x98\\xe7\\xba\\xa7\\xe5\\xba\\x94\\xe7\\x94\\xa8/\\xe5\\xa5\\x96\\xe5\\x8a\\xb1\\xe8\\xae\\xa1\\xe7\\xae\\x97StakingReward.sol\":1507:1514  account */\n      dup2\n        /* \"solidity\\xe9\\xab\\x98\\xe7\\xba\\xa7\\xe5\\xba\\x94\\xe7\\x94\\xa8/\\xe5\\xa5\\x96\\xe5\\x8a\\xb1\\xe8\\xae\\xa1\\xe7\\xae\\x97StakingReward.sol\":1507:1528  account != address(0) */\n      0xffffffffffffffffffffffffffffffffffffffff\n      and\n      eq\n        /* \"solidity\\xe9\\xab\\x98\\xe7\\xba\\xa7\\xe5\\xba\\x94\\xe7\\x94\\xa8/\\xe5\\xa5\\x96\\xe5\\x8a\\xb1\\xe8\\xae\\xa1\\xe7\\xae\\x97StakingReward.sol\":1504:1654  if(account != address(0)) {... */\n      tag_81\n      jumpi\n        /* \"solidity\\xe9\\xab\\x98\\xe7\\xba\\xa7\\xe5\\xba\\x94\\xe7\\x94\\xa8/\\xe5\\xa5\\x96\\xe5\\x8a\\xb1\\xe8\\xae\\xa1\\xe7\\xae\\x97StakingReward.sol\":1566:1579  earn(account) */\n      tag_82\n        /* \"solidity\\xe9\\xab\\x98\\xe7\\xba\\xa7\\xe5\\xba\\x94\\xe7\\x94\\xa8/\\xe5\\xa5\\x96\\xe5\\x8a\\xb1\\xe8\\xae\\xa1\\xe7\\xae\\x97StakingReward.sol\":1571:1578  account */\n      dup2\n        /* \"solidity\\xe9\\xab\\x98\\xe7\\xba\\xa7\\xe5\\xba\\x94\\xe7\\x94\\xa8/\\xe5\\xa5\\x96\\xe5\\x8a\\xb1\\xe8\\xae\\xa1\\xe7\\xae\\x97StakingReward.sol\":1566:1570  earn */\n      tag_75\n        /* \"solidity\\xe9\\xab\\x98\\xe7\\xba\\xa7\\xe5\\xba\\x94\\xe7\\x94\\xa8/\\xe5\\xa5\\x96\\xe5\\x8a\\xb1\\xe8\\xae\\xa1\\xe7\\xae\\x97StakingReward.sol\":1566:1579  earn(account) */\n      jump\t// in\n    tag_82:\n        /* \"solidity\\xe9\\xab\\x98\\xe7\\xba\\xa7\\xe5\\xba\\x94\\xe7\\x94\\xa8/\\xe5\\xa5\\x96\\xe5\\x8a\\xb1\\xe8\\xae\\xa1\\xe7\\xae\\x97StakingReward.sol\":1545:1554  rewardsOf */\n      0x09\n        /* \"solidity\\xe9\\xab\\x98\\xe7\\xba\\xa7\\xe5\\xba\\x94\\xe7\\x94\\xa8/\\xe5\\xa5\\x96\\xe5\\x8a\\xb1\\xe8\\xae\\xa1\\xe7\\xae\\x97StakingReward.sol\":1545:1563  rewardsOf[account] */\n      0x00\n        /* \"solidity\\xe9\\xab\\x98\\xe7\\xba\\xa7\\xe5\\xba\\x94\\xe7\\x94\\xa8/\\xe5\\xa5\\x96\\xe5\\x8a\\xb1\\xe8\\xae\\xa1\\xe7\\xae\\x97StakingReward.sol\":1555:1562  account */\n      dup4\n        /* \"solidity\\xe9\\xab\\x98\\xe7\\xba\\xa7\\xe5\\xba\\x94\\xe7\\x94\\xa8/\\xe5\\xa5\\x96\\xe5\\x8a\\xb1\\xe8\\xae\\xa1\\xe7\\xae\\x97StakingReward.sol\":1545:1563  rewardsOf[account] */\n      0xffffffffffffffffffffffffffffffffffffffff\n      and\n      0xffffffffffffffffffffffffffffffffffffffff\n      and\n      dup2\n      mstore\n      0x20\n      add\n      swap1\n      dup2\n      mstore\n      0x20\n      add\n      0x00\n      keccak256\n        /* \"solidity\\xe9\\xab\\x98\\xe7\\xba\\xa7\\xe5\\xba\\x94\\xe7\\x94\\xa8/\\xe5\\xa5\\x96\\xe5\\x8a\\xb1\\xe8\\xae\\xa1\\xe7\\xae\\x97StakingReward.sol\":1545:1579  rewardsOf[account] = earn(account) */\n      dup2\n      swap1\n      sstore\n      pop\n        /* \"solidity\\xe9\\xab\\x98\\xe7\\xba\\xa7\\xe5\\xba\\x94\\xe7\\x94\\xa8/\\xe5\\xa5\\x96\\xe5\\x8a\\xb1\\xe8\\xae\\xa1\\xe7\\xae\\x97StakingReward.sol\":1624:1642  globalStakeToRewar */\n      sload(0x07)\n        /* \"solidity\\xe9\\xab\\x98\\xe7\\xba\\xa7\\xe5\\xba\\x94\\xe7\\x94\\xa8/\\xe5\\xa5\\x96\\xe5\\x8a\\xb1\\xe8\\xae\\xa1\\xe7\\xae\\x97StakingReward.sol\":1594:1612  userStakeToRewarOf */\n      0x08\n        /* \"solidity\\xe9\\xab\\x98\\xe7\\xba\\xa7\\xe5\\xba\\x94\\xe7\\x94\\xa8/\\xe5\\xa5\\x96\\xe5\\x8a\\xb1\\xe8\\xae\\xa1\\xe7\\xae\\x97StakingReward.sol\":1594:1621  userStakeToRewarOf[account] */\n      0x00\n        /* \"solidity\\xe9\\xab\\x98\\xe7\\xba\\xa7\\xe5\\xba\\x94\\xe7\\x94\\xa8/\\xe5\\xa5\\x96\\xe5\\x8a\\xb1\\xe8\\xae\\xa1\\xe7\\xae\\x97StakingReward.sol\":1613:1620  account */\n      dup4\n        /* \"solidity\\xe9\\xab\\x98\\xe7\\xba\\xa7\\xe5\\xba\\x94\\xe7\\x94\\xa8/\\xe5\\xa5\\x96\\xe5\\x8a\\xb1\\xe8\\xae\\xa1\\xe7\\xae\\x97StakingReward.sol\":1594:1621  userStakeToRewarOf[account] */\n      0xffffffffffffffffffffffffffffffffffffffff\n      and\n      0xffffffffffffffffffffffffffffffffffffffff\n      and\n      dup2\n      mstore\n      0x20\n      add\n      swap1\n      dup2\n      mstore\n      0x20\n      add\n      0x00\n      keccak256\n        /* \"solidity\\xe9\\xab\\x98\\xe7\\xba\\xa7\\xe5\\xba\\x94\\xe7\\x94\\xa8/\\xe5\\xa5\\x96\\xe5\\x8a\\xb1\\xe8\\xae\\xa1\\xe7\\xae\\x97StakingReward.sol\":1594:1642  userStakeToRewarOf[account] = globalStakeToRewar */\n      dup2\n      swap1\n      sstore\n      pop\n        /* \"solidity\\xe9\\xab\\x98\\xe7\\xba\\xa7\\xe5\\xba\\x94\\xe7\\x94\\xa8/\\xe5\\xa5\\x96\\xe5\\x8a\\xb1\\xe8\\xae\\xa1\\xe7\\xae\\x97StakingReward.sol\":1504:1654  if(account != address(0)) {... */\n    tag_81:\n        /* \"solidity\\xe9\\xab\\x98\\xe7\\xba\\xa7\\xe5\\xba\\x94\\xe7\\x94\\xa8/\\xe5\\xa5\\x96\\xe5\\x8a\\xb1\\xe8\\xae\\xa1\\xe7\\xae\\x97StakingReward.sol\":3847:3848  0 */\n      0x00\n        /* \"solidity\\xe9\\xab\\x98\\xe7\\xba\\xa7\\xe5\\xba\\x94\\xe7\\x94\\xa8/\\xe5\\xa5\\x96\\xe5\\x8a\\xb1\\xe8\\xae\\xa1\\xe7\\xae\\x97StakingReward.sol\":3838:3844  amount */\n      dup3\n        /* \"solidity\\xe9\\xab\\x98\\xe7\\xba\\xa7\\xe5\\xba\\x94\\xe7\\x94\\xa8/\\xe5\\xa5\\x96\\xe5\\x8a\\xb1\\xe8\\xae\\xa1\\xe7\\xae\\x97StakingReward.sol\":3838:3848  amount > 0 */\n      gt\n        /* \"solidity\\xe9\\xab\\x98\\xe7\\xba\\xa7\\xe5\\xba\\x94\\xe7\\x94\\xa8/\\xe5\\xa5\\x96\\xe5\\x8a\\xb1\\xe8\\xae\\xa1\\xe7\\xae\\x97StakingReward.sol\":3830:3863  require(amount > 0, \"amount < 0\") */\n      tag_84\n      jumpi\n      mload(0x40)\n      0x08c379a000000000000000000000000000000000000000000000000000000000\n      dup2\n      mstore\n      0x04\n      add\n      tag_85\n      swap1\n      tag_86\n      jump\t// in\n    tag_85:\n      mload(0x40)\n      dup1\n      swap2\n      sub\n      swap1\n      revert\n    tag_84:\n        /* \"solidity\\xe9\\xab\\x98\\xe7\\xba\\xa7\\xe5\\xba\\x94\\xe7\\x94\\xa8/\\xe5\\xa5\\x96\\xe5\\x8a\\xb1\\xe8\\xae\\xa1\\xe7\\xae\\x97StakingReward.sol\":3899:3905  amount */\n      dup2\n        /* \"solidity\\xe9\\xab\\x98\\xe7\\xba\\xa7\\xe5\\xba\\x94\\xe7\\x94\\xa8/\\xe5\\xa5\\x96\\xe5\\x8a\\xb1\\xe8\\xae\\xa1\\xe7\\xae\\x97StakingReward.sol\":3874:3883  balanceOf */\n      0x05\n        /* \"solidity\\xe9\\xab\\x98\\xe7\\xba\\xa7\\xe5\\xba\\x94\\xe7\\x94\\xa8/\\xe5\\xa5\\x96\\xe5\\x8a\\xb1\\xe8\\xae\\xa1\\xe7\\xae\\x97StakingReward.sol\":3874:3895  balanceOf[msg.sender] */\n      0x00\n        /* \"solidity\\xe9\\xab\\x98\\xe7\\xba\\xa7\\xe5\\xba\\x94\\xe7\\x94\\xa8/\\xe5\\xa5\\x96\\xe5\\x8a\\xb1\\xe8\\xae\\xa1\\xe7\\xae\\x97StakingReward.sol\":3884:3894  msg.sender */\n      caller\n        /* \"solidity\\xe9\\xab\\x98\\xe7\\xba\\xa7\\xe5\\xba\\x94\\xe7\\x94\\xa8/\\xe5\\xa5\\x96\\xe5\\x8a\\xb1\\xe8\\xae\\xa1\\xe7\\xae\\x97StakingReward.sol\":3874:3895  balanceOf[msg.sender] */\n      0xffffffffffffffffffffffffffffffffffffffff\n      and\n      0xffffffffffffffffffffffffffffffffffffffff\n      and\n      dup2\n      mstore\n      0x20\n      add\n      swap1\n      dup2\n      mstore\n      0x20\n      add\n      0x00\n      keccak256\n      0x00\n        /* \"solidity\\xe9\\xab\\x98\\xe7\\xba\\xa7\\xe5\\xba\\x94\\xe7\\x94\\xa8/\\xe5\\xa5\\x96\\xe5\\x8a\\xb1\\xe8\\xae\\xa1\\xe7\\xae\\x97StakingReward.sol\":3874:3905  balanceOf[msg.sender] -= amount */\n      dup3\n      dup3\n      sload\n      tag_87\n      swap2\n      swap1\n      tag_88\n      jump\t// in\n    tag_87:\n      swap3\n      pop\n      pop\n      dup2\n      swap1\n      sstore\n      pop\n        /* \"solidity\\xe9\\xab\\x98\\xe7\\xba\\xa7\\xe5\\xba\\x94\\xe7\\x94\\xa8/\\xe5\\xa5\\x96\\xe5\\x8a\\xb1\\xe8\\xae\\xa1\\xe7\\xae\\x97StakingReward.sol\":3931:3937  amount */\n      dup2\n        /* \"solidity\\xe9\\xab\\x98\\xe7\\xba\\xa7\\xe5\\xba\\x94\\xe7\\x94\\xa8/\\xe5\\xa5\\x96\\xe5\\x8a\\xb1\\xe8\\xae\\xa1\\xe7\\xae\\x97StakingReward.sol\":3916:3927  totalSupply */\n      0x06\n      0x00\n        /* \"solidity\\xe9\\xab\\x98\\xe7\\xba\\xa7\\xe5\\xba\\x94\\xe7\\x94\\xa8/\\xe5\\xa5\\x96\\xe5\\x8a\\xb1\\xe8\\xae\\xa1\\xe7\\xae\\x97StakingReward.sol\":3916:3937  totalSupply -= amount */\n      dup3\n      dup3\n      sload\n      tag_89\n      swap2\n      swap1\n      tag_88\n      jump\t// in\n    tag_89:\n      swap3\n      pop\n      pop\n      dup2\n      swap1\n      sstore\n      pop\n        /* \"solidity\\xe9\\xab\\x98\\xe7\\xba\\xa7\\xe5\\xba\\x94\\xe7\\x94\\xa8/\\xe5\\xa5\\x96\\xe5\\x8a\\xb1\\xe8\\xae\\xa1\\xe7\\xae\\x97StakingReward.sol\":3948:3958  stakeToken */\n      immutable(\"0x845e9c18ca148a712f01bf14c91c3e2fe352eabe86c44817e3f33b63f585a343\")\n        /* \"solidity\\xe9\\xab\\x98\\xe7\\xba\\xa7\\xe5\\xba\\x94\\xe7\\x94\\xa8/\\xe5\\xa5\\x96\\xe5\\x8a\\xb1\\xe8\\xae\\xa1\\xe7\\xae\\x97StakingReward.sol\":3948:3967  stakeToken.transfer */\n      0xffffffffffffffffffffffffffffffffffffffff\n      and\n      0xa9059cbb\n        /* \"solidity\\xe9\\xab\\x98\\xe7\\xba\\xa7\\xe5\\xba\\x94\\xe7\\x94\\xa8/\\xe5\\xa5\\x96\\xe5\\x8a\\xb1\\xe8\\xae\\xa1\\xe7\\xae\\x97StakingReward.sol\":3968:3978  msg.sender */\n      caller\n        /* \"solidity\\xe9\\xab\\x98\\xe7\\xba\\xa7\\xe5\\xba\\x94\\xe7\\x94\\xa8/\\xe5\\xa5\\x96\\xe5\\x8a\\xb1\\xe8\\xae\\xa1\\xe7\\xae\\x97StakingReward.sol\":3980:3986  amount */\n      dup5\n        /* \"solidity\\xe9\\xab\\x98\\xe7\\xba\\xa7\\xe5\\xba\\x94\\xe7\\x94\\xa8/\\xe5\\xa5\\x96\\xe5\\x8a\\xb1\\xe8\\xae\\xa1\\xe7\\xae\\x97StakingReward.sol\":3948:3987  stakeToken.transfer(msg.sender, amount) */\n      mload(0x40)\n      dup4\n      0xffffffff\n      and\n      0xe0\n      shl\n      dup2\n      mstore\n      0x04\n      add\n      tag_90\n      swap3\n      swap2\n      swap1\n      tag_91\n      jump\t// in\n    tag_90:\n      0x20\n      mload(0x40)\n      dup1\n      dup4\n      sub\n      dup2\n      0x00\n      dup8\n      gas\n      call\n      iszero\n      dup1\n      iszero\n      tag_93\n      jumpi\n      returndatacopy(0x00, 0x00, returndatasize)\n      revert(0x00, returndatasize)\n    tag_93:\n      pop\n      pop\n      pop\n      pop\n      mload(0x40)\n      returndatasize\n      not(0x1f)\n      0x1f\n      dup3\n      add\n      and\n      dup3\n      add\n      dup1\n      0x40\n      mstore\n      pop\n      dup2\n      add\n      swap1\n      tag_94\n      swap2\n      swap1\n      tag_95\n      jump\t// in\n    tag_94:\n      pop\n        /* \"solidity\\xe9\\xab\\x98\\xe7\\xba\\xa7\\xe5\\xba\\x94\\xe7\\x94\\xa8/\\xe5\\xa5\\x96\\xe5\\x8a\\xb1\\xe8\\xae\\xa1\\xe7\\xae\\x97StakingReward.sol\":3749:3994  function unstake(uint amount) external updateStakeToReward(msg.sender){... */\n      pop\n      pop\n      jump\t// out\n        /* \"solidity\\xe9\\xab\\x98\\xe7\\xba\\xa7\\xe5\\xba\\x94\\xe7\\x94\\xa8/\\xe5\\xa5\\x96\\xe5\\x8a\\xb1\\xe8\\xae\\xa1\\xe7\\xae\\x97StakingReward.sol\":716:757  mapping(address => uint) public rewardsOf */\n    tag_36:\n      mstore(0x20, 0x09)\n      dup1\n      0x00\n      mstore\n      keccak256(0x00, 0x40)\n      0x00\n      swap2\n      pop\n      swap1\n      pop\n      sload\n      dup2\n      jump\t// out\n        /* \"solidity\\xe9\\xab\\x98\\xe7\\xba\\xa7\\xe5\\xba\\x94\\xe7\\x94\\xa8/\\xe5\\xa5\\x96\\xe5\\x8a\\xb1\\xe8\\xae\\xa1\\xe7\\xae\\x97StakingReward.sol\":4020:4257  function claim() external updateStakeToReward(msg.sender) {... */\n    tag_39:\n        /* \"solidity\\xe9\\xab\\x98\\xe7\\xba\\xa7\\xe5\\xba\\x94\\xe7\\x94\\xa8/\\xe5\\xa5\\x96\\xe5\\x8a\\xb1\\xe8\\xae\\xa1\\xe7\\xae\\x97StakingReward.sol\":4066:4076  msg.sender */\n      caller\n        /* \"solidity\\xe9\\xab\\x98\\xe7\\xba\\xa7\\xe5\\xba\\x94\\xe7\\x94\\xa8/\\xe5\\xa5\\x96\\xe5\\x8a\\xb1\\xe8\\xae\\xa1\\xe7\\xae\\x97StakingReward.sol\":1419:1450  calCurrentGlobalStakeToReward() */\n      tag_97\n        /* \"solidity\\xe9\\xab\\x98\\xe7\\xba\\xa7\\xe5\\xba\\x94\\xe7\\x94\\xa8/\\xe5\\xa5\\x96\\xe5\\x8a\\xb1\\xe8\\xae\\xa1\\xe7\\xae\\x97StakingReward.sol\":1419:1448  calCurrentGlobalStakeToReward */\n      tag_68\n        /* \"solidity\\xe9\\xab\\x98\\xe7\\xba\\xa7\\xe5\\xba\\x94\\xe7\\x94\\xa8/\\xe5\\xa5\\x96\\xe5\\x8a\\xb1\\xe8\\xae\\xa1\\xe7\\xae\\x97StakingReward.sol\":1419:1450  calCurrentGlobalStakeToReward() */\n      jump\t// in\n    tag_97:\n        /* \"solidity\\xe9\\xab\\x98\\xe7\\xba\\xa7\\xe5\\xba\\x94\\xe7\\x94\\xa8/\\xe5\\xa5\\x96\\xe5\\x8a\\xb1\\xe8\\xae\\xa1\\xe7\\xae\\x97StakingReward.sol\":1397:1415  globalStakeToRewar */\n      0x07\n        /* \"solidity\\xe9\\xab\\x98\\xe7\\xba\\xa7\\xe5\\xba\\x94\\xe7\\x94\\xa8/\\xe5\\xa5\\x96\\xe5\\x8a\\xb1\\xe8\\xae\\xa1\\xe7\\xae\\x97StakingReward.sol\":1397:1450  globalStakeToRewar  = calCurrentGlobalStakeToReward() */\n      dup2\n      swap1\n      sstore\n      pop\n        /* \"solidity\\xe9\\xab\\x98\\xe7\\xba\\xa7\\xe5\\xba\\x94\\xe7\\x94\\xa8/\\xe5\\xa5\\x96\\xe5\\x8a\\xb1\\xe8\\xae\\xa1\\xe7\\xae\\x97StakingReward.sol\":1474:1493  getLastEffectTime() */\n      tag_98\n        /* \"solidity\\xe9\\xab\\x98\\xe7\\xba\\xa7\\xe5\\xba\\x94\\xe7\\x94\\xa8/\\xe5\\xa5\\x96\\xe5\\x8a\\xb1\\xe8\\xae\\xa1\\xe7\\xae\\x97StakingReward.sol\":1474:1491  getLastEffectTime */\n      tag_80\n        /* \"solidity\\xe9\\xab\\x98\\xe7\\xba\\xa7\\xe5\\xba\\x94\\xe7\\x94\\xa8/\\xe5\\xa5\\x96\\xe5\\x8a\\xb1\\xe8\\xae\\xa1\\xe7\\xae\\x97StakingReward.sol\":1474:1493  getLastEffectTime() */\n      jump\t// in\n    tag_98:\n        /* \"solidity\\xe9\\xab\\x98\\xe7\\xba\\xa7\\xe5\\xba\\x94\\xe7\\x94\\xa8/\\xe5\\xa5\\x96\\xe5\\x8a\\xb1\\xe8\\xae\\xa1\\xe7\\xae\\x97StakingReward.sol\":1461:1471  updateTime */\n      0x03\n        /* \"solidity\\xe9\\xab\\x98\\xe7\\xba\\xa7\\xe5\\xba\\x94\\xe7\\x94\\xa8/\\xe5\\xa5\\x96\\xe5\\x8a\\xb1\\xe8\\xae\\xa1\\xe7\\xae\\x97StakingReward.sol\":1461:1493  updateTime = getLastEffectTime() */\n      dup2\n      swap1\n      sstore\n      pop\n        /* \"solidity\\xe9\\xab\\x98\\xe7\\xba\\xa7\\xe5\\xba\\x94\\xe7\\x94\\xa8/\\xe5\\xa5\\x96\\xe5\\x8a\\xb1\\xe8\\xae\\xa1\\xe7\\xae\\x97StakingReward.sol\":1526:1527  0 */\n      0x00\n        /* \"solidity\\xe9\\xab\\x98\\xe7\\xba\\xa7\\xe5\\xba\\x94\\xe7\\x94\\xa8/\\xe5\\xa5\\x96\\xe5\\x8a\\xb1\\xe8\\xae\\xa1\\xe7\\xae\\x97StakingReward.sol\":1507:1528  account != address(0) */\n      0xffffffffffffffffffffffffffffffffffffffff\n      and\n        /* \"solidity\\xe9\\xab\\x98\\xe7\\xba\\xa7\\xe5\\xba\\x94\\xe7\\x94\\xa8/\\xe5\\xa5\\x96\\xe5\\x8a\\xb1\\xe8\\xae\\xa1\\xe7\\xae\\x97StakingReward.sol\":1507:1514  account */\n      dup2\n        /* \"solidity\\xe9\\xab\\x98\\xe7\\xba\\xa7\\xe5\\xba\\x94\\xe7\\x94\\xa8/\\xe5\\xa5\\x96\\xe5\\x8a\\xb1\\xe8\\xae\\xa1\\xe7\\xae\\x97StakingReward.sol\":1507:1528  account != address(0) */\n      0xffffffffffffffffffffffffffffffffffffffff\n      and\n      eq\n        /* \"solidity\\xe9\\xab\\x98\\xe7\\xba\\xa7\\xe5\\xba\\x94\\xe7\\x94\\xa8/\\xe5\\xa5\\x96\\xe5\\x8a\\xb1\\xe8\\xae\\xa1\\xe7\\xae\\x97StakingReward.sol\":1504:1654  if(account != address(0)) {... */\n      tag_99\n      jumpi\n        /* \"solidity\\xe9\\xab\\x98\\xe7\\xba\\xa7\\xe5\\xba\\x94\\xe7\\x94\\xa8/\\xe5\\xa5\\x96\\xe5\\x8a\\xb1\\xe8\\xae\\xa1\\xe7\\xae\\x97StakingReward.sol\":1566:1579  earn(account) */\n      tag_100\n        /* \"solidity\\xe9\\xab\\x98\\xe7\\xba\\xa7\\xe5\\xba\\x94\\xe7\\x94\\xa8/\\xe5\\xa5\\x96\\xe5\\x8a\\xb1\\xe8\\xae\\xa1\\xe7\\xae\\x97StakingReward.sol\":1571:1578  account */\n      dup2\n        /* \"solidity\\xe9\\xab\\x98\\xe7\\xba\\xa7\\xe5\\xba\\x94\\xe7\\x94\\xa8/\\xe5\\xa5\\x96\\xe5\\x8a\\xb1\\xe8\\xae\\xa1\\xe7\\xae\\x97StakingReward.sol\":1566:1570  earn */\n      tag_75\n        /* \"solidity\\xe9\\xab\\x98\\xe7\\xba\\xa7\\xe5\\xba\\x94\\xe7\\x94\\xa8/\\xe5\\xa5\\x96\\xe5\\x8a\\xb1\\xe8\\xae\\xa1\\xe7\\xae\\x97StakingReward.sol\":1566:1579  earn(account) */\n      jump\t// in\n    tag_100:\n        /* \"solidity\\xe9\\xab\\x98\\xe7\\xba\\xa7\\xe5\\xba\\x94\\xe7\\x94\\xa8/\\xe5\\xa5\\x96\\xe5\\x8a\\xb1\\xe8\\xae\\xa1\\xe7\\xae\\x97StakingReward.sol\":1545:1554  rewardsOf */\n      0x09\n        /* \"solidity\\xe9\\xab\\x98\\xe7\\xba\\xa7\\xe5\\xba\\x94\\xe7\\x94\\xa8/\\xe5\\xa5\\x96\\xe5\\x8a\\xb1\\xe8\\xae\\xa1\\xe7\\xae\\x97StakingReward.sol\":1545:1563  rewardsOf[account] */\n      0x00\n        /* \"solidity\\xe9\\xab\\x98\\xe7\\xba\\xa7\\xe5\\xba\\x94\\xe7\\x94\\xa8/\\xe5\\xa5\\x96\\xe5\\x8a\\xb1\\xe8\\xae\\xa1\\xe7\\xae\\x97StakingReward.sol\":1555:1562  account */\n      dup4\n        /* \"solidity\\xe9\\xab\\x98\\xe7\\xba\\xa7\\xe5\\xba\\x94\\xe7\\x94\\xa8/\\xe5\\xa5\\x96\\xe5\\x8a\\xb1\\xe8\\xae\\xa1\\xe7\\xae\\x97StakingReward.sol\":1545:1563  rewardsOf[account] */\n      0xffffffffffffffffffffffffffffffffffffffff\n      and\n      0xffffffffffffffffffffffffffffffffffffffff\n      and\n      dup2\n      mstore\n      0x20\n      add\n      swap1\n      dup2\n      mstore\n      0x20\n      add\n      0x00\n      keccak256\n        /* \"solidity\\xe9\\xab\\x98\\xe7\\xba\\xa7\\xe5\\xba\\x94\\xe7\\x94\\xa8/\\xe5\\xa5\\x96\\xe5\\x8a\\xb1\\xe8\\xae\\xa1\\xe7\\xae\\x97StakingReward.sol\":1545:1579  rewardsOf[account] = earn(account) */\n      dup2\n      swap1\n      sstore\n      pop\n        /* \"solidity\\xe9\\xab\\x98\\xe7\\xba\\xa7\\xe5\\xba\\x94\\xe7\\x94\\xa8/\\xe5\\xa5\\x96\\xe5\\x8a\\xb1\\xe8\\xae\\xa1\\xe7\\xae\\x97StakingReward.sol\":1624:1642  globalStakeToRewar */\n      sload(0x07)\n        /* \"solidity\\xe9\\xab\\x98\\xe7\\xba\\xa7\\xe5\\xba\\x94\\xe7\\x94\\xa8/\\xe5\\xa5\\x96\\xe5\\x8a\\xb1\\xe8\\xae\\xa1\\xe7\\xae\\x97StakingReward.sol\":1594:1612  userStakeToRewarOf */\n      0x08\n        /* \"solidity\\xe9\\xab\\x98\\xe7\\xba\\xa7\\xe5\\xba\\x94\\xe7\\x94\\xa8/\\xe5\\xa5\\x96\\xe5\\x8a\\xb1\\xe8\\xae\\xa1\\xe7\\xae\\x97StakingReward.sol\":1594:1621  userStakeToRewarOf[account] */\n      0x00\n        /* \"solidity\\xe9\\xab\\x98\\xe7\\xba\\xa7\\xe5\\xba\\x94\\xe7\\x94\\xa8/\\xe5\\xa5\\x96\\xe5\\x8a\\xb1\\xe8\\xae\\xa1\\xe7\\xae\\x97StakingReward.sol\":1613:1620  account */\n      dup4\n        /* \"solidity\\xe9\\xab\\x98\\xe7\\xba\\xa7\\xe5\\xba\\x94\\xe7\\x94\\xa8/\\xe5\\xa5\\x96\\xe5\\x8a\\xb1\\xe8\\xae\\xa1\\xe7\\xae\\x97StakingReward.sol\":1594:1621  userStakeToRewarOf[account] */\n      0xffffffffffffffffffffffffffffffffffffffff\n      and\n      0xffffffffffffffffffffffffffffffffffffffff\n      and\n      dup2\n      mstore\n      0x20\n      add\n      swap1\n      dup2\n      mstore\n      0x20\n      add\n      0x00\n      keccak256\n        /* \"solidity\\xe9\\xab\\x98\\xe7\\xba\\xa7\\xe5\\xba\\x94\\xe7\\x94\\xa8/\\xe5\\xa5\\x96\\xe5\\x8a\\xb1\\xe8\\xae\\xa1\\xe7\\xae\\x97StakingReward.sol\":1594:1642  userStakeToRewarOf[account] = globalStakeToRewar */\n      dup2\n      swap1\n      sstore\n      pop\n        /* \"solidity\\xe9\\xab\\x98\\xe7\\xba\\xa7\\xe5\\xba\\x94\\xe7\\x94\\xa8/\\xe5\\xa5\\x96\\xe5\\x8a\\xb1\\xe8\\xae\\xa1\\xe7\\xae\\x97StakingReward.sol\":1504:1654  if(account != address(0)) {... */\n    tag_99:\n        /* \"solidity\\xe9\\xab\\x98\\xe7\\xba\\xa7\\xe5\\xba\\x94\\xe7\\x94\\xa8/\\xe5\\xa5\\x96\\xe5\\x8a\\xb1\\xe8\\xae\\xa1\\xe7\\xae\\x97StakingReward.sol\":4089:4100  uint amount */\n      0x00\n        /* \"solidity\\xe9\\xab\\x98\\xe7\\xba\\xa7\\xe5\\xba\\x94\\xe7\\x94\\xa8/\\xe5\\xa5\\x96\\xe5\\x8a\\xb1\\xe8\\xae\\xa1\\xe7\\xae\\x97StakingReward.sol\":4103:4119  earn(msg.sender) */\n      tag_102\n        /* \"solidity\\xe9\\xab\\x98\\xe7\\xba\\xa7\\xe5\\xba\\x94\\xe7\\x94\\xa8/\\xe5\\xa5\\x96\\xe5\\x8a\\xb1\\xe8\\xae\\xa1\\xe7\\xae\\x97StakingReward.sol\":4108:4118  msg.sender */\n      caller\n        /* \"solidity\\xe9\\xab\\x98\\xe7\\xba\\xa7\\xe5\\xba\\x94\\xe7\\x94\\xa8/\\xe5\\xa5\\x96\\xe5\\x8a\\xb1\\xe8\\xae\\xa1\\xe7\\xae\\x97StakingReward.sol\":4103:4107  earn */\n      tag_75\n        /* \"solidity\\xe9\\xab\\x98\\xe7\\xba\\xa7\\xe5\\xba\\x94\\xe7\\x94\\xa8/\\xe5\\xa5\\x96\\xe5\\x8a\\xb1\\xe8\\xae\\xa1\\xe7\\xae\\x97StakingReward.sol\":4103:4119  earn(msg.sender) */\n      jump\t// in\n    tag_102:\n        /* \"solidity\\xe9\\xab\\x98\\xe7\\xba\\xa7\\xe5\\xba\\x94\\xe7\\x94\\xa8/\\xe5\\xa5\\x96\\xe5\\x8a\\xb1\\xe8\\xae\\xa1\\xe7\\xae\\x97StakingReward.sol\":4089:4119  uint amount = earn(msg.sender) */\n      swap1\n      pop\n        /* \"solidity\\xe9\\xab\\x98\\xe7\\xba\\xa7\\xe5\\xba\\x94\\xe7\\x94\\xa8/\\xe5\\xa5\\x96\\xe5\\x8a\\xb1\\xe8\\xae\\xa1\\xe7\\xae\\x97StakingReward.sol\":4142:4143  0 */\n      0x00\n        /* \"solidity\\xe9\\xab\\x98\\xe7\\xba\\xa7\\xe5\\xba\\x94\\xe7\\x94\\xa8/\\xe5\\xa5\\x96\\xe5\\x8a\\xb1\\xe8\\xae\\xa1\\xe7\\xae\\x97StakingReward.sol\":4133:4139  amount */\n      dup2\n        /* \"solidity\\xe9\\xab\\x98\\xe7\\xba\\xa7\\xe5\\xba\\x94\\xe7\\x94\\xa8/\\xe5\\xa5\\x96\\xe5\\x8a\\xb1\\xe8\\xae\\xa1\\xe7\\xae\\x97StakingReward.sol\":4133:4143  amount > 0 */\n      gt\n        /* \"solidity\\xe9\\xab\\x98\\xe7\\xba\\xa7\\xe5\\xba\\x94\\xe7\\x94\\xa8/\\xe5\\xa5\\x96\\xe5\\x8a\\xb1\\xe8\\xae\\xa1\\xe7\\xae\\x97StakingReward.sol\":4130:4251  if(amount > 0){... */\n      iszero\n      tag_103\n      jumpi\n        /* \"solidity\\xe9\\xab\\x98\\xe7\\xba\\xa7\\xe5\\xba\\x94\\xe7\\x94\\xa8/\\xe5\\xa5\\x96\\xe5\\x8a\\xb1\\xe8\\xae\\xa1\\xe7\\xae\\x97StakingReward.sol\":4183:4184  0 */\n      0x00\n        /* \"solidity\\xe9\\xab\\x98\\xe7\\xba\\xa7\\xe5\\xba\\x94\\xe7\\x94\\xa8/\\xe5\\xa5\\x96\\xe5\\x8a\\xb1\\xe8\\xae\\xa1\\xe7\\xae\\x97StakingReward.sol\":4159:4168  rewardsOf */\n      0x09\n        /* \"solidity\\xe9\\xab\\x98\\xe7\\xba\\xa7\\xe5\\xba\\x94\\xe7\\x94\\xa8/\\xe5\\xa5\\x96\\xe5\\x8a\\xb1\\xe8\\xae\\xa1\\xe7\\xae\\x97StakingReward.sol\":4159:4180  rewardsOf[msg.sender] */\n      0x00\n        /* \"solidity\\xe9\\xab\\x98\\xe7\\xba\\xa7\\xe5\\xba\\x94\\xe7\\x94\\xa8/\\xe5\\xa5\\x96\\xe5\\x8a\\xb1\\xe8\\xae\\xa1\\xe7\\xae\\x97StakingReward.sol\":4169:4179  msg.sender */\n      caller\n        /* \"solidity\\xe9\\xab\\x98\\xe7\\xba\\xa7\\xe5\\xba\\x94\\xe7\\x94\\xa8/\\xe5\\xa5\\x96\\xe5\\x8a\\xb1\\xe8\\xae\\xa1\\xe7\\xae\\x97StakingReward.sol\":4159:4180  rewardsOf[msg.sender] */\n      0xffffffffffffffffffffffffffffffffffffffff\n      and\n      0xffffffffffffffffffffffffffffffffffffffff\n      and\n      dup2\n      mstore\n      0x20\n      add\n      swap1\n      dup2\n      mstore\n      0x20\n      add\n      0x00\n      keccak256\n        /* \"solidity\\xe9\\xab\\x98\\xe7\\xba\\xa7\\xe5\\xba\\x94\\xe7\\x94\\xa8/\\xe5\\xa5\\x96\\xe5\\x8a\\xb1\\xe8\\xae\\xa1\\xe7\\xae\\x97StakingReward.sol\":4159:4184  rewardsOf[msg.sender] = 0 */\n      dup2\n      swap1\n      sstore\n      pop\n        /* \"solidity\\xe9\\xab\\x98\\xe7\\xba\\xa7\\xe5\\xba\\x94\\xe7\\x94\\xa8/\\xe5\\xa5\\x96\\xe5\\x8a\\xb1\\xe8\\xae\\xa1\\xe7\\xae\\x97StakingReward.sol\":4199:4210  rewardToken */\n      immutable(\"0x04e57633024368235fc5219bfb9802814291d3a7b9a68d0aeb7bd3d297ac474e\")\n        /* \"solidity\\xe9\\xab\\x98\\xe7\\xba\\xa7\\xe5\\xba\\x94\\xe7\\x94\\xa8/\\xe5\\xa5\\x96\\xe5\\x8a\\xb1\\xe8\\xae\\xa1\\xe7\\xae\\x97StakingReward.sol\":4199:4219  rewardToken.transfer */\n      0xffffffffffffffffffffffffffffffffffffffff\n      and\n      0xa9059cbb\n        /* \"solidity\\xe9\\xab\\x98\\xe7\\xba\\xa7\\xe5\\xba\\x94\\xe7\\x94\\xa8/\\xe5\\xa5\\x96\\xe5\\x8a\\xb1\\xe8\\xae\\xa1\\xe7\\xae\\x97StakingReward.sol\":4220:4230  msg.sender */\n      caller\n        /* \"solidity\\xe9\\xab\\x98\\xe7\\xba\\xa7\\xe5\\xba\\x94\\xe7\\x94\\xa8/\\xe5\\xa5\\x96\\xe5\\x8a\\xb1\\xe8\\xae\\xa1\\xe7\\xae\\x97StakingReward.sol\":4232:4238  amount */\n      dup4\n        /* \"solidity\\xe9\\xab\\x98\\xe7\\xba\\xa7\\xe5\\xba\\x94\\xe7\\x94\\xa8/\\xe5\\xa5\\x96\\xe5\\x8a\\xb1\\xe8\\xae\\xa1\\xe7\\xae\\x97StakingReward.sol\":4199:4239  rewardToken.transfer(msg.sender, amount) */\n      mload(0x40)\n      dup4\n      0xffffffff\n      and\n      0xe0\n      shl\n      dup2\n      mstore\n      0x04\n      add\n      tag_104\n      swap3\n      swap2\n      swap1\n      tag_91\n      jump\t// in\n    tag_104:\n      0x20\n      mload(0x40)\n      dup1\n      dup4\n      sub\n      dup2\n      0x00\n      dup8\n      gas\n      call\n      iszero\n      dup1\n      iszero\n      tag_106\n      jumpi\n      returndatacopy(0x00, 0x00, returndatasize)\n      revert(0x00, returndatasize)\n    tag_106:\n      pop\n      pop\n      pop\n      pop\n      mload(0x40)\n      returndatasize\n      not(0x1f)\n      0x1f\n      dup3\n      add\n      and\n      dup3\n      add\n      dup1\n      0x40\n      mstore\n      pop\n      dup2\n      add\n      swap1\n      tag_107\n      swap2\n      swap1\n      tag_95\n      jump\t// in\n    tag_107:\n      pop\n        /* \"solidity\\xe9\\xab\\x98\\xe7\\xba\\xa7\\xe5\\xba\\x94\\xe7\\x94\\xa8/\\xe5\\xa5\\x96\\xe5\\x8a\\xb1\\xe8\\xae\\xa1\\xe7\\xae\\x97StakingReward.sol\":4130:4251  if(amount > 0){... */\n    tag_103:\n        /* \"solidity\\xe9\\xab\\x98\\xe7\\xba\\xa7\\xe5\\xba\\x94\\xe7\\x94\\xa8/\\xe5\\xa5\\x96\\xe5\\x8a\\xb1\\xe8\\xae\\xa1\\xe7\\xae\\x97StakingReward.sol\":4078:4257  {... */\n      pop\n        /* \"solidity\\xe9\\xab\\x98\\xe7\\xba\\xa7\\xe5\\xba\\x94\\xe7\\x94\\xa8/\\xe5\\xa5\\x96\\xe5\\x8a\\xb1\\xe8\\xae\\xa1\\xe7\\xae\\x97StakingReward.sol\":4020:4257  function claim() external updateStakeToReward(msg.sender) {... */\n      pop\n      jump\t// out\n        /* \"solidity\\xe9\\xab\\x98\\xe7\\xba\\xa7\\xe5\\xba\\x94\\xe7\\x94\\xa8/\\xe5\\xa5\\x96\\xe5\\x8a\\xb1\\xe8\\xae\\xa1\\xe7\\xae\\x97StakingReward.sol\":3007:3440  function setNewRewardAmount( uint amount) external onlyOwner(msg.sender){... */\n    tag_42:\n        /* \"solidity\\xe9\\xab\\x98\\xe7\\xba\\xa7\\xe5\\xba\\x94\\xe7\\x94\\xa8/\\xe5\\xa5\\x96\\xe5\\x8a\\xb1\\xe8\\xae\\xa1\\xe7\\xae\\x97StakingReward.sol\":3068:3078  msg.sender */\n      caller\n        /* \"solidity\\xe9\\xab\\x98\\xe7\\xba\\xa7\\xe5\\xba\\x94\\xe7\\x94\\xa8/\\xe5\\xa5\\x96\\xe5\\x8a\\xb1\\xe8\\xae\\xa1\\xe7\\xae\\x97StakingReward.sol\":1073:1078  owner */\n      0x00\n      0x00\n      swap1\n      sload\n      swap1\n      0x0100\n      exp\n      swap1\n      div\n      0xffffffffffffffffffffffffffffffffffffffff\n      and\n        /* \"solidity\\xe9\\xab\\x98\\xe7\\xba\\xa7\\xe5\\xba\\x94\\xe7\\x94\\xa8/\\xe5\\xa5\\x96\\xe5\\x8a\\xb1\\xe8\\xae\\xa1\\xe7\\xae\\x97StakingReward.sol\":1065:1078  addr == owner */\n      0xffffffffffffffffffffffffffffffffffffffff\n      and\n        /* \"solidity\\xe9\\xab\\x98\\xe7\\xba\\xa7\\xe5\\xba\\x94\\xe7\\x94\\xa8/\\xe5\\xa5\\x96\\xe5\\x8a\\xb1\\xe8\\xae\\xa1\\xe7\\xae\\x97StakingReward.sol\":1065:1069  addr */\n      dup2\n        /* \"solidity\\xe9\\xab\\x98\\xe7\\xba\\xa7\\xe5\\xba\\x94\\xe7\\x94\\xa8/\\xe5\\xa5\\x96\\xe5\\x8a\\xb1\\xe8\\xae\\xa1\\xe7\\xae\\x97StakingReward.sol\":1065:1078  addr == owner */\n      0xffffffffffffffffffffffffffffffffffffffff\n      and\n      eq\n        /* \"solidity\\xe9\\xab\\x98\\xe7\\xba\\xa7\\xe5\\xba\\x94\\xe7\\x94\\xa8/\\xe5\\xa5\\x96\\xe5\\x8a\\xb1\\xe8\\xae\\xa1\\xe7\\xae\\x97StakingReward.sol\":1057:1092  require(addr == owner, \"not owner\") */\n      tag_109\n      jumpi\n      mload(0x40)\n      0x08c379a000000000000000000000000000000000000000000000000000000000\n      dup2\n      mstore\n      0x04\n      add\n      tag_110\n      swap1\n      tag_111\n      jump\t// in\n    tag_110:\n      mload(0x40)\n      dup1\n      swap2\n      sub\n      swap1\n      revert\n    tag_109:\n        /* \"solidity\\xe9\\xab\\x98\\xe7\\xba\\xa7\\xe5\\xba\\x94\\xe7\\x94\\xa8/\\xe5\\xa5\\x96\\xe5\\x8a\\xb1\\xe8\\xae\\xa1\\xe7\\xae\\x97StakingReward.sol\":3111:3120  finshTime */\n      sload(0x02)\n        /* \"solidity\\xe9\\xab\\x98\\xe7\\xba\\xa7\\xe5\\xba\\x94\\xe7\\x94\\xa8/\\xe5\\xa5\\x96\\xe5\\x8a\\xb1\\xe8\\xae\\xa1\\xe7\\xae\\x97StakingReward.sol\":3093:3108  block.timestamp */\n      timestamp\n        /* \"solidity\\xe9\\xab\\x98\\xe7\\xba\\xa7\\xe5\\xba\\x94\\xe7\\x94\\xa8/\\xe5\\xa5\\x96\\xe5\\x8a\\xb1\\xe8\\xae\\xa1\\xe7\\xae\\x97StakingReward.sol\":3093:3120  block.timestamp > finshTime */\n      gt\n        /* \"solidity\\xe9\\xab\\x98\\xe7\\xba\\xa7\\xe5\\xba\\x94\\xe7\\x94\\xa8/\\xe5\\xa5\\x96\\xe5\\x8a\\xb1\\xe8\\xae\\xa1\\xe7\\xae\\x97StakingReward.sol\":3090:3346  if(block.timestamp > finshTime) {... */\n      iszero\n      tag_113\n      jumpi\n        /* \"solidity\\xe9\\xab\\x98\\xe7\\xba\\xa7\\xe5\\xba\\x94\\xe7\\x94\\xa8/\\xe5\\xa5\\x96\\xe5\\x8a\\xb1\\xe8\\xae\\xa1\\xe7\\xae\\x97StakingReward.sol\":3159:3167  duration */\n      sload(0x01)\n        /* \"solidity\\xe9\\xab\\x98\\xe7\\xba\\xa7\\xe5\\xba\\x94\\xe7\\x94\\xa8/\\xe5\\xa5\\x96\\xe5\\x8a\\xb1\\xe8\\xae\\xa1\\xe7\\xae\\x97StakingReward.sol\":3150:3156  amount */\n      dup3\n        /* \"solidity\\xe9\\xab\\x98\\xe7\\xba\\xa7\\xe5\\xba\\x94\\xe7\\x94\\xa8/\\xe5\\xa5\\x96\\xe5\\x8a\\xb1\\xe8\\xae\\xa1\\xe7\\xae\\x97StakingReward.sol\":3150:3167  amount / duration */\n      tag_114\n      swap2\n      swap1\n      tag_115\n      jump\t// in\n    tag_114:\n        /* \"solidity\\xe9\\xab\\x98\\xe7\\xba\\xa7\\xe5\\xba\\x94\\xe7\\x94\\xa8/\\xe5\\xa5\\x96\\xe5\\x8a\\xb1\\xe8\\xae\\xa1\\xe7\\xae\\x97StakingReward.sol\":3137:3147  rewardRate */\n      0x04\n        /* \"solidity\\xe9\\xab\\x98\\xe7\\xba\\xa7\\xe5\\xba\\x94\\xe7\\x94\\xa8/\\xe5\\xa5\\x96\\xe5\\x8a\\xb1\\xe8\\xae\\xa1\\xe7\\xae\\x97StakingReward.sol\":3137:3167  rewardRate = amount / duration */\n      dup2\n      swap1\n      sstore\n      pop\n        /* \"solidity\\xe9\\xab\\x98\\xe7\\xba\\xa7\\xe5\\xba\\x94\\xe7\\x94\\xa8/\\xe5\\xa5\\x96\\xe5\\x8a\\xb1\\xe8\\xae\\xa1\\xe7\\xae\\x97StakingReward.sol\":3090:3346  if(block.timestamp > finshTime) {... */\n      jump(tag_116)\n    tag_113:\n        /* \"solidity\\xe9\\xab\\x98\\xe7\\xba\\xa7\\xe5\\xba\\x94\\xe7\\x94\\xa8/\\xe5\\xa5\\x96\\xe5\\x8a\\xb1\\xe8\\xae\\xa1\\xe7\\xae\\x97StakingReward.sol\":3200:3221  uint remainingRewards */\n      0x00\n        /* \"solidity\\xe9\\xab\\x98\\xe7\\xba\\xa7\\xe5\\xba\\x94\\xe7\\x94\\xa8/\\xe5\\xa5\\x96\\xe5\\x8a\\xb1\\xe8\\xae\\xa1\\xe7\\xae\\x97StakingReward.sol\":3252:3267  block.timestamp */\n      timestamp\n        /* \"solidity\\xe9\\xab\\x98\\xe7\\xba\\xa7\\xe5\\xba\\x94\\xe7\\x94\\xa8/\\xe5\\xa5\\x96\\xe5\\x8a\\xb1\\xe8\\xae\\xa1\\xe7\\xae\\x97StakingReward.sol\":3240:3249  finshTime */\n      sload(0x02)\n        /* \"solidity\\xe9\\xab\\x98\\xe7\\xba\\xa7\\xe5\\xba\\x94\\xe7\\x94\\xa8/\\xe5\\xa5\\x96\\xe5\\x8a\\xb1\\xe8\\xae\\xa1\\xe7\\xae\\x97StakingReward.sol\":3240:3267  finshTime - block.timestamp */\n      tag_117\n      swap2\n      swap1\n      tag_88\n      jump\t// in\n    tag_117:\n        /* \"solidity\\xe9\\xab\\x98\\xe7\\xba\\xa7\\xe5\\xba\\x94\\xe7\\x94\\xa8/\\xe5\\xa5\\x96\\xe5\\x8a\\xb1\\xe8\\xae\\xa1\\xe7\\xae\\x97StakingReward.sol\":3226:3236  rewardRate */\n      sload(0x04)\n        /* \"solidity\\xe9\\xab\\x98\\xe7\\xba\\xa7\\xe5\\xba\\x94\\xe7\\x94\\xa8/\\xe5\\xa5\\x96\\xe5\\x8a\\xb1\\xe8\\xae\\xa1\\xe7\\xae\\x97StakingReward.sol\":3226:3268  rewardRate * (finshTime - block.timestamp) */\n      tag_118\n      swap2\n      swap1\n      tag_119\n      jump\t// in\n    tag_118:\n        /* \"solidity\\xe9\\xab\\x98\\xe7\\xba\\xa7\\xe5\\xba\\x94\\xe7\\x94\\xa8/\\xe5\\xa5\\x96\\xe5\\x8a\\xb1\\xe8\\xae\\xa1\\xe7\\xae\\x97StakingReward.sol\":3200:3268  uint remainingRewards  =  rewardRate * (finshTime - block.timestamp) */\n      swap1\n      pop\n        /* \"solidity\\xe9\\xab\\x98\\xe7\\xba\\xa7\\xe5\\xba\\x94\\xe7\\x94\\xa8/\\xe5\\xa5\\x96\\xe5\\x8a\\xb1\\xe8\\xae\\xa1\\xe7\\xae\\x97StakingReward.sol\":3326:3334  duration */\n      sload(0x01)\n        /* \"solidity\\xe9\\xab\\x98\\xe7\\xba\\xa7\\xe5\\xba\\x94\\xe7\\x94\\xa8/\\xe5\\xa5\\x96\\xe5\\x8a\\xb1\\xe8\\xae\\xa1\\xe7\\xae\\x97StakingReward.sol\":3306:3322  remainingRewards */\n      dup2\n        /* \"solidity\\xe9\\xab\\x98\\xe7\\xba\\xa7\\xe5\\xba\\x94\\xe7\\x94\\xa8/\\xe5\\xa5\\x96\\xe5\\x8a\\xb1\\xe8\\xae\\xa1\\xe7\\xae\\x97StakingReward.sol\":3297:3303  amount */\n      dup5\n        /* \"solidity\\xe9\\xab\\x98\\xe7\\xba\\xa7\\xe5\\xba\\x94\\xe7\\x94\\xa8/\\xe5\\xa5\\x96\\xe5\\x8a\\xb1\\xe8\\xae\\xa1\\xe7\\xae\\x97StakingReward.sol\":3297:3322  amount + remainingRewards */\n      tag_120\n      swap2\n      swap1\n      tag_121\n      jump\t// in\n    tag_120:\n        /* \"solidity\\xe9\\xab\\x98\\xe7\\xba\\xa7\\xe5\\xba\\x94\\xe7\\x94\\xa8/\\xe5\\xa5\\x96\\xe5\\x8a\\xb1\\xe8\\xae\\xa1\\xe7\\xae\\x97StakingReward.sol\":3296:3334  (amount + remainingRewards) / duration */\n      tag_122\n      swap2\n      swap1\n      tag_115\n      jump\t// in\n    tag_122:\n        /* \"solidity\\xe9\\xab\\x98\\xe7\\xba\\xa7\\xe5\\xba\\x94\\xe7\\x94\\xa8/\\xe5\\xa5\\x96\\xe5\\x8a\\xb1\\xe8\\xae\\xa1\\xe7\\xae\\x97StakingReward.sol\":3283:3293  rewardRate */\n      0x04\n        /* \"solidity\\xe9\\xab\\x98\\xe7\\xba\\xa7\\xe5\\xba\\x94\\xe7\\x94\\xa8/\\xe5\\xa5\\x96\\xe5\\x8a\\xb1\\xe8\\xae\\xa1\\xe7\\xae\\x97StakingReward.sol\":3283:3334  rewardRate = (amount + remainingRewards) / duration */\n      dup2\n      swap1\n      sstore\n      pop\n        /* \"solidity\\xe9\\xab\\x98\\xe7\\xba\\xa7\\xe5\\xba\\x94\\xe7\\x94\\xa8/\\xe5\\xa5\\x96\\xe5\\x8a\\xb1\\xe8\\xae\\xa1\\xe7\\xae\\x97StakingReward.sol\":3185:3346  {... */\n      pop\n        /* \"solidity\\xe9\\xab\\x98\\xe7\\xba\\xa7\\xe5\\xba\\x94\\xe7\\x94\\xa8/\\xe5\\xa5\\x96\\xe5\\x8a\\xb1\\xe8\\xae\\xa1\\xe7\\xae\\x97StakingReward.sol\":3090:3346  if(block.timestamp > finshTime) {... */\n    tag_116:\n        /* \"solidity\\xe9\\xab\\x98\\xe7\\xba\\xa7\\xe5\\xba\\x94\\xe7\\x94\\xa8/\\xe5\\xa5\\x96\\xe5\\x8a\\xb1\\xe8\\xae\\xa1\\xe7\\xae\\x97StakingReward.sol\":3369:3384  block.timestamp */\n      timestamp\n        /* \"solidity\\xe9\\xab\\x98\\xe7\\xba\\xa7\\xe5\\xba\\x94\\xe7\\x94\\xa8/\\xe5\\xa5\\x96\\xe5\\x8a\\xb1\\xe8\\xae\\xa1\\xe7\\xae\\x97StakingReward.sol\":3356:3366  updateTime */\n      0x03\n        /* \"solidity\\xe9\\xab\\x98\\xe7\\xba\\xa7\\xe5\\xba\\x94\\xe7\\x94\\xa8/\\xe5\\xa5\\x96\\xe5\\x8a\\xb1\\xe8\\xae\\xa1\\xe7\\xae\\x97StakingReward.sol\":3356:3384  updateTime = block.timestamp */\n      dup2\n      swap1\n      sstore\n      pop\n        /* \"solidity\\xe9\\xab\\x98\\xe7\\xba\\xa7\\xe5\\xba\\x94\\xe7\\x94\\xa8/\\xe5\\xa5\\x96\\xe5\\x8a\\xb1\\xe8\\xae\\xa1\\xe7\\xae\\x97StakingReward.sol\":3425:3433  duration */\n      sload(0x01)\n        /* \"solidity\\xe9\\xab\\x98\\xe7\\xba\\xa7\\xe5\\xba\\x94\\xe7\\x94\\xa8/\\xe5\\xa5\\x96\\xe5\\x8a\\xb1\\xe8\\xae\\xa1\\xe7\\xae\\x97StakingReward.sol\":3407:3422  block.timestamp */\n      timestamp\n        /* \"solidity\\xe9\\xab\\x98\\xe7\\xba\\xa7\\xe5\\xba\\x94\\xe7\\x94\\xa8/\\xe5\\xa5\\x96\\xe5\\x8a\\xb1\\xe8\\xae\\xa1\\xe7\\xae\\x97StakingReward.sol\":3407:3433  block.timestamp + duration */\n      tag_123\n      swap2\n      swap1\n      tag_121\n      jump\t// in\n    tag_123:\n        /* \"solidity\\xe9\\xab\\x98\\xe7\\xba\\xa7\\xe5\\xba\\x94\\xe7\\x94\\xa8/\\xe5\\xa5\\x96\\xe5\\x8a\\xb1\\xe8\\xae\\xa1\\xe7\\xae\\x97StakingReward.sol\":3395:3404  finshTime */\n      0x02\n        /* \"solidity\\xe9\\xab\\x98\\xe7\\xba\\xa7\\xe5\\xba\\x94\\xe7\\x94\\xa8/\\xe5\\xa5\\x96\\xe5\\x8a\\xb1\\xe8\\xae\\xa1\\xe7\\xae\\x97StakingReward.sol\":3395:3433  finshTime = block.timestamp + duration */\n      dup2\n      swap1\n      sstore\n      pop\n        /* \"solidity\\xe9\\xab\\x98\\xe7\\xba\\xa7\\xe5\\xba\\x94\\xe7\\x94\\xa8/\\xe5\\xa5\\x96\\xe5\\x8a\\xb1\\xe8\\xae\\xa1\\xe7\\xae\\x97StakingReward.sol\":3007:3440  function setNewRewardAmount( uint amount) external onlyOwner(msg.sender){... */\n      pop\n      pop\n      jump\t// out\n        /* \"solidity\\xe9\\xab\\x98\\xe7\\xba\\xa7\\xe5\\xba\\x94\\xe7\\x94\\xa8/\\xe5\\xa5\\x96\\xe5\\x8a\\xb1\\xe8\\xae\\xa1\\xe7\\xae\\x97StakingReward.sol\":541:571  uint public globalStakeToRewar */\n    tag_44:\n      sload(0x07)\n      dup2\n      jump\t// out\n        /* \"solidity\\xe9\\xab\\x98\\xe7\\xba\\xa7\\xe5\\xba\\x94\\xe7\\x94\\xa8/\\xe5\\xa5\\x96\\xe5\\x8a\\xb1\\xe8\\xae\\xa1\\xe7\\xae\\x97StakingReward.sol\":283:304  uint public finshTime */\n    tag_47:\n      sload(0x02)\n      dup2\n      jump\t// out\n        /* \"solidity\\xe9\\xab\\x98\\xe7\\xba\\xa7\\xe5\\xba\\x94\\xe7\\x94\\xa8/\\xe5\\xa5\\x96\\xe5\\x8a\\xb1\\xe8\\xae\\xa1\\xe7\\xae\\x97StakingReward.sol\":422:464  mapping(address => uint)  public balanceOf */\n    tag_51:\n      mstore(0x20, 0x05)\n      dup1\n      0x00\n      mstore\n      keccak256(0x00, 0x40)\n      0x00\n      swap2\n      pop\n      swap1\n      pop\n      sload\n      dup2\n      jump\t// out\n        /* \"solidity\\xe9\\xab\\x98\\xe7\\xba\\xa7\\xe5\\xba\\x94\\xe7\\x94\\xa8/\\xe5\\xa5\\x96\\xe5\\x8a\\xb1\\xe8\\xae\\xa1\\xe7\\xae\\x97StakingReward.sol\":368:390  uint public rewardRate */\n    tag_54:\n      sload(0x04)\n      dup2\n      jump\t// out\n        /* \"solidity\\xe9\\xab\\x98\\xe7\\xba\\xa7\\xe5\\xba\\x94\\xe7\\x94\\xa8/\\xe5\\xa5\\x96\\xe5\\x8a\\xb1\\xe8\\xae\\xa1\\xe7\\xae\\x97StakingReward.sol\":616:666  mapping(address => uint) public userStakeToRewarOf */\n    tag_58:\n      mstore(0x20, 0x08)\n      dup1\n      0x00\n      mstore\n      keccak256(0x00, 0x40)\n      0x00\n      swap2\n      pop\n      swap1\n      pop\n      sload\n      dup2\n      jump\t// out\n        /* \"solidity\\xe9\\xab\\x98\\xe7\\xba\\xa7\\xe5\\xba\\x94\\xe7\\x94\\xa8/\\xe5\\xa5\\x96\\xe5\\x8a\\xb1\\xe8\\xae\\xa1\\xe7\\xae\\x97StakingReward.sol\":217:237  address public owner */\n    tag_61:\n      0x00\n      0x00\n      swap1\n      sload\n      swap1\n      0x0100\n      exp\n      swap1\n      div\n      0xffffffffffffffffffffffffffffffffffffffff\n      and\n      dup2\n      jump\t// out\n        /* \"solidity\\xe9\\xab\\x98\\xe7\\xba\\xa7\\xe5\\xba\\x94\\xe7\\x94\\xa8/\\xe5\\xa5\\x96\\xe5\\x8a\\xb1\\xe8\\xae\\xa1\\xe7\\xae\\x97StakingReward.sol\":3460:3723  function stake(uint amount) external updateStakeToReward(msg.sender){... */\n    tag_66:\n        /* \"solidity\\xe9\\xab\\x98\\xe7\\xba\\xa7\\xe5\\xba\\x94\\xe7\\x94\\xa8/\\xe5\\xa5\\x96\\xe5\\x8a\\xb1\\xe8\\xae\\xa1\\xe7\\xae\\x97StakingReward.sol\":3517:3527  msg.sender */\n      caller\n        /* \"solidity\\xe9\\xab\\x98\\xe7\\xba\\xa7\\xe5\\xba\\x94\\xe7\\x94\\xa8/\\xe5\\xa5\\x96\\xe5\\x8a\\xb1\\xe8\\xae\\xa1\\xe7\\xae\\x97StakingReward.sol\":1419:1450  calCurrentGlobalStakeToReward() */\n      tag_125\n        /* \"solidity\\xe9\\xab\\x98\\xe7\\xba\\xa7\\xe5\\xba\\x94\\xe7\\x94\\xa8/\\xe5\\xa5\\x96\\xe5\\x8a\\xb1\\xe8\\xae\\xa1\\xe7\\xae\\x97StakingReward.sol\":1419:1448  calCurrentGlobalStakeToReward */\n      tag_68\n        /* \"solidity\\xe9\\xab\\x98\\xe7\\xba\\xa7\\xe5\\xba\\x94\\xe7\\x94\\xa8/\\xe5\\xa5\\x96\\xe5\\x8a\\xb1\\xe8\\xae\\xa1\\xe7\\xae\\x97StakingReward.sol\":1419:1450  calCurrentGlobalStakeToReward() */\n      jump\t// in\n    tag_125:\n        /* \"solidity\\xe9\\xab\\x98\\xe7\\xba\\xa7\\xe5\\xba\\x94\\xe7\\x94\\xa8/\\xe5\\xa5\\x96\\xe5\\x8a\\xb1\\xe8\\xae\\xa1\\xe7\\xae\\x97StakingReward.sol\":1397:1415  globalStakeToRewar */\n      0x07\n        /* \"solidity\\xe9\\xab\\x98\\xe7\\xba\\xa7\\xe5\\xba\\x94\\xe7\\x94\\xa8/\\xe5\\xa5\\x96\\xe5\\x8a\\xb1\\xe8\\xae\\xa1\\xe7\\xae\\x97StakingReward.sol\":1397:1450  globalStakeToRewar  = calCurrentGlobalStakeToReward() */\n      dup2\n      swap1\n      sstore\n      pop\n        /* \"solidity\\xe9\\xab\\x98\\xe7\\xba\\xa7\\xe5\\xba\\x94\\xe7\\x94\\xa8/\\xe5\\xa5\\x96\\xe5\\x8a\\xb1\\xe8\\xae\\xa1\\xe7\\xae\\x97StakingReward.sol\":1474:1493  getLastEffectTime() */\n      tag_126\n        /* \"solidity\\xe9\\xab\\x98\\xe7\\xba\\xa7\\xe5\\xba\\x94\\xe7\\x94\\xa8/\\xe5\\xa5\\x96\\xe5\\x8a\\xb1\\xe8\\xae\\xa1\\xe7\\xae\\x97StakingReward.sol\":1474:1491  getLastEffectTime */\n      tag_80\n        /* \"solidity\\xe9\\xab\\x98\\xe7\\xba\\xa7\\xe5\\xba\\x94\\xe7\\x94\\xa8/\\xe5\\xa5\\x96\\xe5\\x8a\\xb1\\xe8\\xae\\xa1\\xe7\\xae\\x97StakingReward.sol\":1474:1493  getLastEffectTime() */\n      jump\t// in\n    tag_126:\n        /* \"solidity\\xe9\\xab\\x98\\xe7\\xba\\xa7\\xe5\\xba\\x94\\xe7\\x94\\xa8/\\xe5\\xa5\\x96\\xe5\\x8a\\xb1\\xe8\\xae\\xa1\\xe7\\xae\\x97StakingReward.sol\":1461:1471  updateTime */\n      0x03\n        /* \"solidity\\xe9\\xab\\x98\\xe7\\xba\\xa7\\xe5\\xba\\x94\\xe7\\x94\\xa8/\\xe5\\xa5\\x96\\xe5\\x8a\\xb1\\xe8\\xae\\xa1\\xe7\\xae\\x97StakingReward.sol\":1461:1493  updateTime = getLastEffectTime() */\n      dup2\n      swap1\n      sstore\n      pop\n        /* \"solidity\\xe9\\xab\\x98\\xe7\\xba\\xa7\\xe5\\xba\\x94\\xe7\\x94\\xa8/\\xe5\\xa5\\x96\\xe5\\x8a\\xb1\\xe8\\xae\\xa1\\xe7\\xae\\x97StakingReward.sol\":1526:1527  0 */\n      0x00\n        /* \"solidity\\xe9\\xab\\x98\\xe7\\xba\\xa7\\xe5\\xba\\x94\\xe7\\x94\\xa8/\\xe5\\xa5\\x96\\xe5\\x8a\\xb1\\xe8\\xae\\xa1\\xe7\\xae\\x97StakingReward.sol\":1507:1528  account != address(0) */\n      0xffffffffffffffffffffffffffffffffffffffff\n      and\n        /* \"solidity\\xe9\\xab\\x98\\xe7\\xba\\xa7\\xe5\\xba\\x94\\xe7\\x94\\xa8/\\xe5\\xa5\\x96\\xe5\\x8a\\xb1\\xe8\\xae\\xa1\\xe7\\xae\\x97StakingReward.sol\":1507:1514  account */\n      dup2\n        /* \"solidity\\xe9\\xab\\x98\\xe7\\xba\\xa7\\xe5\\xba\\x94\\xe7\\x94\\xa8/\\xe5\\xa5\\x96\\xe5\\x8a\\xb1\\xe8\\xae\\xa1\\xe7\\xae\\x97StakingReward.sol\":1507:1528  account != address(0) */\n      0xffffffffffffffffffffffffffffffffffffffff\n      and\n      eq\n        /* \"solidity\\xe9\\xab\\x98\\xe7\\xba\\xa7\\xe5\\xba\\x94\\xe7\\x94\\xa8/\\xe5\\xa5\\x96\\xe5\\x8a\\xb1\\xe8\\xae\\xa1\\xe7\\xae\\x97StakingReward.sol\":1504:1654  if(account != address(0)) {... */\n      tag_127\n      jumpi\n        /* \"solidity\\xe9\\xab\\x98\\xe7\\xba\\xa7\\xe5\\xba\\x94\\xe7\\x94\\xa8/\\xe5\\xa5\\x96\\xe5\\x8a\\xb1\\xe8\\xae\\xa1\\xe7\\xae\\x97StakingReward.sol\":1566:1579  earn(account) */\n      tag_128\n        /* \"solidity\\xe9\\xab\\x98\\xe7\\xba\\xa7\\xe5\\xba\\x94\\xe7\\x94\\xa8/\\xe5\\xa5\\x96\\xe5\\x8a\\xb1\\xe8\\xae\\xa1\\xe7\\xae\\x97StakingReward.sol\":1571:1578  account */\n      dup2\n        /* \"solidity\\xe9\\xab\\x98\\xe7\\xba\\xa7\\xe5\\xba\\x94\\xe7\\x94\\xa8/\\xe5\\xa5\\x96\\xe5\\x8a\\xb1\\xe8\\xae\\xa1\\xe7\\xae\\x97StakingReward.sol\":1566:1570  earn */\n      tag_75\n        /* \"solidity\\xe9\\xab\\x98\\xe7\\xba\\xa7\\xe5\\xba\\x94\\xe7\\x94\\xa8/\\xe5\\xa5\\x96\\xe5\\x8a\\xb1\\xe8\\xae\\xa1\\xe7\\xae\\x97StakingReward.sol\":1566:1579  earn(account) */\n      jump\t// in\n    tag_128:\n        /* \"solidity\\xe9\\xab\\x98\\xe7\\xba\\xa7\\xe5\\xba\\x94\\xe7\\x94\\xa8/\\xe5\\xa5\\x96\\xe5\\x8a\\xb1\\xe8\\xae\\xa1\\xe7\\xae\\x97StakingReward.sol\":1545:1554  rewardsOf */\n      0x09\n        /* \"solidity\\xe9\\xab\\x98\\xe7\\xba\\xa7\\xe5\\xba\\x94\\xe7\\x94\\xa8/\\xe5\\xa5\\x96\\xe5\\x8a\\xb1\\xe8\\xae\\xa1\\xe7\\xae\\x97StakingReward.sol\":1545:1563  rewardsOf[account] */\n      0x00\n        /* \"solidity\\xe9\\xab\\x98\\xe7\\xba\\xa7\\xe5\\xba\\x94\\xe7\\x94\\xa8/\\xe5\\xa5\\x96\\xe5\\x8a\\xb1\\xe8\\xae\\xa1\\xe7\\xae\\x97StakingReward.sol\":1555:1562  account */\n      dup4\n        /* \"solidity\\xe9\\xab\\x98\\xe7\\xba\\xa7\\xe5\\xba\\x94\\xe7\\x94\\xa8/\\xe5\\xa5\\x96\\xe5\\x8a\\xb1\\xe8\\xae\\xa1\\xe7\\xae\\x97StakingReward.sol\":1545:1563  rewardsOf[account] */\n      0xffffffffffffffffffffffffffffffffffffffff\n      and\n      0xffffffffffffffffffffffffffffffffffffffff\n      and\n      dup2\n      mstore\n      0x20\n      add\n      swap1\n      dup2\n      mstore\n      0x20\n      add\n      0x00\n      keccak256\n        /* \"solidity\\xe9\\xab\\x98\\xe7\\xba\\xa7\\xe5\\xba\\x94\\xe7\\x94\\xa8/\\xe5\\xa5\\x96\\xe5\\x8a\\xb1\\xe8\\xae\\xa1\\xe7\\xae\\x97StakingReward.sol\":1545:1579  rewardsOf[account] = earn(account) */\n      dup2\n      swap1\n      sstore\n      pop\n        /* \"solidity\\xe9\\xab\\x98\\xe7\\xba\\xa7\\xe5\\xba\\x94\\xe7\\x94\\xa8/\\xe5\\xa5\\x96\\xe5\\x8a\\xb1\\xe8\\xae\\xa1\\xe7\\xae\\x97StakingReward.sol\":1624:1642  globalStakeToRewar */\n      sload(0x07)\n        /* \"solidity\\xe9\\xab\\x98\\xe7\\xba\\xa7\\xe5\\xba\\x94\\xe7\\x94\\xa8/\\xe5\\xa5\\x96\\xe5\\x8a\\xb1\\xe8\\xae\\xa1\\xe7\\xae\\x97StakingReward.sol\":1594:1612  userStakeToRewarOf */\n      0x08\n        /* \"solidity\\xe9\\xab\\x98\\xe7\\xba\\xa7\\xe5\\xba\\x94\\xe7\\x94\\xa8/\\xe5\\xa5\\x96\\xe5\\x8a\\xb1\\xe8\\xae\\xa1\\xe7\\xae\\x97StakingReward.sol\":1594:1621  userStakeToRewarOf[account] */\n      0x00\n        /* \"solidity\\xe9\\xab\\x98\\xe7\\xba\\xa7\\xe5\\xba\\x94\\xe7\\x94\\xa8/\\xe5\\xa5\\x96\\xe5\\x8a\\xb1\\xe8\\xae\\xa1\\xe7\\xae\\x97StakingReward.sol\":1613:1620  account */\n      dup4\n        /* \"solidity\\xe9\\xab\\x98\\xe7\\xba\\xa7\\xe5\\xba\\x94\\xe7\\x94\\xa8/\\xe5\\xa5\\x96\\xe5\\x8a\\xb1\\xe8\\xae\\xa1\\xe7\\xae\\x97StakingReward.sol\":1594:1621  userStakeToRewarOf[account] */\n      0xffffffffffffffffffffffffffffffffffffffff\n      and\n      0xffffffffffffffffffffffffffffffffffffffff\n      and\n      dup2\n      mstore\n      0x20\n      add\n      swap1\n      dup2\n      mstore\n      0x20\n      add\n      0x00\n      keccak256\n        /* \"solidity\\xe9\\xab\\x98\\xe7\\xba\\xa7\\xe5\\xba\\x94\\xe7\\x94\\xa8/\\xe5\\xa5\\x96\\xe5\\x8a\\xb1\\xe8\\xae\\xa1\\xe7\\xae\\x97StakingReward.sol\":1594:1642  userStakeToRewarOf[account] = globalStakeToRewar */\n      dup2\n      swap1\n      sstore\n      pop\n        /* \"solidity\\xe9\\xab\\x98\\xe7\\xba\\xa7\\xe5\\xba\\x94\\xe7\\x94\\xa8/\\xe5\\xa5\\x96\\xe5\\x8a\\xb1\\xe8\\xae\\xa1\\xe7\\xae\\x97StakingReward.sol\":1504:1654  if(account != address(0)) {... */\n    tag_127:\n        /* \"solidity\\xe9\\xab\\x98\\xe7\\xba\\xa7\\xe5\\xba\\x94\\xe7\\x94\\xa8/\\xe5\\xa5\\x96\\xe5\\x8a\\xb1\\xe8\\xae\\xa1\\xe7\\xae\\x97StakingReward.sol\":3556:3557  0 */\n      0x00\n        /* \"solidity\\xe9\\xab\\x98\\xe7\\xba\\xa7\\xe5\\xba\\x94\\xe7\\x94\\xa8/\\xe5\\xa5\\x96\\xe5\\x8a\\xb1\\xe8\\xae\\xa1\\xe7\\xae\\x97StakingReward.sol\":3547:3553  amount */\n      dup3\n        /* \"solidity\\xe9\\xab\\x98\\xe7\\xba\\xa7\\xe5\\xba\\x94\\xe7\\x94\\xa8/\\xe5\\xa5\\x96\\xe5\\x8a\\xb1\\xe8\\xae\\xa1\\xe7\\xae\\x97StakingReward.sol\":3547:3557  amount > 0 */\n      gt\n        /* \"solidity\\xe9\\xab\\x98\\xe7\\xba\\xa7\\xe5\\xba\\x94\\xe7\\x94\\xa8/\\xe5\\xa5\\x96\\xe5\\x8a\\xb1\\xe8\\xae\\xa1\\xe7\\xae\\x97StakingReward.sol\":3539:3572  require(amount > 0, \"amount < 0\") */\n      tag_130\n      jumpi\n      mload(0x40)\n      0x08c379a000000000000000000000000000000000000000000000000000000000\n      dup2\n      mstore\n      0x04\n      add\n      tag_131\n      swap1\n      tag_86\n      jump\t// in\n    tag_131:\n      mload(0x40)\n      dup1\n      swap2\n      sub\n      swap1\n      revert\n    tag_130:\n        /* \"solidity\\xe9\\xab\\x98\\xe7\\xba\\xa7\\xe5\\xba\\x94\\xe7\\x94\\xa8/\\xe5\\xa5\\x96\\xe5\\x8a\\xb1\\xe8\\xae\\xa1\\xe7\\xae\\x97StakingReward.sol\":3608:3614  amount */\n      dup2\n        /* \"solidity\\xe9\\xab\\x98\\xe7\\xba\\xa7\\xe5\\xba\\x94\\xe7\\x94\\xa8/\\xe5\\xa5\\x96\\xe5\\x8a\\xb1\\xe8\\xae\\xa1\\xe7\\xae\\x97StakingReward.sol\":3583:3592  balanceOf */\n      0x05\n        /* \"solidity\\xe9\\xab\\x98\\xe7\\xba\\xa7\\xe5\\xba\\x94\\xe7\\x94\\xa8/\\xe5\\xa5\\x96\\xe5\\x8a\\xb1\\xe8\\xae\\xa1\\xe7\\xae\\x97StakingReward.sol\":3583:3604  balanceOf[msg.sender] */\n      0x00\n        /* \"solidity\\xe9\\xab\\x98\\xe7\\xba\\xa7\\xe5\\xba\\x94\\xe7\\x94\\xa8/\\xe5\\xa5\\x96\\xe5\\x8a\\xb1\\xe8\\xae\\xa1\\xe7\\xae\\x97StakingReward.sol\":3593:3603  msg.sender */\n      caller\n        /* \"solidity\\xe9\\xab\\x98\\xe7\\xba\\xa7\\xe5\\xba\\x94\\xe7\\x94\\xa8/\\xe5\\xa5\\x96\\xe5\\x8a\\xb1\\xe8\\xae\\xa1\\xe7\\xae\\x97StakingReward.sol\":3583:3604  balanceOf[msg.sender] */\n      0xffffffffffffffffffffffffffffffffffffffff\n      and\n      0xffffffffffffffffffffffffffffffffffffffff\n      and\n      dup2\n      mstore\n      0x20\n      add\n      swap1\n      dup2\n      mstore\n      0x20\n      add\n      0x00\n      keccak256\n      0x00\n        /* \"solidity\\xe9\\xab\\x98\\xe7\\xba\\xa7\\xe5\\xba\\x94\\xe7\\x94\\xa8/\\xe5\\xa5\\x96\\xe5\\x8a\\xb1\\xe8\\xae\\xa1\\xe7\\xae\\x97StakingReward.sol\":3583:3614  balanceOf[msg.sender] += amount */\n      dup3\n      dup3\n      sload\n      tag_132\n      swap2\n      swap1\n      tag_121\n      jump\t// in\n    tag_132:\n      swap3\n      pop\n      pop\n      dup2\n      swap1\n      sstore\n      pop\n        /* \"solidity\\xe9\\xab\\x98\\xe7\\xba\\xa7\\xe5\\xba\\x94\\xe7\\x94\\xa8/\\xe5\\xa5\\x96\\xe5\\x8a\\xb1\\xe8\\xae\\xa1\\xe7\\xae\\x97StakingReward.sol\":3640:3646  amount */\n      dup2\n        /* \"solidity\\xe9\\xab\\x98\\xe7\\xba\\xa7\\xe5\\xba\\x94\\xe7\\x94\\xa8/\\xe5\\xa5\\x96\\xe5\\x8a\\xb1\\xe8\\xae\\xa1\\xe7\\xae\\x97StakingReward.sol\":3625:3636  totalSupply */\n      0x06\n      0x00\n        /* \"solidity\\xe9\\xab\\x98\\xe7\\xba\\xa7\\xe5\\xba\\x94\\xe7\\x94\\xa8/\\xe5\\xa5\\x96\\xe5\\x8a\\xb1\\xe8\\xae\\xa1\\xe7\\xae\\x97StakingReward.sol\":3625:3646  totalSupply += amount */\n      dup3\n      dup3\n      sload\n      tag_133\n      swap2\n      swap1\n      tag_121\n      jump\t// in\n    tag_133:\n      swap3\n      pop\n      pop\n      dup2\n      swap1\n      sstore\n      pop\n        /* \"solidity\\xe9\\xab\\x98\\xe7\\xba\\xa7\\xe5\\xba\\x94\\xe7\\x94\\xa8/\\xe5\\xa5\\x96\\xe5\\x8a\\xb1\\xe8\\xae\\xa1\\xe7\\xae\\x97StakingReward.sol\":3657:3667  stakeToken */\n      immutable(\"0x845e9c18ca148a712f01bf14c91c3e2fe352eabe86c44817e3f33b63f585a343\")\n        /* \"solidity\\xe9\\xab\\x98\\xe7\\xba\\xa7\\xe5\\xba\\x94\\xe7\\x94\\xa8/\\xe5\\xa5\\x96\\xe5\\x8a\\xb1\\xe8\\xae\\xa1\\xe7\\xae\\x97StakingReward.sol\":3657:3680  stakeToken.transferFrom */\n      0xffffffffffffffffffffffffffffffffffffffff\n      and\n      0x23b872dd\n        /* \"solidity\\xe9\\xab\\x98\\xe7\\xba\\xa7\\xe5\\xba\\x94\\xe7\\x94\\xa8/\\xe5\\xa5\\x96\\xe5\\x8a\\xb1\\xe8\\xae\\xa1\\xe7\\xae\\x97StakingReward.sol\":3681:3691  msg.sender */\n      caller\n        /* \"solidity\\xe9\\xab\\x98\\xe7\\xba\\xa7\\xe5\\xba\\x94\\xe7\\x94\\xa8/\\xe5\\xa5\\x96\\xe5\\x8a\\xb1\\xe8\\xae\\xa1\\xe7\\xae\\x97StakingReward.sol\":3701:3705  this */\n      address\n        /* \"solidity\\xe9\\xab\\x98\\xe7\\xba\\xa7\\xe5\\xba\\x94\\xe7\\x94\\xa8/\\xe5\\xa5\\x96\\xe5\\x8a\\xb1\\xe8\\xae\\xa1\\xe7\\xae\\x97StakingReward.sol\":3708:3714  amount */\n      dup6\n        /* \"solidity\\xe9\\xab\\x98\\xe7\\xba\\xa7\\xe5\\xba\\x94\\xe7\\x94\\xa8/\\xe5\\xa5\\x96\\xe5\\x8a\\xb1\\xe8\\xae\\xa1\\xe7\\xae\\x97StakingReward.sol\":3657:3715  stakeToken.transferFrom(msg.sender, address(this), amount) */\n      mload(0x40)\n      dup5\n      0xffffffff\n      and\n      0xe0\n      shl\n      dup2\n      mstore\n      0x04\n      add\n      tag_134\n      swap4\n      swap3\n      swap2\n      swap1\n      tag_135\n      jump\t// in\n    tag_134:\n      0x20\n      mload(0x40)\n      dup1\n      dup4\n      sub\n      dup2\n      0x00\n      dup8\n      gas\n      call\n      iszero\n      dup1\n      iszero\n      tag_137\n      jumpi\n      returndatacopy(0x00, 0x00, returndatasize)\n      revert(0x00, returndatasize)\n    tag_137:\n      pop\n      pop\n      pop\n      pop\n      mload(0x40)\n      returndatasize\n      not(0x1f)\n      0x1f\n      dup3\n      add\n      and\n      dup3\n      add\n      dup1\n      0x40\n      mstore\n      pop\n      dup2\n      add\n      swap1\n      tag_138\n      swap2\n      swap1\n      tag_95\n      jump\t// in\n    tag_138:\n      pop\n        /* \"solidity\\xe9\\xab\\x98\\xe7\\xba\\xa7\\xe5\\xba\\x94\\xe7\\x94\\xa8/\\xe5\\xa5\\x96\\xe5\\x8a\\xb1\\xe8\\xae\\xa1\\xe7\\xae\\x97StakingReward.sol\":3460:3723  function stake(uint amount) external updateStakeToReward(msg.sender){... */\n      pop\n      pop\n      jump\t// out\n        /* \"solidity\\xe9\\xab\\x98\\xe7\\xba\\xa7\\xe5\\xba\\x94\\xe7\\x94\\xa8/\\xe5\\xa5\\x96\\xe5\\x8a\\xb1\\xe8\\xae\\xa1\\xe7\\xae\\x97StakingReward.sol\":2164:2405  function calCurrentGlobalStakeToReward() public view returns(uint) {... */\n    tag_68:\n        /* \"solidity\\xe9\\xab\\x98\\xe7\\xba\\xa7\\xe5\\xba\\x94\\xe7\\x94\\xa8/\\xe5\\xa5\\x96\\xe5\\x8a\\xb1\\xe8\\xae\\xa1\\xe7\\xae\\x97StakingReward.sol\":2225:2229  uint */\n      0x00\n        /* \"solidity\\xe9\\xab\\x98\\xe7\\xba\\xa7\\xe5\\xba\\x94\\xe7\\x94\\xa8/\\xe5\\xa5\\x96\\xe5\\x8a\\xb1\\xe8\\xae\\xa1\\xe7\\xae\\x97StakingReward.sol\":2261:2262  0 */\n      0x00\n        /* \"solidity\\xe9\\xab\\x98\\xe7\\xba\\xa7\\xe5\\xba\\x94\\xe7\\x94\\xa8/\\xe5\\xa5\\x96\\xe5\\x8a\\xb1\\xe8\\xae\\xa1\\xe7\\xae\\x97StakingReward.sol\":2246:2257  totalSupply */\n      sload(0x06)\n        /* \"solidity\\xe9\\xab\\x98\\xe7\\xba\\xa7\\xe5\\xba\\x94\\xe7\\x94\\xa8/\\xe5\\xa5\\x96\\xe5\\x8a\\xb1\\xe8\\xae\\xa1\\xe7\\xae\\x97StakingReward.sol\":2246:2262  totalSupply == 0 */\n      sub\n        /* \"solidity\\xe9\\xab\\x98\\xe7\\xba\\xa7\\xe5\\xba\\x94\\xe7\\x94\\xa8/\\xe5\\xa5\\x96\\xe5\\x8a\\xb1\\xe8\\xae\\xa1\\xe7\\xae\\x97StakingReward.sol\":2242:2289  if (totalSupply == 0) return globalStakeToRewar */\n      tag_140\n      jumpi\n        /* \"solidity\\xe9\\xab\\x98\\xe7\\xba\\xa7\\xe5\\xba\\x94\\xe7\\x94\\xa8/\\xe5\\xa5\\x96\\xe5\\x8a\\xb1\\xe8\\xae\\xa1\\xe7\\xae\\x97StakingReward.sol\":2271:2289  globalStakeToRewar */\n      sload(0x07)\n        /* \"solidity\\xe9\\xab\\x98\\xe7\\xba\\xa7\\xe5\\xba\\x94\\xe7\\x94\\xa8/\\xe5\\xa5\\x96\\xe5\\x8a\\xb1\\xe8\\xae\\xa1\\xe7\\xae\\x97StakingReward.sol\":2264:2289  return globalStakeToRewar */\n      swap1\n      pop\n      jump(tag_139)\n        /* \"solidity\\xe9\\xab\\x98\\xe7\\xba\\xa7\\xe5\\xba\\x94\\xe7\\x94\\xa8/\\xe5\\xa5\\x96\\xe5\\x8a\\xb1\\xe8\\xae\\xa1\\xe7\\xae\\x97StakingReward.sol\":2242:2289  if (totalSupply == 0) return globalStakeToRewar */\n    tag_140:\n        /* \"solidity\\xe9\\xab\\x98\\xe7\\xba\\xa7\\xe5\\xba\\x94\\xe7\\x94\\xa8/\\xe5\\xa5\\x96\\xe5\\x8a\\xb1\\xe8\\xae\\xa1\\xe7\\xae\\x97StakingReward.sol\":2387:2398  totalSupply */\n      sload(0x06)\n        /* \"solidity\\xe9\\xab\\x98\\xe7\\xba\\xa7\\xe5\\xba\\x94\\xe7\\x94\\xa8/\\xe5\\xa5\\x96\\xe5\\x8a\\xb1\\xe8\\xae\\xa1\\xe7\\xae\\x97StakingReward.sol\":2379:2383  1e18 */\n      0x0de0b6b3a7640000\n        /* \"solidity\\xe9\\xab\\x98\\xe7\\xba\\xa7\\xe5\\xba\\x94\\xe7\\x94\\xa8/\\xe5\\xa5\\x96\\xe5\\x8a\\xb1\\xe8\\xae\\xa1\\xe7\\xae\\x97StakingReward.sol\":2365:2375  updateTime */\n      sload(0x03)\n        /* \"solidity\\xe9\\xab\\x98\\xe7\\xba\\xa7\\xe5\\xba\\x94\\xe7\\x94\\xa8/\\xe5\\xa5\\x96\\xe5\\x8a\\xb1\\xe8\\xae\\xa1\\xe7\\xae\\x97StakingReward.sol\":2343:2362  getLastEffectTime() */\n      tag_141\n        /* \"solidity\\xe9\\xab\\x98\\xe7\\xba\\xa7\\xe5\\xba\\x94\\xe7\\x94\\xa8/\\xe5\\xa5\\x96\\xe5\\x8a\\xb1\\xe8\\xae\\xa1\\xe7\\xae\\x97StakingReward.sol\":2343:2360  getLastEffectTime */\n      tag_80\n        /* \"solidity\\xe9\\xab\\x98\\xe7\\xba\\xa7\\xe5\\xba\\x94\\xe7\\x94\\xa8/\\xe5\\xa5\\x96\\xe5\\x8a\\xb1\\xe8\\xae\\xa1\\xe7\\xae\\x97StakingReward.sol\":2343:2362  getLastEffectTime() */\n      jump\t// in\n    tag_141:\n        /* \"solidity\\xe9\\xab\\x98\\xe7\\xba\\xa7\\xe5\\xba\\x94\\xe7\\x94\\xa8/\\xe5\\xa5\\x96\\xe5\\x8a\\xb1\\xe8\\xae\\xa1\\xe7\\xae\\x97StakingReward.sol\":2343:2375  getLastEffectTime() - updateTime */\n      tag_142\n      swap2\n      swap1\n      tag_88\n      jump\t// in\n    tag_142:\n        /* \"solidity\\xe9\\xab\\x98\\xe7\\xba\\xa7\\xe5\\xba\\x94\\xe7\\x94\\xa8/\\xe5\\xa5\\x96\\xe5\\x8a\\xb1\\xe8\\xae\\xa1\\xe7\\xae\\x97StakingReward.sol\":2329:2339  rewardRate */\n      sload(0x04)\n        /* \"solidity\\xe9\\xab\\x98\\xe7\\xba\\xa7\\xe5\\xba\\x94\\xe7\\x94\\xa8/\\xe5\\xa5\\x96\\xe5\\x8a\\xb1\\xe8\\xae\\xa1\\xe7\\xae\\x97StakingReward.sol\":2329:2376  rewardRate * (getLastEffectTime() - updateTime) */\n      tag_143\n      swap2\n      swap1\n      tag_119\n      jump\t// in\n    tag_143:\n        /* \"solidity\\xe9\\xab\\x98\\xe7\\xba\\xa7\\xe5\\xba\\x94\\xe7\\x94\\xa8/\\xe5\\xa5\\x96\\xe5\\x8a\\xb1\\xe8\\xae\\xa1\\xe7\\xae\\x97StakingReward.sol\":2329:2383  rewardRate * (getLastEffectTime() - updateTime) * 1e18 */\n      tag_144\n      swap2\n      swap1\n      tag_119\n      jump\t// in\n    tag_144:\n        /* \"solidity\\xe9\\xab\\x98\\xe7\\xba\\xa7\\xe5\\xba\\x94\\xe7\\x94\\xa8/\\xe5\\xa5\\x96\\xe5\\x8a\\xb1\\xe8\\xae\\xa1\\xe7\\xae\\x97StakingReward.sol\":2328:2398  (rewardRate * (getLastEffectTime() - updateTime) * 1e18) / totalSupply */\n      tag_145\n      swap2\n      swap1\n      tag_115\n      jump\t// in\n    tag_145:\n        /* \"solidity\\xe9\\xab\\x98\\xe7\\xba\\xa7\\xe5\\xba\\x94\\xe7\\x94\\xa8/\\xe5\\xa5\\x96\\xe5\\x8a\\xb1\\xe8\\xae\\xa1\\xe7\\xae\\x97StakingReward.sol\":2307:2325  globalStakeToRewar */\n      sload(0x07)\n        /* \"solidity\\xe9\\xab\\x98\\xe7\\xba\\xa7\\xe5\\xba\\x94\\xe7\\x94\\xa8/\\xe5\\xa5\\x96\\xe5\\x8a\\xb1\\xe8\\xae\\xa1\\xe7\\xae\\x97StakingReward.sol\":2307:2398  globalStakeToRewar + (rewardRate * (getLastEffectTime() - updateTime) * 1e18) / totalSupply */\n      tag_146\n      swap2\n      swap1\n      tag_121\n      jump\t// in\n    tag_146:\n        /* \"solidity\\xe9\\xab\\x98\\xe7\\xba\\xa7\\xe5\\xba\\x94\\xe7\\x94\\xa8/\\xe5\\xa5\\x96\\xe5\\x8a\\xb1\\xe8\\xae\\xa1\\xe7\\xae\\x97StakingReward.sol\":2300:2398  return globalStakeToRewar + (rewardRate * (getLastEffectTime() - updateTime) * 1e18) / totalSupply */\n      swap1\n      pop\n        /* \"solidity\\xe9\\xab\\x98\\xe7\\xba\\xa7\\xe5\\xba\\x94\\xe7\\x94\\xa8/\\xe5\\xa5\\x96\\xe5\\x8a\\xb1\\xe8\\xae\\xa1\\xe7\\xae\\x97StakingReward.sol\":2164:2405  function calCurrentGlobalStakeToReward() public view returns(uint) {... */\n    tag_139:\n      swap1\n      jump\t// out\n        /* \"solidity\\xe9\\xab\\x98\\xe7\\xba\\xa7\\xe5\\xba\\x94\\xe7\\x94\\xa8/\\xe5\\xa5\\x96\\xe5\\x8a\\xb1\\xe8\\xae\\xa1\\xe7\\xae\\x97StakingReward.sol\":324:346  uint public updateTime */\n    tag_71:\n      sload(0x03)\n      dup2\n      jump\t// out\n        /* \"solidity\\xe9\\xab\\x98\\xe7\\xba\\xa7\\xe5\\xba\\x94\\xe7\\x94\\xa8/\\xe5\\xa5\\x96\\xe5\\x8a\\xb1\\xe8\\xae\\xa1\\xe7\\xae\\x97StakingReward.sol\":1791:1988  function earn(address account) public view returns(uint) {... */\n    tag_75:\n        /* \"solidity\\xe9\\xab\\x98\\xe7\\xba\\xa7\\xe5\\xba\\x94\\xe7\\x94\\xa8/\\xe5\\xa5\\x96\\xe5\\x8a\\xb1\\xe8\\xae\\xa1\\xe7\\xae\\x97StakingReward.sol\":1842:1846  uint */\n      0x00\n        /* \"solidity\\xe9\\xab\\x98\\xe7\\xba\\xa7\\xe5\\xba\\x94\\xe7\\x94\\xa8/\\xe5\\xa5\\x96\\xe5\\x8a\\xb1\\xe8\\xae\\xa1\\xe7\\xae\\x97StakingReward.sol\":1953:1971  userStakeToRewarOf */\n      0x08\n        /* \"solidity\\xe9\\xab\\x98\\xe7\\xba\\xa7\\xe5\\xba\\x94\\xe7\\x94\\xa8/\\xe5\\xa5\\x96\\xe5\\x8a\\xb1\\xe8\\xae\\xa1\\xe7\\xae\\x97StakingReward.sol\":1953:1980  userStakeToRewarOf[account] */\n      0x00\n        /* \"solidity\\xe9\\xab\\x98\\xe7\\xba\\xa7\\xe5\\xba\\x94\\xe7\\x94\\xa8/\\xe5\\xa5\\x96\\xe5\\x8a\\xb1\\xe8\\xae\\xa1\\xe7\\xae\\x97StakingReward.sol\":1972:1979  account */\n      dup4\n        /* \"solidity\\xe9\\xab\\x98\\xe7\\xba\\xa7\\xe5\\xba\\x94\\xe7\\x94\\xa8/\\xe5\\xa5\\x96\\xe5\\x8a\\xb1\\xe8\\xae\\xa1\\xe7\\xae\\x97StakingReward.sol\":1953:1980  userStakeToRewarOf[account] */\n      0xffffffffffffffffffffffffffffffffffffffff\n      and\n      0xffffffffffffffffffffffffffffffffffffffff\n      and\n      dup2\n      mstore\n      0x20\n      add\n      swap1\n      dup2\n      mstore\n      0x20\n      add\n      0x00\n      keccak256\n      sload\n        /* \"solidity\\xe9\\xab\\x98\\xe7\\xba\\xa7\\xe5\\xba\\x94\\xe7\\x94\\xa8/\\xe5\\xa5\\x96\\xe5\\x8a\\xb1\\xe8\\xae\\xa1\\xe7\\xae\\x97StakingReward.sol\":1919:1950  calCurrentGlobalStakeToReward() */\n      tag_148\n        /* \"solidity\\xe9\\xab\\x98\\xe7\\xba\\xa7\\xe5\\xba\\x94\\xe7\\x94\\xa8/\\xe5\\xa5\\x96\\xe5\\x8a\\xb1\\xe8\\xae\\xa1\\xe7\\xae\\x97StakingReward.sol\":1919:1948  calCurrentGlobalStakeToReward */\n      tag_68\n        /* \"solidity\\xe9\\xab\\x98\\xe7\\xba\\xa7\\xe5\\xba\\x94\\xe7\\x94\\xa8/\\xe5\\xa5\\x96\\xe5\\x8a\\xb1\\xe8\\xae\\xa1\\xe7\\xae\\x97StakingReward.sol\":1919:1950  calCurrentGlobalStakeToReward() */\n      jump\t// in\n    tag_148:\n        /* \"solidity\\xe9\\xab\\x98\\xe7\\xba\\xa7\\xe5\\xba\\x94\\xe7\\x94\\xa8/\\xe5\\xa5\\x96\\xe5\\x8a\\xb1\\xe8\\xae\\xa1\\xe7\\xae\\x97StakingReward.sol\":1919:1980  calCurrentGlobalStakeToReward() - userStakeToRewarOf[account] */\n      tag_149\n      swap2\n      swap1\n      tag_88\n      jump\t// in\n    tag_149:\n        /* \"solidity\\xe9\\xab\\x98\\xe7\\xba\\xa7\\xe5\\xba\\x94\\xe7\\x94\\xa8/\\xe5\\xa5\\x96\\xe5\\x8a\\xb1\\xe8\\xae\\xa1\\xe7\\xae\\x97StakingReward.sol\":1897:1906  balanceOf */\n      0x05\n        /* \"solidity\\xe9\\xab\\x98\\xe7\\xba\\xa7\\xe5\\xba\\x94\\xe7\\x94\\xa8/\\xe5\\xa5\\x96\\xe5\\x8a\\xb1\\xe8\\xae\\xa1\\xe7\\xae\\x97StakingReward.sol\":1897:1915  balanceOf[account] */\n      0x00\n        /* \"solidity\\xe9\\xab\\x98\\xe7\\xba\\xa7\\xe5\\xba\\x94\\xe7\\x94\\xa8/\\xe5\\xa5\\x96\\xe5\\x8a\\xb1\\xe8\\xae\\xa1\\xe7\\xae\\x97StakingReward.sol\":1907:1914  account */\n      dup5\n        /* \"solidity\\xe9\\xab\\x98\\xe7\\xba\\xa7\\xe5\\xba\\x94\\xe7\\x94\\xa8/\\xe5\\xa5\\x96\\xe5\\x8a\\xb1\\xe8\\xae\\xa1\\xe7\\xae\\x97StakingReward.sol\":1897:1915  balanceOf[account] */\n      0xffffffffffffffffffffffffffffffffffffffff\n      and\n      0xffffffffffffffffffffffffffffffffffffffff\n      and\n      dup2\n      mstore\n      0x20\n      add\n      swap1\n      dup2\n      mstore\n      0x20\n      add\n      0x00\n      keccak256\n      sload\n        /* \"solidity\\xe9\\xab\\x98\\xe7\\xba\\xa7\\xe5\\xba\\x94\\xe7\\x94\\xa8/\\xe5\\xa5\\x96\\xe5\\x8a\\xb1\\xe8\\xae\\xa1\\xe7\\xae\\x97StakingReward.sol\":1897:1981  balanceOf[account] * (calCurrentGlobalStakeToReward() - userStakeToRewarOf[account]) */\n      tag_150\n      swap2\n      swap1\n      tag_119\n      jump\t// in\n    tag_150:\n        /* \"solidity\\xe9\\xab\\x98\\xe7\\xba\\xa7\\xe5\\xba\\x94\\xe7\\x94\\xa8/\\xe5\\xa5\\x96\\xe5\\x8a\\xb1\\xe8\\xae\\xa1\\xe7\\xae\\x97StakingReward.sol\":1866:1875  rewardsOf */\n      0x09\n        /* \"solidity\\xe9\\xab\\x98\\xe7\\xba\\xa7\\xe5\\xba\\x94\\xe7\\x94\\xa8/\\xe5\\xa5\\x96\\xe5\\x8a\\xb1\\xe8\\xae\\xa1\\xe7\\xae\\x97StakingReward.sol\":1866:1884  rewardsOf[account] */\n      0x00\n        /* \"solidity\\xe9\\xab\\x98\\xe7\\xba\\xa7\\xe5\\xba\\x94\\xe7\\x94\\xa8/\\xe5\\xa5\\x96\\xe5\\x8a\\xb1\\xe8\\xae\\xa1\\xe7\\xae\\x97StakingReward.sol\":1876:1883  account */\n      dup5\n        /* \"solidity\\xe9\\xab\\x98\\xe7\\xba\\xa7\\xe5\\xba\\x94\\xe7\\x94\\xa8/\\xe5\\xa5\\x96\\xe5\\x8a\\xb1\\xe8\\xae\\xa1\\xe7\\xae\\x97StakingReward.sol\":1866:1884  rewardsOf[account] */\n      0xffffffffffffffffffffffffffffffffffffffff\n      and\n      0xffffffffffffffffffffffffffffffffffffffff\n      and\n      dup2\n      mstore\n      0x20\n      add\n      swap1\n      dup2\n      mstore\n      0x20\n      add\n      0x00\n      keccak256\n      sload\n        /* \"solidity\\xe9\\xab\\x98\\xe7\\xba\\xa7\\xe5\\xba\\x94\\xe7\\x94\\xa8/\\xe5\\xa5\\x96\\xe5\\x8a\\xb1\\xe8\\xae\\xa1\\xe7\\xae\\x97StakingReward.sol\":1866:1981  rewardsOf[account] + ... */\n      tag_151\n      swap2\n      swap1\n      tag_121\n      jump\t// in\n    tag_151:\n        /* \"solidity\\xe9\\xab\\x98\\xe7\\xba\\xa7\\xe5\\xba\\x94\\xe7\\x94\\xa8/\\xe5\\xa5\\x96\\xe5\\x8a\\xb1\\xe8\\xae\\xa1\\xe7\\xae\\x97StakingReward.sol\":1859:1981  return rewardsOf[account] + ... */\n      swap1\n      pop\n        /* \"solidity\\xe9\\xab\\x98\\xe7\\xba\\xa7\\xe5\\xba\\x94\\xe7\\x94\\xa8/\\xe5\\xa5\\x96\\xe5\\x8a\\xb1\\xe8\\xae\\xa1\\xe7\\xae\\x97StakingReward.sol\":1791:1988  function earn(address account) public view returns(uint) {... */\n      swap2\n      swap1\n      pop\n      jump\t// out\n        /* \"solidity\\xe9\\xab\\x98\\xe7\\xba\\xa7\\xe5\\xba\\x94\\xe7\\x94\\xa8/\\xe5\\xa5\\x96\\xe5\\x8a\\xb1\\xe8\\xae\\xa1\\xe7\\xae\\x97StakingReward.sol\":2456:2595  function getLastEffectTime() internal view returns(uint) {... */\n    tag_80:\n        /* \"solidity\\xe9\\xab\\x98\\xe7\\xba\\xa7\\xe5\\xba\\x94\\xe7\\x94\\xa8/\\xe5\\xa5\\x96\\xe5\\x8a\\xb1\\xe8\\xae\\xa1\\xe7\\xae\\x97StakingReward.sol\":2507:2511  uint */\n      0x00\n        /* \"solidity\\xe9\\xab\\x98\\xe7\\xba\\xa7\\xe5\\xba\\x94\\xe7\\x94\\xa8/\\xe5\\xa5\\x96\\xe5\\x8a\\xb1\\xe8\\xae\\xa1\\xe7\\xae\\x97StakingReward.sol\":2549:2558  finshTime */\n      sload(0x02)\n        /* \"solidity\\xe9\\xab\\x98\\xe7\\xba\\xa7\\xe5\\xba\\x94\\xe7\\x94\\xa8/\\xe5\\xa5\\x96\\xe5\\x8a\\xb1\\xe8\\xae\\xa1\\xe7\\xae\\x97StakingReward.sol\":2531:2546  block.timestamp */\n      timestamp\n        /* \"solidity\\xe9\\xab\\x98\\xe7\\xba\\xa7\\xe5\\xba\\x94\\xe7\\x94\\xa8/\\xe5\\xa5\\x96\\xe5\\x8a\\xb1\\xe8\\xae\\xa1\\xe7\\xae\\x97StakingReward.sol\":2531:2558  block.timestamp < finshTime */\n      lt\n        /* \"solidity\\xe9\\xab\\x98\\xe7\\xba\\xa7\\xe5\\xba\\x94\\xe7\\x94\\xa8/\\xe5\\xa5\\x96\\xe5\\x8a\\xb1\\xe8\\xae\\xa1\\xe7\\xae\\x97StakingReward.sol\":2531:2588  block.timestamp < finshTime ? block.timestamp : finshTime */\n      tag_153\n      jumpi\n        /* \"solidity\\xe9\\xab\\x98\\xe7\\xba\\xa7\\xe5\\xba\\x94\\xe7\\x94\\xa8/\\xe5\\xa5\\x96\\xe5\\x8a\\xb1\\xe8\\xae\\xa1\\xe7\\xae\\x97StakingReward.sol\":2579:2588  finshTime */\n      sload(0x02)\n        /* \"solidity\\xe9\\xab\\x98\\xe7\\xba\\xa7\\xe5\\xba\\x94\\xe7\\x94\\xa8/\\xe5\\xa5\\x96\\xe5\\x8a\\xb1\\xe8\\xae\\xa1\\xe7\\xae\\x97StakingReward.sol\":2531:2588  block.timestamp < finshTime ? block.timestamp : finshTime */\n      jump(tag_154)\n    tag_153:\n        /* \"solidity\\xe9\\xab\\x98\\xe7\\xba\\xa7\\xe5\\xba\\x94\\xe7\\x94\\xa8/\\xe5\\xa5\\x96\\xe5\\x8a\\xb1\\xe8\\xae\\xa1\\xe7\\xae\\x97StakingReward.sol\":2561:2576  block.timestamp */\n      timestamp\n        /* \"solidity\\xe9\\xab\\x98\\xe7\\xba\\xa7\\xe5\\xba\\x94\\xe7\\x94\\xa8/\\xe5\\xa5\\x96\\xe5\\x8a\\xb1\\xe8\\xae\\xa1\\xe7\\xae\\x97StakingReward.sol\":2531:2588  block.timestamp < finshTime ? block.timestamp : finshTime */\n    tag_154:\n        /* \"solidity\\xe9\\xab\\x98\\xe7\\xba\\xa7\\xe5\\xba\\x94\\xe7\\x94\\xa8/\\xe5\\xa5\\x96\\xe5\\x8a\\xb1\\xe8\\xae\\xa1\\xe7\\xae\\x97StakingReward.sol\":2524:2588  return block.timestamp < finshTime ? block.timestamp : finshTime */\n      swap1\n      pop\n        /* \"solidity\\xe9\\xab\\x98\\xe7\\xba\\xa7\\xe5\\xba\\x94\\xe7\\x94\\xa8/\\xe5\\xa5\\x96\\xe5\\x8a\\xb1\\xe8\\xae\\xa1\\xe7\\xae\\x97StakingReward.sol\":2456:2595  function getLastEffectTime() internal view returns(uint) {... */\n      swap1\n      jump\t// out\n        /* \"#utility.yul\":7:84   */\n    tag_155:\n        /* \"#utility.yul\":44:51   */\n      0x00\n        /* \"#utility.yul\":73:78   */\n      dup2\n        /* \"#utility.yul\":62:78   */\n      swap1\n      pop\n        /* \"#utility.yul\":7:84   */\n      swap2\n      swap1\n      pop\n      jump\t// out\n        /* \"#utility.yul\":90:208   */\n    tag_156:\n        /* \"#utility.yul\":177:201   */\n      tag_180\n        /* \"#utility.yul\":195:200   */\n      dup2\n        /* \"#utility.yul\":177:201   */\n      tag_155\n      jump\t// in\n    tag_180:\n        /* \"#utility.yul\":172:175   */\n      dup3\n        /* \"#utility.yul\":165:202   */\n      mstore\n        /* \"#utility.yul\":90:208   */\n      pop\n      pop\n      jump\t// out\n        /* \"#utility.yul\":214:436   */\n    tag_25:\n        /* \"#utility.yul\":307:311   */\n      0x00\n        /* \"#utility.yul\":345:347   */\n      0x20\n        /* \"#utility.yul\":334:343   */\n      dup3\n        /* \"#utility.yul\":330:348   */\n      add\n        /* \"#utility.yul\":322:348   */\n      swap1\n      pop\n        /* \"#utility.yul\":358:429   */\n      tag_182\n        /* \"#utility.yul\":426:427   */\n      0x00\n        /* \"#utility.yul\":415:424   */\n      dup4\n        /* \"#utility.yul\":411:428   */\n      add\n        /* \"#utility.yul\":402:408   */\n      dup5\n        /* \"#utility.yul\":358:429   */\n      tag_156\n      jump\t// in\n    tag_182:\n        /* \"#utility.yul\":214:436   */\n      swap3\n      swap2\n      pop\n      pop\n      jump\t// out\n        /* \"#utility.yul\":523:640   */\n    tag_158:\n        /* \"#utility.yul\":632:633   */\n      0x00\n        /* \"#utility.yul\":629:630   */\n      0x00\n        /* \"#utility.yul\":622:634   */\n      revert\n        /* \"#utility.yul\":769:891   */\n    tag_160:\n        /* \"#utility.yul\":842:866   */\n      tag_187\n        /* \"#utility.yul\":860:865   */\n      dup2\n        /* \"#utility.yul\":842:866   */\n      tag_155\n      jump\t// in\n    tag_187:\n        /* \"#utility.yul\":835:840   */\n      dup2\n        /* \"#utility.yul\":832:867   */\n      eq\n        /* \"#utility.yul\":822:885   */\n      tag_188\n      jumpi\n        /* \"#utility.yul\":881:882   */\n      0x00\n        /* \"#utility.yul\":878:879   */\n      0x00\n        /* \"#utility.yul\":871:883   */\n      revert\n        /* \"#utility.yul\":822:885   */\n    tag_188:\n        /* \"#utility.yul\":769:891   */\n      pop\n      jump\t// out\n        /* \"#utility.yul\":897:1036   */\n    tag_161:\n        /* \"#utility.yul\":943:948   */\n      0x00\n        /* \"#utility.yul\":981:987   */\n      dup2\n        /* \"#utility.yul\":968:988   */\n      calldataload\n        /* \"#utility.yul\":959:988   */\n      swap1\n      pop\n        /* \"#utility.yul\":997:1030   */\n      tag_190\n        /* \"#utility.yul\":1024:1029   */\n      dup2\n        /* \"#utility.yul\":997:1030   */\n      tag_160\n      jump\t// in\n    tag_190:\n        /* \"#utility.yul\":897:1036   */\n      swap3\n      swap2\n      pop\n      pop\n      jump\t// out\n        /* \"#utility.yul\":1042:1371   */\n    tag_31:\n        /* \"#utility.yul\":1101:1107   */\n      0x00\n        /* \"#utility.yul\":1150:1152   */\n      0x20\n        /* \"#utility.yul\":1138:1147   */\n      dup3\n        /* \"#utility.yul\":1129:1136   */\n      dup5\n        /* \"#utility.yul\":1125:1148   */\n      sub\n        /* \"#utility.yul\":1121:1153   */\n      slt\n        /* \"#utility.yul\":1118:1237   */\n      iszero\n      tag_192\n      jumpi\n        /* \"#utility.yul\":1156:1235   */\n      tag_193\n      tag_158\n      jump\t// in\n    tag_193:\n        /* \"#utility.yul\":1118:1237   */\n    tag_192:\n        /* \"#utility.yul\":1276:1277   */\n      0x00\n        /* \"#utility.yul\":1301:1354   */\n      tag_194\n        /* \"#utility.yul\":1346:1353   */\n      dup5\n        /* \"#utility.yul\":1337:1343   */\n      dup3\n        /* \"#utility.yul\":1326:1335   */\n      dup6\n        /* \"#utility.yul\":1322:1344   */\n      add\n        /* \"#utility.yul\":1301:1354   */\n      tag_161\n      jump\t// in\n    tag_194:\n        /* \"#utility.yul\":1291:1354   */\n      swap2\n      pop\n        /* \"#utility.yul\":1247:1364   */\n      pop\n        /* \"#utility.yul\":1042:1371   */\n      swap3\n      swap2\n      pop\n      pop\n      jump\t// out\n        /* \"#utility.yul\":1377:1503   */\n    tag_162:\n        /* \"#utility.yul\":1414:1421   */\n      0x00\n        /* \"#utility.yul\":1454:1496   */\n      0xffffffffffffffffffffffffffffffffffffffff\n        /* \"#utility.yul\":1447:1452   */\n      dup3\n        /* \"#utility.yul\":1443:1497   */\n      and\n        /* \"#utility.yul\":1432:1497   */\n      swap1\n      pop\n        /* \"#utility.yul\":1377:1503   */\n      swap2\n      swap1\n      pop\n      jump\t// out\n        /* \"#utility.yul\":1509:1605   */\n    tag_163:\n        /* \"#utility.yul\":1546:1553   */\n      0x00\n        /* \"#utility.yul\":1575:1599   */\n      tag_197\n        /* \"#utility.yul\":1593:1598   */\n      dup3\n        /* \"#utility.yul\":1575:1599   */\n      tag_162\n      jump\t// in\n    tag_197:\n        /* \"#utility.yul\":1564:1599   */\n      swap1\n      pop\n        /* \"#utility.yul\":1509:1605   */\n      swap2\n      swap1\n      pop\n      jump\t// out\n        /* \"#utility.yul\":1611:1733   */\n    tag_164:\n        /* \"#utility.yul\":1684:1708   */\n      tag_199\n        /* \"#utility.yul\":1702:1707   */\n      dup2\n        /* \"#utility.yul\":1684:1708   */\n      tag_163\n      jump\t// in\n    tag_199:\n        /* \"#utility.yul\":1677:1682   */\n      dup2\n        /* \"#utility.yul\":1674:1709   */\n      eq\n        /* \"#utility.yul\":1664:1727   */\n      tag_200\n      jumpi\n        /* \"#utility.yul\":1723:1724   */\n      0x00\n        /* \"#utility.yul\":1720:1721   */\n      0x00\n        /* \"#utility.yul\":1713:1725   */\n      revert\n        /* \"#utility.yul\":1664:1727   */\n    tag_200:\n        /* \"#utility.yul\":1611:1733   */\n      pop\n      jump\t// out\n        /* \"#utility.yul\":1739:1878   */\n    tag_165:\n        /* \"#utility.yul\":1785:1790   */\n      0x00\n        /* \"#utility.yul\":1823:1829   */\n      dup2\n        /* \"#utility.yul\":1810:1830   */\n      calldataload\n        /* \"#utility.yul\":1801:1830   */\n      swap1\n      pop\n        /* \"#utility.yul\":1839:1872   */\n      tag_202\n        /* \"#utility.yul\":1866:1871   */\n      dup2\n        /* \"#utility.yul\":1839:1872   */\n      tag_164\n      jump\t// in\n    tag_202:\n        /* \"#utility.yul\":1739:1878   */\n      swap3\n      swap2\n      pop\n      pop\n      jump\t// out\n        /* \"#utility.yul\":1884:2213   */\n    tag_35:\n        /* \"#utility.yul\":1943:1949   */\n      0x00\n        /* \"#utility.yul\":1992:1994   */\n      0x20\n        /* \"#utility.yul\":1980:1989   */\n      dup3\n        /* \"#utility.yul\":1971:1978   */\n      dup5\n        /* \"#utility.yul\":1967:1990   */\n      sub\n        /* \"#utility.yul\":1963:1995   */\n      slt\n        /* \"#utility.yul\":1960:2079   */\n      iszero\n      tag_204\n      jumpi\n        /* \"#utility.yul\":1998:2077   */\n      tag_205\n      tag_158\n      jump\t// in\n    tag_205:\n        /* \"#utility.yul\":1960:2079   */\n    tag_204:\n        /* \"#utility.yul\":2118:2119   */\n      0x00\n        /* \"#utility.yul\":2143:2196   */\n      tag_206\n        /* \"#utility.yul\":2188:2195   */\n      dup5\n        /* \"#utility.yul\":2179:2185   */\n      dup3\n        /* \"#utility.yul\":2168:2177   */\n      dup6\n        /* \"#utility.yul\":2164:2186   */\n      add\n        /* \"#utility.yul\":2143:2196   */\n      tag_165\n      jump\t// in\n    tag_206:\n        /* \"#utility.yul\":2133:2196   */\n      swap2\n      pop\n        /* \"#utility.yul\":2089:2206   */\n      pop\n        /* \"#utility.yul\":1884:2213   */\n      swap3\n      swap2\n      pop\n      pop\n      jump\t// out\n        /* \"#utility.yul\":2219:2337   */\n    tag_166:\n        /* \"#utility.yul\":2306:2330   */\n      tag_208\n        /* \"#utility.yul\":2324:2329   */\n      dup2\n        /* \"#utility.yul\":2306:2330   */\n      tag_163\n      jump\t// in\n    tag_208:\n        /* \"#utility.yul\":2301:2304   */\n      dup3\n        /* \"#utility.yul\":2294:2331   */\n      mstore\n        /* \"#utility.yul\":2219:2337   */\n      pop\n      pop\n      jump\t// out\n        /* \"#utility.yul\":2343:2565   */\n    tag_63:\n        /* \"#utility.yul\":2436:2440   */\n      0x00\n        /* \"#utility.yul\":2474:2476   */\n      0x20\n        /* \"#utility.yul\":2463:2472   */\n      dup3\n        /* \"#utility.yul\":2459:2477   */\n      add\n        /* \"#utility.yul\":2451:2477   */\n      swap1\n      pop\n        /* \"#utility.yul\":2487:2558   */\n      tag_210\n        /* \"#utility.yul\":2555:2556   */\n      0x00\n        /* \"#utility.yul\":2544:2553   */\n      dup4\n        /* \"#utility.yul\":2540:2557   */\n      add\n        /* \"#utility.yul\":2531:2537   */\n      dup5\n        /* \"#utility.yul\":2487:2558   */\n      tag_166\n      jump\t// in\n    tag_210:\n        /* \"#utility.yul\":2343:2565   */\n      swap3\n      swap2\n      pop\n      pop\n      jump\t// out\n        /* \"#utility.yul\":2571:2740   */\n    tag_167:\n        /* \"#utility.yul\":2655:2666   */\n      0x00\n        /* \"#utility.yul\":2689:2695   */\n      dup3\n        /* \"#utility.yul\":2684:2687   */\n      dup3\n        /* \"#utility.yul\":2677:2696   */\n      mstore\n        /* \"#utility.yul\":2729:2733   */\n      0x20\n        /* \"#utility.yul\":2724:2727   */\n      dup3\n        /* \"#utility.yul\":2720:2734   */\n      add\n        /* \"#utility.yul\":2705:2734   */\n      swap1\n      pop\n        /* \"#utility.yul\":2571:2740   */\n      swap3\n      swap2\n      pop\n      pop\n      jump\t// out\n        /* \"#utility.yul\":2746:2906   */\n    tag_168:\n        /* \"#utility.yul\":2886:2898   */\n      0x616d6f756e74203c203000000000000000000000000000000000000000000000\n        /* \"#utility.yul\":2882:2883   */\n      0x00\n        /* \"#utility.yul\":2874:2880   */\n      dup3\n        /* \"#utility.yul\":2870:2884   */\n      add\n        /* \"#utility.yul\":2863:2899   */\n      mstore\n        /* \"#utility.yul\":2746:2906   */\n      pop\n      jump\t// out\n        /* \"#utility.yul\":2912:3278   */\n    tag_169:\n        /* \"#utility.yul\":3054:3057   */\n      0x00\n        /* \"#utility.yul\":3075:3142   */\n      tag_214\n        /* \"#utility.yul\":3139:3141   */\n      0x0a\n        /* \"#utility.yul\":3134:3137   */\n      dup4\n        /* \"#utility.yul\":3075:3142   */\n      tag_167\n      jump\t// in\n    tag_214:\n        /* \"#utility.yul\":3068:3142   */\n      swap2\n      pop\n        /* \"#utility.yul\":3151:3244   */\n      tag_215\n        /* \"#utility.yul\":3240:3243   */\n      dup3\n        /* \"#utility.yul\":3151:3244   */\n      tag_168\n      jump\t// in\n    tag_215:\n        /* \"#utility.yul\":3269:3271   */\n      0x20\n        /* \"#utility.yul\":3264:3267   */\n      dup3\n        /* \"#utility.yul\":3260:3272   */\n      add\n        /* \"#utility.yul\":3253:3272   */\n      swap1\n      pop\n        /* \"#utility.yul\":2912:3278   */\n      swap2\n      swap1\n      pop\n      jump\t// out\n        /* \"#utility.yul\":3284:3703   */\n    tag_86:\n        /* \"#utility.yul\":3450:3454   */\n      0x00\n        /* \"#utility.yul\":3488:3490   */\n      0x20\n        /* \"#utility.yul\":3477:3486   */\n      dup3\n        /* \"#utility.yul\":3473:3491   */\n      add\n        /* \"#utility.yul\":3465:3491   */\n      swap1\n      pop\n        /* \"#utility.yul\":3537:3546   */\n      dup2\n        /* \"#utility.yul\":3531:3535   */\n      dup2\n        /* \"#utility.yul\":3527:3547   */\n      sub\n        /* \"#utility.yul\":3523:3524   */\n      0x00\n        /* \"#utility.yul\":3512:3521   */\n      dup4\n        /* \"#utility.yul\":3508:3525   */\n      add\n        /* \"#utility.yul\":3501:3548   */\n      mstore\n        /* \"#utility.yul\":3565:3696   */\n      tag_217\n        /* \"#utility.yul\":3691:3695   */\n      dup2\n        /* \"#utility.yul\":3565:3696   */\n      tag_169\n      jump\t// in\n    tag_217:\n        /* \"#utility.yul\":3557:3696   */\n      swap1\n      pop\n        /* \"#utility.yul\":3284:3703   */\n      swap2\n      swap1\n      pop\n      jump\t// out\n        /* \"#utility.yul\":3709:3889   */\n    tag_170:\n        /* \"#utility.yul\":3757:3834   */\n      0x4e487b7100000000000000000000000000000000000000000000000000000000\n        /* \"#utility.yul\":3754:3755   */\n      0x00\n        /* \"#utility.yul\":3747:3835   */\n      mstore\n        /* \"#utility.yul\":3854:3858   */\n      0x11\n        /* \"#utility.yul\":3851:3852   */\n      0x04\n        /* \"#utility.yul\":3844:3859   */\n      mstore\n        /* \"#utility.yul\":3878:3882   */\n      0x24\n        /* \"#utility.yul\":3875:3876   */\n      0x00\n        /* \"#utility.yul\":3868:3883   */\n      revert\n        /* \"#utility.yul\":3895:4089   */\n    tag_88:\n        /* \"#utility.yul\":3935:3939   */\n      0x00\n        /* \"#utility.yul\":3955:3975   */\n      tag_220\n        /* \"#utility.yul\":3973:3974   */\n      dup3\n        /* \"#utility.yul\":3955:3975   */\n      tag_155\n      jump\t// in\n    tag_220:\n        /* \"#utility.yul\":3950:3975   */\n      swap2\n      pop\n        /* \"#utility.yul\":3989:4009   */\n      tag_221\n        /* \"#utility.yul\":4007:4008   */\n      dup4\n        /* \"#utility.yul\":3989:4009   */\n      tag_155\n      jump\t// in\n    tag_221:\n        /* \"#utility.yul\":3984:4009   */\n      swap3\n      pop\n        /* \"#utility.yul\":4033:4034   */\n      dup3\n        /* \"#utility.yul\":4030:4031   */\n      dup3\n        /* \"#utility.yul\":4026:4035   */\n      sub\n        /* \"#utility.yul\":4018:4035   */\n      swap1\n      pop\n        /* \"#utility.yul\":4057:4058   */\n      dup2\n        /* \"#utility.yul\":4051:4055   */\n      dup2\n        /* \"#utility.yul\":4048:4059   */\n      gt\n        /* \"#utility.yul\":4045:4082   */\n      iszero\n      tag_222\n      jumpi\n        /* \"#utility.yul\":4062:4080   */\n      tag_223\n      tag_170\n      jump\t// in\n    tag_223:\n        /* \"#utility.yul\":4045:4082   */\n    tag_222:\n        /* \"#utility.yul\":3895:4089   */\n      swap3\n      swap2\n      pop\n      pop\n      jump\t// out\n        /* \"#utility.yul\":4095:4427   */\n    tag_91:\n        /* \"#utility.yul\":4216:4220   */\n      0x00\n        /* \"#utility.yul\":4254:4256   */\n      0x40\n        /* \"#utility.yul\":4243:4252   */\n      dup3\n        /* \"#utility.yul\":4239:4257   */\n      add\n        /* \"#utility.yul\":4231:4257   */\n      swap1\n      pop\n        /* \"#utility.yul\":4267:4338   */\n      tag_225\n        /* \"#utility.yul\":4335:4336   */\n      0x00\n        /* \"#utility.yul\":4324:4333   */\n      dup4\n        /* \"#utility.yul\":4320:4337   */\n      add\n        /* \"#utility.yul\":4311:4317   */\n      dup6\n        /* \"#utility.yul\":4267:4338   */\n      tag_166\n      jump\t// in\n    tag_225:\n        /* \"#utility.yul\":4348:4420   */\n      tag_226\n        /* \"#utility.yul\":4416:4418   */\n      0x20\n        /* \"#utility.yul\":4405:4414   */\n      dup4\n        /* \"#utility.yul\":4401:4419   */\n      add\n        /* \"#utility.yul\":4392:4398   */\n      dup5\n        /* \"#utility.yul\":4348:4420   */\n      tag_156\n      jump\t// in\n    tag_226:\n        /* \"#utility.yul\":4095:4427   */\n      swap4\n      swap3\n      pop\n      pop\n      pop\n      jump\t// out\n        /* \"#utility.yul\":4433:4523   */\n    tag_171:\n        /* \"#utility.yul\":4467:4474   */\n      0x00\n        /* \"#utility.yul\":4510:4515   */\n      dup2\n        /* \"#utility.yul\":4503:4516   */\n      iszero\n        /* \"#utility.yul\":4496:4517   */\n      iszero\n        /* \"#utility.yul\":4485:4517   */\n      swap1\n      pop\n        /* \"#utility.yul\":4433:4523   */\n      swap2\n      swap1\n      pop\n      jump\t// out\n        /* \"#utility.yul\":4529:4645   */\n    tag_172:\n        /* \"#utility.yul\":4599:4620   */\n      tag_229\n        /* \"#utility.yul\":4614:4619   */\n      dup2\n        /* \"#utility.yul\":4599:4620   */\n      tag_171\n      jump\t// in\n    tag_229:\n        /* \"#utility.yul\":4592:4597   */\n      dup2\n        /* \"#utility.yul\":4589:4621   */\n      eq\n        /* \"#utility.yul\":4579:4639   */\n      tag_230\n      jumpi\n        /* \"#utility.yul\":4635:4636   */\n      0x00\n        /* \"#utility.yul\":4632:4633   */\n      0x00\n        /* \"#utility.yul\":4625:4637   */\n      revert\n        /* \"#utility.yul\":4579:4639   */\n    tag_230:\n        /* \"#utility.yul\":4529:4645   */\n      pop\n      jump\t// out\n        /* \"#utility.yul\":4651:4788   */\n    tag_173:\n        /* \"#utility.yul\":4705:4710   */\n      0x00\n        /* \"#utility.yul\":4736:4742   */\n      dup2\n        /* \"#utility.yul\":4730:4743   */\n      mload\n        /* \"#utility.yul\":4721:4743   */\n      swap1\n      pop\n        /* \"#utility.yul\":4752:4782   */\n      tag_232\n        /* \"#utility.yul\":4776:4781   */\n      dup2\n        /* \"#utility.yul\":4752:4782   */\n      tag_172\n      jump\t// in\n    tag_232:\n        /* \"#utility.yul\":4651:4788   */\n      swap3\n      swap2\n      pop\n      pop\n      jump\t// out\n        /* \"#utility.yul\":4794:5139   */\n    tag_95:\n        /* \"#utility.yul\":4861:4867   */\n      0x00\n        /* \"#utility.yul\":4910:4912   */\n      0x20\n        /* \"#utility.yul\":4898:4907   */\n      dup3\n        /* \"#utility.yul\":4889:4896   */\n      dup5\n        /* \"#utility.yul\":4885:4908   */\n      sub\n        /* \"#utility.yul\":4881:4913   */\n      slt\n        /* \"#utility.yul\":4878:4997   */\n      iszero\n      tag_234\n      jumpi\n        /* \"#utility.yul\":4916:4995   */\n      tag_235\n      tag_158\n      jump\t// in\n    tag_235:\n        /* \"#utility.yul\":4878:4997   */\n    tag_234:\n        /* \"#utility.yul\":5036:5037   */\n      0x00\n        /* \"#utility.yul\":5061:5122   */\n      tag_236\n        /* \"#utility.yul\":5114:5121   */\n      dup5\n        /* \"#utility.yul\":5105:5111   */\n      dup3\n        /* \"#utility.yul\":5094:5103   */\n      dup6\n        /* \"#utility.yul\":5090:5112   */\n      add\n        /* \"#utility.yul\":5061:5122   */\n      tag_173\n      jump\t// in\n    tag_236:\n        /* \"#utility.yul\":5051:5122   */\n      swap2\n      pop\n        /* \"#utility.yul\":5007:5132   */\n      pop\n        /* \"#utility.yul\":4794:5139   */\n      swap3\n      swap2\n      pop\n      pop\n      jump\t// out\n        /* \"#utility.yul\":5145:5304   */\n    tag_174:\n        /* \"#utility.yul\":5285:5296   */\n      0x6e6f74206f776e65720000000000000000000000000000000000000000000000\n        /* \"#utility.yul\":5281:5282   */\n      0x00\n        /* \"#utility.yul\":5273:5279   */\n      dup3\n        /* \"#utility.yul\":5269:5283   */\n      add\n        /* \"#utility.yul\":5262:5297   */\n      mstore\n        /* \"#utility.yul\":5145:5304   */\n      pop\n      jump\t// out\n        /* \"#utility.yul\":5310:5675   */\n    tag_175:\n        /* \"#utility.yul\":5452:5455   */\n      0x00\n        /* \"#utility.yul\":5473:5539   */\n      tag_239\n        /* \"#utility.yul\":5537:5538   */\n      0x09\n        /* \"#utility.yul\":5532:5535   */\n      dup4\n        /* \"#utility.yul\":5473:5539   */\n      tag_167\n      jump\t// in\n    tag_239:\n        /* \"#utility.yul\":5466:5539   */\n      swap2\n      pop\n        /* \"#utility.yul\":5548:5641   */\n      tag_240\n        /* \"#utility.yul\":5637:5640   */\n      dup3\n        /* \"#utility.yul\":5548:5641   */\n      tag_174\n      jump\t// in\n    tag_240:\n        /* \"#utility.yul\":5666:5668   */\n      0x20\n        /* \"#utility.yul\":5661:5664   */\n      dup3\n        /* \"#utility.yul\":5657:5669   */\n      add\n        /* \"#utility.yul\":5650:5669   */\n      swap1\n      pop\n        /* \"#utility.yul\":5310:5675   */\n      swap2\n      swap1\n      pop\n      jump\t// out\n        /* \"#utility.yul\":5681:6100   */\n    tag_111:\n        /* \"#utility.yul\":5847:5851   */\n      0x00\n        /* \"#utility.yul\":5885:5887   */\n      0x20\n        /* \"#utility.yul\":5874:5883   */\n      dup3\n        /* \"#utility.yul\":5870:5888   */\n      add\n        /* \"#utility.yul\":5862:5888   */\n      swap1\n      pop\n        /* \"#utility.yul\":5934:5943   */\n      dup2\n        /* \"#utility.yul\":5928:5932   */\n      dup2\n        /* \"#utility.yul\":5924:5944   */\n      sub\n        /* \"#utility.yul\":5920:5921   */\n      0x00\n        /* \"#utility.yul\":5909:5918   */\n      dup4\n        /* \"#utility.yul\":5905:5922   */\n      add\n        /* \"#utility.yul\":5898:5945   */\n      mstore\n        /* \"#utility.yul\":5962:6093   */\n      tag_242\n        /* \"#utility.yul\":6088:6092   */\n      dup2\n        /* \"#utility.yul\":5962:6093   */\n      tag_175\n      jump\t// in\n    tag_242:\n        /* \"#utility.yul\":5954:6093   */\n      swap1\n      pop\n        /* \"#utility.yul\":5681:6100   */\n      swap2\n      swap1\n      pop\n      jump\t// out\n        /* \"#utility.yul\":6106:6286   */\n    tag_176:\n        /* \"#utility.yul\":6154:6231   */\n      0x4e487b7100000000000000000000000000000000000000000000000000000000\n        /* \"#utility.yul\":6151:6152   */\n      0x00\n        /* \"#utility.yul\":6144:6232   */\n      mstore\n        /* \"#utility.yul\":6251:6255   */\n      0x12\n        /* \"#utility.yul\":6248:6249   */\n      0x04\n        /* \"#utility.yul\":6241:6256   */\n      mstore\n        /* \"#utility.yul\":6275:6279   */\n      0x24\n        /* \"#utility.yul\":6272:6273   */\n      0x00\n        /* \"#utility.yul\":6265:6280   */\n      revert\n        /* \"#utility.yul\":6292:6477   */\n    tag_115:\n        /* \"#utility.yul\":6332:6333   */\n      0x00\n        /* \"#utility.yul\":6349:6369   */\n      tag_245\n        /* \"#utility.yul\":6367:6368   */\n      dup3\n        /* \"#utility.yul\":6349:6369   */\n      tag_155\n      jump\t// in\n    tag_245:\n        /* \"#utility.yul\":6344:6369   */\n      swap2\n      pop\n        /* \"#utility.yul\":6383:6403   */\n      tag_246\n        /* \"#utility.yul\":6401:6402   */\n      dup4\n        /* \"#utility.yul\":6383:6403   */\n      tag_155\n      jump\t// in\n    tag_246:\n        /* \"#utility.yul\":6378:6403   */\n      swap3\n      pop\n        /* \"#utility.yul\":6422:6423   */\n      dup3\n        /* \"#utility.yul\":6412:6447   */\n      tag_247\n      jumpi\n        /* \"#utility.yul\":6427:6445   */\n      tag_248\n      tag_176\n      jump\t// in\n    tag_248:\n        /* \"#utility.yul\":6412:6447   */\n    tag_247:\n        /* \"#utility.yul\":6469:6470   */\n      dup3\n        /* \"#utility.yul\":6466:6467   */\n      dup3\n        /* \"#utility.yul\":6462:6471   */\n      div\n        /* \"#utility.yul\":6457:6471   */\n      swap1\n      pop\n        /* \"#utility.yul\":6292:6477   */\n      swap3\n      swap2\n      pop\n      pop\n      jump\t// out\n        /* \"#utility.yul\":6483:6893   */\n    tag_119:\n        /* \"#utility.yul\":6523:6530   */\n      0x00\n        /* \"#utility.yul\":6546:6566   */\n      tag_250\n        /* \"#utility.yul\":6564:6565   */\n      dup3\n        /* \"#utility.yul\":6546:6566   */\n      tag_155\n      jump\t// in\n    tag_250:\n        /* \"#utility.yul\":6541:6566   */\n      swap2\n      pop\n        /* \"#utility.yul\":6580:6600   */\n      tag_251\n        /* \"#utility.yul\":6598:6599   */\n      dup4\n        /* \"#utility.yul\":6580:6600   */\n      tag_155\n      jump\t// in\n    tag_251:\n        /* \"#utility.yul\":6575:6600   */\n      swap3\n      pop\n        /* \"#utility.yul\":6635:6636   */\n      dup3\n        /* \"#utility.yul\":6632:6633   */\n      dup3\n        /* \"#utility.yul\":6628:6637   */\n      mul\n        /* \"#utility.yul\":6657:6687   */\n      tag_252\n        /* \"#utility.yul\":6675:6686   */\n      dup2\n        /* \"#utility.yul\":6657:6687   */\n      tag_155\n      jump\t// in\n    tag_252:\n        /* \"#utility.yul\":6646:6687   */\n      swap2\n      pop\n        /* \"#utility.yul\":6836:6837   */\n      dup3\n        /* \"#utility.yul\":6827:6834   */\n      dup3\n        /* \"#utility.yul\":6823:6838   */\n      div\n        /* \"#utility.yul\":6820:6821   */\n      dup5\n        /* \"#utility.yul\":6817:6839   */\n      eq\n        /* \"#utility.yul\":6797:6798   */\n      dup4\n        /* \"#utility.yul\":6790:6799   */\n      iszero\n        /* \"#utility.yul\":6770:6853   */\n      or\n        /* \"#utility.yul\":6747:6886   */\n      tag_253\n      jumpi\n        /* \"#utility.yul\":6866:6884   */\n      tag_254\n      tag_170\n      jump\t// in\n    tag_254:\n        /* \"#utility.yul\":6747:6886   */\n    tag_253:\n        /* \"#utility.yul\":6531:6893   */\n      pop\n        /* \"#utility.yul\":6483:6893   */\n      swap3\n      swap2\n      pop\n      pop\n      jump\t// out\n        /* \"#utility.yul\":6899:7090   */\n    tag_121:\n        /* \"#utility.yul\":6939:6942   */\n      0x00\n        /* \"#utility.yul\":6958:6978   */\n      tag_256\n        /* \"#utility.yul\":6976:6977   */\n      dup3\n        /* \"#utility.yul\":6958:6978   */\n      tag_155\n      jump\t// in\n    tag_256:\n        /* \"#utility.yul\":6953:6978   */\n      swap2\n      pop\n        /* \"#utility.yul\":6992:7012   */\n      tag_257\n        /* \"#utility.yul\":7010:7011   */\n      dup4\n        /* \"#utility.yul\":6992:7012   */\n      tag_155\n      jump\t// in\n    tag_257:\n        /* \"#utility.yul\":6987:7012   */\n      swap3\n      pop\n        /* \"#utility.yul\":7035:7036   */\n      dup3\n        /* \"#utility.yul\":7032:7033   */\n      dup3\n        /* \"#utility.yul\":7028:7037   */\n      add\n        /* \"#utility.yul\":7021:7037   */\n      swap1\n      pop\n        /* \"#utility.yul\":7056:7059   */\n      dup1\n        /* \"#utility.yul\":7053:7054   */\n      dup3\n        /* \"#utility.yul\":7050:7060   */\n      gt\n        /* \"#utility.yul\":7047:7083   */\n      iszero\n      tag_258\n      jumpi\n        /* \"#utility.yul\":7063:7081   */\n      tag_259\n      tag_170\n      jump\t// in\n    tag_259:\n        /* \"#utility.yul\":7047:7083   */\n    tag_258:\n        /* \"#utility.yul\":6899:7090   */\n      swap3\n      swap2\n      pop\n      pop\n      jump\t// out\n        /* \"#utility.yul\":7096:7538   */\n    tag_135:\n        /* \"#utility.yul\":7245:7249   */\n      0x00\n        /* \"#utility.yul\":7283:7285   */\n      0x60\n        /* \"#utility.yul\":7272:7281   */\n      dup3\n        /* \"#utility.yul\":7268:7286   */\n      add\n        /* \"#utility.yul\":7260:7286   */\n      swap1\n      pop\n        /* \"#utility.yul\":7296:7367   */\n      tag_261\n        /* \"#utility.yul\":7364:7365   */\n      0x00\n        /* \"#utility.yul\":7353:7362   */\n      dup4\n        /* \"#utility.yul\":7349:7366   */\n      add\n        /* \"#utility.yul\":7340:7346   */\n      dup7\n        /* \"#utility.yul\":7296:7367   */\n      tag_166\n      jump\t// in\n    tag_261:\n        /* \"#utility.yul\":7377:7449   */\n      tag_262\n        /* \"#utility.yul\":7445:7447   */\n      0x20\n        /* \"#utility.yul\":7434:7443   */\n      dup4\n        /* \"#utility.yul\":7430:7448   */\n      add\n        /* \"#utility.yul\":7421:7427   */\n      dup6\n        /* \"#utility.yul\":7377:7449   */\n      tag_166\n      jump\t// in\n    tag_262:\n        /* \"#utility.yul\":7459:7531   */\n      tag_263\n        /* \"#utility.yul\":7527:7529   */\n      0x40\n        /* \"#utility.yul\":7516:7525   */\n      dup4\n        /* \"#utility.yul\":7512:7530   */\n      add\n        /* \"#utility.yul\":7503:7509   */\n      dup5\n        /* \"#utility.yul\":7459:7531   */\n      tag_156\n      jump\t// in\n    tag_263:\n        /* \"#utility.yul\":7096:7538   */\n      swap5\n      swap4\n      pop\n      pop\n      pop\n      pop\n      jump\t// out\n\n    auxdata: 0xa2646970667358221220a558ad74e531f62f537c91db23b2a8bb876e6a0c88508e4fcd4f8ca2d210a70c64736f6c63430008220033\n}\n",
				"bytecode": {
					"linkReferences": {},
					"object": "60c060405234801561000f575f5ffd5b5060405161126b38038061126b83398181016040528101906100319190610178565b8273ffffffffffffffffffffffffffffffffffffffff1660808173ffffffffffffffffffffffffffffffffffffffff16815250508173ffffffffffffffffffffffffffffffffffffffff1660a08173ffffffffffffffffffffffffffffffffffffffff168152505080600181905550335f5f6101000a81548173ffffffffffffffffffffffffffffffffffffffff021916908373ffffffffffffffffffffffffffffffffffffffff1602179055505050506101c8565b5f5ffd5b5f73ffffffffffffffffffffffffffffffffffffffff82169050919050565b5f610114826100eb565b9050919050565b6101248161010a565b811461012e575f5ffd5b50565b5f8151905061013f8161011b565b92915050565b5f819050919050565b61015781610145565b8114610161575f5ffd5b50565b5f815190506101728161014e565b92915050565b5f5f5f6060848603121561018f5761018e6100e7565b5b5f61019c86828701610131565b93505060206101ad86828701610131565b92505060406101be86828701610164565b9150509250925092565b60805160a05161107b6101f05f395f61069401525f81816104aa0152610a31015261107b5ff3fe608060405234801561000f575f5ffd5b50600436106100fe575f3560e01c806370a0823111610095578063a694fc3a11610064578063a694fc3a14610288578063a8e6b81a146102a4578063dc555090146102c2578063fdb5fefc146102e0576100fe565b806370a08231146101ec5780637b0a47ee1461021c5780637ff737b41461023a5780638da5cb5b1461026a576100fe565b80634e71d92d116100d15780634e71d92d1461018a5780635484a2ad146101945780636718c952146101b05780636747f288146101ce576100fe565b80630fb5a6b41461010257806318160ddd146101205780632e17de781461013e578063479ba7ae1461015a575b5f5ffd5b61010a610310565b6040516101179190610c59565b60405180910390f35b610128610316565b6040516101359190610c59565b60405180910390f35b61015860048036038101906101539190610ca0565b61031c565b005b610174600480360381019061016f9190610d25565b610548565b6040516101819190610c59565b60405180910390f35b61019261055d565b005b6101ae60048036038101906101a99190610ca0565b610733565b005b6101b8610843565b6040516101c59190610c59565b60405180910390f35b6101d6610849565b6040516101e39190610c59565b60405180910390f35b61020660048036038101906102019190610d25565b61084f565b6040516102139190610c59565b60405180910390f35b610224610864565b6040516102319190610c59565b60405180910390f35b610254600480360381019061024f9190610d25565b61086a565b6040516102619190610c59565b60405180910390f35b61027261087f565b60405161027f9190610d5f565b60405180910390f35b6102a2600480360381019061029d9190610ca0565b6108a3565b005b6102ac610ad1565b6040516102b99190610c59565b60405180910390f35b6102ca610b3a565b6040516102d79190610c59565b60405180910390f35b6102fa60048036038101906102f59190610d25565b610b40565b6040516103079190610c59565b60405180910390f35b60015481565b60065481565b33610325610ad1565b600781905550610333610c28565b6003819055505f73ffffffffffffffffffffffffffffffffffffffff168173ffffffffffffffffffffffffffffffffffffffff16146103fb5761037581610b40565b60095f8373ffffffffffffffffffffffffffffffffffffffff1673ffffffffffffffffffffffffffffffffffffffff1681526020019081526020015f208190555060075460085f8373ffffffffffffffffffffffffffffffffffffffff1673ffffffffffffffffffffffffffffffffffffffff1681526020019081526020015f20819055505b5f821161043d576040517f08c379a000000000000000000000000000000000000000000000000000000000815260040161043490610dd2565b60405180910390fd5b8160055f3373ffffffffffffffffffffffffffffffffffffffff1673ffffffffffffffffffffffffffffffffffffffff1681526020019081526020015f205f8282546104899190610e1d565b925050819055508160065f8282546104a19190610e1d565b925050819055507f000000000000000000000000000000000000000000000000000000000000000073ffffffffffffffffffffffffffffffffffffffff1663a9059cbb33846040518363ffffffff1660e01b8152600401610503929190610e50565b6020604051808303815f875af115801561051f573d5f5f3e3d5ffd5b505050506040513d601f19601f820116820180604052508101906105439190610eac565b505050565b6009602052805f5260405f205f915090505481565b33610566610ad1565b600781905550610574610c28565b6003819055505f73ffffffffffffffffffffffffffffffffffffffff168173ffffffffffffffffffffffffffffffffffffffff161461063c576105b681610b40565b60095f8373ffffffffffffffffffffffffffffffffffffffff1673ffffffffffffffffffffffffffffffffffffffff1681526020019081526020015f208190555060075460085f8373ffffffffffffffffffffffffffffffffffffffff1673ffffffffffffffffffffffffffffffffffffffff1681526020019081526020015f20819055505b5f61064633610b40565b90505f81111561072f575f60095f3373ffffffffffffffffffffffffffffffffffffffff1673ffffffffffffffffffffffffffffffffffffffff1681526020019081526020015f20819055507f000000000000000000000000000000000000000000000000000000000000000073ffffffffffffffffffffffffffffffffffffffff1663a9059cbb33836040518363ffffffff1660e01b81526004016106ed929190610e50565b6020604051808303815f875af1158015610709573d5f5f3e3d5ffd5b505050506040513d601f19601f8201168201806040525081019061072d9190610eac565b505b5050565b335f5f9054906101000a900473ffffffffffffffffffffffffffffffffffffffff1673ffffffffffffffffffffffffffffffffffffffff168173ffffffffffffffffffffffffffffffffffffffff16146107c2576040517f08c379a00000000000000000000000000000000000000000000000000000000081526004016107b990610f21565b60405180910390fd5b6002544211156107e557600154826107da9190610f6c565b600481905550610824565b5f426002546107f49190610e1d565b6004546108019190610f9c565b905060015481846108129190610fdd565b61081c9190610f6c565b600481905550505b42600381905550600154426108399190610fdd565b6002819055505050565b60075481565b60025481565b6005602052805f5260405f205f915090505481565b60045481565b6008602052805f5260405f205f915090505481565b5f5f9054906101000a900473ffffffffffffffffffffffffffffffffffffffff1681565b336108ac610ad1565b6007819055506108ba610c28565b6003819055505f73ffffffffffffffffffffffffffffffffffffffff168173ffffffffffffffffffffffffffffffffffffffff1614610982576108fc81610b40565b60095f8373ffffffffffffffffffffffffffffffffffffffff1673ffffffffffffffffffffffffffffffffffffffff1681526020019081526020015f208190555060075460085f8373ffffffffffffffffffffffffffffffffffffffff1673ffffffffffffffffffffffffffffffffffffffff1681526020019081526020015f20819055505b5f82116109c4576040517f08c379a00000000000000000000000000000000000000000000000000000000081526004016109bb90610dd2565b60405180910390fd5b8160055f3373ffffffffffffffffffffffffffffffffffffffff1673ffffffffffffffffffffffffffffffffffffffff1681526020019081526020015f205f828254610a109190610fdd565b925050819055508160065f828254610a289190610fdd565b925050819055507f000000000000000000000000000000000000000000000000000000000000000073ffffffffffffffffffffffffffffffffffffffff166323b872dd3330856040518463ffffffff1660e01b8152600401610a8c93929190611010565b6020604051808303815f875af1158015610aa8573d5f5f3e3d5ffd5b505050506040513d601f19601f82011682018060405250810190610acc9190610eac565b505050565b5f5f60065403610ae5576007549050610b37565b600654670de0b6b3a7640000600354610afc610c28565b610b069190610e1d565b600454610b139190610f9c565b610b1d9190610f9c565b610b279190610f6c565b600754610b349190610fdd565b90505b90565b60035481565b5f60085f8373ffffffffffffffffffffffffffffffffffffffff1673ffffffffffffffffffffffffffffffffffffffff1681526020019081526020015f2054610b87610ad1565b610b919190610e1d565b60055f8473ffffffffffffffffffffffffffffffffffffffff1673ffffffffffffffffffffffffffffffffffffffff1681526020019081526020015f2054610bd99190610f9c565b60095f8473ffffffffffffffffffffffffffffffffffffffff1673ffffffffffffffffffffffffffffffffffffffff1681526020019081526020015f2054610c219190610fdd565b9050919050565b5f6002544210610c3a57600254610c3c565b425b905090565b5f819050919050565b610c5381610c41565b82525050565b5f602082019050610c6c5f830184610c4a565b92915050565b5f5ffd5b610c7f81610c41565b8114610c89575f5ffd5b50565b5f81359050610c9a81610c76565b92915050565b5f60208284031215610cb557610cb4610c72565b5b5f610cc284828501610c8c565b91505092915050565b5f73ffffffffffffffffffffffffffffffffffffffff82169050919050565b5f610cf482610ccb565b9050919050565b610d0481610cea565b8114610d0e575f5ffd5b50565b5f81359050610d1f81610cfb565b92915050565b5f60208284031215610d3a57610d39610c72565b5b5f610d4784828501610d11565b91505092915050565b610d5981610cea565b82525050565b5f602082019050610d725f830184610d50565b92915050565b5f82825260208201905092915050565b7f616d6f756e74203c2030000000000000000000000000000000000000000000005f82015250565b5f610dbc600a83610d78565b9150610dc782610d88565b602082019050919050565b5f6020820190508181035f830152610de981610db0565b9050919050565b7f4e487b71000000000000000000000000000000000000000000000000000000005f52601160045260245ffd5b5f610e2782610c41565b9150610e3283610c41565b9250828203905081811115610e4a57610e49610df0565b5b92915050565b5f604082019050610e635f830185610d50565b610e706020830184610c4a565b9392505050565b5f8115159050919050565b610e8b81610e77565b8114610e95575f5ffd5b50565b5f81519050610ea681610e82565b92915050565b5f60208284031215610ec157610ec0610c72565b5b5f610ece84828501610e98565b91505092915050565b7f6e6f74206f776e657200000000000000000000000000000000000000000000005f82015250565b5f610f0b600983610d78565b9150610f1682610ed7565b602082019050919050565b5f6020820190508181035f830152610f3881610eff565b9050919050565b7f4e487b71000000000000000000000000000000000000000000000000000000005f52601260045260245ffd5b5f610f7682610c41565b9150610f8183610c41565b925082610f9157610f90610f3f565b5b828204905092915050565b5f610fa682610c41565b9150610fb183610c41565b9250828202610fbf81610c41565b91508282048414831517610fd657610fd5610df0565b5b5092915050565b5f610fe782610c41565b9150610ff283610c41565b925082820190508082111561100a57611009610df0565b5b92915050565b5f6060820190506110235f830186610d50565b6110306020830185610d50565b61103d6040830184610c4a565b94935050505056fea2646970667358221220a558ad74e531f62f537c91db23b2a8bb876e6a0c88508e4fcd4f8ca2d210a70c64736f6c63430008220033",
					"opcodes": "PUSH1 0xC0 PUSH1 0x40 MSTORE CALLVALUE DUP1 ISZERO PUSH2 0xF JUMPI PUSH0 PUSH0 REVERT JUMPDEST POP PUSH1 0x40 MLOAD PUSH2 0x126B CODESIZE SUB DUP1 PUSH2 0x126B DUP4 CODECOPY DUP2 DUP2 ADD PUSH1 0x40 MSTORE DUP2 ADD SWAP1 PUSH2 0x31 SWAP2 SWAP1 PUSH2 0x178 JUMP JUMPDEST DUP3 PUSH20 0xFFFFFFFFFFFFFFFFFFFFFFFFFFFFFFFFFFFFFFFF AND PUSH1 0x80 DUP2 PUSH20 0xFFFFFFFFFFFFFFFFFFFFFFFFFFFFFFFFFFFFFFFF AND DUP2 MSTORE POP POP DUP2 PUSH20 0xFFFFFFFFFFFFFFFFFFFFFFFFFFFFFFFFFFFFFFFF AND PUSH1 0xA0 DUP2 PUSH20 0xFFFFFFFFFFFFFFFFFFFFFFFFFFFFFFFFFFFFFFFF AND DUP2 MSTORE POP POP DUP1 PUSH1 0x1 DUP2 SWAP1 SSTORE POP CALLER PUSH0 PUSH0 PUSH2 0x100 EXP DUP2 SLOAD DUP2 PUSH20 0xFFFFFFFFFFFFFFFFFFFFFFFFFFFFFFFFFFFFFFFF MUL NOT AND SWAP1 DUP4 PUSH20 0xFFFFFFFFFFFFFFFFFFFFFFFFFFFFFFFFFFFFFFFF AND MUL OR SWAP1 SSTORE POP POP POP POP PUSH2 0x1C8 JUMP JUMPDEST PUSH0 PUSH0 REVERT JUMPDEST PUSH0 PUSH20 0xFFFFFFFFFFFFFFFFFFFFFFFFFFFFFFFFFFFFFFFF DUP3 AND SWAP1 POP SWAP2 SWAP1 POP JUMP JUMPDEST PUSH0 PUSH2 0x114 DUP3 PUSH2 0xEB JUMP JUMPDEST SWAP1 POP SWAP2 SWAP1 POP JUMP JUMPDEST PUSH2 0x124 DUP2 PUSH2 0x10A JUMP JUMPDEST DUP2 EQ PUSH2 0x12E JUMPI PUSH0 PUSH0 REVERT JUMPDEST POP JUMP JUMPDEST PUSH0 DUP2 MLOAD SWAP1 POP PUSH2 0x13F DUP2 PUSH2 0x11B JUMP JUMPDEST SWAP3 SWAP2 POP POP JUMP JUMPDEST PUSH0 DUP2 SWAP1 POP SWAP2 SWAP1 POP JUMP JUMPDEST PUSH2 0x157 DUP2 PUSH2 0x145 JUMP JUMPDEST DUP2 EQ PUSH2 0x161 JUMPI PUSH0 PUSH0 REVERT JUMPDEST POP JUMP JUMPDEST PUSH0 DUP2 MLOAD SWAP1 POP PUSH2 0x172 DUP2 PUSH2 0x14E JUMP JUMPDEST SWAP3 SWAP2 POP POP JUMP JUMPDEST PUSH0 PUSH0 PUSH0 PUSH1 0x60 DUP5 DUP7 SUB SLT ISZERO PUSH2 0x18F JUMPI PUSH2 0x18E PUSH2 0xE7 JUMP JUMPDEST JUMPDEST PUSH0 PUSH2 0x19C DUP7 DUP3 DUP8 ADD PUSH2 0x131 JUMP JUMPDEST SWAP4 POP POP PUSH1 0x20 PUSH2 0x1AD DUP7 DUP3 DUP8 ADD PUSH2 0x131 JUMP JUMPDEST SWAP3 POP POP PUSH1 0x40 PUSH2 0x1BE DUP7 DUP3 DUP8 ADD PUSH2 0x164 JUMP JUMPDEST SWAP2 POP POP SWAP3 POP SWAP3 POP SWAP3 JUMP JUMPDEST PUSH1 0x80 MLOAD PUSH1 0xA0 MLOAD PUSH2 0x107B PUSH2 0x1F0 PUSH0 CODECOPY PUSH0 PUSH2 0x694 ADD MSTORE PUSH0 DUP2 DUP2 PUSH2 0x4AA ADD MSTORE PUSH2 0xA31 ADD MSTORE PUSH2 0x107B PUSH0 RETURN INVALID PUSH1 0x80 PUSH1 0x40 MSTORE CALLVALUE DUP1 ISZERO PUSH2 0xF JUMPI PUSH0 PUSH0 REVERT JUMPDEST POP PUSH1 0x4 CALLDATASIZE LT PUSH2 0xFE JUMPI PUSH0 CALLDATALOAD PUSH1 0xE0 SHR DUP1 PUSH4 0x70A08231 GT PUSH2 0x95 JUMPI DUP1 PUSH4 0xA694FC3A GT PUSH2 0x64 JUMPI DUP1 PUSH4 0xA694FC3A EQ PUSH2 0x288 JUMPI DUP1 PUSH4 0xA8E6B81A EQ PUSH2 0x2A4 JUMPI DUP1 PUSH4 0xDC555090 EQ PUSH2 0x2C2 JUMPI DUP1 PUSH4 0xFDB5FEFC EQ PUSH2 0x2E0 JUMPI PUSH2 0xFE JUMP JUMPDEST DUP1 PUSH4 0x70A08231 EQ PUSH2 0x1EC JUMPI DUP1 PUSH4 0x7B0A47EE EQ PUSH2 0x21C JUMPI DUP1 PUSH4 0x7FF737B4 EQ PUSH2 0x23A JUMPI DUP1 PUSH4 0x8DA5CB5B EQ PUSH2 0x26A JUMPI PUSH2 0xFE JUMP JUMPDEST DUP1 PUSH4 0x4E71D92D GT PUSH2 0xD1 JUMPI DUP1 PUSH4 0x4E71D92D EQ PUSH2 0x18A JUMPI DUP1 PUSH4 0x5484A2AD EQ PUSH2 0x194 JUMPI DUP1 PUSH4 0x6718C952 EQ PUSH2 0x1B0 JUMPI DUP1 PUSH4 0x6747F288 EQ PUSH2 0x1CE JUMPI PUSH2 0xFE JUMP JUMPDEST DUP1 PUSH4 0xFB5A6B4 EQ PUSH2 0x102 JUMPI DUP1 PUSH4 0x18160DDD EQ PUSH2 0x120 JUMPI DUP1 PUSH4 0x2E17DE78 EQ PUSH2 0x13E JUMPI DUP1 PUSH4 0x479BA7AE EQ PUSH2 0x15A JUMPI JUMPDEST PUSH0 PUSH0 REVERT JUMPDEST PUSH2 0x10A PUSH2 0x310 JUMP JUMPDEST PUSH1 0x40 MLOAD PUSH2 0x117 SWAP2 SWAP1 PUSH2 0xC59 JUMP JUMPDEST PUSH1 0x40 MLOAD DUP1 SWAP2 SUB SWAP1 RETURN JUMPDEST PUSH2 0x128 PUSH2 0x316 JUMP JUMPDEST PUSH1 0x40 MLOAD PUSH2 0x135 SWAP2 SWAP1 PUSH2 0xC59 JUMP JUMPDEST PUSH1 0x40 MLOAD DUP1 SWAP2 SUB SWAP1 RETURN JUMPDEST PUSH2 0x158 PUSH1 0x4 DUP1 CALLDATASIZE SUB DUP2 ADD SWAP1 PUSH2 0x153 SWAP2 SWAP1 PUSH2 0xCA0 JUMP JUMPDEST PUSH2 0x31C JUMP JUMPDEST STOP JUMPDEST PUSH2 0x174 PUSH1 0x4 DUP1 CALLDATASIZE SUB DUP2 ADD SWAP1 PUSH2 0x16F SWAP2 SWAP1 PUSH2 0xD25 JUMP JUMPDEST PUSH2 0x548 JUMP JUMPDEST PUSH1 0x40 MLOAD PUSH2 0x181 SWAP2 SWAP1 PUSH2 0xC59 JUMP JUMPDEST PUSH1 0x40 MLOAD DUP1 SWAP2 SUB SWAP1 RETURN JUMPDEST PUSH2 0x192 PUSH2 0x55D JUMP JUMPDEST STOP JUMPDEST PUSH2 0x1AE PUSH1 0x4 DUP1 CALLDATASIZE SUB DUP2 ADD SWAP1 PUSH2 0x1A9 SWAP2 SWAP1 PUSH2 0xCA0 JUMP JUMPDEST PUSH2 0x733 JUMP JUMPDEST STOP JUMPDEST PUSH2 0x1B8 PUSH2 0x843 JUMP JUMPDEST PUSH1 0x40 MLOAD PUSH2 0x1C5 SWAP2 SWAP1 PUSH2 0xC59 JUMP JUMPDEST PUSH1 0x40 MLOAD DUP1 SWAP2 SUB SWAP1 RETURN JUMPDEST PUSH2 0x1D6 PUSH2 0x849 JUMP JUMPDEST PUSH1 0x40 MLOAD PUSH2 0x1E3 SWAP2 SWAP1 PUSH2 0xC59 JUMP JUMPDEST PUSH1 0x40 MLOAD DUP1 SWAP2 SUB SWAP1 RETURN JUMPDEST PUSH2 0x206 PUSH1 0x4 DUP1 CALLDATASIZE SUB DUP2 ADD SWAP1 PUSH2 0x201 SWAP2 SWAP1 PUSH2 0xD25 JUMP JUMPDEST PUSH2 0x84F JUMP JUMPDEST PUSH1 0x40 MLOAD PUSH2 0x213 SWAP2 SWAP1 PUSH2 0xC59 JUMP JUMPDEST PUSH1 0x40 MLOAD DUP1 SWAP2 SUB SWAP1 RETURN JUMPDEST PUSH2 0x224 PUSH2 0x864 JUMP JUMPDEST PUSH1 0x40 MLOAD PUSH2 0x231 SWAP2 SWAP1 PUSH2 0xC59 JUMP JUMPDEST PUSH1 0x40 MLOAD DUP1 SWAP2 SUB SWAP1 RETURN JUMPDEST PUSH2 0x254 PUSH1 0x4 DUP1 CALLDATASIZE SUB DUP2 ADD SWAP1 PUSH2 0x24F SWAP2 SWAP1 PUSH2 0xD25 JUMP JUMPDEST PUSH2 0x86A JUMP JUMPDEST PUSH1 0x40 MLOAD PUSH2 0x261 SWAP2 SWAP1 PUSH2 0xC59 JUMP JUMPDEST PUSH1 0x40 MLOAD DUP1 SWAP2 SUB SWAP1 RETURN JUMPDEST PUSH2 0x272 PUSH2 0x87F JUMP JUMPDEST PUSH1 0x40 MLOAD PUSH2 0x27F SWAP2 SWAP1 PUSH2 0xD5F JUMP JUMPDEST PUSH1 0x40 MLOAD DUP1 SWAP2 SUB SWAP1 RETURN JUMPDEST PUSH2 0x2A2 PUSH1 0x4 DUP1 CALLDATASIZE SUB DUP2 ADD SWAP1 PUSH2 0x29D SWAP2 SWAP1 PUSH2 0xCA0 JUMP JUMPDEST PUSH2 0x8A3 JUMP JUMPDEST STOP JUMPDEST PUSH2 0x2AC PUSH2 0xAD1 JUMP JUMPDEST PUSH1 0x40 MLOAD PUSH2 0x2B9 SWAP2 SWAP1 PUSH2 0xC59 JUMP JUMPDEST PUSH1 0x40 MLOAD DUP1 SWAP2 SUB SWAP1 RETURN JUMPDEST PUSH2 0x2CA PUSH2 0xB3A JUMP JUMPDEST PUSH1 0x40 MLOAD PUSH2 0x2D7 SWAP2 SWAP1 PUSH2 0xC59 JUMP JUMPDEST PUSH1 0x40 MLOAD DUP1 SWAP2 SUB SWAP1 RETURN JUMPDEST PUSH2 0x2FA PUSH1 0x4 DUP1 CALLDATASIZE SUB DUP2 ADD SWAP1 PUSH2 0x2F5 SWAP2 SWAP1 PUSH2 0xD25 JUMP JUMPDEST PUSH2 0xB40 JUMP JUMPDEST PUSH1 0x40 MLOAD PUSH2 0x307 SWAP2 SWAP1 PUSH2 0xC59 JUMP JUMPDEST PUSH1 0x40 MLOAD DUP1 SWAP2 SUB SWAP1 RETURN JUMPDEST PUSH1 0x1 SLOAD DUP2 JUMP JUMPDEST PUSH1 0x6 SLOAD DUP2 JUMP JUMPDEST CALLER PUSH2 0x325 PUSH2 0xAD1 JUMP JUMPDEST PUSH1 0x7 DUP2 SWAP1 SSTORE POP PUSH2 0x333 PUSH2 0xC28 JUMP JUMPDEST PUSH1 0x3 DUP2 SWAP1 SSTORE POP PUSH0 PUSH20 0xFFFFFFFFFFFFFFFFFFFFFFFFFFFFFFFFFFFFFFFF AND DUP2 PUSH20 0xFFFFFFFFFFFFFFFFFFFFFFFFFFFFFFFFFFFFFFFF AND EQ PUSH2 0x3FB JUMPI PUSH2 0x375 DUP2 PUSH2 0xB40 JUMP JUMPDEST PUSH1 0x9 PUSH0 DUP4 PUSH20 0xFFFFFFFFFFFFFFFFFFFFFFFFFFFFFFFFFFFFFFFF AND PUSH20 0xFFFFFFFFFFFFFFFFFFFFFFFFFFFFFFFFFFFFFFFF AND DUP2 MSTORE PUSH1 0x20 ADD SWAP1 DUP2 MSTORE PUSH1 0x20 ADD PUSH0 KECCAK256 DUP2 SWAP1 SSTORE POP PUSH1 0x7 SLOAD PUSH1 0x8 PUSH0 DUP4 PUSH20 0xFFFFFFFFFFFFFFFFFFFFFFFFFFFFFFFFFFFFFFFF AND PUSH20 0xFFFFFFFFFFFFFFFFFFFFFFFFFFFFFFFFFFFFFFFF AND DUP2 MSTORE PUSH1 0x20 ADD SWAP1 DUP2 MSTORE PUSH1 0x20 ADD PUSH0 KECCAK256 DUP2 SWAP1 SSTORE POP JUMPDEST PUSH0 DUP3 GT PUSH2 0x43D JUMPI PUSH1 0x40 MLOAD PUSH32 0x8C379A000000000000000000000000000000000000000000000000000000000 DUP2 MSTORE PUSH1 0x4 ADD PUSH2 0x434 SWAP1 PUSH2 0xDD2 JUMP JUMPDEST PUSH1 0x40 MLOAD DUP1 SWAP2 SUB SWAP1 REVERT JUMPDEST DUP2 PUSH1 0x5 PUSH0 CALLER PUSH20 0xFFFFFFFFFFFFFFFFFFFFFFFFFFFFFFFFFFFFFFFF AND PUSH20 0xFFFFFFFFFFFFFFFFFFFFFFFFFFFFFFFFFFFFFFFF AND DUP2 MSTORE PUSH1 0x20 ADD SWAP1 DUP2 MSTORE PUSH1 0x20 ADD PUSH0 KECCAK256 PUSH0 DUP3 DUP3 SLOAD PUSH2 0x489 SWAP2 SWAP1 PUSH2 0xE1D JUMP JUMPDEST SWAP3 POP POP DUP2 SWAP1 SSTORE POP DUP2 PUSH1 0x6 PUSH0 DUP3 DUP3 SLOAD PUSH2 0x4A1 SWAP2 SWAP1 PUSH2 0xE1D JUMP JUMPDEST SWAP3 POP POP DUP2 SWAP1 SSTORE POP PUSH32 0x0 PUSH20 0xFFFFFFFFFFFFFFFFFFFFFFFFFFFFFFFFFFFFFFFF AND PUSH4 0xA9059CBB CALLER DUP5 PUSH1 0x40 MLOAD DUP4 PUSH4 0xFFFFFFFF AND PUSH1 0xE0 SHL DUP2 MSTORE PUSH1 0x4 ADD PUSH2 0x503 SWAP3 SWAP2 SWAP1 PUSH2 0xE50 JUMP JUMPDEST PUSH1 0x20 PUSH1 0x40 MLOAD DUP1 DUP4 SUB DUP2 PUSH0 DUP8 GAS CALL ISZERO DUP1 ISZERO PUSH2 0x51F JUMPI RETURNDATASIZE PUSH0 PUSH0 RETURNDATACOPY RETURNDATASIZE PUSH0 REVERT JUMPDEST POP POP POP POP PUSH1 0x40 MLOAD RETURNDATASIZE PUSH1 0x1F NOT PUSH1 0x1F DUP3 ADD AND DUP3 ADD DUP1 PUSH1 0x40 MSTORE POP DUP2 ADD SWAP1 PUSH2 0x543 SWAP2 SWAP1 PUSH2 0xEAC JUMP JUMPDEST POP POP POP JUMP JUMPDEST PUSH1 0x9 PUSH1 0x20 MSTORE DUP1 PUSH0 MSTORE PUSH1 0x40 PUSH0 KECCAK256 PUSH0 SWAP2 POP SWAP1 POP SLOAD DUP2 JUMP JUMPDEST CALLER PUSH2 0x566 PUSH2 0xAD1 JUMP JUMPDEST PUSH1 0x7 DUP2 SWAP1 SSTORE POP PUSH2 0x574 PUSH2 0xC28 JUMP JUMPDEST PUSH1 0x3 DUP2 SWAP1 SSTORE POP PUSH0 PUSH20 0xFFFFFFFFFFFFFFFFFFFFFFFFFFFFFFFFFFFFFFFF AND DUP2 PUSH20 0xFFFFFFFFFFFFFFFFFFFFFFFFFFFFFFFFFFFFFFFF AND EQ PUSH2 0x63C JUMPI PUSH2 0x5B6 DUP2 PUSH2 0xB40 JUMP JUMPDEST PUSH1 0x9 PUSH0 DUP4 PUSH20 0xFFFFFFFFFFFFFFFFFFFFFFFFFFFFFFFFFFFFFFFF AND PUSH20 0xFFFFFFFFFFFFFFFFFFFFFFFFFFFFFFFFFFFFFFFF AND DUP2 MSTORE PUSH1 0x20 ADD SWAP1 DUP2 MSTORE PUSH1 0x20 ADD PUSH0 KECCAK256 DUP2 SWAP1 SSTORE POP PUSH1 0x7 SLOAD PUSH1 0x8 PUSH0 DUP4 PUSH20 0xFFFFFFFFFFFFFFFFFFFFFFFFFFFFFFFFFFFFFFFF AND PUSH20 0xFFFFFFFFFFFFFFFFFFFFFFFFFFFFFFFFFFFFFFFF AND DUP2 MSTORE PUSH1 0x20 ADD SWAP1 DUP2 MSTORE PUSH1 0x20 ADD PUSH0 KECCAK256 DUP2 SWAP1 SSTORE POP JUMPDEST PUSH0 PUSH2 0x646 CALLER PUSH2 0xB40 JUMP JUMPDEST SWAP1 POP PUSH0 DUP2 GT ISZERO PUSH2 0x72F JUMPI PUSH0 PUSH1 0x9 PUSH0 CALLER PUSH20 0xFFFFFFFFFFFFFFFFFFFFFFFFFFFFFFFFFFFFFFFF AND PUSH20 0xFFFFFFFFFFFFFFFFFFFFFFFFFFFFFFFFFFFFFFFF AND DUP2 MSTORE PUSH1 0x20 ADD SWAP1 DUP2 MSTORE PUSH1 0x20 ADD PUSH0 KECCAK256 DUP2 SWAP1 SSTORE POP PUSH32 0x0 PUSH20 0xFFFFFFFFFFFFFFFFFFFFFFFFFFFFFFFFFFFFFFFF AND PUSH4 0xA9059CBB CALLER DUP4 PUSH1 0x40 MLOAD DUP4 PUSH4 0xFFFFFFFF AND PUSH1 0xE0 SHL DUP2 MSTORE PUSH1 0x4 ADD PUSH2 0x6ED SWAP3 SWAP2 SWAP1 PUSH2 0xE50 JUMP JUMPDEST PUSH1 0x20 PUSH1 0x40 MLOAD DUP1 DUP4 SUB DUP2 PUSH0 DUP8 GAS CALL ISZERO DUP1 ISZERO PUSH2 0x709 JUMPI RETURNDATASIZE PUSH0 PUSH0 RETURNDATACOPY RETURNDATASIZE PUSH0 REVERT JUMPDEST POP POP POP POP PUSH1 0x40 MLOAD RETURNDATASIZE PUSH1 0x1F NOT PUSH1 0x1F DUP3 ADD AND DUP3 ADD DUP1 PUSH1 0x40 MSTORE POP DUP2 ADD SWAP1 PUSH2 0x72D SWAP2 SWAP1 PUSH2 0xEAC JUMP JUMPDEST POP JUMPDEST POP POP JUMP JUMPDEST CALLER PUSH0 PUSH0 SWAP1 SLOAD SWAP1 PUSH2 0x100 EXP SWAP1 DIV PUSH20 0xFFFFFFFFFFFFFFFFFFFFFFFFFFFFFFFFFFFFFFFF AND PUSH20 0xFFFFFFFFFFFFFFFFFFFFFFFFFFFFFFFFFFFFFFFF AND DUP2 PUSH20 0xFFFFFFFFFFFFFFFFFFFFFFFFFFFFFFFFFFFFFFFF AND EQ PUSH2 0x7C2 JUMPI PUSH1 0x40 MLOAD PUSH32 0x8C379A000000000000000000000000000000000000000000000000000000000 DUP2 MSTORE PUSH1 0x4 ADD PUSH2 0x7B9 SWAP1 PUSH2 0xF21 JUMP JUMPDEST PUSH1 0x40 MLOAD DUP1 SWAP2 SUB SWAP1 REVERT JUMPDEST PUSH1 0x2 SLOAD TIMESTAMP GT ISZERO PUSH2 0x7E5 JUMPI PUSH1 0x1 SLOAD DUP3 PUSH2 0x7DA SWAP2 SWAP1 PUSH2 0xF6C JUMP JUMPDEST PUSH1 0x4 DUP2 SWAP1 SSTORE POP PUSH2 0x824 JUMP JUMPDEST PUSH0 TIMESTAMP PUSH1 0x2 SLOAD PUSH2 0x7F4 SWAP2 SWAP1 PUSH2 0xE1D JUMP JUMPDEST PUSH1 0x4 SLOAD PUSH2 0x801 SWAP2 SWAP1 PUSH2 0xF9C JUMP JUMPDEST SWAP1 POP PUSH1 0x1 SLOAD DUP2 DUP5 PUSH2 0x812 SWAP2 SWAP1 PUSH2 0xFDD JUMP JUMPDEST PUSH2 0x81C SWAP2 SWAP1 PUSH2 0xF6C JUMP JUMPDEST PUSH1 0x4 DUP2 SWAP1 SSTORE POP POP JUMPDEST TIMESTAMP PUSH1 0x3 DUP2 SWAP1 SSTORE POP PUSH1 0x1 SLOAD TIMESTAMP PUSH2 0x839 SWAP2 SWAP1 PUSH2 0xFDD JUMP JUMPDEST PUSH1 0x2 DUP2 SWAP1 SSTORE POP POP POP JUMP JUMPDEST PUSH1 0x7 SLOAD DUP2 JUMP JUMPDEST PUSH1 0x2 SLOAD DUP2 JUMP JUMPDEST PUSH1 0x5 PUSH1 0x20 MSTORE DUP1 PUSH0 MSTORE PUSH1 0x40 PUSH0 KECCAK256 PUSH0 SWAP2 POP SWAP1 POP SLOAD DUP2 JUMP JUMPDEST PUSH1 0x4 SLOAD DUP2 JUMP JUMPDEST PUSH1 0x8 PUSH1 0x20 MSTORE DUP1 PUSH0 MSTORE PUSH1 0x40 PUSH0 KECCAK256 PUSH0 SWAP2 POP SWAP1 POP SLOAD DUP2 JUMP JUMPDEST PUSH0 PUSH0 SWAP1 SLOAD SWAP1 PUSH2 0x100 EXP SWAP1 DIV PUSH20 0xFFFFFFFFFFFFFFFFFFFFFFFFFFFFFFFFFFFFFFFF AND DUP2 JUMP JUMPDEST CALLER PUSH2 0x8AC PUSH2 0xAD1 JUMP JUMPDEST PUSH1 0x7 DUP2 SWAP1 SSTORE POP PUSH2 0x8BA PUSH2 0xC28 JUMP JUMPDEST PUSH1 0x3 DUP2 SWAP1 SSTORE POP PUSH0 PUSH20 0xFFFFFFFFFFFFFFFFFFFFFFFFFFFFFFFFFFFFFFFF AND DUP2 PUSH20 0xFFFFFFFFFFFFFFFFFFFFFFFFFFFFFFFFFFFFFFFF AND EQ PUSH2 0x982 JUMPI PUSH2 0x8FC DUP2 PUSH2 0xB40 JUMP JUMPDEST PUSH1 0x9 PUSH0 DUP4 PUSH20 0xFFFFFFFFFFFFFFFFFFFFFFFFFFFFFFFFFFFFFFFF AND PUSH20 0xFFFFFFFFFFFFFFFFFFFFFFFFFFFFFFFFFFFFFFFF AND DUP2 MSTORE PUSH1 0x20 ADD SWAP1 DUP2 MSTORE PUSH1 0x20 ADD PUSH0 KECCAK256 DUP2 SWAP1 SSTORE POP PUSH1 0x7 SLOAD PUSH1 0x8 PUSH0 DUP4 PUSH20 0xFFFFFFFFFFFFFFFFFFFFFFFFFFFFFFFFFFFFFFFF AND PUSH20 0xFFFFFFFFFFFFFFFFFFFFFFFFFFFFFFFFFFFFFFFF AND DUP2 MSTORE PUSH1 0x20 ADD SWAP1 DUP2 MSTORE PUSH1 0x20 ADD PUSH0 KECCAK256 DUP2 SWAP1 SSTORE POP JUMPDEST PUSH0 DUP3 GT PUSH2 0x9C4 JUMPI PUSH1 0x40 MLOAD PUSH32 0x8C379A000000000000000000000000000000000000000000000000000000000 DUP2 MSTORE PUSH1 0x4 ADD PUSH2 0x9BB SWAP1 PUSH2 0xDD2 JUMP JUMPDEST PUSH1 0x40 MLOAD DUP1 SWAP2 SUB SWAP1 REVERT JUMPDEST DUP2 PUSH1 0x5 PUSH0 CALLER PUSH20 0xFFFFFFFFFFFFFFFFFFFFFFFFFFFFFFFFFFFFFFFF AND PUSH20 0xFFFFFFFFFFFFFFFFFFFFFFFFFFFFFFFFFFFFFFFF AND DUP2 MSTORE PUSH1 0x20 ADD SWAP1 DUP2 MSTORE PUSH1 0x20 ADD PUSH0 KECCAK256 PUSH0 DUP3 DUP3 SLOAD PUSH2 0xA10 SWAP2 SWAP1 PUSH2 0xFDD JUMP JUMPDEST SWAP3 POP POP DUP2 SWAP1 SSTORE POP DUP2 PUSH1 0x6 PUSH0 DUP3 DUP3 SLOAD PUSH2 0xA28 SWAP2 SWAP1 PUSH2 0xFDD JUMP JUMPDEST SWAP3 POP POP DUP2 SWAP1 SSTORE POP PUSH32 0x0 PUSH20 0xFFFFFFFFFFFFFFFFFFFFFFFFFFFFFFFFFFFFFFFF AND PUSH4 0x23B872DD CALLER ADDRESS DUP6 PUSH1 0x40 MLOAD DUP5 PUSH4 0xFFFFFFFF AND PUSH1 0xE0 SHL DUP2 MSTORE PUSH1 0x4 ADD PUSH2 0xA8C SWAP4 SWAP3 SWAP2 SWAP1 PUSH2 0x1010 JUMP JUMPDEST PUSH1 0x20 PUSH1 0x40 MLOAD DUP1 DUP4 SUB DUP2 PUSH0 DUP8 GAS CALL ISZERO DUP1 ISZERO PUSH2 0xAA8 JUMPI RETURNDATASIZE PUSH0 PUSH0 RETURNDATACOPY RETURNDATASIZE PUSH0 REVERT JUMPDEST POP POP POP POP PUSH1 0x40 MLOAD RETURNDATASIZE PUSH1 0x1F NOT PUSH1 0x1F DUP3 ADD AND DUP3 ADD DUP1 PUSH1 0x40 MSTORE POP DUP2 ADD SWAP1 PUSH2 0xACC SWAP2 SWAP1 PUSH2 0xEAC JUMP JUMPDEST POP POP POP JUMP JUMPDEST PUSH0 PUSH0 PUSH1 0x6 SLOAD SUB PUSH2 0xAE5 JUMPI PUSH1 0x7 SLOAD SWAP1 POP PUSH2 0xB37 JUMP JUMPDEST PUSH1 0x6 SLOAD PUSH8 0xDE0B6B3A7640000 PUSH1 0x3 SLOAD PUSH2 0xAFC PUSH2 0xC28 JUMP JUMPDEST PUSH2 0xB06 SWAP2 SWAP1 PUSH2 0xE1D JUMP JUMPDEST PUSH1 0x4 SLOAD PUSH2 0xB13 SWAP2 SWAP1 PUSH2 0xF9C JUMP JUMPDEST PUSH2 0xB1D SWAP2 SWAP1 PUSH2 0xF9C JUMP JUMPDEST PUSH2 0xB27 SWAP2 SWAP1 PUSH2 0xF6C JUMP JUMPDEST PUSH1 0x7 SLOAD PUSH2 0xB34 SWAP2 SWAP1 PUSH2 0xFDD JUMP JUMPDEST SWAP1 POP JUMPDEST SWAP1 JUMP JUMPDEST PUSH1 0x3 SLOAD DUP2 JUMP JUMPDEST PUSH0 PUSH1 0x8 PUSH0 DUP4 PUSH20 0xFFFFFFFFFFFFFFFFFFFFFFFFFFFFFFFFFFFFFFFF AND PUSH20 0xFFFFFFFFFFFFFFFFFFFFFFFFFFFFFFFFFFFFFFFF AND DUP2 MSTORE PUSH1 0x20 ADD SWAP1 DUP2 MSTORE PUSH1 0x20 ADD PUSH0 KECCAK256 SLOAD PUSH2 0xB87 PUSH2 0xAD1 JUMP JUMPDEST PUSH2 0xB91 SWAP2 SWAP1 PUSH2 0xE1D JUMP JUMPDEST PUSH1 0x5 PUSH0 DUP5 PUSH20 0xFFFFFFFFFFFFFFFFFFFFFFFFFFFFFFFFFFFFFFFF AND PUSH20 0xFFFFFFFFFFFFFFFFFFFFFFFFFFFFFFFFFFFFFFFF AND DUP2 MSTORE PUSH1 0x20 ADD SWAP1 DUP2 MSTORE PUSH1 0x20 ADD PUSH0 KECCAK256 SLOAD PUSH2 0xBD9 SWAP2 SWAP1 PUSH2 0xF9C JUMP JUMPDEST PUSH1 0x9 PUSH0 DUP5 PUSH20 0xFFFFFFFFFFFFFFFFFFFFFFFFFFFFFFFFFFFFFFFF AND PUSH20 0xFFFFFFFFFFFFFFFFFFFFFFFFFFFFFFFFFFFFFFFF AND DUP2 MSTORE PUSH1 0x20 ADD SWAP1 DUP2 MSTORE PUSH1 0x20 ADD PUSH0 KECCAK256 SLOAD PUSH2 0xC21 SWAP2 SWAP1 PUSH2 0xFDD JUMP JUMPDEST SWAP1 POP SWAP2 SWAP1 POP JUMP JUMPDEST PUSH0 PUSH1 0x2 SLOAD TIMESTAMP LT PUSH2 0xC3A JUMPI PUSH1 0x2 SLOAD PUSH2 0xC3C JUMP JUMPDEST TIMESTAMP JUMPDEST SWAP1 POP SWAP1 JUMP JUMPDEST PUSH0 DUP2 SWAP1 POP SWAP2 SWAP1 POP JUMP JUMPDEST PUSH2 0xC53 DUP2 PUSH2 0xC41 JUMP JUMPDEST DUP3 MSTORE POP POP JUMP JUMPDEST PUSH0 PUSH1 0x20 DUP3 ADD SWAP1 POP PUSH2 0xC6C PUSH0 DUP4 ADD DUP5 PUSH2 0xC4A JUMP JUMPDEST SWAP3 SWAP2 POP POP JUMP JUMPDEST PUSH0 PUSH0 REVERT JUMPDEST PUSH2 0xC7F DUP2 PUSH2 0xC41 JUMP JUMPDEST DUP2 EQ PUSH2 0xC89 JUMPI PUSH0 PUSH0 REVERT JUMPDEST POP JUMP JUMPDEST PUSH0 DUP2 CALLDATALOAD SWAP1 POP PUSH2 0xC9A DUP2 PUSH2 0xC76 JUMP JUMPDEST SWAP3 SWAP2 POP POP JUMP JUMPDEST PUSH0 PUSH1 0x20 DUP3 DUP5 SUB SLT ISZERO PUSH2 0xCB5 JUMPI PUSH2 0xCB4 PUSH2 0xC72 JUMP JUMPDEST JUMPDEST PUSH0 PUSH2 0xCC2 DUP5 DUP3 DUP6 ADD PUSH2 0xC8C JUMP JUMPDEST SWAP2 POP POP SWAP3 SWAP2 POP POP JUMP JUMPDEST PUSH0 PUSH20 0xFFFFFFFFFFFFFFFFFFFFFFFFFFFFFFFFFFFFFFFF DUP3 AND SWAP1 POP SWAP2 SWAP1 POP JUMP JUMPDEST PUSH0 PUSH2 0xCF4 DUP3 PUSH2 0xCCB JUMP JUMPDEST SWAP1 POP SWAP2 SWAP1 POP JUMP JUMPDEST PUSH2 0xD04 DUP2 PUSH2 0xCEA JUMP JUMPDEST DUP2 EQ PUSH2 0xD0E JUMPI PUSH0 PUSH0 REVERT JUMPDEST POP JUMP JUMPDEST PUSH0 DUP2 CALLDATALOAD SWAP1 POP PUSH2 0xD1F DUP2 PUSH2 0xCFB JUMP JUMPDEST SWAP3 SWAP2 POP POP JUMP JUMPDEST PUSH0 PUSH1 0x20 DUP3 DUP5 SUB SLT ISZERO PUSH2 0xD3A JUMPI PUSH2 0xD39 PUSH2 0xC72 JUMP JUMPDEST JUMPDEST PUSH0 PUSH2 0xD47 DUP5 DUP3 DUP6 ADD PUSH2 0xD11 JUMP JUMPDEST SWAP2 POP POP SWAP3 SWAP2 POP POP JUMP JUMPDEST PUSH2 0xD59 DUP2 PUSH2 0xCEA JUMP JUMPDEST DUP3 MSTORE POP POP JUMP JUMPDEST PUSH0 PUSH1 0x20 DUP3 ADD SWAP1 POP PUSH2 0xD72 PUSH0 DUP4 ADD DUP5 PUSH2 0xD50 JUMP JUMPDEST SWAP3 SWAP2 POP POP JUMP JUMPDEST PUSH0 DUP3 DUP3 MSTORE PUSH1 0x20 DUP3 ADD SWAP1 POP SWAP3 SWAP2 POP POP JUMP JUMPDEST PUSH32 0x616D6F756E74203C203000000000000000000000000000000000000000000000 PUSH0 DUP3 ADD MSTORE POP JUMP JUMPDEST PUSH0 PUSH2 0xDBC PUSH1 0xA DUP4 PUSH2 0xD78 JUMP JUMPDEST SWAP2 POP PUSH2 0xDC7 DUP3 PUSH2 0xD88 JUMP JUMPDEST PUSH1 0x20 DUP3 ADD SWAP1 POP SWAP2 SWAP1 POP JUMP JUMPDEST PUSH0 PUSH1 0x20 DUP3 ADD SWAP1 POP DUP2 DUP2 SUB PUSH0 DUP4 ADD MSTORE PUSH2 0xDE9 DUP2 PUSH2 0xDB0 JUMP JUMPDEST SWAP1 POP SWAP2 SWAP1 POP JUMP JUMPDEST PUSH32 0x4E487B7100000000000000000000000000000000000000000000000000000000 PUSH0 MSTORE PUSH1 0x11 PUSH1 0x4 MSTORE PUSH1 0x24 PUSH0 REVERT JUMPDEST PUSH0 PUSH2 0xE27 DUP3 PUSH2 0xC41 JUMP JUMPDEST SWAP2 POP PUSH2 0xE32 DUP4 PUSH2 0xC41 JUMP JUMPDEST SWAP3 POP DUP3 DUP3 SUB SWAP1 POP DUP2 DUP2 GT ISZERO PUSH2 0xE4A JUMPI PUSH2 0xE49 PUSH2 0xDF0 JUMP JUMPDEST JUMPDEST SWAP3 SWAP2 POP POP JUMP JUMPDEST PUSH0 PUSH1 0x40 DUP3 ADD SWAP1 POP PUSH2 0xE63 PUSH0 DUP4 ADD DUP6 PUSH2 0xD50 JUMP JUMPDEST PUSH2 0xE70 PUSH1 0x20 DUP4 ADD DUP5 PUSH2 0xC4A JUMP JUMPDEST SWAP4 SWAP3 POP POP POP JUMP JUMPDEST PUSH0 DUP2 ISZERO ISZERO SWAP1 POP SWAP2 SWAP1 POP JUMP JUMPDEST PUSH2 0xE8B DUP2 PUSH2 0xE77 JUMP JUMPDEST DUP2 EQ PUSH2 0xE95 JUMPI PUSH0 PUSH0 REVERT JUMPDEST POP JUMP JUMPDEST PUSH0 DUP2 MLOAD SWAP1 POP PUSH2 0xEA6 DUP2 PUSH2 0xE82 JUMP JUMPDEST SWAP3 SWAP2 POP POP JUMP JUMPDEST PUSH0 PUSH1 0x20 DUP3 DUP5 SUB SLT ISZERO PUSH2 0xEC1 JUMPI PUSH2 0xEC0 PUSH2 0xC72 JUMP JUMPDEST JUMPDEST PUSH0 PUSH2 0xECE DUP5 DUP3 DUP6 ADD PUSH2 0xE98 JUMP JUMPDEST SWAP2 POP POP SWAP3 SWAP2 POP POP JUMP JUMPDEST PUSH32 0x6E6F74206F776E65720000000000000000000000000000000000000000000000 PUSH0 DUP3 ADD MSTORE POP JUMP JUMPDEST PUSH0 PUSH2 0xF0B PUSH1 0x9 DUP4 PUSH2 0xD78 JUMP JUMPDEST SWAP2 POP PUSH2 0xF16 DUP3 PUSH2 0xED7 JUMP JUMPDEST PUSH1 0x20 DUP3 ADD SWAP1 POP SWAP2 SWAP1 POP JUMP JUMPDEST PUSH0 PUSH1 0x20 DUP3 ADD SWAP1 POP DUP2 DUP2 SUB PUSH0 DUP4 ADD MSTORE PUSH2 0xF38 DUP2 PUSH2 0xEFF JUMP JUMPDEST SWAP1 POP SWAP2 SWAP1 POP JUMP JUMPDEST PUSH32 0x4E487B7100000000000000000000000000000000000000000000000000000000 PUSH0 MSTORE PUSH1 0x12 PUSH1 0x4 MSTORE PUSH1 0x24 PUSH0 REVERT JUMPDEST PUSH0 PUSH2 0xF76 DUP3 PUSH2 0xC41 JUMP JUMPDEST SWAP2 POP PUSH2 0xF81 DUP4 PUSH2 0xC41 JUMP JUMPDEST SWAP3 POP DUP3 PUSH2 0xF91 JUMPI PUSH2 0xF90 PUSH2 0xF3F JUMP JUMPDEST JUMPDEST DUP3 DUP3 DIV SWAP1 POP SWAP3 SWAP2 POP POP JUMP JUMPDEST PUSH0 PUSH2 0xFA6 DUP3 PUSH2 0xC41 JUMP JUMPDEST SWAP2 POP PUSH2 0xFB1 DUP4 PUSH2 0xC41 JUMP JUMPDEST SWAP3 POP DUP3 DUP3 MUL PUSH2 0xFBF DUP2 PUSH2 0xC41 JUMP JUMPDEST SWAP2 POP DUP3 DUP3 DIV DUP5 EQ DUP4 ISZERO OR PUSH2 0xFD6 JUMPI PUSH2 0xFD5 PUSH2 0xDF0 JUMP JUMPDEST JUMPDEST POP SWAP3 SWAP2 POP POP JUMP JUMPDEST PUSH0 PUSH2 0xFE7 DUP3 PUSH2 0xC41 JUMP JUMPDEST SWAP2 POP PUSH2 0xFF2 DUP4 PUSH2 0xC41 JUMP JUMPDEST SWAP3 POP DUP3 DUP3 ADD SWAP1 POP DUP1 DUP3 GT ISZERO PUSH2 0x100A JUMPI PUSH2 0x1009 PUSH2 0xDF0 JUMP JUMPDEST JUMPDEST SWAP3 SWAP2 POP POP JUMP JUMPDEST PUSH0 PUSH1 0x60 DUP3 ADD SWAP1 POP PUSH2 0x1023 PUSH0 DUP4 ADD DUP7 PUSH2 0xD50 JUMP JUMPDEST PUSH2 0x1030 PUSH1 0x20 DUP4 ADD DUP6 PUSH2 0xD50 JUMP JUMPDEST PUSH2 0x103D PUSH1 0x40 DUP4 ADD DUP5 PUSH2 0xC4A JUMP JUMPDEST SWAP5 SWAP4 POP POP POP POP JUMP INVALID LOG2 PUSH5 0x6970667358 0x22 SLT KECCAK256 0xA5 PC 0xAD PUSH21 0xE531F62F537C91DB23B2A8BB876E6A0C88508E4FCD 0x4F DUP13 LOG2 0xD2 LT 0xA7 0xC PUSH5 0x736F6C6343 STOP ADDMOD 0x22 STOP CALLER "
				},
				"gasEstimates": {
					"creation": {
						"codeDepositCost": "843800",
						"executionCost": "infinite",
						"totalCost": "infinite"
					},
					"external": {
						"balanceOf(address)": "2825",
						"calCurrentGlobalStakeToReward()": "infinite",
						"claim()": "infinite",
						"duration()": "2449",
						"earn(address)": "infinite",
						"finshTime()": "2514",
						"globalStakeToRewar()": "2492",
						"owner()": "2596",
						"rewardRate()": "2470",
						"rewardsOf(address)": "2892",
						"setNewRewardAmount(uint256)": "infinite",
						"stake(uint256)": "infinite",
						"totalSupply()": "2471",
						"unstake(uint256)": "infinite",
						"updateTime()": "2491",
						"userStakeToRewarOf(address)": "2869"
					},
					"internal": {
						"getLastEffectTime()": "4255"
					}
				},
				"methodIdentifiers": {
					"balanceOf(address)": "70a08231",
					"calCurrentGlobalStakeToReward()": "a8e6b81a",
					"claim()": "4e71d92d",
					"duration()": "0fb5a6b4",
					"earn(address)": "fdb5fefc",
					"finshTime()": "6747f288",
					"globalStakeToRewar()": "6718c952",
					"owner()": "8da5cb5b",
					"rewardRate()": "7b0a47ee",
					"rewardsOf(address)": "479ba7ae",
					"setNewRewardAmount(uint256)": "5484a2ad",
					"stake(uint256)": "a694fc3a",
					"totalSupply()": "18160ddd",
					"unstake(uint256)": "2e17de78",
					"updateTime()": "dc555090",
					"userStakeToRewarOf(address)": "7ff737b4"
				}
			},
			"storageLayout": {
				"storage": [
					{
						"astId": 92,
						"contract": "solidity高级应用/奖励计算StakingReward.sol:StakingRewards",
						"label": "owner",
						"offset": 0,
						"slot": "0",
						"type": "t_address"
					},
					{
						"astId": 94,
						"contract": "solidity高级应用/奖励计算StakingReward.sol:StakingRewards",
						"label": "duration",
						"offset": 0,
						"slot": "1",
						"type": "t_uint256"
					},
					{
						"astId": 96,
						"contract": "solidity高级应用/奖励计算StakingReward.sol:StakingRewards",
						"label": "finshTime",
						"offset": 0,
						"slot": "2",
						"type": "t_uint256"
					},
					{
						"astId": 98,
						"contract": "solidity高级应用/奖励计算StakingReward.sol:StakingRewards",
						"label": "updateTime",
						"offset": 0,
						"slot": "3",
						"type": "t_uint256"
					},
					{
						"astId": 100,
						"contract": "solidity高级应用/奖励计算StakingReward.sol:StakingRewards",
						"label": "rewardRate",
						"offset": 0,
						"slot": "4",
						"type": "t_uint256"
					},
					{
						"astId": 104,
						"contract": "solidity高级应用/奖励计算StakingReward.sol:StakingRewards",
						"label": "balanceOf",
						"offset": 0,
						"slot": "5",
						"type": "t_mapping(t_address,t_uint256)"
					},
					{
						"astId": 106,
						"contract": "solidity高级应用/奖励计算StakingReward.sol:StakingRewards",
						"label": "totalSupply",
						"offset": 0,
						"slot": "6",
						"type": "t_uint256"
					},
					{
						"astId": 108,
						"contract": "solidity高级应用/奖励计算StakingReward.sol:StakingRewards",
						"label": "globalStakeToRewar",
						"offset": 0,
						"slot": "7",
						"type": "t_uint256"
					},
					{
						"astId": 112,
						"contract": "solidity高级应用/奖励计算StakingReward.sol:StakingRewards",
						"label": "userStakeToRewarOf",
						"offset": 0,
						"slot": "8",
						"type": "t_mapping(t_address,t_uint256)"
					},
					{
						"astId": 116,
						"contract": "solidity高级应用/奖励计算StakingReward.sol:StakingRewards",
						"label": "rewardsOf",
						"offset": 0,
						"slot": "9",
						"type": "t_mapping(t_address,t_uint256)"
					}
				],
				"types": {
					"t_address": {
						"encoding": "inplace",
						"label": "address",
						"numberOfBytes": "20"
					},
					"t_mapping(t_address,t_uint256)": {
						"encoding": "mapping",
						"key": "t_address",
						"label": "mapping(address => uint256)",
						"numberOfBytes": "32",
						"value": "t_uint256"
					},
					"t_uint256": {
						"encoding": "inplace",
						"label": "uint256",
						"numberOfBytes": "32"
					}
				}
			},
			"userdoc": {
				"kind": "user",
				"methods": {},
				"version": 1
			}
		}
	}
}