{
	"solidity基础/结构体struct.sol": {
		"StructContract": {
			"abi": [
				{
					"inputs": [
						{
							"internalType": "string",
							"name": "maker",
							"type": "string"
						},
						{
							"internalType": "uint256",
							"name": "year",
							"type": "uint256"
						}
					],
					"name": "addCar",
					"outputs": [],
					"stateMutability": "nonpayable",
					"type": "function"
				},
				{
					"inputs": [
						{
							"internalType": "uint256",
							"name": "",
							"type": "uint256"
						}
					],
					"name": "cars",
					"outputs": [
						{
							"internalType": "string",
							"name": "make",
							"type": "string"
						},
						{
							"internalType": "uint256",
							"name": "year",
							"type": "uint256"
						},
						{
							"internalType": "address",
							"name": "owner",
							"type": "address"
						}
					],
					"stateMutability": "view",
					"type": "function"
				},
				{
					"inputs": [
						{
							"internalType": "uint256",
							"name": "index",
							"type": "uint256"
						}
					],
					"name": "delCar",
					"outputs": [],
					"stateMutability": "nonpayable",
					"type": "function"
				},
				{
					"inputs": [],
					"name": "init",
					"outputs": [],
					"stateMutability": "nonpayable",
					"type": "function"
				},
				{
					"inputs": [
						{
							"internalType": "uint256",
							"name": "index",
							"type": "uint256"
						},
						{
							"internalType": "uint256",
							"name": "newYear",
							"type": "uint256"
						}
					],
					"name": "modify",
					"outputs": [],
					"stateMutability": "nonpayable",
					"type": "function"
				}
			],
			"devdoc": {
				"kind": "dev",
				"methods": {},
				"version": 1
			},
			"evm": {
				"assembly": "    /* \"solidity\\xe5\\x9f\\xba\\xe7\\xa1\\x80/\\xe7\\xbb\\x93\\xe6\\x9e\\x84\\xe4\\xbd\\x93struct.sol\":60:1420  contract StructContract {... */\n  mstore(0x40, 0x80)\n  callvalue\n  dup1\n  iszero\n  tag_1\n  jumpi\n  revert(0x00, 0x00)\ntag_1:\n  pop\n  dataSize(sub_0)\n  dup1\n  dataOffset(sub_0)\n  0x00\n  codecopy\n  0x00\n  return\nstop\n\nsub_0: assembly {\n        /* \"solidity\\xe5\\x9f\\xba\\xe7\\xa1\\x80/\\xe7\\xbb\\x93\\xe6\\x9e\\x84\\xe4\\xbd\\x93struct.sol\":60:1420  contract StructContract {... */\n      mstore(0x40, 0x80)\n      callvalue\n      dup1\n      iszero\n      tag_1\n      jumpi\n      revert(0x00, 0x00)\n    tag_1:\n      pop\n      jumpi(tag_2, lt(calldatasize, 0x04))\n      shr(0xe0, calldataload(0x00))\n      dup1\n      0x85d05887\n      eq\n      tag_3\n      jumpi\n      dup1\n      0x9381c997\n      eq\n      tag_4\n      jumpi\n      dup1\n      0x965ac0c5\n      eq\n      tag_5\n      jumpi\n      dup1\n      0xe1c7392a\n      eq\n      tag_6\n      jumpi\n      dup1\n      0xf7746e36\n      eq\n      tag_7\n      jumpi\n    tag_2:\n      revert(0x00, 0x00)\n        /* \"solidity\\xe5\\x9f\\xba\\xe7\\xa1\\x80/\\xe7\\xbb\\x93\\xe6\\x9e\\x84\\xe4\\xbd\\x93struct.sol\":1082:1177  function modify(uint index,uint newYear) external {... */\n    tag_3:\n      tag_8\n      0x04\n      dup1\n      calldatasize\n      sub\n      dup2\n      add\n      swap1\n      tag_9\n      swap2\n      swap1\n      tag_10\n      jump\t// in\n    tag_9:\n      tag_11\n      jump\t// in\n    tag_8:\n      stop\n        /* \"solidity\\xe5\\x9f\\xba\\xe7\\xa1\\x80/\\xe7\\xbb\\x93\\xe6\\x9e\\x84\\xe4\\xbd\\x93struct.sol\":1342:1416  function delCar(uint index) external {... */\n    tag_4:\n      tag_12\n      0x04\n      dup1\n      calldatasize\n      sub\n      dup2\n      add\n      swap1\n      tag_13\n      swap2\n      swap1\n      tag_14\n      jump\t// in\n    tag_13:\n      tag_15\n      jump\t// in\n    tag_12:\n      stop\n        /* \"solidity\\xe5\\x9f\\xba\\xe7\\xa1\\x80/\\xe7\\xbb\\x93\\xe6\\x9e\\x84\\xe4\\xbd\\x93struct.sol\":1185:1334  function addCar(string memory maker,uint year) external {... */\n    tag_5:\n      tag_16\n      0x04\n      dup1\n      calldatasize\n      sub\n      dup2\n      add\n      swap1\n      tag_17\n      swap2\n      swap1\n      tag_18\n      jump\t// in\n    tag_17:\n      tag_19\n      jump\t// in\n    tag_16:\n      stop\n        /* \"solidity\\xe5\\x9f\\xba\\xe7\\xa1\\x80/\\xe7\\xbb\\x93\\xe6\\x9e\\x84\\xe4\\xbd\\x93struct.sol\":622:1074  function init() external  {... */\n    tag_6:\n      tag_20\n      tag_21\n      jump\t// in\n    tag_20:\n      stop\n        /* \"solidity\\xe5\\x9f\\xba\\xe7\\xa1\\x80/\\xe7\\xbb\\x93\\xe6\\x9e\\x84\\xe4\\xbd\\x93struct.sol\":596:613  Car[] public cars */\n    tag_7:\n      tag_22\n      0x04\n      dup1\n      calldatasize\n      sub\n      dup2\n      add\n      swap1\n      tag_23\n      swap2\n      swap1\n      tag_14\n      jump\t// in\n    tag_23:\n      tag_24\n      jump\t// in\n    tag_22:\n      mload(0x40)\n      tag_25\n      swap4\n      swap3\n      swap2\n      swap1\n      tag_26\n      jump\t// in\n    tag_25:\n      mload(0x40)\n      dup1\n      swap2\n      sub\n      swap1\n      return\n        /* \"solidity\\xe5\\x9f\\xba\\xe7\\xa1\\x80/\\xe7\\xbb\\x93\\xe6\\x9e\\x84\\xe4\\xbd\\x93struct.sol\":1082:1177  function modify(uint index,uint newYear) external {... */\n    tag_11:\n        /* \"solidity\\xe5\\x9f\\xba\\xe7\\xa1\\x80/\\xe7\\xbb\\x93\\xe6\\x9e\\x84\\xe4\\xbd\\x93struct.sol\":1162:1169  newYear */\n      dup1\n        /* \"solidity\\xe5\\x9f\\xba\\xe7\\xa1\\x80/\\xe7\\xbb\\x93\\xe6\\x9e\\x84\\xe4\\xbd\\x93struct.sol\":1143:1147  cars */\n      0x00\n        /* \"solidity\\xe5\\x9f\\xba\\xe7\\xa1\\x80/\\xe7\\xbb\\x93\\xe6\\x9e\\x84\\xe4\\xbd\\x93struct.sol\":1148:1153  index */\n      dup4\n        /* \"solidity\\xe5\\x9f\\xba\\xe7\\xa1\\x80/\\xe7\\xbb\\x93\\xe6\\x9e\\x84\\xe4\\xbd\\x93struct.sol\":1143:1154  cars[index] */\n      dup2\n      sload\n      dup2\n      lt\n      tag_28\n      jumpi\n      tag_29\n      tag_30\n      jump\t// in\n    tag_29:\n    tag_28:\n      swap1\n      0x00\n      mstore\n      keccak256(0x00, 0x20)\n      swap1\n      0x03\n      mul\n      add\n        /* \"solidity\\xe5\\x9f\\xba\\xe7\\xa1\\x80/\\xe7\\xbb\\x93\\xe6\\x9e\\x84\\xe4\\xbd\\x93struct.sol\":1143:1159  cars[index].year */\n      0x01\n      add\n        /* \"solidity\\xe5\\x9f\\xba\\xe7\\xa1\\x80/\\xe7\\xbb\\x93\\xe6\\x9e\\x84\\xe4\\xbd\\x93struct.sol\":1143:1169  cars[index].year = newYear */\n      dup2\n      swap1\n      sstore\n      pop\n        /* \"solidity\\xe5\\x9f\\xba\\xe7\\xa1\\x80/\\xe7\\xbb\\x93\\xe6\\x9e\\x84\\xe4\\xbd\\x93struct.sol\":1082:1177  function modify(uint index,uint newYear) external {... */\n      pop\n      pop\n      jump\t// out\n        /* \"solidity\\xe5\\x9f\\xba\\xe7\\xa1\\x80/\\xe7\\xbb\\x93\\xe6\\x9e\\x84\\xe4\\xbd\\x93struct.sol\":1342:1416  function delCar(uint index) external {... */\n    tag_15:\n        /* \"solidity\\xe5\\x9f\\xba\\xe7\\xa1\\x80/\\xe7\\xbb\\x93\\xe6\\x9e\\x84\\xe4\\xbd\\x93struct.sol\":1397:1401  cars */\n      0x00\n        /* \"solidity\\xe5\\x9f\\xba\\xe7\\xa1\\x80/\\xe7\\xbb\\x93\\xe6\\x9e\\x84\\xe4\\xbd\\x93struct.sol\":1402:1407  index */\n      dup2\n        /* \"solidity\\xe5\\x9f\\xba\\xe7\\xa1\\x80/\\xe7\\xbb\\x93\\xe6\\x9e\\x84\\xe4\\xbd\\x93struct.sol\":1397:1408  cars[index] */\n      dup2\n      sload\n      dup2\n      lt\n      tag_33\n      jumpi\n      tag_34\n      tag_30\n      jump\t// in\n    tag_34:\n    tag_33:\n      swap1\n      0x00\n      mstore\n      keccak256(0x00, 0x20)\n      swap1\n      0x03\n      mul\n      add\n      0x00\n        /* \"solidity\\xe5\\x9f\\xba\\xe7\\xa1\\x80/\\xe7\\xbb\\x93\\xe6\\x9e\\x84\\xe4\\xbd\\x93struct.sol\":1390:1408  delete cars[index] */\n      0x00\n      dup3\n      add\n      0x00\n      tag_36\n      swap2\n      swap1\n      tag_37\n      jump\t// in\n    tag_36:\n      0x01\n      dup3\n      add\n      0x00\n      swap1\n      sstore\n      0x02\n      dup3\n      add\n      exp(0x0100, 0x00)\n      dup2\n      sload\n      swap1\n      0xffffffffffffffffffffffffffffffffffffffff\n      mul\n      not\n      and\n      swap1\n      sstore\n      pop\n      pop\n        /* \"solidity\\xe5\\x9f\\xba\\xe7\\xa1\\x80/\\xe7\\xbb\\x93\\xe6\\x9e\\x84\\xe4\\xbd\\x93struct.sol\":1342:1416  function delCar(uint index) external {... */\n      pop\n      jump\t// out\n        /* \"solidity\\xe5\\x9f\\xba\\xe7\\xa1\\x80/\\xe7\\xbb\\x93\\xe6\\x9e\\x84\\xe4\\xbd\\x93struct.sol\":1185:1334  function addCar(string memory maker,uint year) external {... */\n    tag_19:\n        /* \"solidity\\xe5\\x9f\\xba\\xe7\\xa1\\x80/\\xe7\\xbb\\x93\\xe6\\x9e\\x84\\xe4\\xbd\\x93struct.sol\":1252:1269  Car memory newCar */\n      0x00\n        /* \"solidity\\xe5\\x9f\\xba\\xe7\\xa1\\x80/\\xe7\\xbb\\x93\\xe6\\x9e\\x84\\xe4\\xbd\\x93struct.sol\":1272:1298  Car(maker,year,msg.sender) */\n      mload(0x40)\n      dup1\n      0x60\n      add\n      0x40\n      mstore\n      dup1\n        /* \"solidity\\xe5\\x9f\\xba\\xe7\\xa1\\x80/\\xe7\\xbb\\x93\\xe6\\x9e\\x84\\xe4\\xbd\\x93struct.sol\":1276:1281  maker */\n      dup5\n        /* \"solidity\\xe5\\x9f\\xba\\xe7\\xa1\\x80/\\xe7\\xbb\\x93\\xe6\\x9e\\x84\\xe4\\xbd\\x93struct.sol\":1272:1298  Car(maker,year,msg.sender) */\n      dup2\n      mstore\n      0x20\n      add\n        /* \"solidity\\xe5\\x9f\\xba\\xe7\\xa1\\x80/\\xe7\\xbb\\x93\\xe6\\x9e\\x84\\xe4\\xbd\\x93struct.sol\":1282:1286  year */\n      dup4\n        /* \"solidity\\xe5\\x9f\\xba\\xe7\\xa1\\x80/\\xe7\\xbb\\x93\\xe6\\x9e\\x84\\xe4\\xbd\\x93struct.sol\":1272:1298  Car(maker,year,msg.sender) */\n      dup2\n      mstore\n      0x20\n      add\n        /* \"solidity\\xe5\\x9f\\xba\\xe7\\xa1\\x80/\\xe7\\xbb\\x93\\xe6\\x9e\\x84\\xe4\\xbd\\x93struct.sol\":1287:1297  msg.sender */\n      caller\n        /* \"solidity\\xe5\\x9f\\xba\\xe7\\xa1\\x80/\\xe7\\xbb\\x93\\xe6\\x9e\\x84\\xe4\\xbd\\x93struct.sol\":1272:1298  Car(maker,year,msg.sender) */\n      0xffffffffffffffffffffffffffffffffffffffff\n      and\n      dup2\n      mstore\n      pop\n        /* \"solidity\\xe5\\x9f\\xba\\xe7\\xa1\\x80/\\xe7\\xbb\\x93\\xe6\\x9e\\x84\\xe4\\xbd\\x93struct.sol\":1252:1298  Car memory newCar = Car(maker,year,msg.sender) */\n      swap1\n      pop\n        /* \"solidity\\xe5\\x9f\\xba\\xe7\\xa1\\x80/\\xe7\\xbb\\x93\\xe6\\x9e\\x84\\xe4\\xbd\\x93struct.sol\":1309:1313  cars */\n      0x00\n        /* \"solidity\\xe5\\x9f\\xba\\xe7\\xa1\\x80/\\xe7\\xbb\\x93\\xe6\\x9e\\x84\\xe4\\xbd\\x93struct.sol\":1319:1325  newCar */\n      dup2\n        /* \"solidity\\xe5\\x9f\\xba\\xe7\\xa1\\x80/\\xe7\\xbb\\x93\\xe6\\x9e\\x84\\xe4\\xbd\\x93struct.sol\":1309:1326  cars.push(newCar) */\n      swap1\n      dup1\n      0x01\n      dup2\n      sload\n      add\n      dup1\n      dup3\n      sstore\n      dup1\n      swap2\n      pop\n      pop\n      0x01\n      swap1\n      sub\n      swap1\n      0x00\n      mstore\n      keccak256(0x00, 0x20)\n      swap1\n      0x03\n      mul\n      add\n      0x00\n      swap1\n      swap2\n      swap1\n      swap2\n      swap1\n      swap2\n      pop\n      0x00\n      dup3\n      add\n      mload\n      dup2\n      0x00\n      add\n      swap1\n      dup2\n      tag_40\n      swap2\n      swap1\n      tag_41\n      jump\t// in\n    tag_40:\n      pop\n      0x20\n      dup3\n      add\n      mload\n      dup2\n      0x01\n      add\n      sstore\n      0x40\n      dup3\n      add\n      mload\n      dup2\n      0x02\n      add\n      exp(0x0100, 0x00)\n      dup2\n      sload\n      dup2\n      0xffffffffffffffffffffffffffffffffffffffff\n      mul\n      not\n      and\n      swap1\n      dup4\n      0xffffffffffffffffffffffffffffffffffffffff\n      and\n      mul\n      or\n      swap1\n      sstore\n      pop\n      pop\n      pop\n        /* \"solidity\\xe5\\x9f\\xba\\xe7\\xa1\\x80/\\xe7\\xbb\\x93\\xe6\\x9e\\x84\\xe4\\xbd\\x93struct.sol\":1241:1334  {... */\n      pop\n        /* \"solidity\\xe5\\x9f\\xba\\xe7\\xa1\\x80/\\xe7\\xbb\\x93\\xe6\\x9e\\x84\\xe4\\xbd\\x93struct.sol\":1185:1334  function addCar(string memory maker,uint year) external {... */\n      pop\n      pop\n      jump\t// out\n        /* \"solidity\\xe5\\x9f\\xba\\xe7\\xa1\\x80/\\xe7\\xbb\\x93\\xe6\\x9e\\x84\\xe4\\xbd\\x93struct.sol\":622:1074  function init() external  {... */\n    tag_21:\n        /* \"solidity\\xe5\\x9f\\xba\\xe7\\xa1\\x80/\\xe7\\xbb\\x93\\xe6\\x9e\\x84\\xe4\\xbd\\x93struct.sol\":659:676  Car memory toyota */\n      0x00\n        /* \"solidity\\xe5\\x9f\\xba\\xe7\\xa1\\x80/\\xe7\\xbb\\x93\\xe6\\x9e\\x84\\xe4\\xbd\\x93struct.sol\":679:710  Car(\"Toyota\", 2000, msg.sender) */\n      mload(0x40)\n      dup1\n      0x60\n      add\n      0x40\n      mstore\n      dup1\n      mload(0x40)\n      dup1\n      0x40\n      add\n      0x40\n      mstore\n      dup1\n      0x06\n      dup2\n      mstore\n      0x20\n      add\n      0x546f796f74610000000000000000000000000000000000000000000000000000\n      dup2\n      mstore\n      pop\n      dup2\n      mstore\n      0x20\n      add\n        /* \"solidity\\xe5\\x9f\\xba\\xe7\\xa1\\x80/\\xe7\\xbb\\x93\\xe6\\x9e\\x84\\xe4\\xbd\\x93struct.sol\":693:697  2000 */\n      0x07d0\n        /* \"solidity\\xe5\\x9f\\xba\\xe7\\xa1\\x80/\\xe7\\xbb\\x93\\xe6\\x9e\\x84\\xe4\\xbd\\x93struct.sol\":679:710  Car(\"Toyota\", 2000, msg.sender) */\n      dup2\n      mstore\n      0x20\n      add\n        /* \"solidity\\xe5\\x9f\\xba\\xe7\\xa1\\x80/\\xe7\\xbb\\x93\\xe6\\x9e\\x84\\xe4\\xbd\\x93struct.sol\":699:709  msg.sender */\n      caller\n        /* \"solidity\\xe5\\x9f\\xba\\xe7\\xa1\\x80/\\xe7\\xbb\\x93\\xe6\\x9e\\x84\\xe4\\xbd\\x93struct.sol\":679:710  Car(\"Toyota\", 2000, msg.sender) */\n      0xffffffffffffffffffffffffffffffffffffffff\n      and\n      dup2\n      mstore\n      pop\n        /* \"solidity\\xe5\\x9f\\xba\\xe7\\xa1\\x80/\\xe7\\xbb\\x93\\xe6\\x9e\\x84\\xe4\\xbd\\x93struct.sol\":659:710  Car memory toyota = Car(\"Toyota\", 2000, msg.sender) */\n      swap1\n      pop\n        /* \"solidity\\xe5\\x9f\\xba\\xe7\\xa1\\x80/\\xe7\\xbb\\x93\\xe6\\x9e\\x84\\xe4\\xbd\\x93struct.sol\":721:725  cars */\n      0x00\n        /* \"solidity\\xe5\\x9f\\xba\\xe7\\xa1\\x80/\\xe7\\xbb\\x93\\xe6\\x9e\\x84\\xe4\\xbd\\x93struct.sol\":731:737  toyota */\n      dup2\n        /* \"solidity\\xe5\\x9f\\xba\\xe7\\xa1\\x80/\\xe7\\xbb\\x93\\xe6\\x9e\\x84\\xe4\\xbd\\x93struct.sol\":721:738  cars.push(toyota) */\n      swap1\n      dup1\n      0x01\n      dup2\n      sload\n      add\n      dup1\n      dup3\n      sstore\n      dup1\n      swap2\n      pop\n      pop\n      0x01\n      swap1\n      sub\n      swap1\n      0x00\n      mstore\n      keccak256(0x00, 0x20)\n      swap1\n      0x03\n      mul\n      add\n      0x00\n      swap1\n      swap2\n      swap1\n      swap2\n      swap1\n      swap2\n      pop\n      0x00\n      dup3\n      add\n      mload\n      dup2\n      0x00\n      add\n      swap1\n      dup2\n      tag_44\n      swap2\n      swap1\n      tag_41\n      jump\t// in\n    tag_44:\n      pop\n      0x20\n      dup3\n      add\n      mload\n      dup2\n      0x01\n      add\n      sstore\n      0x40\n      dup3\n      add\n      mload\n      dup2\n      0x02\n      add\n      exp(0x0100, 0x00)\n      dup2\n      sload\n      dup2\n      0xffffffffffffffffffffffffffffffffffffffff\n      mul\n      not\n      and\n      swap1\n      dup4\n      0xffffffffffffffffffffffffffffffffffffffff\n      and\n      mul\n      or\n      swap1\n      sstore\n      pop\n      pop\n      pop\n        /* \"solidity\\xe5\\x9f\\xba\\xe7\\xa1\\x80/\\xe7\\xbb\\x93\\xe6\\x9e\\x84\\xe4\\xbd\\x93struct.sol\":749:763  Car memory bmw */\n      0x00\n        /* \"solidity\\xe5\\x9f\\xba\\xe7\\xa1\\x80/\\xe7\\xbb\\x93\\xe6\\x9e\\x84\\xe4\\xbd\\x93struct.sol\":766:812  Car({make:\"BMW\",owner: msg.sender, year:1990}) */\n      mload(0x40)\n      dup1\n      0x60\n      add\n      0x40\n      mstore\n      dup1\n      mload(0x40)\n      dup1\n      0x40\n      add\n      0x40\n      mstore\n      dup1\n      0x03\n      dup2\n      mstore\n      0x20\n      add\n      0x424d570000000000000000000000000000000000000000000000000000000000\n      dup2\n      mstore\n      pop\n      dup2\n      mstore\n      0x20\n      add\n        /* \"solidity\\xe5\\x9f\\xba\\xe7\\xa1\\x80/\\xe7\\xbb\\x93\\xe6\\x9e\\x84\\xe4\\xbd\\x93struct.sol\":806:810  1990 */\n      0x07c6\n        /* \"solidity\\xe5\\x9f\\xba\\xe7\\xa1\\x80/\\xe7\\xbb\\x93\\xe6\\x9e\\x84\\xe4\\xbd\\x93struct.sol\":766:812  Car({make:\"BMW\",owner: msg.sender, year:1990}) */\n      dup2\n      mstore\n      0x20\n      add\n        /* \"solidity\\xe5\\x9f\\xba\\xe7\\xa1\\x80/\\xe7\\xbb\\x93\\xe6\\x9e\\x84\\xe4\\xbd\\x93struct.sol\":789:799  msg.sender */\n      caller\n        /* \"solidity\\xe5\\x9f\\xba\\xe7\\xa1\\x80/\\xe7\\xbb\\x93\\xe6\\x9e\\x84\\xe4\\xbd\\x93struct.sol\":766:812  Car({make:\"BMW\",owner: msg.sender, year:1990}) */\n      0xffffffffffffffffffffffffffffffffffffffff\n      and\n      dup2\n      mstore\n      pop\n        /* \"solidity\\xe5\\x9f\\xba\\xe7\\xa1\\x80/\\xe7\\xbb\\x93\\xe6\\x9e\\x84\\xe4\\xbd\\x93struct.sol\":749:812  Car memory bmw = Car({make:\"BMW\",owner: msg.sender, year:1990}) */\n      swap1\n      pop\n        /* \"solidity\\xe5\\x9f\\xba\\xe7\\xa1\\x80/\\xe7\\xbb\\x93\\xe6\\x9e\\x84\\xe4\\xbd\\x93struct.sol\":823:827  cars */\n      0x00\n        /* \"solidity\\xe5\\x9f\\xba\\xe7\\xa1\\x80/\\xe7\\xbb\\x93\\xe6\\x9e\\x84\\xe4\\xbd\\x93struct.sol\":833:836  bmw */\n      dup2\n        /* \"solidity\\xe5\\x9f\\xba\\xe7\\xa1\\x80/\\xe7\\xbb\\x93\\xe6\\x9e\\x84\\xe4\\xbd\\x93struct.sol\":823:837  cars.push(bmw) */\n      swap1\n      dup1\n      0x01\n      dup2\n      sload\n      add\n      dup1\n      dup3\n      sstore\n      dup1\n      swap2\n      pop\n      pop\n      0x01\n      swap1\n      sub\n      swap1\n      0x00\n      mstore\n      keccak256(0x00, 0x20)\n      swap1\n      0x03\n      mul\n      add\n      0x00\n      swap1\n      swap2\n      swap1\n      swap2\n      swap1\n      swap2\n      pop\n      0x00\n      dup3\n      add\n      mload\n      dup2\n      0x00\n      add\n      swap1\n      dup2\n      tag_46\n      swap2\n      swap1\n      tag_41\n      jump\t// in\n    tag_46:\n      pop\n      0x20\n      dup3\n      add\n      mload\n      dup2\n      0x01\n      add\n      sstore\n      0x40\n      dup3\n      add\n      mload\n      dup2\n      0x02\n      add\n      exp(0x0100, 0x00)\n      dup2\n      sload\n      dup2\n      0xffffffffffffffffffffffffffffffffffffffff\n      mul\n      not\n      and\n      swap1\n      dup4\n      0xffffffffffffffffffffffffffffffffffffffff\n      and\n      mul\n      or\n      swap1\n      sstore\n      pop\n      pop\n      pop\n        /* \"solidity\\xe5\\x9f\\xba\\xe7\\xa1\\x80/\\xe7\\xbb\\x93\\xe6\\x9e\\x84\\xe4\\xbd\\x93struct.sol\":848:864  Car memory tesla */\n      tag_47\n      tag_48\n      jump\t// in\n    tag_47:\n        /* \"solidity\\xe5\\x9f\\xba\\xe7\\xa1\\x80/\\xe7\\xbb\\x93\\xe6\\x9e\\x84\\xe4\\xbd\\x93struct.sol\":875:895  tesla.make = \"Tesla\" */\n      mload(0x40)\n      dup1\n      0x40\n      add\n      0x40\n      mstore\n      dup1\n      0x05\n      dup2\n      mstore\n      0x20\n      add\n      0x5465736c61000000000000000000000000000000000000000000000000000000\n      dup2\n      mstore\n      pop\n        /* \"solidity\\xe5\\x9f\\xba\\xe7\\xa1\\x80/\\xe7\\xbb\\x93\\xe6\\x9e\\x84\\xe4\\xbd\\x93struct.sol\":875:880  tesla */\n      dup2\n        /* \"solidity\\xe5\\x9f\\xba\\xe7\\xa1\\x80/\\xe7\\xbb\\x93\\xe6\\x9e\\x84\\xe4\\xbd\\x93struct.sol\":875:885  tesla.make */\n      0x00\n      add\n        /* \"solidity\\xe5\\x9f\\xba\\xe7\\xa1\\x80/\\xe7\\xbb\\x93\\xe6\\x9e\\x84\\xe4\\xbd\\x93struct.sol\":875:895  tesla.make = \"Tesla\" */\n      dup2\n      swap1\n      mstore\n      pop\n        /* \"solidity\\xe5\\x9f\\xba\\xe7\\xa1\\x80/\\xe7\\xbb\\x93\\xe6\\x9e\\x84\\xe4\\xbd\\x93struct.sol\":906:910  cars */\n      0x00\n        /* \"solidity\\xe5\\x9f\\xba\\xe7\\xa1\\x80/\\xe7\\xbb\\x93\\xe6\\x9e\\x84\\xe4\\xbd\\x93struct.sol\":916:921  tesla */\n      dup2\n        /* \"solidity\\xe5\\x9f\\xba\\xe7\\xa1\\x80/\\xe7\\xbb\\x93\\xe6\\x9e\\x84\\xe4\\xbd\\x93struct.sol\":906:922  cars.push(tesla) */\n      swap1\n      dup1\n      0x01\n      dup2\n      sload\n      add\n      dup1\n      dup3\n      sstore\n      dup1\n      swap2\n      pop\n      pop\n      0x01\n      swap1\n      sub\n      swap1\n      0x00\n      mstore\n      keccak256(0x00, 0x20)\n      swap1\n      0x03\n      mul\n      add\n      0x00\n      swap1\n      swap2\n      swap1\n      swap2\n      swap1\n      swap2\n      pop\n      0x00\n      dup3\n      add\n      mload\n      dup2\n      0x00\n      add\n      swap1\n      dup2\n      tag_50\n      swap2\n      swap1\n      tag_41\n      jump\t// in\n    tag_50:\n      pop\n      0x20\n      dup3\n      add\n      mload\n      dup2\n      0x01\n      add\n      sstore\n      0x40\n      dup3\n      add\n      mload\n      dup2\n      0x02\n      add\n      exp(0x0100, 0x00)\n      dup2\n      sload\n      dup2\n      0xffffffffffffffffffffffffffffffffffffffff\n      mul\n      not\n      and\n      swap1\n      dup4\n      0xffffffffffffffffffffffffffffffffffffffff\n      and\n      mul\n      or\n      swap1\n      sstore\n      pop\n      pop\n      pop\n        /* \"solidity\\xe5\\x9f\\xba\\xe7\\xa1\\x80/\\xe7\\xbb\\x93\\xe6\\x9e\\x84\\xe4\\xbd\\x93struct.sol\":935:939  cars */\n      0x00\n        /* \"solidity\\xe5\\x9f\\xba\\xe7\\xa1\\x80/\\xe7\\xbb\\x93\\xe6\\x9e\\x84\\xe4\\xbd\\x93struct.sol\":945:974  Car(\"xiaomi\",2024,msg.sender) */\n      mload(0x40)\n      dup1\n      0x60\n      add\n      0x40\n      mstore\n      dup1\n      mload(0x40)\n      dup1\n      0x40\n      add\n      0x40\n      mstore\n      dup1\n      0x06\n      dup2\n      mstore\n      0x20\n      add\n      0x7869616f6d690000000000000000000000000000000000000000000000000000\n      dup2\n      mstore\n      pop\n      dup2\n      mstore\n      0x20\n      add\n        /* \"solidity\\xe5\\x9f\\xba\\xe7\\xa1\\x80/\\xe7\\xbb\\x93\\xe6\\x9e\\x84\\xe4\\xbd\\x93struct.sol\":958:962  2024 */\n      0x07e8\n        /* \"solidity\\xe5\\x9f\\xba\\xe7\\xa1\\x80/\\xe7\\xbb\\x93\\xe6\\x9e\\x84\\xe4\\xbd\\x93struct.sol\":945:974  Car(\"xiaomi\",2024,msg.sender) */\n      dup2\n      mstore\n      0x20\n      add\n        /* \"solidity\\xe5\\x9f\\xba\\xe7\\xa1\\x80/\\xe7\\xbb\\x93\\xe6\\x9e\\x84\\xe4\\xbd\\x93struct.sol\":963:973  msg.sender */\n      caller\n        /* \"solidity\\xe5\\x9f\\xba\\xe7\\xa1\\x80/\\xe7\\xbb\\x93\\xe6\\x9e\\x84\\xe4\\xbd\\x93struct.sol\":945:974  Car(\"xiaomi\",2024,msg.sender) */\n      0xffffffffffffffffffffffffffffffffffffffff\n      and\n      dup2\n      mstore\n      pop\n        /* \"solidity\\xe5\\x9f\\xba\\xe7\\xa1\\x80/\\xe7\\xbb\\x93\\xe6\\x9e\\x84\\xe4\\xbd\\x93struct.sol\":935:975  cars.push(Car(\"xiaomi\",2024,msg.sender)) */\n      swap1\n      dup1\n      0x01\n      dup2\n      sload\n      add\n      dup1\n      dup3\n      sstore\n      dup1\n      swap2\n      pop\n      pop\n      0x01\n      swap1\n      sub\n      swap1\n      0x00\n      mstore\n      keccak256(0x00, 0x20)\n      swap1\n      0x03\n      mul\n      add\n      0x00\n      swap1\n      swap2\n      swap1\n      swap2\n      swap1\n      swap2\n      pop\n      0x00\n      dup3\n      add\n      mload\n      dup2\n      0x00\n      add\n      swap1\n      dup2\n      tag_52\n      swap2\n      swap1\n      tag_41\n      jump\t// in\n    tag_52:\n      pop\n      0x20\n      dup3\n      add\n      mload\n      dup2\n      0x01\n      add\n      sstore\n      0x40\n      dup3\n      add\n      mload\n      dup2\n      0x02\n      add\n      exp(0x0100, 0x00)\n      dup2\n      sload\n      dup2\n      0xffffffffffffffffffffffffffffffffffffffff\n      mul\n      not\n      and\n      swap1\n      dup4\n      0xffffffffffffffffffffffffffffffffffffffff\n      and\n      mul\n      or\n      swap1\n      sstore\n      pop\n      pop\n      pop\n        /* \"solidity\\xe5\\x9f\\xba\\xe7\\xa1\\x80/\\xe7\\xbb\\x93\\xe6\\x9e\\x84\\xe4\\xbd\\x93struct.sol\":988:1003  Car storage car */\n      0x00\n        /* \"solidity\\xe5\\x9f\\xba\\xe7\\xa1\\x80/\\xe7\\xbb\\x93\\xe6\\x9e\\x84\\xe4\\xbd\\x93struct.sol\":1006:1010  cars */\n      0x00\n        /* \"solidity\\xe5\\x9f\\xba\\xe7\\xa1\\x80/\\xe7\\xbb\\x93\\xe6\\x9e\\x84\\xe4\\xbd\\x93struct.sol\":1011:1012  0 */\n      0x00\n        /* \"solidity\\xe5\\x9f\\xba\\xe7\\xa1\\x80/\\xe7\\xbb\\x93\\xe6\\x9e\\x84\\xe4\\xbd\\x93struct.sol\":1006:1013  cars[0] */\n      dup2\n      sload\n      dup2\n      lt\n      tag_53\n      jumpi\n      tag_54\n      tag_30\n      jump\t// in\n    tag_54:\n    tag_53:\n      swap1\n      0x00\n      mstore\n      keccak256(0x00, 0x20)\n      swap1\n      0x03\n      mul\n      add\n        /* \"solidity\\xe5\\x9f\\xba\\xe7\\xa1\\x80/\\xe7\\xbb\\x93\\xe6\\x9e\\x84\\xe4\\xbd\\x93struct.sol\":988:1013  Car storage car = cars[0] */\n      swap1\n      pop\n        /* \"solidity\\xe5\\x9f\\xba\\xe7\\xa1\\x80/\\xe7\\xbb\\x93\\xe6\\x9e\\x84\\xe4\\xbd\\x93struct.sol\":1035:1039  1999 */\n      0x07cf\n        /* \"solidity\\xe5\\x9f\\xba\\xe7\\xa1\\x80/\\xe7\\xbb\\x93\\xe6\\x9e\\x84\\xe4\\xbd\\x93struct.sol\":1024:1027  car */\n      dup2\n        /* \"solidity\\xe5\\x9f\\xba\\xe7\\xa1\\x80/\\xe7\\xbb\\x93\\xe6\\x9e\\x84\\xe4\\xbd\\x93struct.sol\":1024:1032  car.year */\n      0x01\n      add\n        /* \"solidity\\xe5\\x9f\\xba\\xe7\\xa1\\x80/\\xe7\\xbb\\x93\\xe6\\x9e\\x84\\xe4\\xbd\\x93struct.sol\":1024:1039  car.year = 1999 */\n      dup2\n      swap1\n      sstore\n      pop\n        /* \"solidity\\xe5\\x9f\\xba\\xe7\\xa1\\x80/\\xe7\\xbb\\x93\\xe6\\x9e\\x84\\xe4\\xbd\\x93struct.sol\":1057:1060  car */\n      dup1\n        /* \"solidity\\xe5\\x9f\\xba\\xe7\\xa1\\x80/\\xe7\\xbb\\x93\\xe6\\x9e\\x84\\xe4\\xbd\\x93struct.sol\":1057:1066  car.owner */\n      0x02\n      add\n      0x00\n        /* \"solidity\\xe5\\x9f\\xba\\xe7\\xa1\\x80/\\xe7\\xbb\\x93\\xe6\\x9e\\x84\\xe4\\xbd\\x93struct.sol\":1050:1066  delete car.owner */\n      0x0100\n      exp\n      dup2\n      sload\n      swap1\n      0xffffffffffffffffffffffffffffffffffffffff\n      mul\n      not\n      and\n      swap1\n      sstore\n        /* \"solidity\\xe5\\x9f\\xba\\xe7\\xa1\\x80/\\xe7\\xbb\\x93\\xe6\\x9e\\x84\\xe4\\xbd\\x93struct.sol\":648:1074  {... */\n      pop\n      pop\n      pop\n      pop\n        /* \"solidity\\xe5\\x9f\\xba\\xe7\\xa1\\x80/\\xe7\\xbb\\x93\\xe6\\x9e\\x84\\xe4\\xbd\\x93struct.sol\":622:1074  function init() external  {... */\n      jump\t// out\n        /* \"solidity\\xe5\\x9f\\xba\\xe7\\xa1\\x80/\\xe7\\xbb\\x93\\xe6\\x9e\\x84\\xe4\\xbd\\x93struct.sol\":596:613  Car[] public cars */\n    tag_24:\n      0x00\n      dup2\n      dup2\n      sload\n      dup2\n      lt\n      tag_56\n      jumpi\n      0x00\n      dup1\n      revert\n    tag_56:\n      swap1\n      0x00\n      mstore\n      keccak256(0x00, 0x20)\n      swap1\n      0x03\n      mul\n      add\n      0x00\n      swap2\n      pop\n      swap1\n      pop\n      dup1\n      0x00\n      add\n      dup1\n      sload\n      tag_58\n      swap1\n      tag_59\n      jump\t// in\n    tag_58:\n      dup1\n      0x1f\n      add\n      0x20\n      dup1\n      swap2\n      div\n      mul\n      0x20\n      add\n      mload(0x40)\n      swap1\n      dup2\n      add\n      0x40\n      mstore\n      dup1\n      swap3\n      swap2\n      swap1\n      dup2\n      dup2\n      mstore\n      0x20\n      add\n      dup3\n      dup1\n      sload\n      tag_60\n      swap1\n      tag_59\n      jump\t// in\n    tag_60:\n      dup1\n      iszero\n      tag_61\n      jumpi\n      dup1\n      0x1f\n      lt\n      tag_62\n      jumpi\n      0x0100\n      dup1\n      dup4\n      sload\n      div\n      mul\n      dup4\n      mstore\n      swap2\n      0x20\n      add\n      swap2\n      jump(tag_61)\n    tag_62:\n      dup3\n      add\n      swap2\n      swap1\n      0x00\n      mstore\n      keccak256(0x00, 0x20)\n      swap1\n    tag_63:\n      dup2\n      sload\n      dup2\n      mstore\n      swap1\n      0x01\n      add\n      swap1\n      0x20\n      add\n      dup1\n      dup4\n      gt\n      tag_63\n      jumpi\n      dup3\n      swap1\n      sub\n      0x1f\n      and\n      dup3\n      add\n      swap2\n    tag_61:\n      pop\n      pop\n      pop\n      pop\n      pop\n      swap1\n      dup1\n      0x01\n      add\n      sload\n      swap1\n      dup1\n      0x02\n      add\n      0x00\n      swap1\n      sload\n      swap1\n      0x0100\n      exp\n      swap1\n      div\n      0xffffffffffffffffffffffffffffffffffffffff\n      and\n      swap1\n      pop\n      dup4\n      jump\t// out\n    tag_37:\n      pop\n      dup1\n      sload\n      tag_64\n      swap1\n      tag_59\n      jump\t// in\n    tag_64:\n      0x00\n      dup3\n      sstore\n      dup1\n      0x1f\n      lt\n      tag_66\n      jumpi\n      pop\n      pop\n      jump(tag_65)\n    tag_66:\n      0x1f\n      add\n      0x20\n      swap1\n      div\n      swap1\n      0x00\n      mstore\n      keccak256(0x00, 0x20)\n      swap1\n      tag_67\n      swap2\n      swap1\n      tag_68\n      jump\t// in\n    tag_67:\n    tag_65:\n      jump\t// out\n    tag_48:\n      mload(0x40)\n      dup1\n      0x60\n      add\n      0x40\n      mstore\n      dup1\n      0x60\n      dup2\n      mstore\n      0x20\n      add\n      0x00\n      dup2\n      mstore\n      0x20\n      add\n      and(0xffffffffffffffffffffffffffffffffffffffff, 0x00)\n      dup2\n      mstore\n      pop\n      swap1\n      jump\t// out\n    tag_68:\n      0x00\n    tag_69:\n      dup1\n      dup3\n      gt\n      iszero\n      tag_70\n      jumpi\n      dup3\n      dup2\n      add\n      0x00\n      swap1\n      sstore\n      0x01\n      add\n      jump(tag_69)\n    tag_70:\n      pop\n      pop\n      pop\n      jump\t// out\n        /* \"#utility.yul\":7:82   */\n    tag_71:\n        /* \"#utility.yul\":40:46   */\n      0x00\n        /* \"#utility.yul\":73:75   */\n      0x40\n        /* \"#utility.yul\":67:76   */\n      mload\n        /* \"#utility.yul\":57:76   */\n      swap1\n      pop\n        /* \"#utility.yul\":7:82   */\n      swap1\n      jump\t// out\n        /* \"#utility.yul\":88:205   */\n    tag_72:\n        /* \"#utility.yul\":197:198   */\n      0x00\n        /* \"#utility.yul\":194:195   */\n      0x00\n        /* \"#utility.yul\":187:199   */\n      revert\n        /* \"#utility.yul\":211:328   */\n    tag_73:\n        /* \"#utility.yul\":320:321   */\n      0x00\n        /* \"#utility.yul\":317:318   */\n      0x00\n        /* \"#utility.yul\":310:322   */\n      revert\n        /* \"#utility.yul\":334:411   */\n    tag_74:\n        /* \"#utility.yul\":371:378   */\n      0x00\n        /* \"#utility.yul\":400:405   */\n      dup2\n        /* \"#utility.yul\":389:405   */\n      swap1\n      pop\n        /* \"#utility.yul\":334:411   */\n      swap2\n      swap1\n      pop\n      jump\t// out\n        /* \"#utility.yul\":417:539   */\n    tag_75:\n        /* \"#utility.yul\":490:514   */\n      tag_117\n        /* \"#utility.yul\":508:513   */\n      dup2\n        /* \"#utility.yul\":490:514   */\n      tag_74\n      jump\t// in\n    tag_117:\n        /* \"#utility.yul\":483:488   */\n      dup2\n        /* \"#utility.yul\":480:515   */\n      eq\n        /* \"#utility.yul\":470:533   */\n      tag_118\n      jumpi\n        /* \"#utility.yul\":529:530   */\n      0x00\n        /* \"#utility.yul\":526:527   */\n      0x00\n        /* \"#utility.yul\":519:531   */\n      revert\n        /* \"#utility.yul\":470:533   */\n    tag_118:\n        /* \"#utility.yul\":417:539   */\n      pop\n      jump\t// out\n        /* \"#utility.yul\":545:684   */\n    tag_76:\n        /* \"#utility.yul\":591:596   */\n      0x00\n        /* \"#utility.yul\":629:635   */\n      dup2\n        /* \"#utility.yul\":616:636   */\n      calldataload\n        /* \"#utility.yul\":607:636   */\n      swap1\n      pop\n        /* \"#utility.yul\":645:678   */\n      tag_120\n        /* \"#utility.yul\":672:677   */\n      dup2\n        /* \"#utility.yul\":645:678   */\n      tag_75\n      jump\t// in\n    tag_120:\n        /* \"#utility.yul\":545:684   */\n      swap3\n      swap2\n      pop\n      pop\n      jump\t// out\n        /* \"#utility.yul\":690:1164   */\n    tag_10:\n        /* \"#utility.yul\":758:764   */\n      0x00\n        /* \"#utility.yul\":766:772   */\n      0x00\n        /* \"#utility.yul\":815:817   */\n      0x40\n        /* \"#utility.yul\":803:812   */\n      dup4\n        /* \"#utility.yul\":794:801   */\n      dup6\n        /* \"#utility.yul\":790:813   */\n      sub\n        /* \"#utility.yul\":786:818   */\n      slt\n        /* \"#utility.yul\":783:902   */\n      iszero\n      tag_122\n      jumpi\n        /* \"#utility.yul\":821:900   */\n      tag_123\n      tag_72\n      jump\t// in\n    tag_123:\n        /* \"#utility.yul\":783:902   */\n    tag_122:\n        /* \"#utility.yul\":941:942   */\n      0x00\n        /* \"#utility.yul\":966:1019   */\n      tag_124\n        /* \"#utility.yul\":1011:1018   */\n      dup6\n        /* \"#utility.yul\":1002:1008   */\n      dup3\n        /* \"#utility.yul\":991:1000   */\n      dup7\n        /* \"#utility.yul\":987:1009   */\n      add\n        /* \"#utility.yul\":966:1019   */\n      tag_76\n      jump\t// in\n    tag_124:\n        /* \"#utility.yul\":956:1019   */\n      swap3\n      pop\n        /* \"#utility.yul\":912:1029   */\n      pop\n        /* \"#utility.yul\":1068:1070   */\n      0x20\n        /* \"#utility.yul\":1094:1147   */\n      tag_125\n        /* \"#utility.yul\":1139:1146   */\n      dup6\n        /* \"#utility.yul\":1130:1136   */\n      dup3\n        /* \"#utility.yul\":1119:1128   */\n      dup7\n        /* \"#utility.yul\":1115:1137   */\n      add\n        /* \"#utility.yul\":1094:1147   */\n      tag_76\n      jump\t// in\n    tag_125:\n        /* \"#utility.yul\":1084:1147   */\n      swap2\n      pop\n        /* \"#utility.yul\":1039:1157   */\n      pop\n        /* \"#utility.yul\":690:1164   */\n      swap3\n      pop\n      swap3\n      swap1\n      pop\n      jump\t// out\n        /* \"#utility.yul\":1170:1499   */\n    tag_14:\n        /* \"#utility.yul\":1229:1235   */\n      0x00\n        /* \"#utility.yul\":1278:1280   */\n      0x20\n        /* \"#utility.yul\":1266:1275   */\n      dup3\n        /* \"#utility.yul\":1257:1264   */\n      dup5\n        /* \"#utility.yul\":1253:1276   */\n      sub\n        /* \"#utility.yul\":1249:1281   */\n      slt\n        /* \"#utility.yul\":1246:1365   */\n      iszero\n      tag_127\n      jumpi\n        /* \"#utility.yul\":1284:1363   */\n      tag_128\n      tag_72\n      jump\t// in\n    tag_128:\n        /* \"#utility.yul\":1246:1365   */\n    tag_127:\n        /* \"#utility.yul\":1404:1405   */\n      0x00\n        /* \"#utility.yul\":1429:1482   */\n      tag_129\n        /* \"#utility.yul\":1474:1481   */\n      dup5\n        /* \"#utility.yul\":1465:1471   */\n      dup3\n        /* \"#utility.yul\":1454:1463   */\n      dup6\n        /* \"#utility.yul\":1450:1472   */\n      add\n        /* \"#utility.yul\":1429:1482   */\n      tag_76\n      jump\t// in\n    tag_129:\n        /* \"#utility.yul\":1419:1482   */\n      swap2\n      pop\n        /* \"#utility.yul\":1375:1492   */\n      pop\n        /* \"#utility.yul\":1170:1499   */\n      swap3\n      swap2\n      pop\n      pop\n      jump\t// out\n        /* \"#utility.yul\":1505:1622   */\n    tag_77:\n        /* \"#utility.yul\":1614:1615   */\n      0x00\n        /* \"#utility.yul\":1611:1612   */\n      0x00\n        /* \"#utility.yul\":1604:1616   */\n      revert\n        /* \"#utility.yul\":1628:1745   */\n    tag_78:\n        /* \"#utility.yul\":1737:1738   */\n      0x00\n        /* \"#utility.yul\":1734:1735   */\n      0x00\n        /* \"#utility.yul\":1727:1739   */\n      revert\n        /* \"#utility.yul\":1751:1853   */\n    tag_79:\n        /* \"#utility.yul\":1792:1798   */\n      0x00\n        /* \"#utility.yul\":1843:1845   */\n      0x1f\n        /* \"#utility.yul\":1839:1846   */\n      not\n        /* \"#utility.yul\":1834:1836   */\n      0x1f\n        /* \"#utility.yul\":1827:1832   */\n      dup4\n        /* \"#utility.yul\":1823:1837   */\n      add\n        /* \"#utility.yul\":1819:1847   */\n      and\n        /* \"#utility.yul\":1809:1847   */\n      swap1\n      pop\n        /* \"#utility.yul\":1751:1853   */\n      swap2\n      swap1\n      pop\n      jump\t// out\n        /* \"#utility.yul\":1859:2039   */\n    tag_80:\n        /* \"#utility.yul\":1907:1984   */\n      0x4e487b7100000000000000000000000000000000000000000000000000000000\n        /* \"#utility.yul\":1904:1905   */\n      0x00\n        /* \"#utility.yul\":1897:1985   */\n      mstore\n        /* \"#utility.yul\":2004:2008   */\n      0x41\n        /* \"#utility.yul\":2001:2002   */\n      0x04\n        /* \"#utility.yul\":1994:2009   */\n      mstore\n        /* \"#utility.yul\":2028:2032   */\n      0x24\n        /* \"#utility.yul\":2025:2026   */\n      0x00\n        /* \"#utility.yul\":2018:2033   */\n      revert\n        /* \"#utility.yul\":2045:2326   */\n    tag_81:\n        /* \"#utility.yul\":2128:2155   */\n      tag_135\n        /* \"#utility.yul\":2150:2154   */\n      dup3\n        /* \"#utility.yul\":2128:2155   */\n      tag_79\n      jump\t// in\n    tag_135:\n        /* \"#utility.yul\":2120:2126   */\n      dup2\n        /* \"#utility.yul\":2116:2156   */\n      add\n        /* \"#utility.yul\":2258:2264   */\n      dup2\n        /* \"#utility.yul\":2246:2256   */\n      dup2\n        /* \"#utility.yul\":2243:2265   */\n      lt\n        /* \"#utility.yul\":2222:2240   */\n      0xffffffffffffffff\n        /* \"#utility.yul\":2210:2220   */\n      dup3\n        /* \"#utility.yul\":2207:2241   */\n      gt\n        /* \"#utility.yul\":2204:2266   */\n      or\n        /* \"#utility.yul\":2201:2289   */\n      iszero\n      tag_136\n      jumpi\n        /* \"#utility.yul\":2269:2287   */\n      tag_137\n      tag_80\n      jump\t// in\n    tag_137:\n        /* \"#utility.yul\":2201:2289   */\n    tag_136:\n        /* \"#utility.yul\":2309:2319   */\n      dup1\n        /* \"#utility.yul\":2305:2307   */\n      0x40\n        /* \"#utility.yul\":2298:2320   */\n      mstore\n        /* \"#utility.yul\":2088:2326   */\n      pop\n        /* \"#utility.yul\":2045:2326   */\n      pop\n      pop\n      jump\t// out\n        /* \"#utility.yul\":2332:2461   */\n    tag_82:\n        /* \"#utility.yul\":2366:2372   */\n      0x00\n        /* \"#utility.yul\":2393:2413   */\n      tag_139\n      tag_71\n      jump\t// in\n    tag_139:\n        /* \"#utility.yul\":2383:2413   */\n      swap1\n      pop\n        /* \"#utility.yul\":2422:2455   */\n      tag_140\n        /* \"#utility.yul\":2450:2454   */\n      dup3\n        /* \"#utility.yul\":2442:2448   */\n      dup3\n        /* \"#utility.yul\":2422:2455   */\n      tag_81\n      jump\t// in\n    tag_140:\n        /* \"#utility.yul\":2332:2461   */\n      swap2\n      swap1\n      pop\n      jump\t// out\n        /* \"#utility.yul\":2467:2775   */\n    tag_83:\n        /* \"#utility.yul\":2529:2533   */\n      0x00\n        /* \"#utility.yul\":2619:2637   */\n      0xffffffffffffffff\n        /* \"#utility.yul\":2611:2617   */\n      dup3\n        /* \"#utility.yul\":2608:2638   */\n      gt\n        /* \"#utility.yul\":2605:2661   */\n      iszero\n      tag_142\n      jumpi\n        /* \"#utility.yul\":2641:2659   */\n      tag_143\n      tag_80\n      jump\t// in\n    tag_143:\n        /* \"#utility.yul\":2605:2661   */\n    tag_142:\n        /* \"#utility.yul\":2679:2708   */\n      tag_144\n        /* \"#utility.yul\":2701:2707   */\n      dup3\n        /* \"#utility.yul\":2679:2708   */\n      tag_79\n      jump\t// in\n    tag_144:\n        /* \"#utility.yul\":2671:2708   */\n      swap1\n      pop\n        /* \"#utility.yul\":2763:2767   */\n      0x20\n        /* \"#utility.yul\":2757:2761   */\n      dup2\n        /* \"#utility.yul\":2753:2768   */\n      add\n        /* \"#utility.yul\":2745:2768   */\n      swap1\n      pop\n        /* \"#utility.yul\":2467:2775   */\n      swap2\n      swap1\n      pop\n      jump\t// out\n        /* \"#utility.yul\":2781:2929   */\n    tag_84:\n        /* \"#utility.yul\":2879:2885   */\n      dup3\n        /* \"#utility.yul\":2874:2877   */\n      dup2\n        /* \"#utility.yul\":2869:2872   */\n      dup4\n        /* \"#utility.yul\":2856:2886   */\n      calldatacopy\n        /* \"#utility.yul\":2920:2921   */\n      0x00\n        /* \"#utility.yul\":2911:2917   */\n      dup4\n        /* \"#utility.yul\":2906:2909   */\n      dup4\n        /* \"#utility.yul\":2902:2918   */\n      add\n        /* \"#utility.yul\":2895:2922   */\n      mstore\n        /* \"#utility.yul\":2781:2929   */\n      pop\n      pop\n      pop\n      jump\t// out\n        /* \"#utility.yul\":2935:3360   */\n    tag_85:\n        /* \"#utility.yul\":3013:3018   */\n      0x00\n        /* \"#utility.yul\":3038:3104   */\n      tag_147\n        /* \"#utility.yul\":3054:3103   */\n      tag_148\n        /* \"#utility.yul\":3096:3102   */\n      dup5\n        /* \"#utility.yul\":3054:3103   */\n      tag_83\n      jump\t// in\n    tag_148:\n        /* \"#utility.yul\":3038:3104   */\n      tag_82\n      jump\t// in\n    tag_147:\n        /* \"#utility.yul\":3029:3104   */\n      swap1\n      pop\n        /* \"#utility.yul\":3127:3133   */\n      dup3\n        /* \"#utility.yul\":3120:3125   */\n      dup2\n        /* \"#utility.yul\":3113:3134   */\n      mstore\n        /* \"#utility.yul\":3165:3169   */\n      0x20\n        /* \"#utility.yul\":3158:3163   */\n      dup2\n        /* \"#utility.yul\":3154:3170   */\n      add\n        /* \"#utility.yul\":3203:3206   */\n      dup5\n        /* \"#utility.yul\":3194:3200   */\n      dup5\n        /* \"#utility.yul\":3189:3192   */\n      dup5\n        /* \"#utility.yul\":3185:3201   */\n      add\n        /* \"#utility.yul\":3182:3207   */\n      gt\n        /* \"#utility.yul\":3179:3291   */\n      iszero\n      tag_149\n      jumpi\n        /* \"#utility.yul\":3210:3289   */\n      tag_150\n      tag_78\n      jump\t// in\n    tag_150:\n        /* \"#utility.yul\":3179:3291   */\n    tag_149:\n        /* \"#utility.yul\":3300:3354   */\n      tag_151\n        /* \"#utility.yul\":3347:3353   */\n      dup5\n        /* \"#utility.yul\":3342:3345   */\n      dup3\n        /* \"#utility.yul\":3337:3340   */\n      dup6\n        /* \"#utility.yul\":3300:3354   */\n      tag_84\n      jump\t// in\n    tag_151:\n        /* \"#utility.yul\":3019:3360   */\n      pop\n        /* \"#utility.yul\":2935:3360   */\n      swap4\n      swap3\n      pop\n      pop\n      pop\n      jump\t// out\n        /* \"#utility.yul\":3380:3720   */\n    tag_86:\n        /* \"#utility.yul\":3436:3441   */\n      0x00\n        /* \"#utility.yul\":3485:3488   */\n      dup3\n        /* \"#utility.yul\":3478:3482   */\n      0x1f\n        /* \"#utility.yul\":3470:3476   */\n      dup4\n        /* \"#utility.yul\":3466:3483   */\n      add\n        /* \"#utility.yul\":3462:3489   */\n      slt\n        /* \"#utility.yul\":3452:3574   */\n      tag_153\n      jumpi\n        /* \"#utility.yul\":3493:3572   */\n      tag_154\n      tag_77\n      jump\t// in\n    tag_154:\n        /* \"#utility.yul\":3452:3574   */\n    tag_153:\n        /* \"#utility.yul\":3610:3616   */\n      dup2\n        /* \"#utility.yul\":3597:3617   */\n      calldataload\n        /* \"#utility.yul\":3635:3714   */\n      tag_155\n        /* \"#utility.yul\":3710:3713   */\n      dup5\n        /* \"#utility.yul\":3702:3708   */\n      dup3\n        /* \"#utility.yul\":3695:3699   */\n      0x20\n        /* \"#utility.yul\":3687:3693   */\n      dup7\n        /* \"#utility.yul\":3683:3700   */\n      add\n        /* \"#utility.yul\":3635:3714   */\n      tag_85\n      jump\t// in\n    tag_155:\n        /* \"#utility.yul\":3626:3714   */\n      swap2\n      pop\n        /* \"#utility.yul\":3442:3720   */\n      pop\n        /* \"#utility.yul\":3380:3720   */\n      swap3\n      swap2\n      pop\n      pop\n      jump\t// out\n        /* \"#utility.yul\":3726:4380   */\n    tag_18:\n        /* \"#utility.yul\":3804:3810   */\n      0x00\n        /* \"#utility.yul\":3812:3818   */\n      0x00\n        /* \"#utility.yul\":3861:3863   */\n      0x40\n        /* \"#utility.yul\":3849:3858   */\n      dup4\n        /* \"#utility.yul\":3840:3847   */\n      dup6\n        /* \"#utility.yul\":3836:3859   */\n      sub\n        /* \"#utility.yul\":3832:3864   */\n      slt\n        /* \"#utility.yul\":3829:3948   */\n      iszero\n      tag_157\n      jumpi\n        /* \"#utility.yul\":3867:3946   */\n      tag_158\n      tag_72\n      jump\t// in\n    tag_158:\n        /* \"#utility.yul\":3829:3948   */\n    tag_157:\n        /* \"#utility.yul\":4015:4016   */\n      0x00\n        /* \"#utility.yul\":4004:4013   */\n      dup4\n        /* \"#utility.yul\":4000:4017   */\n      add\n        /* \"#utility.yul\":3987:4018   */\n      calldataload\n        /* \"#utility.yul\":4045:4063   */\n      0xffffffffffffffff\n        /* \"#utility.yul\":4037:4043   */\n      dup2\n        /* \"#utility.yul\":4034:4064   */\n      gt\n        /* \"#utility.yul\":4031:4148   */\n      iszero\n      tag_159\n      jumpi\n        /* \"#utility.yul\":4067:4146   */\n      tag_160\n      tag_73\n      jump\t// in\n    tag_160:\n        /* \"#utility.yul\":4031:4148   */\n    tag_159:\n        /* \"#utility.yul\":4172:4235   */\n      tag_161\n        /* \"#utility.yul\":4227:4234   */\n      dup6\n        /* \"#utility.yul\":4218:4224   */\n      dup3\n        /* \"#utility.yul\":4207:4216   */\n      dup7\n        /* \"#utility.yul\":4203:4225   */\n      add\n        /* \"#utility.yul\":4172:4235   */\n      tag_86\n      jump\t// in\n    tag_161:\n        /* \"#utility.yul\":4162:4235   */\n      swap3\n      pop\n        /* \"#utility.yul\":3958:4245   */\n      pop\n        /* \"#utility.yul\":4284:4286   */\n      0x20\n        /* \"#utility.yul\":4310:4363   */\n      tag_162\n        /* \"#utility.yul\":4355:4362   */\n      dup6\n        /* \"#utility.yul\":4346:4352   */\n      dup3\n        /* \"#utility.yul\":4335:4344   */\n      dup7\n        /* \"#utility.yul\":4331:4353   */\n      add\n        /* \"#utility.yul\":4310:4363   */\n      tag_76\n      jump\t// in\n    tag_162:\n        /* \"#utility.yul\":4300:4363   */\n      swap2\n      pop\n        /* \"#utility.yul\":4255:4373   */\n      pop\n        /* \"#utility.yul\":3726:4380   */\n      swap3\n      pop\n      swap3\n      swap1\n      pop\n      jump\t// out\n        /* \"#utility.yul\":4386:4485   */\n    tag_87:\n        /* \"#utility.yul\":4438:4444   */\n      0x00\n        /* \"#utility.yul\":4472:4477   */\n      dup2\n        /* \"#utility.yul\":4466:4478   */\n      mload\n        /* \"#utility.yul\":4456:4478   */\n      swap1\n      pop\n        /* \"#utility.yul\":4386:4485   */\n      swap2\n      swap1\n      pop\n      jump\t// out\n        /* \"#utility.yul\":4491:4660   */\n    tag_88:\n        /* \"#utility.yul\":4575:4586   */\n      0x00\n        /* \"#utility.yul\":4609:4615   */\n      dup3\n        /* \"#utility.yul\":4604:4607   */\n      dup3\n        /* \"#utility.yul\":4597:4616   */\n      mstore\n        /* \"#utility.yul\":4649:4653   */\n      0x20\n        /* \"#utility.yul\":4644:4647   */\n      dup3\n        /* \"#utility.yul\":4640:4654   */\n      add\n        /* \"#utility.yul\":4625:4654   */\n      swap1\n      pop\n        /* \"#utility.yul\":4491:4660   */\n      swap3\n      swap2\n      pop\n      pop\n      jump\t// out\n        /* \"#utility.yul\":4666:4805   */\n    tag_89:\n        /* \"#utility.yul\":4755:4761   */\n      dup3\n        /* \"#utility.yul\":4750:4753   */\n      dup2\n        /* \"#utility.yul\":4745:4748   */\n      dup4\n        /* \"#utility.yul\":4739:4762   */\n      mcopy\n        /* \"#utility.yul\":4796:4797   */\n      0x00\n        /* \"#utility.yul\":4787:4793   */\n      dup4\n        /* \"#utility.yul\":4782:4785   */\n      dup4\n        /* \"#utility.yul\":4778:4794   */\n      add\n        /* \"#utility.yul\":4771:4798   */\n      mstore\n        /* \"#utility.yul\":4666:4805   */\n      pop\n      pop\n      pop\n      jump\t// out\n        /* \"#utility.yul\":4811:5188   */\n    tag_90:\n        /* \"#utility.yul\":4899:4902   */\n      0x00\n        /* \"#utility.yul\":4927:4966   */\n      tag_167\n        /* \"#utility.yul\":4960:4965   */\n      dup3\n        /* \"#utility.yul\":4927:4966   */\n      tag_87\n      jump\t// in\n    tag_167:\n        /* \"#utility.yul\":4982:5053   */\n      tag_168\n        /* \"#utility.yul\":5046:5052   */\n      dup2\n        /* \"#utility.yul\":5041:5044   */\n      dup6\n        /* \"#utility.yul\":4982:5053   */\n      tag_88\n      jump\t// in\n    tag_168:\n        /* \"#utility.yul\":4975:5053   */\n      swap4\n      pop\n        /* \"#utility.yul\":5062:5127   */\n      tag_169\n        /* \"#utility.yul\":5120:5126   */\n      dup2\n        /* \"#utility.yul\":5115:5118   */\n      dup6\n        /* \"#utility.yul\":5108:5112   */\n      0x20\n        /* \"#utility.yul\":5101:5106   */\n      dup7\n        /* \"#utility.yul\":5097:5113   */\n      add\n        /* \"#utility.yul\":5062:5127   */\n      tag_89\n      jump\t// in\n    tag_169:\n        /* \"#utility.yul\":5152:5181   */\n      tag_170\n        /* \"#utility.yul\":5174:5180   */\n      dup2\n        /* \"#utility.yul\":5152:5181   */\n      tag_79\n      jump\t// in\n    tag_170:\n        /* \"#utility.yul\":5147:5150   */\n      dup5\n        /* \"#utility.yul\":5143:5182   */\n      add\n        /* \"#utility.yul\":5136:5182   */\n      swap2\n      pop\n        /* \"#utility.yul\":4903:5188   */\n      pop\n        /* \"#utility.yul\":4811:5188   */\n      swap3\n      swap2\n      pop\n      pop\n      jump\t// out\n        /* \"#utility.yul\":5194:5312   */\n    tag_91:\n        /* \"#utility.yul\":5281:5305   */\n      tag_172\n        /* \"#utility.yul\":5299:5304   */\n      dup2\n        /* \"#utility.yul\":5281:5305   */\n      tag_74\n      jump\t// in\n    tag_172:\n        /* \"#utility.yul\":5276:5279   */\n      dup3\n        /* \"#utility.yul\":5269:5306   */\n      mstore\n        /* \"#utility.yul\":5194:5312   */\n      pop\n      pop\n      jump\t// out\n        /* \"#utility.yul\":5318:5444   */\n    tag_92:\n        /* \"#utility.yul\":5355:5362   */\n      0x00\n        /* \"#utility.yul\":5395:5437   */\n      0xffffffffffffffffffffffffffffffffffffffff\n        /* \"#utility.yul\":5388:5393   */\n      dup3\n        /* \"#utility.yul\":5384:5438   */\n      and\n        /* \"#utility.yul\":5373:5438   */\n      swap1\n      pop\n        /* \"#utility.yul\":5318:5444   */\n      swap2\n      swap1\n      pop\n      jump\t// out\n        /* \"#utility.yul\":5450:5546   */\n    tag_93:\n        /* \"#utility.yul\":5487:5494   */\n      0x00\n        /* \"#utility.yul\":5516:5540   */\n      tag_175\n        /* \"#utility.yul\":5534:5539   */\n      dup3\n        /* \"#utility.yul\":5516:5540   */\n      tag_92\n      jump\t// in\n    tag_175:\n        /* \"#utility.yul\":5505:5540   */\n      swap1\n      pop\n        /* \"#utility.yul\":5450:5546   */\n      swap2\n      swap1\n      pop\n      jump\t// out\n        /* \"#utility.yul\":5552:5670   */\n    tag_94:\n        /* \"#utility.yul\":5639:5663   */\n      tag_177\n        /* \"#utility.yul\":5657:5662   */\n      dup2\n        /* \"#utility.yul\":5639:5663   */\n      tag_93\n      jump\t// in\n    tag_177:\n        /* \"#utility.yul\":5634:5637   */\n      dup3\n        /* \"#utility.yul\":5627:5664   */\n      mstore\n        /* \"#utility.yul\":5552:5670   */\n      pop\n      pop\n      jump\t// out\n        /* \"#utility.yul\":5676:6209   */\n    tag_26:\n        /* \"#utility.yul\":5845:5849   */\n      0x00\n        /* \"#utility.yul\":5883:5885   */\n      0x60\n        /* \"#utility.yul\":5872:5881   */\n      dup3\n        /* \"#utility.yul\":5868:5886   */\n      add\n        /* \"#utility.yul\":5860:5886   */\n      swap1\n      pop\n        /* \"#utility.yul\":5932:5941   */\n      dup2\n        /* \"#utility.yul\":5926:5930   */\n      dup2\n        /* \"#utility.yul\":5922:5942   */\n      sub\n        /* \"#utility.yul\":5918:5919   */\n      0x00\n        /* \"#utility.yul\":5907:5916   */\n      dup4\n        /* \"#utility.yul\":5903:5920   */\n      add\n        /* \"#utility.yul\":5896:5943   */\n      mstore\n        /* \"#utility.yul\":5960:6038   */\n      tag_179\n        /* \"#utility.yul\":6033:6037   */\n      dup2\n        /* \"#utility.yul\":6024:6030   */\n      dup7\n        /* \"#utility.yul\":5960:6038   */\n      tag_90\n      jump\t// in\n    tag_179:\n        /* \"#utility.yul\":5952:6038   */\n      swap1\n      pop\n        /* \"#utility.yul\":6048:6120   */\n      tag_180\n        /* \"#utility.yul\":6116:6118   */\n      0x20\n        /* \"#utility.yul\":6105:6114   */\n      dup4\n        /* \"#utility.yul\":6101:6119   */\n      add\n        /* \"#utility.yul\":6092:6098   */\n      dup6\n        /* \"#utility.yul\":6048:6120   */\n      tag_91\n      jump\t// in\n    tag_180:\n        /* \"#utility.yul\":6130:6202   */\n      tag_181\n        /* \"#utility.yul\":6198:6200   */\n      0x40\n        /* \"#utility.yul\":6187:6196   */\n      dup4\n        /* \"#utility.yul\":6183:6201   */\n      add\n        /* \"#utility.yul\":6174:6180   */\n      dup5\n        /* \"#utility.yul\":6130:6202   */\n      tag_94\n      jump\t// in\n    tag_181:\n        /* \"#utility.yul\":5676:6209   */\n      swap5\n      swap4\n      pop\n      pop\n      pop\n      pop\n      jump\t// out\n        /* \"#utility.yul\":6215:6395   */\n    tag_30:\n        /* \"#utility.yul\":6263:6340   */\n      0x4e487b7100000000000000000000000000000000000000000000000000000000\n        /* \"#utility.yul\":6260:6261   */\n      0x00\n        /* \"#utility.yul\":6253:6341   */\n      mstore\n        /* \"#utility.yul\":6360:6364   */\n      0x32\n        /* \"#utility.yul\":6357:6358   */\n      0x04\n        /* \"#utility.yul\":6350:6365   */\n      mstore\n        /* \"#utility.yul\":6384:6388   */\n      0x24\n        /* \"#utility.yul\":6381:6382   */\n      0x00\n        /* \"#utility.yul\":6374:6389   */\n      revert\n        /* \"#utility.yul\":6401:6581   */\n    tag_95:\n        /* \"#utility.yul\":6449:6526   */\n      0x4e487b7100000000000000000000000000000000000000000000000000000000\n        /* \"#utility.yul\":6446:6447   */\n      0x00\n        /* \"#utility.yul\":6439:6527   */\n      mstore\n        /* \"#utility.yul\":6546:6550   */\n      0x22\n        /* \"#utility.yul\":6543:6544   */\n      0x04\n        /* \"#utility.yul\":6536:6551   */\n      mstore\n        /* \"#utility.yul\":6570:6574   */\n      0x24\n        /* \"#utility.yul\":6567:6568   */\n      0x00\n        /* \"#utility.yul\":6560:6575   */\n      revert\n        /* \"#utility.yul\":6587:6907   */\n    tag_59:\n        /* \"#utility.yul\":6631:6637   */\n      0x00\n        /* \"#utility.yul\":6668:6669   */\n      0x02\n        /* \"#utility.yul\":6662:6666   */\n      dup3\n        /* \"#utility.yul\":6658:6670   */\n      div\n        /* \"#utility.yul\":6648:6670   */\n      swap1\n      pop\n        /* \"#utility.yul\":6715:6716   */\n      0x01\n        /* \"#utility.yul\":6709:6713   */\n      dup3\n        /* \"#utility.yul\":6705:6717   */\n      and\n        /* \"#utility.yul\":6736:6754   */\n      dup1\n        /* \"#utility.yul\":6726:6807   */\n      tag_185\n      jumpi\n        /* \"#utility.yul\":6792:6796   */\n      0x7f\n        /* \"#utility.yul\":6784:6790   */\n      dup3\n        /* \"#utility.yul\":6780:6797   */\n      and\n        /* \"#utility.yul\":6770:6797   */\n      swap2\n      pop\n        /* \"#utility.yul\":6726:6807   */\n    tag_185:\n        /* \"#utility.yul\":6854:6856   */\n      0x20\n        /* \"#utility.yul\":6846:6852   */\n      dup3\n        /* \"#utility.yul\":6843:6857   */\n      lt\n        /* \"#utility.yul\":6823:6841   */\n      dup2\n        /* \"#utility.yul\":6820:6858   */\n      sub\n        /* \"#utility.yul\":6817:6901   */\n      tag_186\n      jumpi\n        /* \"#utility.yul\":6873:6891   */\n      tag_187\n      tag_95\n      jump\t// in\n    tag_187:\n        /* \"#utility.yul\":6817:6901   */\n    tag_186:\n        /* \"#utility.yul\":6638:6907   */\n      pop\n        /* \"#utility.yul\":6587:6907   */\n      swap2\n      swap1\n      pop\n      jump\t// out\n        /* \"#utility.yul\":6913:7054   */\n    tag_96:\n        /* \"#utility.yul\":6962:6966   */\n      0x00\n        /* \"#utility.yul\":6985:6988   */\n      dup2\n        /* \"#utility.yul\":6977:6988   */\n      swap1\n      pop\n        /* \"#utility.yul\":7008:7011   */\n      dup2\n        /* \"#utility.yul\":7005:7006   */\n      0x00\n        /* \"#utility.yul\":6998:7012   */\n      mstore\n        /* \"#utility.yul\":7042:7046   */\n      0x20\n        /* \"#utility.yul\":7039:7040   */\n      0x00\n        /* \"#utility.yul\":7029:7047   */\n      keccak256\n        /* \"#utility.yul\":7021:7047   */\n      swap1\n      pop\n        /* \"#utility.yul\":6913:7054   */\n      swap2\n      swap1\n      pop\n      jump\t// out\n        /* \"#utility.yul\":7060:7153   */\n    tag_97:\n        /* \"#utility.yul\":7097:7103   */\n      0x00\n        /* \"#utility.yul\":7144:7146   */\n      0x20\n        /* \"#utility.yul\":7139:7141   */\n      0x1f\n        /* \"#utility.yul\":7132:7137   */\n      dup4\n        /* \"#utility.yul\":7128:7142   */\n      add\n        /* \"#utility.yul\":7124:7147   */\n      div\n        /* \"#utility.yul\":7114:7147   */\n      swap1\n      pop\n        /* \"#utility.yul\":7060:7153   */\n      swap2\n      swap1\n      pop\n      jump\t// out\n        /* \"#utility.yul\":7159:7266   */\n    tag_98:\n        /* \"#utility.yul\":7203:7211   */\n      0x00\n        /* \"#utility.yul\":7253:7258   */\n      dup3\n        /* \"#utility.yul\":7247:7251   */\n      dup3\n        /* \"#utility.yul\":7243:7259   */\n      shl\n        /* \"#utility.yul\":7222:7259   */\n      swap1\n      pop\n        /* \"#utility.yul\":7159:7266   */\n      swap3\n      swap2\n      pop\n      pop\n      jump\t// out\n        /* \"#utility.yul\":7272:7665   */\n    tag_99:\n        /* \"#utility.yul\":7341:7347   */\n      0x00\n        /* \"#utility.yul\":7391:7392   */\n      0x08\n        /* \"#utility.yul\":7379:7389   */\n      dup4\n        /* \"#utility.yul\":7375:7393   */\n      mul\n        /* \"#utility.yul\":7414:7511   */\n      tag_192\n        /* \"#utility.yul\":7444:7510   */\n      0xffffffffffffffffffffffffffffffffffffffffffffffffffffffffffffffff\n        /* \"#utility.yul\":7433:7442   */\n      dup3\n        /* \"#utility.yul\":7414:7511   */\n      tag_98\n      jump\t// in\n    tag_192:\n        /* \"#utility.yul\":7532:7571   */\n      tag_193\n        /* \"#utility.yul\":7562:7570   */\n      dup7\n        /* \"#utility.yul\":7551:7560   */\n      dup4\n        /* \"#utility.yul\":7532:7571   */\n      tag_98\n      jump\t// in\n    tag_193:\n        /* \"#utility.yul\":7520:7571   */\n      swap6\n      pop\n        /* \"#utility.yul\":7604:7608   */\n      dup1\n        /* \"#utility.yul\":7600:7609   */\n      not\n        /* \"#utility.yul\":7593:7598   */\n      dup5\n        /* \"#utility.yul\":7589:7610   */\n      and\n        /* \"#utility.yul\":7580:7610   */\n      swap4\n      pop\n        /* \"#utility.yul\":7653:7657   */\n      dup1\n        /* \"#utility.yul\":7643:7651   */\n      dup7\n        /* \"#utility.yul\":7639:7658   */\n      and\n        /* \"#utility.yul\":7632:7637   */\n      dup5\n        /* \"#utility.yul\":7629:7659   */\n      or\n        /* \"#utility.yul\":7619:7659   */\n      swap3\n      pop\n        /* \"#utility.yul\":7348:7665   */\n      pop\n      pop\n        /* \"#utility.yul\":7272:7665   */\n      swap4\n      swap3\n      pop\n      pop\n      pop\n      jump\t// out\n        /* \"#utility.yul\":7671:7731   */\n    tag_100:\n        /* \"#utility.yul\":7699:7702   */\n      0x00\n        /* \"#utility.yul\":7720:7725   */\n      dup2\n        /* \"#utility.yul\":7713:7725   */\n      swap1\n      pop\n        /* \"#utility.yul\":7671:7731   */\n      swap2\n      swap1\n      pop\n      jump\t// out\n        /* \"#utility.yul\":7737:7879   */\n    tag_101:\n        /* \"#utility.yul\":7787:7796   */\n      0x00\n        /* \"#utility.yul\":7820:7873   */\n      tag_196\n        /* \"#utility.yul\":7838:7872   */\n      tag_197\n        /* \"#utility.yul\":7847:7871   */\n      tag_198\n        /* \"#utility.yul\":7865:7870   */\n      dup5\n        /* \"#utility.yul\":7847:7871   */\n      tag_74\n      jump\t// in\n    tag_198:\n        /* \"#utility.yul\":7838:7872   */\n      tag_100\n      jump\t// in\n    tag_197:\n        /* \"#utility.yul\":7820:7873   */\n      tag_74\n      jump\t// in\n    tag_196:\n        /* \"#utility.yul\":7807:7873   */\n      swap1\n      pop\n        /* \"#utility.yul\":7737:7879   */\n      swap2\n      swap1\n      pop\n      jump\t// out\n        /* \"#utility.yul\":7885:7960   */\n    tag_102:\n        /* \"#utility.yul\":7928:7931   */\n      0x00\n        /* \"#utility.yul\":7949:7954   */\n      dup2\n        /* \"#utility.yul\":7942:7954   */\n      swap1\n      pop\n        /* \"#utility.yul\":7885:7960   */\n      swap2\n      swap1\n      pop\n      jump\t// out\n        /* \"#utility.yul\":7966:8235   */\n    tag_103:\n        /* \"#utility.yul\":8076:8115   */\n      tag_201\n        /* \"#utility.yul\":8107:8114   */\n      dup4\n        /* \"#utility.yul\":8076:8115   */\n      tag_101\n      jump\t// in\n    tag_201:\n        /* \"#utility.yul\":8137:8228   */\n      tag_202\n        /* \"#utility.yul\":8186:8227   */\n      tag_203\n        /* \"#utility.yul\":8210:8226   */\n      dup3\n        /* \"#utility.yul\":8186:8227   */\n      tag_102\n      jump\t// in\n    tag_203:\n        /* \"#utility.yul\":8178:8184   */\n      dup5\n        /* \"#utility.yul\":8171:8175   */\n      dup5\n        /* \"#utility.yul\":8165:8176   */\n      sload\n        /* \"#utility.yul\":8137:8228   */\n      tag_99\n      jump\t// in\n    tag_202:\n        /* \"#utility.yul\":8131:8135   */\n      dup3\n        /* \"#utility.yul\":8124:8229   */\n      sstore\n        /* \"#utility.yul\":8042:8235   */\n      pop\n        /* \"#utility.yul\":7966:8235   */\n      pop\n      pop\n      pop\n      jump\t// out\n        /* \"#utility.yul\":8241:8314   */\n    tag_104:\n        /* \"#utility.yul\":8286:8289   */\n      0x00\n        /* \"#utility.yul\":8307:8308   */\n      0x00\n        /* \"#utility.yul\":8300:8308   */\n      swap1\n      pop\n        /* \"#utility.yul\":8241:8314   */\n      swap1\n      jump\t// out\n        /* \"#utility.yul\":8320:8509   */\n    tag_105:\n        /* \"#utility.yul\":8397:8429   */\n      tag_206\n      tag_104\n      jump\t// in\n    tag_206:\n        /* \"#utility.yul\":8438:8503   */\n      tag_207\n        /* \"#utility.yul\":8496:8502   */\n      dup2\n        /* \"#utility.yul\":8488:8494   */\n      dup5\n        /* \"#utility.yul\":8482:8486   */\n      dup5\n        /* \"#utility.yul\":8438:8503   */\n      tag_103\n      jump\t// in\n    tag_207:\n        /* \"#utility.yul\":8373:8509   */\n      pop\n        /* \"#utility.yul\":8320:8509   */\n      pop\n      pop\n      jump\t// out\n        /* \"#utility.yul\":8515:8729   */\n    tag_106:\n        /* \"#utility.yul\":8600:8601   */\n      0x00\n        /* \"#utility.yul\":8585:8723   */\n    tag_209:\n        /* \"#utility.yul\":8610:8619   */\n      dup3\n        /* \"#utility.yul\":8607:8608   */\n      dup2\n        /* \"#utility.yul\":8604:8620   */\n      lt\n        /* \"#utility.yul\":8585:8723   */\n      iszero\n      tag_211\n      jumpi\n        /* \"#utility.yul\":8662:8713   */\n      tag_212\n        /* \"#utility.yul\":8711:8712   */\n      0x00\n        /* \"#utility.yul\":8707:8708   */\n      dup3\n        /* \"#utility.yul\":8696:8705   */\n      dup5\n        /* \"#utility.yul\":8692:8709   */\n      add\n        /* \"#utility.yul\":8662:8713   */\n      tag_105\n      jump\t// in\n    tag_212:\n        /* \"#utility.yul\":8635:8636   */\n      0x01\n        /* \"#utility.yul\":8632:8633   */\n      dup2\n        /* \"#utility.yul\":8628:8637   */\n      add\n        /* \"#utility.yul\":8623:8637   */\n      swap1\n      pop\n        /* \"#utility.yul\":8585:8723   */\n      jump(tag_209)\n    tag_211:\n        /* \"#utility.yul\":8589:8603   */\n      pop\n        /* \"#utility.yul\":8515:8729   */\n      pop\n      pop\n      jump\t// out\n        /* \"#utility.yul\":8735:9481   */\n    tag_107:\n        /* \"#utility.yul\":8836:8838   */\n      0x1f\n        /* \"#utility.yul\":8831:8834   */\n      dup3\n        /* \"#utility.yul\":8828:8839   */\n      gt\n        /* \"#utility.yul\":8825:9474   */\n      iszero\n      tag_214\n      jumpi\n        /* \"#utility.yul\":8865:8875   */\n      dup3\n        /* \"#utility.yul\":8860:8863   */\n      dup3\n        /* \"#utility.yul\":8857:8876   */\n      gt\n        /* \"#utility.yul\":8854:9464   */\n      iszero\n      tag_215\n      jumpi\n        /* \"#utility.yul\":8911:8949   */\n      tag_216\n        /* \"#utility.yul\":8943:8948   */\n      dup2\n        /* \"#utility.yul\":8911:8949   */\n      tag_96\n      jump\t// in\n    tag_216:\n        /* \"#utility.yul\":8986:9008   */\n      tag_217\n        /* \"#utility.yul\":9004:9007   */\n      dup4\n        /* \"#utility.yul\":8986:9008   */\n      tag_97\n      jump\t// in\n    tag_217:\n        /* \"#utility.yul\":9045:9074   */\n      tag_218\n        /* \"#utility.yul\":9063:9073   */\n      dup6\n        /* \"#utility.yul\":9045:9074   */\n      tag_97\n      jump\t// in\n    tag_218:\n        /* \"#utility.yul\":9235:9237   */\n      0x20\n        /* \"#utility.yul\":9223:9233   */\n      dup7\n        /* \"#utility.yul\":9220:9238   */\n      lt\n        /* \"#utility.yul\":9217:9296   */\n      iszero\n      tag_219\n      jumpi\n        /* \"#utility.yul\":9277:9278   */\n      0x00\n        /* \"#utility.yul\":9261:9278   */\n      swap1\n      pop\n        /* \"#utility.yul\":9217:9296   */\n    tag_219:\n        /* \"#utility.yul\":9346:9358   */\n      dup1\n        /* \"#utility.yul\":9336:9344   */\n      dup4\n        /* \"#utility.yul\":9332:9359   */\n      add\n        /* \"#utility.yul\":9376:9450   */\n      tag_220\n        /* \"#utility.yul\":9436:9448   */\n      dup3\n        /* \"#utility.yul\":9422:9434   */\n      dup5\n        /* \"#utility.yul\":9418:9449   */\n      sub\n        /* \"#utility.yul\":9405:9416   */\n      dup3\n        /* \"#utility.yul\":9376:9450   */\n      tag_106\n      jump\t// in\n    tag_220:\n        /* \"#utility.yul\":8877:9464   */\n      pop\n      pop\n      pop\n      pop\n        /* \"#utility.yul\":8854:9464   */\n    tag_215:\n        /* \"#utility.yul\":8825:9474   */\n    tag_214:\n        /* \"#utility.yul\":8735:9481   */\n      pop\n      pop\n      pop\n      jump\t// out\n        /* \"#utility.yul\":9487:9604   */\n    tag_108:\n        /* \"#utility.yul\":9541:9549   */\n      0x00\n        /* \"#utility.yul\":9591:9596   */\n      dup3\n        /* \"#utility.yul\":9585:9589   */\n      dup3\n        /* \"#utility.yul\":9581:9597   */\n      shr\n        /* \"#utility.yul\":9560:9597   */\n      swap1\n      pop\n        /* \"#utility.yul\":9487:9604   */\n      swap3\n      swap2\n      pop\n      pop\n      jump\t// out\n        /* \"#utility.yul\":9610:9779   */\n    tag_109:\n        /* \"#utility.yul\":9654:9660   */\n      0x00\n        /* \"#utility.yul\":9687:9738   */\n      tag_223\n        /* \"#utility.yul\":9735:9736   */\n      0x00\n        /* \"#utility.yul\":9731:9737   */\n      not\n        /* \"#utility.yul\":9723:9728   */\n      dup5\n        /* \"#utility.yul\":9720:9721   */\n      0x08\n        /* \"#utility.yul\":9716:9729   */\n      mul\n        /* \"#utility.yul\":9687:9738   */\n      tag_108\n      jump\t// in\n    tag_223:\n        /* \"#utility.yul\":9683:9739   */\n      not\n        /* \"#utility.yul\":9768:9772   */\n      dup1\n        /* \"#utility.yul\":9762:9766   */\n      dup4\n        /* \"#utility.yul\":9758:9773   */\n      and\n        /* \"#utility.yul\":9748:9773   */\n      swap2\n      pop\n        /* \"#utility.yul\":9661:9779   */\n      pop\n        /* \"#utility.yul\":9610:9779   */\n      swap3\n      swap2\n      pop\n      pop\n      jump\t// out\n        /* \"#utility.yul\":9784:10079   */\n    tag_110:\n        /* \"#utility.yul\":9860:9864   */\n      0x00\n        /* \"#utility.yul\":10006:10035   */\n      tag_225\n        /* \"#utility.yul\":10031:10034   */\n      dup4\n        /* \"#utility.yul\":10025:10029   */\n      dup4\n        /* \"#utility.yul\":10006:10035   */\n      tag_109\n      jump\t// in\n    tag_225:\n        /* \"#utility.yul\":9998:10035   */\n      swap2\n      pop\n        /* \"#utility.yul\":10068:10071   */\n      dup3\n        /* \"#utility.yul\":10065:10066   */\n      0x02\n        /* \"#utility.yul\":10061:10072   */\n      mul\n        /* \"#utility.yul\":10055:10059   */\n      dup3\n        /* \"#utility.yul\":10052:10073   */\n      or\n        /* \"#utility.yul\":10044:10073   */\n      swap1\n      pop\n        /* \"#utility.yul\":9784:10079   */\n      swap3\n      swap2\n      pop\n      pop\n      jump\t// out\n        /* \"#utility.yul\":10084:11479   */\n    tag_41:\n        /* \"#utility.yul\":10201:10238   */\n      tag_227\n        /* \"#utility.yul\":10234:10237   */\n      dup3\n        /* \"#utility.yul\":10201:10238   */\n      tag_87\n      jump\t// in\n    tag_227:\n        /* \"#utility.yul\":10303:10321   */\n      0xffffffffffffffff\n        /* \"#utility.yul\":10295:10301   */\n      dup2\n        /* \"#utility.yul\":10292:10322   */\n      gt\n        /* \"#utility.yul\":10289:10345   */\n      iszero\n      tag_228\n      jumpi\n        /* \"#utility.yul\":10325:10343   */\n      tag_229\n      tag_80\n      jump\t// in\n    tag_229:\n        /* \"#utility.yul\":10289:10345   */\n    tag_228:\n        /* \"#utility.yul\":10369:10407   */\n      tag_230\n        /* \"#utility.yul\":10401:10405   */\n      dup3\n        /* \"#utility.yul\":10395:10406   */\n      sload\n        /* \"#utility.yul\":10369:10407   */\n      tag_59\n      jump\t// in\n    tag_230:\n        /* \"#utility.yul\":10454:10521   */\n      tag_231\n        /* \"#utility.yul\":10514:10520   */\n      dup3\n        /* \"#utility.yul\":10506:10512   */\n      dup3\n        /* \"#utility.yul\":10500:10504   */\n      dup6\n        /* \"#utility.yul\":10454:10521   */\n      tag_107\n      jump\t// in\n    tag_231:\n        /* \"#utility.yul\":10548:10549   */\n      0x00\n        /* \"#utility.yul\":10572:10576   */\n      0x20\n        /* \"#utility.yul\":10559:10576   */\n      swap1\n      pop\n        /* \"#utility.yul\":10604:10606   */\n      0x1f\n        /* \"#utility.yul\":10596:10602   */\n      dup4\n        /* \"#utility.yul\":10593:10607   */\n      gt\n        /* \"#utility.yul\":10621:10622   */\n      0x01\n        /* \"#utility.yul\":10616:11234   */\n      dup2\n      eq\n      tag_233\n      jumpi\n        /* \"#utility.yul\":11278:11279   */\n      0x00\n        /* \"#utility.yul\":11295:11301   */\n      dup5\n        /* \"#utility.yul\":11292:11369   */\n      iszero\n      tag_234\n      jumpi\n        /* \"#utility.yul\":11344:11353   */\n      dup3\n        /* \"#utility.yul\":11339:11342   */\n      dup8\n        /* \"#utility.yul\":11335:11354   */\n      add\n        /* \"#utility.yul\":11329:11355   */\n      mload\n        /* \"#utility.yul\":11320:11355   */\n      swap1\n      pop\n        /* \"#utility.yul\":11292:11369   */\n    tag_234:\n        /* \"#utility.yul\":11395:11462   */\n      tag_235\n        /* \"#utility.yul\":11455:11461   */\n      dup6\n        /* \"#utility.yul\":11448:11453   */\n      dup3\n        /* \"#utility.yul\":11395:11462   */\n      tag_110\n      jump\t// in\n    tag_235:\n        /* \"#utility.yul\":11389:11393   */\n      dup7\n        /* \"#utility.yul\":11382:11463   */\n      sstore\n        /* \"#utility.yul\":11251:11473   */\n      pop\n        /* \"#utility.yul\":10586:11473   */\n      jump(tag_232)\n        /* \"#utility.yul\":10616:11234   */\n    tag_233:\n        /* \"#utility.yul\":10668:10672   */\n      0x1f\n        /* \"#utility.yul\":10664:10673   */\n      not\n        /* \"#utility.yul\":10656:10662   */\n      dup5\n        /* \"#utility.yul\":10652:10674   */\n      and\n        /* \"#utility.yul\":10702:10739   */\n      tag_236\n        /* \"#utility.yul\":10734:10738   */\n      dup7\n        /* \"#utility.yul\":10702:10739   */\n      tag_96\n      jump\t// in\n    tag_236:\n        /* \"#utility.yul\":10761:10762   */\n      0x00\n        /* \"#utility.yul\":10775:10983   */\n    tag_237:\n        /* \"#utility.yul\":10789:10796   */\n      dup3\n        /* \"#utility.yul\":10786:10787   */\n      dup2\n        /* \"#utility.yul\":10783:10797   */\n      lt\n        /* \"#utility.yul\":10775:10983   */\n      iszero\n      tag_239\n      jumpi\n        /* \"#utility.yul\":10868:10877   */\n      dup5\n        /* \"#utility.yul\":10863:10866   */\n      dup10\n        /* \"#utility.yul\":10859:10878   */\n      add\n        /* \"#utility.yul\":10853:10879   */\n      mload\n        /* \"#utility.yul\":10845:10851   */\n      dup3\n        /* \"#utility.yul\":10838:10880   */\n      sstore\n        /* \"#utility.yul\":10919:10920   */\n      0x01\n        /* \"#utility.yul\":10911:10917   */\n      dup3\n        /* \"#utility.yul\":10907:10921   */\n      add\n        /* \"#utility.yul\":10897:10921   */\n      swap2\n      pop\n        /* \"#utility.yul\":10966:10968   */\n      0x20\n        /* \"#utility.yul\":10955:10964   */\n      dup6\n        /* \"#utility.yul\":10951:10969   */\n      add\n        /* \"#utility.yul\":10938:10969   */\n      swap5\n      pop\n        /* \"#utility.yul\":10812:10816   */\n      0x20\n        /* \"#utility.yul\":10809:10810   */\n      dup2\n        /* \"#utility.yul\":10805:10817   */\n      add\n        /* \"#utility.yul\":10800:10817   */\n      swap1\n      pop\n        /* \"#utility.yul\":10775:10983   */\n      jump(tag_237)\n    tag_239:\n        /* \"#utility.yul\":11011:11017   */\n      dup7\n        /* \"#utility.yul\":11002:11009   */\n      dup4\n        /* \"#utility.yul\":10999:11018   */\n      lt\n        /* \"#utility.yul\":10996:11175   */\n      iszero\n      tag_240\n      jumpi\n        /* \"#utility.yul\":11069:11078   */\n      dup5\n        /* \"#utility.yul\":11064:11067   */\n      dup10\n        /* \"#utility.yul\":11060:11079   */\n      add\n        /* \"#utility.yul\":11054:11080   */\n      mload\n        /* \"#utility.yul\":11112:11160   */\n      tag_241\n        /* \"#utility.yul\":11154:11158   */\n      0x1f\n        /* \"#utility.yul\":11146:11152   */\n      dup10\n        /* \"#utility.yul\":11142:11159   */\n      and\n        /* \"#utility.yul\":11131:11140   */\n      dup3\n        /* \"#utility.yul\":11112:11160   */\n      tag_109\n      jump\t// in\n    tag_241:\n        /* \"#utility.yul\":11104:11110   */\n      dup4\n        /* \"#utility.yul\":11097:11161   */\n      sstore\n        /* \"#utility.yul\":11019:11175   */\n      pop\n        /* \"#utility.yul\":10996:11175   */\n    tag_240:\n        /* \"#utility.yul\":11221:11222   */\n      0x01\n        /* \"#utility.yul\":11217:11218   */\n      0x02\n        /* \"#utility.yul\":11209:11215   */\n      dup9\n        /* \"#utility.yul\":11205:11219   */\n      mul\n        /* \"#utility.yul\":11201:11223   */\n      add\n        /* \"#utility.yul\":11195:11199   */\n      dup9\n        /* \"#utility.yul\":11188:11224   */\n      sstore\n        /* \"#utility.yul\":10623:11234   */\n      pop\n      pop\n      pop\n        /* \"#utility.yul\":10586:11473   */\n    tag_232:\n      pop\n        /* \"#utility.yul\":10176:11479   */\n      pop\n      pop\n      pop\n        /* \"#utility.yul\":10084:11479   */\n      pop\n      pop\n      jump\t// out\n\n    auxdata: 0xa2646970667358221220977f43e21df1db98c71804aa432656e0254102962a063247eacb189a7583ce0d64736f6c63430008220033\n}\n",
				"bytecode": {
					"linkReferences": {},
					"object": "6080604052348015600e575f5ffd5b50610e208061001c5f395ff3fe608060405234801561000f575f5ffd5b5060043610610055575f3560e01c806385d05887146100595780639381c99714610075578063965ac0c514610091578063e1c7392a146100ad578063f7746e36146100b7575b5f5ffd5b610073600480360381019061006e91906107f7565b6100e9565b005b61008f600480360381019061008a9190610835565b610114565b005b6100ab60048036038101906100a6919061099c565b610174565b005b6100b561023b565b005b6100d160048036038101906100cc9190610835565b61064e565b6040516100e093929190610aa4565b60405180910390f35b805f83815481106100fd576100fc610ae0565b5b905f5260205f209060030201600101819055505050565b5f818154811061012757610126610ae0565b5b905f5260205f2090600302015f5f82015f6101429190610727565b600182015f9055600282015f6101000a81549073ffffffffffffffffffffffffffffffffffffffff0219169055505050565b5f60405180606001604052808481526020018381526020013373ffffffffffffffffffffffffffffffffffffffff1681525090505f81908060018154018082558091505060019003905f5260205f2090600302015f909190919091505f820151815f0190816101e39190610d1b565b50602082015181600101556040820151816002015f6101000a81548173ffffffffffffffffffffffffffffffffffffffff021916908373ffffffffffffffffffffffffffffffffffffffff1602179055505050505050565b5f60405180606001604052806040518060400160405280600681526020017f546f796f7461000000000000000000000000000000000000000000000000000081525081526020016107d081526020013373ffffffffffffffffffffffffffffffffffffffff1681525090505f81908060018154018082558091505060019003905f5260205f2090600302015f909190919091505f820151815f0190816102e19190610d1b565b50602082015181600101556040820151816002015f6101000a81548173ffffffffffffffffffffffffffffffffffffffff021916908373ffffffffffffffffffffffffffffffffffffffff16021790555050505f60405180606001604052806040518060400160405280600381526020017f424d57000000000000000000000000000000000000000000000000000000000081525081526020016107c681526020013373ffffffffffffffffffffffffffffffffffffffff1681525090505f81908060018154018082558091505060019003905f5260205f2090600302015f909190919091505f820151815f0190816103da9190610d1b565b50602082015181600101556040820151816002015f6101000a81548173ffffffffffffffffffffffffffffffffffffffff021916908373ffffffffffffffffffffffffffffffffffffffff1602179055505050610435610761565b6040518060400160405280600581526020017f5465736c61000000000000000000000000000000000000000000000000000000815250815f01819052505f81908060018154018082558091505060019003905f5260205f2090600302015f909190919091505f820151815f0190816104ad9190610d1b565b50602082015181600101556040820151816002015f6101000a81548173ffffffffffffffffffffffffffffffffffffffff021916908373ffffffffffffffffffffffffffffffffffffffff16021790555050505f60405180606001604052806040518060400160405280600681526020017f7869616f6d69000000000000000000000000000000000000000000000000000081525081526020016107e881526020013373ffffffffffffffffffffffffffffffffffffffff16815250908060018154018082558091505060019003905f5260205f2090600302015f909190919091505f820151815f0190816105a29190610d1b565b50602082015181600101556040820151816002015f6101000a81548173ffffffffffffffffffffffffffffffffffffffff021916908373ffffffffffffffffffffffffffffffffffffffff16021790555050505f5f5f8154811061060957610608610ae0565b5b905f5260205f20906003020190506107cf8160010181905550806002015f6101000a81549073ffffffffffffffffffffffffffffffffffffffff021916905550505050565b5f818154811061065c575f80fd5b905f5260205f2090600302015f91509050805f01805461067b90610b3a565b80601f01602080910402602001604051908101604052809291908181526020018280546106a790610b3a565b80156106f25780601f106106c9576101008083540402835291602001916106f2565b820191905f5260205f20905b8154815290600101906020018083116106d557829003601f168201915b505050505090806001015490806002015f9054906101000a900473ffffffffffffffffffffffffffffffffffffffff16905083565b50805461073390610b3a565b5f825580601f1061074557505061075f565b601f0160209004905f5260205f209061075e9190610796565b5b565b6040518060600160405280606081526020015f81526020015f73ffffffffffffffffffffffffffffffffffffffff1681525090565b5f5b808211156107ae578281015f9055600101610798565b505050565b5f604051905090565b5f5ffd5b5f5ffd5b5f819050919050565b6107d6816107c4565b81146107e0575f5ffd5b50565b5f813590506107f1816107cd565b92915050565b5f5f6040838503121561080d5761080c6107bc565b5b5f61081a858286016107e3565b925050602061082b858286016107e3565b9150509250929050565b5f6020828403121561084a576108496107bc565b5b5f610857848285016107e3565b91505092915050565b5f5ffd5b5f5ffd5b5f601f19601f8301169050919050565b7f4e487b71000000000000000000000000000000000000000000000000000000005f52604160045260245ffd5b6108ae82610868565b810181811067ffffffffffffffff821117156108cd576108cc610878565b5b80604052505050565b5f6108df6107b3565b90506108eb82826108a5565b919050565b5f67ffffffffffffffff82111561090a57610909610878565b5b61091382610868565b9050602081019050919050565b828183375f83830152505050565b5f61094061093b846108f0565b6108d6565b90508281526020810184848401111561095c5761095b610864565b5b610967848285610920565b509392505050565b5f82601f83011261098357610982610860565b5b813561099384826020860161092e565b91505092915050565b5f5f604083850312156109b2576109b16107bc565b5b5f83013567ffffffffffffffff8111156109cf576109ce6107c0565b5b6109db8582860161096f565b92505060206109ec858286016107e3565b9150509250929050565b5f81519050919050565b5f82825260208201905092915050565b8281835e5f83830152505050565b5f610a28826109f6565b610a328185610a00565b9350610a42818560208601610a10565b610a4b81610868565b840191505092915050565b610a5f816107c4565b82525050565b5f73ffffffffffffffffffffffffffffffffffffffff82169050919050565b5f610a8e82610a65565b9050919050565b610a9e81610a84565b82525050565b5f6060820190508181035f830152610abc8186610a1e565b9050610acb6020830185610a56565b610ad86040830184610a95565b949350505050565b7f4e487b71000000000000000000000000000000000000000000000000000000005f52603260045260245ffd5b7f4e487b71000000000000000000000000000000000000000000000000000000005f52602260045260245ffd5b5f6002820490506001821680610b5157607f821691505b602082108103610b6457610b63610b0d565b5b50919050565b5f819050815f5260205f209050919050565b5f6020601f8301049050919050565b5f82821b905092915050565b5f60088302610bc67fffffffffffffffffffffffffffffffffffffffffffffffffffffffffffffffff82610b8b565b610bd08683610b8b565b95508019841693508086168417925050509392505050565b5f819050919050565b5f610c0b610c06610c01846107c4565b610be8565b6107c4565b9050919050565b5f819050919050565b610c2483610bf1565b610c38610c3082610c12565b848454610b97565b825550505050565b5f5f905090565b610c4f610c40565b610c5a818484610c1b565b505050565b5f5b82811015610c8057610c755f828401610c47565b600181019050610c61565b505050565b601f821115610cd35782821115610cd257610c9f81610b6a565b610ca883610b7c565b610cb185610b7c565b6020861015610cbe575f90505b808301610ccd82840382610c5f565b505050505b5b505050565b5f82821c905092915050565b5f610cf35f1984600802610cd8565b1980831691505092915050565b5f610d0b8383610ce4565b9150826002028217905092915050565b610d24826109f6565b67ffffffffffffffff811115610d3d57610d3c610878565b5b610d478254610b3a565b610d52828285610c85565b5f60209050601f831160018114610d83575f8415610d71578287015190505b610d7b8582610d00565b865550610de2565b601f198416610d9186610b6a565b5f5b82811015610db857848901518255600182019150602085019450602081019050610d93565b86831015610dd55784890151610dd1601f891682610ce4565b8355505b6001600288020188555050505b50505050505056fea2646970667358221220977f43e21df1db98c71804aa432656e0254102962a063247eacb189a7583ce0d64736f6c63430008220033",
					"opcodes": "PUSH1 0x80 PUSH1 0x40 MSTORE CALLVALUE DUP1 ISZERO PUSH1 0xE JUMPI PUSH0 PUSH0 REVERT JUMPDEST POP PUSH2 0xE20 DUP1 PUSH2 0x1C PUSH0 CODECOPY PUSH0 RETURN INVALID PUSH1 0x80 PUSH1 0x40 MSTORE CALLVALUE DUP1 ISZERO PUSH2 0xF JUMPI PUSH0 PUSH0 REVERT JUMPDEST POP PUSH1 0x4 CALLDATASIZE LT PUSH2 0x55 JUMPI PUSH0 CALLDATALOAD PUSH1 0xE0 SHR DUP1 PUSH4 0x85D05887 EQ PUSH2 0x59 JUMPI DUP1 PUSH4 0x9381C997 EQ PUSH2 0x75 JUMPI DUP1 PUSH4 0x965AC0C5 EQ PUSH2 0x91 JUMPI DUP1 PUSH4 0xE1C7392A EQ PUSH2 0xAD JUMPI DUP1 PUSH4 0xF7746E36 EQ PUSH2 0xB7 JUMPI JUMPDEST PUSH0 PUSH0 REVERT JUMPDEST PUSH2 0x73 PUSH1 0x4 DUP1 CALLDATASIZE SUB DUP2 ADD SWAP1 PUSH2 0x6E SWAP2 SWAP1 PUSH2 0x7F7 JUMP JUMPDEST PUSH2 0xE9 JUMP JUMPDEST STOP JUMPDEST PUSH2 0x8F PUSH1 0x4 DUP1 CALLDATASIZE SUB DUP2 ADD SWAP1 PUSH2 0x8A SWAP2 SWAP1 PUSH2 0x835 JUMP JUMPDEST PUSH2 0x114 JUMP JUMPDEST STOP JUMPDEST PUSH2 0xAB PUSH1 0x4 DUP1 CALLDATASIZE SUB DUP2 ADD SWAP1 PUSH2 0xA6 SWAP2 SWAP1 PUSH2 0x99C JUMP JUMPDEST PUSH2 0x174 JUMP JUMPDEST STOP JUMPDEST PUSH2 0xB5 PUSH2 0x23B JUMP JUMPDEST STOP JUMPDEST PUSH2 0xD1 PUSH1 0x4 DUP1 CALLDATASIZE SUB DUP2 ADD SWAP1 PUSH2 0xCC SWAP2 SWAP1 PUSH2 0x835 JUMP JUMPDEST PUSH2 0x64E JUMP JUMPDEST PUSH1 0x40 MLOAD PUSH2 0xE0 SWAP4 SWAP3 SWAP2 SWAP1 PUSH2 0xAA4 JUMP JUMPDEST PUSH1 0x40 MLOAD DUP1 SWAP2 SUB SWAP1 RETURN JUMPDEST DUP1 PUSH0 DUP4 DUP2 SLOAD DUP2 LT PUSH2 0xFD JUMPI PUSH2 0xFC PUSH2 0xAE0 JUMP JUMPDEST JUMPDEST SWAP1 PUSH0 MSTORE PUSH1 0x20 PUSH0 KECCAK256 SWAP1 PUSH1 0x3 MUL ADD PUSH1 0x1 ADD DUP2 SWAP1 SSTORE POP POP POP JUMP JUMPDEST PUSH0 DUP2 DUP2 SLOAD DUP2 LT PUSH2 0x127 JUMPI PUSH2 0x126 PUSH2 0xAE0 JUMP JUMPDEST JUMPDEST SWAP1 PUSH0 MSTORE PUSH1 0x20 PUSH0 KECCAK256 SWAP1 PUSH1 0x3 MUL ADD PUSH0 PUSH0 DUP3 ADD PUSH0 PUSH2 0x142 SWAP2 SWAP1 PUSH2 0x727 JUMP JUMPDEST PUSH1 0x1 DUP3 ADD PUSH0 SWAP1 SSTORE PUSH1 0x2 DUP3 ADD PUSH0 PUSH2 0x100 EXP DUP2 SLOAD SWAP1 PUSH20 0xFFFFFFFFFFFFFFFFFFFFFFFFFFFFFFFFFFFFFFFF MUL NOT AND SWAP1 SSTORE POP POP POP JUMP JUMPDEST PUSH0 PUSH1 0x40 MLOAD DUP1 PUSH1 0x60 ADD PUSH1 0x40 MSTORE DUP1 DUP5 DUP2 MSTORE PUSH1 0x20 ADD DUP4 DUP2 MSTORE PUSH1 0x20 ADD CALLER PUSH20 0xFFFFFFFFFFFFFFFFFFFFFFFFFFFFFFFFFFFFFFFF AND DUP2 MSTORE POP SWAP1 POP PUSH0 DUP2 SWAP1 DUP1 PUSH1 0x1 DUP2 SLOAD ADD DUP1 DUP3 SSTORE DUP1 SWAP2 POP POP PUSH1 0x1 SWAP1 SUB SWAP1 PUSH0 MSTORE PUSH1 0x20 PUSH0 KECCAK256 SWAP1 PUSH1 0x3 MUL ADD PUSH0 SWAP1 SWAP2 SWAP1 SWAP2 SWAP1 SWAP2 POP PUSH0 DUP3 ADD MLOAD DUP2 PUSH0 ADD SWAP1 DUP2 PUSH2 0x1E3 SWAP2 SWAP1 PUSH2 0xD1B JUMP JUMPDEST POP PUSH1 0x20 DUP3 ADD MLOAD DUP2 PUSH1 0x1 ADD SSTORE PUSH1 0x40 DUP3 ADD MLOAD DUP2 PUSH1 0x2 ADD PUSH0 PUSH2 0x100 EXP DUP2 SLOAD DUP2 PUSH20 0xFFFFFFFFFFFFFFFFFFFFFFFFFFFFFFFFFFFFFFFF MUL NOT AND SWAP1 DUP4 PUSH20 0xFFFFFFFFFFFFFFFFFFFFFFFFFFFFFFFFFFFFFFFF AND MUL OR SWAP1 SSTORE POP POP POP POP POP POP JUMP JUMPDEST PUSH0 PUSH1 0x40 MLOAD DUP1 PUSH1 0x60 ADD PUSH1 0x40 MSTORE DUP1 PUSH1 0x40 MLOAD DUP1 PUSH1 0x40 ADD PUSH1 0x40 MSTORE DUP1 PUSH1 0x6 DUP2 MSTORE PUSH1 0x20 ADD PUSH32 0x546F796F74610000000000000000000000000000000000000000000000000000 DUP2 MSTORE POP DUP2 MSTORE PUSH1 0x20 ADD PUSH2 0x7D0 DUP2 MSTORE PUSH1 0x20 ADD CALLER PUSH20 0xFFFFFFFFFFFFFFFFFFFFFFFFFFFFFFFFFFFFFFFF AND DUP2 MSTORE POP SWAP1 POP PUSH0 DUP2 SWAP1 DUP1 PUSH1 0x1 DUP2 SLOAD ADD DUP1 DUP3 SSTORE DUP1 SWAP2 POP POP PUSH1 0x1 SWAP1 SUB SWAP1 PUSH0 MSTORE PUSH1 0x20 PUSH0 KECCAK256 SWAP1 PUSH1 0x3 MUL ADD PUSH0 SWAP1 SWAP2 SWAP1 SWAP2 SWAP1 SWAP2 POP PUSH0 DUP3 ADD MLOAD DUP2 PUSH0 ADD SWAP1 DUP2 PUSH2 0x2E1 SWAP2 SWAP1 PUSH2 0xD1B JUMP JUMPDEST POP PUSH1 0x20 DUP3 ADD MLOAD DUP2 PUSH1 0x1 ADD SSTORE PUSH1 0x40 DUP3 ADD MLOAD DUP2 PUSH1 0x2 ADD PUSH0 PUSH2 0x100 EXP DUP2 SLOAD DUP2 PUSH20 0xFFFFFFFFFFFFFFFFFFFFFFFFFFFFFFFFFFFFFFFF MUL NOT AND SWAP1 DUP4 PUSH20 0xFFFFFFFFFFFFFFFFFFFFFFFFFFFFFFFFFFFFFFFF AND MUL OR SWAP1 SSTORE POP POP POP PUSH0 PUSH1 0x40 MLOAD DUP1 PUSH1 0x60 ADD PUSH1 0x40 MSTORE DUP1 PUSH1 0x40 MLOAD DUP1 PUSH1 0x40 ADD PUSH1 0x40 MSTORE DUP1 PUSH1 0x3 DUP2 MSTORE PUSH1 0x20 ADD PUSH32 0x424D570000000000000000000000000000000000000000000000000000000000 DUP2 MSTORE POP DUP2 MSTORE PUSH1 0x20 ADD PUSH2 0x7C6 DUP2 MSTORE PUSH1 0x20 ADD CALLER PUSH20 0xFFFFFFFFFFFFFFFFFFFFFFFFFFFFFFFFFFFFFFFF AND DUP2 MSTORE POP SWAP1 POP PUSH0 DUP2 SWAP1 DUP1 PUSH1 0x1 DUP2 SLOAD ADD DUP1 DUP3 SSTORE DUP1 SWAP2 POP POP PUSH1 0x1 SWAP1 SUB SWAP1 PUSH0 MSTORE PUSH1 0x20 PUSH0 KECCAK256 SWAP1 PUSH1 0x3 MUL ADD PUSH0 SWAP1 SWAP2 SWAP1 SWAP2 SWAP1 SWAP2 POP PUSH0 DUP3 ADD MLOAD DUP2 PUSH0 ADD SWAP1 DUP2 PUSH2 0x3DA SWAP2 SWAP1 PUSH2 0xD1B JUMP JUMPDEST POP PUSH1 0x20 DUP3 ADD MLOAD DUP2 PUSH1 0x1 ADD SSTORE PUSH1 0x40 DUP3 ADD MLOAD DUP2 PUSH1 0x2 ADD PUSH0 PUSH2 0x100 EXP DUP2 SLOAD DUP2 PUSH20 0xFFFFFFFFFFFFFFFFFFFFFFFFFFFFFFFFFFFFFFFF MUL NOT AND SWAP1 DUP4 PUSH20 0xFFFFFFFFFFFFFFFFFFFFFFFFFFFFFFFFFFFFFFFF AND MUL OR SWAP1 SSTORE POP POP POP PUSH2 0x435 PUSH2 0x761 JUMP JUMPDEST PUSH1 0x40 MLOAD DUP1 PUSH1 0x40 ADD PUSH1 0x40 MSTORE DUP1 PUSH1 0x5 DUP2 MSTORE PUSH1 0x20 ADD PUSH32 0x5465736C61000000000000000000000000000000000000000000000000000000 DUP2 MSTORE POP DUP2 PUSH0 ADD DUP2 SWAP1 MSTORE POP PUSH0 DUP2 SWAP1 DUP1 PUSH1 0x1 DUP2 SLOAD ADD DUP1 DUP3 SSTORE DUP1 SWAP2 POP POP PUSH1 0x1 SWAP1 SUB SWAP1 PUSH0 MSTORE PUSH1 0x20 PUSH0 KECCAK256 SWAP1 PUSH1 0x3 MUL ADD PUSH0 SWAP1 SWAP2 SWAP1 SWAP2 SWAP1 SWAP2 POP PUSH0 DUP3 ADD MLOAD DUP2 PUSH0 ADD SWAP1 DUP2 PUSH2 0x4AD SWAP2 SWAP1 PUSH2 0xD1B JUMP JUMPDEST POP PUSH1 0x20 DUP3 ADD MLOAD DUP2 PUSH1 0x1 ADD SSTORE PUSH1 0x40 DUP3 ADD MLOAD DUP2 PUSH1 0x2 ADD PUSH0 PUSH2 0x100 EXP DUP2 SLOAD DUP2 PUSH20 0xFFFFFFFFFFFFFFFFFFFFFFFFFFFFFFFFFFFFFFFF MUL NOT AND SWAP1 DUP4 PUSH20 0xFFFFFFFFFFFFFFFFFFFFFFFFFFFFFFFFFFFFFFFF AND MUL OR SWAP1 SSTORE POP POP POP PUSH0 PUSH1 0x40 MLOAD DUP1 PUSH1 0x60 ADD PUSH1 0x40 MSTORE DUP1 PUSH1 0x40 MLOAD DUP1 PUSH1 0x40 ADD PUSH1 0x40 MSTORE DUP1 PUSH1 0x6 DUP2 MSTORE PUSH1 0x20 ADD PUSH32 0x7869616F6D690000000000000000000000000000000000000000000000000000 DUP2 MSTORE POP DUP2 MSTORE PUSH1 0x20 ADD PUSH2 0x7E8 DUP2 MSTORE PUSH1 0x20 ADD CALLER PUSH20 0xFFFFFFFFFFFFFFFFFFFFFFFFFFFFFFFFFFFFFFFF AND DUP2 MSTORE POP SWAP1 DUP1 PUSH1 0x1 DUP2 SLOAD ADD DUP1 DUP3 SSTORE DUP1 SWAP2 POP POP PUSH1 0x1 SWAP1 SUB SWAP1 PUSH0 MSTORE PUSH1 0x20 PUSH0 KECCAK256 SWAP1 PUSH1 0x3 MUL ADD PUSH0 SWAP1 SWAP2 SWAP1 SWAP2 SWAP1 SWAP2 POP PUSH0 DUP3 ADD MLOAD DUP2 PUSH0 ADD SWAP1 DUP2 PUSH2 0x5A2 SWAP2 SWAP1 PUSH2 0xD1B JUMP JUMPDEST POP PUSH1 0x20 DUP3 ADD MLOAD DUP2 PUSH1 0x1 ADD SSTORE PUSH1 0x40 DUP3 ADD MLOAD DUP2 PUSH1 0x2 ADD PUSH0 PUSH2 0x100 EXP DUP2 SLOAD DUP2 PUSH20 0xFFFFFFFFFFFFFFFFFFFFFFFFFFFFFFFFFFFFFFFF MUL NOT AND SWAP1 DUP4 PUSH20 0xFFFFFFFFFFFFFFFFFFFFFFFFFFFFFFFFFFFFFFFF AND MUL OR SWAP1 SSTORE POP POP POP PUSH0 PUSH0 PUSH0 DUP2 SLOAD DUP2 LT PUSH2 0x609 JUMPI PUSH2 0x608 PUSH2 0xAE0 JUMP JUMPDEST JUMPDEST SWAP1 PUSH0 MSTORE PUSH1 0x20 PUSH0 KECCAK256 SWAP1 PUSH1 0x3 MUL ADD SWAP1 POP PUSH2 0x7CF DUP2 PUSH1 0x1 ADD DUP2 SWAP1 SSTORE POP DUP1 PUSH1 0x2 ADD PUSH0 PUSH2 0x100 EXP DUP2 SLOAD SWAP1 PUSH20 0xFFFFFFFFFFFFFFFFFFFFFFFFFFFFFFFFFFFFFFFF MUL NOT AND SWAP1 SSTORE POP POP POP POP JUMP JUMPDEST PUSH0 DUP2 DUP2 SLOAD DUP2 LT PUSH2 0x65C JUMPI PUSH0 DUP1 REVERT JUMPDEST SWAP1 PUSH0 MSTORE PUSH1 0x20 PUSH0 KECCAK256 SWAP1 PUSH1 0x3 MUL ADD PUSH0 SWAP2 POP SWAP1 POP DUP1 PUSH0 ADD DUP1 SLOAD PUSH2 0x67B SWAP1 PUSH2 0xB3A JUMP JUMPDEST DUP1 PUSH1 0x1F ADD PUSH1 0x20 DUP1 SWAP2 DIV MUL PUSH1 0x20 ADD PUSH1 0x40 MLOAD SWAP1 DUP2 ADD PUSH1 0x40 MSTORE DUP1 SWAP3 SWAP2 SWAP1 DUP2 DUP2 MSTORE PUSH1 0x20 ADD DUP3 DUP1 SLOAD PUSH2 0x6A7 SWAP1 PUSH2 0xB3A JUMP JUMPDEST DUP1 ISZERO PUSH2 0x6F2 JUMPI DUP1 PUSH1 0x1F LT PUSH2 0x6C9 JUMPI PUSH2 0x100 DUP1 DUP4 SLOAD DIV MUL DUP4 MSTORE SWAP2 PUSH1 0x20 ADD SWAP2 PUSH2 0x6F2 JUMP JUMPDEST DUP3 ADD SWAP2 SWAP1 PUSH0 MSTORE PUSH1 0x20 PUSH0 KECCAK256 SWAP1 JUMPDEST DUP2 SLOAD DUP2 MSTORE SWAP1 PUSH1 0x1 ADD SWAP1 PUSH1 0x20 ADD DUP1 DUP4 GT PUSH2 0x6D5 JUMPI DUP3 SWAP1 SUB PUSH1 0x1F AND DUP3 ADD SWAP2 JUMPDEST POP POP POP POP POP SWAP1 DUP1 PUSH1 0x1 ADD SLOAD SWAP1 DUP1 PUSH1 0x2 ADD PUSH0 SWAP1 SLOAD SWAP1 PUSH2 0x100 EXP SWAP1 DIV PUSH20 0xFFFFFFFFFFFFFFFFFFFFFFFFFFFFFFFFFFFFFFFF AND SWAP1 POP DUP4 JUMP JUMPDEST POP DUP1 SLOAD PUSH2 0x733 SWAP1 PUSH2 0xB3A JUMP JUMPDEST PUSH0 DUP3 SSTORE DUP1 PUSH1 0x1F LT PUSH2 0x745 JUMPI POP POP PUSH2 0x75F JUMP JUMPDEST PUSH1 0x1F ADD PUSH1 0x20 SWAP1 DIV SWAP1 PUSH0 MSTORE PUSH1 0x20 PUSH0 KECCAK256 SWAP1 PUSH2 0x75E SWAP2 SWAP1 PUSH2 0x796 JUMP JUMPDEST JUMPDEST JUMP JUMPDEST PUSH1 0x40 MLOAD DUP1 PUSH1 0x60 ADD PUSH1 0x40 MSTORE DUP1 PUSH1 0x60 DUP2 MSTORE PUSH1 0x20 ADD PUSH0 DUP2 MSTORE PUSH1 0x20 ADD PUSH0 PUSH20 0xFFFFFFFFFFFFFFFFFFFFFFFFFFFFFFFFFFFFFFFF AND DUP2 MSTORE POP SWAP1 JUMP JUMPDEST PUSH0 JUMPDEST DUP1 DUP3 GT ISZERO PUSH2 0x7AE JUMPI DUP3 DUP2 ADD PUSH0 SWAP1 SSTORE PUSH1 0x1 ADD PUSH2 0x798 JUMP JUMPDEST POP POP POP JUMP JUMPDEST PUSH0 PUSH1 0x40 MLOAD SWAP1 POP SWAP1 JUMP JUMPDEST PUSH0 PUSH0 REVERT JUMPDEST PUSH0 PUSH0 REVERT JUMPDEST PUSH0 DUP2 SWAP1 POP SWAP2 SWAP1 POP JUMP JUMPDEST PUSH2 0x7D6 DUP2 PUSH2 0x7C4 JUMP JUMPDEST DUP2 EQ PUSH2 0x7E0 JUMPI PUSH0 PUSH0 REVERT JUMPDEST POP JUMP JUMPDEST PUSH0 DUP2 CALLDATALOAD SWAP1 POP PUSH2 0x7F1 DUP2 PUSH2 0x7CD JUMP JUMPDEST SWAP3 SWAP2 POP POP JUMP JUMPDEST PUSH0 PUSH0 PUSH1 0x40 DUP4 DUP6 SUB SLT ISZERO PUSH2 0x80D JUMPI PUSH2 0x80C PUSH2 0x7BC JUMP JUMPDEST JUMPDEST PUSH0 PUSH2 0x81A DUP6 DUP3 DUP7 ADD PUSH2 0x7E3 JUMP JUMPDEST SWAP3 POP POP PUSH1 0x20 PUSH2 0x82B DUP6 DUP3 DUP7 ADD PUSH2 0x7E3 JUMP JUMPDEST SWAP2 POP POP SWAP3 POP SWAP3 SWAP1 POP JUMP JUMPDEST PUSH0 PUSH1 0x20 DUP3 DUP5 SUB SLT ISZERO PUSH2 0x84A JUMPI PUSH2 0x849 PUSH2 0x7BC JUMP JUMPDEST JUMPDEST PUSH0 PUSH2 0x857 DUP5 DUP3 DUP6 ADD PUSH2 0x7E3 JUMP JUMPDEST SWAP2 POP POP SWAP3 SWAP2 POP POP JUMP JUMPDEST PUSH0 PUSH0 REVERT JUMPDEST PUSH0 PUSH0 REVERT JUMPDEST PUSH0 PUSH1 0x1F NOT PUSH1 0x1F DUP4 ADD AND SWAP1 POP SWAP2 SWAP1 POP JUMP JUMPDEST PUSH32 0x4E487B7100000000000000000000000000000000000000000000000000000000 PUSH0 MSTORE PUSH1 0x41 PUSH1 0x4 MSTORE PUSH1 0x24 PUSH0 REVERT JUMPDEST PUSH2 0x8AE DUP3 PUSH2 0x868 JUMP JUMPDEST DUP2 ADD DUP2 DUP2 LT PUSH8 0xFFFFFFFFFFFFFFFF DUP3 GT OR ISZERO PUSH2 0x8CD JUMPI PUSH2 0x8CC PUSH2 0x878 JUMP JUMPDEST JUMPDEST DUP1 PUSH1 0x40 MSTORE POP POP POP JUMP JUMPDEST PUSH0 PUSH2 0x8DF PUSH2 0x7B3 JUMP JUMPDEST SWAP1 POP PUSH2 0x8EB DUP3 DUP3 PUSH2 0x8A5 JUMP JUMPDEST SWAP2 SWAP1 POP JUMP JUMPDEST PUSH0 PUSH8 0xFFFFFFFFFFFFFFFF DUP3 GT ISZERO PUSH2 0x90A JUMPI PUSH2 0x909 PUSH2 0x878 JUMP JUMPDEST JUMPDEST PUSH2 0x913 DUP3 PUSH2 0x868 JUMP JUMPDEST SWAP1 POP PUSH1 0x20 DUP2 ADD SWAP1 POP SWAP2 SWAP1 POP JUMP JUMPDEST DUP3 DUP2 DUP4 CALLDATACOPY PUSH0 DUP4 DUP4 ADD MSTORE POP POP POP JUMP JUMPDEST PUSH0 PUSH2 0x940 PUSH2 0x93B DUP5 PUSH2 0x8F0 JUMP JUMPDEST PUSH2 0x8D6 JUMP JUMPDEST SWAP1 POP DUP3 DUP2 MSTORE PUSH1 0x20 DUP2 ADD DUP5 DUP5 DUP5 ADD GT ISZERO PUSH2 0x95C JUMPI PUSH2 0x95B PUSH2 0x864 JUMP JUMPDEST JUMPDEST PUSH2 0x967 DUP5 DUP3 DUP6 PUSH2 0x920 JUMP JUMPDEST POP SWAP4 SWAP3 POP POP POP JUMP JUMPDEST PUSH0 DUP3 PUSH1 0x1F DUP4 ADD SLT PUSH2 0x983 JUMPI PUSH2 0x982 PUSH2 0x860 JUMP JUMPDEST JUMPDEST DUP2 CALLDATALOAD PUSH2 0x993 DUP5 DUP3 PUSH1 0x20 DUP7 ADD PUSH2 0x92E JUMP JUMPDEST SWAP2 POP POP SWAP3 SWAP2 POP POP JUMP JUMPDEST PUSH0 PUSH0 PUSH1 0x40 DUP4 DUP6 SUB SLT ISZERO PUSH2 0x9B2 JUMPI PUSH2 0x9B1 PUSH2 0x7BC JUMP JUMPDEST JUMPDEST PUSH0 DUP4 ADD CALLDATALOAD PUSH8 0xFFFFFFFFFFFFFFFF DUP2 GT ISZERO PUSH2 0x9CF JUMPI PUSH2 0x9CE PUSH2 0x7C0 JUMP JUMPDEST JUMPDEST PUSH2 0x9DB DUP6 DUP3 DUP7 ADD PUSH2 0x96F JUMP JUMPDEST SWAP3 POP POP PUSH1 0x20 PUSH2 0x9EC DUP6 DUP3 DUP7 ADD PUSH2 0x7E3 JUMP JUMPDEST SWAP2 POP POP SWAP3 POP SWAP3 SWAP1 POP JUMP JUMPDEST PUSH0 DUP2 MLOAD SWAP1 POP SWAP2 SWAP1 POP JUMP JUMPDEST PUSH0 DUP3 DUP3 MSTORE PUSH1 0x20 DUP3 ADD SWAP1 POP SWAP3 SWAP2 POP POP JUMP JUMPDEST DUP3 DUP2 DUP4 MCOPY PUSH0 DUP4 DUP4 ADD MSTORE POP POP POP JUMP JUMPDEST PUSH0 PUSH2 0xA28 DUP3 PUSH2 0x9F6 JUMP JUMPDEST PUSH2 0xA32 DUP2 DUP6 PUSH2 0xA00 JUMP JUMPDEST SWAP4 POP PUSH2 0xA42 DUP2 DUP6 PUSH1 0x20 DUP7 ADD PUSH2 0xA10 JUMP JUMPDEST PUSH2 0xA4B DUP2 PUSH2 0x868 JUMP JUMPDEST DUP5 ADD SWAP2 POP POP SWAP3 SWAP2 POP POP JUMP JUMPDEST PUSH2 0xA5F DUP2 PUSH2 0x7C4 JUMP JUMPDEST DUP3 MSTORE POP POP JUMP JUMPDEST PUSH0 PUSH20 0xFFFFFFFFFFFFFFFFFFFFFFFFFFFFFFFFFFFFFFFF DUP3 AND SWAP1 POP SWAP2 SWAP1 POP JUMP JUMPDEST PUSH0 PUSH2 0xA8E DUP3 PUSH2 0xA65 JUMP JUMPDEST SWAP1 POP SWAP2 SWAP1 POP JUMP JUMPDEST PUSH2 0xA9E DUP2 PUSH2 0xA84 JUMP JUMPDEST DUP3 MSTORE POP POP JUMP JUMPDEST PUSH0 PUSH1 0x60 DUP3 ADD SWAP1 POP DUP2 DUP2 SUB PUSH0 DUP4 ADD MSTORE PUSH2 0xABC DUP2 DUP7 PUSH2 0xA1E JUMP JUMPDEST SWAP1 POP PUSH2 0xACB PUSH1 0x20 DUP4 ADD DUP6 PUSH2 0xA56 JUMP JUMPDEST PUSH2 0xAD8 PUSH1 0x40 DUP4 ADD DUP5 PUSH2 0xA95 JUMP JUMPDEST SWAP5 SWAP4 POP POP POP POP JUMP JUMPDEST PUSH32 0x4E487B7100000000000000000000000000000000000000000000000000000000 PUSH0 MSTORE PUSH1 0x32 PUSH1 0x4 MSTORE PUSH1 0x24 PUSH0 REVERT JUMPDEST PUSH32 0x4E487B7100000000000000000000000000000000000000000000000000000000 PUSH0 MSTORE PUSH1 0x22 PUSH1 0x4 MSTORE PUSH1 0x24 PUSH0 REVERT JUMPDEST PUSH0 PUSH1 0x2 DUP3 DIV SWAP1 POP PUSH1 0x1 DUP3 AND DUP1 PUSH2 0xB51 JUMPI PUSH1 0x7F DUP3 AND SWAP2 POP JUMPDEST PUSH1 0x20 DUP3 LT DUP2 SUB PUSH2 0xB64 JUMPI PUSH2 0xB63 PUSH2 0xB0D JUMP JUMPDEST JUMPDEST POP SWAP2 SWAP1 POP JUMP JUMPDEST PUSH0 DUP2 SWAP1 POP DUP2 PUSH0 MSTORE PUSH1 0x20 PUSH0 KECCAK256 SWAP1 POP SWAP2 SWAP1 POP JUMP JUMPDEST PUSH0 PUSH1 0x20 PUSH1 0x1F DUP4 ADD DIV SWAP1 POP SWAP2 SWAP1 POP JUMP JUMPDEST PUSH0 DUP3 DUP3 SHL SWAP1 POP SWAP3 SWAP2 POP POP JUMP JUMPDEST PUSH0 PUSH1 0x8 DUP4 MUL PUSH2 0xBC6 PUSH32 0xFFFFFFFFFFFFFFFFFFFFFFFFFFFFFFFFFFFFFFFFFFFFFFFFFFFFFFFFFFFFFFFF DUP3 PUSH2 0xB8B JUMP JUMPDEST PUSH2 0xBD0 DUP7 DUP4 PUSH2 0xB8B JUMP JUMPDEST SWAP6 POP DUP1 NOT DUP5 AND SWAP4 POP DUP1 DUP7 AND DUP5 OR SWAP3 POP POP POP SWAP4 SWAP3 POP POP POP JUMP JUMPDEST PUSH0 DUP2 SWAP1 POP SWAP2 SWAP1 POP JUMP JUMPDEST PUSH0 PUSH2 0xC0B PUSH2 0xC06 PUSH2 0xC01 DUP5 PUSH2 0x7C4 JUMP JUMPDEST PUSH2 0xBE8 JUMP JUMPDEST PUSH2 0x7C4 JUMP JUMPDEST SWAP1 POP SWAP2 SWAP1 POP JUMP JUMPDEST PUSH0 DUP2 SWAP1 POP SWAP2 SWAP1 POP JUMP JUMPDEST PUSH2 0xC24 DUP4 PUSH2 0xBF1 JUMP JUMPDEST PUSH2 0xC38 PUSH2 0xC30 DUP3 PUSH2 0xC12 JUMP JUMPDEST DUP5 DUP5 SLOAD PUSH2 0xB97 JUMP JUMPDEST DUP3 SSTORE POP POP POP POP JUMP JUMPDEST PUSH0 PUSH0 SWAP1 POP SWAP1 JUMP JUMPDEST PUSH2 0xC4F PUSH2 0xC40 JUMP JUMPDEST PUSH2 0xC5A DUP2 DUP5 DUP5 PUSH2 0xC1B JUMP JUMPDEST POP POP POP JUMP JUMPDEST PUSH0 JUMPDEST DUP3 DUP2 LT ISZERO PUSH2 0xC80 JUMPI PUSH2 0xC75 PUSH0 DUP3 DUP5 ADD PUSH2 0xC47 JUMP JUMPDEST PUSH1 0x1 DUP2 ADD SWAP1 POP PUSH2 0xC61 JUMP JUMPDEST POP POP POP JUMP JUMPDEST PUSH1 0x1F DUP3 GT ISZERO PUSH2 0xCD3 JUMPI DUP3 DUP3 GT ISZERO PUSH2 0xCD2 JUMPI PUSH2 0xC9F DUP2 PUSH2 0xB6A JUMP JUMPDEST PUSH2 0xCA8 DUP4 PUSH2 0xB7C JUMP JUMPDEST PUSH2 0xCB1 DUP6 PUSH2 0xB7C JUMP JUMPDEST PUSH1 0x20 DUP7 LT ISZERO PUSH2 0xCBE JUMPI PUSH0 SWAP1 POP JUMPDEST DUP1 DUP4 ADD PUSH2 0xCCD DUP3 DUP5 SUB DUP3 PUSH2 0xC5F JUMP JUMPDEST POP POP POP POP JUMPDEST JUMPDEST POP POP POP JUMP JUMPDEST PUSH0 DUP3 DUP3 SHR SWAP1 POP SWAP3 SWAP2 POP POP JUMP JUMPDEST PUSH0 PUSH2 0xCF3 PUSH0 NOT DUP5 PUSH1 0x8 MUL PUSH2 0xCD8 JUMP JUMPDEST NOT DUP1 DUP4 AND SWAP2 POP POP SWAP3 SWAP2 POP POP JUMP JUMPDEST PUSH0 PUSH2 0xD0B DUP4 DUP4 PUSH2 0xCE4 JUMP JUMPDEST SWAP2 POP DUP3 PUSH1 0x2 MUL DUP3 OR SWAP1 POP SWAP3 SWAP2 POP POP JUMP JUMPDEST PUSH2 0xD24 DUP3 PUSH2 0x9F6 JUMP JUMPDEST PUSH8 0xFFFFFFFFFFFFFFFF DUP2 GT ISZERO PUSH2 0xD3D JUMPI PUSH2 0xD3C PUSH2 0x878 JUMP JUMPDEST JUMPDEST PUSH2 0xD47 DUP3 SLOAD PUSH2 0xB3A JUMP JUMPDEST PUSH2 0xD52 DUP3 DUP3 DUP6 PUSH2 0xC85 JUMP JUMPDEST PUSH0 PUSH1 0x20 SWAP1 POP PUSH1 0x1F DUP4 GT PUSH1 0x1 DUP2 EQ PUSH2 0xD83 JUMPI PUSH0 DUP5 ISZERO PUSH2 0xD71 JUMPI DUP3 DUP8 ADD MLOAD SWAP1 POP JUMPDEST PUSH2 0xD7B DUP6 DUP3 PUSH2 0xD00 JUMP JUMPDEST DUP7 SSTORE POP PUSH2 0xDE2 JUMP JUMPDEST PUSH1 0x1F NOT DUP5 AND PUSH2 0xD91 DUP7 PUSH2 0xB6A JUMP JUMPDEST PUSH0 JUMPDEST DUP3 DUP2 LT ISZERO PUSH2 0xDB8 JUMPI DUP5 DUP10 ADD MLOAD DUP3 SSTORE PUSH1 0x1 DUP3 ADD SWAP2 POP PUSH1 0x20 DUP6 ADD SWAP5 POP PUSH1 0x20 DUP2 ADD SWAP1 POP PUSH2 0xD93 JUMP JUMPDEST DUP7 DUP4 LT ISZERO PUSH2 0xDD5 JUMPI DUP5 DUP10 ADD MLOAD PUSH2 0xDD1 PUSH1 0x1F DUP10 AND DUP3 PUSH2 0xCE4 JUMP JUMPDEST DUP4 SSTORE POP JUMPDEST PUSH1 0x1 PUSH1 0x2 DUP9 MUL ADD DUP9 SSTORE POP POP POP JUMPDEST POP POP POP POP POP POP JUMP INVALID LOG2 PUSH5 0x6970667358 0x22 SLT KECCAK256 SWAP8 PUSH32 0x43E21DF1DB98C71804AA432656E0254102962A063247EACB189A7583CE0D6473 PUSH16 0x6C634300082200330000000000000000 "
				},
				"gasEstimates": {
					"creation": {
						"codeDepositCost": "723200",
						"executionCost": "751",
						"totalCost": "723951"
					},
					"external": {
						"addCar(string,uint256)": "infinite",
						"cars(uint256)": "infinite",
						"delCar(uint256)": "infinite",
						"init()": "infinite",
						"modify(uint256,uint256)": "infinite"
					}
				},
				"methodIdentifiers": {
					"addCar(string,uint256)": "965ac0c5",
					"cars(uint256)": "f7746e36",
					"delCar(uint256)": "9381c997",
					"init()": "e1c7392a",
					"modify(uint256,uint256)": "85d05887"
				}
			},
			"storageLayout": {
				"storage": [
					{
						"astId": 12,
						"contract": "solidity基础/结构体struct.sol:StructContract",
						"label": "cars",
						"offset": 0,
						"slot": "0",
						"type": "t_array(t_struct(Car)8_storage)dyn_storage"
					}
				],
				"types": {
					"t_address": {
						"encoding": "inplace",
						"label": "address",
						"numberOfBytes": "20"
					},
					"t_array(t_struct(Car)8_storage)dyn_storage": {
						"base": "t_struct(Car)8_storage",
						"encoding": "dynamic_array",
						"label": "struct StructContract.Car[]",
						"numberOfBytes": "32"
					},
					"t_string_storage": {
						"encoding": "bytes",
						"label": "string",
						"numberOfBytes": "32"
					},
					"t_struct(Car)8_storage": {
						"encoding": "inplace",
						"label": "struct StructContract.Car",
						"members": [
							{
								"astId": 3,
								"contract": "solidity基础/结构体struct.sol:StructContract",
								"label": "make",
								"offset": 0,
								"slot": "0",
								"type": "t_string_storage"
							},
							{
								"astId": 5,
								"contract": "solidity基础/结构体struct.sol:StructContract",
								"label": "year",
								"offset": 0,
								"slot": "1",
								"type": "t_uint256"
							},
							{
								"astId": 7,
								"contract": "solidity基础/结构体struct.sol:StructContract",
								"label": "owner",
								"offset": 0,
								"slot": "2",
								"type": "t_address"
							}
						],
						"numberOfBytes": "96"
					},
					"t_uint256": {
						"encoding": "inplace",
						"label": "uint256",
						"numberOfBytes": "32"
					}
				}
			},
			"userdoc": {
				"kind": "user",
				"methods": {},
				"version": 1
			}
		}
	}
}