{
	"solidity金融和支付/英式拍卖EnglishAuction.sol": {
		"EnglishAuction": {
			"abi": [
				{
					"inputs": [
						{
							"internalType": "address",
							"name": "_nft",
							"type": "address"
						},
						{
							"internalType": "uint256",
							"name": "_nftId",
							"type": "uint256"
						},
						{
							"internalType": "uint256",
							"name": "startBid",
							"type": "uint256"
						}
					],
					"stateMutability": "nonpayable",
					"type": "constructor"
				},
				{
					"inputs": [],
					"name": "bid",
					"outputs": [],
					"stateMutability": "payable",
					"type": "function"
				},
				{
					"inputs": [
						{
							"internalType": "address",
							"name": "",
							"type": "address"
						}
					],
					"name": "bids",
					"outputs": [
						{
							"internalType": "uint256",
							"name": "",
							"type": "uint256"
						}
					],
					"stateMutability": "view",
					"type": "function"
				},
				{
					"inputs": [],
					"name": "end",
					"outputs": [],
					"stateMutability": "nonpayable",
					"type": "function"
				},
				{
					"inputs": [],
					"name": "endTime",
					"outputs": [
						{
							"internalType": "uint256",
							"name": "",
							"type": "uint256"
						}
					],
					"stateMutability": "view",
					"type": "function"
				},
				{
					"inputs": [],
					"name": "ended",
					"outputs": [
						{
							"internalType": "bool",
							"name": "",
							"type": "bool"
						}
					],
					"stateMutability": "view",
					"type": "function"
				},
				{
					"inputs": [],
					"name": "higehestBidder",
					"outputs": [
						{
							"internalType": "address",
							"name": "",
							"type": "address"
						}
					],
					"stateMutability": "view",
					"type": "function"
				},
				{
					"inputs": [],
					"name": "highestBid",
					"outputs": [
						{
							"internalType": "uint256",
							"name": "",
							"type": "uint256"
						}
					],
					"stateMutability": "view",
					"type": "function"
				},
				{
					"inputs": [],
					"name": "nftId",
					"outputs": [
						{
							"internalType": "uint256",
							"name": "",
							"type": "uint256"
						}
					],
					"stateMutability": "view",
					"type": "function"
				},
				{
					"inputs": [],
					"name": "seller",
					"outputs": [
						{
							"internalType": "address payable",
							"name": "",
							"type": "address"
						}
					],
					"stateMutability": "view",
					"type": "function"
				},
				{
					"inputs": [],
					"name": "start",
					"outputs": [],
					"stateMutability": "nonpayable",
					"type": "function"
				},
				{
					"inputs": [],
					"name": "started",
					"outputs": [
						{
							"internalType": "bool",
							"name": "",
							"type": "bool"
						}
					],
					"stateMutability": "view",
					"type": "function"
				},
				{
					"inputs": [],
					"name": "withDraw",
					"outputs": [
						{
							"internalType": "bool",
							"name": "",
							"type": "bool"
						}
					],
					"stateMutability": "nonpayable",
					"type": "function"
				}
			],
			"devdoc": {
				"kind": "dev",
				"methods": {},
				"version": 1
			},
			"evm": {
				"assembly": "    /* \"solidity\\xe9\\x87\\x91\\xe8\\x9e\\x8d\\xe5\\x92\\x8c\\xe6\\x94\\xaf\\xe4\\xbb\\x98/\\xe8\\x8b\\xb1\\xe5\\xbc\\x8f\\xe6\\x8b\\x8d\\xe5\\x8d\\x96EnglishAuction.sol\":164:2107  contract EnglishAuction {... */\n  mstore(0x40, 0xe0)\n    /* \"solidity\\xe9\\x87\\x91\\xe8\\x9e\\x8d\\xe5\\x92\\x8c\\xe6\\x94\\xaf\\xe4\\xbb\\x98/\\xe8\\x8b\\xb1\\xe5\\xbc\\x8f\\xe6\\x8b\\x8d\\xe5\\x8d\\x96EnglishAuction.sol\":597:828  constructor(address _nft, uint _nftId,uint startBid) {... */\n  callvalue\n  dup1\n  iszero\n  tag_1\n  jumpi\n  revert(0x00, 0x00)\ntag_1:\n  pop\n  mload(0x40)\n  sub(codesize, bytecodeSize)\n  dup1\n  bytecodeSize\n  dup4\n  codecopy\n  dup2\n  dup2\n  add\n  0x40\n  mstore\n  dup2\n  add\n  swap1\n  tag_2\n  swap2\n  swap1\n  tag_3\n  jump\t// in\ntag_2:\n    /* \"solidity\\xe9\\x87\\x91\\xe8\\x9e\\x8d\\xe5\\x92\\x8c\\xe6\\x94\\xaf\\xe4\\xbb\\x98/\\xe8\\x8b\\xb1\\xe5\\xbc\\x8f\\xe6\\x8b\\x8d\\xe5\\x8d\\x96EnglishAuction.sol\":675:679  _nft */\n  dup3\n    /* \"solidity\\xe9\\x87\\x91\\xe8\\x9e\\x8d\\xe5\\x92\\x8c\\xe6\\x94\\xaf\\xe4\\xbb\\x98/\\xe8\\x8b\\xb1\\xe5\\xbc\\x8f\\xe6\\x8b\\x8d\\xe5\\x8d\\x96EnglishAuction.sol\":661:680  nft = IERC721(_nft) */\n  0xffffffffffffffffffffffffffffffffffffffff\n  and\n  0x80\n  dup2\n  0xffffffffffffffffffffffffffffffffffffffff\n  and\n  dup2\n  mstore\n  pop\n  pop\n    /* \"solidity\\xe9\\x87\\x91\\xe8\\x9e\\x8d\\xe5\\x92\\x8c\\xe6\\x94\\xaf\\xe4\\xbb\\x98/\\xe8\\x8b\\xb1\\xe5\\xbc\\x8f\\xe6\\x8b\\x8d\\xe5\\x8d\\x96EnglishAuction.sol\":699:705  _nftId */\n  dup2\n    /* \"solidity\\xe9\\x87\\x91\\xe8\\x9e\\x8d\\xe5\\x92\\x8c\\xe6\\x94\\xaf\\xe4\\xbb\\x98/\\xe8\\x8b\\xb1\\xe5\\xbc\\x8f\\xe6\\x8b\\x8d\\xe5\\x8d\\x96EnglishAuction.sol\":691:705  nftId = _nftId */\n  0xa0\n  dup2\n  dup2\n  mstore\n  pop\n  pop\n    /* \"solidity\\xe9\\x87\\x91\\xe8\\x9e\\x8d\\xe5\\x92\\x8c\\xe6\\x94\\xaf\\xe4\\xbb\\x98/\\xe8\\x8b\\xb1\\xe5\\xbc\\x8f\\xe6\\x8b\\x8d\\xe5\\x8d\\x96EnglishAuction.sol\":734:744  msg.sender */\n  caller\n    /* \"solidity\\xe9\\x87\\x91\\xe8\\x9e\\x8d\\xe5\\x92\\x8c\\xe6\\x94\\xaf\\xe4\\xbb\\x98/\\xe8\\x8b\\xb1\\xe5\\xbc\\x8f\\xe6\\x8b\\x8d\\xe5\\x8d\\x96EnglishAuction.sol\":716:745  seller = payable (msg.sender) */\n  0xffffffffffffffffffffffffffffffffffffffff\n  and\n  0xc0\n  dup2\n  0xffffffffffffffffffffffffffffffffffffffff\n  and\n  dup2\n  mstore\n  pop\n  pop\n    /* \"solidity\\xe9\\x87\\x91\\xe8\\x9e\\x8d\\xe5\\x92\\x8c\\xe6\\x94\\xaf\\xe4\\xbb\\x98/\\xe8\\x8b\\xb1\\xe5\\xbc\\x8f\\xe6\\x8b\\x8d\\xe5\\x8d\\x96EnglishAuction.sol\":784:788  6000 */\n  0x1770\n    /* \"solidity\\xe9\\x87\\x91\\xe8\\x9e\\x8d\\xe5\\x92\\x8c\\xe6\\x94\\xaf\\xe4\\xbb\\x98/\\xe8\\x8b\\xb1\\xe5\\xbc\\x8f\\xe6\\x8b\\x8d\\xe5\\x8d\\x96EnglishAuction.sol\":766:781  block.timestamp */\n  timestamp\n    /* \"solidity\\xe9\\x87\\x91\\xe8\\x9e\\x8d\\xe5\\x92\\x8c\\xe6\\x94\\xaf\\xe4\\xbb\\x98/\\xe8\\x8b\\xb1\\xe5\\xbc\\x8f\\xe6\\x8b\\x8d\\xe5\\x8d\\x96EnglishAuction.sol\":766:788  block.timestamp + 6000 */\n  tag_6\n  swap2\n  swap1\n  tag_7\n  jump\t// in\ntag_6:\n    /* \"solidity\\xe9\\x87\\x91\\xe8\\x9e\\x8d\\xe5\\x92\\x8c\\xe6\\x94\\xaf\\xe4\\xbb\\x98/\\xe8\\x8b\\xb1\\xe5\\xbc\\x8f\\xe6\\x8b\\x8d\\xe5\\x8d\\x96EnglishAuction.sol\":756:763  endTime */\n  0x00\n    /* \"solidity\\xe9\\x87\\x91\\xe8\\x9e\\x8d\\xe5\\x92\\x8c\\xe6\\x94\\xaf\\xe4\\xbb\\x98/\\xe8\\x8b\\xb1\\xe5\\xbc\\x8f\\xe6\\x8b\\x8d\\xe5\\x8d\\x96EnglishAuction.sol\":756:788  endTime = block.timestamp + 6000 */\n  dup2\n  swap1\n  sstore\n  pop\n    /* \"solidity\\xe9\\x87\\x91\\xe8\\x9e\\x8d\\xe5\\x92\\x8c\\xe6\\x94\\xaf\\xe4\\xbb\\x98/\\xe8\\x8b\\xb1\\xe5\\xbc\\x8f\\xe6\\x8b\\x8d\\xe5\\x8d\\x96EnglishAuction.sol\":812:820  startBid */\n  dup1\n    /* \"solidity\\xe9\\x87\\x91\\xe8\\x9e\\x8d\\xe5\\x92\\x8c\\xe6\\x94\\xaf\\xe4\\xbb\\x98/\\xe8\\x8b\\xb1\\xe5\\xbc\\x8f\\xe6\\x8b\\x8d\\xe5\\x8d\\x96EnglishAuction.sol\":799:809  highestBid */\n  0x02\n    /* \"solidity\\xe9\\x87\\x91\\xe8\\x9e\\x8d\\xe5\\x92\\x8c\\xe6\\x94\\xaf\\xe4\\xbb\\x98/\\xe8\\x8b\\xb1\\xe5\\xbc\\x8f\\xe6\\x8b\\x8d\\xe5\\x8d\\x96EnglishAuction.sol\":799:820  highestBid = startBid */\n  dup2\n  swap1\n  sstore\n  pop\n    /* \"solidity\\xe9\\x87\\x91\\xe8\\x9e\\x8d\\xe5\\x92\\x8c\\xe6\\x94\\xaf\\xe4\\xbb\\x98/\\xe8\\x8b\\xb1\\xe5\\xbc\\x8f\\xe6\\x8b\\x8d\\xe5\\x8d\\x96EnglishAuction.sol\":597:828  constructor(address _nft, uint _nftId,uint startBid) {... */\n  pop\n  pop\n  pop\n    /* \"solidity\\xe9\\x87\\x91\\xe8\\x9e\\x8d\\xe5\\x92\\x8c\\xe6\\x94\\xaf\\xe4\\xbb\\x98/\\xe8\\x8b\\xb1\\xe5\\xbc\\x8f\\xe6\\x8b\\x8d\\xe5\\x8d\\x96EnglishAuction.sol\":164:2107  contract EnglishAuction {... */\n  jump(tag_8)\n    /* \"#utility.yul\":88:205   */\ntag_10:\n    /* \"#utility.yul\":197:198   */\n  0x00\n    /* \"#utility.yul\":194:195   */\n  0x00\n    /* \"#utility.yul\":187:199   */\n  revert\n    /* \"#utility.yul\":334:460   */\ntag_12:\n    /* \"#utility.yul\":371:378   */\n  0x00\n    /* \"#utility.yul\":411:453   */\n  0xffffffffffffffffffffffffffffffffffffffff\n    /* \"#utility.yul\":404:409   */\n  dup3\n    /* \"#utility.yul\":400:454   */\n  and\n    /* \"#utility.yul\":389:454   */\n  swap1\n  pop\n    /* \"#utility.yul\":334:460   */\n  swap2\n  swap1\n  pop\n  jump\t// out\n    /* \"#utility.yul\":466:562   */\ntag_13:\n    /* \"#utility.yul\":503:510   */\n  0x00\n    /* \"#utility.yul\":532:556   */\n  tag_26\n    /* \"#utility.yul\":550:555   */\n  dup3\n    /* \"#utility.yul\":532:556   */\n  tag_12\n  jump\t// in\ntag_26:\n    /* \"#utility.yul\":521:556   */\n  swap1\n  pop\n    /* \"#utility.yul\":466:562   */\n  swap2\n  swap1\n  pop\n  jump\t// out\n    /* \"#utility.yul\":568:690   */\ntag_14:\n    /* \"#utility.yul\":641:665   */\n  tag_28\n    /* \"#utility.yul\":659:664   */\n  dup2\n    /* \"#utility.yul\":641:665   */\n  tag_13\n  jump\t// in\ntag_28:\n    /* \"#utility.yul\":634:639   */\n  dup2\n    /* \"#utility.yul\":631:666   */\n  eq\n    /* \"#utility.yul\":621:684   */\n  tag_29\n  jumpi\n    /* \"#utility.yul\":680:681   */\n  0x00\n    /* \"#utility.yul\":677:678   */\n  0x00\n    /* \"#utility.yul\":670:682   */\n  revert\n    /* \"#utility.yul\":621:684   */\ntag_29:\n    /* \"#utility.yul\":568:690   */\n  pop\n  jump\t// out\n    /* \"#utility.yul\":696:839   */\ntag_15:\n    /* \"#utility.yul\":753:758   */\n  0x00\n    /* \"#utility.yul\":784:790   */\n  dup2\n    /* \"#utility.yul\":778:791   */\n  mload\n    /* \"#utility.yul\":769:791   */\n  swap1\n  pop\n    /* \"#utility.yul\":800:833   */\n  tag_31\n    /* \"#utility.yul\":827:832   */\n  dup2\n    /* \"#utility.yul\":800:833   */\n  tag_14\n  jump\t// in\ntag_31:\n    /* \"#utility.yul\":696:839   */\n  swap3\n  swap2\n  pop\n  pop\n  jump\t// out\n    /* \"#utility.yul\":845:922   */\ntag_16:\n    /* \"#utility.yul\":882:889   */\n  0x00\n    /* \"#utility.yul\":911:916   */\n  dup2\n    /* \"#utility.yul\":900:916   */\n  swap1\n  pop\n    /* \"#utility.yul\":845:922   */\n  swap2\n  swap1\n  pop\n  jump\t// out\n    /* \"#utility.yul\":928:1050   */\ntag_17:\n    /* \"#utility.yul\":1001:1025   */\n  tag_34\n    /* \"#utility.yul\":1019:1024   */\n  dup2\n    /* \"#utility.yul\":1001:1025   */\n  tag_16\n  jump\t// in\ntag_34:\n    /* \"#utility.yul\":994:999   */\n  dup2\n    /* \"#utility.yul\":991:1026   */\n  eq\n    /* \"#utility.yul\":981:1044   */\n  tag_35\n  jumpi\n    /* \"#utility.yul\":1040:1041   */\n  0x00\n    /* \"#utility.yul\":1037:1038   */\n  0x00\n    /* \"#utility.yul\":1030:1042   */\n  revert\n    /* \"#utility.yul\":981:1044   */\ntag_35:\n    /* \"#utility.yul\":928:1050   */\n  pop\n  jump\t// out\n    /* \"#utility.yul\":1056:1199   */\ntag_18:\n    /* \"#utility.yul\":1113:1118   */\n  0x00\n    /* \"#utility.yul\":1144:1150   */\n  dup2\n    /* \"#utility.yul\":1138:1151   */\n  mload\n    /* \"#utility.yul\":1129:1151   */\n  swap1\n  pop\n    /* \"#utility.yul\":1160:1193   */\n  tag_37\n    /* \"#utility.yul\":1187:1192   */\n  dup2\n    /* \"#utility.yul\":1160:1193   */\n  tag_17\n  jump\t// in\ntag_37:\n    /* \"#utility.yul\":1056:1199   */\n  swap3\n  swap2\n  pop\n  pop\n  jump\t// out\n    /* \"#utility.yul\":1205:1868   */\ntag_3:\n    /* \"#utility.yul\":1293:1299   */\n  0x00\n    /* \"#utility.yul\":1301:1307   */\n  0x00\n    /* \"#utility.yul\":1309:1315   */\n  0x00\n    /* \"#utility.yul\":1358:1360   */\n  0x60\n    /* \"#utility.yul\":1346:1355   */\n  dup5\n    /* \"#utility.yul\":1337:1344   */\n  dup7\n    /* \"#utility.yul\":1333:1356   */\n  sub\n    /* \"#utility.yul\":1329:1361   */\n  slt\n    /* \"#utility.yul\":1326:1445   */\n  iszero\n  tag_39\n  jumpi\n    /* \"#utility.yul\":1364:1443   */\n  tag_40\n  tag_10\n  jump\t// in\ntag_40:\n    /* \"#utility.yul\":1326:1445   */\ntag_39:\n    /* \"#utility.yul\":1484:1485   */\n  0x00\n    /* \"#utility.yul\":1509:1573   */\n  tag_41\n    /* \"#utility.yul\":1565:1572   */\n  dup7\n    /* \"#utility.yul\":1556:1562   */\n  dup3\n    /* \"#utility.yul\":1545:1554   */\n  dup8\n    /* \"#utility.yul\":1541:1563   */\n  add\n    /* \"#utility.yul\":1509:1573   */\n  tag_15\n  jump\t// in\ntag_41:\n    /* \"#utility.yul\":1499:1573   */\n  swap4\n  pop\n    /* \"#utility.yul\":1455:1583   */\n  pop\n    /* \"#utility.yul\":1622:1624   */\n  0x20\n    /* \"#utility.yul\":1648:1712   */\n  tag_42\n    /* \"#utility.yul\":1704:1711   */\n  dup7\n    /* \"#utility.yul\":1695:1701   */\n  dup3\n    /* \"#utility.yul\":1684:1693   */\n  dup8\n    /* \"#utility.yul\":1680:1702   */\n  add\n    /* \"#utility.yul\":1648:1712   */\n  tag_18\n  jump\t// in\ntag_42:\n    /* \"#utility.yul\":1638:1712   */\n  swap3\n  pop\n    /* \"#utility.yul\":1593:1722   */\n  pop\n    /* \"#utility.yul\":1761:1763   */\n  0x40\n    /* \"#utility.yul\":1787:1851   */\n  tag_43\n    /* \"#utility.yul\":1843:1850   */\n  dup7\n    /* \"#utility.yul\":1834:1840   */\n  dup3\n    /* \"#utility.yul\":1823:1832   */\n  dup8\n    /* \"#utility.yul\":1819:1841   */\n  add\n    /* \"#utility.yul\":1787:1851   */\n  tag_18\n  jump\t// in\ntag_43:\n    /* \"#utility.yul\":1777:1851   */\n  swap2\n  pop\n    /* \"#utility.yul\":1732:1861   */\n  pop\n    /* \"#utility.yul\":1205:1868   */\n  swap3\n  pop\n  swap3\n  pop\n  swap3\n  jump\t// out\n    /* \"#utility.yul\":1874:2054   */\ntag_19:\n    /* \"#utility.yul\":1922:1999   */\n  0x4e487b7100000000000000000000000000000000000000000000000000000000\n    /* \"#utility.yul\":1919:1920   */\n  0x00\n    /* \"#utility.yul\":1912:2000   */\n  mstore\n    /* \"#utility.yul\":2019:2023   */\n  0x11\n    /* \"#utility.yul\":2016:2017   */\n  0x04\n    /* \"#utility.yul\":2009:2024   */\n  mstore\n    /* \"#utility.yul\":2043:2047   */\n  0x24\n    /* \"#utility.yul\":2040:2041   */\n  0x00\n    /* \"#utility.yul\":2033:2048   */\n  revert\n    /* \"#utility.yul\":2060:2251   */\ntag_7:\n    /* \"#utility.yul\":2100:2103   */\n  0x00\n    /* \"#utility.yul\":2119:2139   */\n  tag_46\n    /* \"#utility.yul\":2137:2138   */\n  dup3\n    /* \"#utility.yul\":2119:2139   */\n  tag_16\n  jump\t// in\ntag_46:\n    /* \"#utility.yul\":2114:2139   */\n  swap2\n  pop\n    /* \"#utility.yul\":2153:2173   */\n  tag_47\n    /* \"#utility.yul\":2171:2172   */\n  dup4\n    /* \"#utility.yul\":2153:2173   */\n  tag_16\n  jump\t// in\ntag_47:\n    /* \"#utility.yul\":2148:2173   */\n  swap3\n  pop\n    /* \"#utility.yul\":2196:2197   */\n  dup3\n    /* \"#utility.yul\":2193:2194   */\n  dup3\n    /* \"#utility.yul\":2189:2198   */\n  add\n    /* \"#utility.yul\":2182:2198   */\n  swap1\n  pop\n    /* \"#utility.yul\":2217:2220   */\n  dup1\n    /* \"#utility.yul\":2214:2215   */\n  dup3\n    /* \"#utility.yul\":2211:2221   */\n  gt\n    /* \"#utility.yul\":2208:2244   */\n  iszero\n  tag_48\n  jumpi\n    /* \"#utility.yul\":2224:2242   */\n  tag_49\n  tag_19\n  jump\t// in\ntag_49:\n    /* \"#utility.yul\":2208:2244   */\ntag_48:\n    /* \"#utility.yul\":2060:2251   */\n  swap3\n  swap2\n  pop\n  pop\n  jump\t// out\n    /* \"solidity\\xe9\\x87\\x91\\xe8\\x9e\\x8d\\xe5\\x92\\x8c\\xe6\\x94\\xaf\\xe4\\xbb\\x98/\\xe8\\x8b\\xb1\\xe5\\xbc\\x8f\\xe6\\x8b\\x8d\\xe5\\x8d\\x96EnglishAuction.sol\":164:2107  contract EnglishAuction {... */\ntag_8:\n  mload(0x80)\n  mload(0xa0)\n  mload(0xc0)\n  codecopy(0x00, dataOffset(sub_0), dataSize(sub_0))\n  0x00\n  assignImmutable(\"0x8fef2229291b68be841adf029e58b87f39ba144b2d3b0af1760243d0a9bc6a1c\")\n  0x00\n  assignImmutable(\"0x277ab82e5a4641341820a4a2933a62c1de997e42e92548657ae21b3728d580fe\")\n  0x00\n  assignImmutable(\"0x5c4c6aa067b6f8e6cb38e6ab843832a94d1712d661a04d73c517d6a1931a9e5d\")\n  return(0x00, dataSize(sub_0))\nstop\n\nsub_0: assembly {\n        /* \"solidity\\xe9\\x87\\x91\\xe8\\x9e\\x8d\\xe5\\x92\\x8c\\xe6\\x94\\xaf\\xe4\\xbb\\x98/\\xe8\\x8b\\xb1\\xe5\\xbc\\x8f\\xe6\\x8b\\x8d\\xe5\\x8d\\x96EnglishAuction.sol\":164:2107  contract EnglishAuction {... */\n      mstore(0x40, 0x80)\n      jumpi(tag_1, lt(calldatasize, 0x04))\n      shr(0xe0, calldataload(0x00))\n      dup1\n      0x3ffcb8b9\n      gt\n      tag_14\n      jumpi\n      dup1\n      0x3ffcb8b9\n      eq\n      tag_8\n      jumpi\n      dup1\n      0x62ea82db\n      eq\n      tag_9\n      jumpi\n      dup1\n      0xbe9a6555\n      eq\n      tag_10\n      jumpi\n      dup1\n      0xc6bc5182\n      eq\n      tag_11\n      jumpi\n      dup1\n      0xd57bde79\n      eq\n      tag_12\n      jumpi\n      dup1\n      0xefbe1c1c\n      eq\n      tag_13\n      jumpi\n      jump(tag_1)\n    tag_14:\n      dup1\n      0x08551a53\n      eq\n      tag_2\n      jumpi\n      dup1\n      0x0fdb1c10\n      eq\n      tag_3\n      jumpi\n      dup1\n      0x12fa6feb\n      eq\n      tag_4\n      jumpi\n      dup1\n      0x1998aeef\n      eq\n      tag_5\n      jumpi\n      dup1\n      0x1f2698ab\n      eq\n      tag_6\n      jumpi\n      dup1\n      0x3197cbb6\n      eq\n      tag_7\n      jumpi\n    tag_1:\n      revert(0x00, 0x00)\n        /* \"solidity\\xe9\\x87\\x91\\xe8\\x9e\\x8d\\xe5\\x92\\x8c\\xe6\\x94\\xaf\\xe4\\xbb\\x98/\\xe8\\x8b\\xb1\\xe5\\xbc\\x8f\\xe6\\x8b\\x8d\\xe5\\x8d\\x96EnglishAuction.sol\":296:336  address payable public immutable  seller */\n    tag_2:\n      callvalue\n      dup1\n      iszero\n      tag_15\n      jumpi\n      revert(0x00, 0x00)\n    tag_15:\n      pop\n      tag_16\n      tag_17\n      jump\t// in\n    tag_16:\n      mload(0x40)\n      tag_18\n      swap2\n      swap1\n      tag_19\n      jump\t// in\n    tag_18:\n      mload(0x40)\n      dup1\n      swap2\n      sub\n      swap1\n      return\n        /* \"solidity\\xe9\\x87\\x91\\xe8\\x9e\\x8d\\xe5\\x92\\x8c\\xe6\\x94\\xaf\\xe4\\xbb\\x98/\\xe8\\x8b\\xb1\\xe5\\xbc\\x8f\\xe6\\x8b\\x8d\\xe5\\x8d\\x96EnglishAuction.sol\":1444:1665  function withDraw() external returns(bool) {... */\n    tag_3:\n      callvalue\n      dup1\n      iszero\n      tag_20\n      jumpi\n      revert(0x00, 0x00)\n    tag_20:\n      pop\n      tag_21\n      tag_22\n      jump\t// in\n    tag_21:\n      mload(0x40)\n      tag_23\n      swap2\n      swap1\n      tag_24\n      jump\t// in\n    tag_23:\n      mload(0x40)\n      dup1\n      swap2\n      sub\n      swap1\n      return\n        /* \"solidity\\xe9\\x87\\x91\\xe8\\x9e\\x8d\\xe5\\x92\\x8c\\xe6\\x94\\xaf\\xe4\\xbb\\x98/\\xe8\\x8b\\xb1\\xe5\\xbc\\x8f\\xe6\\x8b\\x8d\\xe5\\x8d\\x96EnglishAuction.sol\":395:412  bool public ended */\n    tag_4:\n      callvalue\n      dup1\n      iszero\n      tag_25\n      jumpi\n      revert(0x00, 0x00)\n    tag_25:\n      pop\n      tag_26\n      tag_27\n      jump\t// in\n    tag_26:\n      mload(0x40)\n      tag_28\n      swap2\n      swap1\n      tag_24\n      jump\t// in\n    tag_28:\n      mload(0x40)\n      dup1\n      swap2\n      sub\n      swap1\n      return\n        /* \"solidity\\xe9\\x87\\x91\\xe8\\x9e\\x8d\\xe5\\x92\\x8c\\xe6\\x94\\xaf\\xe4\\xbb\\x98/\\xe8\\x8b\\xb1\\xe5\\xbc\\x8f\\xe6\\x8b\\x8d\\xe5\\x8d\\x96EnglishAuction.sol\":1103:1416  function bid() external payable {... */\n    tag_5:\n      tag_29\n      tag_30\n      jump\t// in\n    tag_29:\n      stop\n        /* \"solidity\\xe9\\x87\\x91\\xe8\\x9e\\x8d\\xe5\\x92\\x8c\\xe6\\x94\\xaf\\xe4\\xbb\\x98/\\xe8\\x8b\\xb1\\xe5\\xbc\\x8f\\xe6\\x8b\\x8d\\xe5\\x8d\\x96EnglishAuction.sol\":369:388  bool public started */\n    tag_6:\n      callvalue\n      dup1\n      iszero\n      tag_31\n      jumpi\n      revert(0x00, 0x00)\n    tag_31:\n      pop\n      tag_32\n      tag_33\n      jump\t// in\n    tag_32:\n      mload(0x40)\n      tag_34\n      swap2\n      swap1\n      tag_24\n      jump\t// in\n    tag_34:\n      mload(0x40)\n      dup1\n      swap2\n      sub\n      swap1\n      return\n        /* \"solidity\\xe9\\x87\\x91\\xe8\\x9e\\x8d\\xe5\\x92\\x8c\\xe6\\x94\\xaf\\xe4\\xbb\\x98/\\xe8\\x8b\\xb1\\xe5\\xbc\\x8f\\xe6\\x8b\\x8d\\xe5\\x8d\\x96EnglishAuction.sol\":343:362  uint public endTime */\n    tag_7:\n      callvalue\n      dup1\n      iszero\n      tag_35\n      jumpi\n      revert(0x00, 0x00)\n    tag_35:\n      pop\n      tag_36\n      tag_37\n      jump\t// in\n    tag_36:\n      mload(0x40)\n      tag_38\n      swap2\n      swap1\n      tag_39\n      jump\t// in\n    tag_38:\n      mload(0x40)\n      dup1\n      swap2\n      sub\n      swap1\n      return\n        /* \"solidity\\xe9\\x87\\x91\\xe8\\x9e\\x8d\\xe5\\x92\\x8c\\xe6\\x94\\xaf\\xe4\\xbb\\x98/\\xe8\\x8b\\xb1\\xe5\\xbc\\x8f\\xe6\\x8b\\x8d\\xe5\\x8d\\x96EnglishAuction.sol\":419:448  address public higehestBidder */\n    tag_8:\n      callvalue\n      dup1\n      iszero\n      tag_40\n      jumpi\n      revert(0x00, 0x00)\n    tag_40:\n      pop\n      tag_41\n      tag_42\n      jump\t// in\n    tag_41:\n      mload(0x40)\n      tag_43\n      swap2\n      swap1\n      tag_44\n      jump\t// in\n    tag_43:\n      mload(0x40)\n      dup1\n      swap2\n      sub\n      swap1\n      return\n        /* \"solidity\\xe9\\x87\\x91\\xe8\\x9e\\x8d\\xe5\\x92\\x8c\\xe6\\x94\\xaf\\xe4\\xbb\\x98/\\xe8\\x8b\\xb1\\xe5\\xbc\\x8f\\xe6\\x8b\\x8d\\xe5\\x8d\\x96EnglishAuction.sol\":515:551  mapping(address => uint) public bids */\n    tag_9:\n      callvalue\n      dup1\n      iszero\n      tag_45\n      jumpi\n      revert(0x00, 0x00)\n    tag_45:\n      pop\n      tag_46\n      0x04\n      dup1\n      calldatasize\n      sub\n      dup2\n      add\n      swap1\n      tag_47\n      swap2\n      swap1\n      tag_48\n      jump\t// in\n    tag_47:\n      tag_49\n      jump\t// in\n    tag_46:\n      mload(0x40)\n      tag_50\n      swap2\n      swap1\n      tag_39\n      jump\t// in\n    tag_50:\n      mload(0x40)\n      dup1\n      swap2\n      sub\n      swap1\n      return\n        /* \"solidity\\xe9\\x87\\x91\\xe8\\x9e\\x8d\\xe5\\x92\\x8c\\xe6\\x94\\xaf\\xe4\\xbb\\x98/\\xe8\\x8b\\xb1\\xe5\\xbc\\x8f\\xe6\\x8b\\x8d\\xe5\\x8d\\x96EnglishAuction.sol\":862:1075  function start() external {... */\n    tag_10:\n      callvalue\n      dup1\n      iszero\n      tag_51\n      jumpi\n      revert(0x00, 0x00)\n    tag_51:\n      pop\n      tag_52\n      tag_53\n      jump\t// in\n    tag_52:\n      stop\n        /* \"solidity\\xe9\\x87\\x91\\xe8\\x9e\\x8d\\xe5\\x92\\x8c\\xe6\\x94\\xaf\\xe4\\xbb\\x98/\\xe8\\x8b\\xb1\\xe5\\xbc\\x8f\\xe6\\x8b\\x8d\\xe5\\x8d\\x96EnglishAuction.sol\":240:267  uint public immutable nftId */\n    tag_11:\n      callvalue\n      dup1\n      iszero\n      tag_54\n      jumpi\n      revert(0x00, 0x00)\n    tag_54:\n      pop\n      tag_55\n      tag_56\n      jump\t// in\n    tag_55:\n      mload(0x40)\n      tag_57\n      swap2\n      swap1\n      tag_39\n      jump\t// in\n    tag_57:\n      mload(0x40)\n      dup1\n      swap2\n      sub\n      swap1\n      return\n        /* \"solidity\\xe9\\x87\\x91\\xe8\\x9e\\x8d\\xe5\\x92\\x8c\\xe6\\x94\\xaf\\xe4\\xbb\\x98/\\xe8\\x8b\\xb1\\xe5\\xbc\\x8f\\xe6\\x8b\\x8d\\xe5\\x8d\\x96EnglishAuction.sol\":472:494  uint public highestBid */\n    tag_12:\n      callvalue\n      dup1\n      iszero\n      tag_58\n      jumpi\n      revert(0x00, 0x00)\n    tag_58:\n      pop\n      tag_59\n      tag_60\n      jump\t// in\n    tag_59:\n      mload(0x40)\n      tag_61\n      swap2\n      swap1\n      tag_39\n      jump\t// in\n    tag_61:\n      mload(0x40)\n      dup1\n      swap2\n      sub\n      swap1\n      return\n        /* \"solidity\\xe9\\x87\\x91\\xe8\\x9e\\x8d\\xe5\\x92\\x8c\\xe6\\x94\\xaf\\xe4\\xbb\\x98/\\xe8\\x8b\\xb1\\xe5\\xbc\\x8f\\xe6\\x8b\\x8d\\xe5\\x8d\\x96EnglishAuction.sol\":1693:2104  function end() external {... */\n    tag_13:\n      callvalue\n      dup1\n      iszero\n      tag_62\n      jumpi\n      revert(0x00, 0x00)\n    tag_62:\n      pop\n      tag_63\n      tag_64\n      jump\t// in\n    tag_63:\n      stop\n        /* \"solidity\\xe9\\x87\\x91\\xe8\\x9e\\x8d\\xe5\\x92\\x8c\\xe6\\x94\\xaf\\xe4\\xbb\\x98/\\xe8\\x8b\\xb1\\xe5\\xbc\\x8f\\xe6\\x8b\\x8d\\xe5\\x8d\\x96EnglishAuction.sol\":296:336  address payable public immutable  seller */\n    tag_17:\n      immutable(\"0x8fef2229291b68be841adf029e58b87f39ba144b2d3b0af1760243d0a9bc6a1c\")\n      dup2\n      jump\t// out\n        /* \"solidity\\xe9\\x87\\x91\\xe8\\x9e\\x8d\\xe5\\x92\\x8c\\xe6\\x94\\xaf\\xe4\\xbb\\x98/\\xe8\\x8b\\xb1\\xe5\\xbc\\x8f\\xe6\\x8b\\x8d\\xe5\\x8d\\x96EnglishAuction.sol\":1444:1665  function withDraw() external returns(bool) {... */\n    tag_22:\n        /* \"solidity\\xe9\\x87\\x91\\xe8\\x9e\\x8d\\xe5\\x92\\x8c\\xe6\\x94\\xaf\\xe4\\xbb\\x98/\\xe8\\x8b\\xb1\\xe5\\xbc\\x8f\\xe6\\x8b\\x8d\\xe5\\x8d\\x96EnglishAuction.sol\":1481:1485  bool */\n      0x00\n        /* \"solidity\\xe9\\x87\\x91\\xe8\\x9e\\x8d\\xe5\\x92\\x8c\\xe6\\x94\\xaf\\xe4\\xbb\\x98/\\xe8\\x8b\\xb1\\xe5\\xbc\\x8f\\xe6\\x8b\\x8d\\xe5\\x8d\\x96EnglishAuction.sol\":1498:1509  uint amount */\n      0x00\n        /* \"solidity\\xe9\\x87\\x91\\xe8\\x9e\\x8d\\xe5\\x92\\x8c\\xe6\\x94\\xaf\\xe4\\xbb\\x98/\\xe8\\x8b\\xb1\\xe5\\xbc\\x8f\\xe6\\x8b\\x8d\\xe5\\x8d\\x96EnglishAuction.sol\":1512:1516  bids */\n      0x03\n        /* \"solidity\\xe9\\x87\\x91\\xe8\\x9e\\x8d\\xe5\\x92\\x8c\\xe6\\x94\\xaf\\xe4\\xbb\\x98/\\xe8\\x8b\\xb1\\xe5\\xbc\\x8f\\xe6\\x8b\\x8d\\xe5\\x8d\\x96EnglishAuction.sol\":1512:1528  bids[msg.sender] */\n      0x00\n        /* \"solidity\\xe9\\x87\\x91\\xe8\\x9e\\x8d\\xe5\\x92\\x8c\\xe6\\x94\\xaf\\xe4\\xbb\\x98/\\xe8\\x8b\\xb1\\xe5\\xbc\\x8f\\xe6\\x8b\\x8d\\xe5\\x8d\\x96EnglishAuction.sol\":1517:1527  msg.sender */\n      caller\n        /* \"solidity\\xe9\\x87\\x91\\xe8\\x9e\\x8d\\xe5\\x92\\x8c\\xe6\\x94\\xaf\\xe4\\xbb\\x98/\\xe8\\x8b\\xb1\\xe5\\xbc\\x8f\\xe6\\x8b\\x8d\\xe5\\x8d\\x96EnglishAuction.sol\":1512:1528  bids[msg.sender] */\n      0xffffffffffffffffffffffffffffffffffffffff\n      and\n      0xffffffffffffffffffffffffffffffffffffffff\n      and\n      dup2\n      mstore\n      0x20\n      add\n      swap1\n      dup2\n      mstore\n      0x20\n      add\n      0x00\n      keccak256\n      sload\n        /* \"solidity\\xe9\\x87\\x91\\xe8\\x9e\\x8d\\xe5\\x92\\x8c\\xe6\\x94\\xaf\\xe4\\xbb\\x98/\\xe8\\x8b\\xb1\\xe5\\xbc\\x8f\\xe6\\x8b\\x8d\\xe5\\x8d\\x96EnglishAuction.sol\":1498:1528  uint amount = bids[msg.sender] */\n      swap1\n      pop\n        /* \"solidity\\xe9\\x87\\x91\\xe8\\x9e\\x8d\\xe5\\x92\\x8c\\xe6\\x94\\xaf\\xe4\\xbb\\x98/\\xe8\\x8b\\xb1\\xe5\\xbc\\x8f\\xe6\\x8b\\x8d\\xe5\\x8d\\x96EnglishAuction.sol\":1558:1559  0 */\n      0x00\n        /* \"solidity\\xe9\\x87\\x91\\xe8\\x9e\\x8d\\xe5\\x92\\x8c\\xe6\\x94\\xaf\\xe4\\xbb\\x98/\\xe8\\x8b\\xb1\\xe5\\xbc\\x8f\\xe6\\x8b\\x8d\\xe5\\x8d\\x96EnglishAuction.sol\":1539:1543  bids */\n      0x03\n        /* \"solidity\\xe9\\x87\\x91\\xe8\\x9e\\x8d\\xe5\\x92\\x8c\\xe6\\x94\\xaf\\xe4\\xbb\\x98/\\xe8\\x8b\\xb1\\xe5\\xbc\\x8f\\xe6\\x8b\\x8d\\xe5\\x8d\\x96EnglishAuction.sol\":1539:1555  bids[msg.sender] */\n      0x00\n        /* \"solidity\\xe9\\x87\\x91\\xe8\\x9e\\x8d\\xe5\\x92\\x8c\\xe6\\x94\\xaf\\xe4\\xbb\\x98/\\xe8\\x8b\\xb1\\xe5\\xbc\\x8f\\xe6\\x8b\\x8d\\xe5\\x8d\\x96EnglishAuction.sol\":1544:1554  msg.sender */\n      caller\n        /* \"solidity\\xe9\\x87\\x91\\xe8\\x9e\\x8d\\xe5\\x92\\x8c\\xe6\\x94\\xaf\\xe4\\xbb\\x98/\\xe8\\x8b\\xb1\\xe5\\xbc\\x8f\\xe6\\x8b\\x8d\\xe5\\x8d\\x96EnglishAuction.sol\":1539:1555  bids[msg.sender] */\n      0xffffffffffffffffffffffffffffffffffffffff\n      and\n      0xffffffffffffffffffffffffffffffffffffffff\n      and\n      dup2\n      mstore\n      0x20\n      add\n      swap1\n      dup2\n      mstore\n      0x20\n      add\n      0x00\n      keccak256\n        /* \"solidity\\xe9\\x87\\x91\\xe8\\x9e\\x8d\\xe5\\x92\\x8c\\xe6\\x94\\xaf\\xe4\\xbb\\x98/\\xe8\\x8b\\xb1\\xe5\\xbc\\x8f\\xe6\\x8b\\x8d\\xe5\\x8d\\x96EnglishAuction.sol\":1539:1559  bids[msg.sender] = 0 */\n      dup2\n      swap1\n      sstore\n      pop\n        /* \"solidity\\xe9\\x87\\x91\\xe8\\x9e\\x8d\\xe5\\x92\\x8c\\xe6\\x94\\xaf\\xe4\\xbb\\x98/\\xe8\\x8b\\xb1\\xe5\\xbc\\x8f\\xe6\\x8b\\x8d\\xe5\\x8d\\x96EnglishAuction.sol\":1571:1583  bool success */\n      0x00\n        /* \"solidity\\xe9\\x87\\x91\\xe8\\x9e\\x8d\\xe5\\x92\\x8c\\xe6\\x94\\xaf\\xe4\\xbb\\x98/\\xe8\\x8b\\xb1\\xe5\\xbc\\x8f\\xe6\\x8b\\x8d\\xe5\\x8d\\x96EnglishAuction.sol\":1597:1607  msg.sender */\n      caller\n        /* \"solidity\\xe9\\x87\\x91\\xe8\\x9e\\x8d\\xe5\\x92\\x8c\\xe6\\x94\\xaf\\xe4\\xbb\\x98/\\xe8\\x8b\\xb1\\xe5\\xbc\\x8f\\xe6\\x8b\\x8d\\xe5\\x8d\\x96EnglishAuction.sol\":1588:1613  payable (msg.sender).call */\n      0xffffffffffffffffffffffffffffffffffffffff\n      and\n        /* \"solidity\\xe9\\x87\\x91\\xe8\\x9e\\x8d\\xe5\\x92\\x8c\\xe6\\x94\\xaf\\xe4\\xbb\\x98/\\xe8\\x8b\\xb1\\xe5\\xbc\\x8f\\xe6\\x8b\\x8d\\xe5\\x8d\\x96EnglishAuction.sol\":1621:1627  amount */\n      dup3\n        /* \"solidity\\xe9\\x87\\x91\\xe8\\x9e\\x8d\\xe5\\x92\\x8c\\xe6\\x94\\xaf\\xe4\\xbb\\x98/\\xe8\\x8b\\xb1\\xe5\\xbc\\x8f\\xe6\\x8b\\x8d\\xe5\\x8d\\x96EnglishAuction.sol\":1588:1632  payable (msg.sender).call{value: amount}(\"\") */\n      mload(0x40)\n      tag_66\n      swap1\n      tag_67\n      jump\t// in\n    tag_66:\n      0x00\n      mload(0x40)\n      dup1\n      dup4\n      sub\n      dup2\n      dup6\n      dup8\n      gas\n      call\n      swap3\n      pop\n      pop\n      pop\n      returndatasize\n      dup1\n      0x00\n      dup2\n      eq\n      tag_70\n      jumpi\n      mload(0x40)\n      swap2\n      pop\n      and(add(returndatasize, 0x3f), not(0x1f))\n      dup3\n      add\n      0x40\n      mstore\n      returndatasize\n      dup3\n      mstore\n      returndatasize\n      0x00\n      0x20\n      dup5\n      add\n      returndatacopy\n      jump(tag_69)\n    tag_70:\n      0x60\n      swap2\n      pop\n    tag_69:\n      pop\n        /* \"solidity\\xe9\\x87\\x91\\xe8\\x9e\\x8d\\xe5\\x92\\x8c\\xe6\\x94\\xaf\\xe4\\xbb\\x98/\\xe8\\x8b\\xb1\\xe5\\xbc\\x8f\\xe6\\x8b\\x8d\\xe5\\x8d\\x96EnglishAuction.sol\":1570:1632  (bool success,) = payable (msg.sender).call{value: amount}(\"\") */\n      pop\n      swap1\n      pop\n        /* \"solidity\\xe9\\x87\\x91\\xe8\\x9e\\x8d\\xe5\\x92\\x8c\\xe6\\x94\\xaf\\xe4\\xbb\\x98/\\xe8\\x8b\\xb1\\xe5\\xbc\\x8f\\xe6\\x8b\\x8d\\xe5\\x8d\\x96EnglishAuction.sol\":1650:1657  success */\n      dup1\n        /* \"solidity\\xe9\\x87\\x91\\xe8\\x9e\\x8d\\xe5\\x92\\x8c\\xe6\\x94\\xaf\\xe4\\xbb\\x98/\\xe8\\x8b\\xb1\\xe5\\xbc\\x8f\\xe6\\x8b\\x8d\\xe5\\x8d\\x96EnglishAuction.sol\":1643:1657  return success */\n      swap3\n      pop\n      pop\n      pop\n        /* \"solidity\\xe9\\x87\\x91\\xe8\\x9e\\x8d\\xe5\\x92\\x8c\\xe6\\x94\\xaf\\xe4\\xbb\\x98/\\xe8\\x8b\\xb1\\xe5\\xbc\\x8f\\xe6\\x8b\\x8d\\xe5\\x8d\\x96EnglishAuction.sol\":1444:1665  function withDraw() external returns(bool) {... */\n      swap1\n      jump\t// out\n        /* \"solidity\\xe9\\x87\\x91\\xe8\\x9e\\x8d\\xe5\\x92\\x8c\\xe6\\x94\\xaf\\xe4\\xbb\\x98/\\xe8\\x8b\\xb1\\xe5\\xbc\\x8f\\xe6\\x8b\\x8d\\xe5\\x8d\\x96EnglishAuction.sol\":395:412  bool public ended */\n    tag_27:\n      0x01\n      dup1\n      sload\n      swap1\n      0x0100\n      exp\n      swap1\n      div\n      0xff\n      and\n      dup2\n      jump\t// out\n        /* \"solidity\\xe9\\x87\\x91\\xe8\\x9e\\x8d\\xe5\\x92\\x8c\\xe6\\x94\\xaf\\xe4\\xbb\\x98/\\xe8\\x8b\\xb1\\xe5\\xbc\\x8f\\xe6\\x8b\\x8d\\xe5\\x8d\\x96EnglishAuction.sol\":1103:1416  function bid() external payable {... */\n    tag_30:\n        /* \"solidity\\xe9\\x87\\x91\\xe8\\x9e\\x8d\\xe5\\x92\\x8c\\xe6\\x94\\xaf\\xe4\\xbb\\x98/\\xe8\\x8b\\xb1\\xe5\\xbc\\x8f\\xe6\\x8b\\x8d\\xe5\\x8d\\x96EnglishAuction.sol\":1154:1161  started */\n      0x01\n      0x00\n      swap1\n      sload\n      swap1\n      0x0100\n      exp\n      swap1\n      div\n      0xff\n      and\n        /* \"solidity\\xe9\\x87\\x91\\xe8\\x9e\\x8d\\xe5\\x92\\x8c\\xe6\\x94\\xaf\\xe4\\xbb\\x98/\\xe8\\x8b\\xb1\\xe5\\xbc\\x8f\\xe6\\x8b\\x8d\\xe5\\x8d\\x96EnglishAuction.sol\":1146:1174  require(started,\"not start\") */\n      tag_72\n      jumpi\n      mload(0x40)\n      0x08c379a000000000000000000000000000000000000000000000000000000000\n      dup2\n      mstore\n      0x04\n      add\n      tag_73\n      swap1\n      tag_74\n      jump\t// in\n    tag_73:\n      mload(0x40)\n      dup1\n      swap2\n      sub\n      swap1\n      revert\n    tag_72:\n        /* \"solidity\\xe9\\x87\\x91\\xe8\\x9e\\x8d\\xe5\\x92\\x8c\\xe6\\x94\\xaf\\xe4\\xbb\\x98/\\xe8\\x8b\\xb1\\xe5\\xbc\\x8f\\xe6\\x8b\\x8d\\xe5\\x8d\\x96EnglishAuction.sol\":1211:1218  endTime */\n      sload(0x00)\n        /* \"solidity\\xe9\\x87\\x91\\xe8\\x9e\\x8d\\xe5\\x92\\x8c\\xe6\\x94\\xaf\\xe4\\xbb\\x98/\\xe8\\x8b\\xb1\\xe5\\xbc\\x8f\\xe6\\x8b\\x8d\\xe5\\x8d\\x96EnglishAuction.sol\":1193:1208  block.timestamp */\n      timestamp\n        /* \"solidity\\xe9\\x87\\x91\\xe8\\x9e\\x8d\\xe5\\x92\\x8c\\xe6\\x94\\xaf\\xe4\\xbb\\x98/\\xe8\\x8b\\xb1\\xe5\\xbc\\x8f\\xe6\\x8b\\x8d\\xe5\\x8d\\x96EnglishAuction.sol\":1193:1218  block.timestamp < endTime */\n      lt\n        /* \"solidity\\xe9\\x87\\x91\\xe8\\x9e\\x8d\\xe5\\x92\\x8c\\xe6\\x94\\xaf\\xe4\\xbb\\x98/\\xe8\\x8b\\xb1\\xe5\\xbc\\x8f\\xe6\\x8b\\x8d\\xe5\\x8d\\x96EnglishAuction.sol\":1185:1233  require(block.timestamp < endTime,\"already end\") */\n      tag_75\n      jumpi\n      mload(0x40)\n      0x08c379a000000000000000000000000000000000000000000000000000000000\n      dup2\n      mstore\n      0x04\n      add\n      tag_76\n      swap1\n      tag_77\n      jump\t// in\n    tag_76:\n      mload(0x40)\n      dup1\n      swap2\n      sub\n      swap1\n      revert\n    tag_75:\n        /* \"solidity\\xe9\\x87\\x91\\xe8\\x9e\\x8d\\xe5\\x92\\x8c\\xe6\\x94\\xaf\\xe4\\xbb\\x98/\\xe8\\x8b\\xb1\\xe5\\xbc\\x8f\\xe6\\x8b\\x8d\\xe5\\x8d\\x96EnglishAuction.sol\":1264:1274  highestBid */\n      sload(0x02)\n        /* \"solidity\\xe9\\x87\\x91\\xe8\\x9e\\x8d\\xe5\\x92\\x8c\\xe6\\x94\\xaf\\xe4\\xbb\\x98/\\xe8\\x8b\\xb1\\xe5\\xbc\\x8f\\xe6\\x8b\\x8d\\xe5\\x8d\\x96EnglishAuction.sol\":1252:1261  msg.value */\n      callvalue\n        /* \"solidity\\xe9\\x87\\x91\\xe8\\x9e\\x8d\\xe5\\x92\\x8c\\xe6\\x94\\xaf\\xe4\\xbb\\x98/\\xe8\\x8b\\xb1\\xe5\\xbc\\x8f\\xe6\\x8b\\x8d\\xe5\\x8d\\x96EnglishAuction.sol\":1252:1274  msg.value > highestBid */\n      gt\n        /* \"solidity\\xe9\\x87\\x91\\xe8\\x9e\\x8d\\xe5\\x92\\x8c\\xe6\\x94\\xaf\\xe4\\xbb\\x98/\\xe8\\x8b\\xb1\\xe5\\xbc\\x8f\\xe6\\x8b\\x8d\\xe5\\x8d\\x96EnglishAuction.sol\":1244:1296  require(msg.value > highestBid,\"value < highestBid\") */\n      tag_78\n      jumpi\n      mload(0x40)\n      0x08c379a000000000000000000000000000000000000000000000000000000000\n      dup2\n      mstore\n      0x04\n      add\n      tag_79\n      swap1\n      tag_80\n      jump\t// in\n    tag_79:\n      mload(0x40)\n      dup1\n      swap2\n      sub\n      swap1\n      revert\n    tag_78:\n        /* \"solidity\\xe9\\x87\\x91\\xe8\\x9e\\x8d\\xe5\\x92\\x8c\\xe6\\x94\\xaf\\xe4\\xbb\\x98/\\xe8\\x8b\\xb1\\xe5\\xbc\\x8f\\xe6\\x8b\\x8d\\xe5\\x8d\\x96EnglishAuction.sol\":1326:1336  msg.sender */\n      caller\n        /* \"solidity\\xe9\\x87\\x91\\xe8\\x9e\\x8d\\xe5\\x92\\x8c\\xe6\\x94\\xaf\\xe4\\xbb\\x98/\\xe8\\x8b\\xb1\\xe5\\xbc\\x8f\\xe6\\x8b\\x8d\\xe5\\x8d\\x96EnglishAuction.sol\":1309:1323  higehestBidder */\n      0x01\n      0x02\n        /* \"solidity\\xe9\\x87\\x91\\xe8\\x9e\\x8d\\xe5\\x92\\x8c\\xe6\\x94\\xaf\\xe4\\xbb\\x98/\\xe8\\x8b\\xb1\\xe5\\xbc\\x8f\\xe6\\x8b\\x8d\\xe5\\x8d\\x96EnglishAuction.sol\":1309:1336  higehestBidder = msg.sender */\n      0x0100\n      exp\n      dup2\n      sload\n      dup2\n      0xffffffffffffffffffffffffffffffffffffffff\n      mul\n      not\n      and\n      swap1\n      dup4\n      0xffffffffffffffffffffffffffffffffffffffff\n      and\n      mul\n      or\n      swap1\n      sstore\n      pop\n        /* \"solidity\\xe9\\x87\\x91\\xe8\\x9e\\x8d\\xe5\\x92\\x8c\\xe6\\x94\\xaf\\xe4\\xbb\\x98/\\xe8\\x8b\\xb1\\xe5\\xbc\\x8f\\xe6\\x8b\\x8d\\xe5\\x8d\\x96EnglishAuction.sol\":1360:1369  msg.value */\n      callvalue\n        /* \"solidity\\xe9\\x87\\x91\\xe8\\x9e\\x8d\\xe5\\x92\\x8c\\xe6\\x94\\xaf\\xe4\\xbb\\x98/\\xe8\\x8b\\xb1\\xe5\\xbc\\x8f\\xe6\\x8b\\x8d\\xe5\\x8d\\x96EnglishAuction.sol\":1347:1357  highestBid */\n      0x02\n        /* \"solidity\\xe9\\x87\\x91\\xe8\\x9e\\x8d\\xe5\\x92\\x8c\\xe6\\x94\\xaf\\xe4\\xbb\\x98/\\xe8\\x8b\\xb1\\xe5\\xbc\\x8f\\xe6\\x8b\\x8d\\xe5\\x8d\\x96EnglishAuction.sol\":1347:1369  highestBid = msg.value */\n      dup2\n      swap1\n      sstore\n      pop\n        /* \"solidity\\xe9\\x87\\x91\\xe8\\x9e\\x8d\\xe5\\x92\\x8c\\xe6\\x94\\xaf\\xe4\\xbb\\x98/\\xe8\\x8b\\xb1\\xe5\\xbc\\x8f\\xe6\\x8b\\x8d\\xe5\\x8d\\x96EnglishAuction.sol\":1399:1408  msg.value */\n      callvalue\n        /* \"solidity\\xe9\\x87\\x91\\xe8\\x9e\\x8d\\xe5\\x92\\x8c\\xe6\\x94\\xaf\\xe4\\xbb\\x98/\\xe8\\x8b\\xb1\\xe5\\xbc\\x8f\\xe6\\x8b\\x8d\\xe5\\x8d\\x96EnglishAuction.sol\":1380:1384  bids */\n      0x03\n        /* \"solidity\\xe9\\x87\\x91\\xe8\\x9e\\x8d\\xe5\\x92\\x8c\\xe6\\x94\\xaf\\xe4\\xbb\\x98/\\xe8\\x8b\\xb1\\xe5\\xbc\\x8f\\xe6\\x8b\\x8d\\xe5\\x8d\\x96EnglishAuction.sol\":1380:1396  bids[msg.sender] */\n      0x00\n        /* \"solidity\\xe9\\x87\\x91\\xe8\\x9e\\x8d\\xe5\\x92\\x8c\\xe6\\x94\\xaf\\xe4\\xbb\\x98/\\xe8\\x8b\\xb1\\xe5\\xbc\\x8f\\xe6\\x8b\\x8d\\xe5\\x8d\\x96EnglishAuction.sol\":1385:1395  msg.sender */\n      caller\n        /* \"solidity\\xe9\\x87\\x91\\xe8\\x9e\\x8d\\xe5\\x92\\x8c\\xe6\\x94\\xaf\\xe4\\xbb\\x98/\\xe8\\x8b\\xb1\\xe5\\xbc\\x8f\\xe6\\x8b\\x8d\\xe5\\x8d\\x96EnglishAuction.sol\":1380:1396  bids[msg.sender] */\n      0xffffffffffffffffffffffffffffffffffffffff\n      and\n      0xffffffffffffffffffffffffffffffffffffffff\n      and\n      dup2\n      mstore\n      0x20\n      add\n      swap1\n      dup2\n      mstore\n      0x20\n      add\n      0x00\n      keccak256\n        /* \"solidity\\xe9\\x87\\x91\\xe8\\x9e\\x8d\\xe5\\x92\\x8c\\xe6\\x94\\xaf\\xe4\\xbb\\x98/\\xe8\\x8b\\xb1\\xe5\\xbc\\x8f\\xe6\\x8b\\x8d\\xe5\\x8d\\x96EnglishAuction.sol\":1380:1408  bids[msg.sender] = msg.value */\n      dup2\n      swap1\n      sstore\n      pop\n        /* \"solidity\\xe9\\x87\\x91\\xe8\\x9e\\x8d\\xe5\\x92\\x8c\\xe6\\x94\\xaf\\xe4\\xbb\\x98/\\xe8\\x8b\\xb1\\xe5\\xbc\\x8f\\xe6\\x8b\\x8d\\xe5\\x8d\\x96EnglishAuction.sol\":1103:1416  function bid() external payable {... */\n      jump\t// out\n        /* \"solidity\\xe9\\x87\\x91\\xe8\\x9e\\x8d\\xe5\\x92\\x8c\\xe6\\x94\\xaf\\xe4\\xbb\\x98/\\xe8\\x8b\\xb1\\xe5\\xbc\\x8f\\xe6\\x8b\\x8d\\xe5\\x8d\\x96EnglishAuction.sol\":369:388  bool public started */\n    tag_33:\n      0x01\n      0x00\n      swap1\n      sload\n      swap1\n      0x0100\n      exp\n      swap1\n      div\n      0xff\n      and\n      dup2\n      jump\t// out\n        /* \"solidity\\xe9\\x87\\x91\\xe8\\x9e\\x8d\\xe5\\x92\\x8c\\xe6\\x94\\xaf\\xe4\\xbb\\x98/\\xe8\\x8b\\xb1\\xe5\\xbc\\x8f\\xe6\\x8b\\x8d\\xe5\\x8d\\x96EnglishAuction.sol\":343:362  uint public endTime */\n    tag_37:\n      sload(0x00)\n      dup2\n      jump\t// out\n        /* \"solidity\\xe9\\x87\\x91\\xe8\\x9e\\x8d\\xe5\\x92\\x8c\\xe6\\x94\\xaf\\xe4\\xbb\\x98/\\xe8\\x8b\\xb1\\xe5\\xbc\\x8f\\xe6\\x8b\\x8d\\xe5\\x8d\\x96EnglishAuction.sol\":419:448  address public higehestBidder */\n    tag_42:\n      0x01\n      0x02\n      swap1\n      sload\n      swap1\n      0x0100\n      exp\n      swap1\n      div\n      0xffffffffffffffffffffffffffffffffffffffff\n      and\n      dup2\n      jump\t// out\n        /* \"solidity\\xe9\\x87\\x91\\xe8\\x9e\\x8d\\xe5\\x92\\x8c\\xe6\\x94\\xaf\\xe4\\xbb\\x98/\\xe8\\x8b\\xb1\\xe5\\xbc\\x8f\\xe6\\x8b\\x8d\\xe5\\x8d\\x96EnglishAuction.sol\":515:551  mapping(address => uint) public bids */\n    tag_49:\n      mstore(0x20, 0x03)\n      dup1\n      0x00\n      mstore\n      keccak256(0x00, 0x40)\n      0x00\n      swap2\n      pop\n      swap1\n      pop\n      sload\n      dup2\n      jump\t// out\n        /* \"solidity\\xe9\\x87\\x91\\xe8\\x9e\\x8d\\xe5\\x92\\x8c\\xe6\\x94\\xaf\\xe4\\xbb\\x98/\\xe8\\x8b\\xb1\\xe5\\xbc\\x8f\\xe6\\x8b\\x8d\\xe5\\x8d\\x96EnglishAuction.sol\":862:1075  function start() external {... */\n    tag_53:\n        /* \"solidity\\xe9\\x87\\x91\\xe8\\x9e\\x8d\\xe5\\x92\\x8c\\xe6\\x94\\xaf\\xe4\\xbb\\x98/\\xe8\\x8b\\xb1\\xe5\\xbc\\x8f\\xe6\\x8b\\x8d\\xe5\\x8d\\x96EnglishAuction.sol\":921:927  seller */\n      immutable(\"0x8fef2229291b68be841adf029e58b87f39ba144b2d3b0af1760243d0a9bc6a1c\")\n        /* \"solidity\\xe9\\x87\\x91\\xe8\\x9e\\x8d\\xe5\\x92\\x8c\\xe6\\x94\\xaf\\xe4\\xbb\\x98/\\xe8\\x8b\\xb1\\xe5\\xbc\\x8f\\xe6\\x8b\\x8d\\xe5\\x8d\\x96EnglishAuction.sol\":907:927  msg.sender == seller */\n      0xffffffffffffffffffffffffffffffffffffffff\n      and\n        /* \"solidity\\xe9\\x87\\x91\\xe8\\x9e\\x8d\\xe5\\x92\\x8c\\xe6\\x94\\xaf\\xe4\\xbb\\x98/\\xe8\\x8b\\xb1\\xe5\\xbc\\x8f\\xe6\\x8b\\x8d\\xe5\\x8d\\x96EnglishAuction.sol\":907:917  msg.sender */\n      caller\n        /* \"solidity\\xe9\\x87\\x91\\xe8\\x9e\\x8d\\xe5\\x92\\x8c\\xe6\\x94\\xaf\\xe4\\xbb\\x98/\\xe8\\x8b\\xb1\\xe5\\xbc\\x8f\\xe6\\x8b\\x8d\\xe5\\x8d\\x96EnglishAuction.sol\":907:927  msg.sender == seller */\n      0xffffffffffffffffffffffffffffffffffffffff\n      and\n      eq\n        /* \"solidity\\xe9\\x87\\x91\\xe8\\x9e\\x8d\\xe5\\x92\\x8c\\xe6\\x94\\xaf\\xe4\\xbb\\x98/\\xe8\\x8b\\xb1\\xe5\\xbc\\x8f\\xe6\\x8b\\x8d\\xe5\\x8d\\x96EnglishAuction.sol\":899:941  require(msg.sender == seller,\"not seller\") */\n      tag_82\n      jumpi\n      mload(0x40)\n      0x08c379a000000000000000000000000000000000000000000000000000000000\n      dup2\n      mstore\n      0x04\n      add\n      tag_83\n      swap1\n      tag_84\n      jump\t// in\n    tag_83:\n      mload(0x40)\n      dup1\n      swap2\n      sub\n      swap1\n      revert\n    tag_82:\n        /* \"solidity\\xe9\\x87\\x91\\xe8\\x9e\\x8d\\xe5\\x92\\x8c\\xe6\\x94\\xaf\\xe4\\xbb\\x98/\\xe8\\x8b\\xb1\\xe5\\xbc\\x8f\\xe6\\x8b\\x8d\\xe5\\x8d\\x96EnglishAuction.sol\":961:968  started */\n      0x01\n      0x00\n      swap1\n      sload\n      swap1\n      0x0100\n      exp\n      swap1\n      div\n      0xff\n      and\n        /* \"solidity\\xe9\\x87\\x91\\xe8\\x9e\\x8d\\xe5\\x92\\x8c\\xe6\\x94\\xaf\\xe4\\xbb\\x98/\\xe8\\x8b\\xb1\\xe5\\xbc\\x8f\\xe6\\x8b\\x8d\\xe5\\x8d\\x96EnglishAuction.sol\":960:968  !started */\n      iszero\n        /* \"solidity\\xe9\\x87\\x91\\xe8\\x9e\\x8d\\xe5\\x92\\x8c\\xe6\\x94\\xaf\\xe4\\xbb\\x98/\\xe8\\x8b\\xb1\\xe5\\xbc\\x8f\\xe6\\x8b\\x8d\\xe5\\x8d\\x96EnglishAuction.sol\":952:985  require(!started,\"already start\") */\n      tag_85\n      jumpi\n      mload(0x40)\n      0x08c379a000000000000000000000000000000000000000000000000000000000\n      dup2\n      mstore\n      0x04\n      add\n      tag_86\n      swap1\n      tag_87\n      jump\t// in\n    tag_86:\n      mload(0x40)\n      dup1\n      swap2\n      sub\n      swap1\n      revert\n    tag_85:\n        /* \"solidity\\xe9\\x87\\x91\\xe8\\x9e\\x8d\\xe5\\x92\\x8c\\xe6\\x94\\xaf\\xe4\\xbb\\x98/\\xe8\\x8b\\xb1\\xe5\\xbc\\x8f\\xe6\\x8b\\x8d\\xe5\\x8d\\x96EnglishAuction.sol\":1006:1010  true */\n      0x01\n        /* \"solidity\\xe9\\x87\\x91\\xe8\\x9e\\x8d\\xe5\\x92\\x8c\\xe6\\x94\\xaf\\xe4\\xbb\\x98/\\xe8\\x8b\\xb1\\xe5\\xbc\\x8f\\xe6\\x8b\\x8d\\xe5\\x8d\\x96EnglishAuction.sol\":996:1003  started */\n      dup1\n      0x00\n        /* \"solidity\\xe9\\x87\\x91\\xe8\\x9e\\x8d\\xe5\\x92\\x8c\\xe6\\x94\\xaf\\xe4\\xbb\\x98/\\xe8\\x8b\\xb1\\xe5\\xbc\\x8f\\xe6\\x8b\\x8d\\xe5\\x8d\\x96EnglishAuction.sol\":996:1010  started = true */\n      0x0100\n      exp\n      dup2\n      sload\n      dup2\n      0xff\n      mul\n      not\n      and\n      swap1\n      dup4\n      iszero\n      iszero\n      mul\n      or\n      swap1\n      sstore\n      pop\n        /* \"solidity\\xe9\\x87\\x91\\xe8\\x9e\\x8d\\xe5\\x92\\x8c\\xe6\\x94\\xaf\\xe4\\xbb\\x98/\\xe8\\x8b\\xb1\\xe5\\xbc\\x8f\\xe6\\x8b\\x8d\\xe5\\x8d\\x96EnglishAuction.sol\":1021:1024  nft */\n      immutable(\"0x5c4c6aa067b6f8e6cb38e6ab843832a94d1712d661a04d73c517d6a1931a9e5d\")\n        /* \"solidity\\xe9\\x87\\x91\\xe8\\x9e\\x8d\\xe5\\x92\\x8c\\xe6\\x94\\xaf\\xe4\\xbb\\x98/\\xe8\\x8b\\xb1\\xe5\\xbc\\x8f\\xe6\\x8b\\x8d\\xe5\\x8d\\x96EnglishAuction.sol\":1021:1037  nft.transferFrom */\n      0xffffffffffffffffffffffffffffffffffffffff\n      and\n      0x23b872dd\n        /* \"solidity\\xe9\\x87\\x91\\xe8\\x9e\\x8d\\xe5\\x92\\x8c\\xe6\\x94\\xaf\\xe4\\xbb\\x98/\\xe8\\x8b\\xb1\\xe5\\xbc\\x8f\\xe6\\x8b\\x8d\\xe5\\x8d\\x96EnglishAuction.sol\":1038:1044  seller */\n      immutable(\"0x8fef2229291b68be841adf029e58b87f39ba144b2d3b0af1760243d0a9bc6a1c\")\n        /* \"solidity\\xe9\\x87\\x91\\xe8\\x9e\\x8d\\xe5\\x92\\x8c\\xe6\\x94\\xaf\\xe4\\xbb\\x98/\\xe8\\x8b\\xb1\\xe5\\xbc\\x8f\\xe6\\x8b\\x8d\\xe5\\x8d\\x96EnglishAuction.sol\":1054:1058  this */\n      address\n        /* \"solidity\\xe9\\x87\\x91\\xe8\\x9e\\x8d\\xe5\\x92\\x8c\\xe6\\x94\\xaf\\xe4\\xbb\\x98/\\xe8\\x8b\\xb1\\xe5\\xbc\\x8f\\xe6\\x8b\\x8d\\xe5\\x8d\\x96EnglishAuction.sol\":1061:1066  nftId */\n      immutable(\"0x277ab82e5a4641341820a4a2933a62c1de997e42e92548657ae21b3728d580fe\")\n        /* \"solidity\\xe9\\x87\\x91\\xe8\\x9e\\x8d\\xe5\\x92\\x8c\\xe6\\x94\\xaf\\xe4\\xbb\\x98/\\xe8\\x8b\\xb1\\xe5\\xbc\\x8f\\xe6\\x8b\\x8d\\xe5\\x8d\\x96EnglishAuction.sol\":1021:1067  nft.transferFrom(seller, address(this), nftId) */\n      mload(0x40)\n      dup5\n      0xffffffff\n      and\n      0xe0\n      shl\n      dup2\n      mstore\n      0x04\n      add\n      tag_88\n      swap4\n      swap3\n      swap2\n      swap1\n      tag_89\n      jump\t// in\n    tag_88:\n      0x00\n      mload(0x40)\n      dup1\n      dup4\n      sub\n      dup2\n      0x00\n      dup8\n      dup1\n      extcodesize\n      iszero\n      dup1\n      iszero\n      tag_90\n      jumpi\n      revert(0x00, 0x00)\n    tag_90:\n      pop\n      gas\n      call\n      iszero\n      dup1\n      iszero\n      tag_92\n      jumpi\n      returndatacopy(0x00, 0x00, returndatasize)\n      revert(0x00, returndatasize)\n    tag_92:\n      pop\n      pop\n      pop\n      pop\n        /* \"solidity\\xe9\\x87\\x91\\xe8\\x9e\\x8d\\xe5\\x92\\x8c\\xe6\\x94\\xaf\\xe4\\xbb\\x98/\\xe8\\x8b\\xb1\\xe5\\xbc\\x8f\\xe6\\x8b\\x8d\\xe5\\x8d\\x96EnglishAuction.sol\":862:1075  function start() external {... */\n      jump\t// out\n        /* \"solidity\\xe9\\x87\\x91\\xe8\\x9e\\x8d\\xe5\\x92\\x8c\\xe6\\x94\\xaf\\xe4\\xbb\\x98/\\xe8\\x8b\\xb1\\xe5\\xbc\\x8f\\xe6\\x8b\\x8d\\xe5\\x8d\\x96EnglishAuction.sol\":240:267  uint public immutable nftId */\n    tag_56:\n      immutable(\"0x277ab82e5a4641341820a4a2933a62c1de997e42e92548657ae21b3728d580fe\")\n      dup2\n      jump\t// out\n        /* \"solidity\\xe9\\x87\\x91\\xe8\\x9e\\x8d\\xe5\\x92\\x8c\\xe6\\x94\\xaf\\xe4\\xbb\\x98/\\xe8\\x8b\\xb1\\xe5\\xbc\\x8f\\xe6\\x8b\\x8d\\xe5\\x8d\\x96EnglishAuction.sol\":472:494  uint public highestBid */\n    tag_60:\n      sload(0x02)\n      dup2\n      jump\t// out\n        /* \"solidity\\xe9\\x87\\x91\\xe8\\x9e\\x8d\\xe5\\x92\\x8c\\xe6\\x94\\xaf\\xe4\\xbb\\x98/\\xe8\\x8b\\xb1\\xe5\\xbc\\x8f\\xe6\\x8b\\x8d\\xe5\\x8d\\x96EnglishAuction.sol\":1693:2104  function end() external {... */\n    tag_64:\n        /* \"solidity\\xe9\\x87\\x91\\xe8\\x9e\\x8d\\xe5\\x92\\x8c\\xe6\\x94\\xaf\\xe4\\xbb\\x98/\\xe8\\x8b\\xb1\\xe5\\xbc\\x8f\\xe6\\x8b\\x8d\\xe5\\x8d\\x96EnglishAuction.sol\":1737:1742  ended */\n      0x01\n      dup1\n      sload\n      swap1\n      0x0100\n      exp\n      swap1\n      div\n      0xff\n      and\n        /* \"solidity\\xe9\\x87\\x91\\xe8\\x9e\\x8d\\xe5\\x92\\x8c\\xe6\\x94\\xaf\\xe4\\xbb\\x98/\\xe8\\x8b\\xb1\\xe5\\xbc\\x8f\\xe6\\x8b\\x8d\\xe5\\x8d\\x96EnglishAuction.sol\":1736:1742  !ended */\n      iszero\n        /* \"solidity\\xe9\\x87\\x91\\xe8\\x9e\\x8d\\xe5\\x92\\x8c\\xe6\\x94\\xaf\\xe4\\xbb\\x98/\\xe8\\x8b\\xb1\\xe5\\xbc\\x8f\\xe6\\x8b\\x8d\\xe5\\x8d\\x96EnglishAuction.sol\":1728:1758  require(!ended,\"alreay ended\") */\n      tag_94\n      jumpi\n      mload(0x40)\n      0x08c379a000000000000000000000000000000000000000000000000000000000\n      dup2\n      mstore\n      0x04\n      add\n      tag_95\n      swap1\n      tag_96\n      jump\t// in\n    tag_95:\n      mload(0x40)\n      dup1\n      swap2\n      sub\n      swap1\n      revert\n    tag_94:\n        /* \"solidity\\xe9\\x87\\x91\\xe8\\x9e\\x8d\\xe5\\x92\\x8c\\xe6\\x94\\xaf\\xe4\\xbb\\x98/\\xe8\\x8b\\xb1\\xe5\\xbc\\x8f\\xe6\\x8b\\x8d\\xe5\\x8d\\x96EnglishAuction.sol\":1798:1799  0 */\n      0x00\n        /* \"solidity\\xe9\\x87\\x91\\xe8\\x9e\\x8d\\xe5\\x92\\x8c\\xe6\\x94\\xaf\\xe4\\xbb\\x98/\\xe8\\x8b\\xb1\\xe5\\xbc\\x8f\\xe6\\x8b\\x8d\\xe5\\x8d\\x96EnglishAuction.sol\":1772:1800  higehestBidder != address(0) */\n      0xffffffffffffffffffffffffffffffffffffffff\n      and\n        /* \"solidity\\xe9\\x87\\x91\\xe8\\x9e\\x8d\\xe5\\x92\\x8c\\xe6\\x94\\xaf\\xe4\\xbb\\x98/\\xe8\\x8b\\xb1\\xe5\\xbc\\x8f\\xe6\\x8b\\x8d\\xe5\\x8d\\x96EnglishAuction.sol\":1772:1786  higehestBidder */\n      0x01\n      0x02\n      swap1\n      sload\n      swap1\n      0x0100\n      exp\n      swap1\n      div\n      0xffffffffffffffffffffffffffffffffffffffff\n      and\n        /* \"solidity\\xe9\\x87\\x91\\xe8\\x9e\\x8d\\xe5\\x92\\x8c\\xe6\\x94\\xaf\\xe4\\xbb\\x98/\\xe8\\x8b\\xb1\\xe5\\xbc\\x8f\\xe6\\x8b\\x8d\\xe5\\x8d\\x96EnglishAuction.sol\":1772:1800  higehestBidder != address(0) */\n      0xffffffffffffffffffffffffffffffffffffffff\n      and\n      eq\n        /* \"solidity\\xe9\\x87\\x91\\xe8\\x9e\\x8d\\xe5\\x92\\x8c\\xe6\\x94\\xaf\\xe4\\xbb\\x98/\\xe8\\x8b\\xb1\\xe5\\xbc\\x8f\\xe6\\x8b\\x8d\\xe5\\x8d\\x96EnglishAuction.sol\":1769:2074  if(higehestBidder != address(0)) {... */\n      tag_97\n      jumpi\n        /* \"solidity\\xe9\\x87\\x91\\xe8\\x9e\\x8d\\xe5\\x92\\x8c\\xe6\\x94\\xaf\\xe4\\xbb\\x98/\\xe8\\x8b\\xb1\\xe5\\xbc\\x8f\\xe6\\x8b\\x8d\\xe5\\x8d\\x96EnglishAuction.sol\":1817:1820  nft */\n      immutable(\"0x5c4c6aa067b6f8e6cb38e6ab843832a94d1712d661a04d73c517d6a1931a9e5d\")\n        /* \"solidity\\xe9\\x87\\x91\\xe8\\x9e\\x8d\\xe5\\x92\\x8c\\xe6\\x94\\xaf\\xe4\\xbb\\x98/\\xe8\\x8b\\xb1\\xe5\\xbc\\x8f\\xe6\\x8b\\x8d\\xe5\\x8d\\x96EnglishAuction.sol\":1817:1833  nft.transferFrom */\n      0xffffffffffffffffffffffffffffffffffffffff\n      and\n      0x23b872dd\n        /* \"solidity\\xe9\\x87\\x91\\xe8\\x9e\\x8d\\xe5\\x92\\x8c\\xe6\\x94\\xaf\\xe4\\xbb\\x98/\\xe8\\x8b\\xb1\\xe5\\xbc\\x8f\\xe6\\x8b\\x8d\\xe5\\x8d\\x96EnglishAuction.sol\":1842:1846  this */\n      address\n        /* \"solidity\\xe9\\x87\\x91\\xe8\\x9e\\x8d\\xe5\\x92\\x8c\\xe6\\x94\\xaf\\xe4\\xbb\\x98/\\xe8\\x8b\\xb1\\xe5\\xbc\\x8f\\xe6\\x8b\\x8d\\xe5\\x8d\\x96EnglishAuction.sol\":1849:1863  higehestBidder */\n      0x01\n      0x02\n      swap1\n      sload\n      swap1\n      0x0100\n      exp\n      swap1\n      div\n      0xffffffffffffffffffffffffffffffffffffffff\n      and\n        /* \"solidity\\xe9\\x87\\x91\\xe8\\x9e\\x8d\\xe5\\x92\\x8c\\xe6\\x94\\xaf\\xe4\\xbb\\x98/\\xe8\\x8b\\xb1\\xe5\\xbc\\x8f\\xe6\\x8b\\x8d\\xe5\\x8d\\x96EnglishAuction.sol\":1865:1870  nftId */\n      immutable(\"0x277ab82e5a4641341820a4a2933a62c1de997e42e92548657ae21b3728d580fe\")\n        /* \"solidity\\xe9\\x87\\x91\\xe8\\x9e\\x8d\\xe5\\x92\\x8c\\xe6\\x94\\xaf\\xe4\\xbb\\x98/\\xe8\\x8b\\xb1\\xe5\\xbc\\x8f\\xe6\\x8b\\x8d\\xe5\\x8d\\x96EnglishAuction.sol\":1817:1871  nft.transferFrom(address(this), higehestBidder, nftId) */\n      mload(0x40)\n      dup5\n      0xffffffff\n      and\n      0xe0\n      shl\n      dup2\n      mstore\n      0x04\n      add\n      tag_98\n      swap4\n      swap3\n      swap2\n      swap1\n      tag_99\n      jump\t// in\n    tag_98:\n      0x00\n      mload(0x40)\n      dup1\n      dup4\n      sub\n      dup2\n      0x00\n      dup8\n      dup1\n      extcodesize\n      iszero\n      dup1\n      iszero\n      tag_100\n      jumpi\n      revert(0x00, 0x00)\n    tag_100:\n      pop\n      gas\n      call\n      iszero\n      dup1\n      iszero\n      tag_102\n      jumpi\n      returndatacopy(0x00, 0x00, returndatasize)\n      revert(0x00, returndatasize)\n    tag_102:\n      pop\n      pop\n      pop\n      pop\n        /* \"solidity\\xe9\\x87\\x91\\xe8\\x9e\\x8d\\xe5\\x92\\x8c\\xe6\\x94\\xaf\\xe4\\xbb\\x98/\\xe8\\x8b\\xb1\\xe5\\xbc\\x8f\\xe6\\x8b\\x8d\\xe5\\x8d\\x96EnglishAuction.sol\":1887:1899  bool success */\n      0x00\n        /* \"solidity\\xe9\\x87\\x91\\xe8\\x9e\\x8d\\xe5\\x92\\x8c\\xe6\\x94\\xaf\\xe4\\xbb\\x98/\\xe8\\x8b\\xb1\\xe5\\xbc\\x8f\\xe6\\x8b\\x8d\\xe5\\x8d\\x96EnglishAuction.sol\":1905:1911  seller */\n      immutable(\"0x8fef2229291b68be841adf029e58b87f39ba144b2d3b0af1760243d0a9bc6a1c\")\n        /* \"solidity\\xe9\\x87\\x91\\xe8\\x9e\\x8d\\xe5\\x92\\x8c\\xe6\\x94\\xaf\\xe4\\xbb\\x98/\\xe8\\x8b\\xb1\\xe5\\xbc\\x8f\\xe6\\x8b\\x8d\\xe5\\x8d\\x96EnglishAuction.sol\":1905:1916  seller.call */\n      0xffffffffffffffffffffffffffffffffffffffff\n      and\n        /* \"solidity\\xe9\\x87\\x91\\xe8\\x9e\\x8d\\xe5\\x92\\x8c\\xe6\\x94\\xaf\\xe4\\xbb\\x98/\\xe8\\x8b\\xb1\\xe5\\xbc\\x8f\\xe6\\x8b\\x8d\\xe5\\x8d\\x96EnglishAuction.sol\":1924:1934  highestBid */\n      sload(0x02)\n        /* \"solidity\\xe9\\x87\\x91\\xe8\\x9e\\x8d\\xe5\\x92\\x8c\\xe6\\x94\\xaf\\xe4\\xbb\\x98/\\xe8\\x8b\\xb1\\xe5\\xbc\\x8f\\xe6\\x8b\\x8d\\xe5\\x8d\\x96EnglishAuction.sol\":1905:1939  seller.call{value: highestBid}(\"\") */\n      mload(0x40)\n      tag_103\n      swap1\n      tag_67\n      jump\t// in\n    tag_103:\n      0x00\n      mload(0x40)\n      dup1\n      dup4\n      sub\n      dup2\n      dup6\n      dup8\n      gas\n      call\n      swap3\n      pop\n      pop\n      pop\n      returndatasize\n      dup1\n      0x00\n      dup2\n      eq\n      tag_106\n      jumpi\n      mload(0x40)\n      swap2\n      pop\n      and(add(returndatasize, 0x3f), not(0x1f))\n      dup3\n      add\n      0x40\n      mstore\n      returndatasize\n      dup3\n      mstore\n      returndatasize\n      0x00\n      0x20\n      dup5\n      add\n      returndatacopy\n      jump(tag_105)\n    tag_106:\n      0x60\n      swap2\n      pop\n    tag_105:\n      pop\n        /* \"solidity\\xe9\\x87\\x91\\xe8\\x9e\\x8d\\xe5\\x92\\x8c\\xe6\\x94\\xaf\\xe4\\xbb\\x98/\\xe8\\x8b\\xb1\\xe5\\xbc\\x8f\\xe6\\x8b\\x8d\\xe5\\x8d\\x96EnglishAuction.sol\":1886:1939  (bool success,) =  seller.call{value: highestBid}(\"\") */\n      pop\n      swap1\n      pop\n        /* \"solidity\\xe9\\x87\\x91\\xe8\\x9e\\x8d\\xe5\\x92\\x8c\\xe6\\x94\\xaf\\xe4\\xbb\\x98/\\xe8\\x8b\\xb1\\xe5\\xbc\\x8f\\xe6\\x8b\\x8d\\xe5\\x8d\\x96EnglishAuction.sol\":1962:1969  success */\n      dup1\n        /* \"solidity\\xe9\\x87\\x91\\xe8\\x9e\\x8d\\xe5\\x92\\x8c\\xe6\\x94\\xaf\\xe4\\xbb\\x98/\\xe8\\x8b\\xb1\\xe5\\xbc\\x8f\\xe6\\x8b\\x8d\\xe5\\x8d\\x96EnglishAuction.sol\":1954:1983  require(success,\"end failed\") */\n      tag_107\n      jumpi\n      mload(0x40)\n      0x08c379a000000000000000000000000000000000000000000000000000000000\n      dup2\n      mstore\n      0x04\n      add\n      tag_108\n      swap1\n      tag_109\n      jump\t// in\n    tag_108:\n      mload(0x40)\n      dup1\n      swap2\n      sub\n      swap1\n      revert\n    tag_107:\n        /* \"solidity\\xe9\\x87\\x91\\xe8\\x9e\\x8d\\xe5\\x92\\x8c\\xe6\\x94\\xaf\\xe4\\xbb\\x98/\\xe8\\x8b\\xb1\\xe5\\xbc\\x8f\\xe6\\x8b\\x8d\\xe5\\x8d\\x96EnglishAuction.sol\":1802:1995  {... */\n      pop\n        /* \"solidity\\xe9\\x87\\x91\\xe8\\x9e\\x8d\\xe5\\x92\\x8c\\xe6\\x94\\xaf\\xe4\\xbb\\x98/\\xe8\\x8b\\xb1\\xe5\\xbc\\x8f\\xe6\\x8b\\x8d\\xe5\\x8d\\x96EnglishAuction.sol\":1769:2074  if(higehestBidder != address(0)) {... */\n      jump(tag_110)\n    tag_97:\n        /* \"solidity\\xe9\\x87\\x91\\xe8\\x9e\\x8d\\xe5\\x92\\x8c\\xe6\\x94\\xaf\\xe4\\xbb\\x98/\\xe8\\x8b\\xb1\\xe5\\xbc\\x8f\\xe6\\x8b\\x8d\\xe5\\x8d\\x96EnglishAuction.sol\":2016:2019  nft */\n      immutable(\"0x5c4c6aa067b6f8e6cb38e6ab843832a94d1712d661a04d73c517d6a1931a9e5d\")\n        /* \"solidity\\xe9\\x87\\x91\\xe8\\x9e\\x8d\\xe5\\x92\\x8c\\xe6\\x94\\xaf\\xe4\\xbb\\x98/\\xe8\\x8b\\xb1\\xe5\\xbc\\x8f\\xe6\\x8b\\x8d\\xe5\\x8d\\x96EnglishAuction.sol\":2016:2032  nft.transferFrom */\n      0xffffffffffffffffffffffffffffffffffffffff\n      and\n      0x23b872dd\n        /* \"solidity\\xe9\\x87\\x91\\xe8\\x9e\\x8d\\xe5\\x92\\x8c\\xe6\\x94\\xaf\\xe4\\xbb\\x98/\\xe8\\x8b\\xb1\\xe5\\xbc\\x8f\\xe6\\x8b\\x8d\\xe5\\x8d\\x96EnglishAuction.sol\":2041:2045  this */\n      address\n        /* \"solidity\\xe9\\x87\\x91\\xe8\\x9e\\x8d\\xe5\\x92\\x8c\\xe6\\x94\\xaf\\xe4\\xbb\\x98/\\xe8\\x8b\\xb1\\xe5\\xbc\\x8f\\xe6\\x8b\\x8d\\xe5\\x8d\\x96EnglishAuction.sol\":2048:2054  seller */\n      immutable(\"0x8fef2229291b68be841adf029e58b87f39ba144b2d3b0af1760243d0a9bc6a1c\")\n        /* \"solidity\\xe9\\x87\\x91\\xe8\\x9e\\x8d\\xe5\\x92\\x8c\\xe6\\x94\\xaf\\xe4\\xbb\\x98/\\xe8\\x8b\\xb1\\xe5\\xbc\\x8f\\xe6\\x8b\\x8d\\xe5\\x8d\\x96EnglishAuction.sol\":2056:2061  nftId */\n      immutable(\"0x277ab82e5a4641341820a4a2933a62c1de997e42e92548657ae21b3728d580fe\")\n        /* \"solidity\\xe9\\x87\\x91\\xe8\\x9e\\x8d\\xe5\\x92\\x8c\\xe6\\x94\\xaf\\xe4\\xbb\\x98/\\xe8\\x8b\\xb1\\xe5\\xbc\\x8f\\xe6\\x8b\\x8d\\xe5\\x8d\\x96EnglishAuction.sol\":2016:2062  nft.transferFrom(address(this), seller, nftId) */\n      mload(0x40)\n      dup5\n      0xffffffff\n      and\n      0xe0\n      shl\n      dup2\n      mstore\n      0x04\n      add\n      tag_111\n      swap4\n      swap3\n      swap2\n      swap1\n      tag_112\n      jump\t// in\n    tag_111:\n      0x00\n      mload(0x40)\n      dup1\n      dup4\n      sub\n      dup2\n      0x00\n      dup8\n      dup1\n      extcodesize\n      iszero\n      dup1\n      iszero\n      tag_113\n      jumpi\n      revert(0x00, 0x00)\n    tag_113:\n      pop\n      gas\n      call\n      iszero\n      dup1\n      iszero\n      tag_115\n      jumpi\n      returndatacopy(0x00, 0x00, returndatasize)\n      revert(0x00, returndatasize)\n    tag_115:\n      pop\n      pop\n      pop\n      pop\n        /* \"solidity\\xe9\\x87\\x91\\xe8\\x9e\\x8d\\xe5\\x92\\x8c\\xe6\\x94\\xaf\\xe4\\xbb\\x98/\\xe8\\x8b\\xb1\\xe5\\xbc\\x8f\\xe6\\x8b\\x8d\\xe5\\x8d\\x96EnglishAuction.sol\":1769:2074  if(higehestBidder != address(0)) {... */\n    tag_110:\n        /* \"solidity\\xe9\\x87\\x91\\xe8\\x9e\\x8d\\xe5\\x92\\x8c\\xe6\\x94\\xaf\\xe4\\xbb\\x98/\\xe8\\x8b\\xb1\\xe5\\xbc\\x8f\\xe6\\x8b\\x8d\\xe5\\x8d\\x96EnglishAuction.sol\":2092:2096  true */\n      0x01\n        /* \"solidity\\xe9\\x87\\x91\\xe8\\x9e\\x8d\\xe5\\x92\\x8c\\xe6\\x94\\xaf\\xe4\\xbb\\x98/\\xe8\\x8b\\xb1\\xe5\\xbc\\x8f\\xe6\\x8b\\x8d\\xe5\\x8d\\x96EnglishAuction.sol\":2084:2089  ended */\n      dup1\n      0x01\n        /* \"solidity\\xe9\\x87\\x91\\xe8\\x9e\\x8d\\xe5\\x92\\x8c\\xe6\\x94\\xaf\\xe4\\xbb\\x98/\\xe8\\x8b\\xb1\\xe5\\xbc\\x8f\\xe6\\x8b\\x8d\\xe5\\x8d\\x96EnglishAuction.sol\":2084:2096  ended = true */\n      0x0100\n      exp\n      dup2\n      sload\n      dup2\n      0xff\n      mul\n      not\n      and\n      swap1\n      dup4\n      iszero\n      iszero\n      mul\n      or\n      swap1\n      sstore\n      pop\n        /* \"solidity\\xe9\\x87\\x91\\xe8\\x9e\\x8d\\xe5\\x92\\x8c\\xe6\\x94\\xaf\\xe4\\xbb\\x98/\\xe8\\x8b\\xb1\\xe5\\xbc\\x8f\\xe6\\x8b\\x8d\\xe5\\x8d\\x96EnglishAuction.sol\":1693:2104  function end() external {... */\n      jump\t// out\n        /* \"#utility.yul\":7:133   */\n    tag_116:\n        /* \"#utility.yul\":44:51   */\n      0x00\n        /* \"#utility.yul\":84:126   */\n      0xffffffffffffffffffffffffffffffffffffffff\n        /* \"#utility.yul\":77:82   */\n      dup3\n        /* \"#utility.yul\":73:127   */\n      and\n        /* \"#utility.yul\":62:127   */\n      swap1\n      pop\n        /* \"#utility.yul\":7:133   */\n      swap2\n      swap1\n      pop\n      jump\t// out\n        /* \"#utility.yul\":139:243   */\n    tag_117:\n        /* \"#utility.yul\":184:191   */\n      0x00\n        /* \"#utility.yul\":213:237   */\n      tag_156\n        /* \"#utility.yul\":231:236   */\n      dup3\n        /* \"#utility.yul\":213:237   */\n      tag_116\n      jump\t// in\n    tag_156:\n        /* \"#utility.yul\":202:237   */\n      swap1\n      pop\n        /* \"#utility.yul\":139:243   */\n      swap2\n      swap1\n      pop\n      jump\t// out\n        /* \"#utility.yul\":249:391   */\n    tag_118:\n        /* \"#utility.yul\":352:384   */\n      tag_158\n        /* \"#utility.yul\":378:383   */\n      dup2\n        /* \"#utility.yul\":352:384   */\n      tag_117\n      jump\t// in\n    tag_158:\n        /* \"#utility.yul\":347:350   */\n      dup3\n        /* \"#utility.yul\":340:385   */\n      mstore\n        /* \"#utility.yul\":249:391   */\n      pop\n      pop\n      jump\t// out\n        /* \"#utility.yul\":397:651   */\n    tag_19:\n        /* \"#utility.yul\":506:510   */\n      0x00\n        /* \"#utility.yul\":544:546   */\n      0x20\n        /* \"#utility.yul\":533:542   */\n      dup3\n        /* \"#utility.yul\":529:547   */\n      add\n        /* \"#utility.yul\":521:547   */\n      swap1\n      pop\n        /* \"#utility.yul\":557:644   */\n      tag_160\n        /* \"#utility.yul\":641:642   */\n      0x00\n        /* \"#utility.yul\":630:639   */\n      dup4\n        /* \"#utility.yul\":626:643   */\n      add\n        /* \"#utility.yul\":617:623   */\n      dup5\n        /* \"#utility.yul\":557:644   */\n      tag_118\n      jump\t// in\n    tag_160:\n        /* \"#utility.yul\":397:651   */\n      swap3\n      swap2\n      pop\n      pop\n      jump\t// out\n        /* \"#utility.yul\":657:747   */\n    tag_119:\n        /* \"#utility.yul\":691:698   */\n      0x00\n        /* \"#utility.yul\":734:739   */\n      dup2\n        /* \"#utility.yul\":727:740   */\n      iszero\n        /* \"#utility.yul\":720:741   */\n      iszero\n        /* \"#utility.yul\":709:741   */\n      swap1\n      pop\n        /* \"#utility.yul\":657:747   */\n      swap2\n      swap1\n      pop\n      jump\t// out\n        /* \"#utility.yul\":753:862   */\n    tag_120:\n        /* \"#utility.yul\":834:855   */\n      tag_163\n        /* \"#utility.yul\":849:854   */\n      dup2\n        /* \"#utility.yul\":834:855   */\n      tag_119\n      jump\t// in\n    tag_163:\n        /* \"#utility.yul\":829:832   */\n      dup3\n        /* \"#utility.yul\":822:856   */\n      mstore\n        /* \"#utility.yul\":753:862   */\n      pop\n      pop\n      jump\t// out\n        /* \"#utility.yul\":868:1078   */\n    tag_24:\n        /* \"#utility.yul\":955:959   */\n      0x00\n        /* \"#utility.yul\":993:995   */\n      0x20\n        /* \"#utility.yul\":982:991   */\n      dup3\n        /* \"#utility.yul\":978:996   */\n      add\n        /* \"#utility.yul\":970:996   */\n      swap1\n      pop\n        /* \"#utility.yul\":1006:1071   */\n      tag_165\n        /* \"#utility.yul\":1068:1069   */\n      0x00\n        /* \"#utility.yul\":1057:1066   */\n      dup4\n        /* \"#utility.yul\":1053:1070   */\n      add\n        /* \"#utility.yul\":1044:1050   */\n      dup5\n        /* \"#utility.yul\":1006:1071   */\n      tag_120\n      jump\t// in\n    tag_165:\n        /* \"#utility.yul\":868:1078   */\n      swap3\n      swap2\n      pop\n      pop\n      jump\t// out\n        /* \"#utility.yul\":1084:1161   */\n    tag_121:\n        /* \"#utility.yul\":1121:1128   */\n      0x00\n        /* \"#utility.yul\":1150:1155   */\n      dup2\n        /* \"#utility.yul\":1139:1155   */\n      swap1\n      pop\n        /* \"#utility.yul\":1084:1161   */\n      swap2\n      swap1\n      pop\n      jump\t// out\n        /* \"#utility.yul\":1167:1285   */\n    tag_122:\n        /* \"#utility.yul\":1254:1278   */\n      tag_168\n        /* \"#utility.yul\":1272:1277   */\n      dup2\n        /* \"#utility.yul\":1254:1278   */\n      tag_121\n      jump\t// in\n    tag_168:\n        /* \"#utility.yul\":1249:1252   */\n      dup3\n        /* \"#utility.yul\":1242:1279   */\n      mstore\n        /* \"#utility.yul\":1167:1285   */\n      pop\n      pop\n      jump\t// out\n        /* \"#utility.yul\":1291:1513   */\n    tag_39:\n        /* \"#utility.yul\":1384:1388   */\n      0x00\n        /* \"#utility.yul\":1422:1424   */\n      0x20\n        /* \"#utility.yul\":1411:1420   */\n      dup3\n        /* \"#utility.yul\":1407:1425   */\n      add\n        /* \"#utility.yul\":1399:1425   */\n      swap1\n      pop\n        /* \"#utility.yul\":1435:1506   */\n      tag_170\n        /* \"#utility.yul\":1503:1504   */\n      0x00\n        /* \"#utility.yul\":1492:1501   */\n      dup4\n        /* \"#utility.yul\":1488:1505   */\n      add\n        /* \"#utility.yul\":1479:1485   */\n      dup5\n        /* \"#utility.yul\":1435:1506   */\n      tag_122\n      jump\t// in\n    tag_170:\n        /* \"#utility.yul\":1291:1513   */\n      swap3\n      swap2\n      pop\n      pop\n      jump\t// out\n        /* \"#utility.yul\":1519:1615   */\n    tag_123:\n        /* \"#utility.yul\":1556:1563   */\n      0x00\n        /* \"#utility.yul\":1585:1609   */\n      tag_172\n        /* \"#utility.yul\":1603:1608   */\n      dup3\n        /* \"#utility.yul\":1585:1609   */\n      tag_116\n      jump\t// in\n    tag_172:\n        /* \"#utility.yul\":1574:1609   */\n      swap1\n      pop\n        /* \"#utility.yul\":1519:1615   */\n      swap2\n      swap1\n      pop\n      jump\t// out\n        /* \"#utility.yul\":1621:1739   */\n    tag_124:\n        /* \"#utility.yul\":1708:1732   */\n      tag_174\n        /* \"#utility.yul\":1726:1731   */\n      dup2\n        /* \"#utility.yul\":1708:1732   */\n      tag_123\n      jump\t// in\n    tag_174:\n        /* \"#utility.yul\":1703:1706   */\n      dup3\n        /* \"#utility.yul\":1696:1733   */\n      mstore\n        /* \"#utility.yul\":1621:1739   */\n      pop\n      pop\n      jump\t// out\n        /* \"#utility.yul\":1745:1967   */\n    tag_44:\n        /* \"#utility.yul\":1838:1842   */\n      0x00\n        /* \"#utility.yul\":1876:1878   */\n      0x20\n        /* \"#utility.yul\":1865:1874   */\n      dup3\n        /* \"#utility.yul\":1861:1879   */\n      add\n        /* \"#utility.yul\":1853:1879   */\n      swap1\n      pop\n        /* \"#utility.yul\":1889:1960   */\n      tag_176\n        /* \"#utility.yul\":1957:1958   */\n      0x00\n        /* \"#utility.yul\":1946:1955   */\n      dup4\n        /* \"#utility.yul\":1942:1959   */\n      add\n        /* \"#utility.yul\":1933:1939   */\n      dup5\n        /* \"#utility.yul\":1889:1960   */\n      tag_124\n      jump\t// in\n    tag_176:\n        /* \"#utility.yul\":1745:1967   */\n      swap3\n      swap2\n      pop\n      pop\n      jump\t// out\n        /* \"#utility.yul\":2054:2171   */\n    tag_126:\n        /* \"#utility.yul\":2163:2164   */\n      0x00\n        /* \"#utility.yul\":2160:2161   */\n      0x00\n        /* \"#utility.yul\":2153:2165   */\n      revert\n        /* \"#utility.yul\":2300:2422   */\n    tag_128:\n        /* \"#utility.yul\":2373:2397   */\n      tag_181\n        /* \"#utility.yul\":2391:2396   */\n      dup2\n        /* \"#utility.yul\":2373:2397   */\n      tag_123\n      jump\t// in\n    tag_181:\n        /* \"#utility.yul\":2366:2371   */\n      dup2\n        /* \"#utility.yul\":2363:2398   */\n      eq\n        /* \"#utility.yul\":2353:2416   */\n      tag_182\n      jumpi\n        /* \"#utility.yul\":2412:2413   */\n      0x00\n        /* \"#utility.yul\":2409:2410   */\n      0x00\n        /* \"#utility.yul\":2402:2414   */\n      revert\n        /* \"#utility.yul\":2353:2416   */\n    tag_182:\n        /* \"#utility.yul\":2300:2422   */\n      pop\n      jump\t// out\n        /* \"#utility.yul\":2428:2567   */\n    tag_129:\n        /* \"#utility.yul\":2474:2479   */\n      0x00\n        /* \"#utility.yul\":2512:2518   */\n      dup2\n        /* \"#utility.yul\":2499:2519   */\n      calldataload\n        /* \"#utility.yul\":2490:2519   */\n      swap1\n      pop\n        /* \"#utility.yul\":2528:2561   */\n      tag_184\n        /* \"#utility.yul\":2555:2560   */\n      dup2\n        /* \"#utility.yul\":2528:2561   */\n      tag_128\n      jump\t// in\n    tag_184:\n        /* \"#utility.yul\":2428:2567   */\n      swap3\n      swap2\n      pop\n      pop\n      jump\t// out\n        /* \"#utility.yul\":2573:2902   */\n    tag_48:\n        /* \"#utility.yul\":2632:2638   */\n      0x00\n        /* \"#utility.yul\":2681:2683   */\n      0x20\n        /* \"#utility.yul\":2669:2678   */\n      dup3\n        /* \"#utility.yul\":2660:2667   */\n      dup5\n        /* \"#utility.yul\":2656:2679   */\n      sub\n        /* \"#utility.yul\":2652:2684   */\n      slt\n        /* \"#utility.yul\":2649:2768   */\n      iszero\n      tag_186\n      jumpi\n        /* \"#utility.yul\":2687:2766   */\n      tag_187\n      tag_126\n      jump\t// in\n    tag_187:\n        /* \"#utility.yul\":2649:2768   */\n    tag_186:\n        /* \"#utility.yul\":2807:2808   */\n      0x00\n        /* \"#utility.yul\":2832:2885   */\n      tag_188\n        /* \"#utility.yul\":2877:2884   */\n      dup5\n        /* \"#utility.yul\":2868:2874   */\n      dup3\n        /* \"#utility.yul\":2857:2866   */\n      dup6\n        /* \"#utility.yul\":2853:2875   */\n      add\n        /* \"#utility.yul\":2832:2885   */\n      tag_129\n      jump\t// in\n    tag_188:\n        /* \"#utility.yul\":2822:2885   */\n      swap2\n      pop\n        /* \"#utility.yul\":2778:2895   */\n      pop\n        /* \"#utility.yul\":2573:2902   */\n      swap3\n      swap2\n      pop\n      pop\n      jump\t// out\n        /* \"#utility.yul\":2908:3055   */\n    tag_130:\n        /* \"#utility.yul\":3009:3020   */\n      0x00\n        /* \"#utility.yul\":3046:3049   */\n      dup2\n        /* \"#utility.yul\":3031:3049   */\n      swap1\n      pop\n        /* \"#utility.yul\":2908:3055   */\n      swap3\n      swap2\n      pop\n      pop\n      jump\t// out\n        /* \"#utility.yul\":3061:3175   */\n    tag_131:\n      pop\n      jump\t// out\n        /* \"#utility.yul\":3181:3579   */\n    tag_132:\n        /* \"#utility.yul\":3340:3343   */\n      0x00\n        /* \"#utility.yul\":3361:3444   */\n      tag_192\n        /* \"#utility.yul\":3442:3443   */\n      0x00\n        /* \"#utility.yul\":3437:3440   */\n      dup4\n        /* \"#utility.yul\":3361:3444   */\n      tag_130\n      jump\t// in\n    tag_192:\n        /* \"#utility.yul\":3354:3444   */\n      swap2\n      pop\n        /* \"#utility.yul\":3453:3546   */\n      tag_193\n        /* \"#utility.yul\":3542:3545   */\n      dup3\n        /* \"#utility.yul\":3453:3546   */\n      tag_131\n      jump\t// in\n    tag_193:\n        /* \"#utility.yul\":3571:3572   */\n      0x00\n        /* \"#utility.yul\":3566:3569   */\n      dup3\n        /* \"#utility.yul\":3562:3573   */\n      add\n        /* \"#utility.yul\":3555:3573   */\n      swap1\n      pop\n        /* \"#utility.yul\":3181:3579   */\n      swap2\n      swap1\n      pop\n      jump\t// out\n        /* \"#utility.yul\":3585:3964   */\n    tag_67:\n        /* \"#utility.yul\":3769:3772   */\n      0x00\n        /* \"#utility.yul\":3791:3938   */\n      tag_195\n        /* \"#utility.yul\":3934:3937   */\n      dup3\n        /* \"#utility.yul\":3791:3938   */\n      tag_132\n      jump\t// in\n    tag_195:\n        /* \"#utility.yul\":3784:3938   */\n      swap2\n      pop\n        /* \"#utility.yul\":3955:3958   */\n      dup2\n        /* \"#utility.yul\":3948:3958   */\n      swap1\n      pop\n        /* \"#utility.yul\":3585:3964   */\n      swap2\n      swap1\n      pop\n      jump\t// out\n        /* \"#utility.yul\":3970:4139   */\n    tag_133:\n        /* \"#utility.yul\":4054:4065   */\n      0x00\n        /* \"#utility.yul\":4088:4094   */\n      dup3\n        /* \"#utility.yul\":4083:4086   */\n      dup3\n        /* \"#utility.yul\":4076:4095   */\n      mstore\n        /* \"#utility.yul\":4128:4132   */\n      0x20\n        /* \"#utility.yul\":4123:4126   */\n      dup3\n        /* \"#utility.yul\":4119:4133   */\n      add\n        /* \"#utility.yul\":4104:4133   */\n      swap1\n      pop\n        /* \"#utility.yul\":3970:4139   */\n      swap3\n      swap2\n      pop\n      pop\n      jump\t// out\n        /* \"#utility.yul\":4145:4304   */\n    tag_134:\n        /* \"#utility.yul\":4285:4296   */\n      0x6e6f742073746172740000000000000000000000000000000000000000000000\n        /* \"#utility.yul\":4281:4282   */\n      0x00\n        /* \"#utility.yul\":4273:4279   */\n      dup3\n        /* \"#utility.yul\":4269:4283   */\n      add\n        /* \"#utility.yul\":4262:4297   */\n      mstore\n        /* \"#utility.yul\":4145:4304   */\n      pop\n      jump\t// out\n        /* \"#utility.yul\":4310:4675   */\n    tag_135:\n        /* \"#utility.yul\":4452:4455   */\n      0x00\n        /* \"#utility.yul\":4473:4539   */\n      tag_199\n        /* \"#utility.yul\":4537:4538   */\n      0x09\n        /* \"#utility.yul\":4532:4535   */\n      dup4\n        /* \"#utility.yul\":4473:4539   */\n      tag_133\n      jump\t// in\n    tag_199:\n        /* \"#utility.yul\":4466:4539   */\n      swap2\n      pop\n        /* \"#utility.yul\":4548:4641   */\n      tag_200\n        /* \"#utility.yul\":4637:4640   */\n      dup3\n        /* \"#utility.yul\":4548:4641   */\n      tag_134\n      jump\t// in\n    tag_200:\n        /* \"#utility.yul\":4666:4668   */\n      0x20\n        /* \"#utility.yul\":4661:4664   */\n      dup3\n        /* \"#utility.yul\":4657:4669   */\n      add\n        /* \"#utility.yul\":4650:4669   */\n      swap1\n      pop\n        /* \"#utility.yul\":4310:4675   */\n      swap2\n      swap1\n      pop\n      jump\t// out\n        /* \"#utility.yul\":4681:5100   */\n    tag_74:\n        /* \"#utility.yul\":4847:4851   */\n      0x00\n        /* \"#utility.yul\":4885:4887   */\n      0x20\n        /* \"#utility.yul\":4874:4883   */\n      dup3\n        /* \"#utility.yul\":4870:4888   */\n      add\n        /* \"#utility.yul\":4862:4888   */\n      swap1\n      pop\n        /* \"#utility.yul\":4934:4943   */\n      dup2\n        /* \"#utility.yul\":4928:4932   */\n      dup2\n        /* \"#utility.yul\":4924:4944   */\n      sub\n        /* \"#utility.yul\":4920:4921   */\n      0x00\n        /* \"#utility.yul\":4909:4918   */\n      dup4\n        /* \"#utility.yul\":4905:4922   */\n      add\n        /* \"#utility.yul\":4898:4945   */\n      mstore\n        /* \"#utility.yul\":4962:5093   */\n      tag_202\n        /* \"#utility.yul\":5088:5092   */\n      dup2\n        /* \"#utility.yul\":4962:5093   */\n      tag_135\n      jump\t// in\n    tag_202:\n        /* \"#utility.yul\":4954:5093   */\n      swap1\n      pop\n        /* \"#utility.yul\":4681:5100   */\n      swap2\n      swap1\n      pop\n      jump\t// out\n        /* \"#utility.yul\":5106:5267   */\n    tag_136:\n        /* \"#utility.yul\":5246:5259   */\n      0x616c726561647920656e64000000000000000000000000000000000000000000\n        /* \"#utility.yul\":5242:5243   */\n      0x00\n        /* \"#utility.yul\":5234:5240   */\n      dup3\n        /* \"#utility.yul\":5230:5244   */\n      add\n        /* \"#utility.yul\":5223:5260   */\n      mstore\n        /* \"#utility.yul\":5106:5267   */\n      pop\n      jump\t// out\n        /* \"#utility.yul\":5273:5639   */\n    tag_137:\n        /* \"#utility.yul\":5415:5418   */\n      0x00\n        /* \"#utility.yul\":5436:5503   */\n      tag_205\n        /* \"#utility.yul\":5500:5502   */\n      0x0b\n        /* \"#utility.yul\":5495:5498   */\n      dup4\n        /* \"#utility.yul\":5436:5503   */\n      tag_133\n      jump\t// in\n    tag_205:\n        /* \"#utility.yul\":5429:5503   */\n      swap2\n      pop\n        /* \"#utility.yul\":5512:5605   */\n      tag_206\n        /* \"#utility.yul\":5601:5604   */\n      dup3\n        /* \"#utility.yul\":5512:5605   */\n      tag_136\n      jump\t// in\n    tag_206:\n        /* \"#utility.yul\":5630:5632   */\n      0x20\n        /* \"#utility.yul\":5625:5628   */\n      dup3\n        /* \"#utility.yul\":5621:5633   */\n      add\n        /* \"#utility.yul\":5614:5633   */\n      swap1\n      pop\n        /* \"#utility.yul\":5273:5639   */\n      swap2\n      swap1\n      pop\n      jump\t// out\n        /* \"#utility.yul\":5645:6064   */\n    tag_77:\n        /* \"#utility.yul\":5811:5815   */\n      0x00\n        /* \"#utility.yul\":5849:5851   */\n      0x20\n        /* \"#utility.yul\":5838:5847   */\n      dup3\n        /* \"#utility.yul\":5834:5852   */\n      add\n        /* \"#utility.yul\":5826:5852   */\n      swap1\n      pop\n        /* \"#utility.yul\":5898:5907   */\n      dup2\n        /* \"#utility.yul\":5892:5896   */\n      dup2\n        /* \"#utility.yul\":5888:5908   */\n      sub\n        /* \"#utility.yul\":5884:5885   */\n      0x00\n        /* \"#utility.yul\":5873:5882   */\n      dup4\n        /* \"#utility.yul\":5869:5886   */\n      add\n        /* \"#utility.yul\":5862:5909   */\n      mstore\n        /* \"#utility.yul\":5926:6057   */\n      tag_208\n        /* \"#utility.yul\":6052:6056   */\n      dup2\n        /* \"#utility.yul\":5926:6057   */\n      tag_137\n      jump\t// in\n    tag_208:\n        /* \"#utility.yul\":5918:6057   */\n      swap1\n      pop\n        /* \"#utility.yul\":5645:6064   */\n      swap2\n      swap1\n      pop\n      jump\t// out\n        /* \"#utility.yul\":6070:6238   */\n    tag_138:\n        /* \"#utility.yul\":6210:6230   */\n      0x76616c7565203c20686967686573744269640000000000000000000000000000\n        /* \"#utility.yul\":6206:6207   */\n      0x00\n        /* \"#utility.yul\":6198:6204   */\n      dup3\n        /* \"#utility.yul\":6194:6208   */\n      add\n        /* \"#utility.yul\":6187:6231   */\n      mstore\n        /* \"#utility.yul\":6070:6238   */\n      pop\n      jump\t// out\n        /* \"#utility.yul\":6244:6610   */\n    tag_139:\n        /* \"#utility.yul\":6386:6389   */\n      0x00\n        /* \"#utility.yul\":6407:6474   */\n      tag_211\n        /* \"#utility.yul\":6471:6473   */\n      0x12\n        /* \"#utility.yul\":6466:6469   */\n      dup4\n        /* \"#utility.yul\":6407:6474   */\n      tag_133\n      jump\t// in\n    tag_211:\n        /* \"#utility.yul\":6400:6474   */\n      swap2\n      pop\n        /* \"#utility.yul\":6483:6576   */\n      tag_212\n        /* \"#utility.yul\":6572:6575   */\n      dup3\n        /* \"#utility.yul\":6483:6576   */\n      tag_138\n      jump\t// in\n    tag_212:\n        /* \"#utility.yul\":6601:6603   */\n      0x20\n        /* \"#utility.yul\":6596:6599   */\n      dup3\n        /* \"#utility.yul\":6592:6604   */\n      add\n        /* \"#utility.yul\":6585:6604   */\n      swap1\n      pop\n        /* \"#utility.yul\":6244:6610   */\n      swap2\n      swap1\n      pop\n      jump\t// out\n        /* \"#utility.yul\":6616:7035   */\n    tag_80:\n        /* \"#utility.yul\":6782:6786   */\n      0x00\n        /* \"#utility.yul\":6820:6822   */\n      0x20\n        /* \"#utility.yul\":6809:6818   */\n      dup3\n        /* \"#utility.yul\":6805:6823   */\n      add\n        /* \"#utility.yul\":6797:6823   */\n      swap1\n      pop\n        /* \"#utility.yul\":6869:6878   */\n      dup2\n        /* \"#utility.yul\":6863:6867   */\n      dup2\n        /* \"#utility.yul\":6859:6879   */\n      sub\n        /* \"#utility.yul\":6855:6856   */\n      0x00\n        /* \"#utility.yul\":6844:6853   */\n      dup4\n        /* \"#utility.yul\":6840:6857   */\n      add\n        /* \"#utility.yul\":6833:6880   */\n      mstore\n        /* \"#utility.yul\":6897:7028   */\n      tag_214\n        /* \"#utility.yul\":7023:7027   */\n      dup2\n        /* \"#utility.yul\":6897:7028   */\n      tag_139\n      jump\t// in\n    tag_214:\n        /* \"#utility.yul\":6889:7028   */\n      swap1\n      pop\n        /* \"#utility.yul\":6616:7035   */\n      swap2\n      swap1\n      pop\n      jump\t// out\n        /* \"#utility.yul\":7041:7201   */\n    tag_140:\n        /* \"#utility.yul\":7181:7193   */\n      0x6e6f742073656c6c657200000000000000000000000000000000000000000000\n        /* \"#utility.yul\":7177:7178   */\n      0x00\n        /* \"#utility.yul\":7169:7175   */\n      dup3\n        /* \"#utility.yul\":7165:7179   */\n      add\n        /* \"#utility.yul\":7158:7194   */\n      mstore\n        /* \"#utility.yul\":7041:7201   */\n      pop\n      jump\t// out\n        /* \"#utility.yul\":7207:7573   */\n    tag_141:\n        /* \"#utility.yul\":7349:7352   */\n      0x00\n        /* \"#utility.yul\":7370:7437   */\n      tag_217\n        /* \"#utility.yul\":7434:7436   */\n      0x0a\n        /* \"#utility.yul\":7429:7432   */\n      dup4\n        /* \"#utility.yul\":7370:7437   */\n      tag_133\n      jump\t// in\n    tag_217:\n        /* \"#utility.yul\":7363:7437   */\n      swap2\n      pop\n        /* \"#utility.yul\":7446:7539   */\n      tag_218\n        /* \"#utility.yul\":7535:7538   */\n      dup3\n        /* \"#utility.yul\":7446:7539   */\n      tag_140\n      jump\t// in\n    tag_218:\n        /* \"#utility.yul\":7564:7566   */\n      0x20\n        /* \"#utility.yul\":7559:7562   */\n      dup3\n        /* \"#utility.yul\":7555:7567   */\n      add\n        /* \"#utility.yul\":7548:7567   */\n      swap1\n      pop\n        /* \"#utility.yul\":7207:7573   */\n      swap2\n      swap1\n      pop\n      jump\t// out\n        /* \"#utility.yul\":7579:7998   */\n    tag_84:\n        /* \"#utility.yul\":7745:7749   */\n      0x00\n        /* \"#utility.yul\":7783:7785   */\n      0x20\n        /* \"#utility.yul\":7772:7781   */\n      dup3\n        /* \"#utility.yul\":7768:7786   */\n      add\n        /* \"#utility.yul\":7760:7786   */\n      swap1\n      pop\n        /* \"#utility.yul\":7832:7841   */\n      dup2\n        /* \"#utility.yul\":7826:7830   */\n      dup2\n        /* \"#utility.yul\":7822:7842   */\n      sub\n        /* \"#utility.yul\":7818:7819   */\n      0x00\n        /* \"#utility.yul\":7807:7816   */\n      dup4\n        /* \"#utility.yul\":7803:7820   */\n      add\n        /* \"#utility.yul\":7796:7843   */\n      mstore\n        /* \"#utility.yul\":7860:7991   */\n      tag_220\n        /* \"#utility.yul\":7986:7990   */\n      dup2\n        /* \"#utility.yul\":7860:7991   */\n      tag_141\n      jump\t// in\n    tag_220:\n        /* \"#utility.yul\":7852:7991   */\n      swap1\n      pop\n        /* \"#utility.yul\":7579:7998   */\n      swap2\n      swap1\n      pop\n      jump\t// out\n        /* \"#utility.yul\":8004:8167   */\n    tag_142:\n        /* \"#utility.yul\":8144:8159   */\n      0x616c726561647920737461727400000000000000000000000000000000000000\n        /* \"#utility.yul\":8140:8141   */\n      0x00\n        /* \"#utility.yul\":8132:8138   */\n      dup3\n        /* \"#utility.yul\":8128:8142   */\n      add\n        /* \"#utility.yul\":8121:8160   */\n      mstore\n        /* \"#utility.yul\":8004:8167   */\n      pop\n      jump\t// out\n        /* \"#utility.yul\":8173:8539   */\n    tag_143:\n        /* \"#utility.yul\":8315:8318   */\n      0x00\n        /* \"#utility.yul\":8336:8403   */\n      tag_223\n        /* \"#utility.yul\":8400:8402   */\n      0x0d\n        /* \"#utility.yul\":8395:8398   */\n      dup4\n        /* \"#utility.yul\":8336:8403   */\n      tag_133\n      jump\t// in\n    tag_223:\n        /* \"#utility.yul\":8329:8403   */\n      swap2\n      pop\n        /* \"#utility.yul\":8412:8505   */\n      tag_224\n        /* \"#utility.yul\":8501:8504   */\n      dup3\n        /* \"#utility.yul\":8412:8505   */\n      tag_142\n      jump\t// in\n    tag_224:\n        /* \"#utility.yul\":8530:8532   */\n      0x20\n        /* \"#utility.yul\":8525:8528   */\n      dup3\n        /* \"#utility.yul\":8521:8533   */\n      add\n        /* \"#utility.yul\":8514:8533   */\n      swap1\n      pop\n        /* \"#utility.yul\":8173:8539   */\n      swap2\n      swap1\n      pop\n      jump\t// out\n        /* \"#utility.yul\":8545:8964   */\n    tag_87:\n        /* \"#utility.yul\":8711:8715   */\n      0x00\n        /* \"#utility.yul\":8749:8751   */\n      0x20\n        /* \"#utility.yul\":8738:8747   */\n      dup3\n        /* \"#utility.yul\":8734:8752   */\n      add\n        /* \"#utility.yul\":8726:8752   */\n      swap1\n      pop\n        /* \"#utility.yul\":8798:8807   */\n      dup2\n        /* \"#utility.yul\":8792:8796   */\n      dup2\n        /* \"#utility.yul\":8788:8808   */\n      sub\n        /* \"#utility.yul\":8784:8785   */\n      0x00\n        /* \"#utility.yul\":8773:8782   */\n      dup4\n        /* \"#utility.yul\":8769:8786   */\n      add\n        /* \"#utility.yul\":8762:8809   */\n      mstore\n        /* \"#utility.yul\":8826:8957   */\n      tag_226\n        /* \"#utility.yul\":8952:8956   */\n      dup2\n        /* \"#utility.yul\":8826:8957   */\n      tag_143\n      jump\t// in\n    tag_226:\n        /* \"#utility.yul\":8818:8957   */\n      swap1\n      pop\n        /* \"#utility.yul\":8545:8964   */\n      swap2\n      swap1\n      pop\n      jump\t// out\n        /* \"#utility.yul\":8970:9030   */\n    tag_144:\n        /* \"#utility.yul\":8998:9001   */\n      0x00\n        /* \"#utility.yul\":9019:9024   */\n      dup2\n        /* \"#utility.yul\":9012:9024   */\n      swap1\n      pop\n        /* \"#utility.yul\":8970:9030   */\n      swap2\n      swap1\n      pop\n      jump\t// out\n        /* \"#utility.yul\":9036:9178   */\n    tag_145:\n        /* \"#utility.yul\":9086:9095   */\n      0x00\n        /* \"#utility.yul\":9119:9172   */\n      tag_229\n        /* \"#utility.yul\":9137:9171   */\n      tag_230\n        /* \"#utility.yul\":9146:9170   */\n      tag_231\n        /* \"#utility.yul\":9164:9169   */\n      dup5\n        /* \"#utility.yul\":9146:9170   */\n      tag_116\n      jump\t// in\n    tag_231:\n        /* \"#utility.yul\":9137:9171   */\n      tag_144\n      jump\t// in\n    tag_230:\n        /* \"#utility.yul\":9119:9172   */\n      tag_116\n      jump\t// in\n    tag_229:\n        /* \"#utility.yul\":9106:9172   */\n      swap1\n      pop\n        /* \"#utility.yul\":9036:9178   */\n      swap2\n      swap1\n      pop\n      jump\t// out\n        /* \"#utility.yul\":9184:9310   */\n    tag_146:\n        /* \"#utility.yul\":9234:9243   */\n      0x00\n        /* \"#utility.yul\":9267:9304   */\n      tag_233\n        /* \"#utility.yul\":9298:9303   */\n      dup3\n        /* \"#utility.yul\":9267:9304   */\n      tag_145\n      jump\t// in\n    tag_233:\n        /* \"#utility.yul\":9254:9304   */\n      swap1\n      pop\n        /* \"#utility.yul\":9184:9310   */\n      swap2\n      swap1\n      pop\n      jump\t// out\n        /* \"#utility.yul\":9316:9450   */\n    tag_147:\n        /* \"#utility.yul\":9374:9383   */\n      0x00\n        /* \"#utility.yul\":9407:9444   */\n      tag_235\n        /* \"#utility.yul\":9438:9443   */\n      dup3\n        /* \"#utility.yul\":9407:9444   */\n      tag_146\n      jump\t// in\n    tag_235:\n        /* \"#utility.yul\":9394:9444   */\n      swap1\n      pop\n        /* \"#utility.yul\":9316:9450   */\n      swap2\n      swap1\n      pop\n      jump\t// out\n        /* \"#utility.yul\":9456:9603   */\n    tag_148:\n        /* \"#utility.yul\":9551:9596   */\n      tag_237\n        /* \"#utility.yul\":9590:9595   */\n      dup2\n        /* \"#utility.yul\":9551:9596   */\n      tag_147\n      jump\t// in\n    tag_237:\n        /* \"#utility.yul\":9546:9549   */\n      dup3\n        /* \"#utility.yul\":9539:9597   */\n      mstore\n        /* \"#utility.yul\":9456:9603   */\n      pop\n      pop\n      jump\t// out\n        /* \"#utility.yul\":9609:10067   */\n    tag_89:\n        /* \"#utility.yul\":9766:9770   */\n      0x00\n        /* \"#utility.yul\":9804:9806   */\n      0x60\n        /* \"#utility.yul\":9793:9802   */\n      dup3\n        /* \"#utility.yul\":9789:9807   */\n      add\n        /* \"#utility.yul\":9781:9807   */\n      swap1\n      pop\n        /* \"#utility.yul\":9817:9896   */\n      tag_239\n        /* \"#utility.yul\":9893:9894   */\n      0x00\n        /* \"#utility.yul\":9882:9891   */\n      dup4\n        /* \"#utility.yul\":9878:9895   */\n      add\n        /* \"#utility.yul\":9869:9875   */\n      dup7\n        /* \"#utility.yul\":9817:9896   */\n      tag_148\n      jump\t// in\n    tag_239:\n        /* \"#utility.yul\":9906:9978   */\n      tag_240\n        /* \"#utility.yul\":9974:9976   */\n      0x20\n        /* \"#utility.yul\":9963:9972   */\n      dup4\n        /* \"#utility.yul\":9959:9977   */\n      add\n        /* \"#utility.yul\":9950:9956   */\n      dup6\n        /* \"#utility.yul\":9906:9978   */\n      tag_124\n      jump\t// in\n    tag_240:\n        /* \"#utility.yul\":9988:10060   */\n      tag_241\n        /* \"#utility.yul\":10056:10058   */\n      0x40\n        /* \"#utility.yul\":10045:10054   */\n      dup4\n        /* \"#utility.yul\":10041:10059   */\n      add\n        /* \"#utility.yul\":10032:10038   */\n      dup5\n        /* \"#utility.yul\":9988:10060   */\n      tag_122\n      jump\t// in\n    tag_241:\n        /* \"#utility.yul\":9609:10067   */\n      swap5\n      swap4\n      pop\n      pop\n      pop\n      pop\n      jump\t// out\n        /* \"#utility.yul\":10073:10235   */\n    tag_149:\n        /* \"#utility.yul\":10213:10227   */\n      0x616c7265617920656e6465640000000000000000000000000000000000000000\n        /* \"#utility.yul\":10209:10210   */\n      0x00\n        /* \"#utility.yul\":10201:10207   */\n      dup3\n        /* \"#utility.yul\":10197:10211   */\n      add\n        /* \"#utility.yul\":10190:10228   */\n      mstore\n        /* \"#utility.yul\":10073:10235   */\n      pop\n      jump\t// out\n        /* \"#utility.yul\":10241:10607   */\n    tag_150:\n        /* \"#utility.yul\":10383:10386   */\n      0x00\n        /* \"#utility.yul\":10404:10471   */\n      tag_244\n        /* \"#utility.yul\":10468:10470   */\n      0x0c\n        /* \"#utility.yul\":10463:10466   */\n      dup4\n        /* \"#utility.yul\":10404:10471   */\n      tag_133\n      jump\t// in\n    tag_244:\n        /* \"#utility.yul\":10397:10471   */\n      swap2\n      pop\n        /* \"#utility.yul\":10480:10573   */\n      tag_245\n        /* \"#utility.yul\":10569:10572   */\n      dup3\n        /* \"#utility.yul\":10480:10573   */\n      tag_149\n      jump\t// in\n    tag_245:\n        /* \"#utility.yul\":10598:10600   */\n      0x20\n        /* \"#utility.yul\":10593:10596   */\n      dup3\n        /* \"#utility.yul\":10589:10601   */\n      add\n        /* \"#utility.yul\":10582:10601   */\n      swap1\n      pop\n        /* \"#utility.yul\":10241:10607   */\n      swap2\n      swap1\n      pop\n      jump\t// out\n        /* \"#utility.yul\":10613:11032   */\n    tag_96:\n        /* \"#utility.yul\":10779:10783   */\n      0x00\n        /* \"#utility.yul\":10817:10819   */\n      0x20\n        /* \"#utility.yul\":10806:10815   */\n      dup3\n        /* \"#utility.yul\":10802:10820   */\n      add\n        /* \"#utility.yul\":10794:10820   */\n      swap1\n      pop\n        /* \"#utility.yul\":10866:10875   */\n      dup2\n        /* \"#utility.yul\":10860:10864   */\n      dup2\n        /* \"#utility.yul\":10856:10876   */\n      sub\n        /* \"#utility.yul\":10852:10853   */\n      0x00\n        /* \"#utility.yul\":10841:10850   */\n      dup4\n        /* \"#utility.yul\":10837:10854   */\n      add\n        /* \"#utility.yul\":10830:10877   */\n      mstore\n        /* \"#utility.yul\":10894:11025   */\n      tag_247\n        /* \"#utility.yul\":11020:11024   */\n      dup2\n        /* \"#utility.yul\":10894:11025   */\n      tag_150\n      jump\t// in\n    tag_247:\n        /* \"#utility.yul\":10886:11025   */\n      swap1\n      pop\n        /* \"#utility.yul\":10613:11032   */\n      swap2\n      swap1\n      pop\n      jump\t// out\n        /* \"#utility.yul\":11038:11480   */\n    tag_99:\n        /* \"#utility.yul\":11187:11191   */\n      0x00\n        /* \"#utility.yul\":11225:11227   */\n      0x60\n        /* \"#utility.yul\":11214:11223   */\n      dup3\n        /* \"#utility.yul\":11210:11228   */\n      add\n        /* \"#utility.yul\":11202:11228   */\n      swap1\n      pop\n        /* \"#utility.yul\":11238:11309   */\n      tag_249\n        /* \"#utility.yul\":11306:11307   */\n      0x00\n        /* \"#utility.yul\":11295:11304   */\n      dup4\n        /* \"#utility.yul\":11291:11308   */\n      add\n        /* \"#utility.yul\":11282:11288   */\n      dup7\n        /* \"#utility.yul\":11238:11309   */\n      tag_124\n      jump\t// in\n    tag_249:\n        /* \"#utility.yul\":11319:11391   */\n      tag_250\n        /* \"#utility.yul\":11387:11389   */\n      0x20\n        /* \"#utility.yul\":11376:11385   */\n      dup4\n        /* \"#utility.yul\":11372:11390   */\n      add\n        /* \"#utility.yul\":11363:11369   */\n      dup6\n        /* \"#utility.yul\":11319:11391   */\n      tag_124\n      jump\t// in\n    tag_250:\n        /* \"#utility.yul\":11401:11473   */\n      tag_251\n        /* \"#utility.yul\":11469:11471   */\n      0x40\n        /* \"#utility.yul\":11458:11467   */\n      dup4\n        /* \"#utility.yul\":11454:11472   */\n      add\n        /* \"#utility.yul\":11445:11451   */\n      dup5\n        /* \"#utility.yul\":11401:11473   */\n      tag_122\n      jump\t// in\n    tag_251:\n        /* \"#utility.yul\":11038:11480   */\n      swap5\n      swap4\n      pop\n      pop\n      pop\n      pop\n      jump\t// out\n        /* \"#utility.yul\":11486:11646   */\n    tag_151:\n        /* \"#utility.yul\":11626:11638   */\n      0x656e64206661696c656400000000000000000000000000000000000000000000\n        /* \"#utility.yul\":11622:11623   */\n      0x00\n        /* \"#utility.yul\":11614:11620   */\n      dup3\n        /* \"#utility.yul\":11610:11624   */\n      add\n        /* \"#utility.yul\":11603:11639   */\n      mstore\n        /* \"#utility.yul\":11486:11646   */\n      pop\n      jump\t// out\n        /* \"#utility.yul\":11652:12018   */\n    tag_152:\n        /* \"#utility.yul\":11794:11797   */\n      0x00\n        /* \"#utility.yul\":11815:11882   */\n      tag_254\n        /* \"#utility.yul\":11879:11881   */\n      0x0a\n        /* \"#utility.yul\":11874:11877   */\n      dup4\n        /* \"#utility.yul\":11815:11882   */\n      tag_133\n      jump\t// in\n    tag_254:\n        /* \"#utility.yul\":11808:11882   */\n      swap2\n      pop\n        /* \"#utility.yul\":11891:11984   */\n      tag_255\n        /* \"#utility.yul\":11980:11983   */\n      dup3\n        /* \"#utility.yul\":11891:11984   */\n      tag_151\n      jump\t// in\n    tag_255:\n        /* \"#utility.yul\":12009:12011   */\n      0x20\n        /* \"#utility.yul\":12004:12007   */\n      dup3\n        /* \"#utility.yul\":12000:12012   */\n      add\n        /* \"#utility.yul\":11993:12012   */\n      swap1\n      pop\n        /* \"#utility.yul\":11652:12018   */\n      swap2\n      swap1\n      pop\n      jump\t// out\n        /* \"#utility.yul\":12024:12443   */\n    tag_109:\n        /* \"#utility.yul\":12190:12194   */\n      0x00\n        /* \"#utility.yul\":12228:12230   */\n      0x20\n        /* \"#utility.yul\":12217:12226   */\n      dup3\n        /* \"#utility.yul\":12213:12231   */\n      add\n        /* \"#utility.yul\":12205:12231   */\n      swap1\n      pop\n        /* \"#utility.yul\":12277:12286   */\n      dup2\n        /* \"#utility.yul\":12271:12275   */\n      dup2\n        /* \"#utility.yul\":12267:12287   */\n      sub\n        /* \"#utility.yul\":12263:12264   */\n      0x00\n        /* \"#utility.yul\":12252:12261   */\n      dup4\n        /* \"#utility.yul\":12248:12265   */\n      add\n        /* \"#utility.yul\":12241:12288   */\n      mstore\n        /* \"#utility.yul\":12305:12436   */\n      tag_257\n        /* \"#utility.yul\":12431:12435   */\n      dup2\n        /* \"#utility.yul\":12305:12436   */\n      tag_152\n      jump\t// in\n    tag_257:\n        /* \"#utility.yul\":12297:12436   */\n      swap1\n      pop\n        /* \"#utility.yul\":12024:12443   */\n      swap2\n      swap1\n      pop\n      jump\t// out\n        /* \"#utility.yul\":12449:12907   */\n    tag_112:\n        /* \"#utility.yul\":12606:12610   */\n      0x00\n        /* \"#utility.yul\":12644:12646   */\n      0x60\n        /* \"#utility.yul\":12633:12642   */\n      dup3\n        /* \"#utility.yul\":12629:12647   */\n      add\n        /* \"#utility.yul\":12621:12647   */\n      swap1\n      pop\n        /* \"#utility.yul\":12657:12728   */\n      tag_259\n        /* \"#utility.yul\":12725:12726   */\n      0x00\n        /* \"#utility.yul\":12714:12723   */\n      dup4\n        /* \"#utility.yul\":12710:12727   */\n      add\n        /* \"#utility.yul\":12701:12707   */\n      dup7\n        /* \"#utility.yul\":12657:12728   */\n      tag_124\n      jump\t// in\n    tag_259:\n        /* \"#utility.yul\":12738:12818   */\n      tag_260\n        /* \"#utility.yul\":12814:12816   */\n      0x20\n        /* \"#utility.yul\":12803:12812   */\n      dup4\n        /* \"#utility.yul\":12799:12817   */\n      add\n        /* \"#utility.yul\":12790:12796   */\n      dup6\n        /* \"#utility.yul\":12738:12818   */\n      tag_148\n      jump\t// in\n    tag_260:\n        /* \"#utility.yul\":12828:12900   */\n      tag_261\n        /* \"#utility.yul\":12896:12898   */\n      0x40\n        /* \"#utility.yul\":12885:12894   */\n      dup4\n        /* \"#utility.yul\":12881:12899   */\n      add\n        /* \"#utility.yul\":12872:12878   */\n      dup5\n        /* \"#utility.yul\":12828:12900   */\n      tag_122\n      jump\t// in\n    tag_261:\n        /* \"#utility.yul\":12449:12907   */\n      swap5\n      swap4\n      pop\n      pop\n      pop\n      pop\n      jump\t// out\n\n    auxdata: 0xa2646970667358221220eb64ed8fb346ad6156421612e309a8962d64ed1f9e5480d4dcffefb0a627100c64736f6c63430008220033\n}\n",
				"bytecode": {
					"linkReferences": {},
					"object": "60e060405234801561000f575f5ffd5b5060405161126e38038061126e83398181016040528101906100319190610154565b8273ffffffffffffffffffffffffffffffffffffffff1660808173ffffffffffffffffffffffffffffffffffffffff16815250508160a081815250503373ffffffffffffffffffffffffffffffffffffffff1660c08173ffffffffffffffffffffffffffffffffffffffff1681525050611770426100af91906101d1565b5f8190555080600281905550505050610204565b5f5ffd5b5f73ffffffffffffffffffffffffffffffffffffffff82169050919050565b5f6100f0826100c7565b9050919050565b610100816100e6565b811461010a575f5ffd5b50565b5f8151905061011b816100f7565b92915050565b5f819050919050565b61013381610121565b811461013d575f5ffd5b50565b5f8151905061014e8161012a565b92915050565b5f5f5f6060848603121561016b5761016a6100c3565b5b5f6101788682870161010d565b935050602061018986828701610140565b925050604061019a86828701610140565b9150509250925092565b7f4e487b71000000000000000000000000000000000000000000000000000000005f52601160045260245ffd5b5f6101db82610121565b91506101e683610121565b92508282019050808211156101fe576101fd6101a4565b5b92915050565b60805160a05160c05161100161026d5f395f818161026e0152818161054a0152818161067c015281816108a601526109b201525f818161069e0152818161070c0152818161083901526109d301525f8181610640015281816107d9015261097501526110015ff3fe6080604052600436106100a6575f3560e01c80633ffcb8b9116100635780633ffcb8b91461018657806362ea82db146101b0578063be9a6555146101ec578063c6bc518214610202578063d57bde791461022c578063efbe1c1c14610256576100a6565b806308551a53146100aa5780630fdb1c10146100d457806312fa6feb146100fe5780631998aeef146101285780631f2698ab146101325780633197cbb61461015c575b5f5ffd5b3480156100b5575f5ffd5b506100be61026c565b6040516100cb9190610a99565b60405180910390f35b3480156100df575f5ffd5b506100e8610290565b6040516100f59190610acc565b60405180910390f35b348015610109575f5ffd5b50610112610384565b60405161011f9190610acc565b60405180910390f35b610130610395565b005b34801561013d575f5ffd5b506101466104f6565b6040516101539190610acc565b60405180910390f35b348015610167575f5ffd5b50610170610508565b60405161017d9190610afd565b60405180910390f35b348015610191575f5ffd5b5061019a61050d565b6040516101a79190610b36565b60405180910390f35b3480156101bb575f5ffd5b506101d660048036038101906101d19190610b7d565b610533565b6040516101e39190610afd565b60405180910390f35b3480156101f7575f5ffd5b50610200610548565b005b34801561020d575f5ffd5b5061021661070a565b6040516102239190610afd565b60405180910390f35b348015610237575f5ffd5b5061024061072e565b60405161024d9190610afd565b60405180910390f35b348015610261575f5ffd5b5061026a610734565b005b7f000000000000000000000000000000000000000000000000000000000000000081565b5f5f60035f3373ffffffffffffffffffffffffffffffffffffffff1673ffffffffffffffffffffffffffffffffffffffff1681526020019081526020015f205490505f60035f3373ffffffffffffffffffffffffffffffffffffffff1673ffffffffffffffffffffffffffffffffffffffff1681526020019081526020015f20819055505f3373ffffffffffffffffffffffffffffffffffffffff168260405161033990610bd5565b5f6040518083038185875af1925050503d805f8114610373576040519150601f19603f3d011682016040523d82523d5f602084013e610378565b606091505b50509050809250505090565b60018054906101000a900460ff1681565b60015f9054906101000a900460ff166103e3576040517f08c379a00000000000000000000000000000000000000000000000000000000081526004016103da90610c43565b60405180910390fd5b5f544210610426576040517f08c379a000000000000000000000000000000000000000000000000000000000815260040161041d90610cab565b60405180910390fd5b600254341161046a576040517f08c379a000000000000000000000000000000000000000000000000000000000815260040161046190610d13565b60405180910390fd5b33600160026101000a81548173ffffffffffffffffffffffffffffffffffffffff021916908373ffffffffffffffffffffffffffffffffffffffff160217905550346002819055503460035f3373ffffffffffffffffffffffffffffffffffffffff1673ffffffffffffffffffffffffffffffffffffffff1681526020019081526020015f2081905550565b60015f9054906101000a900460ff1681565b5f5481565b600160029054906101000a900473ffffffffffffffffffffffffffffffffffffffff1681565b6003602052805f5260405f205f915090505481565b7f000000000000000000000000000000000000000000000000000000000000000073ffffffffffffffffffffffffffffffffffffffff163373ffffffffffffffffffffffffffffffffffffffff16146105d6576040517f08c379a00000000000000000000000000000000000000000000000000000000081526004016105cd90610d7b565b60405180910390fd5b60015f9054906101000a900460ff1615610625576040517f08c379a000000000000000000000000000000000000000000000000000000000815260040161061c90610de3565b60405180910390fd5b6001805f6101000a81548160ff0219169083151502179055507f000000000000000000000000000000000000000000000000000000000000000073ffffffffffffffffffffffffffffffffffffffff166323b872dd7f0000000000000000000000000000000000000000000000000000000000000000307f00000000000000000000000000000000000000000000000000000000000000006040518463ffffffff1660e01b81526004016106db93929190610e5c565b5f604051808303815f87803b1580156106f2575f5ffd5b505af1158015610704573d5f5f3e3d5ffd5b50505050565b7f000000000000000000000000000000000000000000000000000000000000000081565b60025481565b60018054906101000a900460ff1615610782576040517f08c379a000000000000000000000000000000000000000000000000000000000815260040161077990610edb565b60405180910390fd5b5f73ffffffffffffffffffffffffffffffffffffffff16600160029054906101000a900473ffffffffffffffffffffffffffffffffffffffff1673ffffffffffffffffffffffffffffffffffffffff1614610973577f000000000000000000000000000000000000000000000000000000000000000073ffffffffffffffffffffffffffffffffffffffff166323b872dd30600160029054906101000a900473ffffffffffffffffffffffffffffffffffffffff167f00000000000000000000000000000000000000000000000000000000000000006040518463ffffffff1660e01b815260040161087693929190610ef9565b5f604051808303815f87803b15801561088d575f5ffd5b505af115801561089f573d5f5f3e3d5ffd5b505050505f7f000000000000000000000000000000000000000000000000000000000000000073ffffffffffffffffffffffffffffffffffffffff166002546040516108ea90610bd5565b5f6040518083038185875af1925050503d805f8114610924576040519150601f19603f3d011682016040523d82523d5f602084013e610929565b606091505b505090508061096d576040517f08c379a000000000000000000000000000000000000000000000000000000000815260040161096490610f78565b60405180910390fd5b50610a3e565b7f000000000000000000000000000000000000000000000000000000000000000073ffffffffffffffffffffffffffffffffffffffff166323b872dd307f00000000000000000000000000000000000000000000000000000000000000007f00000000000000000000000000000000000000000000000000000000000000006040518463ffffffff1660e01b8152600401610a1093929190610f96565b5f604051808303815f87803b158015610a27575f5ffd5b505af1158015610a39573d5f5f3e3d5ffd5b505050505b60018060016101000a81548160ff021916908315150217905550565b5f73ffffffffffffffffffffffffffffffffffffffff82169050919050565b5f610a8382610a5a565b9050919050565b610a9381610a79565b82525050565b5f602082019050610aac5f830184610a8a565b92915050565b5f8115159050919050565b610ac681610ab2565b82525050565b5f602082019050610adf5f830184610abd565b92915050565b5f819050919050565b610af781610ae5565b82525050565b5f602082019050610b105f830184610aee565b92915050565b5f610b2082610a5a565b9050919050565b610b3081610b16565b82525050565b5f602082019050610b495f830184610b27565b92915050565b5f5ffd5b610b5c81610b16565b8114610b66575f5ffd5b50565b5f81359050610b7781610b53565b92915050565b5f60208284031215610b9257610b91610b4f565b5b5f610b9f84828501610b69565b91505092915050565b5f81905092915050565b50565b5f610bc05f83610ba8565b9150610bcb82610bb2565b5f82019050919050565b5f610bdf82610bb5565b9150819050919050565b5f82825260208201905092915050565b7f6e6f7420737461727400000000000000000000000000000000000000000000005f82015250565b5f610c2d600983610be9565b9150610c3882610bf9565b602082019050919050565b5f6020820190508181035f830152610c5a81610c21565b9050919050565b7f616c726561647920656e640000000000000000000000000000000000000000005f82015250565b5f610c95600b83610be9565b9150610ca082610c61565b602082019050919050565b5f6020820190508181035f830152610cc281610c89565b9050919050565b7f76616c7565203c206869676865737442696400000000000000000000000000005f82015250565b5f610cfd601283610be9565b9150610d0882610cc9565b602082019050919050565b5f6020820190508181035f830152610d2a81610cf1565b9050919050565b7f6e6f742073656c6c6572000000000000000000000000000000000000000000005f82015250565b5f610d65600a83610be9565b9150610d7082610d31565b602082019050919050565b5f6020820190508181035f830152610d9281610d59565b9050919050565b7f616c7265616479207374617274000000000000000000000000000000000000005f82015250565b5f610dcd600d83610be9565b9150610dd882610d99565b602082019050919050565b5f6020820190508181035f830152610dfa81610dc1565b9050919050565b5f819050919050565b5f610e24610e1f610e1a84610a5a565b610e01565b610a5a565b9050919050565b5f610e3582610e0a565b9050919050565b5f610e4682610e2b565b9050919050565b610e5681610e3c565b82525050565b5f606082019050610e6f5f830186610e4d565b610e7c6020830185610b27565b610e896040830184610aee565b949350505050565b7f616c7265617920656e64656400000000000000000000000000000000000000005f82015250565b5f610ec5600c83610be9565b9150610ed082610e91565b602082019050919050565b5f6020820190508181035f830152610ef281610eb9565b9050919050565b5f606082019050610f0c5f830186610b27565b610f196020830185610b27565b610f266040830184610aee565b949350505050565b7f656e64206661696c6564000000000000000000000000000000000000000000005f82015250565b5f610f62600a83610be9565b9150610f6d82610f2e565b602082019050919050565b5f6020820190508181035f830152610f8f81610f56565b9050919050565b5f606082019050610fa95f830186610b27565b610fb66020830185610e4d565b610fc36040830184610aee565b94935050505056fea2646970667358221220eb64ed8fb346ad6156421612e309a8962d64ed1f9e5480d4dcffefb0a627100c64736f6c63430008220033",
					"opcodes": "PUSH1 0xE0 PUSH1 0x40 MSTORE CALLVALUE DUP1 ISZERO PUSH2 0xF JUMPI PUSH0 PUSH0 REVERT JUMPDEST POP PUSH1 0x40 MLOAD PUSH2 0x126E CODESIZE SUB DUP1 PUSH2 0x126E DUP4 CODECOPY DUP2 DUP2 ADD PUSH1 0x40 MSTORE DUP2 ADD SWAP1 PUSH2 0x31 SWAP2 SWAP1 PUSH2 0x154 JUMP JUMPDEST DUP3 PUSH20 0xFFFFFFFFFFFFFFFFFFFFFFFFFFFFFFFFFFFFFFFF AND PUSH1 0x80 DUP2 PUSH20 0xFFFFFFFFFFFFFFFFFFFFFFFFFFFFFFFFFFFFFFFF AND DUP2 MSTORE POP POP DUP2 PUSH1 0xA0 DUP2 DUP2 MSTORE POP POP CALLER PUSH20 0xFFFFFFFFFFFFFFFFFFFFFFFFFFFFFFFFFFFFFFFF AND PUSH1 0xC0 DUP2 PUSH20 0xFFFFFFFFFFFFFFFFFFFFFFFFFFFFFFFFFFFFFFFF AND DUP2 MSTORE POP POP PUSH2 0x1770 TIMESTAMP PUSH2 0xAF SWAP2 SWAP1 PUSH2 0x1D1 JUMP JUMPDEST PUSH0 DUP2 SWAP1 SSTORE POP DUP1 PUSH1 0x2 DUP2 SWAP1 SSTORE POP POP POP POP PUSH2 0x204 JUMP JUMPDEST PUSH0 PUSH0 REVERT JUMPDEST PUSH0 PUSH20 0xFFFFFFFFFFFFFFFFFFFFFFFFFFFFFFFFFFFFFFFF DUP3 AND SWAP1 POP SWAP2 SWAP1 POP JUMP JUMPDEST PUSH0 PUSH2 0xF0 DUP3 PUSH2 0xC7 JUMP JUMPDEST SWAP1 POP SWAP2 SWAP1 POP JUMP JUMPDEST PUSH2 0x100 DUP2 PUSH2 0xE6 JUMP JUMPDEST DUP2 EQ PUSH2 0x10A JUMPI PUSH0 PUSH0 REVERT JUMPDEST POP JUMP JUMPDEST PUSH0 DUP2 MLOAD SWAP1 POP PUSH2 0x11B DUP2 PUSH2 0xF7 JUMP JUMPDEST SWAP3 SWAP2 POP POP JUMP JUMPDEST PUSH0 DUP2 SWAP1 POP SWAP2 SWAP1 POP JUMP JUMPDEST PUSH2 0x133 DUP2 PUSH2 0x121 JUMP JUMPDEST DUP2 EQ PUSH2 0x13D JUMPI PUSH0 PUSH0 REVERT JUMPDEST POP JUMP JUMPDEST PUSH0 DUP2 MLOAD SWAP1 POP PUSH2 0x14E DUP2 PUSH2 0x12A JUMP JUMPDEST SWAP3 SWAP2 POP POP JUMP JUMPDEST PUSH0 PUSH0 PUSH0 PUSH1 0x60 DUP5 DUP7 SUB SLT ISZERO PUSH2 0x16B JUMPI PUSH2 0x16A PUSH2 0xC3 JUMP JUMPDEST JUMPDEST PUSH0 PUSH2 0x178 DUP7 DUP3 DUP8 ADD PUSH2 0x10D JUMP JUMPDEST SWAP4 POP POP PUSH1 0x20 PUSH2 0x189 DUP7 DUP3 DUP8 ADD PUSH2 0x140 JUMP JUMPDEST SWAP3 POP POP PUSH1 0x40 PUSH2 0x19A DUP7 DUP3 DUP8 ADD PUSH2 0x140 JUMP JUMPDEST SWAP2 POP POP SWAP3 POP SWAP3 POP SWAP3 JUMP JUMPDEST PUSH32 0x4E487B7100000000000000000000000000000000000000000000000000000000 PUSH0 MSTORE PUSH1 0x11 PUSH1 0x4 MSTORE PUSH1 0x24 PUSH0 REVERT JUMPDEST PUSH0 PUSH2 0x1DB DUP3 PUSH2 0x121 JUMP JUMPDEST SWAP2 POP PUSH2 0x1E6 DUP4 PUSH2 0x121 JUMP JUMPDEST SWAP3 POP DUP3 DUP3 ADD SWAP1 POP DUP1 DUP3 GT ISZERO PUSH2 0x1FE JUMPI PUSH2 0x1FD PUSH2 0x1A4 JUMP JUMPDEST JUMPDEST SWAP3 SWAP2 POP POP JUMP JUMPDEST PUSH1 0x80 MLOAD PUSH1 0xA0 MLOAD PUSH1 0xC0 MLOAD PUSH2 0x1001 PUSH2 0x26D PUSH0 CODECOPY PUSH0 DUP2 DUP2 PUSH2 0x26E ADD MSTORE DUP2 DUP2 PUSH2 0x54A ADD MSTORE DUP2 DUP2 PUSH2 0x67C ADD MSTORE DUP2 DUP2 PUSH2 0x8A6 ADD MSTORE PUSH2 0x9B2 ADD MSTORE PUSH0 DUP2 DUP2 PUSH2 0x69E ADD MSTORE DUP2 DUP2 PUSH2 0x70C ADD MSTORE DUP2 DUP2 PUSH2 0x839 ADD MSTORE PUSH2 0x9D3 ADD MSTORE PUSH0 DUP2 DUP2 PUSH2 0x640 ADD MSTORE DUP2 DUP2 PUSH2 0x7D9 ADD MSTORE PUSH2 0x975 ADD MSTORE PUSH2 0x1001 PUSH0 RETURN INVALID PUSH1 0x80 PUSH1 0x40 MSTORE PUSH1 0x4 CALLDATASIZE LT PUSH2 0xA6 JUMPI PUSH0 CALLDATALOAD PUSH1 0xE0 SHR DUP1 PUSH4 0x3FFCB8B9 GT PUSH2 0x63 JUMPI DUP1 PUSH4 0x3FFCB8B9 EQ PUSH2 0x186 JUMPI DUP1 PUSH4 0x62EA82DB EQ PUSH2 0x1B0 JUMPI DUP1 PUSH4 0xBE9A6555 EQ PUSH2 0x1EC JUMPI DUP1 PUSH4 0xC6BC5182 EQ PUSH2 0x202 JUMPI DUP1 PUSH4 0xD57BDE79 EQ PUSH2 0x22C JUMPI DUP1 PUSH4 0xEFBE1C1C EQ PUSH2 0x256 JUMPI PUSH2 0xA6 JUMP JUMPDEST DUP1 PUSH4 0x8551A53 EQ PUSH2 0xAA JUMPI DUP1 PUSH4 0xFDB1C10 EQ PUSH2 0xD4 JUMPI DUP1 PUSH4 0x12FA6FEB EQ PUSH2 0xFE JUMPI DUP1 PUSH4 0x1998AEEF EQ PUSH2 0x128 JUMPI DUP1 PUSH4 0x1F2698AB EQ PUSH2 0x132 JUMPI DUP1 PUSH4 0x3197CBB6 EQ PUSH2 0x15C JUMPI JUMPDEST PUSH0 PUSH0 REVERT JUMPDEST CALLVALUE DUP1 ISZERO PUSH2 0xB5 JUMPI PUSH0 PUSH0 REVERT JUMPDEST POP PUSH2 0xBE PUSH2 0x26C JUMP JUMPDEST PUSH1 0x40 MLOAD PUSH2 0xCB SWAP2 SWAP1 PUSH2 0xA99 JUMP JUMPDEST PUSH1 0x40 MLOAD DUP1 SWAP2 SUB SWAP1 RETURN JUMPDEST CALLVALUE DUP1 ISZERO PUSH2 0xDF JUMPI PUSH0 PUSH0 REVERT JUMPDEST POP PUSH2 0xE8 PUSH2 0x290 JUMP JUMPDEST PUSH1 0x40 MLOAD PUSH2 0xF5 SWAP2 SWAP1 PUSH2 0xACC JUMP JUMPDEST PUSH1 0x40 MLOAD DUP1 SWAP2 SUB SWAP1 RETURN JUMPDEST CALLVALUE DUP1 ISZERO PUSH2 0x109 JUMPI PUSH0 PUSH0 REVERT JUMPDEST POP PUSH2 0x112 PUSH2 0x384 JUMP JUMPDEST PUSH1 0x40 MLOAD PUSH2 0x11F SWAP2 SWAP1 PUSH2 0xACC JUMP JUMPDEST PUSH1 0x40 MLOAD DUP1 SWAP2 SUB SWAP1 RETURN JUMPDEST PUSH2 0x130 PUSH2 0x395 JUMP JUMPDEST STOP JUMPDEST CALLVALUE DUP1 ISZERO PUSH2 0x13D JUMPI PUSH0 PUSH0 REVERT JUMPDEST POP PUSH2 0x146 PUSH2 0x4F6 JUMP JUMPDEST PUSH1 0x40 MLOAD PUSH2 0x153 SWAP2 SWAP1 PUSH2 0xACC JUMP JUMPDEST PUSH1 0x40 MLOAD DUP1 SWAP2 SUB SWAP1 RETURN JUMPDEST CALLVALUE DUP1 ISZERO PUSH2 0x167 JUMPI PUSH0 PUSH0 REVERT JUMPDEST POP PUSH2 0x170 PUSH2 0x508 JUMP JUMPDEST PUSH1 0x40 MLOAD PUSH2 0x17D SWAP2 SWAP1 PUSH2 0xAFD JUMP JUMPDEST PUSH1 0x40 MLOAD DUP1 SWAP2 SUB SWAP1 RETURN JUMPDEST CALLVALUE DUP1 ISZERO PUSH2 0x191 JUMPI PUSH0 PUSH0 REVERT JUMPDEST POP PUSH2 0x19A PUSH2 0x50D JUMP JUMPDEST PUSH1 0x40 MLOAD PUSH2 0x1A7 SWAP2 SWAP1 PUSH2 0xB36 JUMP JUMPDEST PUSH1 0x40 MLOAD DUP1 SWAP2 SUB SWAP1 RETURN JUMPDEST CALLVALUE DUP1 ISZERO PUSH2 0x1BB JUMPI PUSH0 PUSH0 REVERT JUMPDEST POP PUSH2 0x1D6 PUSH1 0x4 DUP1 CALLDATASIZE SUB DUP2 ADD SWAP1 PUSH2 0x1D1 SWAP2 SWAP1 PUSH2 0xB7D JUMP JUMPDEST PUSH2 0x533 JUMP JUMPDEST PUSH1 0x40 MLOAD PUSH2 0x1E3 SWAP2 SWAP1 PUSH2 0xAFD JUMP JUMPDEST PUSH1 0x40 MLOAD DUP1 SWAP2 SUB SWAP1 RETURN JUMPDEST CALLVALUE DUP1 ISZERO PUSH2 0x1F7 JUMPI PUSH0 PUSH0 REVERT JUMPDEST POP PUSH2 0x200 PUSH2 0x548 JUMP JUMPDEST STOP JUMPDEST CALLVALUE DUP1 ISZERO PUSH2 0x20D JUMPI PUSH0 PUSH0 REVERT JUMPDEST POP PUSH2 0x216 PUSH2 0x70A JUMP JUMPDEST PUSH1 0x40 MLOAD PUSH2 0x223 SWAP2 SWAP1 PUSH2 0xAFD JUMP JUMPDEST PUSH1 0x40 MLOAD DUP1 SWAP2 SUB SWAP1 RETURN JUMPDEST CALLVALUE DUP1 ISZERO PUSH2 0x237 JUMPI PUSH0 PUSH0 REVERT JUMPDEST POP PUSH2 0x240 PUSH2 0x72E JUMP JUMPDEST PUSH1 0x40 MLOAD PUSH2 0x24D SWAP2 SWAP1 PUSH2 0xAFD JUMP JUMPDEST PUSH1 0x40 MLOAD DUP1 SWAP2 SUB SWAP1 RETURN JUMPDEST CALLVALUE DUP1 ISZERO PUSH2 0x261 JUMPI PUSH0 PUSH0 REVERT JUMPDEST POP PUSH2 0x26A PUSH2 0x734 JUMP JUMPDEST STOP JUMPDEST PUSH32 0x0 DUP2 JUMP JUMPDEST PUSH0 PUSH0 PUSH1 0x3 PUSH0 CALLER PUSH20 0xFFFFFFFFFFFFFFFFFFFFFFFFFFFFFFFFFFFFFFFF AND PUSH20 0xFFFFFFFFFFFFFFFFFFFFFFFFFFFFFFFFFFFFFFFF AND DUP2 MSTORE PUSH1 0x20 ADD SWAP1 DUP2 MSTORE PUSH1 0x20 ADD PUSH0 KECCAK256 SLOAD SWAP1 POP PUSH0 PUSH1 0x3 PUSH0 CALLER PUSH20 0xFFFFFFFFFFFFFFFFFFFFFFFFFFFFFFFFFFFFFFFF AND PUSH20 0xFFFFFFFFFFFFFFFFFFFFFFFFFFFFFFFFFFFFFFFF AND DUP2 MSTORE PUSH1 0x20 ADD SWAP1 DUP2 MSTORE PUSH1 0x20 ADD PUSH0 KECCAK256 DUP2 SWAP1 SSTORE POP PUSH0 CALLER PUSH20 0xFFFFFFFFFFFFFFFFFFFFFFFFFFFFFFFFFFFFFFFF AND DUP3 PUSH1 0x40 MLOAD PUSH2 0x339 SWAP1 PUSH2 0xBD5 JUMP JUMPDEST PUSH0 PUSH1 0x40 MLOAD DUP1 DUP4 SUB DUP2 DUP6 DUP8 GAS CALL SWAP3 POP POP POP RETURNDATASIZE DUP1 PUSH0 DUP2 EQ PUSH2 0x373 JUMPI PUSH1 0x40 MLOAD SWAP2 POP PUSH1 0x1F NOT PUSH1 0x3F RETURNDATASIZE ADD AND DUP3 ADD PUSH1 0x40 MSTORE RETURNDATASIZE DUP3 MSTORE RETURNDATASIZE PUSH0 PUSH1 0x20 DUP5 ADD RETURNDATACOPY PUSH2 0x378 JUMP JUMPDEST PUSH1 0x60 SWAP2 POP JUMPDEST POP POP SWAP1 POP DUP1 SWAP3 POP POP POP SWAP1 JUMP JUMPDEST PUSH1 0x1 DUP1 SLOAD SWAP1 PUSH2 0x100 EXP SWAP1 DIV PUSH1 0xFF AND DUP2 JUMP JUMPDEST PUSH1 0x1 PUSH0 SWAP1 SLOAD SWAP1 PUSH2 0x100 EXP SWAP1 DIV PUSH1 0xFF AND PUSH2 0x3E3 JUMPI PUSH1 0x40 MLOAD PUSH32 0x8C379A000000000000000000000000000000000000000000000000000000000 DUP2 MSTORE PUSH1 0x4 ADD PUSH2 0x3DA SWAP1 PUSH2 0xC43 JUMP JUMPDEST PUSH1 0x40 MLOAD DUP1 SWAP2 SUB SWAP1 REVERT JUMPDEST PUSH0 SLOAD TIMESTAMP LT PUSH2 0x426 JUMPI PUSH1 0x40 MLOAD PUSH32 0x8C379A000000000000000000000000000000000000000000000000000000000 DUP2 MSTORE PUSH1 0x4 ADD PUSH2 0x41D SWAP1 PUSH2 0xCAB JUMP JUMPDEST PUSH1 0x40 MLOAD DUP1 SWAP2 SUB SWAP1 REVERT JUMPDEST PUSH1 0x2 SLOAD CALLVALUE GT PUSH2 0x46A JUMPI PUSH1 0x40 MLOAD PUSH32 0x8C379A000000000000000000000000000000000000000000000000000000000 DUP2 MSTORE PUSH1 0x4 ADD PUSH2 0x461 SWAP1 PUSH2 0xD13 JUMP JUMPDEST PUSH1 0x40 MLOAD DUP1 SWAP2 SUB SWAP1 REVERT JUMPDEST CALLER PUSH1 0x1 PUSH1 0x2 PUSH2 0x100 EXP DUP2 SLOAD DUP2 PUSH20 0xFFFFFFFFFFFFFFFFFFFFFFFFFFFFFFFFFFFFFFFF MUL NOT AND SWAP1 DUP4 PUSH20 0xFFFFFFFFFFFFFFFFFFFFFFFFFFFFFFFFFFFFFFFF AND MUL OR SWAP1 SSTORE POP CALLVALUE PUSH1 0x2 DUP2 SWAP1 SSTORE POP CALLVALUE PUSH1 0x3 PUSH0 CALLER PUSH20 0xFFFFFFFFFFFFFFFFFFFFFFFFFFFFFFFFFFFFFFFF AND PUSH20 0xFFFFFFFFFFFFFFFFFFFFFFFFFFFFFFFFFFFFFFFF AND DUP2 MSTORE PUSH1 0x20 ADD SWAP1 DUP2 MSTORE PUSH1 0x20 ADD PUSH0 KECCAK256 DUP2 SWAP1 SSTORE POP JUMP JUMPDEST PUSH1 0x1 PUSH0 SWAP1 SLOAD SWAP1 PUSH2 0x100 EXP SWAP1 DIV PUSH1 0xFF AND DUP2 JUMP JUMPDEST PUSH0 SLOAD DUP2 JUMP JUMPDEST PUSH1 0x1 PUSH1 0x2 SWAP1 SLOAD SWAP1 PUSH2 0x100 EXP SWAP1 DIV PUSH20 0xFFFFFFFFFFFFFFFFFFFFFFFFFFFFFFFFFFFFFFFF AND DUP2 JUMP JUMPDEST PUSH1 0x3 PUSH1 0x20 MSTORE DUP1 PUSH0 MSTORE PUSH1 0x40 PUSH0 KECCAK256 PUSH0 SWAP2 POP SWAP1 POP SLOAD DUP2 JUMP JUMPDEST PUSH32 0x0 PUSH20 0xFFFFFFFFFFFFFFFFFFFFFFFFFFFFFFFFFFFFFFFF AND CALLER PUSH20 0xFFFFFFFFFFFFFFFFFFFFFFFFFFFFFFFFFFFFFFFF AND EQ PUSH2 0x5D6 JUMPI PUSH1 0x40 MLOAD PUSH32 0x8C379A000000000000000000000000000000000000000000000000000000000 DUP2 MSTORE PUSH1 0x4 ADD PUSH2 0x5CD SWAP1 PUSH2 0xD7B JUMP JUMPDEST PUSH1 0x40 MLOAD DUP1 SWAP2 SUB SWAP1 REVERT JUMPDEST PUSH1 0x1 PUSH0 SWAP1 SLOAD SWAP1 PUSH2 0x100 EXP SWAP1 DIV PUSH1 0xFF AND ISZERO PUSH2 0x625 JUMPI PUSH1 0x40 MLOAD PUSH32 0x8C379A000000000000000000000000000000000000000000000000000000000 DUP2 MSTORE PUSH1 0x4 ADD PUSH2 0x61C SWAP1 PUSH2 0xDE3 JUMP JUMPDEST PUSH1 0x40 MLOAD DUP1 SWAP2 SUB SWAP1 REVERT JUMPDEST PUSH1 0x1 DUP1 PUSH0 PUSH2 0x100 EXP DUP2 SLOAD DUP2 PUSH1 0xFF MUL NOT AND SWAP1 DUP4 ISZERO ISZERO MUL OR SWAP1 SSTORE POP PUSH32 0x0 PUSH20 0xFFFFFFFFFFFFFFFFFFFFFFFFFFFFFFFFFFFFFFFF AND PUSH4 0x23B872DD PUSH32 0x0 ADDRESS PUSH32 0x0 PUSH1 0x40 MLOAD DUP5 PUSH4 0xFFFFFFFF AND PUSH1 0xE0 SHL DUP2 MSTORE PUSH1 0x4 ADD PUSH2 0x6DB SWAP4 SWAP3 SWAP2 SWAP1 PUSH2 0xE5C JUMP JUMPDEST PUSH0 PUSH1 0x40 MLOAD DUP1 DUP4 SUB DUP2 PUSH0 DUP8 DUP1 EXTCODESIZE ISZERO DUP1 ISZERO PUSH2 0x6F2 JUMPI PUSH0 PUSH0 REVERT JUMPDEST POP GAS CALL ISZERO DUP1 ISZERO PUSH2 0x704 JUMPI RETURNDATASIZE PUSH0 PUSH0 RETURNDATACOPY RETURNDATASIZE PUSH0 REVERT JUMPDEST POP POP POP POP JUMP JUMPDEST PUSH32 0x0 DUP2 JUMP JUMPDEST PUSH1 0x2 SLOAD DUP2 JUMP JUMPDEST PUSH1 0x1 DUP1 SLOAD SWAP1 PUSH2 0x100 EXP SWAP1 DIV PUSH1 0xFF AND ISZERO PUSH2 0x782 JUMPI PUSH1 0x40 MLOAD PUSH32 0x8C379A000000000000000000000000000000000000000000000000000000000 DUP2 MSTORE PUSH1 0x4 ADD PUSH2 0x779 SWAP1 PUSH2 0xEDB JUMP JUMPDEST PUSH1 0x40 MLOAD DUP1 SWAP2 SUB SWAP1 REVERT JUMPDEST PUSH0 PUSH20 0xFFFFFFFFFFFFFFFFFFFFFFFFFFFFFFFFFFFFFFFF AND PUSH1 0x1 PUSH1 0x2 SWAP1 SLOAD SWAP1 PUSH2 0x100 EXP SWAP1 DIV PUSH20 0xFFFFFFFFFFFFFFFFFFFFFFFFFFFFFFFFFFFFFFFF AND PUSH20 0xFFFFFFFFFFFFFFFFFFFFFFFFFFFFFFFFFFFFFFFF AND EQ PUSH2 0x973 JUMPI PUSH32 0x0 PUSH20 0xFFFFFFFFFFFFFFFFFFFFFFFFFFFFFFFFFFFFFFFF AND PUSH4 0x23B872DD ADDRESS PUSH1 0x1 PUSH1 0x2 SWAP1 SLOAD SWAP1 PUSH2 0x100 EXP SWAP1 DIV PUSH20 0xFFFFFFFFFFFFFFFFFFFFFFFFFFFFFFFFFFFFFFFF AND PUSH32 0x0 PUSH1 0x40 MLOAD DUP5 PUSH4 0xFFFFFFFF AND PUSH1 0xE0 SHL DUP2 MSTORE PUSH1 0x4 ADD PUSH2 0x876 SWAP4 SWAP3 SWAP2 SWAP1 PUSH2 0xEF9 JUMP JUMPDEST PUSH0 PUSH1 0x40 MLOAD DUP1 DUP4 SUB DUP2 PUSH0 DUP8 DUP1 EXTCODESIZE ISZERO DUP1 ISZERO PUSH2 0x88D JUMPI PUSH0 PUSH0 REVERT JUMPDEST POP GAS CALL ISZERO DUP1 ISZERO PUSH2 0x89F JUMPI RETURNDATASIZE PUSH0 PUSH0 RETURNDATACOPY RETURNDATASIZE PUSH0 REVERT JUMPDEST POP POP POP POP PUSH0 PUSH32 0x0 PUSH20 0xFFFFFFFFFFFFFFFFFFFFFFFFFFFFFFFFFFFFFFFF AND PUSH1 0x2 SLOAD PUSH1 0x40 MLOAD PUSH2 0x8EA SWAP1 PUSH2 0xBD5 JUMP JUMPDEST PUSH0 PUSH1 0x40 MLOAD DUP1 DUP4 SUB DUP2 DUP6 DUP8 GAS CALL SWAP3 POP POP POP RETURNDATASIZE DUP1 PUSH0 DUP2 EQ PUSH2 0x924 JUMPI PUSH1 0x40 MLOAD SWAP2 POP PUSH1 0x1F NOT PUSH1 0x3F RETURNDATASIZE ADD AND DUP3 ADD PUSH1 0x40 MSTORE RETURNDATASIZE DUP3 MSTORE RETURNDATASIZE PUSH0 PUSH1 0x20 DUP5 ADD RETURNDATACOPY PUSH2 0x929 JUMP JUMPDEST PUSH1 0x60 SWAP2 POP JUMPDEST POP POP SWAP1 POP DUP1 PUSH2 0x96D JUMPI PUSH1 0x40 MLOAD PUSH32 0x8C379A000000000000000000000000000000000000000000000000000000000 DUP2 MSTORE PUSH1 0x4 ADD PUSH2 0x964 SWAP1 PUSH2 0xF78 JUMP JUMPDEST PUSH1 0x40 MLOAD DUP1 SWAP2 SUB SWAP1 REVERT JUMPDEST POP PUSH2 0xA3E JUMP JUMPDEST PUSH32 0x0 PUSH20 0xFFFFFFFFFFFFFFFFFFFFFFFFFFFFFFFFFFFFFFFF AND PUSH4 0x23B872DD ADDRESS PUSH32 0x0 PUSH32 0x0 PUSH1 0x40 MLOAD DUP5 PUSH4 0xFFFFFFFF AND PUSH1 0xE0 SHL DUP2 MSTORE PUSH1 0x4 ADD PUSH2 0xA10 SWAP4 SWAP3 SWAP2 SWAP1 PUSH2 0xF96 JUMP JUMPDEST PUSH0 PUSH1 0x40 MLOAD DUP1 DUP4 SUB DUP2 PUSH0 DUP8 DUP1 EXTCODESIZE ISZERO DUP1 ISZERO PUSH2 0xA27 JUMPI PUSH0 PUSH0 REVERT JUMPDEST POP GAS CALL ISZERO DUP1 ISZERO PUSH2 0xA39 JUMPI RETURNDATASIZE PUSH0 PUSH0 RETURNDATACOPY RETURNDATASIZE PUSH0 REVERT JUMPDEST POP POP POP POP JUMPDEST PUSH1 0x1 DUP1 PUSH1 0x1 PUSH2 0x100 EXP DUP2 SLOAD DUP2 PUSH1 0xFF MUL NOT AND SWAP1 DUP4 ISZERO ISZERO MUL OR SWAP1 SSTORE POP JUMP JUMPDEST PUSH0 PUSH20 0xFFFFFFFFFFFFFFFFFFFFFFFFFFFFFFFFFFFFFFFF DUP3 AND SWAP1 POP SWAP2 SWAP1 POP JUMP JUMPDEST PUSH0 PUSH2 0xA83 DUP3 PUSH2 0xA5A JUMP JUMPDEST SWAP1 POP SWAP2 SWAP1 POP JUMP JUMPDEST PUSH2 0xA93 DUP2 PUSH2 0xA79 JUMP JUMPDEST DUP3 MSTORE POP POP JUMP JUMPDEST PUSH0 PUSH1 0x20 DUP3 ADD SWAP1 POP PUSH2 0xAAC PUSH0 DUP4 ADD DUP5 PUSH2 0xA8A JUMP JUMPDEST SWAP3 SWAP2 POP POP JUMP JUMPDEST PUSH0 DUP2 ISZERO ISZERO SWAP1 POP SWAP2 SWAP1 POP JUMP JUMPDEST PUSH2 0xAC6 DUP2 PUSH2 0xAB2 JUMP JUMPDEST DUP3 MSTORE POP POP JUMP JUMPDEST PUSH0 PUSH1 0x20 DUP3 ADD SWAP1 POP PUSH2 0xADF PUSH0 DUP4 ADD DUP5 PUSH2 0xABD JUMP JUMPDEST SWAP3 SWAP2 POP POP JUMP JUMPDEST PUSH0 DUP2 SWAP1 POP SWAP2 SWAP1 POP JUMP JUMPDEST PUSH2 0xAF7 DUP2 PUSH2 0xAE5 JUMP JUMPDEST DUP3 MSTORE POP POP JUMP JUMPDEST PUSH0 PUSH1 0x20 DUP3 ADD SWAP1 POP PUSH2 0xB10 PUSH0 DUP4 ADD DUP5 PUSH2 0xAEE JUMP JUMPDEST SWAP3 SWAP2 POP POP JUMP JUMPDEST PUSH0 PUSH2 0xB20 DUP3 PUSH2 0xA5A JUMP JUMPDEST SWAP1 POP SWAP2 SWAP1 POP JUMP JUMPDEST PUSH2 0xB30 DUP2 PUSH2 0xB16 JUMP JUMPDEST DUP3 MSTORE POP POP JUMP JUMPDEST PUSH0 PUSH1 0x20 DUP3 ADD SWAP1 POP PUSH2 0xB49 PUSH0 DUP4 ADD DUP5 PUSH2 0xB27 JUMP JUMPDEST SWAP3 SWAP2 POP POP JUMP JUMPDEST PUSH0 PUSH0 REVERT JUMPDEST PUSH2 0xB5C DUP2 PUSH2 0xB16 JUMP JUMPDEST DUP2 EQ PUSH2 0xB66 JUMPI PUSH0 PUSH0 REVERT JUMPDEST POP JUMP JUMPDEST PUSH0 DUP2 CALLDATALOAD SWAP1 POP PUSH2 0xB77 DUP2 PUSH2 0xB53 JUMP JUMPDEST SWAP3 SWAP2 POP POP JUMP JUMPDEST PUSH0 PUSH1 0x20 DUP3 DUP5 SUB SLT ISZERO PUSH2 0xB92 JUMPI PUSH2 0xB91 PUSH2 0xB4F JUMP JUMPDEST JUMPDEST PUSH0 PUSH2 0xB9F DUP5 DUP3 DUP6 ADD PUSH2 0xB69 JUMP JUMPDEST SWAP2 POP POP SWAP3 SWAP2 POP POP JUMP JUMPDEST PUSH0 DUP2 SWAP1 POP SWAP3 SWAP2 POP POP JUMP JUMPDEST POP JUMP JUMPDEST PUSH0 PUSH2 0xBC0 PUSH0 DUP4 PUSH2 0xBA8 JUMP JUMPDEST SWAP2 POP PUSH2 0xBCB DUP3 PUSH2 0xBB2 JUMP JUMPDEST PUSH0 DUP3 ADD SWAP1 POP SWAP2 SWAP1 POP JUMP JUMPDEST PUSH0 PUSH2 0xBDF DUP3 PUSH2 0xBB5 JUMP JUMPDEST SWAP2 POP DUP2 SWAP1 POP SWAP2 SWAP1 POP JUMP JUMPDEST PUSH0 DUP3 DUP3 MSTORE PUSH1 0x20 DUP3 ADD SWAP1 POP SWAP3 SWAP2 POP POP JUMP JUMPDEST PUSH32 0x6E6F742073746172740000000000000000000000000000000000000000000000 PUSH0 DUP3 ADD MSTORE POP JUMP JUMPDEST PUSH0 PUSH2 0xC2D PUSH1 0x9 DUP4 PUSH2 0xBE9 JUMP JUMPDEST SWAP2 POP PUSH2 0xC38 DUP3 PUSH2 0xBF9 JUMP JUMPDEST PUSH1 0x20 DUP3 ADD SWAP1 POP SWAP2 SWAP1 POP JUMP JUMPDEST PUSH0 PUSH1 0x20 DUP3 ADD SWAP1 POP DUP2 DUP2 SUB PUSH0 DUP4 ADD MSTORE PUSH2 0xC5A DUP2 PUSH2 0xC21 JUMP JUMPDEST SWAP1 POP SWAP2 SWAP1 POP JUMP JUMPDEST PUSH32 0x616C726561647920656E64000000000000000000000000000000000000000000 PUSH0 DUP3 ADD MSTORE POP JUMP JUMPDEST PUSH0 PUSH2 0xC95 PUSH1 0xB DUP4 PUSH2 0xBE9 JUMP JUMPDEST SWAP2 POP PUSH2 0xCA0 DUP3 PUSH2 0xC61 JUMP JUMPDEST PUSH1 0x20 DUP3 ADD SWAP1 POP SWAP2 SWAP1 POP JUMP JUMPDEST PUSH0 PUSH1 0x20 DUP3 ADD SWAP1 POP DUP2 DUP2 SUB PUSH0 DUP4 ADD MSTORE PUSH2 0xCC2 DUP2 PUSH2 0xC89 JUMP JUMPDEST SWAP1 POP SWAP2 SWAP1 POP JUMP JUMPDEST PUSH32 0x76616C7565203C20686967686573744269640000000000000000000000000000 PUSH0 DUP3 ADD MSTORE POP JUMP JUMPDEST PUSH0 PUSH2 0xCFD PUSH1 0x12 DUP4 PUSH2 0xBE9 JUMP JUMPDEST SWAP2 POP PUSH2 0xD08 DUP3 PUSH2 0xCC9 JUMP JUMPDEST PUSH1 0x20 DUP3 ADD SWAP1 POP SWAP2 SWAP1 POP JUMP JUMPDEST PUSH0 PUSH1 0x20 DUP3 ADD SWAP1 POP DUP2 DUP2 SUB PUSH0 DUP4 ADD MSTORE PUSH2 0xD2A DUP2 PUSH2 0xCF1 JUMP JUMPDEST SWAP1 POP SWAP2 SWAP1 POP JUMP JUMPDEST PUSH32 0x6E6F742073656C6C657200000000000000000000000000000000000000000000 PUSH0 DUP3 ADD MSTORE POP JUMP JUMPDEST PUSH0 PUSH2 0xD65 PUSH1 0xA DUP4 PUSH2 0xBE9 JUMP JUMPDEST SWAP2 POP PUSH2 0xD70 DUP3 PUSH2 0xD31 JUMP JUMPDEST PUSH1 0x20 DUP3 ADD SWAP1 POP SWAP2 SWAP1 POP JUMP JUMPDEST PUSH0 PUSH1 0x20 DUP3 ADD SWAP1 POP DUP2 DUP2 SUB PUSH0 DUP4 ADD MSTORE PUSH2 0xD92 DUP2 PUSH2 0xD59 JUMP JUMPDEST SWAP1 POP SWAP2 SWAP1 POP JUMP JUMPDEST PUSH32 0x616C726561647920737461727400000000000000000000000000000000000000 PUSH0 DUP3 ADD MSTORE POP JUMP JUMPDEST PUSH0 PUSH2 0xDCD PUSH1 0xD DUP4 PUSH2 0xBE9 JUMP JUMPDEST SWAP2 POP PUSH2 0xDD8 DUP3 PUSH2 0xD99 JUMP JUMPDEST PUSH1 0x20 DUP3 ADD SWAP1 POP SWAP2 SWAP1 POP JUMP JUMPDEST PUSH0 PUSH1 0x20 DUP3 ADD SWAP1 POP DUP2 DUP2 SUB PUSH0 DUP4 ADD MSTORE PUSH2 0xDFA DUP2 PUSH2 0xDC1 JUMP JUMPDEST SWAP1 POP SWAP2 SWAP1 POP JUMP JUMPDEST PUSH0 DUP2 SWAP1 POP SWAP2 SWAP1 POP JUMP JUMPDEST PUSH0 PUSH2 0xE24 PUSH2 0xE1F PUSH2 0xE1A DUP5 PUSH2 0xA5A JUMP JUMPDEST PUSH2 0xE01 JUMP JUMPDEST PUSH2 0xA5A JUMP JUMPDEST SWAP1 POP SWAP2 SWAP1 POP JUMP JUMPDEST PUSH0 PUSH2 0xE35 DUP3 PUSH2 0xE0A JUMP JUMPDEST SWAP1 POP SWAP2 SWAP1 POP JUMP JUMPDEST PUSH0 PUSH2 0xE46 DUP3 PUSH2 0xE2B JUMP JUMPDEST SWAP1 POP SWAP2 SWAP1 POP JUMP JUMPDEST PUSH2 0xE56 DUP2 PUSH2 0xE3C JUMP JUMPDEST DUP3 MSTORE POP POP JUMP JUMPDEST PUSH0 PUSH1 0x60 DUP3 ADD SWAP1 POP PUSH2 0xE6F PUSH0 DUP4 ADD DUP7 PUSH2 0xE4D JUMP JUMPDEST PUSH2 0xE7C PUSH1 0x20 DUP4 ADD DUP6 PUSH2 0xB27 JUMP JUMPDEST PUSH2 0xE89 PUSH1 0x40 DUP4 ADD DUP5 PUSH2 0xAEE JUMP JUMPDEST SWAP5 SWAP4 POP POP POP POP JUMP JUMPDEST PUSH32 0x616C7265617920656E6465640000000000000000000000000000000000000000 PUSH0 DUP3 ADD MSTORE POP JUMP JUMPDEST PUSH0 PUSH2 0xEC5 PUSH1 0xC DUP4 PUSH2 0xBE9 JUMP JUMPDEST SWAP2 POP PUSH2 0xED0 DUP3 PUSH2 0xE91 JUMP JUMPDEST PUSH1 0x20 DUP3 ADD SWAP1 POP SWAP2 SWAP1 POP JUMP JUMPDEST PUSH0 PUSH1 0x20 DUP3 ADD SWAP1 POP DUP2 DUP2 SUB PUSH0 DUP4 ADD MSTORE PUSH2 0xEF2 DUP2 PUSH2 0xEB9 JUMP JUMPDEST SWAP1 POP SWAP2 SWAP1 POP JUMP JUMPDEST PUSH0 PUSH1 0x60 DUP3 ADD SWAP1 POP PUSH2 0xF0C PUSH0 DUP4 ADD DUP7 PUSH2 0xB27 JUMP JUMPDEST PUSH2 0xF19 PUSH1 0x20 DUP4 ADD DUP6 PUSH2 0xB27 JUMP JUMPDEST PUSH2 0xF26 PUSH1 0x40 DUP4 ADD DUP5 PUSH2 0xAEE JUMP JUMPDEST SWAP5 SWAP4 POP POP POP POP JUMP JUMPDEST PUSH32 0x656E64206661696C656400000000000000000000000000000000000000000000 PUSH0 DUP3 ADD MSTORE POP JUMP JUMPDEST PUSH0 PUSH2 0xF62 PUSH1 0xA DUP4 PUSH2 0xBE9 JUMP JUMPDEST SWAP2 POP PUSH2 0xF6D DUP3 PUSH2 0xF2E JUMP JUMPDEST PUSH1 0x20 DUP3 ADD SWAP1 POP SWAP2 SWAP1 POP JUMP JUMPDEST PUSH0 PUSH1 0x20 DUP3 ADD SWAP1 POP DUP2 DUP2 SUB PUSH0 DUP4 ADD MSTORE PUSH2 0xF8F DUP2 PUSH2 0xF56 JUMP JUMPDEST SWAP1 POP SWAP2 SWAP1 POP JUMP JUMPDEST PUSH0 PUSH1 0x60 DUP3 ADD SWAP1 POP PUSH2 0xFA9 PUSH0 DUP4 ADD DUP7 PUSH2 0xB27 JUMP JUMPDEST PUSH2 0xFB6 PUSH1 0x20 DUP4 ADD DUP6 PUSH2 0xE4D JUMP JUMPDEST PUSH2 0xFC3 PUSH1 0x40 DUP4 ADD DUP5 PUSH2 0xAEE JUMP JUMPDEST SWAP5 SWAP4 POP POP POP POP JUMP INVALID LOG2 PUSH5 0x6970667358 0x22 SLT KECCAK256 0xEB PUSH5 0xED8FB346AD PUSH2 0x5642 AND SLT CALLF 0x9A8 SWAP7 0x2D PUSH5 0xED1F9E5480 0xD4 0xDC SELFDESTRUCT 0xEF 0xB0 0xA6 0x27 LT 0xC PUSH5 0x736F6C6343 STOP ADDMOD 0x22 STOP CALLER "
				},
				"gasEstimates": {
					"creation": {
						"codeDepositCost": "819400",
						"executionCost": "infinite",
						"totalCost": "infinite"
					},
					"external": {
						"bid()": "75210",
						"bids(address)": "2824",
						"end()": "infinite",
						"endTime()": "2535",
						"ended()": "2559",
						"higehestBidder()": "2559",
						"highestBid()": "2513",
						"nftId()": "infinite",
						"seller()": "infinite",
						"start()": "infinite",
						"started()": "2555",
						"withDraw()": "infinite"
					}
				},
				"methodIdentifiers": {
					"bid()": "1998aeef",
					"bids(address)": "62ea82db",
					"end()": "efbe1c1c",
					"endTime()": "3197cbb6",
					"ended()": "12fa6feb",
					"higehestBidder()": "3ffcb8b9",
					"highestBid()": "d57bde79",
					"nftId()": "c6bc5182",
					"seller()": "08551a53",
					"start()": "be9a6555",
					"started()": "1f2698ab",
					"withDraw()": "0fdb1c10"
				}
			},
			"storageLayout": {
				"storage": [
					{
						"astId": 20,
						"contract": "solidity金融和支付/英式拍卖EnglishAuction.sol:EnglishAuction",
						"label": "endTime",
						"offset": 0,
						"slot": "0",
						"type": "t_uint256"
					},
					{
						"astId": 22,
						"contract": "solidity金融和支付/英式拍卖EnglishAuction.sol:EnglishAuction",
						"label": "started",
						"offset": 0,
						"slot": "1",
						"type": "t_bool"
					},
					{
						"astId": 24,
						"contract": "solidity金融和支付/英式拍卖EnglishAuction.sol:EnglishAuction",
						"label": "ended",
						"offset": 1,
						"slot": "1",
						"type": "t_bool"
					},
					{
						"astId": 26,
						"contract": "solidity金融和支付/英式拍卖EnglishAuction.sol:EnglishAuction",
						"label": "higehestBidder",
						"offset": 2,
						"slot": "1",
						"type": "t_address"
					},
					{
						"astId": 28,
						"contract": "solidity金融和支付/英式拍卖EnglishAuction.sol:EnglishAuction",
						"label": "highestBid",
						"offset": 0,
						"slot": "2",
						"type": "t_uint256"
					},
					{
						"astId": 32,
						"contract": "solidity金融和支付/英式拍卖EnglishAuction.sol:EnglishAuction",
						"label": "bids",
						"offset": 0,
						"slot": "3",
						"type": "t_mapping(t_address,t_uint256)"
					}
				],
				"types": {
					"t_address": {
						"encoding": "inplace",
						"label": "address",
						"numberOfBytes": "20"
					},
					"t_bool": {
						"encoding": "inplace",
						"label": "bool",
						"numberOfBytes": "1"
					},
					"t_mapping(t_address,t_uint256)": {
						"encoding": "mapping",
						"key": "t_address",
						"label": "mapping(address => uint256)",
						"numberOfBytes": "32",
						"value": "t_uint256"
					},
					"t_uint256": {
						"encoding": "inplace",
						"label": "uint256",
						"numberOfBytes": "32"
					}
				}
			},
			"userdoc": {
				"kind": "user",
				"methods": {},
				"version": 1
			}
		}
	}
}