{
	"solidity高级应用/位运算.sol": {
		"Bitwise": {
			"abi": [
				{
					"inputs": [
						{
							"internalType": "uint256",
							"name": "x",
							"type": "uint256"
						},
						{
							"internalType": "uint256",
							"name": "y",
							"type": "uint256"
						}
					],
					"name": "and",
					"outputs": [
						{
							"internalType": "uint256",
							"name": "",
							"type": "uint256"
						}
					],
					"stateMutability": "pure",
					"type": "function"
				},
				{
					"inputs": [
						{
							"internalType": "uint256",
							"name": "x",
							"type": "uint256"
						},
						{
							"internalType": "uint256",
							"name": "n",
							"type": "uint256"
						}
					],
					"name": "getLastNBits",
					"outputs": [
						{
							"internalType": "uint256",
							"name": "",
							"type": "uint256"
						}
					],
					"stateMutability": "pure",
					"type": "function"
				},
				{
					"inputs": [
						{
							"internalType": "uint8",
							"name": "x",
							"type": "uint8"
						}
					],
					"name": "not",
					"outputs": [
						{
							"internalType": "uint256",
							"name": "",
							"type": "uint256"
						}
					],
					"stateMutability": "pure",
					"type": "function"
				},
				{
					"inputs": [
						{
							"internalType": "uint256",
							"name": "x",
							"type": "uint256"
						},
						{
							"internalType": "uint256",
							"name": "y",
							"type": "uint256"
						}
					],
					"name": "or",
					"outputs": [
						{
							"internalType": "uint256",
							"name": "",
							"type": "uint256"
						}
					],
					"stateMutability": "pure",
					"type": "function"
				},
				{
					"inputs": [
						{
							"internalType": "uint256",
							"name": "x",
							"type": "uint256"
						},
						{
							"internalType": "uint256",
							"name": "n",
							"type": "uint256"
						}
					],
					"name": "shiftLeft",
					"outputs": [
						{
							"internalType": "uint256",
							"name": "",
							"type": "uint256"
						}
					],
					"stateMutability": "pure",
					"type": "function"
				},
				{
					"inputs": [
						{
							"internalType": "uint256",
							"name": "x",
							"type": "uint256"
						},
						{
							"internalType": "uint256",
							"name": "n",
							"type": "uint256"
						}
					],
					"name": "shiftRight",
					"outputs": [
						{
							"internalType": "uint256",
							"name": "",
							"type": "uint256"
						}
					],
					"stateMutability": "pure",
					"type": "function"
				},
				{
					"inputs": [
						{
							"internalType": "uint256",
							"name": "x",
							"type": "uint256"
						},
						{
							"internalType": "uint256",
							"name": "y",
							"type": "uint256"
						}
					],
					"name": "xor",
					"outputs": [
						{
							"internalType": "uint256",
							"name": "",
							"type": "uint256"
						}
					],
					"stateMutability": "pure",
					"type": "function"
				}
			],
			"devdoc": {
				"kind": "dev",
				"methods": {},
				"version": 1
			},
			"evm": {
				"assembly": "    /* \"solidity\\xe9\\xab\\x98\\xe7\\xba\\xa7\\xe5\\xba\\x94\\xe7\\x94\\xa8/\\xe4\\xbd\\x8d\\xe8\\xbf\\x90\\xe7\\xae\\x97.sol\":63:1710  contract Bitwise {... */\n  mstore(0x40, 0x80)\n  callvalue\n  dup1\n  iszero\n  tag_1\n  jumpi\n  revert(0x00, 0x00)\ntag_1:\n  pop\n  dataSize(sub_0)\n  dup1\n  dataOffset(sub_0)\n  0x00\n  codecopy\n  0x00\n  return\nstop\n\nsub_0: assembly {\n        /* \"solidity\\xe9\\xab\\x98\\xe7\\xba\\xa7\\xe5\\xba\\x94\\xe7\\x94\\xa8/\\xe4\\xbd\\x8d\\xe8\\xbf\\x90\\xe7\\xae\\x97.sol\":63:1710  contract Bitwise {... */\n      mstore(0x40, 0x80)\n      callvalue\n      dup1\n      iszero\n      tag_1\n      jumpi\n      revert(0x00, 0x00)\n    tag_1:\n      pop\n      jumpi(tag_2, lt(calldatasize, 0x04))\n      shr(0xe0, calldataload(0x00))\n      dup1\n      0x21a95296\n      gt\n      tag_10\n      jumpi\n      dup1\n      0x21a95296\n      eq\n      tag_6\n      jumpi\n      dup1\n      0x903b9842\n      eq\n      tag_7\n      jumpi\n      dup1\n      0x9ed41ba1\n      eq\n      tag_8\n      jumpi\n      dup1\n      0xa589d212\n      eq\n      tag_9\n      jumpi\n      jump(tag_2)\n    tag_10:\n      dup1\n      0x097c2cb2\n      eq\n      tag_3\n      jumpi\n      dup1\n      0x1180f8c3\n      eq\n      tag_4\n      jumpi\n      dup1\n      0x1685fa98\n      eq\n      tag_5\n      jumpi\n    tag_2:\n      revert(0x00, 0x00)\n        /* \"solidity\\xe9\\xab\\x98\\xe7\\xba\\xa7\\xe5\\xba\\x94\\xe7\\x94\\xa8/\\xe4\\xbd\\x8d\\xe8\\xbf\\x90\\xe7\\xae\\x97.sol\":415:499  function or(uint x,uint y) public pure returns(uint) {... */\n    tag_3:\n      tag_11\n      0x04\n      dup1\n      calldatasize\n      sub\n      dup2\n      add\n      swap1\n      tag_12\n      swap2\n      swap1\n      tag_13\n      jump\t// in\n    tag_12:\n      tag_14\n      jump\t// in\n    tag_11:\n      mload(0x40)\n      tag_15\n      swap2\n      swap1\n      tag_16\n      jump\t// in\n    tag_15:\n      mload(0x40)\n      dup1\n      swap2\n      sub\n      swap1\n      return\n        /* \"solidity\\xe9\\xab\\x98\\xe7\\xba\\xa7\\xe5\\xba\\x94\\xe7\\x94\\xa8/\\xe4\\xbd\\x8d\\xe8\\xbf\\x90\\xe7\\xae\\x97.sol\":823:899  function not(uint8 x) public pure returns(uint) {... */\n    tag_4:\n      tag_17\n      0x04\n      dup1\n      calldatasize\n      sub\n      dup2\n      add\n      swap1\n      tag_18\n      swap2\n      swap1\n      tag_19\n      jump\t// in\n    tag_18:\n      tag_20\n      jump\t// in\n    tag_17:\n      mload(0x40)\n      tag_21\n      swap2\n      swap1\n      tag_16\n      jump\t// in\n    tag_21:\n      mload(0x40)\n      dup1\n      swap2\n      sub\n      swap1\n      return\n        /* \"solidity\\xe9\\xab\\x98\\xe7\\xba\\xa7\\xe5\\xba\\x94\\xe7\\x94\\xa8/\\xe4\\xbd\\x8d\\xe8\\xbf\\x90\\xe7\\xae\\x97.sol\":1166:1259  function shiftRight(uint x,uint n) public pure returns(uint) {... */\n    tag_5:\n      tag_22\n      0x04\n      dup1\n      calldatasize\n      sub\n      dup2\n      add\n      swap1\n      tag_23\n      swap2\n      swap1\n      tag_13\n      jump\t// in\n    tag_23:\n      tag_24\n      jump\t// in\n    tag_22:\n      mload(0x40)\n      tag_25\n      swap2\n      swap1\n      tag_16\n      jump\t// in\n    tag_25:\n      mload(0x40)\n      dup1\n      swap2\n      sub\n      swap1\n      return\n        /* \"solidity\\xe9\\xab\\x98\\xe7\\xba\\xa7\\xe5\\xba\\x94\\xe7\\x94\\xa8/\\xe4\\xbd\\x8d\\xe8\\xbf\\x90\\xe7\\xae\\x97.sol\":1574:1707  function getLastNBits(uint x, uint n) public pure returns(uint) {... */\n    tag_6:\n      tag_26\n      0x04\n      dup1\n      calldatasize\n      sub\n      dup2\n      add\n      swap1\n      tag_27\n      swap2\n      swap1\n      tag_13\n      jump\t// in\n    tag_27:\n      tag_28\n      jump\t// in\n    tag_26:\n      mload(0x40)\n      tag_29\n      swap2\n      swap1\n      tag_16\n      jump\t// in\n    tag_29:\n      mload(0x40)\n      dup1\n      swap2\n      sub\n      swap1\n      return\n        /* \"solidity\\xe9\\xab\\x98\\xe7\\xba\\xa7\\xe5\\xba\\x94\\xe7\\x94\\xa8/\\xe4\\xbd\\x8d\\xe8\\xbf\\x90\\xe7\\xae\\x97.sol\":205:290  function and(uint x,uint y) public pure returns(uint) {... */\n    tag_7:\n      tag_30\n      0x04\n      dup1\n      calldatasize\n      sub\n      dup2\n      add\n      swap1\n      tag_31\n      swap2\n      swap1\n      tag_13\n      jump\t// in\n    tag_31:\n      tag_32\n      jump\t// in\n    tag_30:\n      mload(0x40)\n      tag_33\n      swap2\n      swap1\n      tag_16\n      jump\t// in\n    tag_33:\n      mload(0x40)\n      dup1\n      swap2\n      sub\n      swap1\n      return\n        /* \"solidity\\xe9\\xab\\x98\\xe7\\xba\\xa7\\xe5\\xba\\x94\\xe7\\x94\\xa8/\\xe4\\xbd\\x8d\\xe8\\xbf\\x90\\xe7\\xae\\x97.sol\":623:708  function xor(uint x,uint y) public pure returns(uint) {... */\n    tag_8:\n      tag_34\n      0x04\n      dup1\n      calldatasize\n      sub\n      dup2\n      add\n      swap1\n      tag_35\n      swap2\n      swap1\n      tag_13\n      jump\t// in\n    tag_35:\n      tag_36\n      jump\t// in\n    tag_34:\n      mload(0x40)\n      tag_37\n      swap2\n      swap1\n      tag_16\n      jump\t// in\n    tag_37:\n      mload(0x40)\n      dup1\n      swap2\n      sub\n      swap1\n      return\n        /* \"solidity\\xe9\\xab\\x98\\xe7\\xba\\xa7\\xe5\\xba\\x94\\xe7\\x94\\xa8/\\xe4\\xbd\\x8d\\xe8\\xbf\\x90\\xe7\\xae\\x97.sol\":986:1078  function shiftLeft(uint x,uint n) public pure returns(uint) {... */\n    tag_9:\n      tag_38\n      0x04\n      dup1\n      calldatasize\n      sub\n      dup2\n      add\n      swap1\n      tag_39\n      swap2\n      swap1\n      tag_13\n      jump\t// in\n    tag_39:\n      tag_40\n      jump\t// in\n    tag_38:\n      mload(0x40)\n      tag_41\n      swap2\n      swap1\n      tag_16\n      jump\t// in\n    tag_41:\n      mload(0x40)\n      dup1\n      swap2\n      sub\n      swap1\n      return\n        /* \"solidity\\xe9\\xab\\x98\\xe7\\xba\\xa7\\xe5\\xba\\x94\\xe7\\x94\\xa8/\\xe4\\xbd\\x8d\\xe8\\xbf\\x90\\xe7\\xae\\x97.sol\":415:499  function or(uint x,uint y) public pure returns(uint) {... */\n    tag_14:\n        /* \"solidity\\xe9\\xab\\x98\\xe7\\xba\\xa7\\xe5\\xba\\x94\\xe7\\x94\\xa8/\\xe4\\xbd\\x8d\\xe8\\xbf\\x90\\xe7\\xae\\x97.sol\":462:466  uint */\n      0x00\n        /* \"solidity\\xe9\\xab\\x98\\xe7\\xba\\xa7\\xe5\\xba\\x94\\xe7\\x94\\xa8/\\xe4\\xbd\\x8d\\xe8\\xbf\\x90\\xe7\\xae\\x97.sol\":490:491  y */\n      dup2\n        /* \"solidity\\xe9\\xab\\x98\\xe7\\xba\\xa7\\xe5\\xba\\x94\\xe7\\x94\\xa8/\\xe4\\xbd\\x8d\\xe8\\xbf\\x90\\xe7\\xae\\x97.sol\":486:487  x */\n      dup4\n        /* \"solidity\\xe9\\xab\\x98\\xe7\\xba\\xa7\\xe5\\xba\\x94\\xe7\\x94\\xa8/\\xe4\\xbd\\x8d\\xe8\\xbf\\x90\\xe7\\xae\\x97.sol\":486:491  x | y */\n      or\n        /* \"solidity\\xe9\\xab\\x98\\xe7\\xba\\xa7\\xe5\\xba\\x94\\xe7\\x94\\xa8/\\xe4\\xbd\\x8d\\xe8\\xbf\\x90\\xe7\\xae\\x97.sol\":479:491  return x | y */\n      swap1\n      pop\n        /* \"solidity\\xe9\\xab\\x98\\xe7\\xba\\xa7\\xe5\\xba\\x94\\xe7\\x94\\xa8/\\xe4\\xbd\\x8d\\xe8\\xbf\\x90\\xe7\\xae\\x97.sol\":415:499  function or(uint x,uint y) public pure returns(uint) {... */\n      swap3\n      swap2\n      pop\n      pop\n      jump\t// out\n        /* \"solidity\\xe9\\xab\\x98\\xe7\\xba\\xa7\\xe5\\xba\\x94\\xe7\\x94\\xa8/\\xe4\\xbd\\x8d\\xe8\\xbf\\x90\\xe7\\xae\\x97.sol\":823:899  function not(uint8 x) public pure returns(uint) {... */\n    tag_20:\n        /* \"solidity\\xe9\\xab\\x98\\xe7\\xba\\xa7\\xe5\\xba\\x94\\xe7\\x94\\xa8/\\xe4\\xbd\\x8d\\xe8\\xbf\\x90\\xe7\\xae\\x97.sol\":865:869  uint */\n      0x00\n        /* \"solidity\\xe9\\xab\\x98\\xe7\\xba\\xa7\\xe5\\xba\\x94\\xe7\\x94\\xa8/\\xe4\\xbd\\x8d\\xe8\\xbf\\x90\\xe7\\xae\\x97.sol\":890:891  x */\n      dup2\n        /* \"solidity\\xe9\\xab\\x98\\xe7\\xba\\xa7\\xe5\\xba\\x94\\xe7\\x94\\xa8/\\xe4\\xbd\\x8d\\xe8\\xbf\\x90\\xe7\\xae\\x97.sol\":889:891  ~x */\n      not\n        /* \"solidity\\xe9\\xab\\x98\\xe7\\xba\\xa7\\xe5\\xba\\x94\\xe7\\x94\\xa8/\\xe4\\xbd\\x8d\\xe8\\xbf\\x90\\xe7\\xae\\x97.sol\":882:891  return ~x */\n      0xff\n      and\n      swap1\n      pop\n        /* \"solidity\\xe9\\xab\\x98\\xe7\\xba\\xa7\\xe5\\xba\\x94\\xe7\\x94\\xa8/\\xe4\\xbd\\x8d\\xe8\\xbf\\x90\\xe7\\xae\\x97.sol\":823:899  function not(uint8 x) public pure returns(uint) {... */\n      swap2\n      swap1\n      pop\n      jump\t// out\n        /* \"solidity\\xe9\\xab\\x98\\xe7\\xba\\xa7\\xe5\\xba\\x94\\xe7\\x94\\xa8/\\xe4\\xbd\\x8d\\xe8\\xbf\\x90\\xe7\\xae\\x97.sol\":1166:1259  function shiftRight(uint x,uint n) public pure returns(uint) {... */\n    tag_24:\n        /* \"solidity\\xe9\\xab\\x98\\xe7\\xba\\xa7\\xe5\\xba\\x94\\xe7\\x94\\xa8/\\xe4\\xbd\\x8d\\xe8\\xbf\\x90\\xe7\\xae\\x97.sol\":1221:1225  uint */\n      0x00\n        /* \"solidity\\xe9\\xab\\x98\\xe7\\xba\\xa7\\xe5\\xba\\x94\\xe7\\x94\\xa8/\\xe4\\xbd\\x8d\\xe8\\xbf\\x90\\xe7\\xae\\x97.sol\":1250:1251  n */\n      dup2\n        /* \"solidity\\xe9\\xab\\x98\\xe7\\xba\\xa7\\xe5\\xba\\x94\\xe7\\x94\\xa8/\\xe4\\xbd\\x8d\\xe8\\xbf\\x90\\xe7\\xae\\x97.sol\":1245:1246  x */\n      dup4\n        /* \"solidity\\xe9\\xab\\x98\\xe7\\xba\\xa7\\xe5\\xba\\x94\\xe7\\x94\\xa8/\\xe4\\xbd\\x8d\\xe8\\xbf\\x90\\xe7\\xae\\x97.sol\":1245:1251  x >> n */\n      swap1\n      shr\n        /* \"solidity\\xe9\\xab\\x98\\xe7\\xba\\xa7\\xe5\\xba\\x94\\xe7\\x94\\xa8/\\xe4\\xbd\\x8d\\xe8\\xbf\\x90\\xe7\\xae\\x97.sol\":1238:1251  return x >> n */\n      swap1\n      pop\n        /* \"solidity\\xe9\\xab\\x98\\xe7\\xba\\xa7\\xe5\\xba\\x94\\xe7\\x94\\xa8/\\xe4\\xbd\\x8d\\xe8\\xbf\\x90\\xe7\\xae\\x97.sol\":1166:1259  function shiftRight(uint x,uint n) public pure returns(uint) {... */\n      swap3\n      swap2\n      pop\n      pop\n      jump\t// out\n        /* \"solidity\\xe9\\xab\\x98\\xe7\\xba\\xa7\\xe5\\xba\\x94\\xe7\\x94\\xa8/\\xe4\\xbd\\x8d\\xe8\\xbf\\x90\\xe7\\xae\\x97.sol\":1574:1707  function getLastNBits(uint x, uint n) public pure returns(uint) {... */\n    tag_28:\n        /* \"solidity\\xe9\\xab\\x98\\xe7\\xba\\xa7\\xe5\\xba\\x94\\xe7\\x94\\xa8/\\xe4\\xbd\\x8d\\xe8\\xbf\\x90\\xe7\\xae\\x97.sol\":1632:1636  uint */\n      0x00\n        /* \"solidity\\xe9\\xab\\x98\\xe7\\xba\\xa7\\xe5\\xba\\x94\\xe7\\x94\\xa8/\\xe4\\xbd\\x8d\\xe8\\xbf\\x90\\xe7\\xae\\x97.sol\":1649:1658  uint mask */\n      0x00\n        /* \"solidity\\xe9\\xab\\x98\\xe7\\xba\\xa7\\xe5\\xba\\x94\\xe7\\x94\\xa8/\\xe4\\xbd\\x8d\\xe8\\xbf\\x90\\xe7\\xae\\x97.sol\":1672:1673  1 */\n      0x01\n        /* \"solidity\\xe9\\xab\\x98\\xe7\\xba\\xa7\\xe5\\xba\\x94\\xe7\\x94\\xa8/\\xe4\\xbd\\x8d\\xe8\\xbf\\x90\\xe7\\xae\\x97.sol\":1667:1668  n */\n      dup4\n        /* \"solidity\\xe9\\xab\\x98\\xe7\\xba\\xa7\\xe5\\xba\\x94\\xe7\\x94\\xa8/\\xe4\\xbd\\x8d\\xe8\\xbf\\x90\\xe7\\xae\\x97.sol\":1662:1663  1 */\n      0x01\n        /* \"solidity\\xe9\\xab\\x98\\xe7\\xba\\xa7\\xe5\\xba\\x94\\xe7\\x94\\xa8/\\xe4\\xbd\\x8d\\xe8\\xbf\\x90\\xe7\\xae\\x97.sol\":1662:1668  1 << n */\n      swap1\n      shl\n        /* \"solidity\\xe9\\xab\\x98\\xe7\\xba\\xa7\\xe5\\xba\\x94\\xe7\\x94\\xa8/\\xe4\\xbd\\x8d\\xe8\\xbf\\x90\\xe7\\xae\\x97.sol\":1661:1673  (1 << n) - 1 */\n      tag_46\n      swap2\n      swap1\n      tag_47\n      jump\t// in\n    tag_46:\n        /* \"solidity\\xe9\\xab\\x98\\xe7\\xba\\xa7\\xe5\\xba\\x94\\xe7\\x94\\xa8/\\xe4\\xbd\\x8d\\xe8\\xbf\\x90\\xe7\\xae\\x97.sol\":1649:1673  uint mask = (1 << n) - 1 */\n      swap1\n      pop\n        /* \"solidity\\xe9\\xab\\x98\\xe7\\xba\\xa7\\xe5\\xba\\x94\\xe7\\x94\\xa8/\\xe4\\xbd\\x8d\\xe8\\xbf\\x90\\xe7\\xae\\x97.sol\":1695:1699  mask */\n      dup1\n        /* \"solidity\\xe9\\xab\\x98\\xe7\\xba\\xa7\\xe5\\xba\\x94\\xe7\\x94\\xa8/\\xe4\\xbd\\x8d\\xe8\\xbf\\x90\\xe7\\xae\\x97.sol\":1691:1692  x */\n      dup5\n        /* \"solidity\\xe9\\xab\\x98\\xe7\\xba\\xa7\\xe5\\xba\\x94\\xe7\\x94\\xa8/\\xe4\\xbd\\x8d\\xe8\\xbf\\x90\\xe7\\xae\\x97.sol\":1691:1699  x & mask */\n      and\n        /* \"solidity\\xe9\\xab\\x98\\xe7\\xba\\xa7\\xe5\\xba\\x94\\xe7\\x94\\xa8/\\xe4\\xbd\\x8d\\xe8\\xbf\\x90\\xe7\\xae\\x97.sol\":1684:1699  return x & mask */\n      swap2\n      pop\n      pop\n        /* \"solidity\\xe9\\xab\\x98\\xe7\\xba\\xa7\\xe5\\xba\\x94\\xe7\\x94\\xa8/\\xe4\\xbd\\x8d\\xe8\\xbf\\x90\\xe7\\xae\\x97.sol\":1574:1707  function getLastNBits(uint x, uint n) public pure returns(uint) {... */\n      swap3\n      swap2\n      pop\n      pop\n      jump\t// out\n        /* \"solidity\\xe9\\xab\\x98\\xe7\\xba\\xa7\\xe5\\xba\\x94\\xe7\\x94\\xa8/\\xe4\\xbd\\x8d\\xe8\\xbf\\x90\\xe7\\xae\\x97.sol\":205:290  function and(uint x,uint y) public pure returns(uint) {... */\n    tag_32:\n        /* \"solidity\\xe9\\xab\\x98\\xe7\\xba\\xa7\\xe5\\xba\\x94\\xe7\\x94\\xa8/\\xe4\\xbd\\x8d\\xe8\\xbf\\x90\\xe7\\xae\\x97.sol\":253:257  uint */\n      0x00\n        /* \"solidity\\xe9\\xab\\x98\\xe7\\xba\\xa7\\xe5\\xba\\x94\\xe7\\x94\\xa8/\\xe4\\xbd\\x8d\\xe8\\xbf\\x90\\xe7\\xae\\x97.sol\":281:282  y */\n      dup2\n        /* \"solidity\\xe9\\xab\\x98\\xe7\\xba\\xa7\\xe5\\xba\\x94\\xe7\\x94\\xa8/\\xe4\\xbd\\x8d\\xe8\\xbf\\x90\\xe7\\xae\\x97.sol\":277:278  x */\n      dup4\n        /* \"solidity\\xe9\\xab\\x98\\xe7\\xba\\xa7\\xe5\\xba\\x94\\xe7\\x94\\xa8/\\xe4\\xbd\\x8d\\xe8\\xbf\\x90\\xe7\\xae\\x97.sol\":277:282  x & y */\n      and\n        /* \"solidity\\xe9\\xab\\x98\\xe7\\xba\\xa7\\xe5\\xba\\x94\\xe7\\x94\\xa8/\\xe4\\xbd\\x8d\\xe8\\xbf\\x90\\xe7\\xae\\x97.sol\":270:282  return x & y */\n      swap1\n      pop\n        /* \"solidity\\xe9\\xab\\x98\\xe7\\xba\\xa7\\xe5\\xba\\x94\\xe7\\x94\\xa8/\\xe4\\xbd\\x8d\\xe8\\xbf\\x90\\xe7\\xae\\x97.sol\":205:290  function and(uint x,uint y) public pure returns(uint) {... */\n      swap3\n      swap2\n      pop\n      pop\n      jump\t// out\n        /* \"solidity\\xe9\\xab\\x98\\xe7\\xba\\xa7\\xe5\\xba\\x94\\xe7\\x94\\xa8/\\xe4\\xbd\\x8d\\xe8\\xbf\\x90\\xe7\\xae\\x97.sol\":623:708  function xor(uint x,uint y) public pure returns(uint) {... */\n    tag_36:\n        /* \"solidity\\xe9\\xab\\x98\\xe7\\xba\\xa7\\xe5\\xba\\x94\\xe7\\x94\\xa8/\\xe4\\xbd\\x8d\\xe8\\xbf\\x90\\xe7\\xae\\x97.sol\":671:675  uint */\n      0x00\n        /* \"solidity\\xe9\\xab\\x98\\xe7\\xba\\xa7\\xe5\\xba\\x94\\xe7\\x94\\xa8/\\xe4\\xbd\\x8d\\xe8\\xbf\\x90\\xe7\\xae\\x97.sol\":699:700  y */\n      dup2\n        /* \"solidity\\xe9\\xab\\x98\\xe7\\xba\\xa7\\xe5\\xba\\x94\\xe7\\x94\\xa8/\\xe4\\xbd\\x8d\\xe8\\xbf\\x90\\xe7\\xae\\x97.sol\":695:696  x */\n      dup4\n        /* \"solidity\\xe9\\xab\\x98\\xe7\\xba\\xa7\\xe5\\xba\\x94\\xe7\\x94\\xa8/\\xe4\\xbd\\x8d\\xe8\\xbf\\x90\\xe7\\xae\\x97.sol\":695:700  x ^ y */\n      xor\n        /* \"solidity\\xe9\\xab\\x98\\xe7\\xba\\xa7\\xe5\\xba\\x94\\xe7\\x94\\xa8/\\xe4\\xbd\\x8d\\xe8\\xbf\\x90\\xe7\\xae\\x97.sol\":688:700  return x ^ y */\n      swap1\n      pop\n        /* \"solidity\\xe9\\xab\\x98\\xe7\\xba\\xa7\\xe5\\xba\\x94\\xe7\\x94\\xa8/\\xe4\\xbd\\x8d\\xe8\\xbf\\x90\\xe7\\xae\\x97.sol\":623:708  function xor(uint x,uint y) public pure returns(uint) {... */\n      swap3\n      swap2\n      pop\n      pop\n      jump\t// out\n        /* \"solidity\\xe9\\xab\\x98\\xe7\\xba\\xa7\\xe5\\xba\\x94\\xe7\\x94\\xa8/\\xe4\\xbd\\x8d\\xe8\\xbf\\x90\\xe7\\xae\\x97.sol\":986:1078  function shiftLeft(uint x,uint n) public pure returns(uint) {... */\n    tag_40:\n        /* \"solidity\\xe9\\xab\\x98\\xe7\\xba\\xa7\\xe5\\xba\\x94\\xe7\\x94\\xa8/\\xe4\\xbd\\x8d\\xe8\\xbf\\x90\\xe7\\xae\\x97.sol\":1040:1044  uint */\n      0x00\n        /* \"solidity\\xe9\\xab\\x98\\xe7\\xba\\xa7\\xe5\\xba\\x94\\xe7\\x94\\xa8/\\xe4\\xbd\\x8d\\xe8\\xbf\\x90\\xe7\\xae\\x97.sol\":1069:1070  n */\n      dup2\n        /* \"solidity\\xe9\\xab\\x98\\xe7\\xba\\xa7\\xe5\\xba\\x94\\xe7\\x94\\xa8/\\xe4\\xbd\\x8d\\xe8\\xbf\\x90\\xe7\\xae\\x97.sol\":1064:1065  x */\n      dup4\n        /* \"solidity\\xe9\\xab\\x98\\xe7\\xba\\xa7\\xe5\\xba\\x94\\xe7\\x94\\xa8/\\xe4\\xbd\\x8d\\xe8\\xbf\\x90\\xe7\\xae\\x97.sol\":1064:1070  x << n */\n      swap1\n      shl\n        /* \"solidity\\xe9\\xab\\x98\\xe7\\xba\\xa7\\xe5\\xba\\x94\\xe7\\x94\\xa8/\\xe4\\xbd\\x8d\\xe8\\xbf\\x90\\xe7\\xae\\x97.sol\":1057:1070  return x << n */\n      swap1\n      pop\n        /* \"solidity\\xe9\\xab\\x98\\xe7\\xba\\xa7\\xe5\\xba\\x94\\xe7\\x94\\xa8/\\xe4\\xbd\\x8d\\xe8\\xbf\\x90\\xe7\\xae\\x97.sol\":986:1078  function shiftLeft(uint x,uint n) public pure returns(uint) {... */\n      swap3\n      swap2\n      pop\n      pop\n      jump\t// out\n        /* \"#utility.yul\":88:205   */\n    tag_52:\n        /* \"#utility.yul\":197:198   */\n      0x00\n        /* \"#utility.yul\":194:195   */\n      0x00\n        /* \"#utility.yul\":187:199   */\n      revert\n        /* \"#utility.yul\":334:411   */\n    tag_54:\n        /* \"#utility.yul\":371:378   */\n      0x00\n        /* \"#utility.yul\":400:405   */\n      dup2\n        /* \"#utility.yul\":389:405   */\n      swap1\n      pop\n        /* \"#utility.yul\":334:411   */\n      swap2\n      swap1\n      pop\n      jump\t// out\n        /* \"#utility.yul\":417:539   */\n    tag_55:\n        /* \"#utility.yul\":490:514   */\n      tag_68\n        /* \"#utility.yul\":508:513   */\n      dup2\n        /* \"#utility.yul\":490:514   */\n      tag_54\n      jump\t// in\n    tag_68:\n        /* \"#utility.yul\":483:488   */\n      dup2\n        /* \"#utility.yul\":480:515   */\n      eq\n        /* \"#utility.yul\":470:533   */\n      tag_69\n      jumpi\n        /* \"#utility.yul\":529:530   */\n      0x00\n        /* \"#utility.yul\":526:527   */\n      0x00\n        /* \"#utility.yul\":519:531   */\n      revert\n        /* \"#utility.yul\":470:533   */\n    tag_69:\n        /* \"#utility.yul\":417:539   */\n      pop\n      jump\t// out\n        /* \"#utility.yul\":545:684   */\n    tag_56:\n        /* \"#utility.yul\":591:596   */\n      0x00\n        /* \"#utility.yul\":629:635   */\n      dup2\n        /* \"#utility.yul\":616:636   */\n      calldataload\n        /* \"#utility.yul\":607:636   */\n      swap1\n      pop\n        /* \"#utility.yul\":645:678   */\n      tag_71\n        /* \"#utility.yul\":672:677   */\n      dup2\n        /* \"#utility.yul\":645:678   */\n      tag_55\n      jump\t// in\n    tag_71:\n        /* \"#utility.yul\":545:684   */\n      swap3\n      swap2\n      pop\n      pop\n      jump\t// out\n        /* \"#utility.yul\":690:1164   */\n    tag_13:\n        /* \"#utility.yul\":758:764   */\n      0x00\n        /* \"#utility.yul\":766:772   */\n      0x00\n        /* \"#utility.yul\":815:817   */\n      0x40\n        /* \"#utility.yul\":803:812   */\n      dup4\n        /* \"#utility.yul\":794:801   */\n      dup6\n        /* \"#utility.yul\":790:813   */\n      sub\n        /* \"#utility.yul\":786:818   */\n      slt\n        /* \"#utility.yul\":783:902   */\n      iszero\n      tag_73\n      jumpi\n        /* \"#utility.yul\":821:900   */\n      tag_74\n      tag_52\n      jump\t// in\n    tag_74:\n        /* \"#utility.yul\":783:902   */\n    tag_73:\n        /* \"#utility.yul\":941:942   */\n      0x00\n        /* \"#utility.yul\":966:1019   */\n      tag_75\n        /* \"#utility.yul\":1011:1018   */\n      dup6\n        /* \"#utility.yul\":1002:1008   */\n      dup3\n        /* \"#utility.yul\":991:1000   */\n      dup7\n        /* \"#utility.yul\":987:1009   */\n      add\n        /* \"#utility.yul\":966:1019   */\n      tag_56\n      jump\t// in\n    tag_75:\n        /* \"#utility.yul\":956:1019   */\n      swap3\n      pop\n        /* \"#utility.yul\":912:1029   */\n      pop\n        /* \"#utility.yul\":1068:1070   */\n      0x20\n        /* \"#utility.yul\":1094:1147   */\n      tag_76\n        /* \"#utility.yul\":1139:1146   */\n      dup6\n        /* \"#utility.yul\":1130:1136   */\n      dup3\n        /* \"#utility.yul\":1119:1128   */\n      dup7\n        /* \"#utility.yul\":1115:1137   */\n      add\n        /* \"#utility.yul\":1094:1147   */\n      tag_56\n      jump\t// in\n    tag_76:\n        /* \"#utility.yul\":1084:1147   */\n      swap2\n      pop\n        /* \"#utility.yul\":1039:1157   */\n      pop\n        /* \"#utility.yul\":690:1164   */\n      swap3\n      pop\n      swap3\n      swap1\n      pop\n      jump\t// out\n        /* \"#utility.yul\":1170:1288   */\n    tag_57:\n        /* \"#utility.yul\":1257:1281   */\n      tag_78\n        /* \"#utility.yul\":1275:1280   */\n      dup2\n        /* \"#utility.yul\":1257:1281   */\n      tag_54\n      jump\t// in\n    tag_78:\n        /* \"#utility.yul\":1252:1255   */\n      dup3\n        /* \"#utility.yul\":1245:1282   */\n      mstore\n        /* \"#utility.yul\":1170:1288   */\n      pop\n      pop\n      jump\t// out\n        /* \"#utility.yul\":1294:1516   */\n    tag_16:\n        /* \"#utility.yul\":1387:1391   */\n      0x00\n        /* \"#utility.yul\":1425:1427   */\n      0x20\n        /* \"#utility.yul\":1414:1423   */\n      dup3\n        /* \"#utility.yul\":1410:1428   */\n      add\n        /* \"#utility.yul\":1402:1428   */\n      swap1\n      pop\n        /* \"#utility.yul\":1438:1509   */\n      tag_80\n        /* \"#utility.yul\":1506:1507   */\n      0x00\n        /* \"#utility.yul\":1495:1504   */\n      dup4\n        /* \"#utility.yul\":1491:1508   */\n      add\n        /* \"#utility.yul\":1482:1488   */\n      dup5\n        /* \"#utility.yul\":1438:1509   */\n      tag_57\n      jump\t// in\n    tag_80:\n        /* \"#utility.yul\":1294:1516   */\n      swap3\n      swap2\n      pop\n      pop\n      jump\t// out\n        /* \"#utility.yul\":1522:1608   */\n    tag_58:\n        /* \"#utility.yul\":1557:1564   */\n      0x00\n        /* \"#utility.yul\":1597:1601   */\n      0xff\n        /* \"#utility.yul\":1590:1595   */\n      dup3\n        /* \"#utility.yul\":1586:1602   */\n      and\n        /* \"#utility.yul\":1575:1602   */\n      swap1\n      pop\n        /* \"#utility.yul\":1522:1608   */\n      swap2\n      swap1\n      pop\n      jump\t// out\n        /* \"#utility.yul\":1614:1732   */\n    tag_59:\n        /* \"#utility.yul\":1685:1707   */\n      tag_83\n        /* \"#utility.yul\":1701:1706   */\n      dup2\n        /* \"#utility.yul\":1685:1707   */\n      tag_58\n      jump\t// in\n    tag_83:\n        /* \"#utility.yul\":1678:1683   */\n      dup2\n        /* \"#utility.yul\":1675:1708   */\n      eq\n        /* \"#utility.yul\":1665:1726   */\n      tag_84\n      jumpi\n        /* \"#utility.yul\":1722:1723   */\n      0x00\n        /* \"#utility.yul\":1719:1720   */\n      0x00\n        /* \"#utility.yul\":1712:1724   */\n      revert\n        /* \"#utility.yul\":1665:1726   */\n    tag_84:\n        /* \"#utility.yul\":1614:1732   */\n      pop\n      jump\t// out\n        /* \"#utility.yul\":1738:1873   */\n    tag_60:\n        /* \"#utility.yul\":1782:1787   */\n      0x00\n        /* \"#utility.yul\":1820:1826   */\n      dup2\n        /* \"#utility.yul\":1807:1827   */\n      calldataload\n        /* \"#utility.yul\":1798:1827   */\n      swap1\n      pop\n        /* \"#utility.yul\":1836:1867   */\n      tag_86\n        /* \"#utility.yul\":1861:1866   */\n      dup2\n        /* \"#utility.yul\":1836:1867   */\n      tag_59\n      jump\t// in\n    tag_86:\n        /* \"#utility.yul\":1738:1873   */\n      swap3\n      swap2\n      pop\n      pop\n      jump\t// out\n        /* \"#utility.yul\":1879:2204   */\n    tag_19:\n        /* \"#utility.yul\":1936:1942   */\n      0x00\n        /* \"#utility.yul\":1985:1987   */\n      0x20\n        /* \"#utility.yul\":1973:1982   */\n      dup3\n        /* \"#utility.yul\":1964:1971   */\n      dup5\n        /* \"#utility.yul\":1960:1983   */\n      sub\n        /* \"#utility.yul\":1956:1988   */\n      slt\n        /* \"#utility.yul\":1953:2072   */\n      iszero\n      tag_88\n      jumpi\n        /* \"#utility.yul\":1991:2070   */\n      tag_89\n      tag_52\n      jump\t// in\n    tag_89:\n        /* \"#utility.yul\":1953:2072   */\n    tag_88:\n        /* \"#utility.yul\":2111:2112   */\n      0x00\n        /* \"#utility.yul\":2136:2187   */\n      tag_90\n        /* \"#utility.yul\":2179:2186   */\n      dup5\n        /* \"#utility.yul\":2170:2176   */\n      dup3\n        /* \"#utility.yul\":2159:2168   */\n      dup6\n        /* \"#utility.yul\":2155:2177   */\n      add\n        /* \"#utility.yul\":2136:2187   */\n      tag_60\n      jump\t// in\n    tag_90:\n        /* \"#utility.yul\":2126:2187   */\n      swap2\n      pop\n        /* \"#utility.yul\":2082:2197   */\n      pop\n        /* \"#utility.yul\":1879:2204   */\n      swap3\n      swap2\n      pop\n      pop\n      jump\t// out\n        /* \"#utility.yul\":2210:2390   */\n    tag_61:\n        /* \"#utility.yul\":2258:2335   */\n      0x4e487b7100000000000000000000000000000000000000000000000000000000\n        /* \"#utility.yul\":2255:2256   */\n      0x00\n        /* \"#utility.yul\":2248:2336   */\n      mstore\n        /* \"#utility.yul\":2355:2359   */\n      0x11\n        /* \"#utility.yul\":2352:2353   */\n      0x04\n        /* \"#utility.yul\":2345:2360   */\n      mstore\n        /* \"#utility.yul\":2379:2383   */\n      0x24\n        /* \"#utility.yul\":2376:2377   */\n      0x00\n        /* \"#utility.yul\":2369:2384   */\n      revert\n        /* \"#utility.yul\":2396:2590   */\n    tag_47:\n        /* \"#utility.yul\":2436:2440   */\n      0x00\n        /* \"#utility.yul\":2456:2476   */\n      tag_93\n        /* \"#utility.yul\":2474:2475   */\n      dup3\n        /* \"#utility.yul\":2456:2476   */\n      tag_54\n      jump\t// in\n    tag_93:\n        /* \"#utility.yul\":2451:2476   */\n      swap2\n      pop\n        /* \"#utility.yul\":2490:2510   */\n      tag_94\n        /* \"#utility.yul\":2508:2509   */\n      dup4\n        /* \"#utility.yul\":2490:2510   */\n      tag_54\n      jump\t// in\n    tag_94:\n        /* \"#utility.yul\":2485:2510   */\n      swap3\n      pop\n        /* \"#utility.yul\":2534:2535   */\n      dup3\n        /* \"#utility.yul\":2531:2532   */\n      dup3\n        /* \"#utility.yul\":2527:2536   */\n      sub\n        /* \"#utility.yul\":2519:2536   */\n      swap1\n      pop\n        /* \"#utility.yul\":2558:2559   */\n      dup2\n        /* \"#utility.yul\":2552:2556   */\n      dup2\n        /* \"#utility.yul\":2549:2560   */\n      gt\n        /* \"#utility.yul\":2546:2583   */\n      iszero\n      tag_95\n      jumpi\n        /* \"#utility.yul\":2563:2581   */\n      tag_96\n      tag_61\n      jump\t// in\n    tag_96:\n        /* \"#utility.yul\":2546:2583   */\n    tag_95:\n        /* \"#utility.yul\":2396:2590   */\n      swap3\n      swap2\n      pop\n      pop\n      jump\t// out\n\n    auxdata: 0xa2646970667358221220729dc8085809142674a411f560770e4f5d4ff691db2483f760851ea8bce5dcc764736f6c63430008220033\n}\n",
				"bytecode": {
					"linkReferences": {},
					"object": "6080604052348015600e575f5ffd5b506103cf8061001c5f395ff3fe608060405234801561000f575f5ffd5b506004361061007b575f3560e01c806321a952961161005957806321a952961461010f578063903b98421461013f5780639ed41ba11461016f578063a589d2121461019f5761007b565b8063097c2cb21461007f5780631180f8c3146100af5780631685fa98146100df575b5f5ffd5b61009960048036038101906100949190610272565b6101cf565b6040516100a691906102bf565b60405180910390f35b6100c960048036038101906100c4919061030e565b6101db565b6040516100d691906102bf565b60405180910390f35b6100f960048036038101906100f49190610272565b6101e8565b60405161010691906102bf565b60405180910390f35b61012960048036038101906101249190610272565b6101f5565b60405161013691906102bf565b60405180910390f35b61015960048036038101906101549190610272565b610216565b60405161016691906102bf565b60405180910390f35b61018960048036038101906101849190610272565b610222565b60405161019691906102bf565b60405180910390f35b6101b960048036038101906101b49190610272565b61022e565b6040516101c691906102bf565b60405180910390f35b5f818317905092915050565b5f811960ff169050919050565b5f8183901c905092915050565b5f5f6001836001901b6102089190610366565b905080841691505092915050565b5f818316905092915050565b5f818318905092915050565b5f8183901b905092915050565b5f5ffd5b5f819050919050565b6102518161023f565b811461025b575f5ffd5b50565b5f8135905061026c81610248565b92915050565b5f5f604083850312156102885761028761023b565b5b5f6102958582860161025e565b92505060206102a68582860161025e565b9150509250929050565b6102b98161023f565b82525050565b5f6020820190506102d25f8301846102b0565b92915050565b5f60ff82169050919050565b6102ed816102d8565b81146102f7575f5ffd5b50565b5f81359050610308816102e4565b92915050565b5f602082840312156103235761032261023b565b5b5f610330848285016102fa565b91505092915050565b7f4e487b71000000000000000000000000000000000000000000000000000000005f52601160045260245ffd5b5f6103708261023f565b915061037b8361023f565b925082820390508181111561039357610392610339565b5b9291505056fea2646970667358221220729dc8085809142674a411f560770e4f5d4ff691db2483f760851ea8bce5dcc764736f6c63430008220033",
					"opcodes": "PUSH1 0x80 PUSH1 0x40 MSTORE CALLVALUE DUP1 ISZERO PUSH1 0xE JUMPI PUSH0 PUSH0 REVERT JUMPDEST POP PUSH2 0x3CF DUP1 PUSH2 0x1C PUSH0 CODECOPY PUSH0 RETURN INVALID PUSH1 0x80 PUSH1 0x40 MSTORE CALLVALUE DUP1 ISZERO PUSH2 0xF JUMPI PUSH0 PUSH0 REVERT JUMPDEST POP PUSH1 0x4 CALLDATASIZE LT PUSH2 0x7B JUMPI PUSH0 CALLDATALOAD PUSH1 0xE0 SHR DUP1 PUSH4 0x21A95296 GT PUSH2 0x59 JUMPI DUP1 PUSH4 0x21A95296 EQ PUSH2 0x10F JUMPI DUP1 PUSH4 0x903B9842 EQ PUSH2 0x13F JUMPI DUP1 PUSH4 0x9ED41BA1 EQ PUSH2 0x16F JUMPI DUP1 PUSH4 0xA589D212 EQ PUSH2 0x19F JUMPI PUSH2 0x7B JUMP JUMPDEST DUP1 PUSH4 0x97C2CB2 EQ PUSH2 0x7F JUMPI DUP1 PUSH4 0x1180F8C3 EQ PUSH2 0xAF JUMPI DUP1 PUSH4 0x1685FA98 EQ PUSH2 0xDF JUMPI JUMPDEST PUSH0 PUSH0 REVERT JUMPDEST PUSH2 0x99 PUSH1 0x4 DUP1 CALLDATASIZE SUB DUP2 ADD SWAP1 PUSH2 0x94 SWAP2 SWAP1 PUSH2 0x272 JUMP JUMPDEST PUSH2 0x1CF JUMP JUMPDEST PUSH1 0x40 MLOAD PUSH2 0xA6 SWAP2 SWAP1 PUSH2 0x2BF JUMP JUMPDEST PUSH1 0x40 MLOAD DUP1 SWAP2 SUB SWAP1 RETURN JUMPDEST PUSH2 0xC9 PUSH1 0x4 DUP1 CALLDATASIZE SUB DUP2 ADD SWAP1 PUSH2 0xC4 SWAP2 SWAP1 PUSH2 0x30E JUMP JUMPDEST PUSH2 0x1DB JUMP JUMPDEST PUSH1 0x40 MLOAD PUSH2 0xD6 SWAP2 SWAP1 PUSH2 0x2BF JUMP JUMPDEST PUSH1 0x40 MLOAD DUP1 SWAP2 SUB SWAP1 RETURN JUMPDEST PUSH2 0xF9 PUSH1 0x4 DUP1 CALLDATASIZE SUB DUP2 ADD SWAP1 PUSH2 0xF4 SWAP2 SWAP1 PUSH2 0x272 JUMP JUMPDEST PUSH2 0x1E8 JUMP JUMPDEST PUSH1 0x40 MLOAD PUSH2 0x106 SWAP2 SWAP1 PUSH2 0x2BF JUMP JUMPDEST PUSH1 0x40 MLOAD DUP1 SWAP2 SUB SWAP1 RETURN JUMPDEST PUSH2 0x129 PUSH1 0x4 DUP1 CALLDATASIZE SUB DUP2 ADD SWAP1 PUSH2 0x124 SWAP2 SWAP1 PUSH2 0x272 JUMP JUMPDEST PUSH2 0x1F5 JUMP JUMPDEST PUSH1 0x40 MLOAD PUSH2 0x136 SWAP2 SWAP1 PUSH2 0x2BF JUMP JUMPDEST PUSH1 0x40 MLOAD DUP1 SWAP2 SUB SWAP1 RETURN JUMPDEST PUSH2 0x159 PUSH1 0x4 DUP1 CALLDATASIZE SUB DUP2 ADD SWAP1 PUSH2 0x154 SWAP2 SWAP1 PUSH2 0x272 JUMP JUMPDEST PUSH2 0x216 JUMP JUMPDEST PUSH1 0x40 MLOAD PUSH2 0x166 SWAP2 SWAP1 PUSH2 0x2BF JUMP JUMPDEST PUSH1 0x40 MLOAD DUP1 SWAP2 SUB SWAP1 RETURN JUMPDEST PUSH2 0x189 PUSH1 0x4 DUP1 CALLDATASIZE SUB DUP2 ADD SWAP1 PUSH2 0x184 SWAP2 SWAP1 PUSH2 0x272 JUMP JUMPDEST PUSH2 0x222 JUMP JUMPDEST PUSH1 0x40 MLOAD PUSH2 0x196 SWAP2 SWAP1 PUSH2 0x2BF JUMP JUMPDEST PUSH1 0x40 MLOAD DUP1 SWAP2 SUB SWAP1 RETURN JUMPDEST PUSH2 0x1B9 PUSH1 0x4 DUP1 CALLDATASIZE SUB DUP2 ADD SWAP1 PUSH2 0x1B4 SWAP2 SWAP1 PUSH2 0x272 JUMP JUMPDEST PUSH2 0x22E JUMP JUMPDEST PUSH1 0x40 MLOAD PUSH2 0x1C6 SWAP2 SWAP1 PUSH2 0x2BF JUMP JUMPDEST PUSH1 0x40 MLOAD DUP1 SWAP2 SUB SWAP1 RETURN JUMPDEST PUSH0 DUP2 DUP4 OR SWAP1 POP SWAP3 SWAP2 POP POP JUMP JUMPDEST PUSH0 DUP2 NOT PUSH1 0xFF AND SWAP1 POP SWAP2 SWAP1 POP JUMP JUMPDEST PUSH0 DUP2 DUP4 SWAP1 SHR SWAP1 POP SWAP3 SWAP2 POP POP JUMP JUMPDEST PUSH0 PUSH0 PUSH1 0x1 DUP4 PUSH1 0x1 SWAP1 SHL PUSH2 0x208 SWAP2 SWAP1 PUSH2 0x366 JUMP JUMPDEST SWAP1 POP DUP1 DUP5 AND SWAP2 POP POP SWAP3 SWAP2 POP POP JUMP JUMPDEST PUSH0 DUP2 DUP4 AND SWAP1 POP SWAP3 SWAP2 POP POP JUMP JUMPDEST PUSH0 DUP2 DUP4 XOR SWAP1 POP SWAP3 SWAP2 POP POP JUMP JUMPDEST PUSH0 DUP2 DUP4 SWAP1 SHL SWAP1 POP SWAP3 SWAP2 POP POP JUMP JUMPDEST PUSH0 PUSH0 REVERT JUMPDEST PUSH0 DUP2 SWAP1 POP SWAP2 SWAP1 POP JUMP JUMPDEST PUSH2 0x251 DUP2 PUSH2 0x23F JUMP JUMPDEST DUP2 EQ PUSH2 0x25B JUMPI PUSH0 PUSH0 REVERT JUMPDEST POP JUMP JUMPDEST PUSH0 DUP2 CALLDATALOAD SWAP1 POP PUSH2 0x26C DUP2 PUSH2 0x248 JUMP JUMPDEST SWAP3 SWAP2 POP POP JUMP JUMPDEST PUSH0 PUSH0 PUSH1 0x40 DUP4 DUP6 SUB SLT ISZERO PUSH2 0x288 JUMPI PUSH2 0x287 PUSH2 0x23B JUMP JUMPDEST JUMPDEST PUSH0 PUSH2 0x295 DUP6 DUP3 DUP7 ADD PUSH2 0x25E JUMP JUMPDEST SWAP3 POP POP PUSH1 0x20 PUSH2 0x2A6 DUP6 DUP3 DUP7 ADD PUSH2 0x25E JUMP JUMPDEST SWAP2 POP POP SWAP3 POP SWAP3 SWAP1 POP JUMP JUMPDEST PUSH2 0x2B9 DUP2 PUSH2 0x23F JUMP JUMPDEST DUP3 MSTORE POP POP JUMP JUMPDEST PUSH0 PUSH1 0x20 DUP3 ADD SWAP1 POP PUSH2 0x2D2 PUSH0 DUP4 ADD DUP5 PUSH2 0x2B0 JUMP JUMPDEST SWAP3 SWAP2 POP POP JUMP JUMPDEST PUSH0 PUSH1 0xFF DUP3 AND SWAP1 POP SWAP2 SWAP1 POP JUMP JUMPDEST PUSH2 0x2ED DUP2 PUSH2 0x2D8 JUMP JUMPDEST DUP2 EQ PUSH2 0x2F7 JUMPI PUSH0 PUSH0 REVERT JUMPDEST POP JUMP JUMPDEST PUSH0 DUP2 CALLDATALOAD SWAP1 POP PUSH2 0x308 DUP2 PUSH2 0x2E4 JUMP JUMPDEST SWAP3 SWAP2 POP POP JUMP JUMPDEST PUSH0 PUSH1 0x20 DUP3 DUP5 SUB SLT ISZERO PUSH2 0x323 JUMPI PUSH2 0x322 PUSH2 0x23B JUMP JUMPDEST JUMPDEST PUSH0 PUSH2 0x330 DUP5 DUP3 DUP6 ADD PUSH2 0x2FA JUMP JUMPDEST SWAP2 POP POP SWAP3 SWAP2 POP POP JUMP JUMPDEST PUSH32 0x4E487B7100000000000000000000000000000000000000000000000000000000 PUSH0 MSTORE PUSH1 0x11 PUSH1 0x4 MSTORE PUSH1 0x24 PUSH0 REVERT JUMPDEST PUSH0 PUSH2 0x370 DUP3 PUSH2 0x23F JUMP JUMPDEST SWAP2 POP PUSH2 0x37B DUP4 PUSH2 0x23F JUMP JUMPDEST SWAP3 POP DUP3 DUP3 SUB SWAP1 POP DUP2 DUP2 GT ISZERO PUSH2 0x393 JUMPI PUSH2 0x392 PUSH2 0x339 JUMP JUMPDEST JUMPDEST SWAP3 SWAP2 POP POP JUMP INVALID LOG2 PUSH5 0x6970667358 0x22 SLT KECCAK256 PUSH19 0x9DC8085809142674A411F560770E4F5D4FF691 0xDB 0x24 DUP4 0xF7 PUSH1 0x85 CLZ 0xA8 0xBC JUMPF 0xDCC7 PUSH5 0x736F6C6343 STOP ADDMOD 0x22 STOP CALLER "
				},
				"gasEstimates": {
					"creation": {
						"codeDepositCost": "195000",
						"executionCost": "236",
						"totalCost": "195236"
					},
					"external": {
						"and(uint256,uint256)": "infinite",
						"getLastNBits(uint256,uint256)": "infinite",
						"not(uint8)": "631",
						"or(uint256,uint256)": "infinite",
						"shiftLeft(uint256,uint256)": "infinite",
						"shiftRight(uint256,uint256)": "infinite",
						"xor(uint256,uint256)": "infinite"
					}
				},
				"methodIdentifiers": {
					"and(uint256,uint256)": "903b9842",
					"getLastNBits(uint256,uint256)": "21a95296",
					"not(uint8)": "1180f8c3",
					"or(uint256,uint256)": "097c2cb2",
					"shiftLeft(uint256,uint256)": "a589d212",
					"shiftRight(uint256,uint256)": "1685fa98",
					"xor(uint256,uint256)": "9ed41ba1"
				}
			},
			"storageLayout": {
				"storage": [],
				"types": null
			},
			"userdoc": {
				"kind": "user",
				"methods": {},
				"version": 1
			}
		}
	}
}