{
	"solidity合约交互/接口interface.sol": {
		"IcounterImpl": {
			"abi": [
				{
					"inputs": [],
					"name": "count",
					"outputs": [
						{
							"internalType": "uint256",
							"name": "",
							"type": "uint256"
						}
					],
					"stateMutability": "view",
					"type": "function"
				},
				{
					"inputs": [],
					"name": "getCount",
					"outputs": [
						{
							"internalType": "uint256",
							"name": "",
							"type": "uint256"
						}
					],
					"stateMutability": "view",
					"type": "function"
				},
				{
					"inputs": [],
					"name": "increment",
					"outputs": [],
					"stateMutability": "nonpayable",
					"type": "function"
				}
			],
			"devdoc": {
				"kind": "dev",
				"methods": {},
				"version": 1
			},
			"evm": {
				"assembly": "    /* \"solidity\\xe5\\x90\\x88\\xe7\\xba\\xa6\\xe4\\xba\\xa4\\xe4\\xba\\x92/\\xe6\\x8e\\xa5\\xe5\\x8f\\xa3interface.sol\":1176:1377  contract IcounterImpl {... */\n  mstore(0x40, 0x80)\n  callvalue\n  dup1\n  iszero\n  tag_1\n  jumpi\n  revert(0x00, 0x00)\ntag_1:\n  pop\n  dataSize(sub_0)\n  dup1\n  dataOffset(sub_0)\n  0x00\n  codecopy\n  0x00\n  return\nstop\n\nsub_0: assembly {\n        /* \"solidity\\xe5\\x90\\x88\\xe7\\xba\\xa6\\xe4\\xba\\xa4\\xe4\\xba\\x92/\\xe6\\x8e\\xa5\\xe5\\x8f\\xa3interface.sol\":1176:1377  contract IcounterImpl {... */\n      mstore(0x40, 0x80)\n      callvalue\n      dup1\n      iszero\n      tag_1\n      jumpi\n      revert(0x00, 0x00)\n    tag_1:\n      pop\n      jumpi(tag_2, lt(calldatasize, 0x04))\n      shr(0xe0, calldataload(0x00))\n      dup1\n      0x06661abd\n      eq\n      tag_3\n      jumpi\n      dup1\n      0xa87d942c\n      eq\n      tag_4\n      jumpi\n      dup1\n      0xd09de08a\n      eq\n      tag_5\n      jumpi\n    tag_2:\n      revert(0x00, 0x00)\n        /* \"solidity\\xe5\\x90\\x88\\xe7\\xba\\xa6\\xe4\\xba\\xa4\\xe4\\xba\\x92/\\xe6\\x8e\\xa5\\xe5\\x8f\\xa3interface.sol\":1205:1222  uint public count */\n    tag_3:\n      tag_6\n      tag_7\n      jump\t// in\n    tag_6:\n      mload(0x40)\n      tag_8\n      swap2\n      swap1\n      tag_9\n      jump\t// in\n    tag_8:\n      mload(0x40)\n      dup1\n      swap2\n      sub\n      swap1\n      return\n        /* \"solidity\\xe5\\x90\\x88\\xe7\\xba\\xa6\\xe4\\xba\\xa4\\xe4\\xba\\x92/\\xe6\\x8e\\xa5\\xe5\\x8f\\xa3interface.sol\":1229:1309  function getCount() external view returns (uint) {... */\n    tag_4:\n      tag_10\n      tag_11\n      jump\t// in\n    tag_10:\n      mload(0x40)\n      tag_12\n      swap2\n      swap1\n      tag_9\n      jump\t// in\n    tag_12:\n      mload(0x40)\n      dup1\n      swap2\n      sub\n      swap1\n      return\n        /* \"solidity\\xe5\\x90\\x88\\xe7\\xba\\xa6\\xe4\\xba\\xa4\\xe4\\xba\\x92/\\xe6\\x8e\\xa5\\xe5\\x8f\\xa3interface.sol\":1315:1374  function increment() external {... */\n    tag_5:\n      tag_13\n      tag_14\n      jump\t// in\n    tag_13:\n      stop\n        /* \"solidity\\xe5\\x90\\x88\\xe7\\xba\\xa6\\xe4\\xba\\xa4\\xe4\\xba\\x92/\\xe6\\x8e\\xa5\\xe5\\x8f\\xa3interface.sol\":1205:1222  uint public count */\n    tag_7:\n      sload(0x00)\n      dup2\n      jump\t// out\n        /* \"solidity\\xe5\\x90\\x88\\xe7\\xba\\xa6\\xe4\\xba\\xa4\\xe4\\xba\\x92/\\xe6\\x8e\\xa5\\xe5\\x8f\\xa3interface.sol\":1229:1309  function getCount() external view returns (uint) {... */\n    tag_11:\n        /* \"solidity\\xe5\\x90\\x88\\xe7\\xba\\xa6\\xe4\\xba\\xa4\\xe4\\xba\\x92/\\xe6\\x8e\\xa5\\xe5\\x8f\\xa3interface.sol\":1272:1276  uint */\n      0x00\n        /* \"solidity\\xe5\\x90\\x88\\xe7\\xba\\xa6\\xe4\\xba\\xa4\\xe4\\xba\\x92/\\xe6\\x8e\\xa5\\xe5\\x8f\\xa3interface.sol\":1296:1301  count */\n      sload(0x00)\n        /* \"solidity\\xe5\\x90\\x88\\xe7\\xba\\xa6\\xe4\\xba\\xa4\\xe4\\xba\\x92/\\xe6\\x8e\\xa5\\xe5\\x8f\\xa3interface.sol\":1289:1301  return count */\n      swap1\n      pop\n        /* \"solidity\\xe5\\x90\\x88\\xe7\\xba\\xa6\\xe4\\xba\\xa4\\xe4\\xba\\x92/\\xe6\\x8e\\xa5\\xe5\\x8f\\xa3interface.sol\":1229:1309  function getCount() external view returns (uint) {... */\n      swap1\n      jump\t// out\n        /* \"solidity\\xe5\\x90\\x88\\xe7\\xba\\xa6\\xe4\\xba\\xa4\\xe4\\xba\\x92/\\xe6\\x8e\\xa5\\xe5\\x8f\\xa3interface.sol\":1315:1374  function increment() external {... */\n    tag_14:\n        /* \"solidity\\xe5\\x90\\x88\\xe7\\xba\\xa6\\xe4\\xba\\xa4\\xe4\\xba\\x92/\\xe6\\x8e\\xa5\\xe5\\x8f\\xa3interface.sol\":1365:1366  1 */\n      0x01\n        /* \"solidity\\xe5\\x90\\x88\\xe7\\xba\\xa6\\xe4\\xba\\xa4\\xe4\\xba\\x92/\\xe6\\x8e\\xa5\\xe5\\x8f\\xa3interface.sol\":1356:1361  count */\n      0x00\n      0x00\n        /* \"solidity\\xe5\\x90\\x88\\xe7\\xba\\xa6\\xe4\\xba\\xa4\\xe4\\xba\\x92/\\xe6\\x8e\\xa5\\xe5\\x8f\\xa3interface.sol\":1356:1366  count += 1 */\n      dup3\n      dup3\n      sload\n      tag_17\n      swap2\n      swap1\n      tag_18\n      jump\t// in\n    tag_17:\n      swap3\n      pop\n      pop\n      dup2\n      swap1\n      sstore\n      pop\n        /* \"solidity\\xe5\\x90\\x88\\xe7\\xba\\xa6\\xe4\\xba\\xa4\\xe4\\xba\\x92/\\xe6\\x8e\\xa5\\xe5\\x8f\\xa3interface.sol\":1315:1374  function increment() external {... */\n      jump\t// out\n        /* \"#utility.yul\":7:84   */\n    tag_19:\n        /* \"#utility.yul\":44:51   */\n      0x00\n        /* \"#utility.yul\":73:78   */\n      dup2\n        /* \"#utility.yul\":62:78   */\n      swap1\n      pop\n        /* \"#utility.yul\":7:84   */\n      swap2\n      swap1\n      pop\n      jump\t// out\n        /* \"#utility.yul\":90:208   */\n    tag_20:\n        /* \"#utility.yul\":177:201   */\n      tag_25\n        /* \"#utility.yul\":195:200   */\n      dup2\n        /* \"#utility.yul\":177:201   */\n      tag_19\n      jump\t// in\n    tag_25:\n        /* \"#utility.yul\":172:175   */\n      dup3\n        /* \"#utility.yul\":165:202   */\n      mstore\n        /* \"#utility.yul\":90:208   */\n      pop\n      pop\n      jump\t// out\n        /* \"#utility.yul\":214:436   */\n    tag_9:\n        /* \"#utility.yul\":307:311   */\n      0x00\n        /* \"#utility.yul\":345:347   */\n      0x20\n        /* \"#utility.yul\":334:343   */\n      dup3\n        /* \"#utility.yul\":330:348   */\n      add\n        /* \"#utility.yul\":322:348   */\n      swap1\n      pop\n        /* \"#utility.yul\":358:429   */\n      tag_27\n        /* \"#utility.yul\":426:427   */\n      0x00\n        /* \"#utility.yul\":415:424   */\n      dup4\n        /* \"#utility.yul\":411:428   */\n      add\n        /* \"#utility.yul\":402:408   */\n      dup5\n        /* \"#utility.yul\":358:429   */\n      tag_20\n      jump\t// in\n    tag_27:\n        /* \"#utility.yul\":214:436   */\n      swap3\n      swap2\n      pop\n      pop\n      jump\t// out\n        /* \"#utility.yul\":442:622   */\n    tag_21:\n        /* \"#utility.yul\":490:567   */\n      0x4e487b7100000000000000000000000000000000000000000000000000000000\n        /* \"#utility.yul\":487:488   */\n      0x00\n        /* \"#utility.yul\":480:568   */\n      mstore\n        /* \"#utility.yul\":587:591   */\n      0x11\n        /* \"#utility.yul\":584:585   */\n      0x04\n        /* \"#utility.yul\":577:592   */\n      mstore\n        /* \"#utility.yul\":611:615   */\n      0x24\n        /* \"#utility.yul\":608:609   */\n      0x00\n        /* \"#utility.yul\":601:616   */\n      revert\n        /* \"#utility.yul\":628:819   */\n    tag_18:\n        /* \"#utility.yul\":668:671   */\n      0x00\n        /* \"#utility.yul\":687:707   */\n      tag_30\n        /* \"#utility.yul\":705:706   */\n      dup3\n        /* \"#utility.yul\":687:707   */\n      tag_19\n      jump\t// in\n    tag_30:\n        /* \"#utility.yul\":682:707   */\n      swap2\n      pop\n        /* \"#utility.yul\":721:741   */\n      tag_31\n        /* \"#utility.yul\":739:740   */\n      dup4\n        /* \"#utility.yul\":721:741   */\n      tag_19\n      jump\t// in\n    tag_31:\n        /* \"#utility.yul\":716:741   */\n      swap3\n      pop\n        /* \"#utility.yul\":764:765   */\n      dup3\n        /* \"#utility.yul\":761:762   */\n      dup3\n        /* \"#utility.yul\":757:766   */\n      add\n        /* \"#utility.yul\":750:766   */\n      swap1\n      pop\n        /* \"#utility.yul\":785:788   */\n      dup1\n        /* \"#utility.yul\":782:783   */\n      dup3\n        /* \"#utility.yul\":779:789   */\n      gt\n        /* \"#utility.yul\":776:812   */\n      iszero\n      tag_32\n      jumpi\n        /* \"#utility.yul\":792:810   */\n      tag_33\n      tag_21\n      jump\t// in\n    tag_33:\n        /* \"#utility.yul\":776:812   */\n    tag_32:\n        /* \"#utility.yul\":628:819   */\n      swap3\n      swap2\n      pop\n      pop\n      jump\t// out\n\n    auxdata: 0xa2646970667358221220a19622e6699ccf241d829a7715b75ed826174e526ef17e16b27671f119b0739c64736f6c63430008220033\n}\n",
				"bytecode": {
					"linkReferences": {},
					"object": "6080604052348015600e575f5ffd5b506101778061001c5f395ff3fe608060405234801561000f575f5ffd5b506004361061003f575f3560e01c806306661abd14610043578063a87d942c14610061578063d09de08a1461007f575b5f5ffd5b61004b610089565b60405161005891906100c8565b60405180910390f35b61006961008e565b60405161007691906100c8565b60405180910390f35b610087610096565b005b5f5481565b5f5f54905090565b60015f5f8282546100a7919061010e565b92505081905550565b5f819050919050565b6100c2816100b0565b82525050565b5f6020820190506100db5f8301846100b9565b92915050565b7f4e487b71000000000000000000000000000000000000000000000000000000005f52601160045260245ffd5b5f610118826100b0565b9150610123836100b0565b925082820190508082111561013b5761013a6100e1565b5b9291505056fea2646970667358221220a19622e6699ccf241d829a7715b75ed826174e526ef17e16b27671f119b0739c64736f6c63430008220033",
					"opcodes": "PUSH1 0x80 PUSH1 0x40 MSTORE CALLVALUE DUP1 ISZERO PUSH1 0xE JUMPI PUSH0 PUSH0 REVERT JUMPDEST POP PUSH2 0x177 DUP1 PUSH2 0x1C PUSH0 CODECOPY PUSH0 RETURN INVALID PUSH1 0x80 PUSH1 0x40 MSTORE CALLVALUE DUP1 ISZERO PUSH2 0xF JUMPI PUSH0 PUSH0 REVERT JUMPDEST POP PUSH1 0x4 CALLDATASIZE LT PUSH2 0x3F JUMPI PUSH0 CALLDATALOAD PUSH1 0xE0 SHR DUP1 PUSH4 0x6661ABD EQ PUSH2 0x43 JUMPI DUP1 PUSH4 0xA87D942C EQ PUSH2 0x61 JUMPI DUP1 PUSH4 0xD09DE08A EQ PUSH2 0x7F JUMPI JUMPDEST PUSH0 PUSH0 REVERT JUMPDEST PUSH2 0x4B PUSH2 0x89 JUMP JUMPDEST PUSH1 0x40 MLOAD PUSH2 0x58 SWAP2 SWAP1 PUSH2 0xC8 JUMP JUMPDEST PUSH1 0x40 MLOAD DUP1 SWAP2 SUB SWAP1 RETURN JUMPDEST PUSH2 0x69 PUSH2 0x8E JUMP JUMPDEST PUSH1 0x40 MLOAD PUSH2 0x76 SWAP2 SWAP1 PUSH2 0xC8 JUMP JUMPDEST PUSH1 0x40 MLOAD DUP1 SWAP2 SUB SWAP1 RETURN JUMPDEST PUSH2 0x87 PUSH2 0x96 JUMP JUMPDEST STOP JUMPDEST PUSH0 SLOAD DUP2 JUMP JUMPDEST PUSH0 PUSH0 SLOAD SWAP1 POP SWAP1 JUMP JUMPDEST PUSH1 0x1 PUSH0 PUSH0 DUP3 DUP3 SLOAD PUSH2 0xA7 SWAP2 SWAP1 PUSH2 0x10E JUMP JUMPDEST SWAP3 POP POP DUP2 SWAP1 SSTORE POP JUMP JUMPDEST PUSH0 DUP2 SWAP1 POP SWAP2 SWAP1 POP JUMP JUMPDEST PUSH2 0xC2 DUP2 PUSH2 0xB0 JUMP JUMPDEST DUP3 MSTORE POP POP JUMP JUMPDEST PUSH0 PUSH1 0x20 DUP3 ADD SWAP1 POP PUSH2 0xDB PUSH0 DUP4 ADD DUP5 PUSH2 0xB9 JUMP JUMPDEST SWAP3 SWAP2 POP POP JUMP JUMPDEST PUSH32 0x4E487B7100000000000000000000000000000000000000000000000000000000 PUSH0 MSTORE PUSH1 0x11 PUSH1 0x4 MSTORE PUSH1 0x24 PUSH0 REVERT JUMPDEST PUSH0 PUSH2 0x118 DUP3 PUSH2 0xB0 JUMP JUMPDEST SWAP2 POP PUSH2 0x123 DUP4 PUSH2 0xB0 JUMP JUMPDEST SWAP3 POP DUP3 DUP3 ADD SWAP1 POP DUP1 DUP3 GT ISZERO PUSH2 0x13B JUMPI PUSH2 0x13A PUSH2 0xE1 JUMP JUMPDEST JUMPDEST SWAP3 SWAP2 POP POP JUMP INVALID LOG2 PUSH5 0x6970667358 0x22 SLT KECCAK256 LOG1 SWAP7 0x22 DUPN 0x69 SWAP13 0xCF 0x24 SAR DUP3 SWAP11 PUSH24 0x15B75ED826174E526EF17E16B27671F119B0739C64736F6C PUSH4 0x43000822 STOP CALLER "
				},
				"gasEstimates": {
					"creation": {
						"codeDepositCost": "75000",
						"executionCost": "121",
						"totalCost": "75121"
					},
					"external": {
						"count()": "2402",
						"getCount()": "2431",
						"increment()": "infinite"
					}
				},
				"methodIdentifiers": {
					"count()": "06661abd",
					"getCount()": "a87d942c",
					"increment()": "d09de08a"
				}
			},
			"storageLayout": {
				"storage": [
					{
						"astId": 39,
						"contract": "solidity合约交互/接口interface.sol:IcounterImpl",
						"label": "count",
						"offset": 0,
						"slot": "0",
						"type": "t_uint256"
					}
				],
				"types": {
					"t_uint256": {
						"encoding": "inplace",
						"label": "uint256",
						"numberOfBytes": "32"
					}
				}
			},
			"userdoc": {
				"kind": "user",
				"methods": {},
				"version": 1
			}
		}
	}
}