{
	"solidity金融和支付/发送以太币transfer、send、call.sol": {
		"Sender": {
			"abi": [
				{
					"inputs": [],
					"stateMutability": "payable",
					"type": "constructor"
				},
				{
					"inputs": [
						{
							"internalType": "address payable",
							"name": "to",
							"type": "address"
						},
						{
							"internalType": "uint256",
							"name": "amount",
							"type": "uint256"
						}
					],
					"name": "callEth",
					"outputs": [
						{
							"internalType": "bool",
							"name": "",
							"type": "bool"
						}
					],
					"stateMutability": "nonpayable",
					"type": "function"
				},
				{
					"inputs": [
						{
							"internalType": "address payable",
							"name": "to",
							"type": "address"
						},
						{
							"internalType": "uint256",
							"name": "amount",
							"type": "uint256"
						}
					],
					"name": "sendEth",
					"outputs": [],
					"stateMutability": "nonpayable",
					"type": "function"
				},
				{
					"inputs": [
						{
							"internalType": "address payable",
							"name": "to",
							"type": "address"
						},
						{
							"internalType": "uint256",
							"name": "amount",
							"type": "uint256"
						}
					],
					"name": "transferEth",
					"outputs": [],
					"stateMutability": "nonpayable",
					"type": "function"
				}
			],
			"devdoc": {
				"kind": "dev",
				"methods": {},
				"version": 1
			},
			"evm": {
				"assembly": "    /* \"solidity\\xe9\\x87\\x91\\xe8\\x9e\\x8d\\xe5\\x92\\x8c\\xe6\\x94\\xaf\\xe4\\xbb\\x98/\\xe5\\x8f\\x91\\xe9\\x80\\x81\\xe4\\xbb\\xa5\\xe5\\xa4\\xaa\\xe5\\xb8\\x81transfer\\xe3\\x80\\x81send\\xe3\\x80\\x81call.sol\":390:1231  contract Sender {... */\n  mstore(0x40, 0x80)\n  dataSize(sub_0)\n  dup1\n  dataOffset(sub_0)\n  0x00\n  codecopy\n  0x00\n  return\nstop\n\nsub_0: assembly {\n        /* \"solidity\\xe9\\x87\\x91\\xe8\\x9e\\x8d\\xe5\\x92\\x8c\\xe6\\x94\\xaf\\xe4\\xbb\\x98/\\xe5\\x8f\\x91\\xe9\\x80\\x81\\xe4\\xbb\\xa5\\xe5\\xa4\\xaa\\xe5\\xb8\\x81transfer\\xe3\\x80\\x81send\\xe3\\x80\\x81call.sol\":390:1231  contract Sender {... */\n      mstore(0x40, 0x80)\n      callvalue\n      dup1\n      iszero\n      tag_1\n      jumpi\n      revert(0x00, 0x00)\n    tag_1:\n      pop\n      jumpi(tag_2, lt(calldatasize, 0x04))\n      shr(0xe0, calldataload(0x00))\n      dup1\n      0x49dcbc5e\n      eq\n      tag_3\n      jumpi\n      dup1\n      0xbb0bcade\n      eq\n      tag_4\n      jumpi\n      dup1\n      0xe9bb84c2\n      eq\n      tag_5\n      jumpi\n    tag_2:\n      revert(0x00, 0x00)\n        /* \"solidity\\xe9\\x87\\x91\\xe8\\x9e\\x8d\\xe5\\x92\\x8c\\xe6\\x94\\xaf\\xe4\\xbb\\x98/\\xe5\\x8f\\x91\\xe9\\x80\\x81\\xe4\\xbb\\xa5\\xe5\\xa4\\xaa\\xe5\\xb8\\x81transfer\\xe3\\x80\\x81send\\xe3\\x80\\x81call.sol\":865:1015  function sendEth(address payable  to, uint amount) external {... */\n    tag_3:\n      tag_6\n      0x04\n      dup1\n      calldatasize\n      sub\n      dup2\n      add\n      swap1\n      tag_7\n      swap2\n      swap1\n      tag_8\n      jump\t// in\n    tag_7:\n      tag_9\n      jump\t// in\n    tag_6:\n      stop\n        /* \"solidity\\xe9\\x87\\x91\\xe8\\x9e\\x8d\\xe5\\x92\\x8c\\xe6\\x94\\xaf\\xe4\\xbb\\x98/\\xe5\\x8f\\x91\\xe9\\x80\\x81\\xe4\\xbb\\xa5\\xe5\\xa4\\xaa\\xe5\\xb8\\x81transfer\\xe3\\x80\\x81send\\xe3\\x80\\x81call.sol\":1023:1228  function callEth(address payable to,uint amount) external returns(bool) {... */\n    tag_4:\n      tag_10\n      0x04\n      dup1\n      calldatasize\n      sub\n      dup2\n      add\n      swap1\n      tag_11\n      swap2\n      swap1\n      tag_8\n      jump\t// in\n    tag_11:\n      tag_12\n      jump\t// in\n    tag_10:\n      mload(0x40)\n      tag_13\n      swap2\n      swap1\n      tag_14\n      jump\t// in\n    tag_13:\n      mload(0x40)\n      dup1\n      swap2\n      sub\n      swap1\n      return\n        /* \"solidity\\xe9\\x87\\x91\\xe8\\x9e\\x8d\\xe5\\x92\\x8c\\xe6\\x94\\xaf\\xe4\\xbb\\x98/\\xe5\\x8f\\x91\\xe9\\x80\\x81\\xe4\\xbb\\xa5\\xe5\\xa4\\xaa\\xe5\\xb8\\x81transfer\\xe3\\x80\\x81send\\xe3\\x80\\x81call.sol\":754:856  function transferEth(address payable  to, uint amount) external {... */\n    tag_5:\n      tag_15\n      0x04\n      dup1\n      calldatasize\n      sub\n      dup2\n      add\n      swap1\n      tag_16\n      swap2\n      swap1\n      tag_8\n      jump\t// in\n    tag_16:\n      tag_17\n      jump\t// in\n    tag_15:\n      stop\n        /* \"solidity\\xe9\\x87\\x91\\xe8\\x9e\\x8d\\xe5\\x92\\x8c\\xe6\\x94\\xaf\\xe4\\xbb\\x98/\\xe5\\x8f\\x91\\xe9\\x80\\x81\\xe4\\xbb\\xa5\\xe5\\xa4\\xaa\\xe5\\xb8\\x81transfer\\xe3\\x80\\x81send\\xe3\\x80\\x81call.sol\":865:1015  function sendEth(address payable  to, uint amount) external {... */\n    tag_9:\n        /* \"solidity\\xe9\\x87\\x91\\xe8\\x9e\\x8d\\xe5\\x92\\x8c\\xe6\\x94\\xaf\\xe4\\xbb\\x98/\\xe5\\x8f\\x91\\xe9\\x80\\x81\\xe4\\xbb\\xa5\\xe5\\xa4\\xaa\\xe5\\xb8\\x81transfer\\xe3\\x80\\x81send\\xe3\\x80\\x81call.sol\":935:947  bool success */\n      0x00\n        /* \"solidity\\xe9\\x87\\x91\\xe8\\x9e\\x8d\\xe5\\x92\\x8c\\xe6\\x94\\xaf\\xe4\\xbb\\x98/\\xe5\\x8f\\x91\\xe9\\x80\\x81\\xe4\\xbb\\xa5\\xe5\\xa4\\xaa\\xe5\\xb8\\x81transfer\\xe3\\x80\\x81send\\xe3\\x80\\x81call.sol\":951:953  to */\n      dup3\n        /* \"solidity\\xe9\\x87\\x91\\xe8\\x9e\\x8d\\xe5\\x92\\x8c\\xe6\\x94\\xaf\\xe4\\xbb\\x98/\\xe5\\x8f\\x91\\xe9\\x80\\x81\\xe4\\xbb\\xa5\\xe5\\xa4\\xaa\\xe5\\xb8\\x81transfer\\xe3\\x80\\x81send\\xe3\\x80\\x81call.sol\":951:958  to.send */\n      0xffffffffffffffffffffffffffffffffffffffff\n      and\n        /* \"solidity\\xe9\\x87\\x91\\xe8\\x9e\\x8d\\xe5\\x92\\x8c\\xe6\\x94\\xaf\\xe4\\xbb\\x98/\\xe5\\x8f\\x91\\xe9\\x80\\x81\\xe4\\xbb\\xa5\\xe5\\xa4\\xaa\\xe5\\xb8\\x81transfer\\xe3\\x80\\x81send\\xe3\\x80\\x81call.sol\":951:966  to.send(amount) */\n      0x08fc\n        /* \"solidity\\xe9\\x87\\x91\\xe8\\x9e\\x8d\\xe5\\x92\\x8c\\xe6\\x94\\xaf\\xe4\\xbb\\x98/\\xe5\\x8f\\x91\\xe9\\x80\\x81\\xe4\\xbb\\xa5\\xe5\\xa4\\xaa\\xe5\\xb8\\x81transfer\\xe3\\x80\\x81send\\xe3\\x80\\x81call.sol\":959:965  amount */\n      dup4\n        /* \"solidity\\xe9\\x87\\x91\\xe8\\x9e\\x8d\\xe5\\x92\\x8c\\xe6\\x94\\xaf\\xe4\\xbb\\x98/\\xe5\\x8f\\x91\\xe9\\x80\\x81\\xe4\\xbb\\xa5\\xe5\\xa4\\xaa\\xe5\\xb8\\x81transfer\\xe3\\x80\\x81send\\xe3\\x80\\x81call.sol\":951:966  to.send(amount) */\n      swap1\n      dup2\n      iszero\n      mul\n      swap1\n      mload(0x40)\n      0x00\n      mload(0x40)\n      dup1\n      dup4\n      sub\n      dup2\n      dup6\n      dup9\n      dup9\n      call\n      swap4\n      pop\n      pop\n      pop\n      pop\n        /* \"solidity\\xe9\\x87\\x91\\xe8\\x9e\\x8d\\xe5\\x92\\x8c\\xe6\\x94\\xaf\\xe4\\xbb\\x98/\\xe5\\x8f\\x91\\xe9\\x80\\x81\\xe4\\xbb\\xa5\\xe5\\xa4\\xaa\\xe5\\xb8\\x81transfer\\xe3\\x80\\x81send\\xe3\\x80\\x81call.sol\":935:966  bool success =  to.send(amount) */\n      swap1\n      pop\n        /* \"solidity\\xe9\\x87\\x91\\xe8\\x9e\\x8d\\xe5\\x92\\x8c\\xe6\\x94\\xaf\\xe4\\xbb\\x98/\\xe5\\x8f\\x91\\xe9\\x80\\x81\\xe4\\xbb\\xa5\\xe5\\xa4\\xaa\\xe5\\xb8\\x81transfer\\xe3\\x80\\x81send\\xe3\\x80\\x81call.sol\":984:991  success */\n      dup1\n        /* \"solidity\\xe9\\x87\\x91\\xe8\\x9e\\x8d\\xe5\\x92\\x8c\\xe6\\x94\\xaf\\xe4\\xbb\\x98/\\xe5\\x8f\\x91\\xe9\\x80\\x81\\xe4\\xbb\\xa5\\xe5\\xa4\\xaa\\xe5\\xb8\\x81transfer\\xe3\\x80\\x81send\\xe3\\x80\\x81call.sol\":976:1007  require(success, \"send failed\") */\n      tag_20\n      jumpi\n      mload(0x40)\n      0x08c379a000000000000000000000000000000000000000000000000000000000\n      dup2\n      mstore\n      0x04\n      add\n      tag_21\n      swap1\n      tag_22\n      jump\t// in\n    tag_21:\n      mload(0x40)\n      dup1\n      swap2\n      sub\n      swap1\n      revert\n    tag_20:\n        /* \"solidity\\xe9\\x87\\x91\\xe8\\x9e\\x8d\\xe5\\x92\\x8c\\xe6\\x94\\xaf\\xe4\\xbb\\x98/\\xe5\\x8f\\x91\\xe9\\x80\\x81\\xe4\\xbb\\xa5\\xe5\\xa4\\xaa\\xe5\\xb8\\x81transfer\\xe3\\x80\\x81send\\xe3\\x80\\x81call.sol\":925:1015  {... */\n      pop\n        /* \"solidity\\xe9\\x87\\x91\\xe8\\x9e\\x8d\\xe5\\x92\\x8c\\xe6\\x94\\xaf\\xe4\\xbb\\x98/\\xe5\\x8f\\x91\\xe9\\x80\\x81\\xe4\\xbb\\xa5\\xe5\\xa4\\xaa\\xe5\\xb8\\x81transfer\\xe3\\x80\\x81send\\xe3\\x80\\x81call.sol\":865:1015  function sendEth(address payable  to, uint amount) external {... */\n      pop\n      pop\n      jump\t// out\n        /* \"solidity\\xe9\\x87\\x91\\xe8\\x9e\\x8d\\xe5\\x92\\x8c\\xe6\\x94\\xaf\\xe4\\xbb\\x98/\\xe5\\x8f\\x91\\xe9\\x80\\x81\\xe4\\xbb\\xa5\\xe5\\xa4\\xaa\\xe5\\xb8\\x81transfer\\xe3\\x80\\x81send\\xe3\\x80\\x81call.sol\":1023:1228  function callEth(address payable to,uint amount) external returns(bool) {... */\n    tag_12:\n        /* \"solidity\\xe9\\x87\\x91\\xe8\\x9e\\x8d\\xe5\\x92\\x8c\\xe6\\x94\\xaf\\xe4\\xbb\\x98/\\xe5\\x8f\\x91\\xe9\\x80\\x81\\xe4\\xbb\\xa5\\xe5\\xa4\\xaa\\xe5\\xb8\\x81transfer\\xe3\\x80\\x81send\\xe3\\x80\\x81call.sol\":1089:1093  bool */\n      0x00\n        /* \"solidity\\xe9\\x87\\x91\\xe8\\x9e\\x8d\\xe5\\x92\\x8c\\xe6\\x94\\xaf\\xe4\\xbb\\x98/\\xe5\\x8f\\x91\\xe9\\x80\\x81\\xe4\\xbb\\xa5\\xe5\\xa4\\xaa\\xe5\\xb8\\x81transfer\\xe3\\x80\\x81send\\xe3\\x80\\x81call.sol\":1107:1119  bool success */\n      0x00\n        /* \"solidity\\xe9\\x87\\x91\\xe8\\x9e\\x8d\\xe5\\x92\\x8c\\xe6\\x94\\xaf\\xe4\\xbb\\x98/\\xe5\\x8f\\x91\\xe9\\x80\\x81\\xe4\\xbb\\xa5\\xe5\\xa4\\xaa\\xe5\\xb8\\x81transfer\\xe3\\x80\\x81send\\xe3\\x80\\x81call.sol\":1125:1127  to */\n      dup4\n        /* \"solidity\\xe9\\x87\\x91\\xe8\\x9e\\x8d\\xe5\\x92\\x8c\\xe6\\x94\\xaf\\xe4\\xbb\\x98/\\xe5\\x8f\\x91\\xe9\\x80\\x81\\xe4\\xbb\\xa5\\xe5\\xa4\\xaa\\xe5\\xb8\\x81transfer\\xe3\\x80\\x81send\\xe3\\x80\\x81call.sol\":1125:1132  to.call */\n      0xffffffffffffffffffffffffffffffffffffffff\n      and\n        /* \"solidity\\xe9\\x87\\x91\\xe8\\x9e\\x8d\\xe5\\x92\\x8c\\xe6\\x94\\xaf\\xe4\\xbb\\x98/\\xe5\\x8f\\x91\\xe9\\x80\\x81\\xe4\\xbb\\xa5\\xe5\\xa4\\xaa\\xe5\\xb8\\x81transfer\\xe3\\x80\\x81send\\xe3\\x80\\x81call.sol\":1140:1146  amount */\n      dup4\n        /* \"solidity\\xe9\\x87\\x91\\xe8\\x9e\\x8d\\xe5\\x92\\x8c\\xe6\\x94\\xaf\\xe4\\xbb\\x98/\\xe5\\x8f\\x91\\xe9\\x80\\x81\\xe4\\xbb\\xa5\\xe5\\xa4\\xaa\\xe5\\xb8\\x81transfer\\xe3\\x80\\x81send\\xe3\\x80\\x81call.sol\":1125:1151  to.call{value: amount}(\"\") */\n      mload(0x40)\n      tag_24\n      swap1\n      tag_25\n      jump\t// in\n    tag_24:\n      0x00\n      mload(0x40)\n      dup1\n      dup4\n      sub\n      dup2\n      dup6\n      dup8\n      gas\n      call\n      swap3\n      pop\n      pop\n      pop\n      returndatasize\n      dup1\n      0x00\n      dup2\n      eq\n      tag_28\n      jumpi\n      mload(0x40)\n      swap2\n      pop\n      and(add(returndatasize, 0x3f), not(0x1f))\n      dup3\n      add\n      0x40\n      mstore\n      returndatasize\n      dup3\n      mstore\n      returndatasize\n      0x00\n      0x20\n      dup5\n      add\n      returndatacopy\n      jump(tag_27)\n    tag_28:\n      0x60\n      swap2\n      pop\n    tag_27:\n      pop\n        /* \"solidity\\xe9\\x87\\x91\\xe8\\x9e\\x8d\\xe5\\x92\\x8c\\xe6\\x94\\xaf\\xe4\\xbb\\x98/\\xe5\\x8f\\x91\\xe9\\x80\\x81\\xe4\\xbb\\xa5\\xe5\\xa4\\xaa\\xe5\\xb8\\x81transfer\\xe3\\x80\\x81send\\xe3\\x80\\x81call.sol\":1106:1151  (bool success, ) = to.call{value: amount}(\"\") */\n      pop\n      swap1\n      pop\n        /* \"solidity\\xe9\\x87\\x91\\xe8\\x9e\\x8d\\xe5\\x92\\x8c\\xe6\\x94\\xaf\\xe4\\xbb\\x98/\\xe5\\x8f\\x91\\xe9\\x80\\x81\\xe4\\xbb\\xa5\\xe5\\xa4\\xaa\\xe5\\xb8\\x81transfer\\xe3\\x80\\x81send\\xe3\\x80\\x81call.sol\":1170:1177  success */\n      dup1\n        /* \"solidity\\xe9\\x87\\x91\\xe8\\x9e\\x8d\\xe5\\x92\\x8c\\xe6\\x94\\xaf\\xe4\\xbb\\x98/\\xe5\\x8f\\x91\\xe9\\x80\\x81\\xe4\\xbb\\xa5\\xe5\\xa4\\xaa\\xe5\\xb8\\x81transfer\\xe3\\x80\\x81send\\xe3\\x80\\x81call.sol\":1162:1193  require(success, \"Call failed\") */\n      tag_29\n      jumpi\n      mload(0x40)\n      0x08c379a000000000000000000000000000000000000000000000000000000000\n      dup2\n      mstore\n      0x04\n      add\n      tag_30\n      swap1\n      tag_31\n      jump\t// in\n    tag_30:\n      mload(0x40)\n      dup1\n      swap2\n      sub\n      swap1\n      revert\n    tag_29:\n        /* \"solidity\\xe9\\x87\\x91\\xe8\\x9e\\x8d\\xe5\\x92\\x8c\\xe6\\x94\\xaf\\xe4\\xbb\\x98/\\xe5\\x8f\\x91\\xe9\\x80\\x81\\xe4\\xbb\\xa5\\xe5\\xa4\\xaa\\xe5\\xb8\\x81transfer\\xe3\\x80\\x81send\\xe3\\x80\\x81call.sol\":1211:1218  success */\n      dup1\n        /* \"solidity\\xe9\\x87\\x91\\xe8\\x9e\\x8d\\xe5\\x92\\x8c\\xe6\\x94\\xaf\\xe4\\xbb\\x98/\\xe5\\x8f\\x91\\xe9\\x80\\x81\\xe4\\xbb\\xa5\\xe5\\xa4\\xaa\\xe5\\xb8\\x81transfer\\xe3\\x80\\x81send\\xe3\\x80\\x81call.sol\":1204:1218  return success */\n      swap2\n      pop\n      pop\n        /* \"solidity\\xe9\\x87\\x91\\xe8\\x9e\\x8d\\xe5\\x92\\x8c\\xe6\\x94\\xaf\\xe4\\xbb\\x98/\\xe5\\x8f\\x91\\xe9\\x80\\x81\\xe4\\xbb\\xa5\\xe5\\xa4\\xaa\\xe5\\xb8\\x81transfer\\xe3\\x80\\x81send\\xe3\\x80\\x81call.sol\":1023:1228  function callEth(address payable to,uint amount) external returns(bool) {... */\n      swap3\n      swap2\n      pop\n      pop\n      jump\t// out\n        /* \"solidity\\xe9\\x87\\x91\\xe8\\x9e\\x8d\\xe5\\x92\\x8c\\xe6\\x94\\xaf\\xe4\\xbb\\x98/\\xe5\\x8f\\x91\\xe9\\x80\\x81\\xe4\\xbb\\xa5\\xe5\\xa4\\xaa\\xe5\\xb8\\x81transfer\\xe3\\x80\\x81send\\xe3\\x80\\x81call.sol\":754:856  function transferEth(address payable  to, uint amount) external {... */\n    tag_17:\n        /* \"solidity\\xe9\\x87\\x91\\xe8\\x9e\\x8d\\xe5\\x92\\x8c\\xe6\\x94\\xaf\\xe4\\xbb\\x98/\\xe5\\x8f\\x91\\xe9\\x80\\x81\\xe4\\xbb\\xa5\\xe5\\xa4\\xaa\\xe5\\xb8\\x81transfer\\xe3\\x80\\x81send\\xe3\\x80\\x81call.sol\":829:831  to */\n      dup2\n        /* \"solidity\\xe9\\x87\\x91\\xe8\\x9e\\x8d\\xe5\\x92\\x8c\\xe6\\x94\\xaf\\xe4\\xbb\\x98/\\xe5\\x8f\\x91\\xe9\\x80\\x81\\xe4\\xbb\\xa5\\xe5\\xa4\\xaa\\xe5\\xb8\\x81transfer\\xe3\\x80\\x81send\\xe3\\x80\\x81call.sol\":829:840  to.transfer */\n      0xffffffffffffffffffffffffffffffffffffffff\n      and\n        /* \"solidity\\xe9\\x87\\x91\\xe8\\x9e\\x8d\\xe5\\x92\\x8c\\xe6\\x94\\xaf\\xe4\\xbb\\x98/\\xe5\\x8f\\x91\\xe9\\x80\\x81\\xe4\\xbb\\xa5\\xe5\\xa4\\xaa\\xe5\\xb8\\x81transfer\\xe3\\x80\\x81send\\xe3\\x80\\x81call.sol\":829:848  to.transfer(amount) */\n      0x08fc\n        /* \"solidity\\xe9\\x87\\x91\\xe8\\x9e\\x8d\\xe5\\x92\\x8c\\xe6\\x94\\xaf\\xe4\\xbb\\x98/\\xe5\\x8f\\x91\\xe9\\x80\\x81\\xe4\\xbb\\xa5\\xe5\\xa4\\xaa\\xe5\\xb8\\x81transfer\\xe3\\x80\\x81send\\xe3\\x80\\x81call.sol\":841:847  amount */\n      dup3\n        /* \"solidity\\xe9\\x87\\x91\\xe8\\x9e\\x8d\\xe5\\x92\\x8c\\xe6\\x94\\xaf\\xe4\\xbb\\x98/\\xe5\\x8f\\x91\\xe9\\x80\\x81\\xe4\\xbb\\xa5\\xe5\\xa4\\xaa\\xe5\\xb8\\x81transfer\\xe3\\x80\\x81send\\xe3\\x80\\x81call.sol\":829:848  to.transfer(amount) */\n      swap1\n      dup2\n      iszero\n      mul\n      swap1\n      mload(0x40)\n      0x00\n      mload(0x40)\n      dup1\n      dup4\n      sub\n      dup2\n      dup6\n      dup9\n      dup9\n      call\n      swap4\n      pop\n      pop\n      pop\n      pop\n      iszero\n      dup1\n      iszero\n      tag_34\n      jumpi\n      returndatacopy(0x00, 0x00, returndatasize)\n      revert(0x00, returndatasize)\n    tag_34:\n      pop\n        /* \"solidity\\xe9\\x87\\x91\\xe8\\x9e\\x8d\\xe5\\x92\\x8c\\xe6\\x94\\xaf\\xe4\\xbb\\x98/\\xe5\\x8f\\x91\\xe9\\x80\\x81\\xe4\\xbb\\xa5\\xe5\\xa4\\xaa\\xe5\\xb8\\x81transfer\\xe3\\x80\\x81send\\xe3\\x80\\x81call.sol\":754:856  function transferEth(address payable  to, uint amount) external {... */\n      pop\n      pop\n      jump\t// out\n        /* \"#utility.yul\":88:205   */\n    tag_36:\n        /* \"#utility.yul\":197:198   */\n      0x00\n        /* \"#utility.yul\":194:195   */\n      0x00\n        /* \"#utility.yul\":187:199   */\n      revert\n        /* \"#utility.yul\":334:460   */\n    tag_38:\n        /* \"#utility.yul\":371:378   */\n      0x00\n        /* \"#utility.yul\":411:453   */\n      0xffffffffffffffffffffffffffffffffffffffff\n        /* \"#utility.yul\":404:409   */\n      dup3\n        /* \"#utility.yul\":400:454   */\n      and\n        /* \"#utility.yul\":389:454   */\n      swap1\n      pop\n        /* \"#utility.yul\":334:460   */\n      swap2\n      swap1\n      pop\n      jump\t// out\n        /* \"#utility.yul\":466:570   */\n    tag_39:\n        /* \"#utility.yul\":511:518   */\n      0x00\n        /* \"#utility.yul\":540:564   */\n      tag_61\n        /* \"#utility.yul\":558:563   */\n      dup3\n        /* \"#utility.yul\":540:564   */\n      tag_38\n      jump\t// in\n    tag_61:\n        /* \"#utility.yul\":529:564   */\n      swap1\n      pop\n        /* \"#utility.yul\":466:570   */\n      swap2\n      swap1\n      pop\n      jump\t// out\n        /* \"#utility.yul\":576:714   */\n    tag_40:\n        /* \"#utility.yul\":657:689   */\n      tag_63\n        /* \"#utility.yul\":683:688   */\n      dup2\n        /* \"#utility.yul\":657:689   */\n      tag_39\n      jump\t// in\n    tag_63:\n        /* \"#utility.yul\":650:655   */\n      dup2\n        /* \"#utility.yul\":647:690   */\n      eq\n        /* \"#utility.yul\":637:708   */\n      tag_64\n      jumpi\n        /* \"#utility.yul\":704:705   */\n      0x00\n        /* \"#utility.yul\":701:702   */\n      0x00\n        /* \"#utility.yul\":694:706   */\n      revert\n        /* \"#utility.yul\":637:708   */\n    tag_64:\n        /* \"#utility.yul\":576:714   */\n      pop\n      jump\t// out\n        /* \"#utility.yul\":720:875   */\n    tag_41:\n        /* \"#utility.yul\":774:779   */\n      0x00\n        /* \"#utility.yul\":812:818   */\n      dup2\n        /* \"#utility.yul\":799:819   */\n      calldataload\n        /* \"#utility.yul\":790:819   */\n      swap1\n      pop\n        /* \"#utility.yul\":828:869   */\n      tag_66\n        /* \"#utility.yul\":863:868   */\n      dup2\n        /* \"#utility.yul\":828:869   */\n      tag_40\n      jump\t// in\n    tag_66:\n        /* \"#utility.yul\":720:875   */\n      swap3\n      swap2\n      pop\n      pop\n      jump\t// out\n        /* \"#utility.yul\":881:958   */\n    tag_42:\n        /* \"#utility.yul\":918:925   */\n      0x00\n        /* \"#utility.yul\":947:952   */\n      dup2\n        /* \"#utility.yul\":936:952   */\n      swap1\n      pop\n        /* \"#utility.yul\":881:958   */\n      swap2\n      swap1\n      pop\n      jump\t// out\n        /* \"#utility.yul\":964:1086   */\n    tag_43:\n        /* \"#utility.yul\":1037:1061   */\n      tag_69\n        /* \"#utility.yul\":1055:1060   */\n      dup2\n        /* \"#utility.yul\":1037:1061   */\n      tag_42\n      jump\t// in\n    tag_69:\n        /* \"#utility.yul\":1030:1035   */\n      dup2\n        /* \"#utility.yul\":1027:1062   */\n      eq\n        /* \"#utility.yul\":1017:1080   */\n      tag_70\n      jumpi\n        /* \"#utility.yul\":1076:1077   */\n      0x00\n        /* \"#utility.yul\":1073:1074   */\n      0x00\n        /* \"#utility.yul\":1066:1078   */\n      revert\n        /* \"#utility.yul\":1017:1080   */\n    tag_70:\n        /* \"#utility.yul\":964:1086   */\n      pop\n      jump\t// out\n        /* \"#utility.yul\":1092:1231   */\n    tag_44:\n        /* \"#utility.yul\":1138:1143   */\n      0x00\n        /* \"#utility.yul\":1176:1182   */\n      dup2\n        /* \"#utility.yul\":1163:1183   */\n      calldataload\n        /* \"#utility.yul\":1154:1183   */\n      swap1\n      pop\n        /* \"#utility.yul\":1192:1225   */\n      tag_72\n        /* \"#utility.yul\":1219:1224   */\n      dup2\n        /* \"#utility.yul\":1192:1225   */\n      tag_43\n      jump\t// in\n    tag_72:\n        /* \"#utility.yul\":1092:1231   */\n      swap3\n      swap2\n      pop\n      pop\n      jump\t// out\n        /* \"#utility.yul\":1237:1727   */\n    tag_8:\n        /* \"#utility.yul\":1313:1319   */\n      0x00\n        /* \"#utility.yul\":1321:1327   */\n      0x00\n        /* \"#utility.yul\":1370:1372   */\n      0x40\n        /* \"#utility.yul\":1358:1367   */\n      dup4\n        /* \"#utility.yul\":1349:1356   */\n      dup6\n        /* \"#utility.yul\":1345:1368   */\n      sub\n        /* \"#utility.yul\":1341:1373   */\n      slt\n        /* \"#utility.yul\":1338:1457   */\n      iszero\n      tag_74\n      jumpi\n        /* \"#utility.yul\":1376:1455   */\n      tag_75\n      tag_36\n      jump\t// in\n    tag_75:\n        /* \"#utility.yul\":1338:1457   */\n    tag_74:\n        /* \"#utility.yul\":1496:1497   */\n      0x00\n        /* \"#utility.yul\":1521:1582   */\n      tag_76\n        /* \"#utility.yul\":1574:1581   */\n      dup6\n        /* \"#utility.yul\":1565:1571   */\n      dup3\n        /* \"#utility.yul\":1554:1563   */\n      dup7\n        /* \"#utility.yul\":1550:1572   */\n      add\n        /* \"#utility.yul\":1521:1582   */\n      tag_41\n      jump\t// in\n    tag_76:\n        /* \"#utility.yul\":1511:1582   */\n      swap3\n      pop\n        /* \"#utility.yul\":1467:1592   */\n      pop\n        /* \"#utility.yul\":1631:1633   */\n      0x20\n        /* \"#utility.yul\":1657:1710   */\n      tag_77\n        /* \"#utility.yul\":1702:1709   */\n      dup6\n        /* \"#utility.yul\":1693:1699   */\n      dup3\n        /* \"#utility.yul\":1682:1691   */\n      dup7\n        /* \"#utility.yul\":1678:1700   */\n      add\n        /* \"#utility.yul\":1657:1710   */\n      tag_44\n      jump\t// in\n    tag_77:\n        /* \"#utility.yul\":1647:1710   */\n      swap2\n      pop\n        /* \"#utility.yul\":1602:1720   */\n      pop\n        /* \"#utility.yul\":1237:1727   */\n      swap3\n      pop\n      swap3\n      swap1\n      pop\n      jump\t// out\n        /* \"#utility.yul\":1733:1823   */\n    tag_45:\n        /* \"#utility.yul\":1767:1774   */\n      0x00\n        /* \"#utility.yul\":1810:1815   */\n      dup2\n        /* \"#utility.yul\":1803:1816   */\n      iszero\n        /* \"#utility.yul\":1796:1817   */\n      iszero\n        /* \"#utility.yul\":1785:1817   */\n      swap1\n      pop\n        /* \"#utility.yul\":1733:1823   */\n      swap2\n      swap1\n      pop\n      jump\t// out\n        /* \"#utility.yul\":1829:1938   */\n    tag_46:\n        /* \"#utility.yul\":1910:1931   */\n      tag_80\n        /* \"#utility.yul\":1925:1930   */\n      dup2\n        /* \"#utility.yul\":1910:1931   */\n      tag_45\n      jump\t// in\n    tag_80:\n        /* \"#utility.yul\":1905:1908   */\n      dup3\n        /* \"#utility.yul\":1898:1932   */\n      mstore\n        /* \"#utility.yul\":1829:1938   */\n      pop\n      pop\n      jump\t// out\n        /* \"#utility.yul\":1944:2154   */\n    tag_14:\n        /* \"#utility.yul\":2031:2035   */\n      0x00\n        /* \"#utility.yul\":2069:2071   */\n      0x20\n        /* \"#utility.yul\":2058:2067   */\n      dup3\n        /* \"#utility.yul\":2054:2072   */\n      add\n        /* \"#utility.yul\":2046:2072   */\n      swap1\n      pop\n        /* \"#utility.yul\":2082:2147   */\n      tag_82\n        /* \"#utility.yul\":2144:2145   */\n      0x00\n        /* \"#utility.yul\":2133:2142   */\n      dup4\n        /* \"#utility.yul\":2129:2146   */\n      add\n        /* \"#utility.yul\":2120:2126   */\n      dup5\n        /* \"#utility.yul\":2082:2147   */\n      tag_46\n      jump\t// in\n    tag_82:\n        /* \"#utility.yul\":1944:2154   */\n      swap3\n      swap2\n      pop\n      pop\n      jump\t// out\n        /* \"#utility.yul\":2160:2329   */\n    tag_47:\n        /* \"#utility.yul\":2244:2255   */\n      0x00\n        /* \"#utility.yul\":2278:2284   */\n      dup3\n        /* \"#utility.yul\":2273:2276   */\n      dup3\n        /* \"#utility.yul\":2266:2285   */\n      mstore\n        /* \"#utility.yul\":2318:2322   */\n      0x20\n        /* \"#utility.yul\":2313:2316   */\n      dup3\n        /* \"#utility.yul\":2309:2323   */\n      add\n        /* \"#utility.yul\":2294:2323   */\n      swap1\n      pop\n        /* \"#utility.yul\":2160:2329   */\n      swap3\n      swap2\n      pop\n      pop\n      jump\t// out\n        /* \"#utility.yul\":2335:2496   */\n    tag_48:\n        /* \"#utility.yul\":2475:2488   */\n      0x73656e64206661696c6564000000000000000000000000000000000000000000\n        /* \"#utility.yul\":2471:2472   */\n      0x00\n        /* \"#utility.yul\":2463:2469   */\n      dup3\n        /* \"#utility.yul\":2459:2473   */\n      add\n        /* \"#utility.yul\":2452:2489   */\n      mstore\n        /* \"#utility.yul\":2335:2496   */\n      pop\n      jump\t// out\n        /* \"#utility.yul\":2502:2868   */\n    tag_49:\n        /* \"#utility.yul\":2644:2647   */\n      0x00\n        /* \"#utility.yul\":2665:2732   */\n      tag_86\n        /* \"#utility.yul\":2729:2731   */\n      0x0b\n        /* \"#utility.yul\":2724:2727   */\n      dup4\n        /* \"#utility.yul\":2665:2732   */\n      tag_47\n      jump\t// in\n    tag_86:\n        /* \"#utility.yul\":2658:2732   */\n      swap2\n      pop\n        /* \"#utility.yul\":2741:2834   */\n      tag_87\n        /* \"#utility.yul\":2830:2833   */\n      dup3\n        /* \"#utility.yul\":2741:2834   */\n      tag_48\n      jump\t// in\n    tag_87:\n        /* \"#utility.yul\":2859:2861   */\n      0x20\n        /* \"#utility.yul\":2854:2857   */\n      dup3\n        /* \"#utility.yul\":2850:2862   */\n      add\n        /* \"#utility.yul\":2843:2862   */\n      swap1\n      pop\n        /* \"#utility.yul\":2502:2868   */\n      swap2\n      swap1\n      pop\n      jump\t// out\n        /* \"#utility.yul\":2874:3293   */\n    tag_22:\n        /* \"#utility.yul\":3040:3044   */\n      0x00\n        /* \"#utility.yul\":3078:3080   */\n      0x20\n        /* \"#utility.yul\":3067:3076   */\n      dup3\n        /* \"#utility.yul\":3063:3081   */\n      add\n        /* \"#utility.yul\":3055:3081   */\n      swap1\n      pop\n        /* \"#utility.yul\":3127:3136   */\n      dup2\n        /* \"#utility.yul\":3121:3125   */\n      dup2\n        /* \"#utility.yul\":3117:3137   */\n      sub\n        /* \"#utility.yul\":3113:3114   */\n      0x00\n        /* \"#utility.yul\":3102:3111   */\n      dup4\n        /* \"#utility.yul\":3098:3115   */\n      add\n        /* \"#utility.yul\":3091:3138   */\n      mstore\n        /* \"#utility.yul\":3155:3286   */\n      tag_89\n        /* \"#utility.yul\":3281:3285   */\n      dup2\n        /* \"#utility.yul\":3155:3286   */\n      tag_49\n      jump\t// in\n    tag_89:\n        /* \"#utility.yul\":3147:3286   */\n      swap1\n      pop\n        /* \"#utility.yul\":2874:3293   */\n      swap2\n      swap1\n      pop\n      jump\t// out\n        /* \"#utility.yul\":3299:3446   */\n    tag_50:\n        /* \"#utility.yul\":3400:3411   */\n      0x00\n        /* \"#utility.yul\":3437:3440   */\n      dup2\n        /* \"#utility.yul\":3422:3440   */\n      swap1\n      pop\n        /* \"#utility.yul\":3299:3446   */\n      swap3\n      swap2\n      pop\n      pop\n      jump\t// out\n        /* \"#utility.yul\":3452:3566   */\n    tag_51:\n      pop\n      jump\t// out\n        /* \"#utility.yul\":3572:3970   */\n    tag_52:\n        /* \"#utility.yul\":3731:3734   */\n      0x00\n        /* \"#utility.yul\":3752:3835   */\n      tag_93\n        /* \"#utility.yul\":3833:3834   */\n      0x00\n        /* \"#utility.yul\":3828:3831   */\n      dup4\n        /* \"#utility.yul\":3752:3835   */\n      tag_50\n      jump\t// in\n    tag_93:\n        /* \"#utility.yul\":3745:3835   */\n      swap2\n      pop\n        /* \"#utility.yul\":3844:3937   */\n      tag_94\n        /* \"#utility.yul\":3933:3936   */\n      dup3\n        /* \"#utility.yul\":3844:3937   */\n      tag_51\n      jump\t// in\n    tag_94:\n        /* \"#utility.yul\":3962:3963   */\n      0x00\n        /* \"#utility.yul\":3957:3960   */\n      dup3\n        /* \"#utility.yul\":3953:3964   */\n      add\n        /* \"#utility.yul\":3946:3964   */\n      swap1\n      pop\n        /* \"#utility.yul\":3572:3970   */\n      swap2\n      swap1\n      pop\n      jump\t// out\n        /* \"#utility.yul\":3976:4355   */\n    tag_25:\n        /* \"#utility.yul\":4160:4163   */\n      0x00\n        /* \"#utility.yul\":4182:4329   */\n      tag_96\n        /* \"#utility.yul\":4325:4328   */\n      dup3\n        /* \"#utility.yul\":4182:4329   */\n      tag_52\n      jump\t// in\n    tag_96:\n        /* \"#utility.yul\":4175:4329   */\n      swap2\n      pop\n        /* \"#utility.yul\":4346:4349   */\n      dup2\n        /* \"#utility.yul\":4339:4349   */\n      swap1\n      pop\n        /* \"#utility.yul\":3976:4355   */\n      swap2\n      swap1\n      pop\n      jump\t// out\n        /* \"#utility.yul\":4361:4522   */\n    tag_53:\n        /* \"#utility.yul\":4501:4514   */\n      0x43616c6c206661696c6564000000000000000000000000000000000000000000\n        /* \"#utility.yul\":4497:4498   */\n      0x00\n        /* \"#utility.yul\":4489:4495   */\n      dup3\n        /* \"#utility.yul\":4485:4499   */\n      add\n        /* \"#utility.yul\":4478:4515   */\n      mstore\n        /* \"#utility.yul\":4361:4522   */\n      pop\n      jump\t// out\n        /* \"#utility.yul\":4528:4894   */\n    tag_54:\n        /* \"#utility.yul\":4670:4673   */\n      0x00\n        /* \"#utility.yul\":4691:4758   */\n      tag_99\n        /* \"#utility.yul\":4755:4757   */\n      0x0b\n        /* \"#utility.yul\":4750:4753   */\n      dup4\n        /* \"#utility.yul\":4691:4758   */\n      tag_47\n      jump\t// in\n    tag_99:\n        /* \"#utility.yul\":4684:4758   */\n      swap2\n      pop\n        /* \"#utility.yul\":4767:4860   */\n      tag_100\n        /* \"#utility.yul\":4856:4859   */\n      dup3\n        /* \"#utility.yul\":4767:4860   */\n      tag_53\n      jump\t// in\n    tag_100:\n        /* \"#utility.yul\":4885:4887   */\n      0x20\n        /* \"#utility.yul\":4880:4883   */\n      dup3\n        /* \"#utility.yul\":4876:4888   */\n      add\n        /* \"#utility.yul\":4869:4888   */\n      swap1\n      pop\n        /* \"#utility.yul\":4528:4894   */\n      swap2\n      swap1\n      pop\n      jump\t// out\n        /* \"#utility.yul\":4900:5319   */\n    tag_31:\n        /* \"#utility.yul\":5066:5070   */\n      0x00\n        /* \"#utility.yul\":5104:5106   */\n      0x20\n        /* \"#utility.yul\":5093:5102   */\n      dup3\n        /* \"#utility.yul\":5089:5107   */\n      add\n        /* \"#utility.yul\":5081:5107   */\n      swap1\n      pop\n        /* \"#utility.yul\":5153:5162   */\n      dup2\n        /* \"#utility.yul\":5147:5151   */\n      dup2\n        /* \"#utility.yul\":5143:5163   */\n      sub\n        /* \"#utility.yul\":5139:5140   */\n      0x00\n        /* \"#utility.yul\":5128:5137   */\n      dup4\n        /* \"#utility.yul\":5124:5141   */\n      add\n        /* \"#utility.yul\":5117:5164   */\n      mstore\n        /* \"#utility.yul\":5181:5312   */\n      tag_102\n        /* \"#utility.yul\":5307:5311   */\n      dup2\n        /* \"#utility.yul\":5181:5312   */\n      tag_54\n      jump\t// in\n    tag_102:\n        /* \"#utility.yul\":5173:5312   */\n      swap1\n      pop\n        /* \"#utility.yul\":4900:5319   */\n      swap2\n      swap1\n      pop\n      jump\t// out\n\n    auxdata: 0xa264697066735822122088e6241bf817dd0cf40124091e5accb4e1c8c3111d3b3abfd782e7328ad7bd3764736f6c63430008220033\n}\n",
				"bytecode": {
					"linkReferences": {},
					"object": "608060405261047b806100115f395ff3fe608060405234801561000f575f5ffd5b506004361061003f575f3560e01c806349dcbc5e14610043578063bb0bcade1461005f578063e9bb84c21461008f575b5f5ffd5b61005d600480360381019061005891906102b3565b6100ab565b005b610079600480360381019061007491906102b3565b610127565b604051610086919061030b565b60405180910390f35b6100a960048036038101906100a491906102b3565b6101da565b005b5f8273ffffffffffffffffffffffffffffffffffffffff166108fc8390811502906040515f60405180830381858888f19350505050905080610122576040517f08c379a00000000000000000000000000000000000000000000000000000000081526004016101199061037e565b60405180910390fd5b505050565b5f5f8373ffffffffffffffffffffffffffffffffffffffff168360405161014d906103c9565b5f6040518083038185875af1925050503d805f8114610187576040519150601f19603f3d011682016040523d82523d5f602084013e61018c565b606091505b50509050806101d0576040517f08c379a00000000000000000000000000000000000000000000000000000000081526004016101c790610427565b60405180910390fd5b8091505092915050565b8173ffffffffffffffffffffffffffffffffffffffff166108fc8290811502906040515f60405180830381858888f1935050505015801561021d573d5f5f3e3d5ffd5b505050565b5f5ffd5b5f73ffffffffffffffffffffffffffffffffffffffff82169050919050565b5f61024f82610226565b9050919050565b61025f81610245565b8114610269575f5ffd5b50565b5f8135905061027a81610256565b92915050565b5f819050919050565b61029281610280565b811461029c575f5ffd5b50565b5f813590506102ad81610289565b92915050565b5f5f604083850312156102c9576102c8610222565b5b5f6102d68582860161026c565b92505060206102e78582860161029f565b9150509250929050565b5f8115159050919050565b610305816102f1565b82525050565b5f60208201905061031e5f8301846102fc565b92915050565b5f82825260208201905092915050565b7f73656e64206661696c65640000000000000000000000000000000000000000005f82015250565b5f610368600b83610324565b915061037382610334565b602082019050919050565b5f6020820190508181035f8301526103958161035c565b9050919050565b5f81905092915050565b50565b5f6103b45f8361039c565b91506103bf826103a6565b5f82019050919050565b5f6103d3826103a9565b9150819050919050565b7f43616c6c206661696c65640000000000000000000000000000000000000000005f82015250565b5f610411600b83610324565b915061041c826103dd565b602082019050919050565b5f6020820190508181035f83015261043e81610405565b905091905056fea264697066735822122088e6241bf817dd0cf40124091e5accb4e1c8c3111d3b3abfd782e7328ad7bd3764736f6c63430008220033",
					"opcodes": "PUSH1 0x80 PUSH1 0x40 MSTORE PUSH2 0x47B DUP1 PUSH2 0x11 PUSH0 CODECOPY PUSH0 RETURN INVALID PUSH1 0x80 PUSH1 0x40 MSTORE CALLVALUE DUP1 ISZERO PUSH2 0xF JUMPI PUSH0 PUSH0 REVERT JUMPDEST POP PUSH1 0x4 CALLDATASIZE LT PUSH2 0x3F JUMPI PUSH0 CALLDATALOAD PUSH1 0xE0 SHR DUP1 PUSH4 0x49DCBC5E EQ PUSH2 0x43 JUMPI DUP1 PUSH4 0xBB0BCADE EQ PUSH2 0x5F JUMPI DUP1 PUSH4 0xE9BB84C2 EQ PUSH2 0x8F JUMPI JUMPDEST PUSH0 PUSH0 REVERT JUMPDEST PUSH2 0x5D PUSH1 0x4 DUP1 CALLDATASIZE SUB DUP2 ADD SWAP1 PUSH2 0x58 SWAP2 SWAP1 PUSH2 0x2B3 JUMP JUMPDEST PUSH2 0xAB JUMP JUMPDEST STOP JUMPDEST PUSH2 0x79 PUSH1 0x4 DUP1 CALLDATASIZE SUB DUP2 ADD SWAP1 PUSH2 0x74 SWAP2 SWAP1 PUSH2 0x2B3 JUMP JUMPDEST PUSH2 0x127 JUMP JUMPDEST PUSH1 0x40 MLOAD PUSH2 0x86 SWAP2 SWAP1 PUSH2 0x30B JUMP JUMPDEST PUSH1 0x40 MLOAD DUP1 SWAP2 SUB SWAP1 RETURN JUMPDEST PUSH2 0xA9 PUSH1 0x4 DUP1 CALLDATASIZE SUB DUP2 ADD SWAP1 PUSH2 0xA4 SWAP2 SWAP1 PUSH2 0x2B3 JUMP JUMPDEST PUSH2 0x1DA JUMP JUMPDEST STOP JUMPDEST PUSH0 DUP3 PUSH20 0xFFFFFFFFFFFFFFFFFFFFFFFFFFFFFFFFFFFFFFFF AND PUSH2 0x8FC DUP4 SWAP1 DUP2 ISZERO MUL SWAP1 PUSH1 0x40 MLOAD PUSH0 PUSH1 0x40 MLOAD DUP1 DUP4 SUB DUP2 DUP6 DUP9 DUP9 CALL SWAP4 POP POP POP POP SWAP1 POP DUP1 PUSH2 0x122 JUMPI PUSH1 0x40 MLOAD PUSH32 0x8C379A000000000000000000000000000000000000000000000000000000000 DUP2 MSTORE PUSH1 0x4 ADD PUSH2 0x119 SWAP1 PUSH2 0x37E JUMP JUMPDEST PUSH1 0x40 MLOAD DUP1 SWAP2 SUB SWAP1 REVERT JUMPDEST POP POP POP JUMP JUMPDEST PUSH0 PUSH0 DUP4 PUSH20 0xFFFFFFFFFFFFFFFFFFFFFFFFFFFFFFFFFFFFFFFF AND DUP4 PUSH1 0x40 MLOAD PUSH2 0x14D SWAP1 PUSH2 0x3C9 JUMP JUMPDEST PUSH0 PUSH1 0x40 MLOAD DUP1 DUP4 SUB DUP2 DUP6 DUP8 GAS CALL SWAP3 POP POP POP RETURNDATASIZE DUP1 PUSH0 DUP2 EQ PUSH2 0x187 JUMPI PUSH1 0x40 MLOAD SWAP2 POP PUSH1 0x1F NOT PUSH1 0x3F RETURNDATASIZE ADD AND DUP3 ADD PUSH1 0x40 MSTORE RETURNDATASIZE DUP3 MSTORE RETURNDATASIZE PUSH0 PUSH1 0x20 DUP5 ADD RETURNDATACOPY PUSH2 0x18C JUMP JUMPDEST PUSH1 0x60 SWAP2 POP JUMPDEST POP POP SWAP1 POP DUP1 PUSH2 0x1D0 JUMPI PUSH1 0x40 MLOAD PUSH32 0x8C379A000000000000000000000000000000000000000000000000000000000 DUP2 MSTORE PUSH1 0x4 ADD PUSH2 0x1C7 SWAP1 PUSH2 0x427 JUMP JUMPDEST PUSH1 0x40 MLOAD DUP1 SWAP2 SUB SWAP1 REVERT JUMPDEST DUP1 SWAP2 POP POP SWAP3 SWAP2 POP POP JUMP JUMPDEST DUP2 PUSH20 0xFFFFFFFFFFFFFFFFFFFFFFFFFFFFFFFFFFFFFFFF AND PUSH2 0x8FC DUP3 SWAP1 DUP2 ISZERO MUL SWAP1 PUSH1 0x40 MLOAD PUSH0 PUSH1 0x40 MLOAD DUP1 DUP4 SUB DUP2 DUP6 DUP9 DUP9 CALL SWAP4 POP POP POP POP ISZERO DUP1 ISZERO PUSH2 0x21D JUMPI RETURNDATASIZE PUSH0 PUSH0 RETURNDATACOPY RETURNDATASIZE PUSH0 REVERT JUMPDEST POP POP POP JUMP JUMPDEST PUSH0 PUSH0 REVERT JUMPDEST PUSH0 PUSH20 0xFFFFFFFFFFFFFFFFFFFFFFFFFFFFFFFFFFFFFFFF DUP3 AND SWAP1 POP SWAP2 SWAP1 POP JUMP JUMPDEST PUSH0 PUSH2 0x24F DUP3 PUSH2 0x226 JUMP JUMPDEST SWAP1 POP SWAP2 SWAP1 POP JUMP JUMPDEST PUSH2 0x25F DUP2 PUSH2 0x245 JUMP JUMPDEST DUP2 EQ PUSH2 0x269 JUMPI PUSH0 PUSH0 REVERT JUMPDEST POP JUMP JUMPDEST PUSH0 DUP2 CALLDATALOAD SWAP1 POP PUSH2 0x27A DUP2 PUSH2 0x256 JUMP JUMPDEST SWAP3 SWAP2 POP POP JUMP JUMPDEST PUSH0 DUP2 SWAP1 POP SWAP2 SWAP1 POP JUMP JUMPDEST PUSH2 0x292 DUP2 PUSH2 0x280 JUMP JUMPDEST DUP2 EQ PUSH2 0x29C JUMPI PUSH0 PUSH0 REVERT JUMPDEST POP JUMP JUMPDEST PUSH0 DUP2 CALLDATALOAD SWAP1 POP PUSH2 0x2AD DUP2 PUSH2 0x289 JUMP JUMPDEST SWAP3 SWAP2 POP POP JUMP JUMPDEST PUSH0 PUSH0 PUSH1 0x40 DUP4 DUP6 SUB SLT ISZERO PUSH2 0x2C9 JUMPI PUSH2 0x2C8 PUSH2 0x222 JUMP JUMPDEST JUMPDEST PUSH0 PUSH2 0x2D6 DUP6 DUP3 DUP7 ADD PUSH2 0x26C JUMP JUMPDEST SWAP3 POP POP PUSH1 0x20 PUSH2 0x2E7 DUP6 DUP3 DUP7 ADD PUSH2 0x29F JUMP JUMPDEST SWAP2 POP POP SWAP3 POP SWAP3 SWAP1 POP JUMP JUMPDEST PUSH0 DUP2 ISZERO ISZERO SWAP1 POP SWAP2 SWAP1 POP JUMP JUMPDEST PUSH2 0x305 DUP2 PUSH2 0x2F1 JUMP JUMPDEST DUP3 MSTORE POP POP JUMP JUMPDEST PUSH0 PUSH1 0x20 DUP3 ADD SWAP1 POP PUSH2 0x31E PUSH0 DUP4 ADD DUP5 PUSH2 0x2FC JUMP JUMPDEST SWAP3 SWAP2 POP POP JUMP JUMPDEST PUSH0 DUP3 DUP3 MSTORE PUSH1 0x20 DUP3 ADD SWAP1 POP SWAP3 SWAP2 POP POP JUMP JUMPDEST PUSH32 0x73656E64206661696C6564000000000000000000000000000000000000000000 PUSH0 DUP3 ADD MSTORE POP JUMP JUMPDEST PUSH0 PUSH2 0x368 PUSH1 0xB DUP4 PUSH2 0x324 JUMP JUMPDEST SWAP2 POP PUSH2 0x373 DUP3 PUSH2 0x334 JUMP JUMPDEST PUSH1 0x20 DUP3 ADD SWAP1 POP SWAP2 SWAP1 POP JUMP JUMPDEST PUSH0 PUSH1 0x20 DUP3 ADD SWAP1 POP DUP2 DUP2 SUB PUSH0 DUP4 ADD MSTORE PUSH2 0x395 DUP2 PUSH2 0x35C JUMP JUMPDEST SWAP1 POP SWAP2 SWAP1 POP JUMP JUMPDEST PUSH0 DUP2 SWAP1 POP SWAP3 SWAP2 POP POP JUMP JUMPDEST POP JUMP JUMPDEST PUSH0 PUSH2 0x3B4 PUSH0 DUP4 PUSH2 0x39C JUMP JUMPDEST SWAP2 POP PUSH2 0x3BF DUP3 PUSH2 0x3A6 JUMP JUMPDEST PUSH0 DUP3 ADD SWAP1 POP SWAP2 SWAP1 POP JUMP JUMPDEST PUSH0 PUSH2 0x3D3 DUP3 PUSH2 0x3A9 JUMP JUMPDEST SWAP2 POP DUP2 SWAP1 POP SWAP2 SWAP1 POP JUMP JUMPDEST PUSH32 0x43616C6C206661696C6564000000000000000000000000000000000000000000 PUSH0 DUP3 ADD MSTORE POP JUMP JUMPDEST PUSH0 PUSH2 0x411 PUSH1 0xB DUP4 PUSH2 0x324 JUMP JUMPDEST SWAP2 POP PUSH2 0x41C DUP3 PUSH2 0x3DD JUMP JUMPDEST PUSH1 0x20 DUP3 ADD SWAP1 POP SWAP2 SWAP1 POP JUMP JUMPDEST PUSH0 PUSH1 0x20 DUP3 ADD SWAP1 POP DUP2 DUP2 SUB PUSH0 DUP4 ADD MSTORE PUSH2 0x43E DUP2 PUSH2 0x405 JUMP JUMPDEST SWAP1 POP SWAP2 SWAP1 POP JUMP INVALID LOG2 PUSH5 0x6970667358 0x22 SLT KECCAK256 DUP9 DUPN 0x24 SHL EXTCALL OR 0xDD 0xC DELEGATECALL ADD 0x24 MULMOD CLZ GAS 0xCC 0xB4 RJUMPI 0xC8C3 GT SAR EXTCODESIZE GASPRICE 0xBF 0xD7 DUP3 SWAPN 0x32 DUP11 0xD7 0xBD CALLDATACOPY PUSH5 0x736F6C6343 STOP ADDMOD 0x22 STOP CALLER "
				},
				"gasEstimates": {
					"creation": {
						"codeDepositCost": "229400",
						"executionCost": "243",
						"totalCost": "229643"
					},
					"external": {
						"callEth(address,uint256)": "infinite",
						"sendEth(address,uint256)": "infinite",
						"transferEth(address,uint256)": "infinite"
					}
				},
				"methodIdentifiers": {
					"callEth(address,uint256)": "bb0bcade",
					"sendEth(address,uint256)": "49dcbc5e",
					"transferEth(address,uint256)": "e9bb84c2"
				}
			},
			"storageLayout": {
				"storage": [],
				"types": null
			},
			"userdoc": {
				"kind": "user",
				"methods": {},
				"version": 1
			}
		}
	}
}