{
	"solidity金融和支付/发送以太币transfer、send、call.sol": {
		"Sender": {
			"abi": [
				{
					"inputs": [],
					"stateMutability": "payable",
					"type": "constructor"
				},
				{
					"inputs": [
						{
							"internalType": "address payable",
							"name": "to",
							"type": "address"
						},
						{
							"internalType": "uint256",
							"name": "amount",
							"type": "uint256"
						}
					],
					"name": "callEth",
					"outputs": [
						{
							"internalType": "bool",
							"name": "",
							"type": "bool"
						}
					],
					"stateMutability": "nonpayable",
					"type": "function"
				}
			],
			"devdoc": {
				"kind": "dev",
				"methods": {},
				"version": 1
			},
			"evm": {
				"assembly": "    /* \"solidity\\xe9\\x87\\x91\\xe8\\x9e\\x8d\\xe5\\x92\\x8c\\xe6\\x94\\xaf\\xe4\\xbb\\x98/\\xe5\\x8f\\x91\\xe9\\x80\\x81\\xe4\\xbb\\xa5\\xe5\\xa4\\xaa\\xe5\\xb8\\x81transfer\\xe3\\x80\\x81send\\xe3\\x80\\x81call.sol\":390:1294  contract Sender {... */\n  mstore(0x40, 0x80)\n  dataSize(sub_0)\n  dup1\n  dataOffset(sub_0)\n  0x00\n  codecopy\n  0x00\n  return\nstop\n\nsub_0: assembly {\n        /* \"solidity\\xe9\\x87\\x91\\xe8\\x9e\\x8d\\xe5\\x92\\x8c\\xe6\\x94\\xaf\\xe4\\xbb\\x98/\\xe5\\x8f\\x91\\xe9\\x80\\x81\\xe4\\xbb\\xa5\\xe5\\xa4\\xaa\\xe5\\xb8\\x81transfer\\xe3\\x80\\x81send\\xe3\\x80\\x81call.sol\":390:1294  contract Sender {... */\n      mstore(0x40, 0x80)\n      callvalue\n      dup1\n      iszero\n      tag_1\n      jumpi\n      revert(0x00, 0x00)\n    tag_1:\n      pop\n      jumpi(tag_2, lt(calldatasize, 0x04))\n      shr(0xe0, calldataload(0x00))\n      dup1\n      0xbb0bcade\n      eq\n      tag_3\n      jumpi\n    tag_2:\n      revert(0x00, 0x00)\n        /* \"solidity\\xe9\\x87\\x91\\xe8\\x9e\\x8d\\xe5\\x92\\x8c\\xe6\\x94\\xaf\\xe4\\xbb\\x98/\\xe5\\x8f\\x91\\xe9\\x80\\x81\\xe4\\xbb\\xa5\\xe5\\xa4\\xaa\\xe5\\xb8\\x81transfer\\xe3\\x80\\x81send\\xe3\\x80\\x81call.sol\":1086:1291  function callEth(address payable to,uint amount) external returns(bool) {... */\n    tag_3:\n      tag_4\n      0x04\n      dup1\n      calldatasize\n      sub\n      dup2\n      add\n      swap1\n      tag_5\n      swap2\n      swap1\n      tag_6\n      jump\t// in\n    tag_5:\n      tag_7\n      jump\t// in\n    tag_4:\n      mload(0x40)\n      tag_8\n      swap2\n      swap1\n      tag_9\n      jump\t// in\n    tag_8:\n      mload(0x40)\n      dup1\n      swap2\n      sub\n      swap1\n      return\n    tag_7:\n        /* \"solidity\\xe9\\x87\\x91\\xe8\\x9e\\x8d\\xe5\\x92\\x8c\\xe6\\x94\\xaf\\xe4\\xbb\\x98/\\xe5\\x8f\\x91\\xe9\\x80\\x81\\xe4\\xbb\\xa5\\xe5\\xa4\\xaa\\xe5\\xb8\\x81transfer\\xe3\\x80\\x81send\\xe3\\x80\\x81call.sol\":1152:1156  bool */\n      0x00\n        /* \"solidity\\xe9\\x87\\x91\\xe8\\x9e\\x8d\\xe5\\x92\\x8c\\xe6\\x94\\xaf\\xe4\\xbb\\x98/\\xe5\\x8f\\x91\\xe9\\x80\\x81\\xe4\\xbb\\xa5\\xe5\\xa4\\xaa\\xe5\\xb8\\x81transfer\\xe3\\x80\\x81send\\xe3\\x80\\x81call.sol\":1170:1182  bool success */\n      0x00\n        /* \"solidity\\xe9\\x87\\x91\\xe8\\x9e\\x8d\\xe5\\x92\\x8c\\xe6\\x94\\xaf\\xe4\\xbb\\x98/\\xe5\\x8f\\x91\\xe9\\x80\\x81\\xe4\\xbb\\xa5\\xe5\\xa4\\xaa\\xe5\\xb8\\x81transfer\\xe3\\x80\\x81send\\xe3\\x80\\x81call.sol\":1188:1190  to */\n      dup4\n        /* \"solidity\\xe9\\x87\\x91\\xe8\\x9e\\x8d\\xe5\\x92\\x8c\\xe6\\x94\\xaf\\xe4\\xbb\\x98/\\xe5\\x8f\\x91\\xe9\\x80\\x81\\xe4\\xbb\\xa5\\xe5\\xa4\\xaa\\xe5\\xb8\\x81transfer\\xe3\\x80\\x81send\\xe3\\x80\\x81call.sol\":1188:1195  to.call */\n      0xffffffffffffffffffffffffffffffffffffffff\n      and\n        /* \"solidity\\xe9\\x87\\x91\\xe8\\x9e\\x8d\\xe5\\x92\\x8c\\xe6\\x94\\xaf\\xe4\\xbb\\x98/\\xe5\\x8f\\x91\\xe9\\x80\\x81\\xe4\\xbb\\xa5\\xe5\\xa4\\xaa\\xe5\\xb8\\x81transfer\\xe3\\x80\\x81send\\xe3\\x80\\x81call.sol\":1203:1209  amount */\n      dup4\n        /* \"solidity\\xe9\\x87\\x91\\xe8\\x9e\\x8d\\xe5\\x92\\x8c\\xe6\\x94\\xaf\\xe4\\xbb\\x98/\\xe5\\x8f\\x91\\xe9\\x80\\x81\\xe4\\xbb\\xa5\\xe5\\xa4\\xaa\\xe5\\xb8\\x81transfer\\xe3\\x80\\x81send\\xe3\\x80\\x81call.sol\":1188:1214  to.call{value: amount}(\"\") */\n      mload(0x40)\n      tag_11\n      swap1\n      tag_12\n      jump\t// in\n    tag_11:\n      0x00\n      mload(0x40)\n      dup1\n      dup4\n      sub\n      dup2\n      dup6\n      dup8\n      gas\n      call\n      swap3\n      pop\n      pop\n      pop\n      returndatasize\n      dup1\n      0x00\n      dup2\n      eq\n      tag_15\n      jumpi\n      mload(0x40)\n      swap2\n      pop\n      and(add(returndatasize, 0x3f), not(0x1f))\n      dup3\n      add\n      0x40\n      mstore\n      returndatasize\n      dup3\n      mstore\n      returndatasize\n      0x00\n      0x20\n      dup5\n      add\n      returndatacopy\n      jump(tag_14)\n    tag_15:\n      0x60\n      swap2\n      pop\n    tag_14:\n      pop\n        /* \"solidity\\xe9\\x87\\x91\\xe8\\x9e\\x8d\\xe5\\x92\\x8c\\xe6\\x94\\xaf\\xe4\\xbb\\x98/\\xe5\\x8f\\x91\\xe9\\x80\\x81\\xe4\\xbb\\xa5\\xe5\\xa4\\xaa\\xe5\\xb8\\x81transfer\\xe3\\x80\\x81send\\xe3\\x80\\x81call.sol\":1169:1214  (bool success, ) = to.call{value: amount}(\"\") */\n      pop\n      swap1\n      pop\n        /* \"solidity\\xe9\\x87\\x91\\xe8\\x9e\\x8d\\xe5\\x92\\x8c\\xe6\\x94\\xaf\\xe4\\xbb\\x98/\\xe5\\x8f\\x91\\xe9\\x80\\x81\\xe4\\xbb\\xa5\\xe5\\xa4\\xaa\\xe5\\xb8\\x81transfer\\xe3\\x80\\x81send\\xe3\\x80\\x81call.sol\":1233:1240  success */\n      dup1\n        /* \"solidity\\xe9\\x87\\x91\\xe8\\x9e\\x8d\\xe5\\x92\\x8c\\xe6\\x94\\xaf\\xe4\\xbb\\x98/\\xe5\\x8f\\x91\\xe9\\x80\\x81\\xe4\\xbb\\xa5\\xe5\\xa4\\xaa\\xe5\\xb8\\x81transfer\\xe3\\x80\\x81send\\xe3\\x80\\x81call.sol\":1225:1256  require(success, \"Call failed\") */\n      tag_16\n      jumpi\n      mload(0x40)\n      0x08c379a000000000000000000000000000000000000000000000000000000000\n      dup2\n      mstore\n      0x04\n      add\n      tag_17\n      swap1\n      tag_18\n      jump\t// in\n    tag_17:\n      mload(0x40)\n      dup1\n      swap2\n      sub\n      swap1\n      revert\n    tag_16:\n        /* \"solidity\\xe9\\x87\\x91\\xe8\\x9e\\x8d\\xe5\\x92\\x8c\\xe6\\x94\\xaf\\xe4\\xbb\\x98/\\xe5\\x8f\\x91\\xe9\\x80\\x81\\xe4\\xbb\\xa5\\xe5\\xa4\\xaa\\xe5\\xb8\\x81transfer\\xe3\\x80\\x81send\\xe3\\x80\\x81call.sol\":1274:1281  success */\n      dup1\n        /* \"solidity\\xe9\\x87\\x91\\xe8\\x9e\\x8d\\xe5\\x92\\x8c\\xe6\\x94\\xaf\\xe4\\xbb\\x98/\\xe5\\x8f\\x91\\xe9\\x80\\x81\\xe4\\xbb\\xa5\\xe5\\xa4\\xaa\\xe5\\xb8\\x81transfer\\xe3\\x80\\x81send\\xe3\\x80\\x81call.sol\":1267:1281  return success */\n      swap2\n      pop\n      pop\n        /* \"solidity\\xe9\\x87\\x91\\xe8\\x9e\\x8d\\xe5\\x92\\x8c\\xe6\\x94\\xaf\\xe4\\xbb\\x98/\\xe5\\x8f\\x91\\xe9\\x80\\x81\\xe4\\xbb\\xa5\\xe5\\xa4\\xaa\\xe5\\xb8\\x81transfer\\xe3\\x80\\x81send\\xe3\\x80\\x81call.sol\":1086:1291  function callEth(address payable to,uint amount) external returns(bool) {... */\n      swap3\n      swap2\n      pop\n      pop\n      jump\t// out\n        /* \"#utility.yul\":88:205   */\n    tag_20:\n        /* \"#utility.yul\":197:198   */\n      0x00\n        /* \"#utility.yul\":194:195   */\n      0x00\n        /* \"#utility.yul\":187:199   */\n      revert\n        /* \"#utility.yul\":334:460   */\n    tag_22:\n        /* \"#utility.yul\":371:378   */\n      0x00\n        /* \"#utility.yul\":411:453   */\n      0xffffffffffffffffffffffffffffffffffffffff\n        /* \"#utility.yul\":404:409   */\n      dup3\n        /* \"#utility.yul\":400:454   */\n      and\n        /* \"#utility.yul\":389:454   */\n      swap1\n      pop\n        /* \"#utility.yul\":334:460   */\n      swap2\n      swap1\n      pop\n      jump\t// out\n        /* \"#utility.yul\":466:570   */\n    tag_23:\n        /* \"#utility.yul\":511:518   */\n      0x00\n        /* \"#utility.yul\":540:564   */\n      tag_43\n        /* \"#utility.yul\":558:563   */\n      dup3\n        /* \"#utility.yul\":540:564   */\n      tag_22\n      jump\t// in\n    tag_43:\n        /* \"#utility.yul\":529:564   */\n      swap1\n      pop\n        /* \"#utility.yul\":466:570   */\n      swap2\n      swap1\n      pop\n      jump\t// out\n        /* \"#utility.yul\":576:714   */\n    tag_24:\n        /* \"#utility.yul\":657:689   */\n      tag_45\n        /* \"#utility.yul\":683:688   */\n      dup2\n        /* \"#utility.yul\":657:689   */\n      tag_23\n      jump\t// in\n    tag_45:\n        /* \"#utility.yul\":650:655   */\n      dup2\n        /* \"#utility.yul\":647:690   */\n      eq\n        /* \"#utility.yul\":637:708   */\n      tag_46\n      jumpi\n        /* \"#utility.yul\":704:705   */\n      0x00\n        /* \"#utility.yul\":701:702   */\n      0x00\n        /* \"#utility.yul\":694:706   */\n      revert\n        /* \"#utility.yul\":637:708   */\n    tag_46:\n        /* \"#utility.yul\":576:714   */\n      pop\n      jump\t// out\n        /* \"#utility.yul\":720:875   */\n    tag_25:\n        /* \"#utility.yul\":774:779   */\n      0x00\n        /* \"#utility.yul\":812:818   */\n      dup2\n        /* \"#utility.yul\":799:819   */\n      calldataload\n        /* \"#utility.yul\":790:819   */\n      swap1\n      pop\n        /* \"#utility.yul\":828:869   */\n      tag_48\n        /* \"#utility.yul\":863:868   */\n      dup2\n        /* \"#utility.yul\":828:869   */\n      tag_24\n      jump\t// in\n    tag_48:\n        /* \"#utility.yul\":720:875   */\n      swap3\n      swap2\n      pop\n      pop\n      jump\t// out\n        /* \"#utility.yul\":881:958   */\n    tag_26:\n        /* \"#utility.yul\":918:925   */\n      0x00\n        /* \"#utility.yul\":947:952   */\n      dup2\n        /* \"#utility.yul\":936:952   */\n      swap1\n      pop\n        /* \"#utility.yul\":881:958   */\n      swap2\n      swap1\n      pop\n      jump\t// out\n        /* \"#utility.yul\":964:1086   */\n    tag_27:\n        /* \"#utility.yul\":1037:1061   */\n      tag_51\n        /* \"#utility.yul\":1055:1060   */\n      dup2\n        /* \"#utility.yul\":1037:1061   */\n      tag_26\n      jump\t// in\n    tag_51:\n        /* \"#utility.yul\":1030:1035   */\n      dup2\n        /* \"#utility.yul\":1027:1062   */\n      eq\n        /* \"#utility.yul\":1017:1080   */\n      tag_52\n      jumpi\n        /* \"#utility.yul\":1076:1077   */\n      0x00\n        /* \"#utility.yul\":1073:1074   */\n      0x00\n        /* \"#utility.yul\":1066:1078   */\n      revert\n        /* \"#utility.yul\":1017:1080   */\n    tag_52:\n        /* \"#utility.yul\":964:1086   */\n      pop\n      jump\t// out\n        /* \"#utility.yul\":1092:1231   */\n    tag_28:\n        /* \"#utility.yul\":1138:1143   */\n      0x00\n        /* \"#utility.yul\":1176:1182   */\n      dup2\n        /* \"#utility.yul\":1163:1183   */\n      calldataload\n        /* \"#utility.yul\":1154:1183   */\n      swap1\n      pop\n        /* \"#utility.yul\":1192:1225   */\n      tag_54\n        /* \"#utility.yul\":1219:1224   */\n      dup2\n        /* \"#utility.yul\":1192:1225   */\n      tag_27\n      jump\t// in\n    tag_54:\n        /* \"#utility.yul\":1092:1231   */\n      swap3\n      swap2\n      pop\n      pop\n      jump\t// out\n        /* \"#utility.yul\":1237:1727   */\n    tag_6:\n        /* \"#utility.yul\":1313:1319   */\n      0x00\n        /* \"#utility.yul\":1321:1327   */\n      0x00\n        /* \"#utility.yul\":1370:1372   */\n      0x40\n        /* \"#utility.yul\":1358:1367   */\n      dup4\n        /* \"#utility.yul\":1349:1356   */\n      dup6\n        /* \"#utility.yul\":1345:1368   */\n      sub\n        /* \"#utility.yul\":1341:1373   */\n      slt\n        /* \"#utility.yul\":1338:1457   */\n      iszero\n      tag_56\n      jumpi\n        /* \"#utility.yul\":1376:1455   */\n      tag_57\n      tag_20\n      jump\t// in\n    tag_57:\n        /* \"#utility.yul\":1338:1457   */\n    tag_56:\n        /* \"#utility.yul\":1496:1497   */\n      0x00\n        /* \"#utility.yul\":1521:1582   */\n      tag_58\n        /* \"#utility.yul\":1574:1581   */\n      dup6\n        /* \"#utility.yul\":1565:1571   */\n      dup3\n        /* \"#utility.yul\":1554:1563   */\n      dup7\n        /* \"#utility.yul\":1550:1572   */\n      add\n        /* \"#utility.yul\":1521:1582   */\n      tag_25\n      jump\t// in\n    tag_58:\n        /* \"#utility.yul\":1511:1582   */\n      swap3\n      pop\n        /* \"#utility.yul\":1467:1592   */\n      pop\n        /* \"#utility.yul\":1631:1633   */\n      0x20\n        /* \"#utility.yul\":1657:1710   */\n      tag_59\n        /* \"#utility.yul\":1702:1709   */\n      dup6\n        /* \"#utility.yul\":1693:1699   */\n      dup3\n        /* \"#utility.yul\":1682:1691   */\n      dup7\n        /* \"#utility.yul\":1678:1700   */\n      add\n        /* \"#utility.yul\":1657:1710   */\n      tag_28\n      jump\t// in\n    tag_59:\n        /* \"#utility.yul\":1647:1710   */\n      swap2\n      pop\n        /* \"#utility.yul\":1602:1720   */\n      pop\n        /* \"#utility.yul\":1237:1727   */\n      swap3\n      pop\n      swap3\n      swap1\n      pop\n      jump\t// out\n        /* \"#utility.yul\":1733:1823   */\n    tag_29:\n        /* \"#utility.yul\":1767:1774   */\n      0x00\n        /* \"#utility.yul\":1810:1815   */\n      dup2\n        /* \"#utility.yul\":1803:1816   */\n      iszero\n        /* \"#utility.yul\":1796:1817   */\n      iszero\n        /* \"#utility.yul\":1785:1817   */\n      swap1\n      pop\n        /* \"#utility.yul\":1733:1823   */\n      swap2\n      swap1\n      pop\n      jump\t// out\n        /* \"#utility.yul\":1829:1938   */\n    tag_30:\n        /* \"#utility.yul\":1910:1931   */\n      tag_62\n        /* \"#utility.yul\":1925:1930   */\n      dup2\n        /* \"#utility.yul\":1910:1931   */\n      tag_29\n      jump\t// in\n    tag_62:\n        /* \"#utility.yul\":1905:1908   */\n      dup3\n        /* \"#utility.yul\":1898:1932   */\n      mstore\n        /* \"#utility.yul\":1829:1938   */\n      pop\n      pop\n      jump\t// out\n        /* \"#utility.yul\":1944:2154   */\n    tag_9:\n        /* \"#utility.yul\":2031:2035   */\n      0x00\n        /* \"#utility.yul\":2069:2071   */\n      0x20\n        /* \"#utility.yul\":2058:2067   */\n      dup3\n        /* \"#utility.yul\":2054:2072   */\n      add\n        /* \"#utility.yul\":2046:2072   */\n      swap1\n      pop\n        /* \"#utility.yul\":2082:2147   */\n      tag_64\n        /* \"#utility.yul\":2144:2145   */\n      0x00\n        /* \"#utility.yul\":2133:2142   */\n      dup4\n        /* \"#utility.yul\":2129:2146   */\n      add\n        /* \"#utility.yul\":2120:2126   */\n      dup5\n        /* \"#utility.yul\":2082:2147   */\n      tag_30\n      jump\t// in\n    tag_64:\n        /* \"#utility.yul\":1944:2154   */\n      swap3\n      swap2\n      pop\n      pop\n      jump\t// out\n        /* \"#utility.yul\":2160:2307   */\n    tag_31:\n        /* \"#utility.yul\":2261:2272   */\n      0x00\n        /* \"#utility.yul\":2298:2301   */\n      dup2\n        /* \"#utility.yul\":2283:2301   */\n      swap1\n      pop\n        /* \"#utility.yul\":2160:2307   */\n      swap3\n      swap2\n      pop\n      pop\n      jump\t// out\n        /* \"#utility.yul\":2313:2427   */\n    tag_32:\n      pop\n      jump\t// out\n        /* \"#utility.yul\":2433:2831   */\n    tag_33:\n        /* \"#utility.yul\":2592:2595   */\n      0x00\n        /* \"#utility.yul\":2613:2696   */\n      tag_68\n        /* \"#utility.yul\":2694:2695   */\n      0x00\n        /* \"#utility.yul\":2689:2692   */\n      dup4\n        /* \"#utility.yul\":2613:2696   */\n      tag_31\n      jump\t// in\n    tag_68:\n        /* \"#utility.yul\":2606:2696   */\n      swap2\n      pop\n        /* \"#utility.yul\":2705:2798   */\n      tag_69\n        /* \"#utility.yul\":2794:2797   */\n      dup3\n        /* \"#utility.yul\":2705:2798   */\n      tag_32\n      jump\t// in\n    tag_69:\n        /* \"#utility.yul\":2823:2824   */\n      0x00\n        /* \"#utility.yul\":2818:2821   */\n      dup3\n        /* \"#utility.yul\":2814:2825   */\n      add\n        /* \"#utility.yul\":2807:2825   */\n      swap1\n      pop\n        /* \"#utility.yul\":2433:2831   */\n      swap2\n      swap1\n      pop\n      jump\t// out\n        /* \"#utility.yul\":2837:3216   */\n    tag_12:\n        /* \"#utility.yul\":3021:3024   */\n      0x00\n        /* \"#utility.yul\":3043:3190   */\n      tag_71\n        /* \"#utility.yul\":3186:3189   */\n      dup3\n        /* \"#utility.yul\":3043:3190   */\n      tag_33\n      jump\t// in\n    tag_71:\n        /* \"#utility.yul\":3036:3190   */\n      swap2\n      pop\n        /* \"#utility.yul\":3207:3210   */\n      dup2\n        /* \"#utility.yul\":3200:3210   */\n      swap1\n      pop\n        /* \"#utility.yul\":2837:3216   */\n      swap2\n      swap1\n      pop\n      jump\t// out\n        /* \"#utility.yul\":3222:3391   */\n    tag_34:\n        /* \"#utility.yul\":3306:3317   */\n      0x00\n        /* \"#utility.yul\":3340:3346   */\n      dup3\n        /* \"#utility.yul\":3335:3338   */\n      dup3\n        /* \"#utility.yul\":3328:3347   */\n      mstore\n        /* \"#utility.yul\":3380:3384   */\n      0x20\n        /* \"#utility.yul\":3375:3378   */\n      dup3\n        /* \"#utility.yul\":3371:3385   */\n      add\n        /* \"#utility.yul\":3356:3385   */\n      swap1\n      pop\n        /* \"#utility.yul\":3222:3391   */\n      swap3\n      swap2\n      pop\n      pop\n      jump\t// out\n        /* \"#utility.yul\":3397:3558   */\n    tag_35:\n        /* \"#utility.yul\":3537:3550   */\n      0x43616c6c206661696c6564000000000000000000000000000000000000000000\n        /* \"#utility.yul\":3533:3534   */\n      0x00\n        /* \"#utility.yul\":3525:3531   */\n      dup3\n        /* \"#utility.yul\":3521:3535   */\n      add\n        /* \"#utility.yul\":3514:3551   */\n      mstore\n        /* \"#utility.yul\":3397:3558   */\n      pop\n      jump\t// out\n        /* \"#utility.yul\":3564:3930   */\n    tag_36:\n        /* \"#utility.yul\":3706:3709   */\n      0x00\n        /* \"#utility.yul\":3727:3794   */\n      tag_75\n        /* \"#utility.yul\":3791:3793   */\n      0x0b\n        /* \"#utility.yul\":3786:3789   */\n      dup4\n        /* \"#utility.yul\":3727:3794   */\n      tag_34\n      jump\t// in\n    tag_75:\n        /* \"#utility.yul\":3720:3794   */\n      swap2\n      pop\n        /* \"#utility.yul\":3803:3896   */\n      tag_76\n        /* \"#utility.yul\":3892:3895   */\n      dup3\n        /* \"#utility.yul\":3803:3896   */\n      tag_35\n      jump\t// in\n    tag_76:\n        /* \"#utility.yul\":3921:3923   */\n      0x20\n        /* \"#utility.yul\":3916:3919   */\n      dup3\n        /* \"#utility.yul\":3912:3924   */\n      add\n        /* \"#utility.yul\":3905:3924   */\n      swap1\n      pop\n        /* \"#utility.yul\":3564:3930   */\n      swap2\n      swap1\n      pop\n      jump\t// out\n        /* \"#utility.yul\":3936:4355   */\n    tag_18:\n        /* \"#utility.yul\":4102:4106   */\n      0x00\n        /* \"#utility.yul\":4140:4142   */\n      0x20\n        /* \"#utility.yul\":4129:4138   */\n      dup3\n        /* \"#utility.yul\":4125:4143   */\n      add\n        /* \"#utility.yul\":4117:4143   */\n      swap1\n      pop\n        /* \"#utility.yul\":4189:4198   */\n      dup2\n        /* \"#utility.yul\":4183:4187   */\n      dup2\n        /* \"#utility.yul\":4179:4199   */\n      sub\n        /* \"#utility.yul\":4175:4176   */\n      0x00\n        /* \"#utility.yul\":4164:4173   */\n      dup4\n        /* \"#utility.yul\":4160:4177   */\n      add\n        /* \"#utility.yul\":4153:4200   */\n      mstore\n        /* \"#utility.yul\":4217:4348   */\n      tag_78\n        /* \"#utility.yul\":4343:4347   */\n      dup2\n        /* \"#utility.yul\":4217:4348   */\n      tag_36\n      jump\t// in\n    tag_78:\n        /* \"#utility.yul\":4209:4348   */\n      swap1\n      pop\n        /* \"#utility.yul\":3936:4355   */\n      swap2\n      swap1\n      pop\n      jump\t// out\n\n    auxdata: 0xa26469706673582212202c9967d1f5079318b1da55306230795118f08c515c3157f8087045d1da956b7864736f6c63430008220033\n}\n",
				"bytecode": {
					"linkReferences": {},
					"object": "6080604052610301806100115f395ff3fe608060405234801561000f575f5ffd5b5060043610610029575f3560e01c8063bb0bcade1461002d575b5f5ffd5b610047600480360381019061004291906101a1565b61005d565b60405161005491906101f9565b60405180910390f35b5f5f8373ffffffffffffffffffffffffffffffffffffffff16836040516100839061023f565b5f6040518083038185875af1925050503d805f81146100bd576040519150601f19603f3d011682016040523d82523d5f602084013e6100c2565b606091505b5050905080610106576040517f08c379a00000000000000000000000000000000000000000000000000000000081526004016100fd906102ad565b60405180910390fd5b8091505092915050565b5f5ffd5b5f73ffffffffffffffffffffffffffffffffffffffff82169050919050565b5f61013d82610114565b9050919050565b61014d81610133565b8114610157575f5ffd5b50565b5f8135905061016881610144565b92915050565b5f819050919050565b6101808161016e565b811461018a575f5ffd5b50565b5f8135905061019b81610177565b92915050565b5f5f604083850312156101b7576101b6610110565b5b5f6101c48582860161015a565b92505060206101d58582860161018d565b9150509250929050565b5f8115159050919050565b6101f3816101df565b82525050565b5f60208201905061020c5f8301846101ea565b92915050565b5f81905092915050565b50565b5f61022a5f83610212565b91506102358261021c565b5f82019050919050565b5f6102498261021f565b9150819050919050565b5f82825260208201905092915050565b7f43616c6c206661696c65640000000000000000000000000000000000000000005f82015250565b5f610297600b83610253565b91506102a282610263565b602082019050919050565b5f6020820190508181035f8301526102c48161028b565b905091905056fea26469706673582212202c9967d1f5079318b1da55306230795118f08c515c3157f8087045d1da956b7864736f6c63430008220033",
					"opcodes": "PUSH1 0x80 PUSH1 0x40 MSTORE PUSH2 0x301 DUP1 PUSH2 0x11 PUSH0 CODECOPY PUSH0 RETURN INVALID PUSH1 0x80 PUSH1 0x40 MSTORE CALLVALUE DUP1 ISZERO PUSH2 0xF JUMPI PUSH0 PUSH0 REVERT JUMPDEST POP PUSH1 0x4 CALLDATASIZE LT PUSH2 0x29 JUMPI PUSH0 CALLDATALOAD PUSH1 0xE0 SHR DUP1 PUSH4 0xBB0BCADE EQ PUSH2 0x2D JUMPI JUMPDEST PUSH0 PUSH0 REVERT JUMPDEST PUSH2 0x47 PUSH1 0x4 DUP1 CALLDATASIZE SUB DUP2 ADD SWAP1 PUSH2 0x42 SWAP2 SWAP1 PUSH2 0x1A1 JUMP JUMPDEST PUSH2 0x5D JUMP JUMPDEST PUSH1 0x40 MLOAD PUSH2 0x54 SWAP2 SWAP1 PUSH2 0x1F9 JUMP JUMPDEST PUSH1 0x40 MLOAD DUP1 SWAP2 SUB SWAP1 RETURN JUMPDEST PUSH0 PUSH0 DUP4 PUSH20 0xFFFFFFFFFFFFFFFFFFFFFFFFFFFFFFFFFFFFFFFF AND DUP4 PUSH1 0x40 MLOAD PUSH2 0x83 SWAP1 PUSH2 0x23F JUMP JUMPDEST PUSH0 PUSH1 0x40 MLOAD DUP1 DUP4 SUB DUP2 DUP6 DUP8 GAS CALL SWAP3 POP POP POP RETURNDATASIZE DUP1 PUSH0 DUP2 EQ PUSH2 0xBD JUMPI PUSH1 0x40 MLOAD SWAP2 POP PUSH1 0x1F NOT PUSH1 0x3F RETURNDATASIZE ADD AND DUP3 ADD PUSH1 0x40 MSTORE RETURNDATASIZE DUP3 MSTORE RETURNDATASIZE PUSH0 PUSH1 0x20 DUP5 ADD RETURNDATACOPY PUSH2 0xC2 JUMP JUMPDEST PUSH1 0x60 SWAP2 POP JUMPDEST POP POP SWAP1 POP DUP1 PUSH2 0x106 JUMPI PUSH1 0x40 MLOAD PUSH32 0x8C379A000000000000000000000000000000000000000000000000000000000 DUP2 MSTORE PUSH1 0x4 ADD PUSH2 0xFD SWAP1 PUSH2 0x2AD JUMP JUMPDEST PUSH1 0x40 MLOAD DUP1 SWAP2 SUB SWAP1 REVERT JUMPDEST DUP1 SWAP2 POP POP SWAP3 SWAP2 POP POP JUMP JUMPDEST PUSH0 PUSH0 REVERT JUMPDEST PUSH0 PUSH20 0xFFFFFFFFFFFFFFFFFFFFFFFFFFFFFFFFFFFFFFFF DUP3 AND SWAP1 POP SWAP2 SWAP1 POP JUMP JUMPDEST PUSH0 PUSH2 0x13D DUP3 PUSH2 0x114 JUMP JUMPDEST SWAP1 POP SWAP2 SWAP1 POP JUMP JUMPDEST PUSH2 0x14D DUP2 PUSH2 0x133 JUMP JUMPDEST DUP2 EQ PUSH2 0x157 JUMPI PUSH0 PUSH0 REVERT JUMPDEST POP JUMP JUMPDEST PUSH0 DUP2 CALLDATALOAD SWAP1 POP PUSH2 0x168 DUP2 PUSH2 0x144 JUMP JUMPDEST SWAP3 SWAP2 POP POP JUMP JUMPDEST PUSH0 DUP2 SWAP1 POP SWAP2 SWAP1 POP JUMP JUMPDEST PUSH2 0x180 DUP2 PUSH2 0x16E JUMP JUMPDEST DUP2 EQ PUSH2 0x18A JUMPI PUSH0 PUSH0 REVERT JUMPDEST POP JUMP JUMPDEST PUSH0 DUP2 CALLDATALOAD SWAP1 POP PUSH2 0x19B DUP2 PUSH2 0x177 JUMP JUMPDEST SWAP3 SWAP2 POP POP JUMP JUMPDEST PUSH0 PUSH0 PUSH1 0x40 DUP4 DUP6 SUB SLT ISZERO PUSH2 0x1B7 JUMPI PUSH2 0x1B6 PUSH2 0x110 JUMP JUMPDEST JUMPDEST PUSH0 PUSH2 0x1C4 DUP6 DUP3 DUP7 ADD PUSH2 0x15A JUMP JUMPDEST SWAP3 POP POP PUSH1 0x20 PUSH2 0x1D5 DUP6 DUP3 DUP7 ADD PUSH2 0x18D JUMP JUMPDEST SWAP2 POP POP SWAP3 POP SWAP3 SWAP1 POP JUMP JUMPDEST PUSH0 DUP2 ISZERO ISZERO SWAP1 POP SWAP2 SWAP1 POP JUMP JUMPDEST PUSH2 0x1F3 DUP2 PUSH2 0x1DF JUMP JUMPDEST DUP3 MSTORE POP POP JUMP JUMPDEST PUSH0 PUSH1 0x20 DUP3 ADD SWAP1 POP PUSH2 0x20C PUSH0 DUP4 ADD DUP5 PUSH2 0x1EA JUMP JUMPDEST SWAP3 SWAP2 POP POP JUMP JUMPDEST PUSH0 DUP2 SWAP1 POP SWAP3 SWAP2 POP POP JUMP JUMPDEST POP JUMP JUMPDEST PUSH0 PUSH2 0x22A PUSH0 DUP4 PUSH2 0x212 JUMP JUMPDEST SWAP2 POP PUSH2 0x235 DUP3 PUSH2 0x21C JUMP JUMPDEST PUSH0 DUP3 ADD SWAP1 POP SWAP2 SWAP1 POP JUMP JUMPDEST PUSH0 PUSH2 0x249 DUP3 PUSH2 0x21F JUMP JUMPDEST SWAP2 POP DUP2 SWAP1 POP SWAP2 SWAP1 POP JUMP JUMPDEST PUSH0 DUP3 DUP3 MSTORE PUSH1 0x20 DUP3 ADD SWAP1 POP SWAP3 SWAP2 POP POP JUMP JUMPDEST PUSH32 0x43616C6C206661696C6564000000000000000000000000000000000000000000 PUSH0 DUP3 ADD MSTORE POP JUMP JUMPDEST PUSH0 PUSH2 0x297 PUSH1 0xB DUP4 PUSH2 0x253 JUMP JUMPDEST SWAP2 POP PUSH2 0x2A2 DUP3 PUSH2 0x263 JUMP JUMPDEST PUSH1 0x20 DUP3 ADD SWAP1 POP SWAP2 SWAP1 POP JUMP JUMPDEST PUSH0 PUSH1 0x20 DUP3 ADD SWAP1 POP DUP2 DUP2 SUB PUSH0 DUP4 ADD MSTORE PUSH2 0x2C4 DUP2 PUSH2 0x28B JUMP JUMPDEST SWAP1 POP SWAP2 SWAP1 POP JUMP INVALID LOG2 PUSH5 0x6970667358 0x22 SLT KECCAK256 0x2C SWAP10 PUSH8 0xD1F5079318B1DA55 ADDRESS PUSH3 0x307951 XOR CREATE DUP13 MLOAD TLOAD BALANCE JUMPI EXTCALL ADDMOD PUSH17 0x45D1DA956B7864736F6C63430008220033 "
				},
				"gasEstimates": {
					"creation": {
						"codeDepositCost": "153800",
						"executionCost": "176",
						"totalCost": "153976"
					},
					"external": {
						"callEth(address,uint256)": "infinite"
					}
				},
				"methodIdentifiers": {
					"callEth(address,uint256)": "bb0bcade"
				}
			},
			"storageLayout": {
				"storage": [],
				"types": null
			},
			"userdoc": {
				"kind": "user",
				"methods": {},
				"version": 1
			}
		}
	}
}