{
	"solidity基础/调用父函数super.sol": {
		"B": {
			"abi": [
				{
					"anonymous": false,
					"inputs": [
						{
							"indexed": false,
							"internalType": "string",
							"name": "message",
							"type": "string"
						}
					],
					"name": "Log",
					"type": "event"
				},
				{
					"inputs": [],
					"name": "bar",
					"outputs": [],
					"stateMutability": "nonpayable",
					"type": "function"
				},
				{
					"inputs": [],
					"name": "foo",
					"outputs": [],
					"stateMutability": "nonpayable",
					"type": "function"
				}
			],
			"devdoc": {
				"kind": "dev",
				"methods": {},
				"version": 1
			},
			"evm": {
				"assembly": "    /* \"solidity\\xe5\\x9f\\xba\\xe7\\xa1\\x80/\\xe8\\xb0\\x83\\xe7\\x94\\xa8\\xe7\\x88\\xb6\\xe5\\x87\\xbd\\xe6\\x95\\xb0super.sol\":1094:1323  contract B is Base{... */\n  mstore(0x40, 0x80)\n  callvalue\n  dup1\n  iszero\n  tag_1\n  jumpi\n  revert(0x00, 0x00)\ntag_1:\n  pop\n  dataSize(sub_0)\n  dup1\n  dataOffset(sub_0)\n  0x00\n  codecopy\n  0x00\n  return\nstop\n\nsub_0: assembly {\n        /* \"solidity\\xe5\\x9f\\xba\\xe7\\xa1\\x80/\\xe8\\xb0\\x83\\xe7\\x94\\xa8\\xe7\\x88\\xb6\\xe5\\x87\\xbd\\xe6\\x95\\xb0super.sol\":1094:1323  contract B is Base{... */\n      mstore(0x40, 0x80)\n      callvalue\n      dup1\n      iszero\n      tag_1\n      jumpi\n      revert(0x00, 0x00)\n    tag_1:\n      pop\n      jumpi(tag_2, lt(calldatasize, 0x04))\n      shr(0xe0, calldataload(0x00))\n      dup1\n      0xc2985578\n      eq\n      tag_3\n      jumpi\n      dup1\n      0xfebb0f7e\n      eq\n      tag_4\n      jumpi\n    tag_2:\n      revert(0x00, 0x00)\n        /* \"solidity\\xe5\\x9f\\xba\\xe7\\xa1\\x80/\\xe8\\xb0\\x83\\xe7\\x94\\xa8\\xe7\\x88\\xb6\\xe5\\x87\\xbd\\xe6\\x95\\xb0super.sol\":1119:1215  function foo() public virtual override {... */\n    tag_3:\n      tag_5\n      tag_6\n      jump\t// in\n    tag_5:\n      stop\n        /* \"solidity\\xe5\\x9f\\xba\\xe7\\xa1\\x80/\\xe8\\xb0\\x83\\xe7\\x94\\xa8\\xe7\\x88\\xb6\\xe5\\x87\\xbd\\xe6\\x95\\xb0super.sol\":1223:1320  function bar() public virtual override {... */\n    tag_4:\n      tag_7\n      tag_8\n      jump\t// in\n    tag_7:\n      stop\n        /* \"solidity\\xe5\\x9f\\xba\\xe7\\xa1\\x80/\\xe8\\xb0\\x83\\xe7\\x94\\xa8\\xe7\\x88\\xb6\\xe5\\x87\\xbd\\xe6\\x95\\xb0super.sol\":1119:1215  function foo() public virtual override {... */\n    tag_6:\n        /* \"solidity\\xe5\\x9f\\xba\\xe7\\xa1\\x80/\\xe8\\xb0\\x83\\xe7\\x94\\xa8\\xe7\\x88\\xb6\\xe5\\x87\\xbd\\xe6\\x95\\xb0super.sol\":1174:1186  Log(\"B foo\") */\n      0xcf34ef537ac33ee1ac626ca1587a0a7e8e51561e5514f8cb36afa1c5102b3bab\n      mload(0x40)\n      tag_10\n      swap1\n      tag_11\n      jump\t// in\n    tag_10:\n      mload(0x40)\n      dup1\n      swap2\n      sub\n      swap1\n      log1\n        /* \"solidity\\xe5\\x9f\\xba\\xe7\\xa1\\x80/\\xe8\\xb0\\x83\\xe7\\x94\\xa8\\xe7\\x88\\xb6\\xe5\\x87\\xbd\\xe6\\x95\\xb0super.sol\":1197:1207  Base.foo() */\n      tag_12\n        /* \"solidity\\xe5\\x9f\\xba\\xe7\\xa1\\x80/\\xe8\\xb0\\x83\\xe7\\x94\\xa8\\xe7\\x88\\xb6\\xe5\\x87\\xbd\\xe6\\x95\\xb0super.sol\":1197:1205  Base.foo */\n      tag_13\n        /* \"solidity\\xe5\\x9f\\xba\\xe7\\xa1\\x80/\\xe8\\xb0\\x83\\xe7\\x94\\xa8\\xe7\\x88\\xb6\\xe5\\x87\\xbd\\xe6\\x95\\xb0super.sol\":1197:1207  Base.foo() */\n      jump\t// in\n    tag_12:\n        /* \"solidity\\xe5\\x9f\\xba\\xe7\\xa1\\x80/\\xe8\\xb0\\x83\\xe7\\x94\\xa8\\xe7\\x88\\xb6\\xe5\\x87\\xbd\\xe6\\x95\\xb0super.sol\":1119:1215  function foo() public virtual override {... */\n      jump\t// out\n        /* \"solidity\\xe5\\x9f\\xba\\xe7\\xa1\\x80/\\xe8\\xb0\\x83\\xe7\\x94\\xa8\\xe7\\x88\\xb6\\xe5\\x87\\xbd\\xe6\\x95\\xb0super.sol\":1223:1320  function bar() public virtual override {... */\n    tag_8:\n        /* \"solidity\\xe5\\x9f\\xba\\xe7\\xa1\\x80/\\xe8\\xb0\\x83\\xe7\\x94\\xa8\\xe7\\x88\\xb6\\xe5\\x87\\xbd\\xe6\\x95\\xb0super.sol\":1278:1290  Log(\"B bar\") */\n      0xcf34ef537ac33ee1ac626ca1587a0a7e8e51561e5514f8cb36afa1c5102b3bab\n      mload(0x40)\n      tag_15\n      swap1\n      tag_16\n      jump\t// in\n    tag_15:\n      mload(0x40)\n      dup1\n      swap2\n      sub\n      swap1\n      log1\n        /* \"solidity\\xe5\\x9f\\xba\\xe7\\xa1\\x80/\\xe8\\xb0\\x83\\xe7\\x94\\xa8\\xe7\\x88\\xb6\\xe5\\x87\\xbd\\xe6\\x95\\xb0super.sol\":1301:1312  super.bar() */\n      tag_17\n        /* \"solidity\\xe5\\x9f\\xba\\xe7\\xa1\\x80/\\xe8\\xb0\\x83\\xe7\\x94\\xa8\\xe7\\x88\\xb6\\xe5\\x87\\xbd\\xe6\\x95\\xb0super.sol\":1301:1310  super.bar */\n      tag_18\n        /* \"solidity\\xe5\\x9f\\xba\\xe7\\xa1\\x80/\\xe8\\xb0\\x83\\xe7\\x94\\xa8\\xe7\\x88\\xb6\\xe5\\x87\\xbd\\xe6\\x95\\xb0super.sol\":1301:1312  super.bar() */\n      jump\t// in\n    tag_17:\n        /* \"solidity\\xe5\\x9f\\xba\\xe7\\xa1\\x80/\\xe8\\xb0\\x83\\xe7\\x94\\xa8\\xe7\\x88\\xb6\\xe5\\x87\\xbd\\xe6\\x95\\xb0super.sol\":1223:1320  function bar() public virtual override {... */\n      jump\t// out\n        /* \"solidity\\xe5\\x9f\\xba\\xe7\\xa1\\x80/\\xe8\\xb0\\x83\\xe7\\x94\\xa8\\xe7\\x88\\xb6\\xe5\\x87\\xbd\\xe6\\x95\\xb0super.sol\":708:777  function foo() public virtual {... */\n    tag_13:\n        /* \"solidity\\xe5\\x9f\\xba\\xe7\\xa1\\x80/\\xe8\\xb0\\x83\\xe7\\x94\\xa8\\xe7\\x88\\xb6\\xe5\\x87\\xbd\\xe6\\x95\\xb0super.sol\":754:769  Log(\"Base foo\") */\n      0xcf34ef537ac33ee1ac626ca1587a0a7e8e51561e5514f8cb36afa1c5102b3bab\n      mload(0x40)\n      tag_20\n      swap1\n      tag_21\n      jump\t// in\n    tag_20:\n      mload(0x40)\n      dup1\n      swap2\n      sub\n      swap1\n      log1\n        /* \"solidity\\xe5\\x9f\\xba\\xe7\\xa1\\x80/\\xe8\\xb0\\x83\\xe7\\x94\\xa8\\xe7\\x88\\xb6\\xe5\\x87\\xbd\\xe6\\x95\\xb0super.sol\":708:777  function foo() public virtual {... */\n      jump\t// out\n        /* \"solidity\\xe5\\x9f\\xba\\xe7\\xa1\\x80/\\xe8\\xb0\\x83\\xe7\\x94\\xa8\\xe7\\x88\\xb6\\xe5\\x87\\xbd\\xe6\\x95\\xb0super.sol\":785:854  function bar() public virtual {... */\n    tag_18:\n        /* \"solidity\\xe5\\x9f\\xba\\xe7\\xa1\\x80/\\xe8\\xb0\\x83\\xe7\\x94\\xa8\\xe7\\x88\\xb6\\xe5\\x87\\xbd\\xe6\\x95\\xb0super.sol\":831:846  Log(\"Base bar\") */\n      0xcf34ef537ac33ee1ac626ca1587a0a7e8e51561e5514f8cb36afa1c5102b3bab\n      mload(0x40)\n      tag_23\n      swap1\n      tag_24\n      jump\t// in\n    tag_23:\n      mload(0x40)\n      dup1\n      swap2\n      sub\n      swap1\n      log1\n        /* \"solidity\\xe5\\x9f\\xba\\xe7\\xa1\\x80/\\xe8\\xb0\\x83\\xe7\\x94\\xa8\\xe7\\x88\\xb6\\xe5\\x87\\xbd\\xe6\\x95\\xb0super.sol\":785:854  function bar() public virtual {... */\n      jump\t// out\n        /* \"#utility.yul\":7:176   */\n    tag_25:\n        /* \"#utility.yul\":91:102   */\n      0x00\n        /* \"#utility.yul\":125:131   */\n      dup3\n        /* \"#utility.yul\":120:123   */\n      dup3\n        /* \"#utility.yul\":113:132   */\n      mstore\n        /* \"#utility.yul\":165:169   */\n      0x20\n        /* \"#utility.yul\":160:163   */\n      dup3\n        /* \"#utility.yul\":156:170   */\n      add\n        /* \"#utility.yul\":141:170   */\n      swap1\n      pop\n        /* \"#utility.yul\":7:176   */\n      swap3\n      swap2\n      pop\n      pop\n      jump\t// out\n        /* \"#utility.yul\":182:337   */\n    tag_26:\n        /* \"#utility.yul\":322:329   */\n      0x4220666f6f000000000000000000000000000000000000000000000000000000\n        /* \"#utility.yul\":318:319   */\n      0x00\n        /* \"#utility.yul\":310:316   */\n      dup3\n        /* \"#utility.yul\":306:320   */\n      add\n        /* \"#utility.yul\":299:330   */\n      mstore\n        /* \"#utility.yul\":182:337   */\n      pop\n      jump\t// out\n        /* \"#utility.yul\":343:708   */\n    tag_27:\n        /* \"#utility.yul\":485:488   */\n      0x00\n        /* \"#utility.yul\":506:572   */\n      tag_38\n        /* \"#utility.yul\":570:571   */\n      0x05\n        /* \"#utility.yul\":565:568   */\n      dup4\n        /* \"#utility.yul\":506:572   */\n      tag_25\n      jump\t// in\n    tag_38:\n        /* \"#utility.yul\":499:572   */\n      swap2\n      pop\n        /* \"#utility.yul\":581:674   */\n      tag_39\n        /* \"#utility.yul\":670:673   */\n      dup3\n        /* \"#utility.yul\":581:674   */\n      tag_26\n      jump\t// in\n    tag_39:\n        /* \"#utility.yul\":699:701   */\n      0x20\n        /* \"#utility.yul\":694:697   */\n      dup3\n        /* \"#utility.yul\":690:702   */\n      add\n        /* \"#utility.yul\":683:702   */\n      swap1\n      pop\n        /* \"#utility.yul\":343:708   */\n      swap2\n      swap1\n      pop\n      jump\t// out\n        /* \"#utility.yul\":714:1133   */\n    tag_11:\n        /* \"#utility.yul\":880:884   */\n      0x00\n        /* \"#utility.yul\":918:920   */\n      0x20\n        /* \"#utility.yul\":907:916   */\n      dup3\n        /* \"#utility.yul\":903:921   */\n      add\n        /* \"#utility.yul\":895:921   */\n      swap1\n      pop\n        /* \"#utility.yul\":967:976   */\n      dup2\n        /* \"#utility.yul\":961:965   */\n      dup2\n        /* \"#utility.yul\":957:977   */\n      sub\n        /* \"#utility.yul\":953:954   */\n      0x00\n        /* \"#utility.yul\":942:951   */\n      dup4\n        /* \"#utility.yul\":938:955   */\n      add\n        /* \"#utility.yul\":931:978   */\n      mstore\n        /* \"#utility.yul\":995:1126   */\n      tag_41\n        /* \"#utility.yul\":1121:1125   */\n      dup2\n        /* \"#utility.yul\":995:1126   */\n      tag_27\n      jump\t// in\n    tag_41:\n        /* \"#utility.yul\":987:1126   */\n      swap1\n      pop\n        /* \"#utility.yul\":714:1133   */\n      swap2\n      swap1\n      pop\n      jump\t// out\n        /* \"#utility.yul\":1139:1294   */\n    tag_28:\n        /* \"#utility.yul\":1279:1286   */\n      0x4220626172000000000000000000000000000000000000000000000000000000\n        /* \"#utility.yul\":1275:1276   */\n      0x00\n        /* \"#utility.yul\":1267:1273   */\n      dup3\n        /* \"#utility.yul\":1263:1277   */\n      add\n        /* \"#utility.yul\":1256:1287   */\n      mstore\n        /* \"#utility.yul\":1139:1294   */\n      pop\n      jump\t// out\n        /* \"#utility.yul\":1300:1665   */\n    tag_29:\n        /* \"#utility.yul\":1442:1445   */\n      0x00\n        /* \"#utility.yul\":1463:1529   */\n      tag_44\n        /* \"#utility.yul\":1527:1528   */\n      0x05\n        /* \"#utility.yul\":1522:1525   */\n      dup4\n        /* \"#utility.yul\":1463:1529   */\n      tag_25\n      jump\t// in\n    tag_44:\n        /* \"#utility.yul\":1456:1529   */\n      swap2\n      pop\n        /* \"#utility.yul\":1538:1631   */\n      tag_45\n        /* \"#utility.yul\":1627:1630   */\n      dup3\n        /* \"#utility.yul\":1538:1631   */\n      tag_28\n      jump\t// in\n    tag_45:\n        /* \"#utility.yul\":1656:1658   */\n      0x20\n        /* \"#utility.yul\":1651:1654   */\n      dup3\n        /* \"#utility.yul\":1647:1659   */\n      add\n        /* \"#utility.yul\":1640:1659   */\n      swap1\n      pop\n        /* \"#utility.yul\":1300:1665   */\n      swap2\n      swap1\n      pop\n      jump\t// out\n        /* \"#utility.yul\":1671:2090   */\n    tag_16:\n        /* \"#utility.yul\":1837:1841   */\n      0x00\n        /* \"#utility.yul\":1875:1877   */\n      0x20\n        /* \"#utility.yul\":1864:1873   */\n      dup3\n        /* \"#utility.yul\":1860:1878   */\n      add\n        /* \"#utility.yul\":1852:1878   */\n      swap1\n      pop\n        /* \"#utility.yul\":1924:1933   */\n      dup2\n        /* \"#utility.yul\":1918:1922   */\n      dup2\n        /* \"#utility.yul\":1914:1934   */\n      sub\n        /* \"#utility.yul\":1910:1911   */\n      0x00\n        /* \"#utility.yul\":1899:1908   */\n      dup4\n        /* \"#utility.yul\":1895:1912   */\n      add\n        /* \"#utility.yul\":1888:1935   */\n      mstore\n        /* \"#utility.yul\":1952:2083   */\n      tag_47\n        /* \"#utility.yul\":2078:2082   */\n      dup2\n        /* \"#utility.yul\":1952:2083   */\n      tag_29\n      jump\t// in\n    tag_47:\n        /* \"#utility.yul\":1944:2083   */\n      swap1\n      pop\n        /* \"#utility.yul\":1671:2090   */\n      swap2\n      swap1\n      pop\n      jump\t// out\n        /* \"#utility.yul\":2096:2254   */\n    tag_30:\n        /* \"#utility.yul\":2236:2246   */\n      0x4261736520666f6f000000000000000000000000000000000000000000000000\n        /* \"#utility.yul\":2232:2233   */\n      0x00\n        /* \"#utility.yul\":2224:2230   */\n      dup3\n        /* \"#utility.yul\":2220:2234   */\n      add\n        /* \"#utility.yul\":2213:2247   */\n      mstore\n        /* \"#utility.yul\":2096:2254   */\n      pop\n      jump\t// out\n        /* \"#utility.yul\":2260:2625   */\n    tag_31:\n        /* \"#utility.yul\":2402:2405   */\n      0x00\n        /* \"#utility.yul\":2423:2489   */\n      tag_50\n        /* \"#utility.yul\":2487:2488   */\n      0x08\n        /* \"#utility.yul\":2482:2485   */\n      dup4\n        /* \"#utility.yul\":2423:2489   */\n      tag_25\n      jump\t// in\n    tag_50:\n        /* \"#utility.yul\":2416:2489   */\n      swap2\n      pop\n        /* \"#utility.yul\":2498:2591   */\n      tag_51\n        /* \"#utility.yul\":2587:2590   */\n      dup3\n        /* \"#utility.yul\":2498:2591   */\n      tag_30\n      jump\t// in\n    tag_51:\n        /* \"#utility.yul\":2616:2618   */\n      0x20\n        /* \"#utility.yul\":2611:2614   */\n      dup3\n        /* \"#utility.yul\":2607:2619   */\n      add\n        /* \"#utility.yul\":2600:2619   */\n      swap1\n      pop\n        /* \"#utility.yul\":2260:2625   */\n      swap2\n      swap1\n      pop\n      jump\t// out\n        /* \"#utility.yul\":2631:3050   */\n    tag_21:\n        /* \"#utility.yul\":2797:2801   */\n      0x00\n        /* \"#utility.yul\":2835:2837   */\n      0x20\n        /* \"#utility.yul\":2824:2833   */\n      dup3\n        /* \"#utility.yul\":2820:2838   */\n      add\n        /* \"#utility.yul\":2812:2838   */\n      swap1\n      pop\n        /* \"#utility.yul\":2884:2893   */\n      dup2\n        /* \"#utility.yul\":2878:2882   */\n      dup2\n        /* \"#utility.yul\":2874:2894   */\n      sub\n        /* \"#utility.yul\":2870:2871   */\n      0x00\n        /* \"#utility.yul\":2859:2868   */\n      dup4\n        /* \"#utility.yul\":2855:2872   */\n      add\n        /* \"#utility.yul\":2848:2895   */\n      mstore\n        /* \"#utility.yul\":2912:3043   */\n      tag_53\n        /* \"#utility.yul\":3038:3042   */\n      dup2\n        /* \"#utility.yul\":2912:3043   */\n      tag_31\n      jump\t// in\n    tag_53:\n        /* \"#utility.yul\":2904:3043   */\n      swap1\n      pop\n        /* \"#utility.yul\":2631:3050   */\n      swap2\n      swap1\n      pop\n      jump\t// out\n        /* \"#utility.yul\":3056:3214   */\n    tag_32:\n        /* \"#utility.yul\":3196:3206   */\n      0x4261736520626172000000000000000000000000000000000000000000000000\n        /* \"#utility.yul\":3192:3193   */\n      0x00\n        /* \"#utility.yul\":3184:3190   */\n      dup3\n        /* \"#utility.yul\":3180:3194   */\n      add\n        /* \"#utility.yul\":3173:3207   */\n      mstore\n        /* \"#utility.yul\":3056:3214   */\n      pop\n      jump\t// out\n        /* \"#utility.yul\":3220:3585   */\n    tag_33:\n        /* \"#utility.yul\":3362:3365   */\n      0x00\n        /* \"#utility.yul\":3383:3449   */\n      tag_56\n        /* \"#utility.yul\":3447:3448   */\n      0x08\n        /* \"#utility.yul\":3442:3445   */\n      dup4\n        /* \"#utility.yul\":3383:3449   */\n      tag_25\n      jump\t// in\n    tag_56:\n        /* \"#utility.yul\":3376:3449   */\n      swap2\n      pop\n        /* \"#utility.yul\":3458:3551   */\n      tag_57\n        /* \"#utility.yul\":3547:3550   */\n      dup3\n        /* \"#utility.yul\":3458:3551   */\n      tag_32\n      jump\t// in\n    tag_57:\n        /* \"#utility.yul\":3576:3578   */\n      0x20\n        /* \"#utility.yul\":3571:3574   */\n      dup3\n        /* \"#utility.yul\":3567:3579   */\n      add\n        /* \"#utility.yul\":3560:3579   */\n      swap1\n      pop\n        /* \"#utility.yul\":3220:3585   */\n      swap2\n      swap1\n      pop\n      jump\t// out\n        /* \"#utility.yul\":3591:4010   */\n    tag_24:\n        /* \"#utility.yul\":3757:3761   */\n      0x00\n        /* \"#utility.yul\":3795:3797   */\n      0x20\n        /* \"#utility.yul\":3784:3793   */\n      dup3\n        /* \"#utility.yul\":3780:3798   */\n      add\n        /* \"#utility.yul\":3772:3798   */\n      swap1\n      pop\n        /* \"#utility.yul\":3844:3853   */\n      dup2\n        /* \"#utility.yul\":3838:3842   */\n      dup2\n        /* \"#utility.yul\":3834:3854   */\n      sub\n        /* \"#utility.yul\":3830:3831   */\n      0x00\n        /* \"#utility.yul\":3819:3828   */\n      dup4\n        /* \"#utility.yul\":3815:3832   */\n      add\n        /* \"#utility.yul\":3808:3855   */\n      mstore\n        /* \"#utility.yul\":3872:4003   */\n      tag_59\n        /* \"#utility.yul\":3998:4002   */\n      dup2\n        /* \"#utility.yul\":3872:4003   */\n      tag_33\n      jump\t// in\n    tag_59:\n        /* \"#utility.yul\":3864:4003   */\n      swap1\n      pop\n        /* \"#utility.yul\":3591:4010   */\n      swap2\n      swap1\n      pop\n      jump\t// out\n\n    auxdata: 0xa2646970667358221220c1af587043154f4963c23fa88124a90da098fc9fa48b4f29dcc0904e0523653d64736f6c63430008220033\n}\n",
				"bytecode": {
					"linkReferences": {},
					"object": "6080604052348015600e575f5ffd5b5061031e8061001c5f395ff3fe608060405234801561000f575f5ffd5b5060043610610034575f3560e01c8063c298557814610038578063febb0f7e14610042575b5f5ffd5b61004061004c565b005b61004a61008b565b005b7fcf34ef537ac33ee1ac626ca1587a0a7e8e51561e5514f8cb36afa1c5102b3bab60405161007990610192565b60405180910390a16100896100ca565b565b7fcf34ef537ac33ee1ac626ca1587a0a7e8e51561e5514f8cb36afa1c5102b3bab6040516100b8906101fa565b60405180910390a16100c8610101565b565b7fcf34ef537ac33ee1ac626ca1587a0a7e8e51561e5514f8cb36afa1c5102b3bab6040516100f790610262565b60405180910390a1565b7fcf34ef537ac33ee1ac626ca1587a0a7e8e51561e5514f8cb36afa1c5102b3bab60405161012e906102ca565b60405180910390a1565b5f82825260208201905092915050565b7f4220666f6f0000000000000000000000000000000000000000000000000000005f82015250565b5f61017c600583610138565b915061018782610148565b602082019050919050565b5f6020820190508181035f8301526101a981610170565b9050919050565b7f42206261720000000000000000000000000000000000000000000000000000005f82015250565b5f6101e4600583610138565b91506101ef826101b0565b602082019050919050565b5f6020820190508181035f830152610211816101d8565b9050919050565b7f4261736520666f6f0000000000000000000000000000000000000000000000005f82015250565b5f61024c600883610138565b915061025782610218565b602082019050919050565b5f6020820190508181035f83015261027981610240565b9050919050565b7f42617365206261720000000000000000000000000000000000000000000000005f82015250565b5f6102b4600883610138565b91506102bf82610280565b602082019050919050565b5f6020820190508181035f8301526102e1816102a8565b905091905056fea2646970667358221220c1af587043154f4963c23fa88124a90da098fc9fa48b4f29dcc0904e0523653d64736f6c63430008220033",
					"opcodes": "PUSH1 0x80 PUSH1 0x40 MSTORE CALLVALUE DUP1 ISZERO PUSH1 0xE JUMPI PUSH0 PUSH0 REVERT JUMPDEST POP PUSH2 0x31E DUP1 PUSH2 0x1C PUSH0 CODECOPY PUSH0 RETURN INVALID PUSH1 0x80 PUSH1 0x40 MSTORE CALLVALUE DUP1 ISZERO PUSH2 0xF JUMPI PUSH0 PUSH0 REVERT JUMPDEST POP PUSH1 0x4 CALLDATASIZE LT PUSH2 0x34 JUMPI PUSH0 CALLDATALOAD PUSH1 0xE0 SHR DUP1 PUSH4 0xC2985578 EQ PUSH2 0x38 JUMPI DUP1 PUSH4 0xFEBB0F7E EQ PUSH2 0x42 JUMPI JUMPDEST PUSH0 PUSH0 REVERT JUMPDEST PUSH2 0x40 PUSH2 0x4C JUMP JUMPDEST STOP JUMPDEST PUSH2 0x4A PUSH2 0x8B JUMP JUMPDEST STOP JUMPDEST PUSH32 0xCF34EF537AC33EE1AC626CA1587A0A7E8E51561E5514F8CB36AFA1C5102B3BAB PUSH1 0x40 MLOAD PUSH2 0x79 SWAP1 PUSH2 0x192 JUMP JUMPDEST PUSH1 0x40 MLOAD DUP1 SWAP2 SUB SWAP1 LOG1 PUSH2 0x89 PUSH2 0xCA JUMP JUMPDEST JUMP JUMPDEST PUSH32 0xCF34EF537AC33EE1AC626CA1587A0A7E8E51561E5514F8CB36AFA1C5102B3BAB PUSH1 0x40 MLOAD PUSH2 0xB8 SWAP1 PUSH2 0x1FA JUMP JUMPDEST PUSH1 0x40 MLOAD DUP1 SWAP2 SUB SWAP1 LOG1 PUSH2 0xC8 PUSH2 0x101 JUMP JUMPDEST JUMP JUMPDEST PUSH32 0xCF34EF537AC33EE1AC626CA1587A0A7E8E51561E5514F8CB36AFA1C5102B3BAB PUSH1 0x40 MLOAD PUSH2 0xF7 SWAP1 PUSH2 0x262 JUMP JUMPDEST PUSH1 0x40 MLOAD DUP1 SWAP2 SUB SWAP1 LOG1 JUMP JUMPDEST PUSH32 0xCF34EF537AC33EE1AC626CA1587A0A7E8E51561E5514F8CB36AFA1C5102B3BAB PUSH1 0x40 MLOAD PUSH2 0x12E SWAP1 PUSH2 0x2CA JUMP JUMPDEST PUSH1 0x40 MLOAD DUP1 SWAP2 SUB SWAP1 LOG1 JUMP JUMPDEST PUSH0 DUP3 DUP3 MSTORE PUSH1 0x20 DUP3 ADD SWAP1 POP SWAP3 SWAP2 POP POP JUMP JUMPDEST PUSH32 0x4220666F6F000000000000000000000000000000000000000000000000000000 PUSH0 DUP3 ADD MSTORE POP JUMP JUMPDEST PUSH0 PUSH2 0x17C PUSH1 0x5 DUP4 PUSH2 0x138 JUMP JUMPDEST SWAP2 POP PUSH2 0x187 DUP3 PUSH2 0x148 JUMP JUMPDEST PUSH1 0x20 DUP3 ADD SWAP1 POP SWAP2 SWAP1 POP JUMP JUMPDEST PUSH0 PUSH1 0x20 DUP3 ADD SWAP1 POP DUP2 DUP2 SUB PUSH0 DUP4 ADD MSTORE PUSH2 0x1A9 DUP2 PUSH2 0x170 JUMP JUMPDEST SWAP1 POP SWAP2 SWAP1 POP JUMP JUMPDEST PUSH32 0x4220626172000000000000000000000000000000000000000000000000000000 PUSH0 DUP3 ADD MSTORE POP JUMP JUMPDEST PUSH0 PUSH2 0x1E4 PUSH1 0x5 DUP4 PUSH2 0x138 JUMP JUMPDEST SWAP2 POP PUSH2 0x1EF DUP3 PUSH2 0x1B0 JUMP JUMPDEST PUSH1 0x20 DUP3 ADD SWAP1 POP SWAP2 SWAP1 POP JUMP JUMPDEST PUSH0 PUSH1 0x20 DUP3 ADD SWAP1 POP DUP2 DUP2 SUB PUSH0 DUP4 ADD MSTORE PUSH2 0x211 DUP2 PUSH2 0x1D8 JUMP JUMPDEST SWAP1 POP SWAP2 SWAP1 POP JUMP JUMPDEST PUSH32 0x4261736520666F6F000000000000000000000000000000000000000000000000 PUSH0 DUP3 ADD MSTORE POP JUMP JUMPDEST PUSH0 PUSH2 0x24C PUSH1 0x8 DUP4 PUSH2 0x138 JUMP JUMPDEST SWAP2 POP PUSH2 0x257 DUP3 PUSH2 0x218 JUMP JUMPDEST PUSH1 0x20 DUP3 ADD SWAP1 POP SWAP2 SWAP1 POP JUMP JUMPDEST PUSH0 PUSH1 0x20 DUP3 ADD SWAP1 POP DUP2 DUP2 SUB PUSH0 DUP4 ADD MSTORE PUSH2 0x279 DUP2 PUSH2 0x240 JUMP JUMPDEST SWAP1 POP SWAP2 SWAP1 POP JUMP JUMPDEST PUSH32 0x4261736520626172000000000000000000000000000000000000000000000000 PUSH0 DUP3 ADD MSTORE POP JUMP JUMPDEST PUSH0 PUSH2 0x2B4 PUSH1 0x8 DUP4 PUSH2 0x138 JUMP JUMPDEST SWAP2 POP PUSH2 0x2BF DUP3 PUSH2 0x280 JUMP JUMPDEST PUSH1 0x20 DUP3 ADD SWAP1 POP SWAP2 SWAP1 POP JUMP JUMPDEST PUSH0 PUSH1 0x20 DUP3 ADD SWAP1 POP DUP2 DUP2 SUB PUSH0 DUP4 ADD MSTORE PUSH2 0x2E1 DUP2 PUSH2 0x2A8 JUMP JUMPDEST SWAP1 POP SWAP2 SWAP1 POP JUMP INVALID LOG2 PUSH5 0x6970667358 0x22 SLT KECCAK256 0xC1 0xAF PC PUSH17 0x43154F4963C23FA88124A90DA098FC9FA4 DUP12 0x4F 0x29 0xDC 0xC0 SWAP1 0x4E SDIV 0x23 PUSH6 0x3D64736F6C63 NUMBER STOP ADDMOD 0x22 STOP CALLER "
				},
				"gasEstimates": {
					"creation": {
						"codeDepositCost": "159600",
						"executionCost": "200",
						"totalCost": "159800"
					},
					"external": {
						"bar()": "infinite",
						"foo()": "infinite"
					}
				},
				"methodIdentifiers": {
					"bar()": "febb0f7e",
					"foo()": "c2985578"
				}
			},
			"storageLayout": {
				"storage": [],
				"types": null
			},
			"userdoc": {
				"kind": "user",
				"methods": {},
				"version": 1
			}
		}
	}
}