{
	"solidity基础/可见性修饰符.sol": {
		"Base": {
			"abi": [
				{
					"inputs": [],
					"name": "exFunc",
					"outputs": [
						{
							"internalType": "string",
							"name": "",
							"type": "string"
						}
					],
					"stateMutability": "pure",
					"type": "function"
				},
				{
					"inputs": [],
					"name": "example",
					"outputs": [],
					"stateMutability": "view",
					"type": "function"
				},
				{
					"inputs": [],
					"name": "pubFunc",
					"outputs": [
						{
							"internalType": "string",
							"name": "",
							"type": "string"
						}
					],
					"stateMutability": "pure",
					"type": "function"
				},
				{
					"inputs": [],
					"name": "pubVar",
					"outputs": [
						{
							"internalType": "uint256",
							"name": "",
							"type": "uint256"
						}
					],
					"stateMutability": "view",
					"type": "function"
				}
			],
			"devdoc": {
				"kind": "dev",
				"methods": {},
				"version": 1
			},
			"evm": {
				"assembly": "    /* \"solidity\\xe5\\x9f\\xba\\xe7\\xa1\\x80/\\xe5\\x8f\\xaf\\xe8\\xa7\\x81\\xe6\\x80\\xa7\\xe4\\xbf\\xae\\xe9\\xa5\\xb0\\xe7\\xac\\xa6.sol\":220:977  contract Base{... */\n  mstore(0x40, 0x80)\n  callvalue\n  dup1\n  iszero\n  tag_1\n  jumpi\n  revert(0x00, 0x00)\ntag_1:\n  pop\n  dataSize(sub_0)\n  dup1\n  dataOffset(sub_0)\n  0x00\n  codecopy\n  0x00\n  return\nstop\n\nsub_0: assembly {\n        /* \"solidity\\xe5\\x9f\\xba\\xe7\\xa1\\x80/\\xe5\\x8f\\xaf\\xe8\\xa7\\x81\\xe6\\x80\\xa7\\xe4\\xbf\\xae\\xe9\\xa5\\xb0\\xe7\\xac\\xa6.sol\":220:977  contract Base{... */\n      mstore(0x40, 0x80)\n      callvalue\n      dup1\n      iszero\n      tag_1\n      jumpi\n      revert(0x00, 0x00)\n    tag_1:\n      pop\n      jumpi(tag_2, lt(calldatasize, 0x04))\n      shr(0xe0, calldataload(0x00))\n      dup1\n      0x4ddc8329\n      eq\n      tag_3\n      jumpi\n      dup1\n      0x54353f2f\n      eq\n      tag_4\n      jumpi\n      dup1\n      0xa38715c4\n      eq\n      tag_5\n      jumpi\n      dup1\n      0xf647416d\n      eq\n      tag_6\n      jumpi\n    tag_2:\n      revert(0x00, 0x00)\n        /* \"solidity\\xe5\\x9f\\xba\\xe7\\xa1\\x80/\\xe5\\x8f\\xaf\\xe8\\xa7\\x81\\xe6\\x80\\xa7\\xe4\\xbf\\xae\\xe9\\xa5\\xb0\\xe7\\xac\\xa6.sol\":426:444  uint public pubVar */\n    tag_3:\n      tag_7\n      tag_8\n      jump\t// in\n    tag_7:\n      mload(0x40)\n      tag_9\n      swap2\n      swap1\n      tag_10\n      jump\t// in\n    tag_9:\n      mload(0x40)\n      dup1\n      swap2\n      sub\n      swap1\n      return\n        /* \"solidity\\xe5\\x9f\\xba\\xe7\\xa1\\x80/\\xe5\\x8f\\xaf\\xe8\\xa7\\x81\\xe6\\x80\\xa7\\xe4\\xbf\\xae\\xe9\\xa5\\xb0\\xe7\\xac\\xa6.sol\":842:974  function example() public view {... */\n    tag_4:\n      tag_11\n      tag_12\n      jump\t// in\n    tag_11:\n      stop\n        /* \"solidity\\xe5\\x9f\\xba\\xe7\\xa1\\x80/\\xe5\\x8f\\xaf\\xe8\\xa7\\x81\\xe6\\x80\\xa7\\xe4\\xbf\\xae\\xe9\\xa5\\xb0\\xe7\\xac\\xa6.sol\":648:737  function exFunc() external  pure returns(string memory){... */\n    tag_5:\n      tag_13\n      tag_14\n      jump\t// in\n    tag_13:\n      mload(0x40)\n      tag_15\n      swap2\n      swap1\n      tag_16\n      jump\t// in\n    tag_15:\n      mload(0x40)\n      dup1\n      swap2\n      sub\n      swap1\n      return\n        /* \"solidity\\xe5\\x9f\\xba\\xe7\\xa1\\x80/\\xe5\\x8f\\xaf\\xe8\\xa7\\x81\\xe6\\x80\\xa7\\xe4\\xbf\\xae\\xe9\\xa5\\xb0\\xe7\\xac\\xa6.sol\":745:834  function pubFunc() public  pure returns(string memory){... */\n    tag_6:\n      tag_17\n      tag_18\n      jump\t// in\n    tag_17:\n      mload(0x40)\n      tag_19\n      swap2\n      swap1\n      tag_16\n      jump\t// in\n    tag_19:\n      mload(0x40)\n      dup1\n      swap2\n      sub\n      swap1\n      return\n        /* \"solidity\\xe5\\x9f\\xba\\xe7\\xa1\\x80/\\xe5\\x8f\\xaf\\xe8\\xa7\\x81\\xe6\\x80\\xa7\\xe4\\xbf\\xae\\xe9\\xa5\\xb0\\xe7\\xac\\xa6.sol\":426:444  uint public pubVar */\n    tag_8:\n      sload(0x02)\n      dup2\n      jump\t// out\n        /* \"solidity\\xe5\\x9f\\xba\\xe7\\xa1\\x80/\\xe5\\x8f\\xaf\\xe8\\xa7\\x81\\xe6\\x80\\xa7\\xe4\\xbf\\xae\\xe9\\xa5\\xb0\\xe7\\xac\\xa6.sol\":842:974  function example() public view {... */\n    tag_12:\n        /* \"solidity\\xe5\\x9f\\xba\\xe7\\xa1\\x80/\\xe5\\x8f\\xaf\\xe8\\xa7\\x81\\xe6\\x80\\xa7\\xe4\\xbf\\xae\\xe9\\xa5\\xb0\\xe7\\xac\\xa6.sol\":901:907  pubVar */\n      sload(0x02)\n        /* \"solidity\\xe5\\x9f\\xba\\xe7\\xa1\\x80/\\xe5\\x8f\\xaf\\xe8\\xa7\\x81\\xe6\\x80\\xa7\\xe4\\xbf\\xae\\xe9\\xa5\\xb0\\xe7\\xac\\xa6.sol\":893:898  inVar */\n      sload(0x01)\n        /* \"solidity\\xe5\\x9f\\xba\\xe7\\xa1\\x80/\\xe5\\x8f\\xaf\\xe8\\xa7\\x81\\xe6\\x80\\xa7\\xe4\\xbf\\xae\\xe9\\xa5\\xb0\\xe7\\xac\\xa6.sol\":884:890  priVar */\n      sload(0x00)\n        /* \"solidity\\xe5\\x9f\\xba\\xe7\\xa1\\x80/\\xe5\\x8f\\xaf\\xe8\\xa7\\x81\\xe6\\x80\\xa7\\xe4\\xbf\\xae\\xe9\\xa5\\xb0\\xe7\\xac\\xa6.sol\":884:898  priVar + inVar */\n      tag_21\n      swap2\n      swap1\n      tag_22\n      jump\t// in\n    tag_21:\n        /* \"solidity\\xe5\\x9f\\xba\\xe7\\xa1\\x80/\\xe5\\x8f\\xaf\\xe8\\xa7\\x81\\xe6\\x80\\xa7\\xe4\\xbf\\xae\\xe9\\xa5\\xb0\\xe7\\xac\\xa6.sol\":884:907  priVar + inVar + pubVar */\n      tag_23\n      swap2\n      swap1\n      tag_22\n      jump\t// in\n    tag_23:\n      pop\n        /* \"solidity\\xe5\\x9f\\xba\\xe7\\xa1\\x80/\\xe5\\x8f\\xaf\\xe8\\xa7\\x81\\xe6\\x80\\xa7\\xe4\\xbf\\xae\\xe9\\xa5\\xb0\\xe7\\xac\\xa6.sol\":918:927  priFunc() */\n      tag_24\n        /* \"solidity\\xe5\\x9f\\xba\\xe7\\xa1\\x80/\\xe5\\x8f\\xaf\\xe8\\xa7\\x81\\xe6\\x80\\xa7\\xe4\\xbf\\xae\\xe9\\xa5\\xb0\\xe7\\xac\\xa6.sol\":918:925  priFunc */\n      tag_25\n        /* \"solidity\\xe5\\x9f\\xba\\xe7\\xa1\\x80/\\xe5\\x8f\\xaf\\xe8\\xa7\\x81\\xe6\\x80\\xa7\\xe4\\xbf\\xae\\xe9\\xa5\\xb0\\xe7\\xac\\xa6.sol\":918:927  priFunc() */\n      jump\t// in\n    tag_24:\n      pop\n        /* \"solidity\\xe5\\x9f\\xba\\xe7\\xa1\\x80/\\xe5\\x8f\\xaf\\xe8\\xa7\\x81\\xe6\\x80\\xa7\\xe4\\xbf\\xae\\xe9\\xa5\\xb0\\xe7\\xac\\xa6.sol\":938:946  inFunc() */\n      tag_26\n        /* \"solidity\\xe5\\x9f\\xba\\xe7\\xa1\\x80/\\xe5\\x8f\\xaf\\xe8\\xa7\\x81\\xe6\\x80\\xa7\\xe4\\xbf\\xae\\xe9\\xa5\\xb0\\xe7\\xac\\xa6.sol\":938:944  inFunc */\n      tag_27\n        /* \"solidity\\xe5\\x9f\\xba\\xe7\\xa1\\x80/\\xe5\\x8f\\xaf\\xe8\\xa7\\x81\\xe6\\x80\\xa7\\xe4\\xbf\\xae\\xe9\\xa5\\xb0\\xe7\\xac\\xa6.sol\":938:946  inFunc() */\n      jump\t// in\n    tag_26:\n      pop\n        /* \"solidity\\xe5\\x9f\\xba\\xe7\\xa1\\x80/\\xe5\\x8f\\xaf\\xe8\\xa7\\x81\\xe6\\x80\\xa7\\xe4\\xbf\\xae\\xe9\\xa5\\xb0\\xe7\\xac\\xa6.sol\":957:966  pubFunc() */\n      tag_28\n        /* \"solidity\\xe5\\x9f\\xba\\xe7\\xa1\\x80/\\xe5\\x8f\\xaf\\xe8\\xa7\\x81\\xe6\\x80\\xa7\\xe4\\xbf\\xae\\xe9\\xa5\\xb0\\xe7\\xac\\xa6.sol\":957:964  pubFunc */\n      tag_18\n        /* \"solidity\\xe5\\x9f\\xba\\xe7\\xa1\\x80/\\xe5\\x8f\\xaf\\xe8\\xa7\\x81\\xe6\\x80\\xa7\\xe4\\xbf\\xae\\xe9\\xa5\\xb0\\xe7\\xac\\xa6.sol\":957:966  pubFunc() */\n      jump\t// in\n    tag_28:\n      pop\n        /* \"solidity\\xe5\\x9f\\xba\\xe7\\xa1\\x80/\\xe5\\x8f\\xaf\\xe8\\xa7\\x81\\xe6\\x80\\xa7\\xe4\\xbf\\xae\\xe9\\xa5\\xb0\\xe7\\xac\\xa6.sol\":842:974  function example() public view {... */\n      jump\t// out\n        /* \"solidity\\xe5\\x9f\\xba\\xe7\\xa1\\x80/\\xe5\\x8f\\xaf\\xe8\\xa7\\x81\\xe6\\x80\\xa7\\xe4\\xbf\\xae\\xe9\\xa5\\xb0\\xe7\\xac\\xa6.sol\":648:737  function exFunc() external  pure returns(string memory){... */\n    tag_14:\n        /* \"solidity\\xe5\\x9f\\xba\\xe7\\xa1\\x80/\\xe5\\x8f\\xaf\\xe8\\xa7\\x81\\xe6\\x80\\xa7\\xe4\\xbf\\xae\\xe9\\xa5\\xb0\\xe7\\xac\\xa6.sol\":689:702  string memory */\n      0x60\n        /* \"solidity\\xe5\\x9f\\xba\\xe7\\xa1\\x80/\\xe5\\x8f\\xaf\\xe8\\xa7\\x81\\xe6\\x80\\xa7\\xe4\\xbf\\xae\\xe9\\xa5\\xb0\\xe7\\xac\\xa6.sol\":714:729  return \"exFunc\" */\n      mload(0x40)\n      dup1\n      0x40\n      add\n      0x40\n      mstore\n      dup1\n      0x06\n      dup2\n      mstore\n      0x20\n      add\n      0x657846756e630000000000000000000000000000000000000000000000000000\n      dup2\n      mstore\n      pop\n      swap1\n      pop\n        /* \"solidity\\xe5\\x9f\\xba\\xe7\\xa1\\x80/\\xe5\\x8f\\xaf\\xe8\\xa7\\x81\\xe6\\x80\\xa7\\xe4\\xbf\\xae\\xe9\\xa5\\xb0\\xe7\\xac\\xa6.sol\":648:737  function exFunc() external  pure returns(string memory){... */\n      swap1\n      jump\t// out\n        /* \"solidity\\xe5\\x9f\\xba\\xe7\\xa1\\x80/\\xe5\\x8f\\xaf\\xe8\\xa7\\x81\\xe6\\x80\\xa7\\xe4\\xbf\\xae\\xe9\\xa5\\xb0\\xe7\\xac\\xa6.sol\":745:834  function pubFunc() public  pure returns(string memory){... */\n    tag_18:\n        /* \"solidity\\xe5\\x9f\\xba\\xe7\\xa1\\x80/\\xe5\\x8f\\xaf\\xe8\\xa7\\x81\\xe6\\x80\\xa7\\xe4\\xbf\\xae\\xe9\\xa5\\xb0\\xe7\\xac\\xa6.sol\":785:798  string memory */\n      0x60\n        /* \"solidity\\xe5\\x9f\\xba\\xe7\\xa1\\x80/\\xe5\\x8f\\xaf\\xe8\\xa7\\x81\\xe6\\x80\\xa7\\xe4\\xbf\\xae\\xe9\\xa5\\xb0\\xe7\\xac\\xa6.sol\":810:826  return \"pubFunc\" */\n      mload(0x40)\n      dup1\n      0x40\n      add\n      0x40\n      mstore\n      dup1\n      0x07\n      dup2\n      mstore\n      0x20\n      add\n      0x70756246756e6300000000000000000000000000000000000000000000000000\n      dup2\n      mstore\n      pop\n      swap1\n      pop\n        /* \"solidity\\xe5\\x9f\\xba\\xe7\\xa1\\x80/\\xe5\\x8f\\xaf\\xe8\\xa7\\x81\\xe6\\x80\\xa7\\xe4\\xbf\\xae\\xe9\\xa5\\xb0\\xe7\\xac\\xa6.sol\":745:834  function pubFunc() public  pure returns(string memory){... */\n      swap1\n      jump\t// out\n        /* \"solidity\\xe5\\x9f\\xba\\xe7\\xa1\\x80/\\xe5\\x8f\\xaf\\xe8\\xa7\\x81\\xe6\\x80\\xa7\\xe4\\xbf\\xae\\xe9\\xa5\\xb0\\xe7\\xac\\xa6.sol\":454:543  function priFunc() private pure returns(string memory){... */\n    tag_25:\n        /* \"solidity\\xe5\\x9f\\xba\\xe7\\xa1\\x80/\\xe5\\x8f\\xaf\\xe8\\xa7\\x81\\xe6\\x80\\xa7\\xe4\\xbf\\xae\\xe9\\xa5\\xb0\\xe7\\xac\\xa6.sol\":494:507  string memory */\n      0x60\n        /* \"solidity\\xe5\\x9f\\xba\\xe7\\xa1\\x80/\\xe5\\x8f\\xaf\\xe8\\xa7\\x81\\xe6\\x80\\xa7\\xe4\\xbf\\xae\\xe9\\xa5\\xb0\\xe7\\xac\\xa6.sol\":519:535  return \"priFunc\" */\n      mload(0x40)\n      dup1\n      0x40\n      add\n      0x40\n      mstore\n      dup1\n      0x07\n      dup2\n      mstore\n      0x20\n      add\n      0x70726946756e6300000000000000000000000000000000000000000000000000\n      dup2\n      mstore\n      pop\n      swap1\n      pop\n        /* \"solidity\\xe5\\x9f\\xba\\xe7\\xa1\\x80/\\xe5\\x8f\\xaf\\xe8\\xa7\\x81\\xe6\\x80\\xa7\\xe4\\xbf\\xae\\xe9\\xa5\\xb0\\xe7\\xac\\xa6.sol\":454:543  function priFunc() private pure returns(string memory){... */\n      swap1\n      jump\t// out\n        /* \"solidity\\xe5\\x9f\\xba\\xe7\\xa1\\x80/\\xe5\\x8f\\xaf\\xe8\\xa7\\x81\\xe6\\x80\\xa7\\xe4\\xbf\\xae\\xe9\\xa5\\xb0\\xe7\\xac\\xa6.sol\":551:640  function inFunc() internal  pure returns(string memory){... */\n    tag_27:\n        /* \"solidity\\xe5\\x9f\\xba\\xe7\\xa1\\x80/\\xe5\\x8f\\xaf\\xe8\\xa7\\x81\\xe6\\x80\\xa7\\xe4\\xbf\\xae\\xe9\\xa5\\xb0\\xe7\\xac\\xa6.sol\":592:605  string memory */\n      0x60\n        /* \"solidity\\xe5\\x9f\\xba\\xe7\\xa1\\x80/\\xe5\\x8f\\xaf\\xe8\\xa7\\x81\\xe6\\x80\\xa7\\xe4\\xbf\\xae\\xe9\\xa5\\xb0\\xe7\\xac\\xa6.sol\":617:632  return \"inFunc\" */\n      mload(0x40)\n      dup1\n      0x40\n      add\n      0x40\n      mstore\n      dup1\n      0x06\n      dup2\n      mstore\n      0x20\n      add\n      0x696e46756e630000000000000000000000000000000000000000000000000000\n      dup2\n      mstore\n      pop\n      swap1\n      pop\n        /* \"solidity\\xe5\\x9f\\xba\\xe7\\xa1\\x80/\\xe5\\x8f\\xaf\\xe8\\xa7\\x81\\xe6\\x80\\xa7\\xe4\\xbf\\xae\\xe9\\xa5\\xb0\\xe7\\xac\\xa6.sol\":551:640  function inFunc() internal  pure returns(string memory){... */\n      swap1\n      jump\t// out\n        /* \"#utility.yul\":7:84   */\n    tag_33:\n        /* \"#utility.yul\":44:51   */\n      0x00\n        /* \"#utility.yul\":73:78   */\n      dup2\n        /* \"#utility.yul\":62:78   */\n      swap1\n      pop\n        /* \"#utility.yul\":7:84   */\n      swap2\n      swap1\n      pop\n      jump\t// out\n        /* \"#utility.yul\":90:208   */\n    tag_34:\n        /* \"#utility.yul\":177:201   */\n      tag_44\n        /* \"#utility.yul\":195:200   */\n      dup2\n        /* \"#utility.yul\":177:201   */\n      tag_33\n      jump\t// in\n    tag_44:\n        /* \"#utility.yul\":172:175   */\n      dup3\n        /* \"#utility.yul\":165:202   */\n      mstore\n        /* \"#utility.yul\":90:208   */\n      pop\n      pop\n      jump\t// out\n        /* \"#utility.yul\":214:436   */\n    tag_10:\n        /* \"#utility.yul\":307:311   */\n      0x00\n        /* \"#utility.yul\":345:347   */\n      0x20\n        /* \"#utility.yul\":334:343   */\n      dup3\n        /* \"#utility.yul\":330:348   */\n      add\n        /* \"#utility.yul\":322:348   */\n      swap1\n      pop\n        /* \"#utility.yul\":358:429   */\n      tag_46\n        /* \"#utility.yul\":426:427   */\n      0x00\n        /* \"#utility.yul\":415:424   */\n      dup4\n        /* \"#utility.yul\":411:428   */\n      add\n        /* \"#utility.yul\":402:408   */\n      dup5\n        /* \"#utility.yul\":358:429   */\n      tag_34\n      jump\t// in\n    tag_46:\n        /* \"#utility.yul\":214:436   */\n      swap3\n      swap2\n      pop\n      pop\n      jump\t// out\n        /* \"#utility.yul\":442:541   */\n    tag_35:\n        /* \"#utility.yul\":494:500   */\n      0x00\n        /* \"#utility.yul\":528:533   */\n      dup2\n        /* \"#utility.yul\":522:534   */\n      mload\n        /* \"#utility.yul\":512:534   */\n      swap1\n      pop\n        /* \"#utility.yul\":442:541   */\n      swap2\n      swap1\n      pop\n      jump\t// out\n        /* \"#utility.yul\":547:716   */\n    tag_36:\n        /* \"#utility.yul\":631:642   */\n      0x00\n        /* \"#utility.yul\":665:671   */\n      dup3\n        /* \"#utility.yul\":660:663   */\n      dup3\n        /* \"#utility.yul\":653:672   */\n      mstore\n        /* \"#utility.yul\":705:709   */\n      0x20\n        /* \"#utility.yul\":700:703   */\n      dup3\n        /* \"#utility.yul\":696:710   */\n      add\n        /* \"#utility.yul\":681:710   */\n      swap1\n      pop\n        /* \"#utility.yul\":547:716   */\n      swap3\n      swap2\n      pop\n      pop\n      jump\t// out\n        /* \"#utility.yul\":722:861   */\n    tag_37:\n        /* \"#utility.yul\":811:817   */\n      dup3\n        /* \"#utility.yul\":806:809   */\n      dup2\n        /* \"#utility.yul\":801:804   */\n      dup4\n        /* \"#utility.yul\":795:818   */\n      mcopy\n        /* \"#utility.yul\":852:853   */\n      0x00\n        /* \"#utility.yul\":843:849   */\n      dup4\n        /* \"#utility.yul\":838:841   */\n      dup4\n        /* \"#utility.yul\":834:850   */\n      add\n        /* \"#utility.yul\":827:854   */\n      mstore\n        /* \"#utility.yul\":722:861   */\n      pop\n      pop\n      pop\n      jump\t// out\n        /* \"#utility.yul\":867:969   */\n    tag_38:\n        /* \"#utility.yul\":908:914   */\n      0x00\n        /* \"#utility.yul\":959:961   */\n      0x1f\n        /* \"#utility.yul\":955:962   */\n      not\n        /* \"#utility.yul\":950:952   */\n      0x1f\n        /* \"#utility.yul\":943:948   */\n      dup4\n        /* \"#utility.yul\":939:953   */\n      add\n        /* \"#utility.yul\":935:963   */\n      and\n        /* \"#utility.yul\":925:963   */\n      swap1\n      pop\n        /* \"#utility.yul\":867:969   */\n      swap2\n      swap1\n      pop\n      jump\t// out\n        /* \"#utility.yul\":975:1352   */\n    tag_39:\n        /* \"#utility.yul\":1063:1066   */\n      0x00\n        /* \"#utility.yul\":1091:1130   */\n      tag_52\n        /* \"#utility.yul\":1124:1129   */\n      dup3\n        /* \"#utility.yul\":1091:1130   */\n      tag_35\n      jump\t// in\n    tag_52:\n        /* \"#utility.yul\":1146:1217   */\n      tag_53\n        /* \"#utility.yul\":1210:1216   */\n      dup2\n        /* \"#utility.yul\":1205:1208   */\n      dup6\n        /* \"#utility.yul\":1146:1217   */\n      tag_36\n      jump\t// in\n    tag_53:\n        /* \"#utility.yul\":1139:1217   */\n      swap4\n      pop\n        /* \"#utility.yul\":1226:1291   */\n      tag_54\n        /* \"#utility.yul\":1284:1290   */\n      dup2\n        /* \"#utility.yul\":1279:1282   */\n      dup6\n        /* \"#utility.yul\":1272:1276   */\n      0x20\n        /* \"#utility.yul\":1265:1270   */\n      dup7\n        /* \"#utility.yul\":1261:1277   */\n      add\n        /* \"#utility.yul\":1226:1291   */\n      tag_37\n      jump\t// in\n    tag_54:\n        /* \"#utility.yul\":1316:1345   */\n      tag_55\n        /* \"#utility.yul\":1338:1344   */\n      dup2\n        /* \"#utility.yul\":1316:1345   */\n      tag_38\n      jump\t// in\n    tag_55:\n        /* \"#utility.yul\":1311:1314   */\n      dup5\n        /* \"#utility.yul\":1307:1346   */\n      add\n        /* \"#utility.yul\":1300:1346   */\n      swap2\n      pop\n        /* \"#utility.yul\":1067:1352   */\n      pop\n        /* \"#utility.yul\":975:1352   */\n      swap3\n      swap2\n      pop\n      pop\n      jump\t// out\n        /* \"#utility.yul\":1358:1671   */\n    tag_16:\n        /* \"#utility.yul\":1471:1475   */\n      0x00\n        /* \"#utility.yul\":1509:1511   */\n      0x20\n        /* \"#utility.yul\":1498:1507   */\n      dup3\n        /* \"#utility.yul\":1494:1512   */\n      add\n        /* \"#utility.yul\":1486:1512   */\n      swap1\n      pop\n        /* \"#utility.yul\":1558:1567   */\n      dup2\n        /* \"#utility.yul\":1552:1556   */\n      dup2\n        /* \"#utility.yul\":1548:1568   */\n      sub\n        /* \"#utility.yul\":1544:1545   */\n      0x00\n        /* \"#utility.yul\":1533:1542   */\n      dup4\n        /* \"#utility.yul\":1529:1546   */\n      add\n        /* \"#utility.yul\":1522:1569   */\n      mstore\n        /* \"#utility.yul\":1586:1664   */\n      tag_57\n        /* \"#utility.yul\":1659:1663   */\n      dup2\n        /* \"#utility.yul\":1650:1656   */\n      dup5\n        /* \"#utility.yul\":1586:1664   */\n      tag_39\n      jump\t// in\n    tag_57:\n        /* \"#utility.yul\":1578:1664   */\n      swap1\n      pop\n        /* \"#utility.yul\":1358:1671   */\n      swap3\n      swap2\n      pop\n      pop\n      jump\t// out\n        /* \"#utility.yul\":1677:1857   */\n    tag_40:\n        /* \"#utility.yul\":1725:1802   */\n      0x4e487b7100000000000000000000000000000000000000000000000000000000\n        /* \"#utility.yul\":1722:1723   */\n      0x00\n        /* \"#utility.yul\":1715:1803   */\n      mstore\n        /* \"#utility.yul\":1822:1826   */\n      0x11\n        /* \"#utility.yul\":1819:1820   */\n      0x04\n        /* \"#utility.yul\":1812:1827   */\n      mstore\n        /* \"#utility.yul\":1846:1850   */\n      0x24\n        /* \"#utility.yul\":1843:1844   */\n      0x00\n        /* \"#utility.yul\":1836:1851   */\n      revert\n        /* \"#utility.yul\":1863:2054   */\n    tag_22:\n        /* \"#utility.yul\":1903:1906   */\n      0x00\n        /* \"#utility.yul\":1922:1942   */\n      tag_60\n        /* \"#utility.yul\":1940:1941   */\n      dup3\n        /* \"#utility.yul\":1922:1942   */\n      tag_33\n      jump\t// in\n    tag_60:\n        /* \"#utility.yul\":1917:1942   */\n      swap2\n      pop\n        /* \"#utility.yul\":1956:1976   */\n      tag_61\n        /* \"#utility.yul\":1974:1975   */\n      dup4\n        /* \"#utility.yul\":1956:1976   */\n      tag_33\n      jump\t// in\n    tag_61:\n        /* \"#utility.yul\":1951:1976   */\n      swap3\n      pop\n        /* \"#utility.yul\":1999:2000   */\n      dup3\n        /* \"#utility.yul\":1996:1997   */\n      dup3\n        /* \"#utility.yul\":1992:2001   */\n      add\n        /* \"#utility.yul\":1985:2001   */\n      swap1\n      pop\n        /* \"#utility.yul\":2020:2023   */\n      dup1\n        /* \"#utility.yul\":2017:2018   */\n      dup3\n        /* \"#utility.yul\":2014:2024   */\n      gt\n        /* \"#utility.yul\":2011:2047   */\n      iszero\n      tag_62\n      jumpi\n        /* \"#utility.yul\":2027:2045   */\n      tag_63\n      tag_40\n      jump\t// in\n    tag_63:\n        /* \"#utility.yul\":2011:2047   */\n    tag_62:\n        /* \"#utility.yul\":1863:2054   */\n      swap3\n      swap2\n      pop\n      pop\n      jump\t// out\n\n    auxdata: 0xa2646970667358221220c2eee545712e3d2add7cf728aa1d3fc1aebc6fb7487c1f66027abad60966f3a564736f6c63430008220033\n}\n",
				"bytecode": {
					"linkReferences": {},
					"object": "6080604052348015600e575f5ffd5b5061033d8061001c5f395ff3fe608060405234801561000f575f5ffd5b506004361061004a575f3560e01c80634ddc83291461004e57806354353f2f1461006c578063a38715c414610076578063f647416d14610094575b5f5ffd5b6100566100b2565b60405161006391906101fe565b60405180910390f35b6100746100b8565b005b61007e6100f2565b60405161008b9190610287565b60405180910390f35b61009c61012f565b6040516100a99190610287565b60405180910390f35b60025481565b6002546001545f546100ca91906102d4565b6100d491906102d4565b506100dd61016c565b506100e66101a9565b506100ef61012f565b50565b60606040518060400160405280600681526020017f657846756e630000000000000000000000000000000000000000000000000000815250905090565b60606040518060400160405280600781526020017f70756246756e6300000000000000000000000000000000000000000000000000815250905090565b60606040518060400160405280600781526020017f70726946756e6300000000000000000000000000000000000000000000000000815250905090565b60606040518060400160405280600681526020017f696e46756e630000000000000000000000000000000000000000000000000000815250905090565b5f819050919050565b6101f8816101e6565b82525050565b5f6020820190506102115f8301846101ef565b92915050565b5f81519050919050565b5f82825260208201905092915050565b8281835e5f83830152505050565b5f601f19601f8301169050919050565b5f61025982610217565b6102638185610221565b9350610273818560208601610231565b61027c8161023f565b840191505092915050565b5f6020820190508181035f83015261029f818461024f565b905092915050565b7f4e487b71000000000000000000000000000000000000000000000000000000005f52601160045260245ffd5b5f6102de826101e6565b91506102e9836101e6565b9250828201905080821115610301576103006102a7565b5b9291505056fea2646970667358221220c2eee545712e3d2add7cf728aa1d3fc1aebc6fb7487c1f66027abad60966f3a564736f6c63430008220033",
					"opcodes": "PUSH1 0x80 PUSH1 0x40 MSTORE CALLVALUE DUP1 ISZERO PUSH1 0xE JUMPI PUSH0 PUSH0 REVERT JUMPDEST POP PUSH2 0x33D DUP1 PUSH2 0x1C PUSH0 CODECOPY PUSH0 RETURN INVALID PUSH1 0x80 PUSH1 0x40 MSTORE CALLVALUE DUP1 ISZERO PUSH2 0xF JUMPI PUSH0 PUSH0 REVERT JUMPDEST POP PUSH1 0x4 CALLDATASIZE LT PUSH2 0x4A JUMPI PUSH0 CALLDATALOAD PUSH1 0xE0 SHR DUP1 PUSH4 0x4DDC8329 EQ PUSH2 0x4E JUMPI DUP1 PUSH4 0x54353F2F EQ PUSH2 0x6C JUMPI DUP1 PUSH4 0xA38715C4 EQ PUSH2 0x76 JUMPI DUP1 PUSH4 0xF647416D EQ PUSH2 0x94 JUMPI JUMPDEST PUSH0 PUSH0 REVERT JUMPDEST PUSH2 0x56 PUSH2 0xB2 JUMP JUMPDEST PUSH1 0x40 MLOAD PUSH2 0x63 SWAP2 SWAP1 PUSH2 0x1FE JUMP JUMPDEST PUSH1 0x40 MLOAD DUP1 SWAP2 SUB SWAP1 RETURN JUMPDEST PUSH2 0x74 PUSH2 0xB8 JUMP JUMPDEST STOP JUMPDEST PUSH2 0x7E PUSH2 0xF2 JUMP JUMPDEST PUSH1 0x40 MLOAD PUSH2 0x8B SWAP2 SWAP1 PUSH2 0x287 JUMP JUMPDEST PUSH1 0x40 MLOAD DUP1 SWAP2 SUB SWAP1 RETURN JUMPDEST PUSH2 0x9C PUSH2 0x12F JUMP JUMPDEST PUSH1 0x40 MLOAD PUSH2 0xA9 SWAP2 SWAP1 PUSH2 0x287 JUMP JUMPDEST PUSH1 0x40 MLOAD DUP1 SWAP2 SUB SWAP1 RETURN JUMPDEST PUSH1 0x2 SLOAD DUP2 JUMP JUMPDEST PUSH1 0x2 SLOAD PUSH1 0x1 SLOAD PUSH0 SLOAD PUSH2 0xCA SWAP2 SWAP1 PUSH2 0x2D4 JUMP JUMPDEST PUSH2 0xD4 SWAP2 SWAP1 PUSH2 0x2D4 JUMP JUMPDEST POP PUSH2 0xDD PUSH2 0x16C JUMP JUMPDEST POP PUSH2 0xE6 PUSH2 0x1A9 JUMP JUMPDEST POP PUSH2 0xEF PUSH2 0x12F JUMP JUMPDEST POP JUMP JUMPDEST PUSH1 0x60 PUSH1 0x40 MLOAD DUP1 PUSH1 0x40 ADD PUSH1 0x40 MSTORE DUP1 PUSH1 0x6 DUP2 MSTORE PUSH1 0x20 ADD PUSH32 0x657846756E630000000000000000000000000000000000000000000000000000 DUP2 MSTORE POP SWAP1 POP SWAP1 JUMP JUMPDEST PUSH1 0x60 PUSH1 0x40 MLOAD DUP1 PUSH1 0x40 ADD PUSH1 0x40 MSTORE DUP1 PUSH1 0x7 DUP2 MSTORE PUSH1 0x20 ADD PUSH32 0x70756246756E6300000000000000000000000000000000000000000000000000 DUP2 MSTORE POP SWAP1 POP SWAP1 JUMP JUMPDEST PUSH1 0x60 PUSH1 0x40 MLOAD DUP1 PUSH1 0x40 ADD PUSH1 0x40 MSTORE DUP1 PUSH1 0x7 DUP2 MSTORE PUSH1 0x20 ADD PUSH32 0x70726946756E6300000000000000000000000000000000000000000000000000 DUP2 MSTORE POP SWAP1 POP SWAP1 JUMP JUMPDEST PUSH1 0x60 PUSH1 0x40 MLOAD DUP1 PUSH1 0x40 ADD PUSH1 0x40 MSTORE DUP1 PUSH1 0x6 DUP2 MSTORE PUSH1 0x20 ADD PUSH32 0x696E46756E630000000000000000000000000000000000000000000000000000 DUP2 MSTORE POP SWAP1 POP SWAP1 JUMP JUMPDEST PUSH0 DUP2 SWAP1 POP SWAP2 SWAP1 POP JUMP JUMPDEST PUSH2 0x1F8 DUP2 PUSH2 0x1E6 JUMP JUMPDEST DUP3 MSTORE POP POP JUMP JUMPDEST PUSH0 PUSH1 0x20 DUP3 ADD SWAP1 POP PUSH2 0x211 PUSH0 DUP4 ADD DUP5 PUSH2 0x1EF JUMP JUMPDEST SWAP3 SWAP2 POP POP JUMP JUMPDEST PUSH0 DUP2 MLOAD SWAP1 POP SWAP2 SWAP1 POP JUMP JUMPDEST PUSH0 DUP3 DUP3 MSTORE PUSH1 0x20 DUP3 ADD SWAP1 POP SWAP3 SWAP2 POP POP JUMP JUMPDEST DUP3 DUP2 DUP4 MCOPY PUSH0 DUP4 DUP4 ADD MSTORE POP POP POP JUMP JUMPDEST PUSH0 PUSH1 0x1F NOT PUSH1 0x1F DUP4 ADD AND SWAP1 POP SWAP2 SWAP1 POP JUMP JUMPDEST PUSH0 PUSH2 0x259 DUP3 PUSH2 0x217 JUMP JUMPDEST PUSH2 0x263 DUP2 DUP6 PUSH2 0x221 JUMP JUMPDEST SWAP4 POP PUSH2 0x273 DUP2 DUP6 PUSH1 0x20 DUP7 ADD PUSH2 0x231 JUMP JUMPDEST PUSH2 0x27C DUP2 PUSH2 0x23F JUMP JUMPDEST DUP5 ADD SWAP2 POP POP SWAP3 SWAP2 POP POP JUMP JUMPDEST PUSH0 PUSH1 0x20 DUP3 ADD SWAP1 POP DUP2 DUP2 SUB PUSH0 DUP4 ADD MSTORE PUSH2 0x29F DUP2 DUP5 PUSH2 0x24F JUMP JUMPDEST SWAP1 POP SWAP3 SWAP2 POP POP JUMP JUMPDEST PUSH32 0x4E487B7100000000000000000000000000000000000000000000000000000000 PUSH0 MSTORE PUSH1 0x11 PUSH1 0x4 MSTORE PUSH1 0x24 PUSH0 REVERT JUMPDEST PUSH0 PUSH2 0x2DE DUP3 PUSH2 0x1E6 JUMP JUMPDEST SWAP2 POP PUSH2 0x2E9 DUP4 PUSH2 0x1E6 JUMP JUMPDEST SWAP3 POP DUP3 DUP3 ADD SWAP1 POP DUP1 DUP3 GT ISZERO PUSH2 0x301 JUMPI PUSH2 0x300 PUSH2 0x2A7 JUMP JUMPDEST JUMPDEST SWAP3 SWAP2 POP POP JUMP INVALID LOG2 PUSH5 0x6970667358 0x22 SLT KECCAK256 0xC2 RETURNCONTRACT 0xE5 GASLIMIT PUSH18 0x2E3D2ADD7CF728AA1D3FC1AEBC6FB7487C1F PUSH7 0x27ABAD60966F3 0xA5 PUSH5 0x736F6C6343 STOP ADDMOD 0x22 STOP CALLER "
				},
				"gasEstimates": {
					"creation": {
						"codeDepositCost": "165800",
						"executionCost": "206",
						"totalCost": "166006"
					},
					"external": {
						"exFunc()": "infinite",
						"example()": "infinite",
						"pubFunc()": "infinite",
						"pubVar()": "2403"
					},
					"internal": {
						"inFunc()": "infinite",
						"priFunc()": "infinite"
					}
				},
				"methodIdentifiers": {
					"exFunc()": "a38715c4",
					"example()": "54353f2f",
					"pubFunc()": "f647416d",
					"pubVar()": "4ddc8329"
				}
			},
			"storageLayout": {
				"storage": [
					{
						"astId": 3,
						"contract": "solidity基础/可见性修饰符.sol:Base",
						"label": "priVar",
						"offset": 0,
						"slot": "0",
						"type": "t_uint256"
					},
					{
						"astId": 5,
						"contract": "solidity基础/可见性修饰符.sol:Base",
						"label": "inVar",
						"offset": 0,
						"slot": "1",
						"type": "t_uint256"
					},
					{
						"astId": 7,
						"contract": "solidity基础/可见性修饰符.sol:Base",
						"label": "pubVar",
						"offset": 0,
						"slot": "2",
						"type": "t_uint256"
					}
				],
				"types": {
					"t_uint256": {
						"encoding": "inplace",
						"label": "uint256",
						"numberOfBytes": "32"
					}
				}
			},
			"userdoc": {
				"kind": "user",
				"methods": {},
				"version": 1
			}
		}
	}
}