{
	"solidity合约交互/合约调用call.sol": {
		"Caller": {
			"abi": [
				{
					"inputs": [
						{
							"internalType": "address",
							"name": "testAddr",
							"type": "address"
						},
						{
							"internalType": "string",
							"name": "message",
							"type": "string"
						},
						{
							"internalType": "uint256",
							"name": "num",
							"type": "uint256"
						}
					],
					"name": "callFoo",
					"outputs": [],
					"stateMutability": "payable",
					"type": "function"
				},
				{
					"inputs": [
						{
							"internalType": "address",
							"name": "testAddr",
							"type": "address"
						}
					],
					"name": "callNonExistentFunction",
					"outputs": [],
					"stateMutability": "nonpayable",
					"type": "function"
				},
				{
					"inputs": [],
					"name": "data",
					"outputs": [
						{
							"internalType": "bytes",
							"name": "",
							"type": "bytes"
						}
					],
					"stateMutability": "view",
					"type": "function"
				}
			],
			"devdoc": {
				"kind": "dev",
				"methods": {},
				"version": 1
			},
			"evm": {
				"assembly": "    /* \"solidity\\xe5\\x90\\x88\\xe7\\xba\\xa6\\xe4\\xba\\xa4\\xe4\\xba\\x92/\\xe5\\x90\\x88\\xe7\\xba\\xa6\\xe8\\xb0\\x83\\xe7\\x94\\xa8call.sol\":1173:1709  contract Caller {... */\n  mstore(0x40, 0x80)\n  callvalue\n  dup1\n  iszero\n  tag_1\n  jumpi\n  revert(0x00, 0x00)\ntag_1:\n  pop\n  dataSize(sub_0)\n  dup1\n  dataOffset(sub_0)\n  0x00\n  codecopy\n  0x00\n  return\nstop\n\nsub_0: assembly {\n        /* \"solidity\\xe5\\x90\\x88\\xe7\\xba\\xa6\\xe4\\xba\\xa4\\xe4\\xba\\x92/\\xe5\\x90\\x88\\xe7\\xba\\xa6\\xe8\\xb0\\x83\\xe7\\x94\\xa8call.sol\":1173:1709  contract Caller {... */\n      mstore(0x40, 0x80)\n      jumpi(tag_1, lt(calldatasize, 0x04))\n      shr(0xe0, calldataload(0x00))\n      dup1\n      0x172a57d7\n      eq\n      tag_2\n      jumpi\n      dup1\n      0x73d4a13a\n      eq\n      tag_3\n      jumpi\n      dup1\n      0xdd5f151e\n      eq\n      tag_4\n      jumpi\n    tag_1:\n      revert(0x00, 0x00)\n        /* \"solidity\\xe5\\x90\\x88\\xe7\\xba\\xa6\\xe4\\xba\\xa4\\xe4\\xba\\x92/\\xe5\\x90\\x88\\xe7\\xba\\xa6\\xe8\\xb0\\x83\\xe7\\x94\\xa8call.sol\":1517:1706  function callNonExistentFunction(address testAddr) public  {... */\n    tag_2:\n      callvalue\n      dup1\n      iszero\n      tag_5\n      jumpi\n      revert(0x00, 0x00)\n    tag_5:\n      pop\n      tag_6\n      0x04\n      dup1\n      calldatasize\n      sub\n      dup2\n      add\n      swap1\n      tag_7\n      swap2\n      swap1\n      tag_8\n      jump\t// in\n    tag_7:\n      tag_9\n      jump\t// in\n    tag_6:\n      stop\n        /* \"solidity\\xe5\\x90\\x88\\xe7\\xba\\xa6\\xe4\\xba\\xa4\\xe4\\xba\\x92/\\xe5\\x90\\x88\\xe7\\xba\\xa6\\xe8\\xb0\\x83\\xe7\\x94\\xa8call.sol\":1196:1213  bytes public data */\n    tag_3:\n      callvalue\n      dup1\n      iszero\n      tag_10\n      jumpi\n      revert(0x00, 0x00)\n    tag_10:\n      pop\n      tag_11\n      tag_12\n      jump\t// in\n    tag_11:\n      mload(0x40)\n      tag_13\n      swap2\n      swap1\n      tag_14\n      jump\t// in\n    tag_13:\n      mload(0x40)\n      dup1\n      swap2\n      sub\n      swap1\n      return\n        /* \"solidity\\xe5\\x90\\x88\\xe7\\xba\\xa6\\xe4\\xba\\xa4\\xe4\\xba\\x92/\\xe5\\x90\\x88\\xe7\\xba\\xa6\\xe8\\xb0\\x83\\xe7\\x94\\xa8call.sol\":1220:1509  function callFoo(address testAddr,string memory message,uint256 num) public payable {... */\n    tag_4:\n      tag_15\n      0x04\n      dup1\n      calldatasize\n      sub\n      dup2\n      add\n      swap1\n      tag_16\n      swap2\n      swap1\n      tag_17\n      jump\t// in\n    tag_16:\n      tag_18\n      jump\t// in\n    tag_15:\n      stop\n        /* \"solidity\\xe5\\x90\\x88\\xe7\\xba\\xa6\\xe4\\xba\\xa4\\xe4\\xba\\x92/\\xe5\\x90\\x88\\xe7\\xba\\xa6\\xe8\\xb0\\x83\\xe7\\x94\\xa8call.sol\":1517:1706  function callNonExistentFunction(address testAddr) public  {... */\n    tag_9:\n        /* \"solidity\\xe5\\x90\\x88\\xe7\\xba\\xa6\\xe4\\xba\\xa4\\xe4\\xba\\x92/\\xe5\\x90\\x88\\xe7\\xba\\xa6\\xe8\\xb0\\x83\\xe7\\x94\\xa8call.sol\":1588:1600  bool success */\n      0x00\n        /* \"solidity\\xe5\\x90\\x88\\xe7\\xba\\xa6\\xe4\\xba\\xa4\\xe4\\xba\\x92/\\xe5\\x90\\x88\\xe7\\xba\\xa6\\xe8\\xb0\\x83\\xe7\\x94\\xa8call.sol\":1605:1613  testAddr */\n      dup2\n        /* \"solidity\\xe5\\x90\\x88\\xe7\\xba\\xa6\\xe4\\xba\\xa4\\xe4\\xba\\x92/\\xe5\\x90\\x88\\xe7\\xba\\xa6\\xe8\\xb0\\x83\\xe7\\x94\\xa8call.sol\":1605:1618  testAddr.call */\n      0xffffffffffffffffffffffffffffffffffffffff\n      and\n        /* \"solidity\\xe5\\x90\\x88\\xe7\\xba\\xa6\\xe4\\xba\\xa4\\xe4\\xba\\x92/\\xe5\\x90\\x88\\xe7\\xba\\xa6\\xe8\\xb0\\x83\\xe7\\x94\\xa8call.sol\":1619:1655  abi.encodeWithSignature(\"noExist()\") */\n      add(0x24, mload(0x40))\n      mload(0x40)\n      0x20\n      dup2\n      dup4\n      sub\n      sub\n      dup2\n      mstore\n      swap1\n      0x40\n      mstore\n      and(not(0xffffffffffffffffffffffffffffffffffffffffffffffffffffffff), 0xf167435f00000000000000000000000000000000000000000000000000000000)\n      0x20\n      dup3\n      add\n      dup1\n      mload\n      0xffffffffffffffffffffffffffffffffffffffffffffffffffffffff\n      dup4\n      dup2\n      dup4\n      and\n      or\n      dup4\n      mstore\n      pop\n      pop\n      pop\n      pop\n        /* \"solidity\\xe5\\x90\\x88\\xe7\\xba\\xa6\\xe4\\xba\\xa4\\xe4\\xba\\x92/\\xe5\\x90\\x88\\xe7\\xba\\xa6\\xe8\\xb0\\x83\\xe7\\x94\\xa8call.sol\":1605:1656  testAddr.call(abi.encodeWithSignature(\"noExist()\")) */\n      mload(0x40)\n      tag_20\n      swap2\n      swap1\n      tag_21\n      jump\t// in\n    tag_20:\n      0x00\n      mload(0x40)\n      dup1\n      dup4\n      sub\n      dup2\n      0x00\n      dup7\n      gas\n      call\n      swap2\n      pop\n      pop\n      returndatasize\n      dup1\n      0x00\n      dup2\n      eq\n      tag_24\n      jumpi\n      mload(0x40)\n      swap2\n      pop\n      and(add(returndatasize, 0x3f), not(0x1f))\n      dup3\n      add\n      0x40\n      mstore\n      returndatasize\n      dup3\n      mstore\n      returndatasize\n      0x00\n      0x20\n      dup5\n      add\n      returndatacopy\n      jump(tag_23)\n    tag_24:\n      0x60\n      swap2\n      pop\n    tag_23:\n      pop\n        /* \"solidity\\xe5\\x90\\x88\\xe7\\xba\\xa6\\xe4\\xba\\xa4\\xe4\\xba\\x92/\\xe5\\x90\\x88\\xe7\\xba\\xa6\\xe8\\xb0\\x83\\xe7\\x94\\xa8call.sol\":1587:1656  (bool success,) = testAddr.call(abi.encodeWithSignature(\"noExist()\")) */\n      pop\n      swap1\n      pop\n        /* \"solidity\\xe5\\x90\\x88\\xe7\\xba\\xa6\\xe4\\xba\\xa4\\xe4\\xba\\x92/\\xe5\\x90\\x88\\xe7\\xba\\xa6\\xe8\\xb0\\x83\\xe7\\x94\\xa8call.sol\":1675:1682  success */\n      dup1\n        /* \"solidity\\xe5\\x90\\x88\\xe7\\xba\\xa6\\xe4\\xba\\xa4\\xe4\\xba\\x92/\\xe5\\x90\\x88\\xe7\\xba\\xa6\\xe8\\xb0\\x83\\xe7\\x94\\xa8call.sol\":1667:1698  require(success, \"Call Failed\") */\n      tag_25\n      jumpi\n      mload(0x40)\n      0x08c379a000000000000000000000000000000000000000000000000000000000\n      dup2\n      mstore\n      0x04\n      add\n      tag_26\n      swap1\n      tag_27\n      jump\t// in\n    tag_26:\n      mload(0x40)\n      dup1\n      swap2\n      sub\n      swap1\n      revert\n    tag_25:\n        /* \"solidity\\xe5\\x90\\x88\\xe7\\xba\\xa6\\xe4\\xba\\xa4\\xe4\\xba\\x92/\\xe5\\x90\\x88\\xe7\\xba\\xa6\\xe8\\xb0\\x83\\xe7\\x94\\xa8call.sol\":1576:1706  {... */\n      pop\n        /* \"solidity\\xe5\\x90\\x88\\xe7\\xba\\xa6\\xe4\\xba\\xa4\\xe4\\xba\\x92/\\xe5\\x90\\x88\\xe7\\xba\\xa6\\xe8\\xb0\\x83\\xe7\\x94\\xa8call.sol\":1517:1706  function callNonExistentFunction(address testAddr) public  {... */\n      pop\n      jump\t// out\n        /* \"solidity\\xe5\\x90\\x88\\xe7\\xba\\xa6\\xe4\\xba\\xa4\\xe4\\xba\\x92/\\xe5\\x90\\x88\\xe7\\xba\\xa6\\xe8\\xb0\\x83\\xe7\\x94\\xa8call.sol\":1196:1213  bytes public data */\n    tag_12:\n      0x00\n      dup1\n      sload\n      tag_28\n      swap1\n      tag_29\n      jump\t// in\n    tag_28:\n      dup1\n      0x1f\n      add\n      0x20\n      dup1\n      swap2\n      div\n      mul\n      0x20\n      add\n      mload(0x40)\n      swap1\n      dup2\n      add\n      0x40\n      mstore\n      dup1\n      swap3\n      swap2\n      swap1\n      dup2\n      dup2\n      mstore\n      0x20\n      add\n      dup3\n      dup1\n      sload\n      tag_30\n      swap1\n      tag_29\n      jump\t// in\n    tag_30:\n      dup1\n      iszero\n      tag_31\n      jumpi\n      dup1\n      0x1f\n      lt\n      tag_32\n      jumpi\n      0x0100\n      dup1\n      dup4\n      sload\n      div\n      mul\n      dup4\n      mstore\n      swap2\n      0x20\n      add\n      swap2\n      jump(tag_31)\n    tag_32:\n      dup3\n      add\n      swap2\n      swap1\n      0x00\n      mstore\n      keccak256(0x00, 0x20)\n      swap1\n    tag_33:\n      dup2\n      sload\n      dup2\n      mstore\n      swap1\n      0x01\n      add\n      swap1\n      0x20\n      add\n      dup1\n      dup4\n      gt\n      tag_33\n      jumpi\n      dup3\n      swap1\n      sub\n      0x1f\n      and\n      dup3\n      add\n      swap2\n    tag_31:\n      pop\n      pop\n      pop\n      pop\n      pop\n      dup2\n      jump\t// out\n        /* \"solidity\\xe5\\x90\\x88\\xe7\\xba\\xa6\\xe4\\xba\\xa4\\xe4\\xba\\x92/\\xe5\\x90\\x88\\xe7\\xba\\xa6\\xe8\\xb0\\x83\\xe7\\x94\\xa8call.sol\":1220:1509  function callFoo(address testAddr,string memory message,uint256 num) public payable {... */\n    tag_18:\n        /* \"solidity\\xe5\\x90\\x88\\xe7\\xba\\xa6\\xe4\\xba\\xa4\\xe4\\xba\\x92/\\xe5\\x90\\x88\\xe7\\xba\\xa6\\xe8\\xb0\\x83\\xe7\\x94\\xa8call.sol\":1315:1327  bool success */\n      0x00\n        /* \"solidity\\xe5\\x90\\x88\\xe7\\xba\\xa6\\xe4\\xba\\xa4\\xe4\\xba\\x92/\\xe5\\x90\\x88\\xe7\\xba\\xa6\\xe8\\xb0\\x83\\xe7\\x94\\xa8call.sol\":1328:1346  bytes memory _data */\n      0x00\n        /* \"solidity\\xe5\\x90\\x88\\xe7\\xba\\xa6\\xe4\\xba\\xa4\\xe4\\xba\\x92/\\xe5\\x90\\x88\\xe7\\xba\\xa6\\xe8\\xb0\\x83\\xe7\\x94\\xa8call.sol\":1350:1358  testAddr */\n      dup5\n        /* \"solidity\\xe5\\x90\\x88\\xe7\\xba\\xa6\\xe4\\xba\\xa4\\xe4\\xba\\x92/\\xe5\\x90\\x88\\xe7\\xba\\xa6\\xe8\\xb0\\x83\\xe7\\x94\\xa8call.sol\":1350:1363  testAddr.call */\n      0xffffffffffffffffffffffffffffffffffffffff\n      and\n        /* \"solidity\\xe5\\x90\\x88\\xe7\\xba\\xa6\\xe4\\xba\\xa4\\xe4\\xba\\x92/\\xe5\\x90\\x88\\xe7\\xba\\xa6\\xe8\\xb0\\x83\\xe7\\x94\\xa8call.sol\":1371:1374  123 */\n      0x7b\n        /* \"solidity\\xe5\\x90\\x88\\xe7\\xba\\xa6\\xe4\\xba\\xa4\\xe4\\xba\\x92/\\xe5\\x90\\x88\\xe7\\xba\\xa6\\xe8\\xb0\\x83\\xe7\\x94\\xa8call.sol\":1423:1430  message */\n      dup6\n        /* \"solidity\\xe5\\x90\\x88\\xe7\\xba\\xa6\\xe4\\xba\\xa4\\xe4\\xba\\x92/\\xe5\\x90\\x88\\xe7\\xba\\xa6\\xe8\\xb0\\x83\\xe7\\x94\\xa8call.sol\":1431:1434  num */\n      dup6\n        /* \"solidity\\xe5\\x90\\x88\\xe7\\xba\\xa6\\xe4\\xba\\xa4\\xe4\\xba\\x92/\\xe5\\x90\\x88\\xe7\\xba\\xa6\\xe8\\xb0\\x83\\xe7\\x94\\xa8call.sol\":1376:1435  abi.encodeWithSignature(\"foo(string,uint256)\", message,num) */\n      add(0x24, mload(0x40))\n      tag_35\n      swap3\n      swap2\n      swap1\n      tag_36\n      jump\t// in\n    tag_35:\n      mload(0x40)\n      0x20\n      dup2\n      dup4\n      sub\n      sub\n      dup2\n      mstore\n      swap1\n      0x40\n      mstore\n      and(not(0xffffffffffffffffffffffffffffffffffffffffffffffffffffffff), 0x24ccab8f00000000000000000000000000000000000000000000000000000000)\n      0x20\n      dup3\n      add\n      dup1\n      mload\n      0xffffffffffffffffffffffffffffffffffffffffffffffffffffffff\n      dup4\n      dup2\n      dup4\n      and\n      or\n      dup4\n      mstore\n      pop\n      pop\n      pop\n      pop\n        /* \"solidity\\xe5\\x90\\x88\\xe7\\xba\\xa6\\xe4\\xba\\xa4\\xe4\\xba\\x92/\\xe5\\x90\\x88\\xe7\\xba\\xa6\\xe8\\xb0\\x83\\xe7\\x94\\xa8call.sol\":1350:1436  testAddr.call{value: 123}(abi.encodeWithSignature(\"foo(string,uint256)\", message,num)) */\n      mload(0x40)\n      tag_37\n      swap2\n      swap1\n      tag_21\n      jump\t// in\n    tag_37:\n      0x00\n      mload(0x40)\n      dup1\n      dup4\n      sub\n      dup2\n      dup6\n      dup8\n      gas\n      call\n      swap3\n      pop\n      pop\n      pop\n      returndatasize\n      dup1\n      0x00\n      dup2\n      eq\n      tag_40\n      jumpi\n      mload(0x40)\n      swap2\n      pop\n      and(add(returndatasize, 0x3f), not(0x1f))\n      dup3\n      add\n      0x40\n      mstore\n      returndatasize\n      dup3\n      mstore\n      returndatasize\n      0x00\n      0x20\n      dup5\n      add\n      returndatacopy\n      jump(tag_39)\n    tag_40:\n      0x60\n      swap2\n      pop\n    tag_39:\n      pop\n        /* \"solidity\\xe5\\x90\\x88\\xe7\\xba\\xa6\\xe4\\xba\\xa4\\xe4\\xba\\x92/\\xe5\\x90\\x88\\xe7\\xba\\xa6\\xe8\\xb0\\x83\\xe7\\x94\\xa8call.sol\":1314:1436  (bool success,bytes memory _data) = testAddr.call{value: 123}(abi.encodeWithSignature(\"foo(string,uint256)\", message,num)) */\n      swap2\n      pop\n      swap2\n      pop\n        /* \"solidity\\xe5\\x90\\x88\\xe7\\xba\\xa6\\xe4\\xba\\xa4\\xe4\\xba\\x92/\\xe5\\x90\\x88\\xe7\\xba\\xa6\\xe8\\xb0\\x83\\xe7\\x94\\xa8call.sol\":1455:1462  success */\n      dup2\n        /* \"solidity\\xe5\\x90\\x88\\xe7\\xba\\xa6\\xe4\\xba\\xa4\\xe4\\xba\\x92/\\xe5\\x90\\x88\\xe7\\xba\\xa6\\xe8\\xb0\\x83\\xe7\\x94\\xa8call.sol\":1447:1478  require(success, \"Call failed\") */\n      tag_41\n      jumpi\n      mload(0x40)\n      0x08c379a000000000000000000000000000000000000000000000000000000000\n      dup2\n      mstore\n      0x04\n      add\n      tag_42\n      swap1\n      tag_43\n      jump\t// in\n    tag_42:\n      mload(0x40)\n      dup1\n      swap2\n      sub\n      swap1\n      revert\n    tag_41:\n        /* \"solidity\\xe5\\x90\\x88\\xe7\\xba\\xa6\\xe4\\xba\\xa4\\xe4\\xba\\x92/\\xe5\\x90\\x88\\xe7\\xba\\xa6\\xe8\\xb0\\x83\\xe7\\x94\\xa8call.sol\":1496:1501  _data */\n      dup1\n        /* \"solidity\\xe5\\x90\\x88\\xe7\\xba\\xa6\\xe4\\xba\\xa4\\xe4\\xba\\x92/\\xe5\\x90\\x88\\xe7\\xba\\xa6\\xe8\\xb0\\x83\\xe7\\x94\\xa8call.sol\":1489:1493  data */\n      0x00\n        /* \"solidity\\xe5\\x90\\x88\\xe7\\xba\\xa6\\xe4\\xba\\xa4\\xe4\\xba\\x92/\\xe5\\x90\\x88\\xe7\\xba\\xa6\\xe8\\xb0\\x83\\xe7\\x94\\xa8call.sol\":1489:1501  data = _data */\n      swap1\n      dup2\n      tag_44\n      swap2\n      swap1\n      tag_45\n      jump\t// in\n    tag_44:\n      pop\n        /* \"solidity\\xe5\\x90\\x88\\xe7\\xba\\xa6\\xe4\\xba\\xa4\\xe4\\xba\\x92/\\xe5\\x90\\x88\\xe7\\xba\\xa6\\xe8\\xb0\\x83\\xe7\\x94\\xa8call.sol\":1304:1509  {... */\n      pop\n      pop\n        /* \"solidity\\xe5\\x90\\x88\\xe7\\xba\\xa6\\xe4\\xba\\xa4\\xe4\\xba\\x92/\\xe5\\x90\\x88\\xe7\\xba\\xa6\\xe8\\xb0\\x83\\xe7\\x94\\xa8call.sol\":1220:1509  function callFoo(address testAddr,string memory message,uint256 num) public payable {... */\n      pop\n      pop\n      pop\n      jump\t// out\n        /* \"#utility.yul\":7:82   */\n    tag_46:\n        /* \"#utility.yul\":40:46   */\n      0x00\n        /* \"#utility.yul\":73:75   */\n      0x40\n        /* \"#utility.yul\":67:76   */\n      mload\n        /* \"#utility.yul\":57:76   */\n      swap1\n      pop\n        /* \"#utility.yul\":7:82   */\n      swap1\n      jump\t// out\n        /* \"#utility.yul\":88:205   */\n    tag_47:\n        /* \"#utility.yul\":197:198   */\n      0x00\n        /* \"#utility.yul\":194:195   */\n      0x00\n        /* \"#utility.yul\":187:199   */\n      revert\n        /* \"#utility.yul\":211:328   */\n    tag_48:\n        /* \"#utility.yul\":320:321   */\n      0x00\n        /* \"#utility.yul\":317:318   */\n      0x00\n        /* \"#utility.yul\":310:322   */\n      revert\n        /* \"#utility.yul\":334:460   */\n    tag_49:\n        /* \"#utility.yul\":371:378   */\n      0x00\n        /* \"#utility.yul\":411:453   */\n      0xffffffffffffffffffffffffffffffffffffffff\n        /* \"#utility.yul\":404:409   */\n      dup3\n        /* \"#utility.yul\":400:454   */\n      and\n        /* \"#utility.yul\":389:454   */\n      swap1\n      pop\n        /* \"#utility.yul\":334:460   */\n      swap2\n      swap1\n      pop\n      jump\t// out\n        /* \"#utility.yul\":466:562   */\n    tag_50:\n        /* \"#utility.yul\":503:510   */\n      0x00\n        /* \"#utility.yul\":532:556   */\n      tag_102\n        /* \"#utility.yul\":550:555   */\n      dup3\n        /* \"#utility.yul\":532:556   */\n      tag_49\n      jump\t// in\n    tag_102:\n        /* \"#utility.yul\":521:556   */\n      swap1\n      pop\n        /* \"#utility.yul\":466:562   */\n      swap2\n      swap1\n      pop\n      jump\t// out\n        /* \"#utility.yul\":568:690   */\n    tag_51:\n        /* \"#utility.yul\":641:665   */\n      tag_104\n        /* \"#utility.yul\":659:664   */\n      dup2\n        /* \"#utility.yul\":641:665   */\n      tag_50\n      jump\t// in\n    tag_104:\n        /* \"#utility.yul\":634:639   */\n      dup2\n        /* \"#utility.yul\":631:666   */\n      eq\n        /* \"#utility.yul\":621:684   */\n      tag_105\n      jumpi\n        /* \"#utility.yul\":680:681   */\n      0x00\n        /* \"#utility.yul\":677:678   */\n      0x00\n        /* \"#utility.yul\":670:682   */\n      revert\n        /* \"#utility.yul\":621:684   */\n    tag_105:\n        /* \"#utility.yul\":568:690   */\n      pop\n      jump\t// out\n        /* \"#utility.yul\":696:835   */\n    tag_52:\n        /* \"#utility.yul\":742:747   */\n      0x00\n        /* \"#utility.yul\":780:786   */\n      dup2\n        /* \"#utility.yul\":767:787   */\n      calldataload\n        /* \"#utility.yul\":758:787   */\n      swap1\n      pop\n        /* \"#utility.yul\":796:829   */\n      tag_107\n        /* \"#utility.yul\":823:828   */\n      dup2\n        /* \"#utility.yul\":796:829   */\n      tag_51\n      jump\t// in\n    tag_107:\n        /* \"#utility.yul\":696:835   */\n      swap3\n      swap2\n      pop\n      pop\n      jump\t// out\n        /* \"#utility.yul\":841:1170   */\n    tag_8:\n        /* \"#utility.yul\":900:906   */\n      0x00\n        /* \"#utility.yul\":949:951   */\n      0x20\n        /* \"#utility.yul\":937:946   */\n      dup3\n        /* \"#utility.yul\":928:935   */\n      dup5\n        /* \"#utility.yul\":924:947   */\n      sub\n        /* \"#utility.yul\":920:952   */\n      slt\n        /* \"#utility.yul\":917:1036   */\n      iszero\n      tag_109\n      jumpi\n        /* \"#utility.yul\":955:1034   */\n      tag_110\n      tag_47\n      jump\t// in\n    tag_110:\n        /* \"#utility.yul\":917:1036   */\n    tag_109:\n        /* \"#utility.yul\":1075:1076   */\n      0x00\n        /* \"#utility.yul\":1100:1153   */\n      tag_111\n        /* \"#utility.yul\":1145:1152   */\n      dup5\n        /* \"#utility.yul\":1136:1142   */\n      dup3\n        /* \"#utility.yul\":1125:1134   */\n      dup6\n        /* \"#utility.yul\":1121:1143   */\n      add\n        /* \"#utility.yul\":1100:1153   */\n      tag_52\n      jump\t// in\n    tag_111:\n        /* \"#utility.yul\":1090:1153   */\n      swap2\n      pop\n        /* \"#utility.yul\":1046:1163   */\n      pop\n        /* \"#utility.yul\":841:1170   */\n      swap3\n      swap2\n      pop\n      pop\n      jump\t// out\n        /* \"#utility.yul\":1176:1274   */\n    tag_53:\n        /* \"#utility.yul\":1227:1233   */\n      0x00\n        /* \"#utility.yul\":1261:1266   */\n      dup2\n        /* \"#utility.yul\":1255:1267   */\n      mload\n        /* \"#utility.yul\":1245:1267   */\n      swap1\n      pop\n        /* \"#utility.yul\":1176:1274   */\n      swap2\n      swap1\n      pop\n      jump\t// out\n        /* \"#utility.yul\":1280:1448   */\n    tag_54:\n        /* \"#utility.yul\":1363:1374   */\n      0x00\n        /* \"#utility.yul\":1397:1403   */\n      dup3\n        /* \"#utility.yul\":1392:1395   */\n      dup3\n        /* \"#utility.yul\":1385:1404   */\n      mstore\n        /* \"#utility.yul\":1437:1441   */\n      0x20\n        /* \"#utility.yul\":1432:1435   */\n      dup3\n        /* \"#utility.yul\":1428:1442   */\n      add\n        /* \"#utility.yul\":1413:1442   */\n      swap1\n      pop\n        /* \"#utility.yul\":1280:1448   */\n      swap3\n      swap2\n      pop\n      pop\n      jump\t// out\n        /* \"#utility.yul\":1454:1593   */\n    tag_55:\n        /* \"#utility.yul\":1543:1549   */\n      dup3\n        /* \"#utility.yul\":1538:1541   */\n      dup2\n        /* \"#utility.yul\":1533:1536   */\n      dup4\n        /* \"#utility.yul\":1527:1550   */\n      mcopy\n        /* \"#utility.yul\":1584:1585   */\n      0x00\n        /* \"#utility.yul\":1575:1581   */\n      dup4\n        /* \"#utility.yul\":1570:1573   */\n      dup4\n        /* \"#utility.yul\":1566:1582   */\n      add\n        /* \"#utility.yul\":1559:1586   */\n      mstore\n        /* \"#utility.yul\":1454:1593   */\n      pop\n      pop\n      pop\n      jump\t// out\n        /* \"#utility.yul\":1599:1701   */\n    tag_56:\n        /* \"#utility.yul\":1640:1646   */\n      0x00\n        /* \"#utility.yul\":1691:1693   */\n      0x1f\n        /* \"#utility.yul\":1687:1694   */\n      not\n        /* \"#utility.yul\":1682:1684   */\n      0x1f\n        /* \"#utility.yul\":1675:1680   */\n      dup4\n        /* \"#utility.yul\":1671:1685   */\n      add\n        /* \"#utility.yul\":1667:1695   */\n      and\n        /* \"#utility.yul\":1657:1695   */\n      swap1\n      pop\n        /* \"#utility.yul\":1599:1701   */\n      swap2\n      swap1\n      pop\n      jump\t// out\n        /* \"#utility.yul\":1707:2080   */\n    tag_57:\n        /* \"#utility.yul\":1793:1796   */\n      0x00\n        /* \"#utility.yul\":1821:1859   */\n      tag_117\n        /* \"#utility.yul\":1853:1858   */\n      dup3\n        /* \"#utility.yul\":1821:1859   */\n      tag_53\n      jump\t// in\n    tag_117:\n        /* \"#utility.yul\":1875:1945   */\n      tag_118\n        /* \"#utility.yul\":1938:1944   */\n      dup2\n        /* \"#utility.yul\":1933:1936   */\n      dup6\n        /* \"#utility.yul\":1875:1945   */\n      tag_54\n      jump\t// in\n    tag_118:\n        /* \"#utility.yul\":1868:1945   */\n      swap4\n      pop\n        /* \"#utility.yul\":1954:2019   */\n      tag_119\n        /* \"#utility.yul\":2012:2018   */\n      dup2\n        /* \"#utility.yul\":2007:2010   */\n      dup6\n        /* \"#utility.yul\":2000:2004   */\n      0x20\n        /* \"#utility.yul\":1993:1998   */\n      dup7\n        /* \"#utility.yul\":1989:2005   */\n      add\n        /* \"#utility.yul\":1954:2019   */\n      tag_55\n      jump\t// in\n    tag_119:\n        /* \"#utility.yul\":2044:2073   */\n      tag_120\n        /* \"#utility.yul\":2066:2072   */\n      dup2\n        /* \"#utility.yul\":2044:2073   */\n      tag_56\n      jump\t// in\n    tag_120:\n        /* \"#utility.yul\":2039:2042   */\n      dup5\n        /* \"#utility.yul\":2035:2074   */\n      add\n        /* \"#utility.yul\":2028:2074   */\n      swap2\n      pop\n        /* \"#utility.yul\":1797:2080   */\n      pop\n        /* \"#utility.yul\":1707:2080   */\n      swap3\n      swap2\n      pop\n      pop\n      jump\t// out\n        /* \"#utility.yul\":2086:2395   */\n    tag_14:\n        /* \"#utility.yul\":2197:2201   */\n      0x00\n        /* \"#utility.yul\":2235:2237   */\n      0x20\n        /* \"#utility.yul\":2224:2233   */\n      dup3\n        /* \"#utility.yul\":2220:2238   */\n      add\n        /* \"#utility.yul\":2212:2238   */\n      swap1\n      pop\n        /* \"#utility.yul\":2284:2293   */\n      dup2\n        /* \"#utility.yul\":2278:2282   */\n      dup2\n        /* \"#utility.yul\":2274:2294   */\n      sub\n        /* \"#utility.yul\":2270:2271   */\n      0x00\n        /* \"#utility.yul\":2259:2268   */\n      dup4\n        /* \"#utility.yul\":2255:2272   */\n      add\n        /* \"#utility.yul\":2248:2295   */\n      mstore\n        /* \"#utility.yul\":2312:2388   */\n      tag_122\n        /* \"#utility.yul\":2383:2387   */\n      dup2\n        /* \"#utility.yul\":2374:2380   */\n      dup5\n        /* \"#utility.yul\":2312:2388   */\n      tag_57\n      jump\t// in\n    tag_122:\n        /* \"#utility.yul\":2304:2388   */\n      swap1\n      pop\n        /* \"#utility.yul\":2086:2395   */\n      swap3\n      swap2\n      pop\n      pop\n      jump\t// out\n        /* \"#utility.yul\":2401:2518   */\n    tag_58:\n        /* \"#utility.yul\":2510:2511   */\n      0x00\n        /* \"#utility.yul\":2507:2508   */\n      0x00\n        /* \"#utility.yul\":2500:2512   */\n      revert\n        /* \"#utility.yul\":2524:2641   */\n    tag_59:\n        /* \"#utility.yul\":2633:2634   */\n      0x00\n        /* \"#utility.yul\":2630:2631   */\n      0x00\n        /* \"#utility.yul\":2623:2635   */\n      revert\n        /* \"#utility.yul\":2647:2827   */\n    tag_60:\n        /* \"#utility.yul\":2695:2772   */\n      0x4e487b7100000000000000000000000000000000000000000000000000000000\n        /* \"#utility.yul\":2692:2693   */\n      0x00\n        /* \"#utility.yul\":2685:2773   */\n      mstore\n        /* \"#utility.yul\":2792:2796   */\n      0x41\n        /* \"#utility.yul\":2789:2790   */\n      0x04\n        /* \"#utility.yul\":2782:2797   */\n      mstore\n        /* \"#utility.yul\":2816:2820   */\n      0x24\n        /* \"#utility.yul\":2813:2814   */\n      0x00\n        /* \"#utility.yul\":2806:2821   */\n      revert\n        /* \"#utility.yul\":2833:3114   */\n    tag_61:\n        /* \"#utility.yul\":2916:2943   */\n      tag_127\n        /* \"#utility.yul\":2938:2942   */\n      dup3\n        /* \"#utility.yul\":2916:2943   */\n      tag_56\n      jump\t// in\n    tag_127:\n        /* \"#utility.yul\":2908:2914   */\n      dup2\n        /* \"#utility.yul\":2904:2944   */\n      add\n        /* \"#utility.yul\":3046:3052   */\n      dup2\n        /* \"#utility.yul\":3034:3044   */\n      dup2\n        /* \"#utility.yul\":3031:3053   */\n      lt\n        /* \"#utility.yul\":3010:3028   */\n      0xffffffffffffffff\n        /* \"#utility.yul\":2998:3008   */\n      dup3\n        /* \"#utility.yul\":2995:3029   */\n      gt\n        /* \"#utility.yul\":2992:3054   */\n      or\n        /* \"#utility.yul\":2989:3077   */\n      iszero\n      tag_128\n      jumpi\n        /* \"#utility.yul\":3057:3075   */\n      tag_129\n      tag_60\n      jump\t// in\n    tag_129:\n        /* \"#utility.yul\":2989:3077   */\n    tag_128:\n        /* \"#utility.yul\":3097:3107   */\n      dup1\n        /* \"#utility.yul\":3093:3095   */\n      0x40\n        /* \"#utility.yul\":3086:3108   */\n      mstore\n        /* \"#utility.yul\":2876:3114   */\n      pop\n        /* \"#utility.yul\":2833:3114   */\n      pop\n      pop\n      jump\t// out\n        /* \"#utility.yul\":3120:3249   */\n    tag_62:\n        /* \"#utility.yul\":3154:3160   */\n      0x00\n        /* \"#utility.yul\":3181:3201   */\n      tag_131\n      tag_46\n      jump\t// in\n    tag_131:\n        /* \"#utility.yul\":3171:3201   */\n      swap1\n      pop\n        /* \"#utility.yul\":3210:3243   */\n      tag_132\n        /* \"#utility.yul\":3238:3242   */\n      dup3\n        /* \"#utility.yul\":3230:3236   */\n      dup3\n        /* \"#utility.yul\":3210:3243   */\n      tag_61\n      jump\t// in\n    tag_132:\n        /* \"#utility.yul\":3120:3249   */\n      swap2\n      swap1\n      pop\n      jump\t// out\n        /* \"#utility.yul\":3255:3563   */\n    tag_63:\n        /* \"#utility.yul\":3317:3321   */\n      0x00\n        /* \"#utility.yul\":3407:3425   */\n      0xffffffffffffffff\n        /* \"#utility.yul\":3399:3405   */\n      dup3\n        /* \"#utility.yul\":3396:3426   */\n      gt\n        /* \"#utility.yul\":3393:3449   */\n      iszero\n      tag_134\n      jumpi\n        /* \"#utility.yul\":3429:3447   */\n      tag_135\n      tag_60\n      jump\t// in\n    tag_135:\n        /* \"#utility.yul\":3393:3449   */\n    tag_134:\n        /* \"#utility.yul\":3467:3496   */\n      tag_136\n        /* \"#utility.yul\":3489:3495   */\n      dup3\n        /* \"#utility.yul\":3467:3496   */\n      tag_56\n      jump\t// in\n    tag_136:\n        /* \"#utility.yul\":3459:3496   */\n      swap1\n      pop\n        /* \"#utility.yul\":3551:3555   */\n      0x20\n        /* \"#utility.yul\":3545:3549   */\n      dup2\n        /* \"#utility.yul\":3541:3556   */\n      add\n        /* \"#utility.yul\":3533:3556   */\n      swap1\n      pop\n        /* \"#utility.yul\":3255:3563   */\n      swap2\n      swap1\n      pop\n      jump\t// out\n        /* \"#utility.yul\":3569:3717   */\n    tag_64:\n        /* \"#utility.yul\":3667:3673   */\n      dup3\n        /* \"#utility.yul\":3662:3665   */\n      dup2\n        /* \"#utility.yul\":3657:3660   */\n      dup4\n        /* \"#utility.yul\":3644:3674   */\n      calldatacopy\n        /* \"#utility.yul\":3708:3709   */\n      0x00\n        /* \"#utility.yul\":3699:3705   */\n      dup4\n        /* \"#utility.yul\":3694:3697   */\n      dup4\n        /* \"#utility.yul\":3690:3706   */\n      add\n        /* \"#utility.yul\":3683:3710   */\n      mstore\n        /* \"#utility.yul\":3569:3717   */\n      pop\n      pop\n      pop\n      jump\t// out\n        /* \"#utility.yul\":3723:4148   */\n    tag_65:\n        /* \"#utility.yul\":3801:3806   */\n      0x00\n        /* \"#utility.yul\":3826:3892   */\n      tag_139\n        /* \"#utility.yul\":3842:3891   */\n      tag_140\n        /* \"#utility.yul\":3884:3890   */\n      dup5\n        /* \"#utility.yul\":3842:3891   */\n      tag_63\n      jump\t// in\n    tag_140:\n        /* \"#utility.yul\":3826:3892   */\n      tag_62\n      jump\t// in\n    tag_139:\n        /* \"#utility.yul\":3817:3892   */\n      swap1\n      pop\n        /* \"#utility.yul\":3915:3921   */\n      dup3\n        /* \"#utility.yul\":3908:3913   */\n      dup2\n        /* \"#utility.yul\":3901:3922   */\n      mstore\n        /* \"#utility.yul\":3953:3957   */\n      0x20\n        /* \"#utility.yul\":3946:3951   */\n      dup2\n        /* \"#utility.yul\":3942:3958   */\n      add\n        /* \"#utility.yul\":3991:3994   */\n      dup5\n        /* \"#utility.yul\":3982:3988   */\n      dup5\n        /* \"#utility.yul\":3977:3980   */\n      dup5\n        /* \"#utility.yul\":3973:3989   */\n      add\n        /* \"#utility.yul\":3970:3995   */\n      gt\n        /* \"#utility.yul\":3967:4079   */\n      iszero\n      tag_141\n      jumpi\n        /* \"#utility.yul\":3998:4077   */\n      tag_142\n      tag_59\n      jump\t// in\n    tag_142:\n        /* \"#utility.yul\":3967:4079   */\n    tag_141:\n        /* \"#utility.yul\":4088:4142   */\n      tag_143\n        /* \"#utility.yul\":4135:4141   */\n      dup5\n        /* \"#utility.yul\":4130:4133   */\n      dup3\n        /* \"#utility.yul\":4125:4128   */\n      dup6\n        /* \"#utility.yul\":4088:4142   */\n      tag_64\n      jump\t// in\n    tag_143:\n        /* \"#utility.yul\":3807:4148   */\n      pop\n        /* \"#utility.yul\":3723:4148   */\n      swap4\n      swap3\n      pop\n      pop\n      pop\n      jump\t// out\n        /* \"#utility.yul\":4168:4508   */\n    tag_66:\n        /* \"#utility.yul\":4224:4229   */\n      0x00\n        /* \"#utility.yul\":4273:4276   */\n      dup3\n        /* \"#utility.yul\":4266:4270   */\n      0x1f\n        /* \"#utility.yul\":4258:4264   */\n      dup4\n        /* \"#utility.yul\":4254:4271   */\n      add\n        /* \"#utility.yul\":4250:4277   */\n      slt\n        /* \"#utility.yul\":4240:4362   */\n      tag_145\n      jumpi\n        /* \"#utility.yul\":4281:4360   */\n      tag_146\n      tag_58\n      jump\t// in\n    tag_146:\n        /* \"#utility.yul\":4240:4362   */\n    tag_145:\n        /* \"#utility.yul\":4398:4404   */\n      dup2\n        /* \"#utility.yul\":4385:4405   */\n      calldataload\n        /* \"#utility.yul\":4423:4502   */\n      tag_147\n        /* \"#utility.yul\":4498:4501   */\n      dup5\n        /* \"#utility.yul\":4490:4496   */\n      dup3\n        /* \"#utility.yul\":4483:4487   */\n      0x20\n        /* \"#utility.yul\":4475:4481   */\n      dup7\n        /* \"#utility.yul\":4471:4488   */\n      add\n        /* \"#utility.yul\":4423:4502   */\n      tag_65\n      jump\t// in\n    tag_147:\n        /* \"#utility.yul\":4414:4502   */\n      swap2\n      pop\n        /* \"#utility.yul\":4230:4508   */\n      pop\n        /* \"#utility.yul\":4168:4508   */\n      swap3\n      swap2\n      pop\n      pop\n      jump\t// out\n        /* \"#utility.yul\":4514:4591   */\n    tag_67:\n        /* \"#utility.yul\":4551:4558   */\n      0x00\n        /* \"#utility.yul\":4580:4585   */\n      dup2\n        /* \"#utility.yul\":4569:4585   */\n      swap1\n      pop\n        /* \"#utility.yul\":4514:4591   */\n      swap2\n      swap1\n      pop\n      jump\t// out\n        /* \"#utility.yul\":4597:4719   */\n    tag_68:\n        /* \"#utility.yul\":4670:4694   */\n      tag_150\n        /* \"#utility.yul\":4688:4693   */\n      dup2\n        /* \"#utility.yul\":4670:4694   */\n      tag_67\n      jump\t// in\n    tag_150:\n        /* \"#utility.yul\":4663:4668   */\n      dup2\n        /* \"#utility.yul\":4660:4695   */\n      eq\n        /* \"#utility.yul\":4650:4713   */\n      tag_151\n      jumpi\n        /* \"#utility.yul\":4709:4710   */\n      0x00\n        /* \"#utility.yul\":4706:4707   */\n      0x00\n        /* \"#utility.yul\":4699:4711   */\n      revert\n        /* \"#utility.yul\":4650:4713   */\n    tag_151:\n        /* \"#utility.yul\":4597:4719   */\n      pop\n      jump\t// out\n        /* \"#utility.yul\":4725:4864   */\n    tag_69:\n        /* \"#utility.yul\":4771:4776   */\n      0x00\n        /* \"#utility.yul\":4809:4815   */\n      dup2\n        /* \"#utility.yul\":4796:4816   */\n      calldataload\n        /* \"#utility.yul\":4787:4816   */\n      swap1\n      pop\n        /* \"#utility.yul\":4825:4858   */\n      tag_153\n        /* \"#utility.yul\":4852:4857   */\n      dup2\n        /* \"#utility.yul\":4825:4858   */\n      tag_68\n      jump\t// in\n    tag_153:\n        /* \"#utility.yul\":4725:4864   */\n      swap3\n      swap2\n      pop\n      pop\n      jump\t// out\n        /* \"#utility.yul\":4870:5669   */\n    tag_17:\n        /* \"#utility.yul\":4957:4963   */\n      0x00\n        /* \"#utility.yul\":4965:4971   */\n      0x00\n        /* \"#utility.yul\":4973:4979   */\n      0x00\n        /* \"#utility.yul\":5022:5024   */\n      0x60\n        /* \"#utility.yul\":5010:5019   */\n      dup5\n        /* \"#utility.yul\":5001:5008   */\n      dup7\n        /* \"#utility.yul\":4997:5020   */\n      sub\n        /* \"#utility.yul\":4993:5025   */\n      slt\n        /* \"#utility.yul\":4990:5109   */\n      iszero\n      tag_155\n      jumpi\n        /* \"#utility.yul\":5028:5107   */\n      tag_156\n      tag_47\n      jump\t// in\n    tag_156:\n        /* \"#utility.yul\":4990:5109   */\n    tag_155:\n        /* \"#utility.yul\":5148:5149   */\n      0x00\n        /* \"#utility.yul\":5173:5226   */\n      tag_157\n        /* \"#utility.yul\":5218:5225   */\n      dup7\n        /* \"#utility.yul\":5209:5215   */\n      dup3\n        /* \"#utility.yul\":5198:5207   */\n      dup8\n        /* \"#utility.yul\":5194:5216   */\n      add\n        /* \"#utility.yul\":5173:5226   */\n      tag_52\n      jump\t// in\n    tag_157:\n        /* \"#utility.yul\":5163:5226   */\n      swap4\n      pop\n        /* \"#utility.yul\":5119:5236   */\n      pop\n        /* \"#utility.yul\":5303:5305   */\n      0x20\n        /* \"#utility.yul\":5292:5301   */\n      dup5\n        /* \"#utility.yul\":5288:5306   */\n      add\n        /* \"#utility.yul\":5275:5307   */\n      calldataload\n        /* \"#utility.yul\":5334:5352   */\n      0xffffffffffffffff\n        /* \"#utility.yul\":5326:5332   */\n      dup2\n        /* \"#utility.yul\":5323:5353   */\n      gt\n        /* \"#utility.yul\":5320:5437   */\n      iszero\n      tag_158\n      jumpi\n        /* \"#utility.yul\":5356:5435   */\n      tag_159\n      tag_48\n      jump\t// in\n    tag_159:\n        /* \"#utility.yul\":5320:5437   */\n    tag_158:\n        /* \"#utility.yul\":5461:5524   */\n      tag_160\n        /* \"#utility.yul\":5516:5523   */\n      dup7\n        /* \"#utility.yul\":5507:5513   */\n      dup3\n        /* \"#utility.yul\":5496:5505   */\n      dup8\n        /* \"#utility.yul\":5492:5514   */\n      add\n        /* \"#utility.yul\":5461:5524   */\n      tag_66\n      jump\t// in\n    tag_160:\n        /* \"#utility.yul\":5451:5524   */\n      swap3\n      pop\n        /* \"#utility.yul\":5246:5534   */\n      pop\n        /* \"#utility.yul\":5573:5575   */\n      0x40\n        /* \"#utility.yul\":5599:5652   */\n      tag_161\n        /* \"#utility.yul\":5644:5651   */\n      dup7\n        /* \"#utility.yul\":5635:5641   */\n      dup3\n        /* \"#utility.yul\":5624:5633   */\n      dup8\n        /* \"#utility.yul\":5620:5642   */\n      add\n        /* \"#utility.yul\":5599:5652   */\n      tag_69\n      jump\t// in\n    tag_161:\n        /* \"#utility.yul\":5589:5652   */\n      swap2\n      pop\n        /* \"#utility.yul\":5544:5662   */\n      pop\n        /* \"#utility.yul\":4870:5669   */\n      swap3\n      pop\n      swap3\n      pop\n      swap3\n      jump\t// out\n        /* \"#utility.yul\":5675:5822   */\n    tag_70:\n        /* \"#utility.yul\":5776:5787   */\n      0x00\n        /* \"#utility.yul\":5813:5816   */\n      dup2\n        /* \"#utility.yul\":5798:5816   */\n      swap1\n      pop\n        /* \"#utility.yul\":5675:5822   */\n      swap3\n      swap2\n      pop\n      pop\n      jump\t// out\n        /* \"#utility.yul\":5828:6214   */\n    tag_71:\n        /* \"#utility.yul\":5932:5935   */\n      0x00\n        /* \"#utility.yul\":5960:5998   */\n      tag_164\n        /* \"#utility.yul\":5992:5997   */\n      dup3\n        /* \"#utility.yul\":5960:5998   */\n      tag_53\n      jump\t// in\n    tag_164:\n        /* \"#utility.yul\":6014:6102   */\n      tag_165\n        /* \"#utility.yul\":6095:6101   */\n      dup2\n        /* \"#utility.yul\":6090:6093   */\n      dup6\n        /* \"#utility.yul\":6014:6102   */\n      tag_70\n      jump\t// in\n    tag_165:\n        /* \"#utility.yul\":6007:6102   */\n      swap4\n      pop\n        /* \"#utility.yul\":6111:6176   */\n      tag_166\n        /* \"#utility.yul\":6169:6175   */\n      dup2\n        /* \"#utility.yul\":6164:6167   */\n      dup6\n        /* \"#utility.yul\":6157:6161   */\n      0x20\n        /* \"#utility.yul\":6150:6155   */\n      dup7\n        /* \"#utility.yul\":6146:6162   */\n      add\n        /* \"#utility.yul\":6111:6176   */\n      tag_55\n      jump\t// in\n    tag_166:\n        /* \"#utility.yul\":6201:6207   */\n      dup1\n        /* \"#utility.yul\":6196:6199   */\n      dup5\n        /* \"#utility.yul\":6192:6208   */\n      add\n        /* \"#utility.yul\":6185:6208   */\n      swap2\n      pop\n        /* \"#utility.yul\":5936:6214   */\n      pop\n        /* \"#utility.yul\":5828:6214   */\n      swap3\n      swap2\n      pop\n      pop\n      jump\t// out\n        /* \"#utility.yul\":6220:6491   */\n    tag_21:\n        /* \"#utility.yul\":6350:6353   */\n      0x00\n        /* \"#utility.yul\":6372:6465   */\n      tag_168\n        /* \"#utility.yul\":6461:6464   */\n      dup3\n        /* \"#utility.yul\":6452:6458   */\n      dup5\n        /* \"#utility.yul\":6372:6465   */\n      tag_71\n      jump\t// in\n    tag_168:\n        /* \"#utility.yul\":6365:6465   */\n      swap2\n      pop\n        /* \"#utility.yul\":6482:6485   */\n      dup2\n        /* \"#utility.yul\":6475:6485   */\n      swap1\n      pop\n        /* \"#utility.yul\":6220:6491   */\n      swap3\n      swap2\n      pop\n      pop\n      jump\t// out\n        /* \"#utility.yul\":6497:6666   */\n    tag_72:\n        /* \"#utility.yul\":6581:6592   */\n      0x00\n        /* \"#utility.yul\":6615:6621   */\n      dup3\n        /* \"#utility.yul\":6610:6613   */\n      dup3\n        /* \"#utility.yul\":6603:6622   */\n      mstore\n        /* \"#utility.yul\":6655:6659   */\n      0x20\n        /* \"#utility.yul\":6650:6653   */\n      dup3\n        /* \"#utility.yul\":6646:6660   */\n      add\n        /* \"#utility.yul\":6631:6660   */\n      swap1\n      pop\n        /* \"#utility.yul\":6497:6666   */\n      swap3\n      swap2\n      pop\n      pop\n      jump\t// out\n        /* \"#utility.yul\":6672:6833   */\n    tag_73:\n        /* \"#utility.yul\":6812:6825   */\n      0x43616c6c204661696c6564000000000000000000000000000000000000000000\n        /* \"#utility.yul\":6808:6809   */\n      0x00\n        /* \"#utility.yul\":6800:6806   */\n      dup3\n        /* \"#utility.yul\":6796:6810   */\n      add\n        /* \"#utility.yul\":6789:6826   */\n      mstore\n        /* \"#utility.yul\":6672:6833   */\n      pop\n      jump\t// out\n        /* \"#utility.yul\":6839:7205   */\n    tag_74:\n        /* \"#utility.yul\":6981:6984   */\n      0x00\n        /* \"#utility.yul\":7002:7069   */\n      tag_172\n        /* \"#utility.yul\":7066:7068   */\n      0x0b\n        /* \"#utility.yul\":7061:7064   */\n      dup4\n        /* \"#utility.yul\":7002:7069   */\n      tag_72\n      jump\t// in\n    tag_172:\n        /* \"#utility.yul\":6995:7069   */\n      swap2\n      pop\n        /* \"#utility.yul\":7078:7171   */\n      tag_173\n        /* \"#utility.yul\":7167:7170   */\n      dup3\n        /* \"#utility.yul\":7078:7171   */\n      tag_73\n      jump\t// in\n    tag_173:\n        /* \"#utility.yul\":7196:7198   */\n      0x20\n        /* \"#utility.yul\":7191:7194   */\n      dup3\n        /* \"#utility.yul\":7187:7199   */\n      add\n        /* \"#utility.yul\":7180:7199   */\n      swap1\n      pop\n        /* \"#utility.yul\":6839:7205   */\n      swap2\n      swap1\n      pop\n      jump\t// out\n        /* \"#utility.yul\":7211:7630   */\n    tag_27:\n        /* \"#utility.yul\":7377:7381   */\n      0x00\n        /* \"#utility.yul\":7415:7417   */\n      0x20\n        /* \"#utility.yul\":7404:7413   */\n      dup3\n        /* \"#utility.yul\":7400:7418   */\n      add\n        /* \"#utility.yul\":7392:7418   */\n      swap1\n      pop\n        /* \"#utility.yul\":7464:7473   */\n      dup2\n        /* \"#utility.yul\":7458:7462   */\n      dup2\n        /* \"#utility.yul\":7454:7474   */\n      sub\n        /* \"#utility.yul\":7450:7451   */\n      0x00\n        /* \"#utility.yul\":7439:7448   */\n      dup4\n        /* \"#utility.yul\":7435:7452   */\n      add\n        /* \"#utility.yul\":7428:7475   */\n      mstore\n        /* \"#utility.yul\":7492:7623   */\n      tag_175\n        /* \"#utility.yul\":7618:7622   */\n      dup2\n        /* \"#utility.yul\":7492:7623   */\n      tag_74\n      jump\t// in\n    tag_175:\n        /* \"#utility.yul\":7484:7623   */\n      swap1\n      pop\n        /* \"#utility.yul\":7211:7630   */\n      swap2\n      swap1\n      pop\n      jump\t// out\n        /* \"#utility.yul\":7636:7816   */\n    tag_75:\n        /* \"#utility.yul\":7684:7761   */\n      0x4e487b7100000000000000000000000000000000000000000000000000000000\n        /* \"#utility.yul\":7681:7682   */\n      0x00\n        /* \"#utility.yul\":7674:7762   */\n      mstore\n        /* \"#utility.yul\":7781:7785   */\n      0x22\n        /* \"#utility.yul\":7778:7779   */\n      0x04\n        /* \"#utility.yul\":7771:7786   */\n      mstore\n        /* \"#utility.yul\":7805:7809   */\n      0x24\n        /* \"#utility.yul\":7802:7803   */\n      0x00\n        /* \"#utility.yul\":7795:7810   */\n      revert\n        /* \"#utility.yul\":7822:8142   */\n    tag_29:\n        /* \"#utility.yul\":7866:7872   */\n      0x00\n        /* \"#utility.yul\":7903:7904   */\n      0x02\n        /* \"#utility.yul\":7897:7901   */\n      dup3\n        /* \"#utility.yul\":7893:7905   */\n      div\n        /* \"#utility.yul\":7883:7905   */\n      swap1\n      pop\n        /* \"#utility.yul\":7950:7951   */\n      0x01\n        /* \"#utility.yul\":7944:7948   */\n      dup3\n        /* \"#utility.yul\":7940:7952   */\n      and\n        /* \"#utility.yul\":7971:7989   */\n      dup1\n        /* \"#utility.yul\":7961:8042   */\n      tag_178\n      jumpi\n        /* \"#utility.yul\":8027:8031   */\n      0x7f\n        /* \"#utility.yul\":8019:8025   */\n      dup3\n        /* \"#utility.yul\":8015:8032   */\n      and\n        /* \"#utility.yul\":8005:8032   */\n      swap2\n      pop\n        /* \"#utility.yul\":7961:8042   */\n    tag_178:\n        /* \"#utility.yul\":8089:8091   */\n      0x20\n        /* \"#utility.yul\":8081:8087   */\n      dup3\n        /* \"#utility.yul\":8078:8092   */\n      lt\n        /* \"#utility.yul\":8058:8076   */\n      dup2\n        /* \"#utility.yul\":8055:8093   */\n      sub\n        /* \"#utility.yul\":8052:8136   */\n      tag_179\n      jumpi\n        /* \"#utility.yul\":8108:8126   */\n      tag_180\n      tag_75\n      jump\t// in\n    tag_180:\n        /* \"#utility.yul\":8052:8136   */\n    tag_179:\n        /* \"#utility.yul\":7873:8142   */\n      pop\n        /* \"#utility.yul\":7822:8142   */\n      swap2\n      swap1\n      pop\n      jump\t// out\n        /* \"#utility.yul\":8148:8247   */\n    tag_76:\n        /* \"#utility.yul\":8200:8206   */\n      0x00\n        /* \"#utility.yul\":8234:8239   */\n      dup2\n        /* \"#utility.yul\":8228:8240   */\n      mload\n        /* \"#utility.yul\":8218:8240   */\n      swap1\n      pop\n        /* \"#utility.yul\":8148:8247   */\n      swap2\n      swap1\n      pop\n      jump\t// out\n        /* \"#utility.yul\":8253:8630   */\n    tag_77:\n        /* \"#utility.yul\":8341:8344   */\n      0x00\n        /* \"#utility.yul\":8369:8408   */\n      tag_183\n        /* \"#utility.yul\":8402:8407   */\n      dup3\n        /* \"#utility.yul\":8369:8408   */\n      tag_76\n      jump\t// in\n    tag_183:\n        /* \"#utility.yul\":8424:8495   */\n      tag_184\n        /* \"#utility.yul\":8488:8494   */\n      dup2\n        /* \"#utility.yul\":8483:8486   */\n      dup6\n        /* \"#utility.yul\":8424:8495   */\n      tag_72\n      jump\t// in\n    tag_184:\n        /* \"#utility.yul\":8417:8495   */\n      swap4\n      pop\n        /* \"#utility.yul\":8504:8569   */\n      tag_185\n        /* \"#utility.yul\":8562:8568   */\n      dup2\n        /* \"#utility.yul\":8557:8560   */\n      dup6\n        /* \"#utility.yul\":8550:8554   */\n      0x20\n        /* \"#utility.yul\":8543:8548   */\n      dup7\n        /* \"#utility.yul\":8539:8555   */\n      add\n        /* \"#utility.yul\":8504:8569   */\n      tag_55\n      jump\t// in\n    tag_185:\n        /* \"#utility.yul\":8594:8623   */\n      tag_186\n        /* \"#utility.yul\":8616:8622   */\n      dup2\n        /* \"#utility.yul\":8594:8623   */\n      tag_56\n      jump\t// in\n    tag_186:\n        /* \"#utility.yul\":8589:8592   */\n      dup5\n        /* \"#utility.yul\":8585:8624   */\n      add\n        /* \"#utility.yul\":8578:8624   */\n      swap2\n      pop\n        /* \"#utility.yul\":8345:8630   */\n      pop\n        /* \"#utility.yul\":8253:8630   */\n      swap3\n      swap2\n      pop\n      pop\n      jump\t// out\n        /* \"#utility.yul\":8636:8754   */\n    tag_78:\n        /* \"#utility.yul\":8723:8747   */\n      tag_188\n        /* \"#utility.yul\":8741:8746   */\n      dup2\n        /* \"#utility.yul\":8723:8747   */\n      tag_67\n      jump\t// in\n    tag_188:\n        /* \"#utility.yul\":8718:8721   */\n      dup3\n        /* \"#utility.yul\":8711:8748   */\n      mstore\n        /* \"#utility.yul\":8636:8754   */\n      pop\n      pop\n      jump\t// out\n        /* \"#utility.yul\":8760:9183   */\n    tag_36:\n        /* \"#utility.yul\":8901:8905   */\n      0x00\n        /* \"#utility.yul\":8939:8941   */\n      0x40\n        /* \"#utility.yul\":8928:8937   */\n      dup3\n        /* \"#utility.yul\":8924:8942   */\n      add\n        /* \"#utility.yul\":8916:8942   */\n      swap1\n      pop\n        /* \"#utility.yul\":8988:8997   */\n      dup2\n        /* \"#utility.yul\":8982:8986   */\n      dup2\n        /* \"#utility.yul\":8978:8998   */\n      sub\n        /* \"#utility.yul\":8974:8975   */\n      0x00\n        /* \"#utility.yul\":8963:8972   */\n      dup4\n        /* \"#utility.yul\":8959:8976   */\n      add\n        /* \"#utility.yul\":8952:8999   */\n      mstore\n        /* \"#utility.yul\":9016:9094   */\n      tag_190\n        /* \"#utility.yul\":9089:9093   */\n      dup2\n        /* \"#utility.yul\":9080:9086   */\n      dup6\n        /* \"#utility.yul\":9016:9094   */\n      tag_77\n      jump\t// in\n    tag_190:\n        /* \"#utility.yul\":9008:9094   */\n      swap1\n      pop\n        /* \"#utility.yul\":9104:9176   */\n      tag_191\n        /* \"#utility.yul\":9172:9174   */\n      0x20\n        /* \"#utility.yul\":9161:9170   */\n      dup4\n        /* \"#utility.yul\":9157:9175   */\n      add\n        /* \"#utility.yul\":9148:9154   */\n      dup5\n        /* \"#utility.yul\":9104:9176   */\n      tag_78\n      jump\t// in\n    tag_191:\n        /* \"#utility.yul\":8760:9183   */\n      swap4\n      swap3\n      pop\n      pop\n      pop\n      jump\t// out\n        /* \"#utility.yul\":9189:9350   */\n    tag_79:\n        /* \"#utility.yul\":9329:9342   */\n      0x43616c6c206661696c6564000000000000000000000000000000000000000000\n        /* \"#utility.yul\":9325:9326   */\n      0x00\n        /* \"#utility.yul\":9317:9323   */\n      dup3\n        /* \"#utility.yul\":9313:9327   */\n      add\n        /* \"#utility.yul\":9306:9343   */\n      mstore\n        /* \"#utility.yul\":9189:9350   */\n      pop\n      jump\t// out\n        /* \"#utility.yul\":9356:9722   */\n    tag_80:\n        /* \"#utility.yul\":9498:9501   */\n      0x00\n        /* \"#utility.yul\":9519:9586   */\n      tag_194\n        /* \"#utility.yul\":9583:9585   */\n      0x0b\n        /* \"#utility.yul\":9578:9581   */\n      dup4\n        /* \"#utility.yul\":9519:9586   */\n      tag_72\n      jump\t// in\n    tag_194:\n        /* \"#utility.yul\":9512:9586   */\n      swap2\n      pop\n        /* \"#utility.yul\":9595:9688   */\n      tag_195\n        /* \"#utility.yul\":9684:9687   */\n      dup3\n        /* \"#utility.yul\":9595:9688   */\n      tag_79\n      jump\t// in\n    tag_195:\n        /* \"#utility.yul\":9713:9715   */\n      0x20\n        /* \"#utility.yul\":9708:9711   */\n      dup3\n        /* \"#utility.yul\":9704:9716   */\n      add\n        /* \"#utility.yul\":9697:9716   */\n      swap1\n      pop\n        /* \"#utility.yul\":9356:9722   */\n      swap2\n      swap1\n      pop\n      jump\t// out\n        /* \"#utility.yul\":9728:10147   */\n    tag_43:\n        /* \"#utility.yul\":9894:9898   */\n      0x00\n        /* \"#utility.yul\":9932:9934   */\n      0x20\n        /* \"#utility.yul\":9921:9930   */\n      dup3\n        /* \"#utility.yul\":9917:9935   */\n      add\n        /* \"#utility.yul\":9909:9935   */\n      swap1\n      pop\n        /* \"#utility.yul\":9981:9990   */\n      dup2\n        /* \"#utility.yul\":9975:9979   */\n      dup2\n        /* \"#utility.yul\":9971:9991   */\n      sub\n        /* \"#utility.yul\":9967:9968   */\n      0x00\n        /* \"#utility.yul\":9956:9965   */\n      dup4\n        /* \"#utility.yul\":9952:9969   */\n      add\n        /* \"#utility.yul\":9945:9992   */\n      mstore\n        /* \"#utility.yul\":10009:10140   */\n      tag_197\n        /* \"#utility.yul\":10135:10139   */\n      dup2\n        /* \"#utility.yul\":10009:10140   */\n      tag_80\n      jump\t// in\n    tag_197:\n        /* \"#utility.yul\":10001:10140   */\n      swap1\n      pop\n        /* \"#utility.yul\":9728:10147   */\n      swap2\n      swap1\n      pop\n      jump\t// out\n        /* \"#utility.yul\":10153:10293   */\n    tag_81:\n        /* \"#utility.yul\":10201:10205   */\n      0x00\n        /* \"#utility.yul\":10224:10227   */\n      dup2\n        /* \"#utility.yul\":10216:10227   */\n      swap1\n      pop\n        /* \"#utility.yul\":10247:10250   */\n      dup2\n        /* \"#utility.yul\":10244:10245   */\n      0x00\n        /* \"#utility.yul\":10237:10251   */\n      mstore\n        /* \"#utility.yul\":10281:10285   */\n      0x20\n        /* \"#utility.yul\":10278:10279   */\n      0x00\n        /* \"#utility.yul\":10268:10286   */\n      keccak256\n        /* \"#utility.yul\":10260:10286   */\n      swap1\n      pop\n        /* \"#utility.yul\":10153:10293   */\n      swap2\n      swap1\n      pop\n      jump\t// out\n        /* \"#utility.yul\":10299:10392   */\n    tag_82:\n        /* \"#utility.yul\":10336:10342   */\n      0x00\n        /* \"#utility.yul\":10383:10385   */\n      0x20\n        /* \"#utility.yul\":10378:10380   */\n      0x1f\n        /* \"#utility.yul\":10371:10376   */\n      dup4\n        /* \"#utility.yul\":10367:10381   */\n      add\n        /* \"#utility.yul\":10363:10386   */\n      div\n        /* \"#utility.yul\":10353:10386   */\n      swap1\n      pop\n        /* \"#utility.yul\":10299:10392   */\n      swap2\n      swap1\n      pop\n      jump\t// out\n        /* \"#utility.yul\":10398:10505   */\n    tag_83:\n        /* \"#utility.yul\":10442:10450   */\n      0x00\n        /* \"#utility.yul\":10492:10497   */\n      dup3\n        /* \"#utility.yul\":10486:10490   */\n      dup3\n        /* \"#utility.yul\":10482:10498   */\n      shl\n        /* \"#utility.yul\":10461:10498   */\n      swap1\n      pop\n        /* \"#utility.yul\":10398:10505   */\n      swap3\n      swap2\n      pop\n      pop\n      jump\t// out\n        /* \"#utility.yul\":10511:10904   */\n    tag_84:\n        /* \"#utility.yul\":10580:10586   */\n      0x00\n        /* \"#utility.yul\":10630:10631   */\n      0x08\n        /* \"#utility.yul\":10618:10628   */\n      dup4\n        /* \"#utility.yul\":10614:10632   */\n      mul\n        /* \"#utility.yul\":10653:10750   */\n      tag_202\n        /* \"#utility.yul\":10683:10749   */\n      0xffffffffffffffffffffffffffffffffffffffffffffffffffffffffffffffff\n        /* \"#utility.yul\":10672:10681   */\n      dup3\n        /* \"#utility.yul\":10653:10750   */\n      tag_83\n      jump\t// in\n    tag_202:\n        /* \"#utility.yul\":10771:10810   */\n      tag_203\n        /* \"#utility.yul\":10801:10809   */\n      dup7\n        /* \"#utility.yul\":10790:10799   */\n      dup4\n        /* \"#utility.yul\":10771:10810   */\n      tag_83\n      jump\t// in\n    tag_203:\n        /* \"#utility.yul\":10759:10810   */\n      swap6\n      pop\n        /* \"#utility.yul\":10843:10847   */\n      dup1\n        /* \"#utility.yul\":10839:10848   */\n      not\n        /* \"#utility.yul\":10832:10837   */\n      dup5\n        /* \"#utility.yul\":10828:10849   */\n      and\n        /* \"#utility.yul\":10819:10849   */\n      swap4\n      pop\n        /* \"#utility.yul\":10892:10896   */\n      dup1\n        /* \"#utility.yul\":10882:10890   */\n      dup7\n        /* \"#utility.yul\":10878:10897   */\n      and\n        /* \"#utility.yul\":10871:10876   */\n      dup5\n        /* \"#utility.yul\":10868:10898   */\n      or\n        /* \"#utility.yul\":10858:10898   */\n      swap3\n      pop\n        /* \"#utility.yul\":10587:10904   */\n      pop\n      pop\n        /* \"#utility.yul\":10511:10904   */\n      swap4\n      swap3\n      pop\n      pop\n      pop\n      jump\t// out\n        /* \"#utility.yul\":10910:10970   */\n    tag_85:\n        /* \"#utility.yul\":10938:10941   */\n      0x00\n        /* \"#utility.yul\":10959:10964   */\n      dup2\n        /* \"#utility.yul\":10952:10964   */\n      swap1\n      pop\n        /* \"#utility.yul\":10910:10970   */\n      swap2\n      swap1\n      pop\n      jump\t// out\n        /* \"#utility.yul\":10976:11118   */\n    tag_86:\n        /* \"#utility.yul\":11026:11035   */\n      0x00\n        /* \"#utility.yul\":11059:11112   */\n      tag_206\n        /* \"#utility.yul\":11077:11111   */\n      tag_207\n        /* \"#utility.yul\":11086:11110   */\n      tag_208\n        /* \"#utility.yul\":11104:11109   */\n      dup5\n        /* \"#utility.yul\":11086:11110   */\n      tag_67\n      jump\t// in\n    tag_208:\n        /* \"#utility.yul\":11077:11111   */\n      tag_85\n      jump\t// in\n    tag_207:\n        /* \"#utility.yul\":11059:11112   */\n      tag_67\n      jump\t// in\n    tag_206:\n        /* \"#utility.yul\":11046:11112   */\n      swap1\n      pop\n        /* \"#utility.yul\":10976:11118   */\n      swap2\n      swap1\n      pop\n      jump\t// out\n        /* \"#utility.yul\":11124:11199   */\n    tag_87:\n        /* \"#utility.yul\":11167:11170   */\n      0x00\n        /* \"#utility.yul\":11188:11193   */\n      dup2\n        /* \"#utility.yul\":11181:11193   */\n      swap1\n      pop\n        /* \"#utility.yul\":11124:11199   */\n      swap2\n      swap1\n      pop\n      jump\t// out\n        /* \"#utility.yul\":11205:11474   */\n    tag_88:\n        /* \"#utility.yul\":11315:11354   */\n      tag_211\n        /* \"#utility.yul\":11346:11353   */\n      dup4\n        /* \"#utility.yul\":11315:11354   */\n      tag_86\n      jump\t// in\n    tag_211:\n        /* \"#utility.yul\":11376:11467   */\n      tag_212\n        /* \"#utility.yul\":11425:11466   */\n      tag_213\n        /* \"#utility.yul\":11449:11465   */\n      dup3\n        /* \"#utility.yul\":11425:11466   */\n      tag_87\n      jump\t// in\n    tag_213:\n        /* \"#utility.yul\":11417:11423   */\n      dup5\n        /* \"#utility.yul\":11410:11414   */\n      dup5\n        /* \"#utility.yul\":11404:11415   */\n      sload\n        /* \"#utility.yul\":11376:11467   */\n      tag_84\n      jump\t// in\n    tag_212:\n        /* \"#utility.yul\":11370:11374   */\n      dup3\n        /* \"#utility.yul\":11363:11468   */\n      sstore\n        /* \"#utility.yul\":11281:11474   */\n      pop\n        /* \"#utility.yul\":11205:11474   */\n      pop\n      pop\n      pop\n      jump\t// out\n        /* \"#utility.yul\":11480:11553   */\n    tag_89:\n        /* \"#utility.yul\":11525:11528   */\n      0x00\n        /* \"#utility.yul\":11546:11547   */\n      0x00\n        /* \"#utility.yul\":11539:11547   */\n      swap1\n      pop\n        /* \"#utility.yul\":11480:11553   */\n      swap1\n      jump\t// out\n        /* \"#utility.yul\":11559:11748   */\n    tag_90:\n        /* \"#utility.yul\":11636:11668   */\n      tag_216\n      tag_89\n      jump\t// in\n    tag_216:\n        /* \"#utility.yul\":11677:11742   */\n      tag_217\n        /* \"#utility.yul\":11735:11741   */\n      dup2\n        /* \"#utility.yul\":11727:11733   */\n      dup5\n        /* \"#utility.yul\":11721:11725   */\n      dup5\n        /* \"#utility.yul\":11677:11742   */\n      tag_88\n      jump\t// in\n    tag_217:\n        /* \"#utility.yul\":11612:11748   */\n      pop\n        /* \"#utility.yul\":11559:11748   */\n      pop\n      pop\n      jump\t// out\n        /* \"#utility.yul\":11754:11968   */\n    tag_91:\n        /* \"#utility.yul\":11839:11840   */\n      0x00\n        /* \"#utility.yul\":11824:11962   */\n    tag_219:\n        /* \"#utility.yul\":11849:11858   */\n      dup3\n        /* \"#utility.yul\":11846:11847   */\n      dup2\n        /* \"#utility.yul\":11843:11859   */\n      lt\n        /* \"#utility.yul\":11824:11962   */\n      iszero\n      tag_221\n      jumpi\n        /* \"#utility.yul\":11901:11952   */\n      tag_222\n        /* \"#utility.yul\":11950:11951   */\n      0x00\n        /* \"#utility.yul\":11946:11947   */\n      dup3\n        /* \"#utility.yul\":11935:11944   */\n      dup5\n        /* \"#utility.yul\":11931:11948   */\n      add\n        /* \"#utility.yul\":11901:11952   */\n      tag_90\n      jump\t// in\n    tag_222:\n        /* \"#utility.yul\":11874:11875   */\n      0x01\n        /* \"#utility.yul\":11871:11872   */\n      dup2\n        /* \"#utility.yul\":11867:11876   */\n      add\n        /* \"#utility.yul\":11862:11876   */\n      swap1\n      pop\n        /* \"#utility.yul\":11824:11962   */\n      jump(tag_219)\n    tag_221:\n        /* \"#utility.yul\":11828:11842   */\n      pop\n        /* \"#utility.yul\":11754:11968   */\n      pop\n      pop\n      jump\t// out\n        /* \"#utility.yul\":11974:12718   */\n    tag_92:\n        /* \"#utility.yul\":12074:12076   */\n      0x1f\n        /* \"#utility.yul\":12069:12072   */\n      dup3\n        /* \"#utility.yul\":12066:12077   */\n      gt\n        /* \"#utility.yul\":12063:12711   */\n      iszero\n      tag_224\n      jumpi\n        /* \"#utility.yul\":12103:12113   */\n      dup3\n        /* \"#utility.yul\":12098:12101   */\n      dup3\n        /* \"#utility.yul\":12095:12114   */\n      gt\n        /* \"#utility.yul\":12092:12701   */\n      iszero\n      tag_225\n      jumpi\n        /* \"#utility.yul\":12149:12186   */\n      tag_226\n        /* \"#utility.yul\":12180:12185   */\n      dup2\n        /* \"#utility.yul\":12149:12186   */\n      tag_81\n      jump\t// in\n    tag_226:\n        /* \"#utility.yul\":12223:12245   */\n      tag_227\n        /* \"#utility.yul\":12241:12244   */\n      dup4\n        /* \"#utility.yul\":12223:12245   */\n      tag_82\n      jump\t// in\n    tag_227:\n        /* \"#utility.yul\":12282:12311   */\n      tag_228\n        /* \"#utility.yul\":12300:12310   */\n      dup6\n        /* \"#utility.yul\":12282:12311   */\n      tag_82\n      jump\t// in\n    tag_228:\n        /* \"#utility.yul\":12472:12474   */\n      0x20\n        /* \"#utility.yul\":12460:12470   */\n      dup7\n        /* \"#utility.yul\":12457:12475   */\n      lt\n        /* \"#utility.yul\":12454:12533   */\n      iszero\n      tag_229\n      jumpi\n        /* \"#utility.yul\":12514:12515   */\n      0x00\n        /* \"#utility.yul\":12498:12515   */\n      swap1\n      pop\n        /* \"#utility.yul\":12454:12533   */\n    tag_229:\n        /* \"#utility.yul\":12583:12595   */\n      dup1\n        /* \"#utility.yul\":12573:12581   */\n      dup4\n        /* \"#utility.yul\":12569:12596   */\n      add\n        /* \"#utility.yul\":12613:12687   */\n      tag_230\n        /* \"#utility.yul\":12673:12685   */\n      dup3\n        /* \"#utility.yul\":12659:12671   */\n      dup5\n        /* \"#utility.yul\":12655:12686   */\n      sub\n        /* \"#utility.yul\":12642:12653   */\n      dup3\n        /* \"#utility.yul\":12613:12687   */\n      tag_91\n      jump\t// in\n    tag_230:\n        /* \"#utility.yul\":12115:12701   */\n      pop\n      pop\n      pop\n      pop\n        /* \"#utility.yul\":12092:12701   */\n    tag_225:\n        /* \"#utility.yul\":12063:12711   */\n    tag_224:\n        /* \"#utility.yul\":11974:12718   */\n      pop\n      pop\n      pop\n      jump\t// out\n        /* \"#utility.yul\":12724:12841   */\n    tag_93:\n        /* \"#utility.yul\":12778:12786   */\n      0x00\n        /* \"#utility.yul\":12828:12833   */\n      dup3\n        /* \"#utility.yul\":12822:12826   */\n      dup3\n        /* \"#utility.yul\":12818:12834   */\n      shr\n        /* \"#utility.yul\":12797:12834   */\n      swap1\n      pop\n        /* \"#utility.yul\":12724:12841   */\n      swap3\n      swap2\n      pop\n      pop\n      jump\t// out\n        /* \"#utility.yul\":12847:13016   */\n    tag_94:\n        /* \"#utility.yul\":12891:12897   */\n      0x00\n        /* \"#utility.yul\":12924:12975   */\n      tag_233\n        /* \"#utility.yul\":12972:12973   */\n      0x00\n        /* \"#utility.yul\":12968:12974   */\n      not\n        /* \"#utility.yul\":12960:12965   */\n      dup5\n        /* \"#utility.yul\":12957:12958   */\n      0x08\n        /* \"#utility.yul\":12953:12966   */\n      mul\n        /* \"#utility.yul\":12924:12975   */\n      tag_93\n      jump\t// in\n    tag_233:\n        /* \"#utility.yul\":12920:12976   */\n      not\n        /* \"#utility.yul\":13005:13009   */\n      dup1\n        /* \"#utility.yul\":12999:13003   */\n      dup4\n        /* \"#utility.yul\":12995:13010   */\n      and\n        /* \"#utility.yul\":12985:13010   */\n      swap2\n      pop\n        /* \"#utility.yul\":12898:13016   */\n      pop\n        /* \"#utility.yul\":12847:13016   */\n      swap3\n      swap2\n      pop\n      pop\n      jump\t// out\n        /* \"#utility.yul\":13021:13316   */\n    tag_95:\n        /* \"#utility.yul\":13097:13101   */\n      0x00\n        /* \"#utility.yul\":13243:13272   */\n      tag_235\n        /* \"#utility.yul\":13268:13271   */\n      dup4\n        /* \"#utility.yul\":13262:13266   */\n      dup4\n        /* \"#utility.yul\":13243:13272   */\n      tag_94\n      jump\t// in\n    tag_235:\n        /* \"#utility.yul\":13235:13272   */\n      swap2\n      pop\n        /* \"#utility.yul\":13305:13308   */\n      dup3\n        /* \"#utility.yul\":13302:13303   */\n      0x02\n        /* \"#utility.yul\":13298:13309   */\n      mul\n        /* \"#utility.yul\":13292:13296   */\n      dup3\n        /* \"#utility.yul\":13289:13310   */\n      or\n        /* \"#utility.yul\":13281:13310   */\n      swap1\n      pop\n        /* \"#utility.yul\":13021:13316   */\n      swap3\n      swap2\n      pop\n      pop\n      jump\t// out\n        /* \"#utility.yul\":13321:14711   */\n    tag_45:\n        /* \"#utility.yul\":13436:13472   */\n      tag_237\n        /* \"#utility.yul\":13468:13471   */\n      dup3\n        /* \"#utility.yul\":13436:13472   */\n      tag_53\n      jump\t// in\n    tag_237:\n        /* \"#utility.yul\":13537:13555   */\n      0xffffffffffffffff\n        /* \"#utility.yul\":13529:13535   */\n      dup2\n        /* \"#utility.yul\":13526:13556   */\n      gt\n        /* \"#utility.yul\":13523:13579   */\n      iszero\n      tag_238\n      jumpi\n        /* \"#utility.yul\":13559:13577   */\n      tag_239\n      tag_60\n      jump\t// in\n    tag_239:\n        /* \"#utility.yul\":13523:13579   */\n    tag_238:\n        /* \"#utility.yul\":13603:13641   */\n      tag_240\n        /* \"#utility.yul\":13635:13639   */\n      dup3\n        /* \"#utility.yul\":13629:13640   */\n      sload\n        /* \"#utility.yul\":13603:13641   */\n      tag_29\n      jump\t// in\n    tag_240:\n        /* \"#utility.yul\":13688:13754   */\n      tag_241\n        /* \"#utility.yul\":13747:13753   */\n      dup3\n        /* \"#utility.yul\":13739:13745   */\n      dup3\n        /* \"#utility.yul\":13733:13737   */\n      dup6\n        /* \"#utility.yul\":13688:13754   */\n      tag_92\n      jump\t// in\n    tag_241:\n        /* \"#utility.yul\":13781:13782   */\n      0x00\n        /* \"#utility.yul\":13805:13809   */\n      0x20\n        /* \"#utility.yul\":13792:13809   */\n      swap1\n      pop\n        /* \"#utility.yul\":13837:13839   */\n      0x1f\n        /* \"#utility.yul\":13829:13835   */\n      dup4\n        /* \"#utility.yul\":13826:13840   */\n      gt\n        /* \"#utility.yul\":13854:13855   */\n      0x01\n        /* \"#utility.yul\":13849:14466   */\n      dup2\n      eq\n      tag_243\n      jumpi\n        /* \"#utility.yul\":14510:14511   */\n      0x00\n        /* \"#utility.yul\":14527:14533   */\n      dup5\n        /* \"#utility.yul\":14524:14601   */\n      iszero\n      tag_244\n      jumpi\n        /* \"#utility.yul\":14576:14585   */\n      dup3\n        /* \"#utility.yul\":14571:14574   */\n      dup8\n        /* \"#utility.yul\":14567:14586   */\n      add\n        /* \"#utility.yul\":14561:14587   */\n      mload\n        /* \"#utility.yul\":14552:14587   */\n      swap1\n      pop\n        /* \"#utility.yul\":14524:14601   */\n    tag_244:\n        /* \"#utility.yul\":14627:14694   */\n      tag_245\n        /* \"#utility.yul\":14687:14693   */\n      dup6\n        /* \"#utility.yul\":14680:14685   */\n      dup3\n        /* \"#utility.yul\":14627:14694   */\n      tag_95\n      jump\t// in\n    tag_245:\n        /* \"#utility.yul\":14621:14625   */\n      dup7\n        /* \"#utility.yul\":14614:14695   */\n      sstore\n        /* \"#utility.yul\":14483:14705   */\n      pop\n        /* \"#utility.yul\":13819:14705   */\n      jump(tag_242)\n        /* \"#utility.yul\":13849:14466   */\n    tag_243:\n        /* \"#utility.yul\":13901:13905   */\n      0x1f\n        /* \"#utility.yul\":13897:13906   */\n      not\n        /* \"#utility.yul\":13889:13895   */\n      dup5\n        /* \"#utility.yul\":13885:13907   */\n      and\n        /* \"#utility.yul\":13935:13971   */\n      tag_246\n        /* \"#utility.yul\":13966:13970   */\n      dup7\n        /* \"#utility.yul\":13935:13971   */\n      tag_81\n      jump\t// in\n    tag_246:\n        /* \"#utility.yul\":13993:13994   */\n      0x00\n        /* \"#utility.yul\":14007:14215   */\n    tag_247:\n        /* \"#utility.yul\":14021:14028   */\n      dup3\n        /* \"#utility.yul\":14018:14019   */\n      dup2\n        /* \"#utility.yul\":14015:14029   */\n      lt\n        /* \"#utility.yul\":14007:14215   */\n      iszero\n      tag_249\n      jumpi\n        /* \"#utility.yul\":14100:14109   */\n      dup5\n        /* \"#utility.yul\":14095:14098   */\n      dup10\n        /* \"#utility.yul\":14091:14110   */\n      add\n        /* \"#utility.yul\":14085:14111   */\n      mload\n        /* \"#utility.yul\":14077:14083   */\n      dup3\n        /* \"#utility.yul\":14070:14112   */\n      sstore\n        /* \"#utility.yul\":14151:14152   */\n      0x01\n        /* \"#utility.yul\":14143:14149   */\n      dup3\n        /* \"#utility.yul\":14139:14153   */\n      add\n        /* \"#utility.yul\":14129:14153   */\n      swap2\n      pop\n        /* \"#utility.yul\":14198:14200   */\n      0x20\n        /* \"#utility.yul\":14187:14196   */\n      dup6\n        /* \"#utility.yul\":14183:14201   */\n      add\n        /* \"#utility.yul\":14170:14201   */\n      swap5\n      pop\n        /* \"#utility.yul\":14044:14048   */\n      0x20\n        /* \"#utility.yul\":14041:14042   */\n      dup2\n        /* \"#utility.yul\":14037:14049   */\n      add\n        /* \"#utility.yul\":14032:14049   */\n      swap1\n      pop\n        /* \"#utility.yul\":14007:14215   */\n      jump(tag_247)\n    tag_249:\n        /* \"#utility.yul\":14243:14249   */\n      dup7\n        /* \"#utility.yul\":14234:14241   */\n      dup4\n        /* \"#utility.yul\":14231:14250   */\n      lt\n        /* \"#utility.yul\":14228:14407   */\n      iszero\n      tag_250\n      jumpi\n        /* \"#utility.yul\":14301:14310   */\n      dup5\n        /* \"#utility.yul\":14296:14299   */\n      dup10\n        /* \"#utility.yul\":14292:14311   */\n      add\n        /* \"#utility.yul\":14286:14312   */\n      mload\n        /* \"#utility.yul\":14344:14392   */\n      tag_251\n        /* \"#utility.yul\":14386:14390   */\n      0x1f\n        /* \"#utility.yul\":14378:14384   */\n      dup10\n        /* \"#utility.yul\":14374:14391   */\n      and\n        /* \"#utility.yul\":14363:14372   */\n      dup3\n        /* \"#utility.yul\":14344:14392   */\n      tag_94\n      jump\t// in\n    tag_251:\n        /* \"#utility.yul\":14336:14342   */\n      dup4\n        /* \"#utility.yul\":14329:14393   */\n      sstore\n        /* \"#utility.yul\":14251:14407   */\n      pop\n        /* \"#utility.yul\":14228:14407   */\n    tag_250:\n        /* \"#utility.yul\":14453:14454   */\n      0x01\n        /* \"#utility.yul\":14449:14450   */\n      0x02\n        /* \"#utility.yul\":14441:14447   */\n      dup9\n        /* \"#utility.yul\":14437:14451   */\n      mul\n        /* \"#utility.yul\":14433:14455   */\n      add\n        /* \"#utility.yul\":14427:14431   */\n      dup9\n        /* \"#utility.yul\":14420:14456   */\n      sstore\n        /* \"#utility.yul\":13856:14466   */\n      pop\n      pop\n      pop\n        /* \"#utility.yul\":13819:14705   */\n    tag_242:\n      pop\n        /* \"#utility.yul\":13411:14711   */\n      pop\n      pop\n      pop\n        /* \"#utility.yul\":13321:14711   */\n      pop\n      pop\n      jump\t// out\n\n    auxdata: 0xa26469706673582212208801c149b6a6a364b5ebe40bd46c92f0c762d65826cb89e5943bdd08867c1e0064736f6c63430008220033\n}\n",
				"bytecode": {
					"linkReferences": {},
					"object": "6080604052348015600e575f5ffd5b50610b638061001c5f395ff3fe608060405260043610610033575f3560e01c8063172a57d71461003757806373d4a13a1461005f578063dd5f151e14610089575b5f5ffd5b348015610042575f5ffd5b5061005d6004803603810190610058919061041b565b6100a5565b005b34801561006a575f5ffd5b506100736101d3565b60405161008091906104b6565b60405180910390f35b6100a3600480360381019061009e9190610635565b61025e565b005b5f8173ffffffffffffffffffffffffffffffffffffffff166040516024016040516020818303038152906040527ff167435f000000000000000000000000000000000000000000000000000000007bffffffffffffffffffffffffffffffffffffffffffffffffffffffff19166020820180517bffffffffffffffffffffffffffffffffffffffffffffffffffffffff838183161783525050505060405161014d91906106db565b5f604051808303815f865af19150503d805f8114610186576040519150601f19603f3d011682016040523d82523d5f602084013e61018b565b606091505b50509050806101cf576040517f08c379a00000000000000000000000000000000000000000000000000000000081526004016101c69061074b565b60405180910390fd5b5050565b5f80546101df90610796565b80601f016020809104026020016040519081016040528092919081815260200182805461020b90610796565b80156102565780601f1061022d57610100808354040283529160200191610256565b820191905f5260205f20905b81548152906001019060200180831161023957829003601f168201915b505050505081565b5f5f8473ffffffffffffffffffffffffffffffffffffffff16607b858560405160240161028c929190610817565b6040516020818303038152906040527f24ccab8f000000000000000000000000000000000000000000000000000000007bffffffffffffffffffffffffffffffffffffffffffffffffffffffff19166020820180517bffffffffffffffffffffffffffffffffffffffffffffffffffffffff838183161783525050505060405161031691906106db565b5f6040518083038185875af1925050503d805f8114610350576040519150601f19603f3d011682016040523d82523d5f602084013e610355565b606091505b50915091508161039a576040517f08c379a00000000000000000000000000000000000000000000000000000000081526004016103919061088f565b60405180910390fd5b805f90816103a89190610a5e565b505050505050565b5f604051905090565b5f5ffd5b5f5ffd5b5f73ffffffffffffffffffffffffffffffffffffffff82169050919050565b5f6103ea826103c1565b9050919050565b6103fa816103e0565b8114610404575f5ffd5b50565b5f81359050610415816103f1565b92915050565b5f602082840312156104305761042f6103b9565b5b5f61043d84828501610407565b91505092915050565b5f81519050919050565b5f82825260208201905092915050565b8281835e5f83830152505050565b5f601f19601f8301169050919050565b5f61048882610446565b6104928185610450565b93506104a2818560208601610460565b6104ab8161046e565b840191505092915050565b5f6020820190508181035f8301526104ce818461047e565b905092915050565b5f5ffd5b5f5ffd5b7f4e487b71000000000000000000000000000000000000000000000000000000005f52604160045260245ffd5b6105148261046e565b810181811067ffffffffffffffff82111715610533576105326104de565b5b80604052505050565b5f6105456103b0565b9050610551828261050b565b919050565b5f67ffffffffffffffff8211156105705761056f6104de565b5b6105798261046e565b9050602081019050919050565b828183375f83830152505050565b5f6105a66105a184610556565b61053c565b9050828152602081018484840111156105c2576105c16104da565b5b6105cd848285610586565b509392505050565b5f82601f8301126105e9576105e86104d6565b5b81356105f9848260208601610594565b91505092915050565b5f819050919050565b61061481610602565b811461061e575f5ffd5b50565b5f8135905061062f8161060b565b92915050565b5f5f5f6060848603121561064c5761064b6103b9565b5b5f61065986828701610407565b935050602084013567ffffffffffffffff81111561067a576106796103bd565b5b610686868287016105d5565b925050604061069786828701610621565b9150509250925092565b5f81905092915050565b5f6106b582610446565b6106bf81856106a1565b93506106cf818560208601610460565b80840191505092915050565b5f6106e682846106ab565b915081905092915050565b5f82825260208201905092915050565b7f43616c6c204661696c65640000000000000000000000000000000000000000005f82015250565b5f610735600b836106f1565b915061074082610701565b602082019050919050565b5f6020820190508181035f83015261076281610729565b9050919050565b7f4e487b71000000000000000000000000000000000000000000000000000000005f52602260045260245ffd5b5f60028204905060018216806107ad57607f821691505b6020821081036107c0576107bf610769565b5b50919050565b5f81519050919050565b5f6107da826107c6565b6107e481856106f1565b93506107f4818560208601610460565b6107fd8161046e565b840191505092915050565b61081181610602565b82525050565b5f6040820190508181035f83015261082f81856107d0565b905061083e6020830184610808565b9392505050565b7f43616c6c206661696c65640000000000000000000000000000000000000000005f82015250565b5f610879600b836106f1565b915061088482610845565b602082019050919050565b5f6020820190508181035f8301526108a68161086d565b9050919050565b5f819050815f5260205f209050919050565b5f6020601f8301049050919050565b5f82821b905092915050565b5f600883026109097fffffffffffffffffffffffffffffffffffffffffffffffffffffffffffffffff826108ce565b61091386836108ce565b95508019841693508086168417925050509392505050565b5f819050919050565b5f61094e61094961094484610602565b61092b565b610602565b9050919050565b5f819050919050565b61096783610934565b61097b61097382610955565b8484546108da565b825550505050565b5f5f905090565b610992610983565b61099d81848461095e565b505050565b5f5b828110156109c3576109b85f82840161098a565b6001810190506109a4565b505050565b601f821115610a165782821115610a15576109e2816108ad565b6109eb836108bf565b6109f4856108bf565b6020861015610a01575f90505b808301610a10828403826109a2565b505050505b5b505050565b5f82821c905092915050565b5f610a365f1984600802610a1b565b1980831691505092915050565b5f610a4e8383610a27565b9150826002028217905092915050565b610a6782610446565b67ffffffffffffffff811115610a8057610a7f6104de565b5b610a8a8254610796565b610a958282856109c8565b5f60209050601f831160018114610ac6575f8415610ab4578287015190505b610abe8582610a43565b865550610b25565b601f198416610ad4866108ad565b5f5b82811015610afb57848901518255600182019150602085019450602081019050610ad6565b86831015610b185784890151610b14601f891682610a27565b8355505b6001600288020188555050505b50505050505056fea26469706673582212208801c149b6a6a364b5ebe40bd46c92f0c762d65826cb89e5943bdd08867c1e0064736f6c63430008220033",
					"opcodes": "PUSH1 0x80 PUSH1 0x40 MSTORE CALLVALUE DUP1 ISZERO PUSH1 0xE JUMPI PUSH0 PUSH0 REVERT JUMPDEST POP PUSH2 0xB63 DUP1 PUSH2 0x1C PUSH0 CODECOPY PUSH0 RETURN INVALID PUSH1 0x80 PUSH1 0x40 MSTORE PUSH1 0x4 CALLDATASIZE LT PUSH2 0x33 JUMPI PUSH0 CALLDATALOAD PUSH1 0xE0 SHR DUP1 PUSH4 0x172A57D7 EQ PUSH2 0x37 JUMPI DUP1 PUSH4 0x73D4A13A EQ PUSH2 0x5F JUMPI DUP1 PUSH4 0xDD5F151E EQ PUSH2 0x89 JUMPI JUMPDEST PUSH0 PUSH0 REVERT JUMPDEST CALLVALUE DUP1 ISZERO PUSH2 0x42 JUMPI PUSH0 PUSH0 REVERT JUMPDEST POP PUSH2 0x5D PUSH1 0x4 DUP1 CALLDATASIZE SUB DUP2 ADD SWAP1 PUSH2 0x58 SWAP2 SWAP1 PUSH2 0x41B JUMP JUMPDEST PUSH2 0xA5 JUMP JUMPDEST STOP JUMPDEST CALLVALUE DUP1 ISZERO PUSH2 0x6A JUMPI PUSH0 PUSH0 REVERT JUMPDEST POP PUSH2 0x73 PUSH2 0x1D3 JUMP JUMPDEST PUSH1 0x40 MLOAD PUSH2 0x80 SWAP2 SWAP1 PUSH2 0x4B6 JUMP JUMPDEST PUSH1 0x40 MLOAD DUP1 SWAP2 SUB SWAP1 RETURN JUMPDEST PUSH2 0xA3 PUSH1 0x4 DUP1 CALLDATASIZE SUB DUP2 ADD SWAP1 PUSH2 0x9E SWAP2 SWAP1 PUSH2 0x635 JUMP JUMPDEST PUSH2 0x25E JUMP JUMPDEST STOP JUMPDEST PUSH0 DUP2 PUSH20 0xFFFFFFFFFFFFFFFFFFFFFFFFFFFFFFFFFFFFFFFF AND PUSH1 0x40 MLOAD PUSH1 0x24 ADD PUSH1 0x40 MLOAD PUSH1 0x20 DUP2 DUP4 SUB SUB DUP2 MSTORE SWAP1 PUSH1 0x40 MSTORE PUSH32 0xF167435F00000000000000000000000000000000000000000000000000000000 PUSH28 0xFFFFFFFFFFFFFFFFFFFFFFFFFFFFFFFFFFFFFFFFFFFFFFFFFFFFFFFF NOT AND PUSH1 0x20 DUP3 ADD DUP1 MLOAD PUSH28 0xFFFFFFFFFFFFFFFFFFFFFFFFFFFFFFFFFFFFFFFFFFFFFFFFFFFFFFFF DUP4 DUP2 DUP4 AND OR DUP4 MSTORE POP POP POP POP PUSH1 0x40 MLOAD PUSH2 0x14D SWAP2 SWAP1 PUSH2 0x6DB JUMP JUMPDEST PUSH0 PUSH1 0x40 MLOAD DUP1 DUP4 SUB DUP2 PUSH0 DUP7 GAS CALL SWAP2 POP POP RETURNDATASIZE DUP1 PUSH0 DUP2 EQ PUSH2 0x186 JUMPI PUSH1 0x40 MLOAD SWAP2 POP PUSH1 0x1F NOT PUSH1 0x3F RETURNDATASIZE ADD AND DUP3 ADD PUSH1 0x40 MSTORE RETURNDATASIZE DUP3 MSTORE RETURNDATASIZE PUSH0 PUSH1 0x20 DUP5 ADD RETURNDATACOPY PUSH2 0x18B JUMP JUMPDEST PUSH1 0x60 SWAP2 POP JUMPDEST POP POP SWAP1 POP DUP1 PUSH2 0x1CF JUMPI PUSH1 0x40 MLOAD PUSH32 0x8C379A000000000000000000000000000000000000000000000000000000000 DUP2 MSTORE PUSH1 0x4 ADD PUSH2 0x1C6 SWAP1 PUSH2 0x74B JUMP JUMPDEST PUSH1 0x40 MLOAD DUP1 SWAP2 SUB SWAP1 REVERT JUMPDEST POP POP JUMP JUMPDEST PUSH0 DUP1 SLOAD PUSH2 0x1DF SWAP1 PUSH2 0x796 JUMP JUMPDEST DUP1 PUSH1 0x1F ADD PUSH1 0x20 DUP1 SWAP2 DIV MUL PUSH1 0x20 ADD PUSH1 0x40 MLOAD SWAP1 DUP2 ADD PUSH1 0x40 MSTORE DUP1 SWAP3 SWAP2 SWAP1 DUP2 DUP2 MSTORE PUSH1 0x20 ADD DUP3 DUP1 SLOAD PUSH2 0x20B SWAP1 PUSH2 0x796 JUMP JUMPDEST DUP1 ISZERO PUSH2 0x256 JUMPI DUP1 PUSH1 0x1F LT PUSH2 0x22D JUMPI PUSH2 0x100 DUP1 DUP4 SLOAD DIV MUL DUP4 MSTORE SWAP2 PUSH1 0x20 ADD SWAP2 PUSH2 0x256 JUMP JUMPDEST DUP3 ADD SWAP2 SWAP1 PUSH0 MSTORE PUSH1 0x20 PUSH0 KECCAK256 SWAP1 JUMPDEST DUP2 SLOAD DUP2 MSTORE SWAP1 PUSH1 0x1 ADD SWAP1 PUSH1 0x20 ADD DUP1 DUP4 GT PUSH2 0x239 JUMPI DUP3 SWAP1 SUB PUSH1 0x1F AND DUP3 ADD SWAP2 JUMPDEST POP POP POP POP POP DUP2 JUMP JUMPDEST PUSH0 PUSH0 DUP5 PUSH20 0xFFFFFFFFFFFFFFFFFFFFFFFFFFFFFFFFFFFFFFFF AND PUSH1 0x7B DUP6 DUP6 PUSH1 0x40 MLOAD PUSH1 0x24 ADD PUSH2 0x28C SWAP3 SWAP2 SWAP1 PUSH2 0x817 JUMP JUMPDEST PUSH1 0x40 MLOAD PUSH1 0x20 DUP2 DUP4 SUB SUB DUP2 MSTORE SWAP1 PUSH1 0x40 MSTORE PUSH32 0x24CCAB8F00000000000000000000000000000000000000000000000000000000 PUSH28 0xFFFFFFFFFFFFFFFFFFFFFFFFFFFFFFFFFFFFFFFFFFFFFFFFFFFFFFFF NOT AND PUSH1 0x20 DUP3 ADD DUP1 MLOAD PUSH28 0xFFFFFFFFFFFFFFFFFFFFFFFFFFFFFFFFFFFFFFFFFFFFFFFFFFFFFFFF DUP4 DUP2 DUP4 AND OR DUP4 MSTORE POP POP POP POP PUSH1 0x40 MLOAD PUSH2 0x316 SWAP2 SWAP1 PUSH2 0x6DB JUMP JUMPDEST PUSH0 PUSH1 0x40 MLOAD DUP1 DUP4 SUB DUP2 DUP6 DUP8 GAS CALL SWAP3 POP POP POP RETURNDATASIZE DUP1 PUSH0 DUP2 EQ PUSH2 0x350 JUMPI PUSH1 0x40 MLOAD SWAP2 POP PUSH1 0x1F NOT PUSH1 0x3F RETURNDATASIZE ADD AND DUP3 ADD PUSH1 0x40 MSTORE RETURNDATASIZE DUP3 MSTORE RETURNDATASIZE PUSH0 PUSH1 0x20 DUP5 ADD RETURNDATACOPY PUSH2 0x355 JUMP JUMPDEST PUSH1 0x60 SWAP2 POP JUMPDEST POP SWAP2 POP SWAP2 POP DUP2 PUSH2 0x39A JUMPI PUSH1 0x40 MLOAD PUSH32 0x8C379A000000000000000000000000000000000000000000000000000000000 DUP2 MSTORE PUSH1 0x4 ADD PUSH2 0x391 SWAP1 PUSH2 0x88F JUMP JUMPDEST PUSH1 0x40 MLOAD DUP1 SWAP2 SUB SWAP1 REVERT JUMPDEST DUP1 PUSH0 SWAP1 DUP2 PUSH2 0x3A8 SWAP2 SWAP1 PUSH2 0xA5E JUMP JUMPDEST POP POP POP POP POP POP JUMP JUMPDEST PUSH0 PUSH1 0x40 MLOAD SWAP1 POP SWAP1 JUMP JUMPDEST PUSH0 PUSH0 REVERT JUMPDEST PUSH0 PUSH0 REVERT JUMPDEST PUSH0 PUSH20 0xFFFFFFFFFFFFFFFFFFFFFFFFFFFFFFFFFFFFFFFF DUP3 AND SWAP1 POP SWAP2 SWAP1 POP JUMP JUMPDEST PUSH0 PUSH2 0x3EA DUP3 PUSH2 0x3C1 JUMP JUMPDEST SWAP1 POP SWAP2 SWAP1 POP JUMP JUMPDEST PUSH2 0x3FA DUP2 PUSH2 0x3E0 JUMP JUMPDEST DUP2 EQ PUSH2 0x404 JUMPI PUSH0 PUSH0 REVERT JUMPDEST POP JUMP JUMPDEST PUSH0 DUP2 CALLDATALOAD SWAP1 POP PUSH2 0x415 DUP2 PUSH2 0x3F1 JUMP JUMPDEST SWAP3 SWAP2 POP POP JUMP JUMPDEST PUSH0 PUSH1 0x20 DUP3 DUP5 SUB SLT ISZERO PUSH2 0x430 JUMPI PUSH2 0x42F PUSH2 0x3B9 JUMP JUMPDEST JUMPDEST PUSH0 PUSH2 0x43D DUP5 DUP3 DUP6 ADD PUSH2 0x407 JUMP JUMPDEST SWAP2 POP POP SWAP3 SWAP2 POP POP JUMP JUMPDEST PUSH0 DUP2 MLOAD SWAP1 POP SWAP2 SWAP1 POP JUMP JUMPDEST PUSH0 DUP3 DUP3 MSTORE PUSH1 0x20 DUP3 ADD SWAP1 POP SWAP3 SWAP2 POP POP JUMP JUMPDEST DUP3 DUP2 DUP4 MCOPY PUSH0 DUP4 DUP4 ADD MSTORE POP POP POP JUMP JUMPDEST PUSH0 PUSH1 0x1F NOT PUSH1 0x1F DUP4 ADD AND SWAP1 POP SWAP2 SWAP1 POP JUMP JUMPDEST PUSH0 PUSH2 0x488 DUP3 PUSH2 0x446 JUMP JUMPDEST PUSH2 0x492 DUP2 DUP6 PUSH2 0x450 JUMP JUMPDEST SWAP4 POP PUSH2 0x4A2 DUP2 DUP6 PUSH1 0x20 DUP7 ADD PUSH2 0x460 JUMP JUMPDEST PUSH2 0x4AB DUP2 PUSH2 0x46E JUMP JUMPDEST DUP5 ADD SWAP2 POP POP SWAP3 SWAP2 POP POP JUMP JUMPDEST PUSH0 PUSH1 0x20 DUP3 ADD SWAP1 POP DUP2 DUP2 SUB PUSH0 DUP4 ADD MSTORE PUSH2 0x4CE DUP2 DUP5 PUSH2 0x47E JUMP JUMPDEST SWAP1 POP SWAP3 SWAP2 POP POP JUMP JUMPDEST PUSH0 PUSH0 REVERT JUMPDEST PUSH0 PUSH0 REVERT JUMPDEST PUSH32 0x4E487B7100000000000000000000000000000000000000000000000000000000 PUSH0 MSTORE PUSH1 0x41 PUSH1 0x4 MSTORE PUSH1 0x24 PUSH0 REVERT JUMPDEST PUSH2 0x514 DUP3 PUSH2 0x46E JUMP JUMPDEST DUP2 ADD DUP2 DUP2 LT PUSH8 0xFFFFFFFFFFFFFFFF DUP3 GT OR ISZERO PUSH2 0x533 JUMPI PUSH2 0x532 PUSH2 0x4DE JUMP JUMPDEST JUMPDEST DUP1 PUSH1 0x40 MSTORE POP POP POP JUMP JUMPDEST PUSH0 PUSH2 0x545 PUSH2 0x3B0 JUMP JUMPDEST SWAP1 POP PUSH2 0x551 DUP3 DUP3 PUSH2 0x50B JUMP JUMPDEST SWAP2 SWAP1 POP JUMP JUMPDEST PUSH0 PUSH8 0xFFFFFFFFFFFFFFFF DUP3 GT ISZERO PUSH2 0x570 JUMPI PUSH2 0x56F PUSH2 0x4DE JUMP JUMPDEST JUMPDEST PUSH2 0x579 DUP3 PUSH2 0x46E JUMP JUMPDEST SWAP1 POP PUSH1 0x20 DUP2 ADD SWAP1 POP SWAP2 SWAP1 POP JUMP JUMPDEST DUP3 DUP2 DUP4 CALLDATACOPY PUSH0 DUP4 DUP4 ADD MSTORE POP POP POP JUMP JUMPDEST PUSH0 PUSH2 0x5A6 PUSH2 0x5A1 DUP5 PUSH2 0x556 JUMP JUMPDEST PUSH2 0x53C JUMP JUMPDEST SWAP1 POP DUP3 DUP2 MSTORE PUSH1 0x20 DUP2 ADD DUP5 DUP5 DUP5 ADD GT ISZERO PUSH2 0x5C2 JUMPI PUSH2 0x5C1 PUSH2 0x4DA JUMP JUMPDEST JUMPDEST PUSH2 0x5CD DUP5 DUP3 DUP6 PUSH2 0x586 JUMP JUMPDEST POP SWAP4 SWAP3 POP POP POP JUMP JUMPDEST PUSH0 DUP3 PUSH1 0x1F DUP4 ADD SLT PUSH2 0x5E9 JUMPI PUSH2 0x5E8 PUSH2 0x4D6 JUMP JUMPDEST JUMPDEST DUP2 CALLDATALOAD PUSH2 0x5F9 DUP5 DUP3 PUSH1 0x20 DUP7 ADD PUSH2 0x594 JUMP JUMPDEST SWAP2 POP POP SWAP3 SWAP2 POP POP JUMP JUMPDEST PUSH0 DUP2 SWAP1 POP SWAP2 SWAP1 POP JUMP JUMPDEST PUSH2 0x614 DUP2 PUSH2 0x602 JUMP JUMPDEST DUP2 EQ PUSH2 0x61E JUMPI PUSH0 PUSH0 REVERT JUMPDEST POP JUMP JUMPDEST PUSH0 DUP2 CALLDATALOAD SWAP1 POP PUSH2 0x62F DUP2 PUSH2 0x60B JUMP JUMPDEST SWAP3 SWAP2 POP POP JUMP JUMPDEST PUSH0 PUSH0 PUSH0 PUSH1 0x60 DUP5 DUP7 SUB SLT ISZERO PUSH2 0x64C JUMPI PUSH2 0x64B PUSH2 0x3B9 JUMP JUMPDEST JUMPDEST PUSH0 PUSH2 0x659 DUP7 DUP3 DUP8 ADD PUSH2 0x407 JUMP JUMPDEST SWAP4 POP POP PUSH1 0x20 DUP5 ADD CALLDATALOAD PUSH8 0xFFFFFFFFFFFFFFFF DUP2 GT ISZERO PUSH2 0x67A JUMPI PUSH2 0x679 PUSH2 0x3BD JUMP JUMPDEST JUMPDEST PUSH2 0x686 DUP7 DUP3 DUP8 ADD PUSH2 0x5D5 JUMP JUMPDEST SWAP3 POP POP PUSH1 0x40 PUSH2 0x697 DUP7 DUP3 DUP8 ADD PUSH2 0x621 JUMP JUMPDEST SWAP2 POP POP SWAP3 POP SWAP3 POP SWAP3 JUMP JUMPDEST PUSH0 DUP2 SWAP1 POP SWAP3 SWAP2 POP POP JUMP JUMPDEST PUSH0 PUSH2 0x6B5 DUP3 PUSH2 0x446 JUMP JUMPDEST PUSH2 0x6BF DUP2 DUP6 PUSH2 0x6A1 JUMP JUMPDEST SWAP4 POP PUSH2 0x6CF DUP2 DUP6 PUSH1 0x20 DUP7 ADD PUSH2 0x460 JUMP JUMPDEST DUP1 DUP5 ADD SWAP2 POP POP SWAP3 SWAP2 POP POP JUMP JUMPDEST PUSH0 PUSH2 0x6E6 DUP3 DUP5 PUSH2 0x6AB JUMP JUMPDEST SWAP2 POP DUP2 SWAP1 POP SWAP3 SWAP2 POP POP JUMP JUMPDEST PUSH0 DUP3 DUP3 MSTORE PUSH1 0x20 DUP3 ADD SWAP1 POP SWAP3 SWAP2 POP POP JUMP JUMPDEST PUSH32 0x43616C6C204661696C6564000000000000000000000000000000000000000000 PUSH0 DUP3 ADD MSTORE POP JUMP JUMPDEST PUSH0 PUSH2 0x735 PUSH1 0xB DUP4 PUSH2 0x6F1 JUMP JUMPDEST SWAP2 POP PUSH2 0x740 DUP3 PUSH2 0x701 JUMP JUMPDEST PUSH1 0x20 DUP3 ADD SWAP1 POP SWAP2 SWAP1 POP JUMP JUMPDEST PUSH0 PUSH1 0x20 DUP3 ADD SWAP1 POP DUP2 DUP2 SUB PUSH0 DUP4 ADD MSTORE PUSH2 0x762 DUP2 PUSH2 0x729 JUMP JUMPDEST SWAP1 POP SWAP2 SWAP1 POP JUMP JUMPDEST PUSH32 0x4E487B7100000000000000000000000000000000000000000000000000000000 PUSH0 MSTORE PUSH1 0x22 PUSH1 0x4 MSTORE PUSH1 0x24 PUSH0 REVERT JUMPDEST PUSH0 PUSH1 0x2 DUP3 DIV SWAP1 POP PUSH1 0x1 DUP3 AND DUP1 PUSH2 0x7AD JUMPI PUSH1 0x7F DUP3 AND SWAP2 POP JUMPDEST PUSH1 0x20 DUP3 LT DUP2 SUB PUSH2 0x7C0 JUMPI PUSH2 0x7BF PUSH2 0x769 JUMP JUMPDEST JUMPDEST POP SWAP2 SWAP1 POP JUMP JUMPDEST PUSH0 DUP2 MLOAD SWAP1 POP SWAP2 SWAP1 POP JUMP JUMPDEST PUSH0 PUSH2 0x7DA DUP3 PUSH2 0x7C6 JUMP JUMPDEST PUSH2 0x7E4 DUP2 DUP6 PUSH2 0x6F1 JUMP JUMPDEST SWAP4 POP PUSH2 0x7F4 DUP2 DUP6 PUSH1 0x20 DUP7 ADD PUSH2 0x460 JUMP JUMPDEST PUSH2 0x7FD DUP2 PUSH2 0x46E JUMP JUMPDEST DUP5 ADD SWAP2 POP POP SWAP3 SWAP2 POP POP JUMP JUMPDEST PUSH2 0x811 DUP2 PUSH2 0x602 JUMP JUMPDEST DUP3 MSTORE POP POP JUMP JUMPDEST PUSH0 PUSH1 0x40 DUP3 ADD SWAP1 POP DUP2 DUP2 SUB PUSH0 DUP4 ADD MSTORE PUSH2 0x82F DUP2 DUP6 PUSH2 0x7D0 JUMP JUMPDEST SWAP1 POP PUSH2 0x83E PUSH1 0x20 DUP4 ADD DUP5 PUSH2 0x808 JUMP JUMPDEST SWAP4 SWAP3 POP POP POP JUMP JUMPDEST PUSH32 0x43616C6C206661696C6564000000000000000000000000000000000000000000 PUSH0 DUP3 ADD MSTORE POP JUMP JUMPDEST PUSH0 PUSH2 0x879 PUSH1 0xB DUP4 PUSH2 0x6F1 JUMP JUMPDEST SWAP2 POP PUSH2 0x884 DUP3 PUSH2 0x845 JUMP JUMPDEST PUSH1 0x20 DUP3 ADD SWAP1 POP SWAP2 SWAP1 POP JUMP JUMPDEST PUSH0 PUSH1 0x20 DUP3 ADD SWAP1 POP DUP2 DUP2 SUB PUSH0 DUP4 ADD MSTORE PUSH2 0x8A6 DUP2 PUSH2 0x86D JUMP JUMPDEST SWAP1 POP SWAP2 SWAP1 POP JUMP JUMPDEST PUSH0 DUP2 SWAP1 POP DUP2 PUSH0 MSTORE PUSH1 0x20 PUSH0 KECCAK256 SWAP1 POP SWAP2 SWAP1 POP JUMP JUMPDEST PUSH0 PUSH1 0x20 PUSH1 0x1F DUP4 ADD DIV SWAP1 POP SWAP2 SWAP1 POP JUMP JUMPDEST PUSH0 DUP3 DUP3 SHL SWAP1 POP SWAP3 SWAP2 POP POP JUMP JUMPDEST PUSH0 PUSH1 0x8 DUP4 MUL PUSH2 0x909 PUSH32 0xFFFFFFFFFFFFFFFFFFFFFFFFFFFFFFFFFFFFFFFFFFFFFFFFFFFFFFFFFFFFFFFF DUP3 PUSH2 0x8CE JUMP JUMPDEST PUSH2 0x913 DUP7 DUP4 PUSH2 0x8CE JUMP JUMPDEST SWAP6 POP DUP1 NOT DUP5 AND SWAP4 POP DUP1 DUP7 AND DUP5 OR SWAP3 POP POP POP SWAP4 SWAP3 POP POP POP JUMP JUMPDEST PUSH0 DUP2 SWAP1 POP SWAP2 SWAP1 POP JUMP JUMPDEST PUSH0 PUSH2 0x94E PUSH2 0x949 PUSH2 0x944 DUP5 PUSH2 0x602 JUMP JUMPDEST PUSH2 0x92B JUMP JUMPDEST PUSH2 0x602 JUMP JUMPDEST SWAP1 POP SWAP2 SWAP1 POP JUMP JUMPDEST PUSH0 DUP2 SWAP1 POP SWAP2 SWAP1 POP JUMP JUMPDEST PUSH2 0x967 DUP4 PUSH2 0x934 JUMP JUMPDEST PUSH2 0x97B PUSH2 0x973 DUP3 PUSH2 0x955 JUMP JUMPDEST DUP5 DUP5 SLOAD PUSH2 0x8DA JUMP JUMPDEST DUP3 SSTORE POP POP POP POP JUMP JUMPDEST PUSH0 PUSH0 SWAP1 POP SWAP1 JUMP JUMPDEST PUSH2 0x992 PUSH2 0x983 JUMP JUMPDEST PUSH2 0x99D DUP2 DUP5 DUP5 PUSH2 0x95E JUMP JUMPDEST POP POP POP JUMP JUMPDEST PUSH0 JUMPDEST DUP3 DUP2 LT ISZERO PUSH2 0x9C3 JUMPI PUSH2 0x9B8 PUSH0 DUP3 DUP5 ADD PUSH2 0x98A JUMP JUMPDEST PUSH1 0x1 DUP2 ADD SWAP1 POP PUSH2 0x9A4 JUMP JUMPDEST POP POP POP JUMP JUMPDEST PUSH1 0x1F DUP3 GT ISZERO PUSH2 0xA16 JUMPI DUP3 DUP3 GT ISZERO PUSH2 0xA15 JUMPI PUSH2 0x9E2 DUP2 PUSH2 0x8AD JUMP JUMPDEST PUSH2 0x9EB DUP4 PUSH2 0x8BF JUMP JUMPDEST PUSH2 0x9F4 DUP6 PUSH2 0x8BF JUMP JUMPDEST PUSH1 0x20 DUP7 LT ISZERO PUSH2 0xA01 JUMPI PUSH0 SWAP1 POP JUMPDEST DUP1 DUP4 ADD PUSH2 0xA10 DUP3 DUP5 SUB DUP3 PUSH2 0x9A2 JUMP JUMPDEST POP POP POP POP JUMPDEST JUMPDEST POP POP POP JUMP JUMPDEST PUSH0 DUP3 DUP3 SHR SWAP1 POP SWAP3 SWAP2 POP POP JUMP JUMPDEST PUSH0 PUSH2 0xA36 PUSH0 NOT DUP5 PUSH1 0x8 MUL PUSH2 0xA1B JUMP JUMPDEST NOT DUP1 DUP4 AND SWAP2 POP POP SWAP3 SWAP2 POP POP JUMP JUMPDEST PUSH0 PUSH2 0xA4E DUP4 DUP4 PUSH2 0xA27 JUMP JUMPDEST SWAP2 POP DUP3 PUSH1 0x2 MUL DUP3 OR SWAP1 POP SWAP3 SWAP2 POP POP JUMP JUMPDEST PUSH2 0xA67 DUP3 PUSH2 0x446 JUMP JUMPDEST PUSH8 0xFFFFFFFFFFFFFFFF DUP2 GT ISZERO PUSH2 0xA80 JUMPI PUSH2 0xA7F PUSH2 0x4DE JUMP JUMPDEST JUMPDEST PUSH2 0xA8A DUP3 SLOAD PUSH2 0x796 JUMP JUMPDEST PUSH2 0xA95 DUP3 DUP3 DUP6 PUSH2 0x9C8 JUMP JUMPDEST PUSH0 PUSH1 0x20 SWAP1 POP PUSH1 0x1F DUP4 GT PUSH1 0x1 DUP2 EQ PUSH2 0xAC6 JUMPI PUSH0 DUP5 ISZERO PUSH2 0xAB4 JUMPI DUP3 DUP8 ADD MLOAD SWAP1 POP JUMPDEST PUSH2 0xABE DUP6 DUP3 PUSH2 0xA43 JUMP JUMPDEST DUP7 SSTORE POP PUSH2 0xB25 JUMP JUMPDEST PUSH1 0x1F NOT DUP5 AND PUSH2 0xAD4 DUP7 PUSH2 0x8AD JUMP JUMPDEST PUSH0 JUMPDEST DUP3 DUP2 LT ISZERO PUSH2 0xAFB JUMPI DUP5 DUP10 ADD MLOAD DUP3 SSTORE PUSH1 0x1 DUP3 ADD SWAP2 POP PUSH1 0x20 DUP6 ADD SWAP5 POP PUSH1 0x20 DUP2 ADD SWAP1 POP PUSH2 0xAD6 JUMP JUMPDEST DUP7 DUP4 LT ISZERO PUSH2 0xB18 JUMPI DUP5 DUP10 ADD MLOAD PUSH2 0xB14 PUSH1 0x1F DUP10 AND DUP3 PUSH2 0xA27 JUMP JUMPDEST DUP4 SSTORE POP JUMPDEST PUSH1 0x1 PUSH1 0x2 DUP9 MUL ADD DUP9 SSTORE POP POP POP JUMPDEST POP POP POP POP POP POP JUMP INVALID LOG2 PUSH5 0x6970667358 0x22 SLT KECCAK256 DUP9 ADD 0xC1 BLOBHASH 0xB6 0xA6 LOG3 PUSH5 0xB5EBE40BD4 PUSH13 0x92F0C762D65826CB89E5943BDD ADDMOD DUP7 PUSH29 0x1E0064736F6C6343000822003300000000000000000000000000000000 "
				},
				"gasEstimates": {
					"creation": {
						"codeDepositCost": "583000",
						"executionCost": "617",
						"totalCost": "583617"
					},
					"external": {
						"callFoo(address,string,uint256)": "infinite",
						"callNonExistentFunction(address)": "infinite",
						"data()": "infinite"
					}
				},
				"methodIdentifiers": {
					"callFoo(address,string,uint256)": "dd5f151e",
					"callNonExistentFunction(address)": "172a57d7",
					"data()": "73d4a13a"
				}
			},
			"storageLayout": {
				"storage": [
					{
						"astId": 52,
						"contract": "solidity合约交互/合约调用call.sol:Caller",
						"label": "data",
						"offset": 0,
						"slot": "0",
						"type": "t_bytes_storage"
					}
				],
				"types": {
					"t_bytes_storage": {
						"encoding": "bytes",
						"label": "bytes",
						"numberOfBytes": "32"
					}
				}
			},
			"userdoc": {
				"kind": "user",
				"methods": {},
				"version": 1
			}
		}
	}
}