{
	"solidity高级应用/timelock时间锁.sol": {
		"TimeLock": {
			"abi": [
				{
					"inputs": [],
					"stateMutability": "nonpayable",
					"type": "constructor"
				},
				{
					"inputs": [
						{
							"internalType": "bytes32",
							"name": "id",
							"type": "bytes32"
						}
					],
					"name": "AlreadyCancelError",
					"type": "error"
				},
				{
					"inputs": [
						{
							"internalType": "bytes32",
							"name": "id",
							"type": "bytes32"
						}
					],
					"name": "AlreadyQueuedError",
					"type": "error"
				},
				{
					"inputs": [
						{
							"internalType": "bytes32",
							"name": "id",
							"type": "bytes32"
						}
					],
					"name": "NotQueuedError",
					"type": "error"
				},
				{
					"inputs": [],
					"name": "TimeGreaterThanMaxError",
					"type": "error"
				},
				{
					"inputs": [],
					"name": "TimeNotGreaterThanMinError",
					"type": "error"
				},
				{
					"inputs": [],
					"name": "TimestampNotInRangeError",
					"type": "error"
				},
				{
					"anonymous": false,
					"inputs": [
						{
							"indexed": false,
							"internalType": "bytes32",
							"name": "id",
							"type": "bytes32"
						}
					],
					"name": "Cancel",
					"type": "event"
				},
				{
					"anonymous": false,
					"inputs": [
						{
							"indexed": true,
							"internalType": "bytes32",
							"name": "id",
							"type": "bytes32"
						},
						{
							"indexed": false,
							"internalType": "address",
							"name": "target",
							"type": "address"
						},
						{
							"indexed": false,
							"internalType": "uint256",
							"name": "amount",
							"type": "uint256"
						},
						{
							"indexed": false,
							"internalType": "string",
							"name": "funcName",
							"type": "string"
						},
						{
							"indexed": false,
							"internalType": "bytes",
							"name": "data",
							"type": "bytes"
						},
						{
							"indexed": false,
							"internalType": "uint256",
							"name": "timestamp",
							"type": "uint256"
						}
					],
					"name": "ExecuteLog",
					"type": "event"
				},
				{
					"anonymous": false,
					"inputs": [
						{
							"indexed": true,
							"internalType": "bytes32",
							"name": "id",
							"type": "bytes32"
						},
						{
							"indexed": false,
							"internalType": "address",
							"name": "target",
							"type": "address"
						},
						{
							"indexed": false,
							"internalType": "uint256",
							"name": "amount",
							"type": "uint256"
						},
						{
							"indexed": false,
							"internalType": "string",
							"name": "funcName",
							"type": "string"
						},
						{
							"indexed": false,
							"internalType": "bytes",
							"name": "data",
							"type": "bytes"
						},
						{
							"indexed": false,
							"internalType": "uint256",
							"name": "timestamp",
							"type": "uint256"
						}
					],
					"name": "QueueLog",
					"type": "event"
				},
				{
					"inputs": [],
					"name": "GRACE_PERIOD",
					"outputs": [
						{
							"internalType": "uint256",
							"name": "",
							"type": "uint256"
						}
					],
					"stateMutability": "view",
					"type": "function"
				},
				{
					"inputs": [],
					"name": "MAX_DELAY",
					"outputs": [
						{
							"internalType": "uint256",
							"name": "",
							"type": "uint256"
						}
					],
					"stateMutability": "view",
					"type": "function"
				},
				{
					"inputs": [],
					"name": "MIN_DELAY",
					"outputs": [
						{
							"internalType": "uint256",
							"name": "",
							"type": "uint256"
						}
					],
					"stateMutability": "view",
					"type": "function"
				},
				{
					"inputs": [
						{
							"internalType": "bytes32",
							"name": "id",
							"type": "bytes32"
						}
					],
					"name": "cancelQueue",
					"outputs": [],
					"stateMutability": "nonpayable",
					"type": "function"
				},
				{
					"inputs": [
						{
							"internalType": "address",
							"name": "target",
							"type": "address"
						},
						{
							"internalType": "uint256",
							"name": "amount",
							"type": "uint256"
						},
						{
							"internalType": "string",
							"name": "funcName",
							"type": "string"
						},
						{
							"internalType": "bytes",
							"name": "data",
							"type": "bytes"
						},
						{
							"internalType": "uint256",
							"name": "timestamp",
							"type": "uint256"
						}
					],
					"name": "execute",
					"outputs": [
						{
							"internalType": "bytes",
							"name": "",
							"type": "bytes"
						}
					],
					"stateMutability": "nonpayable",
					"type": "function"
				},
				{
					"inputs": [
						{
							"internalType": "address",
							"name": "target",
							"type": "address"
						},
						{
							"internalType": "uint256",
							"name": "amount",
							"type": "uint256"
						},
						{
							"internalType": "string",
							"name": "funcName",
							"type": "string"
						},
						{
							"internalType": "bytes",
							"name": "data",
							"type": "bytes"
						},
						{
							"internalType": "uint256",
							"name": "timestamp",
							"type": "uint256"
						}
					],
					"name": "getId",
					"outputs": [
						{
							"internalType": "bytes32",
							"name": "",
							"type": "bytes32"
						}
					],
					"stateMutability": "pure",
					"type": "function"
				},
				{
					"inputs": [],
					"name": "owner",
					"outputs": [
						{
							"internalType": "address",
							"name": "",
							"type": "address"
						}
					],
					"stateMutability": "view",
					"type": "function"
				},
				{
					"inputs": [
						{
							"internalType": "address",
							"name": "target",
							"type": "address"
						},
						{
							"internalType": "uint256",
							"name": "amount",
							"type": "uint256"
						},
						{
							"internalType": "string",
							"name": "funcName",
							"type": "string"
						},
						{
							"internalType": "bytes",
							"name": "data",
							"type": "bytes"
						},
						{
							"internalType": "uint256",
							"name": "timestamp",
							"type": "uint256"
						}
					],
					"name": "queue",
					"outputs": [],
					"stateMutability": "nonpayable",
					"type": "function"
				},
				{
					"inputs": [
						{
							"internalType": "bytes32",
							"name": "",
							"type": "bytes32"
						}
					],
					"name": "queued",
					"outputs": [
						{
							"internalType": "bool",
							"name": "",
							"type": "bool"
						}
					],
					"stateMutability": "view",
					"type": "function"
				},
				{
					"stateMutability": "payable",
					"type": "receive"
				}
			],
			"devdoc": {
				"kind": "dev",
				"methods": {},
				"version": 1
			},
			"evm": {
				"assembly": "    /* \"solidity\\xe9\\xab\\x98\\xe7\\xba\\xa7\\xe5\\xba\\x94\\xe7\\x94\\xa8/timelock\\xe6\\x97\\xb6\\xe9\\x97\\xb4\\xe9\\x94\\x81.sol\":709:3718  contract TimeLock {... */\n  mstore(0x40, 0x80)\n    /* \"solidity\\xe9\\xab\\x98\\xe7\\xba\\xa7\\xe5\\xba\\x94\\xe7\\x94\\xa8/timelock\\xe6\\x97\\xb6\\xe9\\x97\\xb4\\xe9\\x94\\x81.sol\":1452:1503  constructor() {... */\n  callvalue\n  dup1\n  iszero\n  tag_1\n  jumpi\n  revert(0x00, 0x00)\ntag_1:\n  pop\n    /* \"solidity\\xe9\\xab\\x98\\xe7\\xba\\xa7\\xe5\\xba\\x94\\xe7\\x94\\xa8/timelock\\xe6\\x97\\xb6\\xe9\\x97\\xb4\\xe9\\x94\\x81.sol\":1485:1495  msg.sender */\n  caller\n    /* \"solidity\\xe9\\xab\\x98\\xe7\\xba\\xa7\\xe5\\xba\\x94\\xe7\\x94\\xa8/timelock\\xe6\\x97\\xb6\\xe9\\x97\\xb4\\xe9\\x94\\x81.sol\":1477:1482  owner */\n  0x00\n  0x00\n    /* \"solidity\\xe9\\xab\\x98\\xe7\\xba\\xa7\\xe5\\xba\\x94\\xe7\\x94\\xa8/timelock\\xe6\\x97\\xb6\\xe9\\x97\\xb4\\xe9\\x94\\x81.sol\":1477:1495  owner = msg.sender */\n  0x0100\n  exp\n  dup2\n  sload\n  dup2\n  0xffffffffffffffffffffffffffffffffffffffff\n  mul\n  not\n  and\n  swap1\n  dup4\n  0xffffffffffffffffffffffffffffffffffffffff\n  and\n  mul\n  or\n  swap1\n  sstore\n  pop\n    /* \"solidity\\xe9\\xab\\x98\\xe7\\xba\\xa7\\xe5\\xba\\x94\\xe7\\x94\\xa8/timelock\\xe6\\x97\\xb6\\xe9\\x97\\xb4\\xe9\\x94\\x81.sol\":709:3718  contract TimeLock {... */\n  dataSize(sub_0)\n  dup1\n  dataOffset(sub_0)\n  0x00\n  codecopy\n  0x00\n  return\nstop\n\nsub_0: assembly {\n        /* \"solidity\\xe9\\xab\\x98\\xe7\\xba\\xa7\\xe5\\xba\\x94\\xe7\\x94\\xa8/timelock\\xe6\\x97\\xb6\\xe9\\x97\\xb4\\xe9\\x94\\x81.sol\":709:3718  contract TimeLock {... */\n      mstore(0x40, 0x80)\n      jumpi(tag_1, lt(calldatasize, 0x04))\n      shr(0xe0, calldataload(0x00))\n      dup1\n      0x8da5cb5b\n      gt\n      tag_12\n      jumpi\n      dup1\n      0x8da5cb5b\n      eq\n      tag_7\n      jumpi\n      dup1\n      0x9f81aed7\n      eq\n      tag_8\n      jumpi\n      dup1\n      0xafca0654\n      eq\n      tag_9\n      jumpi\n      dup1\n      0xb0f8b142\n      eq\n      tag_10\n      jumpi\n      dup1\n      0xc1a287e2\n      eq\n      tag_11\n      jumpi\n      jump(tag_2)\n    tag_12:\n      dup1\n      0x175aca1e\n      eq\n      tag_3\n      jumpi\n      dup1\n      0x228250c9\n      eq\n      tag_4\n      jumpi\n      dup1\n      0x4125ff90\n      eq\n      tag_5\n      jumpi\n      dup1\n      0x4b9915a5\n      eq\n      tag_6\n      jumpi\n      jump(tag_2)\n    tag_1:\n      jumpi(tag_2, calldatasize)\n      stop\n    tag_2:\n      revert(0x00, 0x00)\n        /* \"solidity\\xe9\\xab\\x98\\xe7\\xba\\xa7\\xe5\\xba\\x94\\xe7\\x94\\xa8/timelock\\xe6\\x97\\xb6\\xe9\\x97\\xb4\\xe9\\x94\\x81.sol\":2506:2704  function cancelQueue (bytes32 id) external onlyOwner{... */\n    tag_3:\n      callvalue\n      dup1\n      iszero\n      tag_15\n      jumpi\n      revert(0x00, 0x00)\n    tag_15:\n      pop\n      tag_16\n      0x04\n      dup1\n      calldatasize\n      sub\n      dup2\n      add\n      swap1\n      tag_17\n      swap2\n      swap1\n      tag_18\n      jump\t// in\n    tag_17:\n      tag_19\n      jump\t// in\n    tag_16:\n      stop\n        /* \"solidity\\xe9\\xab\\x98\\xe7\\xba\\xa7\\xe5\\xba\\x94\\xe7\\x94\\xa8/timelock\\xe6\\x97\\xb6\\xe9\\x97\\xb4\\xe9\\x94\\x81.sol\":761:799  mapping(bytes32 => bool) public queued */\n    tag_4:\n      callvalue\n      dup1\n      iszero\n      tag_20\n      jumpi\n      revert(0x00, 0x00)\n    tag_20:\n      pop\n      tag_21\n      0x04\n      dup1\n      calldatasize\n      sub\n      dup2\n      add\n      swap1\n      tag_22\n      swap2\n      swap1\n      tag_18\n      jump\t// in\n    tag_22:\n      tag_23\n      jump\t// in\n    tag_21:\n      mload(0x40)\n      tag_24\n      swap2\n      swap1\n      tag_25\n      jump\t// in\n    tag_24:\n      mload(0x40)\n      dup1\n      swap2\n      sub\n      swap1\n      return\n        /* \"solidity\\xe9\\xab\\x98\\xe7\\xba\\xa7\\xe5\\xba\\x94\\xe7\\x94\\xa8/timelock\\xe6\\x97\\xb6\\xe9\\x97\\xb4\\xe9\\x94\\x81.sol\":849:886  uint public constant MAX_DELAY = 1000 */\n    tag_5:\n      callvalue\n      dup1\n      iszero\n      tag_26\n      jumpi\n      revert(0x00, 0x00)\n    tag_26:\n      pop\n      tag_27\n      tag_28\n      jump\t// in\n    tag_27:\n      mload(0x40)\n      tag_29\n      swap2\n      swap1\n      tag_30\n      jump\t// in\n    tag_29:\n      mload(0x40)\n      dup1\n      swap2\n      sub\n      swap1\n      return\n        /* \"solidity\\xe9\\xab\\x98\\xe7\\xba\\xa7\\xe5\\xba\\x94\\xe7\\x94\\xa8/timelock\\xe6\\x97\\xb6\\xe9\\x97\\xb4\\xe9\\x94\\x81.sol\":1917:2478  function queue(... */\n    tag_6:\n      callvalue\n      dup1\n      iszero\n      tag_31\n      jumpi\n      revert(0x00, 0x00)\n    tag_31:\n      pop\n      tag_32\n      0x04\n      dup1\n      calldatasize\n      sub\n      dup2\n      add\n      swap1\n      tag_33\n      swap2\n      swap1\n      tag_34\n      jump\t// in\n    tag_33:\n      tag_35\n      jump\t// in\n    tag_32:\n      stop\n        /* \"solidity\\xe9\\xab\\x98\\xe7\\xba\\xa7\\xe5\\xba\\x94\\xe7\\x94\\xa8/timelock\\xe6\\x97\\xb6\\xe9\\x97\\xb4\\xe9\\x94\\x81.sol\":734:754  address public owner */\n    tag_7:\n      callvalue\n      dup1\n      iszero\n      tag_36\n      jumpi\n      revert(0x00, 0x00)\n    tag_36:\n      pop\n      tag_37\n      tag_38\n      jump\t// in\n    tag_37:\n      mload(0x40)\n      tag_39\n      swap2\n      swap1\n      tag_40\n      jump\t// in\n    tag_39:\n      mload(0x40)\n      dup1\n      swap2\n      sub\n      swap1\n      return\n        /* \"solidity\\xe9\\xab\\x98\\xe7\\xba\\xa7\\xe5\\xba\\x94\\xe7\\x94\\xa8/timelock\\xe6\\x97\\xb6\\xe9\\x97\\xb4\\xe9\\x94\\x81.sol\":806:842  uint public constant MIN_DELAY = 100 */\n    tag_8:\n      callvalue\n      dup1\n      iszero\n      tag_41\n      jumpi\n      revert(0x00, 0x00)\n    tag_41:\n      pop\n      tag_42\n      tag_43\n      jump\t// in\n    tag_42:\n      mload(0x40)\n      tag_44\n      swap2\n      swap1\n      tag_30\n      jump\t// in\n    tag_44:\n      mload(0x40)\n      dup1\n      swap2\n      sub\n      swap1\n      return\n        /* \"solidity\\xe9\\xab\\x98\\xe7\\xba\\xa7\\xe5\\xba\\x94\\xe7\\x94\\xa8/timelock\\xe6\\x97\\xb6\\xe9\\x97\\xb4\\xe9\\x94\\x81.sol\":1649:1894  function getId(... */\n    tag_9:\n      callvalue\n      dup1\n      iszero\n      tag_45\n      jumpi\n      revert(0x00, 0x00)\n    tag_45:\n      pop\n      tag_46\n      0x04\n      dup1\n      calldatasize\n      sub\n      dup2\n      add\n      swap1\n      tag_47\n      swap2\n      swap1\n      tag_34\n      jump\t// in\n    tag_47:\n      tag_48\n      jump\t// in\n    tag_46:\n      mload(0x40)\n      tag_49\n      swap2\n      swap1\n      tag_50\n      jump\t// in\n    tag_49:\n      mload(0x40)\n      dup1\n      swap2\n      sub\n      swap1\n      return\n        /* \"solidity\\xe9\\xab\\x98\\xe7\\xba\\xa7\\xe5\\xba\\x94\\xe7\\x94\\xa8/timelock\\xe6\\x97\\xb6\\xe9\\x97\\xb4\\xe9\\x94\\x81.sol\":2726:3715  function execute(... */\n    tag_10:\n      callvalue\n      dup1\n      iszero\n      tag_51\n      jumpi\n      revert(0x00, 0x00)\n    tag_51:\n      pop\n      tag_52\n      0x04\n      dup1\n      calldatasize\n      sub\n      dup2\n      add\n      swap1\n      tag_53\n      swap2\n      swap1\n      tag_34\n      jump\t// in\n    tag_53:\n      tag_54\n      jump\t// in\n    tag_52:\n      mload(0x40)\n      tag_55\n      swap2\n      swap1\n      tag_56\n      jump\t// in\n    tag_55:\n      mload(0x40)\n      dup1\n      swap2\n      sub\n      swap1\n      return\n        /* \"solidity\\xe9\\xab\\x98\\xe7\\xba\\xa7\\xe5\\xba\\x94\\xe7\\x94\\xa8/timelock\\xe6\\x97\\xb6\\xe9\\x97\\xb4\\xe9\\x94\\x81.sol\":893:933  uint public constant GRACE_PERIOD = 1000 */\n    tag_11:\n      callvalue\n      dup1\n      iszero\n      tag_57\n      jumpi\n      revert(0x00, 0x00)\n    tag_57:\n      pop\n      tag_58\n      tag_59\n      jump\t// in\n    tag_58:\n      mload(0x40)\n      tag_60\n      swap2\n      swap1\n      tag_30\n      jump\t// in\n    tag_60:\n      mload(0x40)\n      dup1\n      swap2\n      sub\n      swap1\n      return\n        /* \"solidity\\xe9\\xab\\x98\\xe7\\xba\\xa7\\xe5\\xba\\x94\\xe7\\x94\\xa8/timelock\\xe6\\x97\\xb6\\xe9\\x97\\xb4\\xe9\\x94\\x81.sol\":2506:2704  function cancelQueue (bytes32 id) external onlyOwner{... */\n    tag_19:\n        /* \"solidity\\xe9\\xab\\x98\\xe7\\xba\\xa7\\xe5\\xba\\x94\\xe7\\x94\\xa8/timelock\\xe6\\x97\\xb6\\xe9\\x97\\xb4\\xe9\\x94\\x81.sol\":1603:1608  owner */\n      0x00\n      0x00\n      swap1\n      sload\n      swap1\n      0x0100\n      exp\n      swap1\n      div\n      0xffffffffffffffffffffffffffffffffffffffff\n      and\n        /* \"solidity\\xe9\\xab\\x98\\xe7\\xba\\xa7\\xe5\\xba\\x94\\xe7\\x94\\xa8/timelock\\xe6\\x97\\xb6\\xe9\\x97\\xb4\\xe9\\x94\\x81.sol\":1589:1608  msg.sender == owner */\n      0xffffffffffffffffffffffffffffffffffffffff\n      and\n        /* \"solidity\\xe9\\xab\\x98\\xe7\\xba\\xa7\\xe5\\xba\\x94\\xe7\\x94\\xa8/timelock\\xe6\\x97\\xb6\\xe9\\x97\\xb4\\xe9\\x94\\x81.sol\":1589:1599  msg.sender */\n      caller\n        /* \"solidity\\xe9\\xab\\x98\\xe7\\xba\\xa7\\xe5\\xba\\x94\\xe7\\x94\\xa8/timelock\\xe6\\x97\\xb6\\xe9\\x97\\xb4\\xe9\\x94\\x81.sol\":1589:1608  msg.sender == owner */\n      0xffffffffffffffffffffffffffffffffffffffff\n      and\n      eq\n        /* \"solidity\\xe9\\xab\\x98\\xe7\\xba\\xa7\\xe5\\xba\\x94\\xe7\\x94\\xa8/timelock\\xe6\\x97\\xb6\\xe9\\x97\\xb4\\xe9\\x94\\x81.sol\":1581:1621  require(msg.sender == owner,\"not owner\") */\n      tag_62\n      jumpi\n      mload(0x40)\n      0x08c379a000000000000000000000000000000000000000000000000000000000\n      dup2\n      mstore\n      0x04\n      add\n      tag_63\n      swap1\n      tag_64\n      jump\t// in\n    tag_63:\n      mload(0x40)\n      dup1\n      swap2\n      sub\n      swap1\n      revert\n    tag_62:\n        /* \"solidity\\xe9\\xab\\x98\\xe7\\xba\\xa7\\xe5\\xba\\x94\\xe7\\x94\\xa8/timelock\\xe6\\x97\\xb6\\xe9\\x97\\xb4\\xe9\\x94\\x81.sol\":2574:2580  queued */\n      0x01\n        /* \"solidity\\xe9\\xab\\x98\\xe7\\xba\\xa7\\xe5\\xba\\x94\\xe7\\x94\\xa8/timelock\\xe6\\x97\\xb6\\xe9\\x97\\xb4\\xe9\\x94\\x81.sol\":2574:2584  queued[id] */\n      0x00\n        /* \"solidity\\xe9\\xab\\x98\\xe7\\xba\\xa7\\xe5\\xba\\x94\\xe7\\x94\\xa8/timelock\\xe6\\x97\\xb6\\xe9\\x97\\xb4\\xe9\\x94\\x81.sol\":2581:2583  id */\n      dup3\n        /* \"solidity\\xe9\\xab\\x98\\xe7\\xba\\xa7\\xe5\\xba\\x94\\xe7\\x94\\xa8/timelock\\xe6\\x97\\xb6\\xe9\\x97\\xb4\\xe9\\x94\\x81.sol\":2574:2584  queued[id] */\n      dup2\n      mstore\n      0x20\n      add\n      swap1\n      dup2\n      mstore\n      0x20\n      add\n      0x00\n      keccak256\n      0x00\n      swap1\n      sload\n      swap1\n      0x0100\n      exp\n      swap1\n      div\n      0xff\n      and\n        /* \"solidity\\xe9\\xab\\x98\\xe7\\xba\\xa7\\xe5\\xba\\x94\\xe7\\x94\\xa8/timelock\\xe6\\x97\\xb6\\xe9\\x97\\xb4\\xe9\\x94\\x81.sol\":2570:2642  if(!queued[id]) {... */\n      tag_66\n      jumpi\n        /* \"solidity\\xe9\\xab\\x98\\xe7\\xba\\xa7\\xe5\\xba\\x94\\xe7\\x94\\xa8/timelock\\xe6\\x97\\xb6\\xe9\\x97\\xb4\\xe9\\x94\\x81.sol\":2627:2629  id */\n      dup1\n        /* \"solidity\\xe9\\xab\\x98\\xe7\\xba\\xa7\\xe5\\xba\\x94\\xe7\\x94\\xa8/timelock\\xe6\\x97\\xb6\\xe9\\x97\\xb4\\xe9\\x94\\x81.sol\":2608:2630  AlreadyCancelError(id) */\n      mload(0x40)\n      0x308200cc00000000000000000000000000000000000000000000000000000000\n      dup2\n      mstore\n      0x04\n      add\n      tag_67\n      swap2\n      swap1\n      tag_50\n      jump\t// in\n    tag_67:\n      mload(0x40)\n      dup1\n      swap2\n      sub\n      swap1\n      revert\n        /* \"solidity\\xe9\\xab\\x98\\xe7\\xba\\xa7\\xe5\\xba\\x94\\xe7\\x94\\xa8/timelock\\xe6\\x97\\xb6\\xe9\\x97\\xb4\\xe9\\x94\\x81.sol\":2570:2642  if(!queued[id]) {... */\n    tag_66:\n        /* \"solidity\\xe9\\xab\\x98\\xe7\\xba\\xa7\\xe5\\xba\\x94\\xe7\\x94\\xa8/timelock\\xe6\\x97\\xb6\\xe9\\x97\\xb4\\xe9\\x94\\x81.sol\":2665:2670  false */\n      0x00\n        /* \"solidity\\xe9\\xab\\x98\\xe7\\xba\\xa7\\xe5\\xba\\x94\\xe7\\x94\\xa8/timelock\\xe6\\x97\\xb6\\xe9\\x97\\xb4\\xe9\\x94\\x81.sol\":2652:2658  queued */\n      0x01\n        /* \"solidity\\xe9\\xab\\x98\\xe7\\xba\\xa7\\xe5\\xba\\x94\\xe7\\x94\\xa8/timelock\\xe6\\x97\\xb6\\xe9\\x97\\xb4\\xe9\\x94\\x81.sol\":2652:2662  queued[id] */\n      0x00\n        /* \"solidity\\xe9\\xab\\x98\\xe7\\xba\\xa7\\xe5\\xba\\x94\\xe7\\x94\\xa8/timelock\\xe6\\x97\\xb6\\xe9\\x97\\xb4\\xe9\\x94\\x81.sol\":2659:2661  id */\n      dup4\n        /* \"solidity\\xe9\\xab\\x98\\xe7\\xba\\xa7\\xe5\\xba\\x94\\xe7\\x94\\xa8/timelock\\xe6\\x97\\xb6\\xe9\\x97\\xb4\\xe9\\x94\\x81.sol\":2652:2662  queued[id] */\n      dup2\n      mstore\n      0x20\n      add\n      swap1\n      dup2\n      mstore\n      0x20\n      add\n      0x00\n      keccak256\n      0x00\n        /* \"solidity\\xe9\\xab\\x98\\xe7\\xba\\xa7\\xe5\\xba\\x94\\xe7\\x94\\xa8/timelock\\xe6\\x97\\xb6\\xe9\\x97\\xb4\\xe9\\x94\\x81.sol\":2652:2670  queued[id] = false */\n      0x0100\n      exp\n      dup2\n      sload\n      dup2\n      0xff\n      mul\n      not\n      and\n      swap1\n      dup4\n      iszero\n      iszero\n      mul\n      or\n      swap1\n      sstore\n      pop\n        /* \"solidity\\xe9\\xab\\x98\\xe7\\xba\\xa7\\xe5\\xba\\x94\\xe7\\x94\\xa8/timelock\\xe6\\x97\\xb6\\xe9\\x97\\xb4\\xe9\\x94\\x81.sol\":2686:2696  Cancel(id) */\n      0xe8d9861dbc9c663ed3accd261bbe2fe01e0d3d9e5f51fa38523b265c7757a93a\n        /* \"solidity\\xe9\\xab\\x98\\xe7\\xba\\xa7\\xe5\\xba\\x94\\xe7\\x94\\xa8/timelock\\xe6\\x97\\xb6\\xe9\\x97\\xb4\\xe9\\x94\\x81.sol\":2693:2695  id */\n      dup2\n        /* \"solidity\\xe9\\xab\\x98\\xe7\\xba\\xa7\\xe5\\xba\\x94\\xe7\\x94\\xa8/timelock\\xe6\\x97\\xb6\\xe9\\x97\\xb4\\xe9\\x94\\x81.sol\":2686:2696  Cancel(id) */\n      mload(0x40)\n      tag_68\n      swap2\n      swap1\n      tag_50\n      jump\t// in\n    tag_68:\n      mload(0x40)\n      dup1\n      swap2\n      sub\n      swap1\n      log1\n        /* \"solidity\\xe9\\xab\\x98\\xe7\\xba\\xa7\\xe5\\xba\\x94\\xe7\\x94\\xa8/timelock\\xe6\\x97\\xb6\\xe9\\x97\\xb4\\xe9\\x94\\x81.sol\":2506:2704  function cancelQueue (bytes32 id) external onlyOwner{... */\n      pop\n      jump\t// out\n        /* \"solidity\\xe9\\xab\\x98\\xe7\\xba\\xa7\\xe5\\xba\\x94\\xe7\\x94\\xa8/timelock\\xe6\\x97\\xb6\\xe9\\x97\\xb4\\xe9\\x94\\x81.sol\":761:799  mapping(bytes32 => bool) public queued */\n    tag_23:\n      mstore(0x20, 0x01)\n      dup1\n      0x00\n      mstore\n      keccak256(0x00, 0x40)\n      0x00\n      swap2\n      pop\n      sload\n      swap1\n      0x0100\n      exp\n      swap1\n      div\n      0xff\n      and\n      dup2\n      jump\t// out\n        /* \"solidity\\xe9\\xab\\x98\\xe7\\xba\\xa7\\xe5\\xba\\x94\\xe7\\x94\\xa8/timelock\\xe6\\x97\\xb6\\xe9\\x97\\xb4\\xe9\\x94\\x81.sol\":849:886  uint public constant MAX_DELAY = 1000 */\n    tag_28:\n        /* \"solidity\\xe9\\xab\\x98\\xe7\\xba\\xa7\\xe5\\xba\\x94\\xe7\\x94\\xa8/timelock\\xe6\\x97\\xb6\\xe9\\x97\\xb4\\xe9\\x94\\x81.sol\":882:886  1000 */\n      0x03e8\n        /* \"solidity\\xe9\\xab\\x98\\xe7\\xba\\xa7\\xe5\\xba\\x94\\xe7\\x94\\xa8/timelock\\xe6\\x97\\xb6\\xe9\\x97\\xb4\\xe9\\x94\\x81.sol\":849:886  uint public constant MAX_DELAY = 1000 */\n      dup2\n      jump\t// out\n        /* \"solidity\\xe9\\xab\\x98\\xe7\\xba\\xa7\\xe5\\xba\\x94\\xe7\\x94\\xa8/timelock\\xe6\\x97\\xb6\\xe9\\x97\\xb4\\xe9\\x94\\x81.sol\":1917:2478  function queue(... */\n    tag_35:\n        /* \"solidity\\xe9\\xab\\x98\\xe7\\xba\\xa7\\xe5\\xba\\x94\\xe7\\x94\\xa8/timelock\\xe6\\x97\\xb6\\xe9\\x97\\xb4\\xe9\\x94\\x81.sol\":1603:1608  owner */\n      0x00\n      0x00\n      swap1\n      sload\n      swap1\n      0x0100\n      exp\n      swap1\n      div\n      0xffffffffffffffffffffffffffffffffffffffff\n      and\n        /* \"solidity\\xe9\\xab\\x98\\xe7\\xba\\xa7\\xe5\\xba\\x94\\xe7\\x94\\xa8/timelock\\xe6\\x97\\xb6\\xe9\\x97\\xb4\\xe9\\x94\\x81.sol\":1589:1608  msg.sender == owner */\n      0xffffffffffffffffffffffffffffffffffffffff\n      and\n        /* \"solidity\\xe9\\xab\\x98\\xe7\\xba\\xa7\\xe5\\xba\\x94\\xe7\\x94\\xa8/timelock\\xe6\\x97\\xb6\\xe9\\x97\\xb4\\xe9\\x94\\x81.sol\":1589:1599  msg.sender */\n      caller\n        /* \"solidity\\xe9\\xab\\x98\\xe7\\xba\\xa7\\xe5\\xba\\x94\\xe7\\x94\\xa8/timelock\\xe6\\x97\\xb6\\xe9\\x97\\xb4\\xe9\\x94\\x81.sol\":1589:1608  msg.sender == owner */\n      0xffffffffffffffffffffffffffffffffffffffff\n      and\n      eq\n        /* \"solidity\\xe9\\xab\\x98\\xe7\\xba\\xa7\\xe5\\xba\\x94\\xe7\\x94\\xa8/timelock\\xe6\\x97\\xb6\\xe9\\x97\\xb4\\xe9\\x94\\x81.sol\":1581:1621  require(msg.sender == owner,\"not owner\") */\n      tag_70\n      jumpi\n      mload(0x40)\n      0x08c379a000000000000000000000000000000000000000000000000000000000\n      dup2\n      mstore\n      0x04\n      add\n      tag_71\n      swap1\n      tag_64\n      jump\t// in\n    tag_71:\n      mload(0x40)\n      dup1\n      swap2\n      sub\n      swap1\n      revert\n    tag_70:\n        /* \"solidity\\xe9\\xab\\x98\\xe7\\xba\\xa7\\xe5\\xba\\x94\\xe7\\x94\\xa8/timelock\\xe6\\x97\\xb6\\xe9\\x97\\xb4\\xe9\\x94\\x81.sol\":2064:2074  bytes32 id */\n      0x00\n        /* \"solidity\\xe9\\xab\\x98\\xe7\\xba\\xa7\\xe5\\xba\\x94\\xe7\\x94\\xa8/timelock\\xe6\\x97\\xb6\\xe9\\x97\\xb4\\xe9\\x94\\x81.sol\":2077:2125  getId(target, amount, funcName, data, timestamp) */\n      tag_73\n        /* \"solidity\\xe9\\xab\\x98\\xe7\\xba\\xa7\\xe5\\xba\\x94\\xe7\\x94\\xa8/timelock\\xe6\\x97\\xb6\\xe9\\x97\\xb4\\xe9\\x94\\x81.sol\":2083:2089  target */\n      dup7\n        /* \"solidity\\xe9\\xab\\x98\\xe7\\xba\\xa7\\xe5\\xba\\x94\\xe7\\x94\\xa8/timelock\\xe6\\x97\\xb6\\xe9\\x97\\xb4\\xe9\\x94\\x81.sol\":2091:2097  amount */\n      dup7\n        /* \"solidity\\xe9\\xab\\x98\\xe7\\xba\\xa7\\xe5\\xba\\x94\\xe7\\x94\\xa8/timelock\\xe6\\x97\\xb6\\xe9\\x97\\xb4\\xe9\\x94\\x81.sol\":2099:2107  funcName */\n      dup7\n        /* \"solidity\\xe9\\xab\\x98\\xe7\\xba\\xa7\\xe5\\xba\\x94\\xe7\\x94\\xa8/timelock\\xe6\\x97\\xb6\\xe9\\x97\\xb4\\xe9\\x94\\x81.sol\":2109:2113  data */\n      dup7\n        /* \"solidity\\xe9\\xab\\x98\\xe7\\xba\\xa7\\xe5\\xba\\x94\\xe7\\x94\\xa8/timelock\\xe6\\x97\\xb6\\xe9\\x97\\xb4\\xe9\\x94\\x81.sol\":2115:2124  timestamp */\n      dup7\n        /* \"solidity\\xe9\\xab\\x98\\xe7\\xba\\xa7\\xe5\\xba\\x94\\xe7\\x94\\xa8/timelock\\xe6\\x97\\xb6\\xe9\\x97\\xb4\\xe9\\x94\\x81.sol\":2077:2082  getId */\n      tag_48\n        /* \"solidity\\xe9\\xab\\x98\\xe7\\xba\\xa7\\xe5\\xba\\x94\\xe7\\x94\\xa8/timelock\\xe6\\x97\\xb6\\xe9\\x97\\xb4\\xe9\\x94\\x81.sol\":2077:2125  getId(target, amount, funcName, data, timestamp) */\n      jump\t// in\n    tag_73:\n        /* \"solidity\\xe9\\xab\\x98\\xe7\\xba\\xa7\\xe5\\xba\\x94\\xe7\\x94\\xa8/timelock\\xe6\\x97\\xb6\\xe9\\x97\\xb4\\xe9\\x94\\x81.sol\":2064:2125  bytes32 id = getId(target, amount, funcName, data, timestamp) */\n      swap1\n      pop\n        /* \"solidity\\xe9\\xab\\x98\\xe7\\xba\\xa7\\xe5\\xba\\x94\\xe7\\x94\\xa8/timelock\\xe6\\x97\\xb6\\xe9\\x97\\xb4\\xe9\\x94\\x81.sol\":2139:2145  queued */\n      0x01\n        /* \"solidity\\xe9\\xab\\x98\\xe7\\xba\\xa7\\xe5\\xba\\x94\\xe7\\x94\\xa8/timelock\\xe6\\x97\\xb6\\xe9\\x97\\xb4\\xe9\\x94\\x81.sol\":2139:2149  queued[id] */\n      0x00\n        /* \"solidity\\xe9\\xab\\x98\\xe7\\xba\\xa7\\xe5\\xba\\x94\\xe7\\x94\\xa8/timelock\\xe6\\x97\\xb6\\xe9\\x97\\xb4\\xe9\\x94\\x81.sol\":2146:2148  id */\n      dup3\n        /* \"solidity\\xe9\\xab\\x98\\xe7\\xba\\xa7\\xe5\\xba\\x94\\xe7\\x94\\xa8/timelock\\xe6\\x97\\xb6\\xe9\\x97\\xb4\\xe9\\x94\\x81.sol\":2139:2149  queued[id] */\n      dup2\n      mstore\n      0x20\n      add\n      swap1\n      dup2\n      mstore\n      0x20\n      add\n      0x00\n      keccak256\n      0x00\n      swap1\n      sload\n      swap1\n      0x0100\n      exp\n      swap1\n      div\n      0xff\n      and\n        /* \"solidity\\xe9\\xab\\x98\\xe7\\xba\\xa7\\xe5\\xba\\x94\\xe7\\x94\\xa8/timelock\\xe6\\x97\\xb6\\xe9\\x97\\xb4\\xe9\\x94\\x81.sol\":2136:2207  if(queued[id]) {... */\n      iszero\n      tag_74\n      jumpi\n        /* \"solidity\\xe9\\xab\\x98\\xe7\\xba\\xa7\\xe5\\xba\\x94\\xe7\\x94\\xa8/timelock\\xe6\\x97\\xb6\\xe9\\x97\\xb4\\xe9\\x94\\x81.sol\":2192:2194  id */\n      dup1\n        /* \"solidity\\xe9\\xab\\x98\\xe7\\xba\\xa7\\xe5\\xba\\x94\\xe7\\x94\\xa8/timelock\\xe6\\x97\\xb6\\xe9\\x97\\xb4\\xe9\\x94\\x81.sol\":2173:2195  AlreadyQueuedError(id) */\n      mload(0x40)\n      0x995042be00000000000000000000000000000000000000000000000000000000\n      dup2\n      mstore\n      0x04\n      add\n      tag_75\n      swap2\n      swap1\n      tag_50\n      jump\t// in\n    tag_75:\n      mload(0x40)\n      dup1\n      swap2\n      sub\n      swap1\n      revert\n        /* \"solidity\\xe9\\xab\\x98\\xe7\\xba\\xa7\\xe5\\xba\\x94\\xe7\\x94\\xa8/timelock\\xe6\\x97\\xb6\\xe9\\x97\\xb4\\xe9\\x94\\x81.sol\":2136:2207  if(queued[id]) {... */\n    tag_74:\n        /* \"solidity\\xe9\\xab\\x98\\xe7\\xba\\xa7\\xe5\\xba\\x94\\xe7\\x94\\xa8/timelock\\xe6\\x97\\xb6\\xe9\\x97\\xb4\\xe9\\x94\\x81.sol\":839:842  100 */\n      0x64\n        /* \"solidity\\xe9\\xab\\x98\\xe7\\xba\\xa7\\xe5\\xba\\x94\\xe7\\x94\\xa8/timelock\\xe6\\x97\\xb6\\xe9\\x97\\xb4\\xe9\\x94\\x81.sol\":2234:2249  block.timestamp */\n      timestamp\n        /* \"solidity\\xe9\\xab\\x98\\xe7\\xba\\xa7\\xe5\\xba\\x94\\xe7\\x94\\xa8/timelock\\xe6\\x97\\xb6\\xe9\\x97\\xb4\\xe9\\x94\\x81.sol\":2234:2261  block.timestamp + MIN_DELAY */\n      tag_76\n      swap2\n      swap1\n      tag_77\n      jump\t// in\n    tag_76:\n        /* \"solidity\\xe9\\xab\\x98\\xe7\\xba\\xa7\\xe5\\xba\\x94\\xe7\\x94\\xa8/timelock\\xe6\\x97\\xb6\\xe9\\x97\\xb4\\xe9\\x94\\x81.sol\":2222:2231  timestamp */\n      dup3\n        /* \"solidity\\xe9\\xab\\x98\\xe7\\xba\\xa7\\xe5\\xba\\x94\\xe7\\x94\\xa8/timelock\\xe6\\x97\\xb6\\xe9\\x97\\xb4\\xe9\\x94\\x81.sol\":2222:2261  timestamp < block.timestamp + MIN_DELAY */\n      lt\n        /* \"solidity\\xe9\\xab\\x98\\xe7\\xba\\xa7\\xe5\\xba\\x94\\xe7\\x94\\xa8/timelock\\xe6\\x97\\xb6\\xe9\\x97\\xb4\\xe9\\x94\\x81.sol\":2222:2304  timestamp < block.timestamp + MIN_DELAY || timestamp > block.timestamp + MAX_DELAY */\n      dup1\n      tag_78\n      jumpi\n      pop\n        /* \"solidity\\xe9\\xab\\x98\\xe7\\xba\\xa7\\xe5\\xba\\x94\\xe7\\x94\\xa8/timelock\\xe6\\x97\\xb6\\xe9\\x97\\xb4\\xe9\\x94\\x81.sol\":882:886  1000 */\n      0x03e8\n        /* \"solidity\\xe9\\xab\\x98\\xe7\\xba\\xa7\\xe5\\xba\\x94\\xe7\\x94\\xa8/timelock\\xe6\\x97\\xb6\\xe9\\x97\\xb4\\xe9\\x94\\x81.sol\":2277:2292  block.timestamp */\n      timestamp\n        /* \"solidity\\xe9\\xab\\x98\\xe7\\xba\\xa7\\xe5\\xba\\x94\\xe7\\x94\\xa8/timelock\\xe6\\x97\\xb6\\xe9\\x97\\xb4\\xe9\\x94\\x81.sol\":2277:2304  block.timestamp + MAX_DELAY */\n      tag_79\n      swap2\n      swap1\n      tag_77\n      jump\t// in\n    tag_79:\n        /* \"solidity\\xe9\\xab\\x98\\xe7\\xba\\xa7\\xe5\\xba\\x94\\xe7\\x94\\xa8/timelock\\xe6\\x97\\xb6\\xe9\\x97\\xb4\\xe9\\x94\\x81.sol\":2265:2274  timestamp */\n      dup3\n        /* \"solidity\\xe9\\xab\\x98\\xe7\\xba\\xa7\\xe5\\xba\\x94\\xe7\\x94\\xa8/timelock\\xe6\\x97\\xb6\\xe9\\x97\\xb4\\xe9\\x94\\x81.sol\":2265:2304  timestamp > block.timestamp + MAX_DELAY */\n      gt\n        /* \"solidity\\xe9\\xab\\x98\\xe7\\xba\\xa7\\xe5\\xba\\x94\\xe7\\x94\\xa8/timelock\\xe6\\x97\\xb6\\xe9\\x97\\xb4\\xe9\\x94\\x81.sol\":2222:2304  timestamp < block.timestamp + MIN_DELAY || timestamp > block.timestamp + MAX_DELAY */\n    tag_78:\n        /* \"solidity\\xe9\\xab\\x98\\xe7\\xba\\xa7\\xe5\\xba\\x94\\xe7\\x94\\xa8/timelock\\xe6\\x97\\xb6\\xe9\\x97\\xb4\\xe9\\x94\\x81.sol\":2219:2366  if(timestamp < block.timestamp + MIN_DELAY || timestamp > block.timestamp + MAX_DELAY) {... */\n      iszero\n      tag_80\n      jumpi\n        /* \"solidity\\xe9\\xab\\x98\\xe7\\xba\\xa7\\xe5\\xba\\x94\\xe7\\x94\\xa8/timelock\\xe6\\x97\\xb6\\xe9\\x97\\xb4\\xe9\\x94\\x81.sol\":2328:2354  TimestampNotInRangeError() */\n      mload(0x40)\n      0x05dfb40e00000000000000000000000000000000000000000000000000000000\n      dup2\n      mstore\n      0x04\n      add\n      mload(0x40)\n      dup1\n      swap2\n      sub\n      swap1\n      revert\n        /* \"solidity\\xe9\\xab\\x98\\xe7\\xba\\xa7\\xe5\\xba\\x94\\xe7\\x94\\xa8/timelock\\xe6\\x97\\xb6\\xe9\\x97\\xb4\\xe9\\x94\\x81.sol\":2219:2366  if(timestamp < block.timestamp + MIN_DELAY || timestamp > block.timestamp + MAX_DELAY) {... */\n    tag_80:\n        /* \"solidity\\xe9\\xab\\x98\\xe7\\xba\\xa7\\xe5\\xba\\x94\\xe7\\x94\\xa8/timelock\\xe6\\x97\\xb6\\xe9\\x97\\xb4\\xe9\\x94\\x81.sol\":2391:2395  true */\n      0x01\n        /* \"solidity\\xe9\\xab\\x98\\xe7\\xba\\xa7\\xe5\\xba\\x94\\xe7\\x94\\xa8/timelock\\xe6\\x97\\xb6\\xe9\\x97\\xb4\\xe9\\x94\\x81.sol\":2378:2384  queued */\n      dup1\n        /* \"solidity\\xe9\\xab\\x98\\xe7\\xba\\xa7\\xe5\\xba\\x94\\xe7\\x94\\xa8/timelock\\xe6\\x97\\xb6\\xe9\\x97\\xb4\\xe9\\x94\\x81.sol\":2378:2388  queued[id] */\n      0x00\n        /* \"solidity\\xe9\\xab\\x98\\xe7\\xba\\xa7\\xe5\\xba\\x94\\xe7\\x94\\xa8/timelock\\xe6\\x97\\xb6\\xe9\\x97\\xb4\\xe9\\x94\\x81.sol\":2385:2387  id */\n      dup4\n        /* \"solidity\\xe9\\xab\\x98\\xe7\\xba\\xa7\\xe5\\xba\\x94\\xe7\\x94\\xa8/timelock\\xe6\\x97\\xb6\\xe9\\x97\\xb4\\xe9\\x94\\x81.sol\":2378:2388  queued[id] */\n      dup2\n      mstore\n      0x20\n      add\n      swap1\n      dup2\n      mstore\n      0x20\n      add\n      0x00\n      keccak256\n      0x00\n        /* \"solidity\\xe9\\xab\\x98\\xe7\\xba\\xa7\\xe5\\xba\\x94\\xe7\\x94\\xa8/timelock\\xe6\\x97\\xb6\\xe9\\x97\\xb4\\xe9\\x94\\x81.sol\":2378:2395  queued[id] = true */\n      0x0100\n      exp\n      dup2\n      sload\n      dup2\n      0xff\n      mul\n      not\n      and\n      swap1\n      dup4\n      iszero\n      iszero\n      mul\n      or\n      swap1\n      sstore\n      pop\n        /* \"solidity\\xe9\\xab\\x98\\xe7\\xba\\xa7\\xe5\\xba\\x94\\xe7\\x94\\xa8/timelock\\xe6\\x97\\xb6\\xe9\\x97\\xb4\\xe9\\x94\\x81.sol\":2422:2424  id */\n      dup1\n        /* \"solidity\\xe9\\xab\\x98\\xe7\\xba\\xa7\\xe5\\xba\\x94\\xe7\\x94\\xa8/timelock\\xe6\\x97\\xb6\\xe9\\x97\\xb4\\xe9\\x94\\x81.sol\":2413:2468  QueueLog(id, target, amount, funcName, data, timestamp) */\n      0x0bc6f313d0985430d7cf30e2711a5d66b50af1170bef60a5af5aafebbab2d817\n        /* \"solidity\\xe9\\xab\\x98\\xe7\\xba\\xa7\\xe5\\xba\\x94\\xe7\\x94\\xa8/timelock\\xe6\\x97\\xb6\\xe9\\x97\\xb4\\xe9\\x94\\x81.sol\":2426:2432  target */\n      dup8\n        /* \"solidity\\xe9\\xab\\x98\\xe7\\xba\\xa7\\xe5\\xba\\x94\\xe7\\x94\\xa8/timelock\\xe6\\x97\\xb6\\xe9\\x97\\xb4\\xe9\\x94\\x81.sol\":2434:2440  amount */\n      dup8\n        /* \"solidity\\xe9\\xab\\x98\\xe7\\xba\\xa7\\xe5\\xba\\x94\\xe7\\x94\\xa8/timelock\\xe6\\x97\\xb6\\xe9\\x97\\xb4\\xe9\\x94\\x81.sol\":2442:2450  funcName */\n      dup8\n        /* \"solidity\\xe9\\xab\\x98\\xe7\\xba\\xa7\\xe5\\xba\\x94\\xe7\\x94\\xa8/timelock\\xe6\\x97\\xb6\\xe9\\x97\\xb4\\xe9\\x94\\x81.sol\":2452:2456  data */\n      dup8\n        /* \"solidity\\xe9\\xab\\x98\\xe7\\xba\\xa7\\xe5\\xba\\x94\\xe7\\x94\\xa8/timelock\\xe6\\x97\\xb6\\xe9\\x97\\xb4\\xe9\\x94\\x81.sol\":2458:2467  timestamp */\n      dup8\n        /* \"solidity\\xe9\\xab\\x98\\xe7\\xba\\xa7\\xe5\\xba\\x94\\xe7\\x94\\xa8/timelock\\xe6\\x97\\xb6\\xe9\\x97\\xb4\\xe9\\x94\\x81.sol\":2413:2468  QueueLog(id, target, amount, funcName, data, timestamp) */\n      mload(0x40)\n      tag_81\n      swap6\n      swap5\n      swap4\n      swap3\n      swap2\n      swap1\n      tag_82\n      jump\t// in\n    tag_81:\n      mload(0x40)\n      dup1\n      swap2\n      sub\n      swap1\n      log2\n        /* \"solidity\\xe9\\xab\\x98\\xe7\\xba\\xa7\\xe5\\xba\\x94\\xe7\\x94\\xa8/timelock\\xe6\\x97\\xb6\\xe9\\x97\\xb4\\xe9\\x94\\x81.sol\":2053:2478  {... */\n      pop\n        /* \"solidity\\xe9\\xab\\x98\\xe7\\xba\\xa7\\xe5\\xba\\x94\\xe7\\x94\\xa8/timelock\\xe6\\x97\\xb6\\xe9\\x97\\xb4\\xe9\\x94\\x81.sol\":1917:2478  function queue(... */\n      pop\n      pop\n      pop\n      pop\n      pop\n      jump\t// out\n        /* \"solidity\\xe9\\xab\\x98\\xe7\\xba\\xa7\\xe5\\xba\\x94\\xe7\\x94\\xa8/timelock\\xe6\\x97\\xb6\\xe9\\x97\\xb4\\xe9\\x94\\x81.sol\":734:754  address public owner */\n    tag_38:\n      0x00\n      0x00\n      swap1\n      sload\n      swap1\n      0x0100\n      exp\n      swap1\n      div\n      0xffffffffffffffffffffffffffffffffffffffff\n      and\n      dup2\n      jump\t// out\n        /* \"solidity\\xe9\\xab\\x98\\xe7\\xba\\xa7\\xe5\\xba\\x94\\xe7\\x94\\xa8/timelock\\xe6\\x97\\xb6\\xe9\\x97\\xb4\\xe9\\x94\\x81.sol\":806:842  uint public constant MIN_DELAY = 100 */\n    tag_43:\n        /* \"solidity\\xe9\\xab\\x98\\xe7\\xba\\xa7\\xe5\\xba\\x94\\xe7\\x94\\xa8/timelock\\xe6\\x97\\xb6\\xe9\\x97\\xb4\\xe9\\x94\\x81.sol\":839:842  100 */\n      0x64\n        /* \"solidity\\xe9\\xab\\x98\\xe7\\xba\\xa7\\xe5\\xba\\x94\\xe7\\x94\\xa8/timelock\\xe6\\x97\\xb6\\xe9\\x97\\xb4\\xe9\\x94\\x81.sol\":806:842  uint public constant MIN_DELAY = 100 */\n      dup2\n      jump\t// out\n        /* \"solidity\\xe9\\xab\\x98\\xe7\\xba\\xa7\\xe5\\xba\\x94\\xe7\\x94\\xa8/timelock\\xe6\\x97\\xb6\\xe9\\x97\\xb4\\xe9\\x94\\x81.sol\":1649:1894  function getId(... */\n    tag_48:\n        /* \"solidity\\xe9\\xab\\x98\\xe7\\xba\\xa7\\xe5\\xba\\x94\\xe7\\x94\\xa8/timelock\\xe6\\x97\\xb6\\xe9\\x97\\xb4\\xe9\\x94\\x81.sol\":1789:1796  bytes32 */\n      0x00\n        /* \"solidity\\xe9\\xab\\x98\\xe7\\xba\\xa7\\xe5\\xba\\x94\\xe7\\x94\\xa8/timelock\\xe6\\x97\\xb6\\xe9\\x97\\xb4\\xe9\\x94\\x81.sol\":1843:1849  target */\n      dup6\n        /* \"solidity\\xe9\\xab\\x98\\xe7\\xba\\xa7\\xe5\\xba\\x94\\xe7\\x94\\xa8/timelock\\xe6\\x97\\xb6\\xe9\\x97\\xb4\\xe9\\x94\\x81.sol\":1851:1857  amount */\n      dup6\n        /* \"solidity\\xe9\\xab\\x98\\xe7\\xba\\xa7\\xe5\\xba\\x94\\xe7\\x94\\xa8/timelock\\xe6\\x97\\xb6\\xe9\\x97\\xb4\\xe9\\x94\\x81.sol\":1859:1867  funcName */\n      dup6\n        /* \"solidity\\xe9\\xab\\x98\\xe7\\xba\\xa7\\xe5\\xba\\x94\\xe7\\x94\\xa8/timelock\\xe6\\x97\\xb6\\xe9\\x97\\xb4\\xe9\\x94\\x81.sol\":1869:1873  data */\n      dup6\n        /* \"solidity\\xe9\\xab\\x98\\xe7\\xba\\xa7\\xe5\\xba\\x94\\xe7\\x94\\xa8/timelock\\xe6\\x97\\xb6\\xe9\\x97\\xb4\\xe9\\x94\\x81.sol\":1875:1884  timestamp */\n      dup6\n        /* \"solidity\\xe9\\xab\\x98\\xe7\\xba\\xa7\\xe5\\xba\\x94\\xe7\\x94\\xa8/timelock\\xe6\\x97\\xb6\\xe9\\x97\\xb4\\xe9\\x94\\x81.sol\":1826:1885  abi.encodePacked(target, amount, funcName, data, timestamp) */\n      add(0x20, mload(0x40))\n      tag_84\n      swap6\n      swap5\n      swap4\n      swap3\n      swap2\n      swap1\n      tag_85\n      jump\t// in\n    tag_84:\n      mload(0x40)\n      0x20\n      dup2\n      dup4\n      sub\n      sub\n      dup2\n      mstore\n      swap1\n      0x40\n      mstore\n        /* \"solidity\\xe9\\xab\\x98\\xe7\\xba\\xa7\\xe5\\xba\\x94\\xe7\\x94\\xa8/timelock\\xe6\\x97\\xb6\\xe9\\x97\\xb4\\xe9\\x94\\x81.sol\":1816:1886  keccak256(abi.encodePacked(target, amount, funcName, data, timestamp)) */\n      dup1\n      mload\n      swap1\n      0x20\n      add\n      keccak256\n        /* \"solidity\\xe9\\xab\\x98\\xe7\\xba\\xa7\\xe5\\xba\\x94\\xe7\\x94\\xa8/timelock\\xe6\\x97\\xb6\\xe9\\x97\\xb4\\xe9\\x94\\x81.sol\":1809:1886  return keccak256(abi.encodePacked(target, amount, funcName, data, timestamp)) */\n      swap1\n      pop\n        /* \"solidity\\xe9\\xab\\x98\\xe7\\xba\\xa7\\xe5\\xba\\x94\\xe7\\x94\\xa8/timelock\\xe6\\x97\\xb6\\xe9\\x97\\xb4\\xe9\\x94\\x81.sol\":1649:1894  function getId(... */\n      swap6\n      swap5\n      pop\n      pop\n      pop\n      pop\n      pop\n      jump\t// out\n        /* \"solidity\\xe9\\xab\\x98\\xe7\\xba\\xa7\\xe5\\xba\\x94\\xe7\\x94\\xa8/timelock\\xe6\\x97\\xb6\\xe9\\x97\\xb4\\xe9\\x94\\x81.sol\":2726:3715  function execute(... */\n    tag_54:\n        /* \"solidity\\xe9\\xab\\x98\\xe7\\xba\\xa7\\xe5\\xba\\x94\\xe7\\x94\\xa8/timelock\\xe6\\x97\\xb6\\xe9\\x97\\xb4\\xe9\\x94\\x81.sol\":2863:2875  bytes memory */\n      0x60\n        /* \"solidity\\xe9\\xab\\x98\\xe7\\xba\\xa7\\xe5\\xba\\x94\\xe7\\x94\\xa8/timelock\\xe6\\x97\\xb6\\xe9\\x97\\xb4\\xe9\\x94\\x81.sol\":2888:2898  bytes32 id */\n      0x00\n        /* \"solidity\\xe9\\xab\\x98\\xe7\\xba\\xa7\\xe5\\xba\\x94\\xe7\\x94\\xa8/timelock\\xe6\\x97\\xb6\\xe9\\x97\\xb4\\xe9\\x94\\x81.sol\":2901:2949  getId(target, amount, funcName, data, timestamp) */\n      tag_87\n        /* \"solidity\\xe9\\xab\\x98\\xe7\\xba\\xa7\\xe5\\xba\\x94\\xe7\\x94\\xa8/timelock\\xe6\\x97\\xb6\\xe9\\x97\\xb4\\xe9\\x94\\x81.sol\":2907:2913  target */\n      dup8\n        /* \"solidity\\xe9\\xab\\x98\\xe7\\xba\\xa7\\xe5\\xba\\x94\\xe7\\x94\\xa8/timelock\\xe6\\x97\\xb6\\xe9\\x97\\xb4\\xe9\\x94\\x81.sol\":2915:2921  amount */\n      dup8\n        /* \"solidity\\xe9\\xab\\x98\\xe7\\xba\\xa7\\xe5\\xba\\x94\\xe7\\x94\\xa8/timelock\\xe6\\x97\\xb6\\xe9\\x97\\xb4\\xe9\\x94\\x81.sol\":2923:2931  funcName */\n      dup8\n        /* \"solidity\\xe9\\xab\\x98\\xe7\\xba\\xa7\\xe5\\xba\\x94\\xe7\\x94\\xa8/timelock\\xe6\\x97\\xb6\\xe9\\x97\\xb4\\xe9\\x94\\x81.sol\":2933:2937  data */\n      dup8\n        /* \"solidity\\xe9\\xab\\x98\\xe7\\xba\\xa7\\xe5\\xba\\x94\\xe7\\x94\\xa8/timelock\\xe6\\x97\\xb6\\xe9\\x97\\xb4\\xe9\\x94\\x81.sol\":2939:2948  timestamp */\n      dup8\n        /* \"solidity\\xe9\\xab\\x98\\xe7\\xba\\xa7\\xe5\\xba\\x94\\xe7\\x94\\xa8/timelock\\xe6\\x97\\xb6\\xe9\\x97\\xb4\\xe9\\x94\\x81.sol\":2901:2906  getId */\n      tag_48\n        /* \"solidity\\xe9\\xab\\x98\\xe7\\xba\\xa7\\xe5\\xba\\x94\\xe7\\x94\\xa8/timelock\\xe6\\x97\\xb6\\xe9\\x97\\xb4\\xe9\\x94\\x81.sol\":2901:2949  getId(target, amount, funcName, data, timestamp) */\n      jump\t// in\n    tag_87:\n        /* \"solidity\\xe9\\xab\\x98\\xe7\\xba\\xa7\\xe5\\xba\\x94\\xe7\\x94\\xa8/timelock\\xe6\\x97\\xb6\\xe9\\x97\\xb4\\xe9\\x94\\x81.sol\":2888:2949  bytes32 id = getId(target, amount, funcName, data, timestamp) */\n      swap1\n      pop\n        /* \"solidity\\xe9\\xab\\x98\\xe7\\xba\\xa7\\xe5\\xba\\x94\\xe7\\x94\\xa8/timelock\\xe6\\x97\\xb6\\xe9\\x97\\xb4\\xe9\\x94\\x81.sol\":2964:2970  queued */\n      0x01\n        /* \"solidity\\xe9\\xab\\x98\\xe7\\xba\\xa7\\xe5\\xba\\x94\\xe7\\x94\\xa8/timelock\\xe6\\x97\\xb6\\xe9\\x97\\xb4\\xe9\\x94\\x81.sol\":2964:2974  queued[id] */\n      0x00\n        /* \"solidity\\xe9\\xab\\x98\\xe7\\xba\\xa7\\xe5\\xba\\x94\\xe7\\x94\\xa8/timelock\\xe6\\x97\\xb6\\xe9\\x97\\xb4\\xe9\\x94\\x81.sol\":2971:2973  id */\n      dup3\n        /* \"solidity\\xe9\\xab\\x98\\xe7\\xba\\xa7\\xe5\\xba\\x94\\xe7\\x94\\xa8/timelock\\xe6\\x97\\xb6\\xe9\\x97\\xb4\\xe9\\x94\\x81.sol\":2964:2974  queued[id] */\n      dup2\n      mstore\n      0x20\n      add\n      swap1\n      dup2\n      mstore\n      0x20\n      add\n      0x00\n      keccak256\n      0x00\n      swap1\n      sload\n      swap1\n      0x0100\n      exp\n      swap1\n      div\n      0xff\n      and\n        /* \"solidity\\xe9\\xab\\x98\\xe7\\xba\\xa7\\xe5\\xba\\x94\\xe7\\x94\\xa8/timelock\\xe6\\x97\\xb6\\xe9\\x97\\xb4\\xe9\\x94\\x81.sol\":2960:3028  if(!queued[id]) {... */\n      tag_88\n      jumpi\n        /* \"solidity\\xe9\\xab\\x98\\xe7\\xba\\xa7\\xe5\\xba\\x94\\xe7\\x94\\xa8/timelock\\xe6\\x97\\xb6\\xe9\\x97\\xb4\\xe9\\x94\\x81.sol\":3013:3015  id */\n      dup1\n        /* \"solidity\\xe9\\xab\\x98\\xe7\\xba\\xa7\\xe5\\xba\\x94\\xe7\\x94\\xa8/timelock\\xe6\\x97\\xb6\\xe9\\x97\\xb4\\xe9\\x94\\x81.sol\":2998:3016  NotQueuedError(id) */\n      mload(0x40)\n      0x0995c9d500000000000000000000000000000000000000000000000000000000\n      dup2\n      mstore\n      0x04\n      add\n      tag_89\n      swap2\n      swap1\n      tag_50\n      jump\t// in\n    tag_89:\n      mload(0x40)\n      dup1\n      swap2\n      sub\n      swap1\n      revert\n        /* \"solidity\\xe9\\xab\\x98\\xe7\\xba\\xa7\\xe5\\xba\\x94\\xe7\\x94\\xa8/timelock\\xe6\\x97\\xb6\\xe9\\x97\\xb4\\xe9\\x94\\x81.sol\":2960:3028  if(!queued[id]) {... */\n    tag_88:\n        /* \"solidity\\xe9\\xab\\x98\\xe7\\xba\\xa7\\xe5\\xba\\x94\\xe7\\x94\\xa8/timelock\\xe6\\x97\\xb6\\xe9\\x97\\xb4\\xe9\\x94\\x81.sol\":839:842  100 */\n      0x64\n        /* \"solidity\\xe9\\xab\\x98\\xe7\\xba\\xa7\\xe5\\xba\\x94\\xe7\\x94\\xa8/timelock\\xe6\\x97\\xb6\\xe9\\x97\\xb4\\xe9\\x94\\x81.sol\":3055:3070  block.timestamp */\n      timestamp\n        /* \"solidity\\xe9\\xab\\x98\\xe7\\xba\\xa7\\xe5\\xba\\x94\\xe7\\x94\\xa8/timelock\\xe6\\x97\\xb6\\xe9\\x97\\xb4\\xe9\\x94\\x81.sol\":3055:3082  block.timestamp + MIN_DELAY */\n      tag_90\n      swap2\n      swap1\n      tag_77\n      jump\t// in\n    tag_90:\n        /* \"solidity\\xe9\\xab\\x98\\xe7\\xba\\xa7\\xe5\\xba\\x94\\xe7\\x94\\xa8/timelock\\xe6\\x97\\xb6\\xe9\\x97\\xb4\\xe9\\x94\\x81.sol\":3043:3052  timestamp */\n      dup4\n        /* \"solidity\\xe9\\xab\\x98\\xe7\\xba\\xa7\\xe5\\xba\\x94\\xe7\\x94\\xa8/timelock\\xe6\\x97\\xb6\\xe9\\x97\\xb4\\xe9\\x94\\x81.sol\":3043:3082  timestamp < block.timestamp + MIN_DELAY */\n      lt\n        /* \"solidity\\xe9\\xab\\x98\\xe7\\xba\\xa7\\xe5\\xba\\x94\\xe7\\x94\\xa8/timelock\\xe6\\x97\\xb6\\xe9\\x97\\xb4\\xe9\\x94\\x81.sol\":3040:3146  if(timestamp < block.timestamp + MIN_DELAY) {... */\n      iszero\n      tag_91\n      jumpi\n        /* \"solidity\\xe9\\xab\\x98\\xe7\\xba\\xa7\\xe5\\xba\\x94\\xe7\\x94\\xa8/timelock\\xe6\\x97\\xb6\\xe9\\x97\\xb4\\xe9\\x94\\x81.sol\":3106:3134  TimeNotGreaterThanMinError() */\n      mload(0x40)\n      0x3fc00c4800000000000000000000000000000000000000000000000000000000\n      dup2\n      mstore\n      0x04\n      add\n      mload(0x40)\n      dup1\n      swap2\n      sub\n      swap1\n      revert\n        /* \"solidity\\xe9\\xab\\x98\\xe7\\xba\\xa7\\xe5\\xba\\x94\\xe7\\x94\\xa8/timelock\\xe6\\x97\\xb6\\xe9\\x97\\xb4\\xe9\\x94\\x81.sol\":3040:3146  if(timestamp < block.timestamp + MIN_DELAY) {... */\n    tag_91:\n        /* \"solidity\\xe9\\xab\\x98\\xe7\\xba\\xa7\\xe5\\xba\\x94\\xe7\\x94\\xa8/timelock\\xe6\\x97\\xb6\\xe9\\x97\\xb4\\xe9\\x94\\x81.sol\":882:886  1000 */\n      0x03e8\n        /* \"solidity\\xe9\\xab\\x98\\xe7\\xba\\xa7\\xe5\\xba\\x94\\xe7\\x94\\xa8/timelock\\xe6\\x97\\xb6\\xe9\\x97\\xb4\\xe9\\x94\\x81.sol\":3173:3188  block.timestamp */\n      timestamp\n        /* \"solidity\\xe9\\xab\\x98\\xe7\\xba\\xa7\\xe5\\xba\\x94\\xe7\\x94\\xa8/timelock\\xe6\\x97\\xb6\\xe9\\x97\\xb4\\xe9\\x94\\x81.sol\":3173:3200  block.timestamp + MAX_DELAY */\n      tag_92\n      swap2\n      swap1\n      tag_77\n      jump\t// in\n    tag_92:\n        /* \"solidity\\xe9\\xab\\x98\\xe7\\xba\\xa7\\xe5\\xba\\x94\\xe7\\x94\\xa8/timelock\\xe6\\x97\\xb6\\xe9\\x97\\xb4\\xe9\\x94\\x81.sol\":3161:3170  timestamp */\n      dup4\n        /* \"solidity\\xe9\\xab\\x98\\xe7\\xba\\xa7\\xe5\\xba\\x94\\xe7\\x94\\xa8/timelock\\xe6\\x97\\xb6\\xe9\\x97\\xb4\\xe9\\x94\\x81.sol\":3161:3200  timestamp > block.timestamp + MAX_DELAY */\n      gt\n        /* \"solidity\\xe9\\xab\\x98\\xe7\\xba\\xa7\\xe5\\xba\\x94\\xe7\\x94\\xa8/timelock\\xe6\\x97\\xb6\\xe9\\x97\\xb4\\xe9\\x94\\x81.sol\":3158:3261  if(timestamp > block.timestamp + MAX_DELAY) {... */\n      iszero\n      tag_93\n      jumpi\n        /* \"solidity\\xe9\\xab\\x98\\xe7\\xba\\xa7\\xe5\\xba\\x94\\xe7\\x94\\xa8/timelock\\xe6\\x97\\xb6\\xe9\\x97\\xb4\\xe9\\x94\\x81.sol\":3224:3249  TimeGreaterThanMaxError() */\n      mload(0x40)\n      0x85752acb00000000000000000000000000000000000000000000000000000000\n      dup2\n      mstore\n      0x04\n      add\n      mload(0x40)\n      dup1\n      swap2\n      sub\n      swap1\n      revert\n        /* \"solidity\\xe9\\xab\\x98\\xe7\\xba\\xa7\\xe5\\xba\\x94\\xe7\\x94\\xa8/timelock\\xe6\\x97\\xb6\\xe9\\x97\\xb4\\xe9\\x94\\x81.sol\":3158:3261  if(timestamp > block.timestamp + MAX_DELAY) {... */\n    tag_93:\n        /* \"solidity\\xe9\\xab\\x98\\xe7\\xba\\xa7\\xe5\\xba\\x94\\xe7\\x94\\xa8/timelock\\xe6\\x97\\xb6\\xe9\\x97\\xb4\\xe9\\x94\\x81.sol\":3284:3288  true */\n      0x01\n        /* \"solidity\\xe9\\xab\\x98\\xe7\\xba\\xa7\\xe5\\xba\\x94\\xe7\\x94\\xa8/timelock\\xe6\\x97\\xb6\\xe9\\x97\\xb4\\xe9\\x94\\x81.sol\":3271:3277  queued */\n      dup1\n        /* \"solidity\\xe9\\xab\\x98\\xe7\\xba\\xa7\\xe5\\xba\\x94\\xe7\\x94\\xa8/timelock\\xe6\\x97\\xb6\\xe9\\x97\\xb4\\xe9\\x94\\x81.sol\":3271:3281  queued[id] */\n      0x00\n        /* \"solidity\\xe9\\xab\\x98\\xe7\\xba\\xa7\\xe5\\xba\\x94\\xe7\\x94\\xa8/timelock\\xe6\\x97\\xb6\\xe9\\x97\\xb4\\xe9\\x94\\x81.sol\":3278:3280  id */\n      dup4\n        /* \"solidity\\xe9\\xab\\x98\\xe7\\xba\\xa7\\xe5\\xba\\x94\\xe7\\x94\\xa8/timelock\\xe6\\x97\\xb6\\xe9\\x97\\xb4\\xe9\\x94\\x81.sol\":3271:3281  queued[id] */\n      dup2\n      mstore\n      0x20\n      add\n      swap1\n      dup2\n      mstore\n      0x20\n      add\n      0x00\n      keccak256\n      0x00\n        /* \"solidity\\xe9\\xab\\x98\\xe7\\xba\\xa7\\xe5\\xba\\x94\\xe7\\x94\\xa8/timelock\\xe6\\x97\\xb6\\xe9\\x97\\xb4\\xe9\\x94\\x81.sol\":3271:3288  queued[id] = true */\n      0x0100\n      exp\n      dup2\n      sload\n      dup2\n      0xff\n      mul\n      not\n      and\n      swap1\n      dup4\n      iszero\n      iszero\n      mul\n      or\n      swap1\n      sstore\n      pop\n        /* \"solidity\\xe9\\xab\\x98\\xe7\\xba\\xa7\\xe5\\xba\\x94\\xe7\\x94\\xa8/timelock\\xe6\\x97\\xb6\\xe9\\x97\\xb4\\xe9\\x94\\x81.sol\":3299:3321  bytes memory funcBytes */\n      0x00\n        /* \"solidity\\xe9\\xab\\x98\\xe7\\xba\\xa7\\xe5\\xba\\x94\\xe7\\x94\\xa8/timelock\\xe6\\x97\\xb6\\xe9\\x97\\xb4\\xe9\\x94\\x81.sol\":3349:3357  funcName */\n      dup6\n        /* \"solidity\\xe9\\xab\\x98\\xe7\\xba\\xa7\\xe5\\xba\\x94\\xe7\\x94\\xa8/timelock\\xe6\\x97\\xb6\\xe9\\x97\\xb4\\xe9\\x94\\x81.sol\":3325:3358  abi.encodeWithSignature(funcName) */\n      add(0x24, mload(0x40))\n      mload(0x40)\n      0x20\n      dup2\n      dup4\n      sub\n      sub\n      dup2\n      mstore\n      swap1\n      0x40\n      mstore\n      swap1\n      mload(0x40)\n      tag_94\n      swap2\n      swap1\n      tag_95\n      jump\t// in\n    tag_94:\n      mload(0x40)\n      dup1\n      swap2\n      sub\n      swap1\n      keccak256\n      not(0xffffffffffffffffffffffffffffffffffffffffffffffffffffffff)\n      and\n      0x20\n      dup3\n      add\n      dup1\n      mload\n      0xffffffffffffffffffffffffffffffffffffffffffffffffffffffff\n      dup4\n      dup2\n      dup4\n      and\n      or\n      dup4\n      mstore\n      pop\n      pop\n      pop\n      pop\n        /* \"solidity\\xe9\\xab\\x98\\xe7\\xba\\xa7\\xe5\\xba\\x94\\xe7\\x94\\xa8/timelock\\xe6\\x97\\xb6\\xe9\\x97\\xb4\\xe9\\x94\\x81.sol\":3299:3358  bytes memory funcBytes =  abi.encodeWithSignature(funcName) */\n      swap1\n      pop\n        /* \"solidity\\xe9\\xab\\x98\\xe7\\xba\\xa7\\xe5\\xba\\x94\\xe7\\x94\\xa8/timelock\\xe6\\x97\\xb6\\xe9\\x97\\xb4\\xe9\\x94\\x81.sol\":3493:3505  bool success */\n      0x00\n        /* \"solidity\\xe9\\xab\\x98\\xe7\\xba\\xa7\\xe5\\xba\\x94\\xe7\\x94\\xa8/timelock\\xe6\\x97\\xb6\\xe9\\x97\\xb4\\xe9\\x94\\x81.sol\":3506:3525  bytes memory result */\n      0x00\n        /* \"solidity\\xe9\\xab\\x98\\xe7\\xba\\xa7\\xe5\\xba\\x94\\xe7\\x94\\xa8/timelock\\xe6\\x97\\xb6\\xe9\\x97\\xb4\\xe9\\x94\\x81.sol\":3530:3536  target */\n      dup10\n        /* \"solidity\\xe9\\xab\\x98\\xe7\\xba\\xa7\\xe5\\xba\\x94\\xe7\\x94\\xa8/timelock\\xe6\\x97\\xb6\\xe9\\x97\\xb4\\xe9\\x94\\x81.sol\":3530:3541  target.call */\n      0xffffffffffffffffffffffffffffffffffffffff\n      and\n        /* \"solidity\\xe9\\xab\\x98\\xe7\\xba\\xa7\\xe5\\xba\\x94\\xe7\\x94\\xa8/timelock\\xe6\\x97\\xb6\\xe9\\x97\\xb4\\xe9\\x94\\x81.sol\":3549:3555  amount */\n      dup10\n        /* \"solidity\\xe9\\xab\\x98\\xe7\\xba\\xa7\\xe5\\xba\\x94\\xe7\\x94\\xa8/timelock\\xe6\\x97\\xb6\\xe9\\x97\\xb4\\xe9\\x94\\x81.sol\":3557:3566  funcBytes */\n      dup5\n        /* \"solidity\\xe9\\xab\\x98\\xe7\\xba\\xa7\\xe5\\xba\\x94\\xe7\\x94\\xa8/timelock\\xe6\\x97\\xb6\\xe9\\x97\\xb4\\xe9\\x94\\x81.sol\":3530:3567  target.call{value: amount}(funcBytes) */\n      mload(0x40)\n      tag_96\n      swap2\n      swap1\n      tag_97\n      jump\t// in\n    tag_96:\n      0x00\n      mload(0x40)\n      dup1\n      dup4\n      sub\n      dup2\n      dup6\n      dup8\n      gas\n      call\n      swap3\n      pop\n      pop\n      pop\n      returndatasize\n      dup1\n      0x00\n      dup2\n      eq\n      tag_100\n      jumpi\n      mload(0x40)\n      swap2\n      pop\n      and(add(returndatasize, 0x3f), not(0x1f))\n      dup3\n      add\n      0x40\n      mstore\n      returndatasize\n      dup3\n      mstore\n      returndatasize\n      0x00\n      0x20\n      dup5\n      add\n      returndatacopy\n      jump(tag_99)\n    tag_100:\n      0x60\n      swap2\n      pop\n    tag_99:\n      pop\n        /* \"solidity\\xe9\\xab\\x98\\xe7\\xba\\xa7\\xe5\\xba\\x94\\xe7\\x94\\xa8/timelock\\xe6\\x97\\xb6\\xe9\\x97\\xb4\\xe9\\x94\\x81.sol\":3492:3567  (bool success,bytes memory result) =  target.call{value: amount}(funcBytes) */\n      swap2\n      pop\n      swap2\n      pop\n        /* \"solidity\\xe9\\xab\\x98\\xe7\\xba\\xa7\\xe5\\xba\\x94\\xe7\\x94\\xa8/timelock\\xe6\\x97\\xb6\\xe9\\x97\\xb4\\xe9\\x94\\x81.sol\":3586:3593  success */\n      dup2\n        /* \"solidity\\xe9\\xab\\x98\\xe7\\xba\\xa7\\xe5\\xba\\x94\\xe7\\x94\\xa8/timelock\\xe6\\x97\\xb6\\xe9\\x97\\xb4\\xe9\\x94\\x81.sol\":3578:3608  require(success,\"call failed\") */\n      tag_101\n      jumpi\n      mload(0x40)\n      0x08c379a000000000000000000000000000000000000000000000000000000000\n      dup2\n      mstore\n      0x04\n      add\n      tag_102\n      swap1\n      tag_103\n      jump\t// in\n    tag_102:\n      mload(0x40)\n      dup1\n      swap2\n      sub\n      swap1\n      revert\n    tag_101:\n        /* \"solidity\\xe9\\xab\\x98\\xe7\\xba\\xa7\\xe5\\xba\\x94\\xe7\\x94\\xa8/timelock\\xe6\\x97\\xb6\\xe9\\x97\\xb4\\xe9\\x94\\x81.sol\":3637:3639  id */\n      dup4\n        /* \"solidity\\xe9\\xab\\x98\\xe7\\xba\\xa7\\xe5\\xba\\x94\\xe7\\x94\\xa8/timelock\\xe6\\x97\\xb6\\xe9\\x97\\xb4\\xe9\\x94\\x81.sol\":3626:3683  ExecuteLog(id, target, amount, funcName, data, timestamp) */\n      0x0a6ac5f65540bed13380f2fac3ddfe077ab0d357da7f8d82407b39b034cea76c\n        /* \"solidity\\xe9\\xab\\x98\\xe7\\xba\\xa7\\xe5\\xba\\x94\\xe7\\x94\\xa8/timelock\\xe6\\x97\\xb6\\xe9\\x97\\xb4\\xe9\\x94\\x81.sol\":3641:3647  target */\n      dup12\n        /* \"solidity\\xe9\\xab\\x98\\xe7\\xba\\xa7\\xe5\\xba\\x94\\xe7\\x94\\xa8/timelock\\xe6\\x97\\xb6\\xe9\\x97\\xb4\\xe9\\x94\\x81.sol\":3649:3655  amount */\n      dup12\n        /* \"solidity\\xe9\\xab\\x98\\xe7\\xba\\xa7\\xe5\\xba\\x94\\xe7\\x94\\xa8/timelock\\xe6\\x97\\xb6\\xe9\\x97\\xb4\\xe9\\x94\\x81.sol\":3657:3665  funcName */\n      dup12\n        /* \"solidity\\xe9\\xab\\x98\\xe7\\xba\\xa7\\xe5\\xba\\x94\\xe7\\x94\\xa8/timelock\\xe6\\x97\\xb6\\xe9\\x97\\xb4\\xe9\\x94\\x81.sol\":3667:3671  data */\n      dup12\n        /* \"solidity\\xe9\\xab\\x98\\xe7\\xba\\xa7\\xe5\\xba\\x94\\xe7\\x94\\xa8/timelock\\xe6\\x97\\xb6\\xe9\\x97\\xb4\\xe9\\x94\\x81.sol\":3673:3682  timestamp */\n      dup12\n        /* \"solidity\\xe9\\xab\\x98\\xe7\\xba\\xa7\\xe5\\xba\\x94\\xe7\\x94\\xa8/timelock\\xe6\\x97\\xb6\\xe9\\x97\\xb4\\xe9\\x94\\x81.sol\":3626:3683  ExecuteLog(id, target, amount, funcName, data, timestamp) */\n      mload(0x40)\n      tag_104\n      swap6\n      swap5\n      swap4\n      swap3\n      swap2\n      swap1\n      tag_82\n      jump\t// in\n    tag_104:\n      mload(0x40)\n      dup1\n      swap2\n      sub\n      swap1\n      log2\n        /* \"solidity\\xe9\\xab\\x98\\xe7\\xba\\xa7\\xe5\\xba\\x94\\xe7\\x94\\xa8/timelock\\xe6\\x97\\xb6\\xe9\\x97\\xb4\\xe9\\x94\\x81.sol\":3701:3707  result */\n      dup1\n        /* \"solidity\\xe9\\xab\\x98\\xe7\\xba\\xa7\\xe5\\xba\\x94\\xe7\\x94\\xa8/timelock\\xe6\\x97\\xb6\\xe9\\x97\\xb4\\xe9\\x94\\x81.sol\":3694:3707  return result */\n      swap5\n      pop\n      pop\n      pop\n      pop\n      pop\n        /* \"solidity\\xe9\\xab\\x98\\xe7\\xba\\xa7\\xe5\\xba\\x94\\xe7\\x94\\xa8/timelock\\xe6\\x97\\xb6\\xe9\\x97\\xb4\\xe9\\x94\\x81.sol\":2726:3715  function execute(... */\n      swap6\n      swap5\n      pop\n      pop\n      pop\n      pop\n      pop\n      jump\t// out\n        /* \"solidity\\xe9\\xab\\x98\\xe7\\xba\\xa7\\xe5\\xba\\x94\\xe7\\x94\\xa8/timelock\\xe6\\x97\\xb6\\xe9\\x97\\xb4\\xe9\\x94\\x81.sol\":893:933  uint public constant GRACE_PERIOD = 1000 */\n    tag_59:\n        /* \"solidity\\xe9\\xab\\x98\\xe7\\xba\\xa7\\xe5\\xba\\x94\\xe7\\x94\\xa8/timelock\\xe6\\x97\\xb6\\xe9\\x97\\xb4\\xe9\\x94\\x81.sol\":929:933  1000 */\n      0x03e8\n        /* \"solidity\\xe9\\xab\\x98\\xe7\\xba\\xa7\\xe5\\xba\\x94\\xe7\\x94\\xa8/timelock\\xe6\\x97\\xb6\\xe9\\x97\\xb4\\xe9\\x94\\x81.sol\":893:933  uint public constant GRACE_PERIOD = 1000 */\n      dup2\n      jump\t// out\n        /* \"#utility.yul\":7:82   */\n    tag_105:\n        /* \"#utility.yul\":40:46   */\n      0x00\n        /* \"#utility.yul\":73:75   */\n      0x40\n        /* \"#utility.yul\":67:76   */\n      mload\n        /* \"#utility.yul\":57:76   */\n      swap1\n      pop\n        /* \"#utility.yul\":7:82   */\n      swap1\n      jump\t// out\n        /* \"#utility.yul\":88:205   */\n    tag_106:\n        /* \"#utility.yul\":197:198   */\n      0x00\n        /* \"#utility.yul\":194:195   */\n      0x00\n        /* \"#utility.yul\":187:199   */\n      revert\n        /* \"#utility.yul\":211:328   */\n    tag_107:\n        /* \"#utility.yul\":320:321   */\n      0x00\n        /* \"#utility.yul\":317:318   */\n      0x00\n        /* \"#utility.yul\":310:322   */\n      revert\n        /* \"#utility.yul\":334:411   */\n    tag_108:\n        /* \"#utility.yul\":371:378   */\n      0x00\n        /* \"#utility.yul\":400:405   */\n      dup2\n        /* \"#utility.yul\":389:405   */\n      swap1\n      pop\n        /* \"#utility.yul\":334:411   */\n      swap2\n      swap1\n      pop\n      jump\t// out\n        /* \"#utility.yul\":417:539   */\n    tag_109:\n        /* \"#utility.yul\":490:514   */\n      tag_164\n        /* \"#utility.yul\":508:513   */\n      dup2\n        /* \"#utility.yul\":490:514   */\n      tag_108\n      jump\t// in\n    tag_164:\n        /* \"#utility.yul\":483:488   */\n      dup2\n        /* \"#utility.yul\":480:515   */\n      eq\n        /* \"#utility.yul\":470:533   */\n      tag_165\n      jumpi\n        /* \"#utility.yul\":529:530   */\n      0x00\n        /* \"#utility.yul\":526:527   */\n      0x00\n        /* \"#utility.yul\":519:531   */\n      revert\n        /* \"#utility.yul\":470:533   */\n    tag_165:\n        /* \"#utility.yul\":417:539   */\n      pop\n      jump\t// out\n        /* \"#utility.yul\":545:684   */\n    tag_110:\n        /* \"#utility.yul\":591:596   */\n      0x00\n        /* \"#utility.yul\":629:635   */\n      dup2\n        /* \"#utility.yul\":616:636   */\n      calldataload\n        /* \"#utility.yul\":607:636   */\n      swap1\n      pop\n        /* \"#utility.yul\":645:678   */\n      tag_167\n        /* \"#utility.yul\":672:677   */\n      dup2\n        /* \"#utility.yul\":645:678   */\n      tag_109\n      jump\t// in\n    tag_167:\n        /* \"#utility.yul\":545:684   */\n      swap3\n      swap2\n      pop\n      pop\n      jump\t// out\n        /* \"#utility.yul\":690:1019   */\n    tag_18:\n        /* \"#utility.yul\":749:755   */\n      0x00\n        /* \"#utility.yul\":798:800   */\n      0x20\n        /* \"#utility.yul\":786:795   */\n      dup3\n        /* \"#utility.yul\":777:784   */\n      dup5\n        /* \"#utility.yul\":773:796   */\n      sub\n        /* \"#utility.yul\":769:801   */\n      slt\n        /* \"#utility.yul\":766:885   */\n      iszero\n      tag_169\n      jumpi\n        /* \"#utility.yul\":804:883   */\n      tag_170\n      tag_106\n      jump\t// in\n    tag_170:\n        /* \"#utility.yul\":766:885   */\n    tag_169:\n        /* \"#utility.yul\":924:925   */\n      0x00\n        /* \"#utility.yul\":949:1002   */\n      tag_171\n        /* \"#utility.yul\":994:1001   */\n      dup5\n        /* \"#utility.yul\":985:991   */\n      dup3\n        /* \"#utility.yul\":974:983   */\n      dup6\n        /* \"#utility.yul\":970:992   */\n      add\n        /* \"#utility.yul\":949:1002   */\n      tag_110\n      jump\t// in\n    tag_171:\n        /* \"#utility.yul\":939:1002   */\n      swap2\n      pop\n        /* \"#utility.yul\":895:1012   */\n      pop\n        /* \"#utility.yul\":690:1019   */\n      swap3\n      swap2\n      pop\n      pop\n      jump\t// out\n        /* \"#utility.yul\":1025:1115   */\n    tag_111:\n        /* \"#utility.yul\":1059:1066   */\n      0x00\n        /* \"#utility.yul\":1102:1107   */\n      dup2\n        /* \"#utility.yul\":1095:1108   */\n      iszero\n        /* \"#utility.yul\":1088:1109   */\n      iszero\n        /* \"#utility.yul\":1077:1109   */\n      swap1\n      pop\n        /* \"#utility.yul\":1025:1115   */\n      swap2\n      swap1\n      pop\n      jump\t// out\n        /* \"#utility.yul\":1121:1230   */\n    tag_112:\n        /* \"#utility.yul\":1202:1223   */\n      tag_174\n        /* \"#utility.yul\":1217:1222   */\n      dup2\n        /* \"#utility.yul\":1202:1223   */\n      tag_111\n      jump\t// in\n    tag_174:\n        /* \"#utility.yul\":1197:1200   */\n      dup3\n        /* \"#utility.yul\":1190:1224   */\n      mstore\n        /* \"#utility.yul\":1121:1230   */\n      pop\n      pop\n      jump\t// out\n        /* \"#utility.yul\":1236:1446   */\n    tag_25:\n        /* \"#utility.yul\":1323:1327   */\n      0x00\n        /* \"#utility.yul\":1361:1363   */\n      0x20\n        /* \"#utility.yul\":1350:1359   */\n      dup3\n        /* \"#utility.yul\":1346:1364   */\n      add\n        /* \"#utility.yul\":1338:1364   */\n      swap1\n      pop\n        /* \"#utility.yul\":1374:1439   */\n      tag_176\n        /* \"#utility.yul\":1436:1437   */\n      0x00\n        /* \"#utility.yul\":1425:1434   */\n      dup4\n        /* \"#utility.yul\":1421:1438   */\n      add\n        /* \"#utility.yul\":1412:1418   */\n      dup5\n        /* \"#utility.yul\":1374:1439   */\n      tag_112\n      jump\t// in\n    tag_176:\n        /* \"#utility.yul\":1236:1446   */\n      swap3\n      swap2\n      pop\n      pop\n      jump\t// out\n        /* \"#utility.yul\":1452:1529   */\n    tag_113:\n        /* \"#utility.yul\":1489:1496   */\n      0x00\n        /* \"#utility.yul\":1518:1523   */\n      dup2\n        /* \"#utility.yul\":1507:1523   */\n      swap1\n      pop\n        /* \"#utility.yul\":1452:1529   */\n      swap2\n      swap1\n      pop\n      jump\t// out\n        /* \"#utility.yul\":1535:1653   */\n    tag_114:\n        /* \"#utility.yul\":1622:1646   */\n      tag_179\n        /* \"#utility.yul\":1640:1645   */\n      dup2\n        /* \"#utility.yul\":1622:1646   */\n      tag_113\n      jump\t// in\n    tag_179:\n        /* \"#utility.yul\":1617:1620   */\n      dup3\n        /* \"#utility.yul\":1610:1647   */\n      mstore\n        /* \"#utility.yul\":1535:1653   */\n      pop\n      pop\n      jump\t// out\n        /* \"#utility.yul\":1659:1881   */\n    tag_30:\n        /* \"#utility.yul\":1752:1756   */\n      0x00\n        /* \"#utility.yul\":1790:1792   */\n      0x20\n        /* \"#utility.yul\":1779:1788   */\n      dup3\n        /* \"#utility.yul\":1775:1793   */\n      add\n        /* \"#utility.yul\":1767:1793   */\n      swap1\n      pop\n        /* \"#utility.yul\":1803:1874   */\n      tag_181\n        /* \"#utility.yul\":1871:1872   */\n      0x00\n        /* \"#utility.yul\":1860:1869   */\n      dup4\n        /* \"#utility.yul\":1856:1873   */\n      add\n        /* \"#utility.yul\":1847:1853   */\n      dup5\n        /* \"#utility.yul\":1803:1874   */\n      tag_114\n      jump\t// in\n    tag_181:\n        /* \"#utility.yul\":1659:1881   */\n      swap3\n      swap2\n      pop\n      pop\n      jump\t// out\n        /* \"#utility.yul\":1887:2013   */\n    tag_115:\n        /* \"#utility.yul\":1924:1931   */\n      0x00\n        /* \"#utility.yul\":1964:2006   */\n      0xffffffffffffffffffffffffffffffffffffffff\n        /* \"#utility.yul\":1957:1962   */\n      dup3\n        /* \"#utility.yul\":1953:2007   */\n      and\n        /* \"#utility.yul\":1942:2007   */\n      swap1\n      pop\n        /* \"#utility.yul\":1887:2013   */\n      swap2\n      swap1\n      pop\n      jump\t// out\n        /* \"#utility.yul\":2019:2115   */\n    tag_116:\n        /* \"#utility.yul\":2056:2063   */\n      0x00\n        /* \"#utility.yul\":2085:2109   */\n      tag_184\n        /* \"#utility.yul\":2103:2108   */\n      dup3\n        /* \"#utility.yul\":2085:2109   */\n      tag_115\n      jump\t// in\n    tag_184:\n        /* \"#utility.yul\":2074:2109   */\n      swap1\n      pop\n        /* \"#utility.yul\":2019:2115   */\n      swap2\n      swap1\n      pop\n      jump\t// out\n        /* \"#utility.yul\":2121:2243   */\n    tag_117:\n        /* \"#utility.yul\":2194:2218   */\n      tag_186\n        /* \"#utility.yul\":2212:2217   */\n      dup2\n        /* \"#utility.yul\":2194:2218   */\n      tag_116\n      jump\t// in\n    tag_186:\n        /* \"#utility.yul\":2187:2192   */\n      dup2\n        /* \"#utility.yul\":2184:2219   */\n      eq\n        /* \"#utility.yul\":2174:2237   */\n      tag_187\n      jumpi\n        /* \"#utility.yul\":2233:2234   */\n      0x00\n        /* \"#utility.yul\":2230:2231   */\n      0x00\n        /* \"#utility.yul\":2223:2235   */\n      revert\n        /* \"#utility.yul\":2174:2237   */\n    tag_187:\n        /* \"#utility.yul\":2121:2243   */\n      pop\n      jump\t// out\n        /* \"#utility.yul\":2249:2388   */\n    tag_118:\n        /* \"#utility.yul\":2295:2300   */\n      0x00\n        /* \"#utility.yul\":2333:2339   */\n      dup2\n        /* \"#utility.yul\":2320:2340   */\n      calldataload\n        /* \"#utility.yul\":2311:2340   */\n      swap1\n      pop\n        /* \"#utility.yul\":2349:2382   */\n      tag_189\n        /* \"#utility.yul\":2376:2381   */\n      dup2\n        /* \"#utility.yul\":2349:2382   */\n      tag_117\n      jump\t// in\n    tag_189:\n        /* \"#utility.yul\":2249:2388   */\n      swap3\n      swap2\n      pop\n      pop\n      jump\t// out\n        /* \"#utility.yul\":2394:2516   */\n    tag_119:\n        /* \"#utility.yul\":2467:2491   */\n      tag_191\n        /* \"#utility.yul\":2485:2490   */\n      dup2\n        /* \"#utility.yul\":2467:2491   */\n      tag_113\n      jump\t// in\n    tag_191:\n        /* \"#utility.yul\":2460:2465   */\n      dup2\n        /* \"#utility.yul\":2457:2492   */\n      eq\n        /* \"#utility.yul\":2447:2510   */\n      tag_192\n      jumpi\n        /* \"#utility.yul\":2506:2507   */\n      0x00\n        /* \"#utility.yul\":2503:2504   */\n      0x00\n        /* \"#utility.yul\":2496:2508   */\n      revert\n        /* \"#utility.yul\":2447:2510   */\n    tag_192:\n        /* \"#utility.yul\":2394:2516   */\n      pop\n      jump\t// out\n        /* \"#utility.yul\":2522:2661   */\n    tag_120:\n        /* \"#utility.yul\":2568:2573   */\n      0x00\n        /* \"#utility.yul\":2606:2612   */\n      dup2\n        /* \"#utility.yul\":2593:2613   */\n      calldataload\n        /* \"#utility.yul\":2584:2613   */\n      swap1\n      pop\n        /* \"#utility.yul\":2622:2655   */\n      tag_194\n        /* \"#utility.yul\":2649:2654   */\n      dup2\n        /* \"#utility.yul\":2622:2655   */\n      tag_119\n      jump\t// in\n    tag_194:\n        /* \"#utility.yul\":2522:2661   */\n      swap3\n      swap2\n      pop\n      pop\n      jump\t// out\n        /* \"#utility.yul\":2667:2784   */\n    tag_121:\n        /* \"#utility.yul\":2776:2777   */\n      0x00\n        /* \"#utility.yul\":2773:2774   */\n      0x00\n        /* \"#utility.yul\":2766:2778   */\n      revert\n        /* \"#utility.yul\":2790:2907   */\n    tag_122:\n        /* \"#utility.yul\":2899:2900   */\n      0x00\n        /* \"#utility.yul\":2896:2897   */\n      0x00\n        /* \"#utility.yul\":2889:2901   */\n      revert\n        /* \"#utility.yul\":2913:3015   */\n    tag_123:\n        /* \"#utility.yul\":2954:2960   */\n      0x00\n        /* \"#utility.yul\":3005:3007   */\n      0x1f\n        /* \"#utility.yul\":3001:3008   */\n      not\n        /* \"#utility.yul\":2996:2998   */\n      0x1f\n        /* \"#utility.yul\":2989:2994   */\n      dup4\n        /* \"#utility.yul\":2985:2999   */\n      add\n        /* \"#utility.yul\":2981:3009   */\n      and\n        /* \"#utility.yul\":2971:3009   */\n      swap1\n      pop\n        /* \"#utility.yul\":2913:3015   */\n      swap2\n      swap1\n      pop\n      jump\t// out\n        /* \"#utility.yul\":3021:3201   */\n    tag_124:\n        /* \"#utility.yul\":3069:3146   */\n      0x4e487b7100000000000000000000000000000000000000000000000000000000\n        /* \"#utility.yul\":3066:3067   */\n      0x00\n        /* \"#utility.yul\":3059:3147   */\n      mstore\n        /* \"#utility.yul\":3166:3170   */\n      0x41\n        /* \"#utility.yul\":3163:3164   */\n      0x04\n        /* \"#utility.yul\":3156:3171   */\n      mstore\n        /* \"#utility.yul\":3190:3194   */\n      0x24\n        /* \"#utility.yul\":3187:3188   */\n      0x00\n        /* \"#utility.yul\":3180:3195   */\n      revert\n        /* \"#utility.yul\":3207:3488   */\n    tag_125:\n        /* \"#utility.yul\":3290:3317   */\n      tag_200\n        /* \"#utility.yul\":3312:3316   */\n      dup3\n        /* \"#utility.yul\":3290:3317   */\n      tag_123\n      jump\t// in\n    tag_200:\n        /* \"#utility.yul\":3282:3288   */\n      dup2\n        /* \"#utility.yul\":3278:3318   */\n      add\n        /* \"#utility.yul\":3420:3426   */\n      dup2\n        /* \"#utility.yul\":3408:3418   */\n      dup2\n        /* \"#utility.yul\":3405:3427   */\n      lt\n        /* \"#utility.yul\":3384:3402   */\n      0xffffffffffffffff\n        /* \"#utility.yul\":3372:3382   */\n      dup3\n        /* \"#utility.yul\":3369:3403   */\n      gt\n        /* \"#utility.yul\":3366:3428   */\n      or\n        /* \"#utility.yul\":3363:3451   */\n      iszero\n      tag_201\n      jumpi\n        /* \"#utility.yul\":3431:3449   */\n      tag_202\n      tag_124\n      jump\t// in\n    tag_202:\n        /* \"#utility.yul\":3363:3451   */\n    tag_201:\n        /* \"#utility.yul\":3471:3481   */\n      dup1\n        /* \"#utility.yul\":3467:3469   */\n      0x40\n        /* \"#utility.yul\":3460:3482   */\n      mstore\n        /* \"#utility.yul\":3250:3488   */\n      pop\n        /* \"#utility.yul\":3207:3488   */\n      pop\n      pop\n      jump\t// out\n        /* \"#utility.yul\":3494:3623   */\n    tag_126:\n        /* \"#utility.yul\":3528:3534   */\n      0x00\n        /* \"#utility.yul\":3555:3575   */\n      tag_204\n      tag_105\n      jump\t// in\n    tag_204:\n        /* \"#utility.yul\":3545:3575   */\n      swap1\n      pop\n        /* \"#utility.yul\":3584:3617   */\n      tag_205\n        /* \"#utility.yul\":3612:3616   */\n      dup3\n        /* \"#utility.yul\":3604:3610   */\n      dup3\n        /* \"#utility.yul\":3584:3617   */\n      tag_125\n      jump\t// in\n    tag_205:\n        /* \"#utility.yul\":3494:3623   */\n      swap2\n      swap1\n      pop\n      jump\t// out\n        /* \"#utility.yul\":3629:3937   */\n    tag_127:\n        /* \"#utility.yul\":3691:3695   */\n      0x00\n        /* \"#utility.yul\":3781:3799   */\n      0xffffffffffffffff\n        /* \"#utility.yul\":3773:3779   */\n      dup3\n        /* \"#utility.yul\":3770:3800   */\n      gt\n        /* \"#utility.yul\":3767:3823   */\n      iszero\n      tag_207\n      jumpi\n        /* \"#utility.yul\":3803:3821   */\n      tag_208\n      tag_124\n      jump\t// in\n    tag_208:\n        /* \"#utility.yul\":3767:3823   */\n    tag_207:\n        /* \"#utility.yul\":3841:3870   */\n      tag_209\n        /* \"#utility.yul\":3863:3869   */\n      dup3\n        /* \"#utility.yul\":3841:3870   */\n      tag_123\n      jump\t// in\n    tag_209:\n        /* \"#utility.yul\":3833:3870   */\n      swap1\n      pop\n        /* \"#utility.yul\":3925:3929   */\n      0x20\n        /* \"#utility.yul\":3919:3923   */\n      dup2\n        /* \"#utility.yul\":3915:3930   */\n      add\n        /* \"#utility.yul\":3907:3930   */\n      swap1\n      pop\n        /* \"#utility.yul\":3629:3937   */\n      swap2\n      swap1\n      pop\n      jump\t// out\n        /* \"#utility.yul\":3943:4091   */\n    tag_128:\n        /* \"#utility.yul\":4041:4047   */\n      dup3\n        /* \"#utility.yul\":4036:4039   */\n      dup2\n        /* \"#utility.yul\":4031:4034   */\n      dup4\n        /* \"#utility.yul\":4018:4048   */\n      calldatacopy\n        /* \"#utility.yul\":4082:4083   */\n      0x00\n        /* \"#utility.yul\":4073:4079   */\n      dup4\n        /* \"#utility.yul\":4068:4071   */\n      dup4\n        /* \"#utility.yul\":4064:4080   */\n      add\n        /* \"#utility.yul\":4057:4084   */\n      mstore\n        /* \"#utility.yul\":3943:4091   */\n      pop\n      pop\n      pop\n      jump\t// out\n        /* \"#utility.yul\":4097:4522   */\n    tag_129:\n        /* \"#utility.yul\":4175:4180   */\n      0x00\n        /* \"#utility.yul\":4200:4266   */\n      tag_212\n        /* \"#utility.yul\":4216:4265   */\n      tag_213\n        /* \"#utility.yul\":4258:4264   */\n      dup5\n        /* \"#utility.yul\":4216:4265   */\n      tag_127\n      jump\t// in\n    tag_213:\n        /* \"#utility.yul\":4200:4266   */\n      tag_126\n      jump\t// in\n    tag_212:\n        /* \"#utility.yul\":4191:4266   */\n      swap1\n      pop\n        /* \"#utility.yul\":4289:4295   */\n      dup3\n        /* \"#utility.yul\":4282:4287   */\n      dup2\n        /* \"#utility.yul\":4275:4296   */\n      mstore\n        /* \"#utility.yul\":4327:4331   */\n      0x20\n        /* \"#utility.yul\":4320:4325   */\n      dup2\n        /* \"#utility.yul\":4316:4332   */\n      add\n        /* \"#utility.yul\":4365:4368   */\n      dup5\n        /* \"#utility.yul\":4356:4362   */\n      dup5\n        /* \"#utility.yul\":4351:4354   */\n      dup5\n        /* \"#utility.yul\":4347:4363   */\n      add\n        /* \"#utility.yul\":4344:4369   */\n      gt\n        /* \"#utility.yul\":4341:4453   */\n      iszero\n      tag_214\n      jumpi\n        /* \"#utility.yul\":4372:4451   */\n      tag_215\n      tag_122\n      jump\t// in\n    tag_215:\n        /* \"#utility.yul\":4341:4453   */\n    tag_214:\n        /* \"#utility.yul\":4462:4516   */\n      tag_216\n        /* \"#utility.yul\":4509:4515   */\n      dup5\n        /* \"#utility.yul\":4504:4507   */\n      dup3\n        /* \"#utility.yul\":4499:4502   */\n      dup6\n        /* \"#utility.yul\":4462:4516   */\n      tag_128\n      jump\t// in\n    tag_216:\n        /* \"#utility.yul\":4181:4522   */\n      pop\n        /* \"#utility.yul\":4097:4522   */\n      swap4\n      swap3\n      pop\n      pop\n      pop\n      jump\t// out\n        /* \"#utility.yul\":4542:4882   */\n    tag_130:\n        /* \"#utility.yul\":4598:4603   */\n      0x00\n        /* \"#utility.yul\":4647:4650   */\n      dup3\n        /* \"#utility.yul\":4640:4644   */\n      0x1f\n        /* \"#utility.yul\":4632:4638   */\n      dup4\n        /* \"#utility.yul\":4628:4645   */\n      add\n        /* \"#utility.yul\":4624:4651   */\n      slt\n        /* \"#utility.yul\":4614:4736   */\n      tag_218\n      jumpi\n        /* \"#utility.yul\":4655:4734   */\n      tag_219\n      tag_121\n      jump\t// in\n    tag_219:\n        /* \"#utility.yul\":4614:4736   */\n    tag_218:\n        /* \"#utility.yul\":4772:4778   */\n      dup2\n        /* \"#utility.yul\":4759:4779   */\n      calldataload\n        /* \"#utility.yul\":4797:4876   */\n      tag_220\n        /* \"#utility.yul\":4872:4875   */\n      dup5\n        /* \"#utility.yul\":4864:4870   */\n      dup3\n        /* \"#utility.yul\":4857:4861   */\n      0x20\n        /* \"#utility.yul\":4849:4855   */\n      dup7\n        /* \"#utility.yul\":4845:4862   */\n      add\n        /* \"#utility.yul\":4797:4876   */\n      tag_129\n      jump\t// in\n    tag_220:\n        /* \"#utility.yul\":4788:4876   */\n      swap2\n      pop\n        /* \"#utility.yul\":4604:4882   */\n      pop\n        /* \"#utility.yul\":4542:4882   */\n      swap3\n      swap2\n      pop\n      pop\n      jump\t// out\n        /* \"#utility.yul\":4888:5195   */\n    tag_131:\n        /* \"#utility.yul\":4949:4953   */\n      0x00\n        /* \"#utility.yul\":5039:5057   */\n      0xffffffffffffffff\n        /* \"#utility.yul\":5031:5037   */\n      dup3\n        /* \"#utility.yul\":5028:5058   */\n      gt\n        /* \"#utility.yul\":5025:5081   */\n      iszero\n      tag_222\n      jumpi\n        /* \"#utility.yul\":5061:5079   */\n      tag_223\n      tag_124\n      jump\t// in\n    tag_223:\n        /* \"#utility.yul\":5025:5081   */\n    tag_222:\n        /* \"#utility.yul\":5099:5128   */\n      tag_224\n        /* \"#utility.yul\":5121:5127   */\n      dup3\n        /* \"#utility.yul\":5099:5128   */\n      tag_123\n      jump\t// in\n    tag_224:\n        /* \"#utility.yul\":5091:5128   */\n      swap1\n      pop\n        /* \"#utility.yul\":5183:5187   */\n      0x20\n        /* \"#utility.yul\":5177:5181   */\n      dup2\n        /* \"#utility.yul\":5173:5188   */\n      add\n        /* \"#utility.yul\":5165:5188   */\n      swap1\n      pop\n        /* \"#utility.yul\":4888:5195   */\n      swap2\n      swap1\n      pop\n      jump\t// out\n        /* \"#utility.yul\":5201:5624   */\n    tag_132:\n        /* \"#utility.yul\":5278:5283   */\n      0x00\n        /* \"#utility.yul\":5303:5368   */\n      tag_226\n        /* \"#utility.yul\":5319:5367   */\n      tag_227\n        /* \"#utility.yul\":5360:5366   */\n      dup5\n        /* \"#utility.yul\":5319:5367   */\n      tag_131\n      jump\t// in\n    tag_227:\n        /* \"#utility.yul\":5303:5368   */\n      tag_126\n      jump\t// in\n    tag_226:\n        /* \"#utility.yul\":5294:5368   */\n      swap1\n      pop\n        /* \"#utility.yul\":5391:5397   */\n      dup3\n        /* \"#utility.yul\":5384:5389   */\n      dup2\n        /* \"#utility.yul\":5377:5398   */\n      mstore\n        /* \"#utility.yul\":5429:5433   */\n      0x20\n        /* \"#utility.yul\":5422:5427   */\n      dup2\n        /* \"#utility.yul\":5418:5434   */\n      add\n        /* \"#utility.yul\":5467:5470   */\n      dup5\n        /* \"#utility.yul\":5458:5464   */\n      dup5\n        /* \"#utility.yul\":5453:5456   */\n      dup5\n        /* \"#utility.yul\":5449:5465   */\n      add\n        /* \"#utility.yul\":5446:5471   */\n      gt\n        /* \"#utility.yul\":5443:5555   */\n      iszero\n      tag_228\n      jumpi\n        /* \"#utility.yul\":5474:5553   */\n      tag_229\n      tag_122\n      jump\t// in\n    tag_229:\n        /* \"#utility.yul\":5443:5555   */\n    tag_228:\n        /* \"#utility.yul\":5564:5618   */\n      tag_230\n        /* \"#utility.yul\":5611:5617   */\n      dup5\n        /* \"#utility.yul\":5606:5609   */\n      dup3\n        /* \"#utility.yul\":5601:5604   */\n      dup6\n        /* \"#utility.yul\":5564:5618   */\n      tag_128\n      jump\t// in\n    tag_230:\n        /* \"#utility.yul\":5284:5624   */\n      pop\n        /* \"#utility.yul\":5201:5624   */\n      swap4\n      swap3\n      pop\n      pop\n      pop\n      jump\t// out\n        /* \"#utility.yul\":5643:5981   */\n    tag_133:\n        /* \"#utility.yul\":5698:5703   */\n      0x00\n        /* \"#utility.yul\":5747:5750   */\n      dup3\n        /* \"#utility.yul\":5740:5744   */\n      0x1f\n        /* \"#utility.yul\":5732:5738   */\n      dup4\n        /* \"#utility.yul\":5728:5745   */\n      add\n        /* \"#utility.yul\":5724:5751   */\n      slt\n        /* \"#utility.yul\":5714:5836   */\n      tag_232\n      jumpi\n        /* \"#utility.yul\":5755:5834   */\n      tag_233\n      tag_121\n      jump\t// in\n    tag_233:\n        /* \"#utility.yul\":5714:5836   */\n    tag_232:\n        /* \"#utility.yul\":5872:5878   */\n      dup2\n        /* \"#utility.yul\":5859:5879   */\n      calldataload\n        /* \"#utility.yul\":5897:5975   */\n      tag_234\n        /* \"#utility.yul\":5971:5974   */\n      dup5\n        /* \"#utility.yul\":5963:5969   */\n      dup3\n        /* \"#utility.yul\":5956:5960   */\n      0x20\n        /* \"#utility.yul\":5948:5954   */\n      dup7\n        /* \"#utility.yul\":5944:5961   */\n      add\n        /* \"#utility.yul\":5897:5975   */\n      tag_132\n      jump\t// in\n    tag_234:\n        /* \"#utility.yul\":5888:5975   */\n      swap2\n      pop\n        /* \"#utility.yul\":5704:5981   */\n      pop\n        /* \"#utility.yul\":5643:5981   */\n      swap3\n      swap2\n      pop\n      pop\n      jump\t// out\n        /* \"#utility.yul\":5987:7256   */\n    tag_34:\n        /* \"#utility.yul\":6101:6107   */\n      0x00\n        /* \"#utility.yul\":6109:6115   */\n      0x00\n        /* \"#utility.yul\":6117:6123   */\n      0x00\n        /* \"#utility.yul\":6125:6131   */\n      0x00\n        /* \"#utility.yul\":6133:6139   */\n      0x00\n        /* \"#utility.yul\":6182:6185   */\n      0xa0\n        /* \"#utility.yul\":6170:6179   */\n      dup7\n        /* \"#utility.yul\":6161:6168   */\n      dup9\n        /* \"#utility.yul\":6157:6180   */\n      sub\n        /* \"#utility.yul\":6153:6186   */\n      slt\n        /* \"#utility.yul\":6150:6270   */\n      iszero\n      tag_236\n      jumpi\n        /* \"#utility.yul\":6189:6268   */\n      tag_237\n      tag_106\n      jump\t// in\n    tag_237:\n        /* \"#utility.yul\":6150:6270   */\n    tag_236:\n        /* \"#utility.yul\":6309:6310   */\n      0x00\n        /* \"#utility.yul\":6334:6387   */\n      tag_238\n        /* \"#utility.yul\":6379:6386   */\n      dup9\n        /* \"#utility.yul\":6370:6376   */\n      dup3\n        /* \"#utility.yul\":6359:6368   */\n      dup10\n        /* \"#utility.yul\":6355:6377   */\n      add\n        /* \"#utility.yul\":6334:6387   */\n      tag_118\n      jump\t// in\n    tag_238:\n        /* \"#utility.yul\":6324:6387   */\n      swap6\n      pop\n        /* \"#utility.yul\":6280:6397   */\n      pop\n        /* \"#utility.yul\":6436:6438   */\n      0x20\n        /* \"#utility.yul\":6462:6515   */\n      tag_239\n        /* \"#utility.yul\":6507:6514   */\n      dup9\n        /* \"#utility.yul\":6498:6504   */\n      dup3\n        /* \"#utility.yul\":6487:6496   */\n      dup10\n        /* \"#utility.yul\":6483:6505   */\n      add\n        /* \"#utility.yul\":6462:6515   */\n      tag_120\n      jump\t// in\n    tag_239:\n        /* \"#utility.yul\":6452:6515   */\n      swap5\n      pop\n        /* \"#utility.yul\":6407:6525   */\n      pop\n        /* \"#utility.yul\":6592:6594   */\n      0x40\n        /* \"#utility.yul\":6581:6590   */\n      dup7\n        /* \"#utility.yul\":6577:6595   */\n      add\n        /* \"#utility.yul\":6564:6596   */\n      calldataload\n        /* \"#utility.yul\":6623:6641   */\n      0xffffffffffffffff\n        /* \"#utility.yul\":6615:6621   */\n      dup2\n        /* \"#utility.yul\":6612:6642   */\n      gt\n        /* \"#utility.yul\":6609:6726   */\n      iszero\n      tag_240\n      jumpi\n        /* \"#utility.yul\":6645:6724   */\n      tag_241\n      tag_107\n      jump\t// in\n    tag_241:\n        /* \"#utility.yul\":6609:6726   */\n    tag_240:\n        /* \"#utility.yul\":6750:6813   */\n      tag_242\n        /* \"#utility.yul\":6805:6812   */\n      dup9\n        /* \"#utility.yul\":6796:6802   */\n      dup3\n        /* \"#utility.yul\":6785:6794   */\n      dup10\n        /* \"#utility.yul\":6781:6803   */\n      add\n        /* \"#utility.yul\":6750:6813   */\n      tag_130\n      jump\t// in\n    tag_242:\n        /* \"#utility.yul\":6740:6813   */\n      swap4\n      pop\n        /* \"#utility.yul\":6535:6823   */\n      pop\n        /* \"#utility.yul\":6890:6892   */\n      0x60\n        /* \"#utility.yul\":6879:6888   */\n      dup7\n        /* \"#utility.yul\":6875:6893   */\n      add\n        /* \"#utility.yul\":6862:6894   */\n      calldataload\n        /* \"#utility.yul\":6921:6939   */\n      0xffffffffffffffff\n        /* \"#utility.yul\":6913:6919   */\n      dup2\n        /* \"#utility.yul\":6910:6940   */\n      gt\n        /* \"#utility.yul\":6907:7024   */\n      iszero\n      tag_243\n      jumpi\n        /* \"#utility.yul\":6943:7022   */\n      tag_244\n      tag_107\n      jump\t// in\n    tag_244:\n        /* \"#utility.yul\":6907:7024   */\n    tag_243:\n        /* \"#utility.yul\":7048:7110   */\n      tag_245\n        /* \"#utility.yul\":7102:7109   */\n      dup9\n        /* \"#utility.yul\":7093:7099   */\n      dup3\n        /* \"#utility.yul\":7082:7091   */\n      dup10\n        /* \"#utility.yul\":7078:7100   */\n      add\n        /* \"#utility.yul\":7048:7110   */\n      tag_133\n      jump\t// in\n    tag_245:\n        /* \"#utility.yul\":7038:7110   */\n      swap3\n      pop\n        /* \"#utility.yul\":6833:7120   */\n      pop\n        /* \"#utility.yul\":7159:7162   */\n      0x80\n        /* \"#utility.yul\":7186:7239   */\n      tag_246\n        /* \"#utility.yul\":7231:7238   */\n      dup9\n        /* \"#utility.yul\":7222:7228   */\n      dup3\n        /* \"#utility.yul\":7211:7220   */\n      dup10\n        /* \"#utility.yul\":7207:7229   */\n      add\n        /* \"#utility.yul\":7186:7239   */\n      tag_120\n      jump\t// in\n    tag_246:\n        /* \"#utility.yul\":7176:7239   */\n      swap2\n      pop\n        /* \"#utility.yul\":7130:7249   */\n      pop\n        /* \"#utility.yul\":5987:7256   */\n      swap3\n      swap6\n      pop\n      swap3\n      swap6\n      swap1\n      swap4\n      pop\n      jump\t// out\n        /* \"#utility.yul\":7262:7380   */\n    tag_134:\n        /* \"#utility.yul\":7349:7373   */\n      tag_248\n        /* \"#utility.yul\":7367:7372   */\n      dup2\n        /* \"#utility.yul\":7349:7373   */\n      tag_116\n      jump\t// in\n    tag_248:\n        /* \"#utility.yul\":7344:7347   */\n      dup3\n        /* \"#utility.yul\":7337:7374   */\n      mstore\n        /* \"#utility.yul\":7262:7380   */\n      pop\n      pop\n      jump\t// out\n        /* \"#utility.yul\":7386:7608   */\n    tag_40:\n        /* \"#utility.yul\":7479:7483   */\n      0x00\n        /* \"#utility.yul\":7517:7519   */\n      0x20\n        /* \"#utility.yul\":7506:7515   */\n      dup3\n        /* \"#utility.yul\":7502:7520   */\n      add\n        /* \"#utility.yul\":7494:7520   */\n      swap1\n      pop\n        /* \"#utility.yul\":7530:7601   */\n      tag_250\n        /* \"#utility.yul\":7598:7599   */\n      0x00\n        /* \"#utility.yul\":7587:7596   */\n      dup4\n        /* \"#utility.yul\":7583:7600   */\n      add\n        /* \"#utility.yul\":7574:7580   */\n      dup5\n        /* \"#utility.yul\":7530:7601   */\n      tag_134\n      jump\t// in\n    tag_250:\n        /* \"#utility.yul\":7386:7608   */\n      swap3\n      swap2\n      pop\n      pop\n      jump\t// out\n        /* \"#utility.yul\":7614:7732   */\n    tag_135:\n        /* \"#utility.yul\":7701:7725   */\n      tag_252\n        /* \"#utility.yul\":7719:7724   */\n      dup2\n        /* \"#utility.yul\":7701:7725   */\n      tag_108\n      jump\t// in\n    tag_252:\n        /* \"#utility.yul\":7696:7699   */\n      dup3\n        /* \"#utility.yul\":7689:7726   */\n      mstore\n        /* \"#utility.yul\":7614:7732   */\n      pop\n      pop\n      jump\t// out\n        /* \"#utility.yul\":7738:7960   */\n    tag_50:\n        /* \"#utility.yul\":7831:7835   */\n      0x00\n        /* \"#utility.yul\":7869:7871   */\n      0x20\n        /* \"#utility.yul\":7858:7867   */\n      dup3\n        /* \"#utility.yul\":7854:7872   */\n      add\n        /* \"#utility.yul\":7846:7872   */\n      swap1\n      pop\n        /* \"#utility.yul\":7882:7953   */\n      tag_254\n        /* \"#utility.yul\":7950:7951   */\n      0x00\n        /* \"#utility.yul\":7939:7948   */\n      dup4\n        /* \"#utility.yul\":7935:7952   */\n      add\n        /* \"#utility.yul\":7926:7932   */\n      dup5\n        /* \"#utility.yul\":7882:7953   */\n      tag_135\n      jump\t// in\n    tag_254:\n        /* \"#utility.yul\":7738:7960   */\n      swap3\n      swap2\n      pop\n      pop\n      jump\t// out\n        /* \"#utility.yul\":7966:8064   */\n    tag_136:\n        /* \"#utility.yul\":8017:8023   */\n      0x00\n        /* \"#utility.yul\":8051:8056   */\n      dup2\n        /* \"#utility.yul\":8045:8057   */\n      mload\n        /* \"#utility.yul\":8035:8057   */\n      swap1\n      pop\n        /* \"#utility.yul\":7966:8064   */\n      swap2\n      swap1\n      pop\n      jump\t// out\n        /* \"#utility.yul\":8070:8238   */\n    tag_137:\n        /* \"#utility.yul\":8153:8164   */\n      0x00\n        /* \"#utility.yul\":8187:8193   */\n      dup3\n        /* \"#utility.yul\":8182:8185   */\n      dup3\n        /* \"#utility.yul\":8175:8194   */\n      mstore\n        /* \"#utility.yul\":8227:8231   */\n      0x20\n        /* \"#utility.yul\":8222:8225   */\n      dup3\n        /* \"#utility.yul\":8218:8232   */\n      add\n        /* \"#utility.yul\":8203:8232   */\n      swap1\n      pop\n        /* \"#utility.yul\":8070:8238   */\n      swap3\n      swap2\n      pop\n      pop\n      jump\t// out\n        /* \"#utility.yul\":8244:8383   */\n    tag_138:\n        /* \"#utility.yul\":8333:8339   */\n      dup3\n        /* \"#utility.yul\":8328:8331   */\n      dup2\n        /* \"#utility.yul\":8323:8326   */\n      dup4\n        /* \"#utility.yul\":8317:8340   */\n      mcopy\n        /* \"#utility.yul\":8374:8375   */\n      0x00\n        /* \"#utility.yul\":8365:8371   */\n      dup4\n        /* \"#utility.yul\":8360:8363   */\n      dup4\n        /* \"#utility.yul\":8356:8372   */\n      add\n        /* \"#utility.yul\":8349:8376   */\n      mstore\n        /* \"#utility.yul\":8244:8383   */\n      pop\n      pop\n      pop\n      jump\t// out\n        /* \"#utility.yul\":8389:8762   */\n    tag_139:\n        /* \"#utility.yul\":8475:8478   */\n      0x00\n        /* \"#utility.yul\":8503:8541   */\n      tag_259\n        /* \"#utility.yul\":8535:8540   */\n      dup3\n        /* \"#utility.yul\":8503:8541   */\n      tag_136\n      jump\t// in\n    tag_259:\n        /* \"#utility.yul\":8557:8627   */\n      tag_260\n        /* \"#utility.yul\":8620:8626   */\n      dup2\n        /* \"#utility.yul\":8615:8618   */\n      dup6\n        /* \"#utility.yul\":8557:8627   */\n      tag_137\n      jump\t// in\n    tag_260:\n        /* \"#utility.yul\":8550:8627   */\n      swap4\n      pop\n        /* \"#utility.yul\":8636:8701   */\n      tag_261\n        /* \"#utility.yul\":8694:8700   */\n      dup2\n        /* \"#utility.yul\":8689:8692   */\n      dup6\n        /* \"#utility.yul\":8682:8686   */\n      0x20\n        /* \"#utility.yul\":8675:8680   */\n      dup7\n        /* \"#utility.yul\":8671:8687   */\n      add\n        /* \"#utility.yul\":8636:8701   */\n      tag_138\n      jump\t// in\n    tag_261:\n        /* \"#utility.yul\":8726:8755   */\n      tag_262\n        /* \"#utility.yul\":8748:8754   */\n      dup2\n        /* \"#utility.yul\":8726:8755   */\n      tag_123\n      jump\t// in\n    tag_262:\n        /* \"#utility.yul\":8721:8724   */\n      dup5\n        /* \"#utility.yul\":8717:8756   */\n      add\n        /* \"#utility.yul\":8710:8756   */\n      swap2\n      pop\n        /* \"#utility.yul\":8479:8762   */\n      pop\n        /* \"#utility.yul\":8389:8762   */\n      swap3\n      swap2\n      pop\n      pop\n      jump\t// out\n        /* \"#utility.yul\":8768:9077   */\n    tag_56:\n        /* \"#utility.yul\":8879:8883   */\n      0x00\n        /* \"#utility.yul\":8917:8919   */\n      0x20\n        /* \"#utility.yul\":8906:8915   */\n      dup3\n        /* \"#utility.yul\":8902:8920   */\n      add\n        /* \"#utility.yul\":8894:8920   */\n      swap1\n      pop\n        /* \"#utility.yul\":8966:8975   */\n      dup2\n        /* \"#utility.yul\":8960:8964   */\n      dup2\n        /* \"#utility.yul\":8956:8976   */\n      sub\n        /* \"#utility.yul\":8952:8953   */\n      0x00\n        /* \"#utility.yul\":8941:8950   */\n      dup4\n        /* \"#utility.yul\":8937:8954   */\n      add\n        /* \"#utility.yul\":8930:8977   */\n      mstore\n        /* \"#utility.yul\":8994:9070   */\n      tag_264\n        /* \"#utility.yul\":9065:9069   */\n      dup2\n        /* \"#utility.yul\":9056:9062   */\n      dup5\n        /* \"#utility.yul\":8994:9070   */\n      tag_139\n      jump\t// in\n    tag_264:\n        /* \"#utility.yul\":8986:9070   */\n      swap1\n      pop\n        /* \"#utility.yul\":8768:9077   */\n      swap3\n      swap2\n      pop\n      pop\n      jump\t// out\n        /* \"#utility.yul\":9083:9252   */\n    tag_140:\n        /* \"#utility.yul\":9167:9178   */\n      0x00\n        /* \"#utility.yul\":9201:9207   */\n      dup3\n        /* \"#utility.yul\":9196:9199   */\n      dup3\n        /* \"#utility.yul\":9189:9208   */\n      mstore\n        /* \"#utility.yul\":9241:9245   */\n      0x20\n        /* \"#utility.yul\":9236:9239   */\n      dup3\n        /* \"#utility.yul\":9232:9246   */\n      add\n        /* \"#utility.yul\":9217:9246   */\n      swap1\n      pop\n        /* \"#utility.yul\":9083:9252   */\n      swap3\n      swap2\n      pop\n      pop\n      jump\t// out\n        /* \"#utility.yul\":9258:9417   */\n    tag_141:\n        /* \"#utility.yul\":9398:9409   */\n      0x6e6f74206f776e65720000000000000000000000000000000000000000000000\n        /* \"#utility.yul\":9394:9395   */\n      0x00\n        /* \"#utility.yul\":9386:9392   */\n      dup3\n        /* \"#utility.yul\":9382:9396   */\n      add\n        /* \"#utility.yul\":9375:9410   */\n      mstore\n        /* \"#utility.yul\":9258:9417   */\n      pop\n      jump\t// out\n        /* \"#utility.yul\":9423:9788   */\n    tag_142:\n        /* \"#utility.yul\":9565:9568   */\n      0x00\n        /* \"#utility.yul\":9586:9652   */\n      tag_268\n        /* \"#utility.yul\":9650:9651   */\n      0x09\n        /* \"#utility.yul\":9645:9648   */\n      dup4\n        /* \"#utility.yul\":9586:9652   */\n      tag_140\n      jump\t// in\n    tag_268:\n        /* \"#utility.yul\":9579:9652   */\n      swap2\n      pop\n        /* \"#utility.yul\":9661:9754   */\n      tag_269\n        /* \"#utility.yul\":9750:9753   */\n      dup3\n        /* \"#utility.yul\":9661:9754   */\n      tag_141\n      jump\t// in\n    tag_269:\n        /* \"#utility.yul\":9779:9781   */\n      0x20\n        /* \"#utility.yul\":9774:9777   */\n      dup3\n        /* \"#utility.yul\":9770:9782   */\n      add\n        /* \"#utility.yul\":9763:9782   */\n      swap1\n      pop\n        /* \"#utility.yul\":9423:9788   */\n      swap2\n      swap1\n      pop\n      jump\t// out\n        /* \"#utility.yul\":9794:10213   */\n    tag_64:\n        /* \"#utility.yul\":9960:9964   */\n      0x00\n        /* \"#utility.yul\":9998:10000   */\n      0x20\n        /* \"#utility.yul\":9987:9996   */\n      dup3\n        /* \"#utility.yul\":9983:10001   */\n      add\n        /* \"#utility.yul\":9975:10001   */\n      swap1\n      pop\n        /* \"#utility.yul\":10047:10056   */\n      dup2\n        /* \"#utility.yul\":10041:10045   */\n      dup2\n        /* \"#utility.yul\":10037:10057   */\n      sub\n        /* \"#utility.yul\":10033:10034   */\n      0x00\n        /* \"#utility.yul\":10022:10031   */\n      dup4\n        /* \"#utility.yul\":10018:10035   */\n      add\n        /* \"#utility.yul\":10011:10058   */\n      mstore\n        /* \"#utility.yul\":10075:10206   */\n      tag_271\n        /* \"#utility.yul\":10201:10205   */\n      dup2\n        /* \"#utility.yul\":10075:10206   */\n      tag_142\n      jump\t// in\n    tag_271:\n        /* \"#utility.yul\":10067:10206   */\n      swap1\n      pop\n        /* \"#utility.yul\":9794:10213   */\n      swap2\n      swap1\n      pop\n      jump\t// out\n        /* \"#utility.yul\":10219:10399   */\n    tag_143:\n        /* \"#utility.yul\":10267:10344   */\n      0x4e487b7100000000000000000000000000000000000000000000000000000000\n        /* \"#utility.yul\":10264:10265   */\n      0x00\n        /* \"#utility.yul\":10257:10345   */\n      mstore\n        /* \"#utility.yul\":10364:10368   */\n      0x11\n        /* \"#utility.yul\":10361:10362   */\n      0x04\n        /* \"#utility.yul\":10354:10369   */\n      mstore\n        /* \"#utility.yul\":10388:10392   */\n      0x24\n        /* \"#utility.yul\":10385:10386   */\n      0x00\n        /* \"#utility.yul\":10378:10393   */\n      revert\n        /* \"#utility.yul\":10405:10596   */\n    tag_77:\n        /* \"#utility.yul\":10445:10448   */\n      0x00\n        /* \"#utility.yul\":10464:10484   */\n      tag_274\n        /* \"#utility.yul\":10482:10483   */\n      dup3\n        /* \"#utility.yul\":10464:10484   */\n      tag_113\n      jump\t// in\n    tag_274:\n        /* \"#utility.yul\":10459:10484   */\n      swap2\n      pop\n        /* \"#utility.yul\":10498:10518   */\n      tag_275\n        /* \"#utility.yul\":10516:10517   */\n      dup4\n        /* \"#utility.yul\":10498:10518   */\n      tag_113\n      jump\t// in\n    tag_275:\n        /* \"#utility.yul\":10493:10518   */\n      swap3\n      pop\n        /* \"#utility.yul\":10541:10542   */\n      dup3\n        /* \"#utility.yul\":10538:10539   */\n      dup3\n        /* \"#utility.yul\":10534:10543   */\n      add\n        /* \"#utility.yul\":10527:10543   */\n      swap1\n      pop\n        /* \"#utility.yul\":10562:10565   */\n      dup1\n        /* \"#utility.yul\":10559:10560   */\n      dup3\n        /* \"#utility.yul\":10556:10566   */\n      gt\n        /* \"#utility.yul\":10553:10589   */\n      iszero\n      tag_276\n      jumpi\n        /* \"#utility.yul\":10569:10587   */\n      tag_277\n      tag_143\n      jump\t// in\n    tag_277:\n        /* \"#utility.yul\":10553:10589   */\n    tag_276:\n        /* \"#utility.yul\":10405:10596   */\n      swap3\n      swap2\n      pop\n      pop\n      jump\t// out\n        /* \"#utility.yul\":10602:10701   */\n    tag_144:\n        /* \"#utility.yul\":10654:10660   */\n      0x00\n        /* \"#utility.yul\":10688:10693   */\n      dup2\n        /* \"#utility.yul\":10682:10694   */\n      mload\n        /* \"#utility.yul\":10672:10694   */\n      swap1\n      pop\n        /* \"#utility.yul\":10602:10701   */\n      swap2\n      swap1\n      pop\n      jump\t// out\n        /* \"#utility.yul\":10707:11084   */\n    tag_145:\n        /* \"#utility.yul\":10795:10798   */\n      0x00\n        /* \"#utility.yul\":10823:10862   */\n      tag_280\n        /* \"#utility.yul\":10856:10861   */\n      dup3\n        /* \"#utility.yul\":10823:10862   */\n      tag_144\n      jump\t// in\n    tag_280:\n        /* \"#utility.yul\":10878:10949   */\n      tag_281\n        /* \"#utility.yul\":10942:10948   */\n      dup2\n        /* \"#utility.yul\":10937:10940   */\n      dup6\n        /* \"#utility.yul\":10878:10949   */\n      tag_140\n      jump\t// in\n    tag_281:\n        /* \"#utility.yul\":10871:10949   */\n      swap4\n      pop\n        /* \"#utility.yul\":10958:11023   */\n      tag_282\n        /* \"#utility.yul\":11016:11022   */\n      dup2\n        /* \"#utility.yul\":11011:11014   */\n      dup6\n        /* \"#utility.yul\":11004:11008   */\n      0x20\n        /* \"#utility.yul\":10997:11002   */\n      dup7\n        /* \"#utility.yul\":10993:11009   */\n      add\n        /* \"#utility.yul\":10958:11023   */\n      tag_138\n      jump\t// in\n    tag_282:\n        /* \"#utility.yul\":11048:11077   */\n      tag_283\n        /* \"#utility.yul\":11070:11076   */\n      dup2\n        /* \"#utility.yul\":11048:11077   */\n      tag_123\n      jump\t// in\n    tag_283:\n        /* \"#utility.yul\":11043:11046   */\n      dup5\n        /* \"#utility.yul\":11039:11078   */\n      add\n        /* \"#utility.yul\":11032:11078   */\n      swap2\n      pop\n        /* \"#utility.yul\":10799:11084   */\n      pop\n        /* \"#utility.yul\":10707:11084   */\n      swap3\n      swap2\n      pop\n      pop\n      jump\t// out\n        /* \"#utility.yul\":11090:11932   */\n    tag_82:\n        /* \"#utility.yul\":11333:11337   */\n      0x00\n        /* \"#utility.yul\":11371:11374   */\n      0xa0\n        /* \"#utility.yul\":11360:11369   */\n      dup3\n        /* \"#utility.yul\":11356:11375   */\n      add\n        /* \"#utility.yul\":11348:11375   */\n      swap1\n      pop\n        /* \"#utility.yul\":11385:11456   */\n      tag_285\n        /* \"#utility.yul\":11453:11454   */\n      0x00\n        /* \"#utility.yul\":11442:11451   */\n      dup4\n        /* \"#utility.yul\":11438:11455   */\n      add\n        /* \"#utility.yul\":11429:11435   */\n      dup9\n        /* \"#utility.yul\":11385:11456   */\n      tag_134\n      jump\t// in\n    tag_285:\n        /* \"#utility.yul\":11466:11538   */\n      tag_286\n        /* \"#utility.yul\":11534:11536   */\n      0x20\n        /* \"#utility.yul\":11523:11532   */\n      dup4\n        /* \"#utility.yul\":11519:11537   */\n      add\n        /* \"#utility.yul\":11510:11516   */\n      dup8\n        /* \"#utility.yul\":11466:11538   */\n      tag_114\n      jump\t// in\n    tag_286:\n        /* \"#utility.yul\":11585:11594   */\n      dup2\n        /* \"#utility.yul\":11579:11583   */\n      dup2\n        /* \"#utility.yul\":11575:11595   */\n      sub\n        /* \"#utility.yul\":11570:11572   */\n      0x40\n        /* \"#utility.yul\":11559:11568   */\n      dup4\n        /* \"#utility.yul\":11555:11573   */\n      add\n        /* \"#utility.yul\":11548:11596   */\n      mstore\n        /* \"#utility.yul\":11613:11691   */\n      tag_287\n        /* \"#utility.yul\":11686:11690   */\n      dup2\n        /* \"#utility.yul\":11677:11683   */\n      dup7\n        /* \"#utility.yul\":11613:11691   */\n      tag_145\n      jump\t// in\n    tag_287:\n        /* \"#utility.yul\":11605:11691   */\n      swap1\n      pop\n        /* \"#utility.yul\":11738:11747   */\n      dup2\n        /* \"#utility.yul\":11732:11736   */\n      dup2\n        /* \"#utility.yul\":11728:11748   */\n      sub\n        /* \"#utility.yul\":11723:11725   */\n      0x60\n        /* \"#utility.yul\":11712:11721   */\n      dup4\n        /* \"#utility.yul\":11708:11726   */\n      add\n        /* \"#utility.yul\":11701:11749   */\n      mstore\n        /* \"#utility.yul\":11766:11842   */\n      tag_288\n        /* \"#utility.yul\":11837:11841   */\n      dup2\n        /* \"#utility.yul\":11828:11834   */\n      dup6\n        /* \"#utility.yul\":11766:11842   */\n      tag_139\n      jump\t// in\n    tag_288:\n        /* \"#utility.yul\":11758:11842   */\n      swap1\n      pop\n        /* \"#utility.yul\":11852:11925   */\n      tag_289\n        /* \"#utility.yul\":11920:11923   */\n      0x80\n        /* \"#utility.yul\":11909:11918   */\n      dup4\n        /* \"#utility.yul\":11905:11924   */\n      add\n        /* \"#utility.yul\":11896:11902   */\n      dup5\n        /* \"#utility.yul\":11852:11925   */\n      tag_114\n      jump\t// in\n    tag_289:\n        /* \"#utility.yul\":11090:11932   */\n      swap7\n      swap6\n      pop\n      pop\n      pop\n      pop\n      pop\n      pop\n      jump\t// out\n        /* \"#utility.yul\":11938:12032   */\n    tag_146:\n        /* \"#utility.yul\":11971:11979   */\n      0x00\n        /* \"#utility.yul\":12019:12024   */\n      dup2\n        /* \"#utility.yul\":12015:12017   */\n      0x60\n        /* \"#utility.yul\":12011:12025   */\n      shl\n        /* \"#utility.yul\":11990:12025   */\n      swap1\n      pop\n        /* \"#utility.yul\":11938:12032   */\n      swap2\n      swap1\n      pop\n      jump\t// out\n        /* \"#utility.yul\":12038:12132   */\n    tag_147:\n        /* \"#utility.yul\":12077:12084   */\n      0x00\n        /* \"#utility.yul\":12106:12126   */\n      tag_292\n        /* \"#utility.yul\":12120:12125   */\n      dup3\n        /* \"#utility.yul\":12106:12126   */\n      tag_146\n      jump\t// in\n    tag_292:\n        /* \"#utility.yul\":12095:12126   */\n      swap1\n      pop\n        /* \"#utility.yul\":12038:12132   */\n      swap2\n      swap1\n      pop\n      jump\t// out\n        /* \"#utility.yul\":12138:12238   */\n    tag_148:\n        /* \"#utility.yul\":12177:12184   */\n      0x00\n        /* \"#utility.yul\":12206:12232   */\n      tag_294\n        /* \"#utility.yul\":12226:12231   */\n      dup3\n        /* \"#utility.yul\":12206:12232   */\n      tag_147\n      jump\t// in\n    tag_294:\n        /* \"#utility.yul\":12195:12232   */\n      swap1\n      pop\n        /* \"#utility.yul\":12138:12238   */\n      swap2\n      swap1\n      pop\n      jump\t// out\n        /* \"#utility.yul\":12244:12401   */\n    tag_149:\n        /* \"#utility.yul\":12349:12394   */\n      tag_296\n        /* \"#utility.yul\":12369:12393   */\n      tag_297\n        /* \"#utility.yul\":12387:12392   */\n      dup3\n        /* \"#utility.yul\":12369:12393   */\n      tag_116\n      jump\t// in\n    tag_297:\n        /* \"#utility.yul\":12349:12394   */\n      tag_148\n      jump\t// in\n    tag_296:\n        /* \"#utility.yul\":12344:12347   */\n      dup3\n        /* \"#utility.yul\":12337:12395   */\n      mstore\n        /* \"#utility.yul\":12244:12401   */\n      pop\n      pop\n      jump\t// out\n        /* \"#utility.yul\":12407:12486   */\n    tag_150:\n        /* \"#utility.yul\":12446:12453   */\n      0x00\n        /* \"#utility.yul\":12475:12480   */\n      dup2\n        /* \"#utility.yul\":12464:12480   */\n      swap1\n      pop\n        /* \"#utility.yul\":12407:12486   */\n      swap2\n      swap1\n      pop\n      jump\t// out\n        /* \"#utility.yul\":12492:12649   */\n    tag_151:\n        /* \"#utility.yul\":12597:12642   */\n      tag_300\n        /* \"#utility.yul\":12617:12641   */\n      tag_301\n        /* \"#utility.yul\":12635:12640   */\n      dup3\n        /* \"#utility.yul\":12617:12641   */\n      tag_113\n      jump\t// in\n    tag_301:\n        /* \"#utility.yul\":12597:12642   */\n      tag_150\n      jump\t// in\n    tag_300:\n        /* \"#utility.yul\":12592:12595   */\n      dup3\n        /* \"#utility.yul\":12585:12643   */\n      mstore\n        /* \"#utility.yul\":12492:12649   */\n      pop\n      pop\n      jump\t// out\n        /* \"#utility.yul\":12655:12803   */\n    tag_152:\n        /* \"#utility.yul\":12757:12768   */\n      0x00\n        /* \"#utility.yul\":12794:12797   */\n      dup2\n        /* \"#utility.yul\":12779:12797   */\n      swap1\n      pop\n        /* \"#utility.yul\":12655:12803   */\n      swap3\n      swap2\n      pop\n      pop\n      jump\t// out\n        /* \"#utility.yul\":12809:13199   */\n    tag_153:\n        /* \"#utility.yul\":12915:12918   */\n      0x00\n        /* \"#utility.yul\":12943:12982   */\n      tag_304\n        /* \"#utility.yul\":12976:12981   */\n      dup3\n        /* \"#utility.yul\":12943:12982   */\n      tag_144\n      jump\t// in\n    tag_304:\n        /* \"#utility.yul\":12998:13087   */\n      tag_305\n        /* \"#utility.yul\":13080:13086   */\n      dup2\n        /* \"#utility.yul\":13075:13078   */\n      dup6\n        /* \"#utility.yul\":12998:13087   */\n      tag_152\n      jump\t// in\n    tag_305:\n        /* \"#utility.yul\":12991:13087   */\n      swap4\n      pop\n        /* \"#utility.yul\":13096:13161   */\n      tag_306\n        /* \"#utility.yul\":13154:13160   */\n      dup2\n        /* \"#utility.yul\":13149:13152   */\n      dup6\n        /* \"#utility.yul\":13142:13146   */\n      0x20\n        /* \"#utility.yul\":13135:13140   */\n      dup7\n        /* \"#utility.yul\":13131:13147   */\n      add\n        /* \"#utility.yul\":13096:13161   */\n      tag_138\n      jump\t// in\n    tag_306:\n        /* \"#utility.yul\":13186:13192   */\n      dup1\n        /* \"#utility.yul\":13181:13184   */\n      dup5\n        /* \"#utility.yul\":13177:13193   */\n      add\n        /* \"#utility.yul\":13170:13193   */\n      swap2\n      pop\n        /* \"#utility.yul\":12919:13199   */\n      pop\n        /* \"#utility.yul\":12809:13199   */\n      swap3\n      swap2\n      pop\n      pop\n      jump\t// out\n        /* \"#utility.yul\":13205:13352   */\n    tag_154:\n        /* \"#utility.yul\":13306:13317   */\n      0x00\n        /* \"#utility.yul\":13343:13346   */\n      dup2\n        /* \"#utility.yul\":13328:13346   */\n      swap1\n      pop\n        /* \"#utility.yul\":13205:13352   */\n      swap3\n      swap2\n      pop\n      pop\n      jump\t// out\n        /* \"#utility.yul\":13358:13744   */\n    tag_155:\n        /* \"#utility.yul\":13462:13465   */\n      0x00\n        /* \"#utility.yul\":13490:13528   */\n      tag_309\n        /* \"#utility.yul\":13522:13527   */\n      dup3\n        /* \"#utility.yul\":13490:13528   */\n      tag_136\n      jump\t// in\n    tag_309:\n        /* \"#utility.yul\":13544:13632   */\n      tag_310\n        /* \"#utility.yul\":13625:13631   */\n      dup2\n        /* \"#utility.yul\":13620:13623   */\n      dup6\n        /* \"#utility.yul\":13544:13632   */\n      tag_154\n      jump\t// in\n    tag_310:\n        /* \"#utility.yul\":13537:13632   */\n      swap4\n      pop\n        /* \"#utility.yul\":13641:13706   */\n      tag_311\n        /* \"#utility.yul\":13699:13705   */\n      dup2\n        /* \"#utility.yul\":13694:13697   */\n      dup6\n        /* \"#utility.yul\":13687:13691   */\n      0x20\n        /* \"#utility.yul\":13680:13685   */\n      dup7\n        /* \"#utility.yul\":13676:13692   */\n      add\n        /* \"#utility.yul\":13641:13706   */\n      tag_138\n      jump\t// in\n    tag_311:\n        /* \"#utility.yul\":13731:13737   */\n      dup1\n        /* \"#utility.yul\":13726:13729   */\n      dup5\n        /* \"#utility.yul\":13722:13738   */\n      add\n        /* \"#utility.yul\":13715:13738   */\n      swap2\n      pop\n        /* \"#utility.yul\":13466:13744   */\n      pop\n        /* \"#utility.yul\":13358:13744   */\n      swap3\n      swap2\n      pop\n      pop\n      jump\t// out\n        /* \"#utility.yul\":13750:14604   */\n    tag_85:\n        /* \"#utility.yul\":14012:14015   */\n      0x00\n        /* \"#utility.yul\":14027:14102   */\n      tag_313\n        /* \"#utility.yul\":14098:14101   */\n      dup3\n        /* \"#utility.yul\":14089:14095   */\n      dup9\n        /* \"#utility.yul\":14027:14102   */\n      tag_149\n      jump\t// in\n    tag_313:\n        /* \"#utility.yul\":14127:14129   */\n      0x14\n        /* \"#utility.yul\":14122:14125   */\n      dup3\n        /* \"#utility.yul\":14118:14130   */\n      add\n        /* \"#utility.yul\":14111:14130   */\n      swap2\n      pop\n        /* \"#utility.yul\":14140:14215   */\n      tag_314\n        /* \"#utility.yul\":14211:14214   */\n      dup3\n        /* \"#utility.yul\":14202:14208   */\n      dup8\n        /* \"#utility.yul\":14140:14215   */\n      tag_151\n      jump\t// in\n    tag_314:\n        /* \"#utility.yul\":14240:14242   */\n      0x20\n        /* \"#utility.yul\":14235:14238   */\n      dup3\n        /* \"#utility.yul\":14231:14243   */\n      add\n        /* \"#utility.yul\":14224:14243   */\n      swap2\n      pop\n        /* \"#utility.yul\":14260:14355   */\n      tag_315\n        /* \"#utility.yul\":14351:14354   */\n      dup3\n        /* \"#utility.yul\":14342:14348   */\n      dup7\n        /* \"#utility.yul\":14260:14355   */\n      tag_153\n      jump\t// in\n    tag_315:\n        /* \"#utility.yul\":14253:14355   */\n      swap2\n      pop\n        /* \"#utility.yul\":14372:14465   */\n      tag_316\n        /* \"#utility.yul\":14461:14464   */\n      dup3\n        /* \"#utility.yul\":14452:14458   */\n      dup6\n        /* \"#utility.yul\":14372:14465   */\n      tag_155\n      jump\t// in\n    tag_316:\n        /* \"#utility.yul\":14365:14465   */\n      swap2\n      pop\n        /* \"#utility.yul\":14475:14550   */\n      tag_317\n        /* \"#utility.yul\":14546:14549   */\n      dup3\n        /* \"#utility.yul\":14537:14543   */\n      dup5\n        /* \"#utility.yul\":14475:14550   */\n      tag_151\n      jump\t// in\n    tag_317:\n        /* \"#utility.yul\":14575:14577   */\n      0x20\n        /* \"#utility.yul\":14570:14573   */\n      dup3\n        /* \"#utility.yul\":14566:14578   */\n      add\n        /* \"#utility.yul\":14559:14578   */\n      swap2\n      pop\n        /* \"#utility.yul\":14595:14598   */\n      dup2\n        /* \"#utility.yul\":14588:14598   */\n      swap1\n      pop\n        /* \"#utility.yul\":13750:14604   */\n      swap7\n      swap6\n      pop\n      pop\n      pop\n      pop\n      pop\n      pop\n      jump\t// out\n        /* \"#utility.yul\":14610:14885   */\n    tag_95:\n        /* \"#utility.yul\":14742:14745   */\n      0x00\n        /* \"#utility.yul\":14764:14859   */\n      tag_319\n        /* \"#utility.yul\":14855:14858   */\n      dup3\n        /* \"#utility.yul\":14846:14852   */\n      dup5\n        /* \"#utility.yul\":14764:14859   */\n      tag_153\n      jump\t// in\n    tag_319:\n        /* \"#utility.yul\":14757:14859   */\n      swap2\n      pop\n        /* \"#utility.yul\":14876:14879   */\n      dup2\n        /* \"#utility.yul\":14869:14879   */\n      swap1\n      pop\n        /* \"#utility.yul\":14610:14885   */\n      swap3\n      swap2\n      pop\n      pop\n      jump\t// out\n        /* \"#utility.yul\":14891:15162   */\n    tag_97:\n        /* \"#utility.yul\":15021:15024   */\n      0x00\n        /* \"#utility.yul\":15043:15136   */\n      tag_321\n        /* \"#utility.yul\":15132:15135   */\n      dup3\n        /* \"#utility.yul\":15123:15129   */\n      dup5\n        /* \"#utility.yul\":15043:15136   */\n      tag_155\n      jump\t// in\n    tag_321:\n        /* \"#utility.yul\":15036:15136   */\n      swap2\n      pop\n        /* \"#utility.yul\":15153:15156   */\n      dup2\n        /* \"#utility.yul\":15146:15156   */\n      swap1\n      pop\n        /* \"#utility.yul\":14891:15162   */\n      swap3\n      swap2\n      pop\n      pop\n      jump\t// out\n        /* \"#utility.yul\":15168:15329   */\n    tag_156:\n        /* \"#utility.yul\":15308:15321   */\n      0x63616c6c206661696c6564000000000000000000000000000000000000000000\n        /* \"#utility.yul\":15304:15305   */\n      0x00\n        /* \"#utility.yul\":15296:15302   */\n      dup3\n        /* \"#utility.yul\":15292:15306   */\n      add\n        /* \"#utility.yul\":15285:15322   */\n      mstore\n        /* \"#utility.yul\":15168:15329   */\n      pop\n      jump\t// out\n        /* \"#utility.yul\":15335:15701   */\n    tag_157:\n        /* \"#utility.yul\":15477:15480   */\n      0x00\n        /* \"#utility.yul\":15498:15565   */\n      tag_324\n        /* \"#utility.yul\":15562:15564   */\n      0x0b\n        /* \"#utility.yul\":15557:15560   */\n      dup4\n        /* \"#utility.yul\":15498:15565   */\n      tag_140\n      jump\t// in\n    tag_324:\n        /* \"#utility.yul\":15491:15565   */\n      swap2\n      pop\n        /* \"#utility.yul\":15574:15667   */\n      tag_325\n        /* \"#utility.yul\":15663:15666   */\n      dup3\n        /* \"#utility.yul\":15574:15667   */\n      tag_156\n      jump\t// in\n    tag_325:\n        /* \"#utility.yul\":15692:15694   */\n      0x20\n        /* \"#utility.yul\":15687:15690   */\n      dup3\n        /* \"#utility.yul\":15683:15695   */\n      add\n        /* \"#utility.yul\":15676:15695   */\n      swap1\n      pop\n        /* \"#utility.yul\":15335:15701   */\n      swap2\n      swap1\n      pop\n      jump\t// out\n        /* \"#utility.yul\":15707:16126   */\n    tag_103:\n        /* \"#utility.yul\":15873:15877   */\n      0x00\n        /* \"#utility.yul\":15911:15913   */\n      0x20\n        /* \"#utility.yul\":15900:15909   */\n      dup3\n        /* \"#utility.yul\":15896:15914   */\n      add\n        /* \"#utility.yul\":15888:15914   */\n      swap1\n      pop\n        /* \"#utility.yul\":15960:15969   */\n      dup2\n        /* \"#utility.yul\":15954:15958   */\n      dup2\n        /* \"#utility.yul\":15950:15970   */\n      sub\n        /* \"#utility.yul\":15946:15947   */\n      0x00\n        /* \"#utility.yul\":15935:15944   */\n      dup4\n        /* \"#utility.yul\":15931:15948   */\n      add\n        /* \"#utility.yul\":15924:15971   */\n      mstore\n        /* \"#utility.yul\":15988:16119   */\n      tag_327\n        /* \"#utility.yul\":16114:16118   */\n      dup2\n        /* \"#utility.yul\":15988:16119   */\n      tag_157\n      jump\t// in\n    tag_327:\n        /* \"#utility.yul\":15980:16119   */\n      swap1\n      pop\n        /* \"#utility.yul\":15707:16126   */\n      swap2\n      swap1\n      pop\n      jump\t// out\n\n    auxdata: 0xa2646970667358221220e87677ec240b4c6ca0fbc4dc74718b8fb86bf1d432d80e1d6e09193d61a7304b64736f6c63430008220033\n}\n",
				"bytecode": {
					"linkReferences": {},
					"object": "6080604052348015600e575f5ffd5b50335f5f6101000a81548173ffffffffffffffffffffffffffffffffffffffff021916908373ffffffffffffffffffffffffffffffffffffffff1602179055506110a78061005b5f395ff3fe608060405260043610610089575f3560e01c80638da5cb5b116100585780638da5cb5b1461014a5780639f81aed714610174578063afca06541461019e578063b0f8b142146101da578063c1a287e21461021657610090565b8063175aca1e14610094578063228250c9146100bc5780634125ff90146100f85780634b9915a51461012257610090565b3661009057005b5f5ffd5b34801561009f575f5ffd5b506100ba60048036038101906100b591906108c9565b610240565b005b3480156100c7575f5ffd5b506100e260048036038101906100dd91906108c9565b61038f565b6040516100ef919061090e565b60405180910390f35b348015610103575f5ffd5b5061010c6103ac565b604051610119919061093f565b60405180910390f35b34801561012d575f5ffd5b5061014860048036038101906101439190610bb6565b6103b2565b005b348015610155575f5ffd5b5061015e61057d565b60405161016b9190610c74565b60405180910390f35b34801561017f575f5ffd5b506101886105a1565b604051610195919061093f565b60405180910390f35b3480156101a9575f5ffd5b506101c460048036038101906101bf9190610bb6565b6105a6565b6040516101d19190610c9c565b60405180910390f35b3480156101e5575f5ffd5b5061020060048036038101906101fb9190610bb6565b6105e1565b60405161020d9190610d15565b60405180910390f35b348015610221575f5ffd5b5061022a61087f565b604051610237919061093f565b60405180910390f35b5f5f9054906101000a900473ffffffffffffffffffffffffffffffffffffffff1673ffffffffffffffffffffffffffffffffffffffff163373ffffffffffffffffffffffffffffffffffffffff16146102ce576040517f08c379a00000000000000000000000000000000000000000000000000000000081526004016102c590610d8f565b60405180910390fd5b60015f8281526020019081526020015f205f9054906101000a900460ff1661032d57806040517f308200cc0000000000000000000000000000000000000000000000000000000081526004016103249190610c9c565b60405180910390fd5b5f60015f8381526020019081526020015f205f6101000a81548160ff0219169083151502179055507fe8d9861dbc9c663ed3accd261bbe2fe01e0d3d9e5f51fa38523b265c7757a93a816040516103849190610c9c565b60405180910390a150565b6001602052805f5260405f205f915054906101000a900460ff1681565b6103e881565b5f5f9054906101000a900473ffffffffffffffffffffffffffffffffffffffff1673ffffffffffffffffffffffffffffffffffffffff163373ffffffffffffffffffffffffffffffffffffffff1614610440576040517f08c379a000000000000000000000000000000000000000000000000000000000815260040161043790610d8f565b60405180910390fd5b5f61044e86868686866105a6565b905060015f8281526020019081526020015f205f9054906101000a900460ff16156104b057806040517f995042be0000000000000000000000000000000000000000000000000000000081526004016104a79190610c9c565b60405180910390fd5b6064426104bd9190610dda565b8210806104d657506103e8426104d39190610dda565b82115b1561050d576040517f05dfb40e00000000000000000000000000000000000000000000000000000000815260040160405180910390fd5b6001805f8381526020019081526020015f205f6101000a81548160ff021916908315150217905550807f0bc6f313d0985430d7cf30e2711a5d66b50af1170bef60a5af5aafebbab2d817878787878760405161056d959493929190610e4f565b60405180910390a2505050505050565b5f5f9054906101000a900473ffffffffffffffffffffffffffffffffffffffff1681565b606481565b5f85858585856040516020016105c0959493929190610f87565b60405160208183030381529060405280519060200120905095945050505050565b60605f6105f187878787876105a6565b905060015f8281526020019081526020015f205f9054906101000a900460ff1661065257806040517f0995c9d50000000000000000000000000000000000000000000000000000000081526004016106499190610c9c565b60405180910390fd5b60644261065f9190610dda565b831015610698576040517f3fc00c4800000000000000000000000000000000000000000000000000000000815260040160405180910390fd5b6103e8426106a69190610dda565b8311156106df576040517f85752acb00000000000000000000000000000000000000000000000000000000815260040160405180910390fd5b6001805f8381526020019081526020015f205f6101000a81548160ff0219169083151502179055505f856040516024016040516020818303038152906040529060405161072c9190610fdd565b60405180910390207bffffffffffffffffffffffffffffffffffffffffffffffffffffffff19166020820180517bffffffffffffffffffffffffffffffffffffffffffffffffffffffff838183161783525050505090505f5f8973ffffffffffffffffffffffffffffffffffffffff1689846040516107ab9190610ff3565b5f6040518083038185875af1925050503d805f81146107e5576040519150601f19603f3d011682016040523d82523d5f602084013e6107ea565b606091505b50915091508161082f576040517f08c379a000000000000000000000000000000000000000000000000000000000815260040161082690611053565b60405180910390fd5b837f0a6ac5f65540bed13380f2fac3ddfe077ab0d357da7f8d82407b39b034cea76c8b8b8b8b8b604051610867959493929190610e4f565b60405180910390a28094505050505095945050505050565b6103e881565b5f604051905090565b5f5ffd5b5f5ffd5b5f819050919050565b6108a881610896565b81146108b2575f5ffd5b50565b5f813590506108c38161089f565b92915050565b5f602082840312156108de576108dd61088e565b5b5f6108eb848285016108b5565b91505092915050565b5f8115159050919050565b610908816108f4565b82525050565b5f6020820190506109215f8301846108ff565b92915050565b5f819050919050565b61093981610927565b82525050565b5f6020820190506109525f830184610930565b92915050565b5f73ffffffffffffffffffffffffffffffffffffffff82169050919050565b5f61098182610958565b9050919050565b61099181610977565b811461099b575f5ffd5b50565b5f813590506109ac81610988565b92915050565b6109bb81610927565b81146109c5575f5ffd5b50565b5f813590506109d6816109b2565b92915050565b5f5ffd5b5f5ffd5b5f601f19601f8301169050919050565b7f4e487b71000000000000000000000000000000000000000000000000000000005f52604160045260245ffd5b610a2a826109e4565b810181811067ffffffffffffffff82111715610a4957610a486109f4565b5b80604052505050565b5f610a5b610885565b9050610a678282610a21565b919050565b5f67ffffffffffffffff821115610a8657610a856109f4565b5b610a8f826109e4565b9050602081019050919050565b828183375f83830152505050565b5f610abc610ab784610a6c565b610a52565b905082815260208101848484011115610ad857610ad76109e0565b5b610ae3848285610a9c565b509392505050565b5f82601f830112610aff57610afe6109dc565b5b8135610b0f848260208601610aaa565b91505092915050565b5f67ffffffffffffffff821115610b3257610b316109f4565b5b610b3b826109e4565b9050602081019050919050565b5f610b5a610b5584610b18565b610a52565b905082815260208101848484011115610b7657610b756109e0565b5b610b81848285610a9c565b509392505050565b5f82601f830112610b9d57610b9c6109dc565b5b8135610bad848260208601610b48565b91505092915050565b5f5f5f5f5f60a08688031215610bcf57610bce61088e565b5b5f610bdc8882890161099e565b9550506020610bed888289016109c8565b945050604086013567ffffffffffffffff811115610c0e57610c0d610892565b5b610c1a88828901610aeb565b935050606086013567ffffffffffffffff811115610c3b57610c3a610892565b5b610c4788828901610b89565b9250506080610c58888289016109c8565b9150509295509295909350565b610c6e81610977565b82525050565b5f602082019050610c875f830184610c65565b92915050565b610c9681610896565b82525050565b5f602082019050610caf5f830184610c8d565b92915050565b5f81519050919050565b5f82825260208201905092915050565b8281835e5f83830152505050565b5f610ce782610cb5565b610cf18185610cbf565b9350610d01818560208601610ccf565b610d0a816109e4565b840191505092915050565b5f6020820190508181035f830152610d2d8184610cdd565b905092915050565b5f82825260208201905092915050565b7f6e6f74206f776e657200000000000000000000000000000000000000000000005f82015250565b5f610d79600983610d35565b9150610d8482610d45565b602082019050919050565b5f6020820190508181035f830152610da681610d6d565b9050919050565b7f4e487b71000000000000000000000000000000000000000000000000000000005f52601160045260245ffd5b5f610de482610927565b9150610def83610927565b9250828201905080821115610e0757610e06610dad565b5b92915050565b5f81519050919050565b5f610e2182610e0d565b610e2b8185610d35565b9350610e3b818560208601610ccf565b610e44816109e4565b840191505092915050565b5f60a082019050610e625f830188610c65565b610e6f6020830187610930565b8181036040830152610e818186610e17565b90508181036060830152610e958185610cdd565b9050610ea46080830184610930565b9695505050505050565b5f8160601b9050919050565b5f610ec482610eae565b9050919050565b5f610ed582610eba565b9050919050565b610eed610ee882610977565b610ecb565b82525050565b5f819050919050565b610f0d610f0882610927565b610ef3565b82525050565b5f81905092915050565b5f610f2782610e0d565b610f318185610f13565b9350610f41818560208601610ccf565b80840191505092915050565b5f81905092915050565b5f610f6182610cb5565b610f6b8185610f4d565b9350610f7b818560208601610ccf565b80840191505092915050565b5f610f928288610edc565b601482019150610fa28287610efc565b602082019150610fb28286610f1d565b9150610fbe8285610f57565b9150610fca8284610efc565b6020820191508190509695505050505050565b5f610fe88284610f1d565b915081905092915050565b5f610ffe8284610f57565b915081905092915050565b7f63616c6c206661696c65640000000000000000000000000000000000000000005f82015250565b5f61103d600b83610d35565b915061104882611009565b602082019050919050565b5f6020820190508181035f83015261106a81611031565b905091905056fea2646970667358221220e87677ec240b4c6ca0fbc4dc74718b8fb86bf1d432d80e1d6e09193d61a7304b64736f6c63430008220033",
					"opcodes": "PUSH1 0x80 PUSH1 0x40 MSTORE CALLVALUE DUP1 ISZERO PUSH1 0xE JUMPI PUSH0 PUSH0 REVERT JUMPDEST POP CALLER PUSH0 PUSH0 PUSH2 0x100 EXP DUP2 SLOAD DUP2 PUSH20 0xFFFFFFFFFFFFFFFFFFFFFFFFFFFFFFFFFFFFFFFF MUL NOT AND SWAP1 DUP4 PUSH20 0xFFFFFFFFFFFFFFFFFFFFFFFFFFFFFFFFFFFFFFFF AND MUL OR SWAP1 SSTORE POP PUSH2 0x10A7 DUP1 PUSH2 0x5B PUSH0 CODECOPY PUSH0 RETURN INVALID PUSH1 0x80 PUSH1 0x40 MSTORE PUSH1 0x4 CALLDATASIZE LT PUSH2 0x89 JUMPI PUSH0 CALLDATALOAD PUSH1 0xE0 SHR DUP1 PUSH4 0x8DA5CB5B GT PUSH2 0x58 JUMPI DUP1 PUSH4 0x8DA5CB5B EQ PUSH2 0x14A JUMPI DUP1 PUSH4 0x9F81AED7 EQ PUSH2 0x174 JUMPI DUP1 PUSH4 0xAFCA0654 EQ PUSH2 0x19E JUMPI DUP1 PUSH4 0xB0F8B142 EQ PUSH2 0x1DA JUMPI DUP1 PUSH4 0xC1A287E2 EQ PUSH2 0x216 JUMPI PUSH2 0x90 JUMP JUMPDEST DUP1 PUSH4 0x175ACA1E EQ PUSH2 0x94 JUMPI DUP1 PUSH4 0x228250C9 EQ PUSH2 0xBC JUMPI DUP1 PUSH4 0x4125FF90 EQ PUSH2 0xF8 JUMPI DUP1 PUSH4 0x4B9915A5 EQ PUSH2 0x122 JUMPI PUSH2 0x90 JUMP JUMPDEST CALLDATASIZE PUSH2 0x90 JUMPI STOP JUMPDEST PUSH0 PUSH0 REVERT JUMPDEST CALLVALUE DUP1 ISZERO PUSH2 0x9F JUMPI PUSH0 PUSH0 REVERT JUMPDEST POP PUSH2 0xBA PUSH1 0x4 DUP1 CALLDATASIZE SUB DUP2 ADD SWAP1 PUSH2 0xB5 SWAP2 SWAP1 PUSH2 0x8C9 JUMP JUMPDEST PUSH2 0x240 JUMP JUMPDEST STOP JUMPDEST CALLVALUE DUP1 ISZERO PUSH2 0xC7 JUMPI PUSH0 PUSH0 REVERT JUMPDEST POP PUSH2 0xE2 PUSH1 0x4 DUP1 CALLDATASIZE SUB DUP2 ADD SWAP1 PUSH2 0xDD SWAP2 SWAP1 PUSH2 0x8C9 JUMP JUMPDEST PUSH2 0x38F JUMP JUMPDEST PUSH1 0x40 MLOAD PUSH2 0xEF SWAP2 SWAP1 PUSH2 0x90E JUMP JUMPDEST PUSH1 0x40 MLOAD DUP1 SWAP2 SUB SWAP1 RETURN JUMPDEST CALLVALUE DUP1 ISZERO PUSH2 0x103 JUMPI PUSH0 PUSH0 REVERT JUMPDEST POP PUSH2 0x10C PUSH2 0x3AC JUMP JUMPDEST PUSH1 0x40 MLOAD PUSH2 0x119 SWAP2 SWAP1 PUSH2 0x93F JUMP JUMPDEST PUSH1 0x40 MLOAD DUP1 SWAP2 SUB SWAP1 RETURN JUMPDEST CALLVALUE DUP1 ISZERO PUSH2 0x12D JUMPI PUSH0 PUSH0 REVERT JUMPDEST POP PUSH2 0x148 PUSH1 0x4 DUP1 CALLDATASIZE SUB DUP2 ADD SWAP1 PUSH2 0x143 SWAP2 SWAP1 PUSH2 0xBB6 JUMP JUMPDEST PUSH2 0x3B2 JUMP JUMPDEST STOP JUMPDEST CALLVALUE DUP1 ISZERO PUSH2 0x155 JUMPI PUSH0 PUSH0 REVERT JUMPDEST POP PUSH2 0x15E PUSH2 0x57D JUMP JUMPDEST PUSH1 0x40 MLOAD PUSH2 0x16B SWAP2 SWAP1 PUSH2 0xC74 JUMP JUMPDEST PUSH1 0x40 MLOAD DUP1 SWAP2 SUB SWAP1 RETURN JUMPDEST CALLVALUE DUP1 ISZERO PUSH2 0x17F JUMPI PUSH0 PUSH0 REVERT JUMPDEST POP PUSH2 0x188 PUSH2 0x5A1 JUMP JUMPDEST PUSH1 0x40 MLOAD PUSH2 0x195 SWAP2 SWAP1 PUSH2 0x93F JUMP JUMPDEST PUSH1 0x40 MLOAD DUP1 SWAP2 SUB SWAP1 RETURN JUMPDEST CALLVALUE DUP1 ISZERO PUSH2 0x1A9 JUMPI PUSH0 PUSH0 REVERT JUMPDEST POP PUSH2 0x1C4 PUSH1 0x4 DUP1 CALLDATASIZE SUB DUP2 ADD SWAP1 PUSH2 0x1BF SWAP2 SWAP1 PUSH2 0xBB6 JUMP JUMPDEST PUSH2 0x5A6 JUMP JUMPDEST PUSH1 0x40 MLOAD PUSH2 0x1D1 SWAP2 SWAP1 PUSH2 0xC9C JUMP JUMPDEST PUSH1 0x40 MLOAD DUP1 SWAP2 SUB SWAP1 RETURN JUMPDEST CALLVALUE DUP1 ISZERO PUSH2 0x1E5 JUMPI PUSH0 PUSH0 REVERT JUMPDEST POP PUSH2 0x200 PUSH1 0x4 DUP1 CALLDATASIZE SUB DUP2 ADD SWAP1 PUSH2 0x1FB SWAP2 SWAP1 PUSH2 0xBB6 JUMP JUMPDEST PUSH2 0x5E1 JUMP JUMPDEST PUSH1 0x40 MLOAD PUSH2 0x20D SWAP2 SWAP1 PUSH2 0xD15 JUMP JUMPDEST PUSH1 0x40 MLOAD DUP1 SWAP2 SUB SWAP1 RETURN JUMPDEST CALLVALUE DUP1 ISZERO PUSH2 0x221 JUMPI PUSH0 PUSH0 REVERT JUMPDEST POP PUSH2 0x22A PUSH2 0x87F JUMP JUMPDEST PUSH1 0x40 MLOAD PUSH2 0x237 SWAP2 SWAP1 PUSH2 0x93F JUMP JUMPDEST PUSH1 0x40 MLOAD DUP1 SWAP2 SUB SWAP1 RETURN JUMPDEST PUSH0 PUSH0 SWAP1 SLOAD SWAP1 PUSH2 0x100 EXP SWAP1 DIV PUSH20 0xFFFFFFFFFFFFFFFFFFFFFFFFFFFFFFFFFFFFFFFF AND PUSH20 0xFFFFFFFFFFFFFFFFFFFFFFFFFFFFFFFFFFFFFFFF AND CALLER PUSH20 0xFFFFFFFFFFFFFFFFFFFFFFFFFFFFFFFFFFFFFFFF AND EQ PUSH2 0x2CE JUMPI PUSH1 0x40 MLOAD PUSH32 0x8C379A000000000000000000000000000000000000000000000000000000000 DUP2 MSTORE PUSH1 0x4 ADD PUSH2 0x2C5 SWAP1 PUSH2 0xD8F JUMP JUMPDEST PUSH1 0x40 MLOAD DUP1 SWAP2 SUB SWAP1 REVERT JUMPDEST PUSH1 0x1 PUSH0 DUP3 DUP2 MSTORE PUSH1 0x20 ADD SWAP1 DUP2 MSTORE PUSH1 0x20 ADD PUSH0 KECCAK256 PUSH0 SWAP1 SLOAD SWAP1 PUSH2 0x100 EXP SWAP1 DIV PUSH1 0xFF AND PUSH2 0x32D JUMPI DUP1 PUSH1 0x40 MLOAD PUSH32 0x308200CC00000000000000000000000000000000000000000000000000000000 DUP2 MSTORE PUSH1 0x4 ADD PUSH2 0x324 SWAP2 SWAP1 PUSH2 0xC9C JUMP JUMPDEST PUSH1 0x40 MLOAD DUP1 SWAP2 SUB SWAP1 REVERT JUMPDEST PUSH0 PUSH1 0x1 PUSH0 DUP4 DUP2 MSTORE PUSH1 0x20 ADD SWAP1 DUP2 MSTORE PUSH1 0x20 ADD PUSH0 KECCAK256 PUSH0 PUSH2 0x100 EXP DUP2 SLOAD DUP2 PUSH1 0xFF MUL NOT AND SWAP1 DUP4 ISZERO ISZERO MUL OR SWAP1 SSTORE POP PUSH32 0xE8D9861DBC9C663ED3ACCD261BBE2FE01E0D3D9E5F51FA38523B265C7757A93A DUP2 PUSH1 0x40 MLOAD PUSH2 0x384 SWAP2 SWAP1 PUSH2 0xC9C JUMP JUMPDEST PUSH1 0x40 MLOAD DUP1 SWAP2 SUB SWAP1 LOG1 POP JUMP JUMPDEST PUSH1 0x1 PUSH1 0x20 MSTORE DUP1 PUSH0 MSTORE PUSH1 0x40 PUSH0 KECCAK256 PUSH0 SWAP2 POP SLOAD SWAP1 PUSH2 0x100 EXP SWAP1 DIV PUSH1 0xFF AND DUP2 JUMP JUMPDEST PUSH2 0x3E8 DUP2 JUMP JUMPDEST PUSH0 PUSH0 SWAP1 SLOAD SWAP1 PUSH2 0x100 EXP SWAP1 DIV PUSH20 0xFFFFFFFFFFFFFFFFFFFFFFFFFFFFFFFFFFFFFFFF AND PUSH20 0xFFFFFFFFFFFFFFFFFFFFFFFFFFFFFFFFFFFFFFFF AND CALLER PUSH20 0xFFFFFFFFFFFFFFFFFFFFFFFFFFFFFFFFFFFFFFFF AND EQ PUSH2 0x440 JUMPI PUSH1 0x40 MLOAD PUSH32 0x8C379A000000000000000000000000000000000000000000000000000000000 DUP2 MSTORE PUSH1 0x4 ADD PUSH2 0x437 SWAP1 PUSH2 0xD8F JUMP JUMPDEST PUSH1 0x40 MLOAD DUP1 SWAP2 SUB SWAP1 REVERT JUMPDEST PUSH0 PUSH2 0x44E DUP7 DUP7 DUP7 DUP7 DUP7 PUSH2 0x5A6 JUMP JUMPDEST SWAP1 POP PUSH1 0x1 PUSH0 DUP3 DUP2 MSTORE PUSH1 0x20 ADD SWAP1 DUP2 MSTORE PUSH1 0x20 ADD PUSH0 KECCAK256 PUSH0 SWAP1 SLOAD SWAP1 PUSH2 0x100 EXP SWAP1 DIV PUSH1 0xFF AND ISZERO PUSH2 0x4B0 JUMPI DUP1 PUSH1 0x40 MLOAD PUSH32 0x995042BE00000000000000000000000000000000000000000000000000000000 DUP2 MSTORE PUSH1 0x4 ADD PUSH2 0x4A7 SWAP2 SWAP1 PUSH2 0xC9C JUMP JUMPDEST PUSH1 0x40 MLOAD DUP1 SWAP2 SUB SWAP1 REVERT JUMPDEST PUSH1 0x64 TIMESTAMP PUSH2 0x4BD SWAP2 SWAP1 PUSH2 0xDDA JUMP JUMPDEST DUP3 LT DUP1 PUSH2 0x4D6 JUMPI POP PUSH2 0x3E8 TIMESTAMP PUSH2 0x4D3 SWAP2 SWAP1 PUSH2 0xDDA JUMP JUMPDEST DUP3 GT JUMPDEST ISZERO PUSH2 0x50D JUMPI PUSH1 0x40 MLOAD PUSH32 0x5DFB40E00000000000000000000000000000000000000000000000000000000 DUP2 MSTORE PUSH1 0x4 ADD PUSH1 0x40 MLOAD DUP1 SWAP2 SUB SWAP1 REVERT JUMPDEST PUSH1 0x1 DUP1 PUSH0 DUP4 DUP2 MSTORE PUSH1 0x20 ADD SWAP1 DUP2 MSTORE PUSH1 0x20 ADD PUSH0 KECCAK256 PUSH0 PUSH2 0x100 EXP DUP2 SLOAD DUP2 PUSH1 0xFF MUL NOT AND SWAP1 DUP4 ISZERO ISZERO MUL OR SWAP1 SSTORE POP DUP1 PUSH32 0xBC6F313D0985430D7CF30E2711A5D66B50AF1170BEF60A5AF5AAFEBBAB2D817 DUP8 DUP8 DUP8 DUP8 DUP8 PUSH1 0x40 MLOAD PUSH2 0x56D SWAP6 SWAP5 SWAP4 SWAP3 SWAP2 SWAP1 PUSH2 0xE4F JUMP JUMPDEST PUSH1 0x40 MLOAD DUP1 SWAP2 SUB SWAP1 LOG2 POP POP POP POP POP POP JUMP JUMPDEST PUSH0 PUSH0 SWAP1 SLOAD SWAP1 PUSH2 0x100 EXP SWAP1 DIV PUSH20 0xFFFFFFFFFFFFFFFFFFFFFFFFFFFFFFFFFFFFFFFF AND DUP2 JUMP JUMPDEST PUSH1 0x64 DUP2 JUMP JUMPDEST PUSH0 DUP6 DUP6 DUP6 DUP6 DUP6 PUSH1 0x40 MLOAD PUSH1 0x20 ADD PUSH2 0x5C0 SWAP6 SWAP5 SWAP4 SWAP3 SWAP2 SWAP1 PUSH2 0xF87 JUMP JUMPDEST PUSH1 0x40 MLOAD PUSH1 0x20 DUP2 DUP4 SUB SUB DUP2 MSTORE SWAP1 PUSH1 0x40 MSTORE DUP1 MLOAD SWAP1 PUSH1 0x20 ADD KECCAK256 SWAP1 POP SWAP6 SWAP5 POP POP POP POP POP JUMP JUMPDEST PUSH1 0x60 PUSH0 PUSH2 0x5F1 DUP8 DUP8 DUP8 DUP8 DUP8 PUSH2 0x5A6 JUMP JUMPDEST SWAP1 POP PUSH1 0x1 PUSH0 DUP3 DUP2 MSTORE PUSH1 0x20 ADD SWAP1 DUP2 MSTORE PUSH1 0x20 ADD PUSH0 KECCAK256 PUSH0 SWAP1 SLOAD SWAP1 PUSH2 0x100 EXP SWAP1 DIV PUSH1 0xFF AND PUSH2 0x652 JUMPI DUP1 PUSH1 0x40 MLOAD PUSH32 0x995C9D500000000000000000000000000000000000000000000000000000000 DUP2 MSTORE PUSH1 0x4 ADD PUSH2 0x649 SWAP2 SWAP1 PUSH2 0xC9C JUMP JUMPDEST PUSH1 0x40 MLOAD DUP1 SWAP2 SUB SWAP1 REVERT JUMPDEST PUSH1 0x64 TIMESTAMP PUSH2 0x65F SWAP2 SWAP1 PUSH2 0xDDA JUMP JUMPDEST DUP4 LT ISZERO PUSH2 0x698 JUMPI PUSH1 0x40 MLOAD PUSH32 0x3FC00C4800000000000000000000000000000000000000000000000000000000 DUP2 MSTORE PUSH1 0x4 ADD PUSH1 0x40 MLOAD DUP1 SWAP2 SUB SWAP1 REVERT JUMPDEST PUSH2 0x3E8 TIMESTAMP PUSH2 0x6A6 SWAP2 SWAP1 PUSH2 0xDDA JUMP JUMPDEST DUP4 GT ISZERO PUSH2 0x6DF JUMPI PUSH1 0x40 MLOAD PUSH32 0x85752ACB00000000000000000000000000000000000000000000000000000000 DUP2 MSTORE PUSH1 0x4 ADD PUSH1 0x40 MLOAD DUP1 SWAP2 SUB SWAP1 REVERT JUMPDEST PUSH1 0x1 DUP1 PUSH0 DUP4 DUP2 MSTORE PUSH1 0x20 ADD SWAP1 DUP2 MSTORE PUSH1 0x20 ADD PUSH0 KECCAK256 PUSH0 PUSH2 0x100 EXP DUP2 SLOAD DUP2 PUSH1 0xFF MUL NOT AND SWAP1 DUP4 ISZERO ISZERO MUL OR SWAP1 SSTORE POP PUSH0 DUP6 PUSH1 0x40 MLOAD PUSH1 0x24 ADD PUSH1 0x40 MLOAD PUSH1 0x20 DUP2 DUP4 SUB SUB DUP2 MSTORE SWAP1 PUSH1 0x40 MSTORE SWAP1 PUSH1 0x40 MLOAD PUSH2 0x72C SWAP2 SWAP1 PUSH2 0xFDD JUMP JUMPDEST PUSH1 0x40 MLOAD DUP1 SWAP2 SUB SWAP1 KECCAK256 PUSH28 0xFFFFFFFFFFFFFFFFFFFFFFFFFFFFFFFFFFFFFFFFFFFFFFFFFFFFFFFF NOT AND PUSH1 0x20 DUP3 ADD DUP1 MLOAD PUSH28 0xFFFFFFFFFFFFFFFFFFFFFFFFFFFFFFFFFFFFFFFFFFFFFFFFFFFFFFFF DUP4 DUP2 DUP4 AND OR DUP4 MSTORE POP POP POP POP SWAP1 POP PUSH0 PUSH0 DUP10 PUSH20 0xFFFFFFFFFFFFFFFFFFFFFFFFFFFFFFFFFFFFFFFF AND DUP10 DUP5 PUSH1 0x40 MLOAD PUSH2 0x7AB SWAP2 SWAP1 PUSH2 0xFF3 JUMP JUMPDEST PUSH0 PUSH1 0x40 MLOAD DUP1 DUP4 SUB DUP2 DUP6 DUP8 GAS CALL SWAP3 POP POP POP RETURNDATASIZE DUP1 PUSH0 DUP2 EQ PUSH2 0x7E5 JUMPI PUSH1 0x40 MLOAD SWAP2 POP PUSH1 0x1F NOT PUSH1 0x3F RETURNDATASIZE ADD AND DUP3 ADD PUSH1 0x40 MSTORE RETURNDATASIZE DUP3 MSTORE RETURNDATASIZE PUSH0 PUSH1 0x20 DUP5 ADD RETURNDATACOPY PUSH2 0x7EA JUMP JUMPDEST PUSH1 0x60 SWAP2 POP JUMPDEST POP SWAP2 POP SWAP2 POP DUP2 PUSH2 0x82F JUMPI PUSH1 0x40 MLOAD PUSH32 0x8C379A000000000000000000000000000000000000000000000000000000000 DUP2 MSTORE PUSH1 0x4 ADD PUSH2 0x826 SWAP1 PUSH2 0x1053 JUMP JUMPDEST PUSH1 0x40 MLOAD DUP1 SWAP2 SUB SWAP1 REVERT JUMPDEST DUP4 PUSH32 0xA6AC5F65540BED13380F2FAC3DDFE077AB0D357DA7F8D82407B39B034CEA76C DUP12 DUP12 DUP12 DUP12 DUP12 PUSH1 0x40 MLOAD PUSH2 0x867 SWAP6 SWAP5 SWAP4 SWAP3 SWAP2 SWAP1 PUSH2 0xE4F JUMP JUMPDEST PUSH1 0x40 MLOAD DUP1 SWAP2 SUB SWAP1 LOG2 DUP1 SWAP5 POP POP POP POP POP SWAP6 SWAP5 POP POP POP POP POP JUMP JUMPDEST PUSH2 0x3E8 DUP2 JUMP JUMPDEST PUSH0 PUSH1 0x40 MLOAD SWAP1 POP SWAP1 JUMP JUMPDEST PUSH0 PUSH0 REVERT JUMPDEST PUSH0 PUSH0 REVERT JUMPDEST PUSH0 DUP2 SWAP1 POP SWAP2 SWAP1 POP JUMP JUMPDEST PUSH2 0x8A8 DUP2 PUSH2 0x896 JUMP JUMPDEST DUP2 EQ PUSH2 0x8B2 JUMPI PUSH0 PUSH0 REVERT JUMPDEST POP JUMP JUMPDEST PUSH0 DUP2 CALLDATALOAD SWAP1 POP PUSH2 0x8C3 DUP2 PUSH2 0x89F JUMP JUMPDEST SWAP3 SWAP2 POP POP JUMP JUMPDEST PUSH0 PUSH1 0x20 DUP3 DUP5 SUB SLT ISZERO PUSH2 0x8DE JUMPI PUSH2 0x8DD PUSH2 0x88E JUMP JUMPDEST JUMPDEST PUSH0 PUSH2 0x8EB DUP5 DUP3 DUP6 ADD PUSH2 0x8B5 JUMP JUMPDEST SWAP2 POP POP SWAP3 SWAP2 POP POP JUMP JUMPDEST PUSH0 DUP2 ISZERO ISZERO SWAP1 POP SWAP2 SWAP1 POP JUMP JUMPDEST PUSH2 0x908 DUP2 PUSH2 0x8F4 JUMP JUMPDEST DUP3 MSTORE POP POP JUMP JUMPDEST PUSH0 PUSH1 0x20 DUP3 ADD SWAP1 POP PUSH2 0x921 PUSH0 DUP4 ADD DUP5 PUSH2 0x8FF JUMP JUMPDEST SWAP3 SWAP2 POP POP JUMP JUMPDEST PUSH0 DUP2 SWAP1 POP SWAP2 SWAP1 POP JUMP JUMPDEST PUSH2 0x939 DUP2 PUSH2 0x927 JUMP JUMPDEST DUP3 MSTORE POP POP JUMP JUMPDEST PUSH0 PUSH1 0x20 DUP3 ADD SWAP1 POP PUSH2 0x952 PUSH0 DUP4 ADD DUP5 PUSH2 0x930 JUMP JUMPDEST SWAP3 SWAP2 POP POP JUMP JUMPDEST PUSH0 PUSH20 0xFFFFFFFFFFFFFFFFFFFFFFFFFFFFFFFFFFFFFFFF DUP3 AND SWAP1 POP SWAP2 SWAP1 POP JUMP JUMPDEST PUSH0 PUSH2 0x981 DUP3 PUSH2 0x958 JUMP JUMPDEST SWAP1 POP SWAP2 SWAP1 POP JUMP JUMPDEST PUSH2 0x991 DUP2 PUSH2 0x977 JUMP JUMPDEST DUP2 EQ PUSH2 0x99B JUMPI PUSH0 PUSH0 REVERT JUMPDEST POP JUMP JUMPDEST PUSH0 DUP2 CALLDATALOAD SWAP1 POP PUSH2 0x9AC DUP2 PUSH2 0x988 JUMP JUMPDEST SWAP3 SWAP2 POP POP JUMP JUMPDEST PUSH2 0x9BB DUP2 PUSH2 0x927 JUMP JUMPDEST DUP2 EQ PUSH2 0x9C5 JUMPI PUSH0 PUSH0 REVERT JUMPDEST POP JUMP JUMPDEST PUSH0 DUP2 CALLDATALOAD SWAP1 POP PUSH2 0x9D6 DUP2 PUSH2 0x9B2 JUMP JUMPDEST SWAP3 SWAP2 POP POP JUMP JUMPDEST PUSH0 PUSH0 REVERT JUMPDEST PUSH0 PUSH0 REVERT JUMPDEST PUSH0 PUSH1 0x1F NOT PUSH1 0x1F DUP4 ADD AND SWAP1 POP SWAP2 SWAP1 POP JUMP JUMPDEST PUSH32 0x4E487B7100000000000000000000000000000000000000000000000000000000 PUSH0 MSTORE PUSH1 0x41 PUSH1 0x4 MSTORE PUSH1 0x24 PUSH0 REVERT JUMPDEST PUSH2 0xA2A DUP3 PUSH2 0x9E4 JUMP JUMPDEST DUP2 ADD DUP2 DUP2 LT PUSH8 0xFFFFFFFFFFFFFFFF DUP3 GT OR ISZERO PUSH2 0xA49 JUMPI PUSH2 0xA48 PUSH2 0x9F4 JUMP JUMPDEST JUMPDEST DUP1 PUSH1 0x40 MSTORE POP POP POP JUMP JUMPDEST PUSH0 PUSH2 0xA5B PUSH2 0x885 JUMP JUMPDEST SWAP1 POP PUSH2 0xA67 DUP3 DUP3 PUSH2 0xA21 JUMP JUMPDEST SWAP2 SWAP1 POP JUMP JUMPDEST PUSH0 PUSH8 0xFFFFFFFFFFFFFFFF DUP3 GT ISZERO PUSH2 0xA86 JUMPI PUSH2 0xA85 PUSH2 0x9F4 JUMP JUMPDEST JUMPDEST PUSH2 0xA8F DUP3 PUSH2 0x9E4 JUMP JUMPDEST SWAP1 POP PUSH1 0x20 DUP2 ADD SWAP1 POP SWAP2 SWAP1 POP JUMP JUMPDEST DUP3 DUP2 DUP4 CALLDATACOPY PUSH0 DUP4 DUP4 ADD MSTORE POP POP POP JUMP JUMPDEST PUSH0 PUSH2 0xABC PUSH2 0xAB7 DUP5 PUSH2 0xA6C JUMP JUMPDEST PUSH2 0xA52 JUMP JUMPDEST SWAP1 POP DUP3 DUP2 MSTORE PUSH1 0x20 DUP2 ADD DUP5 DUP5 DUP5 ADD GT ISZERO PUSH2 0xAD8 JUMPI PUSH2 0xAD7 PUSH2 0x9E0 JUMP JUMPDEST JUMPDEST PUSH2 0xAE3 DUP5 DUP3 DUP6 PUSH2 0xA9C JUMP JUMPDEST POP SWAP4 SWAP3 POP POP POP JUMP JUMPDEST PUSH0 DUP3 PUSH1 0x1F DUP4 ADD SLT PUSH2 0xAFF JUMPI PUSH2 0xAFE PUSH2 0x9DC JUMP JUMPDEST JUMPDEST DUP2 CALLDATALOAD PUSH2 0xB0F DUP5 DUP3 PUSH1 0x20 DUP7 ADD PUSH2 0xAAA JUMP JUMPDEST SWAP2 POP POP SWAP3 SWAP2 POP POP JUMP JUMPDEST PUSH0 PUSH8 0xFFFFFFFFFFFFFFFF DUP3 GT ISZERO PUSH2 0xB32 JUMPI PUSH2 0xB31 PUSH2 0x9F4 JUMP JUMPDEST JUMPDEST PUSH2 0xB3B DUP3 PUSH2 0x9E4 JUMP JUMPDEST SWAP1 POP PUSH1 0x20 DUP2 ADD SWAP1 POP SWAP2 SWAP1 POP JUMP JUMPDEST PUSH0 PUSH2 0xB5A PUSH2 0xB55 DUP5 PUSH2 0xB18 JUMP JUMPDEST PUSH2 0xA52 JUMP JUMPDEST SWAP1 POP DUP3 DUP2 MSTORE PUSH1 0x20 DUP2 ADD DUP5 DUP5 DUP5 ADD GT ISZERO PUSH2 0xB76 JUMPI PUSH2 0xB75 PUSH2 0x9E0 JUMP JUMPDEST JUMPDEST PUSH2 0xB81 DUP5 DUP3 DUP6 PUSH2 0xA9C JUMP JUMPDEST POP SWAP4 SWAP3 POP POP POP JUMP JUMPDEST PUSH0 DUP3 PUSH1 0x1F DUP4 ADD SLT PUSH2 0xB9D JUMPI PUSH2 0xB9C PUSH2 0x9DC JUMP JUMPDEST JUMPDEST DUP2 CALLDATALOAD PUSH2 0xBAD DUP5 DUP3 PUSH1 0x20 DUP7 ADD PUSH2 0xB48 JUMP JUMPDEST SWAP2 POP POP SWAP3 SWAP2 POP POP JUMP JUMPDEST PUSH0 PUSH0 PUSH0 PUSH0 PUSH0 PUSH1 0xA0 DUP7 DUP9 SUB SLT ISZERO PUSH2 0xBCF JUMPI PUSH2 0xBCE PUSH2 0x88E JUMP JUMPDEST JUMPDEST PUSH0 PUSH2 0xBDC DUP9 DUP3 DUP10 ADD PUSH2 0x99E JUMP JUMPDEST SWAP6 POP POP PUSH1 0x20 PUSH2 0xBED DUP9 DUP3 DUP10 ADD PUSH2 0x9C8 JUMP JUMPDEST SWAP5 POP POP PUSH1 0x40 DUP7 ADD CALLDATALOAD PUSH8 0xFFFFFFFFFFFFFFFF DUP2 GT ISZERO PUSH2 0xC0E JUMPI PUSH2 0xC0D PUSH2 0x892 JUMP JUMPDEST JUMPDEST PUSH2 0xC1A DUP9 DUP3 DUP10 ADD PUSH2 0xAEB JUMP JUMPDEST SWAP4 POP POP PUSH1 0x60 DUP7 ADD CALLDATALOAD PUSH8 0xFFFFFFFFFFFFFFFF DUP2 GT ISZERO PUSH2 0xC3B JUMPI PUSH2 0xC3A PUSH2 0x892 JUMP JUMPDEST JUMPDEST PUSH2 0xC47 DUP9 DUP3 DUP10 ADD PUSH2 0xB89 JUMP JUMPDEST SWAP3 POP POP PUSH1 0x80 PUSH2 0xC58 DUP9 DUP3 DUP10 ADD PUSH2 0x9C8 JUMP JUMPDEST SWAP2 POP POP SWAP3 SWAP6 POP SWAP3 SWAP6 SWAP1 SWAP4 POP JUMP JUMPDEST PUSH2 0xC6E DUP2 PUSH2 0x977 JUMP JUMPDEST DUP3 MSTORE POP POP JUMP JUMPDEST PUSH0 PUSH1 0x20 DUP3 ADD SWAP1 POP PUSH2 0xC87 PUSH0 DUP4 ADD DUP5 PUSH2 0xC65 JUMP JUMPDEST SWAP3 SWAP2 POP POP JUMP JUMPDEST PUSH2 0xC96 DUP2 PUSH2 0x896 JUMP JUMPDEST DUP3 MSTORE POP POP JUMP JUMPDEST PUSH0 PUSH1 0x20 DUP3 ADD SWAP1 POP PUSH2 0xCAF PUSH0 DUP4 ADD DUP5 PUSH2 0xC8D JUMP JUMPDEST SWAP3 SWAP2 POP POP JUMP JUMPDEST PUSH0 DUP2 MLOAD SWAP1 POP SWAP2 SWAP1 POP JUMP JUMPDEST PUSH0 DUP3 DUP3 MSTORE PUSH1 0x20 DUP3 ADD SWAP1 POP SWAP3 SWAP2 POP POP JUMP JUMPDEST DUP3 DUP2 DUP4 MCOPY PUSH0 DUP4 DUP4 ADD MSTORE POP POP POP JUMP JUMPDEST PUSH0 PUSH2 0xCE7 DUP3 PUSH2 0xCB5 JUMP JUMPDEST PUSH2 0xCF1 DUP2 DUP6 PUSH2 0xCBF JUMP JUMPDEST SWAP4 POP PUSH2 0xD01 DUP2 DUP6 PUSH1 0x20 DUP7 ADD PUSH2 0xCCF JUMP JUMPDEST PUSH2 0xD0A DUP2 PUSH2 0x9E4 JUMP JUMPDEST DUP5 ADD SWAP2 POP POP SWAP3 SWAP2 POP POP JUMP JUMPDEST PUSH0 PUSH1 0x20 DUP3 ADD SWAP1 POP DUP2 DUP2 SUB PUSH0 DUP4 ADD MSTORE PUSH2 0xD2D DUP2 DUP5 PUSH2 0xCDD JUMP JUMPDEST SWAP1 POP SWAP3 SWAP2 POP POP JUMP JUMPDEST PUSH0 DUP3 DUP3 MSTORE PUSH1 0x20 DUP3 ADD SWAP1 POP SWAP3 SWAP2 POP POP JUMP JUMPDEST PUSH32 0x6E6F74206F776E65720000000000000000000000000000000000000000000000 PUSH0 DUP3 ADD MSTORE POP JUMP JUMPDEST PUSH0 PUSH2 0xD79 PUSH1 0x9 DUP4 PUSH2 0xD35 JUMP JUMPDEST SWAP2 POP PUSH2 0xD84 DUP3 PUSH2 0xD45 JUMP JUMPDEST PUSH1 0x20 DUP3 ADD SWAP1 POP SWAP2 SWAP1 POP JUMP JUMPDEST PUSH0 PUSH1 0x20 DUP3 ADD SWAP1 POP DUP2 DUP2 SUB PUSH0 DUP4 ADD MSTORE PUSH2 0xDA6 DUP2 PUSH2 0xD6D JUMP JUMPDEST SWAP1 POP SWAP2 SWAP1 POP JUMP JUMPDEST PUSH32 0x4E487B7100000000000000000000000000000000000000000000000000000000 PUSH0 MSTORE PUSH1 0x11 PUSH1 0x4 MSTORE PUSH1 0x24 PUSH0 REVERT JUMPDEST PUSH0 PUSH2 0xDE4 DUP3 PUSH2 0x927 JUMP JUMPDEST SWAP2 POP PUSH2 0xDEF DUP4 PUSH2 0x927 JUMP JUMPDEST SWAP3 POP DUP3 DUP3 ADD SWAP1 POP DUP1 DUP3 GT ISZERO PUSH2 0xE07 JUMPI PUSH2 0xE06 PUSH2 0xDAD JUMP JUMPDEST JUMPDEST SWAP3 SWAP2 POP POP JUMP JUMPDEST PUSH0 DUP2 MLOAD SWAP1 POP SWAP2 SWAP1 POP JUMP JUMPDEST PUSH0 PUSH2 0xE21 DUP3 PUSH2 0xE0D JUMP JUMPDEST PUSH2 0xE2B DUP2 DUP6 PUSH2 0xD35 JUMP JUMPDEST SWAP4 POP PUSH2 0xE3B DUP2 DUP6 PUSH1 0x20 DUP7 ADD PUSH2 0xCCF JUMP JUMPDEST PUSH2 0xE44 DUP2 PUSH2 0x9E4 JUMP JUMPDEST DUP5 ADD SWAP2 POP POP SWAP3 SWAP2 POP POP JUMP JUMPDEST PUSH0 PUSH1 0xA0 DUP3 ADD SWAP1 POP PUSH2 0xE62 PUSH0 DUP4 ADD DUP9 PUSH2 0xC65 JUMP JUMPDEST PUSH2 0xE6F PUSH1 0x20 DUP4 ADD DUP8 PUSH2 0x930 JUMP JUMPDEST DUP2 DUP2 SUB PUSH1 0x40 DUP4 ADD MSTORE PUSH2 0xE81 DUP2 DUP7 PUSH2 0xE17 JUMP JUMPDEST SWAP1 POP DUP2 DUP2 SUB PUSH1 0x60 DUP4 ADD MSTORE PUSH2 0xE95 DUP2 DUP6 PUSH2 0xCDD JUMP JUMPDEST SWAP1 POP PUSH2 0xEA4 PUSH1 0x80 DUP4 ADD DUP5 PUSH2 0x930 JUMP JUMPDEST SWAP7 SWAP6 POP POP POP POP POP POP JUMP JUMPDEST PUSH0 DUP2 PUSH1 0x60 SHL SWAP1 POP SWAP2 SWAP1 POP JUMP JUMPDEST PUSH0 PUSH2 0xEC4 DUP3 PUSH2 0xEAE JUMP JUMPDEST SWAP1 POP SWAP2 SWAP1 POP JUMP JUMPDEST PUSH0 PUSH2 0xED5 DUP3 PUSH2 0xEBA JUMP JUMPDEST SWAP1 POP SWAP2 SWAP1 POP JUMP JUMPDEST PUSH2 0xEED PUSH2 0xEE8 DUP3 PUSH2 0x977 JUMP JUMPDEST PUSH2 0xECB JUMP JUMPDEST DUP3 MSTORE POP POP JUMP JUMPDEST PUSH0 DUP2 SWAP1 POP SWAP2 SWAP1 POP JUMP JUMPDEST PUSH2 0xF0D PUSH2 0xF08 DUP3 PUSH2 0x927 JUMP JUMPDEST PUSH2 0xEF3 JUMP JUMPDEST DUP3 MSTORE POP POP JUMP JUMPDEST PUSH0 DUP2 SWAP1 POP SWAP3 SWAP2 POP POP JUMP JUMPDEST PUSH0 PUSH2 0xF27 DUP3 PUSH2 0xE0D JUMP JUMPDEST PUSH2 0xF31 DUP2 DUP6 PUSH2 0xF13 JUMP JUMPDEST SWAP4 POP PUSH2 0xF41 DUP2 DUP6 PUSH1 0x20 DUP7 ADD PUSH2 0xCCF JUMP JUMPDEST DUP1 DUP5 ADD SWAP2 POP POP SWAP3 SWAP2 POP POP JUMP JUMPDEST PUSH0 DUP2 SWAP1 POP SWAP3 SWAP2 POP POP JUMP JUMPDEST PUSH0 PUSH2 0xF61 DUP3 PUSH2 0xCB5 JUMP JUMPDEST PUSH2 0xF6B DUP2 DUP6 PUSH2 0xF4D JUMP JUMPDEST SWAP4 POP PUSH2 0xF7B DUP2 DUP6 PUSH1 0x20 DUP7 ADD PUSH2 0xCCF JUMP JUMPDEST DUP1 DUP5 ADD SWAP2 POP POP SWAP3 SWAP2 POP POP JUMP JUMPDEST PUSH0 PUSH2 0xF92 DUP3 DUP9 PUSH2 0xEDC JUMP JUMPDEST PUSH1 0x14 DUP3 ADD SWAP2 POP PUSH2 0xFA2 DUP3 DUP8 PUSH2 0xEFC JUMP JUMPDEST PUSH1 0x20 DUP3 ADD SWAP2 POP PUSH2 0xFB2 DUP3 DUP7 PUSH2 0xF1D JUMP JUMPDEST SWAP2 POP PUSH2 0xFBE DUP3 DUP6 PUSH2 0xF57 JUMP JUMPDEST SWAP2 POP PUSH2 0xFCA DUP3 DUP5 PUSH2 0xEFC JUMP JUMPDEST PUSH1 0x20 DUP3 ADD SWAP2 POP DUP2 SWAP1 POP SWAP7 SWAP6 POP POP POP POP POP POP JUMP JUMPDEST PUSH0 PUSH2 0xFE8 DUP3 DUP5 PUSH2 0xF1D JUMP JUMPDEST SWAP2 POP DUP2 SWAP1 POP SWAP3 SWAP2 POP POP JUMP JUMPDEST PUSH0 PUSH2 0xFFE DUP3 DUP5 PUSH2 0xF57 JUMP JUMPDEST SWAP2 POP DUP2 SWAP1 POP SWAP3 SWAP2 POP POP JUMP JUMPDEST PUSH32 0x63616C6C206661696C6564000000000000000000000000000000000000000000 PUSH0 DUP3 ADD MSTORE POP JUMP JUMPDEST PUSH0 PUSH2 0x103D PUSH1 0xB DUP4 PUSH2 0xD35 JUMP JUMPDEST SWAP2 POP PUSH2 0x1048 DUP3 PUSH2 0x1009 JUMP JUMPDEST PUSH1 0x20 DUP3 ADD SWAP1 POP SWAP2 SWAP1 POP JUMP JUMPDEST PUSH0 PUSH1 0x20 DUP3 ADD SWAP1 POP DUP2 DUP2 SUB PUSH0 DUP4 ADD MSTORE PUSH2 0x106A DUP2 PUSH2 0x1031 JUMP JUMPDEST SWAP1 POP SWAP2 SWAP1 POP JUMP INVALID LOG2 PUSH5 0x6970667358 0x22 SLT KECCAK256 0xE8 PUSH23 0x77EC240B4C6CA0FBC4DC74718B8FB86BF1D432D80E1D6E MULMOD NOT RETURNDATASIZE PUSH2 0xA730 0x4B PUSH5 0x736F6C6343 STOP ADDMOD 0x22 STOP CALLER "
				},
				"gasEstimates": {
					"creation": {
						"codeDepositCost": "852600",
						"executionCost": "25152",
						"totalCost": "877752"
					},
					"external": {
						"GRACE_PERIOD()": "413",
						"MAX_DELAY()": "370",
						"MIN_DELAY()": "347",
						"cancelQueue(bytes32)": "infinite",
						"execute(address,uint256,string,bytes,uint256)": "infinite",
						"getId(address,uint256,string,bytes,uint256)": "infinite",
						"owner()": "2507",
						"queue(address,uint256,string,bytes,uint256)": "infinite",
						"queued(bytes32)": "2808"
					}
				},
				"methodIdentifiers": {
					"GRACE_PERIOD()": "c1a287e2",
					"MAX_DELAY()": "4125ff90",
					"MIN_DELAY()": "9f81aed7",
					"cancelQueue(bytes32)": "175aca1e",
					"execute(address,uint256,string,bytes,uint256)": "b0f8b142",
					"getId(address,uint256,string,bytes,uint256)": "afca0654",
					"owner()": "8da5cb5b",
					"queue(address,uint256,string,bytes,uint256)": "4b9915a5",
					"queued(bytes32)": "228250c9"
				}
			},
			"storageLayout": {
				"storage": [
					{
						"astId": 3,
						"contract": "solidity高级应用/timelock时间锁.sol:TimeLock",
						"label": "owner",
						"offset": 0,
						"slot": "0",
						"type": "t_address"
					},
					{
						"astId": 7,
						"contract": "solidity高级应用/timelock时间锁.sol:TimeLock",
						"label": "queued",
						"offset": 0,
						"slot": "1",
						"type": "t_mapping(t_bytes32,t_bool)"
					}
				],
				"types": {
					"t_address": {
						"encoding": "inplace",
						"label": "address",
						"numberOfBytes": "20"
					},
					"t_bool": {
						"encoding": "inplace",
						"label": "bool",
						"numberOfBytes": "1"
					},
					"t_bytes32": {
						"encoding": "inplace",
						"label": "bytes32",
						"numberOfBytes": "32"
					},
					"t_mapping(t_bytes32,t_bool)": {
						"encoding": "mapping",
						"key": "t_bytes32",
						"label": "mapping(bytes32 => bool)",
						"numberOfBytes": "32",
						"value": "t_bool"
					}
				}
			},
			"userdoc": {
				"kind": "user",
				"methods": {},
				"version": 1
			}
		}
	}
}