{
	"签名和验证/访问控制.sol": {
		"AccessControl": {
			"abi": [
				{
					"inputs": [],
					"stateMutability": "nonpayable",
					"type": "constructor"
				},
				{
					"anonymous": false,
					"inputs": [
						{
							"indexed": true,
							"internalType": "bytes32",
							"name": "role",
							"type": "bytes32"
						},
						{
							"indexed": true,
							"internalType": "address",
							"name": "account",
							"type": "address"
						}
					],
					"name": "GrantRole",
					"type": "event"
				},
				{
					"anonymous": false,
					"inputs": [
						{
							"indexed": true,
							"internalType": "bytes32",
							"name": "role",
							"type": "bytes32"
						},
						{
							"indexed": true,
							"internalType": "address",
							"name": "account",
							"type": "address"
						}
					],
					"name": "RevokeRole",
					"type": "event"
				},
				{
					"inputs": [],
					"name": "ADMIN",
					"outputs": [
						{
							"internalType": "bytes32",
							"name": "",
							"type": "bytes32"
						}
					],
					"stateMutability": "view",
					"type": "function"
				},
				{
					"inputs": [],
					"name": "USER",
					"outputs": [
						{
							"internalType": "bytes32",
							"name": "",
							"type": "bytes32"
						}
					],
					"stateMutability": "view",
					"type": "function"
				},
				{
					"inputs": [
						{
							"internalType": "bytes32",
							"name": "role",
							"type": "bytes32"
						},
						{
							"internalType": "address",
							"name": "account",
							"type": "address"
						}
					],
					"name": "grantRole",
					"outputs": [],
					"stateMutability": "nonpayable",
					"type": "function"
				},
				{
					"inputs": [
						{
							"internalType": "bytes32",
							"name": "role",
							"type": "bytes32"
						},
						{
							"internalType": "address",
							"name": "account",
							"type": "address"
						}
					],
					"name": "revokeRole",
					"outputs": [],
					"stateMutability": "nonpayable",
					"type": "function"
				},
				{
					"inputs": [
						{
							"internalType": "bytes32",
							"name": "",
							"type": "bytes32"
						},
						{
							"internalType": "address",
							"name": "",
							"type": "address"
						}
					],
					"name": "roles",
					"outputs": [
						{
							"internalType": "bool",
							"name": "",
							"type": "bool"
						}
					],
					"stateMutability": "view",
					"type": "function"
				}
			],
			"devdoc": {
				"kind": "dev",
				"methods": {},
				"version": 1
			},
			"evm": {
				"assembly": "    /* \"\\xe7\\xad\\xbe\\xe5\\x90\\x8d\\xe5\\x92\\x8c\\xe9\\xaa\\x8c\\xe8\\xaf\\x81/\\xe8\\xae\\xbf\\xe9\\x97\\xae\\xe6\\x8e\\xa7\\xe5\\x88\\xb6.sol\":269:1182  contract AccessControl {... */\n  mstore(0x40, 0x80)\n    /* \"\\xe7\\xad\\xbe\\xe5\\x90\\x8d\\xe5\\x92\\x8c\\xe9\\xaa\\x8c\\xe8\\xaf\\x81/\\xe8\\xae\\xbf\\xe9\\x97\\xae\\xe6\\x8e\\xa7\\xe5\\x88\\xb6.sol\":655:719  constructor() {... */\n  callvalue\n  dup1\n  iszero\n  tag_1\n  jumpi\n  revert(0x00, 0x00)\ntag_1:\n  pop\n    /* \"\\xe7\\xad\\xbe\\xe5\\x90\\x8d\\xe5\\x92\\x8c\\xe9\\xaa\\x8c\\xe8\\xaf\\x81/\\xe8\\xae\\xbf\\xe9\\x97\\xae\\xe6\\x8e\\xa7\\xe5\\x88\\xb6.sol\":707:711  true */\n  0x01\n    /* \"\\xe7\\xad\\xbe\\xe5\\x90\\x8d\\xe5\\x92\\x8c\\xe9\\xaa\\x8c\\xe8\\xaf\\x81/\\xe8\\xae\\xbf\\xe9\\x97\\xae\\xe6\\x8e\\xa7\\xe5\\x88\\xb6.sol\":680:685  roles */\n  0x00\n    /* \"\\xe7\\xad\\xbe\\xe5\\x90\\x8d\\xe5\\x92\\x8c\\xe9\\xaa\\x8c\\xe8\\xaf\\x81/\\xe8\\xae\\xbf\\xe9\\x97\\xae\\xe6\\x8e\\xa7\\xe5\\x88\\xb6.sol\":680:692  roles[ADMIN] */\n  0x00\n    /* \"\\xe7\\xad\\xbe\\xe5\\x90\\x8d\\xe5\\x92\\x8c\\xe9\\xaa\\x8c\\xe8\\xaf\\x81/\\xe8\\xae\\xbf\\xe9\\x97\\xae\\xe6\\x8e\\xa7\\xe5\\x88\\xb6.sol\":547:572  abi.encodePacked(\"ADMIN\") */\n  add(0x20, mload(0x40))\n  tag_4\n  swap1\n  tag_5\n  jump\t// in\ntag_4:\n  mload(0x40)\n  0x20\n  dup2\n  dup4\n  sub\n  sub\n  dup2\n  mstore\n  swap1\n  0x40\n  mstore\n    /* \"\\xe7\\xad\\xbe\\xe5\\x90\\x8d\\xe5\\x92\\x8c\\xe9\\xaa\\x8c\\xe8\\xaf\\x81/\\xe8\\xae\\xbf\\xe9\\x97\\xae\\xe6\\x8e\\xa7\\xe5\\x88\\xb6.sol\":537:573  keccak256(abi.encodePacked(\"ADMIN\")) */\n  dup1\n  mload\n  swap1\n  0x20\n  add\n  keccak256\n    /* \"\\xe7\\xad\\xbe\\xe5\\x90\\x8d\\xe5\\x92\\x8c\\xe9\\xaa\\x8c\\xe8\\xaf\\x81/\\xe8\\xae\\xbf\\xe9\\x97\\xae\\xe6\\x8e\\xa7\\xe5\\x88\\xb6.sol\":680:692  roles[ADMIN] */\n  dup2\n  mstore\n  0x20\n  add\n  swap1\n  dup2\n  mstore\n  0x20\n  add\n  0x00\n  keccak256\n    /* \"\\xe7\\xad\\xbe\\xe5\\x90\\x8d\\xe5\\x92\\x8c\\xe9\\xaa\\x8c\\xe8\\xaf\\x81/\\xe8\\xae\\xbf\\xe9\\x97\\xae\\xe6\\x8e\\xa7\\xe5\\x88\\xb6.sol\":680:704  roles[ADMIN][msg.sender] */\n  0x00\n    /* \"\\xe7\\xad\\xbe\\xe5\\x90\\x8d\\xe5\\x92\\x8c\\xe9\\xaa\\x8c\\xe8\\xaf\\x81/\\xe8\\xae\\xbf\\xe9\\x97\\xae\\xe6\\x8e\\xa7\\xe5\\x88\\xb6.sol\":693:703  msg.sender */\n  caller\n    /* \"\\xe7\\xad\\xbe\\xe5\\x90\\x8d\\xe5\\x92\\x8c\\xe9\\xaa\\x8c\\xe8\\xaf\\x81/\\xe8\\xae\\xbf\\xe9\\x97\\xae\\xe6\\x8e\\xa7\\xe5\\x88\\xb6.sol\":680:704  roles[ADMIN][msg.sender] */\n  0xffffffffffffffffffffffffffffffffffffffff\n  and\n  0xffffffffffffffffffffffffffffffffffffffff\n  and\n  dup2\n  mstore\n  0x20\n  add\n  swap1\n  dup2\n  mstore\n  0x20\n  add\n  0x00\n  keccak256\n  0x00\n    /* \"\\xe7\\xad\\xbe\\xe5\\x90\\x8d\\xe5\\x92\\x8c\\xe9\\xaa\\x8c\\xe8\\xaf\\x81/\\xe8\\xae\\xbf\\xe9\\x97\\xae\\xe6\\x8e\\xa7\\xe5\\x88\\xb6.sol\":680:711  roles[ADMIN][msg.sender] = true */\n  0x0100\n  exp\n  dup2\n  sload\n  dup2\n  0xff\n  mul\n  not\n  and\n  swap1\n  dup4\n  iszero\n  iszero\n  mul\n  or\n  swap1\n  sstore\n  pop\n    /* \"\\xe7\\xad\\xbe\\xe5\\x90\\x8d\\xe5\\x92\\x8c\\xe9\\xaa\\x8c\\xe8\\xaf\\x81/\\xe8\\xae\\xbf\\xe9\\x97\\xae\\xe6\\x8e\\xa7\\xe5\\x88\\xb6.sol\":269:1182  contract AccessControl {... */\n  jump(tag_6)\n    /* \"#utility.yul\":7:155   */\ntag_7:\n    /* \"#utility.yul\":109:120   */\n  0x00\n    /* \"#utility.yul\":146:149   */\n  dup2\n    /* \"#utility.yul\":131:149   */\n  swap1\n  pop\n    /* \"#utility.yul\":7:155   */\n  swap3\n  swap2\n  pop\n  pop\n  jump\t// out\n    /* \"#utility.yul\":161:316   */\ntag_8:\n    /* \"#utility.yul\":301:308   */\n  0x41444d494e000000000000000000000000000000000000000000000000000000\n    /* \"#utility.yul\":297:298   */\n  0x00\n    /* \"#utility.yul\":289:295   */\n  dup3\n    /* \"#utility.yul\":285:299   */\n  add\n    /* \"#utility.yul\":278:309   */\n  mstore\n    /* \"#utility.yul\":161:316   */\n  pop\n  jump\t// out\n    /* \"#utility.yul\":322:722   */\ntag_9:\n    /* \"#utility.yul\":482:485   */\n  0x00\n    /* \"#utility.yul\":503:587   */\n  tag_14\n    /* \"#utility.yul\":585:586   */\n  0x05\n    /* \"#utility.yul\":580:583   */\n  dup4\n    /* \"#utility.yul\":503:587   */\n  tag_7\n  jump\t// in\ntag_14:\n    /* \"#utility.yul\":496:587   */\n  swap2\n  pop\n    /* \"#utility.yul\":596:689   */\n  tag_15\n    /* \"#utility.yul\":685:688   */\n  dup3\n    /* \"#utility.yul\":596:689   */\n  tag_8\n  jump\t// in\ntag_15:\n    /* \"#utility.yul\":714:715   */\n  0x05\n    /* \"#utility.yul\":709:712   */\n  dup3\n    /* \"#utility.yul\":705:716   */\n  add\n    /* \"#utility.yul\":698:716   */\n  swap1\n  pop\n    /* \"#utility.yul\":322:722   */\n  swap2\n  swap1\n  pop\n  jump\t// out\n    /* \"#utility.yul\":728:1109   */\ntag_5:\n    /* \"#utility.yul\":913:916   */\n  0x00\n    /* \"#utility.yul\":935:1083   */\n  tag_17\n    /* \"#utility.yul\":1079:1082   */\n  dup3\n    /* \"#utility.yul\":935:1083   */\n  tag_9\n  jump\t// in\ntag_17:\n    /* \"#utility.yul\":928:1083   */\n  swap2\n  pop\n    /* \"#utility.yul\":1100:1103   */\n  dup2\n    /* \"#utility.yul\":1093:1103   */\n  swap1\n  pop\n    /* \"#utility.yul\":728:1109   */\n  swap2\n  swap1\n  pop\n  jump\t// out\n    /* \"\\xe7\\xad\\xbe\\xe5\\x90\\x8d\\xe5\\x92\\x8c\\xe9\\xaa\\x8c\\xe8\\xaf\\x81/\\xe8\\xae\\xbf\\xe9\\x97\\xae\\xe6\\x8e\\xa7\\xe5\\x88\\xb6.sol\":269:1182  contract AccessControl {... */\ntag_6:\n  dataSize(sub_0)\n  dup1\n  dataOffset(sub_0)\n  0x00\n  codecopy\n  0x00\n  return\nstop\n\nsub_0: assembly {\n        /* \"\\xe7\\xad\\xbe\\xe5\\x90\\x8d\\xe5\\x92\\x8c\\xe9\\xaa\\x8c\\xe8\\xaf\\x81/\\xe8\\xae\\xbf\\xe9\\x97\\xae\\xe6\\x8e\\xa7\\xe5\\x88\\xb6.sol\":269:1182  contract AccessControl {... */\n      mstore(0x40, 0x80)\n      callvalue\n      dup1\n      iszero\n      tag_1\n      jumpi\n      revert(0x00, 0x00)\n    tag_1:\n      pop\n      jumpi(tag_2, lt(calldatasize, 0x04))\n      shr(0xe0, calldataload(0x00))\n      dup1\n      0x2a0acc6a\n      eq\n      tag_3\n      jumpi\n      dup1\n      0x2f2ff15d\n      eq\n      tag_4\n      jumpi\n      dup1\n      0x81e167cf\n      eq\n      tag_5\n      jumpi\n      dup1\n      0xd547741f\n      eq\n      tag_6\n      jumpi\n      dup1\n      0xf8fc08b9\n      eq\n      tag_7\n      jumpi\n    tag_2:\n      revert(0x00, 0x00)\n        /* \"\\xe7\\xad\\xbe\\xe5\\x90\\x8d\\xe5\\x92\\x8c\\xe9\\xaa\\x8c\\xe8\\xaf\\x81/\\xe8\\xae\\xbf\\xe9\\x97\\xae\\xe6\\x8e\\xa7\\xe5\\x88\\xb6.sol\":505:573  bytes32 public constant ADMIN = keccak256(abi.encodePacked(\"ADMIN\")) */\n    tag_3:\n      tag_8\n      tag_9\n      jump\t// in\n    tag_8:\n      mload(0x40)\n      tag_10\n      swap2\n      swap1\n      tag_11\n      jump\t// in\n    tag_10:\n      mload(0x40)\n      dup1\n      swap2\n      sub\n      swap1\n      return\n        /* \"\\xe7\\xad\\xbe\\xe5\\x90\\x8d\\xe5\\x92\\x8c\\xe9\\xaa\\x8c\\xe8\\xaf\\x81/\\xe8\\xae\\xbf\\xe9\\x97\\xae\\xe6\\x8e\\xa7\\xe5\\x88\\xb6.sol\":847:1008  function grantRole(bytes32 role,address account) external  onlyRole(ADMIN) {... */\n    tag_4:\n      tag_12\n      0x04\n      dup1\n      calldatasize\n      sub\n      dup2\n      add\n      swap1\n      tag_13\n      swap2\n      swap1\n      tag_14\n      jump\t// in\n    tag_13:\n      tag_15\n      jump\t// in\n    tag_12:\n      stop\n        /* \"\\xe7\\xad\\xbe\\xe5\\x90\\x8d\\xe5\\x92\\x8c\\xe9\\xaa\\x8c\\xe8\\xaf\\x81/\\xe8\\xae\\xbf\\xe9\\x97\\xae\\xe6\\x8e\\xa7\\xe5\\x88\\xb6.sol\":580:646  bytes32 public constant USER = keccak256(abi.encodePacked(\"USER\")) */\n    tag_5:\n      tag_16\n      tag_17\n      jump\t// in\n    tag_16:\n      mload(0x40)\n      tag_18\n      swap2\n      swap1\n      tag_11\n      jump\t// in\n    tag_18:\n      mload(0x40)\n      dup1\n      swap2\n      sub\n      swap1\n      return\n        /* \"\\xe7\\xad\\xbe\\xe5\\x90\\x8d\\xe5\\x92\\x8c\\xe9\\xaa\\x8c\\xe8\\xaf\\x81/\\xe8\\xae\\xbf\\xe9\\x97\\xae\\xe6\\x8e\\xa7\\xe5\\x88\\xb6.sol\":1016:1179  function revokeRole(bytes32 role,address account) external onlyRole(ADMIN) {... */\n    tag_6:\n      tag_19\n      0x04\n      dup1\n      calldatasize\n      sub\n      dup2\n      add\n      swap1\n      tag_20\n      swap2\n      swap1\n      tag_14\n      jump\t// in\n    tag_20:\n      tag_21\n      jump\t// in\n    tag_19:\n      stop\n        /* \"\\xe7\\xad\\xbe\\xe5\\x90\\x8d\\xe5\\x92\\x8c\\xe9\\xaa\\x8c\\xe8\\xaf\\x81/\\xe8\\xae\\xbf\\xe9\\x97\\xae\\xe6\\x8e\\xa7\\xe5\\x88\\xb6.sol\":440:498  mapping(bytes32 => mapping (address => bool)) public roles */\n    tag_7:\n      tag_22\n      0x04\n      dup1\n      calldatasize\n      sub\n      dup2\n      add\n      swap1\n      tag_23\n      swap2\n      swap1\n      tag_14\n      jump\t// in\n    tag_23:\n      tag_24\n      jump\t// in\n    tag_22:\n      mload(0x40)\n      tag_25\n      swap2\n      swap1\n      tag_26\n      jump\t// in\n    tag_25:\n      mload(0x40)\n      dup1\n      swap2\n      sub\n      swap1\n      return\n        /* \"\\xe7\\xad\\xbe\\xe5\\x90\\x8d\\xe5\\x92\\x8c\\xe9\\xaa\\x8c\\xe8\\xaf\\x81/\\xe8\\xae\\xbf\\xe9\\x97\\xae\\xe6\\x8e\\xa7\\xe5\\x88\\xb6.sol\":505:573  bytes32 public constant ADMIN = keccak256(abi.encodePacked(\"ADMIN\")) */\n    tag_9:\n        /* \"\\xe7\\xad\\xbe\\xe5\\x90\\x8d\\xe5\\x92\\x8c\\xe9\\xaa\\x8c\\xe8\\xaf\\x81/\\xe8\\xae\\xbf\\xe9\\x97\\xae\\xe6\\x8e\\xa7\\xe5\\x88\\xb6.sol\":547:572  abi.encodePacked(\"ADMIN\") */\n      add(0x20, mload(0x40))\n      tag_27\n      swap1\n      tag_28\n      jump\t// in\n    tag_27:\n      mload(0x40)\n      0x20\n      dup2\n      dup4\n      sub\n      sub\n      dup2\n      mstore\n      swap1\n      0x40\n      mstore\n        /* \"\\xe7\\xad\\xbe\\xe5\\x90\\x8d\\xe5\\x92\\x8c\\xe9\\xaa\\x8c\\xe8\\xaf\\x81/\\xe8\\xae\\xbf\\xe9\\x97\\xae\\xe6\\x8e\\xa7\\xe5\\x88\\xb6.sol\":537:573  keccak256(abi.encodePacked(\"ADMIN\")) */\n      dup1\n      mload\n      swap1\n      0x20\n      add\n      keccak256\n        /* \"\\xe7\\xad\\xbe\\xe5\\x90\\x8d\\xe5\\x92\\x8c\\xe9\\xaa\\x8c\\xe8\\xaf\\x81/\\xe8\\xae\\xbf\\xe9\\x97\\xae\\xe6\\x8e\\xa7\\xe5\\x88\\xb6.sol\":505:573  bytes32 public constant ADMIN = keccak256(abi.encodePacked(\"ADMIN\")) */\n      dup2\n      jump\t// out\n        /* \"\\xe7\\xad\\xbe\\xe5\\x90\\x8d\\xe5\\x92\\x8c\\xe9\\xaa\\x8c\\xe8\\xaf\\x81/\\xe8\\xae\\xbf\\xe9\\x97\\xae\\xe6\\x8e\\xa7\\xe5\\x88\\xb6.sol\":847:1008  function grantRole(bytes32 role,address account) external  onlyRole(ADMIN) {... */\n    tag_15:\n        /* \"\\xe7\\xad\\xbe\\xe5\\x90\\x8d\\xe5\\x92\\x8c\\xe9\\xaa\\x8c\\xe8\\xaf\\x81/\\xe8\\xae\\xbf\\xe9\\x97\\xae\\xe6\\x8e\\xa7\\xe5\\x88\\xb6.sol\":547:572  abi.encodePacked(\"ADMIN\") */\n      add(0x20, mload(0x40))\n      tag_29\n      swap1\n      tag_28\n      jump\t// in\n    tag_29:\n      mload(0x40)\n      0x20\n      dup2\n      dup4\n      sub\n      sub\n      dup2\n      mstore\n      swap1\n      0x40\n      mstore\n        /* \"\\xe7\\xad\\xbe\\xe5\\x90\\x8d\\xe5\\x92\\x8c\\xe9\\xaa\\x8c\\xe8\\xaf\\x81/\\xe8\\xae\\xbf\\xe9\\x97\\xae\\xe6\\x8e\\xa7\\xe5\\x88\\xb6.sol\":537:573  keccak256(abi.encodePacked(\"ADMIN\")) */\n      dup1\n      mload\n      swap1\n      0x20\n      add\n      keccak256\n        /* \"\\xe7\\xad\\xbe\\xe5\\x90\\x8d\\xe5\\x92\\x8c\\xe9\\xaa\\x8c\\xe8\\xaf\\x81/\\xe8\\xae\\xbf\\xe9\\x97\\xae\\xe6\\x8e\\xa7\\xe5\\x88\\xb6.sol\":778:783  roles */\n      0x00\n        /* \"\\xe7\\xad\\xbe\\xe5\\x90\\x8d\\xe5\\x92\\x8c\\xe9\\xaa\\x8c\\xe8\\xaf\\x81/\\xe8\\xae\\xbf\\xe9\\x97\\xae\\xe6\\x8e\\xa7\\xe5\\x88\\xb6.sol\":778:789  roles[role] */\n      0x00\n        /* \"\\xe7\\xad\\xbe\\xe5\\x90\\x8d\\xe5\\x92\\x8c\\xe9\\xaa\\x8c\\xe8\\xaf\\x81/\\xe8\\xae\\xbf\\xe9\\x97\\xae\\xe6\\x8e\\xa7\\xe5\\x88\\xb6.sol\":784:788  role */\n      dup3\n        /* \"\\xe7\\xad\\xbe\\xe5\\x90\\x8d\\xe5\\x92\\x8c\\xe9\\xaa\\x8c\\xe8\\xaf\\x81/\\xe8\\xae\\xbf\\xe9\\x97\\xae\\xe6\\x8e\\xa7\\xe5\\x88\\xb6.sol\":778:789  roles[role] */\n      dup2\n      mstore\n      0x20\n      add\n      swap1\n      dup2\n      mstore\n      0x20\n      add\n      0x00\n      keccak256\n        /* \"\\xe7\\xad\\xbe\\xe5\\x90\\x8d\\xe5\\x92\\x8c\\xe9\\xaa\\x8c\\xe8\\xaf\\x81/\\xe8\\xae\\xbf\\xe9\\x97\\xae\\xe6\\x8e\\xa7\\xe5\\x88\\xb6.sol\":778:801  roles[role][msg.sender] */\n      0x00\n        /* \"\\xe7\\xad\\xbe\\xe5\\x90\\x8d\\xe5\\x92\\x8c\\xe9\\xaa\\x8c\\xe8\\xaf\\x81/\\xe8\\xae\\xbf\\xe9\\x97\\xae\\xe6\\x8e\\xa7\\xe5\\x88\\xb6.sol\":790:800  msg.sender */\n      caller\n        /* \"\\xe7\\xad\\xbe\\xe5\\x90\\x8d\\xe5\\x92\\x8c\\xe9\\xaa\\x8c\\xe8\\xaf\\x81/\\xe8\\xae\\xbf\\xe9\\x97\\xae\\xe6\\x8e\\xa7\\xe5\\x88\\xb6.sol\":778:801  roles[role][msg.sender] */\n      0xffffffffffffffffffffffffffffffffffffffff\n      and\n      0xffffffffffffffffffffffffffffffffffffffff\n      and\n      dup2\n      mstore\n      0x20\n      add\n      swap1\n      dup2\n      mstore\n      0x20\n      add\n      0x00\n      keccak256\n      0x00\n      swap1\n      sload\n      swap1\n      0x0100\n      exp\n      swap1\n      div\n      0xff\n      and\n        /* \"\\xe7\\xad\\xbe\\xe5\\x90\\x8d\\xe5\\x92\\x8c\\xe9\\xaa\\x8c\\xe8\\xaf\\x81/\\xe8\\xae\\xbf\\xe9\\x97\\xae\\xe6\\x8e\\xa7\\xe5\\x88\\xb6.sol\":770:819  require(roles[role][msg.sender],\"Not Authorized\") */\n      tag_31\n      jumpi\n      mload(0x40)\n      0x08c379a000000000000000000000000000000000000000000000000000000000\n      dup2\n      mstore\n      0x04\n      add\n      tag_32\n      swap1\n      tag_33\n      jump\t// in\n    tag_32:\n      mload(0x40)\n      dup1\n      swap2\n      sub\n      swap1\n      revert\n    tag_31:\n        /* \"\\xe7\\xad\\xbe\\xe5\\x90\\x8d\\xe5\\x92\\x8c\\xe9\\xaa\\x8c\\xe8\\xaf\\x81/\\xe8\\xae\\xbf\\xe9\\x97\\xae\\xe6\\x8e\\xa7\\xe5\\x88\\xb6.sol\":956:960  true */\n      0x01\n        /* \"\\xe7\\xad\\xbe\\xe5\\x90\\x8d\\xe5\\x92\\x8c\\xe9\\xaa\\x8c\\xe8\\xaf\\x81/\\xe8\\xae\\xbf\\xe9\\x97\\xae\\xe6\\x8e\\xa7\\xe5\\x88\\xb6.sol\":933:938  roles */\n      0x00\n        /* \"\\xe7\\xad\\xbe\\xe5\\x90\\x8d\\xe5\\x92\\x8c\\xe9\\xaa\\x8c\\xe8\\xaf\\x81/\\xe8\\xae\\xbf\\xe9\\x97\\xae\\xe6\\x8e\\xa7\\xe5\\x88\\xb6.sol\":933:944  roles[role] */\n      0x00\n        /* \"\\xe7\\xad\\xbe\\xe5\\x90\\x8d\\xe5\\x92\\x8c\\xe9\\xaa\\x8c\\xe8\\xaf\\x81/\\xe8\\xae\\xbf\\xe9\\x97\\xae\\xe6\\x8e\\xa7\\xe5\\x88\\xb6.sol\":939:943  role */\n      dup6\n        /* \"\\xe7\\xad\\xbe\\xe5\\x90\\x8d\\xe5\\x92\\x8c\\xe9\\xaa\\x8c\\xe8\\xaf\\x81/\\xe8\\xae\\xbf\\xe9\\x97\\xae\\xe6\\x8e\\xa7\\xe5\\x88\\xb6.sol\":933:944  roles[role] */\n      dup2\n      mstore\n      0x20\n      add\n      swap1\n      dup2\n      mstore\n      0x20\n      add\n      0x00\n      keccak256\n        /* \"\\xe7\\xad\\xbe\\xe5\\x90\\x8d\\xe5\\x92\\x8c\\xe9\\xaa\\x8c\\xe8\\xaf\\x81/\\xe8\\xae\\xbf\\xe9\\x97\\xae\\xe6\\x8e\\xa7\\xe5\\x88\\xb6.sol\":933:953  roles[role][account] */\n      0x00\n        /* \"\\xe7\\xad\\xbe\\xe5\\x90\\x8d\\xe5\\x92\\x8c\\xe9\\xaa\\x8c\\xe8\\xaf\\x81/\\xe8\\xae\\xbf\\xe9\\x97\\xae\\xe6\\x8e\\xa7\\xe5\\x88\\xb6.sol\":945:952  account */\n      dup5\n        /* \"\\xe7\\xad\\xbe\\xe5\\x90\\x8d\\xe5\\x92\\x8c\\xe9\\xaa\\x8c\\xe8\\xaf\\x81/\\xe8\\xae\\xbf\\xe9\\x97\\xae\\xe6\\x8e\\xa7\\xe5\\x88\\xb6.sol\":933:953  roles[role][account] */\n      0xffffffffffffffffffffffffffffffffffffffff\n      and\n      0xffffffffffffffffffffffffffffffffffffffff\n      and\n      dup2\n      mstore\n      0x20\n      add\n      swap1\n      dup2\n      mstore\n      0x20\n      add\n      0x00\n      keccak256\n      0x00\n        /* \"\\xe7\\xad\\xbe\\xe5\\x90\\x8d\\xe5\\x92\\x8c\\xe9\\xaa\\x8c\\xe8\\xaf\\x81/\\xe8\\xae\\xbf\\xe9\\x97\\xae\\xe6\\x8e\\xa7\\xe5\\x88\\xb6.sol\":933:960  roles[role][account] = true */\n      0x0100\n      exp\n      dup2\n      sload\n      dup2\n      0xff\n      mul\n      not\n      and\n      swap1\n      dup4\n      iszero\n      iszero\n      mul\n      or\n      swap1\n      sstore\n      pop\n        /* \"\\xe7\\xad\\xbe\\xe5\\x90\\x8d\\xe5\\x92\\x8c\\xe9\\xaa\\x8c\\xe8\\xaf\\x81/\\xe8\\xae\\xbf\\xe9\\x97\\xae\\xe6\\x8e\\xa7\\xe5\\x88\\xb6.sol\":992:999  account */\n      dup2\n        /* \"\\xe7\\xad\\xbe\\xe5\\x90\\x8d\\xe5\\x92\\x8c\\xe9\\xaa\\x8c\\xe8\\xaf\\x81/\\xe8\\xae\\xbf\\xe9\\x97\\xae\\xe6\\x8e\\xa7\\xe5\\x88\\xb6.sol\":976:1000  GrantRole(role, account) */\n      0xffffffffffffffffffffffffffffffffffffffff\n      and\n        /* \"\\xe7\\xad\\xbe\\xe5\\x90\\x8d\\xe5\\x92\\x8c\\xe9\\xaa\\x8c\\xe8\\xaf\\x81/\\xe8\\xae\\xbf\\xe9\\x97\\xae\\xe6\\x8e\\xa7\\xe5\\x88\\xb6.sol\":986:990  role */\n      dup4\n        /* \"\\xe7\\xad\\xbe\\xe5\\x90\\x8d\\xe5\\x92\\x8c\\xe9\\xaa\\x8c\\xe8\\xaf\\x81/\\xe8\\xae\\xbf\\xe9\\x97\\xae\\xe6\\x8e\\xa7\\xe5\\x88\\xb6.sol\":976:1000  GrantRole(role, account) */\n      0x5a06360d65acf95e98445dc834f205063424c636e65418d928cdfabc33a95399\n      mload(0x40)\n      mload(0x40)\n      dup1\n      swap2\n      sub\n      swap1\n      log3\n        /* \"\\xe7\\xad\\xbe\\xe5\\x90\\x8d\\xe5\\x92\\x8c\\xe9\\xaa\\x8c\\xe8\\xaf\\x81/\\xe8\\xae\\xbf\\xe9\\x97\\xae\\xe6\\x8e\\xa7\\xe5\\x88\\xb6.sol\":847:1008  function grantRole(bytes32 role,address account) external  onlyRole(ADMIN) {... */\n      pop\n      pop\n      pop\n      jump\t// out\n        /* \"\\xe7\\xad\\xbe\\xe5\\x90\\x8d\\xe5\\x92\\x8c\\xe9\\xaa\\x8c\\xe8\\xaf\\x81/\\xe8\\xae\\xbf\\xe9\\x97\\xae\\xe6\\x8e\\xa7\\xe5\\x88\\xb6.sol\":580:646  bytes32 public constant USER = keccak256(abi.encodePacked(\"USER\")) */\n    tag_17:\n        /* \"\\xe7\\xad\\xbe\\xe5\\x90\\x8d\\xe5\\x92\\x8c\\xe9\\xaa\\x8c\\xe8\\xaf\\x81/\\xe8\\xae\\xbf\\xe9\\x97\\xae\\xe6\\x8e\\xa7\\xe5\\x88\\xb6.sol\":621:645  abi.encodePacked(\"USER\") */\n      add(0x20, mload(0x40))\n      tag_35\n      swap1\n      tag_36\n      jump\t// in\n    tag_35:\n      mload(0x40)\n      0x20\n      dup2\n      dup4\n      sub\n      sub\n      dup2\n      mstore\n      swap1\n      0x40\n      mstore\n        /* \"\\xe7\\xad\\xbe\\xe5\\x90\\x8d\\xe5\\x92\\x8c\\xe9\\xaa\\x8c\\xe8\\xaf\\x81/\\xe8\\xae\\xbf\\xe9\\x97\\xae\\xe6\\x8e\\xa7\\xe5\\x88\\xb6.sol\":611:646  keccak256(abi.encodePacked(\"USER\")) */\n      dup1\n      mload\n      swap1\n      0x20\n      add\n      keccak256\n        /* \"\\xe7\\xad\\xbe\\xe5\\x90\\x8d\\xe5\\x92\\x8c\\xe9\\xaa\\x8c\\xe8\\xaf\\x81/\\xe8\\xae\\xbf\\xe9\\x97\\xae\\xe6\\x8e\\xa7\\xe5\\x88\\xb6.sol\":580:646  bytes32 public constant USER = keccak256(abi.encodePacked(\"USER\")) */\n      dup2\n      jump\t// out\n        /* \"\\xe7\\xad\\xbe\\xe5\\x90\\x8d\\xe5\\x92\\x8c\\xe9\\xaa\\x8c\\xe8\\xaf\\x81/\\xe8\\xae\\xbf\\xe9\\x97\\xae\\xe6\\x8e\\xa7\\xe5\\x88\\xb6.sol\":1016:1179  function revokeRole(bytes32 role,address account) external onlyRole(ADMIN) {... */\n    tag_21:\n        /* \"\\xe7\\xad\\xbe\\xe5\\x90\\x8d\\xe5\\x92\\x8c\\xe9\\xaa\\x8c\\xe8\\xaf\\x81/\\xe8\\xae\\xbf\\xe9\\x97\\xae\\xe6\\x8e\\xa7\\xe5\\x88\\xb6.sol\":547:572  abi.encodePacked(\"ADMIN\") */\n      add(0x20, mload(0x40))\n      tag_37\n      swap1\n      tag_28\n      jump\t// in\n    tag_37:\n      mload(0x40)\n      0x20\n      dup2\n      dup4\n      sub\n      sub\n      dup2\n      mstore\n      swap1\n      0x40\n      mstore\n        /* \"\\xe7\\xad\\xbe\\xe5\\x90\\x8d\\xe5\\x92\\x8c\\xe9\\xaa\\x8c\\xe8\\xaf\\x81/\\xe8\\xae\\xbf\\xe9\\x97\\xae\\xe6\\x8e\\xa7\\xe5\\x88\\xb6.sol\":537:573  keccak256(abi.encodePacked(\"ADMIN\")) */\n      dup1\n      mload\n      swap1\n      0x20\n      add\n      keccak256\n        /* \"\\xe7\\xad\\xbe\\xe5\\x90\\x8d\\xe5\\x92\\x8c\\xe9\\xaa\\x8c\\xe8\\xaf\\x81/\\xe8\\xae\\xbf\\xe9\\x97\\xae\\xe6\\x8e\\xa7\\xe5\\x88\\xb6.sol\":778:783  roles */\n      0x00\n        /* \"\\xe7\\xad\\xbe\\xe5\\x90\\x8d\\xe5\\x92\\x8c\\xe9\\xaa\\x8c\\xe8\\xaf\\x81/\\xe8\\xae\\xbf\\xe9\\x97\\xae\\xe6\\x8e\\xa7\\xe5\\x88\\xb6.sol\":778:789  roles[role] */\n      0x00\n        /* \"\\xe7\\xad\\xbe\\xe5\\x90\\x8d\\xe5\\x92\\x8c\\xe9\\xaa\\x8c\\xe8\\xaf\\x81/\\xe8\\xae\\xbf\\xe9\\x97\\xae\\xe6\\x8e\\xa7\\xe5\\x88\\xb6.sol\":784:788  role */\n      dup3\n        /* \"\\xe7\\xad\\xbe\\xe5\\x90\\x8d\\xe5\\x92\\x8c\\xe9\\xaa\\x8c\\xe8\\xaf\\x81/\\xe8\\xae\\xbf\\xe9\\x97\\xae\\xe6\\x8e\\xa7\\xe5\\x88\\xb6.sol\":778:789  roles[role] */\n      dup2\n      mstore\n      0x20\n      add\n      swap1\n      dup2\n      mstore\n      0x20\n      add\n      0x00\n      keccak256\n        /* \"\\xe7\\xad\\xbe\\xe5\\x90\\x8d\\xe5\\x92\\x8c\\xe9\\xaa\\x8c\\xe8\\xaf\\x81/\\xe8\\xae\\xbf\\xe9\\x97\\xae\\xe6\\x8e\\xa7\\xe5\\x88\\xb6.sol\":778:801  roles[role][msg.sender] */\n      0x00\n        /* \"\\xe7\\xad\\xbe\\xe5\\x90\\x8d\\xe5\\x92\\x8c\\xe9\\xaa\\x8c\\xe8\\xaf\\x81/\\xe8\\xae\\xbf\\xe9\\x97\\xae\\xe6\\x8e\\xa7\\xe5\\x88\\xb6.sol\":790:800  msg.sender */\n      caller\n        /* \"\\xe7\\xad\\xbe\\xe5\\x90\\x8d\\xe5\\x92\\x8c\\xe9\\xaa\\x8c\\xe8\\xaf\\x81/\\xe8\\xae\\xbf\\xe9\\x97\\xae\\xe6\\x8e\\xa7\\xe5\\x88\\xb6.sol\":778:801  roles[role][msg.sender] */\n      0xffffffffffffffffffffffffffffffffffffffff\n      and\n      0xffffffffffffffffffffffffffffffffffffffff\n      and\n      dup2\n      mstore\n      0x20\n      add\n      swap1\n      dup2\n      mstore\n      0x20\n      add\n      0x00\n      keccak256\n      0x00\n      swap1\n      sload\n      swap1\n      0x0100\n      exp\n      swap1\n      div\n      0xff\n      and\n        /* \"\\xe7\\xad\\xbe\\xe5\\x90\\x8d\\xe5\\x92\\x8c\\xe9\\xaa\\x8c\\xe8\\xaf\\x81/\\xe8\\xae\\xbf\\xe9\\x97\\xae\\xe6\\x8e\\xa7\\xe5\\x88\\xb6.sol\":770:819  require(roles[role][msg.sender],\"Not Authorized\") */\n      tag_39\n      jumpi\n      mload(0x40)\n      0x08c379a000000000000000000000000000000000000000000000000000000000\n      dup2\n      mstore\n      0x04\n      add\n      tag_40\n      swap1\n      tag_33\n      jump\t// in\n    tag_40:\n      mload(0x40)\n      dup1\n      swap2\n      sub\n      swap1\n      revert\n    tag_39:\n        /* \"\\xe7\\xad\\xbe\\xe5\\x90\\x8d\\xe5\\x92\\x8c\\xe9\\xaa\\x8c\\xe8\\xaf\\x81/\\xe8\\xae\\xbf\\xe9\\x97\\xae\\xe6\\x8e\\xa7\\xe5\\x88\\xb6.sol\":1125:1130  false */\n      0x00\n        /* \"\\xe7\\xad\\xbe\\xe5\\x90\\x8d\\xe5\\x92\\x8c\\xe9\\xaa\\x8c\\xe8\\xaf\\x81/\\xe8\\xae\\xbf\\xe9\\x97\\xae\\xe6\\x8e\\xa7\\xe5\\x88\\xb6.sol\":1102:1107  roles */\n      0x00\n        /* \"\\xe7\\xad\\xbe\\xe5\\x90\\x8d\\xe5\\x92\\x8c\\xe9\\xaa\\x8c\\xe8\\xaf\\x81/\\xe8\\xae\\xbf\\xe9\\x97\\xae\\xe6\\x8e\\xa7\\xe5\\x88\\xb6.sol\":1102:1113  roles[role] */\n      0x00\n        /* \"\\xe7\\xad\\xbe\\xe5\\x90\\x8d\\xe5\\x92\\x8c\\xe9\\xaa\\x8c\\xe8\\xaf\\x81/\\xe8\\xae\\xbf\\xe9\\x97\\xae\\xe6\\x8e\\xa7\\xe5\\x88\\xb6.sol\":1108:1112  role */\n      dup6\n        /* \"\\xe7\\xad\\xbe\\xe5\\x90\\x8d\\xe5\\x92\\x8c\\xe9\\xaa\\x8c\\xe8\\xaf\\x81/\\xe8\\xae\\xbf\\xe9\\x97\\xae\\xe6\\x8e\\xa7\\xe5\\x88\\xb6.sol\":1102:1113  roles[role] */\n      dup2\n      mstore\n      0x20\n      add\n      swap1\n      dup2\n      mstore\n      0x20\n      add\n      0x00\n      keccak256\n        /* \"\\xe7\\xad\\xbe\\xe5\\x90\\x8d\\xe5\\x92\\x8c\\xe9\\xaa\\x8c\\xe8\\xaf\\x81/\\xe8\\xae\\xbf\\xe9\\x97\\xae\\xe6\\x8e\\xa7\\xe5\\x88\\xb6.sol\":1102:1122  roles[role][account] */\n      0x00\n        /* \"\\xe7\\xad\\xbe\\xe5\\x90\\x8d\\xe5\\x92\\x8c\\xe9\\xaa\\x8c\\xe8\\xaf\\x81/\\xe8\\xae\\xbf\\xe9\\x97\\xae\\xe6\\x8e\\xa7\\xe5\\x88\\xb6.sol\":1114:1121  account */\n      dup5\n        /* \"\\xe7\\xad\\xbe\\xe5\\x90\\x8d\\xe5\\x92\\x8c\\xe9\\xaa\\x8c\\xe8\\xaf\\x81/\\xe8\\xae\\xbf\\xe9\\x97\\xae\\xe6\\x8e\\xa7\\xe5\\x88\\xb6.sol\":1102:1122  roles[role][account] */\n      0xffffffffffffffffffffffffffffffffffffffff\n      and\n      0xffffffffffffffffffffffffffffffffffffffff\n      and\n      dup2\n      mstore\n      0x20\n      add\n      swap1\n      dup2\n      mstore\n      0x20\n      add\n      0x00\n      keccak256\n      0x00\n        /* \"\\xe7\\xad\\xbe\\xe5\\x90\\x8d\\xe5\\x92\\x8c\\xe9\\xaa\\x8c\\xe8\\xaf\\x81/\\xe8\\xae\\xbf\\xe9\\x97\\xae\\xe6\\x8e\\xa7\\xe5\\x88\\xb6.sol\":1102:1130  roles[role][account] = false */\n      0x0100\n      exp\n      dup2\n      sload\n      dup2\n      0xff\n      mul\n      not\n      and\n      swap1\n      dup4\n      iszero\n      iszero\n      mul\n      or\n      swap1\n      sstore\n      pop\n        /* \"\\xe7\\xad\\xbe\\xe5\\x90\\x8d\\xe5\\x92\\x8c\\xe9\\xaa\\x8c\\xe8\\xaf\\x81/\\xe8\\xae\\xbf\\xe9\\x97\\xae\\xe6\\x8e\\xa7\\xe5\\x88\\xb6.sol\":1163:1170  account */\n      dup2\n        /* \"\\xe7\\xad\\xbe\\xe5\\x90\\x8d\\xe5\\x92\\x8c\\xe9\\xaa\\x8c\\xe8\\xaf\\x81/\\xe8\\xae\\xbf\\xe9\\x97\\xae\\xe6\\x8e\\xa7\\xe5\\x88\\xb6.sol\":1146:1171  RevokeRole(role, account) */\n      0xffffffffffffffffffffffffffffffffffffffff\n      and\n        /* \"\\xe7\\xad\\xbe\\xe5\\x90\\x8d\\xe5\\x92\\x8c\\xe9\\xaa\\x8c\\xe8\\xaf\\x81/\\xe8\\xae\\xbf\\xe9\\x97\\xae\\xe6\\x8e\\xa7\\xe5\\x88\\xb6.sol\":1157:1161  role */\n      dup4\n        /* \"\\xe7\\xad\\xbe\\xe5\\x90\\x8d\\xe5\\x92\\x8c\\xe9\\xaa\\x8c\\xe8\\xaf\\x81/\\xe8\\xae\\xbf\\xe9\\x97\\xae\\xe6\\x8e\\xa7\\xe5\\x88\\xb6.sol\":1146:1171  RevokeRole(role, account) */\n      0x76e6093c136cd7faa5a6d92b2b633f3b4595abd4a529b7a13917398355fea694\n      mload(0x40)\n      mload(0x40)\n      dup1\n      swap2\n      sub\n      swap1\n      log3\n        /* \"\\xe7\\xad\\xbe\\xe5\\x90\\x8d\\xe5\\x92\\x8c\\xe9\\xaa\\x8c\\xe8\\xaf\\x81/\\xe8\\xae\\xbf\\xe9\\x97\\xae\\xe6\\x8e\\xa7\\xe5\\x88\\xb6.sol\":1016:1179  function revokeRole(bytes32 role,address account) external onlyRole(ADMIN) {... */\n      pop\n      pop\n      pop\n      jump\t// out\n        /* \"\\xe7\\xad\\xbe\\xe5\\x90\\x8d\\xe5\\x92\\x8c\\xe9\\xaa\\x8c\\xe8\\xaf\\x81/\\xe8\\xae\\xbf\\xe9\\x97\\xae\\xe6\\x8e\\xa7\\xe5\\x88\\xb6.sol\":440:498  mapping(bytes32 => mapping (address => bool)) public roles */\n    tag_24:\n      mstore(0x20, 0x00)\n      dup2\n      0x00\n      mstore\n      mstore(0x20, keccak256(0x00, 0x40))\n      dup1\n      0x00\n      mstore\n      keccak256(0x00, 0x40)\n      0x00\n      swap2\n      pop\n      swap2\n      pop\n      swap1\n      sload\n      swap1\n      0x0100\n      exp\n      swap1\n      div\n      0xff\n      and\n      dup2\n      jump\t// out\n        /* \"#utility.yul\":7:84   */\n    tag_42:\n        /* \"#utility.yul\":44:51   */\n      0x00\n        /* \"#utility.yul\":73:78   */\n      dup2\n        /* \"#utility.yul\":62:78   */\n      swap1\n      pop\n        /* \"#utility.yul\":7:84   */\n      swap2\n      swap1\n      pop\n      jump\t// out\n        /* \"#utility.yul\":90:208   */\n    tag_43:\n        /* \"#utility.yul\":177:201   */\n      tag_66\n        /* \"#utility.yul\":195:200   */\n      dup2\n        /* \"#utility.yul\":177:201   */\n      tag_42\n      jump\t// in\n    tag_66:\n        /* \"#utility.yul\":172:175   */\n      dup3\n        /* \"#utility.yul\":165:202   */\n      mstore\n        /* \"#utility.yul\":90:208   */\n      pop\n      pop\n      jump\t// out\n        /* \"#utility.yul\":214:436   */\n    tag_11:\n        /* \"#utility.yul\":307:311   */\n      0x00\n        /* \"#utility.yul\":345:347   */\n      0x20\n        /* \"#utility.yul\":334:343   */\n      dup3\n        /* \"#utility.yul\":330:348   */\n      add\n        /* \"#utility.yul\":322:348   */\n      swap1\n      pop\n        /* \"#utility.yul\":358:429   */\n      tag_68\n        /* \"#utility.yul\":426:427   */\n      0x00\n        /* \"#utility.yul\":415:424   */\n      dup4\n        /* \"#utility.yul\":411:428   */\n      add\n        /* \"#utility.yul\":402:408   */\n      dup5\n        /* \"#utility.yul\":358:429   */\n      tag_43\n      jump\t// in\n    tag_68:\n        /* \"#utility.yul\":214:436   */\n      swap3\n      swap2\n      pop\n      pop\n      jump\t// out\n        /* \"#utility.yul\":523:640   */\n    tag_45:\n        /* \"#utility.yul\":632:633   */\n      0x00\n        /* \"#utility.yul\":629:630   */\n      0x00\n        /* \"#utility.yul\":622:634   */\n      revert\n        /* \"#utility.yul\":769:891   */\n    tag_47:\n        /* \"#utility.yul\":842:866   */\n      tag_73\n        /* \"#utility.yul\":860:865   */\n      dup2\n        /* \"#utility.yul\":842:866   */\n      tag_42\n      jump\t// in\n    tag_73:\n        /* \"#utility.yul\":835:840   */\n      dup2\n        /* \"#utility.yul\":832:867   */\n      eq\n        /* \"#utility.yul\":822:885   */\n      tag_74\n      jumpi\n        /* \"#utility.yul\":881:882   */\n      0x00\n        /* \"#utility.yul\":878:879   */\n      0x00\n        /* \"#utility.yul\":871:883   */\n      revert\n        /* \"#utility.yul\":822:885   */\n    tag_74:\n        /* \"#utility.yul\":769:891   */\n      pop\n      jump\t// out\n        /* \"#utility.yul\":897:1036   */\n    tag_48:\n        /* \"#utility.yul\":943:948   */\n      0x00\n        /* \"#utility.yul\":981:987   */\n      dup2\n        /* \"#utility.yul\":968:988   */\n      calldataload\n        /* \"#utility.yul\":959:988   */\n      swap1\n      pop\n        /* \"#utility.yul\":997:1030   */\n      tag_76\n        /* \"#utility.yul\":1024:1029   */\n      dup2\n        /* \"#utility.yul\":997:1030   */\n      tag_47\n      jump\t// in\n    tag_76:\n        /* \"#utility.yul\":897:1036   */\n      swap3\n      swap2\n      pop\n      pop\n      jump\t// out\n        /* \"#utility.yul\":1042:1168   */\n    tag_49:\n        /* \"#utility.yul\":1079:1086   */\n      0x00\n        /* \"#utility.yul\":1119:1161   */\n      0xffffffffffffffffffffffffffffffffffffffff\n        /* \"#utility.yul\":1112:1117   */\n      dup3\n        /* \"#utility.yul\":1108:1162   */\n      and\n        /* \"#utility.yul\":1097:1162   */\n      swap1\n      pop\n        /* \"#utility.yul\":1042:1168   */\n      swap2\n      swap1\n      pop\n      jump\t// out\n        /* \"#utility.yul\":1174:1270   */\n    tag_50:\n        /* \"#utility.yul\":1211:1218   */\n      0x00\n        /* \"#utility.yul\":1240:1264   */\n      tag_79\n        /* \"#utility.yul\":1258:1263   */\n      dup3\n        /* \"#utility.yul\":1240:1264   */\n      tag_49\n      jump\t// in\n    tag_79:\n        /* \"#utility.yul\":1229:1264   */\n      swap1\n      pop\n        /* \"#utility.yul\":1174:1270   */\n      swap2\n      swap1\n      pop\n      jump\t// out\n        /* \"#utility.yul\":1276:1398   */\n    tag_51:\n        /* \"#utility.yul\":1349:1373   */\n      tag_81\n        /* \"#utility.yul\":1367:1372   */\n      dup2\n        /* \"#utility.yul\":1349:1373   */\n      tag_50\n      jump\t// in\n    tag_81:\n        /* \"#utility.yul\":1342:1347   */\n      dup2\n        /* \"#utility.yul\":1339:1374   */\n      eq\n        /* \"#utility.yul\":1329:1392   */\n      tag_82\n      jumpi\n        /* \"#utility.yul\":1388:1389   */\n      0x00\n        /* \"#utility.yul\":1385:1386   */\n      0x00\n        /* \"#utility.yul\":1378:1390   */\n      revert\n        /* \"#utility.yul\":1329:1392   */\n    tag_82:\n        /* \"#utility.yul\":1276:1398   */\n      pop\n      jump\t// out\n        /* \"#utility.yul\":1404:1543   */\n    tag_52:\n        /* \"#utility.yul\":1450:1455   */\n      0x00\n        /* \"#utility.yul\":1488:1494   */\n      dup2\n        /* \"#utility.yul\":1475:1495   */\n      calldataload\n        /* \"#utility.yul\":1466:1495   */\n      swap1\n      pop\n        /* \"#utility.yul\":1504:1537   */\n      tag_84\n        /* \"#utility.yul\":1531:1536   */\n      dup2\n        /* \"#utility.yul\":1504:1537   */\n      tag_51\n      jump\t// in\n    tag_84:\n        /* \"#utility.yul\":1404:1543   */\n      swap3\n      swap2\n      pop\n      pop\n      jump\t// out\n        /* \"#utility.yul\":1549:2023   */\n    tag_14:\n        /* \"#utility.yul\":1617:1623   */\n      0x00\n        /* \"#utility.yul\":1625:1631   */\n      0x00\n        /* \"#utility.yul\":1674:1676   */\n      0x40\n        /* \"#utility.yul\":1662:1671   */\n      dup4\n        /* \"#utility.yul\":1653:1660   */\n      dup6\n        /* \"#utility.yul\":1649:1672   */\n      sub\n        /* \"#utility.yul\":1645:1677   */\n      slt\n        /* \"#utility.yul\":1642:1761   */\n      iszero\n      tag_86\n      jumpi\n        /* \"#utility.yul\":1680:1759   */\n      tag_87\n      tag_45\n      jump\t// in\n    tag_87:\n        /* \"#utility.yul\":1642:1761   */\n    tag_86:\n        /* \"#utility.yul\":1800:1801   */\n      0x00\n        /* \"#utility.yul\":1825:1878   */\n      tag_88\n        /* \"#utility.yul\":1870:1877   */\n      dup6\n        /* \"#utility.yul\":1861:1867   */\n      dup3\n        /* \"#utility.yul\":1850:1859   */\n      dup7\n        /* \"#utility.yul\":1846:1868   */\n      add\n        /* \"#utility.yul\":1825:1878   */\n      tag_48\n      jump\t// in\n    tag_88:\n        /* \"#utility.yul\":1815:1878   */\n      swap3\n      pop\n        /* \"#utility.yul\":1771:1888   */\n      pop\n        /* \"#utility.yul\":1927:1929   */\n      0x20\n        /* \"#utility.yul\":1953:2006   */\n      tag_89\n        /* \"#utility.yul\":1998:2005   */\n      dup6\n        /* \"#utility.yul\":1989:1995   */\n      dup3\n        /* \"#utility.yul\":1978:1987   */\n      dup7\n        /* \"#utility.yul\":1974:1996   */\n      add\n        /* \"#utility.yul\":1953:2006   */\n      tag_52\n      jump\t// in\n    tag_89:\n        /* \"#utility.yul\":1943:2006   */\n      swap2\n      pop\n        /* \"#utility.yul\":1898:2016   */\n      pop\n        /* \"#utility.yul\":1549:2023   */\n      swap3\n      pop\n      swap3\n      swap1\n      pop\n      jump\t// out\n        /* \"#utility.yul\":2029:2119   */\n    tag_53:\n        /* \"#utility.yul\":2063:2070   */\n      0x00\n        /* \"#utility.yul\":2106:2111   */\n      dup2\n        /* \"#utility.yul\":2099:2112   */\n      iszero\n        /* \"#utility.yul\":2092:2113   */\n      iszero\n        /* \"#utility.yul\":2081:2113   */\n      swap1\n      pop\n        /* \"#utility.yul\":2029:2119   */\n      swap2\n      swap1\n      pop\n      jump\t// out\n        /* \"#utility.yul\":2125:2234   */\n    tag_54:\n        /* \"#utility.yul\":2206:2227   */\n      tag_92\n        /* \"#utility.yul\":2221:2226   */\n      dup2\n        /* \"#utility.yul\":2206:2227   */\n      tag_53\n      jump\t// in\n    tag_92:\n        /* \"#utility.yul\":2201:2204   */\n      dup3\n        /* \"#utility.yul\":2194:2228   */\n      mstore\n        /* \"#utility.yul\":2125:2234   */\n      pop\n      pop\n      jump\t// out\n        /* \"#utility.yul\":2240:2450   */\n    tag_26:\n        /* \"#utility.yul\":2327:2331   */\n      0x00\n        /* \"#utility.yul\":2365:2367   */\n      0x20\n        /* \"#utility.yul\":2354:2363   */\n      dup3\n        /* \"#utility.yul\":2350:2368   */\n      add\n        /* \"#utility.yul\":2342:2368   */\n      swap1\n      pop\n        /* \"#utility.yul\":2378:2443   */\n      tag_94\n        /* \"#utility.yul\":2440:2441   */\n      0x00\n        /* \"#utility.yul\":2429:2438   */\n      dup4\n        /* \"#utility.yul\":2425:2442   */\n      add\n        /* \"#utility.yul\":2416:2422   */\n      dup5\n        /* \"#utility.yul\":2378:2443   */\n      tag_54\n      jump\t// in\n    tag_94:\n        /* \"#utility.yul\":2240:2450   */\n      swap3\n      swap2\n      pop\n      pop\n      jump\t// out\n        /* \"#utility.yul\":2456:2604   */\n    tag_55:\n        /* \"#utility.yul\":2558:2569   */\n      0x00\n        /* \"#utility.yul\":2595:2598   */\n      dup2\n        /* \"#utility.yul\":2580:2598   */\n      swap1\n      pop\n        /* \"#utility.yul\":2456:2604   */\n      swap3\n      swap2\n      pop\n      pop\n      jump\t// out\n        /* \"#utility.yul\":2610:2765   */\n    tag_56:\n        /* \"#utility.yul\":2750:2757   */\n      0x41444d494e000000000000000000000000000000000000000000000000000000\n        /* \"#utility.yul\":2746:2747   */\n      0x00\n        /* \"#utility.yul\":2738:2744   */\n      dup3\n        /* \"#utility.yul\":2734:2748   */\n      add\n        /* \"#utility.yul\":2727:2758   */\n      mstore\n        /* \"#utility.yul\":2610:2765   */\n      pop\n      jump\t// out\n        /* \"#utility.yul\":2771:3171   */\n    tag_57:\n        /* \"#utility.yul\":2931:2934   */\n      0x00\n        /* \"#utility.yul\":2952:3036   */\n      tag_98\n        /* \"#utility.yul\":3034:3035   */\n      0x05\n        /* \"#utility.yul\":3029:3032   */\n      dup4\n        /* \"#utility.yul\":2952:3036   */\n      tag_55\n      jump\t// in\n    tag_98:\n        /* \"#utility.yul\":2945:3036   */\n      swap2\n      pop\n        /* \"#utility.yul\":3045:3138   */\n      tag_99\n        /* \"#utility.yul\":3134:3137   */\n      dup3\n        /* \"#utility.yul\":3045:3138   */\n      tag_56\n      jump\t// in\n    tag_99:\n        /* \"#utility.yul\":3163:3164   */\n      0x05\n        /* \"#utility.yul\":3158:3161   */\n      dup3\n        /* \"#utility.yul\":3154:3165   */\n      add\n        /* \"#utility.yul\":3147:3165   */\n      swap1\n      pop\n        /* \"#utility.yul\":2771:3171   */\n      swap2\n      swap1\n      pop\n      jump\t// out\n        /* \"#utility.yul\":3177:3558   */\n    tag_28:\n        /* \"#utility.yul\":3362:3365   */\n      0x00\n        /* \"#utility.yul\":3384:3532   */\n      tag_101\n        /* \"#utility.yul\":3528:3531   */\n      dup3\n        /* \"#utility.yul\":3384:3532   */\n      tag_57\n      jump\t// in\n    tag_101:\n        /* \"#utility.yul\":3377:3532   */\n      swap2\n      pop\n        /* \"#utility.yul\":3549:3552   */\n      dup2\n        /* \"#utility.yul\":3542:3552   */\n      swap1\n      pop\n        /* \"#utility.yul\":3177:3558   */\n      swap2\n      swap1\n      pop\n      jump\t// out\n        /* \"#utility.yul\":3564:3733   */\n    tag_58:\n        /* \"#utility.yul\":3648:3659   */\n      0x00\n        /* \"#utility.yul\":3682:3688   */\n      dup3\n        /* \"#utility.yul\":3677:3680   */\n      dup3\n        /* \"#utility.yul\":3670:3689   */\n      mstore\n        /* \"#utility.yul\":3722:3726   */\n      0x20\n        /* \"#utility.yul\":3717:3720   */\n      dup3\n        /* \"#utility.yul\":3713:3727   */\n      add\n        /* \"#utility.yul\":3698:3727   */\n      swap1\n      pop\n        /* \"#utility.yul\":3564:3733   */\n      swap3\n      swap2\n      pop\n      pop\n      jump\t// out\n        /* \"#utility.yul\":3739:3903   */\n    tag_59:\n        /* \"#utility.yul\":3879:3895   */\n      0x4e6f7420417574686f72697a6564000000000000000000000000000000000000\n        /* \"#utility.yul\":3875:3876   */\n      0x00\n        /* \"#utility.yul\":3867:3873   */\n      dup3\n        /* \"#utility.yul\":3863:3877   */\n      add\n        /* \"#utility.yul\":3856:3896   */\n      mstore\n        /* \"#utility.yul\":3739:3903   */\n      pop\n      jump\t// out\n        /* \"#utility.yul\":3909:4275   */\n    tag_60:\n        /* \"#utility.yul\":4051:4054   */\n      0x00\n        /* \"#utility.yul\":4072:4139   */\n      tag_105\n        /* \"#utility.yul\":4136:4138   */\n      0x0e\n        /* \"#utility.yul\":4131:4134   */\n      dup4\n        /* \"#utility.yul\":4072:4139   */\n      tag_58\n      jump\t// in\n    tag_105:\n        /* \"#utility.yul\":4065:4139   */\n      swap2\n      pop\n        /* \"#utility.yul\":4148:4241   */\n      tag_106\n        /* \"#utility.yul\":4237:4240   */\n      dup3\n        /* \"#utility.yul\":4148:4241   */\n      tag_59\n      jump\t// in\n    tag_106:\n        /* \"#utility.yul\":4266:4268   */\n      0x20\n        /* \"#utility.yul\":4261:4264   */\n      dup3\n        /* \"#utility.yul\":4257:4269   */\n      add\n        /* \"#utility.yul\":4250:4269   */\n      swap1\n      pop\n        /* \"#utility.yul\":3909:4275   */\n      swap2\n      swap1\n      pop\n      jump\t// out\n        /* \"#utility.yul\":4281:4700   */\n    tag_33:\n        /* \"#utility.yul\":4447:4451   */\n      0x00\n        /* \"#utility.yul\":4485:4487   */\n      0x20\n        /* \"#utility.yul\":4474:4483   */\n      dup3\n        /* \"#utility.yul\":4470:4488   */\n      add\n        /* \"#utility.yul\":4462:4488   */\n      swap1\n      pop\n        /* \"#utility.yul\":4534:4543   */\n      dup2\n        /* \"#utility.yul\":4528:4532   */\n      dup2\n        /* \"#utility.yul\":4524:4544   */\n      sub\n        /* \"#utility.yul\":4520:4521   */\n      0x00\n        /* \"#utility.yul\":4509:4518   */\n      dup4\n        /* \"#utility.yul\":4505:4522   */\n      add\n        /* \"#utility.yul\":4498:4545   */\n      mstore\n        /* \"#utility.yul\":4562:4693   */\n      tag_108\n        /* \"#utility.yul\":4688:4692   */\n      dup2\n        /* \"#utility.yul\":4562:4693   */\n      tag_60\n      jump\t// in\n    tag_108:\n        /* \"#utility.yul\":4554:4693   */\n      swap1\n      pop\n        /* \"#utility.yul\":4281:4700   */\n      swap2\n      swap1\n      pop\n      jump\t// out\n        /* \"#utility.yul\":4706:4860   */\n    tag_61:\n        /* \"#utility.yul\":4846:4852   */\n      0x5553455200000000000000000000000000000000000000000000000000000000\n        /* \"#utility.yul\":4842:4843   */\n      0x00\n        /* \"#utility.yul\":4834:4840   */\n      dup3\n        /* \"#utility.yul\":4830:4844   */\n      add\n        /* \"#utility.yul\":4823:4853   */\n      mstore\n        /* \"#utility.yul\":4706:4860   */\n      pop\n      jump\t// out\n        /* \"#utility.yul\":4866:5266   */\n    tag_62:\n        /* \"#utility.yul\":5026:5029   */\n      0x00\n        /* \"#utility.yul\":5047:5131   */\n      tag_111\n        /* \"#utility.yul\":5129:5130   */\n      0x04\n        /* \"#utility.yul\":5124:5127   */\n      dup4\n        /* \"#utility.yul\":5047:5131   */\n      tag_55\n      jump\t// in\n    tag_111:\n        /* \"#utility.yul\":5040:5131   */\n      swap2\n      pop\n        /* \"#utility.yul\":5140:5233   */\n      tag_112\n        /* \"#utility.yul\":5229:5232   */\n      dup3\n        /* \"#utility.yul\":5140:5233   */\n      tag_61\n      jump\t// in\n    tag_112:\n        /* \"#utility.yul\":5258:5259   */\n      0x04\n        /* \"#utility.yul\":5253:5256   */\n      dup3\n        /* \"#utility.yul\":5249:5260   */\n      add\n        /* \"#utility.yul\":5242:5260   */\n      swap1\n      pop\n        /* \"#utility.yul\":4866:5266   */\n      swap2\n      swap1\n      pop\n      jump\t// out\n        /* \"#utility.yul\":5272:5653   */\n    tag_36:\n        /* \"#utility.yul\":5457:5460   */\n      0x00\n        /* \"#utility.yul\":5479:5627   */\n      tag_114\n        /* \"#utility.yul\":5623:5626   */\n      dup3\n        /* \"#utility.yul\":5479:5627   */\n      tag_62\n      jump\t// in\n    tag_114:\n        /* \"#utility.yul\":5472:5627   */\n      swap2\n      pop\n        /* \"#utility.yul\":5644:5647   */\n      dup2\n        /* \"#utility.yul\":5637:5647   */\n      swap1\n      pop\n        /* \"#utility.yul\":5272:5653   */\n      swap2\n      swap1\n      pop\n      jump\t// out\n\n    auxdata: 0xa2646970667358221220b01f65d9d1ede32793362ec335df07ebc43133f7fdc2aecc11941ce9505a128c64736f6c63430008220033\n}\n",
				"bytecode": {
					"linkReferences": {},
					"object": "608060405234801561000f575f5ffd5b5060015f5f604051602001610023906100f0565b6040516020818303038152906040528051906020012081526020019081526020015f205f3373ffffffffffffffffffffffffffffffffffffffff1673ffffffffffffffffffffffffffffffffffffffff1681526020019081526020015f205f6101000a81548160ff021916908315150217905550610104565b5f81905092915050565b7f41444d494e0000000000000000000000000000000000000000000000000000005f82015250565b5f6100da60058361009c565b91506100e5826100a6565b600582019050919050565b5f6100fa826100ce565b9150819050919050565b6106e3806101115f395ff3fe608060405234801561000f575f5ffd5b5060043610610055575f3560e01c80632a0acc6a146100595780632f2ff15d1461007757806381e167cf14610093578063d547741f146100b1578063f8fc08b9146100cd575b5f5ffd5b6100616100fd565b60405161006e919061045d565b60405180910390f35b610091600480360381019061008c91906104fe565b610125565b005b61009b61028d565b6040516100a8919061045d565b60405180910390f35b6100cb60048036038101906100c691906104fe565b6102b5565b005b6100e760048036038101906100e291906104fe565b61041c565b6040516100f49190610556565b60405180910390f35b60405160200161010c906105c3565b6040516020818303038152906040528051906020012081565b604051602001610134906105c3565b604051602081830303815290604052805190602001205f5f8281526020019081526020015f205f3373ffffffffffffffffffffffffffffffffffffffff1673ffffffffffffffffffffffffffffffffffffffff1681526020019081526020015f205f9054906101000a900460ff166101e1576040517f08c379a00000000000000000000000000000000000000000000000000000000081526004016101d890610631565b60405180910390fd5b60015f5f8581526020019081526020015f205f8473ffffffffffffffffffffffffffffffffffffffff1673ffffffffffffffffffffffffffffffffffffffff1681526020019081526020015f205f6101000a81548160ff0219169083151502179055508173ffffffffffffffffffffffffffffffffffffffff16837f5a06360d65acf95e98445dc834f205063424c636e65418d928cdfabc33a9539960405160405180910390a3505050565b60405160200161029c90610699565b6040516020818303038152906040528051906020012081565b6040516020016102c4906105c3565b604051602081830303815290604052805190602001205f5f8281526020019081526020015f205f3373ffffffffffffffffffffffffffffffffffffffff1673ffffffffffffffffffffffffffffffffffffffff1681526020019081526020015f205f9054906101000a900460ff16610371576040517f08c379a000000000000000000000000000000000000000000000000000000000815260040161036890610631565b60405180910390fd5b5f5f5f8581526020019081526020015f205f8473ffffffffffffffffffffffffffffffffffffffff1673ffffffffffffffffffffffffffffffffffffffff1681526020019081526020015f205f6101000a81548160ff0219169083151502179055508173ffffffffffffffffffffffffffffffffffffffff16837f76e6093c136cd7faa5a6d92b2b633f3b4595abd4a529b7a13917398355fea69460405160405180910390a3505050565b5f602052815f5260405f20602052805f5260405f205f915091509054906101000a900460ff1681565b5f819050919050565b61045781610445565b82525050565b5f6020820190506104705f83018461044e565b92915050565b5f5ffd5b61048381610445565b811461048d575f5ffd5b50565b5f8135905061049e8161047a565b92915050565b5f73ffffffffffffffffffffffffffffffffffffffff82169050919050565b5f6104cd826104a4565b9050919050565b6104dd816104c3565b81146104e7575f5ffd5b50565b5f813590506104f8816104d4565b92915050565b5f5f6040838503121561051457610513610476565b5b5f61052185828601610490565b9250506020610532858286016104ea565b9150509250929050565b5f8115159050919050565b6105508161053c565b82525050565b5f6020820190506105695f830184610547565b92915050565b5f81905092915050565b7f41444d494e0000000000000000000000000000000000000000000000000000005f82015250565b5f6105ad60058361056f565b91506105b882610579565b600582019050919050565b5f6105cd826105a1565b9150819050919050565b5f82825260208201905092915050565b7f4e6f7420417574686f72697a65640000000000000000000000000000000000005f82015250565b5f61061b600e836105d7565b9150610626826105e7565b602082019050919050565b5f6020820190508181035f8301526106488161060f565b9050919050565b7f55534552000000000000000000000000000000000000000000000000000000005f82015250565b5f61068360048361056f565b915061068e8261064f565b600482019050919050565b5f6106a382610677565b915081905091905056fea2646970667358221220b01f65d9d1ede32793362ec335df07ebc43133f7fdc2aecc11941ce9505a128c64736f6c63430008220033",
					"opcodes": "PUSH1 0x80 PUSH1 0x40 MSTORE CALLVALUE DUP1 ISZERO PUSH2 0xF JUMPI PUSH0 PUSH0 REVERT JUMPDEST POP PUSH1 0x1 PUSH0 PUSH0 PUSH1 0x40 MLOAD PUSH1 0x20 ADD PUSH2 0x23 SWAP1 PUSH2 0xF0 JUMP JUMPDEST PUSH1 0x40 MLOAD PUSH1 0x20 DUP2 DUP4 SUB SUB DUP2 MSTORE SWAP1 PUSH1 0x40 MSTORE DUP1 MLOAD SWAP1 PUSH1 0x20 ADD KECCAK256 DUP2 MSTORE PUSH1 0x20 ADD SWAP1 DUP2 MSTORE PUSH1 0x20 ADD PUSH0 KECCAK256 PUSH0 CALLER PUSH20 0xFFFFFFFFFFFFFFFFFFFFFFFFFFFFFFFFFFFFFFFF AND PUSH20 0xFFFFFFFFFFFFFFFFFFFFFFFFFFFFFFFFFFFFFFFF AND DUP2 MSTORE PUSH1 0x20 ADD SWAP1 DUP2 MSTORE PUSH1 0x20 ADD PUSH0 KECCAK256 PUSH0 PUSH2 0x100 EXP DUP2 SLOAD DUP2 PUSH1 0xFF MUL NOT AND SWAP1 DUP4 ISZERO ISZERO MUL OR SWAP1 SSTORE POP PUSH2 0x104 JUMP JUMPDEST PUSH0 DUP2 SWAP1 POP SWAP3 SWAP2 POP POP JUMP JUMPDEST PUSH32 0x41444D494E000000000000000000000000000000000000000000000000000000 PUSH0 DUP3 ADD MSTORE POP JUMP JUMPDEST PUSH0 PUSH2 0xDA PUSH1 0x5 DUP4 PUSH2 0x9C JUMP JUMPDEST SWAP2 POP PUSH2 0xE5 DUP3 PUSH2 0xA6 JUMP JUMPDEST PUSH1 0x5 DUP3 ADD SWAP1 POP SWAP2 SWAP1 POP JUMP JUMPDEST PUSH0 PUSH2 0xFA DUP3 PUSH2 0xCE JUMP JUMPDEST SWAP2 POP DUP2 SWAP1 POP SWAP2 SWAP1 POP JUMP JUMPDEST PUSH2 0x6E3 DUP1 PUSH2 0x111 PUSH0 CODECOPY PUSH0 RETURN INVALID PUSH1 0x80 PUSH1 0x40 MSTORE CALLVALUE DUP1 ISZERO PUSH2 0xF JUMPI PUSH0 PUSH0 REVERT JUMPDEST POP PUSH1 0x4 CALLDATASIZE LT PUSH2 0x55 JUMPI PUSH0 CALLDATALOAD PUSH1 0xE0 SHR DUP1 PUSH4 0x2A0ACC6A EQ PUSH2 0x59 JUMPI DUP1 PUSH4 0x2F2FF15D EQ PUSH2 0x77 JUMPI DUP1 PUSH4 0x81E167CF EQ PUSH2 0x93 JUMPI DUP1 PUSH4 0xD547741F EQ PUSH2 0xB1 JUMPI DUP1 PUSH4 0xF8FC08B9 EQ PUSH2 0xCD JUMPI JUMPDEST PUSH0 PUSH0 REVERT JUMPDEST PUSH2 0x61 PUSH2 0xFD JUMP JUMPDEST PUSH1 0x40 MLOAD PUSH2 0x6E SWAP2 SWAP1 PUSH2 0x45D JUMP JUMPDEST PUSH1 0x40 MLOAD DUP1 SWAP2 SUB SWAP1 RETURN JUMPDEST PUSH2 0x91 PUSH1 0x4 DUP1 CALLDATASIZE SUB DUP2 ADD SWAP1 PUSH2 0x8C SWAP2 SWAP1 PUSH2 0x4FE JUMP JUMPDEST PUSH2 0x125 JUMP JUMPDEST STOP JUMPDEST PUSH2 0x9B PUSH2 0x28D JUMP JUMPDEST PUSH1 0x40 MLOAD PUSH2 0xA8 SWAP2 SWAP1 PUSH2 0x45D JUMP JUMPDEST PUSH1 0x40 MLOAD DUP1 SWAP2 SUB SWAP1 RETURN JUMPDEST PUSH2 0xCB PUSH1 0x4 DUP1 CALLDATASIZE SUB DUP2 ADD SWAP1 PUSH2 0xC6 SWAP2 SWAP1 PUSH2 0x4FE JUMP JUMPDEST PUSH2 0x2B5 JUMP JUMPDEST STOP JUMPDEST PUSH2 0xE7 PUSH1 0x4 DUP1 CALLDATASIZE SUB DUP2 ADD SWAP1 PUSH2 0xE2 SWAP2 SWAP1 PUSH2 0x4FE JUMP JUMPDEST PUSH2 0x41C JUMP JUMPDEST PUSH1 0x40 MLOAD PUSH2 0xF4 SWAP2 SWAP1 PUSH2 0x556 JUMP JUMPDEST PUSH1 0x40 MLOAD DUP1 SWAP2 SUB SWAP1 RETURN JUMPDEST PUSH1 0x40 MLOAD PUSH1 0x20 ADD PUSH2 0x10C SWAP1 PUSH2 0x5C3 JUMP JUMPDEST PUSH1 0x40 MLOAD PUSH1 0x20 DUP2 DUP4 SUB SUB DUP2 MSTORE SWAP1 PUSH1 0x40 MSTORE DUP1 MLOAD SWAP1 PUSH1 0x20 ADD KECCAK256 DUP2 JUMP JUMPDEST PUSH1 0x40 MLOAD PUSH1 0x20 ADD PUSH2 0x134 SWAP1 PUSH2 0x5C3 JUMP JUMPDEST PUSH1 0x40 MLOAD PUSH1 0x20 DUP2 DUP4 SUB SUB DUP2 MSTORE SWAP1 PUSH1 0x40 MSTORE DUP1 MLOAD SWAP1 PUSH1 0x20 ADD KECCAK256 PUSH0 PUSH0 DUP3 DUP2 MSTORE PUSH1 0x20 ADD SWAP1 DUP2 MSTORE PUSH1 0x20 ADD PUSH0 KECCAK256 PUSH0 CALLER PUSH20 0xFFFFFFFFFFFFFFFFFFFFFFFFFFFFFFFFFFFFFFFF AND PUSH20 0xFFFFFFFFFFFFFFFFFFFFFFFFFFFFFFFFFFFFFFFF AND DUP2 MSTORE PUSH1 0x20 ADD SWAP1 DUP2 MSTORE PUSH1 0x20 ADD PUSH0 KECCAK256 PUSH0 SWAP1 SLOAD SWAP1 PUSH2 0x100 EXP SWAP1 DIV PUSH1 0xFF AND PUSH2 0x1E1 JUMPI PUSH1 0x40 MLOAD PUSH32 0x8C379A000000000000000000000000000000000000000000000000000000000 DUP2 MSTORE PUSH1 0x4 ADD PUSH2 0x1D8 SWAP1 PUSH2 0x631 JUMP JUMPDEST PUSH1 0x40 MLOAD DUP1 SWAP2 SUB SWAP1 REVERT JUMPDEST PUSH1 0x1 PUSH0 PUSH0 DUP6 DUP2 MSTORE PUSH1 0x20 ADD SWAP1 DUP2 MSTORE PUSH1 0x20 ADD PUSH0 KECCAK256 PUSH0 DUP5 PUSH20 0xFFFFFFFFFFFFFFFFFFFFFFFFFFFFFFFFFFFFFFFF AND PUSH20 0xFFFFFFFFFFFFFFFFFFFFFFFFFFFFFFFFFFFFFFFF AND DUP2 MSTORE PUSH1 0x20 ADD SWAP1 DUP2 MSTORE PUSH1 0x20 ADD PUSH0 KECCAK256 PUSH0 PUSH2 0x100 EXP DUP2 SLOAD DUP2 PUSH1 0xFF MUL NOT AND SWAP1 DUP4 ISZERO ISZERO MUL OR SWAP1 SSTORE POP DUP2 PUSH20 0xFFFFFFFFFFFFFFFFFFFFFFFFFFFFFFFFFFFFFFFF AND DUP4 PUSH32 0x5A06360D65ACF95E98445DC834F205063424C636E65418D928CDFABC33A95399 PUSH1 0x40 MLOAD PUSH1 0x40 MLOAD DUP1 SWAP2 SUB SWAP1 LOG3 POP POP POP JUMP JUMPDEST PUSH1 0x40 MLOAD PUSH1 0x20 ADD PUSH2 0x29C SWAP1 PUSH2 0x699 JUMP JUMPDEST PUSH1 0x40 MLOAD PUSH1 0x20 DUP2 DUP4 SUB SUB DUP2 MSTORE SWAP1 PUSH1 0x40 MSTORE DUP1 MLOAD SWAP1 PUSH1 0x20 ADD KECCAK256 DUP2 JUMP JUMPDEST PUSH1 0x40 MLOAD PUSH1 0x20 ADD PUSH2 0x2C4 SWAP1 PUSH2 0x5C3 JUMP JUMPDEST PUSH1 0x40 MLOAD PUSH1 0x20 DUP2 DUP4 SUB SUB DUP2 MSTORE SWAP1 PUSH1 0x40 MSTORE DUP1 MLOAD SWAP1 PUSH1 0x20 ADD KECCAK256 PUSH0 PUSH0 DUP3 DUP2 MSTORE PUSH1 0x20 ADD SWAP1 DUP2 MSTORE PUSH1 0x20 ADD PUSH0 KECCAK256 PUSH0 CALLER PUSH20 0xFFFFFFFFFFFFFFFFFFFFFFFFFFFFFFFFFFFFFFFF AND PUSH20 0xFFFFFFFFFFFFFFFFFFFFFFFFFFFFFFFFFFFFFFFF AND DUP2 MSTORE PUSH1 0x20 ADD SWAP1 DUP2 MSTORE PUSH1 0x20 ADD PUSH0 KECCAK256 PUSH0 SWAP1 SLOAD SWAP1 PUSH2 0x100 EXP SWAP1 DIV PUSH1 0xFF AND PUSH2 0x371 JUMPI PUSH1 0x40 MLOAD PUSH32 0x8C379A000000000000000000000000000000000000000000000000000000000 DUP2 MSTORE PUSH1 0x4 ADD PUSH2 0x368 SWAP1 PUSH2 0x631 JUMP JUMPDEST PUSH1 0x40 MLOAD DUP1 SWAP2 SUB SWAP1 REVERT JUMPDEST PUSH0 PUSH0 PUSH0 DUP6 DUP2 MSTORE PUSH1 0x20 ADD SWAP1 DUP2 MSTORE PUSH1 0x20 ADD PUSH0 KECCAK256 PUSH0 DUP5 PUSH20 0xFFFFFFFFFFFFFFFFFFFFFFFFFFFFFFFFFFFFFFFF AND PUSH20 0xFFFFFFFFFFFFFFFFFFFFFFFFFFFFFFFFFFFFFFFF AND DUP2 MSTORE PUSH1 0x20 ADD SWAP1 DUP2 MSTORE PUSH1 0x20 ADD PUSH0 KECCAK256 PUSH0 PUSH2 0x100 EXP DUP2 SLOAD DUP2 PUSH1 0xFF MUL NOT AND SWAP1 DUP4 ISZERO ISZERO MUL OR SWAP1 SSTORE POP DUP2 PUSH20 0xFFFFFFFFFFFFFFFFFFFFFFFFFFFFFFFFFFFFFFFF AND DUP4 PUSH32 0x76E6093C136CD7FAA5A6D92B2B633F3B4595ABD4A529B7A13917398355FEA694 PUSH1 0x40 MLOAD PUSH1 0x40 MLOAD DUP1 SWAP2 SUB SWAP1 LOG3 POP POP POP JUMP JUMPDEST PUSH0 PUSH1 0x20 MSTORE DUP2 PUSH0 MSTORE PUSH1 0x40 PUSH0 KECCAK256 PUSH1 0x20 MSTORE DUP1 PUSH0 MSTORE PUSH1 0x40 PUSH0 KECCAK256 PUSH0 SWAP2 POP SWAP2 POP SWAP1 SLOAD SWAP1 PUSH2 0x100 EXP SWAP1 DIV PUSH1 0xFF AND DUP2 JUMP JUMPDEST PUSH0 DUP2 SWAP1 POP SWAP2 SWAP1 POP JUMP JUMPDEST PUSH2 0x457 DUP2 PUSH2 0x445 JUMP JUMPDEST DUP3 MSTORE POP POP JUMP JUMPDEST PUSH0 PUSH1 0x20 DUP3 ADD SWAP1 POP PUSH2 0x470 PUSH0 DUP4 ADD DUP5 PUSH2 0x44E JUMP JUMPDEST SWAP3 SWAP2 POP POP JUMP JUMPDEST PUSH0 PUSH0 REVERT JUMPDEST PUSH2 0x483 DUP2 PUSH2 0x445 JUMP JUMPDEST DUP2 EQ PUSH2 0x48D JUMPI PUSH0 PUSH0 REVERT JUMPDEST POP JUMP JUMPDEST PUSH0 DUP2 CALLDATALOAD SWAP1 POP PUSH2 0x49E DUP2 PUSH2 0x47A JUMP JUMPDEST SWAP3 SWAP2 POP POP JUMP JUMPDEST PUSH0 PUSH20 0xFFFFFFFFFFFFFFFFFFFFFFFFFFFFFFFFFFFFFFFF DUP3 AND SWAP1 POP SWAP2 SWAP1 POP JUMP JUMPDEST PUSH0 PUSH2 0x4CD DUP3 PUSH2 0x4A4 JUMP JUMPDEST SWAP1 POP SWAP2 SWAP1 POP JUMP JUMPDEST PUSH2 0x4DD DUP2 PUSH2 0x4C3 JUMP JUMPDEST DUP2 EQ PUSH2 0x4E7 JUMPI PUSH0 PUSH0 REVERT JUMPDEST POP JUMP JUMPDEST PUSH0 DUP2 CALLDATALOAD SWAP1 POP PUSH2 0x4F8 DUP2 PUSH2 0x4D4 JUMP JUMPDEST SWAP3 SWAP2 POP POP JUMP JUMPDEST PUSH0 PUSH0 PUSH1 0x40 DUP4 DUP6 SUB SLT ISZERO PUSH2 0x514 JUMPI PUSH2 0x513 PUSH2 0x476 JUMP JUMPDEST JUMPDEST PUSH0 PUSH2 0x521 DUP6 DUP3 DUP7 ADD PUSH2 0x490 JUMP JUMPDEST SWAP3 POP POP PUSH1 0x20 PUSH2 0x532 DUP6 DUP3 DUP7 ADD PUSH2 0x4EA JUMP JUMPDEST SWAP2 POP POP SWAP3 POP SWAP3 SWAP1 POP JUMP JUMPDEST PUSH0 DUP2 ISZERO ISZERO SWAP1 POP SWAP2 SWAP1 POP JUMP JUMPDEST PUSH2 0x550 DUP2 PUSH2 0x53C JUMP JUMPDEST DUP3 MSTORE POP POP JUMP JUMPDEST PUSH0 PUSH1 0x20 DUP3 ADD SWAP1 POP PUSH2 0x569 PUSH0 DUP4 ADD DUP5 PUSH2 0x547 JUMP JUMPDEST SWAP3 SWAP2 POP POP JUMP JUMPDEST PUSH0 DUP2 SWAP1 POP SWAP3 SWAP2 POP POP JUMP JUMPDEST PUSH32 0x41444D494E000000000000000000000000000000000000000000000000000000 PUSH0 DUP3 ADD MSTORE POP JUMP JUMPDEST PUSH0 PUSH2 0x5AD PUSH1 0x5 DUP4 PUSH2 0x56F JUMP JUMPDEST SWAP2 POP PUSH2 0x5B8 DUP3 PUSH2 0x579 JUMP JUMPDEST PUSH1 0x5 DUP3 ADD SWAP1 POP SWAP2 SWAP1 POP JUMP JUMPDEST PUSH0 PUSH2 0x5CD DUP3 PUSH2 0x5A1 JUMP JUMPDEST SWAP2 POP DUP2 SWAP1 POP SWAP2 SWAP1 POP JUMP JUMPDEST PUSH0 DUP3 DUP3 MSTORE PUSH1 0x20 DUP3 ADD SWAP1 POP SWAP3 SWAP2 POP POP JUMP JUMPDEST PUSH32 0x4E6F7420417574686F72697A6564000000000000000000000000000000000000 PUSH0 DUP3 ADD MSTORE POP JUMP JUMPDEST PUSH0 PUSH2 0x61B PUSH1 0xE DUP4 PUSH2 0x5D7 JUMP JUMPDEST SWAP2 POP PUSH2 0x626 DUP3 PUSH2 0x5E7 JUMP JUMPDEST PUSH1 0x20 DUP3 ADD SWAP1 POP SWAP2 SWAP1 POP JUMP JUMPDEST PUSH0 PUSH1 0x20 DUP3 ADD SWAP1 POP DUP2 DUP2 SUB PUSH0 DUP4 ADD MSTORE PUSH2 0x648 DUP2 PUSH2 0x60F JUMP JUMPDEST SWAP1 POP SWAP2 SWAP1 POP JUMP JUMPDEST PUSH32 0x5553455200000000000000000000000000000000000000000000000000000000 PUSH0 DUP3 ADD MSTORE POP JUMP JUMPDEST PUSH0 PUSH2 0x683 PUSH1 0x4 DUP4 PUSH2 0x56F JUMP JUMPDEST SWAP2 POP PUSH2 0x68E DUP3 PUSH2 0x64F JUMP JUMPDEST PUSH1 0x4 DUP3 ADD SWAP1 POP SWAP2 SWAP1 POP JUMP JUMPDEST PUSH0 PUSH2 0x6A3 DUP3 PUSH2 0x677 JUMP JUMPDEST SWAP2 POP DUP2 SWAP1 POP SWAP2 SWAP1 POP JUMP INVALID LOG2 PUSH5 0x6970667358 0x22 SLT KECCAK256 0xB0 0x1F PUSH6 0xD9D1EDE32793 CALLDATASIZE 0x2E 0xC3 CALLDATALOAD 0xDF SMOD 0xEB 0xC4 BALANCE CALLER 0xF7 REVERT 0xC2 0xAE 0xCC GT SWAP5 SHR 0xE9 POP GAS SLT DUP13 PUSH5 0x736F6C6343 STOP ADDMOD 0x22 STOP CALLER "
				},
				"gasEstimates": {
					"creation": {
						"codeDepositCost": "352600",
						"executionCost": "25126",
						"totalCost": "377726"
					},
					"external": {
						"ADMIN()": "604",
						"USER()": "648",
						"grantRole(bytes32,address)": "29210",
						"revokeRole(bytes32,address)": "29253",
						"roles(bytes32,address)": "3135"
					}
				},
				"methodIdentifiers": {
					"ADMIN()": "2a0acc6a",
					"USER()": "81e167cf",
					"grantRole(bytes32,address)": "2f2ff15d",
					"revokeRole(bytes32,address)": "d547741f",
					"roles(bytes32,address)": "f8fc08b9"
				}
			},
			"storageLayout": {
				"storage": [
					{
						"astId": 19,
						"contract": "签名和验证/访问控制.sol:AccessControl",
						"label": "roles",
						"offset": 0,
						"slot": "0",
						"type": "t_mapping(t_bytes32,t_mapping(t_address,t_bool))"
					}
				],
				"types": {
					"t_address": {
						"encoding": "inplace",
						"label": "address",
						"numberOfBytes": "20"
					},
					"t_bool": {
						"encoding": "inplace",
						"label": "bool",
						"numberOfBytes": "1"
					},
					"t_bytes32": {
						"encoding": "inplace",
						"label": "bytes32",
						"numberOfBytes": "32"
					},
					"t_mapping(t_address,t_bool)": {
						"encoding": "mapping",
						"key": "t_address",
						"label": "mapping(address => bool)",
						"numberOfBytes": "32",
						"value": "t_bool"
					},
					"t_mapping(t_bytes32,t_mapping(t_address,t_bool))": {
						"encoding": "mapping",
						"key": "t_bytes32",
						"label": "mapping(bytes32 => mapping(address => bool))",
						"numberOfBytes": "32",
						"value": "t_mapping(t_address,t_bool)"
					}
				}
			},
			"userdoc": {
				"kind": "user",
				"methods": {},
				"version": 1
			}
		}
	}
}