{
	"solidity高级应用/通过字节码部署任意合约.sol": {
		"Helper": {
			"abi": [
				{
					"inputs": [],
					"name": "getBytecode1",
					"outputs": [
						{
							"internalType": "bytes",
							"name": "",
							"type": "bytes"
						}
					],
					"stateMutability": "pure",
					"type": "function"
				},
				{
					"inputs": [
						{
							"internalType": "uint256",
							"name": "x",
							"type": "uint256"
						},
						{
							"internalType": "uint256",
							"name": "y",
							"type": "uint256"
						}
					],
					"name": "getBytecode2",
					"outputs": [
						{
							"internalType": "bytes",
							"name": "",
							"type": "bytes"
						}
					],
					"stateMutability": "pure",
					"type": "function"
				},
				{
					"inputs": [
						{
							"internalType": "address",
							"name": "_owner",
							"type": "address"
						}
					],
					"name": "getCallData",
					"outputs": [
						{
							"internalType": "bytes",
							"name": "",
							"type": "bytes"
						}
					],
					"stateMutability": "pure",
					"type": "function"
				}
			],
			"devdoc": {
				"kind": "dev",
				"methods": {},
				"version": 1
			},
			"evm": {
				"assembly": "    /* \"solidity\\xe9\\xab\\x98\\xe7\\xba\\xa7\\xe5\\xba\\x94\\xe7\\x94\\xa8/\\xe9\\x80\\x9a\\xe8\\xbf\\x87\\xe5\\xad\\x97\\xe8\\x8a\\x82\\xe7\\xa0\\x81\\xe9\\x83\\xa8\\xe7\\xbd\\xb2\\xe4\\xbb\\xbb\\xe6\\x84\\x8f\\xe5\\x90\\x88\\xe7\\xba\\xa6.sol\":1572:2218  contract Helper {... */\n  mstore(0x40, 0x80)\n  callvalue\n  dup1\n  iszero\n  tag_1\n  jumpi\n  revert(0x00, 0x00)\ntag_1:\n  pop\n  dataSize(sub_0)\n  dup1\n  dataOffset(sub_0)\n  0x00\n  codecopy\n  0x00\n  return\nstop\n\nsub_0: assembly {\n        /* \"solidity\\xe9\\xab\\x98\\xe7\\xba\\xa7\\xe5\\xba\\x94\\xe7\\x94\\xa8/\\xe9\\x80\\x9a\\xe8\\xbf\\x87\\xe5\\xad\\x97\\xe8\\x8a\\x82\\xe7\\xa0\\x81\\xe9\\x83\\xa8\\xe7\\xbd\\xb2\\xe4\\xbb\\xbb\\xe6\\x84\\x8f\\xe5\\x90\\x88\\xe7\\xba\\xa6.sol\":1572:2218  contract Helper {... */\n      mstore(0x40, 0x80)\n      callvalue\n      dup1\n      iszero\n      tag_1\n      jumpi\n      revert(0x00, 0x00)\n    tag_1:\n      pop\n      jumpi(tag_2, lt(calldatasize, 0x04))\n      shr(0xe0, calldataload(0x00))\n      dup1\n      0x45fb27cd\n      eq\n      tag_3\n      jumpi\n      dup1\n      0x643abff9\n      eq\n      tag_4\n      jumpi\n      dup1\n      0xe68f92f1\n      eq\n      tag_5\n      jumpi\n    tag_2:\n      revert(0x00, 0x00)\n        /* \"solidity\\xe9\\xab\\x98\\xe7\\xba\\xa7\\xe5\\xba\\x94\\xe7\\x94\\xa8/\\xe9\\x80\\x9a\\xe8\\xbf\\x87\\xe5\\xad\\x97\\xe8\\x8a\\x82\\xe7\\xa0\\x81\\xe9\\x83\\xa8\\xe7\\xbd\\xb2\\xe4\\xbb\\xbb\\xe6\\x84\\x8f\\xe5\\x90\\x88\\xe7\\xba\\xa6.sol\":1801:1998  function getBytecode2(uint x, uint y) external pure returns(bytes memory) {... */\n    tag_3:\n      tag_6\n      0x04\n      dup1\n      calldatasize\n      sub\n      dup2\n      add\n      swap1\n      tag_7\n      swap2\n      swap1\n      tag_8\n      jump\t// in\n    tag_7:\n      tag_9\n      jump\t// in\n    tag_6:\n      mload(0x40)\n      tag_10\n      swap2\n      swap1\n      tag_11\n      jump\t// in\n    tag_10:\n      mload(0x40)\n      dup1\n      swap2\n      sub\n      swap1\n      return\n        /* \"solidity\\xe9\\xab\\x98\\xe7\\xba\\xa7\\xe5\\xba\\x94\\xe7\\x94\\xa8/\\xe9\\x80\\x9a\\xe8\\xbf\\x87\\xe5\\xad\\x97\\xe8\\x8a\\x82\\xe7\\xa0\\x81\\xe9\\x83\\xa8\\xe7\\xbd\\xb2\\xe4\\xbb\\xbb\\xe6\\x84\\x8f\\xe5\\x90\\x88\\xe7\\xba\\xa6.sol\":2064:2215  function getCallData(address _owner) external pure returns(bytes memory) {... */\n    tag_4:\n      tag_12\n      0x04\n      dup1\n      calldatasize\n      sub\n      dup2\n      add\n      swap1\n      tag_13\n      swap2\n      swap1\n      tag_14\n      jump\t// in\n    tag_13:\n      tag_15\n      jump\t// in\n    tag_12:\n      mload(0x40)\n      tag_16\n      swap2\n      swap1\n      tag_11\n      jump\t// in\n    tag_16:\n      mload(0x40)\n      dup1\n      swap2\n      sub\n      swap1\n      return\n        /* \"solidity\\xe9\\xab\\x98\\xe7\\xba\\xa7\\xe5\\xba\\x94\\xe7\\x94\\xa8/\\xe9\\x80\\x9a\\xe8\\xbf\\x87\\xe5\\xad\\x97\\xe8\\x8a\\x82\\xe7\\xa0\\x81\\xe9\\x83\\xa8\\xe7\\xbd\\xb2\\xe4\\xbb\\xbb\\xe6\\x84\\x8f\\xe5\\x90\\x88\\xe7\\xba\\xa6.sol\":1638:1752  function getBytecode1() external pure returns(bytes memory) {... */\n    tag_5:\n      tag_17\n      tag_18\n      jump\t// in\n    tag_17:\n      mload(0x40)\n      tag_19\n      swap2\n      swap1\n      tag_11\n      jump\t// in\n    tag_19:\n      mload(0x40)\n      dup1\n      swap2\n      sub\n      swap1\n      return\n        /* \"solidity\\xe9\\xab\\x98\\xe7\\xba\\xa7\\xe5\\xba\\x94\\xe7\\x94\\xa8/\\xe9\\x80\\x9a\\xe8\\xbf\\x87\\xe5\\xad\\x97\\xe8\\x8a\\x82\\xe7\\xa0\\x81\\xe9\\x83\\xa8\\xe7\\xbd\\xb2\\xe4\\xbb\\xbb\\xe6\\x84\\x8f\\xe5\\x90\\x88\\xe7\\xba\\xa6.sol\":1801:1998  function getBytecode2(uint x, uint y) external pure returns(bytes memory) {... */\n    tag_9:\n        /* \"solidity\\xe9\\xab\\x98\\xe7\\xba\\xa7\\xe5\\xba\\x94\\xe7\\x94\\xa8/\\xe9\\x80\\x9a\\xe8\\xbf\\x87\\xe5\\xad\\x97\\xe8\\x8a\\x82\\xe7\\xa0\\x81\\xe9\\x83\\xa8\\xe7\\xbd\\xb2\\xe4\\xbb\\xbb\\xe6\\x84\\x8f\\xe5\\x90\\x88\\xe7\\xba\\xa6.sol\":1861:1873  bytes memory */\n      0x60\n        /* \"solidity\\xe9\\xab\\x98\\xe7\\xba\\xa7\\xe5\\xba\\x94\\xe7\\x94\\xa8/\\xe9\\x80\\x9a\\xe8\\xbf\\x87\\xe5\\xad\\x97\\xe8\\x8a\\x82\\xe7\\xa0\\x81\\xe9\\x83\\xa8\\xe7\\xbd\\xb2\\xe4\\xbb\\xbb\\xe6\\x84\\x8f\\xe5\\x90\\x88\\xe7\\xba\\xa6.sol\":1886:1903  bytes memory code */\n      0x00\n        /* \"solidity\\xe9\\xab\\x98\\xe7\\xba\\xa7\\xe5\\xba\\x94\\xe7\\x94\\xa8/\\xe9\\x80\\x9a\\xe8\\xbf\\x87\\xe5\\xad\\x97\\xe8\\x8a\\x82\\xe7\\xa0\\x81\\xe9\\x83\\xa8\\xe7\\xbd\\xb2\\xe4\\xbb\\xbb\\xe6\\x84\\x8f\\xe5\\x90\\x88\\xe7\\xba\\xa6.sol\":1906:1934  type(Contract2).creationCode */\n      mload(0x40)\n      dup1\n      0x20\n      add\n      tag_21\n      swap1\n      tag_22\n      jump\t// in\n    tag_21:\n      0x20\n      dup3\n      add\n      dup2\n      sub\n      dup3\n      mstore\n      not(0x1f)\n      0x1f\n      dup3\n      add\n      and\n      0x40\n      mstore\n      pop\n        /* \"solidity\\xe9\\xab\\x98\\xe7\\xba\\xa7\\xe5\\xba\\x94\\xe7\\x94\\xa8/\\xe9\\x80\\x9a\\xe8\\xbf\\x87\\xe5\\xad\\x97\\xe8\\x8a\\x82\\xe7\\xa0\\x81\\xe9\\x83\\xa8\\xe7\\xbd\\xb2\\xe4\\xbb\\xbb\\xe6\\x84\\x8f\\xe5\\x90\\x88\\xe7\\xba\\xa6.sol\":1886:1934  bytes memory code = type(Contract2).creationCode */\n      swap1\n      pop\n        /* \"solidity\\xe9\\xab\\x98\\xe7\\xba\\xa7\\xe5\\xba\\x94\\xe7\\x94\\xa8/\\xe9\\x80\\x9a\\xe8\\xbf\\x87\\xe5\\xad\\x97\\xe8\\x8a\\x82\\xe7\\xa0\\x81\\xe9\\x83\\xa8\\xe7\\xbd\\xb2\\xe4\\xbb\\xbb\\xe6\\x84\\x8f\\xe5\\x90\\x88\\xe7\\xba\\xa6.sol\":1969:1973  code */\n      dup1\n        /* \"solidity\\xe9\\xab\\x98\\xe7\\xba\\xa7\\xe5\\xba\\x94\\xe7\\x94\\xa8/\\xe9\\x80\\x9a\\xe8\\xbf\\x87\\xe5\\xad\\x97\\xe8\\x8a\\x82\\xe7\\xa0\\x81\\xe9\\x83\\xa8\\xe7\\xbd\\xb2\\xe4\\xbb\\xbb\\xe6\\x84\\x8f\\xe5\\x90\\x88\\xe7\\xba\\xa6.sol\":1985:1986  x */\n      dup5\n        /* \"solidity\\xe9\\xab\\x98\\xe7\\xba\\xa7\\xe5\\xba\\x94\\xe7\\x94\\xa8/\\xe9\\x80\\x9a\\xe8\\xbf\\x87\\xe5\\xad\\x97\\xe8\\x8a\\x82\\xe7\\xa0\\x81\\xe9\\x83\\xa8\\xe7\\xbd\\xb2\\xe4\\xbb\\xbb\\xe6\\x84\\x8f\\xe5\\x90\\x88\\xe7\\xba\\xa6.sol\":1987:1988  y */\n      dup5\n        /* \"solidity\\xe9\\xab\\x98\\xe7\\xba\\xa7\\xe5\\xba\\x94\\xe7\\x94\\xa8/\\xe9\\x80\\x9a\\xe8\\xbf\\x87\\xe5\\xad\\x97\\xe8\\x8a\\x82\\xe7\\xa0\\x81\\xe9\\x83\\xa8\\xe7\\xbd\\xb2\\xe4\\xbb\\xbb\\xe6\\x84\\x8f\\xe5\\x90\\x88\\xe7\\xba\\xa6.sol\":1974:1989  abi.encode(x,y) */\n      add(0x20, mload(0x40))\n      tag_23\n      swap3\n      swap2\n      swap1\n      tag_24\n      jump\t// in\n    tag_23:\n      mload(0x40)\n      0x20\n      dup2\n      dup4\n      sub\n      sub\n      dup2\n      mstore\n      swap1\n      0x40\n      mstore\n        /* \"solidity\\xe9\\xab\\x98\\xe7\\xba\\xa7\\xe5\\xba\\x94\\xe7\\x94\\xa8/\\xe9\\x80\\x9a\\xe8\\xbf\\x87\\xe5\\xad\\x97\\xe8\\x8a\\x82\\xe7\\xa0\\x81\\xe9\\x83\\xa8\\xe7\\xbd\\xb2\\xe4\\xbb\\xbb\\xe6\\x84\\x8f\\xe5\\x90\\x88\\xe7\\xba\\xa6.sol\":1952:1990  abi.encodePacked(code,abi.encode(x,y)) */\n      add(0x20, mload(0x40))\n      tag_25\n      swap3\n      swap2\n      swap1\n      tag_26\n      jump\t// in\n    tag_25:\n      mload(0x40)\n      0x20\n      dup2\n      dup4\n      sub\n      sub\n      dup2\n      mstore\n      swap1\n      0x40\n      mstore\n        /* \"solidity\\xe9\\xab\\x98\\xe7\\xba\\xa7\\xe5\\xba\\x94\\xe7\\x94\\xa8/\\xe9\\x80\\x9a\\xe8\\xbf\\x87\\xe5\\xad\\x97\\xe8\\x8a\\x82\\xe7\\xa0\\x81\\xe9\\x83\\xa8\\xe7\\xbd\\xb2\\xe4\\xbb\\xbb\\xe6\\x84\\x8f\\xe5\\x90\\x88\\xe7\\xba\\xa6.sol\":1945:1990  return abi.encodePacked(code,abi.encode(x,y)) */\n      swap2\n      pop\n      pop\n        /* \"solidity\\xe9\\xab\\x98\\xe7\\xba\\xa7\\xe5\\xba\\x94\\xe7\\x94\\xa8/\\xe9\\x80\\x9a\\xe8\\xbf\\x87\\xe5\\xad\\x97\\xe8\\x8a\\x82\\xe7\\xa0\\x81\\xe9\\x83\\xa8\\xe7\\xbd\\xb2\\xe4\\xbb\\xbb\\xe6\\x84\\x8f\\xe5\\x90\\x88\\xe7\\xba\\xa6.sol\":1801:1998  function getBytecode2(uint x, uint y) external pure returns(bytes memory) {... */\n      swap3\n      swap2\n      pop\n      pop\n      jump\t// out\n        /* \"solidity\\xe9\\xab\\x98\\xe7\\xba\\xa7\\xe5\\xba\\x94\\xe7\\x94\\xa8/\\xe9\\x80\\x9a\\xe8\\xbf\\x87\\xe5\\xad\\x97\\xe8\\x8a\\x82\\xe7\\xa0\\x81\\xe9\\x83\\xa8\\xe7\\xbd\\xb2\\xe4\\xbb\\xbb\\xe6\\x84\\x8f\\xe5\\x90\\x88\\xe7\\xba\\xa6.sol\":2064:2215  function getCallData(address _owner) external pure returns(bytes memory) {... */\n    tag_15:\n        /* \"solidity\\xe9\\xab\\x98\\xe7\\xba\\xa7\\xe5\\xba\\x94\\xe7\\x94\\xa8/\\xe9\\x80\\x9a\\xe8\\xbf\\x87\\xe5\\xad\\x97\\xe8\\x8a\\x82\\xe7\\xa0\\x81\\xe9\\x83\\xa8\\xe7\\xbd\\xb2\\xe4\\xbb\\xbb\\xe6\\x84\\x8f\\xe5\\x90\\x88\\xe7\\xba\\xa6.sol\":2123:2135  bytes memory */\n      0x60\n        /* \"solidity\\xe9\\xab\\x98\\xe7\\xba\\xa7\\xe5\\xba\\x94\\xe7\\x94\\xa8/\\xe9\\x80\\x9a\\xe8\\xbf\\x87\\xe5\\xad\\x97\\xe8\\x8a\\x82\\xe7\\xa0\\x81\\xe9\\x83\\xa8\\xe7\\xbd\\xb2\\xe4\\xbb\\xbb\\xe6\\x84\\x8f\\xe5\\x90\\x88\\xe7\\xba\\xa6.sol\":2200:2206  _owner */\n      dup2\n        /* \"solidity\\xe9\\xab\\x98\\xe7\\xba\\xa7\\xe5\\xba\\x94\\xe7\\x94\\xa8/\\xe9\\x80\\x9a\\xe8\\xbf\\x87\\xe5\\xad\\x97\\xe8\\x8a\\x82\\xe7\\xa0\\x81\\xe9\\x83\\xa8\\xe7\\xbd\\xb2\\xe4\\xbb\\xbb\\xe6\\x84\\x8f\\xe5\\x90\\x88\\xe7\\xba\\xa6.sol\":2155:2207  abi.encodeWithSignature(\"setOwner(address)\", _owner) */\n      add(0x24, mload(0x40))\n      tag_28\n      swap2\n      swap1\n      tag_29\n      jump\t// in\n    tag_28:\n      mload(0x40)\n      0x20\n      dup2\n      dup4\n      sub\n      sub\n      dup2\n      mstore\n      swap1\n      0x40\n      mstore\n      and(not(0xffffffffffffffffffffffffffffffffffffffffffffffffffffffff), 0x13af403500000000000000000000000000000000000000000000000000000000)\n      0x20\n      dup3\n      add\n      dup1\n      mload\n      0xffffffffffffffffffffffffffffffffffffffffffffffffffffffff\n      dup4\n      dup2\n      dup4\n      and\n      or\n      dup4\n      mstore\n      pop\n      pop\n      pop\n      pop\n        /* \"solidity\\xe9\\xab\\x98\\xe7\\xba\\xa7\\xe5\\xba\\x94\\xe7\\x94\\xa8/\\xe9\\x80\\x9a\\xe8\\xbf\\x87\\xe5\\xad\\x97\\xe8\\x8a\\x82\\xe7\\xa0\\x81\\xe9\\x83\\xa8\\xe7\\xbd\\xb2\\xe4\\xbb\\xbb\\xe6\\x84\\x8f\\xe5\\x90\\x88\\xe7\\xba\\xa6.sol\":2148:2207  return abi.encodeWithSignature(\"setOwner(address)\", _owner) */\n      swap1\n      pop\n        /* \"solidity\\xe9\\xab\\x98\\xe7\\xba\\xa7\\xe5\\xba\\x94\\xe7\\x94\\xa8/\\xe9\\x80\\x9a\\xe8\\xbf\\x87\\xe5\\xad\\x97\\xe8\\x8a\\x82\\xe7\\xa0\\x81\\xe9\\x83\\xa8\\xe7\\xbd\\xb2\\xe4\\xbb\\xbb\\xe6\\x84\\x8f\\xe5\\x90\\x88\\xe7\\xba\\xa6.sol\":2064:2215  function getCallData(address _owner) external pure returns(bytes memory) {... */\n      swap2\n      swap1\n      pop\n      jump\t// out\n        /* \"solidity\\xe9\\xab\\x98\\xe7\\xba\\xa7\\xe5\\xba\\x94\\xe7\\x94\\xa8/\\xe9\\x80\\x9a\\xe8\\xbf\\x87\\xe5\\xad\\x97\\xe8\\x8a\\x82\\xe7\\xa0\\x81\\xe9\\x83\\xa8\\xe7\\xbd\\xb2\\xe4\\xbb\\xbb\\xe6\\x84\\x8f\\xe5\\x90\\x88\\xe7\\xba\\xa6.sol\":1638:1752  function getBytecode1() external pure returns(bytes memory) {... */\n    tag_18:\n        /* \"solidity\\xe9\\xab\\x98\\xe7\\xba\\xa7\\xe5\\xba\\x94\\xe7\\x94\\xa8/\\xe9\\x80\\x9a\\xe8\\xbf\\x87\\xe5\\xad\\x97\\xe8\\x8a\\x82\\xe7\\xa0\\x81\\xe9\\x83\\xa8\\xe7\\xbd\\xb2\\xe4\\xbb\\xbb\\xe6\\x84\\x8f\\xe5\\x90\\x88\\xe7\\xba\\xa6.sol\":1684:1696  bytes memory */\n      0x60\n        /* \"solidity\\xe9\\xab\\x98\\xe7\\xba\\xa7\\xe5\\xba\\x94\\xe7\\x94\\xa8/\\xe9\\x80\\x9a\\xe8\\xbf\\x87\\xe5\\xad\\x97\\xe8\\x8a\\x82\\xe7\\xa0\\x81\\xe9\\x83\\xa8\\xe7\\xbd\\xb2\\xe4\\xbb\\xbb\\xe6\\x84\\x8f\\xe5\\x90\\x88\\xe7\\xba\\xa6.sol\":1716:1744  type(Contract1).creationCode */\n      mload(0x40)\n      dup1\n      0x20\n      add\n      tag_31\n      swap1\n      tag_32\n      jump\t// in\n    tag_31:\n      0x20\n      dup3\n      add\n      dup2\n      sub\n      dup3\n      mstore\n      not(0x1f)\n      0x1f\n      dup3\n      add\n      and\n      0x40\n      mstore\n      pop\n        /* \"solidity\\xe9\\xab\\x98\\xe7\\xba\\xa7\\xe5\\xba\\x94\\xe7\\x94\\xa8/\\xe9\\x80\\x9a\\xe8\\xbf\\x87\\xe5\\xad\\x97\\xe8\\x8a\\x82\\xe7\\xa0\\x81\\xe9\\x83\\xa8\\xe7\\xbd\\xb2\\xe4\\xbb\\xbb\\xe6\\x84\\x8f\\xe5\\x90\\x88\\xe7\\xba\\xa6.sol\":1709:1744  return type(Contract1).creationCode */\n      swap1\n      pop\n        /* \"solidity\\xe9\\xab\\x98\\xe7\\xba\\xa7\\xe5\\xba\\x94\\xe7\\x94\\xa8/\\xe9\\x80\\x9a\\xe8\\xbf\\x87\\xe5\\xad\\x97\\xe8\\x8a\\x82\\xe7\\xa0\\x81\\xe9\\x83\\xa8\\xe7\\xbd\\xb2\\xe4\\xbb\\xbb\\xe6\\x84\\x8f\\xe5\\x90\\x88\\xe7\\xba\\xa6.sol\":1638:1752  function getBytecode1() external pure returns(bytes memory) {... */\n      swap1\n      jump\t// out\n    tag_22:\n      dataSize(sub_0)\n      dup1\n      dataOffset(sub_0)\n      dup4\n      codecopy\n      add\n      swap1\n      jump\t// out\n    tag_32:\n      dataSize(sub_1)\n      dup1\n      dataOffset(sub_1)\n      dup4\n      codecopy\n      add\n      swap1\n      jump\t// out\n        /* \"#utility.yul\":88:205   */\n    tag_34:\n        /* \"#utility.yul\":197:198   */\n      0x00\n        /* \"#utility.yul\":194:195   */\n      0x00\n        /* \"#utility.yul\":187:199   */\n      revert\n        /* \"#utility.yul\":334:411   */\n    tag_36:\n        /* \"#utility.yul\":371:378   */\n      0x00\n        /* \"#utility.yul\":400:405   */\n      dup2\n        /* \"#utility.yul\":389:405   */\n      swap1\n      pop\n        /* \"#utility.yul\":334:411   */\n      swap2\n      swap1\n      pop\n      jump\t// out\n        /* \"#utility.yul\":417:539   */\n    tag_37:\n        /* \"#utility.yul\":490:514   */\n      tag_58\n        /* \"#utility.yul\":508:513   */\n      dup2\n        /* \"#utility.yul\":490:514   */\n      tag_36\n      jump\t// in\n    tag_58:\n        /* \"#utility.yul\":483:488   */\n      dup2\n        /* \"#utility.yul\":480:515   */\n      eq\n        /* \"#utility.yul\":470:533   */\n      tag_59\n      jumpi\n        /* \"#utility.yul\":529:530   */\n      0x00\n        /* \"#utility.yul\":526:527   */\n      0x00\n        /* \"#utility.yul\":519:531   */\n      revert\n        /* \"#utility.yul\":470:533   */\n    tag_59:\n        /* \"#utility.yul\":417:539   */\n      pop\n      jump\t// out\n        /* \"#utility.yul\":545:684   */\n    tag_38:\n        /* \"#utility.yul\":591:596   */\n      0x00\n        /* \"#utility.yul\":629:635   */\n      dup2\n        /* \"#utility.yul\":616:636   */\n      calldataload\n        /* \"#utility.yul\":607:636   */\n      swap1\n      pop\n        /* \"#utility.yul\":645:678   */\n      tag_61\n        /* \"#utility.yul\":672:677   */\n      dup2\n        /* \"#utility.yul\":645:678   */\n      tag_37\n      jump\t// in\n    tag_61:\n        /* \"#utility.yul\":545:684   */\n      swap3\n      swap2\n      pop\n      pop\n      jump\t// out\n        /* \"#utility.yul\":690:1164   */\n    tag_8:\n        /* \"#utility.yul\":758:764   */\n      0x00\n        /* \"#utility.yul\":766:772   */\n      0x00\n        /* \"#utility.yul\":815:817   */\n      0x40\n        /* \"#utility.yul\":803:812   */\n      dup4\n        /* \"#utility.yul\":794:801   */\n      dup6\n        /* \"#utility.yul\":790:813   */\n      sub\n        /* \"#utility.yul\":786:818   */\n      slt\n        /* \"#utility.yul\":783:902   */\n      iszero\n      tag_63\n      jumpi\n        /* \"#utility.yul\":821:900   */\n      tag_64\n      tag_34\n      jump\t// in\n    tag_64:\n        /* \"#utility.yul\":783:902   */\n    tag_63:\n        /* \"#utility.yul\":941:942   */\n      0x00\n        /* \"#utility.yul\":966:1019   */\n      tag_65\n        /* \"#utility.yul\":1011:1018   */\n      dup6\n        /* \"#utility.yul\":1002:1008   */\n      dup3\n        /* \"#utility.yul\":991:1000   */\n      dup7\n        /* \"#utility.yul\":987:1009   */\n      add\n        /* \"#utility.yul\":966:1019   */\n      tag_38\n      jump\t// in\n    tag_65:\n        /* \"#utility.yul\":956:1019   */\n      swap3\n      pop\n        /* \"#utility.yul\":912:1029   */\n      pop\n        /* \"#utility.yul\":1068:1070   */\n      0x20\n        /* \"#utility.yul\":1094:1147   */\n      tag_66\n        /* \"#utility.yul\":1139:1146   */\n      dup6\n        /* \"#utility.yul\":1130:1136   */\n      dup3\n        /* \"#utility.yul\":1119:1128   */\n      dup7\n        /* \"#utility.yul\":1115:1137   */\n      add\n        /* \"#utility.yul\":1094:1147   */\n      tag_38\n      jump\t// in\n    tag_66:\n        /* \"#utility.yul\":1084:1147   */\n      swap2\n      pop\n        /* \"#utility.yul\":1039:1157   */\n      pop\n        /* \"#utility.yul\":690:1164   */\n      swap3\n      pop\n      swap3\n      swap1\n      pop\n      jump\t// out\n        /* \"#utility.yul\":1170:1268   */\n    tag_39:\n        /* \"#utility.yul\":1221:1227   */\n      0x00\n        /* \"#utility.yul\":1255:1260   */\n      dup2\n        /* \"#utility.yul\":1249:1261   */\n      mload\n        /* \"#utility.yul\":1239:1261   */\n      swap1\n      pop\n        /* \"#utility.yul\":1170:1268   */\n      swap2\n      swap1\n      pop\n      jump\t// out\n        /* \"#utility.yul\":1274:1442   */\n    tag_40:\n        /* \"#utility.yul\":1357:1368   */\n      0x00\n        /* \"#utility.yul\":1391:1397   */\n      dup3\n        /* \"#utility.yul\":1386:1389   */\n      dup3\n        /* \"#utility.yul\":1379:1398   */\n      mstore\n        /* \"#utility.yul\":1431:1435   */\n      0x20\n        /* \"#utility.yul\":1426:1429   */\n      dup3\n        /* \"#utility.yul\":1422:1436   */\n      add\n        /* \"#utility.yul\":1407:1436   */\n      swap1\n      pop\n        /* \"#utility.yul\":1274:1442   */\n      swap3\n      swap2\n      pop\n      pop\n      jump\t// out\n        /* \"#utility.yul\":1448:1587   */\n    tag_41:\n        /* \"#utility.yul\":1537:1543   */\n      dup3\n        /* \"#utility.yul\":1532:1535   */\n      dup2\n        /* \"#utility.yul\":1527:1530   */\n      dup4\n        /* \"#utility.yul\":1521:1544   */\n      mcopy\n        /* \"#utility.yul\":1578:1579   */\n      0x00\n        /* \"#utility.yul\":1569:1575   */\n      dup4\n        /* \"#utility.yul\":1564:1567   */\n      dup4\n        /* \"#utility.yul\":1560:1576   */\n      add\n        /* \"#utility.yul\":1553:1580   */\n      mstore\n        /* \"#utility.yul\":1448:1587   */\n      pop\n      pop\n      pop\n      jump\t// out\n        /* \"#utility.yul\":1593:1695   */\n    tag_42:\n        /* \"#utility.yul\":1634:1640   */\n      0x00\n        /* \"#utility.yul\":1685:1687   */\n      0x1f\n        /* \"#utility.yul\":1681:1688   */\n      not\n        /* \"#utility.yul\":1676:1678   */\n      0x1f\n        /* \"#utility.yul\":1669:1674   */\n      dup4\n        /* \"#utility.yul\":1665:1679   */\n      add\n        /* \"#utility.yul\":1661:1689   */\n      and\n        /* \"#utility.yul\":1651:1689   */\n      swap1\n      pop\n        /* \"#utility.yul\":1593:1695   */\n      swap2\n      swap1\n      pop\n      jump\t// out\n        /* \"#utility.yul\":1701:2074   */\n    tag_43:\n        /* \"#utility.yul\":1787:1790   */\n      0x00\n        /* \"#utility.yul\":1815:1853   */\n      tag_72\n        /* \"#utility.yul\":1847:1852   */\n      dup3\n        /* \"#utility.yul\":1815:1853   */\n      tag_39\n      jump\t// in\n    tag_72:\n        /* \"#utility.yul\":1869:1939   */\n      tag_73\n        /* \"#utility.yul\":1932:1938   */\n      dup2\n        /* \"#utility.yul\":1927:1930   */\n      dup6\n        /* \"#utility.yul\":1869:1939   */\n      tag_40\n      jump\t// in\n    tag_73:\n        /* \"#utility.yul\":1862:1939   */\n      swap4\n      pop\n        /* \"#utility.yul\":1948:2013   */\n      tag_74\n        /* \"#utility.yul\":2006:2012   */\n      dup2\n        /* \"#utility.yul\":2001:2004   */\n      dup6\n        /* \"#utility.yul\":1994:1998   */\n      0x20\n        /* \"#utility.yul\":1987:1992   */\n      dup7\n        /* \"#utility.yul\":1983:1999   */\n      add\n        /* \"#utility.yul\":1948:2013   */\n      tag_41\n      jump\t// in\n    tag_74:\n        /* \"#utility.yul\":2038:2067   */\n      tag_75\n        /* \"#utility.yul\":2060:2066   */\n      dup2\n        /* \"#utility.yul\":2038:2067   */\n      tag_42\n      jump\t// in\n    tag_75:\n        /* \"#utility.yul\":2033:2036   */\n      dup5\n        /* \"#utility.yul\":2029:2068   */\n      add\n        /* \"#utility.yul\":2022:2068   */\n      swap2\n      pop\n        /* \"#utility.yul\":1791:2074   */\n      pop\n        /* \"#utility.yul\":1701:2074   */\n      swap3\n      swap2\n      pop\n      pop\n      jump\t// out\n        /* \"#utility.yul\":2080:2389   */\n    tag_11:\n        /* \"#utility.yul\":2191:2195   */\n      0x00\n        /* \"#utility.yul\":2229:2231   */\n      0x20\n        /* \"#utility.yul\":2218:2227   */\n      dup3\n        /* \"#utility.yul\":2214:2232   */\n      add\n        /* \"#utility.yul\":2206:2232   */\n      swap1\n      pop\n        /* \"#utility.yul\":2278:2287   */\n      dup2\n        /* \"#utility.yul\":2272:2276   */\n      dup2\n        /* \"#utility.yul\":2268:2288   */\n      sub\n        /* \"#utility.yul\":2264:2265   */\n      0x00\n        /* \"#utility.yul\":2253:2262   */\n      dup4\n        /* \"#utility.yul\":2249:2266   */\n      add\n        /* \"#utility.yul\":2242:2289   */\n      mstore\n        /* \"#utility.yul\":2306:2382   */\n      tag_77\n        /* \"#utility.yul\":2377:2381   */\n      dup2\n        /* \"#utility.yul\":2368:2374   */\n      dup5\n        /* \"#utility.yul\":2306:2382   */\n      tag_43\n      jump\t// in\n    tag_77:\n        /* \"#utility.yul\":2298:2382   */\n      swap1\n      pop\n        /* \"#utility.yul\":2080:2389   */\n      swap3\n      swap2\n      pop\n      pop\n      jump\t// out\n        /* \"#utility.yul\":2395:2521   */\n    tag_44:\n        /* \"#utility.yul\":2432:2439   */\n      0x00\n        /* \"#utility.yul\":2472:2514   */\n      0xffffffffffffffffffffffffffffffffffffffff\n        /* \"#utility.yul\":2465:2470   */\n      dup3\n        /* \"#utility.yul\":2461:2515   */\n      and\n        /* \"#utility.yul\":2450:2515   */\n      swap1\n      pop\n        /* \"#utility.yul\":2395:2521   */\n      swap2\n      swap1\n      pop\n      jump\t// out\n        /* \"#utility.yul\":2527:2623   */\n    tag_45:\n        /* \"#utility.yul\":2564:2571   */\n      0x00\n        /* \"#utility.yul\":2593:2617   */\n      tag_80\n        /* \"#utility.yul\":2611:2616   */\n      dup3\n        /* \"#utility.yul\":2593:2617   */\n      tag_44\n      jump\t// in\n    tag_80:\n        /* \"#utility.yul\":2582:2617   */\n      swap1\n      pop\n        /* \"#utility.yul\":2527:2623   */\n      swap2\n      swap1\n      pop\n      jump\t// out\n        /* \"#utility.yul\":2629:2751   */\n    tag_46:\n        /* \"#utility.yul\":2702:2726   */\n      tag_82\n        /* \"#utility.yul\":2720:2725   */\n      dup2\n        /* \"#utility.yul\":2702:2726   */\n      tag_45\n      jump\t// in\n    tag_82:\n        /* \"#utility.yul\":2695:2700   */\n      dup2\n        /* \"#utility.yul\":2692:2727   */\n      eq\n        /* \"#utility.yul\":2682:2745   */\n      tag_83\n      jumpi\n        /* \"#utility.yul\":2741:2742   */\n      0x00\n        /* \"#utility.yul\":2738:2739   */\n      0x00\n        /* \"#utility.yul\":2731:2743   */\n      revert\n        /* \"#utility.yul\":2682:2745   */\n    tag_83:\n        /* \"#utility.yul\":2629:2751   */\n      pop\n      jump\t// out\n        /* \"#utility.yul\":2757:2896   */\n    tag_47:\n        /* \"#utility.yul\":2803:2808   */\n      0x00\n        /* \"#utility.yul\":2841:2847   */\n      dup2\n        /* \"#utility.yul\":2828:2848   */\n      calldataload\n        /* \"#utility.yul\":2819:2848   */\n      swap1\n      pop\n        /* \"#utility.yul\":2857:2890   */\n      tag_85\n        /* \"#utility.yul\":2884:2889   */\n      dup2\n        /* \"#utility.yul\":2857:2890   */\n      tag_46\n      jump\t// in\n    tag_85:\n        /* \"#utility.yul\":2757:2896   */\n      swap3\n      swap2\n      pop\n      pop\n      jump\t// out\n        /* \"#utility.yul\":2902:3231   */\n    tag_14:\n        /* \"#utility.yul\":2961:2967   */\n      0x00\n        /* \"#utility.yul\":3010:3012   */\n      0x20\n        /* \"#utility.yul\":2998:3007   */\n      dup3\n        /* \"#utility.yul\":2989:2996   */\n      dup5\n        /* \"#utility.yul\":2985:3008   */\n      sub\n        /* \"#utility.yul\":2981:3013   */\n      slt\n        /* \"#utility.yul\":2978:3097   */\n      iszero\n      tag_87\n      jumpi\n        /* \"#utility.yul\":3016:3095   */\n      tag_88\n      tag_34\n      jump\t// in\n    tag_88:\n        /* \"#utility.yul\":2978:3097   */\n    tag_87:\n        /* \"#utility.yul\":3136:3137   */\n      0x00\n        /* \"#utility.yul\":3161:3214   */\n      tag_89\n        /* \"#utility.yul\":3206:3213   */\n      dup5\n        /* \"#utility.yul\":3197:3203   */\n      dup3\n        /* \"#utility.yul\":3186:3195   */\n      dup6\n        /* \"#utility.yul\":3182:3204   */\n      add\n        /* \"#utility.yul\":3161:3214   */\n      tag_47\n      jump\t// in\n    tag_89:\n        /* \"#utility.yul\":3151:3214   */\n      swap2\n      pop\n        /* \"#utility.yul\":3107:3224   */\n      pop\n        /* \"#utility.yul\":2902:3231   */\n      swap3\n      swap2\n      pop\n      pop\n      jump\t// out\n        /* \"#utility.yul\":3237:3355   */\n    tag_48:\n        /* \"#utility.yul\":3324:3348   */\n      tag_91\n        /* \"#utility.yul\":3342:3347   */\n      dup2\n        /* \"#utility.yul\":3324:3348   */\n      tag_36\n      jump\t// in\n    tag_91:\n        /* \"#utility.yul\":3319:3322   */\n      dup3\n        /* \"#utility.yul\":3312:3349   */\n      mstore\n        /* \"#utility.yul\":3237:3355   */\n      pop\n      pop\n      jump\t// out\n        /* \"#utility.yul\":3361:3693   */\n    tag_24:\n        /* \"#utility.yul\":3482:3486   */\n      0x00\n        /* \"#utility.yul\":3520:3522   */\n      0x40\n        /* \"#utility.yul\":3509:3518   */\n      dup3\n        /* \"#utility.yul\":3505:3523   */\n      add\n        /* \"#utility.yul\":3497:3523   */\n      swap1\n      pop\n        /* \"#utility.yul\":3533:3604   */\n      tag_93\n        /* \"#utility.yul\":3601:3602   */\n      0x00\n        /* \"#utility.yul\":3590:3599   */\n      dup4\n        /* \"#utility.yul\":3586:3603   */\n      add\n        /* \"#utility.yul\":3577:3583   */\n      dup6\n        /* \"#utility.yul\":3533:3604   */\n      tag_48\n      jump\t// in\n    tag_93:\n        /* \"#utility.yul\":3614:3686   */\n      tag_94\n        /* \"#utility.yul\":3682:3684   */\n      0x20\n        /* \"#utility.yul\":3671:3680   */\n      dup4\n        /* \"#utility.yul\":3667:3685   */\n      add\n        /* \"#utility.yul\":3658:3664   */\n      dup5\n        /* \"#utility.yul\":3614:3686   */\n      tag_48\n      jump\t// in\n    tag_94:\n        /* \"#utility.yul\":3361:3693   */\n      swap4\n      swap3\n      pop\n      pop\n      pop\n      jump\t// out\n        /* \"#utility.yul\":3699:3846   */\n    tag_49:\n        /* \"#utility.yul\":3800:3811   */\n      0x00\n        /* \"#utility.yul\":3837:3840   */\n      dup2\n        /* \"#utility.yul\":3822:3840   */\n      swap1\n      pop\n        /* \"#utility.yul\":3699:3846   */\n      swap3\n      swap2\n      pop\n      pop\n      jump\t// out\n        /* \"#utility.yul\":3852:4238   */\n    tag_50:\n        /* \"#utility.yul\":3956:3959   */\n      0x00\n        /* \"#utility.yul\":3984:4022   */\n      tag_97\n        /* \"#utility.yul\":4016:4021   */\n      dup3\n        /* \"#utility.yul\":3984:4022   */\n      tag_39\n      jump\t// in\n    tag_97:\n        /* \"#utility.yul\":4038:4126   */\n      tag_98\n        /* \"#utility.yul\":4119:4125   */\n      dup2\n        /* \"#utility.yul\":4114:4117   */\n      dup6\n        /* \"#utility.yul\":4038:4126   */\n      tag_49\n      jump\t// in\n    tag_98:\n        /* \"#utility.yul\":4031:4126   */\n      swap4\n      pop\n        /* \"#utility.yul\":4135:4200   */\n      tag_99\n        /* \"#utility.yul\":4193:4199   */\n      dup2\n        /* \"#utility.yul\":4188:4191   */\n      dup6\n        /* \"#utility.yul\":4181:4185   */\n      0x20\n        /* \"#utility.yul\":4174:4179   */\n      dup7\n        /* \"#utility.yul\":4170:4186   */\n      add\n        /* \"#utility.yul\":4135:4200   */\n      tag_41\n      jump\t// in\n    tag_99:\n        /* \"#utility.yul\":4225:4231   */\n      dup1\n        /* \"#utility.yul\":4220:4223   */\n      dup5\n        /* \"#utility.yul\":4216:4232   */\n      add\n        /* \"#utility.yul\":4209:4232   */\n      swap2\n      pop\n        /* \"#utility.yul\":3960:4238   */\n      pop\n        /* \"#utility.yul\":3852:4238   */\n      swap3\n      swap2\n      pop\n      pop\n      jump\t// out\n        /* \"#utility.yul\":4244:4671   */\n    tag_26:\n        /* \"#utility.yul\":4420:4423   */\n      0x00\n        /* \"#utility.yul\":4442:4535   */\n      tag_101\n        /* \"#utility.yul\":4531:4534   */\n      dup3\n        /* \"#utility.yul\":4522:4528   */\n      dup6\n        /* \"#utility.yul\":4442:4535   */\n      tag_50\n      jump\t// in\n    tag_101:\n        /* \"#utility.yul\":4435:4535   */\n      swap2\n      pop\n        /* \"#utility.yul\":4552:4645   */\n      tag_102\n        /* \"#utility.yul\":4641:4644   */\n      dup3\n        /* \"#utility.yul\":4632:4638   */\n      dup5\n        /* \"#utility.yul\":4552:4645   */\n      tag_50\n      jump\t// in\n    tag_102:\n        /* \"#utility.yul\":4545:4645   */\n      swap2\n      pop\n        /* \"#utility.yul\":4662:4665   */\n      dup2\n        /* \"#utility.yul\":4655:4665   */\n      swap1\n      pop\n        /* \"#utility.yul\":4244:4671   */\n      swap4\n      swap3\n      pop\n      pop\n      pop\n      jump\t// out\n        /* \"#utility.yul\":4677:4795   */\n    tag_51:\n        /* \"#utility.yul\":4764:4788   */\n      tag_104\n        /* \"#utility.yul\":4782:4787   */\n      dup2\n        /* \"#utility.yul\":4764:4788   */\n      tag_45\n      jump\t// in\n    tag_104:\n        /* \"#utility.yul\":4759:4762   */\n      dup3\n        /* \"#utility.yul\":4752:4789   */\n      mstore\n        /* \"#utility.yul\":4677:4795   */\n      pop\n      pop\n      jump\t// out\n        /* \"#utility.yul\":4801:5023   */\n    tag_29:\n        /* \"#utility.yul\":4894:4898   */\n      0x00\n        /* \"#utility.yul\":4932:4934   */\n      0x20\n        /* \"#utility.yul\":4921:4930   */\n      dup3\n        /* \"#utility.yul\":4917:4935   */\n      add\n        /* \"#utility.yul\":4909:4935   */\n      swap1\n      pop\n        /* \"#utility.yul\":4945:5016   */\n      tag_106\n        /* \"#utility.yul\":5013:5014   */\n      0x00\n        /* \"#utility.yul\":5002:5011   */\n      dup4\n        /* \"#utility.yul\":4998:5015   */\n      add\n        /* \"#utility.yul\":4989:4995   */\n      dup5\n        /* \"#utility.yul\":4945:5016   */\n      tag_51\n      jump\t// in\n    tag_106:\n        /* \"#utility.yul\":4801:5023   */\n      swap3\n      swap2\n      pop\n      pop\n      jump\t// out\n    stop\n\n    sub_0: assembly {\n            /* \"solidity\\xe9\\xab\\x98\\xe7\\xba\\xa7\\xe5\\xba\\x94\\xe7\\x94\\xa8/\\xe9\\x80\\x9a\\xe8\\xbf\\x87\\xe5\\xad\\x97\\xe8\\x8a\\x82\\xe7\\xa0\\x81\\xe9\\x83\\xa8\\xe7\\xbd\\xb2\\xe4\\xbb\\xbb\\xe6\\x84\\x8f\\xe5\\x90\\x88\\xe7\\xba\\xa6.sol\":851:1079  contract Contract2 {... */\n          mstore(0x40, 0x80)\n            /* \"solidity\\xe9\\xab\\x98\\xe7\\xba\\xa7\\xe5\\xba\\x94\\xe7\\x94\\xa8/\\xe9\\x80\\x9a\\xe8\\xbf\\x87\\xe5\\xad\\x97\\xe8\\x8a\\x82\\xe7\\xa0\\x81\\xe9\\x83\\xa8\\xe7\\xbd\\xb2\\xe4\\xbb\\xbb\\xe6\\x84\\x8f\\xe5\\x90\\x88\\xe7\\xba\\xa6.sol\":900:910  msg.sender */\n          caller\n            /* \"solidity\\xe9\\xab\\x98\\xe7\\xba\\xa7\\xe5\\xba\\x94\\xe7\\x94\\xa8/\\xe9\\x80\\x9a\\xe8\\xbf\\x87\\xe5\\xad\\x97\\xe8\\x8a\\x82\\xe7\\xa0\\x81\\xe9\\x83\\xa8\\xe7\\xbd\\xb2\\xe4\\xbb\\xbb\\xe6\\x84\\x8f\\xe5\\x90\\x88\\xe7\\xba\\xa6.sol\":877:910  address public owner = msg.sender */\n          0x00\n          exp(0x0100, 0x00)\n          dup2\n          sload\n          dup2\n          0xffffffffffffffffffffffffffffffffffffffff\n          mul\n          not\n          and\n          swap1\n          dup4\n          0xffffffffffffffffffffffffffffffffffffffff\n          and\n          mul\n          or\n          swap1\n          sstore\n          pop\n            /* \"solidity\\xe9\\xab\\x98\\xe7\\xba\\xa7\\xe5\\xba\\x94\\xe7\\x94\\xa8/\\xe9\\x80\\x9a\\xe8\\xbf\\x87\\xe5\\xad\\x97\\xe8\\x8a\\x82\\xe7\\xa0\\x81\\xe9\\x83\\xa8\\xe7\\xbd\\xb2\\xe4\\xbb\\xbb\\xe6\\x84\\x8f\\xe5\\x90\\x88\\xe7\\xba\\xa6.sol\":937:946  msg.value */\n          callvalue\n            /* \"solidity\\xe9\\xab\\x98\\xe7\\xba\\xa7\\xe5\\xba\\x94\\xe7\\x94\\xa8/\\xe9\\x80\\x9a\\xe8\\xbf\\x87\\xe5\\xad\\x97\\xe8\\x8a\\x82\\xe7\\xa0\\x81\\xe9\\x83\\xa8\\xe7\\xbd\\xb2\\xe4\\xbb\\xbb\\xe6\\x84\\x8f\\xe5\\x90\\x88\\xe7\\xba\\xa6.sol\":917:946  uint public value = msg.value */\n          0x01\n          sstore\n            /* \"solidity\\xe9\\xab\\x98\\xe7\\xba\\xa7\\xe5\\xba\\x94\\xe7\\x94\\xa8/\\xe9\\x80\\x9a\\xe8\\xbf\\x87\\xe5\\xad\\x97\\xe8\\x8a\\x82\\xe7\\xa0\\x81\\xe9\\x83\\xa8\\xe7\\xbd\\xb2\\xe4\\xbb\\xbb\\xe6\\x84\\x8f\\xe5\\x90\\x88\\xe7\\xba\\xa6.sol\":997:1076  constructor(uint _x,uint _y) payable {... */\n          mload(0x40)\n          sub(codesize, bytecodeSize)\n          dup1\n          bytecodeSize\n          dup4\n          codecopy\n          dup2\n          dup2\n          add\n          0x40\n          mstore\n          dup2\n          add\n          swap1\n          tag_1\n          swap2\n          swap1\n          tag_2\n          jump\t// in\n        tag_1:\n            /* \"solidity\\xe9\\xab\\x98\\xe7\\xba\\xa7\\xe5\\xba\\x94\\xe7\\x94\\xa8/\\xe9\\x80\\x9a\\xe8\\xbf\\x87\\xe5\\xad\\x97\\xe8\\x8a\\x82\\xe7\\xa0\\x81\\xe9\\x83\\xa8\\xe7\\xbd\\xb2\\xe4\\xbb\\xbb\\xe6\\x84\\x8f\\xe5\\x90\\x88\\xe7\\xba\\xa6.sol\":1049:1051  _x */\n          dup2\n            /* \"solidity\\xe9\\xab\\x98\\xe7\\xba\\xa7\\xe5\\xba\\x94\\xe7\\x94\\xa8/\\xe9\\x80\\x9a\\xe8\\xbf\\x87\\xe5\\xad\\x97\\xe8\\x8a\\x82\\xe7\\xa0\\x81\\xe9\\x83\\xa8\\xe7\\xbd\\xb2\\xe4\\xbb\\xbb\\xe6\\x84\\x8f\\xe5\\x90\\x88\\xe7\\xba\\xa6.sol\":1045:1046  x */\n          0x02\n            /* \"solidity\\xe9\\xab\\x98\\xe7\\xba\\xa7\\xe5\\xba\\x94\\xe7\\x94\\xa8/\\xe9\\x80\\x9a\\xe8\\xbf\\x87\\xe5\\xad\\x97\\xe8\\x8a\\x82\\xe7\\xa0\\x81\\xe9\\x83\\xa8\\xe7\\xbd\\xb2\\xe4\\xbb\\xbb\\xe6\\x84\\x8f\\xe5\\x90\\x88\\xe7\\xba\\xa6.sol\":1045:1051  x = _x */\n          dup2\n          swap1\n          sstore\n          pop\n            /* \"solidity\\xe9\\xab\\x98\\xe7\\xba\\xa7\\xe5\\xba\\x94\\xe7\\x94\\xa8/\\xe9\\x80\\x9a\\xe8\\xbf\\x87\\xe5\\xad\\x97\\xe8\\x8a\\x82\\xe7\\xa0\\x81\\xe9\\x83\\xa8\\xe7\\xbd\\xb2\\xe4\\xbb\\xbb\\xe6\\x84\\x8f\\xe5\\x90\\x88\\xe7\\xba\\xa6.sol\":1066:1068  _y */\n          dup1\n            /* \"solidity\\xe9\\xab\\x98\\xe7\\xba\\xa7\\xe5\\xba\\x94\\xe7\\x94\\xa8/\\xe9\\x80\\x9a\\xe8\\xbf\\x87\\xe5\\xad\\x97\\xe8\\x8a\\x82\\xe7\\xa0\\x81\\xe9\\x83\\xa8\\xe7\\xbd\\xb2\\xe4\\xbb\\xbb\\xe6\\x84\\x8f\\xe5\\x90\\x88\\xe7\\xba\\xa6.sol\":1062:1063  y */\n          0x03\n            /* \"solidity\\xe9\\xab\\x98\\xe7\\xba\\xa7\\xe5\\xba\\x94\\xe7\\x94\\xa8/\\xe9\\x80\\x9a\\xe8\\xbf\\x87\\xe5\\xad\\x97\\xe8\\x8a\\x82\\xe7\\xa0\\x81\\xe9\\x83\\xa8\\xe7\\xbd\\xb2\\xe4\\xbb\\xbb\\xe6\\x84\\x8f\\xe5\\x90\\x88\\xe7\\xba\\xa6.sol\":1062:1068  y = _y */\n          dup2\n          swap1\n          sstore\n          pop\n            /* \"solidity\\xe9\\xab\\x98\\xe7\\xba\\xa7\\xe5\\xba\\x94\\xe7\\x94\\xa8/\\xe9\\x80\\x9a\\xe8\\xbf\\x87\\xe5\\xad\\x97\\xe8\\x8a\\x82\\xe7\\xa0\\x81\\xe9\\x83\\xa8\\xe7\\xbd\\xb2\\xe4\\xbb\\xbb\\xe6\\x84\\x8f\\xe5\\x90\\x88\\xe7\\xba\\xa6.sol\":997:1076  constructor(uint _x,uint _y) payable {... */\n          pop\n          pop\n            /* \"solidity\\xe9\\xab\\x98\\xe7\\xba\\xa7\\xe5\\xba\\x94\\xe7\\x94\\xa8/\\xe9\\x80\\x9a\\xe8\\xbf\\x87\\xe5\\xad\\x97\\xe8\\x8a\\x82\\xe7\\xa0\\x81\\xe9\\x83\\xa8\\xe7\\xbd\\xb2\\xe4\\xbb\\xbb\\xe6\\x84\\x8f\\xe5\\x90\\x88\\xe7\\xba\\xa6.sol\":851:1079  contract Contract2 {... */\n          jump(tag_5)\n            /* \"#utility.yul\":88:205   */\n        tag_7:\n            /* \"#utility.yul\":197:198   */\n          0x00\n            /* \"#utility.yul\":194:195   */\n          0x00\n            /* \"#utility.yul\":187:199   */\n          revert\n            /* \"#utility.yul\":334:411   */\n        tag_9:\n            /* \"#utility.yul\":371:378   */\n          0x00\n            /* \"#utility.yul\":400:405   */\n          dup2\n            /* \"#utility.yul\":389:405   */\n          swap1\n          pop\n            /* \"#utility.yul\":334:411   */\n          swap2\n          swap1\n          pop\n          jump\t// out\n            /* \"#utility.yul\":417:539   */\n        tag_10:\n            /* \"#utility.yul\":490:514   */\n          tag_18\n            /* \"#utility.yul\":508:513   */\n          dup2\n            /* \"#utility.yul\":490:514   */\n          tag_9\n          jump\t// in\n        tag_18:\n            /* \"#utility.yul\":483:488   */\n          dup2\n            /* \"#utility.yul\":480:515   */\n          eq\n            /* \"#utility.yul\":470:533   */\n          tag_19\n          jumpi\n            /* \"#utility.yul\":529:530   */\n          0x00\n            /* \"#utility.yul\":526:527   */\n          0x00\n            /* \"#utility.yul\":519:531   */\n          revert\n            /* \"#utility.yul\":470:533   */\n        tag_19:\n            /* \"#utility.yul\":417:539   */\n          pop\n          jump\t// out\n            /* \"#utility.yul\":545:688   */\n        tag_11:\n            /* \"#utility.yul\":602:607   */\n          0x00\n            /* \"#utility.yul\":633:639   */\n          dup2\n            /* \"#utility.yul\":627:640   */\n          mload\n            /* \"#utility.yul\":618:640   */\n          swap1\n          pop\n            /* \"#utility.yul\":649:682   */\n          tag_21\n            /* \"#utility.yul\":676:681   */\n          dup2\n            /* \"#utility.yul\":649:682   */\n          tag_10\n          jump\t// in\n        tag_21:\n            /* \"#utility.yul\":545:688   */\n          swap3\n          swap2\n          pop\n          pop\n          jump\t// out\n            /* \"#utility.yul\":694:1201   */\n        tag_2:\n            /* \"#utility.yul\":773:779   */\n          0x00\n            /* \"#utility.yul\":781:787   */\n          0x00\n            /* \"#utility.yul\":830:832   */\n          0x40\n            /* \"#utility.yul\":818:827   */\n          dup4\n            /* \"#utility.yul\":809:816   */\n          dup6\n            /* \"#utility.yul\":805:828   */\n          sub\n            /* \"#utility.yul\":801:833   */\n          slt\n            /* \"#utility.yul\":798:917   */\n          iszero\n          tag_23\n          jumpi\n            /* \"#utility.yul\":836:915   */\n          tag_24\n          tag_7\n          jump\t// in\n        tag_24:\n            /* \"#utility.yul\":798:917   */\n        tag_23:\n            /* \"#utility.yul\":956:957   */\n          0x00\n            /* \"#utility.yul\":981:1045   */\n          tag_25\n            /* \"#utility.yul\":1037:1044   */\n          dup6\n            /* \"#utility.yul\":1028:1034   */\n          dup3\n            /* \"#utility.yul\":1017:1026   */\n          dup7\n            /* \"#utility.yul\":1013:1035   */\n          add\n            /* \"#utility.yul\":981:1045   */\n          tag_11\n          jump\t// in\n        tag_25:\n            /* \"#utility.yul\":971:1045   */\n          swap3\n          pop\n            /* \"#utility.yul\":927:1055   */\n          pop\n            /* \"#utility.yul\":1094:1096   */\n          0x20\n            /* \"#utility.yul\":1120:1184   */\n          tag_26\n            /* \"#utility.yul\":1176:1183   */\n          dup6\n            /* \"#utility.yul\":1167:1173   */\n          dup3\n            /* \"#utility.yul\":1156:1165   */\n          dup7\n            /* \"#utility.yul\":1152:1174   */\n          add\n            /* \"#utility.yul\":1120:1184   */\n          tag_11\n          jump\t// in\n        tag_26:\n            /* \"#utility.yul\":1110:1184   */\n          swap2\n          pop\n            /* \"#utility.yul\":1065:1194   */\n          pop\n            /* \"#utility.yul\":694:1201   */\n          swap3\n          pop\n          swap3\n          swap1\n          pop\n          jump\t// out\n            /* \"solidity\\xe9\\xab\\x98\\xe7\\xba\\xa7\\xe5\\xba\\x94\\xe7\\x94\\xa8/\\xe9\\x80\\x9a\\xe8\\xbf\\x87\\xe5\\xad\\x97\\xe8\\x8a\\x82\\xe7\\xa0\\x81\\xe9\\x83\\xa8\\xe7\\xbd\\xb2\\xe4\\xbb\\xbb\\xe6\\x84\\x8f\\xe5\\x90\\x88\\xe7\\xba\\xa6.sol\":851:1079  contract Contract2 {... */\n        tag_5:\n          dataSize(sub_0)\n          dup1\n          dataOffset(sub_0)\n          0x00\n          codecopy\n          0x00\n          return\n        stop\n\n        sub_0: assembly {\n                /* \"solidity\\xe9\\xab\\x98\\xe7\\xba\\xa7\\xe5\\xba\\x94\\xe7\\x94\\xa8/\\xe9\\x80\\x9a\\xe8\\xbf\\x87\\xe5\\xad\\x97\\xe8\\x8a\\x82\\xe7\\xa0\\x81\\xe9\\x83\\xa8\\xe7\\xbd\\xb2\\xe4\\xbb\\xbb\\xe6\\x84\\x8f\\xe5\\x90\\x88\\xe7\\xba\\xa6.sol\":851:1079  contract Contract2 {... */\n              mstore(0x40, 0x80)\n              callvalue\n              dup1\n              iszero\n              tag_1\n              jumpi\n              revert(0x00, 0x00)\n            tag_1:\n              pop\n              jumpi(tag_2, lt(calldatasize, 0x04))\n              shr(0xe0, calldataload(0x00))\n              dup1\n              0x0c55699c\n              eq\n              tag_3\n              jumpi\n              dup1\n              0x3fa4f245\n              eq\n              tag_4\n              jumpi\n              dup1\n              0x8da5cb5b\n              eq\n              tag_5\n              jumpi\n              dup1\n              0xa56dfe4a\n              eq\n              tag_6\n              jumpi\n            tag_2:\n              revert(0x00, 0x00)\n                /* \"solidity\\xe9\\xab\\x98\\xe7\\xba\\xa7\\xe5\\xba\\x94\\xe7\\x94\\xa8/\\xe9\\x80\\x9a\\xe8\\xbf\\x87\\xe5\\xad\\x97\\xe8\\x8a\\x82\\xe7\\xa0\\x81\\xe9\\x83\\xa8\\xe7\\xbd\\xb2\\xe4\\xbb\\xbb\\xe6\\x84\\x8f\\xe5\\x90\\x88\\xe7\\xba\\xa6.sol\":953:966  uint public x */\n            tag_3:\n              tag_7\n              tag_8\n              jump\t// in\n            tag_7:\n              mload(0x40)\n              tag_9\n              swap2\n              swap1\n              tag_10\n              jump\t// in\n            tag_9:\n              mload(0x40)\n              dup1\n              swap2\n              sub\n              swap1\n              return\n                /* \"solidity\\xe9\\xab\\x98\\xe7\\xba\\xa7\\xe5\\xba\\x94\\xe7\\x94\\xa8/\\xe9\\x80\\x9a\\xe8\\xbf\\x87\\xe5\\xad\\x97\\xe8\\x8a\\x82\\xe7\\xa0\\x81\\xe9\\x83\\xa8\\xe7\\xbd\\xb2\\xe4\\xbb\\xbb\\xe6\\x84\\x8f\\xe5\\x90\\x88\\xe7\\xba\\xa6.sol\":917:946  uint public value = msg.value */\n            tag_4:\n              tag_11\n              tag_12\n              jump\t// in\n            tag_11:\n              mload(0x40)\n              tag_13\n              swap2\n              swap1\n              tag_10\n              jump\t// in\n            tag_13:\n              mload(0x40)\n              dup1\n              swap2\n              sub\n              swap1\n              return\n                /* \"solidity\\xe9\\xab\\x98\\xe7\\xba\\xa7\\xe5\\xba\\x94\\xe7\\x94\\xa8/\\xe9\\x80\\x9a\\xe8\\xbf\\x87\\xe5\\xad\\x97\\xe8\\x8a\\x82\\xe7\\xa0\\x81\\xe9\\x83\\xa8\\xe7\\xbd\\xb2\\xe4\\xbb\\xbb\\xe6\\x84\\x8f\\xe5\\x90\\x88\\xe7\\xba\\xa6.sol\":877:910  address public owner = msg.sender */\n            tag_5:\n              tag_14\n              tag_15\n              jump\t// in\n            tag_14:\n              mload(0x40)\n              tag_16\n              swap2\n              swap1\n              tag_17\n              jump\t// in\n            tag_16:\n              mload(0x40)\n              dup1\n              swap2\n              sub\n              swap1\n              return\n                /* \"solidity\\xe9\\xab\\x98\\xe7\\xba\\xa7\\xe5\\xba\\x94\\xe7\\x94\\xa8/\\xe9\\x80\\x9a\\xe8\\xbf\\x87\\xe5\\xad\\x97\\xe8\\x8a\\x82\\xe7\\xa0\\x81\\xe9\\x83\\xa8\\xe7\\xbd\\xb2\\xe4\\xbb\\xbb\\xe6\\x84\\x8f\\xe5\\x90\\x88\\xe7\\xba\\xa6.sol\":973:986  uint public y */\n            tag_6:\n              tag_18\n              tag_19\n              jump\t// in\n            tag_18:\n              mload(0x40)\n              tag_20\n              swap2\n              swap1\n              tag_10\n              jump\t// in\n            tag_20:\n              mload(0x40)\n              dup1\n              swap2\n              sub\n              swap1\n              return\n                /* \"solidity\\xe9\\xab\\x98\\xe7\\xba\\xa7\\xe5\\xba\\x94\\xe7\\x94\\xa8/\\xe9\\x80\\x9a\\xe8\\xbf\\x87\\xe5\\xad\\x97\\xe8\\x8a\\x82\\xe7\\xa0\\x81\\xe9\\x83\\xa8\\xe7\\xbd\\xb2\\xe4\\xbb\\xbb\\xe6\\x84\\x8f\\xe5\\x90\\x88\\xe7\\xba\\xa6.sol\":953:966  uint public x */\n            tag_8:\n              sload(0x02)\n              dup2\n              jump\t// out\n                /* \"solidity\\xe9\\xab\\x98\\xe7\\xba\\xa7\\xe5\\xba\\x94\\xe7\\x94\\xa8/\\xe9\\x80\\x9a\\xe8\\xbf\\x87\\xe5\\xad\\x97\\xe8\\x8a\\x82\\xe7\\xa0\\x81\\xe9\\x83\\xa8\\xe7\\xbd\\xb2\\xe4\\xbb\\xbb\\xe6\\x84\\x8f\\xe5\\x90\\x88\\xe7\\xba\\xa6.sol\":917:946  uint public value = msg.value */\n            tag_12:\n              sload(0x01)\n              dup2\n              jump\t// out\n                /* \"solidity\\xe9\\xab\\x98\\xe7\\xba\\xa7\\xe5\\xba\\x94\\xe7\\x94\\xa8/\\xe9\\x80\\x9a\\xe8\\xbf\\x87\\xe5\\xad\\x97\\xe8\\x8a\\x82\\xe7\\xa0\\x81\\xe9\\x83\\xa8\\xe7\\xbd\\xb2\\xe4\\xbb\\xbb\\xe6\\x84\\x8f\\xe5\\x90\\x88\\xe7\\xba\\xa6.sol\":877:910  address public owner = msg.sender */\n            tag_15:\n              0x00\n              0x00\n              swap1\n              sload\n              swap1\n              0x0100\n              exp\n              swap1\n              div\n              0xffffffffffffffffffffffffffffffffffffffff\n              and\n              dup2\n              jump\t// out\n                /* \"solidity\\xe9\\xab\\x98\\xe7\\xba\\xa7\\xe5\\xba\\x94\\xe7\\x94\\xa8/\\xe9\\x80\\x9a\\xe8\\xbf\\x87\\xe5\\xad\\x97\\xe8\\x8a\\x82\\xe7\\xa0\\x81\\xe9\\x83\\xa8\\xe7\\xbd\\xb2\\xe4\\xbb\\xbb\\xe6\\x84\\x8f\\xe5\\x90\\x88\\xe7\\xba\\xa6.sol\":973:986  uint public y */\n            tag_19:\n              sload(0x03)\n              dup2\n              jump\t// out\n                /* \"#utility.yul\":7:84   */\n            tag_21:\n                /* \"#utility.yul\":44:51   */\n              0x00\n                /* \"#utility.yul\":73:78   */\n              dup2\n                /* \"#utility.yul\":62:78   */\n              swap1\n              pop\n                /* \"#utility.yul\":7:84   */\n              swap2\n              swap1\n              pop\n              jump\t// out\n                /* \"#utility.yul\":90:208   */\n            tag_22:\n                /* \"#utility.yul\":177:201   */\n              tag_29\n                /* \"#utility.yul\":195:200   */\n              dup2\n                /* \"#utility.yul\":177:201   */\n              tag_21\n              jump\t// in\n            tag_29:\n                /* \"#utility.yul\":172:175   */\n              dup3\n                /* \"#utility.yul\":165:202   */\n              mstore\n                /* \"#utility.yul\":90:208   */\n              pop\n              pop\n              jump\t// out\n                /* \"#utility.yul\":214:436   */\n            tag_10:\n                /* \"#utility.yul\":307:311   */\n              0x00\n                /* \"#utility.yul\":345:347   */\n              0x20\n                /* \"#utility.yul\":334:343   */\n              dup3\n                /* \"#utility.yul\":330:348   */\n              add\n                /* \"#utility.yul\":322:348   */\n              swap1\n              pop\n                /* \"#utility.yul\":358:429   */\n              tag_31\n                /* \"#utility.yul\":426:427   */\n              0x00\n                /* \"#utility.yul\":415:424   */\n              dup4\n                /* \"#utility.yul\":411:428   */\n              add\n                /* \"#utility.yul\":402:408   */\n              dup5\n                /* \"#utility.yul\":358:429   */\n              tag_22\n              jump\t// in\n            tag_31:\n                /* \"#utility.yul\":214:436   */\n              swap3\n              swap2\n              pop\n              pop\n              jump\t// out\n                /* \"#utility.yul\":442:568   */\n            tag_23:\n                /* \"#utility.yul\":479:486   */\n              0x00\n                /* \"#utility.yul\":519:561   */\n              0xffffffffffffffffffffffffffffffffffffffff\n                /* \"#utility.yul\":512:517   */\n              dup3\n                /* \"#utility.yul\":508:562   */\n              and\n                /* \"#utility.yul\":497:562   */\n              swap1\n              pop\n                /* \"#utility.yul\":442:568   */\n              swap2\n              swap1\n              pop\n              jump\t// out\n                /* \"#utility.yul\":574:670   */\n            tag_24:\n                /* \"#utility.yul\":611:618   */\n              0x00\n                /* \"#utility.yul\":640:664   */\n              tag_34\n                /* \"#utility.yul\":658:663   */\n              dup3\n                /* \"#utility.yul\":640:664   */\n              tag_23\n              jump\t// in\n            tag_34:\n                /* \"#utility.yul\":629:664   */\n              swap1\n              pop\n                /* \"#utility.yul\":574:670   */\n              swap2\n              swap1\n              pop\n              jump\t// out\n                /* \"#utility.yul\":676:794   */\n            tag_25:\n                /* \"#utility.yul\":763:787   */\n              tag_36\n                /* \"#utility.yul\":781:786   */\n              dup2\n                /* \"#utility.yul\":763:787   */\n              tag_24\n              jump\t// in\n            tag_36:\n                /* \"#utility.yul\":758:761   */\n              dup3\n                /* \"#utility.yul\":751:788   */\n              mstore\n                /* \"#utility.yul\":676:794   */\n              pop\n              pop\n              jump\t// out\n                /* \"#utility.yul\":800:1022   */\n            tag_17:\n                /* \"#utility.yul\":893:897   */\n              0x00\n                /* \"#utility.yul\":931:933   */\n              0x20\n                /* \"#utility.yul\":920:929   */\n              dup3\n                /* \"#utility.yul\":916:934   */\n              add\n                /* \"#utility.yul\":908:934   */\n              swap1\n              pop\n                /* \"#utility.yul\":944:1015   */\n              tag_38\n                /* \"#utility.yul\":1012:1013   */\n              0x00\n                /* \"#utility.yul\":1001:1010   */\n              dup4\n                /* \"#utility.yul\":997:1014   */\n              add\n                /* \"#utility.yul\":988:994   */\n              dup5\n                /* \"#utility.yul\":944:1015   */\n              tag_25\n              jump\t// in\n            tag_38:\n                /* \"#utility.yul\":800:1022   */\n              swap3\n              swap2\n              pop\n              pop\n              jump\t// out\n\n            auxdata: 0xa26469706673582212200cb393a4de88dfb7859926a8f0b08ac3ac5bed69ffc58fb3638ceb6bb2a6a57264736f6c63430008220033\n        }\n    }\n\n    sub_1: assembly {\n            /* \"solidity\\xe9\\xab\\x98\\xe7\\xba\\xa7\\xe5\\xba\\x94\\xe7\\x94\\xa8/\\xe9\\x80\\x9a\\xe8\\xbf\\x87\\xe5\\xad\\x97\\xe8\\x8a\\x82\\xe7\\xa0\\x81\\xe9\\x83\\xa8\\xe7\\xbd\\xb2\\xe4\\xbb\\xbb\\xe6\\x84\\x8f\\xe5\\x90\\x88\\xe7\\xba\\xa6.sol\":650:847  contract Contract1 {... */\n          mstore(0x40, 0x80)\n            /* \"solidity\\xe9\\xab\\x98\\xe7\\xba\\xa7\\xe5\\xba\\x94\\xe7\\x94\\xa8/\\xe9\\x80\\x9a\\xe8\\xbf\\x87\\xe5\\xad\\x97\\xe8\\x8a\\x82\\xe7\\xa0\\x81\\xe9\\x83\\xa8\\xe7\\xbd\\xb2\\xe4\\xbb\\xbb\\xe6\\x84\\x8f\\xe5\\x90\\x88\\xe7\\xba\\xa6.sol\":700:710  msg.sender */\n          caller\n            /* \"solidity\\xe9\\xab\\x98\\xe7\\xba\\xa7\\xe5\\xba\\x94\\xe7\\x94\\xa8/\\xe9\\x80\\x9a\\xe8\\xbf\\x87\\xe5\\xad\\x97\\xe8\\x8a\\x82\\xe7\\xa0\\x81\\xe9\\x83\\xa8\\xe7\\xbd\\xb2\\xe4\\xbb\\xbb\\xe6\\x84\\x8f\\xe5\\x90\\x88\\xe7\\xba\\xa6.sol\":676:710  address public  owner = msg.sender */\n          0x00\n          exp(0x0100, 0x00)\n          dup2\n          sload\n          dup2\n          0xffffffffffffffffffffffffffffffffffffffff\n          mul\n          not\n          and\n          swap1\n          dup4\n          0xffffffffffffffffffffffffffffffffffffffff\n          and\n          mul\n          or\n          swap1\n          sstore\n          pop\n            /* \"solidity\\xe9\\xab\\x98\\xe7\\xba\\xa7\\xe5\\xba\\x94\\xe7\\x94\\xa8/\\xe9\\x80\\x9a\\xe8\\xbf\\x87\\xe5\\xad\\x97\\xe8\\x8a\\x82\\xe7\\xa0\\x81\\xe9\\x83\\xa8\\xe7\\xbd\\xb2\\xe4\\xbb\\xbb\\xe6\\x84\\x8f\\xe5\\x90\\x88\\xe7\\xba\\xa6.sol\":650:847  contract Contract1 {... */\n          callvalue\n          dup1\n          iszero\n          tag_1\n          jumpi\n          revert(0x00, 0x00)\n        tag_1:\n          pop\n          dataSize(sub_0)\n          dup1\n          dataOffset(sub_0)\n          0x00\n          codecopy\n          0x00\n          return\n        stop\n\n        sub_0: assembly {\n                /* \"solidity\\xe9\\xab\\x98\\xe7\\xba\\xa7\\xe5\\xba\\x94\\xe7\\x94\\xa8/\\xe9\\x80\\x9a\\xe8\\xbf\\x87\\xe5\\xad\\x97\\xe8\\x8a\\x82\\xe7\\xa0\\x81\\xe9\\x83\\xa8\\xe7\\xbd\\xb2\\xe4\\xbb\\xbb\\xe6\\x84\\x8f\\xe5\\x90\\x88\\xe7\\xba\\xa6.sol\":650:847  contract Contract1 {... */\n              mstore(0x40, 0x80)\n              callvalue\n              dup1\n              iszero\n              tag_1\n              jumpi\n              revert(0x00, 0x00)\n            tag_1:\n              pop\n              jumpi(tag_2, lt(calldatasize, 0x04))\n              shr(0xe0, calldataload(0x00))\n              dup1\n              0x13af4035\n              eq\n              tag_3\n              jumpi\n              dup1\n              0x8da5cb5b\n              eq\n              tag_4\n              jumpi\n            tag_2:\n              revert(0x00, 0x00)\n                /* \"solidity\\xe9\\xab\\x98\\xe7\\xba\\xa7\\xe5\\xba\\x94\\xe7\\x94\\xa8/\\xe9\\x80\\x9a\\xe8\\xbf\\x87\\xe5\\xad\\x97\\xe8\\x8a\\x82\\xe7\\xa0\\x81\\xe9\\x83\\xa8\\xe7\\xbd\\xb2\\xe4\\xbb\\xbb\\xe6\\x84\\x8f\\xe5\\x90\\x88\\xe7\\xba\\xa6.sol\":717:844  function setOwner(address _owner) external {... */\n            tag_3:\n              tag_5\n              0x04\n              dup1\n              calldatasize\n              sub\n              dup2\n              add\n              swap1\n              tag_6\n              swap2\n              swap1\n              tag_7\n              jump\t// in\n            tag_6:\n              tag_8\n              jump\t// in\n            tag_5:\n              stop\n                /* \"solidity\\xe9\\xab\\x98\\xe7\\xba\\xa7\\xe5\\xba\\x94\\xe7\\x94\\xa8/\\xe9\\x80\\x9a\\xe8\\xbf\\x87\\xe5\\xad\\x97\\xe8\\x8a\\x82\\xe7\\xa0\\x81\\xe9\\x83\\xa8\\xe7\\xbd\\xb2\\xe4\\xbb\\xbb\\xe6\\x84\\x8f\\xe5\\x90\\x88\\xe7\\xba\\xa6.sol\":676:710  address public  owner = msg.sender */\n            tag_4:\n              tag_9\n              tag_10\n              jump\t// in\n            tag_9:\n              mload(0x40)\n              tag_11\n              swap2\n              swap1\n              tag_12\n              jump\t// in\n            tag_11:\n              mload(0x40)\n              dup1\n              swap2\n              sub\n              swap1\n              return\n                /* \"solidity\\xe9\\xab\\x98\\xe7\\xba\\xa7\\xe5\\xba\\x94\\xe7\\x94\\xa8/\\xe9\\x80\\x9a\\xe8\\xbf\\x87\\xe5\\xad\\x97\\xe8\\x8a\\x82\\xe7\\xa0\\x81\\xe9\\x83\\xa8\\xe7\\xbd\\xb2\\xe4\\xbb\\xbb\\xe6\\x84\\x8f\\xe5\\x90\\x88\\xe7\\xba\\xa6.sol\":717:844  function setOwner(address _owner) external {... */\n            tag_8:\n                /* \"solidity\\xe9\\xab\\x98\\xe7\\xba\\xa7\\xe5\\xba\\x94\\xe7\\x94\\xa8/\\xe9\\x80\\x9a\\xe8\\xbf\\x87\\xe5\\xad\\x97\\xe8\\x8a\\x82\\xe7\\xa0\\x81\\xe9\\x83\\xa8\\xe7\\xbd\\xb2\\xe4\\xbb\\xbb\\xe6\\x84\\x8f\\xe5\\x90\\x88\\xe7\\xba\\xa6.sol\":793:798  owner */\n              0x00\n              0x00\n              swap1\n              sload\n              swap1\n              0x0100\n              exp\n              swap1\n              div\n              0xffffffffffffffffffffffffffffffffffffffff\n              and\n                /* \"solidity\\xe9\\xab\\x98\\xe7\\xba\\xa7\\xe5\\xba\\x94\\xe7\\x94\\xa8/\\xe9\\x80\\x9a\\xe8\\xbf\\x87\\xe5\\xad\\x97\\xe8\\x8a\\x82\\xe7\\xa0\\x81\\xe9\\x83\\xa8\\xe7\\xbd\\xb2\\xe4\\xbb\\xbb\\xe6\\x84\\x8f\\xe5\\x90\\x88\\xe7\\xba\\xa6.sol\":779:798  msg.sender == owner */\n              0xffffffffffffffffffffffffffffffffffffffff\n              and\n                /* \"solidity\\xe9\\xab\\x98\\xe7\\xba\\xa7\\xe5\\xba\\x94\\xe7\\x94\\xa8/\\xe9\\x80\\x9a\\xe8\\xbf\\x87\\xe5\\xad\\x97\\xe8\\x8a\\x82\\xe7\\xa0\\x81\\xe9\\x83\\xa8\\xe7\\xbd\\xb2\\xe4\\xbb\\xbb\\xe6\\x84\\x8f\\xe5\\x90\\x88\\xe7\\xba\\xa6.sol\":779:789  msg.sender */\n              caller\n                /* \"solidity\\xe9\\xab\\x98\\xe7\\xba\\xa7\\xe5\\xba\\x94\\xe7\\x94\\xa8/\\xe9\\x80\\x9a\\xe8\\xbf\\x87\\xe5\\xad\\x97\\xe8\\x8a\\x82\\xe7\\xa0\\x81\\xe9\\x83\\xa8\\xe7\\xbd\\xb2\\xe4\\xbb\\xbb\\xe6\\x84\\x8f\\xe5\\x90\\x88\\xe7\\xba\\xa6.sol\":779:798  msg.sender == owner */\n              0xffffffffffffffffffffffffffffffffffffffff\n              and\n              eq\n                /* \"solidity\\xe9\\xab\\x98\\xe7\\xba\\xa7\\xe5\\xba\\x94\\xe7\\x94\\xa8/\\xe9\\x80\\x9a\\xe8\\xbf\\x87\\xe5\\xad\\x97\\xe8\\x8a\\x82\\xe7\\xa0\\x81\\xe9\\x83\\xa8\\xe7\\xbd\\xb2\\xe4\\xbb\\xbb\\xe6\\x84\\x8f\\xe5\\x90\\x88\\xe7\\xba\\xa6.sol\":771:811  require(msg.sender == owner,\"not owner\") */\n              tag_14\n              jumpi\n              mload(0x40)\n              0x08c379a000000000000000000000000000000000000000000000000000000000\n              dup2\n              mstore\n              0x04\n              add\n              tag_15\n              swap1\n              tag_16\n              jump\t// in\n            tag_15:\n              mload(0x40)\n              dup1\n              swap2\n              sub\n              swap1\n              revert\n            tag_14:\n                /* \"solidity\\xe9\\xab\\x98\\xe7\\xba\\xa7\\xe5\\xba\\x94\\xe7\\x94\\xa8/\\xe9\\x80\\x9a\\xe8\\xbf\\x87\\xe5\\xad\\x97\\xe8\\x8a\\x82\\xe7\\xa0\\x81\\xe9\\x83\\xa8\\xe7\\xbd\\xb2\\xe4\\xbb\\xbb\\xe6\\x84\\x8f\\xe5\\x90\\x88\\xe7\\xba\\xa6.sol\":830:836  _owner */\n              dup1\n                /* \"solidity\\xe9\\xab\\x98\\xe7\\xba\\xa7\\xe5\\xba\\x94\\xe7\\x94\\xa8/\\xe9\\x80\\x9a\\xe8\\xbf\\x87\\xe5\\xad\\x97\\xe8\\x8a\\x82\\xe7\\xa0\\x81\\xe9\\x83\\xa8\\xe7\\xbd\\xb2\\xe4\\xbb\\xbb\\xe6\\x84\\x8f\\xe5\\x90\\x88\\xe7\\xba\\xa6.sol\":822:827  owner */\n              0x00\n              0x00\n                /* \"solidity\\xe9\\xab\\x98\\xe7\\xba\\xa7\\xe5\\xba\\x94\\xe7\\x94\\xa8/\\xe9\\x80\\x9a\\xe8\\xbf\\x87\\xe5\\xad\\x97\\xe8\\x8a\\x82\\xe7\\xa0\\x81\\xe9\\x83\\xa8\\xe7\\xbd\\xb2\\xe4\\xbb\\xbb\\xe6\\x84\\x8f\\xe5\\x90\\x88\\xe7\\xba\\xa6.sol\":822:836  owner = _owner */\n              0x0100\n              exp\n              dup2\n              sload\n              dup2\n              0xffffffffffffffffffffffffffffffffffffffff\n              mul\n              not\n              and\n              swap1\n              dup4\n              0xffffffffffffffffffffffffffffffffffffffff\n              and\n              mul\n              or\n              swap1\n              sstore\n              pop\n                /* \"solidity\\xe9\\xab\\x98\\xe7\\xba\\xa7\\xe5\\xba\\x94\\xe7\\x94\\xa8/\\xe9\\x80\\x9a\\xe8\\xbf\\x87\\xe5\\xad\\x97\\xe8\\x8a\\x82\\xe7\\xa0\\x81\\xe9\\x83\\xa8\\xe7\\xbd\\xb2\\xe4\\xbb\\xbb\\xe6\\x84\\x8f\\xe5\\x90\\x88\\xe7\\xba\\xa6.sol\":717:844  function setOwner(address _owner) external {... */\n              pop\n              jump\t// out\n                /* \"solidity\\xe9\\xab\\x98\\xe7\\xba\\xa7\\xe5\\xba\\x94\\xe7\\x94\\xa8/\\xe9\\x80\\x9a\\xe8\\xbf\\x87\\xe5\\xad\\x97\\xe8\\x8a\\x82\\xe7\\xa0\\x81\\xe9\\x83\\xa8\\xe7\\xbd\\xb2\\xe4\\xbb\\xbb\\xe6\\x84\\x8f\\xe5\\x90\\x88\\xe7\\xba\\xa6.sol\":676:710  address public  owner = msg.sender */\n            tag_10:\n              0x00\n              0x00\n              swap1\n              sload\n              swap1\n              0x0100\n              exp\n              swap1\n              div\n              0xffffffffffffffffffffffffffffffffffffffff\n              and\n              dup2\n              jump\t// out\n                /* \"#utility.yul\":88:205   */\n            tag_18:\n                /* \"#utility.yul\":197:198   */\n              0x00\n                /* \"#utility.yul\":194:195   */\n              0x00\n                /* \"#utility.yul\":187:199   */\n              revert\n                /* \"#utility.yul\":334:460   */\n            tag_20:\n                /* \"#utility.yul\":371:378   */\n              0x00\n                /* \"#utility.yul\":411:453   */\n              0xffffffffffffffffffffffffffffffffffffffff\n                /* \"#utility.yul\":404:409   */\n              dup3\n                /* \"#utility.yul\":400:454   */\n              and\n                /* \"#utility.yul\":389:454   */\n              swap1\n              pop\n                /* \"#utility.yul\":334:460   */\n              swap2\n              swap1\n              pop\n              jump\t// out\n                /* \"#utility.yul\":466:562   */\n            tag_21:\n                /* \"#utility.yul\":503:510   */\n              0x00\n                /* \"#utility.yul\":532:556   */\n              tag_34\n                /* \"#utility.yul\":550:555   */\n              dup3\n                /* \"#utility.yul\":532:556   */\n              tag_20\n              jump\t// in\n            tag_34:\n                /* \"#utility.yul\":521:556   */\n              swap1\n              pop\n                /* \"#utility.yul\":466:562   */\n              swap2\n              swap1\n              pop\n              jump\t// out\n                /* \"#utility.yul\":568:690   */\n            tag_22:\n                /* \"#utility.yul\":641:665   */\n              tag_36\n                /* \"#utility.yul\":659:664   */\n              dup2\n                /* \"#utility.yul\":641:665   */\n              tag_21\n              jump\t// in\n            tag_36:\n                /* \"#utility.yul\":634:639   */\n              dup2\n                /* \"#utility.yul\":631:666   */\n              eq\n                /* \"#utility.yul\":621:684   */\n              tag_37\n              jumpi\n                /* \"#utility.yul\":680:681   */\n              0x00\n                /* \"#utility.yul\":677:678   */\n              0x00\n                /* \"#utility.yul\":670:682   */\n              revert\n                /* \"#utility.yul\":621:684   */\n            tag_37:\n                /* \"#utility.yul\":568:690   */\n              pop\n              jump\t// out\n                /* \"#utility.yul\":696:835   */\n            tag_23:\n                /* \"#utility.yul\":742:747   */\n              0x00\n                /* \"#utility.yul\":780:786   */\n              dup2\n                /* \"#utility.yul\":767:787   */\n              calldataload\n                /* \"#utility.yul\":758:787   */\n              swap1\n              pop\n                /* \"#utility.yul\":796:829   */\n              tag_39\n                /* \"#utility.yul\":823:828   */\n              dup2\n                /* \"#utility.yul\":796:829   */\n              tag_22\n              jump\t// in\n            tag_39:\n                /* \"#utility.yul\":696:835   */\n              swap3\n              swap2\n              pop\n              pop\n              jump\t// out\n                /* \"#utility.yul\":841:1170   */\n            tag_7:\n                /* \"#utility.yul\":900:906   */\n              0x00\n                /* \"#utility.yul\":949:951   */\n              0x20\n                /* \"#utility.yul\":937:946   */\n              dup3\n                /* \"#utility.yul\":928:935   */\n              dup5\n                /* \"#utility.yul\":924:947   */\n              sub\n                /* \"#utility.yul\":920:952   */\n              slt\n                /* \"#utility.yul\":917:1036   */\n              iszero\n              tag_41\n              jumpi\n                /* \"#utility.yul\":955:1034   */\n              tag_42\n              tag_18\n              jump\t// in\n            tag_42:\n                /* \"#utility.yul\":917:1036   */\n            tag_41:\n                /* \"#utility.yul\":1075:1076   */\n              0x00\n                /* \"#utility.yul\":1100:1153   */\n              tag_43\n                /* \"#utility.yul\":1145:1152   */\n              dup5\n                /* \"#utility.yul\":1136:1142   */\n              dup3\n                /* \"#utility.yul\":1125:1134   */\n              dup6\n                /* \"#utility.yul\":1121:1143   */\n              add\n                /* \"#utility.yul\":1100:1153   */\n              tag_23\n              jump\t// in\n            tag_43:\n                /* \"#utility.yul\":1090:1153   */\n              swap2\n              pop\n                /* \"#utility.yul\":1046:1163   */\n              pop\n                /* \"#utility.yul\":841:1170   */\n              swap3\n              swap2\n              pop\n              pop\n              jump\t// out\n                /* \"#utility.yul\":1176:1294   */\n            tag_24:\n                /* \"#utility.yul\":1263:1287   */\n              tag_45\n                /* \"#utility.yul\":1281:1286   */\n              dup2\n                /* \"#utility.yul\":1263:1287   */\n              tag_21\n              jump\t// in\n            tag_45:\n                /* \"#utility.yul\":1258:1261   */\n              dup3\n                /* \"#utility.yul\":1251:1288   */\n              mstore\n                /* \"#utility.yul\":1176:1294   */\n              pop\n              pop\n              jump\t// out\n                /* \"#utility.yul\":1300:1522   */\n            tag_12:\n                /* \"#utility.yul\":1393:1397   */\n              0x00\n                /* \"#utility.yul\":1431:1433   */\n              0x20\n                /* \"#utility.yul\":1420:1429   */\n              dup3\n                /* \"#utility.yul\":1416:1434   */\n              add\n                /* \"#utility.yul\":1408:1434   */\n              swap1\n              pop\n                /* \"#utility.yul\":1444:1515   */\n              tag_47\n                /* \"#utility.yul\":1512:1513   */\n              0x00\n                /* \"#utility.yul\":1501:1510   */\n              dup4\n                /* \"#utility.yul\":1497:1514   */\n              add\n                /* \"#utility.yul\":1488:1494   */\n              dup5\n                /* \"#utility.yul\":1444:1515   */\n              tag_24\n              jump\t// in\n            tag_47:\n                /* \"#utility.yul\":1300:1522   */\n              swap3\n              swap2\n              pop\n              pop\n              jump\t// out\n                /* \"#utility.yul\":1528:1697   */\n            tag_25:\n                /* \"#utility.yul\":1612:1623   */\n              0x00\n                /* \"#utility.yul\":1646:1652   */\n              dup3\n                /* \"#utility.yul\":1641:1644   */\n              dup3\n                /* \"#utility.yul\":1634:1653   */\n              mstore\n                /* \"#utility.yul\":1686:1690   */\n              0x20\n                /* \"#utility.yul\":1681:1684   */\n              dup3\n                /* \"#utility.yul\":1677:1691   */\n              add\n                /* \"#utility.yul\":1662:1691   */\n              swap1\n              pop\n                /* \"#utility.yul\":1528:1697   */\n              swap3\n              swap2\n              pop\n              pop\n              jump\t// out\n                /* \"#utility.yul\":1703:1862   */\n            tag_26:\n                /* \"#utility.yul\":1843:1854   */\n              0x6e6f74206f776e65720000000000000000000000000000000000000000000000\n                /* \"#utility.yul\":1839:1840   */\n              0x00\n                /* \"#utility.yul\":1831:1837   */\n              dup3\n                /* \"#utility.yul\":1827:1841   */\n              add\n                /* \"#utility.yul\":1820:1855   */\n              mstore\n                /* \"#utility.yul\":1703:1862   */\n              pop\n              jump\t// out\n                /* \"#utility.yul\":1868:2233   */\n            tag_27:\n                /* \"#utility.yul\":2010:2013   */\n              0x00\n                /* \"#utility.yul\":2031:2097   */\n              tag_51\n                /* \"#utility.yul\":2095:2096   */\n              0x09\n                /* \"#utility.yul\":2090:2093   */\n              dup4\n                /* \"#utility.yul\":2031:2097   */\n              tag_25\n              jump\t// in\n            tag_51:\n                /* \"#utility.yul\":2024:2097   */\n              swap2\n              pop\n                /* \"#utility.yul\":2106:2199   */\n              tag_52\n                /* \"#utility.yul\":2195:2198   */\n              dup3\n                /* \"#utility.yul\":2106:2199   */\n              tag_26\n              jump\t// in\n            tag_52:\n                /* \"#utility.yul\":2224:2226   */\n              0x20\n                /* \"#utility.yul\":2219:2222   */\n              dup3\n                /* \"#utility.yul\":2215:2227   */\n              add\n                /* \"#utility.yul\":2208:2227   */\n              swap1\n              pop\n                /* \"#utility.yul\":1868:2233   */\n              swap2\n              swap1\n              pop\n              jump\t// out\n                /* \"#utility.yul\":2239:2658   */\n            tag_16:\n                /* \"#utility.yul\":2405:2409   */\n              0x00\n                /* \"#utility.yul\":2443:2445   */\n              0x20\n                /* \"#utility.yul\":2432:2441   */\n              dup3\n                /* \"#utility.yul\":2428:2446   */\n              add\n                /* \"#utility.yul\":2420:2446   */\n              swap1\n              pop\n                /* \"#utility.yul\":2492:2501   */\n              dup2\n                /* \"#utility.yul\":2486:2490   */\n              dup2\n                /* \"#utility.yul\":2482:2502   */\n              sub\n                /* \"#utility.yul\":2478:2479   */\n              0x00\n                /* \"#utility.yul\":2467:2476   */\n              dup4\n                /* \"#utility.yul\":2463:2480   */\n              add\n                /* \"#utility.yul\":2456:2503   */\n              mstore\n                /* \"#utility.yul\":2520:2651   */\n              tag_54\n                /* \"#utility.yul\":2646:2650   */\n              dup2\n                /* \"#utility.yul\":2520:2651   */\n              tag_27\n              jump\t// in\n            tag_54:\n                /* \"#utility.yul\":2512:2651   */\n              swap1\n              pop\n                /* \"#utility.yul\":2239:2658   */\n              swap2\n              swap1\n              pop\n              jump\t// out\n\n            auxdata: 0xa264697066735822122033102e076449b6cf92a7a13cf614b76a87d099586dea4806044cea5b1863ae6764736f6c63430008220033\n        }\n    }\n\n    auxdata: 0xa2646970667358221220cbaa3ad1ad351fc5c018494775a0343cf6dde7ec2c35d801f97f781d55517ea664736f6c63430008220033\n}\n",
				"bytecode": {
					"linkReferences": {},
					"object": "6080604052348015600e575f5ffd5b50610a678061001c5f395ff3fe608060405234801561000f575f5ffd5b506004361061003f575f3560e01c806345fb27cd14610043578063643abff914610073578063e68f92f1146100a3575b5f5ffd5b61005d60048036038101906100589190610249565b6100c1565b60405161006a91906102f7565b60405180910390f35b61008d60048036038101906100889190610371565b610136565b60405161009a91906102f7565b60405180910390f35b6100ab6101cd565b6040516100b891906102f7565b60405180910390f35b60605f604051806020016100d4906101f8565b6020820181038252601f19601f8201166040525090508084846040516020016100fe9291906103ab565b60405160208183030381529060405260405160200161011e92919061040c565b60405160208183030381529060405291505092915050565b606081604051602401610149919061043e565b6040516020818303038152906040527f13af4035000000000000000000000000000000000000000000000000000000007bffffffffffffffffffffffffffffffffffffffffffffffffffffffff19166020820180517bffffffffffffffffffffffffffffffffffffffffffffffffffffffff83818316178352505050509050919050565b6060604051806020016101df90610205565b6020820181038252601f19601f82011660405250905090565b6102ba8061045883390190565b6103208061071283390190565b5f5ffd5b5f819050919050565b61022881610216565b8114610232575f5ffd5b50565b5f813590506102438161021f565b92915050565b5f5f6040838503121561025f5761025e610212565b5b5f61026c85828601610235565b925050602061027d85828601610235565b9150509250929050565b5f81519050919050565b5f82825260208201905092915050565b8281835e5f83830152505050565b5f601f19601f8301169050919050565b5f6102c982610287565b6102d38185610291565b93506102e38185602086016102a1565b6102ec816102af565b840191505092915050565b5f6020820190508181035f83015261030f81846102bf565b905092915050565b5f73ffffffffffffffffffffffffffffffffffffffff82169050919050565b5f61034082610317565b9050919050565b61035081610336565b811461035a575f5ffd5b50565b5f8135905061036b81610347565b92915050565b5f6020828403121561038657610385610212565b5b5f6103938482850161035d565b91505092915050565b6103a581610216565b82525050565b5f6040820190506103be5f83018561039c565b6103cb602083018461039c565b9392505050565b5f81905092915050565b5f6103e682610287565b6103f081856103d2565b93506104008185602086016102a1565b80840191505092915050565b5f61041782856103dc565b915061042382846103dc565b91508190509392505050565b61043881610336565b82525050565b5f6020820190506104515f83018461042f565b9291505056fe6080604052335f5f6101000a81548173ffffffffffffffffffffffffffffffffffffffff021916908373ffffffffffffffffffffffffffffffffffffffff160217905550346001556040516102ba3803806102ba833981810160405281019061006891906100b4565b816002819055508060038190555050506100f2565b5f5ffd5b5f819050919050565b61009381610081565b811461009d575f5ffd5b50565b5f815190506100ae8161008a565b92915050565b5f5f604083850312156100ca576100c961007d565b5b5f6100d7858286016100a0565b92505060206100e8858286016100a0565b9150509250929050565b6101bb806100ff5f395ff3fe608060405234801561000f575f5ffd5b506004361061004a575f3560e01c80630c55699c1461004e5780633fa4f2451461006c5780638da5cb5b1461008a578063a56dfe4a146100a8575b5f5ffd5b6100566100c6565b6040516100639190610114565b60405180910390f35b6100746100cc565b6040516100819190610114565b60405180910390f35b6100926100d2565b60405161009f919061016c565b60405180910390f35b6100b06100f6565b6040516100bd9190610114565b60405180910390f35b60025481565b60015481565b5f5f9054906101000a900473ffffffffffffffffffffffffffffffffffffffff1681565b60035481565b5f819050919050565b61010e816100fc565b82525050565b5f6020820190506101275f830184610105565b92915050565b5f73ffffffffffffffffffffffffffffffffffffffff82169050919050565b5f6101568261012d565b9050919050565b6101668161014c565b82525050565b5f60208201905061017f5f83018461015d565b9291505056fea26469706673582212200cb393a4de88dfb7859926a8f0b08ac3ac5bed69ffc58fb3638ceb6bb2a6a57264736f6c634300082200336080604052335f5f6101000a81548173ffffffffffffffffffffffffffffffffffffffff021916908373ffffffffffffffffffffffffffffffffffffffff160217905550348015604d575f5ffd5b506102c58061005b5f395ff3fe608060405234801561000f575f5ffd5b5060043610610034575f3560e01c806313af4035146100385780638da5cb5b14610054575b5f5ffd5b610052600480360381019061004d91906101c4565b610072565b005b61005c610142565b60405161006991906101fe565b60405180910390f35b5f5f9054906101000a900473ffffffffffffffffffffffffffffffffffffffff1673ffffffffffffffffffffffffffffffffffffffff163373ffffffffffffffffffffffffffffffffffffffff1614610100576040517f08c379a00000000000000000000000000000000000000000000000000000000081526004016100f790610271565b60405180910390fd5b805f5f6101000a81548173ffffffffffffffffffffffffffffffffffffffff021916908373ffffffffffffffffffffffffffffffffffffffff16021790555050565b5f5f9054906101000a900473ffffffffffffffffffffffffffffffffffffffff1681565b5f5ffd5b5f73ffffffffffffffffffffffffffffffffffffffff82169050919050565b5f6101938261016a565b9050919050565b6101a381610189565b81146101ad575f5ffd5b50565b5f813590506101be8161019a565b92915050565b5f602082840312156101d9576101d8610166565b5b5f6101e6848285016101b0565b91505092915050565b6101f881610189565b82525050565b5f6020820190506102115f8301846101ef565b92915050565b5f82825260208201905092915050565b7f6e6f74206f776e657200000000000000000000000000000000000000000000005f82015250565b5f61025b600983610217565b915061026682610227565b602082019050919050565b5f6020820190508181035f8301526102888161024f565b905091905056fea264697066735822122033102e076449b6cf92a7a13cf614b76a87d099586dea4806044cea5b1863ae6764736f6c63430008220033a2646970667358221220cbaa3ad1ad351fc5c018494775a0343cf6dde7ec2c35d801f97f781d55517ea664736f6c63430008220033",
					"opcodes": "PUSH1 0x80 PUSH1 0x40 MSTORE CALLVALUE DUP1 ISZERO PUSH1 0xE JUMPI PUSH0 PUSH0 REVERT JUMPDEST POP PUSH2 0xA67 DUP1 PUSH2 0x1C PUSH0 CODECOPY PUSH0 RETURN INVALID PUSH1 0x80 PUSH1 0x40 MSTORE CALLVALUE DUP1 ISZERO PUSH2 0xF JUMPI PUSH0 PUSH0 REVERT JUMPDEST POP PUSH1 0x4 CALLDATASIZE LT PUSH2 0x3F JUMPI PUSH0 CALLDATALOAD PUSH1 0xE0 SHR DUP1 PUSH4 0x45FB27CD EQ PUSH2 0x43 JUMPI DUP1 PUSH4 0x643ABFF9 EQ PUSH2 0x73 JUMPI DUP1 PUSH4 0xE68F92F1 EQ PUSH2 0xA3 JUMPI JUMPDEST PUSH0 PUSH0 REVERT JUMPDEST PUSH2 0x5D PUSH1 0x4 DUP1 CALLDATASIZE SUB DUP2 ADD SWAP1 PUSH2 0x58 SWAP2 SWAP1 PUSH2 0x249 JUMP JUMPDEST PUSH2 0xC1 JUMP JUMPDEST PUSH1 0x40 MLOAD PUSH2 0x6A SWAP2 SWAP1 PUSH2 0x2F7 JUMP JUMPDEST PUSH1 0x40 MLOAD DUP1 SWAP2 SUB SWAP1 RETURN JUMPDEST PUSH2 0x8D PUSH1 0x4 DUP1 CALLDATASIZE SUB DUP2 ADD SWAP1 PUSH2 0x88 SWAP2 SWAP1 PUSH2 0x371 JUMP JUMPDEST PUSH2 0x136 JUMP JUMPDEST PUSH1 0x40 MLOAD PUSH2 0x9A SWAP2 SWAP1 PUSH2 0x2F7 JUMP JUMPDEST PUSH1 0x40 MLOAD DUP1 SWAP2 SUB SWAP1 RETURN JUMPDEST PUSH2 0xAB PUSH2 0x1CD JUMP JUMPDEST PUSH1 0x40 MLOAD PUSH2 0xB8 SWAP2 SWAP1 PUSH2 0x2F7 JUMP JUMPDEST PUSH1 0x40 MLOAD DUP1 SWAP2 SUB SWAP1 RETURN JUMPDEST PUSH1 0x60 PUSH0 PUSH1 0x40 MLOAD DUP1 PUSH1 0x20 ADD PUSH2 0xD4 SWAP1 PUSH2 0x1F8 JUMP JUMPDEST PUSH1 0x20 DUP3 ADD DUP2 SUB DUP3 MSTORE PUSH1 0x1F NOT PUSH1 0x1F DUP3 ADD AND PUSH1 0x40 MSTORE POP SWAP1 POP DUP1 DUP5 DUP5 PUSH1 0x40 MLOAD PUSH1 0x20 ADD PUSH2 0xFE SWAP3 SWAP2 SWAP1 PUSH2 0x3AB JUMP JUMPDEST PUSH1 0x40 MLOAD PUSH1 0x20 DUP2 DUP4 SUB SUB DUP2 MSTORE SWAP1 PUSH1 0x40 MSTORE PUSH1 0x40 MLOAD PUSH1 0x20 ADD PUSH2 0x11E SWAP3 SWAP2 SWAP1 PUSH2 0x40C JUMP JUMPDEST PUSH1 0x40 MLOAD PUSH1 0x20 DUP2 DUP4 SUB SUB DUP2 MSTORE SWAP1 PUSH1 0x40 MSTORE SWAP2 POP POP SWAP3 SWAP2 POP POP JUMP JUMPDEST PUSH1 0x60 DUP2 PUSH1 0x40 MLOAD PUSH1 0x24 ADD PUSH2 0x149 SWAP2 SWAP1 PUSH2 0x43E JUMP JUMPDEST PUSH1 0x40 MLOAD PUSH1 0x20 DUP2 DUP4 SUB SUB DUP2 MSTORE SWAP1 PUSH1 0x40 MSTORE PUSH32 0x13AF403500000000000000000000000000000000000000000000000000000000 PUSH28 0xFFFFFFFFFFFFFFFFFFFFFFFFFFFFFFFFFFFFFFFFFFFFFFFFFFFFFFFF NOT AND PUSH1 0x20 DUP3 ADD DUP1 MLOAD PUSH28 0xFFFFFFFFFFFFFFFFFFFFFFFFFFFFFFFFFFFFFFFFFFFFFFFFFFFFFFFF DUP4 DUP2 DUP4 AND OR DUP4 MSTORE POP POP POP POP SWAP1 POP SWAP2 SWAP1 POP JUMP JUMPDEST PUSH1 0x60 PUSH1 0x40 MLOAD DUP1 PUSH1 0x20 ADD PUSH2 0x1DF SWAP1 PUSH2 0x205 JUMP JUMPDEST PUSH1 0x20 DUP3 ADD DUP2 SUB DUP3 MSTORE PUSH1 0x1F NOT PUSH1 0x1F DUP3 ADD AND PUSH1 0x40 MSTORE POP SWAP1 POP SWAP1 JUMP JUMPDEST PUSH2 0x2BA DUP1 PUSH2 0x458 DUP4 CODECOPY ADD SWAP1 JUMP JUMPDEST PUSH2 0x320 DUP1 PUSH2 0x712 DUP4 CODECOPY ADD SWAP1 JUMP JUMPDEST PUSH0 PUSH0 REVERT JUMPDEST PUSH0 DUP2 SWAP1 POP SWAP2 SWAP1 POP JUMP JUMPDEST PUSH2 0x228 DUP2 PUSH2 0x216 JUMP JUMPDEST DUP2 EQ PUSH2 0x232 JUMPI PUSH0 PUSH0 REVERT JUMPDEST POP JUMP JUMPDEST PUSH0 DUP2 CALLDATALOAD SWAP1 POP PUSH2 0x243 DUP2 PUSH2 0x21F JUMP JUMPDEST SWAP3 SWAP2 POP POP JUMP JUMPDEST PUSH0 PUSH0 PUSH1 0x40 DUP4 DUP6 SUB SLT ISZERO PUSH2 0x25F JUMPI PUSH2 0x25E PUSH2 0x212 JUMP JUMPDEST JUMPDEST PUSH0 PUSH2 0x26C DUP6 DUP3 DUP7 ADD PUSH2 0x235 JUMP JUMPDEST SWAP3 POP POP PUSH1 0x20 PUSH2 0x27D DUP6 DUP3 DUP7 ADD PUSH2 0x235 JUMP JUMPDEST SWAP2 POP POP SWAP3 POP SWAP3 SWAP1 POP JUMP JUMPDEST PUSH0 DUP2 MLOAD SWAP1 POP SWAP2 SWAP1 POP JUMP JUMPDEST PUSH0 DUP3 DUP3 MSTORE PUSH1 0x20 DUP3 ADD SWAP1 POP SWAP3 SWAP2 POP POP JUMP JUMPDEST DUP3 DUP2 DUP4 MCOPY PUSH0 DUP4 DUP4 ADD MSTORE POP POP POP JUMP JUMPDEST PUSH0 PUSH1 0x1F NOT PUSH1 0x1F DUP4 ADD AND SWAP1 POP SWAP2 SWAP1 POP JUMP JUMPDEST PUSH0 PUSH2 0x2C9 DUP3 PUSH2 0x287 JUMP JUMPDEST PUSH2 0x2D3 DUP2 DUP6 PUSH2 0x291 JUMP JUMPDEST SWAP4 POP PUSH2 0x2E3 DUP2 DUP6 PUSH1 0x20 DUP7 ADD PUSH2 0x2A1 JUMP JUMPDEST PUSH2 0x2EC DUP2 PUSH2 0x2AF JUMP JUMPDEST DUP5 ADD SWAP2 POP POP SWAP3 SWAP2 POP POP JUMP JUMPDEST PUSH0 PUSH1 0x20 DUP3 ADD SWAP1 POP DUP2 DUP2 SUB PUSH0 DUP4 ADD MSTORE PUSH2 0x30F DUP2 DUP5 PUSH2 0x2BF JUMP JUMPDEST SWAP1 POP SWAP3 SWAP2 POP POP JUMP JUMPDEST PUSH0 PUSH20 0xFFFFFFFFFFFFFFFFFFFFFFFFFFFFFFFFFFFFFFFF DUP3 AND SWAP1 POP SWAP2 SWAP1 POP JUMP JUMPDEST PUSH0 PUSH2 0x340 DUP3 PUSH2 0x317 JUMP JUMPDEST SWAP1 POP SWAP2 SWAP1 POP JUMP JUMPDEST PUSH2 0x350 DUP2 PUSH2 0x336 JUMP JUMPDEST DUP2 EQ PUSH2 0x35A JUMPI PUSH0 PUSH0 REVERT JUMPDEST POP JUMP JUMPDEST PUSH0 DUP2 CALLDATALOAD SWAP1 POP PUSH2 0x36B DUP2 PUSH2 0x347 JUMP JUMPDEST SWAP3 SWAP2 POP POP JUMP JUMPDEST PUSH0 PUSH1 0x20 DUP3 DUP5 SUB SLT ISZERO PUSH2 0x386 JUMPI PUSH2 0x385 PUSH2 0x212 JUMP JUMPDEST JUMPDEST PUSH0 PUSH2 0x393 DUP5 DUP3 DUP6 ADD PUSH2 0x35D JUMP JUMPDEST SWAP2 POP POP SWAP3 SWAP2 POP POP JUMP JUMPDEST PUSH2 0x3A5 DUP2 PUSH2 0x216 JUMP JUMPDEST DUP3 MSTORE POP POP JUMP JUMPDEST PUSH0 PUSH1 0x40 DUP3 ADD SWAP1 POP PUSH2 0x3BE PUSH0 DUP4 ADD DUP6 PUSH2 0x39C JUMP JUMPDEST PUSH2 0x3CB PUSH1 0x20 DUP4 ADD DUP5 PUSH2 0x39C JUMP JUMPDEST SWAP4 SWAP3 POP POP POP JUMP JUMPDEST PUSH0 DUP2 SWAP1 POP SWAP3 SWAP2 POP POP JUMP JUMPDEST PUSH0 PUSH2 0x3E6 DUP3 PUSH2 0x287 JUMP JUMPDEST PUSH2 0x3F0 DUP2 DUP6 PUSH2 0x3D2 JUMP JUMPDEST SWAP4 POP PUSH2 0x400 DUP2 DUP6 PUSH1 0x20 DUP7 ADD PUSH2 0x2A1 JUMP JUMPDEST DUP1 DUP5 ADD SWAP2 POP POP SWAP3 SWAP2 POP POP JUMP JUMPDEST PUSH0 PUSH2 0x417 DUP3 DUP6 PUSH2 0x3DC JUMP JUMPDEST SWAP2 POP PUSH2 0x423 DUP3 DUP5 PUSH2 0x3DC JUMP JUMPDEST SWAP2 POP DUP2 SWAP1 POP SWAP4 SWAP3 POP POP POP JUMP JUMPDEST PUSH2 0x438 DUP2 PUSH2 0x336 JUMP JUMPDEST DUP3 MSTORE POP POP JUMP JUMPDEST PUSH0 PUSH1 0x20 DUP3 ADD SWAP1 POP PUSH2 0x451 PUSH0 DUP4 ADD DUP5 PUSH2 0x42F JUMP JUMPDEST SWAP3 SWAP2 POP POP JUMP INVALID PUSH1 0x80 PUSH1 0x40 MSTORE CALLER PUSH0 PUSH0 PUSH2 0x100 EXP DUP2 SLOAD DUP2 PUSH20 0xFFFFFFFFFFFFFFFFFFFFFFFFFFFFFFFFFFFFFFFF MUL NOT AND SWAP1 DUP4 PUSH20 0xFFFFFFFFFFFFFFFFFFFFFFFFFFFFFFFFFFFFFFFF AND MUL OR SWAP1 SSTORE POP CALLVALUE PUSH1 0x1 SSTORE PUSH1 0x40 MLOAD PUSH2 0x2BA CODESIZE SUB DUP1 PUSH2 0x2BA DUP4 CODECOPY DUP2 DUP2 ADD PUSH1 0x40 MSTORE DUP2 ADD SWAP1 PUSH2 0x68 SWAP2 SWAP1 PUSH2 0xB4 JUMP JUMPDEST DUP2 PUSH1 0x2 DUP2 SWAP1 SSTORE POP DUP1 PUSH1 0x3 DUP2 SWAP1 SSTORE POP POP POP PUSH2 0xF2 JUMP JUMPDEST PUSH0 PUSH0 REVERT JUMPDEST PUSH0 DUP2 SWAP1 POP SWAP2 SWAP1 POP JUMP JUMPDEST PUSH2 0x93 DUP2 PUSH2 0x81 JUMP JUMPDEST DUP2 EQ PUSH2 0x9D JUMPI PUSH0 PUSH0 REVERT JUMPDEST POP JUMP JUMPDEST PUSH0 DUP2 MLOAD SWAP1 POP PUSH2 0xAE DUP2 PUSH2 0x8A JUMP JUMPDEST SWAP3 SWAP2 POP POP JUMP JUMPDEST PUSH0 PUSH0 PUSH1 0x40 DUP4 DUP6 SUB SLT ISZERO PUSH2 0xCA JUMPI PUSH2 0xC9 PUSH2 0x7D JUMP JUMPDEST JUMPDEST PUSH0 PUSH2 0xD7 DUP6 DUP3 DUP7 ADD PUSH2 0xA0 JUMP JUMPDEST SWAP3 POP POP PUSH1 0x20 PUSH2 0xE8 DUP6 DUP3 DUP7 ADD PUSH2 0xA0 JUMP JUMPDEST SWAP2 POP POP SWAP3 POP SWAP3 SWAP1 POP JUMP JUMPDEST PUSH2 0x1BB DUP1 PUSH2 0xFF PUSH0 CODECOPY PUSH0 RETURN INVALID PUSH1 0x80 PUSH1 0x40 MSTORE CALLVALUE DUP1 ISZERO PUSH2 0xF JUMPI PUSH0 PUSH0 REVERT JUMPDEST POP PUSH1 0x4 CALLDATASIZE LT PUSH2 0x4A JUMPI PUSH0 CALLDATALOAD PUSH1 0xE0 SHR DUP1 PUSH4 0xC55699C EQ PUSH2 0x4E JUMPI DUP1 PUSH4 0x3FA4F245 EQ PUSH2 0x6C JUMPI DUP1 PUSH4 0x8DA5CB5B EQ PUSH2 0x8A JUMPI DUP1 PUSH4 0xA56DFE4A EQ PUSH2 0xA8 JUMPI JUMPDEST PUSH0 PUSH0 REVERT JUMPDEST PUSH2 0x56 PUSH2 0xC6 JUMP JUMPDEST PUSH1 0x40 MLOAD PUSH2 0x63 SWAP2 SWAP1 PUSH2 0x114 JUMP JUMPDEST PUSH1 0x40 MLOAD DUP1 SWAP2 SUB SWAP1 RETURN JUMPDEST PUSH2 0x74 PUSH2 0xCC JUMP JUMPDEST PUSH1 0x40 MLOAD PUSH2 0x81 SWAP2 SWAP1 PUSH2 0x114 JUMP JUMPDEST PUSH1 0x40 MLOAD DUP1 SWAP2 SUB SWAP1 RETURN JUMPDEST PUSH2 0x92 PUSH2 0xD2 JUMP JUMPDEST PUSH1 0x40 MLOAD PUSH2 0x9F SWAP2 SWAP1 PUSH2 0x16C JUMP JUMPDEST PUSH1 0x40 MLOAD DUP1 SWAP2 SUB SWAP1 RETURN JUMPDEST PUSH2 0xB0 PUSH2 0xF6 JUMP JUMPDEST PUSH1 0x40 MLOAD PUSH2 0xBD SWAP2 SWAP1 PUSH2 0x114 JUMP JUMPDEST PUSH1 0x40 MLOAD DUP1 SWAP2 SUB SWAP1 RETURN JUMPDEST PUSH1 0x2 SLOAD DUP2 JUMP JUMPDEST PUSH1 0x1 SLOAD DUP2 JUMP JUMPDEST PUSH0 PUSH0 SWAP1 SLOAD SWAP1 PUSH2 0x100 EXP SWAP1 DIV PUSH20 0xFFFFFFFFFFFFFFFFFFFFFFFFFFFFFFFFFFFFFFFF AND DUP2 JUMP JUMPDEST PUSH1 0x3 SLOAD DUP2 JUMP JUMPDEST PUSH0 DUP2 SWAP1 POP SWAP2 SWAP1 POP JUMP JUMPDEST PUSH2 0x10E DUP2 PUSH2 0xFC JUMP JUMPDEST DUP3 MSTORE POP POP JUMP JUMPDEST PUSH0 PUSH1 0x20 DUP3 ADD SWAP1 POP PUSH2 0x127 PUSH0 DUP4 ADD DUP5 PUSH2 0x105 JUMP JUMPDEST SWAP3 SWAP2 POP POP JUMP JUMPDEST PUSH0 PUSH20 0xFFFFFFFFFFFFFFFFFFFFFFFFFFFFFFFFFFFFFFFF DUP3 AND SWAP1 POP SWAP2 SWAP1 POP JUMP JUMPDEST PUSH0 PUSH2 0x156 DUP3 PUSH2 0x12D JUMP JUMPDEST SWAP1 POP SWAP2 SWAP1 POP JUMP JUMPDEST PUSH2 0x166 DUP2 PUSH2 0x14C JUMP JUMPDEST DUP3 MSTORE POP POP JUMP JUMPDEST PUSH0 PUSH1 0x20 DUP3 ADD SWAP1 POP PUSH2 0x17F PUSH0 DUP4 ADD DUP5 PUSH2 0x15D JUMP JUMPDEST SWAP3 SWAP2 POP POP JUMP INVALID LOG2 PUSH5 0x6970667358 0x22 SLT KECCAK256 0xC 0xB3 SWAP4 LOG4 0xDE DUP9 0xDF 0xB7 DUP6 SWAP10 0x26 0xA8 CREATE 0xB0 DUP11 0xC3 0xAC JUMPDEST 0xED PUSH10 0xFFC58FB3638CEB6BB2A6 0xA5 PUSH19 0x64736F6C634300082200336080604052335F5F PUSH2 0x100 EXP DUP2 SLOAD DUP2 PUSH20 0xFFFFFFFFFFFFFFFFFFFFFFFFFFFFFFFFFFFFFFFF MUL NOT AND SWAP1 DUP4 PUSH20 0xFFFFFFFFFFFFFFFFFFFFFFFFFFFFFFFFFFFFFFFF AND MUL OR SWAP1 SSTORE POP CALLVALUE DUP1 ISZERO PUSH1 0x4D JUMPI PUSH0 PUSH0 REVERT JUMPDEST POP PUSH2 0x2C5 DUP1 PUSH2 0x5B PUSH0 CODECOPY PUSH0 RETURN INVALID PUSH1 0x80 PUSH1 0x40 MSTORE CALLVALUE DUP1 ISZERO PUSH2 0xF JUMPI PUSH0 PUSH0 REVERT JUMPDEST POP PUSH1 0x4 CALLDATASIZE LT PUSH2 0x34 JUMPI PUSH0 CALLDATALOAD PUSH1 0xE0 SHR DUP1 PUSH4 0x13AF4035 EQ PUSH2 0x38 JUMPI DUP1 PUSH4 0x8DA5CB5B EQ PUSH2 0x54 JUMPI JUMPDEST PUSH0 PUSH0 REVERT JUMPDEST PUSH2 0x52 PUSH1 0x4 DUP1 CALLDATASIZE SUB DUP2 ADD SWAP1 PUSH2 0x4D SWAP2 SWAP1 PUSH2 0x1C4 JUMP JUMPDEST PUSH2 0x72 JUMP JUMPDEST STOP JUMPDEST PUSH2 0x5C PUSH2 0x142 JUMP JUMPDEST PUSH1 0x40 MLOAD PUSH2 0x69 SWAP2 SWAP1 PUSH2 0x1FE JUMP JUMPDEST PUSH1 0x40 MLOAD DUP1 SWAP2 SUB SWAP1 RETURN JUMPDEST PUSH0 PUSH0 SWAP1 SLOAD SWAP1 PUSH2 0x100 EXP SWAP1 DIV PUSH20 0xFFFFFFFFFFFFFFFFFFFFFFFFFFFFFFFFFFFFFFFF AND PUSH20 0xFFFFFFFFFFFFFFFFFFFFFFFFFFFFFFFFFFFFFFFF AND CALLER PUSH20 0xFFFFFFFFFFFFFFFFFFFFFFFFFFFFFFFFFFFFFFFF AND EQ PUSH2 0x100 JUMPI PUSH1 0x40 MLOAD PUSH32 0x8C379A000000000000000000000000000000000000000000000000000000000 DUP2 MSTORE PUSH1 0x4 ADD PUSH2 0xF7 SWAP1 PUSH2 0x271 JUMP JUMPDEST PUSH1 0x40 MLOAD DUP1 SWAP2 SUB SWAP1 REVERT JUMPDEST DUP1 PUSH0 PUSH0 PUSH2 0x100 EXP DUP2 SLOAD DUP2 PUSH20 0xFFFFFFFFFFFFFFFFFFFFFFFFFFFFFFFFFFFFFFFF MUL NOT AND SWAP1 DUP4 PUSH20 0xFFFFFFFFFFFFFFFFFFFFFFFFFFFFFFFFFFFFFFFF AND MUL OR SWAP1 SSTORE POP POP JUMP JUMPDEST PUSH0 PUSH0 SWAP1 SLOAD SWAP1 PUSH2 0x100 EXP SWAP1 DIV PUSH20 0xFFFFFFFFFFFFFFFFFFFFFFFFFFFFFFFFFFFFFFFF AND DUP2 JUMP JUMPDEST PUSH0 PUSH0 REVERT JUMPDEST PUSH0 PUSH20 0xFFFFFFFFFFFFFFFFFFFFFFFFFFFFFFFFFFFFFFFF DUP3 AND SWAP1 POP SWAP2 SWAP1 POP JUMP JUMPDEST PUSH0 PUSH2 0x193 DUP3 PUSH2 0x16A JUMP JUMPDEST SWAP1 POP SWAP2 SWAP1 POP JUMP JUMPDEST PUSH2 0x1A3 DUP2 PUSH2 0x189 JUMP JUMPDEST DUP2 EQ PUSH2 0x1AD JUMPI PUSH0 PUSH0 REVERT JUMPDEST POP JUMP JUMPDEST PUSH0 DUP2 CALLDATALOAD SWAP1 POP PUSH2 0x1BE DUP2 PUSH2 0x19A JUMP JUMPDEST SWAP3 SWAP2 POP POP JUMP JUMPDEST PUSH0 PUSH1 0x20 DUP3 DUP5 SUB SLT ISZERO PUSH2 0x1D9 JUMPI PUSH2 0x1D8 PUSH2 0x166 JUMP JUMPDEST JUMPDEST PUSH0 PUSH2 0x1E6 DUP5 DUP3 DUP6 ADD PUSH2 0x1B0 JUMP JUMPDEST SWAP2 POP POP SWAP3 SWAP2 POP POP JUMP JUMPDEST PUSH2 0x1F8 DUP2 PUSH2 0x189 JUMP JUMPDEST DUP3 MSTORE POP POP JUMP JUMPDEST PUSH0 PUSH1 0x20 DUP3 ADD SWAP1 POP PUSH2 0x211 PUSH0 DUP4 ADD DUP5 PUSH2 0x1EF JUMP JUMPDEST SWAP3 SWAP2 POP POP JUMP JUMPDEST PUSH0 DUP3 DUP3 MSTORE PUSH1 0x20 DUP3 ADD SWAP1 POP SWAP3 SWAP2 POP POP JUMP JUMPDEST PUSH32 0x6E6F74206F776E65720000000000000000000000000000000000000000000000 PUSH0 DUP3 ADD MSTORE POP JUMP JUMPDEST PUSH0 PUSH2 0x25B PUSH1 0x9 DUP4 PUSH2 0x217 JUMP JUMPDEST SWAP2 POP PUSH2 0x266 DUP3 PUSH2 0x227 JUMP JUMPDEST PUSH1 0x20 DUP3 ADD SWAP1 POP SWAP2 SWAP1 POP JUMP JUMPDEST PUSH0 PUSH1 0x20 DUP3 ADD SWAP1 POP DUP2 DUP2 SUB PUSH0 DUP4 ADD MSTORE PUSH2 0x288 DUP2 PUSH2 0x24F JUMP JUMPDEST SWAP1 POP SWAP2 SWAP1 POP JUMP INVALID LOG2 PUSH5 0x6970667358 0x22 SLT KECCAK256 CALLER LT 0x2E SMOD PUSH5 0x49B6CF92A7 LOG1 EXTCODECOPY 0xF6 EQ 0xB7 PUSH11 0x87D099586DEA4806044CEA JUMPDEST XOR PUSH4 0xAE676473 PUSH16 0x6C63430008220033A264697066735822 SLT KECCAK256 0xCB 0xAA GASPRICE DATALOADN 0xAD35 0x1F 0xC5 0xC0 XOR BLOBHASH SELFBALANCE PUSH22 0xA0343CF6DDE7EC2C35D801F97F781D55517EA664736F PUSH13 0x63430008220033000000000000 "
				},
				"gasEstimates": {
					"creation": {
						"codeDepositCost": "532600",
						"executionCost": "566",
						"totalCost": "533166"
					},
					"external": {
						"getBytecode1()": "infinite",
						"getBytecode2(uint256,uint256)": "infinite",
						"getCallData(address)": "infinite"
					}
				},
				"methodIdentifiers": {
					"getBytecode1()": "e68f92f1",
					"getBytecode2(uint256,uint256)": "45fb27cd",
					"getCallData(address)": "643abff9"
				}
			},
			"storageLayout": {
				"storage": [],
				"types": null
			},
			"userdoc": {
				"kind": "user",
				"methods": {},
				"version": 1
			}
		}
	}
}