{
	"solidity高级应用/通过字节码部署任意合约.sol": {
		"Proxy": {
			"abi": [
				{
					"anonymous": false,
					"inputs": [
						{
							"indexed": false,
							"internalType": "address",
							"name": "addr",
							"type": "address"
						}
					],
					"name": "Deploy",
					"type": "event"
				},
				{
					"inputs": [
						{
							"internalType": "bytes",
							"name": "bytecode",
							"type": "bytes"
						}
					],
					"name": "deploy",
					"outputs": [
						{
							"internalType": "address",
							"name": "addr",
							"type": "address"
						}
					],
					"stateMutability": "payable",
					"type": "function"
				},
				{
					"inputs": [
						{
							"internalType": "address",
							"name": "target",
							"type": "address"
						},
						{
							"internalType": "bytes",
							"name": "data",
							"type": "bytes"
						}
					],
					"name": "execute",
					"outputs": [],
					"stateMutability": "payable",
					"type": "function"
				}
			],
			"devdoc": {
				"kind": "dev",
				"methods": {},
				"version": 1
			},
			"evm": {
				"assembly": "    /* \"solidity\\xe9\\xab\\x98\\xe7\\xba\\xa7\\xe5\\xba\\x94\\xe7\\x94\\xa8/\\xe9\\x80\\x9a\\xe8\\xbf\\x87\\xe5\\xad\\x97\\xe8\\x8a\\x82\\xe7\\xa0\\x81\\xe9\\x83\\xa8\\xe7\\xbd\\xb2\\xe4\\xbb\\xbb\\xe6\\x84\\x8f\\xe5\\x90\\x88\\xe7\\xba\\xa6.sol\":1083:1568  contract Proxy {... */\n  mstore(0x40, 0x80)\n  callvalue\n  dup1\n  iszero\n  tag_1\n  jumpi\n  revert(0x00, 0x00)\ntag_1:\n  pop\n  dataSize(sub_0)\n  dup1\n  dataOffset(sub_0)\n  0x00\n  codecopy\n  0x00\n  return\nstop\n\nsub_0: assembly {\n        /* \"solidity\\xe9\\xab\\x98\\xe7\\xba\\xa7\\xe5\\xba\\x94\\xe7\\x94\\xa8/\\xe9\\x80\\x9a\\xe8\\xbf\\x87\\xe5\\xad\\x97\\xe8\\x8a\\x82\\xe7\\xa0\\x81\\xe9\\x83\\xa8\\xe7\\xbd\\xb2\\xe4\\xbb\\xbb\\xe6\\x84\\x8f\\xe5\\x90\\x88\\xe7\\xba\\xa6.sol\":1083:1568  contract Proxy {... */\n      mstore(0x40, 0x80)\n      jumpi(tag_1, lt(calldatasize, 0x04))\n      shr(0xe0, calldataload(0x00))\n      dup1\n      0x774360\n      eq\n      tag_2\n      jumpi\n      dup1\n      0x1cff79cd\n      eq\n      tag_3\n      jumpi\n    tag_1:\n      revert(0x00, 0x00)\n        /* \"solidity\\xe9\\xab\\x98\\xe7\\xba\\xa7\\xe5\\xba\\x94\\xe7\\x94\\xa8/\\xe9\\x80\\x9a\\xe8\\xbf\\x87\\xe5\\xad\\x97\\xe8\\x8a\\x82\\xe7\\xa0\\x81\\xe9\\x83\\xa8\\xe7\\xbd\\xb2\\xe4\\xbb\\xbb\\xe6\\x84\\x8f\\xe5\\x90\\x88\\xe7\\xba\\xa6.sol\":1179:1376  function deploy(bytes memory bytecode) external payable  returns(address addr) {... */\n    tag_2:\n      tag_4\n      0x04\n      dup1\n      calldatasize\n      sub\n      dup2\n      add\n      swap1\n      tag_5\n      swap2\n      swap1\n      tag_6\n      jump\t// in\n    tag_5:\n      tag_7\n      jump\t// in\n    tag_4:\n      mload(0x40)\n      tag_8\n      swap2\n      swap1\n      tag_9\n      jump\t// in\n    tag_8:\n      mload(0x40)\n      dup1\n      swap2\n      sub\n      swap1\n      return\n        /* \"solidity\\xe9\\xab\\x98\\xe7\\xba\\xa7\\xe5\\xba\\x94\\xe7\\x94\\xa8/\\xe9\\x80\\x9a\\xe8\\xbf\\x87\\xe5\\xad\\x97\\xe8\\x8a\\x82\\xe7\\xa0\\x81\\xe9\\x83\\xa8\\xe7\\xbd\\xb2\\xe4\\xbb\\xbb\\xe6\\x84\\x8f\\xe5\\x90\\x88\\xe7\\xba\\xa6.sol\":1384:1565  function execute(address target,bytes memory data) external payable {... */\n    tag_3:\n      tag_10\n      0x04\n      dup1\n      calldatasize\n      sub\n      dup2\n      add\n      swap1\n      tag_11\n      swap2\n      swap1\n      tag_12\n      jump\t// in\n    tag_11:\n      tag_13\n      jump\t// in\n    tag_10:\n      stop\n        /* \"solidity\\xe9\\xab\\x98\\xe7\\xba\\xa7\\xe5\\xba\\x94\\xe7\\x94\\xa8/\\xe9\\x80\\x9a\\xe8\\xbf\\x87\\xe5\\xad\\x97\\xe8\\x8a\\x82\\xe7\\xa0\\x81\\xe9\\x83\\xa8\\xe7\\xbd\\xb2\\xe4\\xbb\\xbb\\xe6\\x84\\x8f\\xe5\\x90\\x88\\xe7\\xba\\xa6.sol\":1179:1376  function deploy(bytes memory bytecode) external payable  returns(address addr) {... */\n    tag_7:\n        /* \"solidity\\xe9\\xab\\x98\\xe7\\xba\\xa7\\xe5\\xba\\x94\\xe7\\x94\\xa8/\\xe9\\x80\\x9a\\xe8\\xbf\\x87\\xe5\\xad\\x97\\xe8\\x8a\\x82\\xe7\\xa0\\x81\\xe9\\x83\\xa8\\xe7\\xbd\\xb2\\xe4\\xbb\\xbb\\xe6\\x84\\x8f\\xe5\\x90\\x88\\xe7\\xba\\xa6.sol\":1244:1256  address addr */\n      0x00\n        /* \"solidity\\xe9\\xab\\x98\\xe7\\xba\\xa7\\xe5\\xba\\x94\\xe7\\x94\\xa8/\\xe9\\x80\\x9a\\xe8\\xbf\\x87\\xe5\\xad\\x97\\xe8\\x8a\\x82\\xe7\\xa0\\x81\\xe9\\x83\\xa8\\xe7\\xbd\\xb2\\xe4\\xbb\\xbb\\xe6\\x84\\x8f\\xe5\\x90\\x88\\xe7\\xba\\xa6.sol\":1348:1356  bytecode */\n      dup2\n        /* \"solidity\\xe9\\xab\\x98\\xe7\\xba\\xa7\\xe5\\xba\\x94\\xe7\\x94\\xa8/\\xe9\\x80\\x9a\\xe8\\xbf\\x87\\xe5\\xad\\x97\\xe8\\x8a\\x82\\xe7\\xa0\\x81\\xe9\\x83\\xa8\\xe7\\xbd\\xb2\\xe4\\xbb\\xbb\\xe6\\x84\\x8f\\xe5\\x90\\x88\\xe7\\xba\\xa6.sol\":1342:1357  mload(bytecode) */\n      mload\n        /* \"solidity\\xe9\\xab\\x98\\xe7\\xba\\xa7\\xe5\\xba\\x94\\xe7\\x94\\xa8/\\xe9\\x80\\x9a\\xe8\\xbf\\x87\\xe5\\xad\\x97\\xe8\\x8a\\x82\\xe7\\xa0\\x81\\xe9\\x83\\xa8\\xe7\\xbd\\xb2\\xe4\\xbb\\xbb\\xe6\\x84\\x8f\\xe5\\x90\\x88\\xe7\\xba\\xa6.sol\":1335:1339  0x20 */\n      0x20\n        /* \"solidity\\xe9\\xab\\x98\\xe7\\xba\\xa7\\xe5\\xba\\x94\\xe7\\x94\\xa8/\\xe9\\x80\\x9a\\xe8\\xbf\\x87\\xe5\\xad\\x97\\xe8\\x8a\\x82\\xe7\\xa0\\x81\\xe9\\x83\\xa8\\xe7\\xbd\\xb2\\xe4\\xbb\\xbb\\xe6\\x84\\x8f\\xe5\\x90\\x88\\xe7\\xba\\xa6.sol\":1325:1333  bytecode */\n      dup4\n        /* \"solidity\\xe9\\xab\\x98\\xe7\\xba\\xa7\\xe5\\xba\\x94\\xe7\\x94\\xa8/\\xe9\\x80\\x9a\\xe8\\xbf\\x87\\xe5\\xad\\x97\\xe8\\x8a\\x82\\xe7\\xa0\\x81\\xe9\\x83\\xa8\\xe7\\xbd\\xb2\\xe4\\xbb\\xbb\\xe6\\x84\\x8f\\xe5\\x90\\x88\\xe7\\xba\\xa6.sol\":1321:1340  add(bytecode, 0x20) */\n      add\n        /* \"solidity\\xe9\\xab\\x98\\xe7\\xba\\xa7\\xe5\\xba\\x94\\xe7\\x94\\xa8/\\xe9\\x80\\x9a\\xe8\\xbf\\x87\\xe5\\xad\\x97\\xe8\\x8a\\x82\\xe7\\xa0\\x81\\xe9\\x83\\xa8\\xe7\\xbd\\xb2\\xe4\\xbb\\xbb\\xe6\\x84\\x8f\\xe5\\x90\\x88\\xe7\\xba\\xa6.sol\":1308:1319  callvalue() */\n      callvalue\n        /* \"solidity\\xe9\\xab\\x98\\xe7\\xba\\xa7\\xe5\\xba\\x94\\xe7\\x94\\xa8/\\xe9\\x80\\x9a\\xe8\\xbf\\x87\\xe5\\xad\\x97\\xe8\\x8a\\x82\\xe7\\xa0\\x81\\xe9\\x83\\xa8\\xe7\\xbd\\xb2\\xe4\\xbb\\xbb\\xe6\\x84\\x8f\\xe5\\x90\\x88\\xe7\\xba\\xa6.sol\":1301:1358  create(callvalue(), add(bytecode, 0x20), mload(bytecode)) */\n      create\n        /* \"solidity\\xe9\\xab\\x98\\xe7\\xba\\xa7\\xe5\\xba\\x94\\xe7\\x94\\xa8/\\xe9\\x80\\x9a\\xe8\\xbf\\x87\\xe5\\xad\\x97\\xe8\\x8a\\x82\\xe7\\xa0\\x81\\xe9\\x83\\xa8\\xe7\\xbd\\xb2\\xe4\\xbb\\xbb\\xe6\\x84\\x8f\\xe5\\x90\\x88\\xe7\\xba\\xa6.sol\":1293:1358  addr := create(callvalue(), add(bytecode, 0x20), mload(bytecode)) */\n      swap1\n      pop\n        /* \"solidity\\xe9\\xab\\x98\\xe7\\xba\\xa7\\xe5\\xba\\x94\\xe7\\x94\\xa8/\\xe9\\x80\\x9a\\xe8\\xbf\\x87\\xe5\\xad\\x97\\xe8\\x8a\\x82\\xe7\\xa0\\x81\\xe9\\x83\\xa8\\xe7\\xbd\\xb2\\xe4\\xbb\\xbb\\xe6\\x84\\x8f\\xe5\\x90\\x88\\xe7\\xba\\xa6.sol\":1179:1376  function deploy(bytes memory bytecode) external payable  returns(address addr) {... */\n      swap2\n      swap1\n      pop\n      jump\t// out\n        /* \"solidity\\xe9\\xab\\x98\\xe7\\xba\\xa7\\xe5\\xba\\x94\\xe7\\x94\\xa8/\\xe9\\x80\\x9a\\xe8\\xbf\\x87\\xe5\\xad\\x97\\xe8\\x8a\\x82\\xe7\\xa0\\x81\\xe9\\x83\\xa8\\xe7\\xbd\\xb2\\xe4\\xbb\\xbb\\xe6\\x84\\x8f\\xe5\\x90\\x88\\xe7\\xba\\xa6.sol\":1384:1565  function execute(address target,bytes memory data) external payable {... */\n    tag_13:\n        /* \"solidity\\xe9\\xab\\x98\\xe7\\xba\\xa7\\xe5\\xba\\x94\\xe7\\x94\\xa8/\\xe9\\x80\\x9a\\xe8\\xbf\\x87\\xe5\\xad\\x97\\xe8\\x8a\\x82\\xe7\\xa0\\x81\\xe9\\x83\\xa8\\xe7\\xbd\\xb2\\xe4\\xbb\\xbb\\xe6\\x84\\x8f\\xe5\\x90\\x88\\xe7\\xba\\xa6.sol\":1464:1476  bool success */\n      0x00\n        /* \"solidity\\xe9\\xab\\x98\\xe7\\xba\\xa7\\xe5\\xba\\x94\\xe7\\x94\\xa8/\\xe9\\x80\\x9a\\xe8\\xbf\\x87\\xe5\\xad\\x97\\xe8\\x8a\\x82\\xe7\\xa0\\x81\\xe9\\x83\\xa8\\xe7\\xbd\\xb2\\xe4\\xbb\\xbb\\xe6\\x84\\x8f\\xe5\\x90\\x88\\xe7\\xba\\xa6.sol\":1482:1488  target */\n      dup3\n        /* \"solidity\\xe9\\xab\\x98\\xe7\\xba\\xa7\\xe5\\xba\\x94\\xe7\\x94\\xa8/\\xe9\\x80\\x9a\\xe8\\xbf\\x87\\xe5\\xad\\x97\\xe8\\x8a\\x82\\xe7\\xa0\\x81\\xe9\\x83\\xa8\\xe7\\xbd\\xb2\\xe4\\xbb\\xbb\\xe6\\x84\\x8f\\xe5\\x90\\x88\\xe7\\xba\\xa6.sol\":1482:1493  target.call */\n      0xffffffffffffffffffffffffffffffffffffffff\n      and\n        /* \"solidity\\xe9\\xab\\x98\\xe7\\xba\\xa7\\xe5\\xba\\x94\\xe7\\x94\\xa8/\\xe9\\x80\\x9a\\xe8\\xbf\\x87\\xe5\\xad\\x97\\xe8\\x8a\\x82\\xe7\\xa0\\x81\\xe9\\x83\\xa8\\xe7\\xbd\\xb2\\xe4\\xbb\\xbb\\xe6\\x84\\x8f\\xe5\\x90\\x88\\xe7\\xba\\xa6.sol\":1500:1509  msg.value */\n      callvalue\n        /* \"solidity\\xe9\\xab\\x98\\xe7\\xba\\xa7\\xe5\\xba\\x94\\xe7\\x94\\xa8/\\xe9\\x80\\x9a\\xe8\\xbf\\x87\\xe5\\xad\\x97\\xe8\\x8a\\x82\\xe7\\xa0\\x81\\xe9\\x83\\xa8\\xe7\\xbd\\xb2\\xe4\\xbb\\xbb\\xe6\\x84\\x8f\\xe5\\x90\\x88\\xe7\\xba\\xa6.sol\":1511:1515  data */\n      dup4\n        /* \"solidity\\xe9\\xab\\x98\\xe7\\xba\\xa7\\xe5\\xba\\x94\\xe7\\x94\\xa8/\\xe9\\x80\\x9a\\xe8\\xbf\\x87\\xe5\\xad\\x97\\xe8\\x8a\\x82\\xe7\\xa0\\x81\\xe9\\x83\\xa8\\xe7\\xbd\\xb2\\xe4\\xbb\\xbb\\xe6\\x84\\x8f\\xe5\\x90\\x88\\xe7\\xba\\xa6.sol\":1482:1516  target.call{value:msg.value}(data) */\n      mload(0x40)\n      tag_16\n      swap2\n      swap1\n      tag_17\n      jump\t// in\n    tag_16:\n      0x00\n      mload(0x40)\n      dup1\n      dup4\n      sub\n      dup2\n      dup6\n      dup8\n      gas\n      call\n      swap3\n      pop\n      pop\n      pop\n      returndatasize\n      dup1\n      0x00\n      dup2\n      eq\n      tag_20\n      jumpi\n      mload(0x40)\n      swap2\n      pop\n      and(add(returndatasize, 0x3f), not(0x1f))\n      dup3\n      add\n      0x40\n      mstore\n      returndatasize\n      dup3\n      mstore\n      returndatasize\n      0x00\n      0x20\n      dup5\n      add\n      returndatacopy\n      jump(tag_19)\n    tag_20:\n      0x60\n      swap2\n      pop\n    tag_19:\n      pop\n        /* \"solidity\\xe9\\xab\\x98\\xe7\\xba\\xa7\\xe5\\xba\\x94\\xe7\\x94\\xa8/\\xe9\\x80\\x9a\\xe8\\xbf\\x87\\xe5\\xad\\x97\\xe8\\x8a\\x82\\xe7\\xa0\\x81\\xe9\\x83\\xa8\\xe7\\xbd\\xb2\\xe4\\xbb\\xbb\\xe6\\x84\\x8f\\xe5\\x90\\x88\\xe7\\xba\\xa6.sol\":1463:1516  (bool success,) =  target.call{value:msg.value}(data) */\n      pop\n      swap1\n      pop\n        /* \"solidity\\xe9\\xab\\x98\\xe7\\xba\\xa7\\xe5\\xba\\x94\\xe7\\x94\\xa8/\\xe9\\x80\\x9a\\xe8\\xbf\\x87\\xe5\\xad\\x97\\xe8\\x8a\\x82\\xe7\\xa0\\x81\\xe9\\x83\\xa8\\xe7\\xbd\\xb2\\xe4\\xbb\\xbb\\xe6\\x84\\x8f\\xe5\\x90\\x88\\xe7\\xba\\xa6.sol\":1535:1542  success */\n      dup1\n        /* \"solidity\\xe9\\xab\\x98\\xe7\\xba\\xa7\\xe5\\xba\\x94\\xe7\\x94\\xa8/\\xe9\\x80\\x9a\\xe8\\xbf\\x87\\xe5\\xad\\x97\\xe8\\x8a\\x82\\xe7\\xa0\\x81\\xe9\\x83\\xa8\\xe7\\xbd\\xb2\\xe4\\xbb\\xbb\\xe6\\x84\\x8f\\xe5\\x90\\x88\\xe7\\xba\\xa6.sol\":1527:1557  require(success,\"call failed\") */\n      tag_21\n      jumpi\n      mload(0x40)\n      0x08c379a000000000000000000000000000000000000000000000000000000000\n      dup2\n      mstore\n      0x04\n      add\n      tag_22\n      swap1\n      tag_23\n      jump\t// in\n    tag_22:\n      mload(0x40)\n      dup1\n      swap2\n      sub\n      swap1\n      revert\n    tag_21:\n        /* \"solidity\\xe9\\xab\\x98\\xe7\\xba\\xa7\\xe5\\xba\\x94\\xe7\\x94\\xa8/\\xe9\\x80\\x9a\\xe8\\xbf\\x87\\xe5\\xad\\x97\\xe8\\x8a\\x82\\xe7\\xa0\\x81\\xe9\\x83\\xa8\\xe7\\xbd\\xb2\\xe4\\xbb\\xbb\\xe6\\x84\\x8f\\xe5\\x90\\x88\\xe7\\xba\\xa6.sol\":1452:1565  {... */\n      pop\n        /* \"solidity\\xe9\\xab\\x98\\xe7\\xba\\xa7\\xe5\\xba\\x94\\xe7\\x94\\xa8/\\xe9\\x80\\x9a\\xe8\\xbf\\x87\\xe5\\xad\\x97\\xe8\\x8a\\x82\\xe7\\xa0\\x81\\xe9\\x83\\xa8\\xe7\\xbd\\xb2\\xe4\\xbb\\xbb\\xe6\\x84\\x8f\\xe5\\x90\\x88\\xe7\\xba\\xa6.sol\":1384:1565  function execute(address target,bytes memory data) external payable {... */\n      pop\n      pop\n      jump\t// out\n        /* \"#utility.yul\":7:82   */\n    tag_24:\n        /* \"#utility.yul\":40:46   */\n      0x00\n        /* \"#utility.yul\":73:75   */\n      0x40\n        /* \"#utility.yul\":67:76   */\n      mload\n        /* \"#utility.yul\":57:76   */\n      swap1\n      pop\n        /* \"#utility.yul\":7:82   */\n      swap1\n      jump\t// out\n        /* \"#utility.yul\":88:205   */\n    tag_25:\n        /* \"#utility.yul\":197:198   */\n      0x00\n        /* \"#utility.yul\":194:195   */\n      0x00\n        /* \"#utility.yul\":187:199   */\n      revert\n        /* \"#utility.yul\":211:328   */\n    tag_26:\n        /* \"#utility.yul\":320:321   */\n      0x00\n        /* \"#utility.yul\":317:318   */\n      0x00\n        /* \"#utility.yul\":310:322   */\n      revert\n        /* \"#utility.yul\":334:451   */\n    tag_27:\n        /* \"#utility.yul\":443:444   */\n      0x00\n        /* \"#utility.yul\":440:441   */\n      0x00\n        /* \"#utility.yul\":433:445   */\n      revert\n        /* \"#utility.yul\":457:574   */\n    tag_28:\n        /* \"#utility.yul\":566:567   */\n      0x00\n        /* \"#utility.yul\":563:564   */\n      0x00\n        /* \"#utility.yul\":556:568   */\n      revert\n        /* \"#utility.yul\":580:682   */\n    tag_29:\n        /* \"#utility.yul\":621:627   */\n      0x00\n        /* \"#utility.yul\":672:674   */\n      0x1f\n        /* \"#utility.yul\":668:675   */\n      not\n        /* \"#utility.yul\":663:665   */\n      0x1f\n        /* \"#utility.yul\":656:661   */\n      dup4\n        /* \"#utility.yul\":652:666   */\n      add\n        /* \"#utility.yul\":648:676   */\n      and\n        /* \"#utility.yul\":638:676   */\n      swap1\n      pop\n        /* \"#utility.yul\":580:682   */\n      swap2\n      swap1\n      pop\n      jump\t// out\n        /* \"#utility.yul\":688:868   */\n    tag_30:\n        /* \"#utility.yul\":736:813   */\n      0x4e487b7100000000000000000000000000000000000000000000000000000000\n        /* \"#utility.yul\":733:734   */\n      0x00\n        /* \"#utility.yul\":726:814   */\n      mstore\n        /* \"#utility.yul\":833:837   */\n      0x41\n        /* \"#utility.yul\":830:831   */\n      0x04\n        /* \"#utility.yul\":823:838   */\n      mstore\n        /* \"#utility.yul\":857:861   */\n      0x24\n        /* \"#utility.yul\":854:855   */\n      0x00\n        /* \"#utility.yul\":847:862   */\n      revert\n        /* \"#utility.yul\":874:1155   */\n    tag_31:\n        /* \"#utility.yul\":957:984   */\n      tag_58\n        /* \"#utility.yul\":979:983   */\n      dup3\n        /* \"#utility.yul\":957:984   */\n      tag_29\n      jump\t// in\n    tag_58:\n        /* \"#utility.yul\":949:955   */\n      dup2\n        /* \"#utility.yul\":945:985   */\n      add\n        /* \"#utility.yul\":1087:1093   */\n      dup2\n        /* \"#utility.yul\":1075:1085   */\n      dup2\n        /* \"#utility.yul\":1072:1094   */\n      lt\n        /* \"#utility.yul\":1051:1069   */\n      0xffffffffffffffff\n        /* \"#utility.yul\":1039:1049   */\n      dup3\n        /* \"#utility.yul\":1036:1070   */\n      gt\n        /* \"#utility.yul\":1033:1095   */\n      or\n        /* \"#utility.yul\":1030:1118   */\n      iszero\n      tag_59\n      jumpi\n        /* \"#utility.yul\":1098:1116   */\n      tag_60\n      tag_30\n      jump\t// in\n    tag_60:\n        /* \"#utility.yul\":1030:1118   */\n    tag_59:\n        /* \"#utility.yul\":1138:1148   */\n      dup1\n        /* \"#utility.yul\":1134:1136   */\n      0x40\n        /* \"#utility.yul\":1127:1149   */\n      mstore\n        /* \"#utility.yul\":917:1155   */\n      pop\n        /* \"#utility.yul\":874:1155   */\n      pop\n      pop\n      jump\t// out\n        /* \"#utility.yul\":1161:1290   */\n    tag_32:\n        /* \"#utility.yul\":1195:1201   */\n      0x00\n        /* \"#utility.yul\":1222:1242   */\n      tag_62\n      tag_24\n      jump\t// in\n    tag_62:\n        /* \"#utility.yul\":1212:1242   */\n      swap1\n      pop\n        /* \"#utility.yul\":1251:1284   */\n      tag_63\n        /* \"#utility.yul\":1279:1283   */\n      dup3\n        /* \"#utility.yul\":1271:1277   */\n      dup3\n        /* \"#utility.yul\":1251:1284   */\n      tag_31\n      jump\t// in\n    tag_63:\n        /* \"#utility.yul\":1161:1290   */\n      swap2\n      swap1\n      pop\n      jump\t// out\n        /* \"#utility.yul\":1296:1603   */\n    tag_33:\n        /* \"#utility.yul\":1357:1361   */\n      0x00\n        /* \"#utility.yul\":1447:1465   */\n      0xffffffffffffffff\n        /* \"#utility.yul\":1439:1445   */\n      dup3\n        /* \"#utility.yul\":1436:1466   */\n      gt\n        /* \"#utility.yul\":1433:1489   */\n      iszero\n      tag_65\n      jumpi\n        /* \"#utility.yul\":1469:1487   */\n      tag_66\n      tag_30\n      jump\t// in\n    tag_66:\n        /* \"#utility.yul\":1433:1489   */\n    tag_65:\n        /* \"#utility.yul\":1507:1536   */\n      tag_67\n        /* \"#utility.yul\":1529:1535   */\n      dup3\n        /* \"#utility.yul\":1507:1536   */\n      tag_29\n      jump\t// in\n    tag_67:\n        /* \"#utility.yul\":1499:1536   */\n      swap1\n      pop\n        /* \"#utility.yul\":1591:1595   */\n      0x20\n        /* \"#utility.yul\":1585:1589   */\n      dup2\n        /* \"#utility.yul\":1581:1596   */\n      add\n        /* \"#utility.yul\":1573:1596   */\n      swap1\n      pop\n        /* \"#utility.yul\":1296:1603   */\n      swap2\n      swap1\n      pop\n      jump\t// out\n        /* \"#utility.yul\":1609:1757   */\n    tag_34:\n        /* \"#utility.yul\":1707:1713   */\n      dup3\n        /* \"#utility.yul\":1702:1705   */\n      dup2\n        /* \"#utility.yul\":1697:1700   */\n      dup4\n        /* \"#utility.yul\":1684:1714   */\n      calldatacopy\n        /* \"#utility.yul\":1748:1749   */\n      0x00\n        /* \"#utility.yul\":1739:1745   */\n      dup4\n        /* \"#utility.yul\":1734:1737   */\n      dup4\n        /* \"#utility.yul\":1730:1746   */\n      add\n        /* \"#utility.yul\":1723:1750   */\n      mstore\n        /* \"#utility.yul\":1609:1757   */\n      pop\n      pop\n      pop\n      jump\t// out\n        /* \"#utility.yul\":1763:2186   */\n    tag_35:\n        /* \"#utility.yul\":1840:1845   */\n      0x00\n        /* \"#utility.yul\":1865:1930   */\n      tag_70\n        /* \"#utility.yul\":1881:1929   */\n      tag_71\n        /* \"#utility.yul\":1922:1928   */\n      dup5\n        /* \"#utility.yul\":1881:1929   */\n      tag_33\n      jump\t// in\n    tag_71:\n        /* \"#utility.yul\":1865:1930   */\n      tag_32\n      jump\t// in\n    tag_70:\n        /* \"#utility.yul\":1856:1930   */\n      swap1\n      pop\n        /* \"#utility.yul\":1953:1959   */\n      dup3\n        /* \"#utility.yul\":1946:1951   */\n      dup2\n        /* \"#utility.yul\":1939:1960   */\n      mstore\n        /* \"#utility.yul\":1991:1995   */\n      0x20\n        /* \"#utility.yul\":1984:1989   */\n      dup2\n        /* \"#utility.yul\":1980:1996   */\n      add\n        /* \"#utility.yul\":2029:2032   */\n      dup5\n        /* \"#utility.yul\":2020:2026   */\n      dup5\n        /* \"#utility.yul\":2015:2018   */\n      dup5\n        /* \"#utility.yul\":2011:2027   */\n      add\n        /* \"#utility.yul\":2008:2033   */\n      gt\n        /* \"#utility.yul\":2005:2117   */\n      iszero\n      tag_72\n      jumpi\n        /* \"#utility.yul\":2036:2115   */\n      tag_73\n      tag_28\n      jump\t// in\n    tag_73:\n        /* \"#utility.yul\":2005:2117   */\n    tag_72:\n        /* \"#utility.yul\":2126:2180   */\n      tag_74\n        /* \"#utility.yul\":2173:2179   */\n      dup5\n        /* \"#utility.yul\":2168:2171   */\n      dup3\n        /* \"#utility.yul\":2163:2166   */\n      dup6\n        /* \"#utility.yul\":2126:2180   */\n      tag_34\n      jump\t// in\n    tag_74:\n        /* \"#utility.yul\":1846:2186   */\n      pop\n        /* \"#utility.yul\":1763:2186   */\n      swap4\n      swap3\n      pop\n      pop\n      pop\n      jump\t// out\n        /* \"#utility.yul\":2205:2543   */\n    tag_36:\n        /* \"#utility.yul\":2260:2265   */\n      0x00\n        /* \"#utility.yul\":2309:2312   */\n      dup3\n        /* \"#utility.yul\":2302:2306   */\n      0x1f\n        /* \"#utility.yul\":2294:2300   */\n      dup4\n        /* \"#utility.yul\":2290:2307   */\n      add\n        /* \"#utility.yul\":2286:2313   */\n      slt\n        /* \"#utility.yul\":2276:2398   */\n      tag_76\n      jumpi\n        /* \"#utility.yul\":2317:2396   */\n      tag_77\n      tag_27\n      jump\t// in\n    tag_77:\n        /* \"#utility.yul\":2276:2398   */\n    tag_76:\n        /* \"#utility.yul\":2434:2440   */\n      dup2\n        /* \"#utility.yul\":2421:2441   */\n      calldataload\n        /* \"#utility.yul\":2459:2537   */\n      tag_78\n        /* \"#utility.yul\":2533:2536   */\n      dup5\n        /* \"#utility.yul\":2525:2531   */\n      dup3\n        /* \"#utility.yul\":2518:2522   */\n      0x20\n        /* \"#utility.yul\":2510:2516   */\n      dup7\n        /* \"#utility.yul\":2506:2523   */\n      add\n        /* \"#utility.yul\":2459:2537   */\n      tag_35\n      jump\t// in\n    tag_78:\n        /* \"#utility.yul\":2450:2537   */\n      swap2\n      pop\n        /* \"#utility.yul\":2266:2543   */\n      pop\n        /* \"#utility.yul\":2205:2543   */\n      swap3\n      swap2\n      pop\n      pop\n      jump\t// out\n        /* \"#utility.yul\":2549:3056   */\n    tag_6:\n        /* \"#utility.yul\":2617:2623   */\n      0x00\n        /* \"#utility.yul\":2666:2668   */\n      0x20\n        /* \"#utility.yul\":2654:2663   */\n      dup3\n        /* \"#utility.yul\":2645:2652   */\n      dup5\n        /* \"#utility.yul\":2641:2664   */\n      sub\n        /* \"#utility.yul\":2637:2669   */\n      slt\n        /* \"#utility.yul\":2634:2753   */\n      iszero\n      tag_80\n      jumpi\n        /* \"#utility.yul\":2672:2751   */\n      tag_81\n      tag_25\n      jump\t// in\n    tag_81:\n        /* \"#utility.yul\":2634:2753   */\n    tag_80:\n        /* \"#utility.yul\":2820:2821   */\n      0x00\n        /* \"#utility.yul\":2809:2818   */\n      dup3\n        /* \"#utility.yul\":2805:2822   */\n      add\n        /* \"#utility.yul\":2792:2823   */\n      calldataload\n        /* \"#utility.yul\":2850:2868   */\n      0xffffffffffffffff\n        /* \"#utility.yul\":2842:2848   */\n      dup2\n        /* \"#utility.yul\":2839:2869   */\n      gt\n        /* \"#utility.yul\":2836:2953   */\n      iszero\n      tag_82\n      jumpi\n        /* \"#utility.yul\":2872:2951   */\n      tag_83\n      tag_26\n      jump\t// in\n    tag_83:\n        /* \"#utility.yul\":2836:2953   */\n    tag_82:\n        /* \"#utility.yul\":2977:3039   */\n      tag_84\n        /* \"#utility.yul\":3031:3038   */\n      dup5\n        /* \"#utility.yul\":3022:3028   */\n      dup3\n        /* \"#utility.yul\":3011:3020   */\n      dup6\n        /* \"#utility.yul\":3007:3029   */\n      add\n        /* \"#utility.yul\":2977:3039   */\n      tag_36\n      jump\t// in\n    tag_84:\n        /* \"#utility.yul\":2967:3039   */\n      swap2\n      pop\n        /* \"#utility.yul\":2763:3049   */\n      pop\n        /* \"#utility.yul\":2549:3056   */\n      swap3\n      swap2\n      pop\n      pop\n      jump\t// out\n        /* \"#utility.yul\":3062:3188   */\n    tag_37:\n        /* \"#utility.yul\":3099:3106   */\n      0x00\n        /* \"#utility.yul\":3139:3181   */\n      0xffffffffffffffffffffffffffffffffffffffff\n        /* \"#utility.yul\":3132:3137   */\n      dup3\n        /* \"#utility.yul\":3128:3182   */\n      and\n        /* \"#utility.yul\":3117:3182   */\n      swap1\n      pop\n        /* \"#utility.yul\":3062:3188   */\n      swap2\n      swap1\n      pop\n      jump\t// out\n        /* \"#utility.yul\":3194:3290   */\n    tag_38:\n        /* \"#utility.yul\":3231:3238   */\n      0x00\n        /* \"#utility.yul\":3260:3284   */\n      tag_87\n        /* \"#utility.yul\":3278:3283   */\n      dup3\n        /* \"#utility.yul\":3260:3284   */\n      tag_37\n      jump\t// in\n    tag_87:\n        /* \"#utility.yul\":3249:3284   */\n      swap1\n      pop\n        /* \"#utility.yul\":3194:3290   */\n      swap2\n      swap1\n      pop\n      jump\t// out\n        /* \"#utility.yul\":3296:3414   */\n    tag_39:\n        /* \"#utility.yul\":3383:3407   */\n      tag_89\n        /* \"#utility.yul\":3401:3406   */\n      dup2\n        /* \"#utility.yul\":3383:3407   */\n      tag_38\n      jump\t// in\n    tag_89:\n        /* \"#utility.yul\":3378:3381   */\n      dup3\n        /* \"#utility.yul\":3371:3408   */\n      mstore\n        /* \"#utility.yul\":3296:3414   */\n      pop\n      pop\n      jump\t// out\n        /* \"#utility.yul\":3420:3642   */\n    tag_9:\n        /* \"#utility.yul\":3513:3517   */\n      0x00\n        /* \"#utility.yul\":3551:3553   */\n      0x20\n        /* \"#utility.yul\":3540:3549   */\n      dup3\n        /* \"#utility.yul\":3536:3554   */\n      add\n        /* \"#utility.yul\":3528:3554   */\n      swap1\n      pop\n        /* \"#utility.yul\":3564:3635   */\n      tag_91\n        /* \"#utility.yul\":3632:3633   */\n      0x00\n        /* \"#utility.yul\":3621:3630   */\n      dup4\n        /* \"#utility.yul\":3617:3634   */\n      add\n        /* \"#utility.yul\":3608:3614   */\n      dup5\n        /* \"#utility.yul\":3564:3635   */\n      tag_39\n      jump\t// in\n    tag_91:\n        /* \"#utility.yul\":3420:3642   */\n      swap3\n      swap2\n      pop\n      pop\n      jump\t// out\n        /* \"#utility.yul\":3648:3770   */\n    tag_40:\n        /* \"#utility.yul\":3721:3745   */\n      tag_93\n        /* \"#utility.yul\":3739:3744   */\n      dup2\n        /* \"#utility.yul\":3721:3745   */\n      tag_38\n      jump\t// in\n    tag_93:\n        /* \"#utility.yul\":3714:3719   */\n      dup2\n        /* \"#utility.yul\":3711:3746   */\n      eq\n        /* \"#utility.yul\":3701:3764   */\n      tag_94\n      jumpi\n        /* \"#utility.yul\":3760:3761   */\n      0x00\n        /* \"#utility.yul\":3757:3758   */\n      0x00\n        /* \"#utility.yul\":3750:3762   */\n      revert\n        /* \"#utility.yul\":3701:3764   */\n    tag_94:\n        /* \"#utility.yul\":3648:3770   */\n      pop\n      jump\t// out\n        /* \"#utility.yul\":3776:3915   */\n    tag_41:\n        /* \"#utility.yul\":3822:3827   */\n      0x00\n        /* \"#utility.yul\":3860:3866   */\n      dup2\n        /* \"#utility.yul\":3847:3867   */\n      calldataload\n        /* \"#utility.yul\":3838:3867   */\n      swap1\n      pop\n        /* \"#utility.yul\":3876:3909   */\n      tag_96\n        /* \"#utility.yul\":3903:3908   */\n      dup2\n        /* \"#utility.yul\":3876:3909   */\n      tag_40\n      jump\t// in\n    tag_96:\n        /* \"#utility.yul\":3776:3915   */\n      swap3\n      swap2\n      pop\n      pop\n      jump\t// out\n        /* \"#utility.yul\":3921:4573   */\n    tag_12:\n        /* \"#utility.yul\":3998:4004   */\n      0x00\n        /* \"#utility.yul\":4006:4012   */\n      0x00\n        /* \"#utility.yul\":4055:4057   */\n      0x40\n        /* \"#utility.yul\":4043:4052   */\n      dup4\n        /* \"#utility.yul\":4034:4041   */\n      dup6\n        /* \"#utility.yul\":4030:4053   */\n      sub\n        /* \"#utility.yul\":4026:4058   */\n      slt\n        /* \"#utility.yul\":4023:4142   */\n      iszero\n      tag_98\n      jumpi\n        /* \"#utility.yul\":4061:4140   */\n      tag_99\n      tag_25\n      jump\t// in\n    tag_99:\n        /* \"#utility.yul\":4023:4142   */\n    tag_98:\n        /* \"#utility.yul\":4181:4182   */\n      0x00\n        /* \"#utility.yul\":4206:4259   */\n      tag_100\n        /* \"#utility.yul\":4251:4258   */\n      dup6\n        /* \"#utility.yul\":4242:4248   */\n      dup3\n        /* \"#utility.yul\":4231:4240   */\n      dup7\n        /* \"#utility.yul\":4227:4249   */\n      add\n        /* \"#utility.yul\":4206:4259   */\n      tag_41\n      jump\t// in\n    tag_100:\n        /* \"#utility.yul\":4196:4259   */\n      swap3\n      pop\n        /* \"#utility.yul\":4152:4269   */\n      pop\n        /* \"#utility.yul\":4336:4338   */\n      0x20\n        /* \"#utility.yul\":4325:4334   */\n      dup4\n        /* \"#utility.yul\":4321:4339   */\n      add\n        /* \"#utility.yul\":4308:4340   */\n      calldataload\n        /* \"#utility.yul\":4367:4385   */\n      0xffffffffffffffff\n        /* \"#utility.yul\":4359:4365   */\n      dup2\n        /* \"#utility.yul\":4356:4386   */\n      gt\n        /* \"#utility.yul\":4353:4470   */\n      iszero\n      tag_101\n      jumpi\n        /* \"#utility.yul\":4389:4468   */\n      tag_102\n      tag_26\n      jump\t// in\n    tag_102:\n        /* \"#utility.yul\":4353:4470   */\n    tag_101:\n        /* \"#utility.yul\":4494:4556   */\n      tag_103\n        /* \"#utility.yul\":4548:4555   */\n      dup6\n        /* \"#utility.yul\":4539:4545   */\n      dup3\n        /* \"#utility.yul\":4528:4537   */\n      dup7\n        /* \"#utility.yul\":4524:4546   */\n      add\n        /* \"#utility.yul\":4494:4556   */\n      tag_36\n      jump\t// in\n    tag_103:\n        /* \"#utility.yul\":4484:4556   */\n      swap2\n      pop\n        /* \"#utility.yul\":4279:4566   */\n      pop\n        /* \"#utility.yul\":3921:4573   */\n      swap3\n      pop\n      swap3\n      swap1\n      pop\n      jump\t// out\n        /* \"#utility.yul\":4579:4677   */\n    tag_42:\n        /* \"#utility.yul\":4630:4636   */\n      0x00\n        /* \"#utility.yul\":4664:4669   */\n      dup2\n        /* \"#utility.yul\":4658:4670   */\n      mload\n        /* \"#utility.yul\":4648:4670   */\n      swap1\n      pop\n        /* \"#utility.yul\":4579:4677   */\n      swap2\n      swap1\n      pop\n      jump\t// out\n        /* \"#utility.yul\":4683:4830   */\n    tag_43:\n        /* \"#utility.yul\":4784:4795   */\n      0x00\n        /* \"#utility.yul\":4821:4824   */\n      dup2\n        /* \"#utility.yul\":4806:4824   */\n      swap1\n      pop\n        /* \"#utility.yul\":4683:4830   */\n      swap3\n      swap2\n      pop\n      pop\n      jump\t// out\n        /* \"#utility.yul\":4836:4975   */\n    tag_44:\n        /* \"#utility.yul\":4925:4931   */\n      dup3\n        /* \"#utility.yul\":4920:4923   */\n      dup2\n        /* \"#utility.yul\":4915:4918   */\n      dup4\n        /* \"#utility.yul\":4909:4932   */\n      mcopy\n        /* \"#utility.yul\":4966:4967   */\n      0x00\n        /* \"#utility.yul\":4957:4963   */\n      dup4\n        /* \"#utility.yul\":4952:4955   */\n      dup4\n        /* \"#utility.yul\":4948:4964   */\n      add\n        /* \"#utility.yul\":4941:4968   */\n      mstore\n        /* \"#utility.yul\":4836:4975   */\n      pop\n      pop\n      pop\n      jump\t// out\n        /* \"#utility.yul\":4981:5367   */\n    tag_45:\n        /* \"#utility.yul\":5085:5088   */\n      0x00\n        /* \"#utility.yul\":5113:5151   */\n      tag_108\n        /* \"#utility.yul\":5145:5150   */\n      dup3\n        /* \"#utility.yul\":5113:5151   */\n      tag_42\n      jump\t// in\n    tag_108:\n        /* \"#utility.yul\":5167:5255   */\n      tag_109\n        /* \"#utility.yul\":5248:5254   */\n      dup2\n        /* \"#utility.yul\":5243:5246   */\n      dup6\n        /* \"#utility.yul\":5167:5255   */\n      tag_43\n      jump\t// in\n    tag_109:\n        /* \"#utility.yul\":5160:5255   */\n      swap4\n      pop\n        /* \"#utility.yul\":5264:5329   */\n      tag_110\n        /* \"#utility.yul\":5322:5328   */\n      dup2\n        /* \"#utility.yul\":5317:5320   */\n      dup6\n        /* \"#utility.yul\":5310:5314   */\n      0x20\n        /* \"#utility.yul\":5303:5308   */\n      dup7\n        /* \"#utility.yul\":5299:5315   */\n      add\n        /* \"#utility.yul\":5264:5329   */\n      tag_44\n      jump\t// in\n    tag_110:\n        /* \"#utility.yul\":5354:5360   */\n      dup1\n        /* \"#utility.yul\":5349:5352   */\n      dup5\n        /* \"#utility.yul\":5345:5361   */\n      add\n        /* \"#utility.yul\":5338:5361   */\n      swap2\n      pop\n        /* \"#utility.yul\":5089:5367   */\n      pop\n        /* \"#utility.yul\":4981:5367   */\n      swap3\n      swap2\n      pop\n      pop\n      jump\t// out\n        /* \"#utility.yul\":5373:5644   */\n    tag_17:\n        /* \"#utility.yul\":5503:5506   */\n      0x00\n        /* \"#utility.yul\":5525:5618   */\n      tag_112\n        /* \"#utility.yul\":5614:5617   */\n      dup3\n        /* \"#utility.yul\":5605:5611   */\n      dup5\n        /* \"#utility.yul\":5525:5618   */\n      tag_45\n      jump\t// in\n    tag_112:\n        /* \"#utility.yul\":5518:5618   */\n      swap2\n      pop\n        /* \"#utility.yul\":5635:5638   */\n      dup2\n        /* \"#utility.yul\":5628:5638   */\n      swap1\n      pop\n        /* \"#utility.yul\":5373:5644   */\n      swap3\n      swap2\n      pop\n      pop\n      jump\t// out\n        /* \"#utility.yul\":5650:5819   */\n    tag_46:\n        /* \"#utility.yul\":5734:5745   */\n      0x00\n        /* \"#utility.yul\":5768:5774   */\n      dup3\n        /* \"#utility.yul\":5763:5766   */\n      dup3\n        /* \"#utility.yul\":5756:5775   */\n      mstore\n        /* \"#utility.yul\":5808:5812   */\n      0x20\n        /* \"#utility.yul\":5803:5806   */\n      dup3\n        /* \"#utility.yul\":5799:5813   */\n      add\n        /* \"#utility.yul\":5784:5813   */\n      swap1\n      pop\n        /* \"#utility.yul\":5650:5819   */\n      swap3\n      swap2\n      pop\n      pop\n      jump\t// out\n        /* \"#utility.yul\":5825:5986   */\n    tag_47:\n        /* \"#utility.yul\":5965:5978   */\n      0x63616c6c206661696c6564000000000000000000000000000000000000000000\n        /* \"#utility.yul\":5961:5962   */\n      0x00\n        /* \"#utility.yul\":5953:5959   */\n      dup3\n        /* \"#utility.yul\":5949:5963   */\n      add\n        /* \"#utility.yul\":5942:5979   */\n      mstore\n        /* \"#utility.yul\":5825:5986   */\n      pop\n      jump\t// out\n        /* \"#utility.yul\":5992:6358   */\n    tag_48:\n        /* \"#utility.yul\":6134:6137   */\n      0x00\n        /* \"#utility.yul\":6155:6222   */\n      tag_116\n        /* \"#utility.yul\":6219:6221   */\n      0x0b\n        /* \"#utility.yul\":6214:6217   */\n      dup4\n        /* \"#utility.yul\":6155:6222   */\n      tag_46\n      jump\t// in\n    tag_116:\n        /* \"#utility.yul\":6148:6222   */\n      swap2\n      pop\n        /* \"#utility.yul\":6231:6324   */\n      tag_117\n        /* \"#utility.yul\":6320:6323   */\n      dup3\n        /* \"#utility.yul\":6231:6324   */\n      tag_47\n      jump\t// in\n    tag_117:\n        /* \"#utility.yul\":6349:6351   */\n      0x20\n        /* \"#utility.yul\":6344:6347   */\n      dup3\n        /* \"#utility.yul\":6340:6352   */\n      add\n        /* \"#utility.yul\":6333:6352   */\n      swap1\n      pop\n        /* \"#utility.yul\":5992:6358   */\n      swap2\n      swap1\n      pop\n      jump\t// out\n        /* \"#utility.yul\":6364:6783   */\n    tag_23:\n        /* \"#utility.yul\":6530:6534   */\n      0x00\n        /* \"#utility.yul\":6568:6570   */\n      0x20\n        /* \"#utility.yul\":6557:6566   */\n      dup3\n        /* \"#utility.yul\":6553:6571   */\n      add\n        /* \"#utility.yul\":6545:6571   */\n      swap1\n      pop\n        /* \"#utility.yul\":6617:6626   */\n      dup2\n        /* \"#utility.yul\":6611:6615   */\n      dup2\n        /* \"#utility.yul\":6607:6627   */\n      sub\n        /* \"#utility.yul\":6603:6604   */\n      0x00\n        /* \"#utility.yul\":6592:6601   */\n      dup4\n        /* \"#utility.yul\":6588:6605   */\n      add\n        /* \"#utility.yul\":6581:6628   */\n      mstore\n        /* \"#utility.yul\":6645:6776   */\n      tag_119\n        /* \"#utility.yul\":6771:6775   */\n      dup2\n        /* \"#utility.yul\":6645:6776   */\n      tag_48\n      jump\t// in\n    tag_119:\n        /* \"#utility.yul\":6637:6776   */\n      swap1\n      pop\n        /* \"#utility.yul\":6364:6783   */\n      swap2\n      swap1\n      pop\n      jump\t// out\n\n    auxdata: 0xa26469706673582212200a9b0b359235856ecdb3d56598903242d82981302c7a9cb0d0f022a07450c21e64736f6c63430008220033\n}\n",
				"bytecode": {
					"linkReferences": {},
					"object": "6080604052348015600e575f5ffd5b506104bc8061001c5f395ff3fe608060405260043610610027575f3560e01c80627743601461002b5780631cff79cd1461005b575b5f5ffd5b61004560048036038101906100409190610283565b610077565b6040516100529190610309565b60405180910390f35b6100756004803603810190610070919061034c565b610087565b005b5f81516020830134f09050919050565b5f8273ffffffffffffffffffffffffffffffffffffffff1634836040516100ae91906103f8565b5f6040518083038185875af1925050503d805f81146100e8576040519150601f19603f3d011682016040523d82523d5f602084013e6100ed565b606091505b5050905080610131576040517f08c379a000000000000000000000000000000000000000000000000000000000815260040161012890610468565b60405180910390fd5b505050565b5f604051905090565b5f5ffd5b5f5ffd5b5f5ffd5b5f5ffd5b5f601f19601f8301169050919050565b7f4e487b71000000000000000000000000000000000000000000000000000000005f52604160045260245ffd5b6101958261014f565b810181811067ffffffffffffffff821117156101b4576101b361015f565b5b80604052505050565b5f6101c6610136565b90506101d2828261018c565b919050565b5f67ffffffffffffffff8211156101f1576101f061015f565b5b6101fa8261014f565b9050602081019050919050565b828183375f83830152505050565b5f610227610222846101d7565b6101bd565b9050828152602081018484840111156102435761024261014b565b5b61024e848285610207565b509392505050565b5f82601f83011261026a57610269610147565b5b813561027a848260208601610215565b91505092915050565b5f602082840312156102985761029761013f565b5b5f82013567ffffffffffffffff8111156102b5576102b4610143565b5b6102c184828501610256565b91505092915050565b5f73ffffffffffffffffffffffffffffffffffffffff82169050919050565b5f6102f3826102ca565b9050919050565b610303816102e9565b82525050565b5f60208201905061031c5f8301846102fa565b92915050565b61032b816102e9565b8114610335575f5ffd5b50565b5f8135905061034681610322565b92915050565b5f5f604083850312156103625761036161013f565b5b5f61036f85828601610338565b925050602083013567ffffffffffffffff8111156103905761038f610143565b5b61039c85828601610256565b9150509250929050565b5f81519050919050565b5f81905092915050565b8281835e5f83830152505050565b5f6103d2826103a6565b6103dc81856103b0565b93506103ec8185602086016103ba565b80840191505092915050565b5f61040382846103c8565b915081905092915050565b5f82825260208201905092915050565b7f63616c6c206661696c65640000000000000000000000000000000000000000005f82015250565b5f610452600b8361040e565b915061045d8261041e565b602082019050919050565b5f6020820190508181035f83015261047f81610446565b905091905056fea26469706673582212200a9b0b359235856ecdb3d56598903242d82981302c7a9cb0d0f022a07450c21e64736f6c63430008220033",
					"opcodes": "PUSH1 0x80 PUSH1 0x40 MSTORE CALLVALUE DUP1 ISZERO PUSH1 0xE JUMPI PUSH0 PUSH0 REVERT JUMPDEST POP PUSH2 0x4BC DUP1 PUSH2 0x1C PUSH0 CODECOPY PUSH0 RETURN INVALID PUSH1 0x80 PUSH1 0x40 MSTORE PUSH1 0x4 CALLDATASIZE LT PUSH2 0x27 JUMPI PUSH0 CALLDATALOAD PUSH1 0xE0 SHR DUP1 PUSH3 0x774360 EQ PUSH2 0x2B JUMPI DUP1 PUSH4 0x1CFF79CD EQ PUSH2 0x5B JUMPI JUMPDEST PUSH0 PUSH0 REVERT JUMPDEST PUSH2 0x45 PUSH1 0x4 DUP1 CALLDATASIZE SUB DUP2 ADD SWAP1 PUSH2 0x40 SWAP2 SWAP1 PUSH2 0x283 JUMP JUMPDEST PUSH2 0x77 JUMP JUMPDEST PUSH1 0x40 MLOAD PUSH2 0x52 SWAP2 SWAP1 PUSH2 0x309 JUMP JUMPDEST PUSH1 0x40 MLOAD DUP1 SWAP2 SUB SWAP1 RETURN JUMPDEST PUSH2 0x75 PUSH1 0x4 DUP1 CALLDATASIZE SUB DUP2 ADD SWAP1 PUSH2 0x70 SWAP2 SWAP1 PUSH2 0x34C JUMP JUMPDEST PUSH2 0x87 JUMP JUMPDEST STOP JUMPDEST PUSH0 DUP2 MLOAD PUSH1 0x20 DUP4 ADD CALLVALUE CREATE SWAP1 POP SWAP2 SWAP1 POP JUMP JUMPDEST PUSH0 DUP3 PUSH20 0xFFFFFFFFFFFFFFFFFFFFFFFFFFFFFFFFFFFFFFFF AND CALLVALUE DUP4 PUSH1 0x40 MLOAD PUSH2 0xAE SWAP2 SWAP1 PUSH2 0x3F8 JUMP JUMPDEST PUSH0 PUSH1 0x40 MLOAD DUP1 DUP4 SUB DUP2 DUP6 DUP8 GAS CALL SWAP3 POP POP POP RETURNDATASIZE DUP1 PUSH0 DUP2 EQ PUSH2 0xE8 JUMPI PUSH1 0x40 MLOAD SWAP2 POP PUSH1 0x1F NOT PUSH1 0x3F RETURNDATASIZE ADD AND DUP3 ADD PUSH1 0x40 MSTORE RETURNDATASIZE DUP3 MSTORE RETURNDATASIZE PUSH0 PUSH1 0x20 DUP5 ADD RETURNDATACOPY PUSH2 0xED JUMP JUMPDEST PUSH1 0x60 SWAP2 POP JUMPDEST POP POP SWAP1 POP DUP1 PUSH2 0x131 JUMPI PUSH1 0x40 MLOAD PUSH32 0x8C379A000000000000000000000000000000000000000000000000000000000 DUP2 MSTORE PUSH1 0x4 ADD PUSH2 0x128 SWAP1 PUSH2 0x468 JUMP JUMPDEST PUSH1 0x40 MLOAD DUP1 SWAP2 SUB SWAP1 REVERT JUMPDEST POP POP POP JUMP JUMPDEST PUSH0 PUSH1 0x40 MLOAD SWAP1 POP SWAP1 JUMP JUMPDEST PUSH0 PUSH0 REVERT JUMPDEST PUSH0 PUSH0 REVERT JUMPDEST PUSH0 PUSH0 REVERT JUMPDEST PUSH0 PUSH0 REVERT JUMPDEST PUSH0 PUSH1 0x1F NOT PUSH1 0x1F DUP4 ADD AND SWAP1 POP SWAP2 SWAP1 POP JUMP JUMPDEST PUSH32 0x4E487B7100000000000000000000000000000000000000000000000000000000 PUSH0 MSTORE PUSH1 0x41 PUSH1 0x4 MSTORE PUSH1 0x24 PUSH0 REVERT JUMPDEST PUSH2 0x195 DUP3 PUSH2 0x14F JUMP JUMPDEST DUP2 ADD DUP2 DUP2 LT PUSH8 0xFFFFFFFFFFFFFFFF DUP3 GT OR ISZERO PUSH2 0x1B4 JUMPI PUSH2 0x1B3 PUSH2 0x15F JUMP JUMPDEST JUMPDEST DUP1 PUSH1 0x40 MSTORE POP POP POP JUMP JUMPDEST PUSH0 PUSH2 0x1C6 PUSH2 0x136 JUMP JUMPDEST SWAP1 POP PUSH2 0x1D2 DUP3 DUP3 PUSH2 0x18C JUMP JUMPDEST SWAP2 SWAP1 POP JUMP JUMPDEST PUSH0 PUSH8 0xFFFFFFFFFFFFFFFF DUP3 GT ISZERO PUSH2 0x1F1 JUMPI PUSH2 0x1F0 PUSH2 0x15F JUMP JUMPDEST JUMPDEST PUSH2 0x1FA DUP3 PUSH2 0x14F JUMP JUMPDEST SWAP1 POP PUSH1 0x20 DUP2 ADD SWAP1 POP SWAP2 SWAP1 POP JUMP JUMPDEST DUP3 DUP2 DUP4 CALLDATACOPY PUSH0 DUP4 DUP4 ADD MSTORE POP POP POP JUMP JUMPDEST PUSH0 PUSH2 0x227 PUSH2 0x222 DUP5 PUSH2 0x1D7 JUMP JUMPDEST PUSH2 0x1BD JUMP JUMPDEST SWAP1 POP DUP3 DUP2 MSTORE PUSH1 0x20 DUP2 ADD DUP5 DUP5 DUP5 ADD GT ISZERO PUSH2 0x243 JUMPI PUSH2 0x242 PUSH2 0x14B JUMP JUMPDEST JUMPDEST PUSH2 0x24E DUP5 DUP3 DUP6 PUSH2 0x207 JUMP JUMPDEST POP SWAP4 SWAP3 POP POP POP JUMP JUMPDEST PUSH0 DUP3 PUSH1 0x1F DUP4 ADD SLT PUSH2 0x26A JUMPI PUSH2 0x269 PUSH2 0x147 JUMP JUMPDEST JUMPDEST DUP2 CALLDATALOAD PUSH2 0x27A DUP5 DUP3 PUSH1 0x20 DUP7 ADD PUSH2 0x215 JUMP JUMPDEST SWAP2 POP POP SWAP3 SWAP2 POP POP JUMP JUMPDEST PUSH0 PUSH1 0x20 DUP3 DUP5 SUB SLT ISZERO PUSH2 0x298 JUMPI PUSH2 0x297 PUSH2 0x13F JUMP JUMPDEST JUMPDEST PUSH0 DUP3 ADD CALLDATALOAD PUSH8 0xFFFFFFFFFFFFFFFF DUP2 GT ISZERO PUSH2 0x2B5 JUMPI PUSH2 0x2B4 PUSH2 0x143 JUMP JUMPDEST JUMPDEST PUSH2 0x2C1 DUP5 DUP3 DUP6 ADD PUSH2 0x256 JUMP JUMPDEST SWAP2 POP POP SWAP3 SWAP2 POP POP JUMP JUMPDEST PUSH0 PUSH20 0xFFFFFFFFFFFFFFFFFFFFFFFFFFFFFFFFFFFFFFFF DUP3 AND SWAP1 POP SWAP2 SWAP1 POP JUMP JUMPDEST PUSH0 PUSH2 0x2F3 DUP3 PUSH2 0x2CA JUMP JUMPDEST SWAP1 POP SWAP2 SWAP1 POP JUMP JUMPDEST PUSH2 0x303 DUP2 PUSH2 0x2E9 JUMP JUMPDEST DUP3 MSTORE POP POP JUMP JUMPDEST PUSH0 PUSH1 0x20 DUP3 ADD SWAP1 POP PUSH2 0x31C PUSH0 DUP4 ADD DUP5 PUSH2 0x2FA JUMP JUMPDEST SWAP3 SWAP2 POP POP JUMP JUMPDEST PUSH2 0x32B DUP2 PUSH2 0x2E9 JUMP JUMPDEST DUP2 EQ PUSH2 0x335 JUMPI PUSH0 PUSH0 REVERT JUMPDEST POP JUMP JUMPDEST PUSH0 DUP2 CALLDATALOAD SWAP1 POP PUSH2 0x346 DUP2 PUSH2 0x322 JUMP JUMPDEST SWAP3 SWAP2 POP POP JUMP JUMPDEST PUSH0 PUSH0 PUSH1 0x40 DUP4 DUP6 SUB SLT ISZERO PUSH2 0x362 JUMPI PUSH2 0x361 PUSH2 0x13F JUMP JUMPDEST JUMPDEST PUSH0 PUSH2 0x36F DUP6 DUP3 DUP7 ADD PUSH2 0x338 JUMP JUMPDEST SWAP3 POP POP PUSH1 0x20 DUP4 ADD CALLDATALOAD PUSH8 0xFFFFFFFFFFFFFFFF DUP2 GT ISZERO PUSH2 0x390 JUMPI PUSH2 0x38F PUSH2 0x143 JUMP JUMPDEST JUMPDEST PUSH2 0x39C DUP6 DUP3 DUP7 ADD PUSH2 0x256 JUMP JUMPDEST SWAP2 POP POP SWAP3 POP SWAP3 SWAP1 POP JUMP JUMPDEST PUSH0 DUP2 MLOAD SWAP1 POP SWAP2 SWAP1 POP JUMP JUMPDEST PUSH0 DUP2 SWAP1 POP SWAP3 SWAP2 POP POP JUMP JUMPDEST DUP3 DUP2 DUP4 MCOPY PUSH0 DUP4 DUP4 ADD MSTORE POP POP POP JUMP JUMPDEST PUSH0 PUSH2 0x3D2 DUP3 PUSH2 0x3A6 JUMP JUMPDEST PUSH2 0x3DC DUP2 DUP6 PUSH2 0x3B0 JUMP JUMPDEST SWAP4 POP PUSH2 0x3EC DUP2 DUP6 PUSH1 0x20 DUP7 ADD PUSH2 0x3BA JUMP JUMPDEST DUP1 DUP5 ADD SWAP2 POP POP SWAP3 SWAP2 POP POP JUMP JUMPDEST PUSH0 PUSH2 0x403 DUP3 DUP5 PUSH2 0x3C8 JUMP JUMPDEST SWAP2 POP DUP2 SWAP1 POP SWAP3 SWAP2 POP POP JUMP JUMPDEST PUSH0 DUP3 DUP3 MSTORE PUSH1 0x20 DUP3 ADD SWAP1 POP SWAP3 SWAP2 POP POP JUMP JUMPDEST PUSH32 0x63616C6C206661696C6564000000000000000000000000000000000000000000 PUSH0 DUP3 ADD MSTORE POP JUMP JUMPDEST PUSH0 PUSH2 0x452 PUSH1 0xB DUP4 PUSH2 0x40E JUMP JUMPDEST SWAP2 POP PUSH2 0x45D DUP3 PUSH2 0x41E JUMP JUMPDEST PUSH1 0x20 DUP3 ADD SWAP1 POP SWAP2 SWAP1 POP JUMP JUMPDEST PUSH0 PUSH1 0x20 DUP3 ADD SWAP1 POP DUP2 DUP2 SUB PUSH0 DUP4 ADD MSTORE PUSH2 0x47F DUP2 PUSH2 0x446 JUMP JUMPDEST SWAP1 POP SWAP2 SWAP1 POP JUMP INVALID LOG2 PUSH5 0x6970667358 0x22 SLT KECCAK256 EXP SWAP12 SIGNEXTEND CALLDATALOAD SWAP3 CALLDATALOAD DUP6 PUSH15 0xCDB3D56598903242D82981302C7A9C 0xB0 0xD0 CREATE 0x22 LOG0 PUSH21 0x50C21E64736F6C6343000822003300000000000000 "
				},
				"gasEstimates": {
					"creation": {
						"codeDepositCost": "242400",
						"executionCost": "279",
						"totalCost": "242679"
					},
					"external": {
						"deploy(bytes)": "infinite",
						"execute(address,bytes)": "infinite"
					}
				},
				"methodIdentifiers": {
					"deploy(bytes)": "00774360",
					"execute(address,bytes)": "1cff79cd"
				}
			},
			"storageLayout": {
				"storage": [],
				"types": null
			},
			"userdoc": {
				"kind": "user",
				"methods": {},
				"version": 1
			}
		}
	}
}