{
	"solidity高级应用/通过字节码部署任意合约.sol": {
		"Contract2": {
			"abi": [
				{
					"inputs": [
						{
							"internalType": "uint256",
							"name": "_x",
							"type": "uint256"
						},
						{
							"internalType": "uint256",
							"name": "_y",
							"type": "uint256"
						}
					],
					"stateMutability": "payable",
					"type": "constructor"
				},
				{
					"inputs": [],
					"name": "owner",
					"outputs": [
						{
							"internalType": "address",
							"name": "",
							"type": "address"
						}
					],
					"stateMutability": "view",
					"type": "function"
				},
				{
					"inputs": [],
					"name": "value",
					"outputs": [
						{
							"internalType": "uint256",
							"name": "",
							"type": "uint256"
						}
					],
					"stateMutability": "view",
					"type": "function"
				},
				{
					"inputs": [],
					"name": "x",
					"outputs": [
						{
							"internalType": "uint256",
							"name": "",
							"type": "uint256"
						}
					],
					"stateMutability": "view",
					"type": "function"
				},
				{
					"inputs": [],
					"name": "y",
					"outputs": [
						{
							"internalType": "uint256",
							"name": "",
							"type": "uint256"
						}
					],
					"stateMutability": "view",
					"type": "function"
				}
			],
			"devdoc": {
				"kind": "dev",
				"methods": {},
				"version": 1
			},
			"evm": {
				"assembly": "    /* \"solidity\\xe9\\xab\\x98\\xe7\\xba\\xa7\\xe5\\xba\\x94\\xe7\\x94\\xa8/\\xe9\\x80\\x9a\\xe8\\xbf\\x87\\xe5\\xad\\x97\\xe8\\x8a\\x82\\xe7\\xa0\\x81\\xe9\\x83\\xa8\\xe7\\xbd\\xb2\\xe4\\xbb\\xbb\\xe6\\x84\\x8f\\xe5\\x90\\x88\\xe7\\xba\\xa6.sol\":851:1079  contract Contract2 {... */\n  mstore(0x40, 0x80)\n    /* \"solidity\\xe9\\xab\\x98\\xe7\\xba\\xa7\\xe5\\xba\\x94\\xe7\\x94\\xa8/\\xe9\\x80\\x9a\\xe8\\xbf\\x87\\xe5\\xad\\x97\\xe8\\x8a\\x82\\xe7\\xa0\\x81\\xe9\\x83\\xa8\\xe7\\xbd\\xb2\\xe4\\xbb\\xbb\\xe6\\x84\\x8f\\xe5\\x90\\x88\\xe7\\xba\\xa6.sol\":900:910  msg.sender */\n  caller\n    /* \"solidity\\xe9\\xab\\x98\\xe7\\xba\\xa7\\xe5\\xba\\x94\\xe7\\x94\\xa8/\\xe9\\x80\\x9a\\xe8\\xbf\\x87\\xe5\\xad\\x97\\xe8\\x8a\\x82\\xe7\\xa0\\x81\\xe9\\x83\\xa8\\xe7\\xbd\\xb2\\xe4\\xbb\\xbb\\xe6\\x84\\x8f\\xe5\\x90\\x88\\xe7\\xba\\xa6.sol\":877:910  address public owner = msg.sender */\n  0x00\n  exp(0x0100, 0x00)\n  dup2\n  sload\n  dup2\n  0xffffffffffffffffffffffffffffffffffffffff\n  mul\n  not\n  and\n  swap1\n  dup4\n  0xffffffffffffffffffffffffffffffffffffffff\n  and\n  mul\n  or\n  swap1\n  sstore\n  pop\n    /* \"solidity\\xe9\\xab\\x98\\xe7\\xba\\xa7\\xe5\\xba\\x94\\xe7\\x94\\xa8/\\xe9\\x80\\x9a\\xe8\\xbf\\x87\\xe5\\xad\\x97\\xe8\\x8a\\x82\\xe7\\xa0\\x81\\xe9\\x83\\xa8\\xe7\\xbd\\xb2\\xe4\\xbb\\xbb\\xe6\\x84\\x8f\\xe5\\x90\\x88\\xe7\\xba\\xa6.sol\":937:946  msg.value */\n  callvalue\n    /* \"solidity\\xe9\\xab\\x98\\xe7\\xba\\xa7\\xe5\\xba\\x94\\xe7\\x94\\xa8/\\xe9\\x80\\x9a\\xe8\\xbf\\x87\\xe5\\xad\\x97\\xe8\\x8a\\x82\\xe7\\xa0\\x81\\xe9\\x83\\xa8\\xe7\\xbd\\xb2\\xe4\\xbb\\xbb\\xe6\\x84\\x8f\\xe5\\x90\\x88\\xe7\\xba\\xa6.sol\":917:946  uint public value = msg.value */\n  0x01\n  sstore\n    /* \"solidity\\xe9\\xab\\x98\\xe7\\xba\\xa7\\xe5\\xba\\x94\\xe7\\x94\\xa8/\\xe9\\x80\\x9a\\xe8\\xbf\\x87\\xe5\\xad\\x97\\xe8\\x8a\\x82\\xe7\\xa0\\x81\\xe9\\x83\\xa8\\xe7\\xbd\\xb2\\xe4\\xbb\\xbb\\xe6\\x84\\x8f\\xe5\\x90\\x88\\xe7\\xba\\xa6.sol\":997:1076  constructor(uint _x,uint _y) payable {... */\n  mload(0x40)\n  sub(codesize, bytecodeSize)\n  dup1\n  bytecodeSize\n  dup4\n  codecopy\n  dup2\n  dup2\n  add\n  0x40\n  mstore\n  dup2\n  add\n  swap1\n  tag_1\n  swap2\n  swap1\n  tag_2\n  jump\t// in\ntag_1:\n    /* \"solidity\\xe9\\xab\\x98\\xe7\\xba\\xa7\\xe5\\xba\\x94\\xe7\\x94\\xa8/\\xe9\\x80\\x9a\\xe8\\xbf\\x87\\xe5\\xad\\x97\\xe8\\x8a\\x82\\xe7\\xa0\\x81\\xe9\\x83\\xa8\\xe7\\xbd\\xb2\\xe4\\xbb\\xbb\\xe6\\x84\\x8f\\xe5\\x90\\x88\\xe7\\xba\\xa6.sol\":1049:1051  _x */\n  dup2\n    /* \"solidity\\xe9\\xab\\x98\\xe7\\xba\\xa7\\xe5\\xba\\x94\\xe7\\x94\\xa8/\\xe9\\x80\\x9a\\xe8\\xbf\\x87\\xe5\\xad\\x97\\xe8\\x8a\\x82\\xe7\\xa0\\x81\\xe9\\x83\\xa8\\xe7\\xbd\\xb2\\xe4\\xbb\\xbb\\xe6\\x84\\x8f\\xe5\\x90\\x88\\xe7\\xba\\xa6.sol\":1045:1046  x */\n  0x02\n    /* \"solidity\\xe9\\xab\\x98\\xe7\\xba\\xa7\\xe5\\xba\\x94\\xe7\\x94\\xa8/\\xe9\\x80\\x9a\\xe8\\xbf\\x87\\xe5\\xad\\x97\\xe8\\x8a\\x82\\xe7\\xa0\\x81\\xe9\\x83\\xa8\\xe7\\xbd\\xb2\\xe4\\xbb\\xbb\\xe6\\x84\\x8f\\xe5\\x90\\x88\\xe7\\xba\\xa6.sol\":1045:1051  x = _x */\n  dup2\n  swap1\n  sstore\n  pop\n    /* \"solidity\\xe9\\xab\\x98\\xe7\\xba\\xa7\\xe5\\xba\\x94\\xe7\\x94\\xa8/\\xe9\\x80\\x9a\\xe8\\xbf\\x87\\xe5\\xad\\x97\\xe8\\x8a\\x82\\xe7\\xa0\\x81\\xe9\\x83\\xa8\\xe7\\xbd\\xb2\\xe4\\xbb\\xbb\\xe6\\x84\\x8f\\xe5\\x90\\x88\\xe7\\xba\\xa6.sol\":1066:1068  _y */\n  dup1\n    /* \"solidity\\xe9\\xab\\x98\\xe7\\xba\\xa7\\xe5\\xba\\x94\\xe7\\x94\\xa8/\\xe9\\x80\\x9a\\xe8\\xbf\\x87\\xe5\\xad\\x97\\xe8\\x8a\\x82\\xe7\\xa0\\x81\\xe9\\x83\\xa8\\xe7\\xbd\\xb2\\xe4\\xbb\\xbb\\xe6\\x84\\x8f\\xe5\\x90\\x88\\xe7\\xba\\xa6.sol\":1062:1063  y */\n  0x03\n    /* \"solidity\\xe9\\xab\\x98\\xe7\\xba\\xa7\\xe5\\xba\\x94\\xe7\\x94\\xa8/\\xe9\\x80\\x9a\\xe8\\xbf\\x87\\xe5\\xad\\x97\\xe8\\x8a\\x82\\xe7\\xa0\\x81\\xe9\\x83\\xa8\\xe7\\xbd\\xb2\\xe4\\xbb\\xbb\\xe6\\x84\\x8f\\xe5\\x90\\x88\\xe7\\xba\\xa6.sol\":1062:1068  y = _y */\n  dup2\n  swap1\n  sstore\n  pop\n    /* \"solidity\\xe9\\xab\\x98\\xe7\\xba\\xa7\\xe5\\xba\\x94\\xe7\\x94\\xa8/\\xe9\\x80\\x9a\\xe8\\xbf\\x87\\xe5\\xad\\x97\\xe8\\x8a\\x82\\xe7\\xa0\\x81\\xe9\\x83\\xa8\\xe7\\xbd\\xb2\\xe4\\xbb\\xbb\\xe6\\x84\\x8f\\xe5\\x90\\x88\\xe7\\xba\\xa6.sol\":997:1076  constructor(uint _x,uint _y) payable {... */\n  pop\n  pop\n    /* \"solidity\\xe9\\xab\\x98\\xe7\\xba\\xa7\\xe5\\xba\\x94\\xe7\\x94\\xa8/\\xe9\\x80\\x9a\\xe8\\xbf\\x87\\xe5\\xad\\x97\\xe8\\x8a\\x82\\xe7\\xa0\\x81\\xe9\\x83\\xa8\\xe7\\xbd\\xb2\\xe4\\xbb\\xbb\\xe6\\x84\\x8f\\xe5\\x90\\x88\\xe7\\xba\\xa6.sol\":851:1079  contract Contract2 {... */\n  jump(tag_5)\n    /* \"#utility.yul\":88:205   */\ntag_7:\n    /* \"#utility.yul\":197:198   */\n  0x00\n    /* \"#utility.yul\":194:195   */\n  0x00\n    /* \"#utility.yul\":187:199   */\n  revert\n    /* \"#utility.yul\":334:411   */\ntag_9:\n    /* \"#utility.yul\":371:378   */\n  0x00\n    /* \"#utility.yul\":400:405   */\n  dup2\n    /* \"#utility.yul\":389:405   */\n  swap1\n  pop\n    /* \"#utility.yul\":334:411   */\n  swap2\n  swap1\n  pop\n  jump\t// out\n    /* \"#utility.yul\":417:539   */\ntag_10:\n    /* \"#utility.yul\":490:514   */\n  tag_18\n    /* \"#utility.yul\":508:513   */\n  dup2\n    /* \"#utility.yul\":490:514   */\n  tag_9\n  jump\t// in\ntag_18:\n    /* \"#utility.yul\":483:488   */\n  dup2\n    /* \"#utility.yul\":480:515   */\n  eq\n    /* \"#utility.yul\":470:533   */\n  tag_19\n  jumpi\n    /* \"#utility.yul\":529:530   */\n  0x00\n    /* \"#utility.yul\":526:527   */\n  0x00\n    /* \"#utility.yul\":519:531   */\n  revert\n    /* \"#utility.yul\":470:533   */\ntag_19:\n    /* \"#utility.yul\":417:539   */\n  pop\n  jump\t// out\n    /* \"#utility.yul\":545:688   */\ntag_11:\n    /* \"#utility.yul\":602:607   */\n  0x00\n    /* \"#utility.yul\":633:639   */\n  dup2\n    /* \"#utility.yul\":627:640   */\n  mload\n    /* \"#utility.yul\":618:640   */\n  swap1\n  pop\n    /* \"#utility.yul\":649:682   */\n  tag_21\n    /* \"#utility.yul\":676:681   */\n  dup2\n    /* \"#utility.yul\":649:682   */\n  tag_10\n  jump\t// in\ntag_21:\n    /* \"#utility.yul\":545:688   */\n  swap3\n  swap2\n  pop\n  pop\n  jump\t// out\n    /* \"#utility.yul\":694:1201   */\ntag_2:\n    /* \"#utility.yul\":773:779   */\n  0x00\n    /* \"#utility.yul\":781:787   */\n  0x00\n    /* \"#utility.yul\":830:832   */\n  0x40\n    /* \"#utility.yul\":818:827   */\n  dup4\n    /* \"#utility.yul\":809:816   */\n  dup6\n    /* \"#utility.yul\":805:828   */\n  sub\n    /* \"#utility.yul\":801:833   */\n  slt\n    /* \"#utility.yul\":798:917   */\n  iszero\n  tag_23\n  jumpi\n    /* \"#utility.yul\":836:915   */\n  tag_24\n  tag_7\n  jump\t// in\ntag_24:\n    /* \"#utility.yul\":798:917   */\ntag_23:\n    /* \"#utility.yul\":956:957   */\n  0x00\n    /* \"#utility.yul\":981:1045   */\n  tag_25\n    /* \"#utility.yul\":1037:1044   */\n  dup6\n    /* \"#utility.yul\":1028:1034   */\n  dup3\n    /* \"#utility.yul\":1017:1026   */\n  dup7\n    /* \"#utility.yul\":1013:1035   */\n  add\n    /* \"#utility.yul\":981:1045   */\n  tag_11\n  jump\t// in\ntag_25:\n    /* \"#utility.yul\":971:1045   */\n  swap3\n  pop\n    /* \"#utility.yul\":927:1055   */\n  pop\n    /* \"#utility.yul\":1094:1096   */\n  0x20\n    /* \"#utility.yul\":1120:1184   */\n  tag_26\n    /* \"#utility.yul\":1176:1183   */\n  dup6\n    /* \"#utility.yul\":1167:1173   */\n  dup3\n    /* \"#utility.yul\":1156:1165   */\n  dup7\n    /* \"#utility.yul\":1152:1174   */\n  add\n    /* \"#utility.yul\":1120:1184   */\n  tag_11\n  jump\t// in\ntag_26:\n    /* \"#utility.yul\":1110:1184   */\n  swap2\n  pop\n    /* \"#utility.yul\":1065:1194   */\n  pop\n    /* \"#utility.yul\":694:1201   */\n  swap3\n  pop\n  swap3\n  swap1\n  pop\n  jump\t// out\n    /* \"solidity\\xe9\\xab\\x98\\xe7\\xba\\xa7\\xe5\\xba\\x94\\xe7\\x94\\xa8/\\xe9\\x80\\x9a\\xe8\\xbf\\x87\\xe5\\xad\\x97\\xe8\\x8a\\x82\\xe7\\xa0\\x81\\xe9\\x83\\xa8\\xe7\\xbd\\xb2\\xe4\\xbb\\xbb\\xe6\\x84\\x8f\\xe5\\x90\\x88\\xe7\\xba\\xa6.sol\":851:1079  contract Contract2 {... */\ntag_5:\n  dataSize(sub_0)\n  dup1\n  dataOffset(sub_0)\n  0x00\n  codecopy\n  0x00\n  return\nstop\n\nsub_0: assembly {\n        /* \"solidity\\xe9\\xab\\x98\\xe7\\xba\\xa7\\xe5\\xba\\x94\\xe7\\x94\\xa8/\\xe9\\x80\\x9a\\xe8\\xbf\\x87\\xe5\\xad\\x97\\xe8\\x8a\\x82\\xe7\\xa0\\x81\\xe9\\x83\\xa8\\xe7\\xbd\\xb2\\xe4\\xbb\\xbb\\xe6\\x84\\x8f\\xe5\\x90\\x88\\xe7\\xba\\xa6.sol\":851:1079  contract Contract2 {... */\n      mstore(0x40, 0x80)\n      callvalue\n      dup1\n      iszero\n      tag_1\n      jumpi\n      revert(0x00, 0x00)\n    tag_1:\n      pop\n      jumpi(tag_2, lt(calldatasize, 0x04))\n      shr(0xe0, calldataload(0x00))\n      dup1\n      0x0c55699c\n      eq\n      tag_3\n      jumpi\n      dup1\n      0x3fa4f245\n      eq\n      tag_4\n      jumpi\n      dup1\n      0x8da5cb5b\n      eq\n      tag_5\n      jumpi\n      dup1\n      0xa56dfe4a\n      eq\n      tag_6\n      jumpi\n    tag_2:\n      revert(0x00, 0x00)\n        /* \"solidity\\xe9\\xab\\x98\\xe7\\xba\\xa7\\xe5\\xba\\x94\\xe7\\x94\\xa8/\\xe9\\x80\\x9a\\xe8\\xbf\\x87\\xe5\\xad\\x97\\xe8\\x8a\\x82\\xe7\\xa0\\x81\\xe9\\x83\\xa8\\xe7\\xbd\\xb2\\xe4\\xbb\\xbb\\xe6\\x84\\x8f\\xe5\\x90\\x88\\xe7\\xba\\xa6.sol\":953:966  uint public x */\n    tag_3:\n      tag_7\n      tag_8\n      jump\t// in\n    tag_7:\n      mload(0x40)\n      tag_9\n      swap2\n      swap1\n      tag_10\n      jump\t// in\n    tag_9:\n      mload(0x40)\n      dup1\n      swap2\n      sub\n      swap1\n      return\n        /* \"solidity\\xe9\\xab\\x98\\xe7\\xba\\xa7\\xe5\\xba\\x94\\xe7\\x94\\xa8/\\xe9\\x80\\x9a\\xe8\\xbf\\x87\\xe5\\xad\\x97\\xe8\\x8a\\x82\\xe7\\xa0\\x81\\xe9\\x83\\xa8\\xe7\\xbd\\xb2\\xe4\\xbb\\xbb\\xe6\\x84\\x8f\\xe5\\x90\\x88\\xe7\\xba\\xa6.sol\":917:946  uint public value = msg.value */\n    tag_4:\n      tag_11\n      tag_12\n      jump\t// in\n    tag_11:\n      mload(0x40)\n      tag_13\n      swap2\n      swap1\n      tag_10\n      jump\t// in\n    tag_13:\n      mload(0x40)\n      dup1\n      swap2\n      sub\n      swap1\n      return\n        /* \"solidity\\xe9\\xab\\x98\\xe7\\xba\\xa7\\xe5\\xba\\x94\\xe7\\x94\\xa8/\\xe9\\x80\\x9a\\xe8\\xbf\\x87\\xe5\\xad\\x97\\xe8\\x8a\\x82\\xe7\\xa0\\x81\\xe9\\x83\\xa8\\xe7\\xbd\\xb2\\xe4\\xbb\\xbb\\xe6\\x84\\x8f\\xe5\\x90\\x88\\xe7\\xba\\xa6.sol\":877:910  address public owner = msg.sender */\n    tag_5:\n      tag_14\n      tag_15\n      jump\t// in\n    tag_14:\n      mload(0x40)\n      tag_16\n      swap2\n      swap1\n      tag_17\n      jump\t// in\n    tag_16:\n      mload(0x40)\n      dup1\n      swap2\n      sub\n      swap1\n      return\n        /* \"solidity\\xe9\\xab\\x98\\xe7\\xba\\xa7\\xe5\\xba\\x94\\xe7\\x94\\xa8/\\xe9\\x80\\x9a\\xe8\\xbf\\x87\\xe5\\xad\\x97\\xe8\\x8a\\x82\\xe7\\xa0\\x81\\xe9\\x83\\xa8\\xe7\\xbd\\xb2\\xe4\\xbb\\xbb\\xe6\\x84\\x8f\\xe5\\x90\\x88\\xe7\\xba\\xa6.sol\":973:986  uint public y */\n    tag_6:\n      tag_18\n      tag_19\n      jump\t// in\n    tag_18:\n      mload(0x40)\n      tag_20\n      swap2\n      swap1\n      tag_10\n      jump\t// in\n    tag_20:\n      mload(0x40)\n      dup1\n      swap2\n      sub\n      swap1\n      return\n        /* \"solidity\\xe9\\xab\\x98\\xe7\\xba\\xa7\\xe5\\xba\\x94\\xe7\\x94\\xa8/\\xe9\\x80\\x9a\\xe8\\xbf\\x87\\xe5\\xad\\x97\\xe8\\x8a\\x82\\xe7\\xa0\\x81\\xe9\\x83\\xa8\\xe7\\xbd\\xb2\\xe4\\xbb\\xbb\\xe6\\x84\\x8f\\xe5\\x90\\x88\\xe7\\xba\\xa6.sol\":953:966  uint public x */\n    tag_8:\n      sload(0x02)\n      dup2\n      jump\t// out\n        /* \"solidity\\xe9\\xab\\x98\\xe7\\xba\\xa7\\xe5\\xba\\x94\\xe7\\x94\\xa8/\\xe9\\x80\\x9a\\xe8\\xbf\\x87\\xe5\\xad\\x97\\xe8\\x8a\\x82\\xe7\\xa0\\x81\\xe9\\x83\\xa8\\xe7\\xbd\\xb2\\xe4\\xbb\\xbb\\xe6\\x84\\x8f\\xe5\\x90\\x88\\xe7\\xba\\xa6.sol\":917:946  uint public value = msg.value */\n    tag_12:\n      sload(0x01)\n      dup2\n      jump\t// out\n        /* \"solidity\\xe9\\xab\\x98\\xe7\\xba\\xa7\\xe5\\xba\\x94\\xe7\\x94\\xa8/\\xe9\\x80\\x9a\\xe8\\xbf\\x87\\xe5\\xad\\x97\\xe8\\x8a\\x82\\xe7\\xa0\\x81\\xe9\\x83\\xa8\\xe7\\xbd\\xb2\\xe4\\xbb\\xbb\\xe6\\x84\\x8f\\xe5\\x90\\x88\\xe7\\xba\\xa6.sol\":877:910  address public owner = msg.sender */\n    tag_15:\n      0x00\n      0x00\n      swap1\n      sload\n      swap1\n      0x0100\n      exp\n      swap1\n      div\n      0xffffffffffffffffffffffffffffffffffffffff\n      and\n      dup2\n      jump\t// out\n        /* \"solidity\\xe9\\xab\\x98\\xe7\\xba\\xa7\\xe5\\xba\\x94\\xe7\\x94\\xa8/\\xe9\\x80\\x9a\\xe8\\xbf\\x87\\xe5\\xad\\x97\\xe8\\x8a\\x82\\xe7\\xa0\\x81\\xe9\\x83\\xa8\\xe7\\xbd\\xb2\\xe4\\xbb\\xbb\\xe6\\x84\\x8f\\xe5\\x90\\x88\\xe7\\xba\\xa6.sol\":973:986  uint public y */\n    tag_19:\n      sload(0x03)\n      dup2\n      jump\t// out\n        /* \"#utility.yul\":7:84   */\n    tag_21:\n        /* \"#utility.yul\":44:51   */\n      0x00\n        /* \"#utility.yul\":73:78   */\n      dup2\n        /* \"#utility.yul\":62:78   */\n      swap1\n      pop\n        /* \"#utility.yul\":7:84   */\n      swap2\n      swap1\n      pop\n      jump\t// out\n        /* \"#utility.yul\":90:208   */\n    tag_22:\n        /* \"#utility.yul\":177:201   */\n      tag_29\n        /* \"#utility.yul\":195:200   */\n      dup2\n        /* \"#utility.yul\":177:201   */\n      tag_21\n      jump\t// in\n    tag_29:\n        /* \"#utility.yul\":172:175   */\n      dup3\n        /* \"#utility.yul\":165:202   */\n      mstore\n        /* \"#utility.yul\":90:208   */\n      pop\n      pop\n      jump\t// out\n        /* \"#utility.yul\":214:436   */\n    tag_10:\n        /* \"#utility.yul\":307:311   */\n      0x00\n        /* \"#utility.yul\":345:347   */\n      0x20\n        /* \"#utility.yul\":334:343   */\n      dup3\n        /* \"#utility.yul\":330:348   */\n      add\n        /* \"#utility.yul\":322:348   */\n      swap1\n      pop\n        /* \"#utility.yul\":358:429   */\n      tag_31\n        /* \"#utility.yul\":426:427   */\n      0x00\n        /* \"#utility.yul\":415:424   */\n      dup4\n        /* \"#utility.yul\":411:428   */\n      add\n        /* \"#utility.yul\":402:408   */\n      dup5\n        /* \"#utility.yul\":358:429   */\n      tag_22\n      jump\t// in\n    tag_31:\n        /* \"#utility.yul\":214:436   */\n      swap3\n      swap2\n      pop\n      pop\n      jump\t// out\n        /* \"#utility.yul\":442:568   */\n    tag_23:\n        /* \"#utility.yul\":479:486   */\n      0x00\n        /* \"#utility.yul\":519:561   */\n      0xffffffffffffffffffffffffffffffffffffffff\n        /* \"#utility.yul\":512:517   */\n      dup3\n        /* \"#utility.yul\":508:562   */\n      and\n        /* \"#utility.yul\":497:562   */\n      swap1\n      pop\n        /* \"#utility.yul\":442:568   */\n      swap2\n      swap1\n      pop\n      jump\t// out\n        /* \"#utility.yul\":574:670   */\n    tag_24:\n        /* \"#utility.yul\":611:618   */\n      0x00\n        /* \"#utility.yul\":640:664   */\n      tag_34\n        /* \"#utility.yul\":658:663   */\n      dup3\n        /* \"#utility.yul\":640:664   */\n      tag_23\n      jump\t// in\n    tag_34:\n        /* \"#utility.yul\":629:664   */\n      swap1\n      pop\n        /* \"#utility.yul\":574:670   */\n      swap2\n      swap1\n      pop\n      jump\t// out\n        /* \"#utility.yul\":676:794   */\n    tag_25:\n        /* \"#utility.yul\":763:787   */\n      tag_36\n        /* \"#utility.yul\":781:786   */\n      dup2\n        /* \"#utility.yul\":763:787   */\n      tag_24\n      jump\t// in\n    tag_36:\n        /* \"#utility.yul\":758:761   */\n      dup3\n        /* \"#utility.yul\":751:788   */\n      mstore\n        /* \"#utility.yul\":676:794   */\n      pop\n      pop\n      jump\t// out\n        /* \"#utility.yul\":800:1022   */\n    tag_17:\n        /* \"#utility.yul\":893:897   */\n      0x00\n        /* \"#utility.yul\":931:933   */\n      0x20\n        /* \"#utility.yul\":920:929   */\n      dup3\n        /* \"#utility.yul\":916:934   */\n      add\n        /* \"#utility.yul\":908:934   */\n      swap1\n      pop\n        /* \"#utility.yul\":944:1015   */\n      tag_38\n        /* \"#utility.yul\":1012:1013   */\n      0x00\n        /* \"#utility.yul\":1001:1010   */\n      dup4\n        /* \"#utility.yul\":997:1014   */\n      add\n        /* \"#utility.yul\":988:994   */\n      dup5\n        /* \"#utility.yul\":944:1015   */\n      tag_25\n      jump\t// in\n    tag_38:\n        /* \"#utility.yul\":800:1022   */\n      swap3\n      swap2\n      pop\n      pop\n      jump\t// out\n\n    auxdata: 0xa26469706673582212200cb393a4de88dfb7859926a8f0b08ac3ac5bed69ffc58fb3638ceb6bb2a6a57264736f6c63430008220033\n}\n",
				"bytecode": {
					"linkReferences": {},
					"object": "6080604052335f5f6101000a81548173ffffffffffffffffffffffffffffffffffffffff021916908373ffffffffffffffffffffffffffffffffffffffff160217905550346001556040516102ba3803806102ba833981810160405281019061006891906100b4565b816002819055508060038190555050506100f2565b5f5ffd5b5f819050919050565b61009381610081565b811461009d575f5ffd5b50565b5f815190506100ae8161008a565b92915050565b5f5f604083850312156100ca576100c961007d565b5b5f6100d7858286016100a0565b92505060206100e8858286016100a0565b9150509250929050565b6101bb806100ff5f395ff3fe608060405234801561000f575f5ffd5b506004361061004a575f3560e01c80630c55699c1461004e5780633fa4f2451461006c5780638da5cb5b1461008a578063a56dfe4a146100a8575b5f5ffd5b6100566100c6565b6040516100639190610114565b60405180910390f35b6100746100cc565b6040516100819190610114565b60405180910390f35b6100926100d2565b60405161009f919061016c565b60405180910390f35b6100b06100f6565b6040516100bd9190610114565b60405180910390f35b60025481565b60015481565b5f5f9054906101000a900473ffffffffffffffffffffffffffffffffffffffff1681565b60035481565b5f819050919050565b61010e816100fc565b82525050565b5f6020820190506101275f830184610105565b92915050565b5f73ffffffffffffffffffffffffffffffffffffffff82169050919050565b5f6101568261012d565b9050919050565b6101668161014c565b82525050565b5f60208201905061017f5f83018461015d565b9291505056fea26469706673582212200cb393a4de88dfb7859926a8f0b08ac3ac5bed69ffc58fb3638ceb6bb2a6a57264736f6c63430008220033",
					"opcodes": "PUSH1 0x80 PUSH1 0x40 MSTORE CALLER PUSH0 PUSH0 PUSH2 0x100 EXP DUP2 SLOAD DUP2 PUSH20 0xFFFFFFFFFFFFFFFFFFFFFFFFFFFFFFFFFFFFFFFF MUL NOT AND SWAP1 DUP4 PUSH20 0xFFFFFFFFFFFFFFFFFFFFFFFFFFFFFFFFFFFFFFFF AND MUL OR SWAP1 SSTORE POP CALLVALUE PUSH1 0x1 SSTORE PUSH1 0x40 MLOAD PUSH2 0x2BA CODESIZE SUB DUP1 PUSH2 0x2BA DUP4 CODECOPY DUP2 DUP2 ADD PUSH1 0x40 MSTORE DUP2 ADD SWAP1 PUSH2 0x68 SWAP2 SWAP1 PUSH2 0xB4 JUMP JUMPDEST DUP2 PUSH1 0x2 DUP2 SWAP1 SSTORE POP DUP1 PUSH1 0x3 DUP2 SWAP1 SSTORE POP POP POP PUSH2 0xF2 JUMP JUMPDEST PUSH0 PUSH0 REVERT JUMPDEST PUSH0 DUP2 SWAP1 POP SWAP2 SWAP1 POP JUMP JUMPDEST PUSH2 0x93 DUP2 PUSH2 0x81 JUMP JUMPDEST DUP2 EQ PUSH2 0x9D JUMPI PUSH0 PUSH0 REVERT JUMPDEST POP JUMP JUMPDEST PUSH0 DUP2 MLOAD SWAP1 POP PUSH2 0xAE DUP2 PUSH2 0x8A JUMP JUMPDEST SWAP3 SWAP2 POP POP JUMP JUMPDEST PUSH0 PUSH0 PUSH1 0x40 DUP4 DUP6 SUB SLT ISZERO PUSH2 0xCA JUMPI PUSH2 0xC9 PUSH2 0x7D JUMP JUMPDEST JUMPDEST PUSH0 PUSH2 0xD7 DUP6 DUP3 DUP7 ADD PUSH2 0xA0 JUMP JUMPDEST SWAP3 POP POP PUSH1 0x20 PUSH2 0xE8 DUP6 DUP3 DUP7 ADD PUSH2 0xA0 JUMP JUMPDEST SWAP2 POP POP SWAP3 POP SWAP3 SWAP1 POP JUMP JUMPDEST PUSH2 0x1BB DUP1 PUSH2 0xFF PUSH0 CODECOPY PUSH0 RETURN INVALID PUSH1 0x80 PUSH1 0x40 MSTORE CALLVALUE DUP1 ISZERO PUSH2 0xF JUMPI PUSH0 PUSH0 REVERT JUMPDEST POP PUSH1 0x4 CALLDATASIZE LT PUSH2 0x4A JUMPI PUSH0 CALLDATALOAD PUSH1 0xE0 SHR DUP1 PUSH4 0xC55699C EQ PUSH2 0x4E JUMPI DUP1 PUSH4 0x3FA4F245 EQ PUSH2 0x6C JUMPI DUP1 PUSH4 0x8DA5CB5B EQ PUSH2 0x8A JUMPI DUP1 PUSH4 0xA56DFE4A EQ PUSH2 0xA8 JUMPI JUMPDEST PUSH0 PUSH0 REVERT JUMPDEST PUSH2 0x56 PUSH2 0xC6 JUMP JUMPDEST PUSH1 0x40 MLOAD PUSH2 0x63 SWAP2 SWAP1 PUSH2 0x114 JUMP JUMPDEST PUSH1 0x40 MLOAD DUP1 SWAP2 SUB SWAP1 RETURN JUMPDEST PUSH2 0x74 PUSH2 0xCC JUMP JUMPDEST PUSH1 0x40 MLOAD PUSH2 0x81 SWAP2 SWAP1 PUSH2 0x114 JUMP JUMPDEST PUSH1 0x40 MLOAD DUP1 SWAP2 SUB SWAP1 RETURN JUMPDEST PUSH2 0x92 PUSH2 0xD2 JUMP JUMPDEST PUSH1 0x40 MLOAD PUSH2 0x9F SWAP2 SWAP1 PUSH2 0x16C JUMP JUMPDEST PUSH1 0x40 MLOAD DUP1 SWAP2 SUB SWAP1 RETURN JUMPDEST PUSH2 0xB0 PUSH2 0xF6 JUMP JUMPDEST PUSH1 0x40 MLOAD PUSH2 0xBD SWAP2 SWAP1 PUSH2 0x114 JUMP JUMPDEST PUSH1 0x40 MLOAD DUP1 SWAP2 SUB SWAP1 RETURN JUMPDEST PUSH1 0x2 SLOAD DUP2 JUMP JUMPDEST PUSH1 0x1 SLOAD DUP2 JUMP JUMPDEST PUSH0 PUSH0 SWAP1 SLOAD SWAP1 PUSH2 0x100 EXP SWAP1 DIV PUSH20 0xFFFFFFFFFFFFFFFFFFFFFFFFFFFFFFFFFFFFFFFF AND DUP2 JUMP JUMPDEST PUSH1 0x3 SLOAD DUP2 JUMP JUMPDEST PUSH0 DUP2 SWAP1 POP SWAP2 SWAP1 POP JUMP JUMPDEST PUSH2 0x10E DUP2 PUSH2 0xFC JUMP JUMPDEST DUP3 MSTORE POP POP JUMP JUMPDEST PUSH0 PUSH1 0x20 DUP3 ADD SWAP1 POP PUSH2 0x127 PUSH0 DUP4 ADD DUP5 PUSH2 0x105 JUMP JUMPDEST SWAP3 SWAP2 POP POP JUMP JUMPDEST PUSH0 PUSH20 0xFFFFFFFFFFFFFFFFFFFFFFFFFFFFFFFFFFFFFFFF DUP3 AND SWAP1 POP SWAP2 SWAP1 POP JUMP JUMPDEST PUSH0 PUSH2 0x156 DUP3 PUSH2 0x12D JUMP JUMPDEST SWAP1 POP SWAP2 SWAP1 POP JUMP JUMPDEST PUSH2 0x166 DUP2 PUSH2 0x14C JUMP JUMPDEST DUP3 MSTORE POP POP JUMP JUMPDEST PUSH0 PUSH1 0x20 DUP3 ADD SWAP1 POP PUSH2 0x17F PUSH0 DUP4 ADD DUP5 PUSH2 0x15D JUMP JUMPDEST SWAP3 SWAP2 POP POP JUMP INVALID LOG2 PUSH5 0x6970667358 0x22 SLT KECCAK256 0xC 0xB3 SWAP4 LOG4 0xDE DUP9 0xDF 0xB7 DUP6 SWAP10 0x26 0xA8 CREATE 0xB0 DUP11 0xC3 0xAC JUMPDEST 0xED PUSH10 0xFFC58FB3638CEB6BB2A6 0xA5 PUSH19 0x64736F6C634300082200330000000000000000 "
				},
				"gasEstimates": {
					"creation": {
						"codeDepositCost": "88600",
						"executionCost": "infinite",
						"totalCost": "infinite"
					},
					"external": {
						"owner()": "2529",
						"value()": "2425",
						"x()": "2403",
						"y()": "2469"
					}
				},
				"methodIdentifiers": {
					"owner()": "8da5cb5b",
					"value()": "3fa4f245",
					"x()": "0c55699c",
					"y()": "a56dfe4a"
				}
			},
			"storageLayout": {
				"storage": [
					{
						"astId": 28,
						"contract": "solidity高级应用/通过字节码部署任意合约.sol:Contract2",
						"label": "owner",
						"offset": 0,
						"slot": "0",
						"type": "t_address"
					},
					{
						"astId": 32,
						"contract": "solidity高级应用/通过字节码部署任意合约.sol:Contract2",
						"label": "value",
						"offset": 0,
						"slot": "1",
						"type": "t_uint256"
					},
					{
						"astId": 34,
						"contract": "solidity高级应用/通过字节码部署任意合约.sol:Contract2",
						"label": "x",
						"offset": 0,
						"slot": "2",
						"type": "t_uint256"
					},
					{
						"astId": 36,
						"contract": "solidity高级应用/通过字节码部署任意合约.sol:Contract2",
						"label": "y",
						"offset": 0,
						"slot": "3",
						"type": "t_uint256"
					}
				],
				"types": {
					"t_address": {
						"encoding": "inplace",
						"label": "address",
						"numberOfBytes": "20"
					},
					"t_uint256": {
						"encoding": "inplace",
						"label": "uint256",
						"numberOfBytes": "32"
					}
				}
			},
			"userdoc": {
				"kind": "user",
				"methods": {},
				"version": 1
			}
		}
	}
}