{
	"solidity高级应用/timelock时间锁.sol": {
		"TimeLock": {
			"abi": [
				{
					"inputs": [],
					"stateMutability": "nonpayable",
					"type": "constructor"
				},
				{
					"inputs": [
						{
							"internalType": "bytes32",
							"name": "id",
							"type": "bytes32"
						}
					],
					"name": "AlreadyCancelError",
					"type": "error"
				},
				{
					"inputs": [
						{
							"internalType": "bytes32",
							"name": "id",
							"type": "bytes32"
						}
					],
					"name": "AlreadyQueuedError",
					"type": "error"
				},
				{
					"inputs": [
						{
							"internalType": "bytes32",
							"name": "id",
							"type": "bytes32"
						}
					],
					"name": "NotQueuedError",
					"type": "error"
				},
				{
					"inputs": [],
					"name": "TimeExpiredError",
					"type": "error"
				},
				{
					"inputs": [],
					"name": "TimeNotPassedError",
					"type": "error"
				},
				{
					"inputs": [],
					"name": "TimestampNotInRangeError",
					"type": "error"
				},
				{
					"anonymous": false,
					"inputs": [
						{
							"indexed": false,
							"internalType": "bytes32",
							"name": "id",
							"type": "bytes32"
						}
					],
					"name": "Cancel",
					"type": "event"
				},
				{
					"anonymous": false,
					"inputs": [
						{
							"indexed": true,
							"internalType": "bytes32",
							"name": "id",
							"type": "bytes32"
						},
						{
							"indexed": false,
							"internalType": "address",
							"name": "target",
							"type": "address"
						},
						{
							"indexed": false,
							"internalType": "uint256",
							"name": "amount",
							"type": "uint256"
						},
						{
							"indexed": false,
							"internalType": "string",
							"name": "funcName",
							"type": "string"
						},
						{
							"indexed": false,
							"internalType": "bytes",
							"name": "data",
							"type": "bytes"
						},
						{
							"indexed": false,
							"internalType": "uint256",
							"name": "timestamp",
							"type": "uint256"
						}
					],
					"name": "ExecuteLog",
					"type": "event"
				},
				{
					"anonymous": false,
					"inputs": [
						{
							"indexed": true,
							"internalType": "bytes32",
							"name": "id",
							"type": "bytes32"
						},
						{
							"indexed": false,
							"internalType": "address",
							"name": "target",
							"type": "address"
						},
						{
							"indexed": false,
							"internalType": "uint256",
							"name": "amount",
							"type": "uint256"
						},
						{
							"indexed": false,
							"internalType": "string",
							"name": "funcName",
							"type": "string"
						},
						{
							"indexed": false,
							"internalType": "bytes",
							"name": "data",
							"type": "bytes"
						},
						{
							"indexed": false,
							"internalType": "uint256",
							"name": "timestamp",
							"type": "uint256"
						}
					],
					"name": "QueueLog",
					"type": "event"
				},
				{
					"inputs": [],
					"name": "MAX_DELAY",
					"outputs": [
						{
							"internalType": "uint256",
							"name": "",
							"type": "uint256"
						}
					],
					"stateMutability": "view",
					"type": "function"
				},
				{
					"inputs": [],
					"name": "MIN_DELAY",
					"outputs": [
						{
							"internalType": "uint256",
							"name": "",
							"type": "uint256"
						}
					],
					"stateMutability": "view",
					"type": "function"
				},
				{
					"inputs": [
						{
							"internalType": "bytes32",
							"name": "id",
							"type": "bytes32"
						}
					],
					"name": "cancelQueue",
					"outputs": [],
					"stateMutability": "nonpayable",
					"type": "function"
				},
				{
					"inputs": [
						{
							"internalType": "address",
							"name": "target",
							"type": "address"
						},
						{
							"internalType": "uint256",
							"name": "amount",
							"type": "uint256"
						},
						{
							"internalType": "string",
							"name": "funcName",
							"type": "string"
						},
						{
							"internalType": "bytes",
							"name": "data",
							"type": "bytes"
						},
						{
							"internalType": "uint256",
							"name": "timestamp",
							"type": "uint256"
						}
					],
					"name": "execute",
					"outputs": [
						{
							"internalType": "bytes",
							"name": "",
							"type": "bytes"
						}
					],
					"stateMutability": "nonpayable",
					"type": "function"
				},
				{
					"inputs": [
						{
							"internalType": "address",
							"name": "target",
							"type": "address"
						},
						{
							"internalType": "uint256",
							"name": "amount",
							"type": "uint256"
						},
						{
							"internalType": "string",
							"name": "funcName",
							"type": "string"
						},
						{
							"internalType": "bytes",
							"name": "data",
							"type": "bytes"
						},
						{
							"internalType": "uint256",
							"name": "timestamp",
							"type": "uint256"
						}
					],
					"name": "getId",
					"outputs": [
						{
							"internalType": "bytes32",
							"name": "",
							"type": "bytes32"
						}
					],
					"stateMutability": "pure",
					"type": "function"
				},
				{
					"inputs": [],
					"name": "owner",
					"outputs": [
						{
							"internalType": "address",
							"name": "",
							"type": "address"
						}
					],
					"stateMutability": "view",
					"type": "function"
				},
				{
					"inputs": [
						{
							"internalType": "address",
							"name": "target",
							"type": "address"
						},
						{
							"internalType": "uint256",
							"name": "amount",
							"type": "uint256"
						},
						{
							"internalType": "string",
							"name": "funcName",
							"type": "string"
						},
						{
							"internalType": "bytes",
							"name": "data",
							"type": "bytes"
						},
						{
							"internalType": "uint256",
							"name": "timestamp",
							"type": "uint256"
						}
					],
					"name": "queue",
					"outputs": [],
					"stateMutability": "nonpayable",
					"type": "function"
				},
				{
					"inputs": [
						{
							"internalType": "bytes32",
							"name": "",
							"type": "bytes32"
						}
					],
					"name": "queued",
					"outputs": [
						{
							"internalType": "bool",
							"name": "",
							"type": "bool"
						}
					],
					"stateMutability": "view",
					"type": "function"
				},
				{
					"stateMutability": "payable",
					"type": "receive"
				}
			],
			"devdoc": {
				"kind": "dev",
				"methods": {},
				"version": 1
			},
			"evm": {
				"assembly": "    /* \"solidity\\xe9\\xab\\x98\\xe7\\xba\\xa7\\xe5\\xba\\x94\\xe7\\x94\\xa8/timelock\\xe6\\x97\\xb6\\xe9\\x97\\xb4\\xe9\\x94\\x81.sol\":709:3649  contract TimeLock {... */\n  mstore(0x40, 0x80)\n    /* \"solidity\\xe9\\xab\\x98\\xe7\\xba\\xa7\\xe5\\xba\\x94\\xe7\\x94\\xa8/timelock\\xe6\\x97\\xb6\\xe9\\x97\\xb4\\xe9\\x94\\x81.sol\":1389:1440  constructor() {... */\n  callvalue\n  dup1\n  iszero\n  tag_1\n  jumpi\n  revert(0x00, 0x00)\ntag_1:\n  pop\n    /* \"solidity\\xe9\\xab\\x98\\xe7\\xba\\xa7\\xe5\\xba\\x94\\xe7\\x94\\xa8/timelock\\xe6\\x97\\xb6\\xe9\\x97\\xb4\\xe9\\x94\\x81.sol\":1422:1432  msg.sender */\n  caller\n    /* \"solidity\\xe9\\xab\\x98\\xe7\\xba\\xa7\\xe5\\xba\\x94\\xe7\\x94\\xa8/timelock\\xe6\\x97\\xb6\\xe9\\x97\\xb4\\xe9\\x94\\x81.sol\":1414:1419  owner */\n  0x00\n  0x00\n    /* \"solidity\\xe9\\xab\\x98\\xe7\\xba\\xa7\\xe5\\xba\\x94\\xe7\\x94\\xa8/timelock\\xe6\\x97\\xb6\\xe9\\x97\\xb4\\xe9\\x94\\x81.sol\":1414:1432  owner = msg.sender */\n  0x0100\n  exp\n  dup2\n  sload\n  dup2\n  0xffffffffffffffffffffffffffffffffffffffff\n  mul\n  not\n  and\n  swap1\n  dup4\n  0xffffffffffffffffffffffffffffffffffffffff\n  and\n  mul\n  or\n  swap1\n  sstore\n  pop\n    /* \"solidity\\xe9\\xab\\x98\\xe7\\xba\\xa7\\xe5\\xba\\x94\\xe7\\x94\\xa8/timelock\\xe6\\x97\\xb6\\xe9\\x97\\xb4\\xe9\\x94\\x81.sol\":709:3649  contract TimeLock {... */\n  dataSize(sub_0)\n  dup1\n  dataOffset(sub_0)\n  0x00\n  codecopy\n  0x00\n  return\nstop\n\nsub_0: assembly {\n        /* \"solidity\\xe9\\xab\\x98\\xe7\\xba\\xa7\\xe5\\xba\\x94\\xe7\\x94\\xa8/timelock\\xe6\\x97\\xb6\\xe9\\x97\\xb4\\xe9\\x94\\x81.sol\":709:3649  contract TimeLock {... */\n      mstore(0x40, 0x80)\n      jumpi(tag_1, lt(calldatasize, 0x04))\n      shr(0xe0, calldataload(0x00))\n      dup1\n      0x8da5cb5b\n      gt\n      tag_11\n      jumpi\n      dup1\n      0x8da5cb5b\n      eq\n      tag_7\n      jumpi\n      dup1\n      0x9f81aed7\n      eq\n      tag_8\n      jumpi\n      dup1\n      0xafca0654\n      eq\n      tag_9\n      jumpi\n      dup1\n      0xb0f8b142\n      eq\n      tag_10\n      jumpi\n      jump(tag_2)\n    tag_11:\n      dup1\n      0x175aca1e\n      eq\n      tag_3\n      jumpi\n      dup1\n      0x228250c9\n      eq\n      tag_4\n      jumpi\n      dup1\n      0x4125ff90\n      eq\n      tag_5\n      jumpi\n      dup1\n      0x4b9915a5\n      eq\n      tag_6\n      jumpi\n      jump(tag_2)\n    tag_1:\n      jumpi(tag_2, calldatasize)\n      stop\n    tag_2:\n      revert(0x00, 0x00)\n        /* \"solidity\\xe9\\xab\\x98\\xe7\\xba\\xa7\\xe5\\xba\\x94\\xe7\\x94\\xa8/timelock\\xe6\\x97\\xb6\\xe9\\x97\\xb4\\xe9\\x94\\x81.sol\":2451:2649  function cancelQueue (bytes32 id) external onlyOwner{... */\n    tag_3:\n      callvalue\n      dup1\n      iszero\n      tag_14\n      jumpi\n      revert(0x00, 0x00)\n    tag_14:\n      pop\n      tag_15\n      0x04\n      dup1\n      calldatasize\n      sub\n      dup2\n      add\n      swap1\n      tag_16\n      swap2\n      swap1\n      tag_17\n      jump\t// in\n    tag_16:\n      tag_18\n      jump\t// in\n    tag_15:\n      stop\n        /* \"solidity\\xe9\\xab\\x98\\xe7\\xba\\xa7\\xe5\\xba\\x94\\xe7\\x94\\xa8/timelock\\xe6\\x97\\xb6\\xe9\\x97\\xb4\\xe9\\x94\\x81.sol\":761:799  mapping(bytes32 => bool) public queued */\n    tag_4:\n      callvalue\n      dup1\n      iszero\n      tag_19\n      jumpi\n      revert(0x00, 0x00)\n    tag_19:\n      pop\n      tag_20\n      0x04\n      dup1\n      calldatasize\n      sub\n      dup2\n      add\n      swap1\n      tag_21\n      swap2\n      swap1\n      tag_17\n      jump\t// in\n    tag_21:\n      tag_22\n      jump\t// in\n    tag_20:\n      mload(0x40)\n      tag_23\n      swap2\n      swap1\n      tag_24\n      jump\t// in\n    tag_23:\n      mload(0x40)\n      dup1\n      swap2\n      sub\n      swap1\n      return\n        /* \"solidity\\xe9\\xab\\x98\\xe7\\xba\\xa7\\xe5\\xba\\x94\\xe7\\x94\\xa8/timelock\\xe6\\x97\\xb6\\xe9\\x97\\xb4\\xe9\\x94\\x81.sol\":848:885  uint public constant MAX_DELAY = 1000 */\n    tag_5:\n      callvalue\n      dup1\n      iszero\n      tag_25\n      jumpi\n      revert(0x00, 0x00)\n    tag_25:\n      pop\n      tag_26\n      tag_27\n      jump\t// in\n    tag_26:\n      mload(0x40)\n      tag_28\n      swap2\n      swap1\n      tag_29\n      jump\t// in\n    tag_28:\n      mload(0x40)\n      dup1\n      swap2\n      sub\n      swap1\n      return\n        /* \"solidity\\xe9\\xab\\x98\\xe7\\xba\\xa7\\xe5\\xba\\x94\\xe7\\x94\\xa8/timelock\\xe6\\x97\\xb6\\xe9\\x97\\xb4\\xe9\\x94\\x81.sol\":1854:2423  function queue(... */\n    tag_6:\n      callvalue\n      dup1\n      iszero\n      tag_30\n      jumpi\n      revert(0x00, 0x00)\n    tag_30:\n      pop\n      tag_31\n      0x04\n      dup1\n      calldatasize\n      sub\n      dup2\n      add\n      swap1\n      tag_32\n      swap2\n      swap1\n      tag_33\n      jump\t// in\n    tag_32:\n      tag_34\n      jump\t// in\n    tag_31:\n      stop\n        /* \"solidity\\xe9\\xab\\x98\\xe7\\xba\\xa7\\xe5\\xba\\x94\\xe7\\x94\\xa8/timelock\\xe6\\x97\\xb6\\xe9\\x97\\xb4\\xe9\\x94\\x81.sol\":734:754  address public owner */\n    tag_7:\n      callvalue\n      dup1\n      iszero\n      tag_35\n      jumpi\n      revert(0x00, 0x00)\n    tag_35:\n      pop\n      tag_36\n      tag_37\n      jump\t// in\n    tag_36:\n      mload(0x40)\n      tag_38\n      swap2\n      swap1\n      tag_39\n      jump\t// in\n    tag_38:\n      mload(0x40)\n      dup1\n      swap2\n      sub\n      swap1\n      return\n        /* \"solidity\\xe9\\xab\\x98\\xe7\\xba\\xa7\\xe5\\xba\\x94\\xe7\\x94\\xa8/timelock\\xe6\\x97\\xb6\\xe9\\x97\\xb4\\xe9\\x94\\x81.sol\":806:841  uint public constant MIN_DELAY = 40 */\n    tag_8:\n      callvalue\n      dup1\n      iszero\n      tag_40\n      jumpi\n      revert(0x00, 0x00)\n    tag_40:\n      pop\n      tag_41\n      tag_42\n      jump\t// in\n    tag_41:\n      mload(0x40)\n      tag_43\n      swap2\n      swap1\n      tag_29\n      jump\t// in\n    tag_43:\n      mload(0x40)\n      dup1\n      swap2\n      sub\n      swap1\n      return\n        /* \"solidity\\xe9\\xab\\x98\\xe7\\xba\\xa7\\xe5\\xba\\x94\\xe7\\x94\\xa8/timelock\\xe6\\x97\\xb6\\xe9\\x97\\xb4\\xe9\\x94\\x81.sol\":1586:1831  function getId(... */\n    tag_9:\n      callvalue\n      dup1\n      iszero\n      tag_44\n      jumpi\n      revert(0x00, 0x00)\n    tag_44:\n      pop\n      tag_45\n      0x04\n      dup1\n      calldatasize\n      sub\n      dup2\n      add\n      swap1\n      tag_46\n      swap2\n      swap1\n      tag_33\n      jump\t// in\n    tag_46:\n      tag_47\n      jump\t// in\n    tag_45:\n      mload(0x40)\n      tag_48\n      swap2\n      swap1\n      tag_49\n      jump\t// in\n    tag_48:\n      mload(0x40)\n      dup1\n      swap2\n      sub\n      swap1\n      return\n        /* \"solidity\\xe9\\xab\\x98\\xe7\\xba\\xa7\\xe5\\xba\\x94\\xe7\\x94\\xa8/timelock\\xe6\\x97\\xb6\\xe9\\x97\\xb4\\xe9\\x94\\x81.sol\":2671:3646  function execute(... */\n    tag_10:\n      callvalue\n      dup1\n      iszero\n      tag_50\n      jumpi\n      revert(0x00, 0x00)\n    tag_50:\n      pop\n      tag_51\n      0x04\n      dup1\n      calldatasize\n      sub\n      dup2\n      add\n      swap1\n      tag_52\n      swap2\n      swap1\n      tag_33\n      jump\t// in\n    tag_52:\n      tag_53\n      jump\t// in\n    tag_51:\n      mload(0x40)\n      tag_54\n      swap2\n      swap1\n      tag_55\n      jump\t// in\n    tag_54:\n      mload(0x40)\n      dup1\n      swap2\n      sub\n      swap1\n      return\n        /* \"solidity\\xe9\\xab\\x98\\xe7\\xba\\xa7\\xe5\\xba\\x94\\xe7\\x94\\xa8/timelock\\xe6\\x97\\xb6\\xe9\\x97\\xb4\\xe9\\x94\\x81.sol\":2451:2649  function cancelQueue (bytes32 id) external onlyOwner{... */\n    tag_18:\n        /* \"solidity\\xe9\\xab\\x98\\xe7\\xba\\xa7\\xe5\\xba\\x94\\xe7\\x94\\xa8/timelock\\xe6\\x97\\xb6\\xe9\\x97\\xb4\\xe9\\x94\\x81.sol\":1540:1545  owner */\n      0x00\n      0x00\n      swap1\n      sload\n      swap1\n      0x0100\n      exp\n      swap1\n      div\n      0xffffffffffffffffffffffffffffffffffffffff\n      and\n        /* \"solidity\\xe9\\xab\\x98\\xe7\\xba\\xa7\\xe5\\xba\\x94\\xe7\\x94\\xa8/timelock\\xe6\\x97\\xb6\\xe9\\x97\\xb4\\xe9\\x94\\x81.sol\":1526:1545  msg.sender == owner */\n      0xffffffffffffffffffffffffffffffffffffffff\n      and\n        /* \"solidity\\xe9\\xab\\x98\\xe7\\xba\\xa7\\xe5\\xba\\x94\\xe7\\x94\\xa8/timelock\\xe6\\x97\\xb6\\xe9\\x97\\xb4\\xe9\\x94\\x81.sol\":1526:1536  msg.sender */\n      caller\n        /* \"solidity\\xe9\\xab\\x98\\xe7\\xba\\xa7\\xe5\\xba\\x94\\xe7\\x94\\xa8/timelock\\xe6\\x97\\xb6\\xe9\\x97\\xb4\\xe9\\x94\\x81.sol\":1526:1545  msg.sender == owner */\n      0xffffffffffffffffffffffffffffffffffffffff\n      and\n      eq\n        /* \"solidity\\xe9\\xab\\x98\\xe7\\xba\\xa7\\xe5\\xba\\x94\\xe7\\x94\\xa8/timelock\\xe6\\x97\\xb6\\xe9\\x97\\xb4\\xe9\\x94\\x81.sol\":1518:1558  require(msg.sender == owner,\"not owner\") */\n      tag_57\n      jumpi\n      mload(0x40)\n      0x08c379a000000000000000000000000000000000000000000000000000000000\n      dup2\n      mstore\n      0x04\n      add\n      tag_58\n      swap1\n      tag_59\n      jump\t// in\n    tag_58:\n      mload(0x40)\n      dup1\n      swap2\n      sub\n      swap1\n      revert\n    tag_57:\n        /* \"solidity\\xe9\\xab\\x98\\xe7\\xba\\xa7\\xe5\\xba\\x94\\xe7\\x94\\xa8/timelock\\xe6\\x97\\xb6\\xe9\\x97\\xb4\\xe9\\x94\\x81.sol\":2519:2525  queued */\n      0x01\n        /* \"solidity\\xe9\\xab\\x98\\xe7\\xba\\xa7\\xe5\\xba\\x94\\xe7\\x94\\xa8/timelock\\xe6\\x97\\xb6\\xe9\\x97\\xb4\\xe9\\x94\\x81.sol\":2519:2529  queued[id] */\n      0x00\n        /* \"solidity\\xe9\\xab\\x98\\xe7\\xba\\xa7\\xe5\\xba\\x94\\xe7\\x94\\xa8/timelock\\xe6\\x97\\xb6\\xe9\\x97\\xb4\\xe9\\x94\\x81.sol\":2526:2528  id */\n      dup3\n        /* \"solidity\\xe9\\xab\\x98\\xe7\\xba\\xa7\\xe5\\xba\\x94\\xe7\\x94\\xa8/timelock\\xe6\\x97\\xb6\\xe9\\x97\\xb4\\xe9\\x94\\x81.sol\":2519:2529  queued[id] */\n      dup2\n      mstore\n      0x20\n      add\n      swap1\n      dup2\n      mstore\n      0x20\n      add\n      0x00\n      keccak256\n      0x00\n      swap1\n      sload\n      swap1\n      0x0100\n      exp\n      swap1\n      div\n      0xff\n      and\n        /* \"solidity\\xe9\\xab\\x98\\xe7\\xba\\xa7\\xe5\\xba\\x94\\xe7\\x94\\xa8/timelock\\xe6\\x97\\xb6\\xe9\\x97\\xb4\\xe9\\x94\\x81.sol\":2515:2587  if(!queued[id]) {... */\n      tag_61\n      jumpi\n        /* \"solidity\\xe9\\xab\\x98\\xe7\\xba\\xa7\\xe5\\xba\\x94\\xe7\\x94\\xa8/timelock\\xe6\\x97\\xb6\\xe9\\x97\\xb4\\xe9\\x94\\x81.sol\":2572:2574  id */\n      dup1\n        /* \"solidity\\xe9\\xab\\x98\\xe7\\xba\\xa7\\xe5\\xba\\x94\\xe7\\x94\\xa8/timelock\\xe6\\x97\\xb6\\xe9\\x97\\xb4\\xe9\\x94\\x81.sol\":2553:2575  AlreadyCancelError(id) */\n      mload(0x40)\n      0x308200cc00000000000000000000000000000000000000000000000000000000\n      dup2\n      mstore\n      0x04\n      add\n      tag_62\n      swap2\n      swap1\n      tag_49\n      jump\t// in\n    tag_62:\n      mload(0x40)\n      dup1\n      swap2\n      sub\n      swap1\n      revert\n        /* \"solidity\\xe9\\xab\\x98\\xe7\\xba\\xa7\\xe5\\xba\\x94\\xe7\\x94\\xa8/timelock\\xe6\\x97\\xb6\\xe9\\x97\\xb4\\xe9\\x94\\x81.sol\":2515:2587  if(!queued[id]) {... */\n    tag_61:\n        /* \"solidity\\xe9\\xab\\x98\\xe7\\xba\\xa7\\xe5\\xba\\x94\\xe7\\x94\\xa8/timelock\\xe6\\x97\\xb6\\xe9\\x97\\xb4\\xe9\\x94\\x81.sol\":2610:2615  false */\n      0x00\n        /* \"solidity\\xe9\\xab\\x98\\xe7\\xba\\xa7\\xe5\\xba\\x94\\xe7\\x94\\xa8/timelock\\xe6\\x97\\xb6\\xe9\\x97\\xb4\\xe9\\x94\\x81.sol\":2597:2603  queued */\n      0x01\n        /* \"solidity\\xe9\\xab\\x98\\xe7\\xba\\xa7\\xe5\\xba\\x94\\xe7\\x94\\xa8/timelock\\xe6\\x97\\xb6\\xe9\\x97\\xb4\\xe9\\x94\\x81.sol\":2597:2607  queued[id] */\n      0x00\n        /* \"solidity\\xe9\\xab\\x98\\xe7\\xba\\xa7\\xe5\\xba\\x94\\xe7\\x94\\xa8/timelock\\xe6\\x97\\xb6\\xe9\\x97\\xb4\\xe9\\x94\\x81.sol\":2604:2606  id */\n      dup4\n        /* \"solidity\\xe9\\xab\\x98\\xe7\\xba\\xa7\\xe5\\xba\\x94\\xe7\\x94\\xa8/timelock\\xe6\\x97\\xb6\\xe9\\x97\\xb4\\xe9\\x94\\x81.sol\":2597:2607  queued[id] */\n      dup2\n      mstore\n      0x20\n      add\n      swap1\n      dup2\n      mstore\n      0x20\n      add\n      0x00\n      keccak256\n      0x00\n        /* \"solidity\\xe9\\xab\\x98\\xe7\\xba\\xa7\\xe5\\xba\\x94\\xe7\\x94\\xa8/timelock\\xe6\\x97\\xb6\\xe9\\x97\\xb4\\xe9\\x94\\x81.sol\":2597:2615  queued[id] = false */\n      0x0100\n      exp\n      dup2\n      sload\n      dup2\n      0xff\n      mul\n      not\n      and\n      swap1\n      dup4\n      iszero\n      iszero\n      mul\n      or\n      swap1\n      sstore\n      pop\n        /* \"solidity\\xe9\\xab\\x98\\xe7\\xba\\xa7\\xe5\\xba\\x94\\xe7\\x94\\xa8/timelock\\xe6\\x97\\xb6\\xe9\\x97\\xb4\\xe9\\x94\\x81.sol\":2631:2641  Cancel(id) */\n      0xe8d9861dbc9c663ed3accd261bbe2fe01e0d3d9e5f51fa38523b265c7757a93a\n        /* \"solidity\\xe9\\xab\\x98\\xe7\\xba\\xa7\\xe5\\xba\\x94\\xe7\\x94\\xa8/timelock\\xe6\\x97\\xb6\\xe9\\x97\\xb4\\xe9\\x94\\x81.sol\":2638:2640  id */\n      dup2\n        /* \"solidity\\xe9\\xab\\x98\\xe7\\xba\\xa7\\xe5\\xba\\x94\\xe7\\x94\\xa8/timelock\\xe6\\x97\\xb6\\xe9\\x97\\xb4\\xe9\\x94\\x81.sol\":2631:2641  Cancel(id) */\n      mload(0x40)\n      tag_63\n      swap2\n      swap1\n      tag_49\n      jump\t// in\n    tag_63:\n      mload(0x40)\n      dup1\n      swap2\n      sub\n      swap1\n      log1\n        /* \"solidity\\xe9\\xab\\x98\\xe7\\xba\\xa7\\xe5\\xba\\x94\\xe7\\x94\\xa8/timelock\\xe6\\x97\\xb6\\xe9\\x97\\xb4\\xe9\\x94\\x81.sol\":2451:2649  function cancelQueue (bytes32 id) external onlyOwner{... */\n      pop\n      jump\t// out\n        /* \"solidity\\xe9\\xab\\x98\\xe7\\xba\\xa7\\xe5\\xba\\x94\\xe7\\x94\\xa8/timelock\\xe6\\x97\\xb6\\xe9\\x97\\xb4\\xe9\\x94\\x81.sol\":761:799  mapping(bytes32 => bool) public queued */\n    tag_22:\n      mstore(0x20, 0x01)\n      dup1\n      0x00\n      mstore\n      keccak256(0x00, 0x40)\n      0x00\n      swap2\n      pop\n      sload\n      swap1\n      0x0100\n      exp\n      swap1\n      div\n      0xff\n      and\n      dup2\n      jump\t// out\n        /* \"solidity\\xe9\\xab\\x98\\xe7\\xba\\xa7\\xe5\\xba\\x94\\xe7\\x94\\xa8/timelock\\xe6\\x97\\xb6\\xe9\\x97\\xb4\\xe9\\x94\\x81.sol\":848:885  uint public constant MAX_DELAY = 1000 */\n    tag_27:\n        /* \"solidity\\xe9\\xab\\x98\\xe7\\xba\\xa7\\xe5\\xba\\x94\\xe7\\x94\\xa8/timelock\\xe6\\x97\\xb6\\xe9\\x97\\xb4\\xe9\\x94\\x81.sol\":881:885  1000 */\n      0x03e8\n        /* \"solidity\\xe9\\xab\\x98\\xe7\\xba\\xa7\\xe5\\xba\\x94\\xe7\\x94\\xa8/timelock\\xe6\\x97\\xb6\\xe9\\x97\\xb4\\xe9\\x94\\x81.sol\":848:885  uint public constant MAX_DELAY = 1000 */\n      dup2\n      jump\t// out\n        /* \"solidity\\xe9\\xab\\x98\\xe7\\xba\\xa7\\xe5\\xba\\x94\\xe7\\x94\\xa8/timelock\\xe6\\x97\\xb6\\xe9\\x97\\xb4\\xe9\\x94\\x81.sol\":1854:2423  function queue(... */\n    tag_34:\n        /* \"solidity\\xe9\\xab\\x98\\xe7\\xba\\xa7\\xe5\\xba\\x94\\xe7\\x94\\xa8/timelock\\xe6\\x97\\xb6\\xe9\\x97\\xb4\\xe9\\x94\\x81.sol\":1540:1545  owner */\n      0x00\n      0x00\n      swap1\n      sload\n      swap1\n      0x0100\n      exp\n      swap1\n      div\n      0xffffffffffffffffffffffffffffffffffffffff\n      and\n        /* \"solidity\\xe9\\xab\\x98\\xe7\\xba\\xa7\\xe5\\xba\\x94\\xe7\\x94\\xa8/timelock\\xe6\\x97\\xb6\\xe9\\x97\\xb4\\xe9\\x94\\x81.sol\":1526:1545  msg.sender == owner */\n      0xffffffffffffffffffffffffffffffffffffffff\n      and\n        /* \"solidity\\xe9\\xab\\x98\\xe7\\xba\\xa7\\xe5\\xba\\x94\\xe7\\x94\\xa8/timelock\\xe6\\x97\\xb6\\xe9\\x97\\xb4\\xe9\\x94\\x81.sol\":1526:1536  msg.sender */\n      caller\n        /* \"solidity\\xe9\\xab\\x98\\xe7\\xba\\xa7\\xe5\\xba\\x94\\xe7\\x94\\xa8/timelock\\xe6\\x97\\xb6\\xe9\\x97\\xb4\\xe9\\x94\\x81.sol\":1526:1545  msg.sender == owner */\n      0xffffffffffffffffffffffffffffffffffffffff\n      and\n      eq\n        /* \"solidity\\xe9\\xab\\x98\\xe7\\xba\\xa7\\xe5\\xba\\x94\\xe7\\x94\\xa8/timelock\\xe6\\x97\\xb6\\xe9\\x97\\xb4\\xe9\\x94\\x81.sol\":1518:1558  require(msg.sender == owner,\"not owner\") */\n      tag_65\n      jumpi\n      mload(0x40)\n      0x08c379a000000000000000000000000000000000000000000000000000000000\n      dup2\n      mstore\n      0x04\n      add\n      tag_66\n      swap1\n      tag_59\n      jump\t// in\n    tag_66:\n      mload(0x40)\n      dup1\n      swap2\n      sub\n      swap1\n      revert\n    tag_65:\n        /* \"solidity\\xe9\\xab\\x98\\xe7\\xba\\xa7\\xe5\\xba\\x94\\xe7\\x94\\xa8/timelock\\xe6\\x97\\xb6\\xe9\\x97\\xb4\\xe9\\x94\\x81.sol\":2001:2011  bytes32 id */\n      0x00\n        /* \"solidity\\xe9\\xab\\x98\\xe7\\xba\\xa7\\xe5\\xba\\x94\\xe7\\x94\\xa8/timelock\\xe6\\x97\\xb6\\xe9\\x97\\xb4\\xe9\\x94\\x81.sol\":2014:2062  getId(target, amount, funcName, data, timestamp) */\n      tag_68\n        /* \"solidity\\xe9\\xab\\x98\\xe7\\xba\\xa7\\xe5\\xba\\x94\\xe7\\x94\\xa8/timelock\\xe6\\x97\\xb6\\xe9\\x97\\xb4\\xe9\\x94\\x81.sol\":2020:2026  target */\n      dup7\n        /* \"solidity\\xe9\\xab\\x98\\xe7\\xba\\xa7\\xe5\\xba\\x94\\xe7\\x94\\xa8/timelock\\xe6\\x97\\xb6\\xe9\\x97\\xb4\\xe9\\x94\\x81.sol\":2028:2034  amount */\n      dup7\n        /* \"solidity\\xe9\\xab\\x98\\xe7\\xba\\xa7\\xe5\\xba\\x94\\xe7\\x94\\xa8/timelock\\xe6\\x97\\xb6\\xe9\\x97\\xb4\\xe9\\x94\\x81.sol\":2036:2044  funcName */\n      dup7\n        /* \"solidity\\xe9\\xab\\x98\\xe7\\xba\\xa7\\xe5\\xba\\x94\\xe7\\x94\\xa8/timelock\\xe6\\x97\\xb6\\xe9\\x97\\xb4\\xe9\\x94\\x81.sol\":2046:2050  data */\n      dup7\n        /* \"solidity\\xe9\\xab\\x98\\xe7\\xba\\xa7\\xe5\\xba\\x94\\xe7\\x94\\xa8/timelock\\xe6\\x97\\xb6\\xe9\\x97\\xb4\\xe9\\x94\\x81.sol\":2052:2061  timestamp */\n      dup7\n        /* \"solidity\\xe9\\xab\\x98\\xe7\\xba\\xa7\\xe5\\xba\\x94\\xe7\\x94\\xa8/timelock\\xe6\\x97\\xb6\\xe9\\x97\\xb4\\xe9\\x94\\x81.sol\":2014:2019  getId */\n      tag_47\n        /* \"solidity\\xe9\\xab\\x98\\xe7\\xba\\xa7\\xe5\\xba\\x94\\xe7\\x94\\xa8/timelock\\xe6\\x97\\xb6\\xe9\\x97\\xb4\\xe9\\x94\\x81.sol\":2014:2062  getId(target, amount, funcName, data, timestamp) */\n      jump\t// in\n    tag_68:\n        /* \"solidity\\xe9\\xab\\x98\\xe7\\xba\\xa7\\xe5\\xba\\x94\\xe7\\x94\\xa8/timelock\\xe6\\x97\\xb6\\xe9\\x97\\xb4\\xe9\\x94\\x81.sol\":2001:2062  bytes32 id = getId(target, amount, funcName, data, timestamp) */\n      swap1\n      pop\n        /* \"solidity\\xe9\\xab\\x98\\xe7\\xba\\xa7\\xe5\\xba\\x94\\xe7\\x94\\xa8/timelock\\xe6\\x97\\xb6\\xe9\\x97\\xb4\\xe9\\x94\\x81.sol\":2076:2082  queued */\n      0x01\n        /* \"solidity\\xe9\\xab\\x98\\xe7\\xba\\xa7\\xe5\\xba\\x94\\xe7\\x94\\xa8/timelock\\xe6\\x97\\xb6\\xe9\\x97\\xb4\\xe9\\x94\\x81.sol\":2076:2086  queued[id] */\n      0x00\n        /* \"solidity\\xe9\\xab\\x98\\xe7\\xba\\xa7\\xe5\\xba\\x94\\xe7\\x94\\xa8/timelock\\xe6\\x97\\xb6\\xe9\\x97\\xb4\\xe9\\x94\\x81.sol\":2083:2085  id */\n      dup3\n        /* \"solidity\\xe9\\xab\\x98\\xe7\\xba\\xa7\\xe5\\xba\\x94\\xe7\\x94\\xa8/timelock\\xe6\\x97\\xb6\\xe9\\x97\\xb4\\xe9\\x94\\x81.sol\":2076:2086  queued[id] */\n      dup2\n      mstore\n      0x20\n      add\n      swap1\n      dup2\n      mstore\n      0x20\n      add\n      0x00\n      keccak256\n      0x00\n      swap1\n      sload\n      swap1\n      0x0100\n      exp\n      swap1\n      div\n      0xff\n      and\n        /* \"solidity\\xe9\\xab\\x98\\xe7\\xba\\xa7\\xe5\\xba\\x94\\xe7\\x94\\xa8/timelock\\xe6\\x97\\xb6\\xe9\\x97\\xb4\\xe9\\x94\\x81.sol\":2073:2144  if(queued[id]) {... */\n      iszero\n      tag_69\n      jumpi\n        /* \"solidity\\xe9\\xab\\x98\\xe7\\xba\\xa7\\xe5\\xba\\x94\\xe7\\x94\\xa8/timelock\\xe6\\x97\\xb6\\xe9\\x97\\xb4\\xe9\\x94\\x81.sol\":2129:2131  id */\n      dup1\n        /* \"solidity\\xe9\\xab\\x98\\xe7\\xba\\xa7\\xe5\\xba\\x94\\xe7\\x94\\xa8/timelock\\xe6\\x97\\xb6\\xe9\\x97\\xb4\\xe9\\x94\\x81.sol\":2110:2132  AlreadyQueuedError(id) */\n      mload(0x40)\n      0x995042be00000000000000000000000000000000000000000000000000000000\n      dup2\n      mstore\n      0x04\n      add\n      tag_70\n      swap2\n      swap1\n      tag_49\n      jump\t// in\n    tag_70:\n      mload(0x40)\n      dup1\n      swap2\n      sub\n      swap1\n      revert\n        /* \"solidity\\xe9\\xab\\x98\\xe7\\xba\\xa7\\xe5\\xba\\x94\\xe7\\x94\\xa8/timelock\\xe6\\x97\\xb6\\xe9\\x97\\xb4\\xe9\\x94\\x81.sol\":2073:2144  if(queued[id]) {... */\n    tag_69:\n        /* \"solidity\\xe9\\xab\\x98\\xe7\\xba\\xa7\\xe5\\xba\\x94\\xe7\\x94\\xa8/timelock\\xe6\\x97\\xb6\\xe9\\x97\\xb4\\xe9\\x94\\x81.sol\":839:841  40 */\n      0x28\n        /* \"solidity\\xe9\\xab\\x98\\xe7\\xba\\xa7\\xe5\\xba\\x94\\xe7\\x94\\xa8/timelock\\xe6\\x97\\xb6\\xe9\\x97\\xb4\\xe9\\x94\\x81.sol\":2179:2194  block.timestamp */\n      timestamp\n        /* \"solidity\\xe9\\xab\\x98\\xe7\\xba\\xa7\\xe5\\xba\\x94\\xe7\\x94\\xa8/timelock\\xe6\\x97\\xb6\\xe9\\x97\\xb4\\xe9\\x94\\x81.sol\":2179:2206  block.timestamp + MIN_DELAY */\n      tag_71\n      swap2\n      swap1\n      tag_72\n      jump\t// in\n    tag_71:\n        /* \"solidity\\xe9\\xab\\x98\\xe7\\xba\\xa7\\xe5\\xba\\x94\\xe7\\x94\\xa8/timelock\\xe6\\x97\\xb6\\xe9\\x97\\xb4\\xe9\\x94\\x81.sol\":2167:2176  timestamp */\n      dup3\n        /* \"solidity\\xe9\\xab\\x98\\xe7\\xba\\xa7\\xe5\\xba\\x94\\xe7\\x94\\xa8/timelock\\xe6\\x97\\xb6\\xe9\\x97\\xb4\\xe9\\x94\\x81.sol\":2167:2206  timestamp < block.timestamp + MIN_DELAY */\n      lt\n        /* \"solidity\\xe9\\xab\\x98\\xe7\\xba\\xa7\\xe5\\xba\\x94\\xe7\\x94\\xa8/timelock\\xe6\\x97\\xb6\\xe9\\x97\\xb4\\xe9\\x94\\x81.sol\":2167:2249  timestamp < block.timestamp + MIN_DELAY || timestamp > block.timestamp + MAX_DELAY */\n      dup1\n      tag_73\n      jumpi\n      pop\n        /* \"solidity\\xe9\\xab\\x98\\xe7\\xba\\xa7\\xe5\\xba\\x94\\xe7\\x94\\xa8/timelock\\xe6\\x97\\xb6\\xe9\\x97\\xb4\\xe9\\x94\\x81.sol\":881:885  1000 */\n      0x03e8\n        /* \"solidity\\xe9\\xab\\x98\\xe7\\xba\\xa7\\xe5\\xba\\x94\\xe7\\x94\\xa8/timelock\\xe6\\x97\\xb6\\xe9\\x97\\xb4\\xe9\\x94\\x81.sol\":2222:2237  block.timestamp */\n      timestamp\n        /* \"solidity\\xe9\\xab\\x98\\xe7\\xba\\xa7\\xe5\\xba\\x94\\xe7\\x94\\xa8/timelock\\xe6\\x97\\xb6\\xe9\\x97\\xb4\\xe9\\x94\\x81.sol\":2222:2249  block.timestamp + MAX_DELAY */\n      tag_74\n      swap2\n      swap1\n      tag_72\n      jump\t// in\n    tag_74:\n        /* \"solidity\\xe9\\xab\\x98\\xe7\\xba\\xa7\\xe5\\xba\\x94\\xe7\\x94\\xa8/timelock\\xe6\\x97\\xb6\\xe9\\x97\\xb4\\xe9\\x94\\x81.sol\":2210:2219  timestamp */\n      dup3\n        /* \"solidity\\xe9\\xab\\x98\\xe7\\xba\\xa7\\xe5\\xba\\x94\\xe7\\x94\\xa8/timelock\\xe6\\x97\\xb6\\xe9\\x97\\xb4\\xe9\\x94\\x81.sol\":2210:2249  timestamp > block.timestamp + MAX_DELAY */\n      gt\n        /* \"solidity\\xe9\\xab\\x98\\xe7\\xba\\xa7\\xe5\\xba\\x94\\xe7\\x94\\xa8/timelock\\xe6\\x97\\xb6\\xe9\\x97\\xb4\\xe9\\x94\\x81.sol\":2167:2249  timestamp < block.timestamp + MIN_DELAY || timestamp > block.timestamp + MAX_DELAY */\n    tag_73:\n        /* \"solidity\\xe9\\xab\\x98\\xe7\\xba\\xa7\\xe5\\xba\\x94\\xe7\\x94\\xa8/timelock\\xe6\\x97\\xb6\\xe9\\x97\\xb4\\xe9\\x94\\x81.sol\":2164:2311  if(timestamp < block.timestamp + MIN_DELAY || timestamp > block.timestamp + MAX_DELAY) {... */\n      iszero\n      tag_75\n      jumpi\n        /* \"solidity\\xe9\\xab\\x98\\xe7\\xba\\xa7\\xe5\\xba\\x94\\xe7\\x94\\xa8/timelock\\xe6\\x97\\xb6\\xe9\\x97\\xb4\\xe9\\x94\\x81.sol\":2273:2299  TimestampNotInRangeError() */\n      mload(0x40)\n      0x05dfb40e00000000000000000000000000000000000000000000000000000000\n      dup2\n      mstore\n      0x04\n      add\n      mload(0x40)\n      dup1\n      swap2\n      sub\n      swap1\n      revert\n        /* \"solidity\\xe9\\xab\\x98\\xe7\\xba\\xa7\\xe5\\xba\\x94\\xe7\\x94\\xa8/timelock\\xe6\\x97\\xb6\\xe9\\x97\\xb4\\xe9\\x94\\x81.sol\":2164:2311  if(timestamp < block.timestamp + MIN_DELAY || timestamp > block.timestamp + MAX_DELAY) {... */\n    tag_75:\n        /* \"solidity\\xe9\\xab\\x98\\xe7\\xba\\xa7\\xe5\\xba\\x94\\xe7\\x94\\xa8/timelock\\xe6\\x97\\xb6\\xe9\\x97\\xb4\\xe9\\x94\\x81.sol\":2336:2340  true */\n      0x01\n        /* \"solidity\\xe9\\xab\\x98\\xe7\\xba\\xa7\\xe5\\xba\\x94\\xe7\\x94\\xa8/timelock\\xe6\\x97\\xb6\\xe9\\x97\\xb4\\xe9\\x94\\x81.sol\":2323:2329  queued */\n      dup1\n        /* \"solidity\\xe9\\xab\\x98\\xe7\\xba\\xa7\\xe5\\xba\\x94\\xe7\\x94\\xa8/timelock\\xe6\\x97\\xb6\\xe9\\x97\\xb4\\xe9\\x94\\x81.sol\":2323:2333  queued[id] */\n      0x00\n        /* \"solidity\\xe9\\xab\\x98\\xe7\\xba\\xa7\\xe5\\xba\\x94\\xe7\\x94\\xa8/timelock\\xe6\\x97\\xb6\\xe9\\x97\\xb4\\xe9\\x94\\x81.sol\":2330:2332  id */\n      dup4\n        /* \"solidity\\xe9\\xab\\x98\\xe7\\xba\\xa7\\xe5\\xba\\x94\\xe7\\x94\\xa8/timelock\\xe6\\x97\\xb6\\xe9\\x97\\xb4\\xe9\\x94\\x81.sol\":2323:2333  queued[id] */\n      dup2\n      mstore\n      0x20\n      add\n      swap1\n      dup2\n      mstore\n      0x20\n      add\n      0x00\n      keccak256\n      0x00\n        /* \"solidity\\xe9\\xab\\x98\\xe7\\xba\\xa7\\xe5\\xba\\x94\\xe7\\x94\\xa8/timelock\\xe6\\x97\\xb6\\xe9\\x97\\xb4\\xe9\\x94\\x81.sol\":2323:2340  queued[id] = true */\n      0x0100\n      exp\n      dup2\n      sload\n      dup2\n      0xff\n      mul\n      not\n      and\n      swap1\n      dup4\n      iszero\n      iszero\n      mul\n      or\n      swap1\n      sstore\n      pop\n        /* \"solidity\\xe9\\xab\\x98\\xe7\\xba\\xa7\\xe5\\xba\\x94\\xe7\\x94\\xa8/timelock\\xe6\\x97\\xb6\\xe9\\x97\\xb4\\xe9\\x94\\x81.sol\":2367:2369  id */\n      dup1\n        /* \"solidity\\xe9\\xab\\x98\\xe7\\xba\\xa7\\xe5\\xba\\x94\\xe7\\x94\\xa8/timelock\\xe6\\x97\\xb6\\xe9\\x97\\xb4\\xe9\\x94\\x81.sol\":2358:2413  QueueLog(id, target, amount, funcName, data, timestamp) */\n      0x0bc6f313d0985430d7cf30e2711a5d66b50af1170bef60a5af5aafebbab2d817\n        /* \"solidity\\xe9\\xab\\x98\\xe7\\xba\\xa7\\xe5\\xba\\x94\\xe7\\x94\\xa8/timelock\\xe6\\x97\\xb6\\xe9\\x97\\xb4\\xe9\\x94\\x81.sol\":2371:2377  target */\n      dup8\n        /* \"solidity\\xe9\\xab\\x98\\xe7\\xba\\xa7\\xe5\\xba\\x94\\xe7\\x94\\xa8/timelock\\xe6\\x97\\xb6\\xe9\\x97\\xb4\\xe9\\x94\\x81.sol\":2379:2385  amount */\n      dup8\n        /* \"solidity\\xe9\\xab\\x98\\xe7\\xba\\xa7\\xe5\\xba\\x94\\xe7\\x94\\xa8/timelock\\xe6\\x97\\xb6\\xe9\\x97\\xb4\\xe9\\x94\\x81.sol\":2387:2395  funcName */\n      dup8\n        /* \"solidity\\xe9\\xab\\x98\\xe7\\xba\\xa7\\xe5\\xba\\x94\\xe7\\x94\\xa8/timelock\\xe6\\x97\\xb6\\xe9\\x97\\xb4\\xe9\\x94\\x81.sol\":2397:2401  data */\n      dup8\n        /* \"solidity\\xe9\\xab\\x98\\xe7\\xba\\xa7\\xe5\\xba\\x94\\xe7\\x94\\xa8/timelock\\xe6\\x97\\xb6\\xe9\\x97\\xb4\\xe9\\x94\\x81.sol\":2403:2412  timestamp */\n      dup8\n        /* \"solidity\\xe9\\xab\\x98\\xe7\\xba\\xa7\\xe5\\xba\\x94\\xe7\\x94\\xa8/timelock\\xe6\\x97\\xb6\\xe9\\x97\\xb4\\xe9\\x94\\x81.sol\":2358:2413  QueueLog(id, target, amount, funcName, data, timestamp) */\n      mload(0x40)\n      tag_76\n      swap6\n      swap5\n      swap4\n      swap3\n      swap2\n      swap1\n      tag_77\n      jump\t// in\n    tag_76:\n      mload(0x40)\n      dup1\n      swap2\n      sub\n      swap1\n      log2\n        /* \"solidity\\xe9\\xab\\x98\\xe7\\xba\\xa7\\xe5\\xba\\x94\\xe7\\x94\\xa8/timelock\\xe6\\x97\\xb6\\xe9\\x97\\xb4\\xe9\\x94\\x81.sol\":1990:2423  {... */\n      pop\n        /* \"solidity\\xe9\\xab\\x98\\xe7\\xba\\xa7\\xe5\\xba\\x94\\xe7\\x94\\xa8/timelock\\xe6\\x97\\xb6\\xe9\\x97\\xb4\\xe9\\x94\\x81.sol\":1854:2423  function queue(... */\n      pop\n      pop\n      pop\n      pop\n      pop\n      jump\t// out\n        /* \"solidity\\xe9\\xab\\x98\\xe7\\xba\\xa7\\xe5\\xba\\x94\\xe7\\x94\\xa8/timelock\\xe6\\x97\\xb6\\xe9\\x97\\xb4\\xe9\\x94\\x81.sol\":734:754  address public owner */\n    tag_37:\n      0x00\n      0x00\n      swap1\n      sload\n      swap1\n      0x0100\n      exp\n      swap1\n      div\n      0xffffffffffffffffffffffffffffffffffffffff\n      and\n      dup2\n      jump\t// out\n        /* \"solidity\\xe9\\xab\\x98\\xe7\\xba\\xa7\\xe5\\xba\\x94\\xe7\\x94\\xa8/timelock\\xe6\\x97\\xb6\\xe9\\x97\\xb4\\xe9\\x94\\x81.sol\":806:841  uint public constant MIN_DELAY = 40 */\n    tag_42:\n        /* \"solidity\\xe9\\xab\\x98\\xe7\\xba\\xa7\\xe5\\xba\\x94\\xe7\\x94\\xa8/timelock\\xe6\\x97\\xb6\\xe9\\x97\\xb4\\xe9\\x94\\x81.sol\":839:841  40 */\n      0x28\n        /* \"solidity\\xe9\\xab\\x98\\xe7\\xba\\xa7\\xe5\\xba\\x94\\xe7\\x94\\xa8/timelock\\xe6\\x97\\xb6\\xe9\\x97\\xb4\\xe9\\x94\\x81.sol\":806:841  uint public constant MIN_DELAY = 40 */\n      dup2\n      jump\t// out\n        /* \"solidity\\xe9\\xab\\x98\\xe7\\xba\\xa7\\xe5\\xba\\x94\\xe7\\x94\\xa8/timelock\\xe6\\x97\\xb6\\xe9\\x97\\xb4\\xe9\\x94\\x81.sol\":1586:1831  function getId(... */\n    tag_47:\n        /* \"solidity\\xe9\\xab\\x98\\xe7\\xba\\xa7\\xe5\\xba\\x94\\xe7\\x94\\xa8/timelock\\xe6\\x97\\xb6\\xe9\\x97\\xb4\\xe9\\x94\\x81.sol\":1726:1733  bytes32 */\n      0x00\n        /* \"solidity\\xe9\\xab\\x98\\xe7\\xba\\xa7\\xe5\\xba\\x94\\xe7\\x94\\xa8/timelock\\xe6\\x97\\xb6\\xe9\\x97\\xb4\\xe9\\x94\\x81.sol\":1780:1786  target */\n      dup6\n        /* \"solidity\\xe9\\xab\\x98\\xe7\\xba\\xa7\\xe5\\xba\\x94\\xe7\\x94\\xa8/timelock\\xe6\\x97\\xb6\\xe9\\x97\\xb4\\xe9\\x94\\x81.sol\":1788:1794  amount */\n      dup6\n        /* \"solidity\\xe9\\xab\\x98\\xe7\\xba\\xa7\\xe5\\xba\\x94\\xe7\\x94\\xa8/timelock\\xe6\\x97\\xb6\\xe9\\x97\\xb4\\xe9\\x94\\x81.sol\":1796:1804  funcName */\n      dup6\n        /* \"solidity\\xe9\\xab\\x98\\xe7\\xba\\xa7\\xe5\\xba\\x94\\xe7\\x94\\xa8/timelock\\xe6\\x97\\xb6\\xe9\\x97\\xb4\\xe9\\x94\\x81.sol\":1806:1810  data */\n      dup6\n        /* \"solidity\\xe9\\xab\\x98\\xe7\\xba\\xa7\\xe5\\xba\\x94\\xe7\\x94\\xa8/timelock\\xe6\\x97\\xb6\\xe9\\x97\\xb4\\xe9\\x94\\x81.sol\":1812:1821  timestamp */\n      dup6\n        /* \"solidity\\xe9\\xab\\x98\\xe7\\xba\\xa7\\xe5\\xba\\x94\\xe7\\x94\\xa8/timelock\\xe6\\x97\\xb6\\xe9\\x97\\xb4\\xe9\\x94\\x81.sol\":1763:1822  abi.encodePacked(target, amount, funcName, data, timestamp) */\n      add(0x20, mload(0x40))\n      tag_79\n      swap6\n      swap5\n      swap4\n      swap3\n      swap2\n      swap1\n      tag_80\n      jump\t// in\n    tag_79:\n      mload(0x40)\n      0x20\n      dup2\n      dup4\n      sub\n      sub\n      dup2\n      mstore\n      swap1\n      0x40\n      mstore\n        /* \"solidity\\xe9\\xab\\x98\\xe7\\xba\\xa7\\xe5\\xba\\x94\\xe7\\x94\\xa8/timelock\\xe6\\x97\\xb6\\xe9\\x97\\xb4\\xe9\\x94\\x81.sol\":1753:1823  keccak256(abi.encodePacked(target, amount, funcName, data, timestamp)) */\n      dup1\n      mload\n      swap1\n      0x20\n      add\n      keccak256\n        /* \"solidity\\xe9\\xab\\x98\\xe7\\xba\\xa7\\xe5\\xba\\x94\\xe7\\x94\\xa8/timelock\\xe6\\x97\\xb6\\xe9\\x97\\xb4\\xe9\\x94\\x81.sol\":1746:1823  return keccak256(abi.encodePacked(target, amount, funcName, data, timestamp)) */\n      swap1\n      pop\n        /* \"solidity\\xe9\\xab\\x98\\xe7\\xba\\xa7\\xe5\\xba\\x94\\xe7\\x94\\xa8/timelock\\xe6\\x97\\xb6\\xe9\\x97\\xb4\\xe9\\x94\\x81.sol\":1586:1831  function getId(... */\n      swap6\n      swap5\n      pop\n      pop\n      pop\n      pop\n      pop\n      jump\t// out\n        /* \"solidity\\xe9\\xab\\x98\\xe7\\xba\\xa7\\xe5\\xba\\x94\\xe7\\x94\\xa8/timelock\\xe6\\x97\\xb6\\xe9\\x97\\xb4\\xe9\\x94\\x81.sol\":2671:3646  function execute(... */\n    tag_53:\n        /* \"solidity\\xe9\\xab\\x98\\xe7\\xba\\xa7\\xe5\\xba\\x94\\xe7\\x94\\xa8/timelock\\xe6\\x97\\xb6\\xe9\\x97\\xb4\\xe9\\x94\\x81.sol\":2808:2820  bytes memory */\n      0x60\n        /* \"solidity\\xe9\\xab\\x98\\xe7\\xba\\xa7\\xe5\\xba\\x94\\xe7\\x94\\xa8/timelock\\xe6\\x97\\xb6\\xe9\\x97\\xb4\\xe9\\x94\\x81.sol\":2833:2843  bytes32 id */\n      0x00\n        /* \"solidity\\xe9\\xab\\x98\\xe7\\xba\\xa7\\xe5\\xba\\x94\\xe7\\x94\\xa8/timelock\\xe6\\x97\\xb6\\xe9\\x97\\xb4\\xe9\\x94\\x81.sol\":2846:2894  getId(target, amount, funcName, data, timestamp) */\n      tag_82\n        /* \"solidity\\xe9\\xab\\x98\\xe7\\xba\\xa7\\xe5\\xba\\x94\\xe7\\x94\\xa8/timelock\\xe6\\x97\\xb6\\xe9\\x97\\xb4\\xe9\\x94\\x81.sol\":2852:2858  target */\n      dup8\n        /* \"solidity\\xe9\\xab\\x98\\xe7\\xba\\xa7\\xe5\\xba\\x94\\xe7\\x94\\xa8/timelock\\xe6\\x97\\xb6\\xe9\\x97\\xb4\\xe9\\x94\\x81.sol\":2860:2866  amount */\n      dup8\n        /* \"solidity\\xe9\\xab\\x98\\xe7\\xba\\xa7\\xe5\\xba\\x94\\xe7\\x94\\xa8/timelock\\xe6\\x97\\xb6\\xe9\\x97\\xb4\\xe9\\x94\\x81.sol\":2868:2876  funcName */\n      dup8\n        /* \"solidity\\xe9\\xab\\x98\\xe7\\xba\\xa7\\xe5\\xba\\x94\\xe7\\x94\\xa8/timelock\\xe6\\x97\\xb6\\xe9\\x97\\xb4\\xe9\\x94\\x81.sol\":2878:2882  data */\n      dup8\n        /* \"solidity\\xe9\\xab\\x98\\xe7\\xba\\xa7\\xe5\\xba\\x94\\xe7\\x94\\xa8/timelock\\xe6\\x97\\xb6\\xe9\\x97\\xb4\\xe9\\x94\\x81.sol\":2884:2893  timestamp */\n      dup8\n        /* \"solidity\\xe9\\xab\\x98\\xe7\\xba\\xa7\\xe5\\xba\\x94\\xe7\\x94\\xa8/timelock\\xe6\\x97\\xb6\\xe9\\x97\\xb4\\xe9\\x94\\x81.sol\":2846:2851  getId */\n      tag_47\n        /* \"solidity\\xe9\\xab\\x98\\xe7\\xba\\xa7\\xe5\\xba\\x94\\xe7\\x94\\xa8/timelock\\xe6\\x97\\xb6\\xe9\\x97\\xb4\\xe9\\x94\\x81.sol\":2846:2894  getId(target, amount, funcName, data, timestamp) */\n      jump\t// in\n    tag_82:\n        /* \"solidity\\xe9\\xab\\x98\\xe7\\xba\\xa7\\xe5\\xba\\x94\\xe7\\x94\\xa8/timelock\\xe6\\x97\\xb6\\xe9\\x97\\xb4\\xe9\\x94\\x81.sol\":2833:2894  bytes32 id = getId(target, amount, funcName, data, timestamp) */\n      swap1\n      pop\n        /* \"solidity\\xe9\\xab\\x98\\xe7\\xba\\xa7\\xe5\\xba\\x94\\xe7\\x94\\xa8/timelock\\xe6\\x97\\xb6\\xe9\\x97\\xb4\\xe9\\x94\\x81.sol\":2909:2915  queued */\n      0x01\n        /* \"solidity\\xe9\\xab\\x98\\xe7\\xba\\xa7\\xe5\\xba\\x94\\xe7\\x94\\xa8/timelock\\xe6\\x97\\xb6\\xe9\\x97\\xb4\\xe9\\x94\\x81.sol\":2909:2919  queued[id] */\n      0x00\n        /* \"solidity\\xe9\\xab\\x98\\xe7\\xba\\xa7\\xe5\\xba\\x94\\xe7\\x94\\xa8/timelock\\xe6\\x97\\xb6\\xe9\\x97\\xb4\\xe9\\x94\\x81.sol\":2916:2918  id */\n      dup3\n        /* \"solidity\\xe9\\xab\\x98\\xe7\\xba\\xa7\\xe5\\xba\\x94\\xe7\\x94\\xa8/timelock\\xe6\\x97\\xb6\\xe9\\x97\\xb4\\xe9\\x94\\x81.sol\":2909:2919  queued[id] */\n      dup2\n      mstore\n      0x20\n      add\n      swap1\n      dup2\n      mstore\n      0x20\n      add\n      0x00\n      keccak256\n      0x00\n      swap1\n      sload\n      swap1\n      0x0100\n      exp\n      swap1\n      div\n      0xff\n      and\n        /* \"solidity\\xe9\\xab\\x98\\xe7\\xba\\xa7\\xe5\\xba\\x94\\xe7\\x94\\xa8/timelock\\xe6\\x97\\xb6\\xe9\\x97\\xb4\\xe9\\x94\\x81.sol\":2905:2973  if(!queued[id]) {... */\n      tag_83\n      jumpi\n        /* \"solidity\\xe9\\xab\\x98\\xe7\\xba\\xa7\\xe5\\xba\\x94\\xe7\\x94\\xa8/timelock\\xe6\\x97\\xb6\\xe9\\x97\\xb4\\xe9\\x94\\x81.sol\":2958:2960  id */\n      dup1\n        /* \"solidity\\xe9\\xab\\x98\\xe7\\xba\\xa7\\xe5\\xba\\x94\\xe7\\x94\\xa8/timelock\\xe6\\x97\\xb6\\xe9\\x97\\xb4\\xe9\\x94\\x81.sol\":2943:2961  NotQueuedError(id) */\n      mload(0x40)\n      0x0995c9d500000000000000000000000000000000000000000000000000000000\n      dup2\n      mstore\n      0x04\n      add\n      tag_84\n      swap2\n      swap1\n      tag_49\n      jump\t// in\n    tag_84:\n      mload(0x40)\n      dup1\n      swap2\n      sub\n      swap1\n      revert\n        /* \"solidity\\xe9\\xab\\x98\\xe7\\xba\\xa7\\xe5\\xba\\x94\\xe7\\x94\\xa8/timelock\\xe6\\x97\\xb6\\xe9\\x97\\xb4\\xe9\\x94\\x81.sol\":2905:2973  if(!queued[id]) {... */\n    tag_83:\n        /* \"solidity\\xe9\\xab\\x98\\xe7\\xba\\xa7\\xe5\\xba\\x94\\xe7\\x94\\xa8/timelock\\xe6\\x97\\xb6\\xe9\\x97\\xb4\\xe9\\x94\\x81.sol\":3019:3028  timestamp */\n      dup3\n        /* \"solidity\\xe9\\xab\\x98\\xe7\\xba\\xa7\\xe5\\xba\\x94\\xe7\\x94\\xa8/timelock\\xe6\\x97\\xb6\\xe9\\x97\\xb4\\xe9\\x94\\x81.sol\":3001:3016  block.timestamp */\n      timestamp\n        /* \"solidity\\xe9\\xab\\x98\\xe7\\xba\\xa7\\xe5\\xba\\x94\\xe7\\x94\\xa8/timelock\\xe6\\x97\\xb6\\xe9\\x97\\xb4\\xe9\\x94\\x81.sol\":3001:3028  block.timestamp < timestamp */\n      lt\n        /* \"solidity\\xe9\\xab\\x98\\xe7\\xba\\xa7\\xe5\\xba\\x94\\xe7\\x94\\xa8/timelock\\xe6\\x97\\xb6\\xe9\\x97\\xb4\\xe9\\x94\\x81.sol\":2998:3084  if(block.timestamp < timestamp) {... */\n      iszero\n      tag_85\n      jumpi\n        /* \"solidity\\xe9\\xab\\x98\\xe7\\xba\\xa7\\xe5\\xba\\x94\\xe7\\x94\\xa8/timelock\\xe6\\x97\\xb6\\xe9\\x97\\xb4\\xe9\\x94\\x81.sol\":3052:3072  TimeNotPassedError() */\n      mload(0x40)\n      0x6057f42b00000000000000000000000000000000000000000000000000000000\n      dup2\n      mstore\n      0x04\n      add\n      mload(0x40)\n      dup1\n      swap2\n      sub\n      swap1\n      revert\n        /* \"solidity\\xe9\\xab\\x98\\xe7\\xba\\xa7\\xe5\\xba\\x94\\xe7\\x94\\xa8/timelock\\xe6\\x97\\xb6\\xe9\\x97\\xb4\\xe9\\x94\\x81.sol\":2998:3084  if(block.timestamp < timestamp) {... */\n    tag_85:\n        /* \"solidity\\xe9\\xab\\x98\\xe7\\xba\\xa7\\xe5\\xba\\x94\\xe7\\x94\\xa8/timelock\\xe6\\x97\\xb6\\xe9\\x97\\xb4\\xe9\\x94\\x81.sol\":881:885  1000 */\n      0x03e8\n        /* \"solidity\\xe9\\xab\\x98\\xe7\\xba\\xa7\\xe5\\xba\\x94\\xe7\\x94\\xa8/timelock\\xe6\\x97\\xb6\\xe9\\x97\\xb4\\xe9\\x94\\x81.sol\":3117:3126  timestamp */\n      dup4\n        /* \"solidity\\xe9\\xab\\x98\\xe7\\xba\\xa7\\xe5\\xba\\x94\\xe7\\x94\\xa8/timelock\\xe6\\x97\\xb6\\xe9\\x97\\xb4\\xe9\\x94\\x81.sol\":3117:3138  timestamp + MAX_DELAY */\n      tag_86\n      swap2\n      swap1\n      tag_72\n      jump\t// in\n    tag_86:\n        /* \"solidity\\xe9\\xab\\x98\\xe7\\xba\\xa7\\xe5\\xba\\x94\\xe7\\x94\\xa8/timelock\\xe6\\x97\\xb6\\xe9\\x97\\xb4\\xe9\\x94\\x81.sol\":3099:3114  block.timestamp */\n      timestamp\n        /* \"solidity\\xe9\\xab\\x98\\xe7\\xba\\xa7\\xe5\\xba\\x94\\xe7\\x94\\xa8/timelock\\xe6\\x97\\xb6\\xe9\\x97\\xb4\\xe9\\x94\\x81.sol\":3099:3138  block.timestamp > timestamp + MAX_DELAY */\n      gt\n        /* \"solidity\\xe9\\xab\\x98\\xe7\\xba\\xa7\\xe5\\xba\\x94\\xe7\\x94\\xa8/timelock\\xe6\\x97\\xb6\\xe9\\x97\\xb4\\xe9\\x94\\x81.sol\":3096:3192  if(block.timestamp > timestamp + MAX_DELAY) {... */\n      iszero\n      tag_87\n      jumpi\n        /* \"solidity\\xe9\\xab\\x98\\xe7\\xba\\xa7\\xe5\\xba\\x94\\xe7\\x94\\xa8/timelock\\xe6\\x97\\xb6\\xe9\\x97\\xb4\\xe9\\x94\\x81.sol\":3162:3180  TimeExpiredError() */\n      mload(0x40)\n      0x7baf816d00000000000000000000000000000000000000000000000000000000\n      dup2\n      mstore\n      0x04\n      add\n      mload(0x40)\n      dup1\n      swap2\n      sub\n      swap1\n      revert\n        /* \"solidity\\xe9\\xab\\x98\\xe7\\xba\\xa7\\xe5\\xba\\x94\\xe7\\x94\\xa8/timelock\\xe6\\x97\\xb6\\xe9\\x97\\xb4\\xe9\\x94\\x81.sol\":3096:3192  if(block.timestamp > timestamp + MAX_DELAY) {... */\n    tag_87:\n        /* \"solidity\\xe9\\xab\\x98\\xe7\\xba\\xa7\\xe5\\xba\\x94\\xe7\\x94\\xa8/timelock\\xe6\\x97\\xb6\\xe9\\x97\\xb4\\xe9\\x94\\x81.sol\":3215:3219  true */\n      0x01\n        /* \"solidity\\xe9\\xab\\x98\\xe7\\xba\\xa7\\xe5\\xba\\x94\\xe7\\x94\\xa8/timelock\\xe6\\x97\\xb6\\xe9\\x97\\xb4\\xe9\\x94\\x81.sol\":3202:3208  queued */\n      dup1\n        /* \"solidity\\xe9\\xab\\x98\\xe7\\xba\\xa7\\xe5\\xba\\x94\\xe7\\x94\\xa8/timelock\\xe6\\x97\\xb6\\xe9\\x97\\xb4\\xe9\\x94\\x81.sol\":3202:3212  queued[id] */\n      0x00\n        /* \"solidity\\xe9\\xab\\x98\\xe7\\xba\\xa7\\xe5\\xba\\x94\\xe7\\x94\\xa8/timelock\\xe6\\x97\\xb6\\xe9\\x97\\xb4\\xe9\\x94\\x81.sol\":3209:3211  id */\n      dup4\n        /* \"solidity\\xe9\\xab\\x98\\xe7\\xba\\xa7\\xe5\\xba\\x94\\xe7\\x94\\xa8/timelock\\xe6\\x97\\xb6\\xe9\\x97\\xb4\\xe9\\x94\\x81.sol\":3202:3212  queued[id] */\n      dup2\n      mstore\n      0x20\n      add\n      swap1\n      dup2\n      mstore\n      0x20\n      add\n      0x00\n      keccak256\n      0x00\n        /* \"solidity\\xe9\\xab\\x98\\xe7\\xba\\xa7\\xe5\\xba\\x94\\xe7\\x94\\xa8/timelock\\xe6\\x97\\xb6\\xe9\\x97\\xb4\\xe9\\x94\\x81.sol\":3202:3219  queued[id] = true */\n      0x0100\n      exp\n      dup2\n      sload\n      dup2\n      0xff\n      mul\n      not\n      and\n      swap1\n      dup4\n      iszero\n      iszero\n      mul\n      or\n      swap1\n      sstore\n      pop\n        /* \"solidity\\xe9\\xab\\x98\\xe7\\xba\\xa7\\xe5\\xba\\x94\\xe7\\x94\\xa8/timelock\\xe6\\x97\\xb6\\xe9\\x97\\xb4\\xe9\\x94\\x81.sol\":3230:3252  bytes memory funcBytes */\n      0x00\n        /* \"solidity\\xe9\\xab\\x98\\xe7\\xba\\xa7\\xe5\\xba\\x94\\xe7\\x94\\xa8/timelock\\xe6\\x97\\xb6\\xe9\\x97\\xb4\\xe9\\x94\\x81.sol\":3280:3288  funcName */\n      dup6\n        /* \"solidity\\xe9\\xab\\x98\\xe7\\xba\\xa7\\xe5\\xba\\x94\\xe7\\x94\\xa8/timelock\\xe6\\x97\\xb6\\xe9\\x97\\xb4\\xe9\\x94\\x81.sol\":3256:3289  abi.encodeWithSignature(funcName) */\n      add(0x24, mload(0x40))\n      mload(0x40)\n      0x20\n      dup2\n      dup4\n      sub\n      sub\n      dup2\n      mstore\n      swap1\n      0x40\n      mstore\n      swap1\n      mload(0x40)\n      tag_88\n      swap2\n      swap1\n      tag_89\n      jump\t// in\n    tag_88:\n      mload(0x40)\n      dup1\n      swap2\n      sub\n      swap1\n      keccak256\n      not(0xffffffffffffffffffffffffffffffffffffffffffffffffffffffff)\n      and\n      0x20\n      dup3\n      add\n      dup1\n      mload\n      0xffffffffffffffffffffffffffffffffffffffffffffffffffffffff\n      dup4\n      dup2\n      dup4\n      and\n      or\n      dup4\n      mstore\n      pop\n      pop\n      pop\n      pop\n        /* \"solidity\\xe9\\xab\\x98\\xe7\\xba\\xa7\\xe5\\xba\\x94\\xe7\\x94\\xa8/timelock\\xe6\\x97\\xb6\\xe9\\x97\\xb4\\xe9\\x94\\x81.sol\":3230:3289  bytes memory funcBytes =  abi.encodeWithSignature(funcName) */\n      swap1\n      pop\n        /* \"solidity\\xe9\\xab\\x98\\xe7\\xba\\xa7\\xe5\\xba\\x94\\xe7\\x94\\xa8/timelock\\xe6\\x97\\xb6\\xe9\\x97\\xb4\\xe9\\x94\\x81.sol\":3424:3436  bool success */\n      0x00\n        /* \"solidity\\xe9\\xab\\x98\\xe7\\xba\\xa7\\xe5\\xba\\x94\\xe7\\x94\\xa8/timelock\\xe6\\x97\\xb6\\xe9\\x97\\xb4\\xe9\\x94\\x81.sol\":3437:3456  bytes memory result */\n      0x00\n        /* \"solidity\\xe9\\xab\\x98\\xe7\\xba\\xa7\\xe5\\xba\\x94\\xe7\\x94\\xa8/timelock\\xe6\\x97\\xb6\\xe9\\x97\\xb4\\xe9\\x94\\x81.sol\":3461:3467  target */\n      dup10\n        /* \"solidity\\xe9\\xab\\x98\\xe7\\xba\\xa7\\xe5\\xba\\x94\\xe7\\x94\\xa8/timelock\\xe6\\x97\\xb6\\xe9\\x97\\xb4\\xe9\\x94\\x81.sol\":3461:3472  target.call */\n      0xffffffffffffffffffffffffffffffffffffffff\n      and\n        /* \"solidity\\xe9\\xab\\x98\\xe7\\xba\\xa7\\xe5\\xba\\x94\\xe7\\x94\\xa8/timelock\\xe6\\x97\\xb6\\xe9\\x97\\xb4\\xe9\\x94\\x81.sol\":3480:3486  amount */\n      dup10\n        /* \"solidity\\xe9\\xab\\x98\\xe7\\xba\\xa7\\xe5\\xba\\x94\\xe7\\x94\\xa8/timelock\\xe6\\x97\\xb6\\xe9\\x97\\xb4\\xe9\\x94\\x81.sol\":3488:3497  funcBytes */\n      dup5\n        /* \"solidity\\xe9\\xab\\x98\\xe7\\xba\\xa7\\xe5\\xba\\x94\\xe7\\x94\\xa8/timelock\\xe6\\x97\\xb6\\xe9\\x97\\xb4\\xe9\\x94\\x81.sol\":3461:3498  target.call{value: amount}(funcBytes) */\n      mload(0x40)\n      tag_90\n      swap2\n      swap1\n      tag_91\n      jump\t// in\n    tag_90:\n      0x00\n      mload(0x40)\n      dup1\n      dup4\n      sub\n      dup2\n      dup6\n      dup8\n      gas\n      call\n      swap3\n      pop\n      pop\n      pop\n      returndatasize\n      dup1\n      0x00\n      dup2\n      eq\n      tag_94\n      jumpi\n      mload(0x40)\n      swap2\n      pop\n      and(add(returndatasize, 0x3f), not(0x1f))\n      dup3\n      add\n      0x40\n      mstore\n      returndatasize\n      dup3\n      mstore\n      returndatasize\n      0x00\n      0x20\n      dup5\n      add\n      returndatacopy\n      jump(tag_93)\n    tag_94:\n      0x60\n      swap2\n      pop\n    tag_93:\n      pop\n        /* \"solidity\\xe9\\xab\\x98\\xe7\\xba\\xa7\\xe5\\xba\\x94\\xe7\\x94\\xa8/timelock\\xe6\\x97\\xb6\\xe9\\x97\\xb4\\xe9\\x94\\x81.sol\":3423:3498  (bool success,bytes memory result) =  target.call{value: amount}(funcBytes) */\n      swap2\n      pop\n      swap2\n      pop\n        /* \"solidity\\xe9\\xab\\x98\\xe7\\xba\\xa7\\xe5\\xba\\x94\\xe7\\x94\\xa8/timelock\\xe6\\x97\\xb6\\xe9\\x97\\xb4\\xe9\\x94\\x81.sol\":3517:3524  success */\n      dup2\n        /* \"solidity\\xe9\\xab\\x98\\xe7\\xba\\xa7\\xe5\\xba\\x94\\xe7\\x94\\xa8/timelock\\xe6\\x97\\xb6\\xe9\\x97\\xb4\\xe9\\x94\\x81.sol\":3509:3539  require(success,\"call failed\") */\n      tag_95\n      jumpi\n      mload(0x40)\n      0x08c379a000000000000000000000000000000000000000000000000000000000\n      dup2\n      mstore\n      0x04\n      add\n      tag_96\n      swap1\n      tag_97\n      jump\t// in\n    tag_96:\n      mload(0x40)\n      dup1\n      swap2\n      sub\n      swap1\n      revert\n    tag_95:\n        /* \"solidity\\xe9\\xab\\x98\\xe7\\xba\\xa7\\xe5\\xba\\x94\\xe7\\x94\\xa8/timelock\\xe6\\x97\\xb6\\xe9\\x97\\xb4\\xe9\\x94\\x81.sol\":3568:3570  id */\n      dup4\n        /* \"solidity\\xe9\\xab\\x98\\xe7\\xba\\xa7\\xe5\\xba\\x94\\xe7\\x94\\xa8/timelock\\xe6\\x97\\xb6\\xe9\\x97\\xb4\\xe9\\x94\\x81.sol\":3557:3614  ExecuteLog(id, target, amount, funcName, data, timestamp) */\n      0x0a6ac5f65540bed13380f2fac3ddfe077ab0d357da7f8d82407b39b034cea76c\n        /* \"solidity\\xe9\\xab\\x98\\xe7\\xba\\xa7\\xe5\\xba\\x94\\xe7\\x94\\xa8/timelock\\xe6\\x97\\xb6\\xe9\\x97\\xb4\\xe9\\x94\\x81.sol\":3572:3578  target */\n      dup12\n        /* \"solidity\\xe9\\xab\\x98\\xe7\\xba\\xa7\\xe5\\xba\\x94\\xe7\\x94\\xa8/timelock\\xe6\\x97\\xb6\\xe9\\x97\\xb4\\xe9\\x94\\x81.sol\":3580:3586  amount */\n      dup12\n        /* \"solidity\\xe9\\xab\\x98\\xe7\\xba\\xa7\\xe5\\xba\\x94\\xe7\\x94\\xa8/timelock\\xe6\\x97\\xb6\\xe9\\x97\\xb4\\xe9\\x94\\x81.sol\":3588:3596  funcName */\n      dup12\n        /* \"solidity\\xe9\\xab\\x98\\xe7\\xba\\xa7\\xe5\\xba\\x94\\xe7\\x94\\xa8/timelock\\xe6\\x97\\xb6\\xe9\\x97\\xb4\\xe9\\x94\\x81.sol\":3598:3602  data */\n      dup12\n        /* \"solidity\\xe9\\xab\\x98\\xe7\\xba\\xa7\\xe5\\xba\\x94\\xe7\\x94\\xa8/timelock\\xe6\\x97\\xb6\\xe9\\x97\\xb4\\xe9\\x94\\x81.sol\":3604:3613  timestamp */\n      dup12\n        /* \"solidity\\xe9\\xab\\x98\\xe7\\xba\\xa7\\xe5\\xba\\x94\\xe7\\x94\\xa8/timelock\\xe6\\x97\\xb6\\xe9\\x97\\xb4\\xe9\\x94\\x81.sol\":3557:3614  ExecuteLog(id, target, amount, funcName, data, timestamp) */\n      mload(0x40)\n      tag_98\n      swap6\n      swap5\n      swap4\n      swap3\n      swap2\n      swap1\n      tag_77\n      jump\t// in\n    tag_98:\n      mload(0x40)\n      dup1\n      swap2\n      sub\n      swap1\n      log2\n        /* \"solidity\\xe9\\xab\\x98\\xe7\\xba\\xa7\\xe5\\xba\\x94\\xe7\\x94\\xa8/timelock\\xe6\\x97\\xb6\\xe9\\x97\\xb4\\xe9\\x94\\x81.sol\":3632:3638  result */\n      dup1\n        /* \"solidity\\xe9\\xab\\x98\\xe7\\xba\\xa7\\xe5\\xba\\x94\\xe7\\x94\\xa8/timelock\\xe6\\x97\\xb6\\xe9\\x97\\xb4\\xe9\\x94\\x81.sol\":3625:3638  return result */\n      swap5\n      pop\n      pop\n      pop\n      pop\n      pop\n        /* \"solidity\\xe9\\xab\\x98\\xe7\\xba\\xa7\\xe5\\xba\\x94\\xe7\\x94\\xa8/timelock\\xe6\\x97\\xb6\\xe9\\x97\\xb4\\xe9\\x94\\x81.sol\":2671:3646  function execute(... */\n      swap6\n      swap5\n      pop\n      pop\n      pop\n      pop\n      pop\n      jump\t// out\n        /* \"#utility.yul\":7:82   */\n    tag_99:\n        /* \"#utility.yul\":40:46   */\n      0x00\n        /* \"#utility.yul\":73:75   */\n      0x40\n        /* \"#utility.yul\":67:76   */\n      mload\n        /* \"#utility.yul\":57:76   */\n      swap1\n      pop\n        /* \"#utility.yul\":7:82   */\n      swap1\n      jump\t// out\n        /* \"#utility.yul\":88:205   */\n    tag_100:\n        /* \"#utility.yul\":197:198   */\n      0x00\n        /* \"#utility.yul\":194:195   */\n      0x00\n        /* \"#utility.yul\":187:199   */\n      revert\n        /* \"#utility.yul\":211:328   */\n    tag_101:\n        /* \"#utility.yul\":320:321   */\n      0x00\n        /* \"#utility.yul\":317:318   */\n      0x00\n        /* \"#utility.yul\":310:322   */\n      revert\n        /* \"#utility.yul\":334:411   */\n    tag_102:\n        /* \"#utility.yul\":371:378   */\n      0x00\n        /* \"#utility.yul\":400:405   */\n      dup2\n        /* \"#utility.yul\":389:405   */\n      swap1\n      pop\n        /* \"#utility.yul\":334:411   */\n      swap2\n      swap1\n      pop\n      jump\t// out\n        /* \"#utility.yul\":417:539   */\n    tag_103:\n        /* \"#utility.yul\":490:514   */\n      tag_158\n        /* \"#utility.yul\":508:513   */\n      dup2\n        /* \"#utility.yul\":490:514   */\n      tag_102\n      jump\t// in\n    tag_158:\n        /* \"#utility.yul\":483:488   */\n      dup2\n        /* \"#utility.yul\":480:515   */\n      eq\n        /* \"#utility.yul\":470:533   */\n      tag_159\n      jumpi\n        /* \"#utility.yul\":529:530   */\n      0x00\n        /* \"#utility.yul\":526:527   */\n      0x00\n        /* \"#utility.yul\":519:531   */\n      revert\n        /* \"#utility.yul\":470:533   */\n    tag_159:\n        /* \"#utility.yul\":417:539   */\n      pop\n      jump\t// out\n        /* \"#utility.yul\":545:684   */\n    tag_104:\n        /* \"#utility.yul\":591:596   */\n      0x00\n        /* \"#utility.yul\":629:635   */\n      dup2\n        /* \"#utility.yul\":616:636   */\n      calldataload\n        /* \"#utility.yul\":607:636   */\n      swap1\n      pop\n        /* \"#utility.yul\":645:678   */\n      tag_161\n        /* \"#utility.yul\":672:677   */\n      dup2\n        /* \"#utility.yul\":645:678   */\n      tag_103\n      jump\t// in\n    tag_161:\n        /* \"#utility.yul\":545:684   */\n      swap3\n      swap2\n      pop\n      pop\n      jump\t// out\n        /* \"#utility.yul\":690:1019   */\n    tag_17:\n        /* \"#utility.yul\":749:755   */\n      0x00\n        /* \"#utility.yul\":798:800   */\n      0x20\n        /* \"#utility.yul\":786:795   */\n      dup3\n        /* \"#utility.yul\":777:784   */\n      dup5\n        /* \"#utility.yul\":773:796   */\n      sub\n        /* \"#utility.yul\":769:801   */\n      slt\n        /* \"#utility.yul\":766:885   */\n      iszero\n      tag_163\n      jumpi\n        /* \"#utility.yul\":804:883   */\n      tag_164\n      tag_100\n      jump\t// in\n    tag_164:\n        /* \"#utility.yul\":766:885   */\n    tag_163:\n        /* \"#utility.yul\":924:925   */\n      0x00\n        /* \"#utility.yul\":949:1002   */\n      tag_165\n        /* \"#utility.yul\":994:1001   */\n      dup5\n        /* \"#utility.yul\":985:991   */\n      dup3\n        /* \"#utility.yul\":974:983   */\n      dup6\n        /* \"#utility.yul\":970:992   */\n      add\n        /* \"#utility.yul\":949:1002   */\n      tag_104\n      jump\t// in\n    tag_165:\n        /* \"#utility.yul\":939:1002   */\n      swap2\n      pop\n        /* \"#utility.yul\":895:1012   */\n      pop\n        /* \"#utility.yul\":690:1019   */\n      swap3\n      swap2\n      pop\n      pop\n      jump\t// out\n        /* \"#utility.yul\":1025:1115   */\n    tag_105:\n        /* \"#utility.yul\":1059:1066   */\n      0x00\n        /* \"#utility.yul\":1102:1107   */\n      dup2\n        /* \"#utility.yul\":1095:1108   */\n      iszero\n        /* \"#utility.yul\":1088:1109   */\n      iszero\n        /* \"#utility.yul\":1077:1109   */\n      swap1\n      pop\n        /* \"#utility.yul\":1025:1115   */\n      swap2\n      swap1\n      pop\n      jump\t// out\n        /* \"#utility.yul\":1121:1230   */\n    tag_106:\n        /* \"#utility.yul\":1202:1223   */\n      tag_168\n        /* \"#utility.yul\":1217:1222   */\n      dup2\n        /* \"#utility.yul\":1202:1223   */\n      tag_105\n      jump\t// in\n    tag_168:\n        /* \"#utility.yul\":1197:1200   */\n      dup3\n        /* \"#utility.yul\":1190:1224   */\n      mstore\n        /* \"#utility.yul\":1121:1230   */\n      pop\n      pop\n      jump\t// out\n        /* \"#utility.yul\":1236:1446   */\n    tag_24:\n        /* \"#utility.yul\":1323:1327   */\n      0x00\n        /* \"#utility.yul\":1361:1363   */\n      0x20\n        /* \"#utility.yul\":1350:1359   */\n      dup3\n        /* \"#utility.yul\":1346:1364   */\n      add\n        /* \"#utility.yul\":1338:1364   */\n      swap1\n      pop\n        /* \"#utility.yul\":1374:1439   */\n      tag_170\n        /* \"#utility.yul\":1436:1437   */\n      0x00\n        /* \"#utility.yul\":1425:1434   */\n      dup4\n        /* \"#utility.yul\":1421:1438   */\n      add\n        /* \"#utility.yul\":1412:1418   */\n      dup5\n        /* \"#utility.yul\":1374:1439   */\n      tag_106\n      jump\t// in\n    tag_170:\n        /* \"#utility.yul\":1236:1446   */\n      swap3\n      swap2\n      pop\n      pop\n      jump\t// out\n        /* \"#utility.yul\":1452:1529   */\n    tag_107:\n        /* \"#utility.yul\":1489:1496   */\n      0x00\n        /* \"#utility.yul\":1518:1523   */\n      dup2\n        /* \"#utility.yul\":1507:1523   */\n      swap1\n      pop\n        /* \"#utility.yul\":1452:1529   */\n      swap2\n      swap1\n      pop\n      jump\t// out\n        /* \"#utility.yul\":1535:1653   */\n    tag_108:\n        /* \"#utility.yul\":1622:1646   */\n      tag_173\n        /* \"#utility.yul\":1640:1645   */\n      dup2\n        /* \"#utility.yul\":1622:1646   */\n      tag_107\n      jump\t// in\n    tag_173:\n        /* \"#utility.yul\":1617:1620   */\n      dup3\n        /* \"#utility.yul\":1610:1647   */\n      mstore\n        /* \"#utility.yul\":1535:1653   */\n      pop\n      pop\n      jump\t// out\n        /* \"#utility.yul\":1659:1881   */\n    tag_29:\n        /* \"#utility.yul\":1752:1756   */\n      0x00\n        /* \"#utility.yul\":1790:1792   */\n      0x20\n        /* \"#utility.yul\":1779:1788   */\n      dup3\n        /* \"#utility.yul\":1775:1793   */\n      add\n        /* \"#utility.yul\":1767:1793   */\n      swap1\n      pop\n        /* \"#utility.yul\":1803:1874   */\n      tag_175\n        /* \"#utility.yul\":1871:1872   */\n      0x00\n        /* \"#utility.yul\":1860:1869   */\n      dup4\n        /* \"#utility.yul\":1856:1873   */\n      add\n        /* \"#utility.yul\":1847:1853   */\n      dup5\n        /* \"#utility.yul\":1803:1874   */\n      tag_108\n      jump\t// in\n    tag_175:\n        /* \"#utility.yul\":1659:1881   */\n      swap3\n      swap2\n      pop\n      pop\n      jump\t// out\n        /* \"#utility.yul\":1887:2013   */\n    tag_109:\n        /* \"#utility.yul\":1924:1931   */\n      0x00\n        /* \"#utility.yul\":1964:2006   */\n      0xffffffffffffffffffffffffffffffffffffffff\n        /* \"#utility.yul\":1957:1962   */\n      dup3\n        /* \"#utility.yul\":1953:2007   */\n      and\n        /* \"#utility.yul\":1942:2007   */\n      swap1\n      pop\n        /* \"#utility.yul\":1887:2013   */\n      swap2\n      swap1\n      pop\n      jump\t// out\n        /* \"#utility.yul\":2019:2115   */\n    tag_110:\n        /* \"#utility.yul\":2056:2063   */\n      0x00\n        /* \"#utility.yul\":2085:2109   */\n      tag_178\n        /* \"#utility.yul\":2103:2108   */\n      dup3\n        /* \"#utility.yul\":2085:2109   */\n      tag_109\n      jump\t// in\n    tag_178:\n        /* \"#utility.yul\":2074:2109   */\n      swap1\n      pop\n        /* \"#utility.yul\":2019:2115   */\n      swap2\n      swap1\n      pop\n      jump\t// out\n        /* \"#utility.yul\":2121:2243   */\n    tag_111:\n        /* \"#utility.yul\":2194:2218   */\n      tag_180\n        /* \"#utility.yul\":2212:2217   */\n      dup2\n        /* \"#utility.yul\":2194:2218   */\n      tag_110\n      jump\t// in\n    tag_180:\n        /* \"#utility.yul\":2187:2192   */\n      dup2\n        /* \"#utility.yul\":2184:2219   */\n      eq\n        /* \"#utility.yul\":2174:2237   */\n      tag_181\n      jumpi\n        /* \"#utility.yul\":2233:2234   */\n      0x00\n        /* \"#utility.yul\":2230:2231   */\n      0x00\n        /* \"#utility.yul\":2223:2235   */\n      revert\n        /* \"#utility.yul\":2174:2237   */\n    tag_181:\n        /* \"#utility.yul\":2121:2243   */\n      pop\n      jump\t// out\n        /* \"#utility.yul\":2249:2388   */\n    tag_112:\n        /* \"#utility.yul\":2295:2300   */\n      0x00\n        /* \"#utility.yul\":2333:2339   */\n      dup2\n        /* \"#utility.yul\":2320:2340   */\n      calldataload\n        /* \"#utility.yul\":2311:2340   */\n      swap1\n      pop\n        /* \"#utility.yul\":2349:2382   */\n      tag_183\n        /* \"#utility.yul\":2376:2381   */\n      dup2\n        /* \"#utility.yul\":2349:2382   */\n      tag_111\n      jump\t// in\n    tag_183:\n        /* \"#utility.yul\":2249:2388   */\n      swap3\n      swap2\n      pop\n      pop\n      jump\t// out\n        /* \"#utility.yul\":2394:2516   */\n    tag_113:\n        /* \"#utility.yul\":2467:2491   */\n      tag_185\n        /* \"#utility.yul\":2485:2490   */\n      dup2\n        /* \"#utility.yul\":2467:2491   */\n      tag_107\n      jump\t// in\n    tag_185:\n        /* \"#utility.yul\":2460:2465   */\n      dup2\n        /* \"#utility.yul\":2457:2492   */\n      eq\n        /* \"#utility.yul\":2447:2510   */\n      tag_186\n      jumpi\n        /* \"#utility.yul\":2506:2507   */\n      0x00\n        /* \"#utility.yul\":2503:2504   */\n      0x00\n        /* \"#utility.yul\":2496:2508   */\n      revert\n        /* \"#utility.yul\":2447:2510   */\n    tag_186:\n        /* \"#utility.yul\":2394:2516   */\n      pop\n      jump\t// out\n        /* \"#utility.yul\":2522:2661   */\n    tag_114:\n        /* \"#utility.yul\":2568:2573   */\n      0x00\n        /* \"#utility.yul\":2606:2612   */\n      dup2\n        /* \"#utility.yul\":2593:2613   */\n      calldataload\n        /* \"#utility.yul\":2584:2613   */\n      swap1\n      pop\n        /* \"#utility.yul\":2622:2655   */\n      tag_188\n        /* \"#utility.yul\":2649:2654   */\n      dup2\n        /* \"#utility.yul\":2622:2655   */\n      tag_113\n      jump\t// in\n    tag_188:\n        /* \"#utility.yul\":2522:2661   */\n      swap3\n      swap2\n      pop\n      pop\n      jump\t// out\n        /* \"#utility.yul\":2667:2784   */\n    tag_115:\n        /* \"#utility.yul\":2776:2777   */\n      0x00\n        /* \"#utility.yul\":2773:2774   */\n      0x00\n        /* \"#utility.yul\":2766:2778   */\n      revert\n        /* \"#utility.yul\":2790:2907   */\n    tag_116:\n        /* \"#utility.yul\":2899:2900   */\n      0x00\n        /* \"#utility.yul\":2896:2897   */\n      0x00\n        /* \"#utility.yul\":2889:2901   */\n      revert\n        /* \"#utility.yul\":2913:3015   */\n    tag_117:\n        /* \"#utility.yul\":2954:2960   */\n      0x00\n        /* \"#utility.yul\":3005:3007   */\n      0x1f\n        /* \"#utility.yul\":3001:3008   */\n      not\n        /* \"#utility.yul\":2996:2998   */\n      0x1f\n        /* \"#utility.yul\":2989:2994   */\n      dup4\n        /* \"#utility.yul\":2985:2999   */\n      add\n        /* \"#utility.yul\":2981:3009   */\n      and\n        /* \"#utility.yul\":2971:3009   */\n      swap1\n      pop\n        /* \"#utility.yul\":2913:3015   */\n      swap2\n      swap1\n      pop\n      jump\t// out\n        /* \"#utility.yul\":3021:3201   */\n    tag_118:\n        /* \"#utility.yul\":3069:3146   */\n      0x4e487b7100000000000000000000000000000000000000000000000000000000\n        /* \"#utility.yul\":3066:3067   */\n      0x00\n        /* \"#utility.yul\":3059:3147   */\n      mstore\n        /* \"#utility.yul\":3166:3170   */\n      0x41\n        /* \"#utility.yul\":3163:3164   */\n      0x04\n        /* \"#utility.yul\":3156:3171   */\n      mstore\n        /* \"#utility.yul\":3190:3194   */\n      0x24\n        /* \"#utility.yul\":3187:3188   */\n      0x00\n        /* \"#utility.yul\":3180:3195   */\n      revert\n        /* \"#utility.yul\":3207:3488   */\n    tag_119:\n        /* \"#utility.yul\":3290:3317   */\n      tag_194\n        /* \"#utility.yul\":3312:3316   */\n      dup3\n        /* \"#utility.yul\":3290:3317   */\n      tag_117\n      jump\t// in\n    tag_194:\n        /* \"#utility.yul\":3282:3288   */\n      dup2\n        /* \"#utility.yul\":3278:3318   */\n      add\n        /* \"#utility.yul\":3420:3426   */\n      dup2\n        /* \"#utility.yul\":3408:3418   */\n      dup2\n        /* \"#utility.yul\":3405:3427   */\n      lt\n        /* \"#utility.yul\":3384:3402   */\n      0xffffffffffffffff\n        /* \"#utility.yul\":3372:3382   */\n      dup3\n        /* \"#utility.yul\":3369:3403   */\n      gt\n        /* \"#utility.yul\":3366:3428   */\n      or\n        /* \"#utility.yul\":3363:3451   */\n      iszero\n      tag_195\n      jumpi\n        /* \"#utility.yul\":3431:3449   */\n      tag_196\n      tag_118\n      jump\t// in\n    tag_196:\n        /* \"#utility.yul\":3363:3451   */\n    tag_195:\n        /* \"#utility.yul\":3471:3481   */\n      dup1\n        /* \"#utility.yul\":3467:3469   */\n      0x40\n        /* \"#utility.yul\":3460:3482   */\n      mstore\n        /* \"#utility.yul\":3250:3488   */\n      pop\n        /* \"#utility.yul\":3207:3488   */\n      pop\n      pop\n      jump\t// out\n        /* \"#utility.yul\":3494:3623   */\n    tag_120:\n        /* \"#utility.yul\":3528:3534   */\n      0x00\n        /* \"#utility.yul\":3555:3575   */\n      tag_198\n      tag_99\n      jump\t// in\n    tag_198:\n        /* \"#utility.yul\":3545:3575   */\n      swap1\n      pop\n        /* \"#utility.yul\":3584:3617   */\n      tag_199\n        /* \"#utility.yul\":3612:3616   */\n      dup3\n        /* \"#utility.yul\":3604:3610   */\n      dup3\n        /* \"#utility.yul\":3584:3617   */\n      tag_119\n      jump\t// in\n    tag_199:\n        /* \"#utility.yul\":3494:3623   */\n      swap2\n      swap1\n      pop\n      jump\t// out\n        /* \"#utility.yul\":3629:3937   */\n    tag_121:\n        /* \"#utility.yul\":3691:3695   */\n      0x00\n        /* \"#utility.yul\":3781:3799   */\n      0xffffffffffffffff\n        /* \"#utility.yul\":3773:3779   */\n      dup3\n        /* \"#utility.yul\":3770:3800   */\n      gt\n        /* \"#utility.yul\":3767:3823   */\n      iszero\n      tag_201\n      jumpi\n        /* \"#utility.yul\":3803:3821   */\n      tag_202\n      tag_118\n      jump\t// in\n    tag_202:\n        /* \"#utility.yul\":3767:3823   */\n    tag_201:\n        /* \"#utility.yul\":3841:3870   */\n      tag_203\n        /* \"#utility.yul\":3863:3869   */\n      dup3\n        /* \"#utility.yul\":3841:3870   */\n      tag_117\n      jump\t// in\n    tag_203:\n        /* \"#utility.yul\":3833:3870   */\n      swap1\n      pop\n        /* \"#utility.yul\":3925:3929   */\n      0x20\n        /* \"#utility.yul\":3919:3923   */\n      dup2\n        /* \"#utility.yul\":3915:3930   */\n      add\n        /* \"#utility.yul\":3907:3930   */\n      swap1\n      pop\n        /* \"#utility.yul\":3629:3937   */\n      swap2\n      swap1\n      pop\n      jump\t// out\n        /* \"#utility.yul\":3943:4091   */\n    tag_122:\n        /* \"#utility.yul\":4041:4047   */\n      dup3\n        /* \"#utility.yul\":4036:4039   */\n      dup2\n        /* \"#utility.yul\":4031:4034   */\n      dup4\n        /* \"#utility.yul\":4018:4048   */\n      calldatacopy\n        /* \"#utility.yul\":4082:4083   */\n      0x00\n        /* \"#utility.yul\":4073:4079   */\n      dup4\n        /* \"#utility.yul\":4068:4071   */\n      dup4\n        /* \"#utility.yul\":4064:4080   */\n      add\n        /* \"#utility.yul\":4057:4084   */\n      mstore\n        /* \"#utility.yul\":3943:4091   */\n      pop\n      pop\n      pop\n      jump\t// out\n        /* \"#utility.yul\":4097:4522   */\n    tag_123:\n        /* \"#utility.yul\":4175:4180   */\n      0x00\n        /* \"#utility.yul\":4200:4266   */\n      tag_206\n        /* \"#utility.yul\":4216:4265   */\n      tag_207\n        /* \"#utility.yul\":4258:4264   */\n      dup5\n        /* \"#utility.yul\":4216:4265   */\n      tag_121\n      jump\t// in\n    tag_207:\n        /* \"#utility.yul\":4200:4266   */\n      tag_120\n      jump\t// in\n    tag_206:\n        /* \"#utility.yul\":4191:4266   */\n      swap1\n      pop\n        /* \"#utility.yul\":4289:4295   */\n      dup3\n        /* \"#utility.yul\":4282:4287   */\n      dup2\n        /* \"#utility.yul\":4275:4296   */\n      mstore\n        /* \"#utility.yul\":4327:4331   */\n      0x20\n        /* \"#utility.yul\":4320:4325   */\n      dup2\n        /* \"#utility.yul\":4316:4332   */\n      add\n        /* \"#utility.yul\":4365:4368   */\n      dup5\n        /* \"#utility.yul\":4356:4362   */\n      dup5\n        /* \"#utility.yul\":4351:4354   */\n      dup5\n        /* \"#utility.yul\":4347:4363   */\n      add\n        /* \"#utility.yul\":4344:4369   */\n      gt\n        /* \"#utility.yul\":4341:4453   */\n      iszero\n      tag_208\n      jumpi\n        /* \"#utility.yul\":4372:4451   */\n      tag_209\n      tag_116\n      jump\t// in\n    tag_209:\n        /* \"#utility.yul\":4341:4453   */\n    tag_208:\n        /* \"#utility.yul\":4462:4516   */\n      tag_210\n        /* \"#utility.yul\":4509:4515   */\n      dup5\n        /* \"#utility.yul\":4504:4507   */\n      dup3\n        /* \"#utility.yul\":4499:4502   */\n      dup6\n        /* \"#utility.yul\":4462:4516   */\n      tag_122\n      jump\t// in\n    tag_210:\n        /* \"#utility.yul\":4181:4522   */\n      pop\n        /* \"#utility.yul\":4097:4522   */\n      swap4\n      swap3\n      pop\n      pop\n      pop\n      jump\t// out\n        /* \"#utility.yul\":4542:4882   */\n    tag_124:\n        /* \"#utility.yul\":4598:4603   */\n      0x00\n        /* \"#utility.yul\":4647:4650   */\n      dup3\n        /* \"#utility.yul\":4640:4644   */\n      0x1f\n        /* \"#utility.yul\":4632:4638   */\n      dup4\n        /* \"#utility.yul\":4628:4645   */\n      add\n        /* \"#utility.yul\":4624:4651   */\n      slt\n        /* \"#utility.yul\":4614:4736   */\n      tag_212\n      jumpi\n        /* \"#utility.yul\":4655:4734   */\n      tag_213\n      tag_115\n      jump\t// in\n    tag_213:\n        /* \"#utility.yul\":4614:4736   */\n    tag_212:\n        /* \"#utility.yul\":4772:4778   */\n      dup2\n        /* \"#utility.yul\":4759:4779   */\n      calldataload\n        /* \"#utility.yul\":4797:4876   */\n      tag_214\n        /* \"#utility.yul\":4872:4875   */\n      dup5\n        /* \"#utility.yul\":4864:4870   */\n      dup3\n        /* \"#utility.yul\":4857:4861   */\n      0x20\n        /* \"#utility.yul\":4849:4855   */\n      dup7\n        /* \"#utility.yul\":4845:4862   */\n      add\n        /* \"#utility.yul\":4797:4876   */\n      tag_123\n      jump\t// in\n    tag_214:\n        /* \"#utility.yul\":4788:4876   */\n      swap2\n      pop\n        /* \"#utility.yul\":4604:4882   */\n      pop\n        /* \"#utility.yul\":4542:4882   */\n      swap3\n      swap2\n      pop\n      pop\n      jump\t// out\n        /* \"#utility.yul\":4888:5195   */\n    tag_125:\n        /* \"#utility.yul\":4949:4953   */\n      0x00\n        /* \"#utility.yul\":5039:5057   */\n      0xffffffffffffffff\n        /* \"#utility.yul\":5031:5037   */\n      dup3\n        /* \"#utility.yul\":5028:5058   */\n      gt\n        /* \"#utility.yul\":5025:5081   */\n      iszero\n      tag_216\n      jumpi\n        /* \"#utility.yul\":5061:5079   */\n      tag_217\n      tag_118\n      jump\t// in\n    tag_217:\n        /* \"#utility.yul\":5025:5081   */\n    tag_216:\n        /* \"#utility.yul\":5099:5128   */\n      tag_218\n        /* \"#utility.yul\":5121:5127   */\n      dup3\n        /* \"#utility.yul\":5099:5128   */\n      tag_117\n      jump\t// in\n    tag_218:\n        /* \"#utility.yul\":5091:5128   */\n      swap1\n      pop\n        /* \"#utility.yul\":5183:5187   */\n      0x20\n        /* \"#utility.yul\":5177:5181   */\n      dup2\n        /* \"#utility.yul\":5173:5188   */\n      add\n        /* \"#utility.yul\":5165:5188   */\n      swap1\n      pop\n        /* \"#utility.yul\":4888:5195   */\n      swap2\n      swap1\n      pop\n      jump\t// out\n        /* \"#utility.yul\":5201:5624   */\n    tag_126:\n        /* \"#utility.yul\":5278:5283   */\n      0x00\n        /* \"#utility.yul\":5303:5368   */\n      tag_220\n        /* \"#utility.yul\":5319:5367   */\n      tag_221\n        /* \"#utility.yul\":5360:5366   */\n      dup5\n        /* \"#utility.yul\":5319:5367   */\n      tag_125\n      jump\t// in\n    tag_221:\n        /* \"#utility.yul\":5303:5368   */\n      tag_120\n      jump\t// in\n    tag_220:\n        /* \"#utility.yul\":5294:5368   */\n      swap1\n      pop\n        /* \"#utility.yul\":5391:5397   */\n      dup3\n        /* \"#utility.yul\":5384:5389   */\n      dup2\n        /* \"#utility.yul\":5377:5398   */\n      mstore\n        /* \"#utility.yul\":5429:5433   */\n      0x20\n        /* \"#utility.yul\":5422:5427   */\n      dup2\n        /* \"#utility.yul\":5418:5434   */\n      add\n        /* \"#utility.yul\":5467:5470   */\n      dup5\n        /* \"#utility.yul\":5458:5464   */\n      dup5\n        /* \"#utility.yul\":5453:5456   */\n      dup5\n        /* \"#utility.yul\":5449:5465   */\n      add\n        /* \"#utility.yul\":5446:5471   */\n      gt\n        /* \"#utility.yul\":5443:5555   */\n      iszero\n      tag_222\n      jumpi\n        /* \"#utility.yul\":5474:5553   */\n      tag_223\n      tag_116\n      jump\t// in\n    tag_223:\n        /* \"#utility.yul\":5443:5555   */\n    tag_222:\n        /* \"#utility.yul\":5564:5618   */\n      tag_224\n        /* \"#utility.yul\":5611:5617   */\n      dup5\n        /* \"#utility.yul\":5606:5609   */\n      dup3\n        /* \"#utility.yul\":5601:5604   */\n      dup6\n        /* \"#utility.yul\":5564:5618   */\n      tag_122\n      jump\t// in\n    tag_224:\n        /* \"#utility.yul\":5284:5624   */\n      pop\n        /* \"#utility.yul\":5201:5624   */\n      swap4\n      swap3\n      pop\n      pop\n      pop\n      jump\t// out\n        /* \"#utility.yul\":5643:5981   */\n    tag_127:\n        /* \"#utility.yul\":5698:5703   */\n      0x00\n        /* \"#utility.yul\":5747:5750   */\n      dup3\n        /* \"#utility.yul\":5740:5744   */\n      0x1f\n        /* \"#utility.yul\":5732:5738   */\n      dup4\n        /* \"#utility.yul\":5728:5745   */\n      add\n        /* \"#utility.yul\":5724:5751   */\n      slt\n        /* \"#utility.yul\":5714:5836   */\n      tag_226\n      jumpi\n        /* \"#utility.yul\":5755:5834   */\n      tag_227\n      tag_115\n      jump\t// in\n    tag_227:\n        /* \"#utility.yul\":5714:5836   */\n    tag_226:\n        /* \"#utility.yul\":5872:5878   */\n      dup2\n        /* \"#utility.yul\":5859:5879   */\n      calldataload\n        /* \"#utility.yul\":5897:5975   */\n      tag_228\n        /* \"#utility.yul\":5971:5974   */\n      dup5\n        /* \"#utility.yul\":5963:5969   */\n      dup3\n        /* \"#utility.yul\":5956:5960   */\n      0x20\n        /* \"#utility.yul\":5948:5954   */\n      dup7\n        /* \"#utility.yul\":5944:5961   */\n      add\n        /* \"#utility.yul\":5897:5975   */\n      tag_126\n      jump\t// in\n    tag_228:\n        /* \"#utility.yul\":5888:5975   */\n      swap2\n      pop\n        /* \"#utility.yul\":5704:5981   */\n      pop\n        /* \"#utility.yul\":5643:5981   */\n      swap3\n      swap2\n      pop\n      pop\n      jump\t// out\n        /* \"#utility.yul\":5987:7256   */\n    tag_33:\n        /* \"#utility.yul\":6101:6107   */\n      0x00\n        /* \"#utility.yul\":6109:6115   */\n      0x00\n        /* \"#utility.yul\":6117:6123   */\n      0x00\n        /* \"#utility.yul\":6125:6131   */\n      0x00\n        /* \"#utility.yul\":6133:6139   */\n      0x00\n        /* \"#utility.yul\":6182:6185   */\n      0xa0\n        /* \"#utility.yul\":6170:6179   */\n      dup7\n        /* \"#utility.yul\":6161:6168   */\n      dup9\n        /* \"#utility.yul\":6157:6180   */\n      sub\n        /* \"#utility.yul\":6153:6186   */\n      slt\n        /* \"#utility.yul\":6150:6270   */\n      iszero\n      tag_230\n      jumpi\n        /* \"#utility.yul\":6189:6268   */\n      tag_231\n      tag_100\n      jump\t// in\n    tag_231:\n        /* \"#utility.yul\":6150:6270   */\n    tag_230:\n        /* \"#utility.yul\":6309:6310   */\n      0x00\n        /* \"#utility.yul\":6334:6387   */\n      tag_232\n        /* \"#utility.yul\":6379:6386   */\n      dup9\n        /* \"#utility.yul\":6370:6376   */\n      dup3\n        /* \"#utility.yul\":6359:6368   */\n      dup10\n        /* \"#utility.yul\":6355:6377   */\n      add\n        /* \"#utility.yul\":6334:6387   */\n      tag_112\n      jump\t// in\n    tag_232:\n        /* \"#utility.yul\":6324:6387   */\n      swap6\n      pop\n        /* \"#utility.yul\":6280:6397   */\n      pop\n        /* \"#utility.yul\":6436:6438   */\n      0x20\n        /* \"#utility.yul\":6462:6515   */\n      tag_233\n        /* \"#utility.yul\":6507:6514   */\n      dup9\n        /* \"#utility.yul\":6498:6504   */\n      dup3\n        /* \"#utility.yul\":6487:6496   */\n      dup10\n        /* \"#utility.yul\":6483:6505   */\n      add\n        /* \"#utility.yul\":6462:6515   */\n      tag_114\n      jump\t// in\n    tag_233:\n        /* \"#utility.yul\":6452:6515   */\n      swap5\n      pop\n        /* \"#utility.yul\":6407:6525   */\n      pop\n        /* \"#utility.yul\":6592:6594   */\n      0x40\n        /* \"#utility.yul\":6581:6590   */\n      dup7\n        /* \"#utility.yul\":6577:6595   */\n      add\n        /* \"#utility.yul\":6564:6596   */\n      calldataload\n        /* \"#utility.yul\":6623:6641   */\n      0xffffffffffffffff\n        /* \"#utility.yul\":6615:6621   */\n      dup2\n        /* \"#utility.yul\":6612:6642   */\n      gt\n        /* \"#utility.yul\":6609:6726   */\n      iszero\n      tag_234\n      jumpi\n        /* \"#utility.yul\":6645:6724   */\n      tag_235\n      tag_101\n      jump\t// in\n    tag_235:\n        /* \"#utility.yul\":6609:6726   */\n    tag_234:\n        /* \"#utility.yul\":6750:6813   */\n      tag_236\n        /* \"#utility.yul\":6805:6812   */\n      dup9\n        /* \"#utility.yul\":6796:6802   */\n      dup3\n        /* \"#utility.yul\":6785:6794   */\n      dup10\n        /* \"#utility.yul\":6781:6803   */\n      add\n        /* \"#utility.yul\":6750:6813   */\n      tag_124\n      jump\t// in\n    tag_236:\n        /* \"#utility.yul\":6740:6813   */\n      swap4\n      pop\n        /* \"#utility.yul\":6535:6823   */\n      pop\n        /* \"#utility.yul\":6890:6892   */\n      0x60\n        /* \"#utility.yul\":6879:6888   */\n      dup7\n        /* \"#utility.yul\":6875:6893   */\n      add\n        /* \"#utility.yul\":6862:6894   */\n      calldataload\n        /* \"#utility.yul\":6921:6939   */\n      0xffffffffffffffff\n        /* \"#utility.yul\":6913:6919   */\n      dup2\n        /* \"#utility.yul\":6910:6940   */\n      gt\n        /* \"#utility.yul\":6907:7024   */\n      iszero\n      tag_237\n      jumpi\n        /* \"#utility.yul\":6943:7022   */\n      tag_238\n      tag_101\n      jump\t// in\n    tag_238:\n        /* \"#utility.yul\":6907:7024   */\n    tag_237:\n        /* \"#utility.yul\":7048:7110   */\n      tag_239\n        /* \"#utility.yul\":7102:7109   */\n      dup9\n        /* \"#utility.yul\":7093:7099   */\n      dup3\n        /* \"#utility.yul\":7082:7091   */\n      dup10\n        /* \"#utility.yul\":7078:7100   */\n      add\n        /* \"#utility.yul\":7048:7110   */\n      tag_127\n      jump\t// in\n    tag_239:\n        /* \"#utility.yul\":7038:7110   */\n      swap3\n      pop\n        /* \"#utility.yul\":6833:7120   */\n      pop\n        /* \"#utility.yul\":7159:7162   */\n      0x80\n        /* \"#utility.yul\":7186:7239   */\n      tag_240\n        /* \"#utility.yul\":7231:7238   */\n      dup9\n        /* \"#utility.yul\":7222:7228   */\n      dup3\n        /* \"#utility.yul\":7211:7220   */\n      dup10\n        /* \"#utility.yul\":7207:7229   */\n      add\n        /* \"#utility.yul\":7186:7239   */\n      tag_114\n      jump\t// in\n    tag_240:\n        /* \"#utility.yul\":7176:7239   */\n      swap2\n      pop\n        /* \"#utility.yul\":7130:7249   */\n      pop\n        /* \"#utility.yul\":5987:7256   */\n      swap3\n      swap6\n      pop\n      swap3\n      swap6\n      swap1\n      swap4\n      pop\n      jump\t// out\n        /* \"#utility.yul\":7262:7380   */\n    tag_128:\n        /* \"#utility.yul\":7349:7373   */\n      tag_242\n        /* \"#utility.yul\":7367:7372   */\n      dup2\n        /* \"#utility.yul\":7349:7373   */\n      tag_110\n      jump\t// in\n    tag_242:\n        /* \"#utility.yul\":7344:7347   */\n      dup3\n        /* \"#utility.yul\":7337:7374   */\n      mstore\n        /* \"#utility.yul\":7262:7380   */\n      pop\n      pop\n      jump\t// out\n        /* \"#utility.yul\":7386:7608   */\n    tag_39:\n        /* \"#utility.yul\":7479:7483   */\n      0x00\n        /* \"#utility.yul\":7517:7519   */\n      0x20\n        /* \"#utility.yul\":7506:7515   */\n      dup3\n        /* \"#utility.yul\":7502:7520   */\n      add\n        /* \"#utility.yul\":7494:7520   */\n      swap1\n      pop\n        /* \"#utility.yul\":7530:7601   */\n      tag_244\n        /* \"#utility.yul\":7598:7599   */\n      0x00\n        /* \"#utility.yul\":7587:7596   */\n      dup4\n        /* \"#utility.yul\":7583:7600   */\n      add\n        /* \"#utility.yul\":7574:7580   */\n      dup5\n        /* \"#utility.yul\":7530:7601   */\n      tag_128\n      jump\t// in\n    tag_244:\n        /* \"#utility.yul\":7386:7608   */\n      swap3\n      swap2\n      pop\n      pop\n      jump\t// out\n        /* \"#utility.yul\":7614:7732   */\n    tag_129:\n        /* \"#utility.yul\":7701:7725   */\n      tag_246\n        /* \"#utility.yul\":7719:7724   */\n      dup2\n        /* \"#utility.yul\":7701:7725   */\n      tag_102\n      jump\t// in\n    tag_246:\n        /* \"#utility.yul\":7696:7699   */\n      dup3\n        /* \"#utility.yul\":7689:7726   */\n      mstore\n        /* \"#utility.yul\":7614:7732   */\n      pop\n      pop\n      jump\t// out\n        /* \"#utility.yul\":7738:7960   */\n    tag_49:\n        /* \"#utility.yul\":7831:7835   */\n      0x00\n        /* \"#utility.yul\":7869:7871   */\n      0x20\n        /* \"#utility.yul\":7858:7867   */\n      dup3\n        /* \"#utility.yul\":7854:7872   */\n      add\n        /* \"#utility.yul\":7846:7872   */\n      swap1\n      pop\n        /* \"#utility.yul\":7882:7953   */\n      tag_248\n        /* \"#utility.yul\":7950:7951   */\n      0x00\n        /* \"#utility.yul\":7939:7948   */\n      dup4\n        /* \"#utility.yul\":7935:7952   */\n      add\n        /* \"#utility.yul\":7926:7932   */\n      dup5\n        /* \"#utility.yul\":7882:7953   */\n      tag_129\n      jump\t// in\n    tag_248:\n        /* \"#utility.yul\":7738:7960   */\n      swap3\n      swap2\n      pop\n      pop\n      jump\t// out\n        /* \"#utility.yul\":7966:8064   */\n    tag_130:\n        /* \"#utility.yul\":8017:8023   */\n      0x00\n        /* \"#utility.yul\":8051:8056   */\n      dup2\n        /* \"#utility.yul\":8045:8057   */\n      mload\n        /* \"#utility.yul\":8035:8057   */\n      swap1\n      pop\n        /* \"#utility.yul\":7966:8064   */\n      swap2\n      swap1\n      pop\n      jump\t// out\n        /* \"#utility.yul\":8070:8238   */\n    tag_131:\n        /* \"#utility.yul\":8153:8164   */\n      0x00\n        /* \"#utility.yul\":8187:8193   */\n      dup3\n        /* \"#utility.yul\":8182:8185   */\n      dup3\n        /* \"#utility.yul\":8175:8194   */\n      mstore\n        /* \"#utility.yul\":8227:8231   */\n      0x20\n        /* \"#utility.yul\":8222:8225   */\n      dup3\n        /* \"#utility.yul\":8218:8232   */\n      add\n        /* \"#utility.yul\":8203:8232   */\n      swap1\n      pop\n        /* \"#utility.yul\":8070:8238   */\n      swap3\n      swap2\n      pop\n      pop\n      jump\t// out\n        /* \"#utility.yul\":8244:8383   */\n    tag_132:\n        /* \"#utility.yul\":8333:8339   */\n      dup3\n        /* \"#utility.yul\":8328:8331   */\n      dup2\n        /* \"#utility.yul\":8323:8326   */\n      dup4\n        /* \"#utility.yul\":8317:8340   */\n      mcopy\n        /* \"#utility.yul\":8374:8375   */\n      0x00\n        /* \"#utility.yul\":8365:8371   */\n      dup4\n        /* \"#utility.yul\":8360:8363   */\n      dup4\n        /* \"#utility.yul\":8356:8372   */\n      add\n        /* \"#utility.yul\":8349:8376   */\n      mstore\n        /* \"#utility.yul\":8244:8383   */\n      pop\n      pop\n      pop\n      jump\t// out\n        /* \"#utility.yul\":8389:8762   */\n    tag_133:\n        /* \"#utility.yul\":8475:8478   */\n      0x00\n        /* \"#utility.yul\":8503:8541   */\n      tag_253\n        /* \"#utility.yul\":8535:8540   */\n      dup3\n        /* \"#utility.yul\":8503:8541   */\n      tag_130\n      jump\t// in\n    tag_253:\n        /* \"#utility.yul\":8557:8627   */\n      tag_254\n        /* \"#utility.yul\":8620:8626   */\n      dup2\n        /* \"#utility.yul\":8615:8618   */\n      dup6\n        /* \"#utility.yul\":8557:8627   */\n      tag_131\n      jump\t// in\n    tag_254:\n        /* \"#utility.yul\":8550:8627   */\n      swap4\n      pop\n        /* \"#utility.yul\":8636:8701   */\n      tag_255\n        /* \"#utility.yul\":8694:8700   */\n      dup2\n        /* \"#utility.yul\":8689:8692   */\n      dup6\n        /* \"#utility.yul\":8682:8686   */\n      0x20\n        /* \"#utility.yul\":8675:8680   */\n      dup7\n        /* \"#utility.yul\":8671:8687   */\n      add\n        /* \"#utility.yul\":8636:8701   */\n      tag_132\n      jump\t// in\n    tag_255:\n        /* \"#utility.yul\":8726:8755   */\n      tag_256\n        /* \"#utility.yul\":8748:8754   */\n      dup2\n        /* \"#utility.yul\":8726:8755   */\n      tag_117\n      jump\t// in\n    tag_256:\n        /* \"#utility.yul\":8721:8724   */\n      dup5\n        /* \"#utility.yul\":8717:8756   */\n      add\n        /* \"#utility.yul\":8710:8756   */\n      swap2\n      pop\n        /* \"#utility.yul\":8479:8762   */\n      pop\n        /* \"#utility.yul\":8389:8762   */\n      swap3\n      swap2\n      pop\n      pop\n      jump\t// out\n        /* \"#utility.yul\":8768:9077   */\n    tag_55:\n        /* \"#utility.yul\":8879:8883   */\n      0x00\n        /* \"#utility.yul\":8917:8919   */\n      0x20\n        /* \"#utility.yul\":8906:8915   */\n      dup3\n        /* \"#utility.yul\":8902:8920   */\n      add\n        /* \"#utility.yul\":8894:8920   */\n      swap1\n      pop\n        /* \"#utility.yul\":8966:8975   */\n      dup2\n        /* \"#utility.yul\":8960:8964   */\n      dup2\n        /* \"#utility.yul\":8956:8976   */\n      sub\n        /* \"#utility.yul\":8952:8953   */\n      0x00\n        /* \"#utility.yul\":8941:8950   */\n      dup4\n        /* \"#utility.yul\":8937:8954   */\n      add\n        /* \"#utility.yul\":8930:8977   */\n      mstore\n        /* \"#utility.yul\":8994:9070   */\n      tag_258\n        /* \"#utility.yul\":9065:9069   */\n      dup2\n        /* \"#utility.yul\":9056:9062   */\n      dup5\n        /* \"#utility.yul\":8994:9070   */\n      tag_133\n      jump\t// in\n    tag_258:\n        /* \"#utility.yul\":8986:9070   */\n      swap1\n      pop\n        /* \"#utility.yul\":8768:9077   */\n      swap3\n      swap2\n      pop\n      pop\n      jump\t// out\n        /* \"#utility.yul\":9083:9252   */\n    tag_134:\n        /* \"#utility.yul\":9167:9178   */\n      0x00\n        /* \"#utility.yul\":9201:9207   */\n      dup3\n        /* \"#utility.yul\":9196:9199   */\n      dup3\n        /* \"#utility.yul\":9189:9208   */\n      mstore\n        /* \"#utility.yul\":9241:9245   */\n      0x20\n        /* \"#utility.yul\":9236:9239   */\n      dup3\n        /* \"#utility.yul\":9232:9246   */\n      add\n        /* \"#utility.yul\":9217:9246   */\n      swap1\n      pop\n        /* \"#utility.yul\":9083:9252   */\n      swap3\n      swap2\n      pop\n      pop\n      jump\t// out\n        /* \"#utility.yul\":9258:9417   */\n    tag_135:\n        /* \"#utility.yul\":9398:9409   */\n      0x6e6f74206f776e65720000000000000000000000000000000000000000000000\n        /* \"#utility.yul\":9394:9395   */\n      0x00\n        /* \"#utility.yul\":9386:9392   */\n      dup3\n        /* \"#utility.yul\":9382:9396   */\n      add\n        /* \"#utility.yul\":9375:9410   */\n      mstore\n        /* \"#utility.yul\":9258:9417   */\n      pop\n      jump\t// out\n        /* \"#utility.yul\":9423:9788   */\n    tag_136:\n        /* \"#utility.yul\":9565:9568   */\n      0x00\n        /* \"#utility.yul\":9586:9652   */\n      tag_262\n        /* \"#utility.yul\":9650:9651   */\n      0x09\n        /* \"#utility.yul\":9645:9648   */\n      dup4\n        /* \"#utility.yul\":9586:9652   */\n      tag_134\n      jump\t// in\n    tag_262:\n        /* \"#utility.yul\":9579:9652   */\n      swap2\n      pop\n        /* \"#utility.yul\":9661:9754   */\n      tag_263\n        /* \"#utility.yul\":9750:9753   */\n      dup3\n        /* \"#utility.yul\":9661:9754   */\n      tag_135\n      jump\t// in\n    tag_263:\n        /* \"#utility.yul\":9779:9781   */\n      0x20\n        /* \"#utility.yul\":9774:9777   */\n      dup3\n        /* \"#utility.yul\":9770:9782   */\n      add\n        /* \"#utility.yul\":9763:9782   */\n      swap1\n      pop\n        /* \"#utility.yul\":9423:9788   */\n      swap2\n      swap1\n      pop\n      jump\t// out\n        /* \"#utility.yul\":9794:10213   */\n    tag_59:\n        /* \"#utility.yul\":9960:9964   */\n      0x00\n        /* \"#utility.yul\":9998:10000   */\n      0x20\n        /* \"#utility.yul\":9987:9996   */\n      dup3\n        /* \"#utility.yul\":9983:10001   */\n      add\n        /* \"#utility.yul\":9975:10001   */\n      swap1\n      pop\n        /* \"#utility.yul\":10047:10056   */\n      dup2\n        /* \"#utility.yul\":10041:10045   */\n      dup2\n        /* \"#utility.yul\":10037:10057   */\n      sub\n        /* \"#utility.yul\":10033:10034   */\n      0x00\n        /* \"#utility.yul\":10022:10031   */\n      dup4\n        /* \"#utility.yul\":10018:10035   */\n      add\n        /* \"#utility.yul\":10011:10058   */\n      mstore\n        /* \"#utility.yul\":10075:10206   */\n      tag_265\n        /* \"#utility.yul\":10201:10205   */\n      dup2\n        /* \"#utility.yul\":10075:10206   */\n      tag_136\n      jump\t// in\n    tag_265:\n        /* \"#utility.yul\":10067:10206   */\n      swap1\n      pop\n        /* \"#utility.yul\":9794:10213   */\n      swap2\n      swap1\n      pop\n      jump\t// out\n        /* \"#utility.yul\":10219:10399   */\n    tag_137:\n        /* \"#utility.yul\":10267:10344   */\n      0x4e487b7100000000000000000000000000000000000000000000000000000000\n        /* \"#utility.yul\":10264:10265   */\n      0x00\n        /* \"#utility.yul\":10257:10345   */\n      mstore\n        /* \"#utility.yul\":10364:10368   */\n      0x11\n        /* \"#utility.yul\":10361:10362   */\n      0x04\n        /* \"#utility.yul\":10354:10369   */\n      mstore\n        /* \"#utility.yul\":10388:10392   */\n      0x24\n        /* \"#utility.yul\":10385:10386   */\n      0x00\n        /* \"#utility.yul\":10378:10393   */\n      revert\n        /* \"#utility.yul\":10405:10596   */\n    tag_72:\n        /* \"#utility.yul\":10445:10448   */\n      0x00\n        /* \"#utility.yul\":10464:10484   */\n      tag_268\n        /* \"#utility.yul\":10482:10483   */\n      dup3\n        /* \"#utility.yul\":10464:10484   */\n      tag_107\n      jump\t// in\n    tag_268:\n        /* \"#utility.yul\":10459:10484   */\n      swap2\n      pop\n        /* \"#utility.yul\":10498:10518   */\n      tag_269\n        /* \"#utility.yul\":10516:10517   */\n      dup4\n        /* \"#utility.yul\":10498:10518   */\n      tag_107\n      jump\t// in\n    tag_269:\n        /* \"#utility.yul\":10493:10518   */\n      swap3\n      pop\n        /* \"#utility.yul\":10541:10542   */\n      dup3\n        /* \"#utility.yul\":10538:10539   */\n      dup3\n        /* \"#utility.yul\":10534:10543   */\n      add\n        /* \"#utility.yul\":10527:10543   */\n      swap1\n      pop\n        /* \"#utility.yul\":10562:10565   */\n      dup1\n        /* \"#utility.yul\":10559:10560   */\n      dup3\n        /* \"#utility.yul\":10556:10566   */\n      gt\n        /* \"#utility.yul\":10553:10589   */\n      iszero\n      tag_270\n      jumpi\n        /* \"#utility.yul\":10569:10587   */\n      tag_271\n      tag_137\n      jump\t// in\n    tag_271:\n        /* \"#utility.yul\":10553:10589   */\n    tag_270:\n        /* \"#utility.yul\":10405:10596   */\n      swap3\n      swap2\n      pop\n      pop\n      jump\t// out\n        /* \"#utility.yul\":10602:10701   */\n    tag_138:\n        /* \"#utility.yul\":10654:10660   */\n      0x00\n        /* \"#utility.yul\":10688:10693   */\n      dup2\n        /* \"#utility.yul\":10682:10694   */\n      mload\n        /* \"#utility.yul\":10672:10694   */\n      swap1\n      pop\n        /* \"#utility.yul\":10602:10701   */\n      swap2\n      swap1\n      pop\n      jump\t// out\n        /* \"#utility.yul\":10707:11084   */\n    tag_139:\n        /* \"#utility.yul\":10795:10798   */\n      0x00\n        /* \"#utility.yul\":10823:10862   */\n      tag_274\n        /* \"#utility.yul\":10856:10861   */\n      dup3\n        /* \"#utility.yul\":10823:10862   */\n      tag_138\n      jump\t// in\n    tag_274:\n        /* \"#utility.yul\":10878:10949   */\n      tag_275\n        /* \"#utility.yul\":10942:10948   */\n      dup2\n        /* \"#utility.yul\":10937:10940   */\n      dup6\n        /* \"#utility.yul\":10878:10949   */\n      tag_134\n      jump\t// in\n    tag_275:\n        /* \"#utility.yul\":10871:10949   */\n      swap4\n      pop\n        /* \"#utility.yul\":10958:11023   */\n      tag_276\n        /* \"#utility.yul\":11016:11022   */\n      dup2\n        /* \"#utility.yul\":11011:11014   */\n      dup6\n        /* \"#utility.yul\":11004:11008   */\n      0x20\n        /* \"#utility.yul\":10997:11002   */\n      dup7\n        /* \"#utility.yul\":10993:11009   */\n      add\n        /* \"#utility.yul\":10958:11023   */\n      tag_132\n      jump\t// in\n    tag_276:\n        /* \"#utility.yul\":11048:11077   */\n      tag_277\n        /* \"#utility.yul\":11070:11076   */\n      dup2\n        /* \"#utility.yul\":11048:11077   */\n      tag_117\n      jump\t// in\n    tag_277:\n        /* \"#utility.yul\":11043:11046   */\n      dup5\n        /* \"#utility.yul\":11039:11078   */\n      add\n        /* \"#utility.yul\":11032:11078   */\n      swap2\n      pop\n        /* \"#utility.yul\":10799:11084   */\n      pop\n        /* \"#utility.yul\":10707:11084   */\n      swap3\n      swap2\n      pop\n      pop\n      jump\t// out\n        /* \"#utility.yul\":11090:11932   */\n    tag_77:\n        /* \"#utility.yul\":11333:11337   */\n      0x00\n        /* \"#utility.yul\":11371:11374   */\n      0xa0\n        /* \"#utility.yul\":11360:11369   */\n      dup3\n        /* \"#utility.yul\":11356:11375   */\n      add\n        /* \"#utility.yul\":11348:11375   */\n      swap1\n      pop\n        /* \"#utility.yul\":11385:11456   */\n      tag_279\n        /* \"#utility.yul\":11453:11454   */\n      0x00\n        /* \"#utility.yul\":11442:11451   */\n      dup4\n        /* \"#utility.yul\":11438:11455   */\n      add\n        /* \"#utility.yul\":11429:11435   */\n      dup9\n        /* \"#utility.yul\":11385:11456   */\n      tag_128\n      jump\t// in\n    tag_279:\n        /* \"#utility.yul\":11466:11538   */\n      tag_280\n        /* \"#utility.yul\":11534:11536   */\n      0x20\n        /* \"#utility.yul\":11523:11532   */\n      dup4\n        /* \"#utility.yul\":11519:11537   */\n      add\n        /* \"#utility.yul\":11510:11516   */\n      dup8\n        /* \"#utility.yul\":11466:11538   */\n      tag_108\n      jump\t// in\n    tag_280:\n        /* \"#utility.yul\":11585:11594   */\n      dup2\n        /* \"#utility.yul\":11579:11583   */\n      dup2\n        /* \"#utility.yul\":11575:11595   */\n      sub\n        /* \"#utility.yul\":11570:11572   */\n      0x40\n        /* \"#utility.yul\":11559:11568   */\n      dup4\n        /* \"#utility.yul\":11555:11573   */\n      add\n        /* \"#utility.yul\":11548:11596   */\n      mstore\n        /* \"#utility.yul\":11613:11691   */\n      tag_281\n        /* \"#utility.yul\":11686:11690   */\n      dup2\n        /* \"#utility.yul\":11677:11683   */\n      dup7\n        /* \"#utility.yul\":11613:11691   */\n      tag_139\n      jump\t// in\n    tag_281:\n        /* \"#utility.yul\":11605:11691   */\n      swap1\n      pop\n        /* \"#utility.yul\":11738:11747   */\n      dup2\n        /* \"#utility.yul\":11732:11736   */\n      dup2\n        /* \"#utility.yul\":11728:11748   */\n      sub\n        /* \"#utility.yul\":11723:11725   */\n      0x60\n        /* \"#utility.yul\":11712:11721   */\n      dup4\n        /* \"#utility.yul\":11708:11726   */\n      add\n        /* \"#utility.yul\":11701:11749   */\n      mstore\n        /* \"#utility.yul\":11766:11842   */\n      tag_282\n        /* \"#utility.yul\":11837:11841   */\n      dup2\n        /* \"#utility.yul\":11828:11834   */\n      dup6\n        /* \"#utility.yul\":11766:11842   */\n      tag_133\n      jump\t// in\n    tag_282:\n        /* \"#utility.yul\":11758:11842   */\n      swap1\n      pop\n        /* \"#utility.yul\":11852:11925   */\n      tag_283\n        /* \"#utility.yul\":11920:11923   */\n      0x80\n        /* \"#utility.yul\":11909:11918   */\n      dup4\n        /* \"#utility.yul\":11905:11924   */\n      add\n        /* \"#utility.yul\":11896:11902   */\n      dup5\n        /* \"#utility.yul\":11852:11925   */\n      tag_108\n      jump\t// in\n    tag_283:\n        /* \"#utility.yul\":11090:11932   */\n      swap7\n      swap6\n      pop\n      pop\n      pop\n      pop\n      pop\n      pop\n      jump\t// out\n        /* \"#utility.yul\":11938:12032   */\n    tag_140:\n        /* \"#utility.yul\":11971:11979   */\n      0x00\n        /* \"#utility.yul\":12019:12024   */\n      dup2\n        /* \"#utility.yul\":12015:12017   */\n      0x60\n        /* \"#utility.yul\":12011:12025   */\n      shl\n        /* \"#utility.yul\":11990:12025   */\n      swap1\n      pop\n        /* \"#utility.yul\":11938:12032   */\n      swap2\n      swap1\n      pop\n      jump\t// out\n        /* \"#utility.yul\":12038:12132   */\n    tag_141:\n        /* \"#utility.yul\":12077:12084   */\n      0x00\n        /* \"#utility.yul\":12106:12126   */\n      tag_286\n        /* \"#utility.yul\":12120:12125   */\n      dup3\n        /* \"#utility.yul\":12106:12126   */\n      tag_140\n      jump\t// in\n    tag_286:\n        /* \"#utility.yul\":12095:12126   */\n      swap1\n      pop\n        /* \"#utility.yul\":12038:12132   */\n      swap2\n      swap1\n      pop\n      jump\t// out\n        /* \"#utility.yul\":12138:12238   */\n    tag_142:\n        /* \"#utility.yul\":12177:12184   */\n      0x00\n        /* \"#utility.yul\":12206:12232   */\n      tag_288\n        /* \"#utility.yul\":12226:12231   */\n      dup3\n        /* \"#utility.yul\":12206:12232   */\n      tag_141\n      jump\t// in\n    tag_288:\n        /* \"#utility.yul\":12195:12232   */\n      swap1\n      pop\n        /* \"#utility.yul\":12138:12238   */\n      swap2\n      swap1\n      pop\n      jump\t// out\n        /* \"#utility.yul\":12244:12401   */\n    tag_143:\n        /* \"#utility.yul\":12349:12394   */\n      tag_290\n        /* \"#utility.yul\":12369:12393   */\n      tag_291\n        /* \"#utility.yul\":12387:12392   */\n      dup3\n        /* \"#utility.yul\":12369:12393   */\n      tag_110\n      jump\t// in\n    tag_291:\n        /* \"#utility.yul\":12349:12394   */\n      tag_142\n      jump\t// in\n    tag_290:\n        /* \"#utility.yul\":12344:12347   */\n      dup3\n        /* \"#utility.yul\":12337:12395   */\n      mstore\n        /* \"#utility.yul\":12244:12401   */\n      pop\n      pop\n      jump\t// out\n        /* \"#utility.yul\":12407:12486   */\n    tag_144:\n        /* \"#utility.yul\":12446:12453   */\n      0x00\n        /* \"#utility.yul\":12475:12480   */\n      dup2\n        /* \"#utility.yul\":12464:12480   */\n      swap1\n      pop\n        /* \"#utility.yul\":12407:12486   */\n      swap2\n      swap1\n      pop\n      jump\t// out\n        /* \"#utility.yul\":12492:12649   */\n    tag_145:\n        /* \"#utility.yul\":12597:12642   */\n      tag_294\n        /* \"#utility.yul\":12617:12641   */\n      tag_295\n        /* \"#utility.yul\":12635:12640   */\n      dup3\n        /* \"#utility.yul\":12617:12641   */\n      tag_107\n      jump\t// in\n    tag_295:\n        /* \"#utility.yul\":12597:12642   */\n      tag_144\n      jump\t// in\n    tag_294:\n        /* \"#utility.yul\":12592:12595   */\n      dup3\n        /* \"#utility.yul\":12585:12643   */\n      mstore\n        /* \"#utility.yul\":12492:12649   */\n      pop\n      pop\n      jump\t// out\n        /* \"#utility.yul\":12655:12803   */\n    tag_146:\n        /* \"#utility.yul\":12757:12768   */\n      0x00\n        /* \"#utility.yul\":12794:12797   */\n      dup2\n        /* \"#utility.yul\":12779:12797   */\n      swap1\n      pop\n        /* \"#utility.yul\":12655:12803   */\n      swap3\n      swap2\n      pop\n      pop\n      jump\t// out\n        /* \"#utility.yul\":12809:13199   */\n    tag_147:\n        /* \"#utility.yul\":12915:12918   */\n      0x00\n        /* \"#utility.yul\":12943:12982   */\n      tag_298\n        /* \"#utility.yul\":12976:12981   */\n      dup3\n        /* \"#utility.yul\":12943:12982   */\n      tag_138\n      jump\t// in\n    tag_298:\n        /* \"#utility.yul\":12998:13087   */\n      tag_299\n        /* \"#utility.yul\":13080:13086   */\n      dup2\n        /* \"#utility.yul\":13075:13078   */\n      dup6\n        /* \"#utility.yul\":12998:13087   */\n      tag_146\n      jump\t// in\n    tag_299:\n        /* \"#utility.yul\":12991:13087   */\n      swap4\n      pop\n        /* \"#utility.yul\":13096:13161   */\n      tag_300\n        /* \"#utility.yul\":13154:13160   */\n      dup2\n        /* \"#utility.yul\":13149:13152   */\n      dup6\n        /* \"#utility.yul\":13142:13146   */\n      0x20\n        /* \"#utility.yul\":13135:13140   */\n      dup7\n        /* \"#utility.yul\":13131:13147   */\n      add\n        /* \"#utility.yul\":13096:13161   */\n      tag_132\n      jump\t// in\n    tag_300:\n        /* \"#utility.yul\":13186:13192   */\n      dup1\n        /* \"#utility.yul\":13181:13184   */\n      dup5\n        /* \"#utility.yul\":13177:13193   */\n      add\n        /* \"#utility.yul\":13170:13193   */\n      swap2\n      pop\n        /* \"#utility.yul\":12919:13199   */\n      pop\n        /* \"#utility.yul\":12809:13199   */\n      swap3\n      swap2\n      pop\n      pop\n      jump\t// out\n        /* \"#utility.yul\":13205:13352   */\n    tag_148:\n        /* \"#utility.yul\":13306:13317   */\n      0x00\n        /* \"#utility.yul\":13343:13346   */\n      dup2\n        /* \"#utility.yul\":13328:13346   */\n      swap1\n      pop\n        /* \"#utility.yul\":13205:13352   */\n      swap3\n      swap2\n      pop\n      pop\n      jump\t// out\n        /* \"#utility.yul\":13358:13744   */\n    tag_149:\n        /* \"#utility.yul\":13462:13465   */\n      0x00\n        /* \"#utility.yul\":13490:13528   */\n      tag_303\n        /* \"#utility.yul\":13522:13527   */\n      dup3\n        /* \"#utility.yul\":13490:13528   */\n      tag_130\n      jump\t// in\n    tag_303:\n        /* \"#utility.yul\":13544:13632   */\n      tag_304\n        /* \"#utility.yul\":13625:13631   */\n      dup2\n        /* \"#utility.yul\":13620:13623   */\n      dup6\n        /* \"#utility.yul\":13544:13632   */\n      tag_148\n      jump\t// in\n    tag_304:\n        /* \"#utility.yul\":13537:13632   */\n      swap4\n      pop\n        /* \"#utility.yul\":13641:13706   */\n      tag_305\n        /* \"#utility.yul\":13699:13705   */\n      dup2\n        /* \"#utility.yul\":13694:13697   */\n      dup6\n        /* \"#utility.yul\":13687:13691   */\n      0x20\n        /* \"#utility.yul\":13680:13685   */\n      dup7\n        /* \"#utility.yul\":13676:13692   */\n      add\n        /* \"#utility.yul\":13641:13706   */\n      tag_132\n      jump\t// in\n    tag_305:\n        /* \"#utility.yul\":13731:13737   */\n      dup1\n        /* \"#utility.yul\":13726:13729   */\n      dup5\n        /* \"#utility.yul\":13722:13738   */\n      add\n        /* \"#utility.yul\":13715:13738   */\n      swap2\n      pop\n        /* \"#utility.yul\":13466:13744   */\n      pop\n        /* \"#utility.yul\":13358:13744   */\n      swap3\n      swap2\n      pop\n      pop\n      jump\t// out\n        /* \"#utility.yul\":13750:14604   */\n    tag_80:\n        /* \"#utility.yul\":14012:14015   */\n      0x00\n        /* \"#utility.yul\":14027:14102   */\n      tag_307\n        /* \"#utility.yul\":14098:14101   */\n      dup3\n        /* \"#utility.yul\":14089:14095   */\n      dup9\n        /* \"#utility.yul\":14027:14102   */\n      tag_143\n      jump\t// in\n    tag_307:\n        /* \"#utility.yul\":14127:14129   */\n      0x14\n        /* \"#utility.yul\":14122:14125   */\n      dup3\n        /* \"#utility.yul\":14118:14130   */\n      add\n        /* \"#utility.yul\":14111:14130   */\n      swap2\n      pop\n        /* \"#utility.yul\":14140:14215   */\n      tag_308\n        /* \"#utility.yul\":14211:14214   */\n      dup3\n        /* \"#utility.yul\":14202:14208   */\n      dup8\n        /* \"#utility.yul\":14140:14215   */\n      tag_145\n      jump\t// in\n    tag_308:\n        /* \"#utility.yul\":14240:14242   */\n      0x20\n        /* \"#utility.yul\":14235:14238   */\n      dup3\n        /* \"#utility.yul\":14231:14243   */\n      add\n        /* \"#utility.yul\":14224:14243   */\n      swap2\n      pop\n        /* \"#utility.yul\":14260:14355   */\n      tag_309\n        /* \"#utility.yul\":14351:14354   */\n      dup3\n        /* \"#utility.yul\":14342:14348   */\n      dup7\n        /* \"#utility.yul\":14260:14355   */\n      tag_147\n      jump\t// in\n    tag_309:\n        /* \"#utility.yul\":14253:14355   */\n      swap2\n      pop\n        /* \"#utility.yul\":14372:14465   */\n      tag_310\n        /* \"#utility.yul\":14461:14464   */\n      dup3\n        /* \"#utility.yul\":14452:14458   */\n      dup6\n        /* \"#utility.yul\":14372:14465   */\n      tag_149\n      jump\t// in\n    tag_310:\n        /* \"#utility.yul\":14365:14465   */\n      swap2\n      pop\n        /* \"#utility.yul\":14475:14550   */\n      tag_311\n        /* \"#utility.yul\":14546:14549   */\n      dup3\n        /* \"#utility.yul\":14537:14543   */\n      dup5\n        /* \"#utility.yul\":14475:14550   */\n      tag_145\n      jump\t// in\n    tag_311:\n        /* \"#utility.yul\":14575:14577   */\n      0x20\n        /* \"#utility.yul\":14570:14573   */\n      dup3\n        /* \"#utility.yul\":14566:14578   */\n      add\n        /* \"#utility.yul\":14559:14578   */\n      swap2\n      pop\n        /* \"#utility.yul\":14595:14598   */\n      dup2\n        /* \"#utility.yul\":14588:14598   */\n      swap1\n      pop\n        /* \"#utility.yul\":13750:14604   */\n      swap7\n      swap6\n      pop\n      pop\n      pop\n      pop\n      pop\n      pop\n      jump\t// out\n        /* \"#utility.yul\":14610:14885   */\n    tag_89:\n        /* \"#utility.yul\":14742:14745   */\n      0x00\n        /* \"#utility.yul\":14764:14859   */\n      tag_313\n        /* \"#utility.yul\":14855:14858   */\n      dup3\n        /* \"#utility.yul\":14846:14852   */\n      dup5\n        /* \"#utility.yul\":14764:14859   */\n      tag_147\n      jump\t// in\n    tag_313:\n        /* \"#utility.yul\":14757:14859   */\n      swap2\n      pop\n        /* \"#utility.yul\":14876:14879   */\n      dup2\n        /* \"#utility.yul\":14869:14879   */\n      swap1\n      pop\n        /* \"#utility.yul\":14610:14885   */\n      swap3\n      swap2\n      pop\n      pop\n      jump\t// out\n        /* \"#utility.yul\":14891:15162   */\n    tag_91:\n        /* \"#utility.yul\":15021:15024   */\n      0x00\n        /* \"#utility.yul\":15043:15136   */\n      tag_315\n        /* \"#utility.yul\":15132:15135   */\n      dup3\n        /* \"#utility.yul\":15123:15129   */\n      dup5\n        /* \"#utility.yul\":15043:15136   */\n      tag_149\n      jump\t// in\n    tag_315:\n        /* \"#utility.yul\":15036:15136   */\n      swap2\n      pop\n        /* \"#utility.yul\":15153:15156   */\n      dup2\n        /* \"#utility.yul\":15146:15156   */\n      swap1\n      pop\n        /* \"#utility.yul\":14891:15162   */\n      swap3\n      swap2\n      pop\n      pop\n      jump\t// out\n        /* \"#utility.yul\":15168:15329   */\n    tag_150:\n        /* \"#utility.yul\":15308:15321   */\n      0x63616c6c206661696c6564000000000000000000000000000000000000000000\n        /* \"#utility.yul\":15304:15305   */\n      0x00\n        /* \"#utility.yul\":15296:15302   */\n      dup3\n        /* \"#utility.yul\":15292:15306   */\n      add\n        /* \"#utility.yul\":15285:15322   */\n      mstore\n        /* \"#utility.yul\":15168:15329   */\n      pop\n      jump\t// out\n        /* \"#utility.yul\":15335:15701   */\n    tag_151:\n        /* \"#utility.yul\":15477:15480   */\n      0x00\n        /* \"#utility.yul\":15498:15565   */\n      tag_318\n        /* \"#utility.yul\":15562:15564   */\n      0x0b\n        /* \"#utility.yul\":15557:15560   */\n      dup4\n        /* \"#utility.yul\":15498:15565   */\n      tag_134\n      jump\t// in\n    tag_318:\n        /* \"#utility.yul\":15491:15565   */\n      swap2\n      pop\n        /* \"#utility.yul\":15574:15667   */\n      tag_319\n        /* \"#utility.yul\":15663:15666   */\n      dup3\n        /* \"#utility.yul\":15574:15667   */\n      tag_150\n      jump\t// in\n    tag_319:\n        /* \"#utility.yul\":15692:15694   */\n      0x20\n        /* \"#utility.yul\":15687:15690   */\n      dup3\n        /* \"#utility.yul\":15683:15695   */\n      add\n        /* \"#utility.yul\":15676:15695   */\n      swap1\n      pop\n        /* \"#utility.yul\":15335:15701   */\n      swap2\n      swap1\n      pop\n      jump\t// out\n        /* \"#utility.yul\":15707:16126   */\n    tag_97:\n        /* \"#utility.yul\":15873:15877   */\n      0x00\n        /* \"#utility.yul\":15911:15913   */\n      0x20\n        /* \"#utility.yul\":15900:15909   */\n      dup3\n        /* \"#utility.yul\":15896:15914   */\n      add\n        /* \"#utility.yul\":15888:15914   */\n      swap1\n      pop\n        /* \"#utility.yul\":15960:15969   */\n      dup2\n        /* \"#utility.yul\":15954:15958   */\n      dup2\n        /* \"#utility.yul\":15950:15970   */\n      sub\n        /* \"#utility.yul\":15946:15947   */\n      0x00\n        /* \"#utility.yul\":15935:15944   */\n      dup4\n        /* \"#utility.yul\":15931:15948   */\n      add\n        /* \"#utility.yul\":15924:15971   */\n      mstore\n        /* \"#utility.yul\":15988:16119   */\n      tag_321\n        /* \"#utility.yul\":16114:16118   */\n      dup2\n        /* \"#utility.yul\":15988:16119   */\n      tag_151\n      jump\t// in\n    tag_321:\n        /* \"#utility.yul\":15980:16119   */\n      swap1\n      pop\n        /* \"#utility.yul\":15707:16126   */\n      swap2\n      swap1\n      pop\n      jump\t// out\n\n    auxdata: 0xa264697066735822122077d0f57496b4a6a962b4f00d53100cfdcae2daf302b9c8770d3636308dc3f33864736f6c63430008220033\n}\n",
				"bytecode": {
					"linkReferences": {},
					"object": "6080604052348015600e575f5ffd5b50335f5f6101000a81548173ffffffffffffffffffffffffffffffffffffffff021916908373ffffffffffffffffffffffffffffffffffffffff1602179055506110608061005b5f395ff3fe60806040526004361061007e575f3560e01c80638da5cb5b1161004d5780638da5cb5b1461013f5780639f81aed714610169578063afca065414610193578063b0f8b142146101cf57610085565b8063175aca1e14610089578063228250c9146100b15780634125ff90146100ed5780634b9915a51461011757610085565b3661008557005b5f5ffd5b348015610094575f5ffd5b506100af60048036038101906100aa9190610882565b61020b565b005b3480156100bc575f5ffd5b506100d760048036038101906100d29190610882565b61035a565b6040516100e491906108c7565b60405180910390f35b3480156100f8575f5ffd5b50610101610377565b60405161010e91906108f8565b60405180910390f35b348015610122575f5ffd5b5061013d60048036038101906101389190610b6f565b61037d565b005b34801561014a575f5ffd5b50610153610548565b6040516101609190610c2d565b60405180910390f35b348015610174575f5ffd5b5061017d61056c565b60405161018a91906108f8565b60405180910390f35b34801561019e575f5ffd5b506101b960048036038101906101b49190610b6f565b610571565b6040516101c69190610c55565b60405180910390f35b3480156101da575f5ffd5b506101f560048036038101906101f09190610b6f565b6105ac565b6040516102029190610cce565b60405180910390f35b5f5f9054906101000a900473ffffffffffffffffffffffffffffffffffffffff1673ffffffffffffffffffffffffffffffffffffffff163373ffffffffffffffffffffffffffffffffffffffff1614610299576040517f08c379a000000000000000000000000000000000000000000000000000000000815260040161029090610d48565b60405180910390fd5b60015f8281526020019081526020015f205f9054906101000a900460ff166102f857806040517f308200cc0000000000000000000000000000000000000000000000000000000081526004016102ef9190610c55565b60405180910390fd5b5f60015f8381526020019081526020015f205f6101000a81548160ff0219169083151502179055507fe8d9861dbc9c663ed3accd261bbe2fe01e0d3d9e5f51fa38523b265c7757a93a8160405161034f9190610c55565b60405180910390a150565b6001602052805f5260405f205f915054906101000a900460ff1681565b6103e881565b5f5f9054906101000a900473ffffffffffffffffffffffffffffffffffffffff1673ffffffffffffffffffffffffffffffffffffffff163373ffffffffffffffffffffffffffffffffffffffff161461040b576040517f08c379a000000000000000000000000000000000000000000000000000000000815260040161040290610d48565b60405180910390fd5b5f6104198686868686610571565b905060015f8281526020019081526020015f205f9054906101000a900460ff161561047b57806040517f995042be0000000000000000000000000000000000000000000000000000000081526004016104729190610c55565b60405180910390fd5b6028426104889190610d93565b8210806104a157506103e84261049e9190610d93565b82115b156104d8576040517f05dfb40e00000000000000000000000000000000000000000000000000000000815260040160405180910390fd5b6001805f8381526020019081526020015f205f6101000a81548160ff021916908315150217905550807f0bc6f313d0985430d7cf30e2711a5d66b50af1170bef60a5af5aafebbab2d8178787878787604051610538959493929190610e08565b60405180910390a2505050505050565b5f5f9054906101000a900473ffffffffffffffffffffffffffffffffffffffff1681565b602881565b5f858585858560405160200161058b959493929190610f40565b60405160208183030381529060405280519060200120905095945050505050565b60605f6105bc8787878787610571565b905060015f8281526020019081526020015f205f9054906101000a900460ff1661061d57806040517f0995c9d50000000000000000000000000000000000000000000000000000000081526004016106149190610c55565b60405180910390fd5b82421015610657576040517f6057f42b00000000000000000000000000000000000000000000000000000000815260040160405180910390fd5b6103e8836106659190610d93565b42111561069e576040517f7baf816d00000000000000000000000000000000000000000000000000000000815260040160405180910390fd5b6001805f8381526020019081526020015f205f6101000a81548160ff0219169083151502179055505f85604051602401604051602081830303815290604052906040516106eb9190610f96565b60405180910390207bffffffffffffffffffffffffffffffffffffffffffffffffffffffff19166020820180517bffffffffffffffffffffffffffffffffffffffffffffffffffffffff838183161783525050505090505f5f8973ffffffffffffffffffffffffffffffffffffffff16898460405161076a9190610fac565b5f6040518083038185875af1925050503d805f81146107a4576040519150601f19603f3d011682016040523d82523d5f602084013e6107a9565b606091505b5091509150816107ee576040517f08c379a00000000000000000000000000000000000000000000000000000000081526004016107e59061100c565b60405180910390fd5b837f0a6ac5f65540bed13380f2fac3ddfe077ab0d357da7f8d82407b39b034cea76c8b8b8b8b8b604051610826959493929190610e08565b60405180910390a28094505050505095945050505050565b5f604051905090565b5f5ffd5b5f5ffd5b5f819050919050565b6108618161084f565b811461086b575f5ffd5b50565b5f8135905061087c81610858565b92915050565b5f6020828403121561089757610896610847565b5b5f6108a48482850161086e565b91505092915050565b5f8115159050919050565b6108c1816108ad565b82525050565b5f6020820190506108da5f8301846108b8565b92915050565b5f819050919050565b6108f2816108e0565b82525050565b5f60208201905061090b5f8301846108e9565b92915050565b5f73ffffffffffffffffffffffffffffffffffffffff82169050919050565b5f61093a82610911565b9050919050565b61094a81610930565b8114610954575f5ffd5b50565b5f8135905061096581610941565b92915050565b610974816108e0565b811461097e575f5ffd5b50565b5f8135905061098f8161096b565b92915050565b5f5ffd5b5f5ffd5b5f601f19601f8301169050919050565b7f4e487b71000000000000000000000000000000000000000000000000000000005f52604160045260245ffd5b6109e38261099d565b810181811067ffffffffffffffff82111715610a0257610a016109ad565b5b80604052505050565b5f610a1461083e565b9050610a2082826109da565b919050565b5f67ffffffffffffffff821115610a3f57610a3e6109ad565b5b610a488261099d565b9050602081019050919050565b828183375f83830152505050565b5f610a75610a7084610a25565b610a0b565b905082815260208101848484011115610a9157610a90610999565b5b610a9c848285610a55565b509392505050565b5f82601f830112610ab857610ab7610995565b5b8135610ac8848260208601610a63565b91505092915050565b5f67ffffffffffffffff821115610aeb57610aea6109ad565b5b610af48261099d565b9050602081019050919050565b5f610b13610b0e84610ad1565b610a0b565b905082815260208101848484011115610b2f57610b2e610999565b5b610b3a848285610a55565b509392505050565b5f82601f830112610b5657610b55610995565b5b8135610b66848260208601610b01565b91505092915050565b5f5f5f5f5f60a08688031215610b8857610b87610847565b5b5f610b9588828901610957565b9550506020610ba688828901610981565b945050604086013567ffffffffffffffff811115610bc757610bc661084b565b5b610bd388828901610aa4565b935050606086013567ffffffffffffffff811115610bf457610bf361084b565b5b610c0088828901610b42565b9250506080610c1188828901610981565b9150509295509295909350565b610c2781610930565b82525050565b5f602082019050610c405f830184610c1e565b92915050565b610c4f8161084f565b82525050565b5f602082019050610c685f830184610c46565b92915050565b5f81519050919050565b5f82825260208201905092915050565b8281835e5f83830152505050565b5f610ca082610c6e565b610caa8185610c78565b9350610cba818560208601610c88565b610cc38161099d565b840191505092915050565b5f6020820190508181035f830152610ce68184610c96565b905092915050565b5f82825260208201905092915050565b7f6e6f74206f776e657200000000000000000000000000000000000000000000005f82015250565b5f610d32600983610cee565b9150610d3d82610cfe565b602082019050919050565b5f6020820190508181035f830152610d5f81610d26565b9050919050565b7f4e487b71000000000000000000000000000000000000000000000000000000005f52601160045260245ffd5b5f610d9d826108e0565b9150610da8836108e0565b9250828201905080821115610dc057610dbf610d66565b5b92915050565b5f81519050919050565b5f610dda82610dc6565b610de48185610cee565b9350610df4818560208601610c88565b610dfd8161099d565b840191505092915050565b5f60a082019050610e1b5f830188610c1e565b610e2860208301876108e9565b8181036040830152610e3a8186610dd0565b90508181036060830152610e4e8185610c96565b9050610e5d60808301846108e9565b9695505050505050565b5f8160601b9050919050565b5f610e7d82610e67565b9050919050565b5f610e8e82610e73565b9050919050565b610ea6610ea182610930565b610e84565b82525050565b5f819050919050565b610ec6610ec1826108e0565b610eac565b82525050565b5f81905092915050565b5f610ee082610dc6565b610eea8185610ecc565b9350610efa818560208601610c88565b80840191505092915050565b5f81905092915050565b5f610f1a82610c6e565b610f248185610f06565b9350610f34818560208601610c88565b80840191505092915050565b5f610f4b8288610e95565b601482019150610f5b8287610eb5565b602082019150610f6b8286610ed6565b9150610f778285610f10565b9150610f838284610eb5565b6020820191508190509695505050505050565b5f610fa18284610ed6565b915081905092915050565b5f610fb78284610f10565b915081905092915050565b7f63616c6c206661696c65640000000000000000000000000000000000000000005f82015250565b5f610ff6600b83610cee565b915061100182610fc2565b602082019050919050565b5f6020820190508181035f83015261102381610fea565b905091905056fea264697066735822122077d0f57496b4a6a962b4f00d53100cfdcae2daf302b9c8770d3636308dc3f33864736f6c63430008220033",
					"opcodes": "PUSH1 0x80 PUSH1 0x40 MSTORE CALLVALUE DUP1 ISZERO PUSH1 0xE JUMPI PUSH0 PUSH0 REVERT JUMPDEST POP CALLER PUSH0 PUSH0 PUSH2 0x100 EXP DUP2 SLOAD DUP2 PUSH20 0xFFFFFFFFFFFFFFFFFFFFFFFFFFFFFFFFFFFFFFFF MUL NOT AND SWAP1 DUP4 PUSH20 0xFFFFFFFFFFFFFFFFFFFFFFFFFFFFFFFFFFFFFFFF AND MUL OR SWAP1 SSTORE POP PUSH2 0x1060 DUP1 PUSH2 0x5B PUSH0 CODECOPY PUSH0 RETURN INVALID PUSH1 0x80 PUSH1 0x40 MSTORE PUSH1 0x4 CALLDATASIZE LT PUSH2 0x7E JUMPI PUSH0 CALLDATALOAD PUSH1 0xE0 SHR DUP1 PUSH4 0x8DA5CB5B GT PUSH2 0x4D JUMPI DUP1 PUSH4 0x8DA5CB5B EQ PUSH2 0x13F JUMPI DUP1 PUSH4 0x9F81AED7 EQ PUSH2 0x169 JUMPI DUP1 PUSH4 0xAFCA0654 EQ PUSH2 0x193 JUMPI DUP1 PUSH4 0xB0F8B142 EQ PUSH2 0x1CF JUMPI PUSH2 0x85 JUMP JUMPDEST DUP1 PUSH4 0x175ACA1E EQ PUSH2 0x89 JUMPI DUP1 PUSH4 0x228250C9 EQ PUSH2 0xB1 JUMPI DUP1 PUSH4 0x4125FF90 EQ PUSH2 0xED JUMPI DUP1 PUSH4 0x4B9915A5 EQ PUSH2 0x117 JUMPI PUSH2 0x85 JUMP JUMPDEST CALLDATASIZE PUSH2 0x85 JUMPI STOP JUMPDEST PUSH0 PUSH0 REVERT JUMPDEST CALLVALUE DUP1 ISZERO PUSH2 0x94 JUMPI PUSH0 PUSH0 REVERT JUMPDEST POP PUSH2 0xAF PUSH1 0x4 DUP1 CALLDATASIZE SUB DUP2 ADD SWAP1 PUSH2 0xAA SWAP2 SWAP1 PUSH2 0x882 JUMP JUMPDEST PUSH2 0x20B JUMP JUMPDEST STOP JUMPDEST CALLVALUE DUP1 ISZERO PUSH2 0xBC JUMPI PUSH0 PUSH0 REVERT JUMPDEST POP PUSH2 0xD7 PUSH1 0x4 DUP1 CALLDATASIZE SUB DUP2 ADD SWAP1 PUSH2 0xD2 SWAP2 SWAP1 PUSH2 0x882 JUMP JUMPDEST PUSH2 0x35A JUMP JUMPDEST PUSH1 0x40 MLOAD PUSH2 0xE4 SWAP2 SWAP1 PUSH2 0x8C7 JUMP JUMPDEST PUSH1 0x40 MLOAD DUP1 SWAP2 SUB SWAP1 RETURN JUMPDEST CALLVALUE DUP1 ISZERO PUSH2 0xF8 JUMPI PUSH0 PUSH0 REVERT JUMPDEST POP PUSH2 0x101 PUSH2 0x377 JUMP JUMPDEST PUSH1 0x40 MLOAD PUSH2 0x10E SWAP2 SWAP1 PUSH2 0x8F8 JUMP JUMPDEST PUSH1 0x40 MLOAD DUP1 SWAP2 SUB SWAP1 RETURN JUMPDEST CALLVALUE DUP1 ISZERO PUSH2 0x122 JUMPI PUSH0 PUSH0 REVERT JUMPDEST POP PUSH2 0x13D PUSH1 0x4 DUP1 CALLDATASIZE SUB DUP2 ADD SWAP1 PUSH2 0x138 SWAP2 SWAP1 PUSH2 0xB6F JUMP JUMPDEST PUSH2 0x37D JUMP JUMPDEST STOP JUMPDEST CALLVALUE DUP1 ISZERO PUSH2 0x14A JUMPI PUSH0 PUSH0 REVERT JUMPDEST POP PUSH2 0x153 PUSH2 0x548 JUMP JUMPDEST PUSH1 0x40 MLOAD PUSH2 0x160 SWAP2 SWAP1 PUSH2 0xC2D JUMP JUMPDEST PUSH1 0x40 MLOAD DUP1 SWAP2 SUB SWAP1 RETURN JUMPDEST CALLVALUE DUP1 ISZERO PUSH2 0x174 JUMPI PUSH0 PUSH0 REVERT JUMPDEST POP PUSH2 0x17D PUSH2 0x56C JUMP JUMPDEST PUSH1 0x40 MLOAD PUSH2 0x18A SWAP2 SWAP1 PUSH2 0x8F8 JUMP JUMPDEST PUSH1 0x40 MLOAD DUP1 SWAP2 SUB SWAP1 RETURN JUMPDEST CALLVALUE DUP1 ISZERO PUSH2 0x19E JUMPI PUSH0 PUSH0 REVERT JUMPDEST POP PUSH2 0x1B9 PUSH1 0x4 DUP1 CALLDATASIZE SUB DUP2 ADD SWAP1 PUSH2 0x1B4 SWAP2 SWAP1 PUSH2 0xB6F JUMP JUMPDEST PUSH2 0x571 JUMP JUMPDEST PUSH1 0x40 MLOAD PUSH2 0x1C6 SWAP2 SWAP1 PUSH2 0xC55 JUMP JUMPDEST PUSH1 0x40 MLOAD DUP1 SWAP2 SUB SWAP1 RETURN JUMPDEST CALLVALUE DUP1 ISZERO PUSH2 0x1DA JUMPI PUSH0 PUSH0 REVERT JUMPDEST POP PUSH2 0x1F5 PUSH1 0x4 DUP1 CALLDATASIZE SUB DUP2 ADD SWAP1 PUSH2 0x1F0 SWAP2 SWAP1 PUSH2 0xB6F JUMP JUMPDEST PUSH2 0x5AC JUMP JUMPDEST PUSH1 0x40 MLOAD PUSH2 0x202 SWAP2 SWAP1 PUSH2 0xCCE JUMP JUMPDEST PUSH1 0x40 MLOAD DUP1 SWAP2 SUB SWAP1 RETURN JUMPDEST PUSH0 PUSH0 SWAP1 SLOAD SWAP1 PUSH2 0x100 EXP SWAP1 DIV PUSH20 0xFFFFFFFFFFFFFFFFFFFFFFFFFFFFFFFFFFFFFFFF AND PUSH20 0xFFFFFFFFFFFFFFFFFFFFFFFFFFFFFFFFFFFFFFFF AND CALLER PUSH20 0xFFFFFFFFFFFFFFFFFFFFFFFFFFFFFFFFFFFFFFFF AND EQ PUSH2 0x299 JUMPI PUSH1 0x40 MLOAD PUSH32 0x8C379A000000000000000000000000000000000000000000000000000000000 DUP2 MSTORE PUSH1 0x4 ADD PUSH2 0x290 SWAP1 PUSH2 0xD48 JUMP JUMPDEST PUSH1 0x40 MLOAD DUP1 SWAP2 SUB SWAP1 REVERT JUMPDEST PUSH1 0x1 PUSH0 DUP3 DUP2 MSTORE PUSH1 0x20 ADD SWAP1 DUP2 MSTORE PUSH1 0x20 ADD PUSH0 KECCAK256 PUSH0 SWAP1 SLOAD SWAP1 PUSH2 0x100 EXP SWAP1 DIV PUSH1 0xFF AND PUSH2 0x2F8 JUMPI DUP1 PUSH1 0x40 MLOAD PUSH32 0x308200CC00000000000000000000000000000000000000000000000000000000 DUP2 MSTORE PUSH1 0x4 ADD PUSH2 0x2EF SWAP2 SWAP1 PUSH2 0xC55 JUMP JUMPDEST PUSH1 0x40 MLOAD DUP1 SWAP2 SUB SWAP1 REVERT JUMPDEST PUSH0 PUSH1 0x1 PUSH0 DUP4 DUP2 MSTORE PUSH1 0x20 ADD SWAP1 DUP2 MSTORE PUSH1 0x20 ADD PUSH0 KECCAK256 PUSH0 PUSH2 0x100 EXP DUP2 SLOAD DUP2 PUSH1 0xFF MUL NOT AND SWAP1 DUP4 ISZERO ISZERO MUL OR SWAP1 SSTORE POP PUSH32 0xE8D9861DBC9C663ED3ACCD261BBE2FE01E0D3D9E5F51FA38523B265C7757A93A DUP2 PUSH1 0x40 MLOAD PUSH2 0x34F SWAP2 SWAP1 PUSH2 0xC55 JUMP JUMPDEST PUSH1 0x40 MLOAD DUP1 SWAP2 SUB SWAP1 LOG1 POP JUMP JUMPDEST PUSH1 0x1 PUSH1 0x20 MSTORE DUP1 PUSH0 MSTORE PUSH1 0x40 PUSH0 KECCAK256 PUSH0 SWAP2 POP SLOAD SWAP1 PUSH2 0x100 EXP SWAP1 DIV PUSH1 0xFF AND DUP2 JUMP JUMPDEST PUSH2 0x3E8 DUP2 JUMP JUMPDEST PUSH0 PUSH0 SWAP1 SLOAD SWAP1 PUSH2 0x100 EXP SWAP1 DIV PUSH20 0xFFFFFFFFFFFFFFFFFFFFFFFFFFFFFFFFFFFFFFFF AND PUSH20 0xFFFFFFFFFFFFFFFFFFFFFFFFFFFFFFFFFFFFFFFF AND CALLER PUSH20 0xFFFFFFFFFFFFFFFFFFFFFFFFFFFFFFFFFFFFFFFF AND EQ PUSH2 0x40B JUMPI PUSH1 0x40 MLOAD PUSH32 0x8C379A000000000000000000000000000000000000000000000000000000000 DUP2 MSTORE PUSH1 0x4 ADD PUSH2 0x402 SWAP1 PUSH2 0xD48 JUMP JUMPDEST PUSH1 0x40 MLOAD DUP1 SWAP2 SUB SWAP1 REVERT JUMPDEST PUSH0 PUSH2 0x419 DUP7 DUP7 DUP7 DUP7 DUP7 PUSH2 0x571 JUMP JUMPDEST SWAP1 POP PUSH1 0x1 PUSH0 DUP3 DUP2 MSTORE PUSH1 0x20 ADD SWAP1 DUP2 MSTORE PUSH1 0x20 ADD PUSH0 KECCAK256 PUSH0 SWAP1 SLOAD SWAP1 PUSH2 0x100 EXP SWAP1 DIV PUSH1 0xFF AND ISZERO PUSH2 0x47B JUMPI DUP1 PUSH1 0x40 MLOAD PUSH32 0x995042BE00000000000000000000000000000000000000000000000000000000 DUP2 MSTORE PUSH1 0x4 ADD PUSH2 0x472 SWAP2 SWAP1 PUSH2 0xC55 JUMP JUMPDEST PUSH1 0x40 MLOAD DUP1 SWAP2 SUB SWAP1 REVERT JUMPDEST PUSH1 0x28 TIMESTAMP PUSH2 0x488 SWAP2 SWAP1 PUSH2 0xD93 JUMP JUMPDEST DUP3 LT DUP1 PUSH2 0x4A1 JUMPI POP PUSH2 0x3E8 TIMESTAMP PUSH2 0x49E SWAP2 SWAP1 PUSH2 0xD93 JUMP JUMPDEST DUP3 GT JUMPDEST ISZERO PUSH2 0x4D8 JUMPI PUSH1 0x40 MLOAD PUSH32 0x5DFB40E00000000000000000000000000000000000000000000000000000000 DUP2 MSTORE PUSH1 0x4 ADD PUSH1 0x40 MLOAD DUP1 SWAP2 SUB SWAP1 REVERT JUMPDEST PUSH1 0x1 DUP1 PUSH0 DUP4 DUP2 MSTORE PUSH1 0x20 ADD SWAP1 DUP2 MSTORE PUSH1 0x20 ADD PUSH0 KECCAK256 PUSH0 PUSH2 0x100 EXP DUP2 SLOAD DUP2 PUSH1 0xFF MUL NOT AND SWAP1 DUP4 ISZERO ISZERO MUL OR SWAP1 SSTORE POP DUP1 PUSH32 0xBC6F313D0985430D7CF30E2711A5D66B50AF1170BEF60A5AF5AAFEBBAB2D817 DUP8 DUP8 DUP8 DUP8 DUP8 PUSH1 0x40 MLOAD PUSH2 0x538 SWAP6 SWAP5 SWAP4 SWAP3 SWAP2 SWAP1 PUSH2 0xE08 JUMP JUMPDEST PUSH1 0x40 MLOAD DUP1 SWAP2 SUB SWAP1 LOG2 POP POP POP POP POP POP JUMP JUMPDEST PUSH0 PUSH0 SWAP1 SLOAD SWAP1 PUSH2 0x100 EXP SWAP1 DIV PUSH20 0xFFFFFFFFFFFFFFFFFFFFFFFFFFFFFFFFFFFFFFFF AND DUP2 JUMP JUMPDEST PUSH1 0x28 DUP2 JUMP JUMPDEST PUSH0 DUP6 DUP6 DUP6 DUP6 DUP6 PUSH1 0x40 MLOAD PUSH1 0x20 ADD PUSH2 0x58B SWAP6 SWAP5 SWAP4 SWAP3 SWAP2 SWAP1 PUSH2 0xF40 JUMP JUMPDEST PUSH1 0x40 MLOAD PUSH1 0x20 DUP2 DUP4 SUB SUB DUP2 MSTORE SWAP1 PUSH1 0x40 MSTORE DUP1 MLOAD SWAP1 PUSH1 0x20 ADD KECCAK256 SWAP1 POP SWAP6 SWAP5 POP POP POP POP POP JUMP JUMPDEST PUSH1 0x60 PUSH0 PUSH2 0x5BC DUP8 DUP8 DUP8 DUP8 DUP8 PUSH2 0x571 JUMP JUMPDEST SWAP1 POP PUSH1 0x1 PUSH0 DUP3 DUP2 MSTORE PUSH1 0x20 ADD SWAP1 DUP2 MSTORE PUSH1 0x20 ADD PUSH0 KECCAK256 PUSH0 SWAP1 SLOAD SWAP1 PUSH2 0x100 EXP SWAP1 DIV PUSH1 0xFF AND PUSH2 0x61D JUMPI DUP1 PUSH1 0x40 MLOAD PUSH32 0x995C9D500000000000000000000000000000000000000000000000000000000 DUP2 MSTORE PUSH1 0x4 ADD PUSH2 0x614 SWAP2 SWAP1 PUSH2 0xC55 JUMP JUMPDEST PUSH1 0x40 MLOAD DUP1 SWAP2 SUB SWAP1 REVERT JUMPDEST DUP3 TIMESTAMP LT ISZERO PUSH2 0x657 JUMPI PUSH1 0x40 MLOAD PUSH32 0x6057F42B00000000000000000000000000000000000000000000000000000000 DUP2 MSTORE PUSH1 0x4 ADD PUSH1 0x40 MLOAD DUP1 SWAP2 SUB SWAP1 REVERT JUMPDEST PUSH2 0x3E8 DUP4 PUSH2 0x665 SWAP2 SWAP1 PUSH2 0xD93 JUMP JUMPDEST TIMESTAMP GT ISZERO PUSH2 0x69E JUMPI PUSH1 0x40 MLOAD PUSH32 0x7BAF816D00000000000000000000000000000000000000000000000000000000 DUP2 MSTORE PUSH1 0x4 ADD PUSH1 0x40 MLOAD DUP1 SWAP2 SUB SWAP1 REVERT JUMPDEST PUSH1 0x1 DUP1 PUSH0 DUP4 DUP2 MSTORE PUSH1 0x20 ADD SWAP1 DUP2 MSTORE PUSH1 0x20 ADD PUSH0 KECCAK256 PUSH0 PUSH2 0x100 EXP DUP2 SLOAD DUP2 PUSH1 0xFF MUL NOT AND SWAP1 DUP4 ISZERO ISZERO MUL OR SWAP1 SSTORE POP PUSH0 DUP6 PUSH1 0x40 MLOAD PUSH1 0x24 ADD PUSH1 0x40 MLOAD PUSH1 0x20 DUP2 DUP4 SUB SUB DUP2 MSTORE SWAP1 PUSH1 0x40 MSTORE SWAP1 PUSH1 0x40 MLOAD PUSH2 0x6EB SWAP2 SWAP1 PUSH2 0xF96 JUMP JUMPDEST PUSH1 0x40 MLOAD DUP1 SWAP2 SUB SWAP1 KECCAK256 PUSH28 0xFFFFFFFFFFFFFFFFFFFFFFFFFFFFFFFFFFFFFFFFFFFFFFFFFFFFFFFF NOT AND PUSH1 0x20 DUP3 ADD DUP1 MLOAD PUSH28 0xFFFFFFFFFFFFFFFFFFFFFFFFFFFFFFFFFFFFFFFFFFFFFFFFFFFFFFFF DUP4 DUP2 DUP4 AND OR DUP4 MSTORE POP POP POP POP SWAP1 POP PUSH0 PUSH0 DUP10 PUSH20 0xFFFFFFFFFFFFFFFFFFFFFFFFFFFFFFFFFFFFFFFF AND DUP10 DUP5 PUSH1 0x40 MLOAD PUSH2 0x76A SWAP2 SWAP1 PUSH2 0xFAC JUMP JUMPDEST PUSH0 PUSH1 0x40 MLOAD DUP1 DUP4 SUB DUP2 DUP6 DUP8 GAS CALL SWAP3 POP POP POP RETURNDATASIZE DUP1 PUSH0 DUP2 EQ PUSH2 0x7A4 JUMPI PUSH1 0x40 MLOAD SWAP2 POP PUSH1 0x1F NOT PUSH1 0x3F RETURNDATASIZE ADD AND DUP3 ADD PUSH1 0x40 MSTORE RETURNDATASIZE DUP3 MSTORE RETURNDATASIZE PUSH0 PUSH1 0x20 DUP5 ADD RETURNDATACOPY PUSH2 0x7A9 JUMP JUMPDEST PUSH1 0x60 SWAP2 POP JUMPDEST POP SWAP2 POP SWAP2 POP DUP2 PUSH2 0x7EE JUMPI PUSH1 0x40 MLOAD PUSH32 0x8C379A000000000000000000000000000000000000000000000000000000000 DUP2 MSTORE PUSH1 0x4 ADD PUSH2 0x7E5 SWAP1 PUSH2 0x100C JUMP JUMPDEST PUSH1 0x40 MLOAD DUP1 SWAP2 SUB SWAP1 REVERT JUMPDEST DUP4 PUSH32 0xA6AC5F65540BED13380F2FAC3DDFE077AB0D357DA7F8D82407B39B034CEA76C DUP12 DUP12 DUP12 DUP12 DUP12 PUSH1 0x40 MLOAD PUSH2 0x826 SWAP6 SWAP5 SWAP4 SWAP3 SWAP2 SWAP1 PUSH2 0xE08 JUMP JUMPDEST PUSH1 0x40 MLOAD DUP1 SWAP2 SUB SWAP1 LOG2 DUP1 SWAP5 POP POP POP POP POP SWAP6 SWAP5 POP POP POP POP POP JUMP JUMPDEST PUSH0 PUSH1 0x40 MLOAD SWAP1 POP SWAP1 JUMP JUMPDEST PUSH0 PUSH0 REVERT JUMPDEST PUSH0 PUSH0 REVERT JUMPDEST PUSH0 DUP2 SWAP1 POP SWAP2 SWAP1 POP JUMP JUMPDEST PUSH2 0x861 DUP2 PUSH2 0x84F JUMP JUMPDEST DUP2 EQ PUSH2 0x86B JUMPI PUSH0 PUSH0 REVERT JUMPDEST POP JUMP JUMPDEST PUSH0 DUP2 CALLDATALOAD SWAP1 POP PUSH2 0x87C DUP2 PUSH2 0x858 JUMP JUMPDEST SWAP3 SWAP2 POP POP JUMP JUMPDEST PUSH0 PUSH1 0x20 DUP3 DUP5 SUB SLT ISZERO PUSH2 0x897 JUMPI PUSH2 0x896 PUSH2 0x847 JUMP JUMPDEST JUMPDEST PUSH0 PUSH2 0x8A4 DUP5 DUP3 DUP6 ADD PUSH2 0x86E JUMP JUMPDEST SWAP2 POP POP SWAP3 SWAP2 POP POP JUMP JUMPDEST PUSH0 DUP2 ISZERO ISZERO SWAP1 POP SWAP2 SWAP1 POP JUMP JUMPDEST PUSH2 0x8C1 DUP2 PUSH2 0x8AD JUMP JUMPDEST DUP3 MSTORE POP POP JUMP JUMPDEST PUSH0 PUSH1 0x20 DUP3 ADD SWAP1 POP PUSH2 0x8DA PUSH0 DUP4 ADD DUP5 PUSH2 0x8B8 JUMP JUMPDEST SWAP3 SWAP2 POP POP JUMP JUMPDEST PUSH0 DUP2 SWAP1 POP SWAP2 SWAP1 POP JUMP JUMPDEST PUSH2 0x8F2 DUP2 PUSH2 0x8E0 JUMP JUMPDEST DUP3 MSTORE POP POP JUMP JUMPDEST PUSH0 PUSH1 0x20 DUP3 ADD SWAP1 POP PUSH2 0x90B PUSH0 DUP4 ADD DUP5 PUSH2 0x8E9 JUMP JUMPDEST SWAP3 SWAP2 POP POP JUMP JUMPDEST PUSH0 PUSH20 0xFFFFFFFFFFFFFFFFFFFFFFFFFFFFFFFFFFFFFFFF DUP3 AND SWAP1 POP SWAP2 SWAP1 POP JUMP JUMPDEST PUSH0 PUSH2 0x93A DUP3 PUSH2 0x911 JUMP JUMPDEST SWAP1 POP SWAP2 SWAP1 POP JUMP JUMPDEST PUSH2 0x94A DUP2 PUSH2 0x930 JUMP JUMPDEST DUP2 EQ PUSH2 0x954 JUMPI PUSH0 PUSH0 REVERT JUMPDEST POP JUMP JUMPDEST PUSH0 DUP2 CALLDATALOAD SWAP1 POP PUSH2 0x965 DUP2 PUSH2 0x941 JUMP JUMPDEST SWAP3 SWAP2 POP POP JUMP JUMPDEST PUSH2 0x974 DUP2 PUSH2 0x8E0 JUMP JUMPDEST DUP2 EQ PUSH2 0x97E JUMPI PUSH0 PUSH0 REVERT JUMPDEST POP JUMP JUMPDEST PUSH0 DUP2 CALLDATALOAD SWAP1 POP PUSH2 0x98F DUP2 PUSH2 0x96B JUMP JUMPDEST SWAP3 SWAP2 POP POP JUMP JUMPDEST PUSH0 PUSH0 REVERT JUMPDEST PUSH0 PUSH0 REVERT JUMPDEST PUSH0 PUSH1 0x1F NOT PUSH1 0x1F DUP4 ADD AND SWAP1 POP SWAP2 SWAP1 POP JUMP JUMPDEST PUSH32 0x4E487B7100000000000000000000000000000000000000000000000000000000 PUSH0 MSTORE PUSH1 0x41 PUSH1 0x4 MSTORE PUSH1 0x24 PUSH0 REVERT JUMPDEST PUSH2 0x9E3 DUP3 PUSH2 0x99D JUMP JUMPDEST DUP2 ADD DUP2 DUP2 LT PUSH8 0xFFFFFFFFFFFFFFFF DUP3 GT OR ISZERO PUSH2 0xA02 JUMPI PUSH2 0xA01 PUSH2 0x9AD JUMP JUMPDEST JUMPDEST DUP1 PUSH1 0x40 MSTORE POP POP POP JUMP JUMPDEST PUSH0 PUSH2 0xA14 PUSH2 0x83E JUMP JUMPDEST SWAP1 POP PUSH2 0xA20 DUP3 DUP3 PUSH2 0x9DA JUMP JUMPDEST SWAP2 SWAP1 POP JUMP JUMPDEST PUSH0 PUSH8 0xFFFFFFFFFFFFFFFF DUP3 GT ISZERO PUSH2 0xA3F JUMPI PUSH2 0xA3E PUSH2 0x9AD JUMP JUMPDEST JUMPDEST PUSH2 0xA48 DUP3 PUSH2 0x99D JUMP JUMPDEST SWAP1 POP PUSH1 0x20 DUP2 ADD SWAP1 POP SWAP2 SWAP1 POP JUMP JUMPDEST DUP3 DUP2 DUP4 CALLDATACOPY PUSH0 DUP4 DUP4 ADD MSTORE POP POP POP JUMP JUMPDEST PUSH0 PUSH2 0xA75 PUSH2 0xA70 DUP5 PUSH2 0xA25 JUMP JUMPDEST PUSH2 0xA0B JUMP JUMPDEST SWAP1 POP DUP3 DUP2 MSTORE PUSH1 0x20 DUP2 ADD DUP5 DUP5 DUP5 ADD GT ISZERO PUSH2 0xA91 JUMPI PUSH2 0xA90 PUSH2 0x999 JUMP JUMPDEST JUMPDEST PUSH2 0xA9C DUP5 DUP3 DUP6 PUSH2 0xA55 JUMP JUMPDEST POP SWAP4 SWAP3 POP POP POP JUMP JUMPDEST PUSH0 DUP3 PUSH1 0x1F DUP4 ADD SLT PUSH2 0xAB8 JUMPI PUSH2 0xAB7 PUSH2 0x995 JUMP JUMPDEST JUMPDEST DUP2 CALLDATALOAD PUSH2 0xAC8 DUP5 DUP3 PUSH1 0x20 DUP7 ADD PUSH2 0xA63 JUMP JUMPDEST SWAP2 POP POP SWAP3 SWAP2 POP POP JUMP JUMPDEST PUSH0 PUSH8 0xFFFFFFFFFFFFFFFF DUP3 GT ISZERO PUSH2 0xAEB JUMPI PUSH2 0xAEA PUSH2 0x9AD JUMP JUMPDEST JUMPDEST PUSH2 0xAF4 DUP3 PUSH2 0x99D JUMP JUMPDEST SWAP1 POP PUSH1 0x20 DUP2 ADD SWAP1 POP SWAP2 SWAP1 POP JUMP JUMPDEST PUSH0 PUSH2 0xB13 PUSH2 0xB0E DUP5 PUSH2 0xAD1 JUMP JUMPDEST PUSH2 0xA0B JUMP JUMPDEST SWAP1 POP DUP3 DUP2 MSTORE PUSH1 0x20 DUP2 ADD DUP5 DUP5 DUP5 ADD GT ISZERO PUSH2 0xB2F JUMPI PUSH2 0xB2E PUSH2 0x999 JUMP JUMPDEST JUMPDEST PUSH2 0xB3A DUP5 DUP3 DUP6 PUSH2 0xA55 JUMP JUMPDEST POP SWAP4 SWAP3 POP POP POP JUMP JUMPDEST PUSH0 DUP3 PUSH1 0x1F DUP4 ADD SLT PUSH2 0xB56 JUMPI PUSH2 0xB55 PUSH2 0x995 JUMP JUMPDEST JUMPDEST DUP2 CALLDATALOAD PUSH2 0xB66 DUP5 DUP3 PUSH1 0x20 DUP7 ADD PUSH2 0xB01 JUMP JUMPDEST SWAP2 POP POP SWAP3 SWAP2 POP POP JUMP JUMPDEST PUSH0 PUSH0 PUSH0 PUSH0 PUSH0 PUSH1 0xA0 DUP7 DUP9 SUB SLT ISZERO PUSH2 0xB88 JUMPI PUSH2 0xB87 PUSH2 0x847 JUMP JUMPDEST JUMPDEST PUSH0 PUSH2 0xB95 DUP9 DUP3 DUP10 ADD PUSH2 0x957 JUMP JUMPDEST SWAP6 POP POP PUSH1 0x20 PUSH2 0xBA6 DUP9 DUP3 DUP10 ADD PUSH2 0x981 JUMP JUMPDEST SWAP5 POP POP PUSH1 0x40 DUP7 ADD CALLDATALOAD PUSH8 0xFFFFFFFFFFFFFFFF DUP2 GT ISZERO PUSH2 0xBC7 JUMPI PUSH2 0xBC6 PUSH2 0x84B JUMP JUMPDEST JUMPDEST PUSH2 0xBD3 DUP9 DUP3 DUP10 ADD PUSH2 0xAA4 JUMP JUMPDEST SWAP4 POP POP PUSH1 0x60 DUP7 ADD CALLDATALOAD PUSH8 0xFFFFFFFFFFFFFFFF DUP2 GT ISZERO PUSH2 0xBF4 JUMPI PUSH2 0xBF3 PUSH2 0x84B JUMP JUMPDEST JUMPDEST PUSH2 0xC00 DUP9 DUP3 DUP10 ADD PUSH2 0xB42 JUMP JUMPDEST SWAP3 POP POP PUSH1 0x80 PUSH2 0xC11 DUP9 DUP3 DUP10 ADD PUSH2 0x981 JUMP JUMPDEST SWAP2 POP POP SWAP3 SWAP6 POP SWAP3 SWAP6 SWAP1 SWAP4 POP JUMP JUMPDEST PUSH2 0xC27 DUP2 PUSH2 0x930 JUMP JUMPDEST DUP3 MSTORE POP POP JUMP JUMPDEST PUSH0 PUSH1 0x20 DUP3 ADD SWAP1 POP PUSH2 0xC40 PUSH0 DUP4 ADD DUP5 PUSH2 0xC1E JUMP JUMPDEST SWAP3 SWAP2 POP POP JUMP JUMPDEST PUSH2 0xC4F DUP2 PUSH2 0x84F JUMP JUMPDEST DUP3 MSTORE POP POP JUMP JUMPDEST PUSH0 PUSH1 0x20 DUP3 ADD SWAP1 POP PUSH2 0xC68 PUSH0 DUP4 ADD DUP5 PUSH2 0xC46 JUMP JUMPDEST SWAP3 SWAP2 POP POP JUMP JUMPDEST PUSH0 DUP2 MLOAD SWAP1 POP SWAP2 SWAP1 POP JUMP JUMPDEST PUSH0 DUP3 DUP3 MSTORE PUSH1 0x20 DUP3 ADD SWAP1 POP SWAP3 SWAP2 POP POP JUMP JUMPDEST DUP3 DUP2 DUP4 MCOPY PUSH0 DUP4 DUP4 ADD MSTORE POP POP POP JUMP JUMPDEST PUSH0 PUSH2 0xCA0 DUP3 PUSH2 0xC6E JUMP JUMPDEST PUSH2 0xCAA DUP2 DUP6 PUSH2 0xC78 JUMP JUMPDEST SWAP4 POP PUSH2 0xCBA DUP2 DUP6 PUSH1 0x20 DUP7 ADD PUSH2 0xC88 JUMP JUMPDEST PUSH2 0xCC3 DUP2 PUSH2 0x99D JUMP JUMPDEST DUP5 ADD SWAP2 POP POP SWAP3 SWAP2 POP POP JUMP JUMPDEST PUSH0 PUSH1 0x20 DUP3 ADD SWAP1 POP DUP2 DUP2 SUB PUSH0 DUP4 ADD MSTORE PUSH2 0xCE6 DUP2 DUP5 PUSH2 0xC96 JUMP JUMPDEST SWAP1 POP SWAP3 SWAP2 POP POP JUMP JUMPDEST PUSH0 DUP3 DUP3 MSTORE PUSH1 0x20 DUP3 ADD SWAP1 POP SWAP3 SWAP2 POP POP JUMP JUMPDEST PUSH32 0x6E6F74206F776E65720000000000000000000000000000000000000000000000 PUSH0 DUP3 ADD MSTORE POP JUMP JUMPDEST PUSH0 PUSH2 0xD32 PUSH1 0x9 DUP4 PUSH2 0xCEE JUMP JUMPDEST SWAP2 POP PUSH2 0xD3D DUP3 PUSH2 0xCFE JUMP JUMPDEST PUSH1 0x20 DUP3 ADD SWAP1 POP SWAP2 SWAP1 POP JUMP JUMPDEST PUSH0 PUSH1 0x20 DUP3 ADD SWAP1 POP DUP2 DUP2 SUB PUSH0 DUP4 ADD MSTORE PUSH2 0xD5F DUP2 PUSH2 0xD26 JUMP JUMPDEST SWAP1 POP SWAP2 SWAP1 POP JUMP JUMPDEST PUSH32 0x4E487B7100000000000000000000000000000000000000000000000000000000 PUSH0 MSTORE PUSH1 0x11 PUSH1 0x4 MSTORE PUSH1 0x24 PUSH0 REVERT JUMPDEST PUSH0 PUSH2 0xD9D DUP3 PUSH2 0x8E0 JUMP JUMPDEST SWAP2 POP PUSH2 0xDA8 DUP4 PUSH2 0x8E0 JUMP JUMPDEST SWAP3 POP DUP3 DUP3 ADD SWAP1 POP DUP1 DUP3 GT ISZERO PUSH2 0xDC0 JUMPI PUSH2 0xDBF PUSH2 0xD66 JUMP JUMPDEST JUMPDEST SWAP3 SWAP2 POP POP JUMP JUMPDEST PUSH0 DUP2 MLOAD SWAP1 POP SWAP2 SWAP1 POP JUMP JUMPDEST PUSH0 PUSH2 0xDDA DUP3 PUSH2 0xDC6 JUMP JUMPDEST PUSH2 0xDE4 DUP2 DUP6 PUSH2 0xCEE JUMP JUMPDEST SWAP4 POP PUSH2 0xDF4 DUP2 DUP6 PUSH1 0x20 DUP7 ADD PUSH2 0xC88 JUMP JUMPDEST PUSH2 0xDFD DUP2 PUSH2 0x99D JUMP JUMPDEST DUP5 ADD SWAP2 POP POP SWAP3 SWAP2 POP POP JUMP JUMPDEST PUSH0 PUSH1 0xA0 DUP3 ADD SWAP1 POP PUSH2 0xE1B PUSH0 DUP4 ADD DUP9 PUSH2 0xC1E JUMP JUMPDEST PUSH2 0xE28 PUSH1 0x20 DUP4 ADD DUP8 PUSH2 0x8E9 JUMP JUMPDEST DUP2 DUP2 SUB PUSH1 0x40 DUP4 ADD MSTORE PUSH2 0xE3A DUP2 DUP7 PUSH2 0xDD0 JUMP JUMPDEST SWAP1 POP DUP2 DUP2 SUB PUSH1 0x60 DUP4 ADD MSTORE PUSH2 0xE4E DUP2 DUP6 PUSH2 0xC96 JUMP JUMPDEST SWAP1 POP PUSH2 0xE5D PUSH1 0x80 DUP4 ADD DUP5 PUSH2 0x8E9 JUMP JUMPDEST SWAP7 SWAP6 POP POP POP POP POP POP JUMP JUMPDEST PUSH0 DUP2 PUSH1 0x60 SHL SWAP1 POP SWAP2 SWAP1 POP JUMP JUMPDEST PUSH0 PUSH2 0xE7D DUP3 PUSH2 0xE67 JUMP JUMPDEST SWAP1 POP SWAP2 SWAP1 POP JUMP JUMPDEST PUSH0 PUSH2 0xE8E DUP3 PUSH2 0xE73 JUMP JUMPDEST SWAP1 POP SWAP2 SWAP1 POP JUMP JUMPDEST PUSH2 0xEA6 PUSH2 0xEA1 DUP3 PUSH2 0x930 JUMP JUMPDEST PUSH2 0xE84 JUMP JUMPDEST DUP3 MSTORE POP POP JUMP JUMPDEST PUSH0 DUP2 SWAP1 POP SWAP2 SWAP1 POP JUMP JUMPDEST PUSH2 0xEC6 PUSH2 0xEC1 DUP3 PUSH2 0x8E0 JUMP JUMPDEST PUSH2 0xEAC JUMP JUMPDEST DUP3 MSTORE POP POP JUMP JUMPDEST PUSH0 DUP2 SWAP1 POP SWAP3 SWAP2 POP POP JUMP JUMPDEST PUSH0 PUSH2 0xEE0 DUP3 PUSH2 0xDC6 JUMP JUMPDEST PUSH2 0xEEA DUP2 DUP6 PUSH2 0xECC JUMP JUMPDEST SWAP4 POP PUSH2 0xEFA DUP2 DUP6 PUSH1 0x20 DUP7 ADD PUSH2 0xC88 JUMP JUMPDEST DUP1 DUP5 ADD SWAP2 POP POP SWAP3 SWAP2 POP POP JUMP JUMPDEST PUSH0 DUP2 SWAP1 POP SWAP3 SWAP2 POP POP JUMP JUMPDEST PUSH0 PUSH2 0xF1A DUP3 PUSH2 0xC6E JUMP JUMPDEST PUSH2 0xF24 DUP2 DUP6 PUSH2 0xF06 JUMP JUMPDEST SWAP4 POP PUSH2 0xF34 DUP2 DUP6 PUSH1 0x20 DUP7 ADD PUSH2 0xC88 JUMP JUMPDEST DUP1 DUP5 ADD SWAP2 POP POP SWAP3 SWAP2 POP POP JUMP JUMPDEST PUSH0 PUSH2 0xF4B DUP3 DUP9 PUSH2 0xE95 JUMP JUMPDEST PUSH1 0x14 DUP3 ADD SWAP2 POP PUSH2 0xF5B DUP3 DUP8 PUSH2 0xEB5 JUMP JUMPDEST PUSH1 0x20 DUP3 ADD SWAP2 POP PUSH2 0xF6B DUP3 DUP7 PUSH2 0xED6 JUMP JUMPDEST SWAP2 POP PUSH2 0xF77 DUP3 DUP6 PUSH2 0xF10 JUMP JUMPDEST SWAP2 POP PUSH2 0xF83 DUP3 DUP5 PUSH2 0xEB5 JUMP JUMPDEST PUSH1 0x20 DUP3 ADD SWAP2 POP DUP2 SWAP1 POP SWAP7 SWAP6 POP POP POP POP POP POP JUMP JUMPDEST PUSH0 PUSH2 0xFA1 DUP3 DUP5 PUSH2 0xED6 JUMP JUMPDEST SWAP2 POP DUP2 SWAP1 POP SWAP3 SWAP2 POP POP JUMP JUMPDEST PUSH0 PUSH2 0xFB7 DUP3 DUP5 PUSH2 0xF10 JUMP JUMPDEST SWAP2 POP DUP2 SWAP1 POP SWAP3 SWAP2 POP POP JUMP JUMPDEST PUSH32 0x63616C6C206661696C6564000000000000000000000000000000000000000000 PUSH0 DUP3 ADD MSTORE POP JUMP JUMPDEST PUSH0 PUSH2 0xFF6 PUSH1 0xB DUP4 PUSH2 0xCEE JUMP JUMPDEST SWAP2 POP PUSH2 0x1001 DUP3 PUSH2 0xFC2 JUMP JUMPDEST PUSH1 0x20 DUP3 ADD SWAP1 POP SWAP2 SWAP1 POP JUMP JUMPDEST PUSH0 PUSH1 0x20 DUP3 ADD SWAP1 POP DUP2 DUP2 SUB PUSH0 DUP4 ADD MSTORE PUSH2 0x1023 DUP2 PUSH2 0xFEA JUMP JUMPDEST SWAP1 POP SWAP2 SWAP1 POP JUMP INVALID LOG2 PUSH5 0x6970667358 0x22 SLT KECCAK256 PUSH24 0xD0F57496B4A6A962B4F00D53100CFDCAE2DAF302B9C8770D CALLDATASIZE CALLDATASIZE ADDRESS DUP14 0xC3 RETURN CODESIZE PUSH5 0x736F6C6343 STOP ADDMOD 0x22 STOP CALLER "
				},
				"gasEstimates": {
					"creation": {
						"codeDepositCost": "838400",
						"executionCost": "25132",
						"totalCost": "863532"
					},
					"external": {
						"MAX_DELAY()": "370",
						"MIN_DELAY()": "347",
						"cancelQueue(bytes32)": "infinite",
						"execute(address,uint256,string,bytes,uint256)": "infinite",
						"getId(address,uint256,string,bytes,uint256)": "infinite",
						"owner()": "2507",
						"queue(address,uint256,string,bytes,uint256)": "infinite",
						"queued(bytes32)": "2808"
					}
				},
				"methodIdentifiers": {
					"MAX_DELAY()": "4125ff90",
					"MIN_DELAY()": "9f81aed7",
					"cancelQueue(bytes32)": "175aca1e",
					"execute(address,uint256,string,bytes,uint256)": "b0f8b142",
					"getId(address,uint256,string,bytes,uint256)": "afca0654",
					"owner()": "8da5cb5b",
					"queue(address,uint256,string,bytes,uint256)": "4b9915a5",
					"queued(bytes32)": "228250c9"
				}
			},
			"storageLayout": {
				"storage": [
					{
						"astId": 3,
						"contract": "solidity高级应用/timelock时间锁.sol:TimeLock",
						"label": "owner",
						"offset": 0,
						"slot": "0",
						"type": "t_address"
					},
					{
						"astId": 7,
						"contract": "solidity高级应用/timelock时间锁.sol:TimeLock",
						"label": "queued",
						"offset": 0,
						"slot": "1",
						"type": "t_mapping(t_bytes32,t_bool)"
					}
				],
				"types": {
					"t_address": {
						"encoding": "inplace",
						"label": "address",
						"numberOfBytes": "20"
					},
					"t_bool": {
						"encoding": "inplace",
						"label": "bool",
						"numberOfBytes": "1"
					},
					"t_bytes32": {
						"encoding": "inplace",
						"label": "bytes32",
						"numberOfBytes": "32"
					},
					"t_mapping(t_bytes32,t_bool)": {
						"encoding": "mapping",
						"key": "t_bytes32",
						"label": "mapping(bytes32 => bool)",
						"numberOfBytes": "32",
						"value": "t_bool"
					}
				}
			},
			"userdoc": {
				"kind": "user",
				"methods": {},
				"version": 1
			}
		}
	}
}