{
	"solidity基础/错误Error.sol": {
		"ErrorHandle": {
			"abi": [
				{
					"inputs": [
						{
							"internalType": "address",
							"name": "caller",
							"type": "address"
						},
						{
							"internalType": "uint256",
							"name": "i",
							"type": "uint256"
						}
					],
					"name": "MyError",
					"type": "error"
				},
				{
					"inputs": [
						{
							"internalType": "uint256",
							"name": "i",
							"type": "uint256"
						}
					],
					"name": "testMyError",
					"outputs": [],
					"stateMutability": "view",
					"type": "function"
				},
				{
					"inputs": [
						{
							"internalType": "uint256",
							"name": "number",
							"type": "uint256"
						}
					],
					"name": "testRequire",
					"outputs": [],
					"stateMutability": "pure",
					"type": "function"
				},
				{
					"inputs": [
						{
							"internalType": "uint256",
							"name": "_n",
							"type": "uint256"
						}
					],
					"name": "testRevert",
					"outputs": [],
					"stateMutability": "pure",
					"type": "function"
				}
			],
			"devdoc": {
				"kind": "dev",
				"methods": {},
				"version": 1
			},
			"evm": {
				"assembly": "    /* \"solidity\\xe5\\x9f\\xba\\xe7\\xa1\\x80/\\xe9\\x94\\x99\\xe8\\xaf\\xafError.sol\":60:580  contract ErrorHandle{... */\n  mstore(0x40, 0x80)\n  callvalue\n  dup1\n  iszero\n  tag_1\n  jumpi\n  revert(0x00, 0x00)\ntag_1:\n  pop\n  dataSize(sub_0)\n  dup1\n  dataOffset(sub_0)\n  0x00\n  codecopy\n  0x00\n  return\nstop\n\nsub_0: assembly {\n        /* \"solidity\\xe5\\x9f\\xba\\xe7\\xa1\\x80/\\xe9\\x94\\x99\\xe8\\xaf\\xafError.sol\":60:580  contract ErrorHandle{... */\n      mstore(0x40, 0x80)\n      callvalue\n      dup1\n      iszero\n      tag_1\n      jumpi\n      revert(0x00, 0x00)\n    tag_1:\n      pop\n      jumpi(tag_2, lt(calldatasize, 0x04))\n      shr(0xe0, calldataload(0x00))\n      dup1\n      0x20987767\n      eq\n      tag_3\n      jumpi\n      dup1\n      0x34a4232e\n      eq\n      tag_4\n      jumpi\n      dup1\n      0xb8bd717f\n      eq\n      tag_5\n      jumpi\n    tag_2:\n      revert(0x00, 0x00)\n        /* \"solidity\\xe5\\x9f\\xba\\xe7\\xa1\\x80/\\xe9\\x94\\x99\\xe8\\xaf\\xafError.sol\":192:308  function testRevert(uint _n) public pure {... */\n    tag_3:\n      tag_6\n      0x04\n      dup1\n      calldatasize\n      sub\n      dup2\n      add\n      swap1\n      tag_7\n      swap2\n      swap1\n      tag_8\n      jump\t// in\n    tag_7:\n      tag_9\n      jump\t// in\n    tag_6:\n      stop\n        /* \"solidity\\xe5\\x9f\\xba\\xe7\\xa1\\x80/\\xe9\\x94\\x99\\xe8\\xaf\\xafError.sol\":453:577  function testMyError(uint i) public view{... */\n    tag_4:\n      tag_10\n      0x04\n      dup1\n      calldatasize\n      sub\n      dup2\n      add\n      swap1\n      tag_11\n      swap2\n      swap1\n      tag_8\n      jump\t// in\n    tag_11:\n      tag_12\n      jump\t// in\n    tag_10:\n      stop\n        /* \"solidity\\xe5\\x9f\\xba\\xe7\\xa1\\x80/\\xe9\\x94\\x99\\xe8\\xaf\\xafError.sol\":87:184  function testRequire(uint number) public pure {... */\n    tag_5:\n      tag_13\n      0x04\n      dup1\n      calldatasize\n      sub\n      dup2\n      add\n      swap1\n      tag_14\n      swap2\n      swap1\n      tag_8\n      jump\t// in\n    tag_14:\n      tag_15\n      jump\t// in\n    tag_13:\n      stop\n        /* \"solidity\\xe5\\x9f\\xba\\xe7\\xa1\\x80/\\xe9\\x94\\x99\\xe8\\xaf\\xafError.sol\":192:308  function testRevert(uint _n) public pure {... */\n    tag_9:\n        /* \"solidity\\xe5\\x9f\\xba\\xe7\\xa1\\x80/\\xe9\\x94\\x99\\xe8\\xaf\\xafError.sol\":252:254  10 */\n      0x0a\n        /* \"solidity\\xe5\\x9f\\xba\\xe7\\xa1\\x80/\\xe9\\x94\\x99\\xe8\\xaf\\xafError.sol\":247:249  _n */\n      dup2\n        /* \"solidity\\xe5\\x9f\\xba\\xe7\\xa1\\x80/\\xe9\\x94\\x99\\xe8\\xaf\\xafError.sol\":247:254  _n > 10 */\n      gt\n        /* \"solidity\\xe5\\x9f\\xba\\xe7\\xa1\\x80/\\xe9\\x94\\x99\\xe8\\xaf\\xafError.sol\":244:301  if(_n > 10){... */\n      iszero\n      tag_17\n      jumpi\n        /* \"solidity\\xe5\\x9f\\xba\\xe7\\xa1\\x80/\\xe9\\x94\\x99\\xe8\\xaf\\xafError.sol\":270:289  revert(\"It's > 10\") */\n      mload(0x40)\n      0x08c379a000000000000000000000000000000000000000000000000000000000\n      dup2\n      mstore\n      0x04\n      add\n      tag_18\n      swap1\n      tag_19\n      jump\t// in\n    tag_18:\n      mload(0x40)\n      dup1\n      swap2\n      sub\n      swap1\n      revert\n        /* \"solidity\\xe5\\x9f\\xba\\xe7\\xa1\\x80/\\xe9\\x94\\x99\\xe8\\xaf\\xafError.sol\":244:301  if(_n > 10){... */\n    tag_17:\n        /* \"solidity\\xe5\\x9f\\xba\\xe7\\xa1\\x80/\\xe9\\x94\\x99\\xe8\\xaf\\xafError.sol\":192:308  function testRevert(uint _n) public pure {... */\n      pop\n      jump\t// out\n        /* \"solidity\\xe5\\x9f\\xba\\xe7\\xa1\\x80/\\xe9\\x94\\x99\\xe8\\xaf\\xafError.sol\":453:577  function testMyError(uint i) public view{... */\n    tag_12:\n        /* \"solidity\\xe5\\x9f\\xba\\xe7\\xa1\\x80/\\xe9\\x94\\x99\\xe8\\xaf\\xafError.sol\":511:513  10 */\n      0x0a\n        /* \"solidity\\xe5\\x9f\\xba\\xe7\\xa1\\x80/\\xe9\\x94\\x99\\xe8\\xaf\\xafError.sol\":507:508  i */\n      dup2\n        /* \"solidity\\xe5\\x9f\\xba\\xe7\\xa1\\x80/\\xe9\\x94\\x99\\xe8\\xaf\\xafError.sol\":507:513  i > 10 */\n      gt\n        /* \"solidity\\xe5\\x9f\\xba\\xe7\\xa1\\x80/\\xe9\\x94\\x99\\xe8\\xaf\\xafError.sol\":504:570  if(i > 10){... */\n      iszero\n      tag_21\n      jumpi\n        /* \"solidity\\xe5\\x9f\\xba\\xe7\\xa1\\x80/\\xe9\\x94\\x99\\xe8\\xaf\\xafError.sol\":544:554  msg.sender */\n      caller\n        /* \"solidity\\xe5\\x9f\\xba\\xe7\\xa1\\x80/\\xe9\\x94\\x99\\xe8\\xaf\\xafError.sol\":556:557  i */\n      dup2\n        /* \"solidity\\xe5\\x9f\\xba\\xe7\\xa1\\x80/\\xe9\\x94\\x99\\xe8\\xaf\\xafError.sol\":536:558  MyError(msg.sender, i) */\n      mload(0x40)\n      0xe2399bb800000000000000000000000000000000000000000000000000000000\n      dup2\n      mstore\n      0x04\n      add\n      tag_22\n      swap3\n      swap2\n      swap1\n      tag_23\n      jump\t// in\n    tag_22:\n      mload(0x40)\n      dup1\n      swap2\n      sub\n      swap1\n      revert\n        /* \"solidity\\xe5\\x9f\\xba\\xe7\\xa1\\x80/\\xe9\\x94\\x99\\xe8\\xaf\\xafError.sol\":504:570  if(i > 10){... */\n    tag_21:\n        /* \"solidity\\xe5\\x9f\\xba\\xe7\\xa1\\x80/\\xe9\\x94\\x99\\xe8\\xaf\\xafError.sol\":453:577  function testMyError(uint i) public view{... */\n      pop\n      jump\t// out\n        /* \"solidity\\xe5\\x9f\\xba\\xe7\\xa1\\x80/\\xe9\\x94\\x99\\xe8\\xaf\\xafError.sol\":87:184  function testRequire(uint number) public pure {... */\n    tag_15:\n        /* \"solidity\\xe5\\x9f\\xba\\xe7\\xa1\\x80/\\xe9\\x94\\x99\\xe8\\xaf\\xafError.sol\":161:163  10 */\n      0x0a\n        /* \"solidity\\xe5\\x9f\\xba\\xe7\\xa1\\x80/\\xe9\\x94\\x99\\xe8\\xaf\\xafError.sol\":152:158  number */\n      dup2\n        /* \"solidity\\xe5\\x9f\\xba\\xe7\\xa1\\x80/\\xe9\\x94\\x99\\xe8\\xaf\\xafError.sol\":152:163  number < 10 */\n      lt\n        /* \"solidity\\xe5\\x9f\\xba\\xe7\\xa1\\x80/\\xe9\\x94\\x99\\xe8\\xaf\\xafError.sol\":144:176  require(number < 10,\"It's > 10\") */\n      tag_25\n      jumpi\n      mload(0x40)\n      0x08c379a000000000000000000000000000000000000000000000000000000000\n      dup2\n      mstore\n      0x04\n      add\n      tag_26\n      swap1\n      tag_19\n      jump\t// in\n    tag_26:\n      mload(0x40)\n      dup1\n      swap2\n      sub\n      swap1\n      revert\n    tag_25:\n        /* \"solidity\\xe5\\x9f\\xba\\xe7\\xa1\\x80/\\xe9\\x94\\x99\\xe8\\xaf\\xafError.sol\":87:184  function testRequire(uint number) public pure {... */\n      pop\n      jump\t// out\n        /* \"#utility.yul\":88:205   */\n    tag_28:\n        /* \"#utility.yul\":197:198   */\n      0x00\n        /* \"#utility.yul\":194:195   */\n      0x00\n        /* \"#utility.yul\":187:199   */\n      revert\n        /* \"#utility.yul\":334:411   */\n    tag_30:\n        /* \"#utility.yul\":371:378   */\n      0x00\n        /* \"#utility.yul\":400:405   */\n      dup2\n        /* \"#utility.yul\":389:405   */\n      swap1\n      pop\n        /* \"#utility.yul\":334:411   */\n      swap2\n      swap1\n      pop\n      jump\t// out\n        /* \"#utility.yul\":417:539   */\n    tag_31:\n        /* \"#utility.yul\":490:514   */\n      tag_46\n        /* \"#utility.yul\":508:513   */\n      dup2\n        /* \"#utility.yul\":490:514   */\n      tag_30\n      jump\t// in\n    tag_46:\n        /* \"#utility.yul\":483:488   */\n      dup2\n        /* \"#utility.yul\":480:515   */\n      eq\n        /* \"#utility.yul\":470:533   */\n      tag_47\n      jumpi\n        /* \"#utility.yul\":529:530   */\n      0x00\n        /* \"#utility.yul\":526:527   */\n      0x00\n        /* \"#utility.yul\":519:531   */\n      revert\n        /* \"#utility.yul\":470:533   */\n    tag_47:\n        /* \"#utility.yul\":417:539   */\n      pop\n      jump\t// out\n        /* \"#utility.yul\":545:684   */\n    tag_32:\n        /* \"#utility.yul\":591:596   */\n      0x00\n        /* \"#utility.yul\":629:635   */\n      dup2\n        /* \"#utility.yul\":616:636   */\n      calldataload\n        /* \"#utility.yul\":607:636   */\n      swap1\n      pop\n        /* \"#utility.yul\":645:678   */\n      tag_49\n        /* \"#utility.yul\":672:677   */\n      dup2\n        /* \"#utility.yul\":645:678   */\n      tag_31\n      jump\t// in\n    tag_49:\n        /* \"#utility.yul\":545:684   */\n      swap3\n      swap2\n      pop\n      pop\n      jump\t// out\n        /* \"#utility.yul\":690:1019   */\n    tag_8:\n        /* \"#utility.yul\":749:755   */\n      0x00\n        /* \"#utility.yul\":798:800   */\n      0x20\n        /* \"#utility.yul\":786:795   */\n      dup3\n        /* \"#utility.yul\":777:784   */\n      dup5\n        /* \"#utility.yul\":773:796   */\n      sub\n        /* \"#utility.yul\":769:801   */\n      slt\n        /* \"#utility.yul\":766:885   */\n      iszero\n      tag_51\n      jumpi\n        /* \"#utility.yul\":804:883   */\n      tag_52\n      tag_28\n      jump\t// in\n    tag_52:\n        /* \"#utility.yul\":766:885   */\n    tag_51:\n        /* \"#utility.yul\":924:925   */\n      0x00\n        /* \"#utility.yul\":949:1002   */\n      tag_53\n        /* \"#utility.yul\":994:1001   */\n      dup5\n        /* \"#utility.yul\":985:991   */\n      dup3\n        /* \"#utility.yul\":974:983   */\n      dup6\n        /* \"#utility.yul\":970:992   */\n      add\n        /* \"#utility.yul\":949:1002   */\n      tag_32\n      jump\t// in\n    tag_53:\n        /* \"#utility.yul\":939:1002   */\n      swap2\n      pop\n        /* \"#utility.yul\":895:1012   */\n      pop\n        /* \"#utility.yul\":690:1019   */\n      swap3\n      swap2\n      pop\n      pop\n      jump\t// out\n        /* \"#utility.yul\":1025:1194   */\n    tag_33:\n        /* \"#utility.yul\":1109:1120   */\n      0x00\n        /* \"#utility.yul\":1143:1149   */\n      dup3\n        /* \"#utility.yul\":1138:1141   */\n      dup3\n        /* \"#utility.yul\":1131:1150   */\n      mstore\n        /* \"#utility.yul\":1183:1187   */\n      0x20\n        /* \"#utility.yul\":1178:1181   */\n      dup3\n        /* \"#utility.yul\":1174:1188   */\n      add\n        /* \"#utility.yul\":1159:1188   */\n      swap1\n      pop\n        /* \"#utility.yul\":1025:1194   */\n      swap3\n      swap2\n      pop\n      pop\n      jump\t// out\n        /* \"#utility.yul\":1200:1359   */\n    tag_34:\n        /* \"#utility.yul\":1340:1351   */\n      0x49742773203e2031300000000000000000000000000000000000000000000000\n        /* \"#utility.yul\":1336:1337   */\n      0x00\n        /* \"#utility.yul\":1328:1334   */\n      dup3\n        /* \"#utility.yul\":1324:1338   */\n      add\n        /* \"#utility.yul\":1317:1352   */\n      mstore\n        /* \"#utility.yul\":1200:1359   */\n      pop\n      jump\t// out\n        /* \"#utility.yul\":1365:1730   */\n    tag_35:\n        /* \"#utility.yul\":1507:1510   */\n      0x00\n        /* \"#utility.yul\":1528:1594   */\n      tag_57\n        /* \"#utility.yul\":1592:1593   */\n      0x09\n        /* \"#utility.yul\":1587:1590   */\n      dup4\n        /* \"#utility.yul\":1528:1594   */\n      tag_33\n      jump\t// in\n    tag_57:\n        /* \"#utility.yul\":1521:1594   */\n      swap2\n      pop\n        /* \"#utility.yul\":1603:1696   */\n      tag_58\n        /* \"#utility.yul\":1692:1695   */\n      dup3\n        /* \"#utility.yul\":1603:1696   */\n      tag_34\n      jump\t// in\n    tag_58:\n        /* \"#utility.yul\":1721:1723   */\n      0x20\n        /* \"#utility.yul\":1716:1719   */\n      dup3\n        /* \"#utility.yul\":1712:1724   */\n      add\n        /* \"#utility.yul\":1705:1724   */\n      swap1\n      pop\n        /* \"#utility.yul\":1365:1730   */\n      swap2\n      swap1\n      pop\n      jump\t// out\n        /* \"#utility.yul\":1736:2155   */\n    tag_19:\n        /* \"#utility.yul\":1902:1906   */\n      0x00\n        /* \"#utility.yul\":1940:1942   */\n      0x20\n        /* \"#utility.yul\":1929:1938   */\n      dup3\n        /* \"#utility.yul\":1925:1943   */\n      add\n        /* \"#utility.yul\":1917:1943   */\n      swap1\n      pop\n        /* \"#utility.yul\":1989:1998   */\n      dup2\n        /* \"#utility.yul\":1983:1987   */\n      dup2\n        /* \"#utility.yul\":1979:1999   */\n      sub\n        /* \"#utility.yul\":1975:1976   */\n      0x00\n        /* \"#utility.yul\":1964:1973   */\n      dup4\n        /* \"#utility.yul\":1960:1977   */\n      add\n        /* \"#utility.yul\":1953:2000   */\n      mstore\n        /* \"#utility.yul\":2017:2148   */\n      tag_60\n        /* \"#utility.yul\":2143:2147   */\n      dup2\n        /* \"#utility.yul\":2017:2148   */\n      tag_35\n      jump\t// in\n    tag_60:\n        /* \"#utility.yul\":2009:2148   */\n      swap1\n      pop\n        /* \"#utility.yul\":1736:2155   */\n      swap2\n      swap1\n      pop\n      jump\t// out\n        /* \"#utility.yul\":2161:2287   */\n    tag_36:\n        /* \"#utility.yul\":2198:2205   */\n      0x00\n        /* \"#utility.yul\":2238:2280   */\n      0xffffffffffffffffffffffffffffffffffffffff\n        /* \"#utility.yul\":2231:2236   */\n      dup3\n        /* \"#utility.yul\":2227:2281   */\n      and\n        /* \"#utility.yul\":2216:2281   */\n      swap1\n      pop\n        /* \"#utility.yul\":2161:2287   */\n      swap2\n      swap1\n      pop\n      jump\t// out\n        /* \"#utility.yul\":2293:2389   */\n    tag_37:\n        /* \"#utility.yul\":2330:2337   */\n      0x00\n        /* \"#utility.yul\":2359:2383   */\n      tag_63\n        /* \"#utility.yul\":2377:2382   */\n      dup3\n        /* \"#utility.yul\":2359:2383   */\n      tag_36\n      jump\t// in\n    tag_63:\n        /* \"#utility.yul\":2348:2383   */\n      swap1\n      pop\n        /* \"#utility.yul\":2293:2389   */\n      swap2\n      swap1\n      pop\n      jump\t// out\n        /* \"#utility.yul\":2395:2513   */\n    tag_38:\n        /* \"#utility.yul\":2482:2506   */\n      tag_65\n        /* \"#utility.yul\":2500:2505   */\n      dup2\n        /* \"#utility.yul\":2482:2506   */\n      tag_37\n      jump\t// in\n    tag_65:\n        /* \"#utility.yul\":2477:2480   */\n      dup3\n        /* \"#utility.yul\":2470:2507   */\n      mstore\n        /* \"#utility.yul\":2395:2513   */\n      pop\n      pop\n      jump\t// out\n        /* \"#utility.yul\":2519:2637   */\n    tag_39:\n        /* \"#utility.yul\":2606:2630   */\n      tag_67\n        /* \"#utility.yul\":2624:2629   */\n      dup2\n        /* \"#utility.yul\":2606:2630   */\n      tag_30\n      jump\t// in\n    tag_67:\n        /* \"#utility.yul\":2601:2604   */\n      dup3\n        /* \"#utility.yul\":2594:2631   */\n      mstore\n        /* \"#utility.yul\":2519:2637   */\n      pop\n      pop\n      jump\t// out\n        /* \"#utility.yul\":2643:2975   */\n    tag_23:\n        /* \"#utility.yul\":2764:2768   */\n      0x00\n        /* \"#utility.yul\":2802:2804   */\n      0x40\n        /* \"#utility.yul\":2791:2800   */\n      dup3\n        /* \"#utility.yul\":2787:2805   */\n      add\n        /* \"#utility.yul\":2779:2805   */\n      swap1\n      pop\n        /* \"#utility.yul\":2815:2886   */\n      tag_69\n        /* \"#utility.yul\":2883:2884   */\n      0x00\n        /* \"#utility.yul\":2872:2881   */\n      dup4\n        /* \"#utility.yul\":2868:2885   */\n      add\n        /* \"#utility.yul\":2859:2865   */\n      dup6\n        /* \"#utility.yul\":2815:2886   */\n      tag_38\n      jump\t// in\n    tag_69:\n        /* \"#utility.yul\":2896:2968   */\n      tag_70\n        /* \"#utility.yul\":2964:2966   */\n      0x20\n        /* \"#utility.yul\":2953:2962   */\n      dup4\n        /* \"#utility.yul\":2949:2967   */\n      add\n        /* \"#utility.yul\":2940:2946   */\n      dup5\n        /* \"#utility.yul\":2896:2968   */\n      tag_39\n      jump\t// in\n    tag_70:\n        /* \"#utility.yul\":2643:2975   */\n      swap4\n      swap3\n      pop\n      pop\n      pop\n      jump\t// out\n\n    auxdata: 0xa264697066735822122068370ac3356f4b7b390ed6226182630e8bc789e6fddf3f02cc04de805565b3f764736f6c63430008220033\n}\n",
				"bytecode": {
					"linkReferences": {},
					"object": "6080604052348015600e575f5ffd5b506102f48061001c5f395ff3fe608060405234801561000f575f5ffd5b506004361061003f575f3560e01c8063209877671461004357806334a4232e1461005f578063b8bd717f1461007b575b5f5ffd5b61005d600480360381019061005891906101a6565b610097565b005b610079600480360381019061007491906101a6565b6100de565b005b610095600480360381019061009091906101a6565b610129565b005b600a8111156100db576040517f08c379a00000000000000000000000000000000000000000000000000000000081526004016100d29061022b565b60405180910390fd5b50565b600a8111156101265733816040517fe2399bb800000000000000000000000000000000000000000000000000000000815260040161011d929190610297565b60405180910390fd5b50565b600a811061016c576040517f08c379a00000000000000000000000000000000000000000000000000000000081526004016101639061022b565b60405180910390fd5b50565b5f5ffd5b5f819050919050565b61018581610173565b811461018f575f5ffd5b50565b5f813590506101a08161017c565b92915050565b5f602082840312156101bb576101ba61016f565b5b5f6101c884828501610192565b91505092915050565b5f82825260208201905092915050565b7f49742773203e20313000000000000000000000000000000000000000000000005f82015250565b5f6102156009836101d1565b9150610220826101e1565b602082019050919050565b5f6020820190508181035f83015261024281610209565b9050919050565b5f73ffffffffffffffffffffffffffffffffffffffff82169050919050565b5f61027282610249565b9050919050565b61028281610268565b82525050565b61029181610173565b82525050565b5f6040820190506102aa5f830185610279565b6102b76020830184610288565b939250505056fea264697066735822122068370ac3356f4b7b390ed6226182630e8bc789e6fddf3f02cc04de805565b3f764736f6c63430008220033",
					"opcodes": "PUSH1 0x80 PUSH1 0x40 MSTORE CALLVALUE DUP1 ISZERO PUSH1 0xE JUMPI PUSH0 PUSH0 REVERT JUMPDEST POP PUSH2 0x2F4 DUP1 PUSH2 0x1C PUSH0 CODECOPY PUSH0 RETURN INVALID PUSH1 0x80 PUSH1 0x40 MSTORE CALLVALUE DUP1 ISZERO PUSH2 0xF JUMPI PUSH0 PUSH0 REVERT JUMPDEST POP PUSH1 0x4 CALLDATASIZE LT PUSH2 0x3F JUMPI PUSH0 CALLDATALOAD PUSH1 0xE0 SHR DUP1 PUSH4 0x20987767 EQ PUSH2 0x43 JUMPI DUP1 PUSH4 0x34A4232E EQ PUSH2 0x5F JUMPI DUP1 PUSH4 0xB8BD717F EQ PUSH2 0x7B JUMPI JUMPDEST PUSH0 PUSH0 REVERT JUMPDEST PUSH2 0x5D PUSH1 0x4 DUP1 CALLDATASIZE SUB DUP2 ADD SWAP1 PUSH2 0x58 SWAP2 SWAP1 PUSH2 0x1A6 JUMP JUMPDEST PUSH2 0x97 JUMP JUMPDEST STOP JUMPDEST PUSH2 0x79 PUSH1 0x4 DUP1 CALLDATASIZE SUB DUP2 ADD SWAP1 PUSH2 0x74 SWAP2 SWAP1 PUSH2 0x1A6 JUMP JUMPDEST PUSH2 0xDE JUMP JUMPDEST STOP JUMPDEST PUSH2 0x95 PUSH1 0x4 DUP1 CALLDATASIZE SUB DUP2 ADD SWAP1 PUSH2 0x90 SWAP2 SWAP1 PUSH2 0x1A6 JUMP JUMPDEST PUSH2 0x129 JUMP JUMPDEST STOP JUMPDEST PUSH1 0xA DUP2 GT ISZERO PUSH2 0xDB JUMPI PUSH1 0x40 MLOAD PUSH32 0x8C379A000000000000000000000000000000000000000000000000000000000 DUP2 MSTORE PUSH1 0x4 ADD PUSH2 0xD2 SWAP1 PUSH2 0x22B JUMP JUMPDEST PUSH1 0x40 MLOAD DUP1 SWAP2 SUB SWAP1 REVERT JUMPDEST POP JUMP JUMPDEST PUSH1 0xA DUP2 GT ISZERO PUSH2 0x126 JUMPI CALLER DUP2 PUSH1 0x40 MLOAD PUSH32 0xE2399BB800000000000000000000000000000000000000000000000000000000 DUP2 MSTORE PUSH1 0x4 ADD PUSH2 0x11D SWAP3 SWAP2 SWAP1 PUSH2 0x297 JUMP JUMPDEST PUSH1 0x40 MLOAD DUP1 SWAP2 SUB SWAP1 REVERT JUMPDEST POP JUMP JUMPDEST PUSH1 0xA DUP2 LT PUSH2 0x16C JUMPI PUSH1 0x40 MLOAD PUSH32 0x8C379A000000000000000000000000000000000000000000000000000000000 DUP2 MSTORE PUSH1 0x4 ADD PUSH2 0x163 SWAP1 PUSH2 0x22B JUMP JUMPDEST PUSH1 0x40 MLOAD DUP1 SWAP2 SUB SWAP1 REVERT JUMPDEST POP JUMP JUMPDEST PUSH0 PUSH0 REVERT JUMPDEST PUSH0 DUP2 SWAP1 POP SWAP2 SWAP1 POP JUMP JUMPDEST PUSH2 0x185 DUP2 PUSH2 0x173 JUMP JUMPDEST DUP2 EQ PUSH2 0x18F JUMPI PUSH0 PUSH0 REVERT JUMPDEST POP JUMP JUMPDEST PUSH0 DUP2 CALLDATALOAD SWAP1 POP PUSH2 0x1A0 DUP2 PUSH2 0x17C JUMP JUMPDEST SWAP3 SWAP2 POP POP JUMP JUMPDEST PUSH0 PUSH1 0x20 DUP3 DUP5 SUB SLT ISZERO PUSH2 0x1BB JUMPI PUSH2 0x1BA PUSH2 0x16F JUMP JUMPDEST JUMPDEST PUSH0 PUSH2 0x1C8 DUP5 DUP3 DUP6 ADD PUSH2 0x192 JUMP JUMPDEST SWAP2 POP POP SWAP3 SWAP2 POP POP JUMP JUMPDEST PUSH0 DUP3 DUP3 MSTORE PUSH1 0x20 DUP3 ADD SWAP1 POP SWAP3 SWAP2 POP POP JUMP JUMPDEST PUSH32 0x49742773203E2031300000000000000000000000000000000000000000000000 PUSH0 DUP3 ADD MSTORE POP JUMP JUMPDEST PUSH0 PUSH2 0x215 PUSH1 0x9 DUP4 PUSH2 0x1D1 JUMP JUMPDEST SWAP2 POP PUSH2 0x220 DUP3 PUSH2 0x1E1 JUMP JUMPDEST PUSH1 0x20 DUP3 ADD SWAP1 POP SWAP2 SWAP1 POP JUMP JUMPDEST PUSH0 PUSH1 0x20 DUP3 ADD SWAP1 POP DUP2 DUP2 SUB PUSH0 DUP4 ADD MSTORE PUSH2 0x242 DUP2 PUSH2 0x209 JUMP JUMPDEST SWAP1 POP SWAP2 SWAP1 POP JUMP JUMPDEST PUSH0 PUSH20 0xFFFFFFFFFFFFFFFFFFFFFFFFFFFFFFFFFFFFFFFF DUP3 AND SWAP1 POP SWAP2 SWAP1 POP JUMP JUMPDEST PUSH0 PUSH2 0x272 DUP3 PUSH2 0x249 JUMP JUMPDEST SWAP1 POP SWAP2 SWAP1 POP JUMP JUMPDEST PUSH2 0x282 DUP2 PUSH2 0x268 JUMP JUMPDEST DUP3 MSTORE POP POP JUMP JUMPDEST PUSH2 0x291 DUP2 PUSH2 0x173 JUMP JUMPDEST DUP3 MSTORE POP POP JUMP JUMPDEST PUSH0 PUSH1 0x40 DUP3 ADD SWAP1 POP PUSH2 0x2AA PUSH0 DUP4 ADD DUP6 PUSH2 0x279 JUMP JUMPDEST PUSH2 0x2B7 PUSH1 0x20 DUP4 ADD DUP5 PUSH2 0x288 JUMP JUMPDEST SWAP4 SWAP3 POP POP POP JUMP INVALID LOG2 PUSH5 0x6970667358 0x22 SLT KECCAK256 PUSH9 0x370AC3356F4B7B390E 0xD6 0x22 PUSH2 0x8263 0xE DUP12 0xC7 DUP10 DUPN 0xFD 0xDF EXTCODEHASH MUL 0xCC DIV 0xDE DUP1 SSTORE PUSH6 0xB3F764736F6C PUSH4 0x43000822 STOP CALLER "
				},
				"gasEstimates": {
					"creation": {
						"codeDepositCost": "151200",
						"executionCost": "194",
						"totalCost": "151394"
					},
					"external": {
						"testMyError(uint256)": "infinite",
						"testRequire(uint256)": "728",
						"testRevert(uint256)": "687"
					}
				},
				"methodIdentifiers": {
					"testMyError(uint256)": "34a4232e",
					"testRequire(uint256)": "b8bd717f",
					"testRevert(uint256)": "20987767"
				}
			},
			"storageLayout": {
				"storage": [],
				"types": null
			},
			"userdoc": {
				"kind": "user",
				"methods": {},
				"version": 1
			}
		}
	}
}