{
	"solidity金融和支付/多签钱包.sol": {
		"MutiSignWallet": {
			"abi": [
				{
					"inputs": [
						{
							"internalType": "uint256",
							"name": "num",
							"type": "uint256"
						}
					],
					"stateMutability": "payable",
					"type": "constructor"
				},
				{
					"anonymous": false,
					"inputs": [
						{
							"indexed": true,
							"internalType": "address",
							"name": "owner",
							"type": "address"
						},
						{
							"indexed": false,
							"internalType": "uint256",
							"name": "tsId",
							"type": "uint256"
						}
					],
					"name": "Approve",
					"type": "event"
				},
				{
					"anonymous": false,
					"inputs": [
						{
							"indexed": true,
							"internalType": "address",
							"name": "sender",
							"type": "address"
						},
						{
							"indexed": false,
							"internalType": "uint256",
							"name": "amount",
							"type": "uint256"
						}
					],
					"name": "Deposit",
					"type": "event"
				},
				{
					"anonymous": false,
					"inputs": [
						{
							"indexed": true,
							"internalType": "address",
							"name": "owner",
							"type": "address"
						},
						{
							"indexed": false,
							"internalType": "uint256",
							"name": "tsId",
							"type": "uint256"
						}
					],
					"name": "Exected",
					"type": "event"
				},
				{
					"anonymous": false,
					"inputs": [
						{
							"indexed": false,
							"internalType": "uint256",
							"name": "tsId",
							"type": "uint256"
						}
					],
					"name": "Revoke",
					"type": "event"
				},
				{
					"anonymous": false,
					"inputs": [
						{
							"indexed": false,
							"internalType": "uint256",
							"name": "tsId",
							"type": "uint256"
						}
					],
					"name": "Submit",
					"type": "event"
				},
				{
					"inputs": [
						{
							"internalType": "uint256",
							"name": "tsId",
							"type": "uint256"
						}
					],
					"name": "approve",
					"outputs": [],
					"stateMutability": "nonpayable",
					"type": "function"
				},
				{
					"inputs": [
						{
							"internalType": "uint256",
							"name": "",
							"type": "uint256"
						},
						{
							"internalType": "address",
							"name": "",
							"type": "address"
						}
					],
					"name": "approved",
					"outputs": [
						{
							"internalType": "bool",
							"name": "",
							"type": "bool"
						}
					],
					"stateMutability": "view",
					"type": "function"
				},
				{
					"inputs": [
						{
							"internalType": "uint256",
							"name": "tsId",
							"type": "uint256"
						}
					],
					"name": "execute",
					"outputs": [],
					"stateMutability": "nonpayable",
					"type": "function"
				},
				{
					"inputs": [
						{
							"internalType": "address",
							"name": "",
							"type": "address"
						}
					],
					"name": "isOwner",
					"outputs": [
						{
							"internalType": "bool",
							"name": "",
							"type": "bool"
						}
					],
					"stateMutability": "view",
					"type": "function"
				},
				{
					"inputs": [
						{
							"internalType": "uint256",
							"name": "",
							"type": "uint256"
						}
					],
					"name": "owners",
					"outputs": [
						{
							"internalType": "address",
							"name": "",
							"type": "address"
						}
					],
					"stateMutability": "view",
					"type": "function"
				},
				{
					"inputs": [],
					"name": "required",
					"outputs": [
						{
							"internalType": "uint256",
							"name": "",
							"type": "uint256"
						}
					],
					"stateMutability": "view",
					"type": "function"
				},
				{
					"inputs": [
						{
							"internalType": "uint256",
							"name": "tsId",
							"type": "uint256"
						}
					],
					"name": "revoke",
					"outputs": [],
					"stateMutability": "nonpayable",
					"type": "function"
				},
				{
					"inputs": [
						{
							"internalType": "address",
							"name": "addr",
							"type": "address"
						},
						{
							"internalType": "uint256",
							"name": "_amount",
							"type": "uint256"
						},
						{
							"internalType": "bytes",
							"name": "_data",
							"type": "bytes"
						}
					],
					"name": "submit",
					"outputs": [],
					"stateMutability": "nonpayable",
					"type": "function"
				},
				{
					"inputs": [
						{
							"internalType": "uint256",
							"name": "",
							"type": "uint256"
						}
					],
					"name": "transactions",
					"outputs": [
						{
							"internalType": "address",
							"name": "to",
							"type": "address"
						},
						{
							"internalType": "uint256",
							"name": "amount",
							"type": "uint256"
						},
						{
							"internalType": "bytes",
							"name": "data",
							"type": "bytes"
						},
						{
							"internalType": "bool",
							"name": "exectued",
							"type": "bool"
						}
					],
					"stateMutability": "view",
					"type": "function"
				},
				{
					"stateMutability": "payable",
					"type": "receive"
				}
			],
			"devdoc": {
				"kind": "dev",
				"methods": {},
				"version": 1
			},
			"evm": {
				"assembly": "    /* \"solidity\\xe9\\x87\\x91\\xe8\\x9e\\x8d\\xe5\\x92\\x8c\\xe6\\x94\\xaf\\xe4\\xbb\\x98/\\xe5\\xa4\\x9a\\xe7\\xad\\xbe\\xe9\\x92\\xb1\\xe5\\x8c\\x85.sol\":612:3730  contract MutiSignWallet {... */\n  mstore(0x40, 0x80)\n    /* \"solidity\\xe9\\x87\\x91\\xe8\\x9e\\x8d\\xe5\\x92\\x8c\\xe6\\x94\\xaf\\xe4\\xbb\\x98/\\xe5\\xa4\\x9a\\xe7\\xad\\xbe\\xe9\\x92\\xb1\\xe5\\x8c\\x85.sol\":1489:1942  constructor(uint num) payable {... */\n  mload(0x40)\n  sub(codesize, bytecodeSize)\n  dup1\n  bytecodeSize\n  dup4\n  codecopy\n  dup2\n  dup2\n  add\n  0x40\n  mstore\n  dup2\n  add\n  swap1\n  tag_1\n  swap2\n  swap1\n  tag_2\n  jump\t// in\ntag_1:\n    /* \"solidity\\xe9\\x87\\x91\\xe8\\x9e\\x8d\\xe5\\x92\\x8c\\xe6\\x94\\xaf\\xe4\\xbb\\x98/\\xe5\\xa4\\x9a\\xe7\\xad\\xbe\\xe9\\x92\\xb1\\xe5\\x8c\\x85.sol\":1530:1543  address addr1 */\n  0x00\n    /* \"solidity\\xe9\\x87\\x91\\xe8\\x9e\\x8d\\xe5\\x92\\x8c\\xe6\\x94\\xaf\\xe4\\xbb\\x98/\\xe5\\xa4\\x9a\\xe7\\xad\\xbe\\xe9\\x92\\xb1\\xe5\\x8c\\x85.sol\":1546:1588  0x5B38Da6a701c568545dCfcB03FcB875f56beddC4 */\n  0x5b38da6a701c568545dcfcb03fcb875f56beddc4\n    /* \"solidity\\xe9\\x87\\x91\\xe8\\x9e\\x8d\\xe5\\x92\\x8c\\xe6\\x94\\xaf\\xe4\\xbb\\x98/\\xe5\\xa4\\x9a\\xe7\\xad\\xbe\\xe9\\x92\\xb1\\xe5\\x8c\\x85.sol\":1530:1588  address addr1 = 0x5B38Da6a701c568545dCfcB03FcB875f56beddC4 */\n  swap1\n  pop\n    /* \"solidity\\xe9\\x87\\x91\\xe8\\x9e\\x8d\\xe5\\x92\\x8c\\xe6\\x94\\xaf\\xe4\\xbb\\x98/\\xe5\\xa4\\x9a\\xe7\\xad\\xbe\\xe9\\x92\\xb1\\xe5\\x8c\\x85.sol\":1599:1612  address addr2 */\n  0x00\n    /* \"solidity\\xe9\\x87\\x91\\xe8\\x9e\\x8d\\xe5\\x92\\x8c\\xe6\\x94\\xaf\\xe4\\xbb\\x98/\\xe5\\xa4\\x9a\\xe7\\xad\\xbe\\xe9\\x92\\xb1\\xe5\\x8c\\x85.sol\":1615:1657  0xAb8483F64d9C6d1EcF9b849Ae677dD3315835cb2 */\n  0xab8483f64d9c6d1ecf9b849ae677dd3315835cb2\n    /* \"solidity\\xe9\\x87\\x91\\xe8\\x9e\\x8d\\xe5\\x92\\x8c\\xe6\\x94\\xaf\\xe4\\xbb\\x98/\\xe5\\xa4\\x9a\\xe7\\xad\\xbe\\xe9\\x92\\xb1\\xe5\\x8c\\x85.sol\":1599:1657  address addr2 = 0xAb8483F64d9C6d1EcF9b849Ae677dD3315835cb2 */\n  swap1\n  pop\n    /* \"solidity\\xe9\\x87\\x91\\xe8\\x9e\\x8d\\xe5\\x92\\x8c\\xe6\\x94\\xaf\\xe4\\xbb\\x98/\\xe5\\xa4\\x9a\\xe7\\xad\\xbe\\xe9\\x92\\xb1\\xe5\\x8c\\x85.sol\":1668:1681  address addr3 */\n  0x00\n    /* \"solidity\\xe9\\x87\\x91\\xe8\\x9e\\x8d\\xe5\\x92\\x8c\\xe6\\x94\\xaf\\xe4\\xbb\\x98/\\xe5\\xa4\\x9a\\xe7\\xad\\xbe\\xe9\\x92\\xb1\\xe5\\x8c\\x85.sol\":1684:1726  0x4B20993Bc481177ec7E8f571ceCaE8A9e22C02db */\n  0x4b20993bc481177ec7e8f571cecae8a9e22c02db\n    /* \"solidity\\xe9\\x87\\x91\\xe8\\x9e\\x8d\\xe5\\x92\\x8c\\xe6\\x94\\xaf\\xe4\\xbb\\x98/\\xe5\\xa4\\x9a\\xe7\\xad\\xbe\\xe9\\x92\\xb1\\xe5\\x8c\\x85.sol\":1668:1726  address addr3 = 0x4B20993Bc481177ec7E8f571ceCaE8A9e22C02db */\n  swap1\n  pop\n    /* \"solidity\\xe9\\x87\\x91\\xe8\\x9e\\x8d\\xe5\\x92\\x8c\\xe6\\x94\\xaf\\xe4\\xbb\\x98/\\xe5\\xa4\\x9a\\xe7\\xad\\xbe\\xe9\\x92\\xb1\\xe5\\x8c\\x85.sol\":1754:1758  true */\n  0x01\n    /* \"solidity\\xe9\\x87\\x91\\xe8\\x9e\\x8d\\xe5\\x92\\x8c\\xe6\\x94\\xaf\\xe4\\xbb\\x98/\\xe5\\xa4\\x9a\\xe7\\xad\\xbe\\xe9\\x92\\xb1\\xe5\\x8c\\x85.sol\":1737:1744  isOwner */\n  dup1\n    /* \"solidity\\xe9\\x87\\x91\\xe8\\x9e\\x8d\\xe5\\x92\\x8c\\xe6\\x94\\xaf\\xe4\\xbb\\x98/\\xe5\\xa4\\x9a\\xe7\\xad\\xbe\\xe9\\x92\\xb1\\xe5\\x8c\\x85.sol\":1737:1751  isOwner[addr1] */\n  0x00\n    /* \"solidity\\xe9\\x87\\x91\\xe8\\x9e\\x8d\\xe5\\x92\\x8c\\xe6\\x94\\xaf\\xe4\\xbb\\x98/\\xe5\\xa4\\x9a\\xe7\\xad\\xbe\\xe9\\x92\\xb1\\xe5\\x8c\\x85.sol\":1745:1750  addr1 */\n  dup6\n    /* \"solidity\\xe9\\x87\\x91\\xe8\\x9e\\x8d\\xe5\\x92\\x8c\\xe6\\x94\\xaf\\xe4\\xbb\\x98/\\xe5\\xa4\\x9a\\xe7\\xad\\xbe\\xe9\\x92\\xb1\\xe5\\x8c\\x85.sol\":1737:1751  isOwner[addr1] */\n  0xffffffffffffffffffffffffffffffffffffffff\n  and\n  0xffffffffffffffffffffffffffffffffffffffff\n  and\n  dup2\n  mstore\n  0x20\n  add\n  swap1\n  dup2\n  mstore\n  0x20\n  add\n  0x00\n  keccak256\n  0x00\n    /* \"solidity\\xe9\\x87\\x91\\xe8\\x9e\\x8d\\xe5\\x92\\x8c\\xe6\\x94\\xaf\\xe4\\xbb\\x98/\\xe5\\xa4\\x9a\\xe7\\xad\\xbe\\xe9\\x92\\xb1\\xe5\\x8c\\x85.sol\":1737:1758  isOwner[addr1] = true */\n  0x0100\n  exp\n  dup2\n  sload\n  dup2\n  0xff\n  mul\n  not\n  and\n  swap1\n  dup4\n  iszero\n  iszero\n  mul\n  or\n  swap1\n  sstore\n  pop\n    /* \"solidity\\xe9\\x87\\x91\\xe8\\x9e\\x8d\\xe5\\x92\\x8c\\xe6\\x94\\xaf\\xe4\\xbb\\x98/\\xe5\\xa4\\x9a\\xe7\\xad\\xbe\\xe9\\x92\\xb1\\xe5\\x8c\\x85.sol\":1786:1790  true */\n  0x01\n    /* \"solidity\\xe9\\x87\\x91\\xe8\\x9e\\x8d\\xe5\\x92\\x8c\\xe6\\x94\\xaf\\xe4\\xbb\\x98/\\xe5\\xa4\\x9a\\xe7\\xad\\xbe\\xe9\\x92\\xb1\\xe5\\x8c\\x85.sol\":1769:1776  isOwner */\n  dup1\n    /* \"solidity\\xe9\\x87\\x91\\xe8\\x9e\\x8d\\xe5\\x92\\x8c\\xe6\\x94\\xaf\\xe4\\xbb\\x98/\\xe5\\xa4\\x9a\\xe7\\xad\\xbe\\xe9\\x92\\xb1\\xe5\\x8c\\x85.sol\":1769:1783  isOwner[addr2] */\n  0x00\n    /* \"solidity\\xe9\\x87\\x91\\xe8\\x9e\\x8d\\xe5\\x92\\x8c\\xe6\\x94\\xaf\\xe4\\xbb\\x98/\\xe5\\xa4\\x9a\\xe7\\xad\\xbe\\xe9\\x92\\xb1\\xe5\\x8c\\x85.sol\":1777:1782  addr2 */\n  dup5\n    /* \"solidity\\xe9\\x87\\x91\\xe8\\x9e\\x8d\\xe5\\x92\\x8c\\xe6\\x94\\xaf\\xe4\\xbb\\x98/\\xe5\\xa4\\x9a\\xe7\\xad\\xbe\\xe9\\x92\\xb1\\xe5\\x8c\\x85.sol\":1769:1783  isOwner[addr2] */\n  0xffffffffffffffffffffffffffffffffffffffff\n  and\n  0xffffffffffffffffffffffffffffffffffffffff\n  and\n  dup2\n  mstore\n  0x20\n  add\n  swap1\n  dup2\n  mstore\n  0x20\n  add\n  0x00\n  keccak256\n  0x00\n    /* \"solidity\\xe9\\x87\\x91\\xe8\\x9e\\x8d\\xe5\\x92\\x8c\\xe6\\x94\\xaf\\xe4\\xbb\\x98/\\xe5\\xa4\\x9a\\xe7\\xad\\xbe\\xe9\\x92\\xb1\\xe5\\x8c\\x85.sol\":1769:1790  isOwner[addr2] = true */\n  0x0100\n  exp\n  dup2\n  sload\n  dup2\n  0xff\n  mul\n  not\n  and\n  swap1\n  dup4\n  iszero\n  iszero\n  mul\n  or\n  swap1\n  sstore\n  pop\n    /* \"solidity\\xe9\\x87\\x91\\xe8\\x9e\\x8d\\xe5\\x92\\x8c\\xe6\\x94\\xaf\\xe4\\xbb\\x98/\\xe5\\xa4\\x9a\\xe7\\xad\\xbe\\xe9\\x92\\xb1\\xe5\\x8c\\x85.sol\":1818:1822  true */\n  0x01\n    /* \"solidity\\xe9\\x87\\x91\\xe8\\x9e\\x8d\\xe5\\x92\\x8c\\xe6\\x94\\xaf\\xe4\\xbb\\x98/\\xe5\\xa4\\x9a\\xe7\\xad\\xbe\\xe9\\x92\\xb1\\xe5\\x8c\\x85.sol\":1801:1808  isOwner */\n  dup1\n    /* \"solidity\\xe9\\x87\\x91\\xe8\\x9e\\x8d\\xe5\\x92\\x8c\\xe6\\x94\\xaf\\xe4\\xbb\\x98/\\xe5\\xa4\\x9a\\xe7\\xad\\xbe\\xe9\\x92\\xb1\\xe5\\x8c\\x85.sol\":1801:1815  isOwner[addr3] */\n  0x00\n    /* \"solidity\\xe9\\x87\\x91\\xe8\\x9e\\x8d\\xe5\\x92\\x8c\\xe6\\x94\\xaf\\xe4\\xbb\\x98/\\xe5\\xa4\\x9a\\xe7\\xad\\xbe\\xe9\\x92\\xb1\\xe5\\x8c\\x85.sol\":1809:1814  addr3 */\n  dup4\n    /* \"solidity\\xe9\\x87\\x91\\xe8\\x9e\\x8d\\xe5\\x92\\x8c\\xe6\\x94\\xaf\\xe4\\xbb\\x98/\\xe5\\xa4\\x9a\\xe7\\xad\\xbe\\xe9\\x92\\xb1\\xe5\\x8c\\x85.sol\":1801:1815  isOwner[addr3] */\n  0xffffffffffffffffffffffffffffffffffffffff\n  and\n  0xffffffffffffffffffffffffffffffffffffffff\n  and\n  dup2\n  mstore\n  0x20\n  add\n  swap1\n  dup2\n  mstore\n  0x20\n  add\n  0x00\n  keccak256\n  0x00\n    /* \"solidity\\xe9\\x87\\x91\\xe8\\x9e\\x8d\\xe5\\x92\\x8c\\xe6\\x94\\xaf\\xe4\\xbb\\x98/\\xe5\\xa4\\x9a\\xe7\\xad\\xbe\\xe9\\x92\\xb1\\xe5\\x8c\\x85.sol\":1801:1822  isOwner[addr3] = true */\n  0x0100\n  exp\n  dup2\n  sload\n  dup2\n  0xff\n  mul\n  not\n  and\n  swap1\n  dup4\n  iszero\n  iszero\n  mul\n  or\n  swap1\n  sstore\n  pop\n    /* \"solidity\\xe9\\x87\\x91\\xe8\\x9e\\x8d\\xe5\\x92\\x8c\\xe6\\x94\\xaf\\xe4\\xbb\\x98/\\xe5\\xa4\\x9a\\xe7\\xad\\xbe\\xe9\\x92\\xb1\\xe5\\x8c\\x85.sol\":1833:1839  owners */\n  0x00\n    /* \"solidity\\xe9\\x87\\x91\\xe8\\x9e\\x8d\\xe5\\x92\\x8c\\xe6\\x94\\xaf\\xe4\\xbb\\x98/\\xe5\\xa4\\x9a\\xe7\\xad\\xbe\\xe9\\x92\\xb1\\xe5\\x8c\\x85.sol\":1845:1850  addr1 */\n  dup4\n    /* \"solidity\\xe9\\x87\\x91\\xe8\\x9e\\x8d\\xe5\\x92\\x8c\\xe6\\x94\\xaf\\xe4\\xbb\\x98/\\xe5\\xa4\\x9a\\xe7\\xad\\xbe\\xe9\\x92\\xb1\\xe5\\x8c\\x85.sol\":1833:1851  owners.push(addr1) */\n  swap1\n  dup1\n  0x01\n  dup2\n  sload\n  add\n  dup1\n  dup3\n  sstore\n  dup1\n  swap2\n  pop\n  pop\n  0x01\n  swap1\n  sub\n  swap1\n  0x00\n  mstore\n  keccak256(0x00, 0x20)\n  add\n  0x00\n  swap1\n  swap2\n  swap1\n  swap2\n  swap1\n  swap2\n  0x0100\n  exp\n  dup2\n  sload\n  dup2\n  0xffffffffffffffffffffffffffffffffffffffff\n  mul\n  not\n  and\n  swap1\n  dup4\n  0xffffffffffffffffffffffffffffffffffffffff\n  and\n  mul\n  or\n  swap1\n  sstore\n  pop\n    /* \"solidity\\xe9\\x87\\x91\\xe8\\x9e\\x8d\\xe5\\x92\\x8c\\xe6\\x94\\xaf\\xe4\\xbb\\x98/\\xe5\\xa4\\x9a\\xe7\\xad\\xbe\\xe9\\x92\\xb1\\xe5\\x8c\\x85.sol\":1862:1868  owners */\n  0x00\n    /* \"solidity\\xe9\\x87\\x91\\xe8\\x9e\\x8d\\xe5\\x92\\x8c\\xe6\\x94\\xaf\\xe4\\xbb\\x98/\\xe5\\xa4\\x9a\\xe7\\xad\\xbe\\xe9\\x92\\xb1\\xe5\\x8c\\x85.sol\":1874:1879  addr2 */\n  dup3\n    /* \"solidity\\xe9\\x87\\x91\\xe8\\x9e\\x8d\\xe5\\x92\\x8c\\xe6\\x94\\xaf\\xe4\\xbb\\x98/\\xe5\\xa4\\x9a\\xe7\\xad\\xbe\\xe9\\x92\\xb1\\xe5\\x8c\\x85.sol\":1862:1880  owners.push(addr2) */\n  swap1\n  dup1\n  0x01\n  dup2\n  sload\n  add\n  dup1\n  dup3\n  sstore\n  dup1\n  swap2\n  pop\n  pop\n  0x01\n  swap1\n  sub\n  swap1\n  0x00\n  mstore\n  keccak256(0x00, 0x20)\n  add\n  0x00\n  swap1\n  swap2\n  swap1\n  swap2\n  swap1\n  swap2\n  0x0100\n  exp\n  dup2\n  sload\n  dup2\n  0xffffffffffffffffffffffffffffffffffffffff\n  mul\n  not\n  and\n  swap1\n  dup4\n  0xffffffffffffffffffffffffffffffffffffffff\n  and\n  mul\n  or\n  swap1\n  sstore\n  pop\n    /* \"solidity\\xe9\\x87\\x91\\xe8\\x9e\\x8d\\xe5\\x92\\x8c\\xe6\\x94\\xaf\\xe4\\xbb\\x98/\\xe5\\xa4\\x9a\\xe7\\xad\\xbe\\xe9\\x92\\xb1\\xe5\\x8c\\x85.sol\":1891:1897  owners */\n  0x00\n    /* \"solidity\\xe9\\x87\\x91\\xe8\\x9e\\x8d\\xe5\\x92\\x8c\\xe6\\x94\\xaf\\xe4\\xbb\\x98/\\xe5\\xa4\\x9a\\xe7\\xad\\xbe\\xe9\\x92\\xb1\\xe5\\x8c\\x85.sol\":1903:1908  addr3 */\n  dup2\n    /* \"solidity\\xe9\\x87\\x91\\xe8\\x9e\\x8d\\xe5\\x92\\x8c\\xe6\\x94\\xaf\\xe4\\xbb\\x98/\\xe5\\xa4\\x9a\\xe7\\xad\\xbe\\xe9\\x92\\xb1\\xe5\\x8c\\x85.sol\":1891:1909  owners.push(addr3) */\n  swap1\n  dup1\n  0x01\n  dup2\n  sload\n  add\n  dup1\n  dup3\n  sstore\n  dup1\n  swap2\n  pop\n  pop\n  0x01\n  swap1\n  sub\n  swap1\n  0x00\n  mstore\n  keccak256(0x00, 0x20)\n  add\n  0x00\n  swap1\n  swap2\n  swap1\n  swap2\n  swap1\n  swap2\n  0x0100\n  exp\n  dup2\n  sload\n  dup2\n  0xffffffffffffffffffffffffffffffffffffffff\n  mul\n  not\n  and\n  swap1\n  dup4\n  0xffffffffffffffffffffffffffffffffffffffff\n  and\n  mul\n  or\n  swap1\n  sstore\n  pop\n    /* \"solidity\\xe9\\x87\\x91\\xe8\\x9e\\x8d\\xe5\\x92\\x8c\\xe6\\x94\\xaf\\xe4\\xbb\\x98/\\xe5\\xa4\\x9a\\xe7\\xad\\xbe\\xe9\\x92\\xb1\\xe5\\x8c\\x85.sol\":1931:1934  num */\n  dup4\n    /* \"solidity\\xe9\\x87\\x91\\xe8\\x9e\\x8d\\xe5\\x92\\x8c\\xe6\\x94\\xaf\\xe4\\xbb\\x98/\\xe5\\xa4\\x9a\\xe7\\xad\\xbe\\xe9\\x92\\xb1\\xe5\\x8c\\x85.sol\":1920:1928  required */\n  0x02\n    /* \"solidity\\xe9\\x87\\x91\\xe8\\x9e\\x8d\\xe5\\x92\\x8c\\xe6\\x94\\xaf\\xe4\\xbb\\x98/\\xe5\\xa4\\x9a\\xe7\\xad\\xbe\\xe9\\x92\\xb1\\xe5\\x8c\\x85.sol\":1920:1934  required = num */\n  dup2\n  swap1\n  sstore\n  pop\n    /* \"solidity\\xe9\\x87\\x91\\xe8\\x9e\\x8d\\xe5\\x92\\x8c\\xe6\\x94\\xaf\\xe4\\xbb\\x98/\\xe5\\xa4\\x9a\\xe7\\xad\\xbe\\xe9\\x92\\xb1\\xe5\\x8c\\x85.sol\":1519:1942  {... */\n  pop\n  pop\n  pop\n    /* \"solidity\\xe9\\x87\\x91\\xe8\\x9e\\x8d\\xe5\\x92\\x8c\\xe6\\x94\\xaf\\xe4\\xbb\\x98/\\xe5\\xa4\\x9a\\xe7\\xad\\xbe\\xe9\\x92\\xb1\\xe5\\x8c\\x85.sol\":1489:1942  constructor(uint num) payable {... */\n  pop\n    /* \"solidity\\xe9\\x87\\x91\\xe8\\x9e\\x8d\\xe5\\x92\\x8c\\xe6\\x94\\xaf\\xe4\\xbb\\x98/\\xe5\\xa4\\x9a\\xe7\\xad\\xbe\\xe9\\x92\\xb1\\xe5\\x8c\\x85.sol\":612:3730  contract MutiSignWallet {... */\n  jump(tag_8)\n    /* \"#utility.yul\":88:205   */\ntag_10:\n    /* \"#utility.yul\":197:198   */\n  0x00\n    /* \"#utility.yul\":194:195   */\n  0x00\n    /* \"#utility.yul\":187:199   */\n  revert\n    /* \"#utility.yul\":334:411   */\ntag_12:\n    /* \"#utility.yul\":371:378   */\n  0x00\n    /* \"#utility.yul\":400:405   */\n  dup2\n    /* \"#utility.yul\":389:405   */\n  swap1\n  pop\n    /* \"#utility.yul\":334:411   */\n  swap2\n  swap1\n  pop\n  jump\t// out\n    /* \"#utility.yul\":417:539   */\ntag_13:\n    /* \"#utility.yul\":490:514   */\n  tag_21\n    /* \"#utility.yul\":508:513   */\n  dup2\n    /* \"#utility.yul\":490:514   */\n  tag_12\n  jump\t// in\ntag_21:\n    /* \"#utility.yul\":483:488   */\n  dup2\n    /* \"#utility.yul\":480:515   */\n  eq\n    /* \"#utility.yul\":470:533   */\n  tag_22\n  jumpi\n    /* \"#utility.yul\":529:530   */\n  0x00\n    /* \"#utility.yul\":526:527   */\n  0x00\n    /* \"#utility.yul\":519:531   */\n  revert\n    /* \"#utility.yul\":470:533   */\ntag_22:\n    /* \"#utility.yul\":417:539   */\n  pop\n  jump\t// out\n    /* \"#utility.yul\":545:688   */\ntag_14:\n    /* \"#utility.yul\":602:607   */\n  0x00\n    /* \"#utility.yul\":633:639   */\n  dup2\n    /* \"#utility.yul\":627:640   */\n  mload\n    /* \"#utility.yul\":618:640   */\n  swap1\n  pop\n    /* \"#utility.yul\":649:682   */\n  tag_24\n    /* \"#utility.yul\":676:681   */\n  dup2\n    /* \"#utility.yul\":649:682   */\n  tag_13\n  jump\t// in\ntag_24:\n    /* \"#utility.yul\":545:688   */\n  swap3\n  swap2\n  pop\n  pop\n  jump\t// out\n    /* \"#utility.yul\":694:1045   */\ntag_2:\n    /* \"#utility.yul\":764:770   */\n  0x00\n    /* \"#utility.yul\":813:815   */\n  0x20\n    /* \"#utility.yul\":801:810   */\n  dup3\n    /* \"#utility.yul\":792:799   */\n  dup5\n    /* \"#utility.yul\":788:811   */\n  sub\n    /* \"#utility.yul\":784:816   */\n  slt\n    /* \"#utility.yul\":781:900   */\n  iszero\n  tag_26\n  jumpi\n    /* \"#utility.yul\":819:898   */\n  tag_27\n  tag_10\n  jump\t// in\ntag_27:\n    /* \"#utility.yul\":781:900   */\ntag_26:\n    /* \"#utility.yul\":939:940   */\n  0x00\n    /* \"#utility.yul\":964:1028   */\n  tag_28\n    /* \"#utility.yul\":1020:1027   */\n  dup5\n    /* \"#utility.yul\":1011:1017   */\n  dup3\n    /* \"#utility.yul\":1000:1009   */\n  dup6\n    /* \"#utility.yul\":996:1018   */\n  add\n    /* \"#utility.yul\":964:1028   */\n  tag_14\n  jump\t// in\ntag_28:\n    /* \"#utility.yul\":954:1028   */\n  swap2\n  pop\n    /* \"#utility.yul\":910:1038   */\n  pop\n    /* \"#utility.yul\":694:1045   */\n  swap3\n  swap2\n  pop\n  pop\n  jump\t// out\n    /* \"solidity\\xe9\\x87\\x91\\xe8\\x9e\\x8d\\xe5\\x92\\x8c\\xe6\\x94\\xaf\\xe4\\xbb\\x98/\\xe5\\xa4\\x9a\\xe7\\xad\\xbe\\xe9\\x92\\xb1\\xe5\\x8c\\x85.sol\":612:3730  contract MutiSignWallet {... */\ntag_8:\n  dataSize(sub_0)\n  dup1\n  dataOffset(sub_0)\n  0x00\n  codecopy\n  0x00\n  return\nstop\n\nsub_0: assembly {\n        /* \"solidity\\xe9\\x87\\x91\\xe8\\x9e\\x8d\\xe5\\x92\\x8c\\xe6\\x94\\xaf\\xe4\\xbb\\x98/\\xe5\\xa4\\x9a\\xe7\\xad\\xbe\\xe9\\x92\\xb1\\xe5\\x8c\\x85.sol\":612:3730  contract MutiSignWallet {... */\n      mstore(0x40, 0x80)\n      jumpi(tag_1, lt(calldatasize, 0x04))\n      shr(0xe0, calldataload(0x00))\n      dup1\n      0x8253951a\n      gt\n      tag_12\n      jumpi\n      dup1\n      0x8253951a\n      eq\n      tag_7\n      jumpi\n      dup1\n      0x9ace38c2\n      eq\n      tag_8\n      jumpi\n      dup1\n      0xb759f954\n      eq\n      tag_9\n      jumpi\n      dup1\n      0xdc8452cd\n      eq\n      tag_10\n      jumpi\n      dup1\n      0xfe0d94c1\n      eq\n      tag_11\n      jumpi\n      jump(tag_2)\n    tag_12:\n      dup1\n      0x025e7c27\n      eq\n      tag_3\n      jumpi\n      dup1\n      0x14de327f\n      eq\n      tag_4\n      jumpi\n      dup1\n      0x20c5429b\n      eq\n      tag_5\n      jumpi\n      dup1\n      0x2f54bf6e\n      eq\n      tag_6\n      jumpi\n      jump(tag_2)\n    tag_1:\n      jumpi(tag_2, calldatasize)\n        /* \"solidity\\xe9\\x87\\x91\\xe8\\x9e\\x8d\\xe5\\x92\\x8c\\xe6\\x94\\xaf\\xe4\\xbb\\x98/\\xe5\\xa4\\x9a\\xe7\\xad\\xbe\\xe9\\x92\\xb1\\xe5\\x8c\\x85.sol\":2650:2660  msg.sender */\n      caller\n        /* \"solidity\\xe9\\x87\\x91\\xe8\\x9e\\x8d\\xe5\\x92\\x8c\\xe6\\x94\\xaf\\xe4\\xbb\\x98/\\xe5\\xa4\\x9a\\xe7\\xad\\xbe\\xe9\\x92\\xb1\\xe5\\x8c\\x85.sol\":2642:2672  Deposit(msg.sender, msg.value) */\n      0xffffffffffffffffffffffffffffffffffffffff\n      and\n      0xe1fffcc4923d04b559f4d29a8bfc6cda04eb5b0d3c460751c2402c5c5cc9109c\n        /* \"solidity\\xe9\\x87\\x91\\xe8\\x9e\\x8d\\xe5\\x92\\x8c\\xe6\\x94\\xaf\\xe4\\xbb\\x98/\\xe5\\xa4\\x9a\\xe7\\xad\\xbe\\xe9\\x92\\xb1\\xe5\\x8c\\x85.sol\":2662:2671  msg.value */\n      callvalue\n        /* \"solidity\\xe9\\x87\\x91\\xe8\\x9e\\x8d\\xe5\\x92\\x8c\\xe6\\x94\\xaf\\xe4\\xbb\\x98/\\xe5\\xa4\\x9a\\xe7\\xad\\xbe\\xe9\\x92\\xb1\\xe5\\x8c\\x85.sol\":2642:2672  Deposit(msg.sender, msg.value) */\n      mload(0x40)\n      tag_15\n      swap2\n      swap1\n      tag_16\n      jump\t// in\n    tag_15:\n      mload(0x40)\n      dup1\n      swap2\n      sub\n      swap1\n      log2\n        /* \"solidity\\xe9\\x87\\x91\\xe8\\x9e\\x8d\\xe5\\x92\\x8c\\xe6\\x94\\xaf\\xe4\\xbb\\x98/\\xe5\\xa4\\x9a\\xe7\\xad\\xbe\\xe9\\x92\\xb1\\xe5\\x8c\\x85.sol\":612:3730  contract MutiSignWallet {... */\n      stop\n    tag_2:\n      revert(0x00, 0x00)\n        /* \"solidity\\xe9\\x87\\x91\\xe8\\x9e\\x8d\\xe5\\x92\\x8c\\xe6\\x94\\xaf\\xe4\\xbb\\x98/\\xe5\\xa4\\x9a\\xe7\\xad\\xbe\\xe9\\x92\\xb1\\xe5\\x8c\\x85.sol\":1078:1101  address[] public owners */\n    tag_3:\n      callvalue\n      dup1\n      iszero\n      tag_17\n      jumpi\n      revert(0x00, 0x00)\n    tag_17:\n      pop\n      tag_18\n      0x04\n      dup1\n      calldatasize\n      sub\n      dup2\n      add\n      swap1\n      tag_19\n      swap2\n      swap1\n      tag_20\n      jump\t// in\n    tag_19:\n      tag_21\n      jump\t// in\n    tag_18:\n      mload(0x40)\n      tag_22\n      swap2\n      swap1\n      tag_23\n      jump\t// in\n    tag_22:\n      mload(0x40)\n      dup1\n      swap2\n      sub\n      swap1\n      return\n        /* \"solidity\\xe9\\x87\\x91\\xe8\\x9e\\x8d\\xe5\\x92\\x8c\\xe6\\x94\\xaf\\xe4\\xbb\\x98/\\xe5\\xa4\\x9a\\xe7\\xad\\xbe\\xe9\\x92\\xb1\\xe5\\x8c\\x85.sol\":2688:2932  function submit(address addr,uint _amount,bytes calldata _data) external {... */\n    tag_4:\n      callvalue\n      dup1\n      iszero\n      tag_24\n      jumpi\n      revert(0x00, 0x00)\n    tag_24:\n      pop\n      tag_25\n      0x04\n      dup1\n      calldatasize\n      sub\n      dup2\n      add\n      swap1\n      tag_26\n      swap2\n      swap1\n      tag_27\n      jump\t// in\n    tag_26:\n      tag_28\n      jump\t// in\n    tag_25:\n      stop\n        /* \"solidity\\xe9\\x87\\x91\\xe8\\x9e\\x8d\\xe5\\x92\\x8c\\xe6\\x94\\xaf\\xe4\\xbb\\x98/\\xe5\\xa4\\x9a\\xe7\\xad\\xbe\\xe9\\x92\\xb1\\xe5\\x8c\\x85.sol\":3582:3727  function revoke(uint tsId) external onlyOwner notExecuted(tsId) {... */\n    tag_5:\n      callvalue\n      dup1\n      iszero\n      tag_29\n      jumpi\n      revert(0x00, 0x00)\n    tag_29:\n      pop\n      tag_30\n      0x04\n      dup1\n      calldatasize\n      sub\n      dup2\n      add\n      swap1\n      tag_31\n      swap2\n      swap1\n      tag_20\n      jump\t// in\n    tag_31:\n      tag_32\n      jump\t// in\n    tag_30:\n      stop\n        /* \"solidity\\xe9\\x87\\x91\\xe8\\x9e\\x8d\\xe5\\x92\\x8c\\xe6\\x94\\xaf\\xe4\\xbb\\x98/\\xe5\\xa4\\x9a\\xe7\\xad\\xbe\\xe9\\x92\\xb1\\xe5\\x8c\\x85.sol\":1140:1179  mapping(address => bool) public isOwner */\n    tag_6:\n      callvalue\n      dup1\n      iszero\n      tag_33\n      jumpi\n      revert(0x00, 0x00)\n    tag_33:\n      pop\n      tag_34\n      0x04\n      dup1\n      calldatasize\n      sub\n      dup2\n      add\n      swap1\n      tag_35\n      swap2\n      swap1\n      tag_36\n      jump\t// in\n    tag_35:\n      tag_37\n      jump\t// in\n    tag_34:\n      mload(0x40)\n      tag_38\n      swap2\n      swap1\n      tag_39\n      jump\t// in\n    tag_38:\n      mload(0x40)\n      dup1\n      swap2\n      sub\n      swap1\n      return\n        /* \"solidity\\xe9\\x87\\x91\\xe8\\x9e\\x8d\\xe5\\x92\\x8c\\xe6\\x94\\xaf\\xe4\\xbb\\x98/\\xe5\\xa4\\x9a\\xe7\\xad\\xbe\\xe9\\x92\\xb1\\xe5\\x8c\\x85.sol\":1364:1421  mapping(uint => mapping(address => bool)) public approved */\n    tag_7:\n      callvalue\n      dup1\n      iszero\n      tag_40\n      jumpi\n      revert(0x00, 0x00)\n    tag_40:\n      pop\n      tag_41\n      0x04\n      dup1\n      calldatasize\n      sub\n      dup2\n      add\n      swap1\n      tag_42\n      swap2\n      swap1\n      tag_43\n      jump\t// in\n    tag_42:\n      tag_44\n      jump\t// in\n    tag_41:\n      mload(0x40)\n      tag_45\n      swap2\n      swap1\n      tag_39\n      jump\t// in\n    tag_45:\n      mload(0x40)\n      dup1\n      swap2\n      sub\n      swap1\n      return\n        /* \"solidity\\xe9\\x87\\x91\\xe8\\x9e\\x8d\\xe5\\x92\\x8c\\xe6\\x94\\xaf\\xe4\\xbb\\x98/\\xe5\\xa4\\x9a\\xe7\\xad\\xbe\\xe9\\x92\\xb1\\xe5\\x8c\\x85.sol\":1295:1328  Transaction[] public transactions */\n    tag_8:\n      callvalue\n      dup1\n      iszero\n      tag_46\n      jumpi\n      revert(0x00, 0x00)\n    tag_46:\n      pop\n      tag_47\n      0x04\n      dup1\n      calldatasize\n      sub\n      dup2\n      add\n      swap1\n      tag_48\n      swap2\n      swap1\n      tag_20\n      jump\t// in\n    tag_48:\n      tag_49\n      jump\t// in\n    tag_47:\n      mload(0x40)\n      tag_50\n      swap5\n      swap4\n      swap3\n      swap2\n      swap1\n      tag_51\n      jump\t// in\n    tag_50:\n      mload(0x40)\n      dup1\n      swap2\n      sub\n      swap1\n      return\n        /* \"solidity\\xe9\\x87\\x91\\xe8\\x9e\\x8d\\xe5\\x92\\x8c\\xe6\\x94\\xaf\\xe4\\xbb\\x98/\\xe5\\xa4\\x9a\\xe7\\xad\\xbe\\xe9\\x92\\xb1\\xe5\\x8c\\x85.sol\":2940:3093  function approve(uint tsId) external exists(tsId) onlyOwner() {... */\n    tag_9:\n      callvalue\n      dup1\n      iszero\n      tag_52\n      jumpi\n      revert(0x00, 0x00)\n    tag_52:\n      pop\n      tag_53\n      0x04\n      dup1\n      calldatasize\n      sub\n      dup2\n      add\n      swap1\n      tag_54\n      swap2\n      swap1\n      tag_20\n      jump\t// in\n    tag_54:\n      tag_55\n      jump\t// in\n    tag_53:\n      stop\n        /* \"solidity\\xe9\\x87\\x91\\xe8\\x9e\\x8d\\xe5\\x92\\x8c\\xe6\\x94\\xaf\\xe4\\xbb\\x98/\\xe5\\xa4\\x9a\\xe7\\xad\\xbe\\xe9\\x92\\xb1\\xe5\\x8c\\x85.sol\":1230:1250  uint public required */\n    tag_10:\n      callvalue\n      dup1\n      iszero\n      tag_56\n      jumpi\n      revert(0x00, 0x00)\n    tag_56:\n      pop\n      tag_57\n      tag_58\n      jump\t// in\n    tag_57:\n      mload(0x40)\n      tag_59\n      swap2\n      swap1\n      tag_16\n      jump\t// in\n    tag_59:\n      mload(0x40)\n      dup1\n      swap2\n      sub\n      swap1\n      return\n        /* \"solidity\\xe9\\x87\\x91\\xe8\\x9e\\x8d\\xe5\\x92\\x8c\\xe6\\x94\\xaf\\xe4\\xbb\\x98/\\xe5\\xa4\\x9a\\xe7\\xad\\xbe\\xe9\\x92\\xb1\\xe5\\x8c\\x85.sol\":3101:3574  function execute(uint tsId) external ... */\n    tag_11:\n      callvalue\n      dup1\n      iszero\n      tag_60\n      jumpi\n      revert(0x00, 0x00)\n    tag_60:\n      pop\n      tag_61\n      0x04\n      dup1\n      calldatasize\n      sub\n      dup2\n      add\n      swap1\n      tag_62\n      swap2\n      swap1\n      tag_20\n      jump\t// in\n    tag_62:\n      tag_63\n      jump\t// in\n    tag_61:\n      stop\n        /* \"solidity\\xe9\\x87\\x91\\xe8\\x9e\\x8d\\xe5\\x92\\x8c\\xe6\\x94\\xaf\\xe4\\xbb\\x98/\\xe5\\xa4\\x9a\\xe7\\xad\\xbe\\xe9\\x92\\xb1\\xe5\\x8c\\x85.sol\":1078:1101  address[] public owners */\n    tag_21:\n      0x00\n      dup2\n      dup2\n      sload\n      dup2\n      lt\n      tag_64\n      jumpi\n      0x00\n      dup1\n      revert\n    tag_64:\n      swap1\n      0x00\n      mstore\n      keccak256(0x00, 0x20)\n      add\n      0x00\n      swap2\n      pop\n      sload\n      swap1\n      0x0100\n      exp\n      swap1\n      div\n      0xffffffffffffffffffffffffffffffffffffffff\n      and\n      dup2\n      jump\t// out\n        /* \"solidity\\xe9\\x87\\x91\\xe8\\x9e\\x8d\\xe5\\x92\\x8c\\xe6\\x94\\xaf\\xe4\\xbb\\x98/\\xe5\\xa4\\x9a\\xe7\\xad\\xbe\\xe9\\x92\\xb1\\xe5\\x8c\\x85.sol\":2688:2932  function submit(address addr,uint _amount,bytes calldata _data) external {... */\n    tag_28:\n        /* \"solidity\\xe9\\x87\\x91\\xe8\\x9e\\x8d\\xe5\\x92\\x8c\\xe6\\x94\\xaf\\xe4\\xbb\\x98/\\xe5\\xa4\\x9a\\xe7\\xad\\xbe\\xe9\\x92\\xb1\\xe5\\x8c\\x85.sol\":2772:2784  transactions */\n      0x03\n        /* \"solidity\\xe9\\x87\\x91\\xe8\\x9e\\x8d\\xe5\\x92\\x8c\\xe6\\x94\\xaf\\xe4\\xbb\\x98/\\xe5\\xa4\\x9a\\xe7\\xad\\xbe\\xe9\\x92\\xb1\\xe5\\x8c\\x85.sol\":2790:2923  Transaction({... */\n      mload(0x40)\n      dup1\n      0x80\n      add\n      0x40\n      mstore\n      dup1\n        /* \"solidity\\xe9\\x87\\x91\\xe8\\x9e\\x8d\\xe5\\x92\\x8c\\xe6\\x94\\xaf\\xe4\\xbb\\x98/\\xe5\\xa4\\x9a\\xe7\\xad\\xbe\\xe9\\x92\\xb1\\xe5\\x8c\\x85.sol\":2821:2825  addr */\n      dup7\n        /* \"solidity\\xe9\\x87\\x91\\xe8\\x9e\\x8d\\xe5\\x92\\x8c\\xe6\\x94\\xaf\\xe4\\xbb\\x98/\\xe5\\xa4\\x9a\\xe7\\xad\\xbe\\xe9\\x92\\xb1\\xe5\\x8c\\x85.sol\":2790:2923  Transaction({... */\n      0xffffffffffffffffffffffffffffffffffffffff\n      and\n      dup2\n      mstore\n      0x20\n      add\n        /* \"solidity\\xe9\\x87\\x91\\xe8\\x9e\\x8d\\xe5\\x92\\x8c\\xe6\\x94\\xaf\\xe4\\xbb\\x98/\\xe5\\xa4\\x9a\\xe7\\xad\\xbe\\xe9\\x92\\xb1\\xe5\\x8c\\x85.sol\":2848:2855  _amount */\n      dup6\n        /* \"solidity\\xe9\\x87\\x91\\xe8\\x9e\\x8d\\xe5\\x92\\x8c\\xe6\\x94\\xaf\\xe4\\xbb\\x98/\\xe5\\xa4\\x9a\\xe7\\xad\\xbe\\xe9\\x92\\xb1\\xe5\\x8c\\x85.sol\":2790:2923  Transaction({... */\n      dup2\n      mstore\n      0x20\n      add\n        /* \"solidity\\xe9\\x87\\x91\\xe8\\x9e\\x8d\\xe5\\x92\\x8c\\xe6\\x94\\xaf\\xe4\\xbb\\x98/\\xe5\\xa4\\x9a\\xe7\\xad\\xbe\\xe9\\x92\\xb1\\xe5\\x8c\\x85.sol\":2876:2881  _data */\n      dup5\n      dup5\n        /* \"solidity\\xe9\\x87\\x91\\xe8\\x9e\\x8d\\xe5\\x92\\x8c\\xe6\\x94\\xaf\\xe4\\xbb\\x98/\\xe5\\xa4\\x9a\\xe7\\xad\\xbe\\xe9\\x92\\xb1\\xe5\\x8c\\x85.sol\":2790:2923  Transaction({... */\n      dup1\n      dup1\n      0x1f\n      add\n      0x20\n      dup1\n      swap2\n      div\n      mul\n      0x20\n      add\n      mload(0x40)\n      swap1\n      dup2\n      add\n      0x40\n      mstore\n      dup1\n      swap4\n      swap3\n      swap2\n      swap1\n      dup2\n      dup2\n      mstore\n      0x20\n      add\n      dup4\n      dup4\n      dup1\n      dup3\n      dup5\n      calldatacopy\n      0x00\n      dup2\n      dup5\n      add\n      mstore\n      not(0x1f)\n      0x1f\n      dup3\n      add\n      and\n      swap1\n      pop\n      dup1\n      dup4\n      add\n      swap3\n      pop\n      pop\n      pop\n      pop\n      pop\n      pop\n      pop\n      dup2\n      mstore\n      0x20\n      add\n        /* \"solidity\\xe9\\x87\\x91\\xe8\\x9e\\x8d\\xe5\\x92\\x8c\\xe6\\x94\\xaf\\xe4\\xbb\\x98/\\xe5\\xa4\\x9a\\xe7\\xad\\xbe\\xe9\\x92\\xb1\\xe5\\x8c\\x85.sol\":2906:2911  false */\n      0x00\n        /* \"solidity\\xe9\\x87\\x91\\xe8\\x9e\\x8d\\xe5\\x92\\x8c\\xe6\\x94\\xaf\\xe4\\xbb\\x98/\\xe5\\xa4\\x9a\\xe7\\xad\\xbe\\xe9\\x92\\xb1\\xe5\\x8c\\x85.sol\":2790:2923  Transaction({... */\n      iszero\n      iszero\n      dup2\n      mstore\n      pop\n        /* \"solidity\\xe9\\x87\\x91\\xe8\\x9e\\x8d\\xe5\\x92\\x8c\\xe6\\x94\\xaf\\xe4\\xbb\\x98/\\xe5\\xa4\\x9a\\xe7\\xad\\xbe\\xe9\\x92\\xb1\\xe5\\x8c\\x85.sol\":2772:2924  transactions.push(Transaction({... */\n      swap1\n      dup1\n      0x01\n      dup2\n      sload\n      add\n      dup1\n      dup3\n      sstore\n      dup1\n      swap2\n      pop\n      pop\n      0x01\n      swap1\n      sub\n      swap1\n      0x00\n      mstore\n      keccak256(0x00, 0x20)\n      swap1\n      0x04\n      mul\n      add\n      0x00\n      swap1\n      swap2\n      swap1\n      swap2\n      swap1\n      swap2\n      pop\n      0x00\n      dup3\n      add\n      mload\n      dup2\n      0x00\n      add\n      exp(0x0100, 0x00)\n      dup2\n      sload\n      dup2\n      0xffffffffffffffffffffffffffffffffffffffff\n      mul\n      not\n      and\n      swap1\n      dup4\n      0xffffffffffffffffffffffffffffffffffffffff\n      and\n      mul\n      or\n      swap1\n      sstore\n      pop\n      0x20\n      dup3\n      add\n      mload\n      dup2\n      0x01\n      add\n      sstore\n      0x40\n      dup3\n      add\n      mload\n      dup2\n      0x02\n      add\n      swap1\n      dup2\n      tag_68\n      swap2\n      swap1\n      tag_69\n      jump\t// in\n    tag_68:\n      pop\n      0x60\n      dup3\n      add\n      mload\n      dup2\n      0x03\n      add\n      exp(0x0100, 0x00)\n      dup2\n      sload\n      dup2\n      0xff\n      mul\n      not\n      and\n      swap1\n      dup4\n      iszero\n      iszero\n      mul\n      or\n      swap1\n      sstore\n      pop\n      pop\n      pop\n        /* \"solidity\\xe9\\x87\\x91\\xe8\\x9e\\x8d\\xe5\\x92\\x8c\\xe6\\x94\\xaf\\xe4\\xbb\\x98/\\xe5\\xa4\\x9a\\xe7\\xad\\xbe\\xe9\\x92\\xb1\\xe5\\x8c\\x85.sol\":2688:2932  function submit(address addr,uint _amount,bytes calldata _data) external {... */\n      pop\n      pop\n      pop\n      pop\n      jump\t// out\n        /* \"solidity\\xe9\\x87\\x91\\xe8\\x9e\\x8d\\xe5\\x92\\x8c\\xe6\\x94\\xaf\\xe4\\xbb\\x98/\\xe5\\xa4\\x9a\\xe7\\xad\\xbe\\xe9\\x92\\xb1\\xe5\\x8c\\x85.sol\":3582:3727  function revoke(uint tsId) external onlyOwner notExecuted(tsId) {... */\n    tag_32:\n        /* \"solidity\\xe9\\x87\\x91\\xe8\\x9e\\x8d\\xe5\\x92\\x8c\\xe6\\x94\\xaf\\xe4\\xbb\\x98/\\xe5\\xa4\\x9a\\xe7\\xad\\xbe\\xe9\\x92\\xb1\\xe5\\x8c\\x85.sol\":2107:2114  isOwner */\n      0x01\n        /* \"solidity\\xe9\\x87\\x91\\xe8\\x9e\\x8d\\xe5\\x92\\x8c\\xe6\\x94\\xaf\\xe4\\xbb\\x98/\\xe5\\xa4\\x9a\\xe7\\xad\\xbe\\xe9\\x92\\xb1\\xe5\\x8c\\x85.sol\":2107:2126  isOwner[msg.sender] */\n      0x00\n        /* \"solidity\\xe9\\x87\\x91\\xe8\\x9e\\x8d\\xe5\\x92\\x8c\\xe6\\x94\\xaf\\xe4\\xbb\\x98/\\xe5\\xa4\\x9a\\xe7\\xad\\xbe\\xe9\\x92\\xb1\\xe5\\x8c\\x85.sol\":2115:2125  msg.sender */\n      caller\n        /* \"solidity\\xe9\\x87\\x91\\xe8\\x9e\\x8d\\xe5\\x92\\x8c\\xe6\\x94\\xaf\\xe4\\xbb\\x98/\\xe5\\xa4\\x9a\\xe7\\xad\\xbe\\xe9\\x92\\xb1\\xe5\\x8c\\x85.sol\":2107:2126  isOwner[msg.sender] */\n      0xffffffffffffffffffffffffffffffffffffffff\n      and\n      0xffffffffffffffffffffffffffffffffffffffff\n      and\n      dup2\n      mstore\n      0x20\n      add\n      swap1\n      dup2\n      mstore\n      0x20\n      add\n      0x00\n      keccak256\n      0x00\n      swap1\n      sload\n      swap1\n      0x0100\n      exp\n      swap1\n      div\n      0xff\n      and\n        /* \"solidity\\xe9\\x87\\x91\\xe8\\x9e\\x8d\\xe5\\x92\\x8c\\xe6\\x94\\xaf\\xe4\\xbb\\x98/\\xe5\\xa4\\x9a\\xe7\\xad\\xbe\\xe9\\x92\\xb1\\xe5\\x8c\\x85.sol\":2099:2140  require(isOwner[msg.sender], \"not owner\") */\n      tag_71\n      jumpi\n      mload(0x40)\n      0x08c379a000000000000000000000000000000000000000000000000000000000\n      dup2\n      mstore\n      0x04\n      add\n      tag_72\n      swap1\n      tag_73\n      jump\t// in\n    tag_72:\n      mload(0x40)\n      dup1\n      swap2\n      sub\n      swap1\n      revert\n    tag_71:\n        /* \"solidity\\xe9\\x87\\x91\\xe8\\x9e\\x8d\\xe5\\x92\\x8c\\xe6\\x94\\xaf\\xe4\\xbb\\x98/\\xe5\\xa4\\x9a\\xe7\\xad\\xbe\\xe9\\x92\\xb1\\xe5\\x8c\\x85.sol\":3640:3644  tsId */\n      dup1\n        /* \"solidity\\xe9\\x87\\x91\\xe8\\x9e\\x8d\\xe5\\x92\\x8c\\xe6\\x94\\xaf\\xe4\\xbb\\x98/\\xe5\\xa4\\x9a\\xe7\\xad\\xbe\\xe9\\x92\\xb1\\xe5\\x8c\\x85.sol\":2218:2230  transactions */\n      0x03\n        /* \"solidity\\xe9\\x87\\x91\\xe8\\x9e\\x8d\\xe5\\x92\\x8c\\xe6\\x94\\xaf\\xe4\\xbb\\x98/\\xe5\\xa4\\x9a\\xe7\\xad\\xbe\\xe9\\x92\\xb1\\xe5\\x8c\\x85.sol\":2231:2233  id */\n      dup2\n        /* \"solidity\\xe9\\x87\\x91\\xe8\\x9e\\x8d\\xe5\\x92\\x8c\\xe6\\x94\\xaf\\xe4\\xbb\\x98/\\xe5\\xa4\\x9a\\xe7\\xad\\xbe\\xe9\\x92\\xb1\\xe5\\x8c\\x85.sol\":2218:2234  transactions[id] */\n      dup2\n      sload\n      dup2\n      lt\n      tag_75\n      jumpi\n      tag_76\n      tag_77\n      jump\t// in\n    tag_76:\n    tag_75:\n      swap1\n      0x00\n      mstore\n      keccak256(0x00, 0x20)\n      swap1\n      0x04\n      mul\n      add\n        /* \"solidity\\xe9\\x87\\x91\\xe8\\x9e\\x8d\\xe5\\x92\\x8c\\xe6\\x94\\xaf\\xe4\\xbb\\x98/\\xe5\\xa4\\x9a\\xe7\\xad\\xbe\\xe9\\x92\\xb1\\xe5\\x8c\\x85.sol\":2218:2243  transactions[id].exectued */\n      0x03\n      add\n      0x00\n      swap1\n      sload\n      swap1\n      0x0100\n      exp\n      swap1\n      div\n      0xff\n      and\n        /* \"solidity\\xe9\\x87\\x91\\xe8\\x9e\\x8d\\xe5\\x92\\x8c\\xe6\\x94\\xaf\\xe4\\xbb\\x98/\\xe5\\xa4\\x9a\\xe7\\xad\\xbe\\xe9\\x92\\xb1\\xe5\\x8c\\x85.sol\":2217:2243  !transactions[id].exectued */\n      iszero\n        /* \"solidity\\xe9\\x87\\x91\\xe8\\x9e\\x8d\\xe5\\x92\\x8c\\xe6\\x94\\xaf\\xe4\\xbb\\x98/\\xe5\\xa4\\x9a\\xe7\\xad\\xbe\\xe9\\x92\\xb1\\xe5\\x8c\\x85.sol\":2209:2261  require(!transactions[id].exectued,\"alreay execute\") */\n      tag_79\n      jumpi\n      mload(0x40)\n      0x08c379a000000000000000000000000000000000000000000000000000000000\n      dup2\n      mstore\n      0x04\n      add\n      tag_80\n      swap1\n      tag_81\n      jump\t// in\n    tag_80:\n      mload(0x40)\n      dup1\n      swap2\n      sub\n      swap1\n      revert\n    tag_79:\n        /* \"solidity\\xe9\\x87\\x91\\xe8\\x9e\\x8d\\xe5\\x92\\x8c\\xe6\\x94\\xaf\\xe4\\xbb\\x98/\\xe5\\xa4\\x9a\\xe7\\xad\\xbe\\xe9\\x92\\xb1\\xe5\\x8c\\x85.sol\":3686:3691  false */\n      0x00\n        /* \"solidity\\xe9\\x87\\x91\\xe8\\x9e\\x8d\\xe5\\x92\\x8c\\xe6\\x94\\xaf\\xe4\\xbb\\x98/\\xe5\\xa4\\x9a\\xe7\\xad\\xbe\\xe9\\x92\\xb1\\xe5\\x8c\\x85.sol\":3657:3665  approved */\n      0x04\n        /* \"solidity\\xe9\\x87\\x91\\xe8\\x9e\\x8d\\xe5\\x92\\x8c\\xe6\\x94\\xaf\\xe4\\xbb\\x98/\\xe5\\xa4\\x9a\\xe7\\xad\\xbe\\xe9\\x92\\xb1\\xe5\\x8c\\x85.sol\":3657:3671  approved[tsId] */\n      0x00\n        /* \"solidity\\xe9\\x87\\x91\\xe8\\x9e\\x8d\\xe5\\x92\\x8c\\xe6\\x94\\xaf\\xe4\\xbb\\x98/\\xe5\\xa4\\x9a\\xe7\\xad\\xbe\\xe9\\x92\\xb1\\xe5\\x8c\\x85.sol\":3666:3670  tsId */\n      dup5\n        /* \"solidity\\xe9\\x87\\x91\\xe8\\x9e\\x8d\\xe5\\x92\\x8c\\xe6\\x94\\xaf\\xe4\\xbb\\x98/\\xe5\\xa4\\x9a\\xe7\\xad\\xbe\\xe9\\x92\\xb1\\xe5\\x8c\\x85.sol\":3657:3671  approved[tsId] */\n      dup2\n      mstore\n      0x20\n      add\n      swap1\n      dup2\n      mstore\n      0x20\n      add\n      0x00\n      keccak256\n        /* \"solidity\\xe9\\x87\\x91\\xe8\\x9e\\x8d\\xe5\\x92\\x8c\\xe6\\x94\\xaf\\xe4\\xbb\\x98/\\xe5\\xa4\\x9a\\xe7\\xad\\xbe\\xe9\\x92\\xb1\\xe5\\x8c\\x85.sol\":3657:3683  approved[tsId][msg.sender] */\n      0x00\n        /* \"solidity\\xe9\\x87\\x91\\xe8\\x9e\\x8d\\xe5\\x92\\x8c\\xe6\\x94\\xaf\\xe4\\xbb\\x98/\\xe5\\xa4\\x9a\\xe7\\xad\\xbe\\xe9\\x92\\xb1\\xe5\\x8c\\x85.sol\":3672:3682  msg.sender */\n      caller\n        /* \"solidity\\xe9\\x87\\x91\\xe8\\x9e\\x8d\\xe5\\x92\\x8c\\xe6\\x94\\xaf\\xe4\\xbb\\x98/\\xe5\\xa4\\x9a\\xe7\\xad\\xbe\\xe9\\x92\\xb1\\xe5\\x8c\\x85.sol\":3657:3683  approved[tsId][msg.sender] */\n      0xffffffffffffffffffffffffffffffffffffffff\n      and\n      0xffffffffffffffffffffffffffffffffffffffff\n      and\n      dup2\n      mstore\n      0x20\n      add\n      swap1\n      dup2\n      mstore\n      0x20\n      add\n      0x00\n      keccak256\n      0x00\n        /* \"solidity\\xe9\\x87\\x91\\xe8\\x9e\\x8d\\xe5\\x92\\x8c\\xe6\\x94\\xaf\\xe4\\xbb\\x98/\\xe5\\xa4\\x9a\\xe7\\xad\\xbe\\xe9\\x92\\xb1\\xe5\\x8c\\x85.sol\":3657:3691  approved[tsId][msg.sender] = false */\n      0x0100\n      exp\n      dup2\n      sload\n      dup2\n      0xff\n      mul\n      not\n      and\n      swap1\n      dup4\n      iszero\n      iszero\n      mul\n      or\n      swap1\n      sstore\n      pop\n        /* \"solidity\\xe9\\x87\\x91\\xe8\\x9e\\x8d\\xe5\\x92\\x8c\\xe6\\x94\\xaf\\xe4\\xbb\\x98/\\xe5\\xa4\\x9a\\xe7\\xad\\xbe\\xe9\\x92\\xb1\\xe5\\x8c\\x85.sol\":3707:3719  Revoke(tsId) */\n      0xdb43aa42235c8d63908794a952603e8d43a549383d13123c3d893a3fc2e62495\n        /* \"solidity\\xe9\\x87\\x91\\xe8\\x9e\\x8d\\xe5\\x92\\x8c\\xe6\\x94\\xaf\\xe4\\xbb\\x98/\\xe5\\xa4\\x9a\\xe7\\xad\\xbe\\xe9\\x92\\xb1\\xe5\\x8c\\x85.sol\":3714:3718  tsId */\n      dup3\n        /* \"solidity\\xe9\\x87\\x91\\xe8\\x9e\\x8d\\xe5\\x92\\x8c\\xe6\\x94\\xaf\\xe4\\xbb\\x98/\\xe5\\xa4\\x9a\\xe7\\xad\\xbe\\xe9\\x92\\xb1\\xe5\\x8c\\x85.sol\":3707:3719  Revoke(tsId) */\n      mload(0x40)\n      tag_83\n      swap2\n      swap1\n      tag_16\n      jump\t// in\n    tag_83:\n      mload(0x40)\n      dup1\n      swap2\n      sub\n      swap1\n      log1\n        /* \"solidity\\xe9\\x87\\x91\\xe8\\x9e\\x8d\\xe5\\x92\\x8c\\xe6\\x94\\xaf\\xe4\\xbb\\x98/\\xe5\\xa4\\x9a\\xe7\\xad\\xbe\\xe9\\x92\\xb1\\xe5\\x8c\\x85.sol\":2151:2152  _ */\n      pop\n        /* \"solidity\\xe9\\x87\\x91\\xe8\\x9e\\x8d\\xe5\\x92\\x8c\\xe6\\x94\\xaf\\xe4\\xbb\\x98/\\xe5\\xa4\\x9a\\xe7\\xad\\xbe\\xe9\\x92\\xb1\\xe5\\x8c\\x85.sol\":3582:3727  function revoke(uint tsId) external onlyOwner notExecuted(tsId) {... */\n      pop\n      jump\t// out\n        /* \"solidity\\xe9\\x87\\x91\\xe8\\x9e\\x8d\\xe5\\x92\\x8c\\xe6\\x94\\xaf\\xe4\\xbb\\x98/\\xe5\\xa4\\x9a\\xe7\\xad\\xbe\\xe9\\x92\\xb1\\xe5\\x8c\\x85.sol\":1140:1179  mapping(address => bool) public isOwner */\n    tag_37:\n      mstore(0x20, 0x01)\n      dup1\n      0x00\n      mstore\n      keccak256(0x00, 0x40)\n      0x00\n      swap2\n      pop\n      sload\n      swap1\n      0x0100\n      exp\n      swap1\n      div\n      0xff\n      and\n      dup2\n      jump\t// out\n        /* \"solidity\\xe9\\x87\\x91\\xe8\\x9e\\x8d\\xe5\\x92\\x8c\\xe6\\x94\\xaf\\xe4\\xbb\\x98/\\xe5\\xa4\\x9a\\xe7\\xad\\xbe\\xe9\\x92\\xb1\\xe5\\x8c\\x85.sol\":1364:1421  mapping(uint => mapping(address => bool)) public approved */\n    tag_44:\n      mstore(0x20, 0x04)\n      dup2\n      0x00\n      mstore\n      mstore(0x20, keccak256(0x00, 0x40))\n      dup1\n      0x00\n      mstore\n      keccak256(0x00, 0x40)\n      0x00\n      swap2\n      pop\n      swap2\n      pop\n      swap1\n      sload\n      swap1\n      0x0100\n      exp\n      swap1\n      div\n      0xff\n      and\n      dup2\n      jump\t// out\n        /* \"solidity\\xe9\\x87\\x91\\xe8\\x9e\\x8d\\xe5\\x92\\x8c\\xe6\\x94\\xaf\\xe4\\xbb\\x98/\\xe5\\xa4\\x9a\\xe7\\xad\\xbe\\xe9\\x92\\xb1\\xe5\\x8c\\x85.sol\":1295:1328  Transaction[] public transactions */\n    tag_49:\n      0x03\n      dup2\n      dup2\n      sload\n      dup2\n      lt\n      tag_84\n      jumpi\n      0x00\n      dup1\n      revert\n    tag_84:\n      swap1\n      0x00\n      mstore\n      keccak256(0x00, 0x20)\n      swap1\n      0x04\n      mul\n      add\n      0x00\n      swap2\n      pop\n      swap1\n      pop\n      dup1\n      0x00\n      add\n      0x00\n      swap1\n      sload\n      swap1\n      0x0100\n      exp\n      swap1\n      div\n      0xffffffffffffffffffffffffffffffffffffffff\n      and\n      swap1\n      dup1\n      0x01\n      add\n      sload\n      swap1\n      dup1\n      0x02\n      add\n      dup1\n      sload\n      tag_86\n      swap1\n      tag_87\n      jump\t// in\n    tag_86:\n      dup1\n      0x1f\n      add\n      0x20\n      dup1\n      swap2\n      div\n      mul\n      0x20\n      add\n      mload(0x40)\n      swap1\n      dup2\n      add\n      0x40\n      mstore\n      dup1\n      swap3\n      swap2\n      swap1\n      dup2\n      dup2\n      mstore\n      0x20\n      add\n      dup3\n      dup1\n      sload\n      tag_88\n      swap1\n      tag_87\n      jump\t// in\n    tag_88:\n      dup1\n      iszero\n      tag_89\n      jumpi\n      dup1\n      0x1f\n      lt\n      tag_90\n      jumpi\n      0x0100\n      dup1\n      dup4\n      sload\n      div\n      mul\n      dup4\n      mstore\n      swap2\n      0x20\n      add\n      swap2\n      jump(tag_89)\n    tag_90:\n      dup3\n      add\n      swap2\n      swap1\n      0x00\n      mstore\n      keccak256(0x00, 0x20)\n      swap1\n    tag_91:\n      dup2\n      sload\n      dup2\n      mstore\n      swap1\n      0x01\n      add\n      swap1\n      0x20\n      add\n      dup1\n      dup4\n      gt\n      tag_91\n      jumpi\n      dup3\n      swap1\n      sub\n      0x1f\n      and\n      dup3\n      add\n      swap2\n    tag_89:\n      pop\n      pop\n      pop\n      pop\n      pop\n      swap1\n      dup1\n      0x03\n      add\n      0x00\n      swap1\n      sload\n      swap1\n      0x0100\n      exp\n      swap1\n      div\n      0xff\n      and\n      swap1\n      pop\n      dup5\n      jump\t// out\n        /* \"solidity\\xe9\\x87\\x91\\xe8\\x9e\\x8d\\xe5\\x92\\x8c\\xe6\\x94\\xaf\\xe4\\xbb\\x98/\\xe5\\xa4\\x9a\\xe7\\xad\\xbe\\xe9\\x92\\xb1\\xe5\\x8c\\x85.sol\":2940:3093  function approve(uint tsId) external exists(tsId) onlyOwner() {... */\n    tag_55:\n        /* \"solidity\\xe9\\x87\\x91\\xe8\\x9e\\x8d\\xe5\\x92\\x8c\\xe6\\x94\\xaf\\xe4\\xbb\\x98/\\xe5\\xa4\\x9a\\xe7\\xad\\xbe\\xe9\\x92\\xb1\\xe5\\x8c\\x85.sol\":2984:2988  tsId */\n      dup1\n        /* \"solidity\\xe9\\x87\\x91\\xe8\\x9e\\x8d\\xe5\\x92\\x8c\\xe6\\x94\\xaf\\xe4\\xbb\\x98/\\xe5\\xa4\\x9a\\xe7\\xad\\xbe\\xe9\\x92\\xb1\\xe5\\x8c\\x85.sol\":2003:2015  transactions */\n      0x03\n        /* \"solidity\\xe9\\x87\\x91\\xe8\\x9e\\x8d\\xe5\\x92\\x8c\\xe6\\x94\\xaf\\xe4\\xbb\\x98/\\xe5\\xa4\\x9a\\xe7\\xad\\xbe\\xe9\\x92\\xb1\\xe5\\x8c\\x85.sol\":2003:2022  transactions.length */\n      dup1\n      sload\n      swap1\n      pop\n        /* \"solidity\\xe9\\x87\\x91\\xe8\\x9e\\x8d\\xe5\\x92\\x8c\\xe6\\x94\\xaf\\xe4\\xbb\\x98/\\xe5\\xa4\\x9a\\xe7\\xad\\xbe\\xe9\\x92\\xb1\\xe5\\x8c\\x85.sol\":1996:2000  tsId */\n      dup2\n        /* \"solidity\\xe9\\x87\\x91\\xe8\\x9e\\x8d\\xe5\\x92\\x8c\\xe6\\x94\\xaf\\xe4\\xbb\\x98/\\xe5\\xa4\\x9a\\xe7\\xad\\xbe\\xe9\\x92\\xb1\\xe5\\x8c\\x85.sol\":1996:2022  tsId < transactions.length */\n      lt\n        /* \"solidity\\xe9\\x87\\x91\\xe8\\x9e\\x8d\\xe5\\x92\\x8c\\xe6\\x94\\xaf\\xe4\\xbb\\x98/\\xe5\\xa4\\x9a\\xe7\\xad\\xbe\\xe9\\x92\\xb1\\xe5\\x8c\\x85.sol\":1988:2039  require(tsId < transactions.length, \"invalid tsId\") */\n      tag_93\n      jumpi\n      mload(0x40)\n      0x08c379a000000000000000000000000000000000000000000000000000000000\n      dup2\n      mstore\n      0x04\n      add\n      tag_94\n      swap1\n      tag_95\n      jump\t// in\n    tag_94:\n      mload(0x40)\n      dup1\n      swap2\n      sub\n      swap1\n      revert\n    tag_93:\n        /* \"solidity\\xe9\\x87\\x91\\xe8\\x9e\\x8d\\xe5\\x92\\x8c\\xe6\\x94\\xaf\\xe4\\xbb\\x98/\\xe5\\xa4\\x9a\\xe7\\xad\\xbe\\xe9\\x92\\xb1\\xe5\\x8c\\x85.sol\":2107:2114  isOwner */\n      0x01\n        /* \"solidity\\xe9\\x87\\x91\\xe8\\x9e\\x8d\\xe5\\x92\\x8c\\xe6\\x94\\xaf\\xe4\\xbb\\x98/\\xe5\\xa4\\x9a\\xe7\\xad\\xbe\\xe9\\x92\\xb1\\xe5\\x8c\\x85.sol\":2107:2126  isOwner[msg.sender] */\n      0x00\n        /* \"solidity\\xe9\\x87\\x91\\xe8\\x9e\\x8d\\xe5\\x92\\x8c\\xe6\\x94\\xaf\\xe4\\xbb\\x98/\\xe5\\xa4\\x9a\\xe7\\xad\\xbe\\xe9\\x92\\xb1\\xe5\\x8c\\x85.sol\":2115:2125  msg.sender */\n      caller\n        /* \"solidity\\xe9\\x87\\x91\\xe8\\x9e\\x8d\\xe5\\x92\\x8c\\xe6\\x94\\xaf\\xe4\\xbb\\x98/\\xe5\\xa4\\x9a\\xe7\\xad\\xbe\\xe9\\x92\\xb1\\xe5\\x8c\\x85.sol\":2107:2126  isOwner[msg.sender] */\n      0xffffffffffffffffffffffffffffffffffffffff\n      and\n      0xffffffffffffffffffffffffffffffffffffffff\n      and\n      dup2\n      mstore\n      0x20\n      add\n      swap1\n      dup2\n      mstore\n      0x20\n      add\n      0x00\n      keccak256\n      0x00\n      swap1\n      sload\n      swap1\n      0x0100\n      exp\n      swap1\n      div\n      0xff\n      and\n        /* \"solidity\\xe9\\x87\\x91\\xe8\\x9e\\x8d\\xe5\\x92\\x8c\\xe6\\x94\\xaf\\xe4\\xbb\\x98/\\xe5\\xa4\\x9a\\xe7\\xad\\xbe\\xe9\\x92\\xb1\\xe5\\x8c\\x85.sol\":2099:2140  require(isOwner[msg.sender], \"not owner\") */\n      tag_97\n      jumpi\n      mload(0x40)\n      0x08c379a000000000000000000000000000000000000000000000000000000000\n      dup2\n      mstore\n      0x04\n      add\n      tag_98\n      swap1\n      tag_73\n      jump\t// in\n    tag_98:\n      mload(0x40)\n      dup1\n      swap2\n      sub\n      swap1\n      revert\n    tag_97:\n        /* \"solidity\\xe9\\x87\\x91\\xe8\\x9e\\x8d\\xe5\\x92\\x8c\\xe6\\x94\\xaf\\xe4\\xbb\\x98/\\xe5\\xa4\\x9a\\xe7\\xad\\xbe\\xe9\\x92\\xb1\\xe5\\x8c\\x85.sol\":3041:3045  true */\n      0x01\n        /* \"solidity\\xe9\\x87\\x91\\xe8\\x9e\\x8d\\xe5\\x92\\x8c\\xe6\\x94\\xaf\\xe4\\xbb\\x98/\\xe5\\xa4\\x9a\\xe7\\xad\\xbe\\xe9\\x92\\xb1\\xe5\\x8c\\x85.sol\":3012:3020  approved */\n      0x04\n        /* \"solidity\\xe9\\x87\\x91\\xe8\\x9e\\x8d\\xe5\\x92\\x8c\\xe6\\x94\\xaf\\xe4\\xbb\\x98/\\xe5\\xa4\\x9a\\xe7\\xad\\xbe\\xe9\\x92\\xb1\\xe5\\x8c\\x85.sol\":3012:3026  approved[tsId] */\n      0x00\n        /* \"solidity\\xe9\\x87\\x91\\xe8\\x9e\\x8d\\xe5\\x92\\x8c\\xe6\\x94\\xaf\\xe4\\xbb\\x98/\\xe5\\xa4\\x9a\\xe7\\xad\\xbe\\xe9\\x92\\xb1\\xe5\\x8c\\x85.sol\":3021:3025  tsId */\n      dup5\n        /* \"solidity\\xe9\\x87\\x91\\xe8\\x9e\\x8d\\xe5\\x92\\x8c\\xe6\\x94\\xaf\\xe4\\xbb\\x98/\\xe5\\xa4\\x9a\\xe7\\xad\\xbe\\xe9\\x92\\xb1\\xe5\\x8c\\x85.sol\":3012:3026  approved[tsId] */\n      dup2\n      mstore\n      0x20\n      add\n      swap1\n      dup2\n      mstore\n      0x20\n      add\n      0x00\n      keccak256\n        /* \"solidity\\xe9\\x87\\x91\\xe8\\x9e\\x8d\\xe5\\x92\\x8c\\xe6\\x94\\xaf\\xe4\\xbb\\x98/\\xe5\\xa4\\x9a\\xe7\\xad\\xbe\\xe9\\x92\\xb1\\xe5\\x8c\\x85.sol\":3012:3038  approved[tsId][msg.sender] */\n      0x00\n        /* \"solidity\\xe9\\x87\\x91\\xe8\\x9e\\x8d\\xe5\\x92\\x8c\\xe6\\x94\\xaf\\xe4\\xbb\\x98/\\xe5\\xa4\\x9a\\xe7\\xad\\xbe\\xe9\\x92\\xb1\\xe5\\x8c\\x85.sol\":3027:3037  msg.sender */\n      caller\n        /* \"solidity\\xe9\\x87\\x91\\xe8\\x9e\\x8d\\xe5\\x92\\x8c\\xe6\\x94\\xaf\\xe4\\xbb\\x98/\\xe5\\xa4\\x9a\\xe7\\xad\\xbe\\xe9\\x92\\xb1\\xe5\\x8c\\x85.sol\":3012:3038  approved[tsId][msg.sender] */\n      0xffffffffffffffffffffffffffffffffffffffff\n      and\n      0xffffffffffffffffffffffffffffffffffffffff\n      and\n      dup2\n      mstore\n      0x20\n      add\n      swap1\n      dup2\n      mstore\n      0x20\n      add\n      0x00\n      keccak256\n      0x00\n        /* \"solidity\\xe9\\x87\\x91\\xe8\\x9e\\x8d\\xe5\\x92\\x8c\\xe6\\x94\\xaf\\xe4\\xbb\\x98/\\xe5\\xa4\\x9a\\xe7\\xad\\xbe\\xe9\\x92\\xb1\\xe5\\x8c\\x85.sol\":3012:3045  approved[tsId][msg.sender] = true */\n      0x0100\n      exp\n      dup2\n      sload\n      dup2\n      0xff\n      mul\n      not\n      and\n      swap1\n      dup4\n      iszero\n      iszero\n      mul\n      or\n      swap1\n      sstore\n      pop\n        /* \"solidity\\xe9\\x87\\x91\\xe8\\x9e\\x8d\\xe5\\x92\\x8c\\xe6\\x94\\xaf\\xe4\\xbb\\x98/\\xe5\\xa4\\x9a\\xe7\\xad\\xbe\\xe9\\x92\\xb1\\xe5\\x8c\\x85.sol\":3068:3078  msg.sender */\n      caller\n        /* \"solidity\\xe9\\x87\\x91\\xe8\\x9e\\x8d\\xe5\\x92\\x8c\\xe6\\x94\\xaf\\xe4\\xbb\\x98/\\xe5\\xa4\\x9a\\xe7\\xad\\xbe\\xe9\\x92\\xb1\\xe5\\x8c\\x85.sol\":3060:3085  Approve(msg.sender, tsId) */\n      0xffffffffffffffffffffffffffffffffffffffff\n      and\n      0x90ec57f18fa7b15c6b8d5e4d1deb90796c74b2ff23d4d0cecad0cb42a96b3128\n        /* \"solidity\\xe9\\x87\\x91\\xe8\\x9e\\x8d\\xe5\\x92\\x8c\\xe6\\x94\\xaf\\xe4\\xbb\\x98/\\xe5\\xa4\\x9a\\xe7\\xad\\xbe\\xe9\\x92\\xb1\\xe5\\x8c\\x85.sol\":3080:3084  tsId */\n      dup4\n        /* \"solidity\\xe9\\x87\\x91\\xe8\\x9e\\x8d\\xe5\\x92\\x8c\\xe6\\x94\\xaf\\xe4\\xbb\\x98/\\xe5\\xa4\\x9a\\xe7\\xad\\xbe\\xe9\\x92\\xb1\\xe5\\x8c\\x85.sol\":3060:3085  Approve(msg.sender, tsId) */\n      mload(0x40)\n      tag_100\n      swap2\n      swap1\n      tag_16\n      jump\t// in\n    tag_100:\n      mload(0x40)\n      dup1\n      swap2\n      sub\n      swap1\n      log2\n        /* \"solidity\\xe9\\x87\\x91\\xe8\\x9e\\x8d\\xe5\\x92\\x8c\\xe6\\x94\\xaf\\xe4\\xbb\\x98/\\xe5\\xa4\\x9a\\xe7\\xad\\xbe\\xe9\\x92\\xb1\\xe5\\x8c\\x85.sol\":2940:3093  function approve(uint tsId) external exists(tsId) onlyOwner() {... */\n      pop\n      pop\n      jump\t// out\n        /* \"solidity\\xe9\\x87\\x91\\xe8\\x9e\\x8d\\xe5\\x92\\x8c\\xe6\\x94\\xaf\\xe4\\xbb\\x98/\\xe5\\xa4\\x9a\\xe7\\xad\\xbe\\xe9\\x92\\xb1\\xe5\\x8c\\x85.sol\":1230:1250  uint public required */\n    tag_58:\n      sload(0x02)\n      dup2\n      jump\t// out\n        /* \"solidity\\xe9\\x87\\x91\\xe8\\x9e\\x8d\\xe5\\x92\\x8c\\xe6\\x94\\xaf\\xe4\\xbb\\x98/\\xe5\\xa4\\x9a\\xe7\\xad\\xbe\\xe9\\x92\\xb1\\xe5\\x8c\\x85.sol\":3101:3574  function execute(uint tsId) external ... */\n    tag_63:\n        /* \"solidity\\xe9\\x87\\x91\\xe8\\x9e\\x8d\\xe5\\x92\\x8c\\xe6\\x94\\xaf\\xe4\\xbb\\x98/\\xe5\\xa4\\x9a\\xe7\\xad\\xbe\\xe9\\x92\\xb1\\xe5\\x8c\\x85.sol\":2107:2114  isOwner */\n      0x01\n        /* \"solidity\\xe9\\x87\\x91\\xe8\\x9e\\x8d\\xe5\\x92\\x8c\\xe6\\x94\\xaf\\xe4\\xbb\\x98/\\xe5\\xa4\\x9a\\xe7\\xad\\xbe\\xe9\\x92\\xb1\\xe5\\x8c\\x85.sol\":2107:2126  isOwner[msg.sender] */\n      0x00\n        /* \"solidity\\xe9\\x87\\x91\\xe8\\x9e\\x8d\\xe5\\x92\\x8c\\xe6\\x94\\xaf\\xe4\\xbb\\x98/\\xe5\\xa4\\x9a\\xe7\\xad\\xbe\\xe9\\x92\\xb1\\xe5\\x8c\\x85.sol\":2115:2125  msg.sender */\n      caller\n        /* \"solidity\\xe9\\x87\\x91\\xe8\\x9e\\x8d\\xe5\\x92\\x8c\\xe6\\x94\\xaf\\xe4\\xbb\\x98/\\xe5\\xa4\\x9a\\xe7\\xad\\xbe\\xe9\\x92\\xb1\\xe5\\x8c\\x85.sol\":2107:2126  isOwner[msg.sender] */\n      0xffffffffffffffffffffffffffffffffffffffff\n      and\n      0xffffffffffffffffffffffffffffffffffffffff\n      and\n      dup2\n      mstore\n      0x20\n      add\n      swap1\n      dup2\n      mstore\n      0x20\n      add\n      0x00\n      keccak256\n      0x00\n      swap1\n      sload\n      swap1\n      0x0100\n      exp\n      swap1\n      div\n      0xff\n      and\n        /* \"solidity\\xe9\\x87\\x91\\xe8\\x9e\\x8d\\xe5\\x92\\x8c\\xe6\\x94\\xaf\\xe4\\xbb\\x98/\\xe5\\xa4\\x9a\\xe7\\xad\\xbe\\xe9\\x92\\xb1\\xe5\\x8c\\x85.sol\":2099:2140  require(isOwner[msg.sender], \"not owner\") */\n      tag_102\n      jumpi\n      mload(0x40)\n      0x08c379a000000000000000000000000000000000000000000000000000000000\n      dup2\n      mstore\n      0x04\n      add\n      tag_103\n      swap1\n      tag_73\n      jump\t// in\n    tag_103:\n      mload(0x40)\n      dup1\n      swap2\n      sub\n      swap1\n      revert\n    tag_102:\n        /* \"solidity\\xe9\\x87\\x91\\xe8\\x9e\\x8d\\xe5\\x92\\x8c\\xe6\\x94\\xaf\\xe4\\xbb\\x98/\\xe5\\xa4\\x9a\\xe7\\xad\\xbe\\xe9\\x92\\xb1\\xe5\\x8c\\x85.sol\":3174:3178  tsId */\n      dup1\n        /* \"solidity\\xe9\\x87\\x91\\xe8\\x9e\\x8d\\xe5\\x92\\x8c\\xe6\\x94\\xaf\\xe4\\xbb\\x98/\\xe5\\xa4\\x9a\\xe7\\xad\\xbe\\xe9\\x92\\xb1\\xe5\\x8c\\x85.sol\":2003:2015  transactions */\n      0x03\n        /* \"solidity\\xe9\\x87\\x91\\xe8\\x9e\\x8d\\xe5\\x92\\x8c\\xe6\\x94\\xaf\\xe4\\xbb\\x98/\\xe5\\xa4\\x9a\\xe7\\xad\\xbe\\xe9\\x92\\xb1\\xe5\\x8c\\x85.sol\":2003:2022  transactions.length */\n      dup1\n      sload\n      swap1\n      pop\n        /* \"solidity\\xe9\\x87\\x91\\xe8\\x9e\\x8d\\xe5\\x92\\x8c\\xe6\\x94\\xaf\\xe4\\xbb\\x98/\\xe5\\xa4\\x9a\\xe7\\xad\\xbe\\xe9\\x92\\xb1\\xe5\\x8c\\x85.sol\":1996:2000  tsId */\n      dup2\n        /* \"solidity\\xe9\\x87\\x91\\xe8\\x9e\\x8d\\xe5\\x92\\x8c\\xe6\\x94\\xaf\\xe4\\xbb\\x98/\\xe5\\xa4\\x9a\\xe7\\xad\\xbe\\xe9\\x92\\xb1\\xe5\\x8c\\x85.sol\":1996:2022  tsId < transactions.length */\n      lt\n        /* \"solidity\\xe9\\x87\\x91\\xe8\\x9e\\x8d\\xe5\\x92\\x8c\\xe6\\x94\\xaf\\xe4\\xbb\\x98/\\xe5\\xa4\\x9a\\xe7\\xad\\xbe\\xe9\\x92\\xb1\\xe5\\x8c\\x85.sol\":1988:2039  require(tsId < transactions.length, \"invalid tsId\") */\n      tag_105\n      jumpi\n      mload(0x40)\n      0x08c379a000000000000000000000000000000000000000000000000000000000\n      dup2\n      mstore\n      0x04\n      add\n      tag_106\n      swap1\n      tag_95\n      jump\t// in\n    tag_106:\n      mload(0x40)\n      dup1\n      swap2\n      sub\n      swap1\n      revert\n    tag_105:\n        /* \"solidity\\xe9\\x87\\x91\\xe8\\x9e\\x8d\\xe5\\x92\\x8c\\xe6\\x94\\xaf\\xe4\\xbb\\x98/\\xe5\\xa4\\x9a\\xe7\\xad\\xbe\\xe9\\x92\\xb1\\xe5\\x8c\\x85.sol\":3201:3205  tsId */\n      dup2\n        /* \"solidity\\xe9\\x87\\x91\\xe8\\x9e\\x8d\\xe5\\x92\\x8c\\xe6\\x94\\xaf\\xe4\\xbb\\x98/\\xe5\\xa4\\x9a\\xe7\\xad\\xbe\\xe9\\x92\\xb1\\xe5\\x8c\\x85.sol\":2218:2230  transactions */\n      0x03\n        /* \"solidity\\xe9\\x87\\x91\\xe8\\x9e\\x8d\\xe5\\x92\\x8c\\xe6\\x94\\xaf\\xe4\\xbb\\x98/\\xe5\\xa4\\x9a\\xe7\\xad\\xbe\\xe9\\x92\\xb1\\xe5\\x8c\\x85.sol\":2231:2233  id */\n      dup2\n        /* \"solidity\\xe9\\x87\\x91\\xe8\\x9e\\x8d\\xe5\\x92\\x8c\\xe6\\x94\\xaf\\xe4\\xbb\\x98/\\xe5\\xa4\\x9a\\xe7\\xad\\xbe\\xe9\\x92\\xb1\\xe5\\x8c\\x85.sol\":2218:2234  transactions[id] */\n      dup2\n      sload\n      dup2\n      lt\n      tag_108\n      jumpi\n      tag_109\n      tag_77\n      jump\t// in\n    tag_109:\n    tag_108:\n      swap1\n      0x00\n      mstore\n      keccak256(0x00, 0x20)\n      swap1\n      0x04\n      mul\n      add\n        /* \"solidity\\xe9\\x87\\x91\\xe8\\x9e\\x8d\\xe5\\x92\\x8c\\xe6\\x94\\xaf\\xe4\\xbb\\x98/\\xe5\\xa4\\x9a\\xe7\\xad\\xbe\\xe9\\x92\\xb1\\xe5\\x8c\\x85.sol\":2218:2243  transactions[id].exectued */\n      0x03\n      add\n      0x00\n      swap1\n      sload\n      swap1\n      0x0100\n      exp\n      swap1\n      div\n      0xff\n      and\n        /* \"solidity\\xe9\\x87\\x91\\xe8\\x9e\\x8d\\xe5\\x92\\x8c\\xe6\\x94\\xaf\\xe4\\xbb\\x98/\\xe5\\xa4\\x9a\\xe7\\xad\\xbe\\xe9\\x92\\xb1\\xe5\\x8c\\x85.sol\":2217:2243  !transactions[id].exectued */\n      iszero\n        /* \"solidity\\xe9\\x87\\x91\\xe8\\x9e\\x8d\\xe5\\x92\\x8c\\xe6\\x94\\xaf\\xe4\\xbb\\x98/\\xe5\\xa4\\x9a\\xe7\\xad\\xbe\\xe9\\x92\\xb1\\xe5\\x8c\\x85.sol\":2209:2261  require(!transactions[id].exectued,\"alreay execute\") */\n      tag_111\n      jumpi\n      mload(0x40)\n      0x08c379a000000000000000000000000000000000000000000000000000000000\n      dup2\n      mstore\n      0x04\n      add\n      tag_112\n      swap1\n      tag_81\n      jump\t// in\n    tag_112:\n      mload(0x40)\n      dup1\n      swap2\n      sub\n      swap1\n      revert\n    tag_111:\n        /* \"solidity\\xe9\\x87\\x91\\xe8\\x9e\\x8d\\xe5\\x92\\x8c\\xe6\\x94\\xaf\\xe4\\xbb\\x98/\\xe5\\xa4\\x9a\\xe7\\xad\\xbe\\xe9\\x92\\xb1\\xe5\\x8c\\x85.sol\":3245:3249  tsId */\n      dup3\n        /* \"solidity\\xe9\\x87\\x91\\xe8\\x9e\\x8d\\xe5\\x92\\x8c\\xe6\\x94\\xaf\\xe4\\xbb\\x98/\\xe5\\xa4\\x9a\\xe7\\xad\\xbe\\xe9\\x92\\xb1\\xe5\\x8c\\x85.sol\":2348:2358  uint count */\n      0x00\n        /* \"solidity\\xe9\\x87\\x91\\xe8\\x9e\\x8d\\xe5\\x92\\x8c\\xe6\\x94\\xaf\\xe4\\xbb\\x98/\\xe5\\xa4\\x9a\\xe7\\xad\\xbe\\xe9\\x92\\xb1\\xe5\\x8c\\x85.sol\":2373:2379  uint i */\n      0x00\n        /* \"solidity\\xe9\\x87\\x91\\xe8\\x9e\\x8d\\xe5\\x92\\x8c\\xe6\\x94\\xaf\\xe4\\xbb\\x98/\\xe5\\xa4\\x9a\\xe7\\xad\\xbe\\xe9\\x92\\xb1\\xe5\\x8c\\x85.sol\":2382:2383  0 */\n      0x00\n        /* \"solidity\\xe9\\x87\\x91\\xe8\\x9e\\x8d\\xe5\\x92\\x8c\\xe6\\x94\\xaf\\xe4\\xbb\\x98/\\xe5\\xa4\\x9a\\xe7\\xad\\xbe\\xe9\\x92\\xb1\\xe5\\x8c\\x85.sol\":2373:2383  uint i = 0 */\n      swap1\n      pop\n        /* \"solidity\\xe9\\x87\\x91\\xe8\\x9e\\x8d\\xe5\\x92\\x8c\\xe6\\x94\\xaf\\xe4\\xbb\\x98/\\xe5\\xa4\\x9a\\xe7\\xad\\xbe\\xe9\\x92\\xb1\\xe5\\x8c\\x85.sol\":2369:2509  for(uint i = 0;i < owners.length; i++) {... */\n    tag_114:\n        /* \"solidity\\xe9\\x87\\x91\\xe8\\x9e\\x8d\\xe5\\x92\\x8c\\xe6\\x94\\xaf\\xe4\\xbb\\x98/\\xe5\\xa4\\x9a\\xe7\\xad\\xbe\\xe9\\x92\\xb1\\xe5\\x8c\\x85.sol\":2388:2394  owners */\n      0x00\n        /* \"solidity\\xe9\\x87\\x91\\xe8\\x9e\\x8d\\xe5\\x92\\x8c\\xe6\\x94\\xaf\\xe4\\xbb\\x98/\\xe5\\xa4\\x9a\\xe7\\xad\\xbe\\xe9\\x92\\xb1\\xe5\\x8c\\x85.sol\":2388:2401  owners.length */\n      dup1\n      sload\n      swap1\n      pop\n        /* \"solidity\\xe9\\x87\\x91\\xe8\\x9e\\x8d\\xe5\\x92\\x8c\\xe6\\x94\\xaf\\xe4\\xbb\\x98/\\xe5\\xa4\\x9a\\xe7\\xad\\xbe\\xe9\\x92\\xb1\\xe5\\x8c\\x85.sol\":2384:2385  i */\n      dup2\n        /* \"solidity\\xe9\\x87\\x91\\xe8\\x9e\\x8d\\xe5\\x92\\x8c\\xe6\\x94\\xaf\\xe4\\xbb\\x98/\\xe5\\xa4\\x9a\\xe7\\xad\\xbe\\xe9\\x92\\xb1\\xe5\\x8c\\x85.sol\":2384:2401  i < owners.length */\n      lt\n        /* \"solidity\\xe9\\x87\\x91\\xe8\\x9e\\x8d\\xe5\\x92\\x8c\\xe6\\x94\\xaf\\xe4\\xbb\\x98/\\xe5\\xa4\\x9a\\xe7\\xad\\xbe\\xe9\\x92\\xb1\\xe5\\x8c\\x85.sol\":2369:2509  for(uint i = 0;i < owners.length; i++) {... */\n      iszero\n      tag_115\n      jumpi\n        /* \"solidity\\xe9\\x87\\x91\\xe8\\x9e\\x8d\\xe5\\x92\\x8c\\xe6\\x94\\xaf\\xe4\\xbb\\x98/\\xe5\\xa4\\x9a\\xe7\\xad\\xbe\\xe9\\x92\\xb1\\xe5\\x8c\\x85.sol\":2426:2434  approved */\n      0x04\n        /* \"solidity\\xe9\\x87\\x91\\xe8\\x9e\\x8d\\xe5\\x92\\x8c\\xe6\\x94\\xaf\\xe4\\xbb\\x98/\\xe5\\xa4\\x9a\\xe7\\xad\\xbe\\xe9\\x92\\xb1\\xe5\\x8c\\x85.sol\":2426:2440  approved[tsId] */\n      0x00\n        /* \"solidity\\xe9\\x87\\x91\\xe8\\x9e\\x8d\\xe5\\x92\\x8c\\xe6\\x94\\xaf\\xe4\\xbb\\x98/\\xe5\\xa4\\x9a\\xe7\\xad\\xbe\\xe9\\x92\\xb1\\xe5\\x8c\\x85.sol\":2435:2439  tsId */\n      dup5\n        /* \"solidity\\xe9\\x87\\x91\\xe8\\x9e\\x8d\\xe5\\x92\\x8c\\xe6\\x94\\xaf\\xe4\\xbb\\x98/\\xe5\\xa4\\x9a\\xe7\\xad\\xbe\\xe9\\x92\\xb1\\xe5\\x8c\\x85.sol\":2426:2440  approved[tsId] */\n      dup2\n      mstore\n      0x20\n      add\n      swap1\n      dup2\n      mstore\n      0x20\n      add\n      0x00\n      keccak256\n        /* \"solidity\\xe9\\x87\\x91\\xe8\\x9e\\x8d\\xe5\\x92\\x8c\\xe6\\x94\\xaf\\xe4\\xbb\\x98/\\xe5\\xa4\\x9a\\xe7\\xad\\xbe\\xe9\\x92\\xb1\\xe5\\x8c\\x85.sol\":2426:2451  approved[tsId][owners[i]] */\n      0x00\n        /* \"solidity\\xe9\\x87\\x91\\xe8\\x9e\\x8d\\xe5\\x92\\x8c\\xe6\\x94\\xaf\\xe4\\xbb\\x98/\\xe5\\xa4\\x9a\\xe7\\xad\\xbe\\xe9\\x92\\xb1\\xe5\\x8c\\x85.sol\":2441:2447  owners */\n      0x00\n        /* \"solidity\\xe9\\x87\\x91\\xe8\\x9e\\x8d\\xe5\\x92\\x8c\\xe6\\x94\\xaf\\xe4\\xbb\\x98/\\xe5\\xa4\\x9a\\xe7\\xad\\xbe\\xe9\\x92\\xb1\\xe5\\x8c\\x85.sol\":2448:2449  i */\n      dup4\n        /* \"solidity\\xe9\\x87\\x91\\xe8\\x9e\\x8d\\xe5\\x92\\x8c\\xe6\\x94\\xaf\\xe4\\xbb\\x98/\\xe5\\xa4\\x9a\\xe7\\xad\\xbe\\xe9\\x92\\xb1\\xe5\\x8c\\x85.sol\":2441:2450  owners[i] */\n      dup2\n      sload\n      dup2\n      lt\n      tag_117\n      jumpi\n      tag_118\n      tag_77\n      jump\t// in\n    tag_118:\n    tag_117:\n      swap1\n      0x00\n      mstore\n      keccak256(0x00, 0x20)\n      add\n      0x00\n      swap1\n      sload\n      swap1\n      0x0100\n      exp\n      swap1\n      div\n      0xffffffffffffffffffffffffffffffffffffffff\n      and\n        /* \"solidity\\xe9\\x87\\x91\\xe8\\x9e\\x8d\\xe5\\x92\\x8c\\xe6\\x94\\xaf\\xe4\\xbb\\x98/\\xe5\\xa4\\x9a\\xe7\\xad\\xbe\\xe9\\x92\\xb1\\xe5\\x8c\\x85.sol\":2426:2451  approved[tsId][owners[i]] */\n      0xffffffffffffffffffffffffffffffffffffffff\n      and\n      0xffffffffffffffffffffffffffffffffffffffff\n      and\n      dup2\n      mstore\n      0x20\n      add\n      swap1\n      dup2\n      mstore\n      0x20\n      add\n      0x00\n      keccak256\n      0x00\n      swap1\n      sload\n      swap1\n      0x0100\n      exp\n      swap1\n      div\n      0xff\n      and\n        /* \"solidity\\xe9\\x87\\x91\\xe8\\x9e\\x8d\\xe5\\x92\\x8c\\xe6\\x94\\xaf\\xe4\\xbb\\x98/\\xe5\\xa4\\x9a\\xe7\\xad\\xbe\\xe9\\x92\\xb1\\xe5\\x8c\\x85.sol\":2423:2498  if(approved[tsId][owners[i]]) {... */\n      iszero\n      tag_120\n      jumpi\n        /* \"solidity\\xe9\\x87\\x91\\xe8\\x9e\\x8d\\xe5\\x92\\x8c\\xe6\\x94\\xaf\\xe4\\xbb\\x98/\\xe5\\xa4\\x9a\\xe7\\xad\\xbe\\xe9\\x92\\xb1\\xe5\\x8c\\x85.sol\":2481:2482  1 */\n      0x01\n        /* \"solidity\\xe9\\x87\\x91\\xe8\\x9e\\x8d\\xe5\\x92\\x8c\\xe6\\x94\\xaf\\xe4\\xbb\\x98/\\xe5\\xa4\\x9a\\xe7\\xad\\xbe\\xe9\\x92\\xb1\\xe5\\x8c\\x85.sol\":2472:2482  count += 1 */\n      dup3\n      tag_121\n      swap2\n      swap1\n      tag_122\n      jump\t// in\n    tag_121:\n      swap2\n      pop\n        /* \"solidity\\xe9\\x87\\x91\\xe8\\x9e\\x8d\\xe5\\x92\\x8c\\xe6\\x94\\xaf\\xe4\\xbb\\x98/\\xe5\\xa4\\x9a\\xe7\\xad\\xbe\\xe9\\x92\\xb1\\xe5\\x8c\\x85.sol\":2423:2498  if(approved[tsId][owners[i]]) {... */\n    tag_120:\n        /* \"solidity\\xe9\\x87\\x91\\xe8\\x9e\\x8d\\xe5\\x92\\x8c\\xe6\\x94\\xaf\\xe4\\xbb\\x98/\\xe5\\xa4\\x9a\\xe7\\xad\\xbe\\xe9\\x92\\xb1\\xe5\\x8c\\x85.sol\":2403:2406  i++ */\n      dup1\n      dup1\n      0x01\n      add\n      swap2\n      pop\n      pop\n        /* \"solidity\\xe9\\x87\\x91\\xe8\\x9e\\x8d\\xe5\\x92\\x8c\\xe6\\x94\\xaf\\xe4\\xbb\\x98/\\xe5\\xa4\\x9a\\xe7\\xad\\xbe\\xe9\\x92\\xb1\\xe5\\x8c\\x85.sol\":2369:2509  for(uint i = 0;i < owners.length; i++) {... */\n      jump(tag_114)\n    tag_115:\n      pop\n        /* \"solidity\\xe9\\x87\\x91\\xe8\\x9e\\x8d\\xe5\\x92\\x8c\\xe6\\x94\\xaf\\xe4\\xbb\\x98/\\xe5\\xa4\\x9a\\xe7\\xad\\xbe\\xe9\\x92\\xb1\\xe5\\x8c\\x85.sol\":2536:2544  required */\n      sload(0x02)\n        /* \"solidity\\xe9\\x87\\x91\\xe8\\x9e\\x8d\\xe5\\x92\\x8c\\xe6\\x94\\xaf\\xe4\\xbb\\x98/\\xe5\\xa4\\x9a\\xe7\\xad\\xbe\\xe9\\x92\\xb1\\xe5\\x8c\\x85.sol\":2527:2532  count */\n      dup2\n        /* \"solidity\\xe9\\x87\\x91\\xe8\\x9e\\x8d\\xe5\\x92\\x8c\\xe6\\x94\\xaf\\xe4\\xbb\\x98/\\xe5\\xa4\\x9a\\xe7\\xad\\xbe\\xe9\\x92\\xb1\\xe5\\x8c\\x85.sol\":2527:2544  count >= required */\n      lt\n      iszero\n        /* \"solidity\\xe9\\x87\\x91\\xe8\\x9e\\x8d\\xe5\\x92\\x8c\\xe6\\x94\\xaf\\xe4\\xbb\\x98/\\xe5\\xa4\\x9a\\xe7\\xad\\xbe\\xe9\\x92\\xb1\\xe5\\x8c\\x85.sol\":2519:2570  require(count >= required , \"approvals < required\") */\n      tag_123\n      jumpi\n      mload(0x40)\n      0x08c379a000000000000000000000000000000000000000000000000000000000\n      dup2\n      mstore\n      0x04\n      add\n      tag_124\n      swap1\n      tag_125\n      jump\t// in\n    tag_124:\n      mload(0x40)\n      dup1\n      swap2\n      sub\n      swap1\n      revert\n    tag_123:\n        /* \"solidity\\xe9\\x87\\x91\\xe8\\x9e\\x8d\\xe5\\x92\\x8c\\xe6\\x94\\xaf\\xe4\\xbb\\x98/\\xe5\\xa4\\x9a\\xe7\\xad\\xbe\\xe9\\x92\\xb1\\xe5\\x8c\\x85.sol\":3276:3307  Transaction storage transaction */\n      0x00\n        /* \"solidity\\xe9\\x87\\x91\\xe8\\x9e\\x8d\\xe5\\x92\\x8c\\xe6\\x94\\xaf\\xe4\\xbb\\x98/\\xe5\\xa4\\x9a\\xe7\\xad\\xbe\\xe9\\x92\\xb1\\xe5\\x8c\\x85.sol\":3310:3322  transactions */\n      0x03\n        /* \"solidity\\xe9\\x87\\x91\\xe8\\x9e\\x8d\\xe5\\x92\\x8c\\xe6\\x94\\xaf\\xe4\\xbb\\x98/\\xe5\\xa4\\x9a\\xe7\\xad\\xbe\\xe9\\x92\\xb1\\xe5\\x8c\\x85.sol\":3323:3327  tsId */\n      dup7\n        /* \"solidity\\xe9\\x87\\x91\\xe8\\x9e\\x8d\\xe5\\x92\\x8c\\xe6\\x94\\xaf\\xe4\\xbb\\x98/\\xe5\\xa4\\x9a\\xe7\\xad\\xbe\\xe9\\x92\\xb1\\xe5\\x8c\\x85.sol\":3310:3328  transactions[tsId] */\n      dup2\n      sload\n      dup2\n      lt\n      tag_127\n      jumpi\n      tag_128\n      tag_77\n      jump\t// in\n    tag_128:\n    tag_127:\n      swap1\n      0x00\n      mstore\n      keccak256(0x00, 0x20)\n      swap1\n      0x04\n      mul\n      add\n        /* \"solidity\\xe9\\x87\\x91\\xe8\\x9e\\x8d\\xe5\\x92\\x8c\\xe6\\x94\\xaf\\xe4\\xbb\\x98/\\xe5\\xa4\\x9a\\xe7\\xad\\xbe\\xe9\\x92\\xb1\\xe5\\x8c\\x85.sol\":3276:3328  Transaction storage transaction = transactions[tsId] */\n      swap1\n      pop\n        /* \"solidity\\xe9\\x87\\x91\\xe8\\x9e\\x8d\\xe5\\x92\\x8c\\xe6\\x94\\xaf\\xe4\\xbb\\x98/\\xe5\\xa4\\x9a\\xe7\\xad\\xbe\\xe9\\x92\\xb1\\xe5\\x8c\\x85.sol\":3366:3370  true */\n      0x01\n        /* \"solidity\\xe9\\x87\\x91\\xe8\\x9e\\x8d\\xe5\\x92\\x8c\\xe6\\x94\\xaf\\xe4\\xbb\\x98/\\xe5\\xa4\\x9a\\xe7\\xad\\xbe\\xe9\\x92\\xb1\\xe5\\x8c\\x85.sol\":3343:3354  transaction */\n      dup2\n        /* \"solidity\\xe9\\x87\\x91\\xe8\\x9e\\x8d\\xe5\\x92\\x8c\\xe6\\x94\\xaf\\xe4\\xbb\\x98/\\xe5\\xa4\\x9a\\xe7\\xad\\xbe\\xe9\\x92\\xb1\\xe5\\x8c\\x85.sol\":3343:3363  transaction.exectued */\n      0x03\n      add\n      0x00\n        /* \"solidity\\xe9\\x87\\x91\\xe8\\x9e\\x8d\\xe5\\x92\\x8c\\xe6\\x94\\xaf\\xe4\\xbb\\x98/\\xe5\\xa4\\x9a\\xe7\\xad\\xbe\\xe9\\x92\\xb1\\xe5\\x8c\\x85.sol\":3343:3370  transaction.exectued = true */\n      0x0100\n      exp\n      dup2\n      sload\n      dup2\n      0xff\n      mul\n      not\n      and\n      swap1\n      dup4\n      iszero\n      iszero\n      mul\n      or\n      swap1\n      sstore\n      pop\n        /* \"solidity\\xe9\\x87\\x91\\xe8\\x9e\\x8d\\xe5\\x92\\x8c\\xe6\\x94\\xaf\\xe4\\xbb\\x98/\\xe5\\xa4\\x9a\\xe7\\xad\\xbe\\xe9\\x92\\xb1\\xe5\\x8c\\x85.sol\":3388:3400  bool success */\n      0x00\n        /* \"solidity\\xe9\\x87\\x91\\xe8\\x9e\\x8d\\xe5\\x92\\x8c\\xe6\\x94\\xaf\\xe4\\xbb\\x98/\\xe5\\xa4\\x9a\\xe7\\xad\\xbe\\xe9\\x92\\xb1\\xe5\\x8c\\x85.sol\":3405:3416  transaction */\n      dup2\n        /* \"solidity\\xe9\\x87\\x91\\xe8\\x9e\\x8d\\xe5\\x92\\x8c\\xe6\\x94\\xaf\\xe4\\xbb\\x98/\\xe5\\xa4\\x9a\\xe7\\xad\\xbe\\xe9\\x92\\xb1\\xe5\\x8c\\x85.sol\":3405:3419  transaction.to */\n      0x00\n      add\n      0x00\n      swap1\n      sload\n      swap1\n      0x0100\n      exp\n      swap1\n      div\n      0xffffffffffffffffffffffffffffffffffffffff\n      and\n        /* \"solidity\\xe9\\x87\\x91\\xe8\\x9e\\x8d\\xe5\\x92\\x8c\\xe6\\x94\\xaf\\xe4\\xbb\\x98/\\xe5\\xa4\\x9a\\xe7\\xad\\xbe\\xe9\\x92\\xb1\\xe5\\x8c\\x85.sol\":3405:3424  transaction.to.call */\n      0xffffffffffffffffffffffffffffffffffffffff\n      and\n        /* \"solidity\\xe9\\x87\\x91\\xe8\\x9e\\x8d\\xe5\\x92\\x8c\\xe6\\x94\\xaf\\xe4\\xbb\\x98/\\xe5\\xa4\\x9a\\xe7\\xad\\xbe\\xe9\\x92\\xb1\\xe5\\x8c\\x85.sol\":3432:3443  transaction */\n      dup3\n        /* \"solidity\\xe9\\x87\\x91\\xe8\\x9e\\x8d\\xe5\\x92\\x8c\\xe6\\x94\\xaf\\xe4\\xbb\\x98/\\xe5\\xa4\\x9a\\xe7\\xad\\xbe\\xe9\\x92\\xb1\\xe5\\x8c\\x85.sol\":3432:3450  transaction.amount */\n      0x01\n      add\n      sload\n        /* \"solidity\\xe9\\x87\\x91\\xe8\\x9e\\x8d\\xe5\\x92\\x8c\\xe6\\x94\\xaf\\xe4\\xbb\\x98/\\xe5\\xa4\\x9a\\xe7\\xad\\xbe\\xe9\\x92\\xb1\\xe5\\x8c\\x85.sol\":3452:3463  transaction */\n      dup4\n        /* \"solidity\\xe9\\x87\\x91\\xe8\\x9e\\x8d\\xe5\\x92\\x8c\\xe6\\x94\\xaf\\xe4\\xbb\\x98/\\xe5\\xa4\\x9a\\xe7\\xad\\xbe\\xe9\\x92\\xb1\\xe5\\x8c\\x85.sol\":3452:3468  transaction.data */\n      0x02\n      add\n        /* \"solidity\\xe9\\x87\\x91\\xe8\\x9e\\x8d\\xe5\\x92\\x8c\\xe6\\x94\\xaf\\xe4\\xbb\\x98/\\xe5\\xa4\\x9a\\xe7\\xad\\xbe\\xe9\\x92\\xb1\\xe5\\x8c\\x85.sol\":3405:3469  transaction.to.call{value: transaction.amount}(transaction.data) */\n      mload(0x40)\n      tag_130\n      swap2\n      swap1\n      tag_131\n      jump\t// in\n    tag_130:\n      0x00\n      mload(0x40)\n      dup1\n      dup4\n      sub\n      dup2\n      dup6\n      dup8\n      gas\n      call\n      swap3\n      pop\n      pop\n      pop\n      returndatasize\n      dup1\n      0x00\n      dup2\n      eq\n      tag_134\n      jumpi\n      mload(0x40)\n      swap2\n      pop\n      and(add(returndatasize, 0x3f), not(0x1f))\n      dup3\n      add\n      0x40\n      mstore\n      returndatasize\n      dup3\n      mstore\n      returndatasize\n      0x00\n      0x20\n      dup5\n      add\n      returndatacopy\n      jump(tag_133)\n    tag_134:\n      0x60\n      swap2\n      pop\n    tag_133:\n      pop\n        /* \"solidity\\xe9\\x87\\x91\\xe8\\x9e\\x8d\\xe5\\x92\\x8c\\xe6\\x94\\xaf\\xe4\\xbb\\x98/\\xe5\\xa4\\x9a\\xe7\\xad\\xbe\\xe9\\x92\\xb1\\xe5\\x8c\\x85.sol\":3387:3469  (bool success,) = transaction.to.call{value: transaction.amount}(transaction.data) */\n      pop\n      swap1\n      pop\n        /* \"solidity\\xe9\\x87\\x91\\xe8\\x9e\\x8d\\xe5\\x92\\x8c\\xe6\\x94\\xaf\\xe4\\xbb\\x98/\\xe5\\xa4\\x9a\\xe7\\xad\\xbe\\xe9\\x92\\xb1\\xe5\\x8c\\x85.sol\":3492:3499  success */\n      dup1\n        /* \"solidity\\xe9\\x87\\x91\\xe8\\x9e\\x8d\\xe5\\x92\\x8c\\xe6\\x94\\xaf\\xe4\\xbb\\x98/\\xe5\\xa4\\x9a\\xe7\\xad\\xbe\\xe9\\x92\\xb1\\xe5\\x8c\\x85.sol\":3484:3518  require(success, \"execute failed\") */\n      tag_135\n      jumpi\n      mload(0x40)\n      0x08c379a000000000000000000000000000000000000000000000000000000000\n      dup2\n      mstore\n      0x04\n      add\n      tag_136\n      swap1\n      tag_137\n      jump\t// in\n    tag_136:\n      mload(0x40)\n      dup1\n      swap2\n      sub\n      swap1\n      revert\n    tag_135:\n        /* \"solidity\\xe9\\x87\\x91\\xe8\\x9e\\x8d\\xe5\\x92\\x8c\\xe6\\x94\\xaf\\xe4\\xbb\\x98/\\xe5\\xa4\\x9a\\xe7\\xad\\xbe\\xe9\\x92\\xb1\\xe5\\x8c\\x85.sol\":3546:3556  msg.sender */\n      caller\n        /* \"solidity\\xe9\\x87\\x91\\xe8\\x9e\\x8d\\xe5\\x92\\x8c\\xe6\\x94\\xaf\\xe4\\xbb\\x98/\\xe5\\xa4\\x9a\\xe7\\xad\\xbe\\xe9\\x92\\xb1\\xe5\\x8c\\x85.sol\":3538:3562  Exected(msg.sender,tsId) */\n      0xffffffffffffffffffffffffffffffffffffffff\n      and\n      0xd1d68588e7da77963c3e39aa7bcbb89032f60b791e38da88dd815072205b3642\n        /* \"solidity\\xe9\\x87\\x91\\xe8\\x9e\\x8d\\xe5\\x92\\x8c\\xe6\\x94\\xaf\\xe4\\xbb\\x98/\\xe5\\xa4\\x9a\\xe7\\xad\\xbe\\xe9\\x92\\xb1\\xe5\\x8c\\x85.sol\":3557:3561  tsId */\n      dup9\n        /* \"solidity\\xe9\\x87\\x91\\xe8\\x9e\\x8d\\xe5\\x92\\x8c\\xe6\\x94\\xaf\\xe4\\xbb\\x98/\\xe5\\xa4\\x9a\\xe7\\xad\\xbe\\xe9\\x92\\xb1\\xe5\\x8c\\x85.sol\":3538:3562  Exected(msg.sender,tsId) */\n      mload(0x40)\n      tag_138\n      swap2\n      swap1\n      tag_16\n      jump\t// in\n    tag_138:\n      mload(0x40)\n      dup1\n      swap2\n      sub\n      swap1\n      log2\n        /* \"solidity\\xe9\\x87\\x91\\xe8\\x9e\\x8d\\xe5\\x92\\x8c\\xe6\\x94\\xaf\\xe4\\xbb\\x98/\\xe5\\xa4\\x9a\\xe7\\xad\\xbe\\xe9\\x92\\xb1\\xe5\\x8c\\x85.sol\":3261:3574  {... */\n      pop\n      pop\n        /* \"solidity\\xe9\\x87\\x91\\xe8\\x9e\\x8d\\xe5\\x92\\x8c\\xe6\\x94\\xaf\\xe4\\xbb\\x98/\\xe5\\xa4\\x9a\\xe7\\xad\\xbe\\xe9\\x92\\xb1\\xe5\\x8c\\x85.sol\":2337:2590  {... */\n      pop\n        /* \"solidity\\xe9\\x87\\x91\\xe8\\x9e\\x8d\\xe5\\x92\\x8c\\xe6\\x94\\xaf\\xe4\\xbb\\x98/\\xe5\\xa4\\x9a\\xe7\\xad\\xbe\\xe9\\x92\\xb1\\xe5\\x8c\\x85.sol\":2272:2273  _ */\n      pop\n        /* \"solidity\\xe9\\x87\\x91\\xe8\\x9e\\x8d\\xe5\\x92\\x8c\\xe6\\x94\\xaf\\xe4\\xbb\\x98/\\xe5\\xa4\\x9a\\xe7\\xad\\xbe\\xe9\\x92\\xb1\\xe5\\x8c\\x85.sol\":2050:2051  _ */\n      pop\n        /* \"solidity\\xe9\\x87\\x91\\xe8\\x9e\\x8d\\xe5\\x92\\x8c\\xe6\\x94\\xaf\\xe4\\xbb\\x98/\\xe5\\xa4\\x9a\\xe7\\xad\\xbe\\xe9\\x92\\xb1\\xe5\\x8c\\x85.sol\":2151:2152  _ */\n      pop\n        /* \"solidity\\xe9\\x87\\x91\\xe8\\x9e\\x8d\\xe5\\x92\\x8c\\xe6\\x94\\xaf\\xe4\\xbb\\x98/\\xe5\\xa4\\x9a\\xe7\\xad\\xbe\\xe9\\x92\\xb1\\xe5\\x8c\\x85.sol\":3101:3574  function execute(uint tsId) external ... */\n      pop\n      jump\t// out\n        /* \"#utility.yul\":7:84   */\n    tag_139:\n        /* \"#utility.yul\":44:51   */\n      0x00\n        /* \"#utility.yul\":73:78   */\n      dup2\n        /* \"#utility.yul\":62:78   */\n      swap1\n      pop\n        /* \"#utility.yul\":7:84   */\n      swap2\n      swap1\n      pop\n      jump\t// out\n        /* \"#utility.yul\":90:208   */\n    tag_140:\n        /* \"#utility.yul\":177:201   */\n      tag_196\n        /* \"#utility.yul\":195:200   */\n      dup2\n        /* \"#utility.yul\":177:201   */\n      tag_139\n      jump\t// in\n    tag_196:\n        /* \"#utility.yul\":172:175   */\n      dup3\n        /* \"#utility.yul\":165:202   */\n      mstore\n        /* \"#utility.yul\":90:208   */\n      pop\n      pop\n      jump\t// out\n        /* \"#utility.yul\":214:436   */\n    tag_16:\n        /* \"#utility.yul\":307:311   */\n      0x00\n        /* \"#utility.yul\":345:347   */\n      0x20\n        /* \"#utility.yul\":334:343   */\n      dup3\n        /* \"#utility.yul\":330:348   */\n      add\n        /* \"#utility.yul\":322:348   */\n      swap1\n      pop\n        /* \"#utility.yul\":358:429   */\n      tag_198\n        /* \"#utility.yul\":426:427   */\n      0x00\n        /* \"#utility.yul\":415:424   */\n      dup4\n        /* \"#utility.yul\":411:428   */\n      add\n        /* \"#utility.yul\":402:408   */\n      dup5\n        /* \"#utility.yul\":358:429   */\n      tag_140\n      jump\t// in\n    tag_198:\n        /* \"#utility.yul\":214:436   */\n      swap3\n      swap2\n      pop\n      pop\n      jump\t// out\n        /* \"#utility.yul\":523:640   */\n    tag_142:\n        /* \"#utility.yul\":632:633   */\n      0x00\n        /* \"#utility.yul\":629:630   */\n      0x00\n        /* \"#utility.yul\":622:634   */\n      revert\n        /* \"#utility.yul\":646:763   */\n    tag_143:\n        /* \"#utility.yul\":755:756   */\n      0x00\n        /* \"#utility.yul\":752:753   */\n      0x00\n        /* \"#utility.yul\":745:757   */\n      revert\n        /* \"#utility.yul\":769:891   */\n    tag_144:\n        /* \"#utility.yul\":842:866   */\n      tag_203\n        /* \"#utility.yul\":860:865   */\n      dup2\n        /* \"#utility.yul\":842:866   */\n      tag_139\n      jump\t// in\n    tag_203:\n        /* \"#utility.yul\":835:840   */\n      dup2\n        /* \"#utility.yul\":832:867   */\n      eq\n        /* \"#utility.yul\":822:885   */\n      tag_204\n      jumpi\n        /* \"#utility.yul\":881:882   */\n      0x00\n        /* \"#utility.yul\":878:879   */\n      0x00\n        /* \"#utility.yul\":871:883   */\n      revert\n        /* \"#utility.yul\":822:885   */\n    tag_204:\n        /* \"#utility.yul\":769:891   */\n      pop\n      jump\t// out\n        /* \"#utility.yul\":897:1036   */\n    tag_145:\n        /* \"#utility.yul\":943:948   */\n      0x00\n        /* \"#utility.yul\":981:987   */\n      dup2\n        /* \"#utility.yul\":968:988   */\n      calldataload\n        /* \"#utility.yul\":959:988   */\n      swap1\n      pop\n        /* \"#utility.yul\":997:1030   */\n      tag_206\n        /* \"#utility.yul\":1024:1029   */\n      dup2\n        /* \"#utility.yul\":997:1030   */\n      tag_144\n      jump\t// in\n    tag_206:\n        /* \"#utility.yul\":897:1036   */\n      swap3\n      swap2\n      pop\n      pop\n      jump\t// out\n        /* \"#utility.yul\":1042:1371   */\n    tag_20:\n        /* \"#utility.yul\":1101:1107   */\n      0x00\n        /* \"#utility.yul\":1150:1152   */\n      0x20\n        /* \"#utility.yul\":1138:1147   */\n      dup3\n        /* \"#utility.yul\":1129:1136   */\n      dup5\n        /* \"#utility.yul\":1125:1148   */\n      sub\n        /* \"#utility.yul\":1121:1153   */\n      slt\n        /* \"#utility.yul\":1118:1237   */\n      iszero\n      tag_208\n      jumpi\n        /* \"#utility.yul\":1156:1235   */\n      tag_209\n      tag_142\n      jump\t// in\n    tag_209:\n        /* \"#utility.yul\":1118:1237   */\n    tag_208:\n        /* \"#utility.yul\":1276:1277   */\n      0x00\n        /* \"#utility.yul\":1301:1354   */\n      tag_210\n        /* \"#utility.yul\":1346:1353   */\n      dup5\n        /* \"#utility.yul\":1337:1343   */\n      dup3\n        /* \"#utility.yul\":1326:1335   */\n      dup6\n        /* \"#utility.yul\":1322:1344   */\n      add\n        /* \"#utility.yul\":1301:1354   */\n      tag_145\n      jump\t// in\n    tag_210:\n        /* \"#utility.yul\":1291:1354   */\n      swap2\n      pop\n        /* \"#utility.yul\":1247:1364   */\n      pop\n        /* \"#utility.yul\":1042:1371   */\n      swap3\n      swap2\n      pop\n      pop\n      jump\t// out\n        /* \"#utility.yul\":1377:1503   */\n    tag_146:\n        /* \"#utility.yul\":1414:1421   */\n      0x00\n        /* \"#utility.yul\":1454:1496   */\n      0xffffffffffffffffffffffffffffffffffffffff\n        /* \"#utility.yul\":1447:1452   */\n      dup3\n        /* \"#utility.yul\":1443:1497   */\n      and\n        /* \"#utility.yul\":1432:1497   */\n      swap1\n      pop\n        /* \"#utility.yul\":1377:1503   */\n      swap2\n      swap1\n      pop\n      jump\t// out\n        /* \"#utility.yul\":1509:1605   */\n    tag_147:\n        /* \"#utility.yul\":1546:1553   */\n      0x00\n        /* \"#utility.yul\":1575:1599   */\n      tag_213\n        /* \"#utility.yul\":1593:1598   */\n      dup3\n        /* \"#utility.yul\":1575:1599   */\n      tag_146\n      jump\t// in\n    tag_213:\n        /* \"#utility.yul\":1564:1599   */\n      swap1\n      pop\n        /* \"#utility.yul\":1509:1605   */\n      swap2\n      swap1\n      pop\n      jump\t// out\n        /* \"#utility.yul\":1611:1729   */\n    tag_148:\n        /* \"#utility.yul\":1698:1722   */\n      tag_215\n        /* \"#utility.yul\":1716:1721   */\n      dup2\n        /* \"#utility.yul\":1698:1722   */\n      tag_147\n      jump\t// in\n    tag_215:\n        /* \"#utility.yul\":1693:1696   */\n      dup3\n        /* \"#utility.yul\":1686:1723   */\n      mstore\n        /* \"#utility.yul\":1611:1729   */\n      pop\n      pop\n      jump\t// out\n        /* \"#utility.yul\":1735:1957   */\n    tag_23:\n        /* \"#utility.yul\":1828:1832   */\n      0x00\n        /* \"#utility.yul\":1866:1868   */\n      0x20\n        /* \"#utility.yul\":1855:1864   */\n      dup3\n        /* \"#utility.yul\":1851:1869   */\n      add\n        /* \"#utility.yul\":1843:1869   */\n      swap1\n      pop\n        /* \"#utility.yul\":1879:1950   */\n      tag_217\n        /* \"#utility.yul\":1947:1948   */\n      0x00\n        /* \"#utility.yul\":1936:1945   */\n      dup4\n        /* \"#utility.yul\":1932:1949   */\n      add\n        /* \"#utility.yul\":1923:1929   */\n      dup5\n        /* \"#utility.yul\":1879:1950   */\n      tag_148\n      jump\t// in\n    tag_217:\n        /* \"#utility.yul\":1735:1957   */\n      swap3\n      swap2\n      pop\n      pop\n      jump\t// out\n        /* \"#utility.yul\":1963:2085   */\n    tag_149:\n        /* \"#utility.yul\":2036:2060   */\n      tag_219\n        /* \"#utility.yul\":2054:2059   */\n      dup2\n        /* \"#utility.yul\":2036:2060   */\n      tag_147\n      jump\t// in\n    tag_219:\n        /* \"#utility.yul\":2029:2034   */\n      dup2\n        /* \"#utility.yul\":2026:2061   */\n      eq\n        /* \"#utility.yul\":2016:2079   */\n      tag_220\n      jumpi\n        /* \"#utility.yul\":2075:2076   */\n      0x00\n        /* \"#utility.yul\":2072:2073   */\n      0x00\n        /* \"#utility.yul\":2065:2077   */\n      revert\n        /* \"#utility.yul\":2016:2079   */\n    tag_220:\n        /* \"#utility.yul\":1963:2085   */\n      pop\n      jump\t// out\n        /* \"#utility.yul\":2091:2230   */\n    tag_150:\n        /* \"#utility.yul\":2137:2142   */\n      0x00\n        /* \"#utility.yul\":2175:2181   */\n      dup2\n        /* \"#utility.yul\":2162:2182   */\n      calldataload\n        /* \"#utility.yul\":2153:2182   */\n      swap1\n      pop\n        /* \"#utility.yul\":2191:2224   */\n      tag_222\n        /* \"#utility.yul\":2218:2223   */\n      dup2\n        /* \"#utility.yul\":2191:2224   */\n      tag_149\n      jump\t// in\n    tag_222:\n        /* \"#utility.yul\":2091:2230   */\n      swap3\n      swap2\n      pop\n      pop\n      jump\t// out\n        /* \"#utility.yul\":2236:2353   */\n    tag_151:\n        /* \"#utility.yul\":2345:2346   */\n      0x00\n        /* \"#utility.yul\":2342:2343   */\n      0x00\n        /* \"#utility.yul\":2335:2347   */\n      revert\n        /* \"#utility.yul\":2359:2476   */\n    tag_152:\n        /* \"#utility.yul\":2468:2469   */\n      0x00\n        /* \"#utility.yul\":2465:2466   */\n      0x00\n        /* \"#utility.yul\":2458:2470   */\n      revert\n        /* \"#utility.yul\":2482:2599   */\n    tag_153:\n        /* \"#utility.yul\":2591:2592   */\n      0x00\n        /* \"#utility.yul\":2588:2589   */\n      0x00\n        /* \"#utility.yul\":2581:2593   */\n      revert\n        /* \"#utility.yul\":2618:3170   */\n    tag_154:\n        /* \"#utility.yul\":2675:2683   */\n      0x00\n        /* \"#utility.yul\":2685:2691   */\n      0x00\n        /* \"#utility.yul\":2735:2738   */\n      dup4\n        /* \"#utility.yul\":2728:2732   */\n      0x1f\n        /* \"#utility.yul\":2720:2726   */\n      dup5\n        /* \"#utility.yul\":2716:2733   */\n      add\n        /* \"#utility.yul\":2712:2739   */\n      slt\n        /* \"#utility.yul\":2702:2824   */\n      tag_227\n      jumpi\n        /* \"#utility.yul\":2743:2822   */\n      tag_228\n      tag_151\n      jump\t// in\n    tag_228:\n        /* \"#utility.yul\":2702:2824   */\n    tag_227:\n        /* \"#utility.yul\":2856:2862   */\n      dup3\n        /* \"#utility.yul\":2843:2863   */\n      calldataload\n        /* \"#utility.yul\":2833:2863   */\n      swap1\n      pop\n        /* \"#utility.yul\":2886:2904   */\n      0xffffffffffffffff\n        /* \"#utility.yul\":2878:2884   */\n      dup2\n        /* \"#utility.yul\":2875:2905   */\n      gt\n        /* \"#utility.yul\":2872:2989   */\n      iszero\n      tag_229\n      jumpi\n        /* \"#utility.yul\":2908:2987   */\n      tag_230\n      tag_152\n      jump\t// in\n    tag_230:\n        /* \"#utility.yul\":2872:2989   */\n    tag_229:\n        /* \"#utility.yul\":3022:3026   */\n      0x20\n        /* \"#utility.yul\":3014:3020   */\n      dup4\n        /* \"#utility.yul\":3010:3027   */\n      add\n        /* \"#utility.yul\":2998:3027   */\n      swap2\n      pop\n        /* \"#utility.yul\":3076:3079   */\n      dup4\n        /* \"#utility.yul\":3068:3072   */\n      0x01\n        /* \"#utility.yul\":3060:3066   */\n      dup3\n        /* \"#utility.yul\":3056:3073   */\n      mul\n        /* \"#utility.yul\":3046:3054   */\n      dup4\n        /* \"#utility.yul\":3042:3074   */\n      add\n        /* \"#utility.yul\":3039:3080   */\n      gt\n        /* \"#utility.yul\":3036:3164   */\n      iszero\n      tag_231\n      jumpi\n        /* \"#utility.yul\":3083:3162   */\n      tag_232\n      tag_153\n      jump\t// in\n    tag_232:\n        /* \"#utility.yul\":3036:3164   */\n    tag_231:\n        /* \"#utility.yul\":2618:3170   */\n      swap3\n      pop\n      swap3\n      swap1\n      pop\n      jump\t// out\n        /* \"#utility.yul\":3176:3993   */\n    tag_27:\n        /* \"#utility.yul\":3264:3270   */\n      0x00\n        /* \"#utility.yul\":3272:3278   */\n      0x00\n        /* \"#utility.yul\":3280:3286   */\n      0x00\n        /* \"#utility.yul\":3288:3294   */\n      0x00\n        /* \"#utility.yul\":3337:3339   */\n      0x60\n        /* \"#utility.yul\":3325:3334   */\n      dup6\n        /* \"#utility.yul\":3316:3323   */\n      dup8\n        /* \"#utility.yul\":3312:3335   */\n      sub\n        /* \"#utility.yul\":3308:3340   */\n      slt\n        /* \"#utility.yul\":3305:3424   */\n      iszero\n      tag_234\n      jumpi\n        /* \"#utility.yul\":3343:3422   */\n      tag_235\n      tag_142\n      jump\t// in\n    tag_235:\n        /* \"#utility.yul\":3305:3424   */\n    tag_234:\n        /* \"#utility.yul\":3463:3464   */\n      0x00\n        /* \"#utility.yul\":3488:3541   */\n      tag_236\n        /* \"#utility.yul\":3533:3540   */\n      dup8\n        /* \"#utility.yul\":3524:3530   */\n      dup3\n        /* \"#utility.yul\":3513:3522   */\n      dup9\n        /* \"#utility.yul\":3509:3531   */\n      add\n        /* \"#utility.yul\":3488:3541   */\n      tag_150\n      jump\t// in\n    tag_236:\n        /* \"#utility.yul\":3478:3541   */\n      swap5\n      pop\n        /* \"#utility.yul\":3434:3551   */\n      pop\n        /* \"#utility.yul\":3590:3592   */\n      0x20\n        /* \"#utility.yul\":3616:3669   */\n      tag_237\n        /* \"#utility.yul\":3661:3668   */\n      dup8\n        /* \"#utility.yul\":3652:3658   */\n      dup3\n        /* \"#utility.yul\":3641:3650   */\n      dup9\n        /* \"#utility.yul\":3637:3659   */\n      add\n        /* \"#utility.yul\":3616:3669   */\n      tag_145\n      jump\t// in\n    tag_237:\n        /* \"#utility.yul\":3606:3669   */\n      swap4\n      pop\n        /* \"#utility.yul\":3561:3679   */\n      pop\n        /* \"#utility.yul\":3746:3748   */\n      0x40\n        /* \"#utility.yul\":3735:3744   */\n      dup6\n        /* \"#utility.yul\":3731:3749   */\n      add\n        /* \"#utility.yul\":3718:3750   */\n      calldataload\n        /* \"#utility.yul\":3777:3795   */\n      0xffffffffffffffff\n        /* \"#utility.yul\":3769:3775   */\n      dup2\n        /* \"#utility.yul\":3766:3796   */\n      gt\n        /* \"#utility.yul\":3763:3880   */\n      iszero\n      tag_238\n      jumpi\n        /* \"#utility.yul\":3799:3878   */\n      tag_239\n      tag_143\n      jump\t// in\n    tag_239:\n        /* \"#utility.yul\":3763:3880   */\n    tag_238:\n        /* \"#utility.yul\":3912:3976   */\n      tag_240\n        /* \"#utility.yul\":3968:3975   */\n      dup8\n        /* \"#utility.yul\":3959:3965   */\n      dup3\n        /* \"#utility.yul\":3948:3957   */\n      dup9\n        /* \"#utility.yul\":3944:3966   */\n      add\n        /* \"#utility.yul\":3912:3976   */\n      tag_154\n      jump\t// in\n    tag_240:\n        /* \"#utility.yul\":3894:3976   */\n      swap3\n      pop\n      swap3\n      pop\n        /* \"#utility.yul\":3689:3986   */\n      pop\n        /* \"#utility.yul\":3176:3993   */\n      swap3\n      swap6\n      swap2\n      swap5\n      pop\n      swap3\n      pop\n      jump\t// out\n        /* \"#utility.yul\":3999:4328   */\n    tag_36:\n        /* \"#utility.yul\":4058:4064   */\n      0x00\n        /* \"#utility.yul\":4107:4109   */\n      0x20\n        /* \"#utility.yul\":4095:4104   */\n      dup3\n        /* \"#utility.yul\":4086:4093   */\n      dup5\n        /* \"#utility.yul\":4082:4105   */\n      sub\n        /* \"#utility.yul\":4078:4110   */\n      slt\n        /* \"#utility.yul\":4075:4194   */\n      iszero\n      tag_242\n      jumpi\n        /* \"#utility.yul\":4113:4192   */\n      tag_243\n      tag_142\n      jump\t// in\n    tag_243:\n        /* \"#utility.yul\":4075:4194   */\n    tag_242:\n        /* \"#utility.yul\":4233:4234   */\n      0x00\n        /* \"#utility.yul\":4258:4311   */\n      tag_244\n        /* \"#utility.yul\":4303:4310   */\n      dup5\n        /* \"#utility.yul\":4294:4300   */\n      dup3\n        /* \"#utility.yul\":4283:4292   */\n      dup6\n        /* \"#utility.yul\":4279:4301   */\n      add\n        /* \"#utility.yul\":4258:4311   */\n      tag_150\n      jump\t// in\n    tag_244:\n        /* \"#utility.yul\":4248:4311   */\n      swap2\n      pop\n        /* \"#utility.yul\":4204:4321   */\n      pop\n        /* \"#utility.yul\":3999:4328   */\n      swap3\n      swap2\n      pop\n      pop\n      jump\t// out\n        /* \"#utility.yul\":4334:4424   */\n    tag_155:\n        /* \"#utility.yul\":4368:4375   */\n      0x00\n        /* \"#utility.yul\":4411:4416   */\n      dup2\n        /* \"#utility.yul\":4404:4417   */\n      iszero\n        /* \"#utility.yul\":4397:4418   */\n      iszero\n        /* \"#utility.yul\":4386:4418   */\n      swap1\n      pop\n        /* \"#utility.yul\":4334:4424   */\n      swap2\n      swap1\n      pop\n      jump\t// out\n        /* \"#utility.yul\":4430:4539   */\n    tag_156:\n        /* \"#utility.yul\":4511:4532   */\n      tag_247\n        /* \"#utility.yul\":4526:4531   */\n      dup2\n        /* \"#utility.yul\":4511:4532   */\n      tag_155\n      jump\t// in\n    tag_247:\n        /* \"#utility.yul\":4506:4509   */\n      dup3\n        /* \"#utility.yul\":4499:4533   */\n      mstore\n        /* \"#utility.yul\":4430:4539   */\n      pop\n      pop\n      jump\t// out\n        /* \"#utility.yul\":4545:4755   */\n    tag_39:\n        /* \"#utility.yul\":4632:4636   */\n      0x00\n        /* \"#utility.yul\":4670:4672   */\n      0x20\n        /* \"#utility.yul\":4659:4668   */\n      dup3\n        /* \"#utility.yul\":4655:4673   */\n      add\n        /* \"#utility.yul\":4647:4673   */\n      swap1\n      pop\n        /* \"#utility.yul\":4683:4748   */\n      tag_249\n        /* \"#utility.yul\":4745:4746   */\n      0x00\n        /* \"#utility.yul\":4734:4743   */\n      dup4\n        /* \"#utility.yul\":4730:4747   */\n      add\n        /* \"#utility.yul\":4721:4727   */\n      dup5\n        /* \"#utility.yul\":4683:4748   */\n      tag_156\n      jump\t// in\n    tag_249:\n        /* \"#utility.yul\":4545:4755   */\n      swap3\n      swap2\n      pop\n      pop\n      jump\t// out\n        /* \"#utility.yul\":4761:5235   */\n    tag_43:\n        /* \"#utility.yul\":4829:4835   */\n      0x00\n        /* \"#utility.yul\":4837:4843   */\n      0x00\n        /* \"#utility.yul\":4886:4888   */\n      0x40\n        /* \"#utility.yul\":4874:4883   */\n      dup4\n        /* \"#utility.yul\":4865:4872   */\n      dup6\n        /* \"#utility.yul\":4861:4884   */\n      sub\n        /* \"#utility.yul\":4857:4889   */\n      slt\n        /* \"#utility.yul\":4854:4973   */\n      iszero\n      tag_251\n      jumpi\n        /* \"#utility.yul\":4892:4971   */\n      tag_252\n      tag_142\n      jump\t// in\n    tag_252:\n        /* \"#utility.yul\":4854:4973   */\n    tag_251:\n        /* \"#utility.yul\":5012:5013   */\n      0x00\n        /* \"#utility.yul\":5037:5090   */\n      tag_253\n        /* \"#utility.yul\":5082:5089   */\n      dup6\n        /* \"#utility.yul\":5073:5079   */\n      dup3\n        /* \"#utility.yul\":5062:5071   */\n      dup7\n        /* \"#utility.yul\":5058:5080   */\n      add\n        /* \"#utility.yul\":5037:5090   */\n      tag_145\n      jump\t// in\n    tag_253:\n        /* \"#utility.yul\":5027:5090   */\n      swap3\n      pop\n        /* \"#utility.yul\":4983:5100   */\n      pop\n        /* \"#utility.yul\":5139:5141   */\n      0x20\n        /* \"#utility.yul\":5165:5218   */\n      tag_254\n        /* \"#utility.yul\":5210:5217   */\n      dup6\n        /* \"#utility.yul\":5201:5207   */\n      dup3\n        /* \"#utility.yul\":5190:5199   */\n      dup7\n        /* \"#utility.yul\":5186:5208   */\n      add\n        /* \"#utility.yul\":5165:5218   */\n      tag_150\n      jump\t// in\n    tag_254:\n        /* \"#utility.yul\":5155:5218   */\n      swap2\n      pop\n        /* \"#utility.yul\":5110:5228   */\n      pop\n        /* \"#utility.yul\":4761:5235   */\n      swap3\n      pop\n      swap3\n      swap1\n      pop\n      jump\t// out\n        /* \"#utility.yul\":5241:5339   */\n    tag_157:\n        /* \"#utility.yul\":5292:5298   */\n      0x00\n        /* \"#utility.yul\":5326:5331   */\n      dup2\n        /* \"#utility.yul\":5320:5332   */\n      mload\n        /* \"#utility.yul\":5310:5332   */\n      swap1\n      pop\n        /* \"#utility.yul\":5241:5339   */\n      swap2\n      swap1\n      pop\n      jump\t// out\n        /* \"#utility.yul\":5345:5513   */\n    tag_158:\n        /* \"#utility.yul\":5428:5439   */\n      0x00\n        /* \"#utility.yul\":5462:5468   */\n      dup3\n        /* \"#utility.yul\":5457:5460   */\n      dup3\n        /* \"#utility.yul\":5450:5469   */\n      mstore\n        /* \"#utility.yul\":5502:5506   */\n      0x20\n        /* \"#utility.yul\":5497:5500   */\n      dup3\n        /* \"#utility.yul\":5493:5507   */\n      add\n        /* \"#utility.yul\":5478:5507   */\n      swap1\n      pop\n        /* \"#utility.yul\":5345:5513   */\n      swap3\n      swap2\n      pop\n      pop\n      jump\t// out\n        /* \"#utility.yul\":5519:5658   */\n    tag_159:\n        /* \"#utility.yul\":5608:5614   */\n      dup3\n        /* \"#utility.yul\":5603:5606   */\n      dup2\n        /* \"#utility.yul\":5598:5601   */\n      dup4\n        /* \"#utility.yul\":5592:5615   */\n      mcopy\n        /* \"#utility.yul\":5649:5650   */\n      0x00\n        /* \"#utility.yul\":5640:5646   */\n      dup4\n        /* \"#utility.yul\":5635:5638   */\n      dup4\n        /* \"#utility.yul\":5631:5647   */\n      add\n        /* \"#utility.yul\":5624:5651   */\n      mstore\n        /* \"#utility.yul\":5519:5658   */\n      pop\n      pop\n      pop\n      jump\t// out\n        /* \"#utility.yul\":5664:5766   */\n    tag_160:\n        /* \"#utility.yul\":5705:5711   */\n      0x00\n        /* \"#utility.yul\":5756:5758   */\n      0x1f\n        /* \"#utility.yul\":5752:5759   */\n      not\n        /* \"#utility.yul\":5747:5749   */\n      0x1f\n        /* \"#utility.yul\":5740:5745   */\n      dup4\n        /* \"#utility.yul\":5736:5750   */\n      add\n        /* \"#utility.yul\":5732:5760   */\n      and\n        /* \"#utility.yul\":5722:5760   */\n      swap1\n      pop\n        /* \"#utility.yul\":5664:5766   */\n      swap2\n      swap1\n      pop\n      jump\t// out\n        /* \"#utility.yul\":5772:6145   */\n    tag_161:\n        /* \"#utility.yul\":5858:5861   */\n      0x00\n        /* \"#utility.yul\":5886:5924   */\n      tag_260\n        /* \"#utility.yul\":5918:5923   */\n      dup3\n        /* \"#utility.yul\":5886:5924   */\n      tag_157\n      jump\t// in\n    tag_260:\n        /* \"#utility.yul\":5940:6010   */\n      tag_261\n        /* \"#utility.yul\":6003:6009   */\n      dup2\n        /* \"#utility.yul\":5998:6001   */\n      dup6\n        /* \"#utility.yul\":5940:6010   */\n      tag_158\n      jump\t// in\n    tag_261:\n        /* \"#utility.yul\":5933:6010   */\n      swap4\n      pop\n        /* \"#utility.yul\":6019:6084   */\n      tag_262\n        /* \"#utility.yul\":6077:6083   */\n      dup2\n        /* \"#utility.yul\":6072:6075   */\n      dup6\n        /* \"#utility.yul\":6065:6069   */\n      0x20\n        /* \"#utility.yul\":6058:6063   */\n      dup7\n        /* \"#utility.yul\":6054:6070   */\n      add\n        /* \"#utility.yul\":6019:6084   */\n      tag_159\n      jump\t// in\n    tag_262:\n        /* \"#utility.yul\":6109:6138   */\n      tag_263\n        /* \"#utility.yul\":6131:6137   */\n      dup2\n        /* \"#utility.yul\":6109:6138   */\n      tag_160\n      jump\t// in\n    tag_263:\n        /* \"#utility.yul\":6104:6107   */\n      dup5\n        /* \"#utility.yul\":6100:6139   */\n      add\n        /* \"#utility.yul\":6093:6139   */\n      swap2\n      pop\n        /* \"#utility.yul\":5862:6145   */\n      pop\n        /* \"#utility.yul\":5772:6145   */\n      swap3\n      swap2\n      pop\n      pop\n      jump\t// out\n        /* \"#utility.yul\":6151:6779   */\n    tag_51:\n        /* \"#utility.yul\":6340:6344   */\n      0x00\n        /* \"#utility.yul\":6378:6381   */\n      0x80\n        /* \"#utility.yul\":6367:6376   */\n      dup3\n        /* \"#utility.yul\":6363:6382   */\n      add\n        /* \"#utility.yul\":6355:6382   */\n      swap1\n      pop\n        /* \"#utility.yul\":6392:6463   */\n      tag_265\n        /* \"#utility.yul\":6460:6461   */\n      0x00\n        /* \"#utility.yul\":6449:6458   */\n      dup4\n        /* \"#utility.yul\":6445:6462   */\n      add\n        /* \"#utility.yul\":6436:6442   */\n      dup8\n        /* \"#utility.yul\":6392:6463   */\n      tag_148\n      jump\t// in\n    tag_265:\n        /* \"#utility.yul\":6473:6545   */\n      tag_266\n        /* \"#utility.yul\":6541:6543   */\n      0x20\n        /* \"#utility.yul\":6530:6539   */\n      dup4\n        /* \"#utility.yul\":6526:6544   */\n      add\n        /* \"#utility.yul\":6517:6523   */\n      dup7\n        /* \"#utility.yul\":6473:6545   */\n      tag_140\n      jump\t// in\n    tag_266:\n        /* \"#utility.yul\":6592:6601   */\n      dup2\n        /* \"#utility.yul\":6586:6590   */\n      dup2\n        /* \"#utility.yul\":6582:6602   */\n      sub\n        /* \"#utility.yul\":6577:6579   */\n      0x40\n        /* \"#utility.yul\":6566:6575   */\n      dup4\n        /* \"#utility.yul\":6562:6580   */\n      add\n        /* \"#utility.yul\":6555:6603   */\n      mstore\n        /* \"#utility.yul\":6620:6696   */\n      tag_267\n        /* \"#utility.yul\":6691:6695   */\n      dup2\n        /* \"#utility.yul\":6682:6688   */\n      dup6\n        /* \"#utility.yul\":6620:6696   */\n      tag_161\n      jump\t// in\n    tag_267:\n        /* \"#utility.yul\":6612:6696   */\n      swap1\n      pop\n        /* \"#utility.yul\":6706:6772   */\n      tag_268\n        /* \"#utility.yul\":6768:6770   */\n      0x60\n        /* \"#utility.yul\":6757:6766   */\n      dup4\n        /* \"#utility.yul\":6753:6771   */\n      add\n        /* \"#utility.yul\":6744:6750   */\n      dup5\n        /* \"#utility.yul\":6706:6772   */\n      tag_156\n      jump\t// in\n    tag_268:\n        /* \"#utility.yul\":6151:6779   */\n      swap6\n      swap5\n      pop\n      pop\n      pop\n      pop\n      pop\n      jump\t// out\n        /* \"#utility.yul\":6785:6965   */\n    tag_162:\n        /* \"#utility.yul\":6833:6910   */\n      0x4e487b7100000000000000000000000000000000000000000000000000000000\n        /* \"#utility.yul\":6830:6831   */\n      0x00\n        /* \"#utility.yul\":6823:6911   */\n      mstore\n        /* \"#utility.yul\":6930:6934   */\n      0x41\n        /* \"#utility.yul\":6927:6928   */\n      0x04\n        /* \"#utility.yul\":6920:6935   */\n      mstore\n        /* \"#utility.yul\":6954:6958   */\n      0x24\n        /* \"#utility.yul\":6951:6952   */\n      0x00\n        /* \"#utility.yul\":6944:6959   */\n      revert\n        /* \"#utility.yul\":6971:7151   */\n    tag_163:\n        /* \"#utility.yul\":7019:7096   */\n      0x4e487b7100000000000000000000000000000000000000000000000000000000\n        /* \"#utility.yul\":7016:7017   */\n      0x00\n        /* \"#utility.yul\":7009:7097   */\n      mstore\n        /* \"#utility.yul\":7116:7120   */\n      0x22\n        /* \"#utility.yul\":7113:7114   */\n      0x04\n        /* \"#utility.yul\":7106:7121   */\n      mstore\n        /* \"#utility.yul\":7140:7144   */\n      0x24\n        /* \"#utility.yul\":7137:7138   */\n      0x00\n        /* \"#utility.yul\":7130:7145   */\n      revert\n        /* \"#utility.yul\":7157:7477   */\n    tag_87:\n        /* \"#utility.yul\":7201:7207   */\n      0x00\n        /* \"#utility.yul\":7238:7239   */\n      0x02\n        /* \"#utility.yul\":7232:7236   */\n      dup3\n        /* \"#utility.yul\":7228:7240   */\n      div\n        /* \"#utility.yul\":7218:7240   */\n      swap1\n      pop\n        /* \"#utility.yul\":7285:7286   */\n      0x01\n        /* \"#utility.yul\":7279:7283   */\n      dup3\n        /* \"#utility.yul\":7275:7287   */\n      and\n        /* \"#utility.yul\":7306:7324   */\n      dup1\n        /* \"#utility.yul\":7296:7377   */\n      tag_272\n      jumpi\n        /* \"#utility.yul\":7362:7366   */\n      0x7f\n        /* \"#utility.yul\":7354:7360   */\n      dup3\n        /* \"#utility.yul\":7350:7367   */\n      and\n        /* \"#utility.yul\":7340:7367   */\n      swap2\n      pop\n        /* \"#utility.yul\":7296:7377   */\n    tag_272:\n        /* \"#utility.yul\":7424:7426   */\n      0x20\n        /* \"#utility.yul\":7416:7422   */\n      dup3\n        /* \"#utility.yul\":7413:7427   */\n      lt\n        /* \"#utility.yul\":7393:7411   */\n      dup2\n        /* \"#utility.yul\":7390:7428   */\n      sub\n        /* \"#utility.yul\":7387:7471   */\n      tag_273\n      jumpi\n        /* \"#utility.yul\":7443:7461   */\n      tag_274\n      tag_163\n      jump\t// in\n    tag_274:\n        /* \"#utility.yul\":7387:7471   */\n    tag_273:\n        /* \"#utility.yul\":7208:7477   */\n      pop\n        /* \"#utility.yul\":7157:7477   */\n      swap2\n      swap1\n      pop\n      jump\t// out\n        /* \"#utility.yul\":7483:7623   */\n    tag_164:\n        /* \"#utility.yul\":7531:7535   */\n      0x00\n        /* \"#utility.yul\":7554:7557   */\n      dup2\n        /* \"#utility.yul\":7546:7557   */\n      swap1\n      pop\n        /* \"#utility.yul\":7577:7580   */\n      dup2\n        /* \"#utility.yul\":7574:7575   */\n      0x00\n        /* \"#utility.yul\":7567:7581   */\n      mstore\n        /* \"#utility.yul\":7611:7615   */\n      0x20\n        /* \"#utility.yul\":7608:7609   */\n      0x00\n        /* \"#utility.yul\":7598:7616   */\n      keccak256\n        /* \"#utility.yul\":7590:7616   */\n      swap1\n      pop\n        /* \"#utility.yul\":7483:7623   */\n      swap2\n      swap1\n      pop\n      jump\t// out\n        /* \"#utility.yul\":7629:7722   */\n    tag_165:\n        /* \"#utility.yul\":7666:7672   */\n      0x00\n        /* \"#utility.yul\":7713:7715   */\n      0x20\n        /* \"#utility.yul\":7708:7710   */\n      0x1f\n        /* \"#utility.yul\":7701:7706   */\n      dup4\n        /* \"#utility.yul\":7697:7711   */\n      add\n        /* \"#utility.yul\":7693:7716   */\n      div\n        /* \"#utility.yul\":7683:7716   */\n      swap1\n      pop\n        /* \"#utility.yul\":7629:7722   */\n      swap2\n      swap1\n      pop\n      jump\t// out\n        /* \"#utility.yul\":7728:7835   */\n    tag_166:\n        /* \"#utility.yul\":7772:7780   */\n      0x00\n        /* \"#utility.yul\":7822:7827   */\n      dup3\n        /* \"#utility.yul\":7816:7820   */\n      dup3\n        /* \"#utility.yul\":7812:7828   */\n      shl\n        /* \"#utility.yul\":7791:7828   */\n      swap1\n      pop\n        /* \"#utility.yul\":7728:7835   */\n      swap3\n      swap2\n      pop\n      pop\n      jump\t// out\n        /* \"#utility.yul\":7841:8234   */\n    tag_167:\n        /* \"#utility.yul\":7910:7916   */\n      0x00\n        /* \"#utility.yul\":7960:7961   */\n      0x08\n        /* \"#utility.yul\":7948:7958   */\n      dup4\n        /* \"#utility.yul\":7944:7962   */\n      mul\n        /* \"#utility.yul\":7983:8080   */\n      tag_279\n        /* \"#utility.yul\":8013:8079   */\n      0xffffffffffffffffffffffffffffffffffffffffffffffffffffffffffffffff\n        /* \"#utility.yul\":8002:8011   */\n      dup3\n        /* \"#utility.yul\":7983:8080   */\n      tag_166\n      jump\t// in\n    tag_279:\n        /* \"#utility.yul\":8101:8140   */\n      tag_280\n        /* \"#utility.yul\":8131:8139   */\n      dup7\n        /* \"#utility.yul\":8120:8129   */\n      dup4\n        /* \"#utility.yul\":8101:8140   */\n      tag_166\n      jump\t// in\n    tag_280:\n        /* \"#utility.yul\":8089:8140   */\n      swap6\n      pop\n        /* \"#utility.yul\":8173:8177   */\n      dup1\n        /* \"#utility.yul\":8169:8178   */\n      not\n        /* \"#utility.yul\":8162:8167   */\n      dup5\n        /* \"#utility.yul\":8158:8179   */\n      and\n        /* \"#utility.yul\":8149:8179   */\n      swap4\n      pop\n        /* \"#utility.yul\":8222:8226   */\n      dup1\n        /* \"#utility.yul\":8212:8220   */\n      dup7\n        /* \"#utility.yul\":8208:8227   */\n      and\n        /* \"#utility.yul\":8201:8206   */\n      dup5\n        /* \"#utility.yul\":8198:8228   */\n      or\n        /* \"#utility.yul\":8188:8228   */\n      swap3\n      pop\n        /* \"#utility.yul\":7917:8234   */\n      pop\n      pop\n        /* \"#utility.yul\":7841:8234   */\n      swap4\n      swap3\n      pop\n      pop\n      pop\n      jump\t// out\n        /* \"#utility.yul\":8240:8300   */\n    tag_168:\n        /* \"#utility.yul\":8268:8271   */\n      0x00\n        /* \"#utility.yul\":8289:8294   */\n      dup2\n        /* \"#utility.yul\":8282:8294   */\n      swap1\n      pop\n        /* \"#utility.yul\":8240:8300   */\n      swap2\n      swap1\n      pop\n      jump\t// out\n        /* \"#utility.yul\":8306:8448   */\n    tag_169:\n        /* \"#utility.yul\":8356:8365   */\n      0x00\n        /* \"#utility.yul\":8389:8442   */\n      tag_283\n        /* \"#utility.yul\":8407:8441   */\n      tag_284\n        /* \"#utility.yul\":8416:8440   */\n      tag_285\n        /* \"#utility.yul\":8434:8439   */\n      dup5\n        /* \"#utility.yul\":8416:8440   */\n      tag_139\n      jump\t// in\n    tag_285:\n        /* \"#utility.yul\":8407:8441   */\n      tag_168\n      jump\t// in\n    tag_284:\n        /* \"#utility.yul\":8389:8442   */\n      tag_139\n      jump\t// in\n    tag_283:\n        /* \"#utility.yul\":8376:8442   */\n      swap1\n      pop\n        /* \"#utility.yul\":8306:8448   */\n      swap2\n      swap1\n      pop\n      jump\t// out\n        /* \"#utility.yul\":8454:8529   */\n    tag_170:\n        /* \"#utility.yul\":8497:8500   */\n      0x00\n        /* \"#utility.yul\":8518:8523   */\n      dup2\n        /* \"#utility.yul\":8511:8523   */\n      swap1\n      pop\n        /* \"#utility.yul\":8454:8529   */\n      swap2\n      swap1\n      pop\n      jump\t// out\n        /* \"#utility.yul\":8535:8804   */\n    tag_171:\n        /* \"#utility.yul\":8645:8684   */\n      tag_288\n        /* \"#utility.yul\":8676:8683   */\n      dup4\n        /* \"#utility.yul\":8645:8684   */\n      tag_169\n      jump\t// in\n    tag_288:\n        /* \"#utility.yul\":8706:8797   */\n      tag_289\n        /* \"#utility.yul\":8755:8796   */\n      tag_290\n        /* \"#utility.yul\":8779:8795   */\n      dup3\n        /* \"#utility.yul\":8755:8796   */\n      tag_170\n      jump\t// in\n    tag_290:\n        /* \"#utility.yul\":8747:8753   */\n      dup5\n        /* \"#utility.yul\":8740:8744   */\n      dup5\n        /* \"#utility.yul\":8734:8745   */\n      sload\n        /* \"#utility.yul\":8706:8797   */\n      tag_167\n      jump\t// in\n    tag_289:\n        /* \"#utility.yul\":8700:8704   */\n      dup3\n        /* \"#utility.yul\":8693:8798   */\n      sstore\n        /* \"#utility.yul\":8611:8804   */\n      pop\n        /* \"#utility.yul\":8535:8804   */\n      pop\n      pop\n      pop\n      jump\t// out\n        /* \"#utility.yul\":8810:8883   */\n    tag_172:\n        /* \"#utility.yul\":8855:8858   */\n      0x00\n        /* \"#utility.yul\":8876:8877   */\n      0x00\n        /* \"#utility.yul\":8869:8877   */\n      swap1\n      pop\n        /* \"#utility.yul\":8810:8883   */\n      swap1\n      jump\t// out\n        /* \"#utility.yul\":8889:9078   */\n    tag_173:\n        /* \"#utility.yul\":8966:8998   */\n      tag_293\n      tag_172\n      jump\t// in\n    tag_293:\n        /* \"#utility.yul\":9007:9072   */\n      tag_294\n        /* \"#utility.yul\":9065:9071   */\n      dup2\n        /* \"#utility.yul\":9057:9063   */\n      dup5\n        /* \"#utility.yul\":9051:9055   */\n      dup5\n        /* \"#utility.yul\":9007:9072   */\n      tag_171\n      jump\t// in\n    tag_294:\n        /* \"#utility.yul\":8942:9078   */\n      pop\n        /* \"#utility.yul\":8889:9078   */\n      pop\n      pop\n      jump\t// out\n        /* \"#utility.yul\":9084:9298   */\n    tag_174:\n        /* \"#utility.yul\":9169:9170   */\n      0x00\n        /* \"#utility.yul\":9154:9292   */\n    tag_296:\n        /* \"#utility.yul\":9179:9188   */\n      dup3\n        /* \"#utility.yul\":9176:9177   */\n      dup2\n        /* \"#utility.yul\":9173:9189   */\n      lt\n        /* \"#utility.yul\":9154:9292   */\n      iszero\n      tag_298\n      jumpi\n        /* \"#utility.yul\":9231:9282   */\n      tag_299\n        /* \"#utility.yul\":9280:9281   */\n      0x00\n        /* \"#utility.yul\":9276:9277   */\n      dup3\n        /* \"#utility.yul\":9265:9274   */\n      dup5\n        /* \"#utility.yul\":9261:9278   */\n      add\n        /* \"#utility.yul\":9231:9282   */\n      tag_173\n      jump\t// in\n    tag_299:\n        /* \"#utility.yul\":9204:9205   */\n      0x01\n        /* \"#utility.yul\":9201:9202   */\n      dup2\n        /* \"#utility.yul\":9197:9206   */\n      add\n        /* \"#utility.yul\":9192:9206   */\n      swap1\n      pop\n        /* \"#utility.yul\":9154:9292   */\n      jump(tag_296)\n    tag_298:\n        /* \"#utility.yul\":9158:9172   */\n      pop\n        /* \"#utility.yul\":9084:9298   */\n      pop\n      pop\n      jump\t// out\n        /* \"#utility.yul\":9304:10048   */\n    tag_175:\n        /* \"#utility.yul\":9404:9406   */\n      0x1f\n        /* \"#utility.yul\":9399:9402   */\n      dup3\n        /* \"#utility.yul\":9396:9407   */\n      gt\n        /* \"#utility.yul\":9393:10041   */\n      iszero\n      tag_301\n      jumpi\n        /* \"#utility.yul\":9433:9443   */\n      dup3\n        /* \"#utility.yul\":9428:9431   */\n      dup3\n        /* \"#utility.yul\":9425:9444   */\n      gt\n        /* \"#utility.yul\":9422:10031   */\n      iszero\n      tag_302\n      jumpi\n        /* \"#utility.yul\":9479:9516   */\n      tag_303\n        /* \"#utility.yul\":9510:9515   */\n      dup2\n        /* \"#utility.yul\":9479:9516   */\n      tag_164\n      jump\t// in\n    tag_303:\n        /* \"#utility.yul\":9553:9575   */\n      tag_304\n        /* \"#utility.yul\":9571:9574   */\n      dup4\n        /* \"#utility.yul\":9553:9575   */\n      tag_165\n      jump\t// in\n    tag_304:\n        /* \"#utility.yul\":9612:9641   */\n      tag_305\n        /* \"#utility.yul\":9630:9640   */\n      dup6\n        /* \"#utility.yul\":9612:9641   */\n      tag_165\n      jump\t// in\n    tag_305:\n        /* \"#utility.yul\":9802:9804   */\n      0x20\n        /* \"#utility.yul\":9790:9800   */\n      dup7\n        /* \"#utility.yul\":9787:9805   */\n      lt\n        /* \"#utility.yul\":9784:9863   */\n      iszero\n      tag_306\n      jumpi\n        /* \"#utility.yul\":9844:9845   */\n      0x00\n        /* \"#utility.yul\":9828:9845   */\n      swap1\n      pop\n        /* \"#utility.yul\":9784:9863   */\n    tag_306:\n        /* \"#utility.yul\":9913:9925   */\n      dup1\n        /* \"#utility.yul\":9903:9911   */\n      dup4\n        /* \"#utility.yul\":9899:9926   */\n      add\n        /* \"#utility.yul\":9943:10017   */\n      tag_307\n        /* \"#utility.yul\":10003:10015   */\n      dup3\n        /* \"#utility.yul\":9989:10001   */\n      dup5\n        /* \"#utility.yul\":9985:10016   */\n      sub\n        /* \"#utility.yul\":9972:9983   */\n      dup3\n        /* \"#utility.yul\":9943:10017   */\n      tag_174\n      jump\t// in\n    tag_307:\n        /* \"#utility.yul\":9445:10031   */\n      pop\n      pop\n      pop\n      pop\n        /* \"#utility.yul\":9422:10031   */\n    tag_302:\n        /* \"#utility.yul\":9393:10041   */\n    tag_301:\n        /* \"#utility.yul\":9304:10048   */\n      pop\n      pop\n      pop\n      jump\t// out\n        /* \"#utility.yul\":10054:10171   */\n    tag_176:\n        /* \"#utility.yul\":10108:10116   */\n      0x00\n        /* \"#utility.yul\":10158:10163   */\n      dup3\n        /* \"#utility.yul\":10152:10156   */\n      dup3\n        /* \"#utility.yul\":10148:10164   */\n      shr\n        /* \"#utility.yul\":10127:10164   */\n      swap1\n      pop\n        /* \"#utility.yul\":10054:10171   */\n      swap3\n      swap2\n      pop\n      pop\n      jump\t// out\n        /* \"#utility.yul\":10177:10346   */\n    tag_177:\n        /* \"#utility.yul\":10221:10227   */\n      0x00\n        /* \"#utility.yul\":10254:10305   */\n      tag_310\n        /* \"#utility.yul\":10302:10303   */\n      0x00\n        /* \"#utility.yul\":10298:10304   */\n      not\n        /* \"#utility.yul\":10290:10295   */\n      dup5\n        /* \"#utility.yul\":10287:10288   */\n      0x08\n        /* \"#utility.yul\":10283:10296   */\n      mul\n        /* \"#utility.yul\":10254:10305   */\n      tag_176\n      jump\t// in\n    tag_310:\n        /* \"#utility.yul\":10250:10306   */\n      not\n        /* \"#utility.yul\":10335:10339   */\n      dup1\n        /* \"#utility.yul\":10329:10333   */\n      dup4\n        /* \"#utility.yul\":10325:10340   */\n      and\n        /* \"#utility.yul\":10315:10340   */\n      swap2\n      pop\n        /* \"#utility.yul\":10228:10346   */\n      pop\n        /* \"#utility.yul\":10177:10346   */\n      swap3\n      swap2\n      pop\n      pop\n      jump\t// out\n        /* \"#utility.yul\":10351:10646   */\n    tag_178:\n        /* \"#utility.yul\":10427:10431   */\n      0x00\n        /* \"#utility.yul\":10573:10602   */\n      tag_312\n        /* \"#utility.yul\":10598:10601   */\n      dup4\n        /* \"#utility.yul\":10592:10596   */\n      dup4\n        /* \"#utility.yul\":10573:10602   */\n      tag_177\n      jump\t// in\n    tag_312:\n        /* \"#utility.yul\":10565:10602   */\n      swap2\n      pop\n        /* \"#utility.yul\":10635:10638   */\n      dup3\n        /* \"#utility.yul\":10632:10633   */\n      0x02\n        /* \"#utility.yul\":10628:10639   */\n      mul\n        /* \"#utility.yul\":10622:10626   */\n      dup3\n        /* \"#utility.yul\":10619:10640   */\n      or\n        /* \"#utility.yul\":10611:10640   */\n      swap1\n      pop\n        /* \"#utility.yul\":10351:10646   */\n      swap3\n      swap2\n      pop\n      pop\n      jump\t// out\n        /* \"#utility.yul\":10651:12041   */\n    tag_69:\n        /* \"#utility.yul\":10766:10802   */\n      tag_314\n        /* \"#utility.yul\":10798:10801   */\n      dup3\n        /* \"#utility.yul\":10766:10802   */\n      tag_157\n      jump\t// in\n    tag_314:\n        /* \"#utility.yul\":10867:10885   */\n      0xffffffffffffffff\n        /* \"#utility.yul\":10859:10865   */\n      dup2\n        /* \"#utility.yul\":10856:10886   */\n      gt\n        /* \"#utility.yul\":10853:10909   */\n      iszero\n      tag_315\n      jumpi\n        /* \"#utility.yul\":10889:10907   */\n      tag_316\n      tag_162\n      jump\t// in\n    tag_316:\n        /* \"#utility.yul\":10853:10909   */\n    tag_315:\n        /* \"#utility.yul\":10933:10971   */\n      tag_317\n        /* \"#utility.yul\":10965:10969   */\n      dup3\n        /* \"#utility.yul\":10959:10970   */\n      sload\n        /* \"#utility.yul\":10933:10971   */\n      tag_87\n      jump\t// in\n    tag_317:\n        /* \"#utility.yul\":11018:11084   */\n      tag_318\n        /* \"#utility.yul\":11077:11083   */\n      dup3\n        /* \"#utility.yul\":11069:11075   */\n      dup3\n        /* \"#utility.yul\":11063:11067   */\n      dup6\n        /* \"#utility.yul\":11018:11084   */\n      tag_175\n      jump\t// in\n    tag_318:\n        /* \"#utility.yul\":11111:11112   */\n      0x00\n        /* \"#utility.yul\":11135:11139   */\n      0x20\n        /* \"#utility.yul\":11122:11139   */\n      swap1\n      pop\n        /* \"#utility.yul\":11167:11169   */\n      0x1f\n        /* \"#utility.yul\":11159:11165   */\n      dup4\n        /* \"#utility.yul\":11156:11170   */\n      gt\n        /* \"#utility.yul\":11184:11185   */\n      0x01\n        /* \"#utility.yul\":11179:11796   */\n      dup2\n      eq\n      tag_320\n      jumpi\n        /* \"#utility.yul\":11840:11841   */\n      0x00\n        /* \"#utility.yul\":11857:11863   */\n      dup5\n        /* \"#utility.yul\":11854:11931   */\n      iszero\n      tag_321\n      jumpi\n        /* \"#utility.yul\":11906:11915   */\n      dup3\n        /* \"#utility.yul\":11901:11904   */\n      dup8\n        /* \"#utility.yul\":11897:11916   */\n      add\n        /* \"#utility.yul\":11891:11917   */\n      mload\n        /* \"#utility.yul\":11882:11917   */\n      swap1\n      pop\n        /* \"#utility.yul\":11854:11931   */\n    tag_321:\n        /* \"#utility.yul\":11957:12024   */\n      tag_322\n        /* \"#utility.yul\":12017:12023   */\n      dup6\n        /* \"#utility.yul\":12010:12015   */\n      dup3\n        /* \"#utility.yul\":11957:12024   */\n      tag_178\n      jump\t// in\n    tag_322:\n        /* \"#utility.yul\":11951:11955   */\n      dup7\n        /* \"#utility.yul\":11944:12025   */\n      sstore\n        /* \"#utility.yul\":11813:12035   */\n      pop\n        /* \"#utility.yul\":11149:12035   */\n      jump(tag_319)\n        /* \"#utility.yul\":11179:11796   */\n    tag_320:\n        /* \"#utility.yul\":11231:11235   */\n      0x1f\n        /* \"#utility.yul\":11227:11236   */\n      not\n        /* \"#utility.yul\":11219:11225   */\n      dup5\n        /* \"#utility.yul\":11215:11237   */\n      and\n        /* \"#utility.yul\":11265:11301   */\n      tag_323\n        /* \"#utility.yul\":11296:11300   */\n      dup7\n        /* \"#utility.yul\":11265:11301   */\n      tag_164\n      jump\t// in\n    tag_323:\n        /* \"#utility.yul\":11323:11324   */\n      0x00\n        /* \"#utility.yul\":11337:11545   */\n    tag_324:\n        /* \"#utility.yul\":11351:11358   */\n      dup3\n        /* \"#utility.yul\":11348:11349   */\n      dup2\n        /* \"#utility.yul\":11345:11359   */\n      lt\n        /* \"#utility.yul\":11337:11545   */\n      iszero\n      tag_326\n      jumpi\n        /* \"#utility.yul\":11430:11439   */\n      dup5\n        /* \"#utility.yul\":11425:11428   */\n      dup10\n        /* \"#utility.yul\":11421:11440   */\n      add\n        /* \"#utility.yul\":11415:11441   */\n      mload\n        /* \"#utility.yul\":11407:11413   */\n      dup3\n        /* \"#utility.yul\":11400:11442   */\n      sstore\n        /* \"#utility.yul\":11481:11482   */\n      0x01\n        /* \"#utility.yul\":11473:11479   */\n      dup3\n        /* \"#utility.yul\":11469:11483   */\n      add\n        /* \"#utility.yul\":11459:11483   */\n      swap2\n      pop\n        /* \"#utility.yul\":11528:11530   */\n      0x20\n        /* \"#utility.yul\":11517:11526   */\n      dup6\n        /* \"#utility.yul\":11513:11531   */\n      add\n        /* \"#utility.yul\":11500:11531   */\n      swap5\n      pop\n        /* \"#utility.yul\":11374:11378   */\n      0x20\n        /* \"#utility.yul\":11371:11372   */\n      dup2\n        /* \"#utility.yul\":11367:11379   */\n      add\n        /* \"#utility.yul\":11362:11379   */\n      swap1\n      pop\n        /* \"#utility.yul\":11337:11545   */\n      jump(tag_324)\n    tag_326:\n        /* \"#utility.yul\":11573:11579   */\n      dup7\n        /* \"#utility.yul\":11564:11571   */\n      dup4\n        /* \"#utility.yul\":11561:11580   */\n      lt\n        /* \"#utility.yul\":11558:11737   */\n      iszero\n      tag_327\n      jumpi\n        /* \"#utility.yul\":11631:11640   */\n      dup5\n        /* \"#utility.yul\":11626:11629   */\n      dup10\n        /* \"#utility.yul\":11622:11641   */\n      add\n        /* \"#utility.yul\":11616:11642   */\n      mload\n        /* \"#utility.yul\":11674:11722   */\n      tag_328\n        /* \"#utility.yul\":11716:11720   */\n      0x1f\n        /* \"#utility.yul\":11708:11714   */\n      dup10\n        /* \"#utility.yul\":11704:11721   */\n      and\n        /* \"#utility.yul\":11693:11702   */\n      dup3\n        /* \"#utility.yul\":11674:11722   */\n      tag_177\n      jump\t// in\n    tag_328:\n        /* \"#utility.yul\":11666:11672   */\n      dup4\n        /* \"#utility.yul\":11659:11723   */\n      sstore\n        /* \"#utility.yul\":11581:11737   */\n      pop\n        /* \"#utility.yul\":11558:11737   */\n    tag_327:\n        /* \"#utility.yul\":11783:11784   */\n      0x01\n        /* \"#utility.yul\":11779:11780   */\n      0x02\n        /* \"#utility.yul\":11771:11777   */\n      dup9\n        /* \"#utility.yul\":11767:11781   */\n      mul\n        /* \"#utility.yul\":11763:11785   */\n      add\n        /* \"#utility.yul\":11757:11761   */\n      dup9\n        /* \"#utility.yul\":11750:11786   */\n      sstore\n        /* \"#utility.yul\":11186:11796   */\n      pop\n      pop\n      pop\n        /* \"#utility.yul\":11149:12035   */\n    tag_319:\n      pop\n        /* \"#utility.yul\":10741:12041   */\n      pop\n      pop\n      pop\n        /* \"#utility.yul\":10651:12041   */\n      pop\n      pop\n      jump\t// out\n        /* \"#utility.yul\":12047:12216   */\n    tag_179:\n        /* \"#utility.yul\":12131:12142   */\n      0x00\n        /* \"#utility.yul\":12165:12171   */\n      dup3\n        /* \"#utility.yul\":12160:12163   */\n      dup3\n        /* \"#utility.yul\":12153:12172   */\n      mstore\n        /* \"#utility.yul\":12205:12209   */\n      0x20\n        /* \"#utility.yul\":12200:12203   */\n      dup3\n        /* \"#utility.yul\":12196:12210   */\n      add\n        /* \"#utility.yul\":12181:12210   */\n      swap1\n      pop\n        /* \"#utility.yul\":12047:12216   */\n      swap3\n      swap2\n      pop\n      pop\n      jump\t// out\n        /* \"#utility.yul\":12222:12381   */\n    tag_180:\n        /* \"#utility.yul\":12362:12373   */\n      0x6e6f74206f776e65720000000000000000000000000000000000000000000000\n        /* \"#utility.yul\":12358:12359   */\n      0x00\n        /* \"#utility.yul\":12350:12356   */\n      dup3\n        /* \"#utility.yul\":12346:12360   */\n      add\n        /* \"#utility.yul\":12339:12374   */\n      mstore\n        /* \"#utility.yul\":12222:12381   */\n      pop\n      jump\t// out\n        /* \"#utility.yul\":12387:12752   */\n    tag_181:\n        /* \"#utility.yul\":12529:12532   */\n      0x00\n        /* \"#utility.yul\":12550:12616   */\n      tag_332\n        /* \"#utility.yul\":12614:12615   */\n      0x09\n        /* \"#utility.yul\":12609:12612   */\n      dup4\n        /* \"#utility.yul\":12550:12616   */\n      tag_179\n      jump\t// in\n    tag_332:\n        /* \"#utility.yul\":12543:12616   */\n      swap2\n      pop\n        /* \"#utility.yul\":12625:12718   */\n      tag_333\n        /* \"#utility.yul\":12714:12717   */\n      dup3\n        /* \"#utility.yul\":12625:12718   */\n      tag_180\n      jump\t// in\n    tag_333:\n        /* \"#utility.yul\":12743:12745   */\n      0x20\n        /* \"#utility.yul\":12738:12741   */\n      dup3\n        /* \"#utility.yul\":12734:12746   */\n      add\n        /* \"#utility.yul\":12727:12746   */\n      swap1\n      pop\n        /* \"#utility.yul\":12387:12752   */\n      swap2\n      swap1\n      pop\n      jump\t// out\n        /* \"#utility.yul\":12758:13177   */\n    tag_73:\n        /* \"#utility.yul\":12924:12928   */\n      0x00\n        /* \"#utility.yul\":12962:12964   */\n      0x20\n        /* \"#utility.yul\":12951:12960   */\n      dup3\n        /* \"#utility.yul\":12947:12965   */\n      add\n        /* \"#utility.yul\":12939:12965   */\n      swap1\n      pop\n        /* \"#utility.yul\":13011:13020   */\n      dup2\n        /* \"#utility.yul\":13005:13009   */\n      dup2\n        /* \"#utility.yul\":13001:13021   */\n      sub\n        /* \"#utility.yul\":12997:12998   */\n      0x00\n        /* \"#utility.yul\":12986:12995   */\n      dup4\n        /* \"#utility.yul\":12982:12999   */\n      add\n        /* \"#utility.yul\":12975:13022   */\n      mstore\n        /* \"#utility.yul\":13039:13170   */\n      tag_335\n        /* \"#utility.yul\":13165:13169   */\n      dup2\n        /* \"#utility.yul\":13039:13170   */\n      tag_181\n      jump\t// in\n    tag_335:\n        /* \"#utility.yul\":13031:13170   */\n      swap1\n      pop\n        /* \"#utility.yul\":12758:13177   */\n      swap2\n      swap1\n      pop\n      jump\t// out\n        /* \"#utility.yul\":13183:13363   */\n    tag_77:\n        /* \"#utility.yul\":13231:13308   */\n      0x4e487b7100000000000000000000000000000000000000000000000000000000\n        /* \"#utility.yul\":13228:13229   */\n      0x00\n        /* \"#utility.yul\":13221:13309   */\n      mstore\n        /* \"#utility.yul\":13328:13332   */\n      0x32\n        /* \"#utility.yul\":13325:13326   */\n      0x04\n        /* \"#utility.yul\":13318:13333   */\n      mstore\n        /* \"#utility.yul\":13352:13356   */\n      0x24\n        /* \"#utility.yul\":13349:13350   */\n      0x00\n        /* \"#utility.yul\":13342:13357   */\n      revert\n        /* \"#utility.yul\":13369:13533   */\n    tag_182:\n        /* \"#utility.yul\":13509:13525   */\n      0x616c726561792065786563757465000000000000000000000000000000000000\n        /* \"#utility.yul\":13505:13506   */\n      0x00\n        /* \"#utility.yul\":13497:13503   */\n      dup3\n        /* \"#utility.yul\":13493:13507   */\n      add\n        /* \"#utility.yul\":13486:13526   */\n      mstore\n        /* \"#utility.yul\":13369:13533   */\n      pop\n      jump\t// out\n        /* \"#utility.yul\":13539:13905   */\n    tag_183:\n        /* \"#utility.yul\":13681:13684   */\n      0x00\n        /* \"#utility.yul\":13702:13769   */\n      tag_339\n        /* \"#utility.yul\":13766:13768   */\n      0x0e\n        /* \"#utility.yul\":13761:13764   */\n      dup4\n        /* \"#utility.yul\":13702:13769   */\n      tag_179\n      jump\t// in\n    tag_339:\n        /* \"#utility.yul\":13695:13769   */\n      swap2\n      pop\n        /* \"#utility.yul\":13778:13871   */\n      tag_340\n        /* \"#utility.yul\":13867:13870   */\n      dup3\n        /* \"#utility.yul\":13778:13871   */\n      tag_182\n      jump\t// in\n    tag_340:\n        /* \"#utility.yul\":13896:13898   */\n      0x20\n        /* \"#utility.yul\":13891:13894   */\n      dup3\n        /* \"#utility.yul\":13887:13899   */\n      add\n        /* \"#utility.yul\":13880:13899   */\n      swap1\n      pop\n        /* \"#utility.yul\":13539:13905   */\n      swap2\n      swap1\n      pop\n      jump\t// out\n        /* \"#utility.yul\":13911:14330   */\n    tag_81:\n        /* \"#utility.yul\":14077:14081   */\n      0x00\n        /* \"#utility.yul\":14115:14117   */\n      0x20\n        /* \"#utility.yul\":14104:14113   */\n      dup3\n        /* \"#utility.yul\":14100:14118   */\n      add\n        /* \"#utility.yul\":14092:14118   */\n      swap1\n      pop\n        /* \"#utility.yul\":14164:14173   */\n      dup2\n        /* \"#utility.yul\":14158:14162   */\n      dup2\n        /* \"#utility.yul\":14154:14174   */\n      sub\n        /* \"#utility.yul\":14150:14151   */\n      0x00\n        /* \"#utility.yul\":14139:14148   */\n      dup4\n        /* \"#utility.yul\":14135:14152   */\n      add\n        /* \"#utility.yul\":14128:14175   */\n      mstore\n        /* \"#utility.yul\":14192:14323   */\n      tag_342\n        /* \"#utility.yul\":14318:14322   */\n      dup2\n        /* \"#utility.yul\":14192:14323   */\n      tag_183\n      jump\t// in\n    tag_342:\n        /* \"#utility.yul\":14184:14323   */\n      swap1\n      pop\n        /* \"#utility.yul\":13911:14330   */\n      swap2\n      swap1\n      pop\n      jump\t// out\n        /* \"#utility.yul\":14336:14498   */\n    tag_184:\n        /* \"#utility.yul\":14476:14490   */\n      0x696e76616c696420747349640000000000000000000000000000000000000000\n        /* \"#utility.yul\":14472:14473   */\n      0x00\n        /* \"#utility.yul\":14464:14470   */\n      dup3\n        /* \"#utility.yul\":14460:14474   */\n      add\n        /* \"#utility.yul\":14453:14491   */\n      mstore\n        /* \"#utility.yul\":14336:14498   */\n      pop\n      jump\t// out\n        /* \"#utility.yul\":14504:14870   */\n    tag_185:\n        /* \"#utility.yul\":14646:14649   */\n      0x00\n        /* \"#utility.yul\":14667:14734   */\n      tag_345\n        /* \"#utility.yul\":14731:14733   */\n      0x0c\n        /* \"#utility.yul\":14726:14729   */\n      dup4\n        /* \"#utility.yul\":14667:14734   */\n      tag_179\n      jump\t// in\n    tag_345:\n        /* \"#utility.yul\":14660:14734   */\n      swap2\n      pop\n        /* \"#utility.yul\":14743:14836   */\n      tag_346\n        /* \"#utility.yul\":14832:14835   */\n      dup3\n        /* \"#utility.yul\":14743:14836   */\n      tag_184\n      jump\t// in\n    tag_346:\n        /* \"#utility.yul\":14861:14863   */\n      0x20\n        /* \"#utility.yul\":14856:14859   */\n      dup3\n        /* \"#utility.yul\":14852:14864   */\n      add\n        /* \"#utility.yul\":14845:14864   */\n      swap1\n      pop\n        /* \"#utility.yul\":14504:14870   */\n      swap2\n      swap1\n      pop\n      jump\t// out\n        /* \"#utility.yul\":14876:15295   */\n    tag_95:\n        /* \"#utility.yul\":15042:15046   */\n      0x00\n        /* \"#utility.yul\":15080:15082   */\n      0x20\n        /* \"#utility.yul\":15069:15078   */\n      dup3\n        /* \"#utility.yul\":15065:15083   */\n      add\n        /* \"#utility.yul\":15057:15083   */\n      swap1\n      pop\n        /* \"#utility.yul\":15129:15138   */\n      dup2\n        /* \"#utility.yul\":15123:15127   */\n      dup2\n        /* \"#utility.yul\":15119:15139   */\n      sub\n        /* \"#utility.yul\":15115:15116   */\n      0x00\n        /* \"#utility.yul\":15104:15113   */\n      dup4\n        /* \"#utility.yul\":15100:15117   */\n      add\n        /* \"#utility.yul\":15093:15140   */\n      mstore\n        /* \"#utility.yul\":15157:15288   */\n      tag_348\n        /* \"#utility.yul\":15283:15287   */\n      dup2\n        /* \"#utility.yul\":15157:15288   */\n      tag_185\n      jump\t// in\n    tag_348:\n        /* \"#utility.yul\":15149:15288   */\n      swap1\n      pop\n        /* \"#utility.yul\":14876:15295   */\n      swap2\n      swap1\n      pop\n      jump\t// out\n        /* \"#utility.yul\":15301:15481   */\n    tag_186:\n        /* \"#utility.yul\":15349:15426   */\n      0x4e487b7100000000000000000000000000000000000000000000000000000000\n        /* \"#utility.yul\":15346:15347   */\n      0x00\n        /* \"#utility.yul\":15339:15427   */\n      mstore\n        /* \"#utility.yul\":15446:15450   */\n      0x11\n        /* \"#utility.yul\":15443:15444   */\n      0x04\n        /* \"#utility.yul\":15436:15451   */\n      mstore\n        /* \"#utility.yul\":15470:15474   */\n      0x24\n        /* \"#utility.yul\":15467:15468   */\n      0x00\n        /* \"#utility.yul\":15460:15475   */\n      revert\n        /* \"#utility.yul\":15487:15678   */\n    tag_122:\n        /* \"#utility.yul\":15527:15530   */\n      0x00\n        /* \"#utility.yul\":15546:15566   */\n      tag_351\n        /* \"#utility.yul\":15564:15565   */\n      dup3\n        /* \"#utility.yul\":15546:15566   */\n      tag_139\n      jump\t// in\n    tag_351:\n        /* \"#utility.yul\":15541:15566   */\n      swap2\n      pop\n        /* \"#utility.yul\":15580:15600   */\n      tag_352\n        /* \"#utility.yul\":15598:15599   */\n      dup4\n        /* \"#utility.yul\":15580:15600   */\n      tag_139\n      jump\t// in\n    tag_352:\n        /* \"#utility.yul\":15575:15600   */\n      swap3\n      pop\n        /* \"#utility.yul\":15623:15624   */\n      dup3\n        /* \"#utility.yul\":15620:15621   */\n      dup3\n        /* \"#utility.yul\":15616:15625   */\n      add\n        /* \"#utility.yul\":15609:15625   */\n      swap1\n      pop\n        /* \"#utility.yul\":15644:15647   */\n      dup1\n        /* \"#utility.yul\":15641:15642   */\n      dup3\n        /* \"#utility.yul\":15638:15648   */\n      gt\n        /* \"#utility.yul\":15635:15671   */\n      iszero\n      tag_353\n      jumpi\n        /* \"#utility.yul\":15651:15669   */\n      tag_354\n      tag_186\n      jump\t// in\n    tag_354:\n        /* \"#utility.yul\":15635:15671   */\n    tag_353:\n        /* \"#utility.yul\":15487:15678   */\n      swap3\n      swap2\n      pop\n      pop\n      jump\t// out\n        /* \"#utility.yul\":15684:15854   */\n    tag_187:\n        /* \"#utility.yul\":15824:15846   */\n      0x617070726f76616c73203c207265717569726564000000000000000000000000\n        /* \"#utility.yul\":15820:15821   */\n      0x00\n        /* \"#utility.yul\":15812:15818   */\n      dup3\n        /* \"#utility.yul\":15808:15822   */\n      add\n        /* \"#utility.yul\":15801:15847   */\n      mstore\n        /* \"#utility.yul\":15684:15854   */\n      pop\n      jump\t// out\n        /* \"#utility.yul\":15860:16226   */\n    tag_188:\n        /* \"#utility.yul\":16002:16005   */\n      0x00\n        /* \"#utility.yul\":16023:16090   */\n      tag_357\n        /* \"#utility.yul\":16087:16089   */\n      0x14\n        /* \"#utility.yul\":16082:16085   */\n      dup4\n        /* \"#utility.yul\":16023:16090   */\n      tag_179\n      jump\t// in\n    tag_357:\n        /* \"#utility.yul\":16016:16090   */\n      swap2\n      pop\n        /* \"#utility.yul\":16099:16192   */\n      tag_358\n        /* \"#utility.yul\":16188:16191   */\n      dup3\n        /* \"#utility.yul\":16099:16192   */\n      tag_187\n      jump\t// in\n    tag_358:\n        /* \"#utility.yul\":16217:16219   */\n      0x20\n        /* \"#utility.yul\":16212:16215   */\n      dup3\n        /* \"#utility.yul\":16208:16220   */\n      add\n        /* \"#utility.yul\":16201:16220   */\n      swap1\n      pop\n        /* \"#utility.yul\":15860:16226   */\n      swap2\n      swap1\n      pop\n      jump\t// out\n        /* \"#utility.yul\":16232:16651   */\n    tag_125:\n        /* \"#utility.yul\":16398:16402   */\n      0x00\n        /* \"#utility.yul\":16436:16438   */\n      0x20\n        /* \"#utility.yul\":16425:16434   */\n      dup3\n        /* \"#utility.yul\":16421:16439   */\n      add\n        /* \"#utility.yul\":16413:16439   */\n      swap1\n      pop\n        /* \"#utility.yul\":16485:16494   */\n      dup2\n        /* \"#utility.yul\":16479:16483   */\n      dup2\n        /* \"#utility.yul\":16475:16495   */\n      sub\n        /* \"#utility.yul\":16471:16472   */\n      0x00\n        /* \"#utility.yul\":16460:16469   */\n      dup4\n        /* \"#utility.yul\":16456:16473   */\n      add\n        /* \"#utility.yul\":16449:16496   */\n      mstore\n        /* \"#utility.yul\":16513:16644   */\n      tag_360\n        /* \"#utility.yul\":16639:16643   */\n      dup2\n        /* \"#utility.yul\":16513:16644   */\n      tag_188\n      jump\t// in\n    tag_360:\n        /* \"#utility.yul\":16505:16644   */\n      swap1\n      pop\n        /* \"#utility.yul\":16232:16651   */\n      swap2\n      swap1\n      pop\n      jump\t// out\n        /* \"#utility.yul\":16657:16804   */\n    tag_189:\n        /* \"#utility.yul\":16758:16769   */\n      0x00\n        /* \"#utility.yul\":16795:16798   */\n      dup2\n        /* \"#utility.yul\":16780:16798   */\n      swap1\n      pop\n        /* \"#utility.yul\":16657:16804   */\n      swap3\n      swap2\n      pop\n      pop\n      jump\t// out\n        /* \"#utility.yul\":16832:17702   */\n    tag_190:\n        /* \"#utility.yul\":16933:16936   */\n      0x00\n        /* \"#utility.yul\":16970:16975   */\n      dup2\n        /* \"#utility.yul\":16964:16976   */\n      sload\n        /* \"#utility.yul\":16999:17035   */\n      tag_363\n        /* \"#utility.yul\":17025:17034   */\n      dup2\n        /* \"#utility.yul\":16999:17035   */\n      tag_87\n      jump\t// in\n    tag_363:\n        /* \"#utility.yul\":17051:17139   */\n      tag_364\n        /* \"#utility.yul\":17132:17138   */\n      dup2\n        /* \"#utility.yul\":17127:17130   */\n      dup7\n        /* \"#utility.yul\":17051:17139   */\n      tag_189\n      jump\t// in\n    tag_364:\n        /* \"#utility.yul\":17044:17139   */\n      swap5\n      pop\n        /* \"#utility.yul\":17170:17171   */\n      0x01\n        /* \"#utility.yul\":17159:17168   */\n      dup3\n        /* \"#utility.yul\":17155:17172   */\n      and\n        /* \"#utility.yul\":17186:17187   */\n      0x00\n        /* \"#utility.yul\":17181:17347   */\n      dup2\n      eq\n      tag_366\n      jumpi\n        /* \"#utility.yul\":17361:17362   */\n      0x01\n        /* \"#utility.yul\":17356:17696   */\n      dup2\n      eq\n      tag_367\n      jumpi\n        /* \"#utility.yul\":17148:17696   */\n      jump(tag_365)\n        /* \"#utility.yul\":17181:17347   */\n    tag_366:\n        /* \"#utility.yul\":17265:17269   */\n      0xff\n        /* \"#utility.yul\":17261:17270   */\n      not\n        /* \"#utility.yul\":17250:17259   */\n      dup4\n        /* \"#utility.yul\":17246:17271   */\n      and\n        /* \"#utility.yul\":17241:17244   */\n      dup7\n        /* \"#utility.yul\":17234:17272   */\n      mstore\n        /* \"#utility.yul\":17327:17333   */\n      dup2\n        /* \"#utility.yul\":17320:17334   */\n      iszero\n        /* \"#utility.yul\":17313:17335   */\n      iszero\n        /* \"#utility.yul\":17305:17311   */\n      dup3\n        /* \"#utility.yul\":17301:17336   */\n      mul\n        /* \"#utility.yul\":17296:17299   */\n      dup7\n        /* \"#utility.yul\":17292:17337   */\n      add\n        /* \"#utility.yul\":17285:17337   */\n      swap4\n      pop\n        /* \"#utility.yul\":17181:17347   */\n      jump(tag_365)\n        /* \"#utility.yul\":17356:17696   */\n    tag_367:\n        /* \"#utility.yul\":17423:17460   */\n      tag_368\n        /* \"#utility.yul\":17454:17459   */\n      dup6\n        /* \"#utility.yul\":17423:17460   */\n      tag_164\n      jump\t// in\n    tag_368:\n        /* \"#utility.yul\":17482:17483   */\n      0x00\n        /* \"#utility.yul\":17496:17650   */\n    tag_369:\n        /* \"#utility.yul\":17510:17516   */\n      dup4\n        /* \"#utility.yul\":17507:17508   */\n      dup2\n        /* \"#utility.yul\":17504:17517   */\n      lt\n        /* \"#utility.yul\":17496:17650   */\n      iszero\n      tag_371\n      jumpi\n        /* \"#utility.yul\":17584:17591   */\n      dup2\n        /* \"#utility.yul\":17578:17592   */\n      sload\n        /* \"#utility.yul\":17574:17575   */\n      dup2\n        /* \"#utility.yul\":17569:17572   */\n      dup10\n        /* \"#utility.yul\":17565:17576   */\n      add\n        /* \"#utility.yul\":17558:17593   */\n      mstore\n        /* \"#utility.yul\":17634:17635   */\n      0x01\n        /* \"#utility.yul\":17625:17632   */\n      dup3\n        /* \"#utility.yul\":17621:17636   */\n      add\n        /* \"#utility.yul\":17610:17636   */\n      swap2\n      pop\n        /* \"#utility.yul\":17532:17536   */\n      0x20\n        /* \"#utility.yul\":17529:17530   */\n      dup2\n        /* \"#utility.yul\":17525:17537   */\n      add\n        /* \"#utility.yul\":17520:17537   */\n      swap1\n      pop\n        /* \"#utility.yul\":17496:17650   */\n      jump(tag_369)\n    tag_371:\n        /* \"#utility.yul\":17679:17685   */\n      dup4\n        /* \"#utility.yul\":17674:17677   */\n      dup9\n        /* \"#utility.yul\":17670:17686   */\n      add\n        /* \"#utility.yul\":17663:17686   */\n      swap6\n      pop\n        /* \"#utility.yul\":17363:17696   */\n      pop\n      pop\n        /* \"#utility.yul\":17148:17696   */\n    tag_365:\n      pop\n        /* \"#utility.yul\":16937:17702   */\n      pop\n      pop\n        /* \"#utility.yul\":16832:17702   */\n      swap3\n      swap2\n      pop\n      pop\n      jump\t// out\n        /* \"#utility.yul\":17708:17973   */\n    tag_131:\n        /* \"#utility.yul\":17835:17838   */\n      0x00\n        /* \"#utility.yul\":17857:17947   */\n      tag_373\n        /* \"#utility.yul\":17943:17946   */\n      dup3\n        /* \"#utility.yul\":17934:17940   */\n      dup5\n        /* \"#utility.yul\":17857:17947   */\n      tag_190\n      jump\t// in\n    tag_373:\n        /* \"#utility.yul\":17850:17947   */\n      swap2\n      pop\n        /* \"#utility.yul\":17964:17967   */\n      dup2\n        /* \"#utility.yul\":17957:17967   */\n      swap1\n      pop\n        /* \"#utility.yul\":17708:17973   */\n      swap3\n      swap2\n      pop\n      pop\n      jump\t// out\n        /* \"#utility.yul\":17979:18143   */\n    tag_191:\n        /* \"#utility.yul\":18119:18135   */\n      0x65786563757465206661696c6564000000000000000000000000000000000000\n        /* \"#utility.yul\":18115:18116   */\n      0x00\n        /* \"#utility.yul\":18107:18113   */\n      dup3\n        /* \"#utility.yul\":18103:18117   */\n      add\n        /* \"#utility.yul\":18096:18136   */\n      mstore\n        /* \"#utility.yul\":17979:18143   */\n      pop\n      jump\t// out\n        /* \"#utility.yul\":18149:18515   */\n    tag_192:\n        /* \"#utility.yul\":18291:18294   */\n      0x00\n        /* \"#utility.yul\":18312:18379   */\n      tag_376\n        /* \"#utility.yul\":18376:18378   */\n      0x0e\n        /* \"#utility.yul\":18371:18374   */\n      dup4\n        /* \"#utility.yul\":18312:18379   */\n      tag_179\n      jump\t// in\n    tag_376:\n        /* \"#utility.yul\":18305:18379   */\n      swap2\n      pop\n        /* \"#utility.yul\":18388:18481   */\n      tag_377\n        /* \"#utility.yul\":18477:18480   */\n      dup3\n        /* \"#utility.yul\":18388:18481   */\n      tag_191\n      jump\t// in\n    tag_377:\n        /* \"#utility.yul\":18506:18508   */\n      0x20\n        /* \"#utility.yul\":18501:18504   */\n      dup3\n        /* \"#utility.yul\":18497:18509   */\n      add\n        /* \"#utility.yul\":18490:18509   */\n      swap1\n      pop\n        /* \"#utility.yul\":18149:18515   */\n      swap2\n      swap1\n      pop\n      jump\t// out\n        /* \"#utility.yul\":18521:18940   */\n    tag_137:\n        /* \"#utility.yul\":18687:18691   */\n      0x00\n        /* \"#utility.yul\":18725:18727   */\n      0x20\n        /* \"#utility.yul\":18714:18723   */\n      dup3\n        /* \"#utility.yul\":18710:18728   */\n      add\n        /* \"#utility.yul\":18702:18728   */\n      swap1\n      pop\n        /* \"#utility.yul\":18774:18783   */\n      dup2\n        /* \"#utility.yul\":18768:18772   */\n      dup2\n        /* \"#utility.yul\":18764:18784   */\n      sub\n        /* \"#utility.yul\":18760:18761   */\n      0x00\n        /* \"#utility.yul\":18749:18758   */\n      dup4\n        /* \"#utility.yul\":18745:18762   */\n      add\n        /* \"#utility.yul\":18738:18785   */\n      mstore\n        /* \"#utility.yul\":18802:18933   */\n      tag_379\n        /* \"#utility.yul\":18928:18932   */\n      dup2\n        /* \"#utility.yul\":18802:18933   */\n      tag_192\n      jump\t// in\n    tag_379:\n        /* \"#utility.yul\":18794:18933   */\n      swap1\n      pop\n        /* \"#utility.yul\":18521:18940   */\n      swap2\n      swap1\n      pop\n      jump\t// out\n\n    auxdata: 0xa2646970667358221220860794e0a9957845e9d10419fc35803a95823d059d9231d99bef0b7a4b3cc22864736f6c63430008220033\n}\n",
				"bytecode": {
					"linkReferences": {},
					"object": "60806040526040516118db3803806118db833981810160405281019061002591906102cd565b5f735b38da6a701c568545dcfcb03fcb875f56beddc490505f73ab8483f64d9c6d1ecf9b849ae677dd3315835cb290505f734b20993bc481177ec7e8f571cecae8a9e22c02db90506001805f8573ffffffffffffffffffffffffffffffffffffffff1673ffffffffffffffffffffffffffffffffffffffff1681526020019081526020015f205f6101000a81548160ff0219169083151502179055506001805f8473ffffffffffffffffffffffffffffffffffffffff1673ffffffffffffffffffffffffffffffffffffffff1681526020019081526020015f205f6101000a81548160ff0219169083151502179055506001805f8373ffffffffffffffffffffffffffffffffffffffff1673ffffffffffffffffffffffffffffffffffffffff1681526020019081526020015f205f6101000a81548160ff0219169083151502179055505f83908060018154018082558091505060019003905f5260205f20015f9091909190916101000a81548173ffffffffffffffffffffffffffffffffffffffff021916908373ffffffffffffffffffffffffffffffffffffffff1602179055505f82908060018154018082558091505060019003905f5260205f20015f9091909190916101000a81548173ffffffffffffffffffffffffffffffffffffffff021916908373ffffffffffffffffffffffffffffffffffffffff1602179055505f81908060018154018082558091505060019003905f5260205f20015f9091909190916101000a81548173ffffffffffffffffffffffffffffffffffffffff021916908373ffffffffffffffffffffffffffffffffffffffff16021790555083600281905550505050506102f8565b5f5ffd5b5f819050919050565b6102ac8161029a565b81146102b6575f5ffd5b50565b5f815190506102c7816102a3565b92915050565b5f602082840312156102e2576102e1610296565b5b5f6102ef848285016102b9565b91505092915050565b6115d6806103055f395ff3fe608060405260043610610089575f3560e01c80638253951a116100585780638253951a146101aa5780639ace38c2146101e6578063b759f95414610225578063dc8452cd1461024d578063fe0d94c114610277576100de565b8063025e7c27146100e257806314de327f1461011e57806320c5429b146101465780632f54bf6e1461016e576100de565b366100de573373ffffffffffffffffffffffffffffffffffffffff167fe1fffcc4923d04b559f4d29a8bfc6cda04eb5b0d3c460751c2402c5c5cc9109c346040516100d49190610c31565b60405180910390a2005b5f5ffd5b3480156100ed575f5ffd5b5061010860048036038101906101039190610c7c565b61029f565b6040516101159190610ce6565b60405180910390f35b348015610129575f5ffd5b50610144600480360381019061013f9190610d8a565b6102d9565b005b348015610151575f5ffd5b5061016c60048036038101906101679190610c7c565b610408565b005b348015610179575f5ffd5b50610194600480360381019061018f9190610dfb565b6105a0565b6040516101a19190610e40565b60405180910390f35b3480156101b5575f5ffd5b506101d060048036038101906101cb9190610e59565b6105bd565b6040516101dd9190610e40565b60405180910390f35b3480156101f1575f5ffd5b5061020c60048036038101906102079190610c7c565b6105e7565b60405161021c9493929190610f07565b60405180910390f35b348015610230575f5ffd5b5061024b60048036038101906102469190610c7c565b6106d3565b005b348015610258575f5ffd5b5061026161085a565b60405161026e9190610c31565b60405180910390f35b348015610282575f5ffd5b5061029d60048036038101906102989190610c7c565b610860565b005b5f81815481106102ad575f80fd5b905f5260205f20015f915054906101000a900473ffffffffffffffffffffffffffffffffffffffff1681565b600360405180608001604052808673ffffffffffffffffffffffffffffffffffffffff16815260200185815260200184848080601f0160208091040260200160405190810160405280939291908181526020018383808284375f81840152601f19601f8201169050808301925050505050505081526020015f1515815250908060018154018082558091505060019003905f5260205f2090600402015f909190919091505f820151815f015f6101000a81548173ffffffffffffffffffffffffffffffffffffffff021916908373ffffffffffffffffffffffffffffffffffffffff1602179055506020820151816001015560408201518160020190816103e0919061118c565b506060820151816003015f6101000a81548160ff021916908315150217905550505050505050565b60015f3373ffffffffffffffffffffffffffffffffffffffff1673ffffffffffffffffffffffffffffffffffffffff1681526020019081526020015f205f9054906101000a900460ff16610491576040517f08c379a0000000000000000000000000000000000000000000000000000000008152600401610488906112b5565b60405180910390fd5b80600381815481106104a6576104a56112d3565b5b905f5260205f2090600402016003015f9054906101000a900460ff1615610502576040517f08c379a00000000000000000000000000000000000000000000000000000000081526004016104f99061134a565b60405180910390fd5b5f60045f8481526020019081526020015f205f3373ffffffffffffffffffffffffffffffffffffffff1673ffffffffffffffffffffffffffffffffffffffff1681526020019081526020015f205f6101000a81548160ff0219169083151502179055507fdb43aa42235c8d63908794a952603e8d43a549383d13123c3d893a3fc2e62495826040516105949190610c31565b60405180910390a15050565b6001602052805f5260405f205f915054906101000a900460ff1681565b6004602052815f5260405f20602052805f5260405f205f915091509054906101000a900460ff1681565b600381815481106105f6575f80fd5b905f5260205f2090600402015f91509050805f015f9054906101000a900473ffffffffffffffffffffffffffffffffffffffff169080600101549080600201805461064090610fab565b80601f016020809104026020016040519081016040528092919081815260200182805461066c90610fab565b80156106b75780601f1061068e576101008083540402835291602001916106b7565b820191905f5260205f20905b81548152906001019060200180831161069a57829003601f168201915b505050505090806003015f9054906101000a900460ff16905084565b80600380549050811061071b576040517f08c379a0000000000000000000000000000000000000000000000000000000008152600401610712906113b2565b60405180910390fd5b60015f3373ffffffffffffffffffffffffffffffffffffffff1673ffffffffffffffffffffffffffffffffffffffff1681526020019081526020015f205f9054906101000a900460ff166107a4576040517f08c379a000000000000000000000000000000000000000000000000000000000815260040161079b906112b5565b60405180910390fd5b600160045f8481526020019081526020015f205f3373ffffffffffffffffffffffffffffffffffffffff1673ffffffffffffffffffffffffffffffffffffffff1681526020019081526020015f205f6101000a81548160ff0219169083151502179055503373ffffffffffffffffffffffffffffffffffffffff167f90ec57f18fa7b15c6b8d5e4d1deb90796c74b2ff23d4d0cecad0cb42a96b31288360405161084e9190610c31565b60405180910390a25050565b60025481565b60015f3373ffffffffffffffffffffffffffffffffffffffff1673ffffffffffffffffffffffffffffffffffffffff1681526020019081526020015f205f9054906101000a900460ff166108e9576040517f08c379a00000000000000000000000000000000000000000000000000000000081526004016108e0906112b5565b60405180910390fd5b806003805490508110610931576040517f08c379a0000000000000000000000000000000000000000000000000000000008152600401610928906113b2565b60405180910390fd5b8160038181548110610946576109456112d3565b5b905f5260205f2090600402016003015f9054906101000a900460ff16156109a2576040517f08c379a00000000000000000000000000000000000000000000000000000000081526004016109999061134a565b60405180910390fd5b825f5f5f90505b5f80549050811015610a6a5760045f8481526020019081526020015f205f5f83815481106109da576109d96112d3565b5b905f5260205f20015f9054906101000a900473ffffffffffffffffffffffffffffffffffffffff1673ffffffffffffffffffffffffffffffffffffffff1673ffffffffffffffffffffffffffffffffffffffff1681526020019081526020015f205f9054906101000a900460ff1615610a5d57600182610a5a91906113fd565b91505b80806001019150506109a9565b50600254811015610ab0576040517f08c379a0000000000000000000000000000000000000000000000000000000008152600401610aa79061147a565b60405180910390fd5b5f60038681548110610ac557610ac46112d3565b5b905f5260205f20906004020190506001816003015f6101000a81548160ff0219169083151502179055505f815f015f9054906101000a900473ffffffffffffffffffffffffffffffffffffffff1673ffffffffffffffffffffffffffffffffffffffff16826001015483600201604051610b3f9190611522565b5f6040518083038185875af1925050503d805f8114610b79576040519150601f19603f3d011682016040523d82523d5f602084013e610b7e565b606091505b5050905080610bc2576040517f08c379a0000000000000000000000000000000000000000000000000000000008152600401610bb990611582565b60405180910390fd5b3373ffffffffffffffffffffffffffffffffffffffff167fd1d68588e7da77963c3e39aa7bcbb89032f60b791e38da88dd815072205b364288604051610c089190610c31565b60405180910390a250505050505050565b5f819050919050565b610c2b81610c19565b82525050565b5f602082019050610c445f830184610c22565b92915050565b5f5ffd5b5f5ffd5b610c5b81610c19565b8114610c65575f5ffd5b50565b5f81359050610c7681610c52565b92915050565b5f60208284031215610c9157610c90610c4a565b5b5f610c9e84828501610c68565b91505092915050565b5f73ffffffffffffffffffffffffffffffffffffffff82169050919050565b5f610cd082610ca7565b9050919050565b610ce081610cc6565b82525050565b5f602082019050610cf95f830184610cd7565b92915050565b610d0881610cc6565b8114610d12575f5ffd5b50565b5f81359050610d2381610cff565b92915050565b5f5ffd5b5f5ffd5b5f5ffd5b5f5f83601f840112610d4a57610d49610d29565b5b8235905067ffffffffffffffff811115610d6757610d66610d2d565b5b602083019150836001820283011115610d8357610d82610d31565b5b9250929050565b5f5f5f5f60608587031215610da257610da1610c4a565b5b5f610daf87828801610d15565b9450506020610dc087828801610c68565b935050604085013567ffffffffffffffff811115610de157610de0610c4e565b5b610ded87828801610d35565b925092505092959194509250565b5f60208284031215610e1057610e0f610c4a565b5b5f610e1d84828501610d15565b91505092915050565b5f8115159050919050565b610e3a81610e26565b82525050565b5f602082019050610e535f830184610e31565b92915050565b5f5f60408385031215610e6f57610e6e610c4a565b5b5f610e7c85828601610c68565b9250506020610e8d85828601610d15565b9150509250929050565b5f81519050919050565b5f82825260208201905092915050565b8281835e5f83830152505050565b5f601f19601f8301169050919050565b5f610ed982610e97565b610ee38185610ea1565b9350610ef3818560208601610eb1565b610efc81610ebf565b840191505092915050565b5f608082019050610f1a5f830187610cd7565b610f276020830186610c22565b8181036040830152610f398185610ecf565b9050610f486060830184610e31565b95945050505050565b7f4e487b71000000000000000000000000000000000000000000000000000000005f52604160045260245ffd5b7f4e487b71000000000000000000000000000000000000000000000000000000005f52602260045260245ffd5b5f6002820490506001821680610fc257607f821691505b602082108103610fd557610fd4610f7e565b5b50919050565b5f819050815f5260205f209050919050565b5f6020601f8301049050919050565b5f82821b905092915050565b5f600883026110377fffffffffffffffffffffffffffffffffffffffffffffffffffffffffffffffff82610ffc565b6110418683610ffc565b95508019841693508086168417925050509392505050565b5f819050919050565b5f61107c61107761107284610c19565b611059565b610c19565b9050919050565b5f819050919050565b61109583611062565b6110a96110a182611083565b848454611008565b825550505050565b5f5f905090565b6110c06110b1565b6110cb81848461108c565b505050565b5f5b828110156110f1576110e65f8284016110b8565b6001810190506110d2565b505050565b601f82111561114457828211156111435761111081610fdb565b61111983610fed565b61112285610fed565b602086101561112f575f90505b80830161113e828403826110d0565b505050505b5b505050565b5f82821c905092915050565b5f6111645f1984600802611149565b1980831691505092915050565b5f61117c8383611155565b9150826002028217905092915050565b61119582610e97565b67ffffffffffffffff8111156111ae576111ad610f51565b5b6111b88254610fab565b6111c38282856110f6565b5f60209050601f8311600181146111f4575f84156111e2578287015190505b6111ec8582611171565b865550611253565b601f19841661120286610fdb565b5f5b8281101561122957848901518255600182019150602085019450602081019050611204565b868310156112465784890151611242601f891682611155565b8355505b6001600288020188555050505b505050505050565b5f82825260208201905092915050565b7f6e6f74206f776e657200000000000000000000000000000000000000000000005f82015250565b5f61129f60098361125b565b91506112aa8261126b565b602082019050919050565b5f6020820190508181035f8301526112cc81611293565b9050919050565b7f4e487b71000000000000000000000000000000000000000000000000000000005f52603260045260245ffd5b7f616c7265617920657865637574650000000000000000000000000000000000005f82015250565b5f611334600e8361125b565b915061133f82611300565b602082019050919050565b5f6020820190508181035f83015261136181611328565b9050919050565b7f696e76616c6964207473496400000000000000000000000000000000000000005f82015250565b5f61139c600c8361125b565b91506113a782611368565b602082019050919050565b5f6020820190508181035f8301526113c981611390565b9050919050565b7f4e487b71000000000000000000000000000000000000000000000000000000005f52601160045260245ffd5b5f61140782610c19565b915061141283610c19565b925082820190508082111561142a576114296113d0565b5b92915050565b7f617070726f76616c73203c2072657175697265640000000000000000000000005f82015250565b5f61146460148361125b565b915061146f82611430565b602082019050919050565b5f6020820190508181035f83015261149181611458565b9050919050565b5f81905092915050565b5f81546114ae81610fab565b6114b88186611498565b9450600182165f81146114d257600181146114e757611519565b60ff1983168652811515820286019350611519565b6114f085610fdb565b5f5b83811015611511578154818901526001820191506020810190506114f2565b838801955050505b50505092915050565b5f61152d82846114a2565b915081905092915050565b7f65786563757465206661696c65640000000000000000000000000000000000005f82015250565b5f61156c600e8361125b565b915061157782611538565b602082019050919050565b5f6020820190508181035f83015261159981611560565b905091905056fea2646970667358221220860794e0a9957845e9d10419fc35803a95823d059d9231d99bef0b7a4b3cc22864736f6c63430008220033",
					"opcodes": "PUSH1 0x80 PUSH1 0x40 MSTORE PUSH1 0x40 MLOAD PUSH2 0x18DB CODESIZE SUB DUP1 PUSH2 0x18DB DUP4 CODECOPY DUP2 DUP2 ADD PUSH1 0x40 MSTORE DUP2 ADD SWAP1 PUSH2 0x25 SWAP2 SWAP1 PUSH2 0x2CD JUMP JUMPDEST PUSH0 PUSH20 0x5B38DA6A701C568545DCFCB03FCB875F56BEDDC4 SWAP1 POP PUSH0 PUSH20 0xAB8483F64D9C6D1ECF9B849AE677DD3315835CB2 SWAP1 POP PUSH0 PUSH20 0x4B20993BC481177EC7E8F571CECAE8A9E22C02DB SWAP1 POP PUSH1 0x1 DUP1 PUSH0 DUP6 PUSH20 0xFFFFFFFFFFFFFFFFFFFFFFFFFFFFFFFFFFFFFFFF AND PUSH20 0xFFFFFFFFFFFFFFFFFFFFFFFFFFFFFFFFFFFFFFFF AND DUP2 MSTORE PUSH1 0x20 ADD SWAP1 DUP2 MSTORE PUSH1 0x20 ADD PUSH0 KECCAK256 PUSH0 PUSH2 0x100 EXP DUP2 SLOAD DUP2 PUSH1 0xFF MUL NOT AND SWAP1 DUP4 ISZERO ISZERO MUL OR SWAP1 SSTORE POP PUSH1 0x1 DUP1 PUSH0 DUP5 PUSH20 0xFFFFFFFFFFFFFFFFFFFFFFFFFFFFFFFFFFFFFFFF AND PUSH20 0xFFFFFFFFFFFFFFFFFFFFFFFFFFFFFFFFFFFFFFFF AND DUP2 MSTORE PUSH1 0x20 ADD SWAP1 DUP2 MSTORE PUSH1 0x20 ADD PUSH0 KECCAK256 PUSH0 PUSH2 0x100 EXP DUP2 SLOAD DUP2 PUSH1 0xFF MUL NOT AND SWAP1 DUP4 ISZERO ISZERO MUL OR SWAP1 SSTORE POP PUSH1 0x1 DUP1 PUSH0 DUP4 PUSH20 0xFFFFFFFFFFFFFFFFFFFFFFFFFFFFFFFFFFFFFFFF AND PUSH20 0xFFFFFFFFFFFFFFFFFFFFFFFFFFFFFFFFFFFFFFFF AND DUP2 MSTORE PUSH1 0x20 ADD SWAP1 DUP2 MSTORE PUSH1 0x20 ADD PUSH0 KECCAK256 PUSH0 PUSH2 0x100 EXP DUP2 SLOAD DUP2 PUSH1 0xFF MUL NOT AND SWAP1 DUP4 ISZERO ISZERO MUL OR SWAP1 SSTORE POP PUSH0 DUP4 SWAP1 DUP1 PUSH1 0x1 DUP2 SLOAD ADD DUP1 DUP3 SSTORE DUP1 SWAP2 POP POP PUSH1 0x1 SWAP1 SUB SWAP1 PUSH0 MSTORE PUSH1 0x20 PUSH0 KECCAK256 ADD PUSH0 SWAP1 SWAP2 SWAP1 SWAP2 SWAP1 SWAP2 PUSH2 0x100 EXP DUP2 SLOAD DUP2 PUSH20 0xFFFFFFFFFFFFFFFFFFFFFFFFFFFFFFFFFFFFFFFF MUL NOT AND SWAP1 DUP4 PUSH20 0xFFFFFFFFFFFFFFFFFFFFFFFFFFFFFFFFFFFFFFFF AND MUL OR SWAP1 SSTORE POP PUSH0 DUP3 SWAP1 DUP1 PUSH1 0x1 DUP2 SLOAD ADD DUP1 DUP3 SSTORE DUP1 SWAP2 POP POP PUSH1 0x1 SWAP1 SUB SWAP1 PUSH0 MSTORE PUSH1 0x20 PUSH0 KECCAK256 ADD PUSH0 SWAP1 SWAP2 SWAP1 SWAP2 SWAP1 SWAP2 PUSH2 0x100 EXP DUP2 SLOAD DUP2 PUSH20 0xFFFFFFFFFFFFFFFFFFFFFFFFFFFFFFFFFFFFFFFF MUL NOT AND SWAP1 DUP4 PUSH20 0xFFFFFFFFFFFFFFFFFFFFFFFFFFFFFFFFFFFFFFFF AND MUL OR SWAP1 SSTORE POP PUSH0 DUP2 SWAP1 DUP1 PUSH1 0x1 DUP2 SLOAD ADD DUP1 DUP3 SSTORE DUP1 SWAP2 POP POP PUSH1 0x1 SWAP1 SUB SWAP1 PUSH0 MSTORE PUSH1 0x20 PUSH0 KECCAK256 ADD PUSH0 SWAP1 SWAP2 SWAP1 SWAP2 SWAP1 SWAP2 PUSH2 0x100 EXP DUP2 SLOAD DUP2 PUSH20 0xFFFFFFFFFFFFFFFFFFFFFFFFFFFFFFFFFFFFFFFF MUL NOT AND SWAP1 DUP4 PUSH20 0xFFFFFFFFFFFFFFFFFFFFFFFFFFFFFFFFFFFFFFFF AND MUL OR SWAP1 SSTORE POP DUP4 PUSH1 0x2 DUP2 SWAP1 SSTORE POP POP POP POP POP PUSH2 0x2F8 JUMP JUMPDEST PUSH0 PUSH0 REVERT JUMPDEST PUSH0 DUP2 SWAP1 POP SWAP2 SWAP1 POP JUMP JUMPDEST PUSH2 0x2AC DUP2 PUSH2 0x29A JUMP JUMPDEST DUP2 EQ PUSH2 0x2B6 JUMPI PUSH0 PUSH0 REVERT JUMPDEST POP JUMP JUMPDEST PUSH0 DUP2 MLOAD SWAP1 POP PUSH2 0x2C7 DUP2 PUSH2 0x2A3 JUMP JUMPDEST SWAP3 SWAP2 POP POP JUMP JUMPDEST PUSH0 PUSH1 0x20 DUP3 DUP5 SUB SLT ISZERO PUSH2 0x2E2 JUMPI PUSH2 0x2E1 PUSH2 0x296 JUMP JUMPDEST JUMPDEST PUSH0 PUSH2 0x2EF DUP5 DUP3 DUP6 ADD PUSH2 0x2B9 JUMP JUMPDEST SWAP2 POP POP SWAP3 SWAP2 POP POP JUMP JUMPDEST PUSH2 0x15D6 DUP1 PUSH2 0x305 PUSH0 CODECOPY PUSH0 RETURN INVALID PUSH1 0x80 PUSH1 0x40 MSTORE PUSH1 0x4 CALLDATASIZE LT PUSH2 0x89 JUMPI PUSH0 CALLDATALOAD PUSH1 0xE0 SHR DUP1 PUSH4 0x8253951A GT PUSH2 0x58 JUMPI DUP1 PUSH4 0x8253951A EQ PUSH2 0x1AA JUMPI DUP1 PUSH4 0x9ACE38C2 EQ PUSH2 0x1E6 JUMPI DUP1 PUSH4 0xB759F954 EQ PUSH2 0x225 JUMPI DUP1 PUSH4 0xDC8452CD EQ PUSH2 0x24D JUMPI DUP1 PUSH4 0xFE0D94C1 EQ PUSH2 0x277 JUMPI PUSH2 0xDE JUMP JUMPDEST DUP1 PUSH4 0x25E7C27 EQ PUSH2 0xE2 JUMPI DUP1 PUSH4 0x14DE327F EQ PUSH2 0x11E JUMPI DUP1 PUSH4 0x20C5429B EQ PUSH2 0x146 JUMPI DUP1 PUSH4 0x2F54BF6E EQ PUSH2 0x16E JUMPI PUSH2 0xDE JUMP JUMPDEST CALLDATASIZE PUSH2 0xDE JUMPI CALLER PUSH20 0xFFFFFFFFFFFFFFFFFFFFFFFFFFFFFFFFFFFFFFFF AND PUSH32 0xE1FFFCC4923D04B559F4D29A8BFC6CDA04EB5B0D3C460751C2402C5C5CC9109C CALLVALUE PUSH1 0x40 MLOAD PUSH2 0xD4 SWAP2 SWAP1 PUSH2 0xC31 JUMP JUMPDEST PUSH1 0x40 MLOAD DUP1 SWAP2 SUB SWAP1 LOG2 STOP JUMPDEST PUSH0 PUSH0 REVERT JUMPDEST CALLVALUE DUP1 ISZERO PUSH2 0xED JUMPI PUSH0 PUSH0 REVERT JUMPDEST POP PUSH2 0x108 PUSH1 0x4 DUP1 CALLDATASIZE SUB DUP2 ADD SWAP1 PUSH2 0x103 SWAP2 SWAP1 PUSH2 0xC7C JUMP JUMPDEST PUSH2 0x29F JUMP JUMPDEST PUSH1 0x40 MLOAD PUSH2 0x115 SWAP2 SWAP1 PUSH2 0xCE6 JUMP JUMPDEST PUSH1 0x40 MLOAD DUP1 SWAP2 SUB SWAP1 RETURN JUMPDEST CALLVALUE DUP1 ISZERO PUSH2 0x129 JUMPI PUSH0 PUSH0 REVERT JUMPDEST POP PUSH2 0x144 PUSH1 0x4 DUP1 CALLDATASIZE SUB DUP2 ADD SWAP1 PUSH2 0x13F SWAP2 SWAP1 PUSH2 0xD8A JUMP JUMPDEST PUSH2 0x2D9 JUMP JUMPDEST STOP JUMPDEST CALLVALUE DUP1 ISZERO PUSH2 0x151 JUMPI PUSH0 PUSH0 REVERT JUMPDEST POP PUSH2 0x16C PUSH1 0x4 DUP1 CALLDATASIZE SUB DUP2 ADD SWAP1 PUSH2 0x167 SWAP2 SWAP1 PUSH2 0xC7C JUMP JUMPDEST PUSH2 0x408 JUMP JUMPDEST STOP JUMPDEST CALLVALUE DUP1 ISZERO PUSH2 0x179 JUMPI PUSH0 PUSH0 REVERT JUMPDEST POP PUSH2 0x194 PUSH1 0x4 DUP1 CALLDATASIZE SUB DUP2 ADD SWAP1 PUSH2 0x18F SWAP2 SWAP1 PUSH2 0xDFB JUMP JUMPDEST PUSH2 0x5A0 JUMP JUMPDEST PUSH1 0x40 MLOAD PUSH2 0x1A1 SWAP2 SWAP1 PUSH2 0xE40 JUMP JUMPDEST PUSH1 0x40 MLOAD DUP1 SWAP2 SUB SWAP1 RETURN JUMPDEST CALLVALUE DUP1 ISZERO PUSH2 0x1B5 JUMPI PUSH0 PUSH0 REVERT JUMPDEST POP PUSH2 0x1D0 PUSH1 0x4 DUP1 CALLDATASIZE SUB DUP2 ADD SWAP1 PUSH2 0x1CB SWAP2 SWAP1 PUSH2 0xE59 JUMP JUMPDEST PUSH2 0x5BD JUMP JUMPDEST PUSH1 0x40 MLOAD PUSH2 0x1DD SWAP2 SWAP1 PUSH2 0xE40 JUMP JUMPDEST PUSH1 0x40 MLOAD DUP1 SWAP2 SUB SWAP1 RETURN JUMPDEST CALLVALUE DUP1 ISZERO PUSH2 0x1F1 JUMPI PUSH0 PUSH0 REVERT JUMPDEST POP PUSH2 0x20C PUSH1 0x4 DUP1 CALLDATASIZE SUB DUP2 ADD SWAP1 PUSH2 0x207 SWAP2 SWAP1 PUSH2 0xC7C JUMP JUMPDEST PUSH2 0x5E7 JUMP JUMPDEST PUSH1 0x40 MLOAD PUSH2 0x21C SWAP5 SWAP4 SWAP3 SWAP2 SWAP1 PUSH2 0xF07 JUMP JUMPDEST PUSH1 0x40 MLOAD DUP1 SWAP2 SUB SWAP1 RETURN JUMPDEST CALLVALUE DUP1 ISZERO PUSH2 0x230 JUMPI PUSH0 PUSH0 REVERT JUMPDEST POP PUSH2 0x24B PUSH1 0x4 DUP1 CALLDATASIZE SUB DUP2 ADD SWAP1 PUSH2 0x246 SWAP2 SWAP1 PUSH2 0xC7C JUMP JUMPDEST PUSH2 0x6D3 JUMP JUMPDEST STOP JUMPDEST CALLVALUE DUP1 ISZERO PUSH2 0x258 JUMPI PUSH0 PUSH0 REVERT JUMPDEST POP PUSH2 0x261 PUSH2 0x85A JUMP JUMPDEST PUSH1 0x40 MLOAD PUSH2 0x26E SWAP2 SWAP1 PUSH2 0xC31 JUMP JUMPDEST PUSH1 0x40 MLOAD DUP1 SWAP2 SUB SWAP1 RETURN JUMPDEST CALLVALUE DUP1 ISZERO PUSH2 0x282 JUMPI PUSH0 PUSH0 REVERT JUMPDEST POP PUSH2 0x29D PUSH1 0x4 DUP1 CALLDATASIZE SUB DUP2 ADD SWAP1 PUSH2 0x298 SWAP2 SWAP1 PUSH2 0xC7C JUMP JUMPDEST PUSH2 0x860 JUMP JUMPDEST STOP JUMPDEST PUSH0 DUP2 DUP2 SLOAD DUP2 LT PUSH2 0x2AD JUMPI PUSH0 DUP1 REVERT JUMPDEST SWAP1 PUSH0 MSTORE PUSH1 0x20 PUSH0 KECCAK256 ADD PUSH0 SWAP2 POP SLOAD SWAP1 PUSH2 0x100 EXP SWAP1 DIV PUSH20 0xFFFFFFFFFFFFFFFFFFFFFFFFFFFFFFFFFFFFFFFF AND DUP2 JUMP JUMPDEST PUSH1 0x3 PUSH1 0x40 MLOAD DUP1 PUSH1 0x80 ADD PUSH1 0x40 MSTORE DUP1 DUP7 PUSH20 0xFFFFFFFFFFFFFFFFFFFFFFFFFFFFFFFFFFFFFFFF AND DUP2 MSTORE PUSH1 0x20 ADD DUP6 DUP2 MSTORE PUSH1 0x20 ADD DUP5 DUP5 DUP1 DUP1 PUSH1 0x1F ADD PUSH1 0x20 DUP1 SWAP2 DIV MUL PUSH1 0x20 ADD PUSH1 0x40 MLOAD SWAP1 DUP2 ADD PUSH1 0x40 MSTORE DUP1 SWAP4 SWAP3 SWAP2 SWAP1 DUP2 DUP2 MSTORE PUSH1 0x20 ADD DUP4 DUP4 DUP1 DUP3 DUP5 CALLDATACOPY PUSH0 DUP2 DUP5 ADD MSTORE PUSH1 0x1F NOT PUSH1 0x1F DUP3 ADD AND SWAP1 POP DUP1 DUP4 ADD SWAP3 POP POP POP POP POP POP POP DUP2 MSTORE PUSH1 0x20 ADD PUSH0 ISZERO ISZERO DUP2 MSTORE POP SWAP1 DUP1 PUSH1 0x1 DUP2 SLOAD ADD DUP1 DUP3 SSTORE DUP1 SWAP2 POP POP PUSH1 0x1 SWAP1 SUB SWAP1 PUSH0 MSTORE PUSH1 0x20 PUSH0 KECCAK256 SWAP1 PUSH1 0x4 MUL ADD PUSH0 SWAP1 SWAP2 SWAP1 SWAP2 SWAP1 SWAP2 POP PUSH0 DUP3 ADD MLOAD DUP2 PUSH0 ADD PUSH0 PUSH2 0x100 EXP DUP2 SLOAD DUP2 PUSH20 0xFFFFFFFFFFFFFFFFFFFFFFFFFFFFFFFFFFFFFFFF MUL NOT AND SWAP1 DUP4 PUSH20 0xFFFFFFFFFFFFFFFFFFFFFFFFFFFFFFFFFFFFFFFF AND MUL OR SWAP1 SSTORE POP PUSH1 0x20 DUP3 ADD MLOAD DUP2 PUSH1 0x1 ADD SSTORE PUSH1 0x40 DUP3 ADD MLOAD DUP2 PUSH1 0x2 ADD SWAP1 DUP2 PUSH2 0x3E0 SWAP2 SWAP1 PUSH2 0x118C JUMP JUMPDEST POP PUSH1 0x60 DUP3 ADD MLOAD DUP2 PUSH1 0x3 ADD PUSH0 PUSH2 0x100 EXP DUP2 SLOAD DUP2 PUSH1 0xFF MUL NOT AND SWAP1 DUP4 ISZERO ISZERO MUL OR SWAP1 SSTORE POP POP POP POP POP POP POP JUMP JUMPDEST PUSH1 0x1 PUSH0 CALLER PUSH20 0xFFFFFFFFFFFFFFFFFFFFFFFFFFFFFFFFFFFFFFFF AND PUSH20 0xFFFFFFFFFFFFFFFFFFFFFFFFFFFFFFFFFFFFFFFF AND DUP2 MSTORE PUSH1 0x20 ADD SWAP1 DUP2 MSTORE PUSH1 0x20 ADD PUSH0 KECCAK256 PUSH0 SWAP1 SLOAD SWAP1 PUSH2 0x100 EXP SWAP1 DIV PUSH1 0xFF AND PUSH2 0x491 JUMPI PUSH1 0x40 MLOAD PUSH32 0x8C379A000000000000000000000000000000000000000000000000000000000 DUP2 MSTORE PUSH1 0x4 ADD PUSH2 0x488 SWAP1 PUSH2 0x12B5 JUMP JUMPDEST PUSH1 0x40 MLOAD DUP1 SWAP2 SUB SWAP1 REVERT JUMPDEST DUP1 PUSH1 0x3 DUP2 DUP2 SLOAD DUP2 LT PUSH2 0x4A6 JUMPI PUSH2 0x4A5 PUSH2 0x12D3 JUMP JUMPDEST JUMPDEST SWAP1 PUSH0 MSTORE PUSH1 0x20 PUSH0 KECCAK256 SWAP1 PUSH1 0x4 MUL ADD PUSH1 0x3 ADD PUSH0 SWAP1 SLOAD SWAP1 PUSH2 0x100 EXP SWAP1 DIV PUSH1 0xFF AND ISZERO PUSH2 0x502 JUMPI PUSH1 0x40 MLOAD PUSH32 0x8C379A000000000000000000000000000000000000000000000000000000000 DUP2 MSTORE PUSH1 0x4 ADD PUSH2 0x4F9 SWAP1 PUSH2 0x134A JUMP JUMPDEST PUSH1 0x40 MLOAD DUP1 SWAP2 SUB SWAP1 REVERT JUMPDEST PUSH0 PUSH1 0x4 PUSH0 DUP5 DUP2 MSTORE PUSH1 0x20 ADD SWAP1 DUP2 MSTORE PUSH1 0x20 ADD PUSH0 KECCAK256 PUSH0 CALLER PUSH20 0xFFFFFFFFFFFFFFFFFFFFFFFFFFFFFFFFFFFFFFFF AND PUSH20 0xFFFFFFFFFFFFFFFFFFFFFFFFFFFFFFFFFFFFFFFF AND DUP2 MSTORE PUSH1 0x20 ADD SWAP1 DUP2 MSTORE PUSH1 0x20 ADD PUSH0 KECCAK256 PUSH0 PUSH2 0x100 EXP DUP2 SLOAD DUP2 PUSH1 0xFF MUL NOT AND SWAP1 DUP4 ISZERO ISZERO MUL OR SWAP1 SSTORE POP PUSH32 0xDB43AA42235C8D63908794A952603E8D43A549383D13123C3D893A3FC2E62495 DUP3 PUSH1 0x40 MLOAD PUSH2 0x594 SWAP2 SWAP1 PUSH2 0xC31 JUMP JUMPDEST PUSH1 0x40 MLOAD DUP1 SWAP2 SUB SWAP1 LOG1 POP POP JUMP JUMPDEST PUSH1 0x1 PUSH1 0x20 MSTORE DUP1 PUSH0 MSTORE PUSH1 0x40 PUSH0 KECCAK256 PUSH0 SWAP2 POP SLOAD SWAP1 PUSH2 0x100 EXP SWAP1 DIV PUSH1 0xFF AND DUP2 JUMP JUMPDEST PUSH1 0x4 PUSH1 0x20 MSTORE DUP2 PUSH0 MSTORE PUSH1 0x40 PUSH0 KECCAK256 PUSH1 0x20 MSTORE DUP1 PUSH0 MSTORE PUSH1 0x40 PUSH0 KECCAK256 PUSH0 SWAP2 POP SWAP2 POP SWAP1 SLOAD SWAP1 PUSH2 0x100 EXP SWAP1 DIV PUSH1 0xFF AND DUP2 JUMP JUMPDEST PUSH1 0x3 DUP2 DUP2 SLOAD DUP2 LT PUSH2 0x5F6 JUMPI PUSH0 DUP1 REVERT JUMPDEST SWAP1 PUSH0 MSTORE PUSH1 0x20 PUSH0 KECCAK256 SWAP1 PUSH1 0x4 MUL ADD PUSH0 SWAP2 POP SWAP1 POP DUP1 PUSH0 ADD PUSH0 SWAP1 SLOAD SWAP1 PUSH2 0x100 EXP SWAP1 DIV PUSH20 0xFFFFFFFFFFFFFFFFFFFFFFFFFFFFFFFFFFFFFFFF AND SWAP1 DUP1 PUSH1 0x1 ADD SLOAD SWAP1 DUP1 PUSH1 0x2 ADD DUP1 SLOAD PUSH2 0x640 SWAP1 PUSH2 0xFAB JUMP JUMPDEST DUP1 PUSH1 0x1F ADD PUSH1 0x20 DUP1 SWAP2 DIV MUL PUSH1 0x20 ADD PUSH1 0x40 MLOAD SWAP1 DUP2 ADD PUSH1 0x40 MSTORE DUP1 SWAP3 SWAP2 SWAP1 DUP2 DUP2 MSTORE PUSH1 0x20 ADD DUP3 DUP1 SLOAD PUSH2 0x66C SWAP1 PUSH2 0xFAB JUMP JUMPDEST DUP1 ISZERO PUSH2 0x6B7 JUMPI DUP1 PUSH1 0x1F LT PUSH2 0x68E JUMPI PUSH2 0x100 DUP1 DUP4 SLOAD DIV MUL DUP4 MSTORE SWAP2 PUSH1 0x20 ADD SWAP2 PUSH2 0x6B7 JUMP JUMPDEST DUP3 ADD SWAP2 SWAP1 PUSH0 MSTORE PUSH1 0x20 PUSH0 KECCAK256 SWAP1 JUMPDEST DUP2 SLOAD DUP2 MSTORE SWAP1 PUSH1 0x1 ADD SWAP1 PUSH1 0x20 ADD DUP1 DUP4 GT PUSH2 0x69A JUMPI DUP3 SWAP1 SUB PUSH1 0x1F AND DUP3 ADD SWAP2 JUMPDEST POP POP POP POP POP SWAP1 DUP1 PUSH1 0x3 ADD PUSH0 SWAP1 SLOAD SWAP1 PUSH2 0x100 EXP SWAP1 DIV PUSH1 0xFF AND SWAP1 POP DUP5 JUMP JUMPDEST DUP1 PUSH1 0x3 DUP1 SLOAD SWAP1 POP DUP2 LT PUSH2 0x71B JUMPI PUSH1 0x40 MLOAD PUSH32 0x8C379A000000000000000000000000000000000000000000000000000000000 DUP2 MSTORE PUSH1 0x4 ADD PUSH2 0x712 SWAP1 PUSH2 0x13B2 JUMP JUMPDEST PUSH1 0x40 MLOAD DUP1 SWAP2 SUB SWAP1 REVERT JUMPDEST PUSH1 0x1 PUSH0 CALLER PUSH20 0xFFFFFFFFFFFFFFFFFFFFFFFFFFFFFFFFFFFFFFFF AND PUSH20 0xFFFFFFFFFFFFFFFFFFFFFFFFFFFFFFFFFFFFFFFF AND DUP2 MSTORE PUSH1 0x20 ADD SWAP1 DUP2 MSTORE PUSH1 0x20 ADD PUSH0 KECCAK256 PUSH0 SWAP1 SLOAD SWAP1 PUSH2 0x100 EXP SWAP1 DIV PUSH1 0xFF AND PUSH2 0x7A4 JUMPI PUSH1 0x40 MLOAD PUSH32 0x8C379A000000000000000000000000000000000000000000000000000000000 DUP2 MSTORE PUSH1 0x4 ADD PUSH2 0x79B SWAP1 PUSH2 0x12B5 JUMP JUMPDEST PUSH1 0x40 MLOAD DUP1 SWAP2 SUB SWAP1 REVERT JUMPDEST PUSH1 0x1 PUSH1 0x4 PUSH0 DUP5 DUP2 MSTORE PUSH1 0x20 ADD SWAP1 DUP2 MSTORE PUSH1 0x20 ADD PUSH0 KECCAK256 PUSH0 CALLER PUSH20 0xFFFFFFFFFFFFFFFFFFFFFFFFFFFFFFFFFFFFFFFF AND PUSH20 0xFFFFFFFFFFFFFFFFFFFFFFFFFFFFFFFFFFFFFFFF AND DUP2 MSTORE PUSH1 0x20 ADD SWAP1 DUP2 MSTORE PUSH1 0x20 ADD PUSH0 KECCAK256 PUSH0 PUSH2 0x100 EXP DUP2 SLOAD DUP2 PUSH1 0xFF MUL NOT AND SWAP1 DUP4 ISZERO ISZERO MUL OR SWAP1 SSTORE POP CALLER PUSH20 0xFFFFFFFFFFFFFFFFFFFFFFFFFFFFFFFFFFFFFFFF AND PUSH32 0x90EC57F18FA7B15C6B8D5E4D1DEB90796C74B2FF23D4D0CECAD0CB42A96B3128 DUP4 PUSH1 0x40 MLOAD PUSH2 0x84E SWAP2 SWAP1 PUSH2 0xC31 JUMP JUMPDEST PUSH1 0x40 MLOAD DUP1 SWAP2 SUB SWAP1 LOG2 POP POP JUMP JUMPDEST PUSH1 0x2 SLOAD DUP2 JUMP JUMPDEST PUSH1 0x1 PUSH0 CALLER PUSH20 0xFFFFFFFFFFFFFFFFFFFFFFFFFFFFFFFFFFFFFFFF AND PUSH20 0xFFFFFFFFFFFFFFFFFFFFFFFFFFFFFFFFFFFFFFFF AND DUP2 MSTORE PUSH1 0x20 ADD SWAP1 DUP2 MSTORE PUSH1 0x20 ADD PUSH0 KECCAK256 PUSH0 SWAP1 SLOAD SWAP1 PUSH2 0x100 EXP SWAP1 DIV PUSH1 0xFF AND PUSH2 0x8E9 JUMPI PUSH1 0x40 MLOAD PUSH32 0x8C379A000000000000000000000000000000000000000000000000000000000 DUP2 MSTORE PUSH1 0x4 ADD PUSH2 0x8E0 SWAP1 PUSH2 0x12B5 JUMP JUMPDEST PUSH1 0x40 MLOAD DUP1 SWAP2 SUB SWAP1 REVERT JUMPDEST DUP1 PUSH1 0x3 DUP1 SLOAD SWAP1 POP DUP2 LT PUSH2 0x931 JUMPI PUSH1 0x40 MLOAD PUSH32 0x8C379A000000000000000000000000000000000000000000000000000000000 DUP2 MSTORE PUSH1 0x4 ADD PUSH2 0x928 SWAP1 PUSH2 0x13B2 JUMP JUMPDEST PUSH1 0x40 MLOAD DUP1 SWAP2 SUB SWAP1 REVERT JUMPDEST DUP2 PUSH1 0x3 DUP2 DUP2 SLOAD DUP2 LT PUSH2 0x946 JUMPI PUSH2 0x945 PUSH2 0x12D3 JUMP JUMPDEST JUMPDEST SWAP1 PUSH0 MSTORE PUSH1 0x20 PUSH0 KECCAK256 SWAP1 PUSH1 0x4 MUL ADD PUSH1 0x3 ADD PUSH0 SWAP1 SLOAD SWAP1 PUSH2 0x100 EXP SWAP1 DIV PUSH1 0xFF AND ISZERO PUSH2 0x9A2 JUMPI PUSH1 0x40 MLOAD PUSH32 0x8C379A000000000000000000000000000000000000000000000000000000000 DUP2 MSTORE PUSH1 0x4 ADD PUSH2 0x999 SWAP1 PUSH2 0x134A JUMP JUMPDEST PUSH1 0x40 MLOAD DUP1 SWAP2 SUB SWAP1 REVERT JUMPDEST DUP3 PUSH0 PUSH0 PUSH0 SWAP1 POP JUMPDEST PUSH0 DUP1 SLOAD SWAP1 POP DUP2 LT ISZERO PUSH2 0xA6A JUMPI PUSH1 0x4 PUSH0 DUP5 DUP2 MSTORE PUSH1 0x20 ADD SWAP1 DUP2 MSTORE PUSH1 0x20 ADD PUSH0 KECCAK256 PUSH0 PUSH0 DUP4 DUP2 SLOAD DUP2 LT PUSH2 0x9DA JUMPI PUSH2 0x9D9 PUSH2 0x12D3 JUMP JUMPDEST JUMPDEST SWAP1 PUSH0 MSTORE PUSH1 0x20 PUSH0 KECCAK256 ADD PUSH0 SWAP1 SLOAD SWAP1 PUSH2 0x100 EXP SWAP1 DIV PUSH20 0xFFFFFFFFFFFFFFFFFFFFFFFFFFFFFFFFFFFFFFFF AND PUSH20 0xFFFFFFFFFFFFFFFFFFFFFFFFFFFFFFFFFFFFFFFF AND PUSH20 0xFFFFFFFFFFFFFFFFFFFFFFFFFFFFFFFFFFFFFFFF AND DUP2 MSTORE PUSH1 0x20 ADD SWAP1 DUP2 MSTORE PUSH1 0x20 ADD PUSH0 KECCAK256 PUSH0 SWAP1 SLOAD SWAP1 PUSH2 0x100 EXP SWAP1 DIV PUSH1 0xFF AND ISZERO PUSH2 0xA5D JUMPI PUSH1 0x1 DUP3 PUSH2 0xA5A SWAP2 SWAP1 PUSH2 0x13FD JUMP JUMPDEST SWAP2 POP JUMPDEST DUP1 DUP1 PUSH1 0x1 ADD SWAP2 POP POP PUSH2 0x9A9 JUMP JUMPDEST POP PUSH1 0x2 SLOAD DUP2 LT ISZERO PUSH2 0xAB0 JUMPI PUSH1 0x40 MLOAD PUSH32 0x8C379A000000000000000000000000000000000000000000000000000000000 DUP2 MSTORE PUSH1 0x4 ADD PUSH2 0xAA7 SWAP1 PUSH2 0x147A JUMP JUMPDEST PUSH1 0x40 MLOAD DUP1 SWAP2 SUB SWAP1 REVERT JUMPDEST PUSH0 PUSH1 0x3 DUP7 DUP2 SLOAD DUP2 LT PUSH2 0xAC5 JUMPI PUSH2 0xAC4 PUSH2 0x12D3 JUMP JUMPDEST JUMPDEST SWAP1 PUSH0 MSTORE PUSH1 0x20 PUSH0 KECCAK256 SWAP1 PUSH1 0x4 MUL ADD SWAP1 POP PUSH1 0x1 DUP2 PUSH1 0x3 ADD PUSH0 PUSH2 0x100 EXP DUP2 SLOAD DUP2 PUSH1 0xFF MUL NOT AND SWAP1 DUP4 ISZERO ISZERO MUL OR SWAP1 SSTORE POP PUSH0 DUP2 PUSH0 ADD PUSH0 SWAP1 SLOAD SWAP1 PUSH2 0x100 EXP SWAP1 DIV PUSH20 0xFFFFFFFFFFFFFFFFFFFFFFFFFFFFFFFFFFFFFFFF AND PUSH20 0xFFFFFFFFFFFFFFFFFFFFFFFFFFFFFFFFFFFFFFFF AND DUP3 PUSH1 0x1 ADD SLOAD DUP4 PUSH1 0x2 ADD PUSH1 0x40 MLOAD PUSH2 0xB3F SWAP2 SWAP1 PUSH2 0x1522 JUMP JUMPDEST PUSH0 PUSH1 0x40 MLOAD DUP1 DUP4 SUB DUP2 DUP6 DUP8 GAS CALL SWAP3 POP POP POP RETURNDATASIZE DUP1 PUSH0 DUP2 EQ PUSH2 0xB79 JUMPI PUSH1 0x40 MLOAD SWAP2 POP PUSH1 0x1F NOT PUSH1 0x3F RETURNDATASIZE ADD AND DUP3 ADD PUSH1 0x40 MSTORE RETURNDATASIZE DUP3 MSTORE RETURNDATASIZE PUSH0 PUSH1 0x20 DUP5 ADD RETURNDATACOPY PUSH2 0xB7E JUMP JUMPDEST PUSH1 0x60 SWAP2 POP JUMPDEST POP POP SWAP1 POP DUP1 PUSH2 0xBC2 JUMPI PUSH1 0x40 MLOAD PUSH32 0x8C379A000000000000000000000000000000000000000000000000000000000 DUP2 MSTORE PUSH1 0x4 ADD PUSH2 0xBB9 SWAP1 PUSH2 0x1582 JUMP JUMPDEST PUSH1 0x40 MLOAD DUP1 SWAP2 SUB SWAP1 REVERT JUMPDEST CALLER PUSH20 0xFFFFFFFFFFFFFFFFFFFFFFFFFFFFFFFFFFFFFFFF AND PUSH32 0xD1D68588E7DA77963C3E39AA7BCBB89032F60B791E38DA88DD815072205B3642 DUP9 PUSH1 0x40 MLOAD PUSH2 0xC08 SWAP2 SWAP1 PUSH2 0xC31 JUMP JUMPDEST PUSH1 0x40 MLOAD DUP1 SWAP2 SUB SWAP1 LOG2 POP POP POP POP POP POP POP JUMP JUMPDEST PUSH0 DUP2 SWAP1 POP SWAP2 SWAP1 POP JUMP JUMPDEST PUSH2 0xC2B DUP2 PUSH2 0xC19 JUMP JUMPDEST DUP3 MSTORE POP POP JUMP JUMPDEST PUSH0 PUSH1 0x20 DUP3 ADD SWAP1 POP PUSH2 0xC44 PUSH0 DUP4 ADD DUP5 PUSH2 0xC22 JUMP JUMPDEST SWAP3 SWAP2 POP POP JUMP JUMPDEST PUSH0 PUSH0 REVERT JUMPDEST PUSH0 PUSH0 REVERT JUMPDEST PUSH2 0xC5B DUP2 PUSH2 0xC19 JUMP JUMPDEST DUP2 EQ PUSH2 0xC65 JUMPI PUSH0 PUSH0 REVERT JUMPDEST POP JUMP JUMPDEST PUSH0 DUP2 CALLDATALOAD SWAP1 POP PUSH2 0xC76 DUP2 PUSH2 0xC52 JUMP JUMPDEST SWAP3 SWAP2 POP POP JUMP JUMPDEST PUSH0 PUSH1 0x20 DUP3 DUP5 SUB SLT ISZERO PUSH2 0xC91 JUMPI PUSH2 0xC90 PUSH2 0xC4A JUMP JUMPDEST JUMPDEST PUSH0 PUSH2 0xC9E DUP5 DUP3 DUP6 ADD PUSH2 0xC68 JUMP JUMPDEST SWAP2 POP POP SWAP3 SWAP2 POP POP JUMP JUMPDEST PUSH0 PUSH20 0xFFFFFFFFFFFFFFFFFFFFFFFFFFFFFFFFFFFFFFFF DUP3 AND SWAP1 POP SWAP2 SWAP1 POP JUMP JUMPDEST PUSH0 PUSH2 0xCD0 DUP3 PUSH2 0xCA7 JUMP JUMPDEST SWAP1 POP SWAP2 SWAP1 POP JUMP JUMPDEST PUSH2 0xCE0 DUP2 PUSH2 0xCC6 JUMP JUMPDEST DUP3 MSTORE POP POP JUMP JUMPDEST PUSH0 PUSH1 0x20 DUP3 ADD SWAP1 POP PUSH2 0xCF9 PUSH0 DUP4 ADD DUP5 PUSH2 0xCD7 JUMP JUMPDEST SWAP3 SWAP2 POP POP JUMP JUMPDEST PUSH2 0xD08 DUP2 PUSH2 0xCC6 JUMP JUMPDEST DUP2 EQ PUSH2 0xD12 JUMPI PUSH0 PUSH0 REVERT JUMPDEST POP JUMP JUMPDEST PUSH0 DUP2 CALLDATALOAD SWAP1 POP PUSH2 0xD23 DUP2 PUSH2 0xCFF JUMP JUMPDEST SWAP3 SWAP2 POP POP JUMP JUMPDEST PUSH0 PUSH0 REVERT JUMPDEST PUSH0 PUSH0 REVERT JUMPDEST PUSH0 PUSH0 REVERT JUMPDEST PUSH0 PUSH0 DUP4 PUSH1 0x1F DUP5 ADD SLT PUSH2 0xD4A JUMPI PUSH2 0xD49 PUSH2 0xD29 JUMP JUMPDEST JUMPDEST DUP3 CALLDATALOAD SWAP1 POP PUSH8 0xFFFFFFFFFFFFFFFF DUP2 GT ISZERO PUSH2 0xD67 JUMPI PUSH2 0xD66 PUSH2 0xD2D JUMP JUMPDEST JUMPDEST PUSH1 0x20 DUP4 ADD SWAP2 POP DUP4 PUSH1 0x1 DUP3 MUL DUP4 ADD GT ISZERO PUSH2 0xD83 JUMPI PUSH2 0xD82 PUSH2 0xD31 JUMP JUMPDEST JUMPDEST SWAP3 POP SWAP3 SWAP1 POP JUMP JUMPDEST PUSH0 PUSH0 PUSH0 PUSH0 PUSH1 0x60 DUP6 DUP8 SUB SLT ISZERO PUSH2 0xDA2 JUMPI PUSH2 0xDA1 PUSH2 0xC4A JUMP JUMPDEST JUMPDEST PUSH0 PUSH2 0xDAF DUP8 DUP3 DUP9 ADD PUSH2 0xD15 JUMP JUMPDEST SWAP5 POP POP PUSH1 0x20 PUSH2 0xDC0 DUP8 DUP3 DUP9 ADD PUSH2 0xC68 JUMP JUMPDEST SWAP4 POP POP PUSH1 0x40 DUP6 ADD CALLDATALOAD PUSH8 0xFFFFFFFFFFFFFFFF DUP2 GT ISZERO PUSH2 0xDE1 JUMPI PUSH2 0xDE0 PUSH2 0xC4E JUMP JUMPDEST JUMPDEST PUSH2 0xDED DUP8 DUP3 DUP9 ADD PUSH2 0xD35 JUMP JUMPDEST SWAP3 POP SWAP3 POP POP SWAP3 SWAP6 SWAP2 SWAP5 POP SWAP3 POP JUMP JUMPDEST PUSH0 PUSH1 0x20 DUP3 DUP5 SUB SLT ISZERO PUSH2 0xE10 JUMPI PUSH2 0xE0F PUSH2 0xC4A JUMP JUMPDEST JUMPDEST PUSH0 PUSH2 0xE1D DUP5 DUP3 DUP6 ADD PUSH2 0xD15 JUMP JUMPDEST SWAP2 POP POP SWAP3 SWAP2 POP POP JUMP JUMPDEST PUSH0 DUP2 ISZERO ISZERO SWAP1 POP SWAP2 SWAP1 POP JUMP JUMPDEST PUSH2 0xE3A DUP2 PUSH2 0xE26 JUMP JUMPDEST DUP3 MSTORE POP POP JUMP JUMPDEST PUSH0 PUSH1 0x20 DUP3 ADD SWAP1 POP PUSH2 0xE53 PUSH0 DUP4 ADD DUP5 PUSH2 0xE31 JUMP JUMPDEST SWAP3 SWAP2 POP POP JUMP JUMPDEST PUSH0 PUSH0 PUSH1 0x40 DUP4 DUP6 SUB SLT ISZERO PUSH2 0xE6F JUMPI PUSH2 0xE6E PUSH2 0xC4A JUMP JUMPDEST JUMPDEST PUSH0 PUSH2 0xE7C DUP6 DUP3 DUP7 ADD PUSH2 0xC68 JUMP JUMPDEST SWAP3 POP POP PUSH1 0x20 PUSH2 0xE8D DUP6 DUP3 DUP7 ADD PUSH2 0xD15 JUMP JUMPDEST SWAP2 POP POP SWAP3 POP SWAP3 SWAP1 POP JUMP JUMPDEST PUSH0 DUP2 MLOAD SWAP1 POP SWAP2 SWAP1 POP JUMP JUMPDEST PUSH0 DUP3 DUP3 MSTORE PUSH1 0x20 DUP3 ADD SWAP1 POP SWAP3 SWAP2 POP POP JUMP JUMPDEST DUP3 DUP2 DUP4 MCOPY PUSH0 DUP4 DUP4 ADD MSTORE POP POP POP JUMP JUMPDEST PUSH0 PUSH1 0x1F NOT PUSH1 0x1F DUP4 ADD AND SWAP1 POP SWAP2 SWAP1 POP JUMP JUMPDEST PUSH0 PUSH2 0xED9 DUP3 PUSH2 0xE97 JUMP JUMPDEST PUSH2 0xEE3 DUP2 DUP6 PUSH2 0xEA1 JUMP JUMPDEST SWAP4 POP PUSH2 0xEF3 DUP2 DUP6 PUSH1 0x20 DUP7 ADD PUSH2 0xEB1 JUMP JUMPDEST PUSH2 0xEFC DUP2 PUSH2 0xEBF JUMP JUMPDEST DUP5 ADD SWAP2 POP POP SWAP3 SWAP2 POP POP JUMP JUMPDEST PUSH0 PUSH1 0x80 DUP3 ADD SWAP1 POP PUSH2 0xF1A PUSH0 DUP4 ADD DUP8 PUSH2 0xCD7 JUMP JUMPDEST PUSH2 0xF27 PUSH1 0x20 DUP4 ADD DUP7 PUSH2 0xC22 JUMP JUMPDEST DUP2 DUP2 SUB PUSH1 0x40 DUP4 ADD MSTORE PUSH2 0xF39 DUP2 DUP6 PUSH2 0xECF JUMP JUMPDEST SWAP1 POP PUSH2 0xF48 PUSH1 0x60 DUP4 ADD DUP5 PUSH2 0xE31 JUMP JUMPDEST SWAP6 SWAP5 POP POP POP POP POP JUMP JUMPDEST PUSH32 0x4E487B7100000000000000000000000000000000000000000000000000000000 PUSH0 MSTORE PUSH1 0x41 PUSH1 0x4 MSTORE PUSH1 0x24 PUSH0 REVERT JUMPDEST PUSH32 0x4E487B7100000000000000000000000000000000000000000000000000000000 PUSH0 MSTORE PUSH1 0x22 PUSH1 0x4 MSTORE PUSH1 0x24 PUSH0 REVERT JUMPDEST PUSH0 PUSH1 0x2 DUP3 DIV SWAP1 POP PUSH1 0x1 DUP3 AND DUP1 PUSH2 0xFC2 JUMPI PUSH1 0x7F DUP3 AND SWAP2 POP JUMPDEST PUSH1 0x20 DUP3 LT DUP2 SUB PUSH2 0xFD5 JUMPI PUSH2 0xFD4 PUSH2 0xF7E JUMP JUMPDEST JUMPDEST POP SWAP2 SWAP1 POP JUMP JUMPDEST PUSH0 DUP2 SWAP1 POP DUP2 PUSH0 MSTORE PUSH1 0x20 PUSH0 KECCAK256 SWAP1 POP SWAP2 SWAP1 POP JUMP JUMPDEST PUSH0 PUSH1 0x20 PUSH1 0x1F DUP4 ADD DIV SWAP1 POP SWAP2 SWAP1 POP JUMP JUMPDEST PUSH0 DUP3 DUP3 SHL SWAP1 POP SWAP3 SWAP2 POP POP JUMP JUMPDEST PUSH0 PUSH1 0x8 DUP4 MUL PUSH2 0x1037 PUSH32 0xFFFFFFFFFFFFFFFFFFFFFFFFFFFFFFFFFFFFFFFFFFFFFFFFFFFFFFFFFFFFFFFF DUP3 PUSH2 0xFFC JUMP JUMPDEST PUSH2 0x1041 DUP7 DUP4 PUSH2 0xFFC JUMP JUMPDEST SWAP6 POP DUP1 NOT DUP5 AND SWAP4 POP DUP1 DUP7 AND DUP5 OR SWAP3 POP POP POP SWAP4 SWAP3 POP POP POP JUMP JUMPDEST PUSH0 DUP2 SWAP1 POP SWAP2 SWAP1 POP JUMP JUMPDEST PUSH0 PUSH2 0x107C PUSH2 0x1077 PUSH2 0x1072 DUP5 PUSH2 0xC19 JUMP JUMPDEST PUSH2 0x1059 JUMP JUMPDEST PUSH2 0xC19 JUMP JUMPDEST SWAP1 POP SWAP2 SWAP1 POP JUMP JUMPDEST PUSH0 DUP2 SWAP1 POP SWAP2 SWAP1 POP JUMP JUMPDEST PUSH2 0x1095 DUP4 PUSH2 0x1062 JUMP JUMPDEST PUSH2 0x10A9 PUSH2 0x10A1 DUP3 PUSH2 0x1083 JUMP JUMPDEST DUP5 DUP5 SLOAD PUSH2 0x1008 JUMP JUMPDEST DUP3 SSTORE POP POP POP POP JUMP JUMPDEST PUSH0 PUSH0 SWAP1 POP SWAP1 JUMP JUMPDEST PUSH2 0x10C0 PUSH2 0x10B1 JUMP JUMPDEST PUSH2 0x10CB DUP2 DUP5 DUP5 PUSH2 0x108C JUMP JUMPDEST POP POP POP JUMP JUMPDEST PUSH0 JUMPDEST DUP3 DUP2 LT ISZERO PUSH2 0x10F1 JUMPI PUSH2 0x10E6 PUSH0 DUP3 DUP5 ADD PUSH2 0x10B8 JUMP JUMPDEST PUSH1 0x1 DUP2 ADD SWAP1 POP PUSH2 0x10D2 JUMP JUMPDEST POP POP POP JUMP JUMPDEST PUSH1 0x1F DUP3 GT ISZERO PUSH2 0x1144 JUMPI DUP3 DUP3 GT ISZERO PUSH2 0x1143 JUMPI PUSH2 0x1110 DUP2 PUSH2 0xFDB JUMP JUMPDEST PUSH2 0x1119 DUP4 PUSH2 0xFED JUMP JUMPDEST PUSH2 0x1122 DUP6 PUSH2 0xFED JUMP JUMPDEST PUSH1 0x20 DUP7 LT ISZERO PUSH2 0x112F JUMPI PUSH0 SWAP1 POP JUMPDEST DUP1 DUP4 ADD PUSH2 0x113E DUP3 DUP5 SUB DUP3 PUSH2 0x10D0 JUMP JUMPDEST POP POP POP POP JUMPDEST JUMPDEST POP POP POP JUMP JUMPDEST PUSH0 DUP3 DUP3 SHR SWAP1 POP SWAP3 SWAP2 POP POP JUMP JUMPDEST PUSH0 PUSH2 0x1164 PUSH0 NOT DUP5 PUSH1 0x8 MUL PUSH2 0x1149 JUMP JUMPDEST NOT DUP1 DUP4 AND SWAP2 POP POP SWAP3 SWAP2 POP POP JUMP JUMPDEST PUSH0 PUSH2 0x117C DUP4 DUP4 PUSH2 0x1155 JUMP JUMPDEST SWAP2 POP DUP3 PUSH1 0x2 MUL DUP3 OR SWAP1 POP SWAP3 SWAP2 POP POP JUMP JUMPDEST PUSH2 0x1195 DUP3 PUSH2 0xE97 JUMP JUMPDEST PUSH8 0xFFFFFFFFFFFFFFFF DUP2 GT ISZERO PUSH2 0x11AE JUMPI PUSH2 0x11AD PUSH2 0xF51 JUMP JUMPDEST JUMPDEST PUSH2 0x11B8 DUP3 SLOAD PUSH2 0xFAB JUMP JUMPDEST PUSH2 0x11C3 DUP3 DUP3 DUP6 PUSH2 0x10F6 JUMP JUMPDEST PUSH0 PUSH1 0x20 SWAP1 POP PUSH1 0x1F DUP4 GT PUSH1 0x1 DUP2 EQ PUSH2 0x11F4 JUMPI PUSH0 DUP5 ISZERO PUSH2 0x11E2 JUMPI DUP3 DUP8 ADD MLOAD SWAP1 POP JUMPDEST PUSH2 0x11EC DUP6 DUP3 PUSH2 0x1171 JUMP JUMPDEST DUP7 SSTORE POP PUSH2 0x1253 JUMP JUMPDEST PUSH1 0x1F NOT DUP5 AND PUSH2 0x1202 DUP7 PUSH2 0xFDB JUMP JUMPDEST PUSH0 JUMPDEST DUP3 DUP2 LT ISZERO PUSH2 0x1229 JUMPI DUP5 DUP10 ADD MLOAD DUP3 SSTORE PUSH1 0x1 DUP3 ADD SWAP2 POP PUSH1 0x20 DUP6 ADD SWAP5 POP PUSH1 0x20 DUP2 ADD SWAP1 POP PUSH2 0x1204 JUMP JUMPDEST DUP7 DUP4 LT ISZERO PUSH2 0x1246 JUMPI DUP5 DUP10 ADD MLOAD PUSH2 0x1242 PUSH1 0x1F DUP10 AND DUP3 PUSH2 0x1155 JUMP JUMPDEST DUP4 SSTORE POP JUMPDEST PUSH1 0x1 PUSH1 0x2 DUP9 MUL ADD DUP9 SSTORE POP POP POP JUMPDEST POP POP POP POP POP POP JUMP JUMPDEST PUSH0 DUP3 DUP3 MSTORE PUSH1 0x20 DUP3 ADD SWAP1 POP SWAP3 SWAP2 POP POP JUMP JUMPDEST PUSH32 0x6E6F74206F776E65720000000000000000000000000000000000000000000000 PUSH0 DUP3 ADD MSTORE POP JUMP JUMPDEST PUSH0 PUSH2 0x129F PUSH1 0x9 DUP4 PUSH2 0x125B JUMP JUMPDEST SWAP2 POP PUSH2 0x12AA DUP3 PUSH2 0x126B JUMP JUMPDEST PUSH1 0x20 DUP3 ADD SWAP1 POP SWAP2 SWAP1 POP JUMP JUMPDEST PUSH0 PUSH1 0x20 DUP3 ADD SWAP1 POP DUP2 DUP2 SUB PUSH0 DUP4 ADD MSTORE PUSH2 0x12CC DUP2 PUSH2 0x1293 JUMP JUMPDEST SWAP1 POP SWAP2 SWAP1 POP JUMP JUMPDEST PUSH32 0x4E487B7100000000000000000000000000000000000000000000000000000000 PUSH0 MSTORE PUSH1 0x32 PUSH1 0x4 MSTORE PUSH1 0x24 PUSH0 REVERT JUMPDEST PUSH32 0x616C726561792065786563757465000000000000000000000000000000000000 PUSH0 DUP3 ADD MSTORE POP JUMP JUMPDEST PUSH0 PUSH2 0x1334 PUSH1 0xE DUP4 PUSH2 0x125B JUMP JUMPDEST SWAP2 POP PUSH2 0x133F DUP3 PUSH2 0x1300 JUMP JUMPDEST PUSH1 0x20 DUP3 ADD SWAP1 POP SWAP2 SWAP1 POP JUMP JUMPDEST PUSH0 PUSH1 0x20 DUP3 ADD SWAP1 POP DUP2 DUP2 SUB PUSH0 DUP4 ADD MSTORE PUSH2 0x1361 DUP2 PUSH2 0x1328 JUMP JUMPDEST SWAP1 POP SWAP2 SWAP1 POP JUMP JUMPDEST PUSH32 0x696E76616C696420747349640000000000000000000000000000000000000000 PUSH0 DUP3 ADD MSTORE POP JUMP JUMPDEST PUSH0 PUSH2 0x139C PUSH1 0xC DUP4 PUSH2 0x125B JUMP JUMPDEST SWAP2 POP PUSH2 0x13A7 DUP3 PUSH2 0x1368 JUMP JUMPDEST PUSH1 0x20 DUP3 ADD SWAP1 POP SWAP2 SWAP1 POP JUMP JUMPDEST PUSH0 PUSH1 0x20 DUP3 ADD SWAP1 POP DUP2 DUP2 SUB PUSH0 DUP4 ADD MSTORE PUSH2 0x13C9 DUP2 PUSH2 0x1390 JUMP JUMPDEST SWAP1 POP SWAP2 SWAP1 POP JUMP JUMPDEST PUSH32 0x4E487B7100000000000000000000000000000000000000000000000000000000 PUSH0 MSTORE PUSH1 0x11 PUSH1 0x4 MSTORE PUSH1 0x24 PUSH0 REVERT JUMPDEST PUSH0 PUSH2 0x1407 DUP3 PUSH2 0xC19 JUMP JUMPDEST SWAP2 POP PUSH2 0x1412 DUP4 PUSH2 0xC19 JUMP JUMPDEST SWAP3 POP DUP3 DUP3 ADD SWAP1 POP DUP1 DUP3 GT ISZERO PUSH2 0x142A JUMPI PUSH2 0x1429 PUSH2 0x13D0 JUMP JUMPDEST JUMPDEST SWAP3 SWAP2 POP POP JUMP JUMPDEST PUSH32 0x617070726F76616C73203C207265717569726564000000000000000000000000 PUSH0 DUP3 ADD MSTORE POP JUMP JUMPDEST PUSH0 PUSH2 0x1464 PUSH1 0x14 DUP4 PUSH2 0x125B JUMP JUMPDEST SWAP2 POP PUSH2 0x146F DUP3 PUSH2 0x1430 JUMP JUMPDEST PUSH1 0x20 DUP3 ADD SWAP1 POP SWAP2 SWAP1 POP JUMP JUMPDEST PUSH0 PUSH1 0x20 DUP3 ADD SWAP1 POP DUP2 DUP2 SUB PUSH0 DUP4 ADD MSTORE PUSH2 0x1491 DUP2 PUSH2 0x1458 JUMP JUMPDEST SWAP1 POP SWAP2 SWAP1 POP JUMP JUMPDEST PUSH0 DUP2 SWAP1 POP SWAP3 SWAP2 POP POP JUMP JUMPDEST PUSH0 DUP2 SLOAD PUSH2 0x14AE DUP2 PUSH2 0xFAB JUMP JUMPDEST PUSH2 0x14B8 DUP2 DUP7 PUSH2 0x1498 JUMP JUMPDEST SWAP5 POP PUSH1 0x1 DUP3 AND PUSH0 DUP2 EQ PUSH2 0x14D2 JUMPI PUSH1 0x1 DUP2 EQ PUSH2 0x14E7 JUMPI PUSH2 0x1519 JUMP JUMPDEST PUSH1 0xFF NOT DUP4 AND DUP7 MSTORE DUP2 ISZERO ISZERO DUP3 MUL DUP7 ADD SWAP4 POP PUSH2 0x1519 JUMP JUMPDEST PUSH2 0x14F0 DUP6 PUSH2 0xFDB JUMP JUMPDEST PUSH0 JUMPDEST DUP4 DUP2 LT ISZERO PUSH2 0x1511 JUMPI DUP2 SLOAD DUP2 DUP10 ADD MSTORE PUSH1 0x1 DUP3 ADD SWAP2 POP PUSH1 0x20 DUP2 ADD SWAP1 POP PUSH2 0x14F2 JUMP JUMPDEST DUP4 DUP9 ADD SWAP6 POP POP POP JUMPDEST POP POP POP SWAP3 SWAP2 POP POP JUMP JUMPDEST PUSH0 PUSH2 0x152D DUP3 DUP5 PUSH2 0x14A2 JUMP JUMPDEST SWAP2 POP DUP2 SWAP1 POP SWAP3 SWAP2 POP POP JUMP JUMPDEST PUSH32 0x65786563757465206661696C6564000000000000000000000000000000000000 PUSH0 DUP3 ADD MSTORE POP JUMP JUMPDEST PUSH0 PUSH2 0x156C PUSH1 0xE DUP4 PUSH2 0x125B JUMP JUMPDEST SWAP2 POP PUSH2 0x1577 DUP3 PUSH2 0x1538 JUMP JUMPDEST PUSH1 0x20 DUP3 ADD SWAP1 POP SWAP2 SWAP1 POP JUMP JUMPDEST PUSH0 PUSH1 0x20 DUP3 ADD SWAP1 POP DUP2 DUP2 SUB PUSH0 DUP4 ADD MSTORE PUSH2 0x1599 DUP2 PUSH2 0x1560 JUMP JUMPDEST SWAP1 POP SWAP2 SWAP1 POP JUMP INVALID LOG2 PUSH5 0x6970667358 0x22 SLT KECCAK256 DUP7 SMOD SWAP5 RJUMP 0xA995 PUSH25 0x45E9D10419FC35803A95823D059D9231D99BEF0B7A4B3CC228 PUSH5 0x736F6C6343 STOP ADDMOD 0x22 STOP CALLER "
				},
				"gasEstimates": {
					"creation": {
						"codeDepositCost": "1118000",
						"executionCost": "infinite",
						"totalCost": "infinite"
					},
					"external": {
						"approve(uint256)": "infinite",
						"approved(uint256,address)": "3070",
						"execute(uint256)": "infinite",
						"isOwner(address)": "2900",
						"owners(uint256)": "4944",
						"required()": "2491",
						"revoke(uint256)": "infinite",
						"submit(address,uint256,bytes)": "infinite",
						"transactions(uint256)": "infinite"
					}
				},
				"methodIdentifiers": {
					"approve(uint256)": "b759f954",
					"approved(uint256,address)": "8253951a",
					"execute(uint256)": "fe0d94c1",
					"isOwner(address)": "2f54bf6e",
					"owners(uint256)": "025e7c27",
					"required()": "dc8452cd",
					"revoke(uint256)": "20c5429b",
					"submit(address,uint256,bytes)": "14de327f",
					"transactions(uint256)": "9ace38c2"
				}
			},
			"storageLayout": {
				"storage": [
					{
						"astId": 39,
						"contract": "solidity金融和支付/多签钱包.sol:MutiSignWallet",
						"label": "owners",
						"offset": 0,
						"slot": "0",
						"type": "t_array(t_address)dyn_storage"
					},
					{
						"astId": 43,
						"contract": "solidity金融和支付/多签钱包.sol:MutiSignWallet",
						"label": "isOwner",
						"offset": 0,
						"slot": "1",
						"type": "t_mapping(t_address,t_bool)"
					},
					{
						"astId": 45,
						"contract": "solidity金融和支付/多签钱包.sol:MutiSignWallet",
						"label": "required",
						"offset": 0,
						"slot": "2",
						"type": "t_uint256"
					},
					{
						"astId": 49,
						"contract": "solidity金融和支付/多签钱包.sol:MutiSignWallet",
						"label": "transactions",
						"offset": 0,
						"slot": "3",
						"type": "t_array(t_struct(Transaction)36_storage)dyn_storage"
					},
					{
						"astId": 55,
						"contract": "solidity金融和支付/多签钱包.sol:MutiSignWallet",
						"label": "approved",
						"offset": 0,
						"slot": "4",
						"type": "t_mapping(t_uint256,t_mapping(t_address,t_bool))"
					}
				],
				"types": {
					"t_address": {
						"encoding": "inplace",
						"label": "address",
						"numberOfBytes": "20"
					},
					"t_array(t_address)dyn_storage": {
						"base": "t_address",
						"encoding": "dynamic_array",
						"label": "address[]",
						"numberOfBytes": "32"
					},
					"t_array(t_struct(Transaction)36_storage)dyn_storage": {
						"base": "t_struct(Transaction)36_storage",
						"encoding": "dynamic_array",
						"label": "struct MutiSignWallet.Transaction[]",
						"numberOfBytes": "32"
					},
					"t_bool": {
						"encoding": "inplace",
						"label": "bool",
						"numberOfBytes": "1"
					},
					"t_bytes_storage": {
						"encoding": "bytes",
						"label": "bytes",
						"numberOfBytes": "32"
					},
					"t_mapping(t_address,t_bool)": {
						"encoding": "mapping",
						"key": "t_address",
						"label": "mapping(address => bool)",
						"numberOfBytes": "32",
						"value": "t_bool"
					},
					"t_mapping(t_uint256,t_mapping(t_address,t_bool))": {
						"encoding": "mapping",
						"key": "t_uint256",
						"label": "mapping(uint256 => mapping(address => bool))",
						"numberOfBytes": "32",
						"value": "t_mapping(t_address,t_bool)"
					},
					"t_struct(Transaction)36_storage": {
						"encoding": "inplace",
						"label": "struct MutiSignWallet.Transaction",
						"members": [
							{
								"astId": 29,
								"contract": "solidity金融和支付/多签钱包.sol:MutiSignWallet",
								"label": "to",
								"offset": 0,
								"slot": "0",
								"type": "t_address"
							},
							{
								"astId": 31,
								"contract": "solidity金融和支付/多签钱包.sol:MutiSignWallet",
								"label": "amount",
								"offset": 0,
								"slot": "1",
								"type": "t_uint256"
							},
							{
								"astId": 33,
								"contract": "solidity金融和支付/多签钱包.sol:MutiSignWallet",
								"label": "data",
								"offset": 0,
								"slot": "2",
								"type": "t_bytes_storage"
							},
							{
								"astId": 35,
								"contract": "solidity金融和支付/多签钱包.sol:MutiSignWallet",
								"label": "exectued",
								"offset": 0,
								"slot": "3",
								"type": "t_bool"
							}
						],
						"numberOfBytes": "128"
					},
					"t_uint256": {
						"encoding": "inplace",
						"label": "uint256",
						"numberOfBytes": "32"
					}
				}
			},
			"userdoc": {
				"kind": "user",
				"methods": {},
				"version": 1
			}
		}
	}
}