{
	"openzeppelin/AccessControl.sol": {
		"Access": {
			"abi": [
				{
					"inputs": [],
					"stateMutability": "nonpayable",
					"type": "constructor"
				},
				{
					"inputs": [],
					"name": "AccessControlBadConfirmation",
					"type": "error"
				},
				{
					"inputs": [
						{
							"internalType": "address",
							"name": "account",
							"type": "address"
						},
						{
							"internalType": "bytes32",
							"name": "neededRole",
							"type": "bytes32"
						}
					],
					"name": "AccessControlUnauthorizedAccount",
					"type": "error"
				},
				{
					"anonymous": false,
					"inputs": [
						{
							"indexed": true,
							"internalType": "bytes32",
							"name": "role",
							"type": "bytes32"
						},
						{
							"indexed": true,
							"internalType": "bytes32",
							"name": "previousAdminRole",
							"type": "bytes32"
						},
						{
							"indexed": true,
							"internalType": "bytes32",
							"name": "newAdminRole",
							"type": "bytes32"
						}
					],
					"name": "RoleAdminChanged",
					"type": "event"
				},
				{
					"anonymous": false,
					"inputs": [
						{
							"indexed": true,
							"internalType": "bytes32",
							"name": "role",
							"type": "bytes32"
						},
						{
							"indexed": true,
							"internalType": "address",
							"name": "account",
							"type": "address"
						},
						{
							"indexed": true,
							"internalType": "address",
							"name": "sender",
							"type": "address"
						}
					],
					"name": "RoleGranted",
					"type": "event"
				},
				{
					"anonymous": false,
					"inputs": [
						{
							"indexed": true,
							"internalType": "bytes32",
							"name": "role",
							"type": "bytes32"
						},
						{
							"indexed": true,
							"internalType": "address",
							"name": "account",
							"type": "address"
						},
						{
							"indexed": true,
							"internalType": "address",
							"name": "sender",
							"type": "address"
						}
					],
					"name": "RoleRevoked",
					"type": "event"
				},
				{
					"inputs": [],
					"name": "DEFAULT_ADMIN_ROLE",
					"outputs": [
						{
							"internalType": "bytes32",
							"name": "",
							"type": "bytes32"
						}
					],
					"stateMutability": "view",
					"type": "function"
				},
				{
					"inputs": [],
					"name": "ROLE_MANAGER",
					"outputs": [
						{
							"internalType": "bytes32",
							"name": "",
							"type": "bytes32"
						}
					],
					"stateMutability": "view",
					"type": "function"
				},
				{
					"inputs": [],
					"name": "ROLE_USER",
					"outputs": [
						{
							"internalType": "bytes32",
							"name": "",
							"type": "bytes32"
						}
					],
					"stateMutability": "view",
					"type": "function"
				},
				{
					"inputs": [],
					"name": "changeDefaultAdmin",
					"outputs": [],
					"stateMutability": "nonpayable",
					"type": "function"
				},
				{
					"inputs": [],
					"name": "doNormal",
					"outputs": [],
					"stateMutability": "nonpayable",
					"type": "function"
				},
				{
					"inputs": [],
					"name": "doSpecial",
					"outputs": [],
					"stateMutability": "nonpayable",
					"type": "function"
				},
				{
					"inputs": [
						{
							"internalType": "bytes32",
							"name": "role",
							"type": "bytes32"
						}
					],
					"name": "getRoleAdmin",
					"outputs": [
						{
							"internalType": "bytes32",
							"name": "",
							"type": "bytes32"
						}
					],
					"stateMutability": "view",
					"type": "function"
				},
				{
					"inputs": [
						{
							"internalType": "bytes32",
							"name": "role",
							"type": "bytes32"
						},
						{
							"internalType": "address",
							"name": "account",
							"type": "address"
						}
					],
					"name": "grantRole",
					"outputs": [],
					"stateMutability": "nonpayable",
					"type": "function"
				},
				{
					"inputs": [
						{
							"internalType": "bytes32",
							"name": "role",
							"type": "bytes32"
						},
						{
							"internalType": "address",
							"name": "account",
							"type": "address"
						}
					],
					"name": "hasRole",
					"outputs": [
						{
							"internalType": "bool",
							"name": "",
							"type": "bool"
						}
					],
					"stateMutability": "view",
					"type": "function"
				},
				{
					"inputs": [
						{
							"internalType": "bytes32",
							"name": "role",
							"type": "bytes32"
						},
						{
							"internalType": "address",
							"name": "callerConfirmation",
							"type": "address"
						}
					],
					"name": "renounceRole",
					"outputs": [],
					"stateMutability": "nonpayable",
					"type": "function"
				},
				{
					"inputs": [
						{
							"internalType": "bytes32",
							"name": "role",
							"type": "bytes32"
						},
						{
							"internalType": "address",
							"name": "account",
							"type": "address"
						}
					],
					"name": "revokeRole",
					"outputs": [],
					"stateMutability": "nonpayable",
					"type": "function"
				},
				{
					"inputs": [
						{
							"internalType": "bytes4",
							"name": "interfaceId",
							"type": "bytes4"
						}
					],
					"name": "supportsInterface",
					"outputs": [
						{
							"internalType": "bool",
							"name": "",
							"type": "bool"
						}
					],
					"stateMutability": "view",
					"type": "function"
				}
			],
			"devdoc": {
				"errors": {
					"AccessControlBadConfirmation()": [
						{
							"details": "The caller of a function is not the expected one. NOTE: Don't confuse with {AccessControlUnauthorizedAccount}."
						}
					],
					"AccessControlUnauthorizedAccount(address,bytes32)": [
						{
							"details": "The `account` is missing a role."
						}
					]
				},
				"events": {
					"RoleAdminChanged(bytes32,bytes32,bytes32)": {
						"details": "Emitted when `newAdminRole` is set as ``role``'s admin role, replacing `previousAdminRole` `DEFAULT_ADMIN_ROLE` is the starting admin for all roles, despite {RoleAdminChanged} not being emitted to signal this."
					},
					"RoleGranted(bytes32,address,address)": {
						"details": "Emitted when `account` is granted `role`. `sender` is the account that originated the contract call. This account bears the admin role (for the granted role). Expected in cases where the role was granted using the internal {AccessControl-_grantRole}."
					},
					"RoleRevoked(bytes32,address,address)": {
						"details": "Emitted when `account` is revoked `role`. `sender` is the account that originated the contract call:   - if using `revokeRole`, it is the admin role bearer   - if using `renounceRole`, it is the role bearer (i.e. `account`)"
					}
				},
				"kind": "dev",
				"methods": {
					"getRoleAdmin(bytes32)": {
						"details": "Returns the admin role that controls `role`. See {grantRole} and {revokeRole}. To change a role's admin, use {_setRoleAdmin}."
					},
					"grantRole(bytes32,address)": {
						"details": "Grants `role` to `account`. If `account` had not been already granted `role`, emits a {RoleGranted} event. Requirements: - the caller must have ``role``'s admin role. May emit a {RoleGranted} event."
					},
					"hasRole(bytes32,address)": {
						"details": "Returns `true` if `account` has been granted `role`."
					},
					"renounceRole(bytes32,address)": {
						"details": "Revokes `role` from the calling account. Roles are often managed via {grantRole} and {revokeRole}: this function's purpose is to provide a mechanism for accounts to lose their privileges if they are compromised (such as when a trusted device is misplaced). If the calling account had been revoked `role`, emits a {RoleRevoked} event. Requirements: - the caller must be `callerConfirmation`. May emit a {RoleRevoked} event."
					},
					"revokeRole(bytes32,address)": {
						"details": "Revokes `role` from `account`. If `account` had been granted `role`, emits a {RoleRevoked} event. Requirements: - the caller must have ``role``'s admin role. May emit a {RoleRevoked} event."
					},
					"supportsInterface(bytes4)": {
						"details": "Returns true if this contract implements the interface defined by `interfaceId`. See the corresponding https://eips.ethereum.org/EIPS/eip-165#how-interfaces-are-identified[ERC section] to learn more about how these ids are created. This function call must use less than 30 000 gas."
					}
				},
				"version": 1
			},
			"evm": {
				"assembly": "    /* \"openzeppelin/AccessControl.sol\":237:755  contract Access is AccessControl{... */\n  mstore(0x40, 0x80)\n    /* \"openzeppelin/AccessControl.sol\":410:487  constructor() {... */\n  callvalue\n  dup1\n  iszero\n  tag_1\n  jumpi\n  revert(0x00, 0x00)\ntag_1:\n  pop\n    /* \"openzeppelin/AccessControl.sol\":435:479  _grantRole(DEFAULT_ADMIN_ROLE, _msgSender()) */\n  tag_4\n    /* \"@openzeppelin/contracts/access/AccessControl.sol\":2232:2236  0x00 */\n  0x00\n    /* \"openzeppelin/AccessControl.sol\":446:464  DEFAULT_ADMIN_ROLE */\n  0x00\n  shl\n    /* \"openzeppelin/AccessControl.sol\":466:478  _msgSender() */\n  tag_5\n    /* \"openzeppelin/AccessControl.sol\":466:476  _msgSender */\n  shl(0x20, tag_6)\n    /* \"openzeppelin/AccessControl.sol\":466:478  _msgSender() */\n  0x20\n  shr\n  jump\t// in\ntag_5:\n    /* \"openzeppelin/AccessControl.sol\":435:445  _grantRole */\n  shl(0x20, tag_7)\n    /* \"openzeppelin/AccessControl.sol\":435:479  _grantRole(DEFAULT_ADMIN_ROLE, _msgSender()) */\n  0x20\n  shr\n  jump\t// in\ntag_4:\n  pop\n    /* \"openzeppelin/AccessControl.sol\":237:755  contract Access is AccessControl{... */\n  jump(tag_8)\n    /* \"@openzeppelin/contracts/utils/Context.sol\":656:752  function _msgSender() internal view virtual returns (address) {... */\ntag_6:\n    /* \"@openzeppelin/contracts/utils/Context.sol\":709:716  address */\n  0x00\n    /* \"@openzeppelin/contracts/utils/Context.sol\":735:745  msg.sender */\n  caller\n    /* \"@openzeppelin/contracts/utils/Context.sol\":728:745  return msg.sender */\n  swap1\n  pop\n    /* \"@openzeppelin/contracts/utils/Context.sol\":656:752  function _msgSender() internal view virtual returns (address) {... */\n  swap1\n  jump\t// out\n    /* \"@openzeppelin/contracts/access/AccessControl.sol\":6145:6461  function _grantRole(bytes32 role, address account) internal virtual returns (bool) {... */\ntag_7:\n    /* \"@openzeppelin/contracts/access/AccessControl.sol\":6222:6226  bool */\n  0x00\n    /* \"@openzeppelin/contracts/access/AccessControl.sol\":6243:6265  hasRole(role, account) */\n  tag_11\n    /* \"@openzeppelin/contracts/access/AccessControl.sol\":6251:6255  role */\n  dup4\n    /* \"@openzeppelin/contracts/access/AccessControl.sol\":6257:6264  account */\n  dup4\n    /* \"@openzeppelin/contracts/access/AccessControl.sol\":6243:6250  hasRole */\n  shl(0x20, tag_12)\n    /* \"@openzeppelin/contracts/access/AccessControl.sol\":6243:6265  hasRole(role, account) */\n  0x20\n  shr\n  jump\t// in\ntag_11:\n    /* \"@openzeppelin/contracts/access/AccessControl.sol\":6238:6455  if (!hasRole(role, account)) {... */\n  tag_13\n  jumpi\n    /* \"@openzeppelin/contracts/access/AccessControl.sol\":6313:6317  true */\n  0x01\n    /* \"@openzeppelin/contracts/access/AccessControl.sol\":6281:6287  _roles */\n  0x00\n    /* \"@openzeppelin/contracts/access/AccessControl.sol\":6281:6293  _roles[role] */\n  0x00\n    /* \"@openzeppelin/contracts/access/AccessControl.sol\":6288:6292  role */\n  dup6\n    /* \"@openzeppelin/contracts/access/AccessControl.sol\":6281:6293  _roles[role] */\n  dup2\n  mstore\n  0x20\n  add\n  swap1\n  dup2\n  mstore\n  0x20\n  add\n  0x00\n  keccak256\n    /* \"@openzeppelin/contracts/access/AccessControl.sol\":6281:6301  _roles[role].hasRole */\n  0x00\n  add\n    /* \"@openzeppelin/contracts/access/AccessControl.sol\":6281:6310  _roles[role].hasRole[account] */\n  0x00\n    /* \"@openzeppelin/contracts/access/AccessControl.sol\":6302:6309  account */\n  dup5\n    /* \"@openzeppelin/contracts/access/AccessControl.sol\":6281:6310  _roles[role].hasRole[account] */\n  0xffffffffffffffffffffffffffffffffffffffff\n  and\n  0xffffffffffffffffffffffffffffffffffffffff\n  and\n  dup2\n  mstore\n  0x20\n  add\n  swap1\n  dup2\n  mstore\n  0x20\n  add\n  0x00\n  keccak256\n  0x00\n    /* \"@openzeppelin/contracts/access/AccessControl.sol\":6281:6317  _roles[role].hasRole[account] = true */\n  0x0100\n  exp\n  dup2\n  sload\n  dup2\n  0xff\n  mul\n  not\n  and\n  swap1\n  dup4\n  iszero\n  iszero\n  mul\n  or\n  swap1\n  sstore\n  pop\n    /* \"@openzeppelin/contracts/access/AccessControl.sol\":6363:6375  _msgSender() */\n  tag_14\n    /* \"@openzeppelin/contracts/access/AccessControl.sol\":6363:6373  _msgSender */\n  shl(0x20, tag_6)\n    /* \"@openzeppelin/contracts/access/AccessControl.sol\":6363:6375  _msgSender() */\n  0x20\n  shr\n  jump\t// in\ntag_14:\n    /* \"@openzeppelin/contracts/access/AccessControl.sol\":6336:6376  RoleGranted(role, account, _msgSender()) */\n  0xffffffffffffffffffffffffffffffffffffffff\n  and\n    /* \"@openzeppelin/contracts/access/AccessControl.sol\":6354:6361  account */\n  dup3\n    /* \"@openzeppelin/contracts/access/AccessControl.sol\":6336:6376  RoleGranted(role, account, _msgSender()) */\n  0xffffffffffffffffffffffffffffffffffffffff\n  and\n    /* \"@openzeppelin/contracts/access/AccessControl.sol\":6348:6352  role */\n  dup5\n    /* \"@openzeppelin/contracts/access/AccessControl.sol\":6336:6376  RoleGranted(role, account, _msgSender()) */\n  0x2f8788117e7eff1d82e926ec794901d17c78024a50270940304540a733656f0d\n  mload(0x40)\n  mload(0x40)\n  dup1\n  swap2\n  sub\n  swap1\n  log4\n    /* \"@openzeppelin/contracts/access/AccessControl.sol\":6397:6401  true */\n  0x01\n    /* \"@openzeppelin/contracts/access/AccessControl.sol\":6390:6401  return true */\n  swap1\n  pop\n  jump(tag_10)\n    /* \"@openzeppelin/contracts/access/AccessControl.sol\":6238:6455  if (!hasRole(role, account)) {... */\ntag_13:\n    /* \"@openzeppelin/contracts/access/AccessControl.sol\":6439:6444  false */\n  0x00\n    /* \"@openzeppelin/contracts/access/AccessControl.sol\":6432:6444  return false */\n  swap1\n  pop\n    /* \"@openzeppelin/contracts/access/AccessControl.sol\":6145:6461  function _grantRole(bytes32 role, address account) internal virtual returns (bool) {... */\ntag_10:\n  swap3\n  swap2\n  pop\n  pop\n  jump\t// out\n    /* \"@openzeppelin/contracts/access/AccessControl.sol\":2820:2956  function hasRole(bytes32 role, address account) public view virtual returns (bool) {... */\ntag_12:\n    /* \"@openzeppelin/contracts/access/AccessControl.sol\":2897:2901  bool */\n  0x00\n    /* \"@openzeppelin/contracts/access/AccessControl.sol\":2920:2926  _roles */\n  0x00\n    /* \"@openzeppelin/contracts/access/AccessControl.sol\":2920:2932  _roles[role] */\n  0x00\n    /* \"@openzeppelin/contracts/access/AccessControl.sol\":2927:2931  role */\n  dup5\n    /* \"@openzeppelin/contracts/access/AccessControl.sol\":2920:2932  _roles[role] */\n  dup2\n  mstore\n  0x20\n  add\n  swap1\n  dup2\n  mstore\n  0x20\n  add\n  0x00\n  keccak256\n    /* \"@openzeppelin/contracts/access/AccessControl.sol\":2920:2940  _roles[role].hasRole */\n  0x00\n  add\n    /* \"@openzeppelin/contracts/access/AccessControl.sol\":2920:2949  _roles[role].hasRole[account] */\n  0x00\n    /* \"@openzeppelin/contracts/access/AccessControl.sol\":2941:2948  account */\n  dup4\n    /* \"@openzeppelin/contracts/access/AccessControl.sol\":2920:2949  _roles[role].hasRole[account] */\n  0xffffffffffffffffffffffffffffffffffffffff\n  and\n  0xffffffffffffffffffffffffffffffffffffffff\n  and\n  dup2\n  mstore\n  0x20\n  add\n  swap1\n  dup2\n  mstore\n  0x20\n  add\n  0x00\n  keccak256\n  0x00\n  swap1\n  sload\n  swap1\n  0x0100\n  exp\n  swap1\n  div\n  0xff\n  and\n    /* \"@openzeppelin/contracts/access/AccessControl.sol\":2913:2949  return _roles[role].hasRole[account] */\n  swap1\n  pop\n    /* \"@openzeppelin/contracts/access/AccessControl.sol\":2820:2956  function hasRole(bytes32 role, address account) public view virtual returns (bool) {... */\n  swap3\n  swap2\n  pop\n  pop\n  jump\t// out\n    /* \"openzeppelin/AccessControl.sol\":237:755  contract Access is AccessControl{... */\ntag_8:\n  dataSize(sub_0)\n  dup1\n  dataOffset(sub_0)\n  0x00\n  codecopy\n  0x00\n  return\nstop\n\nsub_0: assembly {\n        /* \"openzeppelin/AccessControl.sol\":237:755  contract Access is AccessControl{... */\n      mstore(0x40, 0x80)\n      callvalue\n      dup1\n      iszero\n      tag_1\n      jumpi\n      revert(0x00, 0x00)\n    tag_1:\n      pop\n      jumpi(tag_2, lt(calldatasize, 0x04))\n      shr(0xe0, calldataload(0x00))\n      dup1\n      0x9b455948\n      gt\n      tag_15\n      jumpi\n      dup1\n      0x9b455948\n      eq\n      tag_9\n      jumpi\n      dup1\n      0xa217fddf\n      eq\n      tag_10\n      jumpi\n      dup1\n      0xb941719e\n      eq\n      tag_11\n      jumpi\n      dup1\n      0xd547741f\n      eq\n      tag_12\n      jumpi\n      dup1\n      0xf5b944eb\n      eq\n      tag_13\n      jumpi\n      dup1\n      0xf821994b\n      eq\n      tag_14\n      jumpi\n      jump(tag_2)\n    tag_15:\n      dup1\n      0x01ffc9a7\n      eq\n      tag_3\n      jumpi\n      dup1\n      0x03c6e204\n      eq\n      tag_4\n      jumpi\n      dup1\n      0x248a9ca3\n      eq\n      tag_5\n      jumpi\n      dup1\n      0x2f2ff15d\n      eq\n      tag_6\n      jumpi\n      dup1\n      0x36568abe\n      eq\n      tag_7\n      jumpi\n      dup1\n      0x91d14854\n      eq\n      tag_8\n      jumpi\n    tag_2:\n      revert(0x00, 0x00)\n        /* \"@openzeppelin/contracts/access/AccessControl.sol\":2531:2733  function supportsInterface(bytes4 interfaceId) public view virtual override returns (bool) {... */\n    tag_3:\n      tag_16\n      0x04\n      dup1\n      calldatasize\n      sub\n      dup2\n      add\n      swap1\n      tag_17\n      swap2\n      swap1\n      tag_18\n      jump\t// in\n    tag_17:\n      tag_19\n      jump\t// in\n    tag_16:\n      mload(0x40)\n      tag_20\n      swap2\n      swap1\n      tag_21\n      jump\t// in\n    tag_20:\n      mload(0x40)\n      dup1\n      swap2\n      sub\n      swap1\n      return\n        /* \"openzeppelin/AccessControl.sol\":691:752  function doSpecial() onlyRole(ROLE_MANAGER) public {... */\n    tag_4:\n      tag_22\n      tag_23\n      jump\t// in\n    tag_22:\n      stop\n        /* \"@openzeppelin/contracts/access/AccessControl.sol\":3776:3896  function getRoleAdmin(bytes32 role) public view virtual returns (bytes32) {... */\n    tag_5:\n      tag_24\n      0x04\n      dup1\n      calldatasize\n      sub\n      dup2\n      add\n      swap1\n      tag_25\n      swap2\n      swap1\n      tag_26\n      jump\t// in\n    tag_25:\n      tag_27\n      jump\t// in\n    tag_24:\n      mload(0x40)\n      tag_28\n      swap2\n      swap1\n      tag_29\n      jump\t// in\n    tag_28:\n      mload(0x40)\n      dup1\n      swap2\n      sub\n      swap1\n      return\n        /* \"@openzeppelin/contracts/access/AccessControl.sol\":4192:4328  function grantRole(bytes32 role, address account) public virtual onlyRole(getRoleAdmin(role)) {... */\n    tag_6:\n      tag_30\n      0x04\n      dup1\n      calldatasize\n      sub\n      dup2\n      add\n      swap1\n      tag_31\n      swap2\n      swap1\n      tag_32\n      jump\t// in\n    tag_31:\n      tag_33\n      jump\t// in\n    tag_30:\n      stop\n        /* \"@openzeppelin/contracts/access/AccessControl.sol\":5294:5539  function renounceRole(bytes32 role, address callerConfirmation) public virtual {... */\n    tag_7:\n      tag_34\n      0x04\n      dup1\n      calldatasize\n      sub\n      dup2\n      add\n      swap1\n      tag_35\n      swap2\n      swap1\n      tag_32\n      jump\t// in\n    tag_35:\n      tag_36\n      jump\t// in\n    tag_34:\n      stop\n        /* \"@openzeppelin/contracts/access/AccessControl.sol\":2820:2956  function hasRole(bytes32 role, address account) public view virtual returns (bool) {... */\n    tag_8:\n      tag_37\n      0x04\n      dup1\n      calldatasize\n      sub\n      dup2\n      add\n      swap1\n      tag_38\n      swap2\n      swap1\n      tag_32\n      jump\t// in\n    tag_38:\n      tag_39\n      jump\t// in\n    tag_37:\n      mload(0x40)\n      tag_40\n      swap2\n      swap1\n      tag_21\n      jump\t// in\n    tag_40:\n      mload(0x40)\n      dup1\n      swap2\n      sub\n      swap1\n      return\n        /* \"openzeppelin/AccessControl.sol\":495:618  function changeDefaultAdmin() onlyRole(DEFAULT_ADMIN_ROLE) public {... */\n    tag_9:\n      tag_41\n      tag_42\n      jump\t// in\n    tag_41:\n      stop\n        /* \"@openzeppelin/contracts/access/AccessControl.sol\":2187:2236  bytes32 public constant DEFAULT_ADMIN_ROLE = 0x00 */\n    tag_10:\n      tag_43\n      tag_44\n      jump\t// in\n    tag_43:\n      mload(0x40)\n      tag_45\n      swap2\n      swap1\n      tag_29\n      jump\t// in\n    tag_45:\n      mload(0x40)\n      dup1\n      swap2\n      sub\n      swap1\n      return\n        /* \"openzeppelin/AccessControl.sol\":345:401  bytes32 public constant ROLE_USER=keccak256(\"ROLE_USER\") */\n    tag_11:\n      tag_46\n      tag_47\n      jump\t// in\n    tag_46:\n      mload(0x40)\n      tag_48\n      swap2\n      swap1\n      tag_29\n      jump\t// in\n    tag_48:\n      mload(0x40)\n      dup1\n      swap2\n      sub\n      swap1\n      return\n        /* \"@openzeppelin/contracts/access/AccessControl.sol\":4608:4746  function revokeRole(bytes32 role, address account) public virtual onlyRole(getRoleAdmin(role)) {... */\n    tag_12:\n      tag_49\n      0x04\n      dup1\n      calldatasize\n      sub\n      dup2\n      add\n      swap1\n      tag_50\n      swap2\n      swap1\n      tag_32\n      jump\t// in\n    tag_50:\n      tag_51\n      jump\t// in\n    tag_49:\n      stop\n        /* \"openzeppelin/AccessControl.sol\":276:338  bytes32 public constant ROLE_MANAGER=keccak256(\"ROLE_MANAGER\") */\n    tag_13:\n      tag_52\n      tag_53\n      jump\t// in\n    tag_52:\n      mload(0x40)\n      tag_54\n      swap2\n      swap1\n      tag_29\n      jump\t// in\n    tag_54:\n      mload(0x40)\n      dup1\n      swap2\n      sub\n      swap1\n      return\n        /* \"openzeppelin/AccessControl.sol\":626:683  function doNormal() onlyRole(ROLE_USER) public {... */\n    tag_14:\n      tag_55\n      tag_56\n      jump\t// in\n    tag_55:\n      stop\n        /* \"@openzeppelin/contracts/access/AccessControl.sol\":2531:2733  function supportsInterface(bytes4 interfaceId) public view virtual override returns (bool) {... */\n    tag_19:\n        /* \"@openzeppelin/contracts/access/AccessControl.sol\":2616:2620  bool */\n      0x00\n        /* \"@openzeppelin/contracts/access/AccessControl.sol\":2654:2686  type(IAccessControl).interfaceId */\n      0x7965db0b00000000000000000000000000000000000000000000000000000000\n        /* \"@openzeppelin/contracts/access/AccessControl.sol\":2639:2686  interfaceId == type(IAccessControl).interfaceId */\n      not(0xffffffffffffffffffffffffffffffffffffffffffffffffffffffff)\n      and\n        /* \"@openzeppelin/contracts/access/AccessControl.sol\":2639:2650  interfaceId */\n      dup3\n        /* \"@openzeppelin/contracts/access/AccessControl.sol\":2639:2686  interfaceId == type(IAccessControl).interfaceId */\n      not(0xffffffffffffffffffffffffffffffffffffffffffffffffffffffff)\n      and\n      eq\n        /* \"@openzeppelin/contracts/access/AccessControl.sol\":2639:2726  interfaceId == type(IAccessControl).interfaceId || super.supportsInterface(interfaceId) */\n      dup1\n      tag_58\n      jumpi\n      pop\n        /* \"@openzeppelin/contracts/access/AccessControl.sol\":2690:2726  super.supportsInterface(interfaceId) */\n      tag_59\n        /* \"@openzeppelin/contracts/access/AccessControl.sol\":2714:2725  interfaceId */\n      dup3\n        /* \"@openzeppelin/contracts/access/AccessControl.sol\":2690:2713  super.supportsInterface */\n      tag_60\n        /* \"@openzeppelin/contracts/access/AccessControl.sol\":2690:2726  super.supportsInterface(interfaceId) */\n      jump\t// in\n    tag_59:\n        /* \"@openzeppelin/contracts/access/AccessControl.sol\":2639:2726  interfaceId == type(IAccessControl).interfaceId || super.supportsInterface(interfaceId) */\n    tag_58:\n        /* \"@openzeppelin/contracts/access/AccessControl.sol\":2632:2726  return interfaceId == type(IAccessControl).interfaceId || super.supportsInterface(interfaceId) */\n      swap1\n      pop\n        /* \"@openzeppelin/contracts/access/AccessControl.sol\":2531:2733  function supportsInterface(bytes4 interfaceId) public view virtual override returns (bool) {... */\n      swap2\n      swap1\n      pop\n      jump\t// out\n        /* \"openzeppelin/AccessControl.sol\":691:752  function doSpecial() onlyRole(ROLE_MANAGER) public {... */\n    tag_23:\n        /* \"openzeppelin/AccessControl.sol\":313:338  keccak256(\"ROLE_MANAGER\") */\n      0xf206625bad3d9112d5609b8d356e6fbd514cd1f69980d4ce2b3e6e68e1789ace\n        /* \"@openzeppelin/contracts/access/AccessControl.sol\":2464:2480  _checkRole(role) */\n      tag_62\n        /* \"@openzeppelin/contracts/access/AccessControl.sol\":2475:2479  role */\n      dup2\n        /* \"@openzeppelin/contracts/access/AccessControl.sol\":2464:2474  _checkRole */\n      tag_63\n        /* \"@openzeppelin/contracts/access/AccessControl.sol\":2464:2480  _checkRole(role) */\n      jump\t// in\n    tag_62:\n        /* \"openzeppelin/AccessControl.sol\":691:752  function doSpecial() onlyRole(ROLE_MANAGER) public {... */\n      pop\n      jump\t// out\n        /* \"@openzeppelin/contracts/access/AccessControl.sol\":3776:3896  function getRoleAdmin(bytes32 role) public view virtual returns (bytes32) {... */\n    tag_27:\n        /* \"@openzeppelin/contracts/access/AccessControl.sol\":3841:3848  bytes32 */\n      0x00\n        /* \"@openzeppelin/contracts/access/AccessControl.sol\":3867:3873  _roles */\n      0x00\n        /* \"@openzeppelin/contracts/access/AccessControl.sol\":3867:3879  _roles[role] */\n      0x00\n        /* \"@openzeppelin/contracts/access/AccessControl.sol\":3874:3878  role */\n      dup4\n        /* \"@openzeppelin/contracts/access/AccessControl.sol\":3867:3879  _roles[role] */\n      dup2\n      mstore\n      0x20\n      add\n      swap1\n      dup2\n      mstore\n      0x20\n      add\n      0x00\n      keccak256\n        /* \"@openzeppelin/contracts/access/AccessControl.sol\":3867:3889  _roles[role].adminRole */\n      0x01\n      add\n      sload\n        /* \"@openzeppelin/contracts/access/AccessControl.sol\":3860:3889  return _roles[role].adminRole */\n      swap1\n      pop\n        /* \"@openzeppelin/contracts/access/AccessControl.sol\":3776:3896  function getRoleAdmin(bytes32 role) public view virtual returns (bytes32) {... */\n      swap2\n      swap1\n      pop\n      jump\t// out\n        /* \"@openzeppelin/contracts/access/AccessControl.sol\":4192:4328  function grantRole(bytes32 role, address account) public virtual onlyRole(getRoleAdmin(role)) {... */\n    tag_33:\n        /* \"@openzeppelin/contracts/access/AccessControl.sol\":4266:4284  getRoleAdmin(role) */\n      tag_66\n        /* \"@openzeppelin/contracts/access/AccessControl.sol\":4279:4283  role */\n      dup3\n        /* \"@openzeppelin/contracts/access/AccessControl.sol\":4266:4278  getRoleAdmin */\n      tag_27\n        /* \"@openzeppelin/contracts/access/AccessControl.sol\":4266:4284  getRoleAdmin(role) */\n      jump\t// in\n    tag_66:\n        /* \"@openzeppelin/contracts/access/AccessControl.sol\":2464:2480  _checkRole(role) */\n      tag_68\n        /* \"@openzeppelin/contracts/access/AccessControl.sol\":2475:2479  role */\n      dup2\n        /* \"@openzeppelin/contracts/access/AccessControl.sol\":2464:2474  _checkRole */\n      tag_63\n        /* \"@openzeppelin/contracts/access/AccessControl.sol\":2464:2480  _checkRole(role) */\n      jump\t// in\n    tag_68:\n        /* \"@openzeppelin/contracts/access/AccessControl.sol\":4296:4321  _grantRole(role, account) */\n      tag_70\n        /* \"@openzeppelin/contracts/access/AccessControl.sol\":4307:4311  role */\n      dup4\n        /* \"@openzeppelin/contracts/access/AccessControl.sol\":4313:4320  account */\n      dup4\n        /* \"@openzeppelin/contracts/access/AccessControl.sol\":4296:4306  _grantRole */\n      tag_71\n        /* \"@openzeppelin/contracts/access/AccessControl.sol\":4296:4321  _grantRole(role, account) */\n      jump\t// in\n    tag_70:\n      pop\n        /* \"@openzeppelin/contracts/access/AccessControl.sol\":4192:4328  function grantRole(bytes32 role, address account) public virtual onlyRole(getRoleAdmin(role)) {... */\n      pop\n      pop\n      pop\n      jump\t// out\n        /* \"@openzeppelin/contracts/access/AccessControl.sol\":5294:5539  function renounceRole(bytes32 role, address callerConfirmation) public virtual {... */\n    tag_36:\n        /* \"@openzeppelin/contracts/access/AccessControl.sol\":5409:5421  _msgSender() */\n      tag_73\n        /* \"@openzeppelin/contracts/access/AccessControl.sol\":5409:5419  _msgSender */\n      tag_74\n        /* \"@openzeppelin/contracts/access/AccessControl.sol\":5409:5421  _msgSender() */\n      jump\t// in\n    tag_73:\n        /* \"@openzeppelin/contracts/access/AccessControl.sol\":5387:5421  callerConfirmation != _msgSender() */\n      0xffffffffffffffffffffffffffffffffffffffff\n      and\n        /* \"@openzeppelin/contracts/access/AccessControl.sol\":5387:5405  callerConfirmation */\n      dup2\n        /* \"@openzeppelin/contracts/access/AccessControl.sol\":5387:5421  callerConfirmation != _msgSender() */\n      0xffffffffffffffffffffffffffffffffffffffff\n      and\n      eq\n        /* \"@openzeppelin/contracts/access/AccessControl.sol\":5383:5485  if (callerConfirmation != _msgSender()) {... */\n      tag_75\n      jumpi\n        /* \"@openzeppelin/contracts/access/AccessControl.sol\":5444:5474  AccessControlBadConfirmation() */\n      mload(0x40)\n      0x6697b23200000000000000000000000000000000000000000000000000000000\n      dup2\n      mstore\n      0x04\n      add\n      mload(0x40)\n      dup1\n      swap2\n      sub\n      swap1\n      revert\n        /* \"@openzeppelin/contracts/access/AccessControl.sol\":5383:5485  if (callerConfirmation != _msgSender()) {... */\n    tag_75:\n        /* \"@openzeppelin/contracts/access/AccessControl.sol\":5495:5532  _revokeRole(role, callerConfirmation) */\n      tag_76\n        /* \"@openzeppelin/contracts/access/AccessControl.sol\":5507:5511  role */\n      dup3\n        /* \"@openzeppelin/contracts/access/AccessControl.sol\":5513:5531  callerConfirmation */\n      dup3\n        /* \"@openzeppelin/contracts/access/AccessControl.sol\":5495:5506  _revokeRole */\n      tag_77\n        /* \"@openzeppelin/contracts/access/AccessControl.sol\":5495:5532  _revokeRole(role, callerConfirmation) */\n      jump\t// in\n    tag_76:\n      pop\n        /* \"@openzeppelin/contracts/access/AccessControl.sol\":5294:5539  function renounceRole(bytes32 role, address callerConfirmation) public virtual {... */\n      pop\n      pop\n      jump\t// out\n        /* \"@openzeppelin/contracts/access/AccessControl.sol\":2820:2956  function hasRole(bytes32 role, address account) public view virtual returns (bool) {... */\n    tag_39:\n        /* \"@openzeppelin/contracts/access/AccessControl.sol\":2897:2901  bool */\n      0x00\n        /* \"@openzeppelin/contracts/access/AccessControl.sol\":2920:2926  _roles */\n      0x00\n        /* \"@openzeppelin/contracts/access/AccessControl.sol\":2920:2932  _roles[role] */\n      0x00\n        /* \"@openzeppelin/contracts/access/AccessControl.sol\":2927:2931  role */\n      dup5\n        /* \"@openzeppelin/contracts/access/AccessControl.sol\":2920:2932  _roles[role] */\n      dup2\n      mstore\n      0x20\n      add\n      swap1\n      dup2\n      mstore\n      0x20\n      add\n      0x00\n      keccak256\n        /* \"@openzeppelin/contracts/access/AccessControl.sol\":2920:2940  _roles[role].hasRole */\n      0x00\n      add\n        /* \"@openzeppelin/contracts/access/AccessControl.sol\":2920:2949  _roles[role].hasRole[account] */\n      0x00\n        /* \"@openzeppelin/contracts/access/AccessControl.sol\":2941:2948  account */\n      dup4\n        /* \"@openzeppelin/contracts/access/AccessControl.sol\":2920:2949  _roles[role].hasRole[account] */\n      0xffffffffffffffffffffffffffffffffffffffff\n      and\n      0xffffffffffffffffffffffffffffffffffffffff\n      and\n      dup2\n      mstore\n      0x20\n      add\n      swap1\n      dup2\n      mstore\n      0x20\n      add\n      0x00\n      keccak256\n      0x00\n      swap1\n      sload\n      swap1\n      0x0100\n      exp\n      swap1\n      div\n      0xff\n      and\n        /* \"@openzeppelin/contracts/access/AccessControl.sol\":2913:2949  return _roles[role].hasRole[account] */\n      swap1\n      pop\n        /* \"@openzeppelin/contracts/access/AccessControl.sol\":2820:2956  function hasRole(bytes32 role, address account) public view virtual returns (bool) {... */\n      swap3\n      swap2\n      pop\n      pop\n      jump\t// out\n        /* \"openzeppelin/AccessControl.sol\":495:618  function changeDefaultAdmin() onlyRole(DEFAULT_ADMIN_ROLE) public {... */\n    tag_42:\n        /* \"@openzeppelin/contracts/access/AccessControl.sol\":2232:2236  0x00 */\n      0x00\n        /* \"openzeppelin/AccessControl.sol\":534:552  DEFAULT_ADMIN_ROLE */\n      0x00\n      shl\n        /* \"@openzeppelin/contracts/access/AccessControl.sol\":2464:2480  _checkRole(role) */\n      tag_80\n        /* \"@openzeppelin/contracts/access/AccessControl.sol\":2475:2479  role */\n      dup2\n        /* \"@openzeppelin/contracts/access/AccessControl.sol\":2464:2474  _checkRole */\n      tag_63\n        /* \"@openzeppelin/contracts/access/AccessControl.sol\":2464:2480  _checkRole(role) */\n      jump\t// in\n    tag_80:\n        /* \"openzeppelin/AccessControl.sol\":572:610  _setRoleAdmin(ROLE_USER, ROLE_MANAGER) */\n      tag_82\n        /* \"openzeppelin/AccessControl.sol\":379:401  keccak256(\"ROLE_USER\") */\n      0xb8ca5430e403d88aa14f3587e1aa5a2121b1acebf2201dde30800337ea6af075\n        /* \"openzeppelin/AccessControl.sol\":313:338  keccak256(\"ROLE_MANAGER\") */\n      0xf206625bad3d9112d5609b8d356e6fbd514cd1f69980d4ce2b3e6e68e1789ace\n        /* \"openzeppelin/AccessControl.sol\":572:585  _setRoleAdmin */\n      tag_83\n        /* \"openzeppelin/AccessControl.sol\":572:610  _setRoleAdmin(ROLE_USER, ROLE_MANAGER) */\n      jump\t// in\n    tag_82:\n        /* \"openzeppelin/AccessControl.sol\":495:618  function changeDefaultAdmin() onlyRole(DEFAULT_ADMIN_ROLE) public {... */\n      pop\n      jump\t// out\n        /* \"@openzeppelin/contracts/access/AccessControl.sol\":2187:2236  bytes32 public constant DEFAULT_ADMIN_ROLE = 0x00 */\n    tag_44:\n        /* \"@openzeppelin/contracts/access/AccessControl.sol\":2232:2236  0x00 */\n      0x00\n        /* \"@openzeppelin/contracts/access/AccessControl.sol\":2187:2236  bytes32 public constant DEFAULT_ADMIN_ROLE = 0x00 */\n      0x00\n      shl\n      dup2\n      jump\t// out\n        /* \"openzeppelin/AccessControl.sol\":345:401  bytes32 public constant ROLE_USER=keccak256(\"ROLE_USER\") */\n    tag_47:\n        /* \"openzeppelin/AccessControl.sol\":379:401  keccak256(\"ROLE_USER\") */\n      0xb8ca5430e403d88aa14f3587e1aa5a2121b1acebf2201dde30800337ea6af075\n        /* \"openzeppelin/AccessControl.sol\":345:401  bytes32 public constant ROLE_USER=keccak256(\"ROLE_USER\") */\n      dup2\n      jump\t// out\n        /* \"@openzeppelin/contracts/access/AccessControl.sol\":4608:4746  function revokeRole(bytes32 role, address account) public virtual onlyRole(getRoleAdmin(role)) {... */\n    tag_51:\n        /* \"@openzeppelin/contracts/access/AccessControl.sol\":4683:4701  getRoleAdmin(role) */\n      tag_84\n        /* \"@openzeppelin/contracts/access/AccessControl.sol\":4696:4700  role */\n      dup3\n        /* \"@openzeppelin/contracts/access/AccessControl.sol\":4683:4695  getRoleAdmin */\n      tag_27\n        /* \"@openzeppelin/contracts/access/AccessControl.sol\":4683:4701  getRoleAdmin(role) */\n      jump\t// in\n    tag_84:\n        /* \"@openzeppelin/contracts/access/AccessControl.sol\":2464:2480  _checkRole(role) */\n      tag_86\n        /* \"@openzeppelin/contracts/access/AccessControl.sol\":2475:2479  role */\n      dup2\n        /* \"@openzeppelin/contracts/access/AccessControl.sol\":2464:2474  _checkRole */\n      tag_63\n        /* \"@openzeppelin/contracts/access/AccessControl.sol\":2464:2480  _checkRole(role) */\n      jump\t// in\n    tag_86:\n        /* \"@openzeppelin/contracts/access/AccessControl.sol\":4713:4739  _revokeRole(role, account) */\n      tag_88\n        /* \"@openzeppelin/contracts/access/AccessControl.sol\":4725:4729  role */\n      dup4\n        /* \"@openzeppelin/contracts/access/AccessControl.sol\":4731:4738  account */\n      dup4\n        /* \"@openzeppelin/contracts/access/AccessControl.sol\":4713:4724  _revokeRole */\n      tag_77\n        /* \"@openzeppelin/contracts/access/AccessControl.sol\":4713:4739  _revokeRole(role, account) */\n      jump\t// in\n    tag_88:\n      pop\n        /* \"@openzeppelin/contracts/access/AccessControl.sol\":4608:4746  function revokeRole(bytes32 role, address account) public virtual onlyRole(getRoleAdmin(role)) {... */\n      pop\n      pop\n      pop\n      jump\t// out\n        /* \"openzeppelin/AccessControl.sol\":276:338  bytes32 public constant ROLE_MANAGER=keccak256(\"ROLE_MANAGER\") */\n    tag_53:\n        /* \"openzeppelin/AccessControl.sol\":313:338  keccak256(\"ROLE_MANAGER\") */\n      0xf206625bad3d9112d5609b8d356e6fbd514cd1f69980d4ce2b3e6e68e1789ace\n        /* \"openzeppelin/AccessControl.sol\":276:338  bytes32 public constant ROLE_MANAGER=keccak256(\"ROLE_MANAGER\") */\n      dup2\n      jump\t// out\n        /* \"openzeppelin/AccessControl.sol\":626:683  function doNormal() onlyRole(ROLE_USER) public {... */\n    tag_56:\n        /* \"openzeppelin/AccessControl.sol\":379:401  keccak256(\"ROLE_USER\") */\n      0xb8ca5430e403d88aa14f3587e1aa5a2121b1acebf2201dde30800337ea6af075\n        /* \"@openzeppelin/contracts/access/AccessControl.sol\":2464:2480  _checkRole(role) */\n      tag_90\n        /* \"@openzeppelin/contracts/access/AccessControl.sol\":2475:2479  role */\n      dup2\n        /* \"@openzeppelin/contracts/access/AccessControl.sol\":2464:2474  _checkRole */\n      tag_63\n        /* \"@openzeppelin/contracts/access/AccessControl.sol\":2464:2480  _checkRole(role) */\n      jump\t// in\n    tag_90:\n        /* \"openzeppelin/AccessControl.sol\":626:683  function doNormal() onlyRole(ROLE_USER) public {... */\n      pop\n      jump\t// out\n        /* \"@openzeppelin/contracts/utils/introspection/ERC165.sol\":730:876  function supportsInterface(bytes4 interfaceId) public view virtual returns (bool) {... */\n    tag_60:\n        /* \"@openzeppelin/contracts/utils/introspection/ERC165.sol\":806:810  bool */\n      0x00\n        /* \"@openzeppelin/contracts/utils/introspection/ERC165.sol\":844:869  type(IERC165).interfaceId */\n      0x01ffc9a700000000000000000000000000000000000000000000000000000000\n        /* \"@openzeppelin/contracts/utils/introspection/ERC165.sol\":829:869  interfaceId == type(IERC165).interfaceId */\n      not(0xffffffffffffffffffffffffffffffffffffffffffffffffffffffff)\n      and\n        /* \"@openzeppelin/contracts/utils/introspection/ERC165.sol\":829:840  interfaceId */\n      dup3\n        /* \"@openzeppelin/contracts/utils/introspection/ERC165.sol\":829:869  interfaceId == type(IERC165).interfaceId */\n      not(0xffffffffffffffffffffffffffffffffffffffffffffffffffffffff)\n      and\n      eq\n        /* \"@openzeppelin/contracts/utils/introspection/ERC165.sol\":822:869  return interfaceId == type(IERC165).interfaceId */\n      swap1\n      pop\n        /* \"@openzeppelin/contracts/utils/introspection/ERC165.sol\":730:876  function supportsInterface(bytes4 interfaceId) public view virtual returns (bool) {... */\n      swap2\n      swap1\n      pop\n      jump\t// out\n        /* \"@openzeppelin/contracts/access/AccessControl.sol\":3165:3268  function _checkRole(bytes32 role) internal view virtual {... */\n    tag_63:\n        /* \"@openzeppelin/contracts/access/AccessControl.sol\":3231:3261  _checkRole(role, _msgSender()) */\n      tag_94\n        /* \"@openzeppelin/contracts/access/AccessControl.sol\":3242:3246  role */\n      dup2\n        /* \"@openzeppelin/contracts/access/AccessControl.sol\":3248:3260  _msgSender() */\n      tag_95\n        /* \"@openzeppelin/contracts/access/AccessControl.sol\":3248:3258  _msgSender */\n      tag_74\n        /* \"@openzeppelin/contracts/access/AccessControl.sol\":3248:3260  _msgSender() */\n      jump\t// in\n    tag_95:\n        /* \"@openzeppelin/contracts/access/AccessControl.sol\":3231:3241  _checkRole */\n      tag_96\n        /* \"@openzeppelin/contracts/access/AccessControl.sol\":3231:3261  _checkRole(role, _msgSender()) */\n      jump\t// in\n    tag_94:\n        /* \"@openzeppelin/contracts/access/AccessControl.sol\":3165:3268  function _checkRole(bytes32 role) internal view virtual {... */\n      pop\n      jump\t// out\n        /* \"@openzeppelin/contracts/access/AccessControl.sol\":6145:6461  function _grantRole(bytes32 role, address account) internal virtual returns (bool) {... */\n    tag_71:\n        /* \"@openzeppelin/contracts/access/AccessControl.sol\":6222:6226  bool */\n      0x00\n        /* \"@openzeppelin/contracts/access/AccessControl.sol\":6243:6265  hasRole(role, account) */\n      tag_98\n        /* \"@openzeppelin/contracts/access/AccessControl.sol\":6251:6255  role */\n      dup4\n        /* \"@openzeppelin/contracts/access/AccessControl.sol\":6257:6264  account */\n      dup4\n        /* \"@openzeppelin/contracts/access/AccessControl.sol\":6243:6250  hasRole */\n      tag_39\n        /* \"@openzeppelin/contracts/access/AccessControl.sol\":6243:6265  hasRole(role, account) */\n      jump\t// in\n    tag_98:\n        /* \"@openzeppelin/contracts/access/AccessControl.sol\":6238:6455  if (!hasRole(role, account)) {... */\n      tag_99\n      jumpi\n        /* \"@openzeppelin/contracts/access/AccessControl.sol\":6313:6317  true */\n      0x01\n        /* \"@openzeppelin/contracts/access/AccessControl.sol\":6281:6287  _roles */\n      0x00\n        /* \"@openzeppelin/contracts/access/AccessControl.sol\":6281:6293  _roles[role] */\n      0x00\n        /* \"@openzeppelin/contracts/access/AccessControl.sol\":6288:6292  role */\n      dup6\n        /* \"@openzeppelin/contracts/access/AccessControl.sol\":6281:6293  _roles[role] */\n      dup2\n      mstore\n      0x20\n      add\n      swap1\n      dup2\n      mstore\n      0x20\n      add\n      0x00\n      keccak256\n        /* \"@openzeppelin/contracts/access/AccessControl.sol\":6281:6301  _roles[role].hasRole */\n      0x00\n      add\n        /* \"@openzeppelin/contracts/access/AccessControl.sol\":6281:6310  _roles[role].hasRole[account] */\n      0x00\n        /* \"@openzeppelin/contracts/access/AccessControl.sol\":6302:6309  account */\n      dup5\n        /* \"@openzeppelin/contracts/access/AccessControl.sol\":6281:6310  _roles[role].hasRole[account] */\n      0xffffffffffffffffffffffffffffffffffffffff\n      and\n      0xffffffffffffffffffffffffffffffffffffffff\n      and\n      dup2\n      mstore\n      0x20\n      add\n      swap1\n      dup2\n      mstore\n      0x20\n      add\n      0x00\n      keccak256\n      0x00\n        /* \"@openzeppelin/contracts/access/AccessControl.sol\":6281:6317  _roles[role].hasRole[account] = true */\n      0x0100\n      exp\n      dup2\n      sload\n      dup2\n      0xff\n      mul\n      not\n      and\n      swap1\n      dup4\n      iszero\n      iszero\n      mul\n      or\n      swap1\n      sstore\n      pop\n        /* \"@openzeppelin/contracts/access/AccessControl.sol\":6363:6375  _msgSender() */\n      tag_100\n        /* \"@openzeppelin/contracts/access/AccessControl.sol\":6363:6373  _msgSender */\n      tag_74\n        /* \"@openzeppelin/contracts/access/AccessControl.sol\":6363:6375  _msgSender() */\n      jump\t// in\n    tag_100:\n        /* \"@openzeppelin/contracts/access/AccessControl.sol\":6336:6376  RoleGranted(role, account, _msgSender()) */\n      0xffffffffffffffffffffffffffffffffffffffff\n      and\n        /* \"@openzeppelin/contracts/access/AccessControl.sol\":6354:6361  account */\n      dup3\n        /* \"@openzeppelin/contracts/access/AccessControl.sol\":6336:6376  RoleGranted(role, account, _msgSender()) */\n      0xffffffffffffffffffffffffffffffffffffffff\n      and\n        /* \"@openzeppelin/contracts/access/AccessControl.sol\":6348:6352  role */\n      dup5\n        /* \"@openzeppelin/contracts/access/AccessControl.sol\":6336:6376  RoleGranted(role, account, _msgSender()) */\n      0x2f8788117e7eff1d82e926ec794901d17c78024a50270940304540a733656f0d\n      mload(0x40)\n      mload(0x40)\n      dup1\n      swap2\n      sub\n      swap1\n      log4\n        /* \"@openzeppelin/contracts/access/AccessControl.sol\":6397:6401  true */\n      0x01\n        /* \"@openzeppelin/contracts/access/AccessControl.sol\":6390:6401  return true */\n      swap1\n      pop\n      jump(tag_97)\n        /* \"@openzeppelin/contracts/access/AccessControl.sol\":6238:6455  if (!hasRole(role, account)) {... */\n    tag_99:\n        /* \"@openzeppelin/contracts/access/AccessControl.sol\":6439:6444  false */\n      0x00\n        /* \"@openzeppelin/contracts/access/AccessControl.sol\":6432:6444  return false */\n      swap1\n      pop\n        /* \"@openzeppelin/contracts/access/AccessControl.sol\":6145:6461  function _grantRole(bytes32 role, address account) internal virtual returns (bool) {... */\n    tag_97:\n      swap3\n      swap2\n      pop\n      pop\n      jump\t// out\n        /* \"@openzeppelin/contracts/utils/Context.sol\":656:752  function _msgSender() internal view virtual returns (address) {... */\n    tag_74:\n        /* \"@openzeppelin/contracts/utils/Context.sol\":709:716  address */\n      0x00\n        /* \"@openzeppelin/contracts/utils/Context.sol\":735:745  msg.sender */\n      caller\n        /* \"@openzeppelin/contracts/utils/Context.sol\":728:745  return msg.sender */\n      swap1\n      pop\n        /* \"@openzeppelin/contracts/utils/Context.sol\":656:752  function _msgSender() internal view virtual returns (address) {... */\n      swap1\n      jump\t// out\n        /* \"@openzeppelin/contracts/access/AccessControl.sol\":6698:7015  function _revokeRole(bytes32 role, address account) internal virtual returns (bool) {... */\n    tag_77:\n        /* \"@openzeppelin/contracts/access/AccessControl.sol\":6776:6780  bool */\n      0x00\n        /* \"@openzeppelin/contracts/access/AccessControl.sol\":6796:6818  hasRole(role, account) */\n      tag_104\n        /* \"@openzeppelin/contracts/access/AccessControl.sol\":6804:6808  role */\n      dup4\n        /* \"@openzeppelin/contracts/access/AccessControl.sol\":6810:6817  account */\n      dup4\n        /* \"@openzeppelin/contracts/access/AccessControl.sol\":6796:6803  hasRole */\n      tag_39\n        /* \"@openzeppelin/contracts/access/AccessControl.sol\":6796:6818  hasRole(role, account) */\n      jump\t// in\n    tag_104:\n        /* \"@openzeppelin/contracts/access/AccessControl.sol\":6792:7009  if (hasRole(role, account)) {... */\n      iszero\n      tag_105\n      jumpi\n        /* \"@openzeppelin/contracts/access/AccessControl.sol\":6866:6871  false */\n      0x00\n        /* \"@openzeppelin/contracts/access/AccessControl.sol\":6834:6840  _roles */\n      0x00\n        /* \"@openzeppelin/contracts/access/AccessControl.sol\":6834:6846  _roles[role] */\n      0x00\n        /* \"@openzeppelin/contracts/access/AccessControl.sol\":6841:6845  role */\n      dup6\n        /* \"@openzeppelin/contracts/access/AccessControl.sol\":6834:6846  _roles[role] */\n      dup2\n      mstore\n      0x20\n      add\n      swap1\n      dup2\n      mstore\n      0x20\n      add\n      0x00\n      keccak256\n        /* \"@openzeppelin/contracts/access/AccessControl.sol\":6834:6854  _roles[role].hasRole */\n      0x00\n      add\n        /* \"@openzeppelin/contracts/access/AccessControl.sol\":6834:6863  _roles[role].hasRole[account] */\n      0x00\n        /* \"@openzeppelin/contracts/access/AccessControl.sol\":6855:6862  account */\n      dup5\n        /* \"@openzeppelin/contracts/access/AccessControl.sol\":6834:6863  _roles[role].hasRole[account] */\n      0xffffffffffffffffffffffffffffffffffffffff\n      and\n      0xffffffffffffffffffffffffffffffffffffffff\n      and\n      dup2\n      mstore\n      0x20\n      add\n      swap1\n      dup2\n      mstore\n      0x20\n      add\n      0x00\n      keccak256\n      0x00\n        /* \"@openzeppelin/contracts/access/AccessControl.sol\":6834:6871  _roles[role].hasRole[account] = false */\n      0x0100\n      exp\n      dup2\n      sload\n      dup2\n      0xff\n      mul\n      not\n      and\n      swap1\n      dup4\n      iszero\n      iszero\n      mul\n      or\n      swap1\n      sstore\n      pop\n        /* \"@openzeppelin/contracts/access/AccessControl.sol\":6917:6929  _msgSender() */\n      tag_106\n        /* \"@openzeppelin/contracts/access/AccessControl.sol\":6917:6927  _msgSender */\n      tag_74\n        /* \"@openzeppelin/contracts/access/AccessControl.sol\":6917:6929  _msgSender() */\n      jump\t// in\n    tag_106:\n        /* \"@openzeppelin/contracts/access/AccessControl.sol\":6890:6930  RoleRevoked(role, account, _msgSender()) */\n      0xffffffffffffffffffffffffffffffffffffffff\n      and\n        /* \"@openzeppelin/contracts/access/AccessControl.sol\":6908:6915  account */\n      dup3\n        /* \"@openzeppelin/contracts/access/AccessControl.sol\":6890:6930  RoleRevoked(role, account, _msgSender()) */\n      0xffffffffffffffffffffffffffffffffffffffff\n      and\n        /* \"@openzeppelin/contracts/access/AccessControl.sol\":6902:6906  role */\n      dup5\n        /* \"@openzeppelin/contracts/access/AccessControl.sol\":6890:6930  RoleRevoked(role, account, _msgSender()) */\n      0xf6391f5c32d9c69d2a47ea670b442974b53935d1edc7fd64eb21e047a839171b\n      mload(0x40)\n      mload(0x40)\n      dup1\n      swap2\n      sub\n      swap1\n      log4\n        /* \"@openzeppelin/contracts/access/AccessControl.sol\":6951:6955  true */\n      0x01\n        /* \"@openzeppelin/contracts/access/AccessControl.sol\":6944:6955  return true */\n      swap1\n      pop\n      jump(tag_103)\n        /* \"@openzeppelin/contracts/access/AccessControl.sol\":6792:7009  if (hasRole(role, account)) {... */\n    tag_105:\n        /* \"@openzeppelin/contracts/access/AccessControl.sol\":6993:6998  false */\n      0x00\n        /* \"@openzeppelin/contracts/access/AccessControl.sol\":6986:6998  return false */\n      swap1\n      pop\n        /* \"@openzeppelin/contracts/access/AccessControl.sol\":6698:7015  function _revokeRole(bytes32 role, address account) internal virtual returns (bool) {... */\n    tag_103:\n      swap3\n      swap2\n      pop\n      pop\n      jump\t// out\n        /* \"@openzeppelin/contracts/access/AccessControl.sol\":5664:5911  function _setRoleAdmin(bytes32 role, bytes32 adminRole) internal virtual {... */\n    tag_83:\n        /* \"@openzeppelin/contracts/access/AccessControl.sol\":5747:5772  bytes32 previousAdminRole */\n      0x00\n        /* \"@openzeppelin/contracts/access/AccessControl.sol\":5775:5793  getRoleAdmin(role) */\n      tag_109\n        /* \"@openzeppelin/contracts/access/AccessControl.sol\":5788:5792  role */\n      dup4\n        /* \"@openzeppelin/contracts/access/AccessControl.sol\":5775:5787  getRoleAdmin */\n      tag_27\n        /* \"@openzeppelin/contracts/access/AccessControl.sol\":5775:5793  getRoleAdmin(role) */\n      jump\t// in\n    tag_109:\n        /* \"@openzeppelin/contracts/access/AccessControl.sol\":5747:5793  bytes32 previousAdminRole = getRoleAdmin(role) */\n      swap1\n      pop\n        /* \"@openzeppelin/contracts/access/AccessControl.sol\":5828:5837  adminRole */\n      dup2\n        /* \"@openzeppelin/contracts/access/AccessControl.sol\":5803:5809  _roles */\n      0x00\n        /* \"@openzeppelin/contracts/access/AccessControl.sol\":5803:5815  _roles[role] */\n      0x00\n        /* \"@openzeppelin/contracts/access/AccessControl.sol\":5810:5814  role */\n      dup6\n        /* \"@openzeppelin/contracts/access/AccessControl.sol\":5803:5815  _roles[role] */\n      dup2\n      mstore\n      0x20\n      add\n      swap1\n      dup2\n      mstore\n      0x20\n      add\n      0x00\n      keccak256\n        /* \"@openzeppelin/contracts/access/AccessControl.sol\":5803:5825  _roles[role].adminRole */\n      0x01\n      add\n        /* \"@openzeppelin/contracts/access/AccessControl.sol\":5803:5837  _roles[role].adminRole = adminRole */\n      dup2\n      swap1\n      sstore\n      pop\n        /* \"@openzeppelin/contracts/access/AccessControl.sol\":5894:5903  adminRole */\n      dup2\n        /* \"@openzeppelin/contracts/access/AccessControl.sol\":5875:5892  previousAdminRole */\n      dup2\n        /* \"@openzeppelin/contracts/access/AccessControl.sol\":5869:5873  role */\n      dup5\n        /* \"@openzeppelin/contracts/access/AccessControl.sol\":5852:5904  RoleAdminChanged(role, previousAdminRole, adminRole) */\n      0xbd79b86ffe0ab8e8776151514217cd7cacd52c909f66475c3af44e129f0b00ff\n      mload(0x40)\n      mload(0x40)\n      dup1\n      swap2\n      sub\n      swap1\n      log4\n        /* \"@openzeppelin/contracts/access/AccessControl.sol\":5737:5911  {... */\n      pop\n        /* \"@openzeppelin/contracts/access/AccessControl.sol\":5664:5911  function _setRoleAdmin(bytes32 role, bytes32 adminRole) internal virtual {... */\n      pop\n      pop\n      jump\t// out\n        /* \"@openzeppelin/contracts/access/AccessControl.sol\":3398:3595  function _checkRole(bytes32 role, address account) internal view virtual {... */\n    tag_96:\n        /* \"@openzeppelin/contracts/access/AccessControl.sol\":3486:3508  hasRole(role, account) */\n      tag_111\n        /* \"@openzeppelin/contracts/access/AccessControl.sol\":3494:3498  role */\n      dup3\n        /* \"@openzeppelin/contracts/access/AccessControl.sol\":3500:3507  account */\n      dup3\n        /* \"@openzeppelin/contracts/access/AccessControl.sol\":3486:3493  hasRole */\n      tag_39\n        /* \"@openzeppelin/contracts/access/AccessControl.sol\":3486:3508  hasRole(role, account) */\n      jump\t// in\n    tag_111:\n        /* \"@openzeppelin/contracts/access/AccessControl.sol\":3481:3589  if (!hasRole(role, account)) {... */\n      tag_112\n      jumpi\n        /* \"@openzeppelin/contracts/access/AccessControl.sol\":3564:3571  account */\n      dup1\n        /* \"@openzeppelin/contracts/access/AccessControl.sol\":3573:3577  role */\n      dup3\n        /* \"@openzeppelin/contracts/access/AccessControl.sol\":3531:3578  AccessControlUnauthorizedAccount(account, role) */\n      mload(0x40)\n      0xe2517d3f00000000000000000000000000000000000000000000000000000000\n      dup2\n      mstore\n      0x04\n      add\n      tag_113\n      swap3\n      swap2\n      swap1\n      tag_114\n      jump\t// in\n    tag_113:\n      mload(0x40)\n      dup1\n      swap2\n      sub\n      swap1\n      revert\n        /* \"@openzeppelin/contracts/access/AccessControl.sol\":3481:3589  if (!hasRole(role, account)) {... */\n    tag_112:\n        /* \"@openzeppelin/contracts/access/AccessControl.sol\":3398:3595  function _checkRole(bytes32 role, address account) internal view virtual {... */\n      pop\n      pop\n      jump\t// out\n        /* \"#utility.yul\":88:205   */\n    tag_116:\n        /* \"#utility.yul\":197:198   */\n      0x00\n        /* \"#utility.yul\":194:195   */\n      0x00\n        /* \"#utility.yul\":187:199   */\n      revert\n        /* \"#utility.yul\":334:483   */\n    tag_118:\n        /* \"#utility.yul\":370:377   */\n      0x00\n        /* \"#utility.yul\":410:476   */\n      0xffffffff00000000000000000000000000000000000000000000000000000000\n        /* \"#utility.yul\":403:408   */\n      dup3\n        /* \"#utility.yul\":399:477   */\n      and\n        /* \"#utility.yul\":388:477   */\n      swap1\n      pop\n        /* \"#utility.yul\":334:483   */\n      swap2\n      swap1\n      pop\n      jump\t// out\n        /* \"#utility.yul\":489:609   */\n    tag_119:\n        /* \"#utility.yul\":561:584   */\n      tag_138\n        /* \"#utility.yul\":578:583   */\n      dup2\n        /* \"#utility.yul\":561:584   */\n      tag_118\n      jump\t// in\n    tag_138:\n        /* \"#utility.yul\":554:559   */\n      dup2\n        /* \"#utility.yul\":551:585   */\n      eq\n        /* \"#utility.yul\":541:603   */\n      tag_139\n      jumpi\n        /* \"#utility.yul\":599:600   */\n      0x00\n        /* \"#utility.yul\":596:597   */\n      0x00\n        /* \"#utility.yul\":589:601   */\n      revert\n        /* \"#utility.yul\":541:603   */\n    tag_139:\n        /* \"#utility.yul\":489:609   */\n      pop\n      jump\t// out\n        /* \"#utility.yul\":615:752   */\n    tag_120:\n        /* \"#utility.yul\":660:665   */\n      0x00\n        /* \"#utility.yul\":698:704   */\n      dup2\n        /* \"#utility.yul\":685:705   */\n      calldataload\n        /* \"#utility.yul\":676:705   */\n      swap1\n      pop\n        /* \"#utility.yul\":714:746   */\n      tag_141\n        /* \"#utility.yul\":740:745   */\n      dup2\n        /* \"#utility.yul\":714:746   */\n      tag_119\n      jump\t// in\n    tag_141:\n        /* \"#utility.yul\":615:752   */\n      swap3\n      swap2\n      pop\n      pop\n      jump\t// out\n        /* \"#utility.yul\":758:1085   */\n    tag_18:\n        /* \"#utility.yul\":816:822   */\n      0x00\n        /* \"#utility.yul\":865:867   */\n      0x20\n        /* \"#utility.yul\":853:862   */\n      dup3\n        /* \"#utility.yul\":844:851   */\n      dup5\n        /* \"#utility.yul\":840:863   */\n      sub\n        /* \"#utility.yul\":836:868   */\n      slt\n        /* \"#utility.yul\":833:952   */\n      iszero\n      tag_143\n      jumpi\n        /* \"#utility.yul\":871:950   */\n      tag_144\n      tag_116\n      jump\t// in\n    tag_144:\n        /* \"#utility.yul\":833:952   */\n    tag_143:\n        /* \"#utility.yul\":991:992   */\n      0x00\n        /* \"#utility.yul\":1016:1068   */\n      tag_145\n        /* \"#utility.yul\":1060:1067   */\n      dup5\n        /* \"#utility.yul\":1051:1057   */\n      dup3\n        /* \"#utility.yul\":1040:1049   */\n      dup6\n        /* \"#utility.yul\":1036:1058   */\n      add\n        /* \"#utility.yul\":1016:1068   */\n      tag_120\n      jump\t// in\n    tag_145:\n        /* \"#utility.yul\":1006:1068   */\n      swap2\n      pop\n        /* \"#utility.yul\":962:1078   */\n      pop\n        /* \"#utility.yul\":758:1085   */\n      swap3\n      swap2\n      pop\n      pop\n      jump\t// out\n        /* \"#utility.yul\":1091:1181   */\n    tag_121:\n        /* \"#utility.yul\":1125:1132   */\n      0x00\n        /* \"#utility.yul\":1168:1173   */\n      dup2\n        /* \"#utility.yul\":1161:1174   */\n      iszero\n        /* \"#utility.yul\":1154:1175   */\n      iszero\n        /* \"#utility.yul\":1143:1175   */\n      swap1\n      pop\n        /* \"#utility.yul\":1091:1181   */\n      swap2\n      swap1\n      pop\n      jump\t// out\n        /* \"#utility.yul\":1187:1296   */\n    tag_122:\n        /* \"#utility.yul\":1268:1289   */\n      tag_148\n        /* \"#utility.yul\":1283:1288   */\n      dup2\n        /* \"#utility.yul\":1268:1289   */\n      tag_121\n      jump\t// in\n    tag_148:\n        /* \"#utility.yul\":1263:1266   */\n      dup3\n        /* \"#utility.yul\":1256:1290   */\n      mstore\n        /* \"#utility.yul\":1187:1296   */\n      pop\n      pop\n      jump\t// out\n        /* \"#utility.yul\":1302:1512   */\n    tag_21:\n        /* \"#utility.yul\":1389:1393   */\n      0x00\n        /* \"#utility.yul\":1427:1429   */\n      0x20\n        /* \"#utility.yul\":1416:1425   */\n      dup3\n        /* \"#utility.yul\":1412:1430   */\n      add\n        /* \"#utility.yul\":1404:1430   */\n      swap1\n      pop\n        /* \"#utility.yul\":1440:1505   */\n      tag_150\n        /* \"#utility.yul\":1502:1503   */\n      0x00\n        /* \"#utility.yul\":1491:1500   */\n      dup4\n        /* \"#utility.yul\":1487:1504   */\n      add\n        /* \"#utility.yul\":1478:1484   */\n      dup5\n        /* \"#utility.yul\":1440:1505   */\n      tag_122\n      jump\t// in\n    tag_150:\n        /* \"#utility.yul\":1302:1512   */\n      swap3\n      swap2\n      pop\n      pop\n      jump\t// out\n        /* \"#utility.yul\":1518:1595   */\n    tag_123:\n        /* \"#utility.yul\":1555:1562   */\n      0x00\n        /* \"#utility.yul\":1584:1589   */\n      dup2\n        /* \"#utility.yul\":1573:1589   */\n      swap1\n      pop\n        /* \"#utility.yul\":1518:1595   */\n      swap2\n      swap1\n      pop\n      jump\t// out\n        /* \"#utility.yul\":1601:1723   */\n    tag_124:\n        /* \"#utility.yul\":1674:1698   */\n      tag_153\n        /* \"#utility.yul\":1692:1697   */\n      dup2\n        /* \"#utility.yul\":1674:1698   */\n      tag_123\n      jump\t// in\n    tag_153:\n        /* \"#utility.yul\":1667:1672   */\n      dup2\n        /* \"#utility.yul\":1664:1699   */\n      eq\n        /* \"#utility.yul\":1654:1717   */\n      tag_154\n      jumpi\n        /* \"#utility.yul\":1713:1714   */\n      0x00\n        /* \"#utility.yul\":1710:1711   */\n      0x00\n        /* \"#utility.yul\":1703:1715   */\n      revert\n        /* \"#utility.yul\":1654:1717   */\n    tag_154:\n        /* \"#utility.yul\":1601:1723   */\n      pop\n      jump\t// out\n        /* \"#utility.yul\":1729:1868   */\n    tag_125:\n        /* \"#utility.yul\":1775:1780   */\n      0x00\n        /* \"#utility.yul\":1813:1819   */\n      dup2\n        /* \"#utility.yul\":1800:1820   */\n      calldataload\n        /* \"#utility.yul\":1791:1820   */\n      swap1\n      pop\n        /* \"#utility.yul\":1829:1862   */\n      tag_156\n        /* \"#utility.yul\":1856:1861   */\n      dup2\n        /* \"#utility.yul\":1829:1862   */\n      tag_124\n      jump\t// in\n    tag_156:\n        /* \"#utility.yul\":1729:1868   */\n      swap3\n      swap2\n      pop\n      pop\n      jump\t// out\n        /* \"#utility.yul\":1874:2203   */\n    tag_26:\n        /* \"#utility.yul\":1933:1939   */\n      0x00\n        /* \"#utility.yul\":1982:1984   */\n      0x20\n        /* \"#utility.yul\":1970:1979   */\n      dup3\n        /* \"#utility.yul\":1961:1968   */\n      dup5\n        /* \"#utility.yul\":1957:1980   */\n      sub\n        /* \"#utility.yul\":1953:1985   */\n      slt\n        /* \"#utility.yul\":1950:2069   */\n      iszero\n      tag_158\n      jumpi\n        /* \"#utility.yul\":1988:2067   */\n      tag_159\n      tag_116\n      jump\t// in\n    tag_159:\n        /* \"#utility.yul\":1950:2069   */\n    tag_158:\n        /* \"#utility.yul\":2108:2109   */\n      0x00\n        /* \"#utility.yul\":2133:2186   */\n      tag_160\n        /* \"#utility.yul\":2178:2185   */\n      dup5\n        /* \"#utility.yul\":2169:2175   */\n      dup3\n        /* \"#utility.yul\":2158:2167   */\n      dup6\n        /* \"#utility.yul\":2154:2176   */\n      add\n        /* \"#utility.yul\":2133:2186   */\n      tag_125\n      jump\t// in\n    tag_160:\n        /* \"#utility.yul\":2123:2186   */\n      swap2\n      pop\n        /* \"#utility.yul\":2079:2196   */\n      pop\n        /* \"#utility.yul\":1874:2203   */\n      swap3\n      swap2\n      pop\n      pop\n      jump\t// out\n        /* \"#utility.yul\":2209:2327   */\n    tag_126:\n        /* \"#utility.yul\":2296:2320   */\n      tag_162\n        /* \"#utility.yul\":2314:2319   */\n      dup2\n        /* \"#utility.yul\":2296:2320   */\n      tag_123\n      jump\t// in\n    tag_162:\n        /* \"#utility.yul\":2291:2294   */\n      dup3\n        /* \"#utility.yul\":2284:2321   */\n      mstore\n        /* \"#utility.yul\":2209:2327   */\n      pop\n      pop\n      jump\t// out\n        /* \"#utility.yul\":2333:2555   */\n    tag_29:\n        /* \"#utility.yul\":2426:2430   */\n      0x00\n        /* \"#utility.yul\":2464:2466   */\n      0x20\n        /* \"#utility.yul\":2453:2462   */\n      dup3\n        /* \"#utility.yul\":2449:2467   */\n      add\n        /* \"#utility.yul\":2441:2467   */\n      swap1\n      pop\n        /* \"#utility.yul\":2477:2548   */\n      tag_164\n        /* \"#utility.yul\":2545:2546   */\n      0x00\n        /* \"#utility.yul\":2534:2543   */\n      dup4\n        /* \"#utility.yul\":2530:2547   */\n      add\n        /* \"#utility.yul\":2521:2527   */\n      dup5\n        /* \"#utility.yul\":2477:2548   */\n      tag_126\n      jump\t// in\n    tag_164:\n        /* \"#utility.yul\":2333:2555   */\n      swap3\n      swap2\n      pop\n      pop\n      jump\t// out\n        /* \"#utility.yul\":2561:2687   */\n    tag_127:\n        /* \"#utility.yul\":2598:2605   */\n      0x00\n        /* \"#utility.yul\":2638:2680   */\n      0xffffffffffffffffffffffffffffffffffffffff\n        /* \"#utility.yul\":2631:2636   */\n      dup3\n        /* \"#utility.yul\":2627:2681   */\n      and\n        /* \"#utility.yul\":2616:2681   */\n      swap1\n      pop\n        /* \"#utility.yul\":2561:2687   */\n      swap2\n      swap1\n      pop\n      jump\t// out\n        /* \"#utility.yul\":2693:2789   */\n    tag_128:\n        /* \"#utility.yul\":2730:2737   */\n      0x00\n        /* \"#utility.yul\":2759:2783   */\n      tag_167\n        /* \"#utility.yul\":2777:2782   */\n      dup3\n        /* \"#utility.yul\":2759:2783   */\n      tag_127\n      jump\t// in\n    tag_167:\n        /* \"#utility.yul\":2748:2783   */\n      swap1\n      pop\n        /* \"#utility.yul\":2693:2789   */\n      swap2\n      swap1\n      pop\n      jump\t// out\n        /* \"#utility.yul\":2795:2917   */\n    tag_129:\n        /* \"#utility.yul\":2868:2892   */\n      tag_169\n        /* \"#utility.yul\":2886:2891   */\n      dup2\n        /* \"#utility.yul\":2868:2892   */\n      tag_128\n      jump\t// in\n    tag_169:\n        /* \"#utility.yul\":2861:2866   */\n      dup2\n        /* \"#utility.yul\":2858:2893   */\n      eq\n        /* \"#utility.yul\":2848:2911   */\n      tag_170\n      jumpi\n        /* \"#utility.yul\":2907:2908   */\n      0x00\n        /* \"#utility.yul\":2904:2905   */\n      0x00\n        /* \"#utility.yul\":2897:2909   */\n      revert\n        /* \"#utility.yul\":2848:2911   */\n    tag_170:\n        /* \"#utility.yul\":2795:2917   */\n      pop\n      jump\t// out\n        /* \"#utility.yul\":2923:3062   */\n    tag_130:\n        /* \"#utility.yul\":2969:2974   */\n      0x00\n        /* \"#utility.yul\":3007:3013   */\n      dup2\n        /* \"#utility.yul\":2994:3014   */\n      calldataload\n        /* \"#utility.yul\":2985:3014   */\n      swap1\n      pop\n        /* \"#utility.yul\":3023:3056   */\n      tag_172\n        /* \"#utility.yul\":3050:3055   */\n      dup2\n        /* \"#utility.yul\":3023:3056   */\n      tag_129\n      jump\t// in\n    tag_172:\n        /* \"#utility.yul\":2923:3062   */\n      swap3\n      swap2\n      pop\n      pop\n      jump\t// out\n        /* \"#utility.yul\":3068:3542   */\n    tag_32:\n        /* \"#utility.yul\":3136:3142   */\n      0x00\n        /* \"#utility.yul\":3144:3150   */\n      0x00\n        /* \"#utility.yul\":3193:3195   */\n      0x40\n        /* \"#utility.yul\":3181:3190   */\n      dup4\n        /* \"#utility.yul\":3172:3179   */\n      dup6\n        /* \"#utility.yul\":3168:3191   */\n      sub\n        /* \"#utility.yul\":3164:3196   */\n      slt\n        /* \"#utility.yul\":3161:3280   */\n      iszero\n      tag_174\n      jumpi\n        /* \"#utility.yul\":3199:3278   */\n      tag_175\n      tag_116\n      jump\t// in\n    tag_175:\n        /* \"#utility.yul\":3161:3280   */\n    tag_174:\n        /* \"#utility.yul\":3319:3320   */\n      0x00\n        /* \"#utility.yul\":3344:3397   */\n      tag_176\n        /* \"#utility.yul\":3389:3396   */\n      dup6\n        /* \"#utility.yul\":3380:3386   */\n      dup3\n        /* \"#utility.yul\":3369:3378   */\n      dup7\n        /* \"#utility.yul\":3365:3387   */\n      add\n        /* \"#utility.yul\":3344:3397   */\n      tag_125\n      jump\t// in\n    tag_176:\n        /* \"#utility.yul\":3334:3397   */\n      swap3\n      pop\n        /* \"#utility.yul\":3290:3407   */\n      pop\n        /* \"#utility.yul\":3446:3448   */\n      0x20\n        /* \"#utility.yul\":3472:3525   */\n      tag_177\n        /* \"#utility.yul\":3517:3524   */\n      dup6\n        /* \"#utility.yul\":3508:3514   */\n      dup3\n        /* \"#utility.yul\":3497:3506   */\n      dup7\n        /* \"#utility.yul\":3493:3515   */\n      add\n        /* \"#utility.yul\":3472:3525   */\n      tag_130\n      jump\t// in\n    tag_177:\n        /* \"#utility.yul\":3462:3525   */\n      swap2\n      pop\n        /* \"#utility.yul\":3417:3535   */\n      pop\n        /* \"#utility.yul\":3068:3542   */\n      swap3\n      pop\n      swap3\n      swap1\n      pop\n      jump\t// out\n        /* \"#utility.yul\":3548:3666   */\n    tag_131:\n        /* \"#utility.yul\":3635:3659   */\n      tag_179\n        /* \"#utility.yul\":3653:3658   */\n      dup2\n        /* \"#utility.yul\":3635:3659   */\n      tag_128\n      jump\t// in\n    tag_179:\n        /* \"#utility.yul\":3630:3633   */\n      dup3\n        /* \"#utility.yul\":3623:3660   */\n      mstore\n        /* \"#utility.yul\":3548:3666   */\n      pop\n      pop\n      jump\t// out\n        /* \"#utility.yul\":3672:4004   */\n    tag_114:\n        /* \"#utility.yul\":3793:3797   */\n      0x00\n        /* \"#utility.yul\":3831:3833   */\n      0x40\n        /* \"#utility.yul\":3820:3829   */\n      dup3\n        /* \"#utility.yul\":3816:3834   */\n      add\n        /* \"#utility.yul\":3808:3834   */\n      swap1\n      pop\n        /* \"#utility.yul\":3844:3915   */\n      tag_181\n        /* \"#utility.yul\":3912:3913   */\n      0x00\n        /* \"#utility.yul\":3901:3910   */\n      dup4\n        /* \"#utility.yul\":3897:3914   */\n      add\n        /* \"#utility.yul\":3888:3894   */\n      dup6\n        /* \"#utility.yul\":3844:3915   */\n      tag_131\n      jump\t// in\n    tag_181:\n        /* \"#utility.yul\":3925:3997   */\n      tag_182\n        /* \"#utility.yul\":3993:3995   */\n      0x20\n        /* \"#utility.yul\":3982:3991   */\n      dup4\n        /* \"#utility.yul\":3978:3996   */\n      add\n        /* \"#utility.yul\":3969:3975   */\n      dup5\n        /* \"#utility.yul\":3925:3997   */\n      tag_126\n      jump\t// in\n    tag_182:\n        /* \"#utility.yul\":3672:4004   */\n      swap4\n      swap3\n      pop\n      pop\n      pop\n      jump\t// out\n\n    auxdata: 0xa26469706673582212201948bc08e3c96cd40a8cc89b88d3b89e546fe7c385445ad88a9e45666625238a64736f6c63430008220033\n}\n",
				"bytecode": {
					"linkReferences": {},
					"object": "608060405234801561000f575f5ffd5b5061002f5f5f1b61002461003560201b60201c565b61003c60201b60201c565b50610194565b5f33905090565b5f61004d838361013160201b60201c565b6101275760015f5f8581526020019081526020015f205f015f8473ffffffffffffffffffffffffffffffffffffffff1673ffffffffffffffffffffffffffffffffffffffff1681526020019081526020015f205f6101000a81548160ff0219169083151502179055506100c461003560201b60201c565b73ffffffffffffffffffffffffffffffffffffffff168273ffffffffffffffffffffffffffffffffffffffff16847f2f8788117e7eff1d82e926ec794901d17c78024a50270940304540a733656f0d60405160405180910390a46001905061012b565b5f90505b92915050565b5f5f5f8481526020019081526020015f205f015f8373ffffffffffffffffffffffffffffffffffffffff1673ffffffffffffffffffffffffffffffffffffffff1681526020019081526020015f205f9054906101000a900460ff16905092915050565b610a0a806101a15f395ff3fe608060405234801561000f575f5ffd5b50600436106100b2575f3560e01c80639b4559481161006f5780639b45594814610188578063a217fddf14610192578063b941719e146101b0578063d547741f146101ce578063f5b944eb146101ea578063f821994b14610208576100b2565b806301ffc9a7146100b657806303c6e204146100e6578063248a9ca3146100f05780632f2ff15d1461012057806336568abe1461013c57806391d1485414610158575b5f5ffd5b6100d060048036038101906100cb9190610822565b610212565b6040516100dd9190610867565b60405180910390f35b6100ee61028b565b005b61010a600480360381019061010591906108b3565b6102b8565b60405161011791906108ed565b60405180910390f35b61013a60048036038101906101359190610960565b6102d4565b005b61015660048036038101906101519190610960565b6102f6565b005b610172600480360381019061016d9190610960565b610371565b60405161017f9190610867565b60405180910390f35b6101906103d4565b005b61019a61042d565b6040516101a791906108ed565b60405180910390f35b6101b8610433565b6040516101c591906108ed565b60405180910390f35b6101e860048036038101906101e39190610960565b610457565b005b6101f2610479565b6040516101ff91906108ed565b60405180910390f35b61021061049d565b005b5f7f7965db0b000000000000000000000000000000000000000000000000000000007bffffffffffffffffffffffffffffffffffffffffffffffffffffffff1916827bffffffffffffffffffffffffffffffffffffffffffffffffffffffff191614806102845750610283826104ca565b5b9050919050565b7ff206625bad3d9112d5609b8d356e6fbd514cd1f69980d4ce2b3e6e68e1789ace6102b581610533565b50565b5f5f5f8381526020019081526020015f20600101549050919050565b6102dd826102b8565b6102e681610533565b6102f08383610547565b50505050565b6102fe610630565b73ffffffffffffffffffffffffffffffffffffffff168173ffffffffffffffffffffffffffffffffffffffff1614610362576040517f6697b23200000000000000000000000000000000000000000000000000000000815260040160405180910390fd5b61036c8282610637565b505050565b5f5f5f8481526020019081526020015f205f015f8373ffffffffffffffffffffffffffffffffffffffff1673ffffffffffffffffffffffffffffffffffffffff1681526020019081526020015f205f9054906101000a900460ff16905092915050565b5f5f1b6103e081610533565b61042a7fb8ca5430e403d88aa14f3587e1aa5a2121b1acebf2201dde30800337ea6af0757ff206625bad3d9112d5609b8d356e6fbd514cd1f69980d4ce2b3e6e68e1789ace610720565b50565b5f5f1b81565b7fb8ca5430e403d88aa14f3587e1aa5a2121b1acebf2201dde30800337ea6af07581565b610460826102b8565b61046981610533565b6104738383610637565b50505050565b7ff206625bad3d9112d5609b8d356e6fbd514cd1f69980d4ce2b3e6e68e1789ace81565b7fb8ca5430e403d88aa14f3587e1aa5a2121b1acebf2201dde30800337ea6af0756104c781610533565b50565b5f7f01ffc9a7000000000000000000000000000000000000000000000000000000007bffffffffffffffffffffffffffffffffffffffffffffffffffffffff1916827bffffffffffffffffffffffffffffffffffffffffffffffffffffffff1916149050919050565b6105448161053f610630565b610778565b50565b5f6105528383610371565b6106265760015f5f8581526020019081526020015f205f015f8473ffffffffffffffffffffffffffffffffffffffff1673ffffffffffffffffffffffffffffffffffffffff1681526020019081526020015f205f6101000a81548160ff0219169083151502179055506105c3610630565b73ffffffffffffffffffffffffffffffffffffffff168273ffffffffffffffffffffffffffffffffffffffff16847f2f8788117e7eff1d82e926ec794901d17c78024a50270940304540a733656f0d60405160405180910390a46001905061062a565b5f90505b92915050565b5f33905090565b5f6106428383610371565b15610716575f5f5f8581526020019081526020015f205f015f8473ffffffffffffffffffffffffffffffffffffffff1673ffffffffffffffffffffffffffffffffffffffff1681526020019081526020015f205f6101000a81548160ff0219169083151502179055506106b3610630565b73ffffffffffffffffffffffffffffffffffffffff168273ffffffffffffffffffffffffffffffffffffffff16847ff6391f5c32d9c69d2a47ea670b442974b53935d1edc7fd64eb21e047a839171b60405160405180910390a46001905061071a565b5f90505b92915050565b5f61072a836102b8565b9050815f5f8581526020019081526020015f20600101819055508181847fbd79b86ffe0ab8e8776151514217cd7cacd52c909f66475c3af44e129f0b00ff60405160405180910390a4505050565b6107828282610371565b6107c55780826040517fe2517d3f0000000000000000000000000000000000000000000000000000000081526004016107bc9291906109ad565b60405180910390fd5b5050565b5f5ffd5b5f7fffffffff0000000000000000000000000000000000000000000000000000000082169050919050565b610801816107cd565b811461080b575f5ffd5b50565b5f8135905061081c816107f8565b92915050565b5f60208284031215610837576108366107c9565b5b5f6108448482850161080e565b91505092915050565b5f8115159050919050565b6108618161084d565b82525050565b5f60208201905061087a5f830184610858565b92915050565b5f819050919050565b61089281610880565b811461089c575f5ffd5b50565b5f813590506108ad81610889565b92915050565b5f602082840312156108c8576108c76107c9565b5b5f6108d58482850161089f565b91505092915050565b6108e781610880565b82525050565b5f6020820190506109005f8301846108de565b92915050565b5f73ffffffffffffffffffffffffffffffffffffffff82169050919050565b5f61092f82610906565b9050919050565b61093f81610925565b8114610949575f5ffd5b50565b5f8135905061095a81610936565b92915050565b5f5f60408385031215610976576109756107c9565b5b5f6109838582860161089f565b92505060206109948582860161094c565b9150509250929050565b6109a781610925565b82525050565b5f6040820190506109c05f83018561099e565b6109cd60208301846108de565b939250505056fea26469706673582212201948bc08e3c96cd40a8cc89b88d3b89e546fe7c385445ad88a9e45666625238a64736f6c63430008220033",
					"opcodes": "PUSH1 0x80 PUSH1 0x40 MSTORE CALLVALUE DUP1 ISZERO PUSH2 0xF JUMPI PUSH0 PUSH0 REVERT JUMPDEST POP PUSH2 0x2F PUSH0 PUSH0 SHL PUSH2 0x24 PUSH2 0x35 PUSH1 0x20 SHL PUSH1 0x20 SHR JUMP JUMPDEST PUSH2 0x3C PUSH1 0x20 SHL PUSH1 0x20 SHR JUMP JUMPDEST POP PUSH2 0x194 JUMP JUMPDEST PUSH0 CALLER SWAP1 POP SWAP1 JUMP JUMPDEST PUSH0 PUSH2 0x4D DUP4 DUP4 PUSH2 0x131 PUSH1 0x20 SHL PUSH1 0x20 SHR JUMP JUMPDEST PUSH2 0x127 JUMPI PUSH1 0x1 PUSH0 PUSH0 DUP6 DUP2 MSTORE PUSH1 0x20 ADD SWAP1 DUP2 MSTORE PUSH1 0x20 ADD PUSH0 KECCAK256 PUSH0 ADD PUSH0 DUP5 PUSH20 0xFFFFFFFFFFFFFFFFFFFFFFFFFFFFFFFFFFFFFFFF AND PUSH20 0xFFFFFFFFFFFFFFFFFFFFFFFFFFFFFFFFFFFFFFFF AND DUP2 MSTORE PUSH1 0x20 ADD SWAP1 DUP2 MSTORE PUSH1 0x20 ADD PUSH0 KECCAK256 PUSH0 PUSH2 0x100 EXP DUP2 SLOAD DUP2 PUSH1 0xFF MUL NOT AND SWAP1 DUP4 ISZERO ISZERO MUL OR SWAP1 SSTORE POP PUSH2 0xC4 PUSH2 0x35 PUSH1 0x20 SHL PUSH1 0x20 SHR JUMP JUMPDEST PUSH20 0xFFFFFFFFFFFFFFFFFFFFFFFFFFFFFFFFFFFFFFFF AND DUP3 PUSH20 0xFFFFFFFFFFFFFFFFFFFFFFFFFFFFFFFFFFFFFFFF AND DUP5 PUSH32 0x2F8788117E7EFF1D82E926EC794901D17C78024A50270940304540A733656F0D PUSH1 0x40 MLOAD PUSH1 0x40 MLOAD DUP1 SWAP2 SUB SWAP1 LOG4 PUSH1 0x1 SWAP1 POP PUSH2 0x12B JUMP JUMPDEST PUSH0 SWAP1 POP JUMPDEST SWAP3 SWAP2 POP POP JUMP JUMPDEST PUSH0 PUSH0 PUSH0 DUP5 DUP2 MSTORE PUSH1 0x20 ADD SWAP1 DUP2 MSTORE PUSH1 0x20 ADD PUSH0 KECCAK256 PUSH0 ADD PUSH0 DUP4 PUSH20 0xFFFFFFFFFFFFFFFFFFFFFFFFFFFFFFFFFFFFFFFF AND PUSH20 0xFFFFFFFFFFFFFFFFFFFFFFFFFFFFFFFFFFFFFFFF AND DUP2 MSTORE PUSH1 0x20 ADD SWAP1 DUP2 MSTORE PUSH1 0x20 ADD PUSH0 KECCAK256 PUSH0 SWAP1 SLOAD SWAP1 PUSH2 0x100 EXP SWAP1 DIV PUSH1 0xFF AND SWAP1 POP SWAP3 SWAP2 POP POP JUMP JUMPDEST PUSH2 0xA0A DUP1 PUSH2 0x1A1 PUSH0 CODECOPY PUSH0 RETURN INVALID PUSH1 0x80 PUSH1 0x40 MSTORE CALLVALUE DUP1 ISZERO PUSH2 0xF JUMPI PUSH0 PUSH0 REVERT JUMPDEST POP PUSH1 0x4 CALLDATASIZE LT PUSH2 0xB2 JUMPI PUSH0 CALLDATALOAD PUSH1 0xE0 SHR DUP1 PUSH4 0x9B455948 GT PUSH2 0x6F JUMPI DUP1 PUSH4 0x9B455948 EQ PUSH2 0x188 JUMPI DUP1 PUSH4 0xA217FDDF EQ PUSH2 0x192 JUMPI DUP1 PUSH4 0xB941719E EQ PUSH2 0x1B0 JUMPI DUP1 PUSH4 0xD547741F EQ PUSH2 0x1CE JUMPI DUP1 PUSH4 0xF5B944EB EQ PUSH2 0x1EA JUMPI DUP1 PUSH4 0xF821994B EQ PUSH2 0x208 JUMPI PUSH2 0xB2 JUMP JUMPDEST DUP1 PUSH4 0x1FFC9A7 EQ PUSH2 0xB6 JUMPI DUP1 PUSH4 0x3C6E204 EQ PUSH2 0xE6 JUMPI DUP1 PUSH4 0x248A9CA3 EQ PUSH2 0xF0 JUMPI DUP1 PUSH4 0x2F2FF15D EQ PUSH2 0x120 JUMPI DUP1 PUSH4 0x36568ABE EQ PUSH2 0x13C JUMPI DUP1 PUSH4 0x91D14854 EQ PUSH2 0x158 JUMPI JUMPDEST PUSH0 PUSH0 REVERT JUMPDEST PUSH2 0xD0 PUSH1 0x4 DUP1 CALLDATASIZE SUB DUP2 ADD SWAP1 PUSH2 0xCB SWAP2 SWAP1 PUSH2 0x822 JUMP JUMPDEST PUSH2 0x212 JUMP JUMPDEST PUSH1 0x40 MLOAD PUSH2 0xDD SWAP2 SWAP1 PUSH2 0x867 JUMP JUMPDEST PUSH1 0x40 MLOAD DUP1 SWAP2 SUB SWAP1 RETURN JUMPDEST PUSH2 0xEE PUSH2 0x28B JUMP JUMPDEST STOP JUMPDEST PUSH2 0x10A PUSH1 0x4 DUP1 CALLDATASIZE SUB DUP2 ADD SWAP1 PUSH2 0x105 SWAP2 SWAP1 PUSH2 0x8B3 JUMP JUMPDEST PUSH2 0x2B8 JUMP JUMPDEST PUSH1 0x40 MLOAD PUSH2 0x117 SWAP2 SWAP1 PUSH2 0x8ED JUMP JUMPDEST PUSH1 0x40 MLOAD DUP1 SWAP2 SUB SWAP1 RETURN JUMPDEST PUSH2 0x13A PUSH1 0x4 DUP1 CALLDATASIZE SUB DUP2 ADD SWAP1 PUSH2 0x135 SWAP2 SWAP1 PUSH2 0x960 JUMP JUMPDEST PUSH2 0x2D4 JUMP JUMPDEST STOP JUMPDEST PUSH2 0x156 PUSH1 0x4 DUP1 CALLDATASIZE SUB DUP2 ADD SWAP1 PUSH2 0x151 SWAP2 SWAP1 PUSH2 0x960 JUMP JUMPDEST PUSH2 0x2F6 JUMP JUMPDEST STOP JUMPDEST PUSH2 0x172 PUSH1 0x4 DUP1 CALLDATASIZE SUB DUP2 ADD SWAP1 PUSH2 0x16D SWAP2 SWAP1 PUSH2 0x960 JUMP JUMPDEST PUSH2 0x371 JUMP JUMPDEST PUSH1 0x40 MLOAD PUSH2 0x17F SWAP2 SWAP1 PUSH2 0x867 JUMP JUMPDEST PUSH1 0x40 MLOAD DUP1 SWAP2 SUB SWAP1 RETURN JUMPDEST PUSH2 0x190 PUSH2 0x3D4 JUMP JUMPDEST STOP JUMPDEST PUSH2 0x19A PUSH2 0x42D JUMP JUMPDEST PUSH1 0x40 MLOAD PUSH2 0x1A7 SWAP2 SWAP1 PUSH2 0x8ED JUMP JUMPDEST PUSH1 0x40 MLOAD DUP1 SWAP2 SUB SWAP1 RETURN JUMPDEST PUSH2 0x1B8 PUSH2 0x433 JUMP JUMPDEST PUSH1 0x40 MLOAD PUSH2 0x1C5 SWAP2 SWAP1 PUSH2 0x8ED JUMP JUMPDEST PUSH1 0x40 MLOAD DUP1 SWAP2 SUB SWAP1 RETURN JUMPDEST PUSH2 0x1E8 PUSH1 0x4 DUP1 CALLDATASIZE SUB DUP2 ADD SWAP1 PUSH2 0x1E3 SWAP2 SWAP1 PUSH2 0x960 JUMP JUMPDEST PUSH2 0x457 JUMP JUMPDEST STOP JUMPDEST PUSH2 0x1F2 PUSH2 0x479 JUMP JUMPDEST PUSH1 0x40 MLOAD PUSH2 0x1FF SWAP2 SWAP1 PUSH2 0x8ED JUMP JUMPDEST PUSH1 0x40 MLOAD DUP1 SWAP2 SUB SWAP1 RETURN JUMPDEST PUSH2 0x210 PUSH2 0x49D JUMP JUMPDEST STOP JUMPDEST PUSH0 PUSH32 0x7965DB0B00000000000000000000000000000000000000000000000000000000 PUSH28 0xFFFFFFFFFFFFFFFFFFFFFFFFFFFFFFFFFFFFFFFFFFFFFFFFFFFFFFFF NOT AND DUP3 PUSH28 0xFFFFFFFFFFFFFFFFFFFFFFFFFFFFFFFFFFFFFFFFFFFFFFFFFFFFFFFF NOT AND EQ DUP1 PUSH2 0x284 JUMPI POP PUSH2 0x283 DUP3 PUSH2 0x4CA JUMP JUMPDEST JUMPDEST SWAP1 POP SWAP2 SWAP1 POP JUMP JUMPDEST PUSH32 0xF206625BAD3D9112D5609B8D356E6FBD514CD1F69980D4CE2B3E6E68E1789ACE PUSH2 0x2B5 DUP2 PUSH2 0x533 JUMP JUMPDEST POP JUMP JUMPDEST PUSH0 PUSH0 PUSH0 DUP4 DUP2 MSTORE PUSH1 0x20 ADD SWAP1 DUP2 MSTORE PUSH1 0x20 ADD PUSH0 KECCAK256 PUSH1 0x1 ADD SLOAD SWAP1 POP SWAP2 SWAP1 POP JUMP JUMPDEST PUSH2 0x2DD DUP3 PUSH2 0x2B8 JUMP JUMPDEST PUSH2 0x2E6 DUP2 PUSH2 0x533 JUMP JUMPDEST PUSH2 0x2F0 DUP4 DUP4 PUSH2 0x547 JUMP JUMPDEST POP POP POP POP JUMP JUMPDEST PUSH2 0x2FE PUSH2 0x630 JUMP JUMPDEST PUSH20 0xFFFFFFFFFFFFFFFFFFFFFFFFFFFFFFFFFFFFFFFF AND DUP2 PUSH20 0xFFFFFFFFFFFFFFFFFFFFFFFFFFFFFFFFFFFFFFFF AND EQ PUSH2 0x362 JUMPI PUSH1 0x40 MLOAD PUSH32 0x6697B23200000000000000000000000000000000000000000000000000000000 DUP2 MSTORE PUSH1 0x4 ADD PUSH1 0x40 MLOAD DUP1 SWAP2 SUB SWAP1 REVERT JUMPDEST PUSH2 0x36C DUP3 DUP3 PUSH2 0x637 JUMP JUMPDEST POP POP POP JUMP JUMPDEST PUSH0 PUSH0 PUSH0 DUP5 DUP2 MSTORE PUSH1 0x20 ADD SWAP1 DUP2 MSTORE PUSH1 0x20 ADD PUSH0 KECCAK256 PUSH0 ADD PUSH0 DUP4 PUSH20 0xFFFFFFFFFFFFFFFFFFFFFFFFFFFFFFFFFFFFFFFF AND PUSH20 0xFFFFFFFFFFFFFFFFFFFFFFFFFFFFFFFFFFFFFFFF AND DUP2 MSTORE PUSH1 0x20 ADD SWAP1 DUP2 MSTORE PUSH1 0x20 ADD PUSH0 KECCAK256 PUSH0 SWAP1 SLOAD SWAP1 PUSH2 0x100 EXP SWAP1 DIV PUSH1 0xFF AND SWAP1 POP SWAP3 SWAP2 POP POP JUMP JUMPDEST PUSH0 PUSH0 SHL PUSH2 0x3E0 DUP2 PUSH2 0x533 JUMP JUMPDEST PUSH2 0x42A PUSH32 0xB8CA5430E403D88AA14F3587E1AA5A2121B1ACEBF2201DDE30800337EA6AF075 PUSH32 0xF206625BAD3D9112D5609B8D356E6FBD514CD1F69980D4CE2B3E6E68E1789ACE PUSH2 0x720 JUMP JUMPDEST POP JUMP JUMPDEST PUSH0 PUSH0 SHL DUP2 JUMP JUMPDEST PUSH32 0xB8CA5430E403D88AA14F3587E1AA5A2121B1ACEBF2201DDE30800337EA6AF075 DUP2 JUMP JUMPDEST PUSH2 0x460 DUP3 PUSH2 0x2B8 JUMP JUMPDEST PUSH2 0x469 DUP2 PUSH2 0x533 JUMP JUMPDEST PUSH2 0x473 DUP4 DUP4 PUSH2 0x637 JUMP JUMPDEST POP POP POP POP JUMP JUMPDEST PUSH32 0xF206625BAD3D9112D5609B8D356E6FBD514CD1F69980D4CE2B3E6E68E1789ACE DUP2 JUMP JUMPDEST PUSH32 0xB8CA5430E403D88AA14F3587E1AA5A2121B1ACEBF2201DDE30800337EA6AF075 PUSH2 0x4C7 DUP2 PUSH2 0x533 JUMP JUMPDEST POP JUMP JUMPDEST PUSH0 PUSH32 0x1FFC9A700000000000000000000000000000000000000000000000000000000 PUSH28 0xFFFFFFFFFFFFFFFFFFFFFFFFFFFFFFFFFFFFFFFFFFFFFFFFFFFFFFFF NOT AND DUP3 PUSH28 0xFFFFFFFFFFFFFFFFFFFFFFFFFFFFFFFFFFFFFFFFFFFFFFFFFFFFFFFF NOT AND EQ SWAP1 POP SWAP2 SWAP1 POP JUMP JUMPDEST PUSH2 0x544 DUP2 PUSH2 0x53F PUSH2 0x630 JUMP JUMPDEST PUSH2 0x778 JUMP JUMPDEST POP JUMP JUMPDEST PUSH0 PUSH2 0x552 DUP4 DUP4 PUSH2 0x371 JUMP JUMPDEST PUSH2 0x626 JUMPI PUSH1 0x1 PUSH0 PUSH0 DUP6 DUP2 MSTORE PUSH1 0x20 ADD SWAP1 DUP2 MSTORE PUSH1 0x20 ADD PUSH0 KECCAK256 PUSH0 ADD PUSH0 DUP5 PUSH20 0xFFFFFFFFFFFFFFFFFFFFFFFFFFFFFFFFFFFFFFFF AND PUSH20 0xFFFFFFFFFFFFFFFFFFFFFFFFFFFFFFFFFFFFFFFF AND DUP2 MSTORE PUSH1 0x20 ADD SWAP1 DUP2 MSTORE PUSH1 0x20 ADD PUSH0 KECCAK256 PUSH0 PUSH2 0x100 EXP DUP2 SLOAD DUP2 PUSH1 0xFF MUL NOT AND SWAP1 DUP4 ISZERO ISZERO MUL OR SWAP1 SSTORE POP PUSH2 0x5C3 PUSH2 0x630 JUMP JUMPDEST PUSH20 0xFFFFFFFFFFFFFFFFFFFFFFFFFFFFFFFFFFFFFFFF AND DUP3 PUSH20 0xFFFFFFFFFFFFFFFFFFFFFFFFFFFFFFFFFFFFFFFF AND DUP5 PUSH32 0x2F8788117E7EFF1D82E926EC794901D17C78024A50270940304540A733656F0D PUSH1 0x40 MLOAD PUSH1 0x40 MLOAD DUP1 SWAP2 SUB SWAP1 LOG4 PUSH1 0x1 SWAP1 POP PUSH2 0x62A JUMP JUMPDEST PUSH0 SWAP1 POP JUMPDEST SWAP3 SWAP2 POP POP JUMP JUMPDEST PUSH0 CALLER SWAP1 POP SWAP1 JUMP JUMPDEST PUSH0 PUSH2 0x642 DUP4 DUP4 PUSH2 0x371 JUMP JUMPDEST ISZERO PUSH2 0x716 JUMPI PUSH0 PUSH0 PUSH0 DUP6 DUP2 MSTORE PUSH1 0x20 ADD SWAP1 DUP2 MSTORE PUSH1 0x20 ADD PUSH0 KECCAK256 PUSH0 ADD PUSH0 DUP5 PUSH20 0xFFFFFFFFFFFFFFFFFFFFFFFFFFFFFFFFFFFFFFFF AND PUSH20 0xFFFFFFFFFFFFFFFFFFFFFFFFFFFFFFFFFFFFFFFF AND DUP2 MSTORE PUSH1 0x20 ADD SWAP1 DUP2 MSTORE PUSH1 0x20 ADD PUSH0 KECCAK256 PUSH0 PUSH2 0x100 EXP DUP2 SLOAD DUP2 PUSH1 0xFF MUL NOT AND SWAP1 DUP4 ISZERO ISZERO MUL OR SWAP1 SSTORE POP PUSH2 0x6B3 PUSH2 0x630 JUMP JUMPDEST PUSH20 0xFFFFFFFFFFFFFFFFFFFFFFFFFFFFFFFFFFFFFFFF AND DUP3 PUSH20 0xFFFFFFFFFFFFFFFFFFFFFFFFFFFFFFFFFFFFFFFF AND DUP5 PUSH32 0xF6391F5C32D9C69D2A47EA670B442974B53935D1EDC7FD64EB21E047A839171B PUSH1 0x40 MLOAD PUSH1 0x40 MLOAD DUP1 SWAP2 SUB SWAP1 LOG4 PUSH1 0x1 SWAP1 POP PUSH2 0x71A JUMP JUMPDEST PUSH0 SWAP1 POP JUMPDEST SWAP3 SWAP2 POP POP JUMP JUMPDEST PUSH0 PUSH2 0x72A DUP4 PUSH2 0x2B8 JUMP JUMPDEST SWAP1 POP DUP2 PUSH0 PUSH0 DUP6 DUP2 MSTORE PUSH1 0x20 ADD SWAP1 DUP2 MSTORE PUSH1 0x20 ADD PUSH0 KECCAK256 PUSH1 0x1 ADD DUP2 SWAP1 SSTORE POP DUP2 DUP2 DUP5 PUSH32 0xBD79B86FFE0AB8E8776151514217CD7CACD52C909F66475C3AF44E129F0B00FF PUSH1 0x40 MLOAD PUSH1 0x40 MLOAD DUP1 SWAP2 SUB SWAP1 LOG4 POP POP POP JUMP JUMPDEST PUSH2 0x782 DUP3 DUP3 PUSH2 0x371 JUMP JUMPDEST PUSH2 0x7C5 JUMPI DUP1 DUP3 PUSH1 0x40 MLOAD PUSH32 0xE2517D3F00000000000000000000000000000000000000000000000000000000 DUP2 MSTORE PUSH1 0x4 ADD PUSH2 0x7BC SWAP3 SWAP2 SWAP1 PUSH2 0x9AD JUMP JUMPDEST PUSH1 0x40 MLOAD DUP1 SWAP2 SUB SWAP1 REVERT JUMPDEST POP POP JUMP JUMPDEST PUSH0 PUSH0 REVERT JUMPDEST PUSH0 PUSH32 0xFFFFFFFF00000000000000000000000000000000000000000000000000000000 DUP3 AND SWAP1 POP SWAP2 SWAP1 POP JUMP JUMPDEST PUSH2 0x801 DUP2 PUSH2 0x7CD JUMP JUMPDEST DUP2 EQ PUSH2 0x80B JUMPI PUSH0 PUSH0 REVERT JUMPDEST POP JUMP JUMPDEST PUSH0 DUP2 CALLDATALOAD SWAP1 POP PUSH2 0x81C DUP2 PUSH2 0x7F8 JUMP JUMPDEST SWAP3 SWAP2 POP POP JUMP JUMPDEST PUSH0 PUSH1 0x20 DUP3 DUP5 SUB SLT ISZERO PUSH2 0x837 JUMPI PUSH2 0x836 PUSH2 0x7C9 JUMP JUMPDEST JUMPDEST PUSH0 PUSH2 0x844 DUP5 DUP3 DUP6 ADD PUSH2 0x80E JUMP JUMPDEST SWAP2 POP POP SWAP3 SWAP2 POP POP JUMP JUMPDEST PUSH0 DUP2 ISZERO ISZERO SWAP1 POP SWAP2 SWAP1 POP JUMP JUMPDEST PUSH2 0x861 DUP2 PUSH2 0x84D JUMP JUMPDEST DUP3 MSTORE POP POP JUMP JUMPDEST PUSH0 PUSH1 0x20 DUP3 ADD SWAP1 POP PUSH2 0x87A PUSH0 DUP4 ADD DUP5 PUSH2 0x858 JUMP JUMPDEST SWAP3 SWAP2 POP POP JUMP JUMPDEST PUSH0 DUP2 SWAP1 POP SWAP2 SWAP1 POP JUMP JUMPDEST PUSH2 0x892 DUP2 PUSH2 0x880 JUMP JUMPDEST DUP2 EQ PUSH2 0x89C JUMPI PUSH0 PUSH0 REVERT JUMPDEST POP JUMP JUMPDEST PUSH0 DUP2 CALLDATALOAD SWAP1 POP PUSH2 0x8AD DUP2 PUSH2 0x889 JUMP JUMPDEST SWAP3 SWAP2 POP POP JUMP JUMPDEST PUSH0 PUSH1 0x20 DUP3 DUP5 SUB SLT ISZERO PUSH2 0x8C8 JUMPI PUSH2 0x8C7 PUSH2 0x7C9 JUMP JUMPDEST JUMPDEST PUSH0 PUSH2 0x8D5 DUP5 DUP3 DUP6 ADD PUSH2 0x89F JUMP JUMPDEST SWAP2 POP POP SWAP3 SWAP2 POP POP JUMP JUMPDEST PUSH2 0x8E7 DUP2 PUSH2 0x880 JUMP JUMPDEST DUP3 MSTORE POP POP JUMP JUMPDEST PUSH0 PUSH1 0x20 DUP3 ADD SWAP1 POP PUSH2 0x900 PUSH0 DUP4 ADD DUP5 PUSH2 0x8DE JUMP JUMPDEST SWAP3 SWAP2 POP POP JUMP JUMPDEST PUSH0 PUSH20 0xFFFFFFFFFFFFFFFFFFFFFFFFFFFFFFFFFFFFFFFF DUP3 AND SWAP1 POP SWAP2 SWAP1 POP JUMP JUMPDEST PUSH0 PUSH2 0x92F DUP3 PUSH2 0x906 JUMP JUMPDEST SWAP1 POP SWAP2 SWAP1 POP JUMP JUMPDEST PUSH2 0x93F DUP2 PUSH2 0x925 JUMP JUMPDEST DUP2 EQ PUSH2 0x949 JUMPI PUSH0 PUSH0 REVERT JUMPDEST POP JUMP JUMPDEST PUSH0 DUP2 CALLDATALOAD SWAP1 POP PUSH2 0x95A DUP2 PUSH2 0x936 JUMP JUMPDEST SWAP3 SWAP2 POP POP JUMP JUMPDEST PUSH0 PUSH0 PUSH1 0x40 DUP4 DUP6 SUB SLT ISZERO PUSH2 0x976 JUMPI PUSH2 0x975 PUSH2 0x7C9 JUMP JUMPDEST JUMPDEST PUSH0 PUSH2 0x983 DUP6 DUP3 DUP7 ADD PUSH2 0x89F JUMP JUMPDEST SWAP3 POP POP PUSH1 0x20 PUSH2 0x994 DUP6 DUP3 DUP7 ADD PUSH2 0x94C JUMP JUMPDEST SWAP2 POP POP SWAP3 POP SWAP3 SWAP1 POP JUMP JUMPDEST PUSH2 0x9A7 DUP2 PUSH2 0x925 JUMP JUMPDEST DUP3 MSTORE POP POP JUMP JUMPDEST PUSH0 PUSH1 0x40 DUP3 ADD SWAP1 POP PUSH2 0x9C0 PUSH0 DUP4 ADD DUP6 PUSH2 0x99E JUMP JUMPDEST PUSH2 0x9CD PUSH1 0x20 DUP4 ADD DUP5 PUSH2 0x8DE JUMP JUMPDEST SWAP4 SWAP3 POP POP POP JUMP INVALID LOG2 PUSH5 0x6970667358 0x22 SLT KECCAK256 NOT BASEFEE 0xBC ADDMOD CALLF 0xC96C 0xD4 EXP DUP13 0xC8 SWAP12 DUP9 0xD3 0xB8 SWAP15 SLOAD PUSH16 0xE7C385445AD88A9E45666625238A6473 PUSH16 0x6C634300082200330000000000000000 "
				},
				"gasEstimates": {
					"creation": {
						"codeDepositCost": "514000",
						"executionCost": "infinite",
						"totalCost": "infinite"
					},
					"external": {
						"DEFAULT_ADMIN_ROLE()": "351",
						"ROLE_MANAGER()": "413",
						"ROLE_USER()": "369",
						"changeDefaultAdmin()": "28990",
						"doNormal()": "3032",
						"doSpecial()": "2945",
						"getRoleAdmin(bytes32)": "infinite",
						"grantRole(bytes32,address)": "infinite",
						"hasRole(bytes32,address)": "3231",
						"renounceRole(bytes32,address)": "infinite",
						"revokeRole(bytes32,address)": "infinite",
						"supportsInterface(bytes4)": "718"
					}
				},
				"methodIdentifiers": {
					"DEFAULT_ADMIN_ROLE()": "a217fddf",
					"ROLE_MANAGER()": "f5b944eb",
					"ROLE_USER()": "b941719e",
					"changeDefaultAdmin()": "9b455948",
					"doNormal()": "f821994b",
					"doSpecial()": "03c6e204",
					"getRoleAdmin(bytes32)": "248a9ca3",
					"grantRole(bytes32,address)": "2f2ff15d",
					"hasRole(bytes32,address)": "91d14854",
					"renounceRole(bytes32,address)": "36568abe",
					"revokeRole(bytes32,address)": "d547741f",
					"supportsInterface(bytes4)": "01ffc9a7"
				}
			},
			"storageLayout": {
				"storage": [
					{
						"astId": 26,
						"contract": "openzeppelin/AccessControl.sol:Access",
						"label": "_roles",
						"offset": 0,
						"slot": "0",
						"type": "t_mapping(t_bytes32,t_struct(RoleData)21_storage)"
					}
				],
				"types": {
					"t_address": {
						"encoding": "inplace",
						"label": "address",
						"numberOfBytes": "20"
					},
					"t_bool": {
						"encoding": "inplace",
						"label": "bool",
						"numberOfBytes": "1"
					},
					"t_bytes32": {
						"encoding": "inplace",
						"label": "bytes32",
						"numberOfBytes": "32"
					},
					"t_mapping(t_address,t_bool)": {
						"encoding": "mapping",
						"key": "t_address",
						"label": "mapping(address => bool)",
						"numberOfBytes": "32",
						"value": "t_bool"
					},
					"t_mapping(t_bytes32,t_struct(RoleData)21_storage)": {
						"encoding": "mapping",
						"key": "t_bytes32",
						"label": "mapping(bytes32 => struct AccessControl.RoleData)",
						"numberOfBytes": "32",
						"value": "t_struct(RoleData)21_storage"
					},
					"t_struct(RoleData)21_storage": {
						"encoding": "inplace",
						"label": "struct AccessControl.RoleData",
						"members": [
							{
								"astId": 18,
								"contract": "openzeppelin/AccessControl.sol:Access",
								"label": "hasRole",
								"offset": 0,
								"slot": "0",
								"type": "t_mapping(t_address,t_bool)"
							},
							{
								"astId": 20,
								"contract": "openzeppelin/AccessControl.sol:Access",
								"label": "adminRole",
								"offset": 0,
								"slot": "1",
								"type": "t_bytes32"
							}
						],
						"numberOfBytes": "64"
					}
				}
			},
			"userdoc": {
				"kind": "user",
				"methods": {},
				"version": 1
			}
		}
	}
}