{
	"data": {
		"bytecode": {
			"linkReferences": {},
			"object": "60806040526040518060600160405280600160ff168152602001600260ff168152602001600360ff168152505f908161003891906102bb565b506040518060600160405280600460ff168152602001600560ff168152602001600660ff168152506001908161006e91906103d5565b506040518060600160405280600160ff168152602001600260ff168152602001600360ff16815250600490816100a491906102bb565b503480156100b0575f5ffd5b50610459565b7f4e487b71000000000000000000000000000000000000000000000000000000005f52604160045260245ffd5b5f81549050919050565b5f819050919050565b5f8190506001806001038301049050919050565b5f819050815f5260205f209050919050565b5f82821b905092915050565b5f600883026101577fffffffffffffffffffffffffffffffffffffffffffffffffffffffffffffffff8261011c565b610161868361011c565b95508019841693508086168417925050509392505050565b5f819050919050565b5f61019c610197610192846100ed565b610179565b6100ed565b9050919050565b5f819050919050565b6101b583610182565b6101c96101c1826101a3565b848454610128565b825550505050565b5f5f905090565b6101e06101d1565b6101eb8184846101ac565b505050565b5f5b82811015610211576102065f8284016101d8565b6001810190506101f2565b505050565b8183101561024d57610227826100f6565b610230846100f6565b6102398361010a565b818101610248838503826101f0565b505050505b505050565b6801000000000000000082111561026c5761026b6100b6565b5b610275816100e3565b828255610283838284610216565b505050565b5f60039050919050565b5f60ff82169050919050565b5f6102a98251610292565b80915050919050565b5f819050919050565b6102c482610288565b67ffffffffffffffff8111156102dd576102dc6100b6565b5b6102e78183610252565b6102f0836102b2565b6102f98361010a565b600183045f5b81811015610336575f6103118561029e565b61031a816101a3565b80925060208701965050508082850155506001810190506102ff565b50505050505050565b5f60039050919050565b5f8190506001806001038301049050919050565b5f819050919050565b8183101561039d5761037782610349565b61038084610349565b6103898361035d565b818101610398838503826101f0565b505050505b505050565b680100000000000000008211156103bc576103bb6100b6565b5b6103c58161033f565b6103d0838284610366565b505050565b6103de82610288565b67ffffffffffffffff8111156103f7576103f66100b6565b5b61040181836103a2565b61040a836102b2565b6104138361035d565b600183045f5b81811015610450575f61042b8561029e565b610434816101a3565b8092506020870196505050808285015550600181019050610419565b50505050505050565b610ada806104665f395ff3fe608060405234801561000f575f5ffd5b5060043610610060575f3560e01c80630b441f651461006457806354353f2f14610094578063ab3ee9111461009e578063be1c766b146100ce578063cf73bde5146100ec578063fd1ee54c1461011c575b5f5ffd5b61007e60048036038101906100799190610437565b61014c565b60405161008b9190610471565b60405180910390f35b61009c610165565b005b6100b860048036038101906100b39190610437565b610263565b6040516100c59190610471565b60405180910390f35b6100d6610283565b6040516100e39190610471565b60405180910390f35b610106600480360381019061010191906105da565b61028e565b60405161011391906106eb565b60405180910390f35b61013660048036038101906101319190610437565b6103d4565b6040516101439190610471565b60405180910390f35b6001816003811061015b575f80fd5b015f915090505481565b5f6004908060018154018082558091505060019003905f5260205f20015f90919091909150556103785f6002815481106101a2576101a161070b565b5b905f5260205f2001819055505f6001815481106101c2576101c161070b565b5b905f5260205f20015f90555f8054806101de576101dd610738565b5b600190038181905f5260205f20015f905590555f600567ffffffffffffffff81111561020d5761020c61049e565b5b60405190808252806020026020018201604052801561023b5781602001602082028036833780820191505090505b5090506016816001815181106102545761025361070b565b5b60200260200101818152505050565b60048181548110610272575f80fd5b905f5260205f20015f915090505481565b5f5f80549050905090565b6060825182106102d3576040517f08c379a00000000000000000000000000000000000000000000000000000000081526004016102ca906107bf565b60405180910390fd5b82600490816102e291906109ba565b505f8290505b60016004805490506102fa9190610a3e565b8110156103575760046001826103109190610a71565b815481106103215761032061070b565b5b905f5260205f2001546004828154811061033e5761033d61070b565b5b905f5260205f20018190555080806001019150506102e8565b50600480548061036a57610369610738565b5b600190038181905f5260205f20015f9055905560048054806020026020016040519081016040528092919081815260200182805480156103c757602002820191905f5260205f20905b8154815260200190600101908083116103b3575b5050505050905092915050565b5f81815481106103e2575f80fd5b905f5260205f20015f915090505481565b5f604051905090565b5f5ffd5b5f5ffd5b5f819050919050565b61041681610404565b8114610420575f5ffd5b50565b5f813590506104318161040d565b92915050565b5f6020828403121561044c5761044b6103fc565b5b5f61045984828501610423565b91505092915050565b61046b81610404565b82525050565b5f6020820190506104845f830184610462565b92915050565b5f5ffd5b5f601f19601f8301169050919050565b7f4e487b71000000000000000000000000000000000000000000000000000000005f52604160045260245ffd5b6104d48261048e565b810181811067ffffffffffffffff821117156104f3576104f261049e565b5b80604052505050565b5f6105056103f3565b905061051182826104cb565b919050565b5f67ffffffffffffffff8211156105305761052f61049e565b5b602082029050602081019050919050565b5f5ffd5b5f61055761055284610516565b6104fc565b9050808382526020820190506020840283018581111561057a57610579610541565b5b835b818110156105a3578061058f8882610423565b84526020840193505060208101905061057c565b5050509392505050565b5f82601f8301126105c1576105c061048a565b5b81356105d1848260208601610545565b91505092915050565b5f5f604083850312156105f0576105ef6103fc565b5b5f83013567ffffffffffffffff81111561060d5761060c610400565b5b610619858286016105ad565b925050602061062a85828601610423565b9150509250929050565b5f81519050919050565b5f82825260208201905092915050565b5f819050602082019050919050565b61066681610404565b82525050565b5f610677838361065d565b60208301905092915050565b5f602082019050919050565b5f61069982610634565b6106a3818561063e565b93506106ae8361064e565b805f5b838110156106de5781516106c5888261066c565b97506106d083610683565b9250506001810190506106b1565b5085935050505092915050565b5f6020820190508181035f830152610703818461068f565b905092915050565b7f4e487b71000000000000000000000000000000000000000000000000000000005f52603260045260245ffd5b7f4e487b71000000000000000000000000000000000000000000000000000000005f52603160045260245ffd5b5f82825260208201905092915050565b7f696e646578206f7574206f6620626f756e6400000000000000000000000000005f82015250565b5f6107a9601283610765565b91506107b482610775565b602082019050919050565b5f6020820190508181035f8301526107d68161079d565b9050919050565b5f81549050919050565b7f4e487b71000000000000000000000000000000000000000000000000000000005f52601160045260245ffd5b5f8190506001806001038301049050919050565b5f819050815f5260205f209050919050565b5f82821b905092915050565b5f600883026108757fffffffffffffffffffffffffffffffffffffffffffffffffffffffffffffffff8261083a565b61087f868361083a565b95508019841693508086168417925050509392505050565b5f819050919050565b5f6108ba6108b56108b084610404565b610897565b610404565b9050919050565b5f819050919050565b6108d3836108a0565b6108e76108df826108c1565b848454610846565b825550505050565b5f5f905090565b6108fe6108ef565b6109098184846108ca565b505050565b5f5b8281101561092f576109245f8284016108f6565b600181019050610910565b505050565b8183101561096b5761094582610814565b61094e84610814565b61095783610828565b8181016109668385038261090e565b505050505b505050565b6801000000000000000082111561098a5761098961049e565b5b610993816107dd565b8282556109a1838284610934565b505050565b5f6109b18251610404565b80915050919050565b6109c382610634565b67ffffffffffffffff8111156109dc576109db61049e565b5b6109e68183610970565b6109ef8361064e565b6109f883610828565b600183045f5b81811015610a35575f610a10856109a6565b610a19816108c1565b80925060208701965050508082850155506001810190506109fe565b50505050505050565b5f610a4882610404565b9150610a5383610404565b9250828203905081811115610a6b57610a6a6107e7565b5b92915050565b5f610a7b82610404565b9150610a8683610404565b9250828201905080821115610a9e57610a9d6107e7565b5b9291505056fea264697066735822122069aede07d16f8cb3f8bc8efbc1cb9385d2131c723e89763938ef3e3f08b0e90764736f6c63430008220033",
			"opcodes": "PUSH1 0x80 PUSH1 0x40 MSTORE PUSH1 0x40 MLOAD DUP1 PUSH1 0x60 ADD PUSH1 0x40 MSTORE DUP1 PUSH1 0x1 PUSH1 0xFF AND DUP2 MSTORE PUSH1 0x20 ADD PUSH1 0x2 PUSH1 0xFF AND DUP2 MSTORE PUSH1 0x20 ADD PUSH1 0x3 PUSH1 0xFF AND DUP2 MSTORE POP PUSH0 SWAP1 DUP2 PUSH2 0x38 SWAP2 SWAP1 PUSH2 0x2BB JUMP JUMPDEST POP PUSH1 0x40 MLOAD DUP1 PUSH1 0x60 ADD PUSH1 0x40 MSTORE DUP1 PUSH1 0x4 PUSH1 0xFF AND DUP2 MSTORE PUSH1 0x20 ADD PUSH1 0x5 PUSH1 0xFF AND DUP2 MSTORE PUSH1 0x20 ADD PUSH1 0x6 PUSH1 0xFF AND DUP2 MSTORE POP PUSH1 0x1 SWAP1 DUP2 PUSH2 0x6E SWAP2 SWAP1 PUSH2 0x3D5 JUMP JUMPDEST POP PUSH1 0x40 MLOAD DUP1 PUSH1 0x60 ADD PUSH1 0x40 MSTORE DUP1 PUSH1 0x1 PUSH1 0xFF AND DUP2 MSTORE PUSH1 0x20 ADD PUSH1 0x2 PUSH1 0xFF AND DUP2 MSTORE PUSH1 0x20 ADD PUSH1 0x3 PUSH1 0xFF AND DUP2 MSTORE POP PUSH1 0x4 SWAP1 DUP2 PUSH2 0xA4 SWAP2 SWAP1 PUSH2 0x2BB JUMP JUMPDEST POP CALLVALUE DUP1 ISZERO PUSH2 0xB0 JUMPI PUSH0 PUSH0 REVERT JUMPDEST POP PUSH2 0x459 JUMP JUMPDEST PUSH32 0x4E487B7100000000000000000000000000000000000000000000000000000000 PUSH0 MSTORE PUSH1 0x41 PUSH1 0x4 MSTORE PUSH1 0x24 PUSH0 REVERT JUMPDEST PUSH0 DUP2 SLOAD SWAP1 POP SWAP2 SWAP1 POP JUMP JUMPDEST PUSH0 DUP2 SWAP1 POP SWAP2 SWAP1 POP JUMP JUMPDEST PUSH0 DUP2 SWAP1 POP PUSH1 0x1 DUP1 PUSH1 0x1 SUB DUP4 ADD DIV SWAP1 POP SWAP2 SWAP1 POP JUMP JUMPDEST PUSH0 DUP2 SWAP1 POP DUP2 PUSH0 MSTORE PUSH1 0x20 PUSH0 KECCAK256 SWAP1 POP SWAP2 SWAP1 POP JUMP JUMPDEST PUSH0 DUP3 DUP3 SHL SWAP1 POP SWAP3 SWAP2 POP POP JUMP JUMPDEST PUSH0 PUSH1 0x8 DUP4 MUL PUSH2 0x157 PUSH32 0xFFFFFFFFFFFFFFFFFFFFFFFFFFFFFFFFFFFFFFFFFFFFFFFFFFFFFFFFFFFFFFFF DUP3 PUSH2 0x11C JUMP JUMPDEST PUSH2 0x161 DUP7 DUP4 PUSH2 0x11C JUMP JUMPDEST SWAP6 POP DUP1 NOT DUP5 AND SWAP4 POP DUP1 DUP7 AND DUP5 OR SWAP3 POP POP POP SWAP4 SWAP3 POP POP POP JUMP JUMPDEST PUSH0 DUP2 SWAP1 POP SWAP2 SWAP1 POP JUMP JUMPDEST PUSH0 PUSH2 0x19C PUSH2 0x197 PUSH2 0x192 DUP5 PUSH2 0xED JUMP JUMPDEST PUSH2 0x179 JUMP JUMPDEST PUSH2 0xED JUMP JUMPDEST SWAP1 POP SWAP2 SWAP1 POP JUMP JUMPDEST PUSH0 DUP2 SWAP1 POP SWAP2 SWAP1 POP JUMP JUMPDEST PUSH2 0x1B5 DUP4 PUSH2 0x182 JUMP JUMPDEST PUSH2 0x1C9 PUSH2 0x1C1 DUP3 PUSH2 0x1A3 JUMP JUMPDEST DUP5 DUP5 SLOAD PUSH2 0x128 JUMP JUMPDEST DUP3 SSTORE POP POP POP POP JUMP JUMPDEST PUSH0 PUSH0 SWAP1 POP SWAP1 JUMP JUMPDEST PUSH2 0x1E0 PUSH2 0x1D1 JUMP JUMPDEST PUSH2 0x1EB DUP2 DUP5 DUP5 PUSH2 0x1AC JUMP JUMPDEST POP POP POP JUMP JUMPDEST PUSH0 JUMPDEST DUP3 DUP2 LT ISZERO PUSH2 0x211 JUMPI PUSH2 0x206 PUSH0 DUP3 DUP5 ADD PUSH2 0x1D8 JUMP JUMPDEST PUSH1 0x1 DUP2 ADD SWAP1 POP PUSH2 0x1F2 JUMP JUMPDEST POP POP POP JUMP JUMPDEST DUP2 DUP4 LT ISZERO PUSH2 0x24D JUMPI PUSH2 0x227 DUP3 PUSH2 0xF6 JUMP JUMPDEST PUSH2 0x230 DUP5 PUSH2 0xF6 JUMP JUMPDEST PUSH2 0x239 DUP4 PUSH2 0x10A JUMP JUMPDEST DUP2 DUP2 ADD PUSH2 0x248 DUP4 DUP6 SUB DUP3 PUSH2 0x1F0 JUMP JUMPDEST POP POP POP POP JUMPDEST POP POP POP JUMP JUMPDEST PUSH9 0x10000000000000000 DUP3 GT ISZERO PUSH2 0x26C JUMPI PUSH2 0x26B PUSH2 0xB6 JUMP JUMPDEST JUMPDEST PUSH2 0x275 DUP2 PUSH2 0xE3 JUMP JUMPDEST DUP3 DUP3 SSTORE PUSH2 0x283 DUP4 DUP3 DUP5 PUSH2 0x216 JUMP JUMPDEST POP POP POP JUMP JUMPDEST PUSH0 PUSH1 0x3 SWAP1 POP SWAP2 SWAP1 POP JUMP JUMPDEST PUSH0 PUSH1 0xFF DUP3 AND SWAP1 POP SWAP2 SWAP1 POP JUMP JUMPDEST PUSH0 PUSH2 0x2A9 DUP3 MLOAD PUSH2 0x292 JUMP JUMPDEST DUP1 SWAP2 POP POP SWAP2 SWAP1 POP JUMP JUMPDEST PUSH0 DUP2 SWAP1 POP SWAP2 SWAP1 POP JUMP JUMPDEST PUSH2 0x2C4 DUP3 PUSH2 0x288 JUMP JUMPDEST PUSH8 0xFFFFFFFFFFFFFFFF DUP2 GT ISZERO PUSH2 0x2DD JUMPI PUSH2 0x2DC PUSH2 0xB6 JUMP JUMPDEST JUMPDEST PUSH2 0x2E7 DUP2 DUP4 PUSH2 0x252 JUMP JUMPDEST PUSH2 0x2F0 DUP4 PUSH2 0x2B2 JUMP JUMPDEST PUSH2 0x2F9 DUP4 PUSH2 0x10A JUMP JUMPDEST PUSH1 0x1 DUP4 DIV PUSH0 JUMPDEST DUP2 DUP2 LT ISZERO PUSH2 0x336 JUMPI PUSH0 PUSH2 0x311 DUP6 PUSH2 0x29E JUMP JUMPDEST PUSH2 0x31A DUP2 PUSH2 0x1A3 JUMP JUMPDEST DUP1 SWAP3 POP PUSH1 0x20 DUP8 ADD SWAP7 POP POP POP DUP1 DUP3 DUP6 ADD SSTORE POP PUSH1 0x1 DUP2 ADD SWAP1 POP PUSH2 0x2FF JUMP JUMPDEST POP POP POP POP POP POP POP JUMP JUMPDEST PUSH0 PUSH1 0x3 SWAP1 POP SWAP2 SWAP1 POP JUMP JUMPDEST PUSH0 DUP2 SWAP1 POP PUSH1 0x1 DUP1 PUSH1 0x1 SUB DUP4 ADD DIV SWAP1 POP SWAP2 SWAP1 POP JUMP JUMPDEST PUSH0 DUP2 SWAP1 POP SWAP2 SWAP1 POP JUMP JUMPDEST DUP2 DUP4 LT ISZERO PUSH2 0x39D JUMPI PUSH2 0x377 DUP3 PUSH2 0x349 JUMP JUMPDEST PUSH2 0x380 DUP5 PUSH2 0x349 JUMP JUMPDEST PUSH2 0x389 DUP4 PUSH2 0x35D JUMP JUMPDEST DUP2 DUP2 ADD PUSH2 0x398 DUP4 DUP6 SUB DUP3 PUSH2 0x1F0 JUMP JUMPDEST POP POP POP POP JUMPDEST POP POP POP JUMP JUMPDEST PUSH9 0x10000000000000000 DUP3 GT ISZERO PUSH2 0x3BC JUMPI PUSH2 0x3BB PUSH2 0xB6 JUMP JUMPDEST JUMPDEST PUSH2 0x3C5 DUP2 PUSH2 0x33F JUMP JUMPDEST PUSH2 0x3D0 DUP4 DUP3 DUP5 PUSH2 0x366 JUMP JUMPDEST POP POP POP JUMP JUMPDEST PUSH2 0x3DE DUP3 PUSH2 0x288 JUMP JUMPDEST PUSH8 0xFFFFFFFFFFFFFFFF DUP2 GT ISZERO PUSH2 0x3F7 JUMPI PUSH2 0x3F6 PUSH2 0xB6 JUMP JUMPDEST JUMPDEST PUSH2 0x401 DUP2 DUP4 PUSH2 0x3A2 JUMP JUMPDEST PUSH2 0x40A DUP4 PUSH2 0x2B2 JUMP JUMPDEST PUSH2 0x413 DUP4 PUSH2 0x35D JUMP JUMPDEST PUSH1 0x1 DUP4 DIV PUSH0 JUMPDEST DUP2 DUP2 LT ISZERO PUSH2 0x450 JUMPI PUSH0 PUSH2 0x42B DUP6 PUSH2 0x29E JUMP JUMPDEST PUSH2 0x434 DUP2 PUSH2 0x1A3 JUMP JUMPDEST DUP1 SWAP3 POP PUSH1 0x20 DUP8 ADD SWAP7 POP POP POP DUP1 DUP3 DUP6 ADD SSTORE POP PUSH1 0x1 DUP2 ADD SWAP1 POP PUSH2 0x419 JUMP JUMPDEST POP POP POP POP POP POP POP JUMP JUMPDEST PUSH2 0xADA DUP1 PUSH2 0x466 PUSH0 CODECOPY PUSH0 RETURN INVALID PUSH1 0x80 PUSH1 0x40 MSTORE CALLVALUE DUP1 ISZERO PUSH2 0xF JUMPI PUSH0 PUSH0 REVERT JUMPDEST POP PUSH1 0x4 CALLDATASIZE LT PUSH2 0x60 JUMPI PUSH0 CALLDATALOAD PUSH1 0xE0 SHR DUP1 PUSH4 0xB441F65 EQ PUSH2 0x64 JUMPI DUP1 PUSH4 0x54353F2F EQ PUSH2 0x94 JUMPI DUP1 PUSH4 0xAB3EE911 EQ PUSH2 0x9E JUMPI DUP1 PUSH4 0xBE1C766B EQ PUSH2 0xCE JUMPI DUP1 PUSH4 0xCF73BDE5 EQ PUSH2 0xEC JUMPI DUP1 PUSH4 0xFD1EE54C EQ PUSH2 0x11C JUMPI JUMPDEST PUSH0 PUSH0 REVERT JUMPDEST PUSH2 0x7E PUSH1 0x4 DUP1 CALLDATASIZE SUB DUP2 ADD SWAP1 PUSH2 0x79 SWAP2 SWAP1 PUSH2 0x437 JUMP JUMPDEST PUSH2 0x14C JUMP JUMPDEST PUSH1 0x40 MLOAD PUSH2 0x8B SWAP2 SWAP1 PUSH2 0x471 JUMP JUMPDEST PUSH1 0x40 MLOAD DUP1 SWAP2 SUB SWAP1 RETURN JUMPDEST PUSH2 0x9C PUSH2 0x165 JUMP JUMPDEST STOP JUMPDEST PUSH2 0xB8 PUSH1 0x4 DUP1 CALLDATASIZE SUB DUP2 ADD SWAP1 PUSH2 0xB3 SWAP2 SWAP1 PUSH2 0x437 JUMP JUMPDEST PUSH2 0x263 JUMP JUMPDEST PUSH1 0x40 MLOAD PUSH2 0xC5 SWAP2 SWAP1 PUSH2 0x471 JUMP JUMPDEST PUSH1 0x40 MLOAD DUP1 SWAP2 SUB SWAP1 RETURN JUMPDEST PUSH2 0xD6 PUSH2 0x283 JUMP JUMPDEST PUSH1 0x40 MLOAD PUSH2 0xE3 SWAP2 SWAP1 PUSH2 0x471 JUMP JUMPDEST PUSH1 0x40 MLOAD DUP1 SWAP2 SUB SWAP1 RETURN JUMPDEST PUSH2 0x106 PUSH1 0x4 DUP1 CALLDATASIZE SUB DUP2 ADD SWAP1 PUSH2 0x101 SWAP2 SWAP1 PUSH2 0x5DA JUMP JUMPDEST PUSH2 0x28E JUMP JUMPDEST PUSH1 0x40 MLOAD PUSH2 0x113 SWAP2 SWAP1 PUSH2 0x6EB JUMP JUMPDEST PUSH1 0x40 MLOAD DUP1 SWAP2 SUB SWAP1 RETURN JUMPDEST PUSH2 0x136 PUSH1 0x4 DUP1 CALLDATASIZE SUB DUP2 ADD SWAP1 PUSH2 0x131 SWAP2 SWAP1 PUSH2 0x437 JUMP JUMPDEST PUSH2 0x3D4 JUMP JUMPDEST PUSH1 0x40 MLOAD PUSH2 0x143 SWAP2 SWAP1 PUSH2 0x471 JUMP JUMPDEST PUSH1 0x40 MLOAD DUP1 SWAP2 SUB SWAP1 RETURN JUMPDEST PUSH1 0x1 DUP2 PUSH1 0x3 DUP2 LT PUSH2 0x15B JUMPI PUSH0 DUP1 REVERT JUMPDEST ADD PUSH0 SWAP2 POP SWAP1 POP SLOAD DUP2 JUMP JUMPDEST PUSH0 PUSH1 0x4 SWAP1 DUP1 PUSH1 0x1 DUP2 SLOAD ADD DUP1 DUP3 SSTORE DUP1 SWAP2 POP POP PUSH1 0x1 SWAP1 SUB SWAP1 PUSH0 MSTORE PUSH1 0x20 PUSH0 KECCAK256 ADD PUSH0 SWAP1 SWAP2 SWAP1 SWAP2 SWAP1 SWAP2 POP SSTORE PUSH2 0x378 PUSH0 PUSH1 0x2 DUP2 SLOAD DUP2 LT PUSH2 0x1A2 JUMPI PUSH2 0x1A1 PUSH2 0x70B JUMP JUMPDEST JUMPDEST SWAP1 PUSH0 MSTORE PUSH1 0x20 PUSH0 KECCAK256 ADD DUP2 SWAP1 SSTORE POP PUSH0 PUSH1 0x1 DUP2 SLOAD DUP2 LT PUSH2 0x1C2 JUMPI PUSH2 0x1C1 PUSH2 0x70B JUMP JUMPDEST JUMPDEST SWAP1 PUSH0 MSTORE PUSH1 0x20 PUSH0 KECCAK256 ADD PUSH0 SWAP1 SSTORE PUSH0 DUP1 SLOAD DUP1 PUSH2 0x1DE JUMPI PUSH2 0x1DD PUSH2 0x738 JUMP JUMPDEST JUMPDEST PUSH1 0x1 SWAP1 SUB DUP2 DUP2 SWAP1 PUSH0 MSTORE PUSH1 0x20 PUSH0 KECCAK256 ADD PUSH0 SWAP1 SSTORE SWAP1 SSTORE PUSH0 PUSH1 0x5 PUSH8 0xFFFFFFFFFFFFFFFF DUP2 GT ISZERO PUSH2 0x20D JUMPI PUSH2 0x20C PUSH2 0x49E JUMP JUMPDEST JUMPDEST PUSH1 0x40 MLOAD SWAP1 DUP1 DUP3 MSTORE DUP1 PUSH1 0x20 MUL PUSH1 0x20 ADD DUP3 ADD PUSH1 0x40 MSTORE DUP1 ISZERO PUSH2 0x23B JUMPI DUP2 PUSH1 0x20 ADD PUSH1 0x20 DUP3 MUL DUP1 CALLDATASIZE DUP4 CALLDATACOPY DUP1 DUP3 ADD SWAP2 POP POP SWAP1 POP JUMPDEST POP SWAP1 POP PUSH1 0x16 DUP2 PUSH1 0x1 DUP2 MLOAD DUP2 LT PUSH2 0x254 JUMPI PUSH2 0x253 PUSH2 0x70B JUMP JUMPDEST JUMPDEST PUSH1 0x20 MUL PUSH1 0x20 ADD ADD DUP2 DUP2 MSTORE POP POP POP JUMP JUMPDEST PUSH1 0x4 DUP2 DUP2 SLOAD DUP2 LT PUSH2 0x272 JUMPI PUSH0 DUP1 REVERT JUMPDEST SWAP1 PUSH0 MSTORE PUSH1 0x20 PUSH0 KECCAK256 ADD PUSH0 SWAP2 POP SWAP1 POP SLOAD DUP2 JUMP JUMPDEST PUSH0 PUSH0 DUP1 SLOAD SWAP1 POP SWAP1 POP SWAP1 JUMP JUMPDEST PUSH1 0x60 DUP3 MLOAD DUP3 LT PUSH2 0x2D3 JUMPI PUSH1 0x40 MLOAD PUSH32 0x8C379A000000000000000000000000000000000000000000000000000000000 DUP2 MSTORE PUSH1 0x4 ADD PUSH2 0x2CA SWAP1 PUSH2 0x7BF JUMP JUMPDEST PUSH1 0x40 MLOAD DUP1 SWAP2 SUB SWAP1 REVERT JUMPDEST DUP3 PUSH1 0x4 SWAP1 DUP2 PUSH2 0x2E2 SWAP2 SWAP1 PUSH2 0x9BA JUMP JUMPDEST POP PUSH0 DUP3 SWAP1 POP JUMPDEST PUSH1 0x1 PUSH1 0x4 DUP1 SLOAD SWAP1 POP PUSH2 0x2FA SWAP2 SWAP1 PUSH2 0xA3E JUMP JUMPDEST DUP2 LT ISZERO PUSH2 0x357 JUMPI PUSH1 0x4 PUSH1 0x1 DUP3 PUSH2 0x310 SWAP2 SWAP1 PUSH2 0xA71 JUMP JUMPDEST DUP2 SLOAD DUP2 LT PUSH2 0x321 JUMPI PUSH2 0x320 PUSH2 0x70B JUMP JUMPDEST JUMPDEST SWAP1 PUSH0 MSTORE PUSH1 0x20 PUSH0 KECCAK256 ADD SLOAD PUSH1 0x4 DUP3 DUP2 SLOAD DUP2 LT PUSH2 0x33E JUMPI PUSH2 0x33D PUSH2 0x70B JUMP JUMPDEST JUMPDEST SWAP1 PUSH0 MSTORE PUSH1 0x20 PUSH0 KECCAK256 ADD DUP2 SWAP1 SSTORE POP DUP1 DUP1 PUSH1 0x1 ADD SWAP2 POP POP PUSH2 0x2E8 JUMP JUMPDEST POP PUSH1 0x4 DUP1 SLOAD DUP1 PUSH2 0x36A JUMPI PUSH2 0x369 PUSH2 0x738 JUMP JUMPDEST JUMPDEST PUSH1 0x1 SWAP1 SUB DUP2 DUP2 SWAP1 PUSH0 MSTORE PUSH1 0x20 PUSH0 KECCAK256 ADD PUSH0 SWAP1 SSTORE SWAP1 SSTORE PUSH1 0x4 DUP1 SLOAD DUP1 PUSH1 0x20 MUL PUSH1 0x20 ADD PUSH1 0x40 MLOAD SWAP1 DUP2 ADD PUSH1 0x40 MSTORE DUP1 SWAP3 SWAP2 SWAP1 DUP2 DUP2 MSTORE PUSH1 0x20 ADD DUP3 DUP1 SLOAD DUP1 ISZERO PUSH2 0x3C7 JUMPI PUSH1 0x20 MUL DUP3 ADD SWAP2 SWAP1 PUSH0 MSTORE PUSH1 0x20 PUSH0 KECCAK256 SWAP1 JUMPDEST DUP2 SLOAD DUP2 MSTORE PUSH1 0x20 ADD SWAP1 PUSH1 0x1 ADD SWAP1 DUP1 DUP4 GT PUSH2 0x3B3 JUMPI JUMPDEST POP POP POP POP POP SWAP1 POP SWAP3 SWAP2 POP POP JUMP JUMPDEST PUSH0 DUP2 DUP2 SLOAD DUP2 LT PUSH2 0x3E2 JUMPI PUSH0 DUP1 REVERT JUMPDEST SWAP1 PUSH0 MSTORE PUSH1 0x20 PUSH0 KECCAK256 ADD PUSH0 SWAP2 POP SWAP1 POP SLOAD DUP2 JUMP JUMPDEST PUSH0 PUSH1 0x40 MLOAD SWAP1 POP SWAP1 JUMP JUMPDEST PUSH0 PUSH0 REVERT JUMPDEST PUSH0 PUSH0 REVERT JUMPDEST PUSH0 DUP2 SWAP1 POP SWAP2 SWAP1 POP JUMP JUMPDEST PUSH2 0x416 DUP2 PUSH2 0x404 JUMP JUMPDEST DUP2 EQ PUSH2 0x420 JUMPI PUSH0 PUSH0 REVERT JUMPDEST POP JUMP JUMPDEST PUSH0 DUP2 CALLDATALOAD SWAP1 POP PUSH2 0x431 DUP2 PUSH2 0x40D JUMP JUMPDEST SWAP3 SWAP2 POP POP JUMP JUMPDEST PUSH0 PUSH1 0x20 DUP3 DUP5 SUB SLT ISZERO PUSH2 0x44C JUMPI PUSH2 0x44B PUSH2 0x3FC JUMP JUMPDEST JUMPDEST PUSH0 PUSH2 0x459 DUP5 DUP3 DUP6 ADD PUSH2 0x423 JUMP JUMPDEST SWAP2 POP POP SWAP3 SWAP2 POP POP JUMP JUMPDEST PUSH2 0x46B DUP2 PUSH2 0x404 JUMP JUMPDEST DUP3 MSTORE POP POP JUMP JUMPDEST PUSH0 PUSH1 0x20 DUP3 ADD SWAP1 POP PUSH2 0x484 PUSH0 DUP4 ADD DUP5 PUSH2 0x462 JUMP JUMPDEST SWAP3 SWAP2 POP POP JUMP JUMPDEST PUSH0 PUSH0 REVERT JUMPDEST PUSH0 PUSH1 0x1F NOT PUSH1 0x1F DUP4 ADD AND SWAP1 POP SWAP2 SWAP1 POP JUMP JUMPDEST PUSH32 0x4E487B7100000000000000000000000000000000000000000000000000000000 PUSH0 MSTORE PUSH1 0x41 PUSH1 0x4 MSTORE PUSH1 0x24 PUSH0 REVERT JUMPDEST PUSH2 0x4D4 DUP3 PUSH2 0x48E JUMP JUMPDEST DUP2 ADD DUP2 DUP2 LT PUSH8 0xFFFFFFFFFFFFFFFF DUP3 GT OR ISZERO PUSH2 0x4F3 JUMPI PUSH2 0x4F2 PUSH2 0x49E JUMP JUMPDEST JUMPDEST DUP1 PUSH1 0x40 MSTORE POP POP POP JUMP JUMPDEST PUSH0 PUSH2 0x505 PUSH2 0x3F3 JUMP JUMPDEST SWAP1 POP PUSH2 0x511 DUP3 DUP3 PUSH2 0x4CB JUMP JUMPDEST SWAP2 SWAP1 POP JUMP JUMPDEST PUSH0 PUSH8 0xFFFFFFFFFFFFFFFF DUP3 GT ISZERO PUSH2 0x530 JUMPI PUSH2 0x52F PUSH2 0x49E JUMP JUMPDEST JUMPDEST PUSH1 0x20 DUP3 MUL SWAP1 POP PUSH1 0x20 DUP2 ADD SWAP1 POP SWAP2 SWAP1 POP JUMP JUMPDEST PUSH0 PUSH0 REVERT JUMPDEST PUSH0 PUSH2 0x557 PUSH2 0x552 DUP5 PUSH2 0x516 JUMP JUMPDEST PUSH2 0x4FC JUMP JUMPDEST SWAP1 POP DUP1 DUP4 DUP3 MSTORE PUSH1 0x20 DUP3 ADD SWAP1 POP PUSH1 0x20 DUP5 MUL DUP4 ADD DUP6 DUP2 GT ISZERO PUSH2 0x57A JUMPI PUSH2 0x579 PUSH2 0x541 JUMP JUMPDEST JUMPDEST DUP4 JUMPDEST DUP2 DUP2 LT ISZERO PUSH2 0x5A3 JUMPI DUP1 PUSH2 0x58F DUP9 DUP3 PUSH2 0x423 JUMP JUMPDEST DUP5 MSTORE PUSH1 0x20 DUP5 ADD SWAP4 POP POP PUSH1 0x20 DUP2 ADD SWAP1 POP PUSH2 0x57C JUMP JUMPDEST POP POP POP SWAP4 SWAP3 POP POP POP JUMP JUMPDEST PUSH0 DUP3 PUSH1 0x1F DUP4 ADD SLT PUSH2 0x5C1 JUMPI PUSH2 0x5C0 PUSH2 0x48A JUMP JUMPDEST JUMPDEST DUP2 CALLDATALOAD PUSH2 0x5D1 DUP5 DUP3 PUSH1 0x20 DUP7 ADD PUSH2 0x545 JUMP JUMPDEST SWAP2 POP POP SWAP3 SWAP2 POP POP JUMP JUMPDEST PUSH0 PUSH0 PUSH1 0x40 DUP4 DUP6 SUB SLT ISZERO PUSH2 0x5F0 JUMPI PUSH2 0x5EF PUSH2 0x3FC JUMP JUMPDEST JUMPDEST PUSH0 DUP4 ADD CALLDATALOAD PUSH8 0xFFFFFFFFFFFFFFFF DUP2 GT ISZERO PUSH2 0x60D JUMPI PUSH2 0x60C PUSH2 0x400 JUMP JUMPDEST JUMPDEST PUSH2 0x619 DUP6 DUP3 DUP7 ADD PUSH2 0x5AD JUMP JUMPDEST SWAP3 POP POP PUSH1 0x20 PUSH2 0x62A DUP6 DUP3 DUP7 ADD PUSH2 0x423 JUMP JUMPDEST SWAP2 POP POP SWAP3 POP SWAP3 SWAP1 POP JUMP JUMPDEST PUSH0 DUP2 MLOAD SWAP1 POP SWAP2 SWAP1 POP JUMP JUMPDEST PUSH0 DUP3 DUP3 MSTORE PUSH1 0x20 DUP3 ADD SWAP1 POP SWAP3 SWAP2 POP POP JUMP JUMPDEST PUSH0 DUP2 SWAP1 POP PUSH1 0x20 DUP3 ADD SWAP1 POP SWAP2 SWAP1 POP JUMP JUMPDEST PUSH2 0x666 DUP2 PUSH2 0x404 JUMP JUMPDEST DUP3 MSTORE POP POP JUMP JUMPDEST PUSH0 PUSH2 0x677 DUP4 DUP4 PUSH2 0x65D JUMP JUMPDEST PUSH1 0x20 DUP4 ADD SWAP1 POP SWAP3 SWAP2 POP POP JUMP JUMPDEST PUSH0 PUSH1 0x20 DUP3 ADD SWAP1 POP SWAP2 SWAP1 POP JUMP JUMPDEST PUSH0 PUSH2 0x699 DUP3 PUSH2 0x634 JUMP JUMPDEST PUSH2 0x6A3 DUP2 DUP6 PUSH2 0x63E JUMP JUMPDEST SWAP4 POP PUSH2 0x6AE DUP4 PUSH2 0x64E JUMP JUMPDEST DUP1 PUSH0 JUMPDEST DUP4 DUP2 LT ISZERO PUSH2 0x6DE JUMPI DUP2 MLOAD PUSH2 0x6C5 DUP9 DUP3 PUSH2 0x66C JUMP JUMPDEST SWAP8 POP PUSH2 0x6D0 DUP4 PUSH2 0x683 JUMP JUMPDEST SWAP3 POP POP PUSH1 0x1 DUP2 ADD SWAP1 POP PUSH2 0x6B1 JUMP JUMPDEST POP DUP6 SWAP4 POP POP POP POP SWAP3 SWAP2 POP POP JUMP JUMPDEST PUSH0 PUSH1 0x20 DUP3 ADD SWAP1 POP DUP2 DUP2 SUB PUSH0 DUP4 ADD MSTORE PUSH2 0x703 DUP2 DUP5 PUSH2 0x68F JUMP JUMPDEST SWAP1 POP SWAP3 SWAP2 POP POP JUMP JUMPDEST PUSH32 0x4E487B7100000000000000000000000000000000000000000000000000000000 PUSH0 MSTORE PUSH1 0x32 PUSH1 0x4 MSTORE PUSH1 0x24 PUSH0 REVERT JUMPDEST PUSH32 0x4E487B7100000000000000000000000000000000000000000000000000000000 PUSH0 MSTORE PUSH1 0x31 PUSH1 0x4 MSTORE PUSH1 0x24 PUSH0 REVERT JUMPDEST PUSH0 DUP3 DUP3 MSTORE PUSH1 0x20 DUP3 ADD SWAP1 POP SWAP3 SWAP2 POP POP JUMP JUMPDEST PUSH32 0x696E646578206F7574206F6620626F756E640000000000000000000000000000 PUSH0 DUP3 ADD MSTORE POP JUMP JUMPDEST PUSH0 PUSH2 0x7A9 PUSH1 0x12 DUP4 PUSH2 0x765 JUMP JUMPDEST SWAP2 POP PUSH2 0x7B4 DUP3 PUSH2 0x775 JUMP JUMPDEST PUSH1 0x20 DUP3 ADD SWAP1 POP SWAP2 SWAP1 POP JUMP JUMPDEST PUSH0 PUSH1 0x20 DUP3 ADD SWAP1 POP DUP2 DUP2 SUB PUSH0 DUP4 ADD MSTORE PUSH2 0x7D6 DUP2 PUSH2 0x79D JUMP JUMPDEST SWAP1 POP SWAP2 SWAP1 POP JUMP JUMPDEST PUSH0 DUP2 SLOAD SWAP1 POP SWAP2 SWAP1 POP JUMP JUMPDEST PUSH32 0x4E487B7100000000000000000000000000000000000000000000000000000000 PUSH0 MSTORE PUSH1 0x11 PUSH1 0x4 MSTORE PUSH1 0x24 PUSH0 REVERT JUMPDEST PUSH0 DUP2 SWAP1 POP PUSH1 0x1 DUP1 PUSH1 0x1 SUB DUP4 ADD DIV SWAP1 POP SWAP2 SWAP1 POP JUMP JUMPDEST PUSH0 DUP2 SWAP1 POP DUP2 PUSH0 MSTORE PUSH1 0x20 PUSH0 KECCAK256 SWAP1 POP SWAP2 SWAP1 POP JUMP JUMPDEST PUSH0 DUP3 DUP3 SHL SWAP1 POP SWAP3 SWAP2 POP POP JUMP JUMPDEST PUSH0 PUSH1 0x8 DUP4 MUL PUSH2 0x875 PUSH32 0xFFFFFFFFFFFFFFFFFFFFFFFFFFFFFFFFFFFFFFFFFFFFFFFFFFFFFFFFFFFFFFFF DUP3 PUSH2 0x83A JUMP JUMPDEST PUSH2 0x87F DUP7 DUP4 PUSH2 0x83A JUMP JUMPDEST SWAP6 POP DUP1 NOT DUP5 AND SWAP4 POP DUP1 DUP7 AND DUP5 OR SWAP3 POP POP POP SWAP4 SWAP3 POP POP POP JUMP JUMPDEST PUSH0 DUP2 SWAP1 POP SWAP2 SWAP1 POP JUMP JUMPDEST PUSH0 PUSH2 0x8BA PUSH2 0x8B5 PUSH2 0x8B0 DUP5 PUSH2 0x404 JUMP JUMPDEST PUSH2 0x897 JUMP JUMPDEST PUSH2 0x404 JUMP JUMPDEST SWAP1 POP SWAP2 SWAP1 POP JUMP JUMPDEST PUSH0 DUP2 SWAP1 POP SWAP2 SWAP1 POP JUMP JUMPDEST PUSH2 0x8D3 DUP4 PUSH2 0x8A0 JUMP JUMPDEST PUSH2 0x8E7 PUSH2 0x8DF DUP3 PUSH2 0x8C1 JUMP JUMPDEST DUP5 DUP5 SLOAD PUSH2 0x846 JUMP JUMPDEST DUP3 SSTORE POP POP POP POP JUMP JUMPDEST PUSH0 PUSH0 SWAP1 POP SWAP1 JUMP JUMPDEST PUSH2 0x8FE PUSH2 0x8EF JUMP JUMPDEST PUSH2 0x909 DUP2 DUP5 DUP5 PUSH2 0x8CA JUMP JUMPDEST POP POP POP JUMP JUMPDEST PUSH0 JUMPDEST DUP3 DUP2 LT ISZERO PUSH2 0x92F JUMPI PUSH2 0x924 PUSH0 DUP3 DUP5 ADD PUSH2 0x8F6 JUMP JUMPDEST PUSH1 0x1 DUP2 ADD SWAP1 POP PUSH2 0x910 JUMP JUMPDEST POP POP POP JUMP JUMPDEST DUP2 DUP4 LT ISZERO PUSH2 0x96B JUMPI PUSH2 0x945 DUP3 PUSH2 0x814 JUMP JUMPDEST PUSH2 0x94E DUP5 PUSH2 0x814 JUMP JUMPDEST PUSH2 0x957 DUP4 PUSH2 0x828 JUMP JUMPDEST DUP2 DUP2 ADD PUSH2 0x966 DUP4 DUP6 SUB DUP3 PUSH2 0x90E JUMP JUMPDEST POP POP POP POP JUMPDEST POP POP POP JUMP JUMPDEST PUSH9 0x10000000000000000 DUP3 GT ISZERO PUSH2 0x98A JUMPI PUSH2 0x989 PUSH2 0x49E JUMP JUMPDEST JUMPDEST PUSH2 0x993 DUP2 PUSH2 0x7DD JUMP JUMPDEST DUP3 DUP3 SSTORE PUSH2 0x9A1 DUP4 DUP3 DUP5 PUSH2 0x934 JUMP JUMPDEST POP POP POP JUMP JUMPDEST PUSH0 PUSH2 0x9B1 DUP3 MLOAD PUSH2 0x404 JUMP JUMPDEST DUP1 SWAP2 POP POP SWAP2 SWAP1 POP JUMP JUMPDEST PUSH2 0x9C3 DUP3 PUSH2 0x634 JUMP JUMPDEST PUSH8 0xFFFFFFFFFFFFFFFF DUP2 GT ISZERO PUSH2 0x9DC JUMPI PUSH2 0x9DB PUSH2 0x49E JUMP JUMPDEST JUMPDEST PUSH2 0x9E6 DUP2 DUP4 PUSH2 0x970 JUMP JUMPDEST PUSH2 0x9EF DUP4 PUSH2 0x64E JUMP JUMPDEST PUSH2 0x9F8 DUP4 PUSH2 0x828 JUMP JUMPDEST PUSH1 0x1 DUP4 DIV PUSH0 JUMPDEST DUP2 DUP2 LT ISZERO PUSH2 0xA35 JUMPI PUSH0 PUSH2 0xA10 DUP6 PUSH2 0x9A6 JUMP JUMPDEST PUSH2 0xA19 DUP2 PUSH2 0x8C1 JUMP JUMPDEST DUP1 SWAP3 POP PUSH1 0x20 DUP8 ADD SWAP7 POP POP POP DUP1 DUP3 DUP6 ADD SSTORE POP PUSH1 0x1 DUP2 ADD SWAP1 POP PUSH2 0x9FE JUMP JUMPDEST POP POP POP POP POP POP POP JUMP JUMPDEST PUSH0 PUSH2 0xA48 DUP3 PUSH2 0x404 JUMP JUMPDEST SWAP2 POP PUSH2 0xA53 DUP4 PUSH2 0x404 JUMP JUMPDEST SWAP3 POP DUP3 DUP3 SUB SWAP1 POP DUP2 DUP2 GT ISZERO PUSH2 0xA6B JUMPI PUSH2 0xA6A PUSH2 0x7E7 JUMP JUMPDEST JUMPDEST SWAP3 SWAP2 POP POP JUMP JUMPDEST PUSH0 PUSH2 0xA7B DUP3 PUSH2 0x404 JUMP JUMPDEST SWAP2 POP PUSH2 0xA86 DUP4 PUSH2 0x404 JUMP JUMPDEST SWAP3 POP DUP3 DUP3 ADD SWAP1 POP DUP1 DUP3 GT ISZERO PUSH2 0xA9E JUMPI PUSH2 0xA9D PUSH2 0x7E7 JUMP JUMPDEST JUMPDEST SWAP3 SWAP2 POP POP JUMP INVALID LOG2 PUSH5 0x6970667358 0x22 SLT KECCAK256 PUSH10 0xAEDE07D16F8CB3F8BC8E EXTSTATICCALL 0xC1 0xCB SWAP4 DUP6 0xD2 SGT SHR PUSH19 0x3E89763938EF3E3F08B0E90764736F6C634300 ADDMOD 0x22 STOP CALLER "
		},
		"gasEstimates": {
			"creation": {
				"codeDepositCost": "555600",
				"executionCost": "infinite",
				"totalCost": "infinite"
			},
			"external": {
				"example()": "107595",
				"fixedNums(uint256)": "infinite",
				"getLength()": "2483",
				"numArr(uint256)": "infinite",
				"nums(uint256)": "infinite",
				"removeEle(uint256[],uint256)": "infinite"
			}
		},
		"methodIdentifiers": {
			"example()": "54353f2f",
			"fixedNums(uint256)": "0b441f65",
			"getLength()": "be1c766b",
			"numArr(uint256)": "ab3ee911",
			"nums(uint256)": "fd1ee54c",
			"removeEle(uint256[],uint256)": "cf73bde5"
		}
	},
	"abi": [
		{
			"inputs": [],
			"name": "example",
			"outputs": [],
			"stateMutability": "nonpayable",
			"type": "function"
		},
		{
			"inputs": [
				{
					"internalType": "uint256",
					"name": "",
					"type": "uint256"
				}
			],
			"name": "fixedNums",
			"outputs": [
				{
					"internalType": "uint256",
					"name": "",
					"type": "uint256"
				}
			],
			"stateMutability": "view",
			"type": "function"
		},
		{
			"inputs": [],
			"name": "getLength",
			"outputs": [
				{
					"internalType": "uint256",
					"name": "",
					"type": "uint256"
				}
			],
			"stateMutability": "view",
			"type": "function"
		},
		{
			"inputs": [
				{
					"internalType": "uint256",
					"name": "",
					"type": "uint256"
				}
			],
			"name": "numArr",
			"outputs": [
				{
					"internalType": "uint256",
					"name": "",
					"type": "uint256"
				}
			],
			"stateMutability": "view",
			"type": "function"
		},
		{
			"inputs": [
				{
					"internalType": "uint256",
					"name": "",
					"type": "uint256"
				}
			],
			"name": "nums",
			"outputs": [
				{
					"internalType": "uint256",
					"name": "",
					"type": "uint256"
				}
			],
			"stateMutability": "view",
			"type": "function"
		},
		{
			"inputs": [
				{
					"internalType": "uint256[]",
					"name": "newArr",
					"type": "uint256[]"
				},
				{
					"internalType": "uint256",
					"name": "index",
					"type": "uint256"
				}
			],
			"name": "removeEle",
			"outputs": [
				{
					"internalType": "uint256[]",
					"name": "",
					"type": "uint256[]"
				}
			],
			"stateMutability": "nonpayable",
			"type": "function"
		}
	]
}