{
	"data": {
		"bytecode": {
			"linkReferences": {},
			"object": "6080604052348015600e575f5ffd5b50610c808061001c5f395ff3fe60806040526004361061003e575f3560e01c8063172a57d71461004257806325adff1c1461006a57806373d4a13a146100a6578063dd5f151e146100d0575b5f5ffd5b34801561004d575f5ffd5b50610068600480360381019061006391906104c4565b6100ec565b005b348015610075575f5ffd5b50610090600480360381019061008b9190610522565b61021a565b60405161009d91906105d0565b60405180910390f35b3480156100b1575f5ffd5b506100ba61027c565b6040516100c791906105d0565b60405180910390f35b6100ea60048036038101906100e5919061071c565b610307565b005b5f8173ffffffffffffffffffffffffffffffffffffffff166040516024016040516020818303038152906040527ff167435f000000000000000000000000000000000000000000000000000000007bffffffffffffffffffffffffffffffffffffffffffffffffffffffff19166020820180517bffffffffffffffffffffffffffffffffffffffffffffffffffffffff838183161783525050505060405161019491906107c2565b5f604051808303815f865af19150503d805f81146101cd576040519150601f19603f3d011682016040523d82523d5f602084013e6101d2565b606091505b5050905080610216576040517f08c379a000000000000000000000000000000000000000000000000000000000815260040161020d90610832565b60405180910390fd5b5050565b6060828260405160240161022f92919061086e565b60405160208183030381529060405263a9059cbb60e01b6020820180517bffffffffffffffffffffffffffffffffffffffffffffffffffffffff8381831617835250505050905092915050565b5f8054610288906108c2565b80601f01602080910402602001604051908101604052809291908181526020018280546102b4906108c2565b80156102ff5780601f106102d6576101008083540402835291602001916102ff565b820191905f5260205f20905b8154815290600101906020018083116102e257829003601f168201915b505050505081565b5f5f8473ffffffffffffffffffffffffffffffffffffffff16607b8585604051602401610335929190610934565b6040516020818303038152906040527f24ccab8f000000000000000000000000000000000000000000000000000000007bffffffffffffffffffffffffffffffffffffffffffffffffffffffff19166020820180517bffffffffffffffffffffffffffffffffffffffffffffffffffffffff83818316178352505050506040516103bf91906107c2565b5f6040518083038185875af1925050503d805f81146103f9576040519150601f19603f3d011682016040523d82523d5f602084013e6103fe565b606091505b509150915081610443576040517f08c379a000000000000000000000000000000000000000000000000000000000815260040161043a906109ac565b60405180910390fd5b805f90816104519190610b7b565b505050505050565b5f604051905090565b5f5ffd5b5f5ffd5b5f73ffffffffffffffffffffffffffffffffffffffff82169050919050565b5f6104938261046a565b9050919050565b6104a381610489565b81146104ad575f5ffd5b50565b5f813590506104be8161049a565b92915050565b5f602082840312156104d9576104d8610462565b5b5f6104e6848285016104b0565b91505092915050565b5f819050919050565b610501816104ef565b811461050b575f5ffd5b50565b5f8135905061051c816104f8565b92915050565b5f5f6040838503121561053857610537610462565b5b5f610545858286016104b0565b92505060206105568582860161050e565b9150509250929050565b5f81519050919050565b5f82825260208201905092915050565b8281835e5f83830152505050565b5f601f19601f8301169050919050565b5f6105a282610560565b6105ac818561056a565b93506105bc81856020860161057a565b6105c581610588565b840191505092915050565b5f6020820190508181035f8301526105e88184610598565b905092915050565b5f5ffd5b5f5ffd5b7f4e487b71000000000000000000000000000000000000000000000000000000005f52604160045260245ffd5b61062e82610588565b810181811067ffffffffffffffff8211171561064d5761064c6105f8565b5b80604052505050565b5f61065f610459565b905061066b8282610625565b919050565b5f67ffffffffffffffff82111561068a576106896105f8565b5b61069382610588565b9050602081019050919050565b828183375f83830152505050565b5f6106c06106bb84610670565b610656565b9050828152602081018484840111156106dc576106db6105f4565b5b6106e78482856106a0565b509392505050565b5f82601f830112610703576107026105f0565b5b81356107138482602086016106ae565b91505092915050565b5f5f5f6060848603121561073357610732610462565b5b5f610740868287016104b0565b935050602084013567ffffffffffffffff81111561076157610760610466565b5b61076d868287016106ef565b925050604061077e8682870161050e565b9150509250925092565b5f81905092915050565b5f61079c82610560565b6107a68185610788565b93506107b681856020860161057a565b80840191505092915050565b5f6107cd8284610792565b915081905092915050565b5f82825260208201905092915050565b7f43616c6c204661696c65640000000000000000000000000000000000000000005f82015250565b5f61081c600b836107d8565b9150610827826107e8565b602082019050919050565b5f6020820190508181035f83015261084981610810565b9050919050565b61085981610489565b82525050565b610868816104ef565b82525050565b5f6040820190506108815f830185610850565b61088e602083018461085f565b9392505050565b7f4e487b71000000000000000000000000000000000000000000000000000000005f52602260045260245ffd5b5f60028204905060018216806108d957607f821691505b6020821081036108ec576108eb610895565b5b50919050565b5f81519050919050565b5f610906826108f2565b61091081856107d8565b935061092081856020860161057a565b61092981610588565b840191505092915050565b5f6040820190508181035f83015261094c81856108fc565b905061095b602083018461085f565b9392505050565b7f43616c6c206661696c65640000000000000000000000000000000000000000005f82015250565b5f610996600b836107d8565b91506109a182610962565b602082019050919050565b5f6020820190508181035f8301526109c38161098a565b9050919050565b5f819050815f5260205f209050919050565b5f6020601f8301049050919050565b5f82821b905092915050565b5f60088302610a267fffffffffffffffffffffffffffffffffffffffffffffffffffffffffffffffff826109eb565b610a3086836109eb565b95508019841693508086168417925050509392505050565b5f819050919050565b5f610a6b610a66610a61846104ef565b610a48565b6104ef565b9050919050565b5f819050919050565b610a8483610a51565b610a98610a9082610a72565b8484546109f7565b825550505050565b5f5f905090565b610aaf610aa0565b610aba818484610a7b565b505050565b5f5b82811015610ae057610ad55f828401610aa7565b600181019050610ac1565b505050565b601f821115610b335782821115610b3257610aff816109ca565b610b08836109dc565b610b11856109dc565b6020861015610b1e575f90505b808301610b2d82840382610abf565b505050505b5b505050565b5f82821c905092915050565b5f610b535f1984600802610b38565b1980831691505092915050565b5f610b6b8383610b44565b9150826002028217905092915050565b610b8482610560565b67ffffffffffffffff811115610b9d57610b9c6105f8565b5b610ba782546108c2565b610bb2828285610ae5565b5f60209050601f831160018114610be3575f8415610bd1578287015190505b610bdb8582610b60565b865550610c42565b601f198416610bf1866109ca565b5f5b82811015610c1857848901518255600182019150602085019450602081019050610bf3565b86831015610c355784890151610c31601f891682610b44565b8355505b6001600288020188555050505b50505050505056fea2646970667358221220e5b54f75bf48c92eb0a89c6045946313607dc4db4b4b67f152d36a12d6700f6364736f6c63430008220033",
			"opcodes": "PUSH1 0x80 PUSH1 0x40 MSTORE CALLVALUE DUP1 ISZERO PUSH1 0xE JUMPI PUSH0 PUSH0 REVERT JUMPDEST POP PUSH2 0xC80 DUP1 PUSH2 0x1C PUSH0 CODECOPY PUSH0 RETURN INVALID PUSH1 0x80 PUSH1 0x40 MSTORE PUSH1 0x4 CALLDATASIZE LT PUSH2 0x3E JUMPI PUSH0 CALLDATALOAD PUSH1 0xE0 SHR DUP1 PUSH4 0x172A57D7 EQ PUSH2 0x42 JUMPI DUP1 PUSH4 0x25ADFF1C EQ PUSH2 0x6A JUMPI DUP1 PUSH4 0x73D4A13A EQ PUSH2 0xA6 JUMPI DUP1 PUSH4 0xDD5F151E EQ PUSH2 0xD0 JUMPI JUMPDEST PUSH0 PUSH0 REVERT JUMPDEST CALLVALUE DUP1 ISZERO PUSH2 0x4D JUMPI PUSH0 PUSH0 REVERT JUMPDEST POP PUSH2 0x68 PUSH1 0x4 DUP1 CALLDATASIZE SUB DUP2 ADD SWAP1 PUSH2 0x63 SWAP2 SWAP1 PUSH2 0x4C4 JUMP JUMPDEST PUSH2 0xEC JUMP JUMPDEST STOP JUMPDEST CALLVALUE DUP1 ISZERO PUSH2 0x75 JUMPI PUSH0 PUSH0 REVERT JUMPDEST POP PUSH2 0x90 PUSH1 0x4 DUP1 CALLDATASIZE SUB DUP2 ADD SWAP1 PUSH2 0x8B SWAP2 SWAP1 PUSH2 0x522 JUMP JUMPDEST PUSH2 0x21A JUMP JUMPDEST PUSH1 0x40 MLOAD PUSH2 0x9D SWAP2 SWAP1 PUSH2 0x5D0 JUMP JUMPDEST PUSH1 0x40 MLOAD DUP1 SWAP2 SUB SWAP1 RETURN JUMPDEST CALLVALUE DUP1 ISZERO PUSH2 0xB1 JUMPI PUSH0 PUSH0 REVERT JUMPDEST POP PUSH2 0xBA PUSH2 0x27C JUMP JUMPDEST PUSH1 0x40 MLOAD PUSH2 0xC7 SWAP2 SWAP1 PUSH2 0x5D0 JUMP JUMPDEST PUSH1 0x40 MLOAD DUP1 SWAP2 SUB SWAP1 RETURN JUMPDEST PUSH2 0xEA PUSH1 0x4 DUP1 CALLDATASIZE SUB DUP2 ADD SWAP1 PUSH2 0xE5 SWAP2 SWAP1 PUSH2 0x71C JUMP JUMPDEST PUSH2 0x307 JUMP JUMPDEST STOP JUMPDEST PUSH0 DUP2 PUSH20 0xFFFFFFFFFFFFFFFFFFFFFFFFFFFFFFFFFFFFFFFF AND PUSH1 0x40 MLOAD PUSH1 0x24 ADD PUSH1 0x40 MLOAD PUSH1 0x20 DUP2 DUP4 SUB SUB DUP2 MSTORE SWAP1 PUSH1 0x40 MSTORE PUSH32 0xF167435F00000000000000000000000000000000000000000000000000000000 PUSH28 0xFFFFFFFFFFFFFFFFFFFFFFFFFFFFFFFFFFFFFFFFFFFFFFFFFFFFFFFF NOT AND PUSH1 0x20 DUP3 ADD DUP1 MLOAD PUSH28 0xFFFFFFFFFFFFFFFFFFFFFFFFFFFFFFFFFFFFFFFFFFFFFFFFFFFFFFFF DUP4 DUP2 DUP4 AND OR DUP4 MSTORE POP POP POP POP PUSH1 0x40 MLOAD PUSH2 0x194 SWAP2 SWAP1 PUSH2 0x7C2 JUMP JUMPDEST PUSH0 PUSH1 0x40 MLOAD DUP1 DUP4 SUB DUP2 PUSH0 DUP7 GAS CALL SWAP2 POP POP RETURNDATASIZE DUP1 PUSH0 DUP2 EQ PUSH2 0x1CD JUMPI PUSH1 0x40 MLOAD SWAP2 POP PUSH1 0x1F NOT PUSH1 0x3F RETURNDATASIZE ADD AND DUP3 ADD PUSH1 0x40 MSTORE RETURNDATASIZE DUP3 MSTORE RETURNDATASIZE PUSH0 PUSH1 0x20 DUP5 ADD RETURNDATACOPY PUSH2 0x1D2 JUMP JUMPDEST PUSH1 0x60 SWAP2 POP JUMPDEST POP POP SWAP1 POP DUP1 PUSH2 0x216 JUMPI PUSH1 0x40 MLOAD PUSH32 0x8C379A000000000000000000000000000000000000000000000000000000000 DUP2 MSTORE PUSH1 0x4 ADD PUSH2 0x20D SWAP1 PUSH2 0x832 JUMP JUMPDEST PUSH1 0x40 MLOAD DUP1 SWAP2 SUB SWAP1 REVERT JUMPDEST POP POP JUMP JUMPDEST PUSH1 0x60 DUP3 DUP3 PUSH1 0x40 MLOAD PUSH1 0x24 ADD PUSH2 0x22F SWAP3 SWAP2 SWAP1 PUSH2 0x86E JUMP JUMPDEST PUSH1 0x40 MLOAD PUSH1 0x20 DUP2 DUP4 SUB SUB DUP2 MSTORE SWAP1 PUSH1 0x40 MSTORE PUSH4 0xA9059CBB PUSH1 0xE0 SHL PUSH1 0x20 DUP3 ADD DUP1 MLOAD PUSH28 0xFFFFFFFFFFFFFFFFFFFFFFFFFFFFFFFFFFFFFFFFFFFFFFFFFFFFFFFF DUP4 DUP2 DUP4 AND OR DUP4 MSTORE POP POP POP POP SWAP1 POP SWAP3 SWAP2 POP POP JUMP JUMPDEST PUSH0 DUP1 SLOAD PUSH2 0x288 SWAP1 PUSH2 0x8C2 JUMP JUMPDEST DUP1 PUSH1 0x1F ADD PUSH1 0x20 DUP1 SWAP2 DIV MUL PUSH1 0x20 ADD PUSH1 0x40 MLOAD SWAP1 DUP2 ADD PUSH1 0x40 MSTORE DUP1 SWAP3 SWAP2 SWAP1 DUP2 DUP2 MSTORE PUSH1 0x20 ADD DUP3 DUP1 SLOAD PUSH2 0x2B4 SWAP1 PUSH2 0x8C2 JUMP JUMPDEST DUP1 ISZERO PUSH2 0x2FF JUMPI DUP1 PUSH1 0x1F LT PUSH2 0x2D6 JUMPI PUSH2 0x100 DUP1 DUP4 SLOAD DIV MUL DUP4 MSTORE SWAP2 PUSH1 0x20 ADD SWAP2 PUSH2 0x2FF JUMP JUMPDEST DUP3 ADD SWAP2 SWAP1 PUSH0 MSTORE PUSH1 0x20 PUSH0 KECCAK256 SWAP1 JUMPDEST DUP2 SLOAD DUP2 MSTORE SWAP1 PUSH1 0x1 ADD SWAP1 PUSH1 0x20 ADD DUP1 DUP4 GT PUSH2 0x2E2 JUMPI DUP3 SWAP1 SUB PUSH1 0x1F AND DUP3 ADD SWAP2 JUMPDEST POP POP POP POP POP DUP2 JUMP JUMPDEST PUSH0 PUSH0 DUP5 PUSH20 0xFFFFFFFFFFFFFFFFFFFFFFFFFFFFFFFFFFFFFFFF AND PUSH1 0x7B DUP6 DUP6 PUSH1 0x40 MLOAD PUSH1 0x24 ADD PUSH2 0x335 SWAP3 SWAP2 SWAP1 PUSH2 0x934 JUMP JUMPDEST PUSH1 0x40 MLOAD PUSH1 0x20 DUP2 DUP4 SUB SUB DUP2 MSTORE SWAP1 PUSH1 0x40 MSTORE PUSH32 0x24CCAB8F00000000000000000000000000000000000000000000000000000000 PUSH28 0xFFFFFFFFFFFFFFFFFFFFFFFFFFFFFFFFFFFFFFFFFFFFFFFFFFFFFFFF NOT AND PUSH1 0x20 DUP3 ADD DUP1 MLOAD PUSH28 0xFFFFFFFFFFFFFFFFFFFFFFFFFFFFFFFFFFFFFFFFFFFFFFFFFFFFFFFF DUP4 DUP2 DUP4 AND OR DUP4 MSTORE POP POP POP POP PUSH1 0x40 MLOAD PUSH2 0x3BF SWAP2 SWAP1 PUSH2 0x7C2 JUMP JUMPDEST PUSH0 PUSH1 0x40 MLOAD DUP1 DUP4 SUB DUP2 DUP6 DUP8 GAS CALL SWAP3 POP POP POP RETURNDATASIZE DUP1 PUSH0 DUP2 EQ PUSH2 0x3F9 JUMPI PUSH1 0x40 MLOAD SWAP2 POP PUSH1 0x1F NOT PUSH1 0x3F RETURNDATASIZE ADD AND DUP3 ADD PUSH1 0x40 MSTORE RETURNDATASIZE DUP3 MSTORE RETURNDATASIZE PUSH0 PUSH1 0x20 DUP5 ADD RETURNDATACOPY PUSH2 0x3FE JUMP JUMPDEST PUSH1 0x60 SWAP2 POP JUMPDEST POP SWAP2 POP SWAP2 POP DUP2 PUSH2 0x443 JUMPI PUSH1 0x40 MLOAD PUSH32 0x8C379A000000000000000000000000000000000000000000000000000000000 DUP2 MSTORE PUSH1 0x4 ADD PUSH2 0x43A SWAP1 PUSH2 0x9AC JUMP JUMPDEST PUSH1 0x40 MLOAD DUP1 SWAP2 SUB SWAP1 REVERT JUMPDEST DUP1 PUSH0 SWAP1 DUP2 PUSH2 0x451 SWAP2 SWAP1 PUSH2 0xB7B JUMP JUMPDEST POP POP POP POP POP POP JUMP JUMPDEST PUSH0 PUSH1 0x40 MLOAD SWAP1 POP SWAP1 JUMP JUMPDEST PUSH0 PUSH0 REVERT JUMPDEST PUSH0 PUSH0 REVERT JUMPDEST PUSH0 PUSH20 0xFFFFFFFFFFFFFFFFFFFFFFFFFFFFFFFFFFFFFFFF DUP3 AND SWAP1 POP SWAP2 SWAP1 POP JUMP JUMPDEST PUSH0 PUSH2 0x493 DUP3 PUSH2 0x46A JUMP JUMPDEST SWAP1 POP SWAP2 SWAP1 POP JUMP JUMPDEST PUSH2 0x4A3 DUP2 PUSH2 0x489 JUMP JUMPDEST DUP2 EQ PUSH2 0x4AD JUMPI PUSH0 PUSH0 REVERT JUMPDEST POP JUMP JUMPDEST PUSH0 DUP2 CALLDATALOAD SWAP1 POP PUSH2 0x4BE DUP2 PUSH2 0x49A JUMP JUMPDEST SWAP3 SWAP2 POP POP JUMP JUMPDEST PUSH0 PUSH1 0x20 DUP3 DUP5 SUB SLT ISZERO PUSH2 0x4D9 JUMPI PUSH2 0x4D8 PUSH2 0x462 JUMP JUMPDEST JUMPDEST PUSH0 PUSH2 0x4E6 DUP5 DUP3 DUP6 ADD PUSH2 0x4B0 JUMP JUMPDEST SWAP2 POP POP SWAP3 SWAP2 POP POP JUMP JUMPDEST PUSH0 DUP2 SWAP1 POP SWAP2 SWAP1 POP JUMP JUMPDEST PUSH2 0x501 DUP2 PUSH2 0x4EF JUMP JUMPDEST DUP2 EQ PUSH2 0x50B JUMPI PUSH0 PUSH0 REVERT JUMPDEST POP JUMP JUMPDEST PUSH0 DUP2 CALLDATALOAD SWAP1 POP PUSH2 0x51C DUP2 PUSH2 0x4F8 JUMP JUMPDEST SWAP3 SWAP2 POP POP JUMP JUMPDEST PUSH0 PUSH0 PUSH1 0x40 DUP4 DUP6 SUB SLT ISZERO PUSH2 0x538 JUMPI PUSH2 0x537 PUSH2 0x462 JUMP JUMPDEST JUMPDEST PUSH0 PUSH2 0x545 DUP6 DUP3 DUP7 ADD PUSH2 0x4B0 JUMP JUMPDEST SWAP3 POP POP PUSH1 0x20 PUSH2 0x556 DUP6 DUP3 DUP7 ADD PUSH2 0x50E JUMP JUMPDEST SWAP2 POP POP SWAP3 POP SWAP3 SWAP1 POP JUMP JUMPDEST PUSH0 DUP2 MLOAD SWAP1 POP SWAP2 SWAP1 POP JUMP JUMPDEST PUSH0 DUP3 DUP3 MSTORE PUSH1 0x20 DUP3 ADD SWAP1 POP SWAP3 SWAP2 POP POP JUMP JUMPDEST DUP3 DUP2 DUP4 MCOPY PUSH0 DUP4 DUP4 ADD MSTORE POP POP POP JUMP JUMPDEST PUSH0 PUSH1 0x1F NOT PUSH1 0x1F DUP4 ADD AND SWAP1 POP SWAP2 SWAP1 POP JUMP JUMPDEST PUSH0 PUSH2 0x5A2 DUP3 PUSH2 0x560 JUMP JUMPDEST PUSH2 0x5AC DUP2 DUP6 PUSH2 0x56A JUMP JUMPDEST SWAP4 POP PUSH2 0x5BC DUP2 DUP6 PUSH1 0x20 DUP7 ADD PUSH2 0x57A JUMP JUMPDEST PUSH2 0x5C5 DUP2 PUSH2 0x588 JUMP JUMPDEST DUP5 ADD SWAP2 POP POP SWAP3 SWAP2 POP POP JUMP JUMPDEST PUSH0 PUSH1 0x20 DUP3 ADD SWAP1 POP DUP2 DUP2 SUB PUSH0 DUP4 ADD MSTORE PUSH2 0x5E8 DUP2 DUP5 PUSH2 0x598 JUMP JUMPDEST SWAP1 POP SWAP3 SWAP2 POP POP JUMP JUMPDEST PUSH0 PUSH0 REVERT JUMPDEST PUSH0 PUSH0 REVERT JUMPDEST PUSH32 0x4E487B7100000000000000000000000000000000000000000000000000000000 PUSH0 MSTORE PUSH1 0x41 PUSH1 0x4 MSTORE PUSH1 0x24 PUSH0 REVERT JUMPDEST PUSH2 0x62E DUP3 PUSH2 0x588 JUMP JUMPDEST DUP2 ADD DUP2 DUP2 LT PUSH8 0xFFFFFFFFFFFFFFFF DUP3 GT OR ISZERO PUSH2 0x64D JUMPI PUSH2 0x64C PUSH2 0x5F8 JUMP JUMPDEST JUMPDEST DUP1 PUSH1 0x40 MSTORE POP POP POP JUMP JUMPDEST PUSH0 PUSH2 0x65F PUSH2 0x459 JUMP JUMPDEST SWAP1 POP PUSH2 0x66B DUP3 DUP3 PUSH2 0x625 JUMP JUMPDEST SWAP2 SWAP1 POP JUMP JUMPDEST PUSH0 PUSH8 0xFFFFFFFFFFFFFFFF DUP3 GT ISZERO PUSH2 0x68A JUMPI PUSH2 0x689 PUSH2 0x5F8 JUMP JUMPDEST JUMPDEST PUSH2 0x693 DUP3 PUSH2 0x588 JUMP JUMPDEST SWAP1 POP PUSH1 0x20 DUP2 ADD SWAP1 POP SWAP2 SWAP1 POP JUMP JUMPDEST DUP3 DUP2 DUP4 CALLDATACOPY PUSH0 DUP4 DUP4 ADD MSTORE POP POP POP JUMP JUMPDEST PUSH0 PUSH2 0x6C0 PUSH2 0x6BB DUP5 PUSH2 0x670 JUMP JUMPDEST PUSH2 0x656 JUMP JUMPDEST SWAP1 POP DUP3 DUP2 MSTORE PUSH1 0x20 DUP2 ADD DUP5 DUP5 DUP5 ADD GT ISZERO PUSH2 0x6DC JUMPI PUSH2 0x6DB PUSH2 0x5F4 JUMP JUMPDEST JUMPDEST PUSH2 0x6E7 DUP5 DUP3 DUP6 PUSH2 0x6A0 JUMP JUMPDEST POP SWAP4 SWAP3 POP POP POP JUMP JUMPDEST PUSH0 DUP3 PUSH1 0x1F DUP4 ADD SLT PUSH2 0x703 JUMPI PUSH2 0x702 PUSH2 0x5F0 JUMP JUMPDEST JUMPDEST DUP2 CALLDATALOAD PUSH2 0x713 DUP5 DUP3 PUSH1 0x20 DUP7 ADD PUSH2 0x6AE JUMP JUMPDEST SWAP2 POP POP SWAP3 SWAP2 POP POP JUMP JUMPDEST PUSH0 PUSH0 PUSH0 PUSH1 0x60 DUP5 DUP7 SUB SLT ISZERO PUSH2 0x733 JUMPI PUSH2 0x732 PUSH2 0x462 JUMP JUMPDEST JUMPDEST PUSH0 PUSH2 0x740 DUP7 DUP3 DUP8 ADD PUSH2 0x4B0 JUMP JUMPDEST SWAP4 POP POP PUSH1 0x20 DUP5 ADD CALLDATALOAD PUSH8 0xFFFFFFFFFFFFFFFF DUP2 GT ISZERO PUSH2 0x761 JUMPI PUSH2 0x760 PUSH2 0x466 JUMP JUMPDEST JUMPDEST PUSH2 0x76D DUP7 DUP3 DUP8 ADD PUSH2 0x6EF JUMP JUMPDEST SWAP3 POP POP PUSH1 0x40 PUSH2 0x77E DUP7 DUP3 DUP8 ADD PUSH2 0x50E JUMP JUMPDEST SWAP2 POP POP SWAP3 POP SWAP3 POP SWAP3 JUMP JUMPDEST PUSH0 DUP2 SWAP1 POP SWAP3 SWAP2 POP POP JUMP JUMPDEST PUSH0 PUSH2 0x79C DUP3 PUSH2 0x560 JUMP JUMPDEST PUSH2 0x7A6 DUP2 DUP6 PUSH2 0x788 JUMP JUMPDEST SWAP4 POP PUSH2 0x7B6 DUP2 DUP6 PUSH1 0x20 DUP7 ADD PUSH2 0x57A JUMP JUMPDEST DUP1 DUP5 ADD SWAP2 POP POP SWAP3 SWAP2 POP POP JUMP JUMPDEST PUSH0 PUSH2 0x7CD DUP3 DUP5 PUSH2 0x792 JUMP JUMPDEST SWAP2 POP DUP2 SWAP1 POP SWAP3 SWAP2 POP POP JUMP JUMPDEST PUSH0 DUP3 DUP3 MSTORE PUSH1 0x20 DUP3 ADD SWAP1 POP SWAP3 SWAP2 POP POP JUMP JUMPDEST PUSH32 0x43616C6C204661696C6564000000000000000000000000000000000000000000 PUSH0 DUP3 ADD MSTORE POP JUMP JUMPDEST PUSH0 PUSH2 0x81C PUSH1 0xB DUP4 PUSH2 0x7D8 JUMP JUMPDEST SWAP2 POP PUSH2 0x827 DUP3 PUSH2 0x7E8 JUMP JUMPDEST PUSH1 0x20 DUP3 ADD SWAP1 POP SWAP2 SWAP1 POP JUMP JUMPDEST PUSH0 PUSH1 0x20 DUP3 ADD SWAP1 POP DUP2 DUP2 SUB PUSH0 DUP4 ADD MSTORE PUSH2 0x849 DUP2 PUSH2 0x810 JUMP JUMPDEST SWAP1 POP SWAP2 SWAP1 POP JUMP JUMPDEST PUSH2 0x859 DUP2 PUSH2 0x489 JUMP JUMPDEST DUP3 MSTORE POP POP JUMP JUMPDEST PUSH2 0x868 DUP2 PUSH2 0x4EF JUMP JUMPDEST DUP3 MSTORE POP POP JUMP JUMPDEST PUSH0 PUSH1 0x40 DUP3 ADD SWAP1 POP PUSH2 0x881 PUSH0 DUP4 ADD DUP6 PUSH2 0x850 JUMP JUMPDEST PUSH2 0x88E PUSH1 0x20 DUP4 ADD DUP5 PUSH2 0x85F JUMP JUMPDEST SWAP4 SWAP3 POP POP POP JUMP JUMPDEST PUSH32 0x4E487B7100000000000000000000000000000000000000000000000000000000 PUSH0 MSTORE PUSH1 0x22 PUSH1 0x4 MSTORE PUSH1 0x24 PUSH0 REVERT JUMPDEST PUSH0 PUSH1 0x2 DUP3 DIV SWAP1 POP PUSH1 0x1 DUP3 AND DUP1 PUSH2 0x8D9 JUMPI PUSH1 0x7F DUP3 AND SWAP2 POP JUMPDEST PUSH1 0x20 DUP3 LT DUP2 SUB PUSH2 0x8EC JUMPI PUSH2 0x8EB PUSH2 0x895 JUMP JUMPDEST JUMPDEST POP SWAP2 SWAP1 POP JUMP JUMPDEST PUSH0 DUP2 MLOAD SWAP1 POP SWAP2 SWAP1 POP JUMP JUMPDEST PUSH0 PUSH2 0x906 DUP3 PUSH2 0x8F2 JUMP JUMPDEST PUSH2 0x910 DUP2 DUP6 PUSH2 0x7D8 JUMP JUMPDEST SWAP4 POP PUSH2 0x920 DUP2 DUP6 PUSH1 0x20 DUP7 ADD PUSH2 0x57A JUMP JUMPDEST PUSH2 0x929 DUP2 PUSH2 0x588 JUMP JUMPDEST DUP5 ADD SWAP2 POP POP SWAP3 SWAP2 POP POP JUMP JUMPDEST PUSH0 PUSH1 0x40 DUP3 ADD SWAP1 POP DUP2 DUP2 SUB PUSH0 DUP4 ADD MSTORE PUSH2 0x94C DUP2 DUP6 PUSH2 0x8FC JUMP JUMPDEST SWAP1 POP PUSH2 0x95B PUSH1 0x20 DUP4 ADD DUP5 PUSH2 0x85F JUMP JUMPDEST SWAP4 SWAP3 POP POP POP JUMP JUMPDEST PUSH32 0x43616C6C206661696C6564000000000000000000000000000000000000000000 PUSH0 DUP3 ADD MSTORE POP JUMP JUMPDEST PUSH0 PUSH2 0x996 PUSH1 0xB DUP4 PUSH2 0x7D8 JUMP JUMPDEST SWAP2 POP PUSH2 0x9A1 DUP3 PUSH2 0x962 JUMP JUMPDEST PUSH1 0x20 DUP3 ADD SWAP1 POP SWAP2 SWAP1 POP JUMP JUMPDEST PUSH0 PUSH1 0x20 DUP3 ADD SWAP1 POP DUP2 DUP2 SUB PUSH0 DUP4 ADD MSTORE PUSH2 0x9C3 DUP2 PUSH2 0x98A JUMP JUMPDEST SWAP1 POP SWAP2 SWAP1 POP JUMP JUMPDEST PUSH0 DUP2 SWAP1 POP DUP2 PUSH0 MSTORE PUSH1 0x20 PUSH0 KECCAK256 SWAP1 POP SWAP2 SWAP1 POP JUMP JUMPDEST PUSH0 PUSH1 0x20 PUSH1 0x1F DUP4 ADD DIV SWAP1 POP SWAP2 SWAP1 POP JUMP JUMPDEST PUSH0 DUP3 DUP3 SHL SWAP1 POP SWAP3 SWAP2 POP POP JUMP JUMPDEST PUSH0 PUSH1 0x8 DUP4 MUL PUSH2 0xA26 PUSH32 0xFFFFFFFFFFFFFFFFFFFFFFFFFFFFFFFFFFFFFFFFFFFFFFFFFFFFFFFFFFFFFFFF DUP3 PUSH2 0x9EB JUMP JUMPDEST PUSH2 0xA30 DUP7 DUP4 PUSH2 0x9EB JUMP JUMPDEST SWAP6 POP DUP1 NOT DUP5 AND SWAP4 POP DUP1 DUP7 AND DUP5 OR SWAP3 POP POP POP SWAP4 SWAP3 POP POP POP JUMP JUMPDEST PUSH0 DUP2 SWAP1 POP SWAP2 SWAP1 POP JUMP JUMPDEST PUSH0 PUSH2 0xA6B PUSH2 0xA66 PUSH2 0xA61 DUP5 PUSH2 0x4EF JUMP JUMPDEST PUSH2 0xA48 JUMP JUMPDEST PUSH2 0x4EF JUMP JUMPDEST SWAP1 POP SWAP2 SWAP1 POP JUMP JUMPDEST PUSH0 DUP2 SWAP1 POP SWAP2 SWAP1 POP JUMP JUMPDEST PUSH2 0xA84 DUP4 PUSH2 0xA51 JUMP JUMPDEST PUSH2 0xA98 PUSH2 0xA90 DUP3 PUSH2 0xA72 JUMP JUMPDEST DUP5 DUP5 SLOAD PUSH2 0x9F7 JUMP JUMPDEST DUP3 SSTORE POP POP POP POP JUMP JUMPDEST PUSH0 PUSH0 SWAP1 POP SWAP1 JUMP JUMPDEST PUSH2 0xAAF PUSH2 0xAA0 JUMP JUMPDEST PUSH2 0xABA DUP2 DUP5 DUP5 PUSH2 0xA7B JUMP JUMPDEST POP POP POP JUMP JUMPDEST PUSH0 JUMPDEST DUP3 DUP2 LT ISZERO PUSH2 0xAE0 JUMPI PUSH2 0xAD5 PUSH0 DUP3 DUP5 ADD PUSH2 0xAA7 JUMP JUMPDEST PUSH1 0x1 DUP2 ADD SWAP1 POP PUSH2 0xAC1 JUMP JUMPDEST POP POP POP JUMP JUMPDEST PUSH1 0x1F DUP3 GT ISZERO PUSH2 0xB33 JUMPI DUP3 DUP3 GT ISZERO PUSH2 0xB32 JUMPI PUSH2 0xAFF DUP2 PUSH2 0x9CA JUMP JUMPDEST PUSH2 0xB08 DUP4 PUSH2 0x9DC JUMP JUMPDEST PUSH2 0xB11 DUP6 PUSH2 0x9DC JUMP JUMPDEST PUSH1 0x20 DUP7 LT ISZERO PUSH2 0xB1E JUMPI PUSH0 SWAP1 POP JUMPDEST DUP1 DUP4 ADD PUSH2 0xB2D DUP3 DUP5 SUB DUP3 PUSH2 0xABF JUMP JUMPDEST POP POP POP POP JUMPDEST JUMPDEST POP POP POP JUMP JUMPDEST PUSH0 DUP3 DUP3 SHR SWAP1 POP SWAP3 SWAP2 POP POP JUMP JUMPDEST PUSH0 PUSH2 0xB53 PUSH0 NOT DUP5 PUSH1 0x8 MUL PUSH2 0xB38 JUMP JUMPDEST NOT DUP1 DUP4 AND SWAP2 POP POP SWAP3 SWAP2 POP POP JUMP JUMPDEST PUSH0 PUSH2 0xB6B DUP4 DUP4 PUSH2 0xB44 JUMP JUMPDEST SWAP2 POP DUP3 PUSH1 0x2 MUL DUP3 OR SWAP1 POP SWAP3 SWAP2 POP POP JUMP JUMPDEST PUSH2 0xB84 DUP3 PUSH2 0x560 JUMP JUMPDEST PUSH8 0xFFFFFFFFFFFFFFFF DUP2 GT ISZERO PUSH2 0xB9D JUMPI PUSH2 0xB9C PUSH2 0x5F8 JUMP JUMPDEST JUMPDEST PUSH2 0xBA7 DUP3 SLOAD PUSH2 0x8C2 JUMP JUMPDEST PUSH2 0xBB2 DUP3 DUP3 DUP6 PUSH2 0xAE5 JUMP JUMPDEST PUSH0 PUSH1 0x20 SWAP1 POP PUSH1 0x1F DUP4 GT PUSH1 0x1 DUP2 EQ PUSH2 0xBE3 JUMPI PUSH0 DUP5 ISZERO PUSH2 0xBD1 JUMPI DUP3 DUP8 ADD MLOAD SWAP1 POP JUMPDEST PUSH2 0xBDB DUP6 DUP3 PUSH2 0xB60 JUMP JUMPDEST DUP7 SSTORE POP PUSH2 0xC42 JUMP JUMPDEST PUSH1 0x1F NOT DUP5 AND PUSH2 0xBF1 DUP7 PUSH2 0x9CA JUMP JUMPDEST PUSH0 JUMPDEST DUP3 DUP2 LT ISZERO PUSH2 0xC18 JUMPI DUP5 DUP10 ADD MLOAD DUP3 SSTORE PUSH1 0x1 DUP3 ADD SWAP2 POP PUSH1 0x20 DUP6 ADD SWAP5 POP PUSH1 0x20 DUP2 ADD SWAP1 POP PUSH2 0xBF3 JUMP JUMPDEST DUP7 DUP4 LT ISZERO PUSH2 0xC35 JUMPI DUP5 DUP10 ADD MLOAD PUSH2 0xC31 PUSH1 0x1F DUP10 AND DUP3 PUSH2 0xB44 JUMP JUMPDEST DUP4 SSTORE POP JUMPDEST PUSH1 0x1 PUSH1 0x2 DUP9 MUL ADD DUP9 SSTORE POP POP POP JUMPDEST POP POP POP POP POP POP JUMP INVALID LOG2 PUSH5 0x6970667358 0x22 SLT KECCAK256 JUMPF 0xB54F PUSH22 0xBF48C92EB0A89C6045946313607DC4DB4B4B67F152D3 PUSH11 0x12D6700F6364736F6C6343 STOP ADDMOD 0x22 STOP CALLER "
		},
		"gasEstimates": {
			"creation": {
				"codeDepositCost": "640000",
				"executionCost": "668",
				"totalCost": "640668"
			},
			"external": {
				"callFoo(address,string,uint256)": "infinite",
				"callNonExistentFunction(address)": "infinite",
				"data()": "infinite",
				"encodeCall(address,uint256)": "infinite"
			}
		},
		"methodIdentifiers": {
			"callFoo(address,string,uint256)": "dd5f151e",
			"callNonExistentFunction(address)": "172a57d7",
			"data()": "73d4a13a",
			"encodeCall(address,uint256)": "25adff1c"
		}
	},
	"abi": [
		{
			"inputs": [
				{
					"internalType": "address",
					"name": "testAddr",
					"type": "address"
				},
				{
					"internalType": "string",
					"name": "message",
					"type": "string"
				},
				{
					"internalType": "uint256",
					"name": "num",
					"type": "uint256"
				}
			],
			"name": "callFoo",
			"outputs": [],
			"stateMutability": "payable",
			"type": "function"
		},
		{
			"inputs": [
				{
					"internalType": "address",
					"name": "testAddr",
					"type": "address"
				}
			],
			"name": "callNonExistentFunction",
			"outputs": [],
			"stateMutability": "nonpayable",
			"type": "function"
		},
		{
			"inputs": [],
			"name": "data",
			"outputs": [
				{
					"internalType": "bytes",
					"name": "",
					"type": "bytes"
				}
			],
			"stateMutability": "view",
			"type": "function"
		},
		{
			"inputs": [
				{
					"internalType": "address",
					"name": "to",
					"type": "address"
				},
				{
					"internalType": "uint256",
					"name": "amount",
					"type": "uint256"
				}
			],
			"name": "encodeCall",
			"outputs": [
				{
					"internalType": "bytes",
					"name": "",
					"type": "bytes"
				}
			],
			"stateMutability": "pure",
			"type": "function"
		}
	]
}