{
	"data": {
		"bytecode": {
			"linkReferences": {},
			"object": "6080604052348015600e575f5ffd5b506103778061001c5f395ff3fe608060405234801561000f575f5ffd5b5060043610610055575f3560e01c80634ddc83291461005957806354353f2f14610077578063a38715c414610081578063a54998a71461009f578063f647416d146100a9575b5f5ffd5b6100616100c7565b60405161006e9190610238565b60405180910390f35b61007f6100cd565b005b610089610107565b60405161009691906102c1565b60405180910390f35b6100a7610144565b005b6100b1610169565b6040516100be91906102c1565b60405180910390f35b60025481565b6002546001545f546100df919061030e565b6100e9919061030e565b506100f26101a6565b506100fb6101e3565b50610104610169565b50565b60606040518060400160405280600681526020017f657846756e630000000000000000000000000000000000000000000000000000815250905090565b600254600154610154919061030e565b5061015d6101e3565b50610166610169565b50565b60606040518060400160405280600781526020017f70756246756e6300000000000000000000000000000000000000000000000000815250905090565b60606040518060400160405280600781526020017f70726946756e6300000000000000000000000000000000000000000000000000815250905090565b60606040518060400160405280600681526020017f696e46756e630000000000000000000000000000000000000000000000000000815250905090565b5f819050919050565b61023281610220565b82525050565b5f60208201905061024b5f830184610229565b92915050565b5f81519050919050565b5f82825260208201905092915050565b8281835e5f83830152505050565b5f601f19601f8301169050919050565b5f61029382610251565b61029d818561025b565b93506102ad81856020860161026b565b6102b681610279565b840191505092915050565b5f6020820190508181035f8301526102d98184610289565b905092915050565b7f4e487b71000000000000000000000000000000000000000000000000000000005f52601160045260245ffd5b5f61031882610220565b915061032383610220565b925082820190508082111561033b5761033a6102e1565b5b9291505056fea26469706673582212201fc141bec969e02a50ade1237d6c53d64da70bee043a4ce6a32f709235e2048964736f6c63430008220033",
			"opcodes": "PUSH1 0x80 PUSH1 0x40 MSTORE CALLVALUE DUP1 ISZERO PUSH1 0xE JUMPI PUSH0 PUSH0 REVERT JUMPDEST POP PUSH2 0x377 DUP1 PUSH2 0x1C PUSH0 CODECOPY PUSH0 RETURN INVALID PUSH1 0x80 PUSH1 0x40 MSTORE CALLVALUE DUP1 ISZERO PUSH2 0xF JUMPI PUSH0 PUSH0 REVERT JUMPDEST POP PUSH1 0x4 CALLDATASIZE LT PUSH2 0x55 JUMPI PUSH0 CALLDATALOAD PUSH1 0xE0 SHR DUP1 PUSH4 0x4DDC8329 EQ PUSH2 0x59 JUMPI DUP1 PUSH4 0x54353F2F EQ PUSH2 0x77 JUMPI DUP1 PUSH4 0xA38715C4 EQ PUSH2 0x81 JUMPI DUP1 PUSH4 0xA54998A7 EQ PUSH2 0x9F JUMPI DUP1 PUSH4 0xF647416D EQ PUSH2 0xA9 JUMPI JUMPDEST PUSH0 PUSH0 REVERT JUMPDEST PUSH2 0x61 PUSH2 0xC7 JUMP JUMPDEST PUSH1 0x40 MLOAD PUSH2 0x6E SWAP2 SWAP1 PUSH2 0x238 JUMP JUMPDEST PUSH1 0x40 MLOAD DUP1 SWAP2 SUB SWAP1 RETURN JUMPDEST PUSH2 0x7F PUSH2 0xCD JUMP JUMPDEST STOP JUMPDEST PUSH2 0x89 PUSH2 0x107 JUMP JUMPDEST PUSH1 0x40 MLOAD PUSH2 0x96 SWAP2 SWAP1 PUSH2 0x2C1 JUMP JUMPDEST PUSH1 0x40 MLOAD DUP1 SWAP2 SUB SWAP1 RETURN JUMPDEST PUSH2 0xA7 PUSH2 0x144 JUMP JUMPDEST STOP JUMPDEST PUSH2 0xB1 PUSH2 0x169 JUMP JUMPDEST PUSH1 0x40 MLOAD PUSH2 0xBE SWAP2 SWAP1 PUSH2 0x2C1 JUMP JUMPDEST PUSH1 0x40 MLOAD DUP1 SWAP2 SUB SWAP1 RETURN JUMPDEST PUSH1 0x2 SLOAD DUP2 JUMP JUMPDEST PUSH1 0x2 SLOAD PUSH1 0x1 SLOAD PUSH0 SLOAD PUSH2 0xDF SWAP2 SWAP1 PUSH2 0x30E JUMP JUMPDEST PUSH2 0xE9 SWAP2 SWAP1 PUSH2 0x30E JUMP JUMPDEST POP PUSH2 0xF2 PUSH2 0x1A6 JUMP JUMPDEST POP PUSH2 0xFB PUSH2 0x1E3 JUMP JUMPDEST POP PUSH2 0x104 PUSH2 0x169 JUMP JUMPDEST POP JUMP JUMPDEST PUSH1 0x60 PUSH1 0x40 MLOAD DUP1 PUSH1 0x40 ADD PUSH1 0x40 MSTORE DUP1 PUSH1 0x6 DUP2 MSTORE PUSH1 0x20 ADD PUSH32 0x657846756E630000000000000000000000000000000000000000000000000000 DUP2 MSTORE POP SWAP1 POP SWAP1 JUMP JUMPDEST PUSH1 0x2 SLOAD PUSH1 0x1 SLOAD PUSH2 0x154 SWAP2 SWAP1 PUSH2 0x30E JUMP JUMPDEST POP PUSH2 0x15D PUSH2 0x1E3 JUMP JUMPDEST POP PUSH2 0x166 PUSH2 0x169 JUMP JUMPDEST POP JUMP JUMPDEST PUSH1 0x60 PUSH1 0x40 MLOAD DUP1 PUSH1 0x40 ADD PUSH1 0x40 MSTORE DUP1 PUSH1 0x7 DUP2 MSTORE PUSH1 0x20 ADD PUSH32 0x70756246756E6300000000000000000000000000000000000000000000000000 DUP2 MSTORE POP SWAP1 POP SWAP1 JUMP JUMPDEST PUSH1 0x60 PUSH1 0x40 MLOAD DUP1 PUSH1 0x40 ADD PUSH1 0x40 MSTORE DUP1 PUSH1 0x7 DUP2 MSTORE PUSH1 0x20 ADD PUSH32 0x70726946756E6300000000000000000000000000000000000000000000000000 DUP2 MSTORE POP SWAP1 POP SWAP1 JUMP JUMPDEST PUSH1 0x60 PUSH1 0x40 MLOAD DUP1 PUSH1 0x40 ADD PUSH1 0x40 MSTORE DUP1 PUSH1 0x6 DUP2 MSTORE PUSH1 0x20 ADD PUSH32 0x696E46756E630000000000000000000000000000000000000000000000000000 DUP2 MSTORE POP SWAP1 POP SWAP1 JUMP JUMPDEST PUSH0 DUP2 SWAP1 POP SWAP2 SWAP1 POP JUMP JUMPDEST PUSH2 0x232 DUP2 PUSH2 0x220 JUMP JUMPDEST DUP3 MSTORE POP POP JUMP JUMPDEST PUSH0 PUSH1 0x20 DUP3 ADD SWAP1 POP PUSH2 0x24B PUSH0 DUP4 ADD DUP5 PUSH2 0x229 JUMP JUMPDEST SWAP3 SWAP2 POP POP JUMP JUMPDEST PUSH0 DUP2 MLOAD SWAP1 POP SWAP2 SWAP1 POP JUMP JUMPDEST PUSH0 DUP3 DUP3 MSTORE PUSH1 0x20 DUP3 ADD SWAP1 POP SWAP3 SWAP2 POP POP JUMP JUMPDEST DUP3 DUP2 DUP4 MCOPY PUSH0 DUP4 DUP4 ADD MSTORE POP POP POP JUMP JUMPDEST PUSH0 PUSH1 0x1F NOT PUSH1 0x1F DUP4 ADD AND SWAP1 POP SWAP2 SWAP1 POP JUMP JUMPDEST PUSH0 PUSH2 0x293 DUP3 PUSH2 0x251 JUMP JUMPDEST PUSH2 0x29D DUP2 DUP6 PUSH2 0x25B JUMP JUMPDEST SWAP4 POP PUSH2 0x2AD DUP2 DUP6 PUSH1 0x20 DUP7 ADD PUSH2 0x26B JUMP JUMPDEST PUSH2 0x2B6 DUP2 PUSH2 0x279 JUMP JUMPDEST DUP5 ADD SWAP2 POP POP SWAP3 SWAP2 POP POP JUMP JUMPDEST PUSH0 PUSH1 0x20 DUP3 ADD SWAP1 POP DUP2 DUP2 SUB PUSH0 DUP4 ADD MSTORE PUSH2 0x2D9 DUP2 DUP5 PUSH2 0x289 JUMP JUMPDEST SWAP1 POP SWAP3 SWAP2 POP POP JUMP JUMPDEST PUSH32 0x4E487B7100000000000000000000000000000000000000000000000000000000 PUSH0 MSTORE PUSH1 0x11 PUSH1 0x4 MSTORE PUSH1 0x24 PUSH0 REVERT JUMPDEST PUSH0 PUSH2 0x318 DUP3 PUSH2 0x220 JUMP JUMPDEST SWAP2 POP PUSH2 0x323 DUP4 PUSH2 0x220 JUMP JUMPDEST SWAP3 POP DUP3 DUP3 ADD SWAP1 POP DUP1 DUP3 GT ISZERO PUSH2 0x33B JUMPI PUSH2 0x33A PUSH2 0x2E1 JUMP JUMPDEST JUMPDEST SWAP3 SWAP2 POP POP JUMP INVALID LOG2 PUSH5 0x6970667358 0x22 SLT KECCAK256 0x1F 0xC1 COINBASE 0xBE 0xC9 PUSH10 0xE02A50ADE1237D6C53D6 0x4D 0xA7 SIGNEXTEND RETURNCONTRACT 0x4 GASPRICE 0x4C DUPN 0xA3 0x2F PUSH17 0x9235E2048964736F6C6343000822003300 "
		},
		"gasEstimates": {
			"creation": {
				"codeDepositCost": "177400",
				"executionCost": "218",
				"totalCost": "177618"
			},
			"external": {
				"exFunc()": "infinite",
				"example()": "infinite",
				"example2()": "infinite",
				"pubFunc()": "infinite",
				"pubVar()": "2403"
			}
		},
		"methodIdentifiers": {
			"exFunc()": "a38715c4",
			"example()": "54353f2f",
			"example2()": "a54998a7",
			"pubFunc()": "f647416d",
			"pubVar()": "4ddc8329"
		}
	},
	"abi": [
		{
			"inputs": [],
			"name": "exFunc",
			"outputs": [
				{
					"internalType": "string",
					"name": "",
					"type": "string"
				}
			],
			"stateMutability": "pure",
			"type": "function"
		},
		{
			"inputs": [],
			"name": "example",
			"outputs": [],
			"stateMutability": "view",
			"type": "function"
		},
		{
			"inputs": [],
			"name": "example2",
			"outputs": [],
			"stateMutability": "view",
			"type": "function"
		},
		{
			"inputs": [],
			"name": "pubFunc",
			"outputs": [
				{
					"internalType": "string",
					"name": "",
					"type": "string"
				}
			],
			"stateMutability": "pure",
			"type": "function"
		},
		{
			"inputs": [],
			"name": "pubVar",
			"outputs": [
				{
					"internalType": "uint256",
					"name": "",
					"type": "uint256"
				}
			],
			"stateMutability": "view",
			"type": "function"
		}
	]
}