{
	"data": {
		"bytecode": {
			"linkReferences": {},
			"object": "6080604052348015600e575f5ffd5b506102668061001c5f395ff3fe608060405234801561000f575f5ffd5b5060043610610034575f3560e01c8063188b85b414610038578063a92100cb14610068575b5f5ffd5b610052600480360381019061004d9190610136565b610072565b60405161005f9190610170565b60405180910390f35b6100706100ab565b005b5f5f5f5f90505b8381116100a157808261008c91906101b6565b91508080610099906101e9565b915050610079565b5080915050919050565b5f5f90505b600a8110156100d95760038103156100cc5760058103156100d9575b80806001019150506100b0565b505f600a90505b600a8110156100fc5780806100f4906101e9565b9150506100e0565b50565b5f5ffd5b5f819050919050565b61011581610103565b811461011f575f5ffd5b50565b5f813590506101308161010c565b92915050565b5f6020828403121561014b5761014a6100ff565b5b5f61015884828501610122565b91505092915050565b61016a81610103565b82525050565b5f6020820190506101835f830184610161565b92915050565b7f4e487b71000000000000000000000000000000000000000000000000000000005f52601160045260245ffd5b5f6101c082610103565b91506101cb83610103565b92508282019050808211156101e3576101e2610189565b5b92915050565b5f6101f382610103565b91507fffffffffffffffffffffffffffffffffffffffffffffffffffffffffffffffff820361022557610224610189565b5b60018201905091905056fea2646970667358221220cff7924da9558f6faef9bd032fd553fd66f9a9717e11dcb6e497452b9c50e94164736f6c63430008220033",
			"opcodes": "PUSH1 0x80 PUSH1 0x40 MSTORE CALLVALUE DUP1 ISZERO PUSH1 0xE JUMPI PUSH0 PUSH0 REVERT JUMPDEST POP PUSH2 0x266 DUP1 PUSH2 0x1C PUSH0 CODECOPY PUSH0 RETURN INVALID PUSH1 0x80 PUSH1 0x40 MSTORE CALLVALUE DUP1 ISZERO PUSH2 0xF JUMPI PUSH0 PUSH0 REVERT JUMPDEST POP PUSH1 0x4 CALLDATASIZE LT PUSH2 0x34 JUMPI PUSH0 CALLDATALOAD PUSH1 0xE0 SHR DUP1 PUSH4 0x188B85B4 EQ PUSH2 0x38 JUMPI DUP1 PUSH4 0xA92100CB EQ PUSH2 0x68 JUMPI JUMPDEST PUSH0 PUSH0 REVERT JUMPDEST PUSH2 0x52 PUSH1 0x4 DUP1 CALLDATASIZE SUB DUP2 ADD SWAP1 PUSH2 0x4D SWAP2 SWAP1 PUSH2 0x136 JUMP JUMPDEST PUSH2 0x72 JUMP JUMPDEST PUSH1 0x40 MLOAD PUSH2 0x5F SWAP2 SWAP1 PUSH2 0x170 JUMP JUMPDEST PUSH1 0x40 MLOAD DUP1 SWAP2 SUB SWAP1 RETURN JUMPDEST PUSH2 0x70 PUSH2 0xAB JUMP JUMPDEST STOP JUMPDEST PUSH0 PUSH0 PUSH0 PUSH0 SWAP1 POP JUMPDEST DUP4 DUP2 GT PUSH2 0xA1 JUMPI DUP1 DUP3 PUSH2 0x8C SWAP2 SWAP1 PUSH2 0x1B6 JUMP JUMPDEST SWAP2 POP DUP1 DUP1 PUSH2 0x99 SWAP1 PUSH2 0x1E9 JUMP JUMPDEST SWAP2 POP POP PUSH2 0x79 JUMP JUMPDEST POP DUP1 SWAP2 POP POP SWAP2 SWAP1 POP JUMP JUMPDEST PUSH0 PUSH0 SWAP1 POP JUMPDEST PUSH1 0xA DUP2 LT ISZERO PUSH2 0xD9 JUMPI PUSH1 0x3 DUP2 SUB ISZERO PUSH2 0xCC JUMPI PUSH1 0x5 DUP2 SUB ISZERO PUSH2 0xD9 JUMPI JUMPDEST DUP1 DUP1 PUSH1 0x1 ADD SWAP2 POP POP PUSH2 0xB0 JUMP JUMPDEST POP PUSH0 PUSH1 0xA SWAP1 POP JUMPDEST PUSH1 0xA DUP2 LT ISZERO PUSH2 0xFC JUMPI DUP1 DUP1 PUSH2 0xF4 SWAP1 PUSH2 0x1E9 JUMP JUMPDEST SWAP2 POP POP PUSH2 0xE0 JUMP JUMPDEST POP JUMP JUMPDEST PUSH0 PUSH0 REVERT JUMPDEST PUSH0 DUP2 SWAP1 POP SWAP2 SWAP1 POP JUMP JUMPDEST PUSH2 0x115 DUP2 PUSH2 0x103 JUMP JUMPDEST DUP2 EQ PUSH2 0x11F JUMPI PUSH0 PUSH0 REVERT JUMPDEST POP JUMP JUMPDEST PUSH0 DUP2 CALLDATALOAD SWAP1 POP PUSH2 0x130 DUP2 PUSH2 0x10C JUMP JUMPDEST SWAP3 SWAP2 POP POP JUMP JUMPDEST PUSH0 PUSH1 0x20 DUP3 DUP5 SUB SLT ISZERO PUSH2 0x14B JUMPI PUSH2 0x14A PUSH2 0xFF JUMP JUMPDEST JUMPDEST PUSH0 PUSH2 0x158 DUP5 DUP3 DUP6 ADD PUSH2 0x122 JUMP JUMPDEST SWAP2 POP POP SWAP3 SWAP2 POP POP JUMP JUMPDEST PUSH2 0x16A DUP2 PUSH2 0x103 JUMP JUMPDEST DUP3 MSTORE POP POP JUMP JUMPDEST PUSH0 PUSH1 0x20 DUP3 ADD SWAP1 POP PUSH2 0x183 PUSH0 DUP4 ADD DUP5 PUSH2 0x161 JUMP JUMPDEST SWAP3 SWAP2 POP POP JUMP JUMPDEST PUSH32 0x4E487B7100000000000000000000000000000000000000000000000000000000 PUSH0 MSTORE PUSH1 0x11 PUSH1 0x4 MSTORE PUSH1 0x24 PUSH0 REVERT JUMPDEST PUSH0 PUSH2 0x1C0 DUP3 PUSH2 0x103 JUMP JUMPDEST SWAP2 POP PUSH2 0x1CB DUP4 PUSH2 0x103 JUMP JUMPDEST SWAP3 POP DUP3 DUP3 ADD SWAP1 POP DUP1 DUP3 GT ISZERO PUSH2 0x1E3 JUMPI PUSH2 0x1E2 PUSH2 0x189 JUMP JUMPDEST JUMPDEST SWAP3 SWAP2 POP POP JUMP JUMPDEST PUSH0 PUSH2 0x1F3 DUP3 PUSH2 0x103 JUMP JUMPDEST SWAP2 POP PUSH32 0xFFFFFFFFFFFFFFFFFFFFFFFFFFFFFFFFFFFFFFFFFFFFFFFFFFFFFFFFFFFFFFFF DUP3 SUB PUSH2 0x225 JUMPI PUSH2 0x224 PUSH2 0x189 JUMP JUMPDEST JUMPDEST PUSH1 0x1 DUP3 ADD SWAP1 POP SWAP2 SWAP1 POP JUMP INVALID LOG2 PUSH5 0x6970667358 0x22 SLT KECCAK256 0xCF 0xF7 SWAP3 0x4D 0xA9 SSTORE DUP16 PUSH16 0xAEF9BD032FD553FD66F9A9717E11DCB6 RETF SWAP8 GASLIMIT 0x2B SWAP13 POP 0xE9 COINBASE PUSH5 0x736F6C6343 STOP ADDMOD 0x22 STOP CALLER "
		},
		"gasEstimates": {
			"creation": {
				"codeDepositCost": "122800",
				"executionCost": "169",
				"totalCost": "122969"
			},
			"external": {
				"loop()": "infinite",
				"sum(uint256)": "infinite"
			}
		},
		"methodIdentifiers": {
			"loop()": "a92100cb",
			"sum(uint256)": "188b85b4"
		}
	},
	"abi": [
		{
			"inputs": [],
			"name": "loop",
			"outputs": [],
			"stateMutability": "pure",
			"type": "function"
		},
		{
			"inputs": [
				{
					"internalType": "uint256",
					"name": "number",
					"type": "uint256"
				}
			],
			"name": "sum",
			"outputs": [
				{
					"internalType": "uint256",
					"name": "",
					"type": "uint256"
				}
			],
			"stateMutability": "pure",
			"type": "function"
		}
	]
}