{
	"data": {
		"bytecode": {
			"linkReferences": {},
			"object": "6080604052348015600e575f5ffd5b506101d68061001c5f395ff3fe608060405234801561000f575f5ffd5b5060043610610034575f3560e01c80635035df8114610038578063a9b0a24614610042575b5f5ffd5b61004061004c565b005b61004a610054565b005b5f5f81905550565b5f5f5403610097576040517f08c379a000000000000000000000000000000000000000000000000000000000815260040161008e9061010b565b60405180910390fd5b60025f5f8282546100a8919061015f565b92505081905550565b5f82825260208201905092915050565b7f4e756d626572206973207a65726f0000000000000000000000000000000000005f82015250565b5f6100f5600e836100b1565b9150610100826100c1565b602082019050919050565b5f6020820190508181035f830152610122816100e9565b9050919050565b5f819050919050565b7f4e487b71000000000000000000000000000000000000000000000000000000005f52601160045260245ffd5b5f61016982610129565b915061017483610129565b925082820261018281610129565b9150828204841483151761019957610198610132565b5b509291505056fea264697066735822122062f807683727a7fc1173b012e0b7aa79cc66e0f683ea0f70e886e7cafbefe9fc64736f6c63430008220033",
			"opcodes": "PUSH1 0x80 PUSH1 0x40 MSTORE CALLVALUE DUP1 ISZERO PUSH1 0xE JUMPI PUSH0 PUSH0 REVERT JUMPDEST POP PUSH2 0x1D6 DUP1 PUSH2 0x1C PUSH0 CODECOPY PUSH0 RETURN INVALID PUSH1 0x80 PUSH1 0x40 MSTORE CALLVALUE DUP1 ISZERO PUSH2 0xF JUMPI PUSH0 PUSH0 REVERT JUMPDEST POP PUSH1 0x4 CALLDATASIZE LT PUSH2 0x34 JUMPI PUSH0 CALLDATALOAD PUSH1 0xE0 SHR DUP1 PUSH4 0x5035DF81 EQ PUSH2 0x38 JUMPI DUP1 PUSH4 0xA9B0A246 EQ PUSH2 0x42 JUMPI JUMPDEST PUSH0 PUSH0 REVERT JUMPDEST PUSH2 0x40 PUSH2 0x4C JUMP JUMPDEST STOP JUMPDEST PUSH2 0x4A PUSH2 0x54 JUMP JUMPDEST STOP JUMPDEST PUSH0 PUSH0 DUP2 SWAP1 SSTORE POP JUMP JUMPDEST PUSH0 PUSH0 SLOAD SUB PUSH2 0x97 JUMPI PUSH1 0x40 MLOAD PUSH32 0x8C379A000000000000000000000000000000000000000000000000000000000 DUP2 MSTORE PUSH1 0x4 ADD PUSH2 0x8E SWAP1 PUSH2 0x10B JUMP JUMPDEST PUSH1 0x40 MLOAD DUP1 SWAP2 SUB SWAP1 REVERT JUMPDEST PUSH1 0x2 PUSH0 PUSH0 DUP3 DUP3 SLOAD PUSH2 0xA8 SWAP2 SWAP1 PUSH2 0x15F JUMP JUMPDEST SWAP3 POP POP DUP2 SWAP1 SSTORE POP JUMP JUMPDEST PUSH0 DUP3 DUP3 MSTORE PUSH1 0x20 DUP3 ADD SWAP1 POP SWAP3 SWAP2 POP POP JUMP JUMPDEST PUSH32 0x4E756D626572206973207A65726F000000000000000000000000000000000000 PUSH0 DUP3 ADD MSTORE POP JUMP JUMPDEST PUSH0 PUSH2 0xF5 PUSH1 0xE DUP4 PUSH2 0xB1 JUMP JUMPDEST SWAP2 POP PUSH2 0x100 DUP3 PUSH2 0xC1 JUMP JUMPDEST PUSH1 0x20 DUP3 ADD SWAP1 POP SWAP2 SWAP1 POP JUMP JUMPDEST PUSH0 PUSH1 0x20 DUP3 ADD SWAP1 POP DUP2 DUP2 SUB PUSH0 DUP4 ADD MSTORE PUSH2 0x122 DUP2 PUSH2 0xE9 JUMP JUMPDEST SWAP1 POP SWAP2 SWAP1 POP JUMP JUMPDEST PUSH0 DUP2 SWAP1 POP SWAP2 SWAP1 POP JUMP JUMPDEST PUSH32 0x4E487B7100000000000000000000000000000000000000000000000000000000 PUSH0 MSTORE PUSH1 0x11 PUSH1 0x4 MSTORE PUSH1 0x24 PUSH0 REVERT JUMPDEST PUSH0 PUSH2 0x169 DUP3 PUSH2 0x129 JUMP JUMPDEST SWAP2 POP PUSH2 0x174 DUP4 PUSH2 0x129 JUMP JUMPDEST SWAP3 POP DUP3 DUP3 MUL PUSH2 0x182 DUP2 PUSH2 0x129 JUMP JUMPDEST SWAP2 POP DUP3 DUP3 DIV DUP5 EQ DUP4 ISZERO OR PUSH2 0x199 JUMPI PUSH2 0x198 PUSH2 0x132 JUMP JUMPDEST JUMPDEST POP SWAP3 SWAP2 POP POP JUMP INVALID LOG2 PUSH5 0x6970667358 0x22 SLT KECCAK256 PUSH3 0xF80768 CALLDATACOPY 0x27 0xA7 0xFC GT PUSH20 0xB012E0B7AA79CC66E0F683EA0F70E886E7CAFBEF 0xE9 0xFC PUSH5 0x736F6C6343 STOP ADDMOD 0x22 STOP CALLER "
		},
		"gasEstimates": {
			"creation": {
				"codeDepositCost": "94000",
				"executionCost": "139",
				"totalCost": "94139"
			},
			"external": {
				"doubleNuamber()": "infinite",
				"resetNumber()": "5133"
			}
		},
		"methodIdentifiers": {
			"doubleNuamber()": "a9b0a246",
			"resetNumber()": "5035df81"
		}
	},
	"abi": [
		{
			"inputs": [],
			"name": "doubleNuamber",
			"outputs": [],
			"stateMutability": "nonpayable",
			"type": "function"
		},
		{
			"inputs": [],
			"name": "resetNumber",
			"outputs": [],
			"stateMutability": "nonpayable",
			"type": "function"
		}
	]
}