{
	"data": {
		"bytecode": {
			"linkReferences": {},
			"object": "6080604052348015600e575f5ffd5b506107548061001c5f395ff3fe608060405234801561000f575f5ffd5b5060043610610060575f3560e01c80631f1bd6921461006457806326a89e041461008257806364f135211461008c5780638381f58a146100ac578063890eba68146100ca578063e61e4008146100e8575b5f5ffd5b61006c610108565b6040516100799190610354565b60405180910390f35b61008a610194565b005b6100946101d7565b6040516100a3939291906103a6565b60405180910390f35b6100b4610283565b6040516100c191906103e2565b60405180910390f35b6100d2610288565b6040516100df91906103fb565b60405180910390f35b6100f061029a565b6040516100ff939291906103a6565b60405180910390f35b6002805461011590610441565b80601f016020809104026020016040519081016040528092919081815260200182805461014190610441565b801561018c5780601f106101635761010080835404028352916020019161018c565b820191905f5260205f20905b81548152906001019060200180831161016f57829003601f168201915b505050505081565b61019c61029a565b5f5f60015f60025f8691905090816101b4919061064f565b508591906101000a81548160ff0219169083151502179055508491905055505050565b5f5f60605f5460015f9054906101000a900460ff1660028080546101fa90610441565b80601f016020809104026020016040519081016040528092919081815260200182805461022690610441565b80156102715780601f1061024857610100808354040283529160200191610271565b820191905f5260205f20905b81548152906001019060200180831161025457829003601f168201915b50505050509050925092509250909192565b5f5481565b60015f9054906101000a900460ff1681565b5f5f606061010060016040518060400160405280601081526020017f48656c6c6f2c20536f6c69646974792100000000000000000000000000000000815250925092509250909192565b5f81519050919050565b5f82825260208201905092915050565b8281835e5f83830152505050565b5f601f19601f8301169050919050565b5f610326826102e4565b61033081856102ee565b93506103408185602086016102fe565b6103498161030c565b840191505092915050565b5f6020820190508181035f83015261036c818461031c565b905092915050565b5f819050919050565b61038681610374565b82525050565b5f8115159050919050565b6103a08161038c565b82525050565b5f6060820190506103b95f83018661037d565b6103c66020830185610397565b81810360408301526103d8818461031c565b9050949350505050565b5f6020820190506103f55f83018461037d565b92915050565b5f60208201905061040e5f830184610397565b92915050565b7f4e487b71000000000000000000000000000000000000000000000000000000005f52602260045260245ffd5b5f600282049050600182168061045857607f821691505b60208210810361046b5761046a610414565b5b50919050565b7f4e487b71000000000000000000000000000000000000000000000000000000005f52604160045260245ffd5b5f819050815f5260205f209050919050565b5f6020601f8301049050919050565b5f82821b905092915050565b5f600883026104fa7fffffffffffffffffffffffffffffffffffffffffffffffffffffffffffffffff826104bf565b61050486836104bf565b95508019841693508086168417925050509392505050565b5f819050919050565b5f61053f61053a61053584610374565b61051c565b610374565b9050919050565b5f819050919050565b61055883610525565b61056c61056482610546565b8484546104cb565b825550505050565b5f5f905090565b610583610574565b61058e81848461054f565b505050565b5f5b828110156105b4576105a95f82840161057b565b600181019050610595565b505050565b601f8211156106075782821115610606576105d38161049e565b6105dc836104b0565b6105e5856104b0565b60208610156105f2575f90505b80830161060182840382610593565b505050505b5b505050565b5f82821c905092915050565b5f6106275f198460080261060c565b1980831691505092915050565b5f61063f8383610618565b9150826002028217905092915050565b610658826102e4565b67ffffffffffffffff81111561067157610670610471565b5b61067b8254610441565b6106868282856105b9565b5f60209050601f8311600181146106b7575f84156106a5578287015190505b6106af8582610634565b865550610716565b601f1984166106c58661049e565b5f5b828110156106ec578489015182556001820191506020850194506020810190506106c7565b868310156107095784890151610705601f891682610618565b8355505b6001600288020188555050505b50505050505056fea2646970667358221220d9387ae40c5316e3579f0f58ee456d67a1de8fd9579bc0fdf0fce687fc32ec0564736f6c63430008220033",
			"opcodes": "PUSH1 0x80 PUSH1 0x40 MSTORE CALLVALUE DUP1 ISZERO PUSH1 0xE JUMPI PUSH0 PUSH0 REVERT JUMPDEST POP PUSH2 0x754 DUP1 PUSH2 0x1C PUSH0 CODECOPY PUSH0 RETURN INVALID PUSH1 0x80 PUSH1 0x40 MSTORE CALLVALUE DUP1 ISZERO PUSH2 0xF JUMPI PUSH0 PUSH0 REVERT JUMPDEST POP PUSH1 0x4 CALLDATASIZE LT PUSH2 0x60 JUMPI PUSH0 CALLDATALOAD PUSH1 0xE0 SHR DUP1 PUSH4 0x1F1BD692 EQ PUSH2 0x64 JUMPI DUP1 PUSH4 0x26A89E04 EQ PUSH2 0x82 JUMPI DUP1 PUSH4 0x64F13521 EQ PUSH2 0x8C JUMPI DUP1 PUSH4 0x8381F58A EQ PUSH2 0xAC JUMPI DUP1 PUSH4 0x890EBA68 EQ PUSH2 0xCA JUMPI DUP1 PUSH4 0xE61E4008 EQ PUSH2 0xE8 JUMPI JUMPDEST PUSH0 PUSH0 REVERT JUMPDEST PUSH2 0x6C PUSH2 0x108 JUMP JUMPDEST PUSH1 0x40 MLOAD PUSH2 0x79 SWAP2 SWAP1 PUSH2 0x354 JUMP JUMPDEST PUSH1 0x40 MLOAD DUP1 SWAP2 SUB SWAP1 RETURN JUMPDEST PUSH2 0x8A PUSH2 0x194 JUMP JUMPDEST STOP JUMPDEST PUSH2 0x94 PUSH2 0x1D7 JUMP JUMPDEST PUSH1 0x40 MLOAD PUSH2 0xA3 SWAP4 SWAP3 SWAP2 SWAP1 PUSH2 0x3A6 JUMP JUMPDEST PUSH1 0x40 MLOAD DUP1 SWAP2 SUB SWAP1 RETURN JUMPDEST PUSH2 0xB4 PUSH2 0x283 JUMP JUMPDEST PUSH1 0x40 MLOAD PUSH2 0xC1 SWAP2 SWAP1 PUSH2 0x3E2 JUMP JUMPDEST PUSH1 0x40 MLOAD DUP1 SWAP2 SUB SWAP1 RETURN JUMPDEST PUSH2 0xD2 PUSH2 0x288 JUMP JUMPDEST PUSH1 0x40 MLOAD PUSH2 0xDF SWAP2 SWAP1 PUSH2 0x3FB JUMP JUMPDEST PUSH1 0x40 MLOAD DUP1 SWAP2 SUB SWAP1 RETURN JUMPDEST PUSH2 0xF0 PUSH2 0x29A JUMP JUMPDEST PUSH1 0x40 MLOAD PUSH2 0xFF SWAP4 SWAP3 SWAP2 SWAP1 PUSH2 0x3A6 JUMP JUMPDEST PUSH1 0x40 MLOAD DUP1 SWAP2 SUB SWAP1 RETURN JUMPDEST PUSH1 0x2 DUP1 SLOAD PUSH2 0x115 SWAP1 PUSH2 0x441 JUMP JUMPDEST DUP1 PUSH1 0x1F ADD PUSH1 0x20 DUP1 SWAP2 DIV MUL PUSH1 0x20 ADD PUSH1 0x40 MLOAD SWAP1 DUP2 ADD PUSH1 0x40 MSTORE DUP1 SWAP3 SWAP2 SWAP1 DUP2 DUP2 MSTORE PUSH1 0x20 ADD DUP3 DUP1 SLOAD PUSH2 0x141 SWAP1 PUSH2 0x441 JUMP JUMPDEST DUP1 ISZERO PUSH2 0x18C JUMPI DUP1 PUSH1 0x1F LT PUSH2 0x163 JUMPI PUSH2 0x100 DUP1 DUP4 SLOAD DIV MUL DUP4 MSTORE SWAP2 PUSH1 0x20 ADD SWAP2 PUSH2 0x18C JUMP JUMPDEST DUP3 ADD SWAP2 SWAP1 PUSH0 MSTORE PUSH1 0x20 PUSH0 KECCAK256 SWAP1 JUMPDEST DUP2 SLOAD DUP2 MSTORE SWAP1 PUSH1 0x1 ADD SWAP1 PUSH1 0x20 ADD DUP1 DUP4 GT PUSH2 0x16F JUMPI DUP3 SWAP1 SUB PUSH1 0x1F AND DUP3 ADD SWAP2 JUMPDEST POP POP POP POP POP DUP2 JUMP JUMPDEST PUSH2 0x19C PUSH2 0x29A JUMP JUMPDEST PUSH0 PUSH0 PUSH1 0x1 PUSH0 PUSH1 0x2 PUSH0 DUP7 SWAP2 SWAP1 POP SWAP1 DUP2 PUSH2 0x1B4 SWAP2 SWAP1 PUSH2 0x64F JUMP JUMPDEST POP DUP6 SWAP2 SWAP1 PUSH2 0x100 EXP DUP2 SLOAD DUP2 PUSH1 0xFF MUL NOT AND SWAP1 DUP4 ISZERO ISZERO MUL OR SWAP1 SSTORE POP DUP5 SWAP2 SWAP1 POP SSTORE POP POP POP JUMP JUMPDEST PUSH0 PUSH0 PUSH1 0x60 PUSH0 SLOAD PUSH1 0x1 PUSH0 SWAP1 SLOAD SWAP1 PUSH2 0x100 EXP SWAP1 DIV PUSH1 0xFF AND PUSH1 0x2 DUP1 DUP1 SLOAD PUSH2 0x1FA SWAP1 PUSH2 0x441 JUMP JUMPDEST DUP1 PUSH1 0x1F ADD PUSH1 0x20 DUP1 SWAP2 DIV MUL PUSH1 0x20 ADD PUSH1 0x40 MLOAD SWAP1 DUP2 ADD PUSH1 0x40 MSTORE DUP1 SWAP3 SWAP2 SWAP1 DUP2 DUP2 MSTORE PUSH1 0x20 ADD DUP3 DUP1 SLOAD PUSH2 0x226 SWAP1 PUSH2 0x441 JUMP JUMPDEST DUP1 ISZERO PUSH2 0x271 JUMPI DUP1 PUSH1 0x1F LT PUSH2 0x248 JUMPI PUSH2 0x100 DUP1 DUP4 SLOAD DIV MUL DUP4 MSTORE SWAP2 PUSH1 0x20 ADD SWAP2 PUSH2 0x271 JUMP JUMPDEST DUP3 ADD SWAP2 SWAP1 PUSH0 MSTORE PUSH1 0x20 PUSH0 KECCAK256 SWAP1 JUMPDEST DUP2 SLOAD DUP2 MSTORE SWAP1 PUSH1 0x1 ADD SWAP1 PUSH1 0x20 ADD DUP1 DUP4 GT PUSH2 0x254 JUMPI DUP3 SWAP1 SUB PUSH1 0x1F AND DUP3 ADD SWAP2 JUMPDEST POP POP POP POP POP SWAP1 POP SWAP3 POP SWAP3 POP SWAP3 POP SWAP1 SWAP2 SWAP3 JUMP JUMPDEST PUSH0 SLOAD DUP2 JUMP JUMPDEST PUSH1 0x1 PUSH0 SWAP1 SLOAD SWAP1 PUSH2 0x100 EXP SWAP1 DIV PUSH1 0xFF AND DUP2 JUMP JUMPDEST PUSH0 PUSH0 PUSH1 0x60 PUSH2 0x100 PUSH1 0x1 PUSH1 0x40 MLOAD DUP1 PUSH1 0x40 ADD PUSH1 0x40 MSTORE DUP1 PUSH1 0x10 DUP2 MSTORE PUSH1 0x20 ADD PUSH32 0x48656C6C6F2C20536F6C69646974792100000000000000000000000000000000 DUP2 MSTORE POP SWAP3 POP SWAP3 POP SWAP3 POP SWAP1 SWAP2 SWAP3 JUMP JUMPDEST PUSH0 DUP2 MLOAD SWAP1 POP SWAP2 SWAP1 POP JUMP JUMPDEST PUSH0 DUP3 DUP3 MSTORE PUSH1 0x20 DUP3 ADD SWAP1 POP SWAP3 SWAP2 POP POP JUMP JUMPDEST DUP3 DUP2 DUP4 MCOPY PUSH0 DUP4 DUP4 ADD MSTORE POP POP POP JUMP JUMPDEST PUSH0 PUSH1 0x1F NOT PUSH1 0x1F DUP4 ADD AND SWAP1 POP SWAP2 SWAP1 POP JUMP JUMPDEST PUSH0 PUSH2 0x326 DUP3 PUSH2 0x2E4 JUMP JUMPDEST PUSH2 0x330 DUP2 DUP6 PUSH2 0x2EE JUMP JUMPDEST SWAP4 POP PUSH2 0x340 DUP2 DUP6 PUSH1 0x20 DUP7 ADD PUSH2 0x2FE JUMP JUMPDEST PUSH2 0x349 DUP2 PUSH2 0x30C JUMP JUMPDEST DUP5 ADD SWAP2 POP POP SWAP3 SWAP2 POP POP JUMP JUMPDEST PUSH0 PUSH1 0x20 DUP3 ADD SWAP1 POP DUP2 DUP2 SUB PUSH0 DUP4 ADD MSTORE PUSH2 0x36C DUP2 DUP5 PUSH2 0x31C JUMP JUMPDEST SWAP1 POP SWAP3 SWAP2 POP POP JUMP JUMPDEST PUSH0 DUP2 SWAP1 POP SWAP2 SWAP1 POP JUMP JUMPDEST PUSH2 0x386 DUP2 PUSH2 0x374 JUMP JUMPDEST DUP3 MSTORE POP POP JUMP JUMPDEST PUSH0 DUP2 ISZERO ISZERO SWAP1 POP SWAP2 SWAP1 POP JUMP JUMPDEST PUSH2 0x3A0 DUP2 PUSH2 0x38C JUMP JUMPDEST DUP3 MSTORE POP POP JUMP JUMPDEST PUSH0 PUSH1 0x60 DUP3 ADD SWAP1 POP PUSH2 0x3B9 PUSH0 DUP4 ADD DUP7 PUSH2 0x37D JUMP JUMPDEST PUSH2 0x3C6 PUSH1 0x20 DUP4 ADD DUP6 PUSH2 0x397 JUMP JUMPDEST DUP2 DUP2 SUB PUSH1 0x40 DUP4 ADD MSTORE PUSH2 0x3D8 DUP2 DUP5 PUSH2 0x31C JUMP JUMPDEST SWAP1 POP SWAP5 SWAP4 POP POP POP POP JUMP JUMPDEST PUSH0 PUSH1 0x20 DUP3 ADD SWAP1 POP PUSH2 0x3F5 PUSH0 DUP4 ADD DUP5 PUSH2 0x37D JUMP JUMPDEST SWAP3 SWAP2 POP POP JUMP JUMPDEST PUSH0 PUSH1 0x20 DUP3 ADD SWAP1 POP PUSH2 0x40E PUSH0 DUP4 ADD DUP5 PUSH2 0x397 JUMP JUMPDEST SWAP3 SWAP2 POP POP JUMP JUMPDEST PUSH32 0x4E487B7100000000000000000000000000000000000000000000000000000000 PUSH0 MSTORE PUSH1 0x22 PUSH1 0x4 MSTORE PUSH1 0x24 PUSH0 REVERT JUMPDEST PUSH0 PUSH1 0x2 DUP3 DIV SWAP1 POP PUSH1 0x1 DUP3 AND DUP1 PUSH2 0x458 JUMPI PUSH1 0x7F DUP3 AND SWAP2 POP JUMPDEST PUSH1 0x20 DUP3 LT DUP2 SUB PUSH2 0x46B JUMPI PUSH2 0x46A PUSH2 0x414 JUMP JUMPDEST JUMPDEST POP SWAP2 SWAP1 POP JUMP JUMPDEST PUSH32 0x4E487B7100000000000000000000000000000000000000000000000000000000 PUSH0 MSTORE PUSH1 0x41 PUSH1 0x4 MSTORE PUSH1 0x24 PUSH0 REVERT JUMPDEST PUSH0 DUP2 SWAP1 POP DUP2 PUSH0 MSTORE PUSH1 0x20 PUSH0 KECCAK256 SWAP1 POP SWAP2 SWAP1 POP JUMP JUMPDEST PUSH0 PUSH1 0x20 PUSH1 0x1F DUP4 ADD DIV SWAP1 POP SWAP2 SWAP1 POP JUMP JUMPDEST PUSH0 DUP3 DUP3 SHL SWAP1 POP SWAP3 SWAP2 POP POP JUMP JUMPDEST PUSH0 PUSH1 0x8 DUP4 MUL PUSH2 0x4FA PUSH32 0xFFFFFFFFFFFFFFFFFFFFFFFFFFFFFFFFFFFFFFFFFFFFFFFFFFFFFFFFFFFFFFFF DUP3 PUSH2 0x4BF JUMP JUMPDEST PUSH2 0x504 DUP7 DUP4 PUSH2 0x4BF JUMP JUMPDEST SWAP6 POP DUP1 NOT DUP5 AND SWAP4 POP DUP1 DUP7 AND DUP5 OR SWAP3 POP POP POP SWAP4 SWAP3 POP POP POP JUMP JUMPDEST PUSH0 DUP2 SWAP1 POP SWAP2 SWAP1 POP JUMP JUMPDEST PUSH0 PUSH2 0x53F PUSH2 0x53A PUSH2 0x535 DUP5 PUSH2 0x374 JUMP JUMPDEST PUSH2 0x51C JUMP JUMPDEST PUSH2 0x374 JUMP JUMPDEST SWAP1 POP SWAP2 SWAP1 POP JUMP JUMPDEST PUSH0 DUP2 SWAP1 POP SWAP2 SWAP1 POP JUMP JUMPDEST PUSH2 0x558 DUP4 PUSH2 0x525 JUMP JUMPDEST PUSH2 0x56C PUSH2 0x564 DUP3 PUSH2 0x546 JUMP JUMPDEST DUP5 DUP5 SLOAD PUSH2 0x4CB JUMP JUMPDEST DUP3 SSTORE POP POP POP POP JUMP JUMPDEST PUSH0 PUSH0 SWAP1 POP SWAP1 JUMP JUMPDEST PUSH2 0x583 PUSH2 0x574 JUMP JUMPDEST PUSH2 0x58E DUP2 DUP5 DUP5 PUSH2 0x54F JUMP JUMPDEST POP POP POP JUMP JUMPDEST PUSH0 JUMPDEST DUP3 DUP2 LT ISZERO PUSH2 0x5B4 JUMPI PUSH2 0x5A9 PUSH0 DUP3 DUP5 ADD PUSH2 0x57B JUMP JUMPDEST PUSH1 0x1 DUP2 ADD SWAP1 POP PUSH2 0x595 JUMP JUMPDEST POP POP POP JUMP JUMPDEST PUSH1 0x1F DUP3 GT ISZERO PUSH2 0x607 JUMPI DUP3 DUP3 GT ISZERO PUSH2 0x606 JUMPI PUSH2 0x5D3 DUP2 PUSH2 0x49E JUMP JUMPDEST PUSH2 0x5DC DUP4 PUSH2 0x4B0 JUMP JUMPDEST PUSH2 0x5E5 DUP6 PUSH2 0x4B0 JUMP JUMPDEST PUSH1 0x20 DUP7 LT ISZERO PUSH2 0x5F2 JUMPI PUSH0 SWAP1 POP JUMPDEST DUP1 DUP4 ADD PUSH2 0x601 DUP3 DUP5 SUB DUP3 PUSH2 0x593 JUMP JUMPDEST POP POP POP POP JUMPDEST JUMPDEST POP POP POP JUMP JUMPDEST PUSH0 DUP3 DUP3 SHR SWAP1 POP SWAP3 SWAP2 POP POP JUMP JUMPDEST PUSH0 PUSH2 0x627 PUSH0 NOT DUP5 PUSH1 0x8 MUL PUSH2 0x60C JUMP JUMPDEST NOT DUP1 DUP4 AND SWAP2 POP POP SWAP3 SWAP2 POP POP JUMP JUMPDEST PUSH0 PUSH2 0x63F DUP4 DUP4 PUSH2 0x618 JUMP JUMPDEST SWAP2 POP DUP3 PUSH1 0x2 MUL DUP3 OR SWAP1 POP SWAP3 SWAP2 POP POP JUMP JUMPDEST PUSH2 0x658 DUP3 PUSH2 0x2E4 JUMP JUMPDEST PUSH8 0xFFFFFFFFFFFFFFFF DUP2 GT ISZERO PUSH2 0x671 JUMPI PUSH2 0x670 PUSH2 0x471 JUMP JUMPDEST JUMPDEST PUSH2 0x67B DUP3 SLOAD PUSH2 0x441 JUMP JUMPDEST PUSH2 0x686 DUP3 DUP3 DUP6 PUSH2 0x5B9 JUMP JUMPDEST PUSH0 PUSH1 0x20 SWAP1 POP PUSH1 0x1F DUP4 GT PUSH1 0x1 DUP2 EQ PUSH2 0x6B7 JUMPI PUSH0 DUP5 ISZERO PUSH2 0x6A5 JUMPI DUP3 DUP8 ADD MLOAD SWAP1 POP JUMPDEST PUSH2 0x6AF DUP6 DUP3 PUSH2 0x634 JUMP JUMPDEST DUP7 SSTORE POP PUSH2 0x716 JUMP JUMPDEST PUSH1 0x1F NOT DUP5 AND PUSH2 0x6C5 DUP7 PUSH2 0x49E JUMP JUMPDEST PUSH0 JUMPDEST DUP3 DUP2 LT ISZERO PUSH2 0x6EC JUMPI DUP5 DUP10 ADD MLOAD DUP3 SSTORE PUSH1 0x1 DUP3 ADD SWAP2 POP PUSH1 0x20 DUP6 ADD SWAP5 POP PUSH1 0x20 DUP2 ADD SWAP1 POP PUSH2 0x6C7 JUMP JUMPDEST DUP7 DUP4 LT ISZERO PUSH2 0x709 JUMPI DUP5 DUP10 ADD MLOAD PUSH2 0x705 PUSH1 0x1F DUP10 AND DUP3 PUSH2 0x618 JUMP JUMPDEST DUP4 SSTORE POP JUMPDEST PUSH1 0x1 PUSH1 0x2 DUP9 MUL ADD DUP9 SSTORE POP POP POP JUMPDEST POP POP POP POP POP POP JUMP INVALID LOG2 PUSH5 0x6970667358 0x22 SLT KECCAK256 0xD9 CODESIZE PUSH27 0xE40C5316E3579F0F58EE456D67A1DE8FD9579BC0FDF0FCE687FC32 EOFCREATE 0x5 PUSH5 0x736F6C6343 STOP ADDMOD 0x22 STOP CALLER "
		},
		"gasEstimates": {
			"creation": {
				"codeDepositCost": "375200",
				"executionCost": "409",
				"totalCost": "375609"
			},
			"external": {
				"captureOutputs()": "infinite",
				"displayOutputs()": "infinite",
				"flag()": "2532",
				"number()": "2468",
				"returnMultiple()": "infinite",
				"text()": "infinite"
			}
		},
		"methodIdentifiers": {
			"captureOutputs()": "26a89e04",
			"displayOutputs()": "64f13521",
			"flag()": "890eba68",
			"number()": "8381f58a",
			"returnMultiple()": "e61e4008",
			"text()": "1f1bd692"
		}
	},
	"abi": [
		{
			"inputs": [],
			"name": "captureOutputs",
			"outputs": [],
			"stateMutability": "nonpayable",
			"type": "function"
		},
		{
			"inputs": [],
			"name": "displayOutputs",
			"outputs": [
				{
					"internalType": "uint256",
					"name": "",
					"type": "uint256"
				},
				{
					"internalType": "bool",
					"name": "",
					"type": "bool"
				},
				{
					"internalType": "string",
					"name": "",
					"type": "string"
				}
			],
			"stateMutability": "view",
			"type": "function"
		},
		{
			"inputs": [],
			"name": "flag",
			"outputs": [
				{
					"internalType": "bool",
					"name": "",
					"type": "bool"
				}
			],
			"stateMutability": "view",
			"type": "function"
		},
		{
			"inputs": [],
			"name": "number",
			"outputs": [
				{
					"internalType": "uint256",
					"name": "",
					"type": "uint256"
				}
			],
			"stateMutability": "view",
			"type": "function"
		},
		{
			"inputs": [],
			"name": "returnMultiple",
			"outputs": [
				{
					"internalType": "uint256",
					"name": "",
					"type": "uint256"
				},
				{
					"internalType": "bool",
					"name": "",
					"type": "bool"
				},
				{
					"internalType": "string",
					"name": "",
					"type": "string"
				}
			],
			"stateMutability": "pure",
			"type": "function"
		},
		{
			"inputs": [],
			"name": "text",
			"outputs": [
				{
					"internalType": "string",
					"name": "",
					"type": "string"
				}
			],
			"stateMutability": "view",
			"type": "function"
		}
	]
}