{
	"data": {
		"bytecode": {
			"linkReferences": {},
			"object": "6080604052348015600e575f5ffd5b506107aa8061001c5f395ff3fe608060405234801561000f575f5ffd5b506004361061004a575f3560e01c80633aab4e441461004e5780635547828c1461007e57806363985b1a146100ae5780636f1cc217146100de575b5f5ffd5b610068600480360381019061006391906103a4565b61010e565b6040516100759190610428565b60405180910390f35b61009860048036038101906100939190610441565b610143565b6040516100a59190610517565b60405180910390f35b6100c860048036038101906100c39190610441565b61016f565b6040516100d59190610517565b60405180910390f35b6100f860048036038101906100f39190610537565b61019b565b6040516101059190610517565b60405180910390f35b5f83838360405160200161012493929190610668565b6040516020818303038152906040528051906020012090509392505050565b606082826040516020016101589291906106e8565b604051602081830303815290604052905092915050565b6060828260405160200161018492919061071d565b604051602081830303815290604052905092915050565b60608383836040516020016101b293929190610740565b60405160208183030381529060405290509392505050565b5f604051905090565b5f5ffd5b5f5ffd5b5f5ffd5b5f5ffd5b5f601f19601f8301169050919050565b7f4e487b71000000000000000000000000000000000000000000000000000000005f52604160045260245ffd5b610229826101e3565b810181811067ffffffffffffffff82111715610248576102476101f3565b5b80604052505050565b5f61025a6101ca565b90506102668282610220565b919050565b5f67ffffffffffffffff821115610285576102846101f3565b5b61028e826101e3565b9050602081019050919050565b828183375f83830152505050565b5f6102bb6102b68461026b565b610251565b9050828152602081018484840111156102d7576102d66101df565b5b6102e284828561029b565b509392505050565b5f82601f8301126102fe576102fd6101db565b5b813561030e8482602086016102a9565b91505092915050565b5f819050919050565b61032981610317565b8114610333575f5ffd5b50565b5f8135905061034481610320565b92915050565b5f73ffffffffffffffffffffffffffffffffffffffff82169050919050565b5f6103738261034a565b9050919050565b61038381610369565b811461038d575f5ffd5b50565b5f8135905061039e8161037a565b92915050565b5f5f5f606084860312156103bb576103ba6101d3565b5b5f84013567ffffffffffffffff8111156103d8576103d76101d7565b5b6103e4868287016102ea565b93505060206103f586828701610336565b925050604061040686828701610390565b9150509250925092565b5f819050919050565b61042281610410565b82525050565b5f60208201905061043b5f830184610419565b92915050565b5f5f60408385031215610457576104566101d3565b5b5f83013567ffffffffffffffff811115610474576104736101d7565b5b610480858286016102ea565b925050602083013567ffffffffffffffff8111156104a1576104a06101d7565b5b6104ad858286016102ea565b9150509250929050565b5f81519050919050565b5f82825260208201905092915050565b8281835e5f83830152505050565b5f6104e9826104b7565b6104f381856104c1565b93506105038185602086016104d1565b61050c816101e3565b840191505092915050565b5f6020820190508181035f83015261052f81846104df565b905092915050565b5f5f5f6060848603121561054e5761054d6101d3565b5b5f84013567ffffffffffffffff81111561056b5761056a6101d7565b5b610577868287016102ea565b935050602061058886828701610336565b925050604084013567ffffffffffffffff8111156105a9576105a86101d7565b5b6105b5868287016102ea565b9150509250925092565b5f81519050919050565b5f81905092915050565b5f6105dd826105bf565b6105e781856105c9565b93506105f78185602086016104d1565b80840191505092915050565b5f819050919050565b61061d61061882610317565b610603565b82525050565b5f8160601b9050919050565b5f61063982610623565b9050919050565b5f61064a8261062f565b9050919050565b61066261065d82610369565b610640565b82525050565b5f61067382866105d3565b915061067f828561060c565b60208201915061068f8284610651565b601482019150819050949350505050565b5f82825260208201905092915050565b5f6106ba826105bf565b6106c481856106a0565b93506106d48185602086016104d1565b6106dd816101e3565b840191505092915050565b5f6040820190508181035f83015261070081856106b0565b9050818103602083015261071481846106b0565b90509392505050565b5f61072882856105d3565b915061073482846105d3565b91508190509392505050565b5f61074b82866105d3565b9150610757828561060c565b60208201915061076782846105d3565b915081905094935050505056fea2646970667358221220105650807e285e02ee8968c10c2b68b33f1ceafe54646c793197852e9017cb6d64736f6c63430008220033",
			"opcodes": "PUSH1 0x80 PUSH1 0x40 MSTORE CALLVALUE DUP1 ISZERO PUSH1 0xE JUMPI PUSH0 PUSH0 REVERT JUMPDEST POP PUSH2 0x7AA DUP1 PUSH2 0x1C PUSH0 CODECOPY PUSH0 RETURN INVALID PUSH1 0x80 PUSH1 0x40 MSTORE CALLVALUE DUP1 ISZERO PUSH2 0xF JUMPI PUSH0 PUSH0 REVERT JUMPDEST POP PUSH1 0x4 CALLDATASIZE LT PUSH2 0x4A JUMPI PUSH0 CALLDATALOAD PUSH1 0xE0 SHR DUP1 PUSH4 0x3AAB4E44 EQ PUSH2 0x4E JUMPI DUP1 PUSH4 0x5547828C EQ PUSH2 0x7E JUMPI DUP1 PUSH4 0x63985B1A EQ PUSH2 0xAE JUMPI DUP1 PUSH4 0x6F1CC217 EQ PUSH2 0xDE JUMPI JUMPDEST PUSH0 PUSH0 REVERT JUMPDEST PUSH2 0x68 PUSH1 0x4 DUP1 CALLDATASIZE SUB DUP2 ADD SWAP1 PUSH2 0x63 SWAP2 SWAP1 PUSH2 0x3A4 JUMP JUMPDEST PUSH2 0x10E JUMP JUMPDEST PUSH1 0x40 MLOAD PUSH2 0x75 SWAP2 SWAP1 PUSH2 0x428 JUMP JUMPDEST PUSH1 0x40 MLOAD DUP1 SWAP2 SUB SWAP1 RETURN JUMPDEST PUSH2 0x98 PUSH1 0x4 DUP1 CALLDATASIZE SUB DUP2 ADD SWAP1 PUSH2 0x93 SWAP2 SWAP1 PUSH2 0x441 JUMP JUMPDEST PUSH2 0x143 JUMP JUMPDEST PUSH1 0x40 MLOAD PUSH2 0xA5 SWAP2 SWAP1 PUSH2 0x517 JUMP JUMPDEST PUSH1 0x40 MLOAD DUP1 SWAP2 SUB SWAP1 RETURN JUMPDEST PUSH2 0xC8 PUSH1 0x4 DUP1 CALLDATASIZE SUB DUP2 ADD SWAP1 PUSH2 0xC3 SWAP2 SWAP1 PUSH2 0x441 JUMP JUMPDEST PUSH2 0x16F JUMP JUMPDEST PUSH1 0x40 MLOAD PUSH2 0xD5 SWAP2 SWAP1 PUSH2 0x517 JUMP JUMPDEST PUSH1 0x40 MLOAD DUP1 SWAP2 SUB SWAP1 RETURN JUMPDEST PUSH2 0xF8 PUSH1 0x4 DUP1 CALLDATASIZE SUB DUP2 ADD SWAP1 PUSH2 0xF3 SWAP2 SWAP1 PUSH2 0x537 JUMP JUMPDEST PUSH2 0x19B JUMP JUMPDEST PUSH1 0x40 MLOAD PUSH2 0x105 SWAP2 SWAP1 PUSH2 0x517 JUMP JUMPDEST PUSH1 0x40 MLOAD DUP1 SWAP2 SUB SWAP1 RETURN JUMPDEST PUSH0 DUP4 DUP4 DUP4 PUSH1 0x40 MLOAD PUSH1 0x20 ADD PUSH2 0x124 SWAP4 SWAP3 SWAP2 SWAP1 PUSH2 0x668 JUMP JUMPDEST PUSH1 0x40 MLOAD PUSH1 0x20 DUP2 DUP4 SUB SUB DUP2 MSTORE SWAP1 PUSH1 0x40 MSTORE DUP1 MLOAD SWAP1 PUSH1 0x20 ADD KECCAK256 SWAP1 POP SWAP4 SWAP3 POP POP POP JUMP JUMPDEST PUSH1 0x60 DUP3 DUP3 PUSH1 0x40 MLOAD PUSH1 0x20 ADD PUSH2 0x158 SWAP3 SWAP2 SWAP1 PUSH2 0x6E8 JUMP JUMPDEST PUSH1 0x40 MLOAD PUSH1 0x20 DUP2 DUP4 SUB SUB DUP2 MSTORE SWAP1 PUSH1 0x40 MSTORE SWAP1 POP SWAP3 SWAP2 POP POP JUMP JUMPDEST PUSH1 0x60 DUP3 DUP3 PUSH1 0x40 MLOAD PUSH1 0x20 ADD PUSH2 0x184 SWAP3 SWAP2 SWAP1 PUSH2 0x71D JUMP JUMPDEST PUSH1 0x40 MLOAD PUSH1 0x20 DUP2 DUP4 SUB SUB DUP2 MSTORE SWAP1 PUSH1 0x40 MSTORE SWAP1 POP SWAP3 SWAP2 POP POP JUMP JUMPDEST PUSH1 0x60 DUP4 DUP4 DUP4 PUSH1 0x40 MLOAD PUSH1 0x20 ADD PUSH2 0x1B2 SWAP4 SWAP3 SWAP2 SWAP1 PUSH2 0x740 JUMP JUMPDEST PUSH1 0x40 MLOAD PUSH1 0x20 DUP2 DUP4 SUB SUB DUP2 MSTORE SWAP1 PUSH1 0x40 MSTORE SWAP1 POP SWAP4 SWAP3 POP POP POP JUMP JUMPDEST PUSH0 PUSH1 0x40 MLOAD SWAP1 POP SWAP1 JUMP JUMPDEST PUSH0 PUSH0 REVERT JUMPDEST PUSH0 PUSH0 REVERT JUMPDEST PUSH0 PUSH0 REVERT JUMPDEST PUSH0 PUSH0 REVERT JUMPDEST PUSH0 PUSH1 0x1F NOT PUSH1 0x1F DUP4 ADD AND SWAP1 POP SWAP2 SWAP1 POP JUMP JUMPDEST PUSH32 0x4E487B7100000000000000000000000000000000000000000000000000000000 PUSH0 MSTORE PUSH1 0x41 PUSH1 0x4 MSTORE PUSH1 0x24 PUSH0 REVERT JUMPDEST PUSH2 0x229 DUP3 PUSH2 0x1E3 JUMP JUMPDEST DUP2 ADD DUP2 DUP2 LT PUSH8 0xFFFFFFFFFFFFFFFF DUP3 GT OR ISZERO PUSH2 0x248 JUMPI PUSH2 0x247 PUSH2 0x1F3 JUMP JUMPDEST JUMPDEST DUP1 PUSH1 0x40 MSTORE POP POP POP JUMP JUMPDEST PUSH0 PUSH2 0x25A PUSH2 0x1CA JUMP JUMPDEST SWAP1 POP PUSH2 0x266 DUP3 DUP3 PUSH2 0x220 JUMP JUMPDEST SWAP2 SWAP1 POP JUMP JUMPDEST PUSH0 PUSH8 0xFFFFFFFFFFFFFFFF DUP3 GT ISZERO PUSH2 0x285 JUMPI PUSH2 0x284 PUSH2 0x1F3 JUMP JUMPDEST JUMPDEST PUSH2 0x28E DUP3 PUSH2 0x1E3 JUMP JUMPDEST SWAP1 POP PUSH1 0x20 DUP2 ADD SWAP1 POP SWAP2 SWAP1 POP JUMP JUMPDEST DUP3 DUP2 DUP4 CALLDATACOPY PUSH0 DUP4 DUP4 ADD MSTORE POP POP POP JUMP JUMPDEST PUSH0 PUSH2 0x2BB PUSH2 0x2B6 DUP5 PUSH2 0x26B JUMP JUMPDEST PUSH2 0x251 JUMP JUMPDEST SWAP1 POP DUP3 DUP2 MSTORE PUSH1 0x20 DUP2 ADD DUP5 DUP5 DUP5 ADD GT ISZERO PUSH2 0x2D7 JUMPI PUSH2 0x2D6 PUSH2 0x1DF JUMP JUMPDEST JUMPDEST PUSH2 0x2E2 DUP5 DUP3 DUP6 PUSH2 0x29B JUMP JUMPDEST POP SWAP4 SWAP3 POP POP POP JUMP JUMPDEST PUSH0 DUP3 PUSH1 0x1F DUP4 ADD SLT PUSH2 0x2FE JUMPI PUSH2 0x2FD PUSH2 0x1DB JUMP JUMPDEST JUMPDEST DUP2 CALLDATALOAD PUSH2 0x30E DUP5 DUP3 PUSH1 0x20 DUP7 ADD PUSH2 0x2A9 JUMP JUMPDEST SWAP2 POP POP SWAP3 SWAP2 POP POP JUMP JUMPDEST PUSH0 DUP2 SWAP1 POP SWAP2 SWAP1 POP JUMP JUMPDEST PUSH2 0x329 DUP2 PUSH2 0x317 JUMP JUMPDEST DUP2 EQ PUSH2 0x333 JUMPI PUSH0 PUSH0 REVERT JUMPDEST POP JUMP JUMPDEST PUSH0 DUP2 CALLDATALOAD SWAP1 POP PUSH2 0x344 DUP2 PUSH2 0x320 JUMP JUMPDEST SWAP3 SWAP2 POP POP JUMP JUMPDEST PUSH0 PUSH20 0xFFFFFFFFFFFFFFFFFFFFFFFFFFFFFFFFFFFFFFFF DUP3 AND SWAP1 POP SWAP2 SWAP1 POP JUMP JUMPDEST PUSH0 PUSH2 0x373 DUP3 PUSH2 0x34A JUMP JUMPDEST SWAP1 POP SWAP2 SWAP1 POP JUMP JUMPDEST PUSH2 0x383 DUP2 PUSH2 0x369 JUMP JUMPDEST DUP2 EQ PUSH2 0x38D JUMPI PUSH0 PUSH0 REVERT JUMPDEST POP JUMP JUMPDEST PUSH0 DUP2 CALLDATALOAD SWAP1 POP PUSH2 0x39E DUP2 PUSH2 0x37A JUMP JUMPDEST SWAP3 SWAP2 POP POP JUMP JUMPDEST PUSH0 PUSH0 PUSH0 PUSH1 0x60 DUP5 DUP7 SUB SLT ISZERO PUSH2 0x3BB JUMPI PUSH2 0x3BA PUSH2 0x1D3 JUMP JUMPDEST JUMPDEST PUSH0 DUP5 ADD CALLDATALOAD PUSH8 0xFFFFFFFFFFFFFFFF DUP2 GT ISZERO PUSH2 0x3D8 JUMPI PUSH2 0x3D7 PUSH2 0x1D7 JUMP JUMPDEST JUMPDEST PUSH2 0x3E4 DUP7 DUP3 DUP8 ADD PUSH2 0x2EA JUMP JUMPDEST SWAP4 POP POP PUSH1 0x20 PUSH2 0x3F5 DUP7 DUP3 DUP8 ADD PUSH2 0x336 JUMP JUMPDEST SWAP3 POP POP PUSH1 0x40 PUSH2 0x406 DUP7 DUP3 DUP8 ADD PUSH2 0x390 JUMP JUMPDEST SWAP2 POP POP SWAP3 POP SWAP3 POP SWAP3 JUMP JUMPDEST PUSH0 DUP2 SWAP1 POP SWAP2 SWAP1 POP JUMP JUMPDEST PUSH2 0x422 DUP2 PUSH2 0x410 JUMP JUMPDEST DUP3 MSTORE POP POP JUMP JUMPDEST PUSH0 PUSH1 0x20 DUP3 ADD SWAP1 POP PUSH2 0x43B PUSH0 DUP4 ADD DUP5 PUSH2 0x419 JUMP JUMPDEST SWAP3 SWAP2 POP POP JUMP JUMPDEST PUSH0 PUSH0 PUSH1 0x40 DUP4 DUP6 SUB SLT ISZERO PUSH2 0x457 JUMPI PUSH2 0x456 PUSH2 0x1D3 JUMP JUMPDEST JUMPDEST PUSH0 DUP4 ADD CALLDATALOAD PUSH8 0xFFFFFFFFFFFFFFFF DUP2 GT ISZERO PUSH2 0x474 JUMPI PUSH2 0x473 PUSH2 0x1D7 JUMP JUMPDEST JUMPDEST PUSH2 0x480 DUP6 DUP3 DUP7 ADD PUSH2 0x2EA JUMP JUMPDEST SWAP3 POP POP PUSH1 0x20 DUP4 ADD CALLDATALOAD PUSH8 0xFFFFFFFFFFFFFFFF DUP2 GT ISZERO PUSH2 0x4A1 JUMPI PUSH2 0x4A0 PUSH2 0x1D7 JUMP JUMPDEST JUMPDEST PUSH2 0x4AD DUP6 DUP3 DUP7 ADD PUSH2 0x2EA JUMP JUMPDEST SWAP2 POP POP SWAP3 POP SWAP3 SWAP1 POP JUMP JUMPDEST PUSH0 DUP2 MLOAD SWAP1 POP SWAP2 SWAP1 POP JUMP JUMPDEST PUSH0 DUP3 DUP3 MSTORE PUSH1 0x20 DUP3 ADD SWAP1 POP SWAP3 SWAP2 POP POP JUMP JUMPDEST DUP3 DUP2 DUP4 MCOPY PUSH0 DUP4 DUP4 ADD MSTORE POP POP POP JUMP JUMPDEST PUSH0 PUSH2 0x4E9 DUP3 PUSH2 0x4B7 JUMP JUMPDEST PUSH2 0x4F3 DUP2 DUP6 PUSH2 0x4C1 JUMP JUMPDEST SWAP4 POP PUSH2 0x503 DUP2 DUP6 PUSH1 0x20 DUP7 ADD PUSH2 0x4D1 JUMP JUMPDEST PUSH2 0x50C DUP2 PUSH2 0x1E3 JUMP JUMPDEST DUP5 ADD SWAP2 POP POP SWAP3 SWAP2 POP POP JUMP JUMPDEST PUSH0 PUSH1 0x20 DUP3 ADD SWAP1 POP DUP2 DUP2 SUB PUSH0 DUP4 ADD MSTORE PUSH2 0x52F DUP2 DUP5 PUSH2 0x4DF JUMP JUMPDEST SWAP1 POP SWAP3 SWAP2 POP POP JUMP JUMPDEST PUSH0 PUSH0 PUSH0 PUSH1 0x60 DUP5 DUP7 SUB SLT ISZERO PUSH2 0x54E JUMPI PUSH2 0x54D PUSH2 0x1D3 JUMP JUMPDEST JUMPDEST PUSH0 DUP5 ADD CALLDATALOAD PUSH8 0xFFFFFFFFFFFFFFFF DUP2 GT ISZERO PUSH2 0x56B JUMPI PUSH2 0x56A PUSH2 0x1D7 JUMP JUMPDEST JUMPDEST PUSH2 0x577 DUP7 DUP3 DUP8 ADD PUSH2 0x2EA JUMP JUMPDEST SWAP4 POP POP PUSH1 0x20 PUSH2 0x588 DUP7 DUP3 DUP8 ADD PUSH2 0x336 JUMP JUMPDEST SWAP3 POP POP PUSH1 0x40 DUP5 ADD CALLDATALOAD PUSH8 0xFFFFFFFFFFFFFFFF DUP2 GT ISZERO PUSH2 0x5A9 JUMPI PUSH2 0x5A8 PUSH2 0x1D7 JUMP JUMPDEST JUMPDEST PUSH2 0x5B5 DUP7 DUP3 DUP8 ADD PUSH2 0x2EA JUMP JUMPDEST SWAP2 POP POP SWAP3 POP SWAP3 POP SWAP3 JUMP JUMPDEST PUSH0 DUP2 MLOAD SWAP1 POP SWAP2 SWAP1 POP JUMP JUMPDEST PUSH0 DUP2 SWAP1 POP SWAP3 SWAP2 POP POP JUMP JUMPDEST PUSH0 PUSH2 0x5DD DUP3 PUSH2 0x5BF JUMP JUMPDEST PUSH2 0x5E7 DUP2 DUP6 PUSH2 0x5C9 JUMP JUMPDEST SWAP4 POP PUSH2 0x5F7 DUP2 DUP6 PUSH1 0x20 DUP7 ADD PUSH2 0x4D1 JUMP JUMPDEST DUP1 DUP5 ADD SWAP2 POP POP SWAP3 SWAP2 POP POP JUMP JUMPDEST PUSH0 DUP2 SWAP1 POP SWAP2 SWAP1 POP JUMP JUMPDEST PUSH2 0x61D PUSH2 0x618 DUP3 PUSH2 0x317 JUMP JUMPDEST PUSH2 0x603 JUMP JUMPDEST DUP3 MSTORE POP POP JUMP JUMPDEST PUSH0 DUP2 PUSH1 0x60 SHL SWAP1 POP SWAP2 SWAP1 POP JUMP JUMPDEST PUSH0 PUSH2 0x639 DUP3 PUSH2 0x623 JUMP JUMPDEST SWAP1 POP SWAP2 SWAP1 POP JUMP JUMPDEST PUSH0 PUSH2 0x64A DUP3 PUSH2 0x62F JUMP JUMPDEST SWAP1 POP SWAP2 SWAP1 POP JUMP JUMPDEST PUSH2 0x662 PUSH2 0x65D DUP3 PUSH2 0x369 JUMP JUMPDEST PUSH2 0x640 JUMP JUMPDEST DUP3 MSTORE POP POP JUMP JUMPDEST PUSH0 PUSH2 0x673 DUP3 DUP7 PUSH2 0x5D3 JUMP JUMPDEST SWAP2 POP PUSH2 0x67F DUP3 DUP6 PUSH2 0x60C JUMP JUMPDEST PUSH1 0x20 DUP3 ADD SWAP2 POP PUSH2 0x68F DUP3 DUP5 PUSH2 0x651 JUMP JUMPDEST PUSH1 0x14 DUP3 ADD SWAP2 POP DUP2 SWAP1 POP SWAP5 SWAP4 POP POP POP POP JUMP JUMPDEST PUSH0 DUP3 DUP3 MSTORE PUSH1 0x20 DUP3 ADD SWAP1 POP SWAP3 SWAP2 POP POP JUMP JUMPDEST PUSH0 PUSH2 0x6BA DUP3 PUSH2 0x5BF JUMP JUMPDEST PUSH2 0x6C4 DUP2 DUP6 PUSH2 0x6A0 JUMP JUMPDEST SWAP4 POP PUSH2 0x6D4 DUP2 DUP6 PUSH1 0x20 DUP7 ADD PUSH2 0x4D1 JUMP JUMPDEST PUSH2 0x6DD DUP2 PUSH2 0x1E3 JUMP JUMPDEST DUP5 ADD SWAP2 POP POP SWAP3 SWAP2 POP POP JUMP JUMPDEST PUSH0 PUSH1 0x40 DUP3 ADD SWAP1 POP DUP2 DUP2 SUB PUSH0 DUP4 ADD MSTORE PUSH2 0x700 DUP2 DUP6 PUSH2 0x6B0 JUMP JUMPDEST SWAP1 POP DUP2 DUP2 SUB PUSH1 0x20 DUP4 ADD MSTORE PUSH2 0x714 DUP2 DUP5 PUSH2 0x6B0 JUMP JUMPDEST SWAP1 POP SWAP4 SWAP3 POP POP POP JUMP JUMPDEST PUSH0 PUSH2 0x728 DUP3 DUP6 PUSH2 0x5D3 JUMP JUMPDEST SWAP2 POP PUSH2 0x734 DUP3 DUP5 PUSH2 0x5D3 JUMP JUMPDEST SWAP2 POP DUP2 SWAP1 POP SWAP4 SWAP3 POP POP POP JUMP JUMPDEST PUSH0 PUSH2 0x74B DUP3 DUP7 PUSH2 0x5D3 JUMP JUMPDEST SWAP2 POP PUSH2 0x757 DUP3 DUP6 PUSH2 0x60C JUMP JUMPDEST PUSH1 0x20 DUP3 ADD SWAP2 POP PUSH2 0x767 DUP3 DUP5 PUSH2 0x5D3 JUMP JUMPDEST SWAP2 POP DUP2 SWAP1 POP SWAP5 SWAP4 POP POP POP POP JUMP INVALID LOG2 PUSH5 0x6970667358 0x22 SLT KECCAK256 LT JUMP POP DUP1 PUSH31 0x285E02EE8968C10C2B68B33F1CEAFE54646C793197852E9017CB6D64736F6C PUSH4 0x43000822 STOP CALLER "
		},
		"gasEstimates": {
			"creation": {
				"codeDepositCost": "392400",
				"executionCost": "428",
				"totalCost": "392828"
			},
			"external": {
				"collisionFunction(string,uint256,string)": "infinite",
				"encodeFunction(string,string)": "infinite",
				"encodePackedFunction(string,string)": "infinite",
				"hashFunction(string,uint256,address)": "infinite"
			}
		},
		"methodIdentifiers": {
			"collisionFunction(string,uint256,string)": "6f1cc217",
			"encodeFunction(string,string)": "5547828c",
			"encodePackedFunction(string,string)": "63985b1a",
			"hashFunction(string,uint256,address)": "3aab4e44"
		}
	},
	"abi": [
		{
			"inputs": [
				{
					"internalType": "string",
					"name": "text0",
					"type": "string"
				},
				{
					"internalType": "uint256",
					"name": "num",
					"type": "uint256"
				},
				{
					"internalType": "string",
					"name": "text1",
					"type": "string"
				}
			],
			"name": "collisionFunction",
			"outputs": [
				{
					"internalType": "bytes",
					"name": "",
					"type": "bytes"
				}
			],
			"stateMutability": "pure",
			"type": "function"
		},
		{
			"inputs": [
				{
					"internalType": "string",
					"name": "text0",
					"type": "string"
				},
				{
					"internalType": "string",
					"name": "text1",
					"type": "string"
				}
			],
			"name": "encodeFunction",
			"outputs": [
				{
					"internalType": "bytes",
					"name": "",
					"type": "bytes"
				}
			],
			"stateMutability": "pure",
			"type": "function"
		},
		{
			"inputs": [
				{
					"internalType": "string",
					"name": "text0",
					"type": "string"
				},
				{
					"internalType": "string",
					"name": "text1",
					"type": "string"
				}
			],
			"name": "encodePackedFunction",
			"outputs": [
				{
					"internalType": "bytes",
					"name": "",
					"type": "bytes"
				}
			],
			"stateMutability": "pure",
			"type": "function"
		},
		{
			"inputs": [
				{
					"internalType": "string",
					"name": "text",
					"type": "string"
				},
				{
					"internalType": "uint256",
					"name": "num",
					"type": "uint256"
				},
				{
					"internalType": "address",
					"name": "addr",
					"type": "address"
				}
			],
			"name": "hashFunction",
			"outputs": [
				{
					"internalType": "bytes32",
					"name": "",
					"type": "bytes32"
				}
			],
			"stateMutability": "pure",
			"type": "function"
		}
	]
}