{
	"data": {
		"bytecode": {
			"linkReferences": {},
			"object": "6080604052348015600e575f5ffd5b506102f28061001c5f395ff3fe608060405234801561000f575f5ffd5b5060043610610034575f3560e01c806322d41e2d146100385780632ddbd13a14610054575b5f5ffd5b610052600480360381019061004d9190610156565b610072565b005b61005c6100e8565b60405161006991906101b9565b60405180910390f35b5f5f5490505f5b838390508110156100dc575f848483818110610098576100976101d2565b5b9050602002013590505f6002826100af919061022c565b1480156100bc5750606481105b156100d05780836100cd9190610289565b92505b50806001019050610079565b50805f81905550505050565b5f5481565b5f5ffd5b5f5ffd5b5f5ffd5b5f5ffd5b5f5ffd5b5f5f83601f840112610116576101156100f5565b5b8235905067ffffffffffffffff811115610133576101326100f9565b5b60208301915083602082028301111561014f5761014e6100fd565b5b9250929050565b5f5f6020838503121561016c5761016b6100ed565b5b5f83013567ffffffffffffffff811115610189576101886100f1565b5b61019585828601610101565b92509250509250929050565b5f819050919050565b6101b3816101a1565b82525050565b5f6020820190506101cc5f8301846101aa565b92915050565b7f4e487b71000000000000000000000000000000000000000000000000000000005f52603260045260245ffd5b7f4e487b71000000000000000000000000000000000000000000000000000000005f52601260045260245ffd5b5f610236826101a1565b9150610241836101a1565b925082610251576102506101ff565b5b828206905092915050565b7f4e487b71000000000000000000000000000000000000000000000000000000005f52601160045260245ffd5b5f610293826101a1565b915061029e836101a1565b92508282019050808211156102b6576102b561025c565b5b9291505056fea2646970667358221220c78bd6b761107d8c43c7d19e2528e6c21ad03d667b8237a6665b7c3efd7384b964736f6c63430008220033",
			"opcodes": "PUSH1 0x80 PUSH1 0x40 MSTORE CALLVALUE DUP1 ISZERO PUSH1 0xE JUMPI PUSH0 PUSH0 REVERT JUMPDEST POP PUSH2 0x2F2 DUP1 PUSH2 0x1C PUSH0 CODECOPY PUSH0 RETURN INVALID PUSH1 0x80 PUSH1 0x40 MSTORE CALLVALUE DUP1 ISZERO PUSH2 0xF JUMPI PUSH0 PUSH0 REVERT JUMPDEST POP PUSH1 0x4 CALLDATASIZE LT PUSH2 0x34 JUMPI PUSH0 CALLDATALOAD PUSH1 0xE0 SHR DUP1 PUSH4 0x22D41E2D EQ PUSH2 0x38 JUMPI DUP1 PUSH4 0x2DDBD13A EQ PUSH2 0x54 JUMPI JUMPDEST PUSH0 PUSH0 REVERT JUMPDEST PUSH2 0x52 PUSH1 0x4 DUP1 CALLDATASIZE SUB DUP2 ADD SWAP1 PUSH2 0x4D SWAP2 SWAP1 PUSH2 0x156 JUMP JUMPDEST PUSH2 0x72 JUMP JUMPDEST STOP JUMPDEST PUSH2 0x5C PUSH2 0xE8 JUMP JUMPDEST PUSH1 0x40 MLOAD PUSH2 0x69 SWAP2 SWAP1 PUSH2 0x1B9 JUMP JUMPDEST PUSH1 0x40 MLOAD DUP1 SWAP2 SUB SWAP1 RETURN JUMPDEST PUSH0 PUSH0 SLOAD SWAP1 POP PUSH0 JUMPDEST DUP4 DUP4 SWAP1 POP DUP2 LT ISZERO PUSH2 0xDC JUMPI PUSH0 DUP5 DUP5 DUP4 DUP2 DUP2 LT PUSH2 0x98 JUMPI PUSH2 0x97 PUSH2 0x1D2 JUMP JUMPDEST JUMPDEST SWAP1 POP PUSH1 0x20 MUL ADD CALLDATALOAD SWAP1 POP PUSH0 PUSH1 0x2 DUP3 PUSH2 0xAF SWAP2 SWAP1 PUSH2 0x22C JUMP JUMPDEST EQ DUP1 ISZERO PUSH2 0xBC JUMPI POP PUSH1 0x64 DUP2 LT JUMPDEST ISZERO PUSH2 0xD0 JUMPI DUP1 DUP4 PUSH2 0xCD SWAP2 SWAP1 PUSH2 0x289 JUMP JUMPDEST SWAP3 POP JUMPDEST POP DUP1 PUSH1 0x1 ADD SWAP1 POP PUSH2 0x79 JUMP JUMPDEST POP DUP1 PUSH0 DUP2 SWAP1 SSTORE POP POP POP POP JUMP JUMPDEST PUSH0 SLOAD DUP2 JUMP JUMPDEST PUSH0 PUSH0 REVERT JUMPDEST PUSH0 PUSH0 REVERT JUMPDEST PUSH0 PUSH0 REVERT JUMPDEST PUSH0 PUSH0 REVERT JUMPDEST PUSH0 PUSH0 REVERT JUMPDEST PUSH0 PUSH0 DUP4 PUSH1 0x1F DUP5 ADD SLT PUSH2 0x116 JUMPI PUSH2 0x115 PUSH2 0xF5 JUMP JUMPDEST JUMPDEST DUP3 CALLDATALOAD SWAP1 POP PUSH8 0xFFFFFFFFFFFFFFFF DUP2 GT ISZERO PUSH2 0x133 JUMPI PUSH2 0x132 PUSH2 0xF9 JUMP JUMPDEST JUMPDEST PUSH1 0x20 DUP4 ADD SWAP2 POP DUP4 PUSH1 0x20 DUP3 MUL DUP4 ADD GT ISZERO PUSH2 0x14F JUMPI PUSH2 0x14E PUSH2 0xFD JUMP JUMPDEST JUMPDEST SWAP3 POP SWAP3 SWAP1 POP JUMP JUMPDEST PUSH0 PUSH0 PUSH1 0x20 DUP4 DUP6 SUB SLT ISZERO PUSH2 0x16C JUMPI PUSH2 0x16B PUSH2 0xED JUMP JUMPDEST JUMPDEST PUSH0 DUP4 ADD CALLDATALOAD PUSH8 0xFFFFFFFFFFFFFFFF DUP2 GT ISZERO PUSH2 0x189 JUMPI PUSH2 0x188 PUSH2 0xF1 JUMP JUMPDEST JUMPDEST PUSH2 0x195 DUP6 DUP3 DUP7 ADD PUSH2 0x101 JUMP JUMPDEST SWAP3 POP SWAP3 POP POP SWAP3 POP SWAP3 SWAP1 POP JUMP JUMPDEST PUSH0 DUP2 SWAP1 POP SWAP2 SWAP1 POP JUMP JUMPDEST PUSH2 0x1B3 DUP2 PUSH2 0x1A1 JUMP JUMPDEST DUP3 MSTORE POP POP JUMP JUMPDEST PUSH0 PUSH1 0x20 DUP3 ADD SWAP1 POP PUSH2 0x1CC PUSH0 DUP4 ADD DUP5 PUSH2 0x1AA JUMP JUMPDEST SWAP3 SWAP2 POP POP JUMP JUMPDEST PUSH32 0x4E487B7100000000000000000000000000000000000000000000000000000000 PUSH0 MSTORE PUSH1 0x32 PUSH1 0x4 MSTORE PUSH1 0x24 PUSH0 REVERT JUMPDEST PUSH32 0x4E487B7100000000000000000000000000000000000000000000000000000000 PUSH0 MSTORE PUSH1 0x12 PUSH1 0x4 MSTORE PUSH1 0x24 PUSH0 REVERT JUMPDEST PUSH0 PUSH2 0x236 DUP3 PUSH2 0x1A1 JUMP JUMPDEST SWAP2 POP PUSH2 0x241 DUP4 PUSH2 0x1A1 JUMP JUMPDEST SWAP3 POP DUP3 PUSH2 0x251 JUMPI PUSH2 0x250 PUSH2 0x1FF JUMP JUMPDEST JUMPDEST DUP3 DUP3 MOD SWAP1 POP SWAP3 SWAP2 POP POP JUMP JUMPDEST PUSH32 0x4E487B7100000000000000000000000000000000000000000000000000000000 PUSH0 MSTORE PUSH1 0x11 PUSH1 0x4 MSTORE PUSH1 0x24 PUSH0 REVERT JUMPDEST PUSH0 PUSH2 0x293 DUP3 PUSH2 0x1A1 JUMP JUMPDEST SWAP2 POP PUSH2 0x29E DUP4 PUSH2 0x1A1 JUMP JUMPDEST SWAP3 POP DUP3 DUP3 ADD SWAP1 POP DUP1 DUP3 GT ISZERO PUSH2 0x2B6 JUMPI PUSH2 0x2B5 PUSH2 0x25C JUMP JUMPDEST JUMPDEST SWAP3 SWAP2 POP POP JUMP INVALID LOG2 PUSH5 0x6970667358 0x22 SLT KECCAK256 0xC7 DUP12 0xD6 0xB7 PUSH2 0x107D DUP13 NUMBER 0xC7 DATALOADN 0x9E25 0x28 DUPN 0xC2 BYTE 0xD0 RETURNDATASIZE PUSH7 0x7B8237A6665B7C RETURNDATACOPY REVERT PUSH20 0x84B964736F6C6343000822003300000000000000 "
		},
		"gasEstimates": {
			"creation": {
				"codeDepositCost": "150800",
				"executionCost": "194",
				"totalCost": "150994"
			},
			"external": {
				"optimizeGasUsage(uint256[])": "infinite",
				"total()": "2424"
			}
		},
		"methodIdentifiers": {
			"optimizeGasUsage(uint256[])": "22d41e2d",
			"total()": "2ddbd13a"
		}
	},
	"abi": [
		{
			"inputs": [
				{
					"internalType": "uint256[]",
					"name": "arr",
					"type": "uint256[]"
				}
			],
			"name": "optimizeGasUsage",
			"outputs": [],
			"stateMutability": "nonpayable",
			"type": "function"
		},
		{
			"inputs": [],
			"name": "total",
			"outputs": [
				{
					"internalType": "uint256",
					"name": "",
					"type": "uint256"
				}
			],
			"stateMutability": "view",
			"type": "function"
		}
	]
}