{
	"data": {
		"bytecode": {
			"linkReferences": {},
			"object": "6080604052348015600e575f5ffd5b5061082d8061001c5f395ff3fe608060405234801561000f575f5ffd5b506004361061004a575f3560e01c806319045a251461004e5780635ccd48161461007e578063b446f3b2146100ae578063fa540801146100de575b5f5ffd5b610068600480360381019061006391906103d3565b61010e565b604051610075919061046c565b60405180910390f35b6100986004803603810190610093919061054d565b610178565b6040516100a591906105ef565b60405180910390f35b6100c860048036038101906100c39190610608565b6101d4565b6040516100d5919061065e565b60405180910390f35b6100f860048036038101906100f39190610677565b610203565b604051610105919061065e565b60405180910390f35b5f5f5f5f61011b85610232565b9250925092506001868285856040515f815260200160405260405161014394939291906106bd565b6020604051602081039080840390855afa158015610163573d5f5f3e3d5ffd5b50505060206040510351935050505092915050565b5f5f610183856101d4565b90505f61018f82610203565b90508373ffffffffffffffffffffffffffffffffffffffff166101b2828761010e565b73ffffffffffffffffffffffffffffffffffffffff1614925050509392505050565b5f816040516020016101e69190610752565b604051602081830303815290604052805190602001209050919050565b5f8160405160200161021591906107d2565b604051602081830303815290604052805190602001209050919050565b5f5f5f602084015192506040840151915060608401515f1a90509193909250565b5f604051905090565b5f5ffd5b5f5ffd5b5f819050919050565b61027681610264565b8114610280575f5ffd5b50565b5f813590506102918161026d565b92915050565b5f5ffd5b5f5ffd5b5f601f19601f8301169050919050565b7f4e487b71000000000000000000000000000000000000000000000000000000005f52604160045260245ffd5b6102e58261029f565b810181811067ffffffffffffffff82111715610304576103036102af565b5b80604052505050565b5f610316610253565b905061032282826102dc565b919050565b5f67ffffffffffffffff821115610341576103406102af565b5b61034a8261029f565b9050602081019050919050565b828183375f83830152505050565b5f61037761037284610327565b61030d565b9050828152602081018484840111156103935761039261029b565b5b61039e848285610357565b509392505050565b5f82601f8301126103ba576103b9610297565b5b81356103ca848260208601610365565b91505092915050565b5f5f604083850312156103e9576103e861025c565b5b5f6103f685828601610283565b925050602083013567ffffffffffffffff81111561041757610416610260565b5b610423858286016103a6565b9150509250929050565b5f73ffffffffffffffffffffffffffffffffffffffff82169050919050565b5f6104568261042d565b9050919050565b6104668161044c565b82525050565b5f60208201905061047f5f83018461045d565b92915050565b5f67ffffffffffffffff82111561049f5761049e6102af565b5b6104a88261029f565b9050602081019050919050565b5f6104c76104c284610485565b61030d565b9050828152602081018484840111156104e3576104e261029b565b5b6104ee848285610357565b509392505050565b5f82601f83011261050a57610509610297565b5b813561051a8482602086016104b5565b91505092915050565b61052c8161044c565b8114610536575f5ffd5b50565b5f8135905061054781610523565b92915050565b5f5f5f606084860312156105645761056361025c565b5b5f84013567ffffffffffffffff81111561058157610580610260565b5b61058d868287016104f6565b935050602084013567ffffffffffffffff8111156105ae576105ad610260565b5b6105ba868287016103a6565b92505060406105cb86828701610539565b9150509250925092565b5f8115159050919050565b6105e9816105d5565b82525050565b5f6020820190506106025f8301846105e0565b92915050565b5f6020828403121561061d5761061c61025c565b5b5f82013567ffffffffffffffff81111561063a57610639610260565b5b610646848285016104f6565b91505092915050565b61065881610264565b82525050565b5f6020820190506106715f83018461064f565b92915050565b5f6020828403121561068c5761068b61025c565b5b5f61069984828501610283565b91505092915050565b5f60ff82169050919050565b6106b7816106a2565b82525050565b5f6080820190506106d05f83018761064f565b6106dd60208301866106ae565b6106ea604083018561064f565b6106f7606083018461064f565b95945050505050565b5f81519050919050565b5f81905092915050565b8281835e5f83830152505050565b5f61072c82610700565b610736818561070a565b9350610746818560208601610714565b80840191505092915050565b5f61075d8284610722565b915081905092915050565b7f19457468657265756d205369676e6564204d6573736167653a0a3332000000005f82015250565b5f61079c601c8361070a565b91506107a782610768565b601c82019050919050565b5f819050919050565b6107cc6107c782610264565b6107b2565b82525050565b5f6107dc82610790565b91506107e882846107bb565b6020820191508190509291505056fea264697066735822122038e25794ae9ac177d0e835076de80c92ae812cd11996c37774cc6edbd8e13cff64736f6c63430008220033",
			"opcodes": "PUSH1 0x80 PUSH1 0x40 MSTORE CALLVALUE DUP1 ISZERO PUSH1 0xE JUMPI PUSH0 PUSH0 REVERT JUMPDEST POP PUSH2 0x82D DUP1 PUSH2 0x1C PUSH0 CODECOPY PUSH0 RETURN INVALID PUSH1 0x80 PUSH1 0x40 MSTORE CALLVALUE DUP1 ISZERO PUSH2 0xF JUMPI PUSH0 PUSH0 REVERT JUMPDEST POP PUSH1 0x4 CALLDATASIZE LT PUSH2 0x4A JUMPI PUSH0 CALLDATALOAD PUSH1 0xE0 SHR DUP1 PUSH4 0x19045A25 EQ PUSH2 0x4E JUMPI DUP1 PUSH4 0x5CCD4816 EQ PUSH2 0x7E JUMPI DUP1 PUSH4 0xB446F3B2 EQ PUSH2 0xAE JUMPI DUP1 PUSH4 0xFA540801 EQ PUSH2 0xDE JUMPI JUMPDEST PUSH0 PUSH0 REVERT JUMPDEST PUSH2 0x68 PUSH1 0x4 DUP1 CALLDATASIZE SUB DUP2 ADD SWAP1 PUSH2 0x63 SWAP2 SWAP1 PUSH2 0x3D3 JUMP JUMPDEST PUSH2 0x10E JUMP JUMPDEST PUSH1 0x40 MLOAD PUSH2 0x75 SWAP2 SWAP1 PUSH2 0x46C JUMP JUMPDEST PUSH1 0x40 MLOAD DUP1 SWAP2 SUB SWAP1 RETURN JUMPDEST PUSH2 0x98 PUSH1 0x4 DUP1 CALLDATASIZE SUB DUP2 ADD SWAP1 PUSH2 0x93 SWAP2 SWAP1 PUSH2 0x54D JUMP JUMPDEST PUSH2 0x178 JUMP JUMPDEST PUSH1 0x40 MLOAD PUSH2 0xA5 SWAP2 SWAP1 PUSH2 0x5EF JUMP JUMPDEST PUSH1 0x40 MLOAD DUP1 SWAP2 SUB SWAP1 RETURN JUMPDEST PUSH2 0xC8 PUSH1 0x4 DUP1 CALLDATASIZE SUB DUP2 ADD SWAP1 PUSH2 0xC3 SWAP2 SWAP1 PUSH2 0x608 JUMP JUMPDEST PUSH2 0x1D4 JUMP JUMPDEST PUSH1 0x40 MLOAD PUSH2 0xD5 SWAP2 SWAP1 PUSH2 0x65E JUMP JUMPDEST PUSH1 0x40 MLOAD DUP1 SWAP2 SUB SWAP1 RETURN JUMPDEST PUSH2 0xF8 PUSH1 0x4 DUP1 CALLDATASIZE SUB DUP2 ADD SWAP1 PUSH2 0xF3 SWAP2 SWAP1 PUSH2 0x677 JUMP JUMPDEST PUSH2 0x203 JUMP JUMPDEST PUSH1 0x40 MLOAD PUSH2 0x105 SWAP2 SWAP1 PUSH2 0x65E JUMP JUMPDEST PUSH1 0x40 MLOAD DUP1 SWAP2 SUB SWAP1 RETURN JUMPDEST PUSH0 PUSH0 PUSH0 PUSH0 PUSH2 0x11B DUP6 PUSH2 0x232 JUMP JUMPDEST SWAP3 POP SWAP3 POP SWAP3 POP PUSH1 0x1 DUP7 DUP3 DUP6 DUP6 PUSH1 0x40 MLOAD PUSH0 DUP2 MSTORE PUSH1 0x20 ADD PUSH1 0x40 MSTORE PUSH1 0x40 MLOAD PUSH2 0x143 SWAP5 SWAP4 SWAP3 SWAP2 SWAP1 PUSH2 0x6BD JUMP JUMPDEST PUSH1 0x20 PUSH1 0x40 MLOAD PUSH1 0x20 DUP2 SUB SWAP1 DUP1 DUP5 SUB SWAP1 DUP6 GAS STATICCALL ISZERO DUP1 ISZERO PUSH2 0x163 JUMPI RETURNDATASIZE PUSH0 PUSH0 RETURNDATACOPY RETURNDATASIZE PUSH0 REVERT JUMPDEST POP POP POP PUSH1 0x20 PUSH1 0x40 MLOAD SUB MLOAD SWAP4 POP POP POP POP SWAP3 SWAP2 POP POP JUMP JUMPDEST PUSH0 PUSH0 PUSH2 0x183 DUP6 PUSH2 0x1D4 JUMP JUMPDEST SWAP1 POP PUSH0 PUSH2 0x18F DUP3 PUSH2 0x203 JUMP JUMPDEST SWAP1 POP DUP4 PUSH20 0xFFFFFFFFFFFFFFFFFFFFFFFFFFFFFFFFFFFFFFFF AND PUSH2 0x1B2 DUP3 DUP8 PUSH2 0x10E JUMP JUMPDEST PUSH20 0xFFFFFFFFFFFFFFFFFFFFFFFFFFFFFFFFFFFFFFFF AND EQ SWAP3 POP POP POP SWAP4 SWAP3 POP POP POP JUMP JUMPDEST PUSH0 DUP2 PUSH1 0x40 MLOAD PUSH1 0x20 ADD PUSH2 0x1E6 SWAP2 SWAP1 PUSH2 0x752 JUMP JUMPDEST PUSH1 0x40 MLOAD PUSH1 0x20 DUP2 DUP4 SUB SUB DUP2 MSTORE SWAP1 PUSH1 0x40 MSTORE DUP1 MLOAD SWAP1 PUSH1 0x20 ADD KECCAK256 SWAP1 POP SWAP2 SWAP1 POP JUMP JUMPDEST PUSH0 DUP2 PUSH1 0x40 MLOAD PUSH1 0x20 ADD PUSH2 0x215 SWAP2 SWAP1 PUSH2 0x7D2 JUMP JUMPDEST PUSH1 0x40 MLOAD PUSH1 0x20 DUP2 DUP4 SUB SUB DUP2 MSTORE SWAP1 PUSH1 0x40 MSTORE DUP1 MLOAD SWAP1 PUSH1 0x20 ADD KECCAK256 SWAP1 POP SWAP2 SWAP1 POP JUMP JUMPDEST PUSH0 PUSH0 PUSH0 PUSH1 0x20 DUP5 ADD MLOAD SWAP3 POP PUSH1 0x40 DUP5 ADD MLOAD SWAP2 POP PUSH1 0x60 DUP5 ADD MLOAD PUSH0 BYTE SWAP1 POP SWAP2 SWAP4 SWAP1 SWAP3 POP JUMP JUMPDEST PUSH0 PUSH1 0x40 MLOAD SWAP1 POP SWAP1 JUMP JUMPDEST PUSH0 PUSH0 REVERT JUMPDEST PUSH0 PUSH0 REVERT JUMPDEST PUSH0 DUP2 SWAP1 POP SWAP2 SWAP1 POP JUMP JUMPDEST PUSH2 0x276 DUP2 PUSH2 0x264 JUMP JUMPDEST DUP2 EQ PUSH2 0x280 JUMPI PUSH0 PUSH0 REVERT JUMPDEST POP JUMP JUMPDEST PUSH0 DUP2 CALLDATALOAD SWAP1 POP PUSH2 0x291 DUP2 PUSH2 0x26D JUMP JUMPDEST SWAP3 SWAP2 POP POP JUMP JUMPDEST PUSH0 PUSH0 REVERT JUMPDEST PUSH0 PUSH0 REVERT JUMPDEST PUSH0 PUSH1 0x1F NOT PUSH1 0x1F DUP4 ADD AND SWAP1 POP SWAP2 SWAP1 POP JUMP JUMPDEST PUSH32 0x4E487B7100000000000000000000000000000000000000000000000000000000 PUSH0 MSTORE PUSH1 0x41 PUSH1 0x4 MSTORE PUSH1 0x24 PUSH0 REVERT JUMPDEST PUSH2 0x2E5 DUP3 PUSH2 0x29F JUMP JUMPDEST DUP2 ADD DUP2 DUP2 LT PUSH8 0xFFFFFFFFFFFFFFFF DUP3 GT OR ISZERO PUSH2 0x304 JUMPI PUSH2 0x303 PUSH2 0x2AF JUMP JUMPDEST JUMPDEST DUP1 PUSH1 0x40 MSTORE POP POP POP JUMP JUMPDEST PUSH0 PUSH2 0x316 PUSH2 0x253 JUMP JUMPDEST SWAP1 POP PUSH2 0x322 DUP3 DUP3 PUSH2 0x2DC JUMP JUMPDEST SWAP2 SWAP1 POP JUMP JUMPDEST PUSH0 PUSH8 0xFFFFFFFFFFFFFFFF DUP3 GT ISZERO PUSH2 0x341 JUMPI PUSH2 0x340 PUSH2 0x2AF JUMP JUMPDEST JUMPDEST PUSH2 0x34A DUP3 PUSH2 0x29F JUMP JUMPDEST SWAP1 POP PUSH1 0x20 DUP2 ADD SWAP1 POP SWAP2 SWAP1 POP JUMP JUMPDEST DUP3 DUP2 DUP4 CALLDATACOPY PUSH0 DUP4 DUP4 ADD MSTORE POP POP POP JUMP JUMPDEST PUSH0 PUSH2 0x377 PUSH2 0x372 DUP5 PUSH2 0x327 JUMP JUMPDEST PUSH2 0x30D JUMP JUMPDEST SWAP1 POP DUP3 DUP2 MSTORE PUSH1 0x20 DUP2 ADD DUP5 DUP5 DUP5 ADD GT ISZERO PUSH2 0x393 JUMPI PUSH2 0x392 PUSH2 0x29B JUMP JUMPDEST JUMPDEST PUSH2 0x39E DUP5 DUP3 DUP6 PUSH2 0x357 JUMP JUMPDEST POP SWAP4 SWAP3 POP POP POP JUMP JUMPDEST PUSH0 DUP3 PUSH1 0x1F DUP4 ADD SLT PUSH2 0x3BA JUMPI PUSH2 0x3B9 PUSH2 0x297 JUMP JUMPDEST JUMPDEST DUP2 CALLDATALOAD PUSH2 0x3CA DUP5 DUP3 PUSH1 0x20 DUP7 ADD PUSH2 0x365 JUMP JUMPDEST SWAP2 POP POP SWAP3 SWAP2 POP POP JUMP JUMPDEST PUSH0 PUSH0 PUSH1 0x40 DUP4 DUP6 SUB SLT ISZERO PUSH2 0x3E9 JUMPI PUSH2 0x3E8 PUSH2 0x25C JUMP JUMPDEST JUMPDEST PUSH0 PUSH2 0x3F6 DUP6 DUP3 DUP7 ADD PUSH2 0x283 JUMP JUMPDEST SWAP3 POP POP PUSH1 0x20 DUP4 ADD CALLDATALOAD PUSH8 0xFFFFFFFFFFFFFFFF DUP2 GT ISZERO PUSH2 0x417 JUMPI PUSH2 0x416 PUSH2 0x260 JUMP JUMPDEST JUMPDEST PUSH2 0x423 DUP6 DUP3 DUP7 ADD PUSH2 0x3A6 JUMP JUMPDEST SWAP2 POP POP SWAP3 POP SWAP3 SWAP1 POP JUMP JUMPDEST PUSH0 PUSH20 0xFFFFFFFFFFFFFFFFFFFFFFFFFFFFFFFFFFFFFFFF DUP3 AND SWAP1 POP SWAP2 SWAP1 POP JUMP JUMPDEST PUSH0 PUSH2 0x456 DUP3 PUSH2 0x42D JUMP JUMPDEST SWAP1 POP SWAP2 SWAP1 POP JUMP JUMPDEST PUSH2 0x466 DUP2 PUSH2 0x44C JUMP JUMPDEST DUP3 MSTORE POP POP JUMP JUMPDEST PUSH0 PUSH1 0x20 DUP3 ADD SWAP1 POP PUSH2 0x47F PUSH0 DUP4 ADD DUP5 PUSH2 0x45D JUMP JUMPDEST SWAP3 SWAP2 POP POP JUMP JUMPDEST PUSH0 PUSH8 0xFFFFFFFFFFFFFFFF DUP3 GT ISZERO PUSH2 0x49F JUMPI PUSH2 0x49E PUSH2 0x2AF JUMP JUMPDEST JUMPDEST PUSH2 0x4A8 DUP3 PUSH2 0x29F JUMP JUMPDEST SWAP1 POP PUSH1 0x20 DUP2 ADD SWAP1 POP SWAP2 SWAP1 POP JUMP JUMPDEST PUSH0 PUSH2 0x4C7 PUSH2 0x4C2 DUP5 PUSH2 0x485 JUMP JUMPDEST PUSH2 0x30D JUMP JUMPDEST SWAP1 POP DUP3 DUP2 MSTORE PUSH1 0x20 DUP2 ADD DUP5 DUP5 DUP5 ADD GT ISZERO PUSH2 0x4E3 JUMPI PUSH2 0x4E2 PUSH2 0x29B JUMP JUMPDEST JUMPDEST PUSH2 0x4EE DUP5 DUP3 DUP6 PUSH2 0x357 JUMP JUMPDEST POP SWAP4 SWAP3 POP POP POP JUMP JUMPDEST PUSH0 DUP3 PUSH1 0x1F DUP4 ADD SLT PUSH2 0x50A JUMPI PUSH2 0x509 PUSH2 0x297 JUMP JUMPDEST JUMPDEST DUP2 CALLDATALOAD PUSH2 0x51A DUP5 DUP3 PUSH1 0x20 DUP7 ADD PUSH2 0x4B5 JUMP JUMPDEST SWAP2 POP POP SWAP3 SWAP2 POP POP JUMP JUMPDEST PUSH2 0x52C DUP2 PUSH2 0x44C JUMP JUMPDEST DUP2 EQ PUSH2 0x536 JUMPI PUSH0 PUSH0 REVERT JUMPDEST POP JUMP JUMPDEST PUSH0 DUP2 CALLDATALOAD SWAP1 POP PUSH2 0x547 DUP2 PUSH2 0x523 JUMP JUMPDEST SWAP3 SWAP2 POP POP JUMP JUMPDEST PUSH0 PUSH0 PUSH0 PUSH1 0x60 DUP5 DUP7 SUB SLT ISZERO PUSH2 0x564 JUMPI PUSH2 0x563 PUSH2 0x25C JUMP JUMPDEST JUMPDEST PUSH0 DUP5 ADD CALLDATALOAD PUSH8 0xFFFFFFFFFFFFFFFF DUP2 GT ISZERO PUSH2 0x581 JUMPI PUSH2 0x580 PUSH2 0x260 JUMP JUMPDEST JUMPDEST PUSH2 0x58D DUP7 DUP3 DUP8 ADD PUSH2 0x4F6 JUMP JUMPDEST SWAP4 POP POP PUSH1 0x20 DUP5 ADD CALLDATALOAD PUSH8 0xFFFFFFFFFFFFFFFF DUP2 GT ISZERO PUSH2 0x5AE JUMPI PUSH2 0x5AD PUSH2 0x260 JUMP JUMPDEST JUMPDEST PUSH2 0x5BA DUP7 DUP3 DUP8 ADD PUSH2 0x3A6 JUMP JUMPDEST SWAP3 POP POP PUSH1 0x40 PUSH2 0x5CB DUP7 DUP3 DUP8 ADD PUSH2 0x539 JUMP JUMPDEST SWAP2 POP POP SWAP3 POP SWAP3 POP SWAP3 JUMP JUMPDEST PUSH0 DUP2 ISZERO ISZERO SWAP1 POP SWAP2 SWAP1 POP JUMP JUMPDEST PUSH2 0x5E9 DUP2 PUSH2 0x5D5 JUMP JUMPDEST DUP3 MSTORE POP POP JUMP JUMPDEST PUSH0 PUSH1 0x20 DUP3 ADD SWAP1 POP PUSH2 0x602 PUSH0 DUP4 ADD DUP5 PUSH2 0x5E0 JUMP JUMPDEST SWAP3 SWAP2 POP POP JUMP JUMPDEST PUSH0 PUSH1 0x20 DUP3 DUP5 SUB SLT ISZERO PUSH2 0x61D JUMPI PUSH2 0x61C PUSH2 0x25C JUMP JUMPDEST JUMPDEST PUSH0 DUP3 ADD CALLDATALOAD PUSH8 0xFFFFFFFFFFFFFFFF DUP2 GT ISZERO PUSH2 0x63A JUMPI PUSH2 0x639 PUSH2 0x260 JUMP JUMPDEST JUMPDEST PUSH2 0x646 DUP5 DUP3 DUP6 ADD PUSH2 0x4F6 JUMP JUMPDEST SWAP2 POP POP SWAP3 SWAP2 POP POP JUMP JUMPDEST PUSH2 0x658 DUP2 PUSH2 0x264 JUMP JUMPDEST DUP3 MSTORE POP POP JUMP JUMPDEST PUSH0 PUSH1 0x20 DUP3 ADD SWAP1 POP PUSH2 0x671 PUSH0 DUP4 ADD DUP5 PUSH2 0x64F JUMP JUMPDEST SWAP3 SWAP2 POP POP JUMP JUMPDEST PUSH0 PUSH1 0x20 DUP3 DUP5 SUB SLT ISZERO PUSH2 0x68C JUMPI PUSH2 0x68B PUSH2 0x25C JUMP JUMPDEST JUMPDEST PUSH0 PUSH2 0x699 DUP5 DUP3 DUP6 ADD PUSH2 0x283 JUMP JUMPDEST SWAP2 POP POP SWAP3 SWAP2 POP POP JUMP JUMPDEST PUSH0 PUSH1 0xFF DUP3 AND SWAP1 POP SWAP2 SWAP1 POP JUMP JUMPDEST PUSH2 0x6B7 DUP2 PUSH2 0x6A2 JUMP JUMPDEST DUP3 MSTORE POP POP JUMP JUMPDEST PUSH0 PUSH1 0x80 DUP3 ADD SWAP1 POP PUSH2 0x6D0 PUSH0 DUP4 ADD DUP8 PUSH2 0x64F JUMP JUMPDEST PUSH2 0x6DD PUSH1 0x20 DUP4 ADD DUP7 PUSH2 0x6AE JUMP JUMPDEST PUSH2 0x6EA PUSH1 0x40 DUP4 ADD DUP6 PUSH2 0x64F JUMP JUMPDEST PUSH2 0x6F7 PUSH1 0x60 DUP4 ADD DUP5 PUSH2 0x64F JUMP JUMPDEST SWAP6 SWAP5 POP POP POP POP POP JUMP JUMPDEST PUSH0 DUP2 MLOAD SWAP1 POP SWAP2 SWAP1 POP JUMP JUMPDEST PUSH0 DUP2 SWAP1 POP SWAP3 SWAP2 POP POP JUMP JUMPDEST DUP3 DUP2 DUP4 MCOPY PUSH0 DUP4 DUP4 ADD MSTORE POP POP POP JUMP JUMPDEST PUSH0 PUSH2 0x72C DUP3 PUSH2 0x700 JUMP JUMPDEST PUSH2 0x736 DUP2 DUP6 PUSH2 0x70A JUMP JUMPDEST SWAP4 POP PUSH2 0x746 DUP2 DUP6 PUSH1 0x20 DUP7 ADD PUSH2 0x714 JUMP JUMPDEST DUP1 DUP5 ADD SWAP2 POP POP SWAP3 SWAP2 POP POP JUMP JUMPDEST PUSH0 PUSH2 0x75D DUP3 DUP5 PUSH2 0x722 JUMP JUMPDEST SWAP2 POP DUP2 SWAP1 POP SWAP3 SWAP2 POP POP JUMP JUMPDEST PUSH32 0x19457468657265756D205369676E6564204D6573736167653A0A333200000000 PUSH0 DUP3 ADD MSTORE POP JUMP JUMPDEST PUSH0 PUSH2 0x79C PUSH1 0x1C DUP4 PUSH2 0x70A JUMP JUMPDEST SWAP2 POP PUSH2 0x7A7 DUP3 PUSH2 0x768 JUMP JUMPDEST PUSH1 0x1C DUP3 ADD SWAP1 POP SWAP2 SWAP1 POP JUMP JUMPDEST PUSH0 DUP2 SWAP1 POP SWAP2 SWAP1 POP JUMP JUMPDEST PUSH2 0x7CC PUSH2 0x7C7 DUP3 PUSH2 0x264 JUMP JUMPDEST PUSH2 0x7B2 JUMP JUMPDEST DUP3 MSTORE POP POP JUMP JUMPDEST PUSH0 PUSH2 0x7DC DUP3 PUSH2 0x790 JUMP JUMPDEST SWAP2 POP PUSH2 0x7E8 DUP3 DUP5 PUSH2 0x7BB JUMP JUMPDEST PUSH1 0x20 DUP3 ADD SWAP2 POP DUP2 SWAP1 POP SWAP3 SWAP2 POP POP JUMP INVALID LOG2 PUSH5 0x6970667358 0x22 SLT KECCAK256 CODESIZE 0xE2 JUMPI SWAP5 0xAE SWAP11 0xC1 PUSH24 0xD0E835076DE80C92AE812CD11996C37774CC6EDBD8E13CFF PUSH5 0x736F6C6343 STOP ADDMOD 0x22 STOP CALLER "
		},
		"gasEstimates": {
			"creation": {
				"codeDepositCost": "418600",
				"executionCost": "453",
				"totalCost": "419053"
			},
			"external": {
				"getEthSignedMessageHash(bytes32)": "infinite",
				"getMessageHash(string)": "infinite",
				"recover(bytes32,bytes)": "infinite",
				"verify(string,bytes,address)": "infinite"
			},
			"internal": {
				"splitSignature(bytes memory)": "infinite"
			}
		},
		"methodIdentifiers": {
			"getEthSignedMessageHash(bytes32)": "fa540801",
			"getMessageHash(string)": "b446f3b2",
			"recover(bytes32,bytes)": "19045a25",
			"verify(string,bytes,address)": "5ccd4816"
		}
	},
	"abi": [
		{
			"inputs": [
				{
					"internalType": "bytes32",
					"name": "messageHash",
					"type": "bytes32"
				}
			],
			"name": "getEthSignedMessageHash",
			"outputs": [
				{
					"internalType": "bytes32",
					"name": "",
					"type": "bytes32"
				}
			],
			"stateMutability": "pure",
			"type": "function"
		},
		{
			"inputs": [
				{
					"internalType": "string",
					"name": "message",
					"type": "string"
				}
			],
			"name": "getMessageHash",
			"outputs": [
				{
					"internalType": "bytes32",
					"name": "",
					"type": "bytes32"
				}
			],
			"stateMutability": "pure",
			"type": "function"
		},
		{
			"inputs": [
				{
					"internalType": "bytes32",
					"name": "ethSignedMessageHash",
					"type": "bytes32"
				},
				{
					"internalType": "bytes",
					"name": "sign",
					"type": "bytes"
				}
			],
			"name": "recover",
			"outputs": [
				{
					"internalType": "address",
					"name": "",
					"type": "address"
				}
			],
			"stateMutability": "pure",
			"type": "function"
		},
		{
			"inputs": [
				{
					"internalType": "string",
					"name": "message",
					"type": "string"
				},
				{
					"internalType": "bytes",
					"name": "sign",
					"type": "bytes"
				},
				{
					"internalType": "address",
					"name": "signer",
					"type": "address"
				}
			],
			"name": "verify",
			"outputs": [
				{
					"internalType": "bool",
					"name": "",
					"type": "bool"
				}
			],
			"stateMutability": "pure",
			"type": "function"
		}
	]
}