{
	"data": {
		"bytecode": {
			"linkReferences": {},
			"object": "60806040526040518060600160405280600160ff168152602001600260ff168152602001600360ff168152505f9081610038919061024f565b50348015610044575f5ffd5b506102d3565b7f4e487b71000000000000000000000000000000000000000000000000000000005f52604160045260245ffd5b5f81549050919050565b5f819050919050565b5f8190506001806001038301049050919050565b5f819050815f5260205f209050919050565b5f82821b905092915050565b5f600883026100eb7fffffffffffffffffffffffffffffffffffffffffffffffffffffffffffffffff826100b0565b6100f586836100b0565b95508019841693508086168417925050509392505050565b5f819050919050565b5f61013061012b61012684610081565b61010d565b610081565b9050919050565b5f819050919050565b61014983610116565b61015d61015582610137565b8484546100bc565b825550505050565b5f5f905090565b610174610165565b61017f818484610140565b505050565b5f5b828110156101a55761019a5f82840161016c565b600181019050610186565b505050565b818310156101e1576101bb8261008a565b6101c48461008a565b6101cd8361009e565b8181016101dc83850382610184565b505050505b505050565b68010000000000000000821115610200576101ff61004a565b5b61020981610077565b8282556102178382846101aa565b505050565b5f60039050919050565b5f60ff82169050919050565b5f61023d8251610226565b80915050919050565b5f819050919050565b6102588261021c565b67ffffffffffffffff8111156102715761027061004a565b5b61027b81836101e6565b61028483610246565b61028d8361009e565b600183045f5b818110156102ca575f6102a585610232565b6102ae81610137565b8092506020870196505050808285015550600181019050610293565b50505050505050565b6102a7806102e05f395ff3fe608060405234801561000f575f5ffd5b506004361061003f575f3560e01c8063064664541461004357806371e5ee5f14610061578063795dc56a14610091575b5f5ffd5b61004b6100af565b6040516100589190610172565b60405180910390f35b61007b600480360381019061007691906101b9565b6100c1565b6040516100889190610172565b60405180910390f35b6100996100e0565b6040516100a69190610172565b60405180910390f35b5f6100bc600860056100ef565b905090565b5f81815481106100cf575f80fd5b905f5260205f20015f915090505481565b5f6100ea5f610107565b905090565b5f8183106100fd57816100ff565b825b905092915050565b5f5f5f5f90505b83805490508110156101505783818154811061012d5761012c6101e4565b5b905f5260205f20015482610141919061023e565b9150808060010191505061010e565b5080915050919050565b5f819050919050565b61016c8161015a565b82525050565b5f6020820190506101855f830184610163565b92915050565b5f5ffd5b6101988161015a565b81146101a2575f5ffd5b50565b5f813590506101b38161018f565b92915050565b5f602082840312156101ce576101cd61018b565b5b5f6101db848285016101a5565b91505092915050565b7f4e487b71000000000000000000000000000000000000000000000000000000005f52603260045260245ffd5b7f4e487b71000000000000000000000000000000000000000000000000000000005f52601160045260245ffd5b5f6102488261015a565b91506102538361015a565b925082820190508082111561026b5761026a610211565b5b9291505056fea26469706673582212205738cbc49db2d5a999f3acea523e4b2e4a738bf42c8197eee45f476a1c4b9e2664736f6c63430008220033",
			"opcodes": "PUSH1 0x80 PUSH1 0x40 MSTORE PUSH1 0x40 MLOAD DUP1 PUSH1 0x60 ADD PUSH1 0x40 MSTORE DUP1 PUSH1 0x1 PUSH1 0xFF AND DUP2 MSTORE PUSH1 0x20 ADD PUSH1 0x2 PUSH1 0xFF AND DUP2 MSTORE PUSH1 0x20 ADD PUSH1 0x3 PUSH1 0xFF AND DUP2 MSTORE POP PUSH0 SWAP1 DUP2 PUSH2 0x38 SWAP2 SWAP1 PUSH2 0x24F JUMP JUMPDEST POP CALLVALUE DUP1 ISZERO PUSH2 0x44 JUMPI PUSH0 PUSH0 REVERT JUMPDEST POP PUSH2 0x2D3 JUMP JUMPDEST PUSH32 0x4E487B7100000000000000000000000000000000000000000000000000000000 PUSH0 MSTORE PUSH1 0x41 PUSH1 0x4 MSTORE PUSH1 0x24 PUSH0 REVERT JUMPDEST PUSH0 DUP2 SLOAD SWAP1 POP SWAP2 SWAP1 POP JUMP JUMPDEST PUSH0 DUP2 SWAP1 POP SWAP2 SWAP1 POP JUMP JUMPDEST PUSH0 DUP2 SWAP1 POP PUSH1 0x1 DUP1 PUSH1 0x1 SUB DUP4 ADD DIV SWAP1 POP SWAP2 SWAP1 POP JUMP JUMPDEST PUSH0 DUP2 SWAP1 POP DUP2 PUSH0 MSTORE PUSH1 0x20 PUSH0 KECCAK256 SWAP1 POP SWAP2 SWAP1 POP JUMP JUMPDEST PUSH0 DUP3 DUP3 SHL SWAP1 POP SWAP3 SWAP2 POP POP JUMP JUMPDEST PUSH0 PUSH1 0x8 DUP4 MUL PUSH2 0xEB PUSH32 0xFFFFFFFFFFFFFFFFFFFFFFFFFFFFFFFFFFFFFFFFFFFFFFFFFFFFFFFFFFFFFFFF DUP3 PUSH2 0xB0 JUMP JUMPDEST PUSH2 0xF5 DUP7 DUP4 PUSH2 0xB0 JUMP JUMPDEST SWAP6 POP DUP1 NOT DUP5 AND SWAP4 POP DUP1 DUP7 AND DUP5 OR SWAP3 POP POP POP SWAP4 SWAP3 POP POP POP JUMP JUMPDEST PUSH0 DUP2 SWAP1 POP SWAP2 SWAP1 POP JUMP JUMPDEST PUSH0 PUSH2 0x130 PUSH2 0x12B PUSH2 0x126 DUP5 PUSH2 0x81 JUMP JUMPDEST PUSH2 0x10D JUMP JUMPDEST PUSH2 0x81 JUMP JUMPDEST SWAP1 POP SWAP2 SWAP1 POP JUMP JUMPDEST PUSH0 DUP2 SWAP1 POP SWAP2 SWAP1 POP JUMP JUMPDEST PUSH2 0x149 DUP4 PUSH2 0x116 JUMP JUMPDEST PUSH2 0x15D PUSH2 0x155 DUP3 PUSH2 0x137 JUMP JUMPDEST DUP5 DUP5 SLOAD PUSH2 0xBC JUMP JUMPDEST DUP3 SSTORE POP POP POP POP JUMP JUMPDEST PUSH0 PUSH0 SWAP1 POP SWAP1 JUMP JUMPDEST PUSH2 0x174 PUSH2 0x165 JUMP JUMPDEST PUSH2 0x17F DUP2 DUP5 DUP5 PUSH2 0x140 JUMP JUMPDEST POP POP POP JUMP JUMPDEST PUSH0 JUMPDEST DUP3 DUP2 LT ISZERO PUSH2 0x1A5 JUMPI PUSH2 0x19A PUSH0 DUP3 DUP5 ADD PUSH2 0x16C JUMP JUMPDEST PUSH1 0x1 DUP2 ADD SWAP1 POP PUSH2 0x186 JUMP JUMPDEST POP POP POP JUMP JUMPDEST DUP2 DUP4 LT ISZERO PUSH2 0x1E1 JUMPI PUSH2 0x1BB DUP3 PUSH2 0x8A JUMP JUMPDEST PUSH2 0x1C4 DUP5 PUSH2 0x8A JUMP JUMPDEST PUSH2 0x1CD DUP4 PUSH2 0x9E JUMP JUMPDEST DUP2 DUP2 ADD PUSH2 0x1DC DUP4 DUP6 SUB DUP3 PUSH2 0x184 JUMP JUMPDEST POP POP POP POP JUMPDEST POP POP POP JUMP JUMPDEST PUSH9 0x10000000000000000 DUP3 GT ISZERO PUSH2 0x200 JUMPI PUSH2 0x1FF PUSH2 0x4A JUMP JUMPDEST JUMPDEST PUSH2 0x209 DUP2 PUSH2 0x77 JUMP JUMPDEST DUP3 DUP3 SSTORE PUSH2 0x217 DUP4 DUP3 DUP5 PUSH2 0x1AA JUMP JUMPDEST POP POP POP JUMP JUMPDEST PUSH0 PUSH1 0x3 SWAP1 POP SWAP2 SWAP1 POP JUMP JUMPDEST PUSH0 PUSH1 0xFF DUP3 AND SWAP1 POP SWAP2 SWAP1 POP JUMP JUMPDEST PUSH0 PUSH2 0x23D DUP3 MLOAD PUSH2 0x226 JUMP JUMPDEST DUP1 SWAP2 POP POP SWAP2 SWAP1 POP JUMP JUMPDEST PUSH0 DUP2 SWAP1 POP SWAP2 SWAP1 POP JUMP JUMPDEST PUSH2 0x258 DUP3 PUSH2 0x21C JUMP JUMPDEST PUSH8 0xFFFFFFFFFFFFFFFF DUP2 GT ISZERO PUSH2 0x271 JUMPI PUSH2 0x270 PUSH2 0x4A JUMP JUMPDEST JUMPDEST PUSH2 0x27B DUP2 DUP4 PUSH2 0x1E6 JUMP JUMPDEST PUSH2 0x284 DUP4 PUSH2 0x246 JUMP JUMPDEST PUSH2 0x28D DUP4 PUSH2 0x9E JUMP JUMPDEST PUSH1 0x1 DUP4 DIV PUSH0 JUMPDEST DUP2 DUP2 LT ISZERO PUSH2 0x2CA JUMPI PUSH0 PUSH2 0x2A5 DUP6 PUSH2 0x232 JUMP JUMPDEST PUSH2 0x2AE DUP2 PUSH2 0x137 JUMP JUMPDEST DUP1 SWAP3 POP PUSH1 0x20 DUP8 ADD SWAP7 POP POP POP DUP1 DUP3 DUP6 ADD SSTORE POP PUSH1 0x1 DUP2 ADD SWAP1 POP PUSH2 0x293 JUMP JUMPDEST POP POP POP POP POP POP POP JUMP JUMPDEST PUSH2 0x2A7 DUP1 PUSH2 0x2E0 PUSH0 CODECOPY PUSH0 RETURN INVALID PUSH1 0x80 PUSH1 0x40 MSTORE CALLVALUE DUP1 ISZERO PUSH2 0xF JUMPI PUSH0 PUSH0 REVERT JUMPDEST POP PUSH1 0x4 CALLDATASIZE LT PUSH2 0x3F JUMPI PUSH0 CALLDATALOAD PUSH1 0xE0 SHR DUP1 PUSH4 0x6466454 EQ PUSH2 0x43 JUMPI DUP1 PUSH4 0x71E5EE5F EQ PUSH2 0x61 JUMPI DUP1 PUSH4 0x795DC56A EQ PUSH2 0x91 JUMPI JUMPDEST PUSH0 PUSH0 REVERT JUMPDEST PUSH2 0x4B PUSH2 0xAF JUMP JUMPDEST PUSH1 0x40 MLOAD PUSH2 0x58 SWAP2 SWAP1 PUSH2 0x172 JUMP JUMPDEST PUSH1 0x40 MLOAD DUP1 SWAP2 SUB SWAP1 RETURN JUMPDEST PUSH2 0x7B PUSH1 0x4 DUP1 CALLDATASIZE SUB DUP2 ADD SWAP1 PUSH2 0x76 SWAP2 SWAP1 PUSH2 0x1B9 JUMP JUMPDEST PUSH2 0xC1 JUMP JUMPDEST PUSH1 0x40 MLOAD PUSH2 0x88 SWAP2 SWAP1 PUSH2 0x172 JUMP JUMPDEST PUSH1 0x40 MLOAD DUP1 SWAP2 SUB SWAP1 RETURN JUMPDEST PUSH2 0x99 PUSH2 0xE0 JUMP JUMPDEST PUSH1 0x40 MLOAD PUSH2 0xA6 SWAP2 SWAP1 PUSH2 0x172 JUMP JUMPDEST PUSH1 0x40 MLOAD DUP1 SWAP2 SUB SWAP1 RETURN JUMPDEST PUSH0 PUSH2 0xBC PUSH1 0x8 PUSH1 0x5 PUSH2 0xEF JUMP JUMPDEST SWAP1 POP SWAP1 JUMP JUMPDEST PUSH0 DUP2 DUP2 SLOAD DUP2 LT PUSH2 0xCF JUMPI PUSH0 DUP1 REVERT JUMPDEST SWAP1 PUSH0 MSTORE PUSH1 0x20 PUSH0 KECCAK256 ADD PUSH0 SWAP2 POP SWAP1 POP SLOAD DUP2 JUMP JUMPDEST PUSH0 PUSH2 0xEA PUSH0 PUSH2 0x107 JUMP JUMPDEST SWAP1 POP SWAP1 JUMP JUMPDEST PUSH0 DUP2 DUP4 LT PUSH2 0xFD JUMPI DUP2 PUSH2 0xFF JUMP JUMPDEST DUP3 JUMPDEST SWAP1 POP SWAP3 SWAP2 POP POP JUMP JUMPDEST PUSH0 PUSH0 PUSH0 PUSH0 SWAP1 POP JUMPDEST DUP4 DUP1 SLOAD SWAP1 POP DUP2 LT ISZERO PUSH2 0x150 JUMPI DUP4 DUP2 DUP2 SLOAD DUP2 LT PUSH2 0x12D JUMPI PUSH2 0x12C PUSH2 0x1E4 JUMP JUMPDEST JUMPDEST SWAP1 PUSH0 MSTORE PUSH1 0x20 PUSH0 KECCAK256 ADD SLOAD DUP3 PUSH2 0x141 SWAP2 SWAP1 PUSH2 0x23E JUMP JUMPDEST SWAP2 POP DUP1 DUP1 PUSH1 0x1 ADD SWAP2 POP POP PUSH2 0x10E JUMP JUMPDEST POP DUP1 SWAP2 POP POP SWAP2 SWAP1 POP JUMP JUMPDEST PUSH0 DUP2 SWAP1 POP SWAP2 SWAP1 POP JUMP JUMPDEST PUSH2 0x16C DUP2 PUSH2 0x15A JUMP JUMPDEST DUP3 MSTORE POP POP JUMP JUMPDEST PUSH0 PUSH1 0x20 DUP3 ADD SWAP1 POP PUSH2 0x185 PUSH0 DUP4 ADD DUP5 PUSH2 0x163 JUMP JUMPDEST SWAP3 SWAP2 POP POP JUMP JUMPDEST PUSH0 PUSH0 REVERT JUMPDEST PUSH2 0x198 DUP2 PUSH2 0x15A JUMP JUMPDEST DUP2 EQ PUSH2 0x1A2 JUMPI PUSH0 PUSH0 REVERT JUMPDEST POP JUMP JUMPDEST PUSH0 DUP2 CALLDATALOAD SWAP1 POP PUSH2 0x1B3 DUP2 PUSH2 0x18F JUMP JUMPDEST SWAP3 SWAP2 POP POP JUMP JUMPDEST PUSH0 PUSH1 0x20 DUP3 DUP5 SUB SLT ISZERO PUSH2 0x1CE JUMPI PUSH2 0x1CD PUSH2 0x18B JUMP JUMPDEST JUMPDEST PUSH0 PUSH2 0x1DB DUP5 DUP3 DUP6 ADD PUSH2 0x1A5 JUMP JUMPDEST SWAP2 POP POP SWAP3 SWAP2 POP POP JUMP JUMPDEST PUSH32 0x4E487B7100000000000000000000000000000000000000000000000000000000 PUSH0 MSTORE PUSH1 0x32 PUSH1 0x4 MSTORE PUSH1 0x24 PUSH0 REVERT JUMPDEST PUSH32 0x4E487B7100000000000000000000000000000000000000000000000000000000 PUSH0 MSTORE PUSH1 0x11 PUSH1 0x4 MSTORE PUSH1 0x24 PUSH0 REVERT JUMPDEST PUSH0 PUSH2 0x248 DUP3 PUSH2 0x15A JUMP JUMPDEST SWAP2 POP PUSH2 0x253 DUP4 PUSH2 0x15A JUMP JUMPDEST SWAP3 POP DUP3 DUP3 ADD SWAP1 POP DUP1 DUP3 GT ISZERO PUSH2 0x26B JUMPI PUSH2 0x26A PUSH2 0x211 JUMP JUMPDEST JUMPDEST SWAP3 SWAP2 POP POP JUMP INVALID LOG2 PUSH5 0x6970667358 0x22 SLT KECCAK256 JUMPI CODESIZE 0xCB 0xC4 SWAP14 0xB2 0xD5 0xA9 SWAP10 RETURN 0xAC 0xEA MSTORE RETURNDATACOPY 0x4B 0x2E BLOBBASEFEE PUSH20 0x8BF42C8197EEE45F476A1C4B9E2664736F6C6343 STOP ADDMOD 0x22 STOP CALLER "
		},
		"gasEstimates": {
			"creation": {
				"codeDepositCost": "135800",
				"executionCost": "infinite",
				"totalCost": "infinite"
			},
			"external": {
				"arr(uint256)": "infinite",
				"testMin()": "391",
				"testSum()": "infinite"
			}
		},
		"methodIdentifiers": {
			"arr(uint256)": "71e5ee5f",
			"testMin()": "06466454",
			"testSum()": "795dc56a"
		}
	},
	"abi": [
		{
			"inputs": [
				{
					"internalType": "uint256",
					"name": "",
					"type": "uint256"
				}
			],
			"name": "arr",
			"outputs": [
				{
					"internalType": "uint256",
					"name": "",
					"type": "uint256"
				}
			],
			"stateMutability": "view",
			"type": "function"
		},
		{
			"inputs": [],
			"name": "testMin",
			"outputs": [
				{
					"internalType": "uint256",
					"name": "",
					"type": "uint256"
				}
			],
			"stateMutability": "pure",
			"type": "function"
		},
		{
			"inputs": [],
			"name": "testSum",
			"outputs": [
				{
					"internalType": "uint256",
					"name": "",
					"type": "uint256"
				}
			],
			"stateMutability": "view",
			"type": "function"
		}
	]
}